{"contracts/BigWickGame.sol":{"BigWickGame":{"abi":[{"inputs":[],"stateMutability":"nonpayable","type":"constructor"},{"anonymous":false,"inputs":[{"indexed":true,"internalType":"uint256","name":"gameId","type":"uint256"},{"indexed":true,"internalType":"address","name":"player","type":"address"},{"indexed":false,"internalType":"uint256","name":"amount","type":"uint256"},{"indexed":false,"internalType":"uint256","name":"totalBid","type":"uint256"}],"name":"BidPlaced","type":"event"},{"anonymous":false,"inputs":[{"indexed":true,"internalType":"uint256","name":"gameId","type":"uint256"},{"indexed":false,"internalType":"uint256","name":"candleEnd","type":"uint256"}],"name":"CandleEndDetermined","type":"event"},{"anonymous":false,"inputs":[{"indexed":true,"internalType":"uint256","name":"gameId","type":"uint256"},{"indexed":true,"internalType":"address","name":"winner","type":"address"},{"indexed":false,"internalType":"uint256","name":"prizeAmount","type":"uint256"},{"indexed":false,"internalType":"uint256","name":"treasuryAmount","type":"uint256"}],"name":"GameEnded","type":"event"},{"anonymous":false,"inputs":[{"indexed":true,"internalType":"uint256","name":"gameId","type":"uint256"},{"indexed":false,"internalType":"uint256","name":"startTime","type":"uint256"},{"indexed":false,"internalType":"uint256","name":"endingPeriodStart","type":"uint256"},{"indexed":false,"internalType":"uint256","name":"endTime","type":"uint256"}],"name":"GameStarted","type":"event"},{"inputs":[],"name":"ENDING_PERIOD","outputs":[{"internalType":"uint256","name":"","type":"uint256"}],"stateMutability":"view","type":"function"},{"inputs":[],"name":"STARTING_PERIOD","outputs":[{"internalType":"uint256","name":"","type":"uint256"}],"stateMutability":"view","type":"function"},{"inputs":[],"name":"TREASURY_SHARE","outputs":[{"internalType":"uint256","name":"","type":"uint256"}],"stateMutability":"view","type":"function"},{"inputs":[],"name":"WINNER_SHARE","outputs":[{"internalType":"uint256","name":"","type":"uint256"}],"stateMutability":"view","type":"function"},{"inputs":[],"name":"currentGameId","outputs":[{"internalType":"uint256","name":"","type":"uint256"}],"stateMutability":"view","type":"function"},{"inputs":[{"internalType":"uint256","name":"gameId","type":"uint256"}],"name":"emergencyEndGame","outputs":[],"stateMutability":"nonpayable","type":"function"},{"inputs":[{"internalType":"uint256","name":"gameId","type":"uint256"}],"name":"endGame","outputs":[],"stateMutability":"nonpayable","type":"function"},{"inputs":[{"internalType":"uint256","name":"","type":"uint256"},{"internalType":"uint256","name":"","type":"uint256"}],"name":"gamePlayerList","outputs":[{"internalType":"address","name":"","type":"address"}],"stateMutability":"view","type":"function"},{"inputs":[{"internalType":"uint256","name":"","type":"uint256"},{"internalType":"address","name":"","type":"address"}],"name":"gamePlayers","outputs":[{"internalType":"uint256","name":"totalBid","type":"uint256"},{"internalType":"uint256","name":"bidCount","type":"uint256"},{"internalType":"uint256","name":"lastBidTime","type":"uint256"},{"internalType":"bool","name":"exists","type":"bool"}],"stateMutability":"view","type":"function"},{"inputs":[{"internalType":"uint256","name":"","type":"uint256"}],"name":"games","outputs":[{"internalType":"uint256","name":"gameId","type":"uint256"},{"internalType":"uint256","name":"startTime","type":"uint256"},{"internalType":"uint256","name":"endingPeriodStart","type":"uint256"},{"internalType":"uint256","name":"endTime","type":"uint256"},{"internalType":"uint256","name":"totalPot","type":"uint256"},{"internalType":"uint256","name":"treasuryFund","type":"uint256"},{"internalType":"address","name":"winner","type":"address"},{"internalType":"enum BigWickGame.GameState","name":"state","type":"uint8"},{"internalType":"uint256","name":"candleEnd","type":"uint256"},{"internalType":"bool","name":"finalized","type":"bool"}],"stateMutability":"view","type":"function"},{"inputs":[{"internalType":"uint256","name":"gameId","type":"uint256"}],"name":"getGamePlayerCount","outputs":[{"internalType":"uint256","name":"","type":"uint256"}],"stateMutability":"view","type":"function"},{"inputs":[{"internalType":"uint256","name":"gameId","type":"uint256"}],"name":"getGamePlayers","outputs":[{"internalType":"address[]","name":"","type":"address[]"}],"stateMutability":"view","type":"function"},{"inputs":[{"internalType":"uint256","name":"gameId","type":"uint256"}],"name":"getGameState","outputs":[{"internalType":"enum BigWickGame.GameState","name":"","type":"uint8"}],"stateMutability":"view","type":"function"},{"inputs":[{"internalType":"uint256","name":"gameId","type":"uint256"},{"internalType":"address","name":"player","type":"address"}],"name":"getPlayerBid","outputs":[{"internalType":"uint256","name":"","type":"uint256"},{"internalType":"uint256","name":"","type":"uint256"},{"internalType":"uint256","name":"","type":"uint256"}],"stateMutability":"view","type":"function"},{"inputs":[],"name":"owner","outputs":[{"internalType":"address","name":"","type":"address"}],"stateMutability":"view","type":"function"},{"inputs":[{"internalType":"uint256","name":"gameId","type":"uint256"}],"name":"placeBid","outputs":[],"stateMutability":"payable","type":"function"},{"inputs":[],"name":"startNewGame","outputs":[{"internalType":"uint256","name":"","type":"uint256"}],"stateMutability":"nonpayable","type":"function"},{"inputs":[],"name":"withdrawTreasury","outputs":[],"stateMutability":"nonpayable","type":"function"}],"evm":{"assembly":"// RO data = 0/0 bytes\n// RW data = 336/65920 bytes\n// Stack size = 32768 bytes\n\n// Instructions = 12564\n// Code size = 45240 bytes\n\n      : @0 (gas: 2)\n     0: a1 = i32 [0x20158]\n     5: jump @35 if a1 == 0\n      : @1 (gas: 4)\n     9: a0 = 0x30180\n    14: i32 a0 = a0 + 0\n    16: ecalli 12 // 'set_immutable_data'\n    18: jump @35\n      : @2 (gas: 8)\n    21: sp = sp + 0xfffffffffffffff0\n    24: u64 [sp + 0x8] = ra\n    27: u64 [sp] = s0\n    29: a2 = a1\n    31: s0 = a0\n    33: a1 = 0x20\n    36: a0 = a2\n    38: ra = 2, jump @15\n      : @3 [@dyn 1] (gas: 100)\n    43: a1 = u8 [a0 + 0x1]\n    46: a2 = u8 [a0]\n    48: a3 = u8 [a0 + 0x2]\n    51: a4 = u8 [a0 + 0x3]\n    54: a1 = a1 << 0x8\n    57: a1 = a1 | a2\n    60: a3 = a3 << 0x10\n    63: a4 = a4 << 0x18\n    66: a3 = a3 | a4\n    69: a1 = a1 | a3\n    72: a2 = u8 [a0 + 0x5]\n    75: a3 = u8 [a0 + 0x4]\n    78: a4 = u8 [a0 + 0x6]\n    81: a5 = u8 [a0 + 0x7]\n    84: a2 = a2 << 0x8\n    87: a2 = a2 | a3\n    90: a4 = a4 << 0x10\n    93: a5 = a5 << 0x18\n    96: a4 = a4 | a5\n    99: a2 = a2 | a4\n   102: a2 = a2 << 0x20\n   105: t0 = a2 | a1\n   108: a2 = u8 [a0 + 0x9]\n   111: a3 = u8 [a0 + 0x8]\n   114: a4 = u8 [a0 + 0xa]\n   117: a5 = u8 [a0 + 0xb]\n   120: a2 = a2 << 0x8\n   123: a2 = a2 | a3\n   126: a4 = a4 << 0x10\n   129: a5 = a5 << 0x18\n   132: a4 = a4 | a5\n   135: a2 = a2 | a4\n   138: a3 = u8 [a0 + 0xd]\n   141: a4 = u8 [a0 + 0xc]\n   144: a5 = u8 [a0 + 0xe]\n   147: a1 = u8 [a0 + 0xf]\n   150: a3 = a3 << 0x8\n   153: a3 = a3 | a4\n   156: a5 = a5 << 0x10\n   159: a1 = a1 << 0x18\n   162: a1 = a1 | a5\n   165: a1 = a1 | a3\n   168: a1 = a1 << 0x20\n   171: t1 = a1 | a2\n   174: a1 = u8 [a0 + 0x11]\n   177: a3 = u8 [a0 + 0x10]\n   180: a4 = u8 [a0 + 0x12]\n   183: a5 = u8 [a0 + 0x13]\n   186: a1 = a1 << 0x8\n   189: a1 = a1 | a3\n   192: a4 = a4 << 0x10\n   195: a5 = a5 << 0x18\n   198: a4 = a4 | a5\n   201: a1 = a1 | a4\n   204: a3 = u8 [a0 + 0x15]\n   207: a4 = u8 [a0 + 0x14]\n   210: a5 = u8 [a0 + 0x16]\n   213: a2 = u8 [a0 + 0x17]\n   216: a3 = a3 << 0x8\n   219: a3 = a3 | a4\n   222: a5 = a5 << 0x10\n   225: a2 = a2 << 0x18\n   228: a2 = a2 | a5\n   231: a2 = a2 | a3\n   234: a2 = a2 << 0x20\n   237: a3 = a2 | a1\n   240: a1 = u8 [a0 + 0x19]\n   243: a2 = u8 [a0 + 0x18]\n   246: a4 = u8 [a0 + 0x1a]\n   249: a5 = u8 [a0 + 0x1b]\n   252: a1 = a1 << 0x8\n   255: a1 = a1 | a2\n   258: a4 = a4 << 0x10\n   261: a5 = a5 << 0x18\n   264: a4 = a4 | a5\n   267: a1 = a1 | a4\n   270: a2 = u8 [a0 + 0x1d]\n   273: a4 = u8 [a0 + 0x1c]\n   276: a5 = u8 [a0 + 0x1e]\n   279: a0 = u8 [a0 + 0x1f]\n   282: a2 = a2 << 0x8\n   285: a2 = a2 | a4\n   288: a5 = a5 << 0x10\n   291: a0 = a0 << 0x18\n   294: a0 = a0 | a5\n   297: a0 = a0 | a2\n   300: a0 = a0 << 0x20\n   303: a0 = a0 | a1\n   306: a0 = reverse a0\n   308: a1 = reverse a3\n   310: a2 = reverse t1\n   312: a3 = reverse t0\n   314: u64 [s0 + 0x18] = a3\n   317: u64 [s0 + 0x10] = a2\n   320: u64 [s0 + 0x8] = a1\n   323: u64 [s0] = a0\n   325: ra = u64 [sp + 0x8]\n   328: s0 = u64 [sp]\n   330: sp = sp + 0x10\n   333: ret\n      : @4 (gas: 12)\n   335: sp = sp + 0xffffffffffffffd8\n   338: u64 [sp + 0x20] = ra\n   341: u64 [sp + 0x18] = s0\n   344: u64 [sp + 0x10] = s1\n   347: a2 = u64 [a1]\n   349: u64 [sp + 0x8] = a2\n   352: a2 = u64 [a1 + 0x8]\n   355: u64 [sp] = a2\n   357: s0 = u64 [a1 + 0x10]\n   360: s1 = u64 [a1 + 0x18]\n   363: a1 = 0x20\n   366: ra = 4, jump @15\n      : @5 [@dyn 2] (gas: 71)\n   371: a1 = reverse s1\n   373: a2 = reverse s0\n   375: a3 = u64 [sp]\n   377: a3 = reverse a3\n   379: a4 = u64 [sp + 0x8]\n   382: a4 = reverse a4\n   384: u8 [a0 + 0x18] = a4\n   387: u8 [a0 + 0x10] = a3\n   390: u8 [a0 + 0x8] = a2\n   393: u8 [a0] = a1\n   395: a5 = a4 >> 0x38\n   398: u8 [a0 + 0x1f] = a5\n   401: a5 = a4 >> 0x30\n   404: u8 [a0 + 0x1e] = a5\n   407: a5 = a4 >> 0x28\n   410: u8 [a0 + 0x1d] = a5\n   413: a5 = a4 >> 0x20\n   416: u8 [a0 + 0x1c] = a5\n   419: a5 = a4 >> 0x18\n   422: u8 [a0 + 0x1b] = a5\n   425: a5 = a4 >> 0x10\n   428: u8 [a0 + 0x1a] = a5\n   431: a4 = a4 >> 0x8\n   434: u8 [a0 + 0x19] = a4\n   437: a4 = a3 >> 0x38\n   440: u8 [a0 + 0x17] = a4\n   443: a4 = a3 >> 0x30\n   446: u8 [a0 + 0x16] = a4\n   449: a4 = a3 >> 0x28\n   452: u8 [a0 + 0x15] = a4\n   455: a4 = a3 >> 0x20\n   458: u8 [a0 + 0x14] = a4\n   461: a4 = a3 >> 0x18\n   464: u8 [a0 + 0x13] = a4\n   467: a4 = a3 >> 0x10\n   470: u8 [a0 + 0x12] = a4\n   473: a3 = a3 >> 0x8\n   476: u8 [a0 + 0x11] = a3\n   479: a3 = a2 >> 0x38\n   482: u8 [a0 + 0xf] = a3\n   485: a3 = a2 >> 0x30\n   488: u8 [a0 + 0xe] = a3\n   491: a3 = a2 >> 0x28\n   494: u8 [a0 + 0xd] = a3\n   497: a3 = a2 >> 0x20\n   500: u8 [a0 + 0xc] = a3\n   503: a3 = a2 >> 0x18\n   506: u8 [a0 + 0xb] = a3\n   509: a3 = a2 >> 0x10\n   512: u8 [a0 + 0xa] = a3\n   515: a2 = a2 >> 0x8\n   518: u8 [a0 + 0x9] = a2\n   521: a2 = a1 >> 0x38\n   524: u8 [a0 + 0x7] = a2\n   527: a2 = a1 >> 0x30\n   530: u8 [a0 + 0x6] = a2\n   533: a2 = a1 >> 0x28\n   536: u8 [a0 + 0x5] = a2\n   539: a2 = a1 >> 0x20\n   542: u8 [a0 + 0x4] = a2\n   545: a2 = a1 >> 0x18\n   548: u8 [a0 + 0x3] = a2\n   551: a2 = a1 >> 0x10\n   554: u8 [a0 + 0x2] = a2\n   557: a1 = a1 >> 0x8\n   560: u8 [a0 + 0x1] = a1\n   563: ra = u64 [sp + 0x20]\n   566: s0 = u64 [sp + 0x18]\n   569: s1 = u64 [sp + 0x10]\n   572: sp = sp + 0x28\n   575: ret\n      : @6 (gas: 32)\n   577: sp = sp + 0xffffffffffffffa0\n   580: u64 [sp + 0x58] = ra\n   583: u64 [sp + 0x50] = s0\n   586: u64 [sp + 0x48] = s1\n   589: s0 = sp + 0x60\n   592: sp = sp & 0xffffffffffffffe0\n   595: s1 = a0\n   597: a0 = u64 [a1 + 0x18]\n   600: a2 = u64 [a1 + 0x10]\n   603: a3 = u64 [a1 + 0x8]\n   606: a1 = u64 [a1]\n   608: a0 = reverse a0\n   610: a2 = reverse a2\n   612: a3 = reverse a3\n   614: a1 = reverse a1\n   616: u64 [sp + 0x18] = a1\n   619: u64 [sp + 0x10] = a3\n   622: u64 [sp + 0x8] = a2\n   625: u64 [sp] = a0\n   627: u64 [sp + 56] = 0\n   630: u64 [sp + 48] = 0\n   633: u64 [sp + 40] = 0\n   636: u64 [sp + 32] = 0\n   639: u32 [sp + 64] = 0x20\n   643: i32 a1 = sp + 0\n   645: i32 a3 = sp + 0x20\n   648: i32 a4 = sp + 0x40\n   651: a2 = 0xffffffffffffffff\n   654: a0 = 0\n   656: ra = 0x6\n   659: ecalli 6 // 'get_storage'\n   661: fallthrough\n      : @7 [@dyn 3] (gas: 5)\n   662: a0 = u64 [sp + 0x38]\n   665: a1 = u64 [sp + 0x30]\n   668: a2 = u64 [sp + 0x28]\n   671: a3 = u64 [sp + 0x20]\n   674: t0 = 8, jump @1447\n      : @8 [@dyn 4] (gas: 10)\n   680: u64 [s1 + 0x18] = a3\n   683: u64 [s1 + 0x10] = a2\n   686: u64 [s1 + 0x8] = a1\n   689: u64 [s1] = a0\n   691: sp = s0 + 0xffffffffffffffa0\n   694: ra = u64 [sp + 0x58]\n   697: s0 = u64 [sp + 0x50]\n   700: s1 = u64 [sp + 0x48]\n   703: sp = sp + 0x60\n   706: ret\n      : @9 (gas: 40)\n   708: sp = sp + 0xffffffffffffffa0\n   711: u64 [sp + 0x58] = ra\n   714: u64 [sp + 0x50] = s0\n   717: s0 = sp + 0x60\n   720: sp = sp & 0xffffffffffffffe0\n   723: t0 = u64 [a0]\n   725: a3 = u64 [a0 + 0x8]\n   728: a4 = u64 [a0 + 0x10]\n   731: a0 = u64 [a0 + 0x18]\n   734: t1 = u64 [a1]\n   736: a2 = u64 [a1 + 0x8]\n   739: a5 = u64 [a1 + 0x10]\n   742: a1 = u64 [a1 + 0x18]\n   745: t2 = reverse a0\n   747: a4 = reverse a4\n   749: a3 = reverse a3\n   751: a0 = reverse t0\n   753: t0 = reverse a1\n   755: a5 = reverse a5\n   757: a2 = reverse a2\n   759: a1 = reverse t1\n   761: u64 [sp + 0x18] = a0\n   764: u64 [sp + 0x10] = a3\n   767: u64 [sp + 0x8] = a4\n   770: u64 [sp] = t2\n   772: u64 [sp + 0x38] = a1\n   775: u64 [sp + 0x30] = a2\n   778: u64 [sp + 0x28] = a5\n   781: u64 [sp + 0x20] = t0\n   784: i32 a1 = sp + 0\n   786: i32 a3 = sp + 0x20\n   789: a2 = 0xffffffffffffffff\n   792: a4 = 0x20\n   795: a0 = 0\n   797: ecalli 13 // 'set_storage'\n   799: sp = s0 + 0xffffffffffffffa0\n   802: ra = u64 [sp + 0x58]\n   805: s0 = u64 [sp + 0x50]\n   808: sp = sp + 0x60\n   811: ret\n      : @10 (gas: 24)\n   813: sp = sp + 0xffffffffffffff60\n   817: u64 [sp + 0x98] = ra\n   821: u64 [sp + 0x90] = s0\n   825: u64 [sp + 0x88] = s1\n   829: s0 = sp + 0xa0\n   833: sp = sp & 0xffffffffffffffe0\n   836: a4 = u64 [a3]\n   838: u64 [sp + 0x38] = a4\n   841: a4 = u64 [a3 + 0x8]\n   844: u64 [sp + 0x30] = a4\n   847: a4 = u64 [a3 + 0x10]\n   850: u64 [sp + 0x28] = a4\n   853: a3 = u64 [a3 + 0x18]\n   856: u64 [sp + 0x20] = a3\n   859: a3 = u64 [a2]\n   861: u64 [sp + 0x18] = a3\n   864: a3 = u64 [a2 + 0x8]\n   867: u64 [sp + 0x10] = a3\n   870: a3 = u64 [a2 + 0x10]\n   873: u64 [sp + 0x8] = a3\n   876: a2 = u64 [a2 + 0x18]\n   879: u64 [sp] = a2\n   881: s1 = a1\n   883: ra = 10, jump @15\n      : @11 [@dyn 5] (gas: 35)\n   888: a1 = u64 [sp]\n   890: a1 = reverse a1\n   892: a2 = u64 [sp + 0x8]\n   895: a2 = reverse a2\n   897: a3 = u64 [sp + 0x10]\n   900: a3 = reverse a3\n   902: a4 = u64 [sp + 0x18]\n   905: a4 = reverse a4\n   907: u64 [sp + 0x58] = a4\n   910: u64 [sp + 0x50] = a3\n   913: u64 [sp + 0x48] = a2\n   916: u64 [sp + 0x40] = a1\n   919: a1 = u64 [sp + 0x20]\n   922: a1 = reverse a1\n   924: a2 = u64 [sp + 0x28]\n   927: a2 = reverse a2\n   929: a3 = u64 [sp + 0x30]\n   932: a3 = reverse a3\n   934: a4 = u64 [sp + 0x38]\n   937: a4 = reverse a4\n   939: u64 [sp + 0x78] = a4\n   942: u64 [sp + 0x70] = a3\n   945: u64 [sp + 0x68] = a2\n   948: u64 [sp + 0x60] = a1\n   951: i32 a2 = a0 + 0\n   953: i32 a3 = s1 + 0\n   955: i32 a0 = sp + 0x40\n   958: a1 = 0x2\n   961: ecalli 5 // 'deposit_event'\n   963: sp = s0 + 0xffffffffffffff60\n   967: ra = u64 [sp + 0x98]\n   971: s0 = u64 [sp + 0x90]\n   975: s1 = u64 [sp + 0x88]\n   979: sp = sp + 0xa0\n   983: ret\n      : @12 (gas: 33)\n   985: sp = sp + 0xffffffffffffff20\n   989: u64 [sp + 0xd8] = ra\n   993: u64 [sp + 0xd0] = s0\n   997: u64 [sp + 0xc8] = s1\n  1001: s0 = sp + 0xe0\n  1005: sp = sp & 0xffffffffffffffe0\n  1008: a5 = u64 [a4]\n  1010: u64 [sp + 0x40] = a5\n  1013: a5 = u64 [a4 + 0x8]\n  1016: u64 [sp + 0x48] = a5\n  1019: a5 = u64 [a4 + 0x10]\n  1022: u64 [sp + 0x50] = a5\n  1025: a4 = u64 [a4 + 0x18]\n  1028: u64 [sp + 0x58] = a4\n  1031: t0 = 0xc\n  1034: a4 = u64 [a3]\n  1036: u64 [sp + 0x18] = a4\n  1039: a4 = u64 [a3 + 0x8]\n  1042: u64 [sp + 0x20] = a4\n  1045: a4 = u64 [a3 + 0x10]\n  1048: u64 [sp + 0x28] = a4\n  1051: a3 = u64 [a3 + 0x18]\n  1054: u64 [sp + 0x30] = a3\n  1057: s1 = u64 [a2]\n  1059: a3 = u64 [a2 + 0x8]\n  1062: u64 [sp] = a3\n  1064: a3 = u64 [a2 + 0x10]\n  1067: u64 [sp + 0x8] = a3\n  1070: a2 = u64 [a2 + 0x18]\n  1073: u64 [sp + 0x10] = a2\n  1076: u64 [sp + 56] = 0x40\n  1080: ra = 0xe\n  1083: jump @15\n      : @13 [@dyn 6] (gas: 2)\n  1086: u64 [sp + 0x38] = a1\n  1089: ra = 14, jump @15\n      : @14 [@dyn 7] (gas: 46)\n  1094: a1 = reverse s1\n  1096: u64 [sp + 0x78] = a1\n  1099: a1 = u64 [sp]\n  1101: a1 = reverse a1\n  1103: u64 [sp + 0x70] = a1\n  1106: a1 = u64 [sp + 0x8]\n  1109: a1 = reverse a1\n  1111: u64 [sp + 0x68] = a1\n  1114: a1 = u64 [sp + 0x10]\n  1117: a1 = reverse a1\n  1119: u64 [sp + 0x60] = a1\n  1122: a1 = u64 [sp + 0x18]\n  1125: a1 = reverse a1\n  1127: u64 [sp + 0x98] = a1\n  1131: a1 = u64 [sp + 0x20]\n  1134: a1 = reverse a1\n  1136: u64 [sp + 0x90] = a1\n  1140: a1 = u64 [sp + 0x28]\n  1143: a1 = reverse a1\n  1145: u64 [sp + 0x88] = a1\n  1149: a1 = u64 [sp + 0x30]\n  1152: a1 = reverse a1\n  1154: u64 [sp + 0x80] = a1\n  1158: a1 = u64 [sp + 0x40]\n  1161: a1 = reverse a1\n  1163: u64 [sp + 0xb8] = a1\n  1167: a1 = u64 [sp + 0x48]\n  1170: a1 = reverse a1\n  1172: u64 [sp + 0xb0] = a1\n  1176: a1 = u64 [sp + 0x50]\n  1179: a1 = reverse a1\n  1181: u64 [sp + 0xa8] = a1\n  1185: a1 = u64 [sp + 0x58]\n  1188: a1 = reverse a1\n  1190: u64 [sp + 0xa0] = a1\n  1194: i32 a2 = a0 + 0\n  1196: a3 = i32 [sp + 0x38]\n  1199: i32 a0 = sp + 0x60\n  1202: a1 = 0x3\n  1205: ecalli 5 // 'deposit_event'\n  1207: sp = s0 + 0xffffffffffffff20\n  1211: ra = u64 [sp + 0xd8]\n  1215: s0 = u64 [sp + 0xd0]\n  1219: s1 = u64 [sp + 0xc8]\n  1223: sp = sp + 0xe0\n  1227: ret\n      : @15 (gas: 2)\n  1229: i32 a2 = a0 >> 0x10\n  1232: jump @20 if a2 != 0\n      : @16 (gas: 4)\n  1235: a1 = a1 + a0\n  1238: i32 a1 = a1 + 0x1f\n  1241: a1 = a1 & 0xffffffffffffffe0\n  1244: jump @20 if a1 >u 65536\n      : @17 (gas: 3)\n  1250: a2 = 0x20154\n  1255: a3 = i32 [0x20154]\n  1260: jump @19 if a3 >=u a1\n      : @18 (gas: 2)\n  1263: u32 [0x20154] = a1\n  1268: fallthrough\n      : @19 (gas: 4)\n  1269: a1 = 0x20160\n  1274: i32 a0 = a0 + 0\n  1276: a0 = a0 + a1\n  1279: ret\n      : @20 (gas: 1)\n  1281: trap\n      : @21 (gas: 6)\n  1282: sp = sp + 0xfffffffffffffff0\n  1285: u64 [sp + 0x8] = ra\n  1288: u64 [sp] = s0\n  1290: s0 = a0 & 0x1\n  1293: ecalli 3 // 'call_data_size'\n  1295: fallthrough\n      : @22 (gas: 2)\n  1296: u32 [0x20150] = a0\n  1301: jump @24 if s0 == 0\n      : @23 (gas: 1)\n  1304: ra = 16, jump @25\n      : @24 [@dyn 8] (gas: 1)\n  1308: ra = 18, jump @37\n      : @25 [@dyn 9] (gas: 13)\n  1313: sp = sp + 0xfffffffffffffec0\n  1317: u64 [sp + 0x138] = ra\n  1321: u64 [sp + 0x130] = s0\n  1325: u64 [sp + 0x128] = s1\n  1329: s0 = sp + 0x140\n  1333: sp = sp & 0xffffffffffffffe0\n  1336: u64 [sp + 88] = 0\n  1339: u64 [sp + 80] = 0\n  1342: u64 [sp + 64] = 0x80\n  1347: a0 = 0x40\n  1350: a1 = sp + a0\n  1353: u64 [sp + 72] = 0\n  1356: ra = 20, jump @4\n      : @26 [@dyn 10] (gas: 7)\n  1361: u64 [sp + 120] = 0\n  1364: u64 [sp + 112] = 0\n  1367: u64 [sp + 104] = 0\n  1370: u64 [sp + 96] = 0\n  1373: i32 a0 = sp + 0x60\n  1376: ecalli 14 // 'value_transferred'\n  1378: fallthrough\n      : @27 (gas: 8)\n  1379: a0 = u64 [sp + 0x70]\n  1382: a1 = u64 [sp + 0x78]\n  1385: a2 = u64 [sp + 0x68]\n  1388: a3 = u64 [sp + 0x60]\n  1391: a1 = a1 | a2\n  1394: a0 = a0 | a3\n  1397: a0 = a0 | a1\n  1400: jump @29 if a0 == 0\n      : @28 (gas: 7)\n  1403: a1 = 0x20160\n  1408: i32 a1 = a1 + 0\n  1410: a0 = 0x1\n  1413: a2 = 0\n  1415: ra = 0x1e\n  1418: ecalli 11 // 'seal_return'\n  1420: jump @37\n      : @29 (gas: 25)\n  1423: s1 = 0x30160\n  1428: i32 a0 = s1 + 0\n  1430: ecalli 4 // 'caller'\n  1432: a0 = u64 [0x30168]\n  1437: a1 = i32 [0x30170]\n  1442: a2 = u64 [0x30160]\n  1447: a0 = reverse a0\n  1449: a3 = a0 << 0x20\n  1452: a1 = reverse a1\n  1454: a1 = a1 >> 0x20\n  1457: a1 = a1 | a3\n  1460: u64 [sp + 0x18] = a1\n  1463: a0 = a0 >> 0x20\n  1466: a1 = reverse a2\n  1468: s1 = a1 << 0x20\n  1471: a0 = a0 | s1\n  1474: u64 [sp + 0x10] = a0\n  1477: s1 = a1 >> 0x20\n  1480: u64 [sp + 152] = 0\n  1484: u64 [sp + 144] = 0\n  1488: u64 [sp + 136] = 0\n  1492: u64 [sp + 128] = 0\n  1496: a0 = sp + 0x20\n  1499: a1 = sp + 0x80\n  1503: ra = 22, jump @6\n      : @30 [@dyn 11] (gas: 17)\n  1508: a0 = u32 [sp + 0x34]\n  1511: a0 = a0 << 0x20\n  1514: a1 = u64 [sp + 0x38]\n  1517: a0 = a0 | s1\n  1520: u64 [sp + 184] = 0\n  1524: u64 [sp + 176] = 0\n  1528: u64 [sp + 168] = 0\n  1532: u64 [sp + 160] = 0\n  1536: u64 [sp + 0xd8] = a1\n  1540: a1 = u64 [sp + 0x10]\n  1543: u64 [sp + 0xc8] = a1\n  1547: a1 = u64 [sp + 0x18]\n  1550: u64 [sp + 0xc0] = a1\n  1554: u64 [sp + 0xd0] = a0\n  1558: a0 = sp + 0xa0\n  1562: a1 = sp + 0xc0\n  1566: ra = 24, jump @9\n      : @31 [@dyn 12] (gas: 11)\n  1571: u64 [sp + 248] = 0\n  1575: u64 [sp + 240] = 0\n  1579: u64 [sp + 232] = 0\n  1583: u64 [sp + 224] = 0x1\n  1588: u64 [sp + 280] = 0\n  1592: u64 [sp + 272] = 0\n  1596: u64 [sp + 264] = 0\n  1600: u64 [sp + 256] = 0\n  1604: a0 = sp + 0xe0\n  1608: a1 = sp + 0x100\n  1612: ra = 26, jump @9\n      : @32 [@dyn 13] (gas: 2)\n  1617: a1 = i32 [0x20154]\n  1622: jump @34 if a1 >u 127\n      : @33 (gas: 2)\n  1626: u32 [0x20154] = 0x80\n  1633: fallthrough\n      : @34 (gas: 6)\n  1634: a0 = 0x20160\n  1639: i32 a0 = a0 + 0x80\n  1643: a1 = 0\n  1645: a2 = 0\n  1647: ecalli 1 // 'call_data_copy'\n  1649: jump @0\n      : @35 (gas: 3)\n  1652: a0 = 0x80\n  1656: a1 = 0\n  1658: ra = 28, jump @15\n      : @36 [@dyn 14] (gas: 6)\n  1663: i32 a1 = a0 + 0\n  1665: a0 = 0\n  1667: a2 = 0\n  1669: ra = 0x1e\n  1672: ecalli 11 // 'seal_return'\n  1674: fallthrough\n      : @37 [@dyn 15] (gas: 16)\n  1675: sp = sp + 0xfffffffffffffe10\n  1679: u64 [sp + 0x1e8] = ra\n  1683: u64 [sp + 0x1e0] = s0\n  1687: u64 [sp + 0x1d8] = s1\n  1691: s0 = sp + 0x1f0\n  1695: sp = sp + 0xffffffffffffbf90\n  1699: sp = sp & 0xffffffffffffffe0\n  1702: s1 = sp\n  1704: a2 = s1 + 0x3158\n  1708: u64 [a2 + 192] = 0\n  1712: u64 [a2 + 184] = 0\n  1716: u64 [a2 + 168] = 0x80\n  1722: a0 = 0x40\n  1725: a1 = s1 + 0x3200\n  1729: u64 [a2 + 176] = 0\n  1733: ra = 32, jump @4\n      : @38 [@dyn 16] (gas: 4)\n  1738: a0 = 0x20150\n  1743: u64 [s1 + 0x1b8] = a0\n  1747: a0 = i32 [0x20150]\n  1752: jump @40 if a0 >=u 4\n      : @39 (gas: 1)\n  1756: jump @1078\n      : @40 (gas: 6)\n  1760: a0 = s1 + 0x3000\n  1764: i32 a0 = a0 + 0x220\n  1768: a1 = 0\n  1770: ra = 0x22\n  1773: ecalli 2 // 'call_data_load'\n  1775: fallthrough\n      : @41 [@dyn 17] (gas: 3)\n  1776: a3 = s1 + 0x3158\n  1780: a0 = i32 [a3 + 0xe4]\n  1784: jump @43 if a0 != 2376452955\n      : @42 (gas: 1)\n  1791: jump @267\n      : @43 (gas: 1)\n  1794: jump @81 if a0 == 2574905157\n      : @44 (gas: 1)\n  1802: jump @46 if a0 != 2778569399\n      : @45 (gas: 1)\n  1809: jump @497\n      : @46 (gas: 2)\n  1812: a2 = s1 + 0x3958\n  1816: jump @194 if a0 == 2992025883\n      : @47 (gas: 1)\n  1824: jump @141 if a0 == 3493436344\n      : @48 (gas: 1)\n  1832: jump @184 if a0 == 3689087244\n      : @49 (gas: 2)\n  1840: a4 = s1 + 0x4158\n  1844: jump @51 if a0 != 3980750564\n      : @50 (gas: 1)\n  1851: jump @574\n      : @51 (gas: 1)\n  1854: jump @53 if a0 != 4047311449\n      : @52 (gas: 1)\n  1861: jump @544\n      : @53 (gas: 1)\n  1864: jump @55 if a0 != 4287607644\n      : @54 (gas: 1)\n  1870: jump @278\n      : @55 (gas: 1)\n  1873: jump @57 if a0 != 4292742260\n      : @56 (gas: 1)\n  1879: jump @484\n      : @57 (gas: 1)\n  1882: jump @59 if a0 != 363073353\n      : @58 (gas: 1)\n  1889: jump @417\n      : @59 (gas: 1)\n  1892: jump @61 if a0 != 376155029\n      : @60 (gas: 1)\n  1899: jump @445\n      : @61 (gas: 1)\n  1902: jump @63 if a0 != 845767028\n      : @62 (gas: 1)\n  1909: jump @406\n      : @63 (gas: 1)\n  1912: jump @65 if a0 != 1031109195\n      : @64 (gas: 1)\n  1919: jump @257\n      : @65 (gas: 1)\n  1922: jump @67 if a0 != 1210929632\n      : @66 (gas: 1)\n  1929: jump @296\n      : @67 (gas: 1)\n  1932: jump @69 if a0 == 1399471580\n      : @68 (gas: 1)\n  1939: jump @601\n      : @69 (gas: 8)\n  1942: u64 [a3 + 1952] = 0\n  1946: u64 [a3 + 1944] = 0\n  1950: u64 [a3 + 1936] = 0\n  1954: u64 [a3 + 1928] = 0\n  1958: a0 = s1 + 0x4000\n  1962: i32 a0 = a0 + 0xfffffffffffff8e0\n  1966: ecalli 14 // 'value_transferred'\n  1968: fallthrough\n      : @70 (gas: 10)\n  1969: a4 = s1 + 0x3158\n  1973: a5 = a4 + 0x700\n  1977: a0 = u64 [a5 + 0x98]\n  1981: a1 = u64 [a5 + 0xa0]\n  1985: a2 = u64 [a5 + 0x90]\n  1989: a3 = u64 [a5 + 0x88]\n  1993: a1 = a1 | a2\n  1996: a0 = a0 | a3\n  1999: a0 = a0 | a1\n  2002: jump @72 if a0 == 0\n      : @71 (gas: 1)\n  2005: jump @1033\n      : @72 (gas: 3)\n  2008: a0 = u64 [s1 + 0x1b8]\n  2012: a0 = i32 [a0]\n  2014: jump @74 if a0 >u 3\n      : @73 (gas: 1)\n  2018: jump @1034\n      : @74 (gas: 7)\n  2021: u64 [a4 + 1984] = 0\n  2025: u64 [a4 + 1976] = 0\n  2029: u64 [a4 + 1968] = 0\n  2033: u64 [a4 + 1960] = 0x1\n  2038: a0 = s1 + 0x1180\n  2042: a1 = s1 + 0x3900\n  2046: ra = 36, jump @6\n      : @75 [@dyn 18] (gas: 13)\n  2051: a0 = s1 + 0x1140\n  2055: a1 = u64 [a0 + 0x58]\n  2058: a2 = s1 + 0x100\n  2062: u64 [a2 + 0xb8] = a1\n  2066: a1 = u64 [a0 + 0x50]\n  2069: u64 [a2 + 0xb0] = a1\n  2073: a1 = u64 [a0 + 0x48]\n  2076: u64 [a2 + 0xa8] = a1\n  2080: a0 = u64 [a0 + 0x40]\n  2083: u64 [a2 + 0xa0] = a0\n  2087: a0 = s1 + 0x1160\n  2091: a1 = 0x40\n  2094: ra = 38, jump @2\n      : @76 [@dyn 19] (gas: 6)\n  2099: a3 = s1 + 0x1140\n  2103: a0 = u64 [a3 + 0x38]\n  2106: a1 = u64 [a3 + 0x30]\n  2109: a2 = u64 [a3 + 0x28]\n  2112: a4 = u64 [a3 + 0x20]\n  2115: t0 = 40, jump @1449\n      : @77 [@dyn 20] (gas: 1)\n  2121: jump @79 if a0 == 0\n      : @78 (gas: 1)\n  2124: jump @912\n      : @79 (gas: 10)\n  2127: a2 = s1 + 0x100\n  2131: a0 = u64 [a2 + 0xa0]\n  2135: u64 [a3] = a0\n  2137: a0 = u64 [a2 + 0xa8]\n  2141: u64 [a3 + 0x8] = a0\n  2144: a0 = u64 [a2 + 0xb0]\n  2148: u64 [a3 + 0x10] = a0\n  2151: t0 = 0x2a\n  2154: a1 = s1 + 0x1140\n  2158: fallthrough\n      : @80 [@dyn 21] (gas: 6)\n  2159: a0 = u64 [a2 + 0xb8]\n  2163: u64 [a3 + 0x18] = a0\n  2166: a0 = a4\n  2168: u64 [s1 + 0x1b8] = a4\n  2172: ra = 0x218\n  2176: jump @4\n      : @81 (gas: 1)\n  2179: t0 = 44, jump @1471\n      : @82 [@dyn 22] (gas: 1)\n  2185: jump @84 if a1 <u a0\n      : @83 (gas: 1)\n  2188: jump @1035\n      : @84 (gas: 23)\n  2191: a0 = s1 + 0x4000\n  2195: i32 a0 = a0 + 0xfffffffffffff9e0\n  2199: a1 = 0x4\n  2202: ecalli 2 // 'call_data_load'\n  2204: a0 = s1 + 0x3958\n  2208: a4 = u64 [a0 + 0xa0]\n  2212: a3 = u64 [a0 + 0x98]\n  2216: a1 = u64 [a0 + 0x90]\n  2220: a2 = u64 [a0 + 0x88]\n  2224: a0 = s1 + 0x1958\n  2228: a5 = s1 + 0x100\n  2232: u64 [a5 + 0xa0] = a4\n  2236: u64 [a0 + 0x3c0] = a4\n  2240: u64 [a5 + 0xa8] = a3\n  2244: a4 = a0 + 0x300\n  2248: u64 [a4 + 0xb8] = a3\n  2252: u64 [a5 + 0xb0] = a1\n  2256: u64 [a4 + 0xb0] = a1\n  2260: a1 = s1 + 0x1d00\n  2264: u64 [a5 + 0xb8] = a2\n  2268: u64 [a4 + 0xa8] = a2\n  2272: a0 = 0\n  2274: ra = 46, jump @4\n      : @85 [@dyn 23] (gas: 9)\n  2279: a0 = s1 + 0x1958\n  2283: u64 [a0 + 928] = 0\n  2287: u64 [a0 + 920] = 0\n  2291: u64 [a0 + 912] = 0\n  2295: a3 = a0\n  2297: a0 = 0x20\n  2300: a1 = s1 + 0x1ce0\n  2304: u64 [a3 + 904] = 0x2\n  2309: ra = 48, jump @4\n      : @86 [@dyn 24] (gas: 3)\n  2314: a1 = 0x20154\n  2319: a0 = i32 [0x20154]\n  2324: jump @88 if a0 >u 63\n      : @87 (gas: 2)\n  2328: u32 [0x20154] = 0x40\n  2334: fallthrough\n      : @88 (gas: 15)\n  2335: a0 = sp + 0xffffffffffffffe0\n  2338: a2 = a0 & 0xffffffffffffffe0\n  2341: u64 [s1 + 0x188] = a2\n  2345: sp = a2\n  2347: a0 = 0x20160\n  2352: i32 a0 = a0 + 0\n  2354: u64 [s1 + 0x190] = a1\n  2358: i32 a2 = a2 + 0\n  2360: a1 = 0x40\n  2363: u64 [s1 + 0x198] = a0\n  2367: ra = 0x32\n  2370: ecalli 7 // 'hash_keccak_256'\n  2372: a3 = u64 [s1 + 0x188]\n  2376: t0 = 0x34\n  2379: jump @1426\n      : @89 [@dyn 25] (gas: 2)\n  2383: a3 = u64 [s1 + 0x188]\n  2387: t0 = 52, jump @1426\n      : @90 [@dyn 26] (gas: 7)\n  2393: u64 [a4 + 0xc0] = a3\n  2397: u64 [a4 + 0xb8] = a2\n  2401: u64 [a4 + 0xb0] = a1\n  2405: u64 [a4 + 0xa8] = a0\n  2409: a0 = s1 + 0x1cc0\n  2413: a1 = s1 + 0x3a00\n  2417: ra = 54, jump @6\n      : @91 [@dyn 27] (gas: 23)\n  2422: a4 = s1 + 0x1958\n  2426: a0 = u64 [a4 + 0x380]\n  2430: a1 = u64 [a4 + 0x370]\n  2434: a2 = u64 [a4 + 0x368]\n  2438: a3 = u64 [a4 + 0x378]\n  2442: a5 = u64 [s1 + 0x1a0]\n  2446: a0 = a0 ^ a5\n  2449: a5 = u64 [s1 + 0x1b0]\n  2453: a1 = a1 ^ a5\n  2456: a0 = a0 | a1\n  2459: a1 = u64 [s1 + 0x1a8]\n  2463: a1 = a1 ^ a3\n  2466: a3 = u64 [s1 + 0x1b8]\n  2470: a2 = a2 ^ a3\n  2473: a1 = a1 | a2\n  2476: a0 = a0 | a1\n  2479: a0 = a0 <u 0x1\n  2482: u64 [a4 + 864] = 0\n  2486: u64 [a4 + 856] = 0\n  2490: u64 [a4 + 0x348] = a0\n  2494: a0 = s1 + 0x1ca0\n  2498: u64 [a4 + 848] = 0\n  2502: ra = 56, jump @1283\n      : @92 [@dyn 28] (gas: 13)\n  2508: a0 = s1 + 0x1958\n  2512: a1 = u64 [s1 + 0x1a0]\n  2516: a3 = a0 + 0x300\n  2520: u64 [a3 + 0x40] = a1\n  2523: a1 = u64 [s1 + 0x1a8]\n  2527: u64 [a3 + 0x38] = a1\n  2530: a1 = u64 [s1 + 0x1b0]\n  2534: u64 [a3 + 0x30] = a1\n  2537: a1 = s1 + 0x1c80\n  2541: a2 = u64 [s1 + 0x1b8]\n  2545: u64 [a3 + 0x28] = a2\n  2548: a0 = 0\n  2550: ra = 58, jump @4\n      : @93 [@dyn 29] (gas: 3)\n  2555: t0 = 0x3c\n  2558: a1 = s1 + 0x1958\n  2562: fallthrough\n      : @94 [@dyn 30] (gas: 8)\n  2563: u64 [a1 + 800] = 0\n  2567: u64 [a1 + 792] = 0\n  2571: u64 [a1 + 776] = 0x2\n  2576: a2 = a1\n  2578: a0 = 0x20\n  2581: a1 = s1 + 0x1c60\n  2585: u64 [a2 + 784] = 0\n  2589: ra = 62, jump @4\n      : @95 [@dyn 31] (gas: 3)\n  2594: a1 = u64 [s1 + 0x190]\n  2598: a0 = i32 [a1]\n  2600: jump @97 if a0 >u 63\n      : @96 (gas: 3)\n  2604: u32 [a1 + 0] = 0x40\n  2607: t0 = 0x40\n  2610: jump @1427\n      : @97 (gas: 1)\n  2614: t0 = 64, jump @1427\n      : @98 [@dyn 32] (gas: 4)\n  2620: ra = 0x42\n  2623: ecalli 7 // 'hash_keccak_256'\n  2625: t0 = 0x44\n  2628: jump @1421\n      : @99 [@dyn 33] (gas: 1)\n  2632: t0 = 68, jump @1421\n      : @100 [@dyn 34] (gas: 7)\n  2638: u64 [a1 + 0xc8] = a4\n  2642: u64 [a1 + 0xd0] = a5\n  2646: u64 [a1 + 0xd8] = a2\n  2650: u64 [a1 + 0xe0] = a0\n  2654: a0 = s1 + 0x1c40\n  2658: a1 = s1 + 0x3a20\n  2662: ra = 70, jump @6\n      : @101 [@dyn 35] (gas: 3)\n  2667: t0 = 0x48\n  2670: a2 = s1 + 0x1958\n  2674: fallthrough\n      : @102 [@dyn 36] (gas: 2)\n  2675: a0 = u8 [a2 + 0x2fc]\n  2679: jump @104 if a0 <=u 3\n      : @103 (gas: 1)\n  2683: jump @1036\n      : @104 (gas: 1)\n  2686: jump @119 if a0 == 1\n      : @105 (gas: 12)\n  2691: a0 = u64 [s1 + 0x1b8]\n  2695: a3 = a2 + 0x200\n  2699: u64 [a3 + 0xc8] = a0\n  2703: a0 = u64 [s1 + 0x1b0]\n  2707: u64 [a3 + 0xd0] = a0\n  2711: a0 = u64 [s1 + 0x1a8]\n  2715: u64 [a3 + 0xd8] = a0\n  2719: a1 = s1 + 0x1c20\n  2723: a0 = u64 [s1 + 0x1a0]\n  2727: u64 [a3 + 0xe0] = a0\n  2731: a0 = 0\n  2733: ra = 74, jump @4\n      : @106 [@dyn 37] (gas: 3)\n  2738: t0 = 0x4c\n  2741: a1 = s1 + 0x1958\n  2745: fallthrough\n      : @107 [@dyn 38] (gas: 8)\n  2746: u64 [a1 + 704] = 0\n  2750: u64 [a1 + 696] = 0\n  2754: u64 [a1 + 680] = 0x2\n  2759: a2 = a1\n  2761: a0 = 0x20\n  2764: a1 = s1 + 0x1c00\n  2768: u64 [a2 + 688] = 0\n  2772: ra = 78, jump @4\n      : @108 [@dyn 39] (gas: 3)\n  2777: a2 = u64 [s1 + 0x190]\n  2781: a0 = i32 [a2]\n  2783: jump @110 if a0 >u 63\n      : @109 (gas: 3)\n  2787: u32 [a2 + 0] = 0x40\n  2790: t0 = 0x50\n  2793: jump @1427\n      : @110 (gas: 1)\n  2797: t0 = 80, jump @1427\n      : @111 [@dyn 40] (gas: 4)\n  2803: ra = 0x52\n  2806: ecalli 7 // 'hash_keccak_256'\n  2808: t0 = 0x54\n  2811: jump @1421\n      : @112 [@dyn 41] (gas: 1)\n  2815: t0 = 84, jump @1421\n      : @113 [@dyn 42] (gas: 7)\n  2821: u64 [a1 + 0xe8] = a4\n  2825: u64 [a1 + 0xf0] = a5\n  2829: u64 [a1 + 0xf8] = a2\n  2833: u64 [a1 + 0x100] = a0\n  2837: a0 = s1 + 0x1be0\n  2841: a1 = s1 + 0x3a40\n  2845: ra = 86, jump @6\n      : @114 [@dyn 43] (gas: 3)\n  2850: t0 = 0x58\n  2853: a2 = s1 + 0x1958\n  2857: fallthrough\n      : @115 [@dyn 44] (gas: 2)\n  2858: a0 = u8 [a2 + 0x29c]\n  2862: jump @117 if a0 <=u 3\n      : @116 (gas: 1)\n  2866: jump @1095\n      : @117 (gas: 1)\n  2869: jump @119 if a0 == 2\n      : @118 (gas: 1)\n  2873: jump @845\n      : @119 (gas: 9)\n  2876: a0 = s1 + 0x3958\n  2880: u64 [a0 + 288] = 0\n  2884: u64 [a0 + 280] = 0\n  2888: u64 [a0 + 272] = 0\n  2892: u64 [a0 + 264] = 0\n  2896: a0 = s1 + 0x4000\n  2900: i32 a0 = a0 + 0xfffffffffffffa60\n  2904: ecalli 14 // 'value_transferred'\n  2906: fallthrough\n      : @120 (gas: 10)\n  2907: a3 = s1 + 0x3958\n  2911: a4 = a3 + 0x100\n  2915: a0 = u64 [a4 + 0x18]\n  2918: a1 = u64 [a4 + 0x20]\n  2921: a2 = u64 [a4 + 0x10]\n  2924: a3 = u64 [a4 + 0x8]\n  2927: a1 = a1 | a2\n  2930: a0 = a0 | a3\n  2933: a0 = a0 | a1\n  2936: jump @122 if a0 == 0\n      : @121 (gas: 1)\n  2939: jump @712\n      : @122 (gas: 3)\n  2942: a0 = s1 + 0x14e0\n  2946: a1 = 0x40\n  2949: ra = 90, jump @2\n      : @123 [@dyn 45] (gas: 14)\n  2954: a2 = s1 + 0x1140\n  2958: t0 = u64 [a2 + 0x3b8]\n  2962: a1 = a2 + 0x300\n  2966: a5 = u64 [a1 + 0xb0]\n  2970: a4 = u64 [a1 + 0xa8]\n  2974: a0 = u64 [a1 + 0xa0]\n  2978: a3 = a4 | t0\n  2981: a1 = a0 | a5\n  2984: a1 = a1 | a3\n  2987: a1 = a1 >> 0x20\n  2990: a3 = a3 | a5\n  2993: a3 = a3 << 0x20\n  2996: a1 = a1 | a3\n  2999: jump @125 if a1 == 0\n      : @124 (gas: 1)\n  3002: jump @912\n      : @125 (gas: 11)\n  3005: u64 [a2 + 912] = 0\n  3009: u64 [a2 + 904] = 0\n  3013: u64 [a2 + 896] = 0\n  3017: a3 = 0x8c379a000000000\n  3027: a1 = s1 + 0x14c0\n  3031: u64 [a2 + 0x398] = a3\n  3035: u64 [s1 + 0x1b8] = a0\n  3039: u64 [s1 + 0x1b0] = a4\n  3043: u64 [s1 + 0x1a0] = t0\n  3047: u64 [s1 + 0x1a8] = a5\n  3051: ra = 92, jump @4\n      : @126 [@dyn 46] (gas: 1)\n  3056: t0 = 94, jump @1415\n      : @127 [@dyn 47] (gas: 1)\n  3062: jump @129 if a0 != 0\n      : @128 (gas: 1)\n  3065: jump @912\n      : @129 (gas: 10)\n  3068: i32 a0 = a1 + 0x4\n  3071: a2 = s1 + 0x1140\n  3075: u64 [a2 + 888] = 0\n  3079: u64 [a2 + 880] = 0\n  3083: u64 [a2 + 864] = 0x20\n  3088: a1 = s1 + 0x14a0\n  3092: u64 [a2 + 872] = 0\n  3096: u64 [s1 + 0x1a8] = a3\n  3100: u64 [s1 + 0x1a0] = a4\n  3104: ra = 96, jump @4\n      : @130 [@dyn 48] (gas: 10)\n  3109: a3 = s1 + 0x100\n  3113: a1 = u64 [a3 + 0xb8]\n  3117: a0 = u64 [a3 + 0xa0]\n  3121: a0 = a0 + 0xffffffffffffffdc\n  3124: a0 = a1 <u a0\n  3127: a2 = u64 [a3 + 0xb0]\n  3131: a0 = 0 if a2 != 0\n  3133: a2 = u64 [a3 + 0xa8]\n  3137: a0 = 0 if a2 != 0\n  3139: jump @132 if a0 != 0\n      : @131 (gas: 1)\n  3142: jump @912\n      : @132 (gas: 8)\n  3145: i32 a0 = a1 + 0x24\n  3148: a2 = s1 + 0x1140\n  3152: u64 [a2 + 856] = 0\n  3156: u64 [a2 + 848] = 0\n  3160: u64 [a2 + 832] = 0x21\n  3165: a1 = s1 + 0x1480\n  3169: u64 [a2 + 840] = 0\n  3173: ra = 98, jump @4\n      : @133 [@dyn 49] (gas: 10)\n  3178: a0 = s1 + 0x100\n  3182: a3 = u64 [a0 + 0xa8]\n  3186: a4 = u64 [a0 + 0xb0]\n  3190: a1 = u64 [a0 + 0xb8]\n  3194: a2 = 0x100000000\n  3204: a0 = 0xffffffbc\n  3214: a0 = a1 <u a0\n  3217: a0 = 0 if a4 != 0\n  3219: a0 = 0 if a3 != 0\n  3221: jump @135 if a0 != 0\n      : @134 (gas: 1)\n  3224: jump @912\n      : @135 (gas: 14)\n  3227: i32 a0 = a1 + 0x44\n  3230: a1 = u64 [0x200a0]\n  3235: a5 = s1 + 0x1140\n  3239: a4 = a5 + 0x300\n  3243: u64 [a4 + 0x38] = a1\n  3246: a1 = u64 [0x200a8]\n  3251: u64 [s1 + 0x1a0] = a2\n  3255: a2 = u64 [0x200b0]\n  3260: a3 = u64 [0x200b8]\n  3265: u64 [a4 + 0x30] = a1\n  3268: u64 [a4 + 0x28] = a2\n  3271: a1 = s1 + 0x1460\n  3275: u64 [a4 + 0x20] = a3\n  3278: ra = 100, jump @4\n      : @136 [@dyn 50] (gas: 10)\n  3283: a3 = s1 + 0x100\n  3287: a2 = u64 [a3 + 0xb8]\n  3291: a0 = u64 [a3 + 0xa0]\n  3295: a0 = a0 + 0xffffffffffffff9c\n  3298: a0 = a2 <u a0\n  3301: a1 = u64 [a3 + 0xb0]\n  3305: a0 = 0 if a1 != 0\n  3307: a1 = u64 [a3 + 0xa8]\n  3311: a0 = 0 if a1 != 0\n  3313: jump @138 if a0 != 0\n      : @137 (gas: 1)\n  3316: jump @912\n      : @138 (gas: 9)\n  3319: i32 a0 = a2 + 0x64\n  3322: a3 = s1 + 0x1140\n  3326: u64 [a3 + 784] = 0\n  3330: u64 [a3 + 776] = 0\n  3334: a1 = 0x3000000000000000\n  3344: u64 [a3 + 0x318] = a1\n  3348: a1 = s1 + 0x1440\n  3352: u64 [a3 + 768] = 0\n  3356: ra = 102, jump @4\n      : @139 [@dyn 51] (gas: 3)\n  3361: a1 = 0x84\n  3365: a0 = u64 [s1 + 0x1b8]\n  3369: ra = 104, jump @15\n      : @140 [@dyn 52] (gas: 5)\n  3374: i32 a1 = a0 + 0\n  3376: a0 = 0x1\n  3379: a2 = 0x84\n  3383: ecalli 11 // 'seal_return'\n  3385: fallthrough\n      : @141 (gas: 9)\n  3386: u64 [a2 + 1344] = 0\n  3390: u64 [a2 + 1336] = 0\n  3394: u64 [a2 + 1328] = 0\n  3398: u64 [a2 + 1320] = 0\n  3402: a0 = s1 + 0x4000\n  3406: i32 a0 = a0 + 0xfffffffffffffe80\n  3410: ra = 0x6a\n  3413: ecalli 14 // 'value_transferred'\n  3415: fallthrough\n      : @142 [@dyn 53] (gas: 10)\n  3416: a3 = s1 + 0x3958\n  3420: a4 = a3 + 0x500\n  3424: a0 = u64 [a4 + 0x38]\n  3427: a1 = u64 [a4 + 0x40]\n  3430: a2 = u64 [a4 + 0x30]\n  3433: a3 = u64 [a4 + 0x28]\n  3436: a1 = a1 | a2\n  3439: a0 = a0 | a3\n  3442: a0 = a0 | a1\n  3445: jump @144 if a0 == 0\n      : @143 (gas: 1)\n  3448: jump @1039\n      : @144 (gas: 1)\n  3451: t0 = 108, jump @1471\n      : @145 [@dyn 54] (gas: 1)\n  3457: jump @147 if a1 <u a0\n      : @146 (gas: 1)\n  3460: jump @1040\n      : @147 (gas: 23)\n  3463: a0 = s1 + 0x4000\n  3467: i32 a0 = a0 + 0xfffffffffffffea0\n  3471: a1 = 0x4\n  3474: ecalli 2 // 'call_data_load'\n  3476: a0 = s1 + 0x3958\n  3480: a5 = a0 + 0x500\n  3484: a4 = u64 [a5 + 0x60]\n  3487: a3 = u64 [a5 + 0x58]\n  3490: a1 = u64 [a5 + 0x50]\n  3493: a2 = u64 [a5 + 0x48]\n  3496: a0 = s1 + 0x2958\n  3500: u64 [s1 + 0x88] = a4\n  3504: a5 = a0 + 0x500\n  3508: u64 [a5 + 0xa0] = a4\n  3512: u64 [s1 + 0x90] = a3\n  3516: u64 [a5 + 0x98] = a3\n  3520: u64 [s1 + 0x98] = a1\n  3524: u64 [a5 + 0x90] = a1\n  3528: a1 = s1 + 0x2ee0\n  3532: u64 [s1 + 0xa0] = a2\n  3536: u64 [a5 + 0x88] = a2\n  3540: a0 = 0\n  3542: ra = 110, jump @4\n      : @148 [@dyn 55] (gas: 9)\n  3547: a0 = s1 + 0x2958\n  3551: u64 [a0 + 1408] = 0\n  3555: u64 [a0 + 1400] = 0\n  3559: u64 [a0 + 1392] = 0\n  3563: a3 = a0\n  3565: a0 = 0x20\n  3568: a1 = s1 + 0x2ec0\n  3572: u64 [a3 + 1384] = 0x2\n  3577: ra = 112, jump @4\n      : @149 [@dyn 56] (gas: 3)\n  3582: a1 = 0x20154\n  3587: a0 = i32 [0x20154]\n  3592: jump @151 if a0 >u 63\n      : @150 (gas: 3)\n  3596: u32 [0x20154] = 0x40\n  3602: t0 = 0x72\n  3605: jump @1459\n      : @151 (gas: 1)\n  3609: t0 = 114, jump @1459\n      : @152 [@dyn 57] (gas: 12)\n  3615: a0 = 0x20160\n  3620: u64 [s1 + 0x20] = a0\n  3623: i32 a0 = a0 + 0\n  3625: u64 [s1 + 0x100] = a1\n  3629: i32 a2 = a2 + 0\n  3631: a1 = 0x40\n  3634: u64 [s1 + 0xf8] = a0\n  3638: ra = 0x74\n  3641: ecalli 7 // 'hash_keccak_256'\n  3643: a3 = u64 [s1 + 0x1b8]\n  3647: t0 = 0x76\n  3650: jump @1426\n      : @153 [@dyn 58] (gas: 2)\n  3654: a3 = u64 [s1 + 0x1b8]\n  3658: t0 = 118, jump @1426\n      : @154 [@dyn 59] (gas: 8)\n  3664: a5 = a4 + 0x500\n  3668: u64 [a5 + 0x80] = a3\n  3672: u64 [a5 + 0x78] = a2\n  3675: u64 [a5 + 0x70] = a1\n  3678: u64 [a5 + 0x68] = a0\n  3681: a0 = s1 + 0x2ea0\n  3685: a1 = s1 + 0x3ec0\n  3689: ra = 120, jump @6\n      : @155 [@dyn 60] (gas: 23)\n  3694: a4 = s1 + 0x2958\n  3698: a0 = u64 [a4 + 0x560]\n  3702: a1 = u64 [a4 + 0x550]\n  3706: a2 = u64 [a4 + 0x548]\n  3710: a3 = u64 [a4 + 0x558]\n  3714: a5 = u64 [s1 + 0x88]\n  3718: a0 = a0 ^ a5\n  3721: a5 = u64 [s1 + 0x98]\n  3725: a1 = a1 ^ a5\n  3728: a0 = a0 | a1\n  3731: a1 = u64 [s1 + 0x90]\n  3735: a1 = a1 ^ a3\n  3738: a3 = u64 [s1 + 0xa0]\n  3742: a2 = a2 ^ a3\n  3745: a1 = a1 | a2\n  3748: a0 = a0 | a1\n  3751: a0 = a0 <u 0x1\n  3754: u64 [a4 + 1344] = 0\n  3758: u64 [a4 + 1336] = 0\n  3762: u64 [a4 + 0x528] = a0\n  3766: a0 = s1 + 0x2e80\n  3770: u64 [a4 + 1328] = 0\n  3774: ra = 122, jump @1283\n      : @156 [@dyn 61] (gas: 13)\n  3780: a0 = s1 + 0x2958\n  3784: a1 = u64 [s1 + 0x88]\n  3788: a3 = a0 + 0x500\n  3792: u64 [a3 + 0x20] = a1\n  3795: a1 = u64 [s1 + 0x90]\n  3799: u64 [a3 + 0x18] = a1\n  3802: a1 = u64 [s1 + 0x98]\n  3806: u64 [a3 + 0x10] = a1\n  3809: a1 = s1 + 0x2e60\n  3813: a2 = u64 [s1 + 0xa0]\n  3817: u64 [a3 + 0x8] = a2\n  3820: a0 = 0\n  3822: ra = 124, jump @4\n      : @157 [@dyn 62] (gas: 3)\n  3827: t0 = 0x7e\n  3830: a1 = s1 + 0x2958\n  3834: fallthrough\n      : @158 [@dyn 63] (gas: 8)\n  3835: u64 [a1 + 1280] = 0\n  3839: u64 [a1 + 1272] = 0\n  3843: u64 [a1 + 1256] = 0x2\n  3848: a2 = a1\n  3850: a0 = 0x20\n  3853: a1 = s1 + 0x2e40\n  3857: u64 [a2 + 1264] = 0\n  3861: ra = 128, jump @4\n      : @159 [@dyn 64] (gas: 3)\n  3867: a1 = u64 [s1 + 0x100]\n  3871: a0 = i32 [a1]\n  3873: jump @161 if a0 >u 63\n      : @160 (gas: 3)\n  3877: u32 [a1 + 0] = 0x40\n  3880: t0 = 0x82\n  3884: jump @1441\n      : @161 (gas: 1)\n  3888: t0 = 130, jump @1441\n      : @162 [@dyn 65] (gas: 31)\n  3895: ecalli 7 // 'hash_keccak_256'\n  3897: a3 = u64 [s1 + 0x1b8]\n  3901: a0 = u64 [a3]\n  3903: a1 = u64 [a3 + 0x8]\n  3906: a2 = u64 [a3 + 0x10]\n  3909: a3 = u64 [a3 + 0x18]\n  3912: a4 = reverse a0\n  3914: a5 = reverse a1\n  3916: a2 = reverse a2\n  3918: a0 = reverse a3\n  3920: t0 = a0 + 0x3\n  3923: u64 [s1 + 0x28] = a0\n  3926: a1 = t0 <u a0\n  3929: a0 = a2 + a1\n  3932: u64 [s1 + 0x30] = a2\n  3935: a3 = a0 <u a2\n  3938: a3 = a1 if a1 == 0\n  3941: a3 = a3 + a5\n  3944: u64 [s1 + 0x38] = a5\n  3947: a1 = a3 <u a5\n  3950: u64 [s1 + 0x40] = a4\n  3953: a1 = a1 + a4\n  3956: a4 = s1 + 0x3958\n  3960: u64 [a4 + 0x588] = t0\n  3964: a2 = a4 + 0x500\n  3968: u64 [a2 + 0x90] = a0\n  3972: u64 [a2 + 0x98] = a3\n  3976: u64 [a2 + 0xa0] = a1\n  3980: a0 = s1 + 0x2e20\n  3984: a1 = s1 + 0x3ee0\n  3988: ra = 132, jump @6\n      : @163 [@dyn 66] (gas: 15)\n  3994: a0 = s1 + 0x2958\n  3998: a2 = a0 + 0x400\n  4002: a1 = u64 [a2 + 0xc8]\n  4006: u64 [s1 + 0x1b8] = a1\n  4010: a1 = u64 [a2 + 0xd0]\n  4014: u64 [s1 + 0x1b0] = a1\n  4018: a1 = u64 [a2 + 0xd8]\n  4022: u64 [s1 + 0x1a8] = a1\n  4026: a0 = u64 [a2 + 0xe0]\n  4030: u64 [s1 + 0x1a0] = a0\n  4034: a0 = s1 + 0x4000\n  4038: i32 a0 = a0 + 0xffffffffffffff00\n  4042: ra = 0x86\n  4046: ecalli 8 // 'now'\n  4048: fallthrough\n      : @164 [@dyn 67] (gas: 18)\n  4049: a1 = s1 + 0x3958\n  4053: a4 = a1 + 0x500\n  4057: a0 = u64 [a4 + 0xc0]\n  4061: t0 = u64 [a1 + 0x5a8]\n  4065: a2 = u64 [a4 + 0xb8]\n  4069: a3 = u64 [a4 + 0xb0]\n  4073: a1 = u64 [s1 + 0x1a0]\n  4077: a4 = a0 ^ a1\n  4080: a1 = a0 <u a1\n  4083: a0 = u64 [s1 + 0x1a8]\n  4087: a5 = a2 <u a0\n  4090: a5 = a1 if a4 != 0\n  4093: a1 = u64 [s1 + 0x1b0]\n  4097: t1 = a3 ^ a1\n  4100: a3 = a3 <u a1\n  4103: a1 = u64 [s1 + 0x1b8]\n  4107: a1 = t0 <u a1\n  4110: t0 = 136, jump @1456\n      : @165 [@dyn 68] (gas: 1)\n  4117: jump @167 if a1 != 0\n      : @166 (gas: 1)\n  4120: jump @646\n      : @167 (gas: 3)\n  4123: a0 = s1 + 0x25a0\n  4127: a1 = 0x40\n  4130: ra = 138, jump @2\n      : @168 [@dyn 69] (gas: 14)\n  4136: a2 = s1 + 0x2158\n  4140: t0 = u64 [a2 + 0x460]\n  4144: a1 = a2 + 0x400\n  4148: a5 = u64 [a1 + 0x58]\n  4151: a4 = u64 [a1 + 0x50]\n  4154: a0 = u64 [a1 + 0x48]\n  4157: a3 = a4 | t0\n  4160: a1 = a0 | a5\n  4163: a1 = a1 | a3\n  4166: a1 = a1 >> 0x20\n  4169: a3 = a3 | a5\n  4172: a3 = a3 << 0x20\n  4175: a1 = a1 | a3\n  4178: jump @170 if a1 == 0\n      : @169 (gas: 1)\n  4181: jump @912\n      : @170 (gas: 11)\n  4184: u64 [a2 + 1080] = 0\n  4188: u64 [a2 + 1072] = 0\n  4192: u64 [a2 + 1064] = 0\n  4196: a3 = 0x8c379a000000000\n  4206: a1 = s1 + 0x2580\n  4210: u64 [a2 + 0x440] = a3\n  4214: u64 [s1 + 0x1b8] = a0\n  4218: u64 [s1 + 0x1b0] = a4\n  4222: u64 [s1 + 0x1a0] = t0\n  4226: u64 [s1 + 0x1a8] = a5\n  4230: ra = 140, jump @4\n      : @171 [@dyn 70] (gas: 1)\n  4236: t0 = 142, jump @1415\n      : @172 [@dyn 71] (gas: 1)\n  4243: jump @174 if a0 != 0\n      : @173 (gas: 1)\n  4246: jump @912\n      : @174 (gas: 3)\n  4249: i32 a0 = a1 + 0x4\n  4252: a1 = 0x2158\n  4256: t0 = 144, jump @1473\n      : @175 [@dyn 72] (gas: 5)\n  4263: a1 = s1 + 0x2560\n  4267: u64 [a2 + 1040] = 0\n  4271: u64 [s1 + 0x1a8] = a3\n  4275: u64 [s1 + 0x1a0] = a4\n  4279: ra = 146, jump @4\n      : @176 [@dyn 73] (gas: 1)\n  4285: t0 = 148, jump @1417\n      : @177 [@dyn 74] (gas: 1)\n  4292: jump @179 if a0 != 0\n      : @178 (gas: 1)\n  4295: jump @912\n      : @179 (gas: 8)\n  4298: i32 a0 = a1 + 0x24\n  4301: a3 = s1 + 0x2158\n  4305: u64 [a3 + 1024] = 0\n  4309: u64 [a3 + 1016] = 0\n  4313: u64 [a3 + 1000] = 0x16\n  4318: a1 = s1 + 0x2540\n  4322: u64 [a3 + 1008] = 0\n  4326: ra = 150, jump @4\n      : @180 [@dyn 75] (gas: 1)\n  4332: t0 = 152, jump @1419\n      : @181 [@dyn 76] (gas: 1)\n  4339: jump @183 if a0 != 0\n      : @182 (gas: 1)\n  4342: jump @912\n      : @183 (gas: 13)\n  4345: i32 a0 = a3 + 0x44\n  4348: a1 = u64 [0x20058]\n  4353: a2 = u64 [0x20060]\n  4358: a3 = u64 [0x20068]\n  4363: a4 = s1 + 0x2158\n  4367: a5 = a4 + 0x300\n  4371: u64 [a5 + 0xe0] = a1\n  4375: u64 [a5 + 0xd8] = a2\n  4379: u64 [a5 + 0xd0] = a3\n  4383: a1 = s1 + 0x2520\n  4387: u64 [a4 + 968] = 0\n  4391: ra = 0x3a8\n  4395: jump @4\n      : @184 (gas: 8)\n  4398: u64 [a2 + 1984] = 0\n  4402: u64 [a2 + 1976] = 0\n  4406: u64 [a2 + 1968] = 0\n  4410: u64 [a2 + 1960] = 0\n  4414: a0 = s1 + 0x4000\n  4418: i32 a0 = a0 + 0x100\n  4422: ecalli 14 // 'value_transferred'\n  4424: fallthrough\n      : @185 (gas: 10)\n  4425: a3 = s1 + 0x3958\n  4429: a4 = a3 + 0x700\n  4433: a0 = u64 [a4 + 0xb8]\n  4437: a1 = u64 [a4 + 0xc0]\n  4441: a2 = u64 [a4 + 0xb0]\n  4445: a3 = u64 [a4 + 0xa8]\n  4449: a1 = a1 | a2\n  4452: a0 = a0 | a3\n  4455: a0 = a0 | a1\n  4458: jump @187 if a0 == 0\n      : @186 (gas: 1)\n  4461: jump @1041\n      : @187 (gas: 3)\n  4464: a0 = u64 [s1 + 0x1b8]\n  4468: a0 = i32 [a0]\n  4470: jump @189 if a0 >u 3\n      : @188 (gas: 1)\n  4474: jump @1042\n      : @189 (gas: 3)\n  4477: a0 = s1 + 0x2f20\n  4481: a1 = 0x40\n  4484: ra = 154, jump @2\n      : @190 [@dyn 77] (gas: 7)\n  4490: a3 = s1 + 0x2958\n  4494: a5 = a3 + 0x500\n  4498: a4 = u64 [a5 + 0xe0]\n  4502: a1 = u64 [a5 + 0xd8]\n  4506: a2 = u64 [a5 + 0xd0]\n  4510: a0 = u64 [a5 + 0xc8]\n  4514: t0 = 156, jump @1438\n      : @191 [@dyn 78] (gas: 1)\n  4521: jump @193 if a1 == 0\n      : @192 (gas: 1)\n  4524: jump @912\n      : @193 (gas: 8)\n  4527: u64 [a3 + 1472] = 0\n  4531: u64 [a3 + 1464] = 0\n  4535: u64 [a3 + 1448] = 0x5a\n  4540: a1 = s1 + 0x2f00\n  4544: u64 [a3 + 1456] = 0\n  4548: u64 [s1 + 0x1b8] = a0\n  4552: ra = 0x218\n  4556: jump @4\n      : @194 (gas: 11)\n  4559: u64 [a2 + 1024] = 0\n  4563: u64 [a2 + 1016] = 0\n  4567: u64 [a2 + 1008] = 0\n  4571: u64 [a2 + 1000] = 0\n  4575: a0 = s1 + 0x4000\n  4579: i32 a0 = a0 + 0xfffffffffffffd40\n  4583: ra = 0x9e\n  4587: ecalli 14 // 'value_transferred'\n  4589: a0 = 0x3958\n  4593: t0 = 0xa0\n  4597: jump @1467\n      : @195 [@dyn 79] (gas: 2)\n  4601: a0 = 0x3958\n  4605: t0 = 160, jump @1467\n      : @196 [@dyn 80] (gas: 1)\n  4612: jump @198 if a0 == 0\n      : @197 (gas: 1)\n  4615: jump @1043\n      : @198 (gas: 1)\n  4618: t0 = 162, jump @1471\n      : @199 [@dyn 81] (gas: 1)\n  4625: jump @201 if a1 <u a0\n      : @200 (gas: 1)\n  4628: jump @1044\n      : @201 (gas: 21)\n  4631: a0 = s1 + 0x4000\n  4635: i32 a0 = a0 + 0xfffffffffffffd60\n  4639: a1 = 0x4\n  4642: ecalli 2 // 'call_data_load'\n  4644: a0 = s1 + 0x3958\n  4648: a2 = a0 + 0x400\n  4652: a1 = u64 [a2 + 0x20]\n  4655: u64 [s1 + 0xd0] = a1\n  4659: a1 = u64 [a2 + 0x18]\n  4662: u64 [s1 + 0xd8] = a1\n  4666: a1 = u64 [a2 + 0x10]\n  4669: u64 [s1 + 0xe0] = a1\n  4673: a1 = u64 [a2 + 0x8]\n  4676: u64 [s1 + 0xe8] = a1\n  4680: u64 [a0 + 1088] = 0\n  4684: u64 [a0 + 1080] = 0\n  4688: u64 [a0 + 1072] = 0\n  4692: u64 [a0 + 1064] = 0\n  4696: a0 = s1 + 0x2500\n  4700: a1 = s1 + 0x3d80\n  4704: ra = 164, jump @6\n      : @202 [@dyn 82] (gas: 15)\n  4710: a0 = s1 + 0x2158\n  4714: a1 = u64 [a0 + 0x3b0]\n  4718: u64 [s1 + 0x1b8] = a1\n  4722: a1 = u64 [a0 + 0x3a8]\n  4726: u64 [s1 + 0x1b0] = a1\n  4730: a0 = u32 [a0 + 0x3b8]\n  4734: u64 [s1 + 0x1a8] = a0\n  4738: a0 = 0x30160\n  4743: u64 [s1 + 0xb0] = a0\n  4747: i32 a0 = a0 + 0\n  4749: ra = 0xa6\n  4753: ecalli 4 // 'caller'\n  4755: a2 = u64 [s1 + 0xb0]\n  4759: t0 = 0xa8\n  4763: jump @1423\n      : @203 [@dyn 83] (gas: 2)\n  4767: a2 = u64 [s1 + 0xb0]\n  4771: t0 = 168, jump @1423\n      : @204 [@dyn 84] (gas: 17)\n  4778: a4 = s1 + 0x100\n  4782: a2 = u64 [a4 + 0xa8]\n  4786: a1 = a1 ^ a2\n  4789: a2 = u64 [a4 + 0xb0]\n  4793: a0 = a0 ^ a2\n  4796: a0 = a0 | a1\n  4799: a1 = u64 [a4 + 0xb8]\n  4803: a1 = a1 ^ a3\n  4806: a0 = a0 | a1\n  4809: a0 = a0 <u 0x1\n  4812: a1 = s1 + 0x2158\n  4816: u64 [a1 + 928] = 0\n  4820: u64 [a1 + 920] = 0\n  4824: u64 [a1 + 0x388] = a0\n  4828: a0 = s1 + 0x24e0\n  4832: u64 [a1 + 912] = 0\n  4836: ra = 170, jump @1245\n      : @205 [@dyn 85] (gas: 13)\n  4843: a0 = u64 [s1 + 0xd0]\n  4847: a2 = s1 + 0x2158\n  4851: a3 = a2 + 0x300\n  4855: u64 [a3 + 0x80] = a0\n  4859: a0 = u64 [s1 + 0xd8]\n  4863: u64 [a3 + 0x78] = a0\n  4866: a0 = u64 [s1 + 0xe0]\n  4870: u64 [a3 + 0x70] = a0\n  4873: a1 = s1 + 0x24c0\n  4877: a0 = u64 [s1 + 0xe8]\n  4881: u64 [a3 + 0x68] = a0\n  4884: a0 = 0\n  4886: ra = 172, jump @4\n      : @206 [@dyn 86] (gas: 9)\n  4892: a0 = s1 + 0x2158\n  4896: u64 [a0 + 864] = 0\n  4900: u64 [a0 + 856] = 0\n  4904: u64 [a0 + 848] = 0\n  4908: a3 = a0\n  4910: a0 = 0x20\n  4913: a1 = s1 + 0x24a0\n  4917: u64 [a3 + 840] = 0x2\n  4922: ra = 174, jump @4\n      : @207 [@dyn 87] (gas: 3)\n  4928: a1 = 0x20154\n  4933: a0 = i32 [0x20154]\n  4938: jump @209 if a0 >u 63\n      : @208 (gas: 3)\n  4942: u32 [0x20154] = 0x40\n  4948: t0 = 0xb0\n  4952: jump @1459\n      : @209 (gas: 1)\n  4956: t0 = 176, jump @1459\n      : @210 [@dyn 88] (gas: 12)\n  4963: a0 = 0x20160\n  4968: u64 [s1 + 0xa8] = a0\n  4972: i32 a0 = a0 + 0\n  4974: u64 [s1 + 0xf8] = a1\n  4978: i32 a2 = a2 + 0\n  4980: a1 = 0x40\n  4983: u64 [s1 + 0x100] = a0\n  4987: ra = 0xb2\n  4991: ecalli 7 // 'hash_keccak_256'\n  4993: a3 = u64 [s1 + 0x1b8]\n  4997: t0 = 0xb4\n  5001: jump @1426\n      : @211 [@dyn 89] (gas: 2)\n  5005: a3 = u64 [s1 + 0x1b8]\n  5009: t0 = 180, jump @1426\n      : @212 [@dyn 90] (gas: 8)\n  5016: a5 = a4 + 0x400\n  5020: u64 [a5 + 0x60] = a3\n  5023: u64 [a5 + 0x58] = a2\n  5026: u64 [a5 + 0x50] = a1\n  5029: u64 [a5 + 0x48] = a0\n  5032: a0 = s1 + 0x2480\n  5036: a1 = s1 + 0x3da0\n  5040: ra = 182, jump @6\n      : @213 [@dyn 91] (gas: 23)\n  5046: a4 = s1 + 0x2158\n  5050: a0 = u64 [a4 + 0x340]\n  5054: a1 = u64 [a4 + 0x330]\n  5058: a2 = u64 [a4 + 0x328]\n  5062: a3 = u64 [a4 + 0x338]\n  5066: a5 = u64 [s1 + 0xd0]\n  5070: a0 = a0 ^ a5\n  5073: a5 = u64 [s1 + 0xe0]\n  5077: a1 = a1 ^ a5\n  5080: a0 = a0 | a1\n  5083: a1 = u64 [s1 + 0xd8]\n  5087: a1 = a1 ^ a3\n  5090: a3 = u64 [s1 + 0xe8]\n  5094: a2 = a2 ^ a3\n  5097: a1 = a1 | a2\n  5100: a0 = a0 | a1\n  5103: a0 = a0 <u 0x1\n  5106: u64 [a4 + 800] = 0\n  5110: u64 [a4 + 792] = 0\n  5114: u64 [a4 + 0x308] = a0\n  5118: a0 = s1 + 0x2460\n  5122: u64 [a4 + 784] = 0\n  5126: ra = 184, jump @1283\n      : @214 [@dyn 92] (gas: 13)\n  5133: a0 = s1 + 0x2158\n  5137: a1 = u64 [s1 + 0xd0]\n  5141: u64 [a0 + 0x300] = a1\n  5145: a1 = u64 [s1 + 0xd8]\n  5149: a3 = a0 + 0x200\n  5153: u64 [a3 + 0xf8] = a1\n  5157: a1 = u64 [s1 + 0xe0]\n  5161: u64 [a3 + 0xf0] = a1\n  5165: a1 = s1 + 0x2440\n  5169: a2 = u64 [s1 + 0xe8]\n  5173: u64 [a3 + 0xe8] = a2\n  5177: a0 = 0\n  5179: ra = 186, jump @4\n      : @215 [@dyn 93] (gas: 3)\n  5185: t0 = 0xbc\n  5189: a1 = s1 + 0x2158\n  5193: fallthrough\n      : @216 [@dyn 94] (gas: 8)\n  5194: u64 [a1 + 736] = 0\n  5198: u64 [a1 + 728] = 0\n  5202: u64 [a1 + 712] = 0x2\n  5207: a2 = a1\n  5209: a0 = 0x20\n  5212: a1 = s1 + 0x2420\n  5216: u64 [a2 + 720] = 0\n  5220: ra = 190, jump @4\n      : @217 [@dyn 95] (gas: 3)\n  5226: a1 = u64 [s1 + 0xf8]\n  5230: a0 = i32 [a1]\n  5232: jump @219 if a0 >u 63\n      : @218 (gas: 3)\n  5236: u32 [a1 + 0] = 0x40\n  5239: t0 = 0xc0\n  5243: jump @1444\n      : @219 (gas: 1)\n  5247: t0 = 192, jump @1444\n      : @220 [@dyn 96] (gas: 33)\n  5254: a0 = u64 [s1 + 0x100]\n  5258: ecalli 7 // 'hash_keccak_256'\n  5260: a3 = u64 [s1 + 0x1b8]\n  5264: a0 = u64 [a3]\n  5266: a1 = u64 [a3 + 0x8]\n  5269: a2 = u64 [a3 + 0x10]\n  5272: a3 = u64 [a3 + 0x18]\n  5275: t0 = reverse a0\n  5277: a5 = reverse a1\n  5279: a2 = reverse a2\n  5281: a3 = reverse a3\n  5283: a0 = sp + 0xffffffffffffffe0\n  5286: a1 = a0 & 0xffffffffffffffe0\n  5289: sp = a1\n  5291: t1 = a3 + 0x6\n  5294: u64 [s1 + 0x198] = a3\n  5298: a4 = t1 <u a3\n  5301: a0 = a2 + a4\n  5304: u64 [s1 + 0x1a0] = a2\n  5308: a3 = a0 <u a2\n  5311: a3 = a4 if a4 == 0\n  5314: a3 = a3 + a5\n  5317: u64 [s1 + 0x1a8] = a5\n  5321: a2 = a3 <u a5\n  5324: u64 [s1 + 0x1b0] = t0\n  5328: a2 = a2 + t0\n  5331: u64 [a1 + 0x8] = a0\n  5334: u64 [a1] = t1\n  5336: u64 [a1 + 0x10] = a3\n  5339: u64 [a1 + 0x18] = a2\n  5342: a0 = s1 + 0x2400\n  5346: u64 [s1 + 0x1b8] = a1\n  5350: ra = 194, jump @6\n      : @221 [@dyn 97] (gas: 2)\n  5356: a1 = s1 + 0x2158\n  5360: fallthrough\n      : @222 (gas: 2)\n  5361: a0 = u8 [a1 + 0x2bc]\n  5365: jump @224 if a0 <=u 3\n      : @223 (gas: 1)\n  5369: jump @1045\n      : @224 (gas: 8)\n  5372: a0 = a0 + 0xfffffffffffffffd\n  5375: a0 = a0 >u 0\n  5377: u64 [a1 + 672] = 0\n  5381: u64 [a1 + 664] = 0\n  5385: u64 [a1 + 0x288] = a0\n  5389: a0 = s1 + 0x23e0\n  5393: u64 [a1 + 656] = 0\n  5397: ra = 196, jump @1303\n      : @225 [@dyn 98] (gas: 3)\n  5404: a0 = s1 + 0x23c0\n  5408: a1 = u64 [s1 + 0x1b8]\n  5412: ra = 198, jump @6\n      : @226 [@dyn 99] (gas: 7)\n  5418: a3 = s1 + 0x2158\n  5422: a4 = a3 + 0x200\n  5426: a0 = u64 [a4 + 0x68]\n  5429: a1 = u64 [a4 + 0x70]\n  5432: a2 = u64 [a4 + 0x78]\n  5435: a3 = u64 [a4 + 0x80]\n  5439: t0 = 200, jump @1464\n      : @227 [@dyn 100] (gas: 8)\n  5446: a5 = a4 + 0x400\n  5450: u64 [a5 + 0x80] = a3\n  5454: u64 [a5 + 0x70] = a1\n  5457: u64 [a5 + 0x68] = a0\n  5460: u64 [a5 + 0x78] = a2\n  5463: a1 = s1 + 0x3dc0\n  5467: a0 = u64 [s1 + 0x1b8]\n  5471: ra = 202, jump @9\n      : @228 [@dyn 101] (gas: 23)\n  5477: a0 = sp + 0xffffffffffffffe0\n  5480: a5 = a0 & 0xffffffffffffffe0\n  5483: sp = a5\n  5485: a1 = u64 [s1 + 0x198]\n  5489: a0 = a1 + 0x8\n  5492: a1 = a0 <u a1\n  5495: a3 = u64 [s1 + 0x1a0]\n  5499: a2 = a3 + a1\n  5502: a3 = a2 <u a3\n  5505: a3 = a1 if a1 == 0\n  5508: a1 = u64 [s1 + 0x1a8]\n  5512: a3 = a3 + a1\n  5515: a1 = a3 <u a1\n  5518: a4 = u64 [s1 + 0x1b0]\n  5522: a4 = a4 + a1\n  5525: a1 = a5\n  5527: u64 [s1 + 0x1b8] = a5\n  5531: u64 [a5 + 0x18] = a4\n  5534: u64 [a5 + 0x10] = a3\n  5537: u64 [a5 + 0x8] = a2\n  5540: u64 [a5] = a0\n  5542: a0 = s1 + 0x23a0\n  5546: ra = 204, jump @6\n      : @229 [@dyn 102] (gas: 17)\n  5552: a3 = s1 + 0x2158\n  5556: a4 = a3 + 0x200\n  5560: a0 = u64 [a4 + 0x48]\n  5563: a1 = u64 [a4 + 0x50]\n  5566: a2 = u64 [a4 + 0x60]\n  5569: a3 = u64 [a4 + 0x58]\n  5572: a0 = a0 & 0xffffffffffffff00\n  5576: a0 = a0 | 0x1\n  5579: a4 = s1 + 0x3958\n  5583: a5 = a4 + 0x400\n  5587: u64 [a5 + 0xa0] = a2\n  5591: u64 [a5 + 0x98] = a3\n  5595: u64 [a5 + 0x90] = a1\n  5599: u64 [a5 + 0x88] = a0\n  5603: a1 = s1 + 0x3de0\n  5607: a0 = u64 [s1 + 0x1b8]\n  5611: ra = 206, jump @9\n      : @230 [@dyn 103] (gas: 13)\n  5617: a0 = u64 [s1 + 0xd0]\n  5621: a2 = s1 + 0x2158\n  5625: a3 = a2 + 0x200\n  5629: u64 [a3 + 0x40] = a0\n  5632: a0 = u64 [s1 + 0xd8]\n  5636: u64 [a3 + 0x38] = a0\n  5639: a0 = u64 [s1 + 0xe0]\n  5643: u64 [a3 + 0x30] = a0\n  5646: a1 = s1 + 0x2380\n  5650: a0 = u64 [s1 + 0xe8]\n  5654: u64 [a3 + 0x28] = a0\n  5657: a0 = 0\n  5659: ra = 208, jump @4\n      : @231 [@dyn 104] (gas: 3)\n  5665: t0 = 0xd2\n  5669: a1 = s1 + 0x2158\n  5673: fallthrough\n      : @232 [@dyn 105] (gas: 8)\n  5674: u64 [a1 + 544] = 0\n  5678: u64 [a1 + 536] = 0\n  5682: u64 [a1 + 520] = 0x4\n  5687: a2 = a1\n  5689: a0 = 0x20\n  5692: a1 = s1 + 0x2360\n  5696: u64 [a2 + 528] = 0\n  5700: ra = 212, jump @4\n      : @233 [@dyn 106] (gas: 7)\n  5706: a0 = sp + 0xffffffffffffffe0\n  5709: a0 = a0 & 0xffffffffffffffe0\n  5712: u64 [s1 + 0x1b8] = a0\n  5716: sp = a0\n  5718: a2 = u64 [s1 + 0xf8]\n  5722: a0 = i32 [a2]\n  5724: jump @235 if a0 >u 63\n      : @234 (gas: 2)\n  5728: u32 [a2 + 0] = 0x40\n  5731: fallthrough\n      : @235 (gas: 4)\n  5732: a0 = sp + 0xffffffffffffffe0\n  5735: a0 = a0 & 0xffffffffffffffe0\n  5738: u64 [s1 + 0x1b0] = a0\n  5742: t0 = 214, jump @1458\n      : @236 [@dyn 107] (gas: 4)\n  5749: ra = 0xd8\n  5753: ecalli 7 // 'hash_keccak_256'\n  5755: t0 = 0xda\n  5759: jump @1428\n      : @237 [@dyn 108] (gas: 1)\n  5763: t0 = 218, jump @1428\n      : @238 [@dyn 109] (gas: 3)\n  5770: a0 = s1 + 0x2340\n  5774: a1 = 0x40\n  5777: ra = 220, jump @2\n      : @239 [@dyn 110] (gas: 13)\n  5783: a0 = s1 + 0x2158\n  5787: a1 = u64 [a0 + 0x200]\n  5791: u64 [s1 + 0xc8] = a1\n  5795: a2 = a0 + 0x100\n  5799: a1 = u64 [a2 + 0xf8]\n  5803: u64 [s1 + 0xc0] = a1\n  5807: a1 = u64 [a2 + 0xf0]\n  5811: u64 [s1 + 0xb8] = a1\n  5815: a0 = u64 [a2 + 0xe8]\n  5819: u64 [s1 + 0xf0] = a0\n  5823: a0 = s1 + 0x2320\n  5827: a1 = u64 [s1 + 0x1b8]\n  5831: ra = 222, jump @6\n      : @240 [@dyn 111] (gas: 6)\n  5837: a0 = u64 [s1 + 0xf0]\n  5841: a1 = u64 [s1 + 0xc8]\n  5845: a2 = u64 [s1 + 0xb8]\n  5849: a2 = a2 | a1\n  5852: a3 = u64 [s1 + 0xc0]\n  5856: t0 = 224, jump @1461\n      : @241 [@dyn 112] (gas: 1)\n  5863: jump @243 if a1 == 0\n      : @242 (gas: 1)\n  5866: jump @912\n      : @243 (gas: 16)\n  5869: a5 = s1 + 0x2158\n  5873: a2 = u64 [a5 + 0x1e0]\n  5877: a1 = u64 [a5 + 0x1d8]\n  5881: a3 = u64 [a5 + 0x1d0]\n  5885: a4 = u64 [a5 + 0x1c8]\n  5889: u64 [s1 + 0x118] = a4\n  5893: u64 [a5 + 0x1a8] = a4\n  5897: u64 [s1 + 0x120] = a3\n  5901: a4 = a5 + 0x100\n  5905: u64 [a4 + 0xb0] = a3\n  5909: u64 [s1 + 0x128] = a1\n  5913: u64 [a4 + 0xb8] = a1\n  5917: a1 = s1 + 0x2300\n  5921: u64 [s1 + 0x130] = a2\n  5925: u64 [a4 + 0xc0] = a2\n  5929: ra = 226, jump @4\n      : @244 [@dyn 113] (gas: 14)\n  5935: a0 = u64 [s1 + 0x198]\n  5939: a1 = s1 + 0x2158\n  5943: a2 = a1 + 0x100\n  5947: u64 [a2 + 0xa0] = a0\n  5951: a0 = u64 [s1 + 0x1a0]\n  5955: u64 [a2 + 0x98] = a0\n  5959: a0 = u64 [s1 + 0x1a8]\n  5963: u64 [a2 + 0x90] = a0\n  5967: a2 = a1\n  5969: a1 = s1 + 0x22e0\n  5973: a0 = u64 [s1 + 0x1b0]\n  5977: u64 [a2 + 0x188] = a0\n  5981: a0 = 0\n  5983: ra = 228, jump @4\n      : @245 [@dyn 114] (gas: 7)\n  5989: a0 = sp + 0xffffffffffffffe0\n  5992: a0 = a0 & 0xffffffffffffffe0\n  5995: u64 [s1 + 0x110] = a0\n  5999: sp = a0\n  6001: a2 = u64 [s1 + 0xf8]\n  6005: a0 = i32 [a2]\n  6007: jump @247 if a0 >u 31\n      : @246 (gas: 2)\n  6011: u32 [a2 + 0] = 0x20\n  6014: fallthrough\n      : @247 (gas: 3)\n  6015: a0 = 0xffffffff\n  6025: u64 [s1 + 0x138] = a0\n  6029: t0 = 230, jump @1445\n      : @248 [@dyn 115] (gas: 36)\n  6036: a0 = u64 [s1 + 0x100]\n  6040: ecalli 7 // 'hash_keccak_256'\n  6042: u64 [s1 + 408] = 0\n  6046: u64 [s1 + 400] = 0\n  6050: a5 = 0\n  6052: u64 [s1 + 392] = 0\n  6056: a3 = u64 [s1 + 0x1b8]\n  6060: a0 = u64 [a3 + 0x18]\n  6063: a1 = u64 [a3 + 0x10]\n  6066: a2 = u64 [a3 + 0x8]\n  6069: a3 = u64 [a3]\n  6071: t0 = reverse a0\n  6073: a0 = reverse a1\n  6075: a4 = reverse a2\n  6077: a2 = reverse a3\n  6079: a1 = u64 [s1 + 0x110]\n  6083: a3 = a2\n  6085: u64 [a1 + 0x18] = a2\n  6088: u64 [s1 + 0x150] = a4\n  6092: u64 [a1 + 0x10] = a4\n  6095: a2 = a0\n  6097: u64 [a1 + 0x8] = a0\n  6100: u64 [s1 + 0x158] = t0\n  6104: u64 [a1] = t0\n  6106: a0 = 0xffffffe0\n  6116: a4 = s1 + 0x100\n  6120: u64 [a4 + 0x8] = a0\n  6123: a0 = u64 [s1 + 0xf0]\n  6127: u64 [a4 + 0xb8] = a0\n  6131: a0 = u64 [s1 + 0xb8]\n  6135: u64 [a4 + 0xb0] = a0\n  6139: a0 = u64 [s1 + 0xc0]\n  6143: u64 [a4 + 0xa8] = a0\n  6147: a0 = u64 [s1 + 0xc8]\n  6151: u64 [a4 + 0xa0] = a0\n  6155: fallthrough\n      : @249 (gas: 37)\n  6156: u64 [s1 + 0x168] = a3\n  6160: u64 [s1 + 0x170] = a2\n  6164: t1 = u64 [s1 + 0x1b8]\n  6168: t2 = t1 + 0x20\n  6171: a0 = u64 [s1 + 0x118]\n  6175: a2 = u64 [s1 + 0x198]\n  6179: a0 = a2 <u a0\n  6182: a2 = u64 [s1 + 0x120]\n  6186: a4 = u64 [s1 + 0x190]\n  6190: a3 = a4 ^ a2\n  6193: a2 = a4 <u a2\n  6196: a2 = a0 if a3 == 0\n  6199: a4 = u64 [s1 + 0x128]\n  6203: a0 = a5 <u a4\n  6206: a3 = u64 [s1 + 0x130]\n  6210: t0 = u64 [s1 + 0x188]\n  6214: ra = t0 ^ a3\n  6217: a3 = t0 <u a3\n  6220: a3 = a0 if ra == 0\n  6223: u64 [s1 + 0x160] = a5\n  6227: a0 = a5 ^ a4\n  6230: a0 = a0 | ra\n  6233: u64 [s1 + 0x180] = t2\n  6237: a4 = t2 <u t1\n  6240: a3 = a2 if a0 == 0\n  6243: a2 = s1 + 0x100\n  6247: a0 = u64 [a2 + 0xb0]\n  6251: t0 = a0 + a4\n  6254: a0 = t0 <u a0\n  6257: a0 = a4 if a4 == 0\n  6260: a5 = u64 [a2 + 0xa8]\n  6264: a4 = a5 + a0\n  6267: a0 = a4 <u a5\n  6270: a5 = u64 [a2 + 0xa0]\n  6274: a0 = a0 + a5\n  6277: u64 [a2 + 0x78] = a0\n  6280: jump @251 if a3 != 0\n      : @250 (gas: 1)\n  6283: jump @804\n      : @251 (gas: 4)\n  6286: u64 [s1 + 0x140] = a4\n  6290: u64 [s1 + 0x148] = t0\n  6294: a0 = s1 + 0x2060\n  6298: ra = 232, jump @6\n      : @252 [@dyn 116] (gas: 1)\n  6304: t0 = 234, jump @1457\n      : @253 [@dyn 117] (gas: 1)\n  6311: jump @255 if a1 != 0\n      : @254 (gas: 1)\n  6314: jump @912\n      : @255 (gas: 17)\n  6317: a3 = s1 + 0x1958\n  6321: a4 = a3 + 0x700\n  6325: a0 = u64 [a4 + 0x18]\n  6328: a1 = u64 [a4 + 0x10]\n  6331: a2 = u64 [a4 + 0x8]\n  6334: a4 = u64 [s1 + 0x138]\n  6338: a0 = a0 & a4\n  6341: a1 = a1 & 0xffffffffffffffff\n  6344: a2 = a2 & 0xffffffffffffffff\n  6347: u64 [a3 + 1792] = 0\n  6351: a4 = a3 + 0x600\n  6355: u64 [a4 + 0xe8] = a2\n  6359: u64 [a4 + 0xf0] = a1\n  6363: a1 = s1 + 0x2040\n  6367: u64 [a4 + 0xf8] = a0\n  6371: a0 = u64 [s1 + 0x180]\n  6375: ra = 236, jump @4\n      : @256 [@dyn 118] (gas: 47)\n  6381: a4 = u64 [s1 + 0x158]\n  6385: a4 = a4 + 0x1\n  6388: u64 [s1 + 0x158] = a4\n  6392: a0 = a4 <u 0x1\n  6395: a3 = u64 [s1 + 0x170]\n  6399: a3 = a3 + a0\n  6402: a0 = a4 | a3\n  6405: a0 = a0 <u 0x1\n  6408: a1 = u64 [s1 + 0x150]\n  6412: t1 = a1 + a0\n  6415: a1 = t1 <u a1\n  6418: a0 = u64 [s1 + 0x168]\n  6422: a0 = a0 + a1\n  6425: a2 = u64 [s1 + 0x198]\n  6429: a2 = a2 + 0x1\n  6432: a1 = a2 <u 0x1\n  6435: a5 = u64 [s1 + 0x190]\n  6439: a5 = a5 + a1\n  6442: u64 [s1 + 0x198] = a2\n  6446: u64 [s1 + 0x190] = a5\n  6450: a1 = a2 | a5\n  6453: a1 = a1 <u 0x1\n  6456: a2 = u64 [s1 + 0x160]\n  6460: t0 = a2 + a1\n  6463: a2 = t0 <u a2\n  6466: a5 = u64 [s1 + 0x188]\n  6470: a5 = a5 + a2\n  6473: u64 [s1 + 0x188] = a5\n  6477: a2 = a3\n  6479: a5 = s1 + 0x100\n  6483: a1 = u64 [a5 + 0x10]\n  6486: u64 [a1 + 0x8] = a3\n  6489: u64 [a1] = a4\n  6491: u64 [a1 + 0x10] = t1\n  6494: a3 = a0\n  6496: u64 [a1 + 0x18] = a0\n  6499: u64 [s1 + 0x150] = t1\n  6503: a0 = u64 [a5 + 0x80]\n  6507: u64 [a5 + 0xb8] = a0\n  6511: a0 = u64 [a5 + 0x48]\n  6514: u64 [a5 + 0xb0] = a0\n  6518: a0 = u64 [a5 + 0x40]\n  6521: u64 [a5 + 0xa8] = a0\n  6525: a0 = u64 [a5 + 0x78]\n  6528: u64 [a5 + 0xa0] = a0\n  6532: a5 = t0\n  6534: jump @249\n      : @257 (gas: 8)\n  6537: u64 [a3 + 1056] = 0\n  6541: u64 [a3 + 1048] = 0\n  6545: u64 [a3 + 1040] = 0\n  6549: u64 [a3 + 1032] = 0\n  6553: a0 = s1 + 0x3000\n  6557: i32 a0 = a0 + 0x560\n  6561: ecalli 14 // 'value_transferred'\n  6563: fallthrough\n      : @258 (gas: 10)\n  6564: a3 = s1 + 0x3158\n  6568: a4 = a3 + 0x400\n  6572: a0 = u64 [a4 + 0x18]\n  6575: a1 = u64 [a4 + 0x20]\n  6578: a2 = u64 [a4 + 0x10]\n  6581: a3 = u64 [a4 + 0x8]\n  6584: a1 = a1 | a2\n  6587: a0 = a0 | a3\n  6590: a0 = a0 | a1\n  6593: jump @260 if a0 == 0\n      : @259 (gas: 1)\n  6596: jump @1052\n      : @260 (gas: 3)\n  6599: a0 = u64 [s1 + 0x1b8]\n  6603: a0 = i32 [a0]\n  6605: jump @262 if a0 >u 3\n      : @261 (gas: 1)\n  6609: jump @1053\n      : @262 (gas: 4)\n  6612: a0 = s1 + 0x7ff\n  6616: a0 = a0 + 0x1c1\n  6620: a1 = 0x40\n  6623: ra = 238, jump @2\n      : @263 [@dyn 119] (gas: 7)\n  6629: a3 = s1 + 0x7ff\n  6633: a3 = a3 + 0x139\n  6637: a4 = u64 [a3 + 0xa0]\n  6641: a1 = u64 [a3 + 0x98]\n  6645: a2 = u64 [a3 + 0x90]\n  6649: a0 = u64 [a3 + 0x88]\n  6653: t0 = 240, jump @1438\n      : @264 [@dyn 120] (gas: 1)\n  6660: jump @266 if a1 == 0\n      : @265 (gas: 1)\n  6663: jump @912\n      : @266 (gas: 9)\n  6666: u64 [a3 + 128] = 0\n  6670: u64 [a3 + 120] = 0\n  6673: u64 [a3 + 104] = 0x2a300\n  6679: a1 = s1 + 0x7ff\n  6683: a1 = a1 + 0x1a1\n  6687: u64 [a3 + 112] = 0\n  6690: u64 [s1 + 0x1b8] = a0\n  6694: ra = 0x218\n  6698: jump @4\n      : @267 (gas: 9)\n  6701: a0 = s1 + 0x3958\n  6705: u64 [a0 + 96] = 0\n  6708: u64 [a0 + 88] = 0\n  6711: u64 [a0 + 80] = 0\n  6714: u64 [a0 + 72] = 0\n  6717: a0 = s1 + 0x4000\n  6721: i32 a0 = a0 + 0xfffffffffffff9a0\n  6725: ecalli 14 // 'value_transferred'\n  6727: fallthrough\n      : @268 (gas: 9)\n  6728: a3 = s1 + 0x3958\n  6732: a0 = u64 [a3 + 0x58]\n  6735: a1 = u64 [a3 + 0x60]\n  6738: a2 = u64 [a3 + 0x50]\n  6741: a3 = u64 [a3 + 0x48]\n  6744: a1 = a1 | a2\n  6747: a0 = a0 | a3\n  6750: a0 = a0 | a1\n  6753: jump @270 if a0 == 0\n      : @269 (gas: 1)\n  6756: jump @1054\n      : @270 (gas: 3)\n  6759: a0 = u64 [s1 + 0x1b8]\n  6763: a0 = i32 [a0]\n  6765: jump @272 if a0 >u 3\n      : @271 (gas: 1)\n  6769: jump @1055\n      : @272 (gas: 8)\n  6772: a0 = s1 + 0x3958\n  6776: u64 [a0 + 128] = 0\n  6780: u64 [a0 + 120] = 0\n  6783: u64 [a0 + 112] = 0\n  6786: u64 [a0 + 104] = 0\n  6789: a0 = s1 + 0x13e0\n  6793: a1 = s1 + 0x39c0\n  6797: ra = 242, jump @6\n      : @273 [@dyn 121] (gas: 12)\n  6803: a0 = s1 + 0x1140\n  6807: a2 = a0 + 0x200\n  6811: a1 = u64 [a2 + 0xb0]\n  6815: a3 = s1 + 0x100\n  6819: u64 [a3 + 0xa8] = a1\n  6823: a1 = u64 [a2 + 0xa8]\n  6827: u64 [a3 + 0xb8] = a1\n  6831: a0 = u64 [a2 + 0xa0]\n  6835: u64 [a3 + 0xb0] = a0\n  6839: a0 = s1 + 0x13c0\n  6843: a1 = 0x40\n  6846: ra = 244, jump @2\n      : @274 [@dyn 122] (gas: 7)\n  6852: a3 = s1 + 0x1140\n  6856: a5 = a3 + 0x200\n  6860: a4 = u64 [a5 + 0x98]\n  6864: a1 = u64 [a5 + 0x90]\n  6868: a2 = u64 [a5 + 0x88]\n  6872: a0 = u64 [a5 + 0x80]\n  6876: t0 = 246, jump @1438\n      : @275 [@dyn 123] (gas: 1)\n  6883: jump @277 if a1 == 0\n      : @276 (gas: 1)\n  6886: jump @912\n      : @277 (gas: 15)\n  6889: a4 = s1 + 0x100\n  6893: a1 = u64 [a4 + 0xa8]\n  6897: a1 = a1 << 0x20\n  6900: a2 = a1 >> 0x20\n  6903: u64 [a3 + 632] = 0\n  6907: a1 = u64 [a4 + 0xb0]\n  6911: a5 = a3 + 0x200\n  6915: u64 [a5 + 0x60] = a1\n  6918: a1 = u64 [a4 + 0xb8]\n  6922: u64 [a5 + 0x68] = a1\n  6925: a1 = s1 + 0x13a0\n  6929: u64 [a5 + 0x70] = a2\n  6932: u64 [s1 + 0x1b8] = a0\n  6936: ra = 0x218\n  6940: jump @4\n      : @278 (gas: 9)\n  6943: u64 [a4 + 96] = 0\n  6946: u64 [a4 + 88] = 0\n  6949: u64 [a4 + 80] = 0\n  6952: u64 [a4 + 72] = 0\n  6955: a0 = s1 + 0x4000\n  6959: i32 a0 = a0 + 0x1a0\n  6963: ra = 0xf8\n  6967: ecalli 14 // 'value_transferred'\n  6969: fallthrough\n      : @279 [@dyn 124] (gas: 9)\n  6970: a3 = s1 + 0x4158\n  6974: a0 = u64 [a3 + 0x58]\n  6977: a1 = u64 [a3 + 0x60]\n  6980: a2 = u64 [a3 + 0x50]\n  6983: a3 = u64 [a3 + 0x48]\n  6986: a1 = a1 | a2\n  6989: a0 = a0 | a3\n  6992: a0 = a0 | a1\n  6995: jump @281 if a0 == 0\n      : @280 (gas: 1)\n  6998: jump @1056\n      : @281 (gas: 1)\n  7001: t0 = 250, jump @1471\n      : @282 [@dyn 125] (gas: 1)\n  7008: jump @284 if a1 <u a0\n      : @283 (gas: 1)\n  7011: jump @1057\n      : @284 (gas: 18)\n  7014: a0 = s1 + 0x4000\n  7018: i32 a0 = a0 + 0x1c0\n  7022: a1 = 0x4\n  7025: ecalli 2 // 'call_data_load'\n  7027: a3 = s1 + 0x4158\n  7031: a0 = u64 [a3 + 0x68]\n  7034: a1 = u64 [a3 + 0x70]\n  7037: a2 = u64 [a3 + 0x78]\n  7040: a3 = u64 [a3 + 0x80]\n  7044: a4 = s1 + 0x3158\n  7048: u64 [a4] = a3\n  7050: a3 = a4 + 0xffffffffffffff00\n  7054: u64 [a3 + 0xf8] = a2\n  7058: u64 [a3 + 0xf0] = a1\n  7062: a1 = s1 + 0x3140\n  7066: u64 [a3 + 0xe8] = a0\n  7070: a0 = 0\n  7072: ra = 252, jump @4\n      : @285 [@dyn 126] (gas: 8)\n  7078: a2 = s1 + 0x2958\n  7082: u64 [a2 + 2016] = 0\n  7086: u64 [a2 + 2008] = 0\n  7090: u64 [a2 + 1992] = 0x4\n  7095: a0 = 0x20\n  7098: a1 = s1 + 0x3120\n  7102: u64 [a2 + 2000] = 0\n  7106: ra = 254, jump @4\n      : @286 [@dyn 127] (gas: 2)\n  7112: a1 = i32 [0x20154]\n  7117: jump @288 if a1 >u 63\n      : @287 (gas: 4)\n  7121: a1 = 0x40\n  7124: u32 [0x20154] = a1\n  7129: t0 = 0x100\n  7133: jump @1459\n      : @288 (gas: 1)\n  7137: t0 = 256, jump @1459\n      : @289 [@dyn 128] (gas: 22)\n  7144: a0 = 0x20160\n  7149: i32 a0 = a0 + 0\n  7151: i32 a2 = a2 + 0\n  7153: a1 = 0x40\n  7156: ecalli 7 // 'hash_keccak_256'\n  7158: a3 = u64 [s1 + 0x1b8]\n  7162: a0 = u64 [a3 + 0x18]\n  7165: a1 = u64 [a3 + 0x10]\n  7168: a2 = u64 [a3 + 0x8]\n  7171: a3 = u64 [a3]\n  7173: a0 = reverse a0\n  7175: a1 = reverse a1\n  7177: a2 = reverse a2\n  7179: a3 = reverse a3\n  7181: a4 = s1 + 0x4158\n  7185: u64 [a4 + 0xa0] = a3\n  7189: u64 [a4 + 0x98] = a2\n  7193: u64 [a4 + 0x90] = a1\n  7197: u64 [a4 + 0x88] = a0\n  7201: a0 = s1 + 0x3100\n  7205: a1 = s1 + 0x41e0\n  7209: ra = 258, jump @6\n      : @290 [@dyn 129] (gas: 3)\n  7215: t0 = 0x104\n  7219: a1 = s1 + 0x2958\n  7223: fallthrough\n      : @291 [@dyn 130] (gas: 13)\n  7224: a2 = a1 + 0x700\n  7228: a0 = u64 [a2 + 0xc0]\n  7232: a1 = s1 + 0x100\n  7236: u64 [a1 + 0xb8] = a0\n  7240: a0 = u64 [a2 + 0xb8]\n  7244: u64 [a1 + 0xb0] = a0\n  7248: a0 = u64 [a2 + 0xb0]\n  7252: u64 [a1 + 0xa8] = a0\n  7256: a0 = u64 [a2 + 0xa8]\n  7260: u64 [a1 + 0xa0] = a0\n  7264: a0 = s1 + 0x30e0\n  7268: a1 = 0x40\n  7271: ra = 262, jump @2\n      : @292 [@dyn 131] (gas: 7)\n  7277: a3 = s1 + 0x2958\n  7281: a5 = a3 + 0x700\n  7285: a0 = u64 [a5 + 0xa0]\n  7289: a1 = u64 [a5 + 0x98]\n  7293: a2 = u64 [a5 + 0x90]\n  7297: a4 = u64 [a5 + 0x88]\n  7301: t0 = 264, jump @1449\n      : @293 [@dyn 132] (gas: 1)\n  7308: jump @295 if a0 == 0\n      : @294 (gas: 1)\n  7311: jump @912\n      : @295 (gas: 15)\n  7314: a2 = s1 + 0x100\n  7318: a0 = u64 [a2 + 0xa0]\n  7322: a5 = a3 + 0x700\n  7326: u64 [a5 + 0x68] = a0\n  7329: a0 = u64 [a2 + 0xa8]\n  7333: u64 [a5 + 0x70] = a0\n  7336: a0 = u64 [a2 + 0xb0]\n  7340: u64 [a5 + 0x78] = a0\n  7343: a1 = s1 + 0x30c0\n  7347: a0 = u64 [a2 + 0xb8]\n  7351: u64 [a5 + 0x80] = a0\n  7355: a0 = a4\n  7357: u64 [s1 + 0x1b8] = a4\n  7361: ra = 0x218\n  7365: jump @4\n      : @296 (gas: 8)\n  7368: u64 [a3 + 1088] = 0\n  7372: u64 [a3 + 1080] = 0\n  7376: u64 [a3 + 1072] = 0\n  7380: u64 [a3 + 1064] = 0\n  7384: a0 = s1 + 0x3000\n  7388: i32 a0 = a0 + 0x580\n  7392: ecalli 14 // 'value_transferred'\n  7394: fallthrough\n      : @297 (gas: 10)\n  7395: a4 = s1 + 0x3158\n  7399: a5 = a4 + 0x400\n  7403: a0 = u64 [a5 + 0x38]\n  7406: a1 = u64 [a5 + 0x40]\n  7409: a2 = u64 [a5 + 0x30]\n  7412: a3 = u64 [a5 + 0x28]\n  7415: a1 = a1 | a2\n  7418: a0 = a0 | a3\n  7421: a0 = a0 | a1\n  7424: jump @299 if a0 == 0\n      : @298 (gas: 1)\n  7427: jump @1058\n      : @299 (gas: 3)\n  7430: a0 = u64 [s1 + 0x1b8]\n  7434: a0 = i32 [a0]\n  7436: jump @301 if a0 >u 3\n      : @300 (gas: 1)\n  7440: jump @1059\n      : @301 (gas: 7)\n  7443: u64 [a4 + 1120] = 0\n  7447: u64 [a4 + 1112] = 0\n  7451: u64 [a4 + 1104] = 0\n  7455: u64 [a4 + 1096] = 0\n  7459: a0 = s1 + 0x1120\n  7463: a1 = s1 + 0x35a0\n  7467: ra = 266, jump @6\n      : @302 [@dyn 133] (gas: 14)\n  7473: a0 = s1 + 0x7ff\n  7477: a0 = a0 + 0x139\n  7481: a1 = u64 [a0 + 0x7f0]\n  7485: u64 [s1 + 0x1b8] = a1\n  7489: a1 = u64 [a0 + 0x7e8]\n  7493: u64 [s1 + 0x1b0] = a1\n  7497: a0 = u32 [a0 + 0x7f8]\n  7501: u64 [s1 + 0x1a8] = a0\n  7505: a0 = 0x30160\n  7510: u64 [s1 + 0x1a0] = a0\n  7514: i32 a0 = a0 + 0\n  7516: ra = 0x10c\n  7520: ecalli 4 // 'caller'\n  7522: fallthrough\n      : @303 [@dyn 134] (gas: 3)\n  7523: a5 = s1 + 0x100\n  7527: a2 = u64 [a5 + 0xa0]\n  7531: t0 = 270, jump @1423\n      : @304 [@dyn 135] (gas: 17)\n  7538: a2 = u64 [a5 + 0xa8]\n  7542: a1 = a1 ^ a2\n  7545: a2 = u64 [a5 + 0xb0]\n  7549: a0 = a0 ^ a2\n  7552: a0 = a0 | a1\n  7555: a1 = u64 [a5 + 0xb8]\n  7559: a1 = a1 ^ a3\n  7562: a0 = a0 | a1\n  7565: a0 = a0 <u 0x1\n  7568: a1 = s1 + 0x7ff\n  7572: a1 = a1 + 0x139\n  7576: u64 [a1 + 2016] = 0\n  7580: u64 [a1 + 2008] = 0\n  7584: u64 [a1 + 0x7c8] = a0\n  7588: a0 = s1 + 0x1100\n  7592: u64 [a1 + 2000] = 0\n  7596: ra = 272, jump @1245\n      : @305 [@dyn 136] (gas: 9)\n  7602: a0 = s1 + 0x3158\n  7606: u64 [a0 + 1152] = 0\n  7610: u64 [a0 + 1144] = 0\n  7614: u64 [a0 + 1136] = 0\n  7618: a1 = a0\n  7620: u64 [a1 + 1128] = 0x1\n  7625: a0 = s1 + 0x10e0\n  7629: a1 = s1 + 0x35c0\n  7633: ra = 274, jump @6\n      : @306 [@dyn 137] (gas: 11)\n  7639: a2 = s1 + 0x7ff\n  7643: a2 = a2 + 0x139\n  7647: t0 = u64 [a2 + 0x7c0]\n  7651: a0 = a2 + 0x700\n  7655: a5 = u64 [a0 + 0xb8]\n  7659: a4 = u64 [a0 + 0xb0]\n  7663: a3 = u64 [a0 + 0xa8]\n  7667: a0 = a4 | t0\n  7670: a1 = a3 | a5\n  7673: a0 = a0 | a1\n  7676: jump @316 if a0 == 0\n      : @307 (gas: 13)\n  7680: a0 = s1 + 0x100\n  7684: u64 [a0 + 0xb8] = a3\n  7688: a1 = a2 + 0x700\n  7692: u64 [a1 + 0x88] = a3\n  7696: u64 [a0 + 0xb0] = a4\n  7700: u64 [a1 + 0x90] = a4\n  7704: u64 [a0 + 0xa8] = a5\n  7708: u64 [a1 + 0x98] = a5\n  7712: a1 = s1 + 0x10c0\n  7716: u64 [s1 + 0x1a0] = t0\n  7720: u64 [a2 + 0x7a0] = t0\n  7724: a0 = 0\n  7726: ra = 276, jump @4\n      : @308 [@dyn 138] (gas: 10)\n  7732: a1 = s1 + 0x7ff\n  7736: a1 = a1 + 0x139\n  7740: u64 [a1 + 1920] = 0\n  7744: u64 [a1 + 1912] = 0\n  7748: u64 [a1 + 1896] = 0x2\n  7753: a2 = a1\n  7755: a0 = 0x20\n  7758: a1 = s1 + 0x10a0\n  7762: u64 [a2 + 1904] = 0\n  7766: ra = 278, jump @4\n      : @309 [@dyn 139] (gas: 3)\n  7772: a2 = 0x20154\n  7777: a0 = i32 [0x20154]\n  7782: jump @311 if a0 >u 63\n      : @310 (gas: 2)\n  7786: u32 [0x20154] = 0x40\n  7792: fallthrough\n      : @311 (gas: 37)\n  7793: u64 [s1 + 0x190] = a2\n  7797: a0 = sp + 0xffffffffffffffe0\n  7800: a2 = a0 & 0xffffffffffffffe0\n  7803: u64 [s1 + 0x198] = a2\n  7807: sp = a2\n  7809: a0 = 0x20160\n  7814: i32 a0 = a0 + 0\n  7816: i32 a2 = a2 + 0\n  7818: a1 = 0x40\n  7821: u64 [s1 + 0x188] = a0\n  7825: ecalli 7 // 'hash_keccak_256'\n  7827: a3 = u64 [s1 + 0x198]\n  7831: a0 = u64 [a3]\n  7833: a1 = u64 [a3 + 0x8]\n  7836: a2 = u64 [a3 + 0x10]\n  7839: a3 = u64 [a3 + 0x18]\n  7842: a0 = reverse a0\n  7844: a1 = reverse a1\n  7846: a2 = reverse a2\n  7848: a3 = reverse a3\n  7850: a4 = a3 + 0x6\n  7853: a3 = a4 <u a3\n  7856: a5 = a2 + a3\n  7859: a2 = a5 <u a2\n  7862: a2 = a3 if a3 == 0\n  7865: a2 = a2 + a1\n  7868: a1 = a2 <u a1\n  7871: a0 = a0 + a1\n  7874: a1 = s1 + 0x3158\n  7878: a3 = a1 + 0x400\n  7882: u64 [a3 + 0x88] = a4\n  7886: u64 [a3 + 0x90] = a5\n  7890: u64 [a3 + 0x98] = a2\n  7894: u64 [a3 + 0xa0] = a0\n  7898: a0 = s1 + 0x1080\n  7902: a1 = s1 + 0x35e0\n  7906: ra = 280, jump @6\n      : @312 [@dyn 140] (gas: 4)\n  7912: a2 = s1 + 0x7ff\n  7916: a2 = a2 + 0x139\n  7920: a0 = u8 [a2 + 0x75c]\n  7924: jump @314 if a0 <=u 3\n      : @313 (gas: 1)\n  7928: jump @1099\n      : @314 (gas: 5)\n  7931: a3 = u64 [s1 + 0x1b8]\n  7935: a4 = u64 [s1 + 0x1b0]\n  7939: a5 = u64 [s1 + 0x1a8]\n  7943: t0 = u64 [s1 + 0x1a0]\n  7947: jump @316 if a0 == 3\n      : @315 (gas: 1)\n  7951: jump @871\n      : @316 (gas: 13)\n  7954: a0 = sp + 0xffffffffffffffe0\n  7957: a0 = a0 & 0xffffffffffffffe0\n  7960: u64 [s1 + 0x1b8] = a0\n  7964: sp = a0\n  7966: u64 [a2 + 0x640] = t0\n  7970: u64 [a2 + 0x638] = a5\n  7974: u64 [a2 + 0x630] = a4\n  7978: a0 = s1 + 0x7ff\n  7982: a0 = a0 + 0x781\n  7986: a1 = s1 + 0x7ff\n  7990: a1 = a1 + 0x761\n  7994: u64 [a2 + 0x628] = a3\n  7998: ra = 282, jump @1267\n      : @317 [@dyn 141] (gas: 24)\n  8004: a3 = s1 + 0x7ff\n  8008: a3 = a3 + 0x139\n  8012: a4 = a3 + 0x600\n  8016: a1 = u64 [a4 + 0x58]\n  8019: a2 = u64 [a4 + 0x60]\n  8022: a0 = u64 [a4 + 0x48]\n  8025: a3 = u64 [a4 + 0x50]\n  8028: u64 [s1 + 0x170] = a1\n  8032: a4 = u64 [s1 + 0x1b8]\n  8036: u64 [a4 + 0x10] = a1\n  8039: u64 [s1 + 0x168] = a2\n  8043: u64 [a4 + 0x18] = a2\n  8046: u64 [s1 + 0x178] = a0\n  8050: u64 [a4] = a0\n  8052: u64 [s1 + 0x160] = a3\n  8056: u64 [a4 + 0x8] = a3\n  8059: a1 = a4\n  8061: a2 = s1 + 0x3158\n  8065: u64 [a2 + 1216] = 0\n  8069: u64 [a2 + 1208] = 0\n  8073: u64 [a2 + 1200] = 0\n  8077: u64 [a2 + 1192] = 0x1\n  8082: a0 = s1 + 0x3600\n  8086: ra = 284, jump @9\n      : @318 [@dyn 142] (gas: 25)\n  8092: a0 = s1 + 0x3000\n  8096: i32 a0 = a0 + 0x620\n  8100: ecalli 8 // 'now'\n  8102: a3 = s1 + 0x3158\n  8106: a4 = a3 + 0x400\n  8110: a0 = u64 [a4 + 0xe0]\n  8114: a1 = u64 [a4 + 0xd8]\n  8118: a2 = u64 [a4 + 0xc8]\n  8122: a3 = u64 [a4 + 0xd0]\n  8126: a4 = a2 + 0x2a300\n  8131: u64 [s1 + 0x1b8] = a4\n  8135: a2 = a4 <u a2\n  8138: a4 = a3 + a2\n  8141: u64 [s1 + 0x1b0] = a4\n  8145: a3 = a4 <u a3\n  8148: a3 = a2 if a2 == 0\n  8151: a3 = a3 + a1\n  8154: u64 [s1 + 0x1a8] = a3\n  8158: a1 = a3 <u a1\n  8161: a0 = a0 + a1\n  8164: u64 [s1 + 0x1a0] = a0\n  8168: a0 = s1 + 0x3000\n  8172: i32 a0 = a0 + 0x640\n  8176: ecalli 8 // 'now'\n  8178: fallthrough\n      : @319 (gas: 22)\n  8179: a3 = s1 + 0x3158\n  8183: a0 = u64 [a3 + 0x4f0]\n  8187: a1 = u64 [a3 + 0x4e8]\n  8191: a2 = u64 [a3 + 0x500]\n  8195: t0 = u64 [a3 + 0x4f8]\n  8199: a3 = s1 + 0x100\n  8203: a5 = u64 [a3 + 0xb0]\n  8207: a4 = a0 ^ a5\n  8210: a0 = a5 <u a0\n  8213: a5 = u64 [a3 + 0xb8]\n  8217: a1 = a5 <u a1\n  8220: a1 = a0 if a4 != 0\n  8223: a5 = u64 [a3 + 0xa8]\n  8227: a0 = a5 <u t0\n  8230: a4 = u64 [a3 + 0xa0]\n  8234: a3 = a2 ^ a4\n  8237: a2 = a4 <u a2\n  8240: a2 = a0 if a3 == 0\n  8243: a0 = t0 ^ a5\n  8246: a0 = a0 | a3\n  8249: a1 = a2 if a0 != 0\n  8252: jump @321 if a1 == 0\n      : @320 (gas: 1)\n  8255: jump @1082\n      : @321 (gas: 4)\n  8258: a0 = s1 + 0x3000\n  8262: i32 a0 = a0 + 0x660\n  8266: ecalli 8 // 'now'\n  8268: fallthrough\n      : @322 (gas: 34)\n  8269: a0 = s1 + 0x3158\n  8273: t0 = u64 [a0 + 0x520]\n  8277: a2 = a0 + 0x500\n  8281: a1 = u64 [a2 + 0x18]\n  8284: a5 = u64 [a2 + 0x8]\n  8287: a3 = u64 [a2 + 0x10]\n  8290: a2 = a5 + 0x93a80\n  8295: a0 = a2 <u a5\n  8298: a5 = a3 + a0\n  8301: a3 = a5 <u a3\n  8304: a3 = a0 if a0 == 0\n  8307: a0 = a1 + a3\n  8310: a1 = a0 <u a1\n  8313: a1 = a1 + t0\n  8316: a4 = u64 [s1 + 0x1a8]\n  8320: t0 = a0 <u a4\n  8323: u64 [s1 + 0x158] = a2\n  8327: a3 = u64 [s1 + 0x1b8]\n  8331: t1 = a2 <u a3\n  8334: a3 = u64 [s1 + 0x1b0]\n  8338: a2 = a3 ^ a5\n  8341: u64 [s1 + 0x150] = a5\n  8345: a3 = a5 <u a3\n  8348: a3 = t1 if a2 == 0\n  8351: a2 = u64 [s1 + 0x1a0]\n  8355: a5 = a2 ^ a1\n  8358: u64 [s1 + 0x140] = a1\n  8362: a2 = a1 <u a2\n  8365: a2 = t0 if a5 == 0\n  8368: u64 [s1 + 0x148] = a0\n  8372: a0 = a0 ^ a4\n  8375: a0 = a0 | a5\n  8378: a3 = a2 if a0 != 0\n  8381: jump @324 if a3 == 0\n      : @323 (gas: 1)\n  8384: jump @1088\n      : @324 (gas: 4)\n  8387: a0 = s1 + 0x7ff\n  8391: a0 = a0 + 0x741\n  8395: a1 = 0x40\n  8398: ra = 286, jump @2\n      : @325 [@dyn 143] (gas: 21)\n  8404: a1 = s1 + 0x7ff\n  8408: a1 = a1 + 0x139\n  8412: a5 = a1 + 0x600\n  8416: a0 = u64 [a5 + 0x20]\n  8419: u64 [s1 + 0x188] = a0\n  8423: a2 = u64 [a5 + 0x18]\n  8426: u64 [s1 + 0x180] = a2\n  8430: a3 = u64 [a5 + 0x10]\n  8433: u64 [s1 + 0x190] = a3\n  8437: a4 = u64 [a5 + 0x8]\n  8440: u64 [s1 + 0x198] = a4\n  8444: u64 [a5] = a0\n  8446: a5 = a1 + 0x500\n  8450: u64 [a5 + 0xf8] = a2\n  8454: u64 [a5 + 0xf0] = a3\n  8458: a0 = s1 + 0x7ff\n  8462: a0 = a0 + 0x721\n  8466: u64 [a5 + 0xe8] = a4\n  8470: ra = 0x120\n  8474: t0 = 0x4f8\n  8478: jump @1443\n      : @326 [@dyn 144] (gas: 13)\n  8482: a4 = s1 + 0x100\n  8486: a2 = u64 [a4 + 0x98]\n  8490: a0 = u64 [a4 + 0x88]\n  8494: a1 = u64 [a4 + 0x90]\n  8498: a0 = a0 | a1\n  8501: a3 = u64 [a4 + 0x80]\n  8505: a1 = a2 | a3\n  8508: a1 = a1 | a0\n  8511: a1 = a1 >> 0x20\n  8514: a0 = a0 | a3\n  8517: a0 = a0 << 0x20\n  8520: a0 = a0 | a1\n  8523: jump @328 if a0 == 0\n      : @327 (gas: 1)\n  8526: jump @912\n      : @328 (gas: 15)\n  8529: a0 = u64 [s1 + 0x178]\n  8533: a3 = s1 + 0x7ff\n  8537: a3 = a3 + 0x139\n  8541: a4 = a3 + 0x500\n  8545: u64 [a4 + 0xc8] = a0\n  8549: a0 = u64 [s1 + 0x160]\n  8553: u64 [a4 + 0xd0] = a0\n  8557: a0 = u64 [s1 + 0x170]\n  8561: u64 [a4 + 0xd8] = a0\n  8565: a1 = s1 + 0x7ff\n  8569: a1 = a1 + 0x701\n  8573: a0 = u64 [s1 + 0x168]\n  8577: u64 [a4 + 0xe0] = a0\n  8581: a0 = a2\n  8583: ra = 290, jump @4\n      : @329 [@dyn 145] (gas: 4)\n  8589: a0 = s1 + 0x3000\n  8593: i32 a0 = a0 + 0x680\n  8597: ecalli 8 // 'now'\n  8599: fallthrough\n      : @330 (gas: 12)\n  8600: a5 = s1 + 0x100\n  8604: a4 = u64 [a5 + 0x98]\n  8608: a0 = u64 [a5 + 0x88]\n  8612: a2 = u64 [a5 + 0x80]\n  8616: a2 = a2 | a0\n  8619: a3 = 0x100000000\n  8629: a0 = 0xffffffe0\n  8639: a0 = a4 <u a0\n  8642: a1 = u64 [a5 + 0x90]\n  8646: a0 = 0 if a1 != 0\n  8648: a0 = 0 if a2 != 0\n  8650: jump @332 if a0 != 0\n      : @331 (gas: 1)\n  8653: jump @912\n      : @332 (gas: 19)\n  8656: a0 = s1 + 0x3158\n  8660: u64 [s1 + 0x188] = a2\n  8664: u64 [s1 + 0x180] = a3\n  8668: a5 = u64 [a0 + 0x528]\n  8672: a1 = u64 [a0 + 0x530]\n  8676: a2 = u64 [a0 + 0x538]\n  8680: a3 = u64 [a0 + 0x540]\n  8684: i32 a0 = a4 + 0x20\n  8687: a4 = s1 + 0x7ff\n  8691: a4 = a4 + 0x139\n  8695: u64 [a4 + 0x5c0] = a3\n  8699: a3 = a4 + 0x500\n  8703: u64 [a3 + 0xb8] = a2\n  8707: u64 [a3 + 0xb0] = a1\n  8711: a1 = s1 + 0x7ff\n  8715: a1 = a1 + 0x6e1\n  8719: u64 [a3 + 0xa8] = a5\n  8723: u64 [s1 + 0x138] = a0\n  8727: ra = 292, jump @4\n      : @333 [@dyn 146] (gas: 5)\n  8733: a3 = s1 + 0x100\n  8737: a1 = u64 [a3 + 0x98]\n  8741: a0 = u64 [a3 + 0x80]\n  8745: a0 = a0 + 0xffffffffffffffc0\n  8748: t0 = 294, jump @1436\n      : @334 [@dyn 147] (gas: 1)\n  8755: jump @336 if a0 != 0\n      : @335 (gas: 1)\n  8758: jump @912\n      : @336 (gas: 17)\n  8761: i32 a2 = a1 + 0x40\n  8764: a0 = u64 [s1 + 0x1b8]\n  8768: a3 = s1 + 0x7ff\n  8772: a3 = a3 + 0x139\n  8776: a4 = a3 + 0x500\n  8780: u64 [a4 + 0x88] = a0\n  8784: a0 = u64 [s1 + 0x1b0]\n  8788: u64 [a4 + 0x90] = a0\n  8792: a0 = u64 [s1 + 0x1a8]\n  8796: u64 [a4 + 0x98] = a0\n  8800: a1 = s1 + 0x7ff\n  8804: a1 = a1 + 0x6c1\n  8808: a0 = u64 [s1 + 0x1a0]\n  8812: u64 [a4 + 0xa0] = a0\n  8816: u64 [s1 + 0x180] = a2\n  8820: a0 = a2\n  8822: ra = 296, jump @4\n      : @337 [@dyn 148] (gas: 10)\n  8828: a4 = s1 + 0x100\n  8832: a1 = u64 [a4 + 0x98]\n  8836: a3 = 0x100000000\n  8846: a0 = 0xffffffa0\n  8856: a0 = a1 <u a0\n  8859: a2 = u64 [a4 + 0x90]\n  8863: a0 = 0 if a2 != 0\n  8865: a2 = u64 [a4 + 0x88]\n  8869: a0 = 0 if a2 != 0\n  8871: jump @339 if a0 != 0\n      : @338 (gas: 1)\n  8874: jump @912\n      : @339 (gas: 19)\n  8877: i32 a2 = a1 + 0x60\n  8880: a0 = u64 [s1 + 0x158]\n  8884: a1 = s1 + 0x7ff\n  8888: a1 = a1 + 0x139\n  8892: u64 [s1 + 0x130] = a3\n  8896: a3 = a1\n  8898: a4 = a1 + 0x500\n  8902: u64 [a4 + 0x68] = a0\n  8905: a0 = u64 [s1 + 0x150]\n  8909: u64 [a4 + 0x70] = a0\n  8912: a0 = u64 [s1 + 0x148]\n  8916: u64 [a4 + 0x78] = a0\n  8919: a1 = s1 + 0x7ff\n  8923: a1 = a1 + 0x6a1\n  8927: a0 = u64 [s1 + 0x140]\n  8931: u64 [a3 + 0x580] = a0\n  8935: u64 [s1 + 0x128] = a2\n  8939: a0 = a2\n  8941: ra = 298, jump @4\n      : @340 [@dyn 149] (gas: 5)\n  8947: a3 = s1 + 0x100\n  8951: a1 = u64 [a3 + 0x98]\n  8955: a0 = u64 [a3 + 0x30]\n  8958: a0 = a0 + 0xffffffffffffff80\n  8961: t0 = 300, jump @1436\n      : @341 [@dyn 150] (gas: 1)\n  8968: jump @343 if a0 != 0\n      : @342 (gas: 1)\n  8971: jump @912\n      : @343 (gas: 11)\n  8974: i32 a0 = a1 + 0x80\n  8978: a2 = s1 + 0x7ff\n  8982: a2 = a2 + 0x139\n  8986: u64 [a2 + 1376] = 0\n  8990: u64 [a2 + 1368] = 0\n  8994: u64 [a2 + 1360] = 0\n  8998: a1 = s1 + 0x7ff\n  9002: a1 = a1 + 0x681\n  9006: u64 [a2 + 1352] = 0\n  9010: u64 [s1 + 0x130] = a0\n  9014: ra = 302, jump @4\n      : @344 [@dyn 151] (gas: 10)\n  9020: a4 = s1 + 0x100\n  9024: a1 = u64 [a4 + 0x98]\n  9028: a3 = 0x100000000\n  9038: a0 = 0xffffff60\n  9048: a0 = a1 <u a0\n  9051: a2 = u64 [a4 + 0x90]\n  9055: a0 = 0 if a2 != 0\n  9057: a2 = u64 [a4 + 0x88]\n  9061: a0 = 0 if a2 != 0\n  9063: jump @346 if a0 != 0\n      : @345 (gas: 1)\n  9066: jump @912\n      : @346 (gas: 12)\n  9069: i32 a0 = a1 + 0xa0\n  9073: a2 = s1 + 0x7ff\n  9077: a2 = a2 + 0x139\n  9081: u64 [a2 + 1344] = 0\n  9085: u64 [a2 + 1336] = 0\n  9089: u64 [a2 + 1328] = 0\n  9093: a1 = s1 + 0x7ff\n  9097: a1 = a1 + 0x661\n  9101: u64 [a2 + 1320] = 0\n  9105: u64 [s1 + 0x118] = a0\n  9109: u64 [s1 + 0x120] = a3\n  9113: ra = 304, jump @4\n      : @347 [@dyn 152] (gas: 5)\n  9119: a3 = s1 + 0x100\n  9123: a1 = u64 [a3 + 0x98]\n  9127: a0 = u64 [a3 + 0x20]\n  9130: a0 = a0 + 0xffffffffffffff40\n  9134: t0 = 306, jump @1436\n      : @348 [@dyn 153] (gas: 1)\n  9141: jump @350 if a0 != 0\n      : @349 (gas: 1)\n  9144: jump @912\n      : @350 (gas: 11)\n  9147: i32 a0 = a1 + 0xc0\n  9151: a2 = s1 + 0x7ff\n  9155: a2 = a2 + 0x139\n  9159: u64 [a2 + 1312] = 0\n  9163: u64 [a2 + 1304] = 0\n  9167: u64 [a2 + 1296] = 0\n  9171: a1 = s1 + 0x7ff\n  9175: a1 = a1 + 0x641\n  9179: u64 [a2 + 1288] = 0\n  9183: u64 [s1 + 0x120] = a0\n  9187: ra = 308, jump @4\n      : @351 [@dyn 154] (gas: 10)\n  9193: a5 = s1 + 0x100\n  9197: a0 = u64 [a5 + 0x98]\n  9201: a4 = 0x100000000\n  9211: a1 = 0xffffff20\n  9221: a1 = a0 <u a1\n  9224: a3 = u64 [a5 + 0x90]\n  9228: a1 = 0 if a3 != 0\n  9230: a3 = u64 [a5 + 0x88]\n  9234: a1 = 0 if a3 != 0\n  9236: jump @353 if a1 != 0\n      : @352 (gas: 1)\n  9239: jump @912\n      : @353 (gas: 12)\n  9242: i32 a0 = a0 + 0xe0\n  9246: a3 = s1 + 0x7ff\n  9250: a3 = a3 + 0x139\n  9254: u64 [a3 + 1280] = 0\n  9258: u64 [a3 + 1272] = 0\n  9262: u64 [a3 + 1264] = 0\n  9266: a1 = s1 + 0x7ff\n  9270: a1 = a1 + 0x621\n  9274: u64 [a3 + 1256] = 0x1\n  9279: u64 [s1 + 0x108] = a0\n  9283: u64 [s1 + 0x110] = a4\n  9287: ra = 310, jump @4\n      : @354 [@dyn 155] (gas: 5)\n  9293: a3 = s1 + 0x100\n  9297: a1 = u64 [a3 + 0x98]\n  9301: a0 = u64 [a3 + 0x10]\n  9304: a0 = a0 + 0xffffffffffffff00\n  9308: t0 = 312, jump @1436\n      : @355 [@dyn 156] (gas: 1)\n  9315: jump @357 if a0 != 0\n      : @356 (gas: 1)\n  9318: jump @912\n      : @357 (gas: 11)\n  9321: i32 a0 = a1 + 0x100\n  9325: a2 = s1 + 0x7ff\n  9329: a2 = a2 + 0x139\n  9333: u64 [a2 + 1248] = 0\n  9337: u64 [a2 + 1240] = 0\n  9341: u64 [a2 + 1232] = 0\n  9345: a1 = s1 + 0x7ff\n  9349: a1 = a1 + 0x601\n  9353: u64 [a2 + 1224] = 0\n  9357: u64 [s1 + 0x110] = a0\n  9361: ra = 314, jump @4\n      : @358 [@dyn 157] (gas: 4)\n  9367: a3 = s1 + 0x100\n  9371: a1 = u64 [a3 + 0x98]\n  9375: a0 = 0xfffffee0\n  9385: t0 = 316, jump @1436\n      : @359 [@dyn 158] (gas: 1)\n  9392: jump @361 if a0 != 0\n      : @360 (gas: 1)\n  9395: jump @912\n      : @361 (gas: 11)\n  9398: i32 a0 = a1 + 0x120\n  9402: a2 = s1 + 0x7ff\n  9406: a2 = a2 + 0x139\n  9410: u64 [a2 + 1216] = 0\n  9414: u64 [a2 + 1208] = 0\n  9418: u64 [a2 + 1200] = 0\n  9422: a1 = s1 + 0x7ff\n  9426: a1 = a1 + 0x5e1\n  9430: u64 [a2 + 1192] = 0\n  9434: u64 [s1 + 0x100] = a0\n  9438: ra = 318, jump @4\n      : @362 [@dyn 159] (gas: 15)\n  9444: a0 = u64 [s1 + 0x168]\n  9448: a2 = s1 + 0x7ff\n  9452: a2 = a2 + 0x139\n  9456: a3 = a2 + 0x400\n  9460: u64 [a3 + 0xa0] = a0\n  9464: a0 = u64 [s1 + 0x170]\n  9468: u64 [a3 + 0x98] = a0\n  9472: a0 = u64 [s1 + 0x160]\n  9476: u64 [a3 + 0x90] = a0\n  9480: a1 = s1 + 0x7ff\n  9484: a1 = a1 + 0x5c1\n  9488: a0 = u64 [s1 + 0x178]\n  9492: u64 [a3 + 0x88] = a0\n  9496: a0 = 0\n  9498: ra = 320, jump @4\n      : @363 [@dyn 160] (gas: 11)\n  9504: a1 = s1 + 0x7ff\n  9508: a1 = a1 + 0x139\n  9512: u64 [a1 + 1152] = 0\n  9516: u64 [a1 + 1144] = 0\n  9520: u64 [a1 + 1128] = 0x2\n  9525: a2 = a1\n  9527: a0 = 0x20\n  9530: a1 = s1 + 0x7ff\n  9534: a1 = a1 + 0x5a1\n  9538: u64 [a2 + 1136] = 0\n  9542: ra = 322, jump @4\n      : @364 [@dyn 161] (gas: 8)\n  9548: a0 = sp + 0xffffffffffffffe0\n  9551: a0 = a0 & 0xffffffffffffffe0\n  9554: u64 [s1 + 0x168] = a0\n  9558: sp = a0\n  9560: a0 = 0x20154\n  9565: u64 [s1 + 0xf8] = a0\n  9569: a0 = i32 [0x20154]\n  9574: jump @366 if a0 >u 63\n      : @365 (gas: 3)\n  9578: a1 = u64 [s1 + 0xf8]\n  9582: u32 [a1 + 0] = 0x40\n  9585: fallthrough\n      : @366 (gas: 32)\n  9586: a0 = sp + 0xffffffffffffffe0\n  9589: a2 = a0 & 0xffffffffffffffe0\n  9592: u64 [s1 + 0x190] = a2\n  9596: sp = a2\n  9598: a0 = 0x20160\n  9603: i32 a0 = a0 + 0\n  9605: i32 a2 = a2 + 0\n  9607: a1 = 0x40\n  9610: u64 [s1 + 0xf0] = a0\n  9614: ecalli 7 // 'hash_keccak_256'\n  9616: a3 = u64 [s1 + 0x190]\n  9620: a0 = u64 [a3 + 0x18]\n  9623: a1 = u64 [a3 + 0x10]\n  9626: a2 = u64 [a3 + 0x8]\n  9629: a3 = u64 [a3]\n  9631: a4 = reverse a0\n  9633: u64 [s1 + 0x170] = a4\n  9637: a1 = reverse a1\n  9639: u64 [s1 + 0x178] = a1\n  9643: a2 = reverse a2\n  9645: u64 [s1 + 0x190] = a2\n  9649: a0 = reverse a3\n  9651: u64 [s1 + 0x188] = a0\n  9655: a3 = u64 [s1 + 0x168]\n  9659: u64 [a3 + 0x18] = a0\n  9662: u64 [a3 + 0x10] = a2\n  9665: u64 [a3 + 0x8] = a1\n  9668: u64 [a3] = a4\n  9670: a0 = s1 + 0x7ff\n  9674: a0 = a0 + 0x581\n  9678: a1 = u64 [s1 + 0x198]\n  9682: ra = 324, jump @2\n      : @367 [@dyn 162] (gas: 16)\n  9688: a3 = s1 + 0x7ff\n  9692: a3 = a3 + 0x139\n  9696: a4 = a3 + 0x400\n  9700: a0 = u64 [a4 + 0x60]\n  9703: a1 = u64 [a4 + 0x58]\n  9706: a2 = u64 [a4 + 0x50]\n  9709: a3 = u64 [a4 + 0x48]\n  9712: a4 = s1 + 0x3158\n  9716: a5 = a4 + 0x500\n  9720: u64 [a5 + 0x60] = a0\n  9723: u64 [a5 + 0x58] = a1\n  9726: u64 [a5 + 0x50] = a2\n  9729: u64 [a5 + 0x48] = a3\n  9732: a1 = s1 + 0x36a0\n  9736: a0 = u64 [s1 + 0x168]\n  9740: ra = 326, jump @9\n      : @368 [@dyn 163] (gas: 4)\n  9746: a0 = s1 + 0x7ff\n  9750: a0 = a0 + 0x561\n  9754: a1 = u64 [s1 + 0x138]\n  9758: ra = 328, jump @2\n      : @369 [@dyn 164] (gas: 31)\n  9764: a0 = s1 + 0x7ff\n  9768: a0 = a0 + 0x139\n  9772: t0 = u64 [a0 + 0x428]\n  9776: t1 = u64 [a0 + 0x430]\n  9780: t2 = u64 [a0 + 0x438]\n  9784: a3 = u64 [a0 + 0x440]\n  9788: a0 = u64 [s1 + 0x170]\n  9792: a0 = a0 + 0x1\n  9795: a5 = a0 <u 0x1\n  9798: a1 = u64 [s1 + 0x178]\n  9802: a5 = a5 + a1\n  9805: a4 = a0 | a5\n  9808: a4 = a4 <u 0x1\n  9811: a1 = u64 [s1 + 0x190]\n  9815: a4 = a4 + a1\n  9818: a1 = a4 <u a1\n  9821: a2 = u64 [s1 + 0x188]\n  9825: a1 = a1 + a2\n  9828: a2 = s1 + 0x3158\n  9832: u64 [a2 + 0x580] = a1\n  9836: a1 = a2 + 0x500\n  9840: u64 [a1 + 0x78] = a4\n  9843: u64 [a1 + 0x70] = a5\n  9846: u64 [a1 + 0x68] = a0\n  9849: u64 [a1 + 0xa0] = a3\n  9853: u64 [a2 + 0x598] = t2\n  9857: u64 [a2 + 0x590] = t1\n  9861: u64 [a2 + 0x588] = t0\n  9865: a0 = s1 + 0x36c0\n  9869: a1 = s1 + 0x36e0\n  9873: ra = 330, jump @9\n      : @370 [@dyn 165] (gas: 4)\n  9879: a0 = s1 + 0x7ff\n  9883: a0 = a0 + 0x541\n  9887: a1 = u64 [s1 + 0x180]\n  9891: ra = 332, jump @2\n      : @371 [@dyn 166] (gas: 31)\n  9897: a0 = s1 + 0x7ff\n  9901: a0 = a0 + 0x139\n  9905: t0 = u64 [a0 + 0x408]\n  9909: t1 = u64 [a0 + 0x410]\n  9913: t2 = u64 [a0 + 0x418]\n  9917: a3 = u64 [a0 + 0x420]\n  9921: a0 = u64 [s1 + 0x170]\n  9925: a4 = a0 + 0x2\n  9928: a5 = a4 <u a0\n  9931: a1 = u64 [s1 + 0x178]\n  9935: a0 = a1 + a5\n  9938: a1 = a0 <u a1\n  9941: a1 = a5 if a5 == 0\n  9944: a2 = u64 [s1 + 0x190]\n  9948: a1 = a1 + a2\n  9951: a5 = a1 <u a2\n  9954: a2 = u64 [s1 + 0x188]\n  9958: a5 = a5 + a2\n  9961: a2 = s1 + 0x3158\n  9965: u64 [a2 + 0x5c0] = a5\n  9969: a5 = a2 + 0x500\n  9973: u64 [a5 + 0xb8] = a1\n  9977: u64 [a5 + 0xb0] = a0\n  9981: u64 [a5 + 0xa8] = a4\n  9985: u64 [a5 + 0xe0] = a3\n  9989: u64 [a2 + 0x5d8] = t2\n  9993: u64 [a2 + 0x5d0] = t1\n  9997: u64 [a2 + 0x5c8] = t0\n 10001: a0 = s1 + 0x3700\n 10005: a1 = s1 + 0x3720\n 10009: ra = 334, jump @9\n      : @372 [@dyn 167] (gas: 4)\n 10015: a0 = s1 + 0x7ff\n 10019: a0 = a0 + 0x521\n 10023: a1 = u64 [s1 + 0x128]\n 10027: ra = 336, jump @2\n      : @373 [@dyn 168] (gas: 31)\n 10033: a0 = s1 + 0x7ff\n 10037: a0 = a0 + 0x139\n 10041: t0 = u64 [a0 + 0x3e8]\n 10045: t1 = u64 [a0 + 0x3f0]\n 10049: t2 = u64 [a0 + 0x3f8]\n 10053: a3 = u64 [a0 + 0x400]\n 10057: a0 = u64 [s1 + 0x170]\n 10061: a4 = a0 + 0x3\n 10064: a5 = a4 <u a0\n 10067: a1 = u64 [s1 + 0x178]\n 10071: a0 = a1 + a5\n 10074: a1 = a0 <u a1\n 10077: a1 = a5 if a5 == 0\n 10080: a2 = u64 [s1 + 0x190]\n 10084: a1 = a1 + a2\n 10087: a5 = a1 <u a2\n 10090: a2 = u64 [s1 + 0x188]\n 10094: a5 = a5 + a2\n 10097: a2 = s1 + 0x3158\n 10101: u64 [a2 + 0x600] = a5\n 10105: a5 = a2 + 0x500\n 10109: u64 [a5 + 0xf8] = a1\n 10113: u64 [a5 + 0xf0] = a0\n 10117: u64 [a5 + 0xe8] = a4\n 10121: u64 [a2 + 0x620] = a3\n 10125: u64 [a2 + 0x618] = t2\n 10129: u64 [a2 + 0x610] = t1\n 10133: u64 [a2 + 0x608] = t0\n 10137: a0 = s1 + 0x3740\n 10141: a1 = s1 + 0x3760\n 10145: ra = 338, jump @9\n      : @374 [@dyn 169] (gas: 4)\n 10151: a0 = s1 + 0x7ff\n 10155: a0 = a0 + 0x501\n 10159: a1 = u64 [s1 + 0x130]\n 10163: ra = 340, jump @2\n      : @375 [@dyn 170] (gas: 31)\n 10169: a0 = s1 + 0x7ff\n 10173: a0 = a0 + 0x139\n 10177: t0 = u64 [a0 + 0x3c8]\n 10181: t1 = u64 [a0 + 0x3d0]\n 10185: t2 = u64 [a0 + 0x3d8]\n 10189: a3 = u64 [a0 + 0x3e0]\n 10193: a0 = u64 [s1 + 0x170]\n 10197: a4 = a0 + 0x4\n 10200: a5 = a4 <u a0\n 10203: a1 = u64 [s1 + 0x178]\n 10207: a0 = a1 + a5\n 10210: a1 = a0 <u a1\n 10213: a1 = a5 if a5 == 0\n 10216: a2 = u64 [s1 + 0x190]\n 10220: a1 = a1 + a2\n 10223: a5 = a1 <u a2\n 10226: a2 = u64 [s1 + 0x188]\n 10230: a5 = a5 + a2\n 10233: a2 = s1 + 0x3158\n 10237: u64 [a2 + 0x640] = a5\n 10241: a5 = a2 + 0x600\n 10245: u64 [a5 + 0x38] = a1\n 10248: u64 [a5 + 0x30] = a0\n 10251: u64 [a5 + 0x28] = a4\n 10254: u64 [a5 + 0x60] = a3\n 10257: u64 [a2 + 0x658] = t2\n 10261: u64 [a2 + 0x650] = t1\n 10265: u64 [a2 + 0x648] = t0\n 10269: a0 = s1 + 0x3780\n 10273: a1 = s1 + 0x37a0\n 10277: ra = 342, jump @9\n      : @376 [@dyn 171] (gas: 4)\n 10283: a0 = s1 + 0x7ff\n 10287: a0 = a0 + 0x4e1\n 10291: a1 = u64 [s1 + 0x118]\n 10295: ra = 344, jump @2\n      : @377 [@dyn 172] (gas: 31)\n 10301: a0 = s1 + 0x7ff\n 10305: a0 = a0 + 0x139\n 10309: t0 = u64 [a0 + 0x3a8]\n 10313: t1 = u64 [a0 + 0x3b0]\n 10317: t2 = u64 [a0 + 0x3b8]\n 10321: a3 = u64 [a0 + 0x3c0]\n 10325: a0 = u64 [s1 + 0x170]\n 10329: a4 = a0 + 0x5\n 10332: a5 = a4 <u a0\n 10335: a1 = u64 [s1 + 0x178]\n 10339: a0 = a1 + a5\n 10342: a1 = a0 <u a1\n 10345: a1 = a5 if a5 == 0\n 10348: a2 = u64 [s1 + 0x190]\n 10352: a1 = a1 + a2\n 10355: a5 = a1 <u a2\n 10358: a2 = u64 [s1 + 0x188]\n 10362: a5 = a5 + a2\n 10365: a2 = s1 + 0x3158\n 10369: u64 [a2 + 0x680] = a5\n 10373: a5 = a2 + 0x600\n 10377: u64 [a5 + 0x78] = a1\n 10380: u64 [a5 + 0x70] = a0\n 10383: u64 [a5 + 0x68] = a4\n 10386: u64 [a5 + 0xa0] = a3\n 10390: u64 [a2 + 0x698] = t2\n 10394: u64 [a2 + 0x690] = t1\n 10398: u64 [a2 + 0x688] = t0\n 10402: a0 = s1 + 0x37c0\n 10406: a1 = s1 + 0x37e0\n 10410: ra = 346, jump @9\n      : @378 [@dyn 173] (gas: 6)\n 10416: a0 = sp + 0xffffffffffffffe0\n 10419: a5 = a0 & 0xffffffffffffffe0\n 10422: sp = a5\n 10424: a1 = u64 [s1 + 0x170]\n 10428: a0 = a1 + 0x6\n 10431: t0 = 348, jump @1451\n      : @379 [@dyn 174] (gas: 11)\n 10438: a4 = u64 [s1 + 0x188]\n 10442: a1 = a1 + a4\n 10445: u64 [s1 + 0x198] = a5\n 10449: u64 [a5 + 0x18] = a1\n 10452: u64 [a5 + 0x10] = a3\n 10455: u64 [a5 + 0x8] = a2\n 10458: u64 [a5] = a0\n 10460: a0 = s1 + 0x7ff\n 10464: a0 = a0 + 0x4c1\n 10468: a1 = u64 [s1 + 0x120]\n 10472: ra = 350, jump @2\n      : @380 [@dyn 175] (gas: 12)\n 10478: a0 = s1 + 0x7ff\n 10482: a0 = a0 + 0x139\n 10486: a1 = u64 [a0 + 0x388]\n 10490: u64 [s1 + 0x180] = a1\n 10494: a1 = u64 [a0 + 0x390]\n 10498: u64 [s1 + 0x168] = a1\n 10502: a1 = u32 [a0 + 0x398]\n 10506: u64 [s1 + 0x160] = a1\n 10510: a0 = s1 + 0x7ff\n 10514: a0 = a0 + 0x4a1\n 10518: a1 = u64 [s1 + 0x198]\n 10522: ra = 352, jump @6\n      : @381 [@dyn 176] (gas: 18)\n 10528: a1 = s1 + 0x7ff\n 10532: a1 = a1 + 0x139\n 10536: a0 = u32 [a1 + 0x37c]\n 10540: a0 = a0 << 0x20\n 10543: a1 = u64 [a1 + 0x380]\n 10547: a2 = u64 [s1 + 0x160]\n 10551: a0 = a0 | a2\n 10554: a2 = s1 + 0x3158\n 10558: a3 = u64 [s1 + 0x168]\n 10562: a4 = a2 + 0x600\n 10566: u64 [a4 + 0xb0] = a3\n 10570: a3 = u64 [s1 + 0x180]\n 10574: u64 [a4 + 0xa8] = a3\n 10578: u64 [a4 + 0xc0] = a1\n 10582: u64 [a4 + 0xb8] = a0\n 10586: a1 = s1 + 0x3800\n 10590: a0 = u64 [s1 + 0x198]\n 10594: ra = 354, jump @9\n      : @382 [@dyn 177] (gas: 4)\n 10600: a0 = s1 + 0x7ff\n 10604: a0 = a0 + 0x481\n 10608: a1 = u64 [s1 + 0x108]\n 10612: ra = 356, jump @2\n      : @383 [@dyn 178] (gas: 19)\n 10618: a2 = s1 + 0x7ff\n 10622: a2 = a2 + 0x139\n 10626: a3 = a2 + 0x300\n 10630: a0 = u64 [a3 + 0x60]\n 10633: a1 = u64 [a3 + 0x58]\n 10636: a5 = u64 [a3 + 0x50]\n 10639: a4 = u64 [a3 + 0x48]\n 10642: a2 = a0 >u 0\n 10644: a3 = a1 >u 0\n 10646: a3 = a2 if a0 != 0\n 10649: a2 = a5 >u 0\n 10651: u64 [s1 + 0x180] = a4\n 10655: a4 = a4 <u 0x4\n 10658: a4 = a4 ^ 0x1\n 10661: u64 [s1 + 0x168] = a5\n 10665: a4 = a2 if a5 != 0\n 10668: a0 = a0 | a1\n 10671: a4 = a3 if a0 != 0\n 10674: jump @385 if a4 == 0\n      : @384 (gas: 1)\n 10677: jump @1110\n      : @385 (gas: 4)\n 10680: a0 = s1 + 0x7ff\n 10684: a0 = a0 + 0x461\n 10688: a1 = u64 [s1 + 0x198]\n 10692: ra = 358, jump @6\n      : @386 [@dyn 179] (gas: 26)\n 10698: a0 = s1 + 0x7ff\n 10702: a0 = a0 + 0x139\n 10706: t0 = u64 [a0 + 0x328]\n 10710: a4 = a0 + 0x300\n 10714: a1 = u64 [a4 + 0x30]\n 10717: a2 = u64 [a4 + 0x40]\n 10720: a3 = u64 [a4 + 0x38]\n 10723: a0 = u64 [s1 + 0x180]\n 10727: a4 = a0 >> 0x20\n 10730: a5 = u64 [s1 + 0x168]\n 10734: a5 = a5 << 0x20\n 10737: a4 = a4 | a5\n 10740: a5 = a0 << 0x20\n 10743: a0 = 0xffffff00ffffffff\n 10753: a0 = a0 & a3\n 10756: a0 = a0 | a5\n 10759: a2 = a2 | a4\n 10762: a3 = s1 + 0x3158\n 10766: a4 = a3 + 0x600\n 10770: u64 [a4 + 0xd0] = a1\n 10774: u64 [a3 + 0x6c8] = t0\n 10778: u64 [a4 + 0xe0] = a2\n 10782: u64 [a4 + 0xd8] = a0\n 10786: a1 = s1 + 0x3820\n 10790: a0 = u64 [s1 + 0x198]\n 10794: ra = 360, jump @9\n      : @387 [@dyn 180] (gas: 4)\n 10800: a0 = s1 + 0x7ff\n 10804: a0 = a0 + 0x441\n 10808: a1 = u64 [s1 + 0x110]\n 10812: ra = 362, jump @2\n      : @388 [@dyn 181] (gas: 31)\n 10818: a0 = s1 + 0x7ff\n 10822: a0 = a0 + 0x139\n 10826: t0 = u64 [a0 + 0x308]\n 10830: t1 = u64 [a0 + 0x310]\n 10834: t2 = u64 [a0 + 0x318]\n 10838: a3 = u64 [a0 + 0x320]\n 10842: a0 = u64 [s1 + 0x170]\n 10846: a4 = a0 + 0x7\n 10849: a5 = a4 <u a0\n 10852: a1 = u64 [s1 + 0x178]\n 10856: a0 = a1 + a5\n 10859: a1 = a0 <u a1\n 10862: a1 = a5 if a5 == 0\n 10865: a2 = u64 [s1 + 0x190]\n 10869: a1 = a1 + a2\n 10872: a5 = a1 <u a2\n 10875: a2 = u64 [s1 + 0x188]\n 10879: a5 = a5 + a2\n 10882: a2 = s1 + 0x3158\n 10886: u64 [a2 + 0x700] = a5\n 10890: a5 = a2 + 0x600\n 10894: u64 [a5 + 0xf8] = a1\n 10898: u64 [a5 + 0xf0] = a0\n 10902: u64 [a5 + 0xe8] = a4\n 10906: u64 [a2 + 0x720] = a3\n 10910: u64 [a2 + 0x718] = t2\n 10914: u64 [a2 + 0x710] = t1\n 10918: u64 [a2 + 0x708] = t0\n 10922: a0 = s1 + 0x3840\n 10926: a1 = s1 + 0x3860\n 10930: ra = 364, jump @9\n      : @389 [@dyn 182] (gas: 7)\n 10936: a0 = sp + 0xffffffffffffffe0\n 10939: a4 = a0 & 0xffffffffffffffe0\n 10942: u64 [s1 + 0x198] = a4\n 10946: sp = a4\n 10948: a1 = u64 [s1 + 0x170]\n 10952: a0 = a1 + 0x8\n 10955: t0 = 366, jump @1451\n      : @390 [@dyn 183] (gas: 10)\n 10962: a5 = u64 [s1 + 0x188]\n 10966: a1 = a1 + a5\n 10969: u64 [a4 + 0x18] = a1\n 10972: u64 [a4 + 0x10] = a3\n 10975: u64 [a4 + 0x8] = a2\n 10978: u64 [a4] = a0\n 10980: a0 = s1 + 0x7ff\n 10984: a0 = a0 + 0x421\n 10988: a1 = u64 [s1 + 0x100]\n 10992: ra = 368, jump @2\n      : @391 [@dyn 184] (gas: 16)\n 10998: a3 = s1 + 0x7ff\n 11002: a3 = a3 + 0x139\n 11006: a4 = a3 + 0x200\n 11010: a0 = u64 [a4 + 0xf8]\n 11014: a1 = u64 [a3 + 0x300]\n 11018: a2 = u64 [a4 + 0xf0]\n 11022: a3 = u64 [a4 + 0xe8]\n 11026: a1 = a1 | a2\n 11029: a0 = a0 | a3\n 11032: a0 = a0 | a1\n 11035: a0 = a0 >u 0\n 11037: u64 [s1 + 0x190] = a0\n 11041: a0 = s1 + 0x7ff\n 11045: a0 = a0 + 0x401\n 11049: a1 = u64 [s1 + 0x198]\n 11053: ra = 370, jump @6\n      : @392 [@dyn 185] (gas: 19)\n 11059: a3 = s1 + 0x7ff\n 11063: a3 = a3 + 0x139\n 11067: a4 = a3 + 0x200\n 11071: a0 = u64 [a4 + 0xc8]\n 11075: a1 = u64 [a4 + 0xd0]\n 11079: a2 = u64 [a4 + 0xe0]\n 11083: a3 = u64 [a4 + 0xd8]\n 11087: a0 = a0 & 0xffffffffffffff00\n 11091: a4 = u64 [s1 + 0x190]\n 11095: a0 = a0 | a4\n 11098: a4 = s1 + 0x3158\n 11102: a5 = a4 + 0x700\n 11106: u64 [a5 + 0x40] = a2\n 11109: u64 [a5 + 0x38] = a3\n 11112: u64 [a5 + 0x30] = a1\n 11115: u64 [a5 + 0x28] = a0\n 11118: a1 = s1 + 0x3880\n 11122: a0 = u64 [s1 + 0x198]\n 11126: ra = 372, jump @9\n      : @393 [@dyn 186] (gas: 9)\n 11132: a1 = s1 + 0x3158\n 11136: u64 [a1 + 1888] = 0\n 11140: u64 [a1 + 1880] = 0\n 11144: u64 [a1 + 1872] = 0\n 11148: u64 [a1 + 1864] = 0x1\n 11153: a0 = s1 + 0x7ff\n 11157: a0 = a0 + 0x3e1\n 11161: a1 = s1 + 0x38a0\n 11165: ra = 374, jump @6\n      : @394 [@dyn 187] (gas: 15)\n 11171: a1 = s1 + 0x7ff\n 11175: a1 = a1 + 0x139\n 11179: a2 = a1 + 0x200\n 11183: a0 = u64 [a2 + 0xc0]\n 11187: u64 [s1 + 0x178] = a0\n 11191: a0 = u64 [a2 + 0xb8]\n 11195: u64 [s1 + 0x170] = a0\n 11199: a0 = u64 [a2 + 0xb0]\n 11203: u64 [s1 + 0x168] = a0\n 11207: a0 = u64 [a2 + 0xa8]\n 11211: u64 [s1 + 0x160] = a0\n 11215: a0 = s1 + 0x7ff\n 11219: a0 = a0 + 0x3c1\n 11223: a1 = 0x40\n 11226: ra = 376, jump @2\n      : @395 [@dyn 188] (gas: 62)\n 11232: a0 = s1 + 0x7ff\n 11236: a0 = a0 + 0x139\n 11240: a2 = a0 + 0x200\n 11244: a1 = u64 [a2 + 0xa0]\n 11248: u64 [s1 + 0x190] = a1\n 11252: a1 = u64 [a2 + 0x98]\n 11256: u64 [s1 + 0x188] = a1\n 11260: a1 = u64 [a2 + 0x90]\n 11264: u64 [s1 + 0x180] = a1\n 11268: a1 = u64 [a2 + 0x88]\n 11272: u64 [s1 + 0x198] = a1\n 11276: a0 = s1 + 0x4000\n 11280: i32 a0 = a0 + 0xfffffffffffff8c0\n 11284: ecalli 8 // 'now'\n 11286: a3 = s1 + 0x3158\n 11290: a4 = a3 + 0x700\n 11294: a0 = u64 [a4 + 0x68]\n 11297: a1 = u64 [a4 + 0x70]\n 11300: a2 = u64 [a4 + 0x78]\n 11303: a3 = u64 [a4 + 0x80]\n 11307: a4 = u64 [s1 + 0x140]\n 11311: a5 = s1 + 0x7ff\n 11315: a5 = a5 + 0x139\n 11319: u64 [a5 + 0x200] = a4\n 11323: a4 = u64 [s1 + 0x148]\n 11327: u64 [a5 + 0x1f8] = a4\n 11331: a4 = u64 [s1 + 0x150]\n 11335: u64 [a5 + 0x1f0] = a4\n 11339: a4 = u64 [s1 + 0x158]\n 11343: u64 [a5 + 0x1e8] = a4\n 11347: a4 = u64 [s1 + 0x1a0]\n 11351: u64 [a5 + 0x220] = a4\n 11355: a4 = u64 [s1 + 0x1a8]\n 11359: u64 [a5 + 0x218] = a4\n 11363: a4 = u64 [s1 + 0x1b0]\n 11367: u64 [a5 + 0x210] = a4\n 11371: a4 = u64 [s1 + 0x1b8]\n 11375: u64 [a5 + 0x208] = a4\n 11379: a4 = a5 + 0x200\n 11383: u64 [a4 + 0x40] = a3\n 11386: u64 [a4 + 0x38] = a2\n 11389: u64 [a4 + 0x30] = a1\n 11392: u64 [a4 + 0x28] = a0\n 11395: a0 = u64 [s1 + 0x190]\n 11399: u64 [a4 + 0x60] = a0\n 11402: a0 = u64 [s1 + 0x188]\n 11406: u64 [a4 + 0x58] = a0\n 11409: a0 = u64 [s1 + 0x180]\n 11413: u64 [a4 + 0x50] = a0\n 11416: a0 = s1 + 0x7ff\n 11420: a0 = a0 + 0x3a1\n 11424: a1 = s1 + 0x7ff\n 11428: a1 = a1 + 0x381\n 11432: a2 = s1 + 0x7ff\n 11436: a2 = a2 + 0x361\n 11440: a3 = s1 + 0x7ff\n 11444: a3 = a3 + 0x341\n 11448: a4 = s1 + 0x7ff\n 11452: a4 = a4 + 0x321\n 11456: t0 = u64 [s1 + 0x198]\n 11460: u64 [a5 + 0x248] = t0\n 11464: ra = 378, jump @1192\n      : @396 [@dyn 189] (gas: 14)\n 11470: a4 = s1 + 0x100\n 11474: a1 = u64 [a4 + 0x80]\n 11478: a2 = a1\n 11480: a0 = u64 [a4 + 0x90]\n 11484: a0 = a0 | a1\n 11487: a3 = u64 [a4 + 0x88]\n 11491: a1 = u64 [a4 + 0x98]\n 11495: a1 = a1 | a3\n 11498: a1 = a1 | a0\n 11501: a1 = a1 >> 0x20\n 11504: a0 = a0 | a3\n 11507: a0 = a0 << 0x20\n 11510: a0 = a0 | a1\n 11513: jump @398 if a0 == 0\n      : @397 (gas: 1)\n 11516: jump @912\n      : @398 (gas: 36)\n 11519: t0 = a3\n 11521: a1 = s1 + 0x7ff\n 11525: a1 = a1 + 0x139\n 11529: a4 = a1 + 0x200\n 11533: a0 = u64 [a4 + 0x70]\n 11536: a3 = u64 [a4 + 0x80]\n 11540: u64 [s1 + 0x1b8] = a3\n 11544: t1 = u64 [a1 + 0x268]\n 11548: a3 = u64 [a4 + 0x78]\n 11551: ra = a0 ^ a2\n 11554: a5 = a0 <u a2\n 11557: t2 = u64 [s1 + 0x198]\n 11561: a1 = t1 <u t2\n 11564: a5 = a1 if ra == 0\n 11567: a4 = a3 - t0\n 11570: ra = a4 - a5\n 11573: a4 = a4 <u a5\n 11576: u64 [s1 + 0x1b0] = a4\n 11580: a3 = a3 <u t0\n 11583: a5 = u64 [s1 + 0x190]\n 11587: a4 = u64 [s1 + 0x1b8]\n 11591: a5 = a4 - a5\n 11594: a5 = a5 - a3\n 11597: a3 = u64 [s1 + 0x1b0]\n 11601: a5 = a5 - a3\n 11604: a0 = a0 - a2\n 11607: a0 = a0 - a1\n 11610: a1 = t1 - t2\n 11613: a0 = a0 | a5\n 11616: a3 = a1 | ra\n 11619: a3 = a3 | a0\n 11622: a0 = a0 | ra\n 11625: a3 = a3 >> 0x20\n 11628: a0 = a0 << 0x20\n 11631: a0 = a0 | a3\n 11634: jump @400 if a0 == 0\n      : @399 (gas: 1)\n 11637: jump @912\n      : @400 (gas: 26)\n 11640: a0 = u64 [0x200d8]\n 11645: a2 = u64 [0x200e0]\n 11650: a4 = s1 + 0x7ff\n 11654: a4 = a4 + 0x139\n 11658: a5 = a4 + 0x100\n 11662: u64 [a5 + 0xe0] = a0\n 11666: u64 [a5 + 0xd8] = a2\n 11670: a0 = u64 [0x200e8]\n 11675: a2 = u64 [0x200f0]\n 11680: a4 = s1 + 0x100\n 11684: a3 = u64 [a4 + 0x60]\n 11687: u64 [a5 + 0xa8] = a3\n 11691: a3 = u64 [a4 + 0x68]\n 11694: u64 [a5 + 0xb0] = a3\n 11698: u64 [a5 + 0xd0] = a0\n 11702: u64 [a5 + 0xc8] = a2\n 11706: a0 = u64 [a4 + 0x70]\n 11709: u64 [a5 + 0xb8] = a0\n 11713: a2 = s1 + 0x7ff\n 11717: a2 = a2 + 0x301\n 11721: a3 = s1 + 0x7ff\n 11725: a3 = a3 + 0x2e1\n 11729: a0 = u64 [a4 + 0x78]\n 11732: u64 [a5 + 0xc0] = a0\n 11736: a0 = u64 [a4 + 0x98]\n 11740: ra = 380, jump @10\n      : @401 [@dyn 190] (gas: 4)\n 11746: a0 = s1 + 0x7ff\n 11750: a0 = a0 + 0x2c1\n 11754: a1 = 0x40\n 11757: ra = 382, jump @2\n      : @402 [@dyn 191] (gas: 8)\n 11763: a3 = s1 + 0x7ff\n 11767: a3 = a3 + 0x139\n 11771: a5 = a3 + 0x100\n 11775: a0 = u64 [a5 + 0xa0]\n 11779: a1 = u64 [a5 + 0x98]\n 11783: a2 = u64 [a5 + 0x90]\n 11787: a4 = u64 [a5 + 0x88]\n 11791: t0 = 384, jump @1449\n      : @403 [@dyn 192] (gas: 1)\n 11797: jump @405 if a0 == 0\n      : @404 (gas: 1)\n 11800: jump @912\n      : @405 (gas: 18)\n 11803: a3 = a4\n 11805: a0 = s1 + 0x7ff\n 11809: a0 = a0 + 0x139\n 11813: a5 = s1 + 0x100\n 11817: a1 = u64 [a5 + 0x60]\n 11820: u64 [a0 + 0x168] = a1\n 11824: a1 = u64 [a5 + 0x68]\n 11827: u64 [a0 + 0x170] = a1\n 11831: a1 = u64 [a5 + 0x70]\n 11834: u64 [a0 + 0x178] = a1\n 11838: a1 = s1 + 0x7ff\n 11842: a1 = a1 + 0x2a1\n 11846: a2 = u64 [a5 + 0x78]\n 11849: u64 [a0 + 0x180] = a2\n 11853: a0 = a4\n 11855: u64 [a5 + 0xb8] = a3\n 11859: ra = 0x218\n 11863: jump @4\n      : @406 (gas: 11)\n 11866: u64 [a3 + 1024] = 0\n 11870: u64 [a3 + 1016] = 0\n 11874: u64 [a3 + 1008] = 0\n 11878: u64 [a3 + 1000] = 0\n 11882: a0 = s1 + 0x3000\n 11886: i32 a0 = a0 + 0x540\n 11890: ra = 0x182\n 11894: ecalli 14 // 'value_transferred'\n 11896: a0 = 0x3158\n 11900: t0 = 0x184\n 11904: jump @1467\n      : @407 [@dyn 193] (gas: 2)\n 11908: a0 = 0x3158\n 11912: t0 = 388, jump @1467\n      : @408 [@dyn 194] (gas: 1)\n 11919: jump @410 if a0 == 0\n      : @409 (gas: 1)\n 11922: jump @1060\n      : @410 (gas: 3)\n 11925: a0 = u64 [s1 + 0x1b8]\n 11929: a0 = i32 [a0]\n 11931: jump @412 if a0 >u 3\n      : @411 (gas: 1)\n 11935: jump @1061\n      : @412 (gas: 4)\n 11938: a0 = s1 + 0x7ff\n 11942: a0 = a0 + 0x181\n 11946: a1 = 0x40\n 11949: ra = 390, jump @2\n      : @413 [@dyn 195] (gas: 7)\n 11955: a3 = s1 + 0x7ff\n 11959: a3 = a3 + 0x139\n 11963: a4 = u64 [a3 + 0x60]\n 11966: a1 = u64 [a3 + 0x58]\n 11969: a2 = u64 [a3 + 0x50]\n 11972: a0 = u64 [a3 + 0x48]\n 11975: t0 = 392, jump @1438\n      : @414 [@dyn 196] (gas: 1)\n 11981: jump @416 if a1 == 0\n      : @415 (gas: 1)\n 11984: jump @912\n      : @416 (gas: 9)\n 11987: u64 [a3 + 64] = 0\n 11990: u64 [a3 + 56] = 0\n 11993: u64 [a3 + 40] = 0xa\n 11997: a1 = s1 + 0x7ff\n 12001: a1 = a1 + 0x161\n 12005: u64 [a3 + 48] = 0\n 12008: u64 [s1 + 0x1b8] = a0\n 12012: ra = 0x218\n 12016: jump @4\n      : @417 (gas: 9)\n 12019: u64 [a3 + 576] = 0\n 12023: u64 [a3 + 568] = 0\n 12027: u64 [a3 + 560] = 0\n 12031: u64 [a3 + 552] = 0\n 12035: a0 = s1 + 0x3000\n 12039: i32 a0 = a0 + 0x380\n 12043: ra = 0x18a\n 12047: ecalli 14 // 'value_transferred'\n 12049: fallthrough\n      : @418 [@dyn 197] (gas: 10)\n 12050: a3 = s1 + 0x3158\n 12054: a4 = a3 + 0x200\n 12058: a0 = u64 [a4 + 0x38]\n 12061: a1 = u64 [a4 + 0x40]\n 12064: a2 = u64 [a4 + 0x30]\n 12067: a3 = u64 [a4 + 0x28]\n 12070: a1 = a1 | a2\n 12073: a0 = a0 | a3\n 12076: a0 = a0 | a1\n 12079: jump @420 if a0 == 0\n      : @419 (gas: 1)\n 12082: jump @1062\n      : @420 (gas: 1)\n 12085: t0 = 396, jump @1471\n      : @421 [@dyn 198] (gas: 1)\n 12092: jump @423 if a1 <u a0\n      : @422 (gas: 1)\n 12095: jump @1063\n      : @423 (gas: 17)\n 12098: a0 = s1 + 0x3000\n 12102: i32 a0 = a0 + 0x3a0\n 12106: a1 = 0x4\n 12109: ecalli 2 // 'call_data_load'\n 12111: a3 = s1 + 0x3158\n 12115: a4 = a3 + 0x200\n 12119: a0 = u64 [a4 + 0x48]\n 12122: a1 = u64 [a4 + 0x50]\n 12125: a2 = u64 [a4 + 0x58]\n 12128: a3 = u64 [a4 + 0x60]\n 12131: u64 [s1 + 0x678] = a3\n 12135: u64 [s1 + 0x670] = a2\n 12139: u64 [s1 + 0x668] = a1\n 12143: a1 = s1 + 0x660\n 12147: u64 [s1 + 0x660] = a0\n 12151: a0 = 0\n 12153: ra = 398, jump @4\n      : @424 [@dyn 199] (gas: 7)\n 12159: u64 [s1 + 1624] = 0\n 12163: u64 [s1 + 1616] = 0\n 12167: u64 [s1 + 1600] = 0x4\n 12172: a0 = 0x20\n 12175: a1 = s1 + 0x640\n 12179: u64 [s1 + 1608] = 0\n 12183: ra = 400, jump @4\n      : @425 [@dyn 200] (gas: 7)\n 12189: a0 = sp + 0xffffffffffffffe0\n 12192: a0 = a0 & 0xffffffffffffffe0\n 12195: u64 [s1 + 0x1b8] = a0\n 12199: sp = a0\n 12201: a2 = 0x20154\n 12206: a0 = i32 [0x20154]\n 12211: jump @427 if a0 >u 63\n      : @426 (gas: 2)\n 12215: u32 [0x20154] = 0x40\n 12221: fallthrough\n      : @427 (gas: 32)\n 12222: u64 [s1 + 0x1a8] = a2\n 12226: a0 = sp + 0xffffffffffffffe0\n 12229: a2 = a0 & 0xffffffffffffffe0\n 12232: u64 [s1 + 0x1b0] = a2\n 12236: sp = a2\n 12238: a0 = 0x20160\n 12243: i32 a0 = a0 + 0\n 12245: i32 a2 = a2 + 0\n 12247: a1 = 0x40\n 12250: u64 [s1 + 0x1a0] = a0\n 12254: ecalli 7 // 'hash_keccak_256'\n 12256: a3 = u64 [s1 + 0x1b0]\n 12260: a0 = u64 [a3 + 0x18]\n 12263: a1 = u64 [a3 + 0x10]\n 12266: a2 = u64 [a3 + 0x8]\n 12269: a3 = u64 [a3]\n 12271: a0 = reverse a0\n 12273: a1 = reverse a1\n 12275: a2 = reverse a2\n 12277: a3 = reverse a3\n 12279: a4 = u64 [s1 + 0x1b8]\n 12283: u64 [s1 + 0x188] = a3\n 12287: u64 [a4 + 0x18] = a3\n 12290: u64 [s1 + 0x190] = a2\n 12294: u64 [a4 + 0x10] = a2\n 12297: u64 [s1 + 0x198] = a1\n 12301: u64 [a4 + 0x8] = a1\n 12304: u64 [s1 + 0x1b0] = a0\n 12308: u64 [a4] = a0\n 12310: a0 = s1 + 0x620\n 12314: a1 = 0x40\n 12317: ra = 402, jump @2\n      : @428 [@dyn 201] (gas: 12)\n 12323: a1 = s1 + 0x600\n 12327: a0 = u64 [a1 + 0x38]\n 12330: u64 [s1 + 0xf0] = a0\n 12334: a0 = u64 [a1 + 0x30]\n 12337: u64 [s1 + 0xe8] = a0\n 12341: a0 = u64 [a1 + 0x28]\n 12344: u64 [s1 + 0xe0] = a0\n 12348: a0 = u64 [a1 + 0x20]\n 12351: u64 [s1 + 0xf8] = a0\n 12355: a0 = s1 + 0x600\n 12359: a1 = u64 [s1 + 0x1b8]\n 12363: ra = 404, jump @6\n      : @429 [@dyn 202] (gas: 6)\n 12369: a4 = u64 [s1 + 0xe0]\n 12373: a3 = u64 [s1 + 0xe8]\n 12377: a0 = u64 [s1 + 0xf8]\n 12381: a2 = u64 [s1 + 0xf0]\n 12385: a2 = a2 | a4\n 12388: t0 = 406, jump @1461\n      : @430 [@dyn 203] (gas: 1)\n 12394: jump @432 if a1 == 0\n      : @431 (gas: 1)\n 12397: jump @912\n      : @432 (gas: 15)\n 12400: t0 = u64 [s1 + 0x618]\n 12404: a3 = s1 + 0x600\n 12408: a1 = u64 [a3 + 0x10]\n 12411: a5 = u64 [a3 + 0x8]\n 12414: a2 = u64 [a3]\n 12416: u64 [s1 + 0x128] = a2\n 12420: u64 [s1 + 0x5e0] = a2\n 12424: u64 [s1 + 0x130] = a5\n 12428: u64 [s1 + 0x5e8] = a5\n 12432: u64 [s1 + 0x138] = a1\n 12436: u64 [s1 + 0x5f0] = a1\n 12440: a1 = s1 + 0x5e0\n 12444: u64 [s1 + 0x140] = t0\n 12448: u64 [s1 + 0x5f8] = t0\n 12452: ra = 408, jump @4\n      : @433 [@dyn 204] (gas: 26)\n 12458: a1 = u64 [s1 + 0xf8]\n 12462: a0 = a1 + 0x20\n 12465: u64 [s1 + 0x108] = a0\n 12469: a0 = a0 <u a1\n 12472: a2 = u64 [s1 + 0xe0]\n 12476: a1 = a2 + a0\n 12479: u64 [s1 + 0x118] = a1\n 12483: a1 = a1 <u a2\n 12486: a1 = a0 if a0 == 0\n 12489: a0 = u64 [s1 + 0xe8]\n 12493: a1 = a1 + a0\n 12496: u64 [s1 + 0x100] = a1\n 12500: a0 = a1 <u a0\n 12503: u64 [s1 + 0x1b8] = a0\n 12507: a0 = u64 [s1 + 0x188]\n 12511: a2 = s1 + 0x500\n 12515: u64 [a2 + 0xd8] = a0\n 12519: a0 = u64 [s1 + 0x190]\n 12523: u64 [a2 + 0xd0] = a0\n 12527: a0 = u64 [s1 + 0x198]\n 12531: u64 [a2 + 0xc8] = a0\n 12535: a1 = s1 + 0x5c0\n 12539: a0 = u64 [s1 + 0x1b0]\n 12543: u64 [a2 + 0xc0] = a0\n 12547: a0 = 0\n 12549: ra = 410, jump @4\n      : @434 [@dyn 205] (gas: 7)\n 12555: a0 = sp + 0xffffffffffffffe0\n 12558: a0 = a0 & 0xffffffffffffffe0\n 12561: u64 [s1 + 0x120] = a0\n 12565: sp = a0\n 12567: a2 = u64 [s1 + 0x1a8]\n 12571: a0 = i32 [a2]\n 12573: jump @436 if a0 >u 31\n      : @435 (gas: 2)\n 12577: u32 [a2 + 0] = 0x20\n 12580: fallthrough\n      : @436 (gas: 7)\n 12581: a0 = u64 [s1 + 0xf0]\n 12585: a1 = u64 [s1 + 0x1b8]\n 12589: a0 = a0 + a1\n 12592: u64 [s1 + 0x110] = a0\n 12596: a0 = 0xffffffff\n 12606: u64 [s1 + 0x148] = a0\n 12610: t0 = 412, jump @1445\n      : @437 [@dyn 206] (gas: 34)\n 12616: a0 = u64 [s1 + 0x1a0]\n 12620: ecalli 7 // 'hash_keccak_256'\n 12622: t0 = 0\n 12624: t1 = 0\n 12626: ra = 0\n 12628: u64 [s1 + 408] = 0\n 12632: a3 = u64 [s1 + 0x1b8]\n 12636: a0 = u64 [a3 + 0x18]\n 12639: a1 = u64 [a3 + 0x10]\n 12642: a2 = u64 [a3 + 0x8]\n 12645: a5 = u64 [a3]\n 12647: t2 = reverse a0\n 12649: a4 = reverse a1\n 12651: a3 = reverse a2\n 12653: a2 = reverse a5\n 12655: a1 = u64 [s1 + 0x120]\n 12659: a0 = a2\n 12661: u64 [a1 + 0x18] = a2\n 12664: u64 [s1 + 0x178] = a3\n 12668: u64 [a1 + 0x10] = a3\n 12671: a5 = a4\n 12673: u64 [a1 + 0x8] = a4\n 12676: u64 [s1 + 0x180] = t2\n 12680: u64 [a1] = t2\n 12682: a3 = s1 + 0x100\n 12686: a2 = u64 [a3 + 0x8]\n 12689: u64 [a3 + 0xb8] = a2\n 12693: a2 = u64 [a3 + 0x18]\n 12696: u64 [a3 + 0xa8] = a2\n 12700: a2 = u64 [a3]\n 12702: u64 [a3 + 0xa0] = a2\n 12706: a2 = u64 [a3 + 0x10]\n 12709: u64 [a3 + 0xb0] = a2\n 12713: fallthrough\n      : @438 (gas: 20)\n 12714: a4 = s1 + 0x100\n 12718: u64 [a4 + 0x88] = a0\n 12722: u64 [a4 + 0x90] = a5\n 12726: a0 = u64 [a4 + 0x28]\n 12729: a0 = t0 <u a0\n 12732: a2 = u64 [a4 + 0x30]\n 12735: a3 = t1 ^ a2\n 12738: a2 = t1 <u a2\n 12741: a2 = a0 if a3 == 0\n 12744: a0 = u64 [a4 + 0x38]\n 12747: t2 = ra <u a0\n 12750: a3 = u64 [a4 + 0x40]\n 12753: a5 = u64 [a4 + 0x98]\n 12757: a4 = a5 ^ a3\n 12760: a3 = a5 <u a3\n 12763: a3 = t2 if a4 == 0\n 12766: a0 = ra ^ a0\n 12769: a0 = a0 | a4\n 12772: a3 = a2 if a0 == 0\n 12775: jump @440 if a3 != 0\n      : @439 (gas: 1)\n 12778: jump @831\n      : @440 (gas: 5)\n 12781: u64 [s1 + 0x160] = ra\n 12785: u64 [s1 + 0x168] = t1\n 12789: u64 [s1 + 0x170] = t0\n 12793: a0 = s1 + 0x4a0\n 12797: ra = 414, jump @6\n      : @441 [@dyn 207] (gas: 13)\n 12803: a1 = s1 + 0x100\n 12807: a0 = u64 [a1 + 0xb8]\n 12811: a4 = u64 [a1 + 0xa0]\n 12815: a2 = a0 | a4\n 12818: a3 = u64 [a1 + 0xb0]\n 12822: a5 = u64 [a1 + 0xa8]\n 12826: a1 = a5 | a3\n 12829: a2 = a2 | a1\n 12832: a2 = a2 >> 0x20\n 12835: a1 = a1 | a4\n 12838: a1 = a1 << 0x20\n 12841: a1 = a1 | a2\n 12844: jump @443 if a1 == 0\n      : @442 (gas: 1)\n 12847: jump @912\n      : @443 (gas: 18)\n 12850: u64 [s1 + 0x1a0] = a4\n 12854: a4 = u64 [s1 + 0x4b0]\n 12858: a1 = u64 [s1 + 0x4a8]\n 12862: a2 = u64 [s1 + 0x4a0]\n 12866: u64 [s1 + 0x1b0] = a3\n 12870: a3 = u64 [s1 + 0x148]\n 12874: a4 = a4 & a3\n 12877: a1 = a1 & 0xffffffffffffffff\n 12880: a2 = a2 & 0xffffffffffffffff\n 12883: u64 [s1 + 1176] = 0\n 12887: a3 = s1 + 0x400\n 12891: u64 [a3 + 0x80] = a2\n 12895: u64 [a3 + 0x88] = a1\n 12899: a1 = s1 + 0x480\n 12903: u64 [a3 + 0x90] = a4\n 12907: u64 [s1 + 0x1b8] = a0\n 12911: u64 [s1 + 0x1a8] = a5\n 12915: ra = 416, jump @4\n      : @444 [@dyn 208] (gas: 57)\n 12921: a1 = u64 [s1 + 0x1b8]\n 12925: a0 = a1 + 0x20\n 12928: u64 [s1 + 0x158] = a0\n 12932: a2 = a0 <u a1\n 12935: a1 = u64 [s1 + 0x1a8]\n 12939: a0 = a1 + a2\n 12942: u64 [s1 + 0x150] = a0\n 12946: a3 = a0 <u a1\n 12949: a3 = a2 if a2 == 0\n 12952: a0 = u64 [s1 + 0x1a0]\n 12956: ra = a0 + a3\n 12959: a3 = ra <u a0\n 12962: a0 = u64 [s1 + 0x1b0]\n 12966: a0 = a0 + a3\n 12969: u64 [s1 + 0x1b0] = a0\n 12973: t2 = u64 [s1 + 0x180]\n 12977: t2 = t2 + 0x1\n 12980: u64 [s1 + 0x180] = t2\n 12984: a3 = t2 <u 0x1\n 12987: a0 = u64 [s1 + 0x190]\n 12991: a0 = a0 + a3\n 12994: a3 = t2 | a0\n 12997: a3 = a3 <u 0x1\n 13000: a1 = u64 [s1 + 0x178]\n 13004: a3 = a3 + a1\n 13007: a4 = a3 <u a1\n 13010: a2 = u64 [s1 + 0x188]\n 13014: a2 = a2 + a4\n 13017: t0 = u64 [s1 + 0x170]\n 13021: t0 = t0 + 0x1\n 13024: a4 = t0 <u 0x1\n 13027: t1 = u64 [s1 + 0x168]\n 13031: t1 = t1 + a4\n 13034: a4 = t0 | t1\n 13037: a4 = a4 <u 0x1\n 13040: a5 = u64 [s1 + 0x160]\n 13044: a4 = a4 + a5\n 13047: a5 = a4 <u a5\n 13050: a1 = u64 [s1 + 0x198]\n 13054: a1 = a1 + a5\n 13057: u64 [s1 + 0x198] = a1\n 13061: a5 = a0\n 13063: a1 = u64 [s1 + 0x120]\n 13067: u64 [a1 + 0x8] = a0\n 13070: u64 [a1] = t2\n 13072: u64 [a1 + 0x10] = a3\n 13075: a0 = a2\n 13077: u64 [a1 + 0x18] = a2\n 13080: u64 [s1 + 0x178] = a3\n 13084: a3 = s1 + 0x100\n 13088: a2 = u64 [a3 + 0x58]\n 13091: u64 [a3 + 0xb8] = a2\n 13095: a2 = u64 [a3 + 0x50]\n 13098: u64 [a3 + 0xa8] = a2\n 13102: u64 [s1 + 0x1a0] = ra\n 13106: ra = a4\n 13108: jump @438\n      : @445 (gas: 8)\n 13111: u64 [a3 + 640] = 0\n 13115: u64 [a3 + 632] = 0\n 13119: u64 [a3 + 624] = 0\n 13123: u64 [a3 + 616] = 0\n 13127: a0 = s1 + 0x3000\n 13131: i32 a0 = a0 + 0x3c0\n 13135: ecalli 14 // 'value_transferred'\n 13137: fallthrough\n      : @446 (gas: 10)\n 13138: a4 = s1 + 0x3158\n 13142: a5 = a4 + 0x200\n 13146: a0 = u64 [a5 + 0x78]\n 13149: a1 = u64 [a5 + 0x80]\n 13153: a2 = u64 [a5 + 0x70]\n 13156: a3 = u64 [a5 + 0x68]\n 13159: a1 = a1 | a2\n 13162: a0 = a0 | a3\n 13165: a0 = a0 | a1\n 13168: jump @448 if a0 == 0\n      : @447 (gas: 1)\n 13171: jump @1064\n      : @448 (gas: 3)\n 13174: a0 = u64 [s1 + 0x1b8]\n 13178: a0 = i32 [a0]\n 13180: jump @450 if a0 >u 3\n      : @449 (gas: 1)\n 13184: jump @1065\n      : @450 (gas: 8)\n 13187: u64 [a4 + 672] = 0\n 13191: u64 [a4 + 664] = 0\n 13195: u64 [a4 + 656] = 0\n 13199: u64 [a4 + 648] = 0\n 13203: a0 = s1 + 0x7ff\n 13207: a0 = a0 + 0x141\n 13211: a1 = s1 + 0x33e0\n 13215: ra = 418, jump @6\n      : @451 [@dyn 209] (gas: 16)\n 13221: a0 = s1 + 0x7ff\n 13225: a0 = a0 + 0x139\n 13229: a1 = u64 [a0 + 0x10]\n 13232: u64 [s1 + 0x1b8] = a1\n 13236: a1 = u64 [a0 + 0x8]\n 13239: u64 [s1 + 0x1b0] = a1\n 13243: a0 = u32 [a0 + 0x18]\n 13246: u64 [s1 + 0x1a8] = a0\n 13250: a0 = 0x30160\n 13255: u64 [s1 + 0x160] = a0\n 13259: i32 a0 = a0 + 0\n 13261: ra = 0x1a4\n 13265: ecalli 4 // 'caller'\n 13267: a2 = u64 [s1 + 0x160]\n 13271: t0 = 0x1a6\n 13275: jump @1423\n      : @452 [@dyn 210] (gas: 2)\n 13278: a2 = u64 [s1 + 0x160]\n 13282: t0 = 422, jump @1423\n      : @453 [@dyn 211] (gas: 20)\n 13288: a2 = u64 [s1 + 0x1a8]\n 13292: a1 = a1 ^ a2\n 13295: a2 = u64 [s1 + 0x1b0]\n 13299: a0 = a0 ^ a2\n 13302: a0 = a0 | a1\n 13305: a1 = u64 [s1 + 0x1b8]\n 13309: a1 = a1 ^ a3\n 13312: a0 = a0 | a1\n 13315: a1 = a0 <u 0x1\n 13318: a0 = s1 + 0x7ff\n 13322: a0 = a0 + 0x139\n 13326: u64 [a0 + 0] = 0\n 13328: u64 [a0 + 4294967288] = 0\n 13331: a0 = s1 + 0x1000\n 13335: u64 [a0 + 4294965544] = 0\n 13339: a0 = s1 + 0x7ff\n 13343: a0 = a0 + 0x121\n 13347: a2 = s1 + 0x1000\n 13351: u64 [a2 + 0xfffffffffffff920] = a1\n 13355: ra = 424, jump @1245\n      : @454 [@dyn 212] (gas: 11)\n 13361: u64 [s1 + 384] = 0\n 13365: u64 [s1 + 376] = 0\n 13369: u64 [s1 + 368] = 0\n 13373: u64 [s1 + 360] = 0\n 13377: u64 [s1 + 424] = 0\n 13381: u64 [s1 + 432] = 0\n 13385: u64 [s1 + 440] = 0\n 13389: a0 = 0x20154\n 13394: u64 [s1 + 0x198] = a0\n 13398: a0 = 0x1\n 13401: fallthrough\n      : @455 (gas: 10)\n 13402: u64 [s1 + 0x1a0] = a0\n 13406: a0 = s1 + 0x3158\n 13410: u64 [a0 + 704] = 0\n 13414: u64 [a0 + 696] = 0\n 13418: u64 [a0 + 688] = 0\n 13422: u64 [a0 + 680] = 0x1\n 13427: a0 = s1 + 0x7ff\n 13431: a0 = a0 + 0x101\n 13435: a1 = s1 + 0x3400\n 13439: ra = 426, jump @6\n      : @456 [@dyn 213] (gas: 26)\n 13445: a0 = s1 + 0x1000\n 13449: a0 = u64 [a0 + 0xfffffffffffff918]\n 13453: a1 = s1 + 0x1000\n 13457: a1 = u64 [a1 + 0xfffffffffffff900]\n 13461: u64 [s1 + 0x190] = a1\n 13465: a1 = s1 + 0x1000\n 13469: t2 = u64 [a1 + 0xfffffffffffff910]\n 13473: a1 = s1 + 0x1000\n 13477: a1 = u64 [a1 + 0xfffffffffffff908]\n 13481: a4 = u64 [s1 + 0x1b8]\n 13485: ra = a4 ^ a0\n 13488: a0 = a0 <u a4\n 13491: a2 = u64 [s1 + 0x1b0]\n 13495: a5 = t2 <u a2\n 13498: a5 = a0 if ra != 0\n 13501: a3 = u64 [s1 + 0x1a8]\n 13505: t1 = a3 ^ a1\n 13508: a0 = a1 <u a3\n 13511: t0 = u64 [s1 + 0x1a0]\n 13515: a1 = u64 [s1 + 0x190]\n 13519: a1 = a1 <u t0\n 13522: a1 = a0 if t1 != 0\n 13525: a0 = a2 ^ t2\n 13528: a0 = a0 | ra\n 13531: a1 = a5 if a0 != 0\n 13534: jump @556 if a1 != 0\n      : @457 (gas: 12)\n 13538: a1 = s1 + 0x1000\n 13542: u64 [a1 + 0xfffffffffffff8e0] = t0\n 13546: a1 = s1 + 0x1000\n 13550: u64 [a1 + 0xfffffffffffff8e8] = a3\n 13554: a1 = s1 + 0x1000\n 13558: u64 [a1 + 0xfffffffffffff8f0] = a2\n 13562: a1 = s1 + 0x7ff\n 13566: a1 = a1 + 0xe1\n 13570: a2 = s1 + 0x1000\n 13574: u64 [a2 + 0xfffffffffffff8f8] = a4\n 13578: a0 = 0\n 13580: ra = 428, jump @4\n      : @458 [@dyn 214] (gas: 12)\n 13586: a0 = s1 + 0x1000\n 13590: u64 [a0 + 4294965464] = 0\n 13594: a0 = s1 + 0x1000\n 13598: u64 [a0 + 4294965456] = 0\n 13602: a0 = s1 + 0x1000\n 13606: u64 [a0 + 4294965448] = 0\n 13610: a0 = 0x20\n 13613: a1 = s1 + 0x7ff\n 13617: a1 = a1 + 0xc1\n 13621: a3 = s1 + 0x1000\n 13625: u64 [a3 + 4294965440] = 0x2\n 13630: ra = 430, jump @4\n      : @459 [@dyn 215] (gas: 3)\n 13636: a1 = u64 [s1 + 0x198]\n 13640: a0 = i32 [a1]\n 13642: jump @461 if a0 >u 63\n      : @460 (gas: 2)\n 13646: u32 [a1 + 0] = 0x40\n 13649: fallthrough\n      : @461 (gas: 12)\n 13650: a0 = sp + 0xffffffffffffffe0\n 13653: a2 = a0 & 0xffffffffffffffe0\n 13656: u64 [s1 + 0x188] = a2\n 13660: sp = a2\n 13662: a0 = 0x20160\n 13667: i32 a0 = a0 + 0\n 13669: i32 a2 = a2 + 0\n 13671: a1 = 0x40\n 13674: u64 [s1 + 0x190] = a0\n 13678: ra = 0x1b0\n 13682: ecalli 7 // 'hash_keccak_256'\n 13684: fallthrough\n      : @462 [@dyn 216] (gas: 6)\n 13685: a3 = u64 [s1 + 0x188]\n 13689: a0 = u64 [a3]\n 13691: a1 = u64 [a3 + 0x8]\n 13694: a2 = u64 [a3 + 0x10]\n 13697: a3 = u64 [a3 + 0x18]\n 13700: t0 = 434, jump @1447\n      : @463 [@dyn 217] (gas: 18)\n 13706: a4 = a3 + 0x8\n 13709: a3 = a4 <u a3\n 13712: a5 = a2 + a3\n 13715: a2 = a5 <u a2\n 13718: a2 = a3 if a3 == 0\n 13721: a2 = a2 + a1\n 13724: a1 = a2 <u a1\n 13727: a0 = a0 + a1\n 13730: a1 = s1 + 0x3158\n 13734: a3 = a1 + 0x200\n 13738: u64 [a3 + 0xc8] = a4\n 13742: u64 [a3 + 0xd0] = a5\n 13746: u64 [a3 + 0xd8] = a2\n 13750: u64 [a3 + 0xe0] = a0\n 13754: a0 = s1 + 0x7ff\n 13758: a0 = a0 + 0xa1\n 13762: a1 = s1 + 0x3420\n 13766: ra = 436, jump @6\n      : @464 [@dyn 218] (gas: 3)\n 13772: a0 = s1 + 0x1000\n 13776: a0 = u8 [a0 + 0xfffffffffffff8a0]\n 13780: jump @482 if a0 == 0\n      : @465 (gas: 16)\n 13784: a0 = u64 [s1 + 0x1a0]\n 13788: a1 = s1 + 0x1000\n 13792: u64 [a1 + 0xfffffffffffff880] = a0\n 13796: a0 = u64 [s1 + 0x1a8]\n 13800: a1 = s1 + 0x1000\n 13804: u64 [a1 + 0xfffffffffffff888] = a0\n 13808: a0 = u64 [s1 + 0x1b0]\n 13812: a1 = s1 + 0x1000\n 13816: u64 [a1 + 0xfffffffffffff890] = a0\n 13820: a1 = s1 + 0x7ff\n 13824: a1 = a1 + 0x81\n 13828: a0 = u64 [s1 + 0x1b8]\n 13832: a2 = s1 + 0x1000\n 13836: u64 [a2 + 0xfffffffffffff898] = a0\n 13840: a0 = 0\n 13842: ra = 438, jump @4\n      : @466 [@dyn 219] (gas: 12)\n 13848: a0 = s1 + 0x1000\n 13852: u64 [a0 + 4294965368] = 0\n 13856: a0 = s1 + 0x1000\n 13860: u64 [a0 + 4294965360] = 0\n 13864: a0 = s1 + 0x1000\n 13868: u64 [a0 + 4294965352] = 0\n 13872: a0 = 0x20\n 13875: a1 = s1 + 0x7ff\n 13879: a1 = a1 + 0x61\n 13882: a3 = s1 + 0x1000\n 13886: u64 [a3 + 4294965344] = 0x2\n 13891: ra = 440, jump @4\n      : @467 [@dyn 220] (gas: 3)\n 13897: a1 = u64 [s1 + 0x198]\n 13901: a0 = i32 [a1]\n 13903: jump @469 if a0 >u 63\n      : @468 (gas: 3)\n 13907: u32 [a1 + 0] = 0x40\n 13910: t0 = 0x1ba\n 13914: jump @1466\n      : @469 (gas: 1)\n 13917: t0 = 442, jump @1466\n      : @470 [@dyn 221] (gas: 4)\n 13923: ra = 0x1bc\n 13927: ecalli 7 // 'hash_keccak_256'\n 13929: t0 = 0x1be\n 13933: jump @1422\n      : @471 [@dyn 222] (gas: 1)\n 13936: t0 = 446, jump @1422\n      : @472 [@dyn 223] (gas: 9)\n 13942: a3 = a1 + 0x200\n 13946: u64 [a3 + 0xe8] = a4\n 13950: u64 [a3 + 0xf0] = a5\n 13954: u64 [a3 + 0xf8] = a2\n 13958: u64 [a1 + 0x300] = a0\n 13962: a0 = s1 + 0x7ff\n 13966: a0 = a0 + 0x41\n 13969: a1 = s1 + 0x3440\n 13973: ra = 448, jump @6\n      : @473 [@dyn 224] (gas: 30)\n 13979: a0 = s1 + 0x1000\n 13983: a0 = u64 [a0 + 0xfffffffffffff840]\n 13987: a1 = s1 + 0x1000\n 13991: a1 = u64 [a1 + 0xfffffffffffff848]\n 13995: a2 = s1 + 0x1000\n 13999: a2 = u64 [a2 + 0xfffffffffffff850]\n 14003: a3 = s1 + 0x1000\n 14007: a3 = u64 [a3 + 0xfffffffffffff858]\n 14011: u64 [s1 + 0x7f8] = a3\n 14015: u64 [s1 + 0x7f0] = a2\n 14019: u64 [s1 + 0x7e8] = a1\n 14023: u64 [s1 + 0x7e0] = a0\n 14027: a0 = u64 [s1 + 0x168]\n 14031: a1 = s1 + 0x1000\n 14035: u64 [a1 + 0xfffffffffffff818] = a0\n 14039: a0 = u64 [s1 + 0x170]\n 14043: a1 = s1 + 0x1000\n 14047: u64 [a1 + 0xfffffffffffff810] = a0\n 14051: a0 = u64 [s1 + 0x178]\n 14055: a1 = s1 + 0x1000\n 14059: u64 [a1 + 0xfffffffffffff808] = a0\n 14063: a0 = s1 + 0x7ff\n 14067: a0 = a0 + 0x21\n 14070: a1 = s1 + 0x7ff\n 14074: a1 = a1 + 0x1\n 14077: a2 = s1 + 0x7e0\n 14081: a3 = u64 [s1 + 0x180]\n 14085: a4 = s1 + 0x1000\n 14089: u64 [a4 + 0xfffffffffffff800] = a3\n 14093: ra = 450, jump @1275\n      : @474 [@dyn 225] (gas: 23)\n 14099: a0 = s1 + 0x1000\n 14103: a0 = u64 [a0 + 0xfffffffffffff838]\n 14107: u64 [s1 + 0x168] = a0\n 14111: a0 = s1 + 0x1000\n 14115: a0 = u64 [a0 + 0xfffffffffffff830]\n 14119: u64 [s1 + 0x170] = a0\n 14123: a0 = s1 + 0x1000\n 14127: a0 = u64 [a0 + 0xfffffffffffff828]\n 14131: u64 [s1 + 0x178] = a0\n 14135: a0 = s1 + 0x1000\n 14139: a0 = u64 [a0 + 0xfffffffffffff820]\n 14143: u64 [s1 + 0x180] = a0\n 14147: a0 = u64 [s1 + 0x1b8]\n 14151: u64 [s1 + 0x7d8] = a0\n 14155: a0 = u64 [s1 + 0x1b0]\n 14159: u64 [s1 + 0x7d0] = a0\n 14163: a0 = u64 [s1 + 0x1a8]\n 14167: u64 [s1 + 0x7c8] = a0\n 14171: a1 = s1 + 0x7c0\n 14175: a0 = u64 [s1 + 0x1a0]\n 14179: u64 [s1 + 0x7c0] = a0\n 14183: a0 = 0\n 14185: ra = 452, jump @4\n      : @475 [@dyn 226] (gas: 7)\n 14191: u64 [s1 + 1976] = 0\n 14195: u64 [s1 + 1968] = 0\n 14199: u64 [s1 + 1960] = 0\n 14203: a0 = 0x20\n 14206: a1 = s1 + 0x7a0\n 14210: u64 [s1 + 1952] = 0x2\n 14215: ra = 454, jump @4\n      : @476 [@dyn 227] (gas: 3)\n 14221: a1 = u64 [s1 + 0x198]\n 14225: a0 = i32 [a1]\n 14227: jump @478 if a0 >u 63\n      : @477 (gas: 3)\n 14231: u32 [a1 + 0] = 0x40\n 14234: t0 = 0x1c8\n 14238: jump @1466\n      : @478 (gas: 1)\n 14241: t0 = 456, jump @1466\n      : @479 [@dyn 228] (gas: 4)\n 14247: ra = 0x1ca\n 14251: ecalli 7 // 'hash_keccak_256'\n 14253: t0 = 0x1cc\n 14257: jump @1422\n      : @480 [@dyn 229] (gas: 1)\n 14260: t0 = 460, jump @1422\n      : @481 [@dyn 230] (gas: 12)\n 14266: a3 = a1 + 0x300\n 14270: u64 [a3 + 0x8] = a4\n 14273: u64 [a3 + 0x10] = a5\n 14276: u64 [a3 + 0x18] = a2\n 14279: u64 [a3 + 0x20] = a0\n 14282: u64 [a1 + 832] = 0\n 14286: u64 [a1 + 824] = 0\n 14290: u64 [a1 + 816] = 0\n 14294: u64 [a1 + 808] = 0\n 14298: a0 = s1 + 0x3460\n 14302: a1 = s1 + 0x3480\n 14306: ra = 462, jump @9\n      : @482 [@dyn 231] (gas: 11)\n 14312: a2 = u64 [s1 + 0x1b8]\n 14316: a0 = u64 [s1 + 0x1b0]\n 14320: a1 = u64 [s1 + 0x1a8]\n 14324: a3 = u64 [s1 + 0x1a0]\n 14328: u64 [s1 + 0x760] = a3\n 14332: u64 [s1 + 0x768] = a1\n 14336: u64 [s1 + 0x770] = a0\n 14340: a0 = s1 + 0x780\n 14344: a1 = s1 + 0x760\n 14348: u64 [s1 + 0x778] = a2\n 14352: ra = 464, jump @1267\n      : @483 [@dyn 232] (gas: 10)\n 14358: a1 = s1 + 0x700\n 14362: a0 = u64 [a1 + 0x98]\n 14366: a2 = s1 + 0x100\n 14370: u64 [a2 + 0xb8] = a0\n 14374: a0 = u64 [a1 + 0x90]\n 14378: u64 [a2 + 0xb0] = a0\n 14382: a0 = u64 [a1 + 0x88]\n 14386: u64 [a2 + 0xa8] = a0\n 14390: a0 = u64 [a1 + 0x80]\n 14394: jump @455\n      : @484 (gas: 9)\n 14397: u64 [a4 + 192] = 0\n 14401: u64 [a4 + 184] = 0\n 14405: u64 [a4 + 176] = 0\n 14409: u64 [a4 + 168] = 0\n 14413: a0 = s1 + 0x4000\n 14417: i32 a0 = a0 + 0x200\n 14421: ra = 0x1d2\n 14425: ecalli 14 // 'value_transferred'\n 14427: fallthrough\n      : @485 [@dyn 233] (gas: 9)\n 14428: a3 = s1 + 0x4158\n 14432: a0 = u64 [a3 + 0xb8]\n 14436: a1 = u64 [a3 + 0xc0]\n 14440: a2 = u64 [a3 + 0xb0]\n 14444: a3 = u64 [a3 + 0xa8]\n 14448: a1 = a1 | a2\n 14451: a0 = a0 | a3\n 14454: a0 = a0 | a1\n 14457: jump @487 if a0 == 0\n      : @486 (gas: 1)\n 14460: jump @1066\n      : @487 (gas: 1)\n 14463: t0 = 468, jump @1471\n      : @488 [@dyn 234] (gas: 1)\n 14469: jump @490 if a1 <u a0\n      : @489 (gas: 1)\n 14472: jump @1067\n      : @490 (gas: 17)\n 14475: a0 = s1 + 0x4000\n 14479: i32 a0 = a0 + 0x220\n 14483: a1 = 0x4\n 14486: ecalli 2 // 'call_data_load'\n 14488: a3 = s1 + 0x4158\n 14492: a2 = u64 [a3 + 0xc8]\n 14496: a0 = u64 [a3 + 0xd0]\n 14500: a1 = u64 [a3 + 0xd8]\n 14504: a3 = u64 [a3 + 0xe0]\n 14508: a4 = s1 + 0x3158\n 14512: u64 [a4 + 0x80] = a3\n 14516: u64 [a4 + 0x78] = a1\n 14519: u64 [a4 + 0x70] = a0\n 14522: a0 = s1 + 0x31e0\n 14526: a1 = s1 + 0x31c0\n 14530: u64 [a4 + 0x68] = a2\n 14533: ra = 470, jump @1333\n      : @491 [@dyn 235] (gas: 12)\n 14539: a1 = s1 + 0x3158\n 14543: a0 = u64 [a1 + 0x88]\n 14547: u64 [s1 + 0x1b8] = a0\n 14551: a0 = u64 [a1 + 0x90]\n 14555: u64 [s1 + 0x1b0] = a0\n 14559: a0 = u64 [a1 + 0x98]\n 14563: u64 [s1 + 0x1a8] = a0\n 14567: a0 = u64 [a1 + 0xa0]\n 14571: u64 [s1 + 0x1a0] = a0\n 14575: a0 = s1 + 0x31a0\n 14579: a1 = 0x40\n 14582: ra = 472, jump @2\n      : @492 [@dyn 236] (gas: 25)\n 14588: a0 = s1 + 0x3158\n 14592: a1 = u64 [a0 + 0x60]\n 14595: u64 [s1 + 0x198] = a1\n 14599: a2 = u64 [a0 + 0x58]\n 14602: u64 [s1 + 0x190] = a2\n 14606: a3 = u64 [a0 + 0x50]\n 14609: u64 [s1 + 0x188] = a3\n 14613: a4 = u64 [a0 + 0x48]\n 14616: u64 [s1 + 0x180] = a4\n 14620: u64 [a0 + 0x20] = a1\n 14623: u64 [a0 + 0x18] = a2\n 14626: u64 [a0 + 0x10] = a3\n 14629: u64 [a0 + 0x8] = a4\n 14632: a1 = u64 [s1 + 0x1a0]\n 14636: u64 [a0 + 0x40] = a1\n 14639: a1 = u64 [s1 + 0x1a8]\n 14643: u64 [a0 + 0x38] = a1\n 14646: a1 = u64 [s1 + 0x1b0]\n 14650: u64 [a0 + 0x30] = a1\n 14653: a2 = a0\n 14655: a0 = s1 + 0x3180\n 14659: a1 = s1 + 0x3160\n 14663: a3 = u64 [s1 + 0x1b8]\n 14667: u64 [a2 + 0x28] = a3\n 14670: ra = 474, jump @1174\n      : @493 [@dyn 237] (gas: 7)\n 14676: a4 = s1 + 0x100\n 14680: a0 = u64 [a4 + 0x80]\n 14684: a1 = u64 [a4 + 0x98]\n 14688: a2 = u64 [a4 + 0x88]\n 14692: a2 = a2 | a1\n 14695: a3 = u64 [a4 + 0x90]\n 14699: t0 = 476, jump @1461\n      : @494 [@dyn 238] (gas: 1)\n 14705: jump @496 if a1 == 0\n      : @495 (gas: 1)\n 14708: jump @912\n      : @496 (gas: 3)\n 14711: a1 = 0x20\n 14714: ra = 0x21a\n 14718: jump @15\n      : @497 (gas: 9)\n 14721: a0 = s1 + 0x3958\n 14725: u64 [a0 + 896] = 0\n 14729: u64 [a0 + 888] = 0\n 14733: u64 [a0 + 880] = 0\n 14737: u64 [a0 + 872] = 0\n 14741: a0 = s1 + 0x4000\n 14745: i32 a0 = a0 + 0xfffffffffffffcc0\n 14749: ecalli 14 // 'value_transferred'\n 14751: fallthrough\n      : @498 (gas: 10)\n 14752: a3 = s1 + 0x3958\n 14756: a4 = a3 + 0x300\n 14760: a0 = u64 [a4 + 0x78]\n 14763: a1 = u64 [a4 + 0x80]\n 14767: a2 = u64 [a4 + 0x70]\n 14770: a3 = u64 [a4 + 0x68]\n 14773: a1 = a1 | a2\n 14776: a0 = a0 | a3\n 14779: a0 = a0 | a1\n 14782: jump @500 if a0 == 0\n      : @499 (gas: 1)\n 14785: jump @1068\n      : @500 (gas: 10)\n 14788: a0 = u64 [s1 + 0x1b8]\n 14792: a0 = u32 [a0]\n 14794: a2 = s1 + 0x1958\n 14798: u64 [a2 + 1632] = 0\n 14802: u64 [a2 + 1624] = 0\n 14806: u64 [a2 + 0x648] = a0\n 14810: a0 = s1 + 0x1fc0\n 14814: a1 = s1 + 0x1fa0\n 14818: u64 [a2 + 1616] = 0\n 14822: ra = 478, jump @1185\n      : @501 [@dyn 239] (gas: 20)\n 14828: a4 = s1 + 0x1958\n 14832: a5 = a4 + 0x600\n 14836: a0 = u64 [a5 + 0x98]\n 14840: a1 = s1 + 0x100\n 14844: u64 [a1 + 0xa0] = a0\n 14848: a0 = u64 [a5 + 0x90]\n 14852: u64 [a1 + 0xa8] = a0\n 14856: a0 = u64 [a5 + 0x88]\n 14860: u64 [a1 + 0xb8] = a0\n 14864: a0 = u64 [a5 + 0x68]\n 14867: a1 = u64 [a5 + 0x70]\n 14870: a2 = u64 [a5 + 0x78]\n 14873: a3 = u64 [a5 + 0x80]\n 14877: u64 [a5 + 0x40] = a3\n 14880: u64 [a5 + 0x38] = a2\n 14883: u64 [a5 + 0x30] = a1\n 14886: a1 = s1 + 0x1f80\n 14890: u64 [a5 + 0x28] = a0\n 14893: a0 = 0\n 14895: ra = 480, jump @4\n      : @502 [@dyn 240] (gas: 3)\n 14901: t0 = 0x1e2\n 14905: a1 = s1 + 0x1958\n 14909: fallthrough\n      : @503 [@dyn 241] (gas: 8)\n 14910: u64 [a1 + 1568] = 0\n 14914: u64 [a1 + 1560] = 0\n 14918: u64 [a1 + 1544] = 0x3\n 14923: a2 = a1\n 14925: a0 = 0x20\n 14928: a1 = s1 + 0x1f60\n 14932: u64 [a2 + 1552] = 0\n 14936: ra = 484, jump @4\n      : @504 [@dyn 242] (gas: 3)\n 14942: a1 = 0x20154\n 14947: a0 = i32 [0x20154]\n 14952: jump @506 if a0 >u 63\n      : @505 (gas: 2)\n 14956: u32 [0x20154] = 0x40\n 14962: fallthrough\n      : @506 (gas: 15)\n 14963: a0 = sp + 0xffffffffffffffe0\n 14966: a2 = a0 & 0xffffffffffffffe0\n 14969: u64 [s1 + 0x1b0] = a2\n 14973: sp = a2\n 14975: a0 = 0x20160\n 14980: i32 a0 = a0 + 0\n 14982: i32 a2 = a2 + 0\n 14984: u64 [s1 + 0x198] = a1\n 14988: a1 = 0x40\n 14991: u64 [s1 + 0x190] = a0\n 14995: ra = 0x1e6\n 14999: ecalli 7 // 'hash_keccak_256'\n 15001: a3 = u64 [s1 + 0x1b0]\n 15005: t0 = 0x1e8\n 15009: jump @1434\n      : @507 [@dyn 243] (gas: 2)\n 15012: a3 = u64 [s1 + 0x1b0]\n 15016: t0 = 488, jump @1434\n      : @508 [@dyn 244] (gas: 16)\n 15022: u64 [s1 + 0x1b0] = a0\n 15026: sp = a0\n 15028: a0 = u64 [s1 + 0x1a0]\n 15032: a0 = a0 << 0x20\n 15035: a0 = a0 >> 0x20\n 15038: a2 = s1 + 0x1958\n 15042: u64 [a2 + 1536] = 0\n 15046: a3 = a2 + 0x500\n 15050: u64 [a3 + 0xf8] = a0\n 15054: a0 = u64 [s1 + 0x1a8]\n 15058: u64 [a3 + 0xf0] = a0\n 15062: a1 = s1 + 0x1f40\n 15066: a0 = u64 [s1 + 0x1b8]\n 15070: u64 [a3 + 0xe8] = a0\n 15074: a0 = 0\n 15076: ra = 490, jump @4\n      : @509 [@dyn 245] (gas: 14)\n 15082: a0 = u64 [s1 + 0x170]\n 15086: a1 = s1 + 0x1958\n 15090: a2 = a1 + 0x500\n 15094: u64 [a2 + 0xe0] = a0\n 15098: a0 = u64 [s1 + 0x178]\n 15102: u64 [a2 + 0xd8] = a0\n 15106: a0 = u64 [s1 + 0x180]\n 15110: u64 [a2 + 0xd0] = a0\n 15114: a3 = a1\n 15116: a0 = 0x20\n 15119: a1 = s1 + 0x1f20\n 15123: a2 = u64 [s1 + 0x188]\n 15127: u64 [a3 + 0x5c8] = a2\n 15131: ra = 492, jump @4\n      : @510 [@dyn 246] (gas: 3)\n 15137: a1 = u64 [s1 + 0x198]\n 15141: a0 = i32 [a1]\n 15143: jump @512 if a0 >u 63\n      : @511 (gas: 3)\n 15147: u32 [a1 + 0] = 0x40\n 15150: t0 = 0x1ee\n 15154: jump @1444\n      : @512 (gas: 1)\n 15157: t0 = 494, jump @1444\n      : @513 [@dyn 247] (gas: 6)\n 15163: a0 = u64 [s1 + 0x190]\n 15167: ra = 0x1f0\n 15171: ecalli 7 // 'hash_keccak_256'\n 15173: a3 = u64 [s1 + 0x1b8]\n 15177: t0 = 0x1f2\n 15181: jump @1437\n      : @514 [@dyn 248] (gas: 2)\n 15184: a3 = u64 [s1 + 0x1b8]\n 15188: t0 = 498, jump @1437\n      : @515 [@dyn 249] (gas: 12)\n 15194: u64 [s1 + 0x188] = a1\n 15198: a2 = u64 [s1 + 0x1b0]\n 15202: u64 [a2 + 0x18] = a1\n 15205: u64 [s1 + 0x190] = a0\n 15209: u64 [a2 + 0x10] = a0\n 15212: u64 [s1 + 0x180] = a4\n 15216: u64 [a2 + 0x8] = a4\n 15219: u64 [s1 + 0x178] = a5\n 15223: u64 [a2] = a5\n 15225: a0 = s1 + 0x1f00\n 15229: a1 = 0x40\n 15232: ra = 500, jump @2\n      : @516 [@dyn 250] (gas: 18)\n 15238: a1 = s1 + 0x1958\n 15242: a5 = a1 + 0x500\n 15246: a0 = u64 [a5 + 0xc0]\n 15250: u64 [s1 + 0x1a0] = a0\n 15254: a2 = u64 [a5 + 0xb8]\n 15258: u64 [s1 + 0x198] = a2\n 15262: a4 = u64 [a5 + 0xb0]\n 15266: u64 [s1 + 0x1a8] = a4\n 15270: a3 = u64 [a5 + 0xa8]\n 15274: u64 [s1 + 0x1b8] = a3\n 15278: u64 [a5 + 0xa0] = a0\n 15282: u64 [a5 + 0x98] = a2\n 15286: u64 [a5 + 0x90] = a4\n 15290: a0 = s1 + 0x1ee0\n 15294: u64 [a5 + 0x88] = a3\n 15298: ra = 0x1f6\n 15302: t0 = 0x506\n 15306: jump @1443\n      : @517 [@dyn 251] (gas: 3)\n 15309: a0 = s1 + 0x1ec0\n 15313: a1 = u64 [s1 + 0x1b0]\n 15317: ra = 504, jump @6\n      : @518 [@dyn 252] (gas: 7)\n 15323: a3 = s1 + 0x100\n 15327: a0 = u64 [a3 + 0xa0]\n 15331: a1 = u64 [a3 + 0xa8]\n 15335: a0 = a0 | a1\n 15338: a2 = u64 [a3 + 0x98]\n 15342: a1 = u64 [a3 + 0xb8]\n 15346: t0 = 506, jump @1472\n      : @519 [@dyn 253] (gas: 1)\n 15352: jump @521 if a0 == 0\n      : @520 (gas: 1)\n 15355: jump @912\n      : @521 (gas: 17)\n 15358: a0 = s1 + 0x1958\n 15362: a5 = a0 + 0x500\n 15366: a4 = u64 [a5 + 0x80]\n 15370: a3 = u64 [a5 + 0x78]\n 15373: a2 = u64 [a5 + 0x70]\n 15376: a1 = u64 [a5 + 0x68]\n 15379: u64 [s1 + 0x170] = a1\n 15383: u64 [a5 + 0x48] = a1\n 15386: u64 [s1 + 0x168] = a2\n 15390: u64 [a5 + 0x50] = a2\n 15393: u64 [s1 + 0x160] = a3\n 15397: u64 [a5 + 0x58] = a3\n 15400: a1 = s1 + 0x1ea0\n 15404: u64 [s1 + 0x158] = a4\n 15408: u64 [a5 + 0x60] = a4\n 15411: a0 = u64 [s1 + 0x1b8]\n 15415: ra = 508, jump @4\n      : @522 [@dyn 254] (gas: 21)\n 15421: a0 = u64 [s1 + 0x178]\n 15425: a0 = a0 + 0x1\n 15428: a1 = a0 <u 0x1\n 15431: a2 = u64 [s1 + 0x180]\n 15435: a1 = a1 + a2\n 15438: a2 = a0 | a1\n 15441: a2 = a2 <u 0x1\n 15444: a3 = u64 [s1 + 0x190]\n 15448: a2 = a2 + a3\n 15451: a3 = a2 <u a3\n 15454: a4 = u64 [s1 + 0x188]\n 15458: a3 = a3 + a4\n 15461: a4 = s1 + 0x3958\n 15465: a5 = a4 + 0x300\n 15469: u64 [a5 + 0x90] = a1\n 15473: u64 [a5 + 0x88] = a0\n 15477: u64 [a5 + 0x98] = a2\n 15481: u64 [a5 + 0xa0] = a3\n 15485: a0 = s1 + 0x1e80\n 15489: a1 = s1 + 0x3ce0\n 15493: ra = 510, jump @6\n      : @523 [@dyn 255] (gas: 12)\n 15499: a4 = s1 + 0x100\n 15503: a0 = u64 [a4 + 0xa0]\n 15507: a2 = u64 [a4 + 0x98]\n 15511: a2 = a2 | a0\n 15514: a3 = 0x100000000\n 15524: a0 = 0xffffffe0\n 15534: a1 = u64 [a4 + 0xb8]\n 15538: a0 = a1 <u a0\n 15541: a1 = u64 [a4 + 0xa8]\n 15545: a0 = 0 if a1 != 0\n 15547: a0 = 0 if a2 != 0\n 15549: jump @525 if a0 != 0\n      : @524 (gas: 1)\n 15552: jump @912\n      : @525 (gas: 22)\n 15555: a0 = s1 + 0x1958\n 15559: u64 [s1 + 0x1b0] = a2\n 15563: a2 = a0\n 15565: t0 = u64 [a0 + 0x540]\n 15569: a5 = a0 + 0x500\n 15573: a4 = u64 [a5 + 0x38]\n 15576: u64 [s1 + 0x1a0] = a3\n 15580: a3 = u64 [a5 + 0x30]\n 15583: a1 = u64 [a5 + 0x28]\n 15586: a0 = u64 [s1 + 0x1b8]\n 15590: i32 a0 = a0 + 0x20\n 15593: u64 [s1 + 0x198] = a1\n 15597: a5 = a2 + 0x500\n 15601: u64 [a5 + 0x8] = a1\n 15604: u64 [s1 + 0x150] = a3\n 15608: u64 [a5 + 0x10] = a3\n 15611: u64 [s1 + 0x148] = a4\n 15615: u64 [a5 + 0x18] = a4\n 15618: a1 = s1 + 0x1e60\n 15622: u64 [s1 + 0x140] = t0\n 15626: u64 [a2 + 0x520] = t0\n 15630: ra = 512, jump @4\n      : @526 [@dyn 256] (gas: 3)\n 15636: a1 = u64 [s1 + 0x178]\n 15640: a0 = a1 + 0x2\n 15643: t0 = 514, jump @1433\n      : @527 [@dyn 257] (gas: 7)\n 15649: u64 [a5 + 0xb0] = a2\n 15653: u64 [a5 + 0xa8] = a0\n 15657: u64 [a5 + 0xb8] = a3\n 15661: u64 [a5 + 0xc0] = a1\n 15665: a0 = s1 + 0x1e40\n 15669: a1 = s1 + 0x3d00\n 15673: ra = 516, jump @6\n      : @528 [@dyn 258] (gas: 10)\n 15679: a3 = s1 + 0x100\n 15683: a2 = u64 [a3 + 0xb0]\n 15687: a0 = u64 [a3 + 0xa0]\n 15691: a0 = a0 + 0xffffffffffffffc0\n 15694: a1 = u64 [a3 + 0xb8]\n 15698: a0 = a1 <u a0\n 15701: a1 = u64 [a3 + 0xa8]\n 15705: a0 = 0 if a1 != 0\n 15707: a0 = 0 if a2 != 0\n 15709: jump @530 if a0 != 0\n      : @529 (gas: 1)\n 15712: jump @912\n      : @530 (gas: 18)\n 15715: a2 = s1 + 0x1958\n 15719: t0 = u64 [a2 + 0x500]\n 15723: a5 = a2 + 0x400\n 15727: a4 = u64 [a5 + 0xf8]\n 15731: a3 = u64 [a5 + 0xf0]\n 15735: a1 = u64 [a5 + 0xe8]\n 15739: a0 = u64 [s1 + 0x1b8]\n 15743: i32 a0 = a0 + 0x40\n 15746: u64 [s1 + 0x1a0] = a1\n 15750: u64 [a5 + 0xc8] = a1\n 15754: u64 [s1 + 0x138] = a3\n 15758: u64 [a5 + 0xd0] = a3\n 15762: u64 [s1 + 0x130] = a4\n 15766: u64 [a5 + 0xd8] = a4\n 15770: a1 = s1 + 0x1e20\n 15774: u64 [s1 + 0x128] = t0\n 15778: u64 [a2 + 0x4e0] = t0\n 15782: ra = 518, jump @4\n      : @531 [@dyn 259] (gas: 3)\n 15788: a1 = u64 [s1 + 0x178]\n 15792: a0 = a1 + 0x3\n 15795: t0 = 520, jump @1433\n      : @532 [@dyn 260] (gas: 7)\n 15801: u64 [a5 + 0xd0] = a2\n 15805: u64 [a5 + 0xc8] = a0\n 15809: u64 [a5 + 0xd8] = a3\n 15813: u64 [a5 + 0xe0] = a1\n 15817: a0 = s1 + 0x1e00\n 15821: a1 = s1 + 0x3d20\n 15825: ra = 522, jump @6\n      : @533 [@dyn 261] (gas: 9)\n 15831: a0 = 0xffffffa0\n 15841: a2 = s1 + 0x100\n 15845: a1 = u64 [a2 + 0xb8]\n 15849: a0 = a1 <u a0\n 15852: a1 = u64 [a2 + 0xa8]\n 15856: a0 = 0 if a1 != 0\n 15858: a1 = u64 [a2 + 0xb0]\n 15862: a0 = 0 if a1 != 0\n 15864: jump @535 if a0 != 0\n      : @534 (gas: 1)\n 15867: jump @912\n      : @535 (gas: 3)\n 15870: t0 = 0x20c\n 15874: a2 = s1 + 0x1958\n 15878: fallthrough\n      : @536 [@dyn 262] (gas: 11)\n 15879: a0 = u64 [a2 + 0x4a8]\n 15883: a0 = a0 & 0xff\n 15887: a1 = a0 >u 0\n 15889: a0 = u64 [s1 + 0x1b8]\n 15893: i32 a0 = a0 + 0x60\n 15896: u64 [a2 + 1184] = 0\n 15900: u64 [a2 + 1176] = 0\n 15904: u64 [a2 + 0x488] = a1\n 15908: a1 = s1 + 0x1de0\n 15912: u64 [a2 + 1168] = 0\n 15916: ra = 526, jump @4\n      : @537 [@dyn 263] (gas: 3)\n 15922: a0 = s1 + 0x1dc0\n 15926: a1 = 0x40\n 15929: ra = 528, jump @2\n      : @538 [@dyn 264] (gas: 45)\n 15935: a1 = s1 + 0x1958\n 15939: a3 = u64 [a1 + 0x480]\n 15943: u64 [s1 + 0x1b8] = a3\n 15947: a2 = u64 [a1 + 0x478]\n 15951: u64 [s1 + 0x1b0] = a2\n 15955: a4 = u64 [a1 + 0x470]\n 15959: u64 [s1 + 0x1a8] = a4\n 15963: a5 = u64 [a1 + 0x468]\n 15967: u64 [s1 + 0x190] = a5\n 15971: a0 = u64 [s1 + 0x128]\n 15975: u64 [a1 + 0x3e0] = a0\n 15979: a0 = u64 [s1 + 0x130]\n 15983: u64 [a1 + 0x3d8] = a0\n 15987: a0 = u64 [s1 + 0x138]\n 15991: u64 [a1 + 0x3d0] = a0\n 15995: a0 = u64 [s1 + 0x1a0]\n 15999: u64 [a1 + 0x3c8] = a0\n 16003: a0 = u64 [s1 + 0x140]\n 16007: u64 [a1 + 0x400] = a0\n 16011: a0 = u64 [s1 + 0x148]\n 16015: u64 [a1 + 0x3f8] = a0\n 16019: a0 = u64 [s1 + 0x150]\n 16023: u64 [a1 + 0x3f0] = a0\n 16027: a0 = u64 [s1 + 0x198]\n 16031: u64 [a1 + 0x3e8] = a0\n 16035: a0 = u64 [s1 + 0x158]\n 16039: u64 [a1 + 0x420] = a0\n 16043: a0 = u64 [s1 + 0x160]\n 16047: u64 [a1 + 0x418] = a0\n 16051: a0 = u64 [s1 + 0x168]\n 16055: u64 [a1 + 0x410] = a0\n 16059: a0 = u64 [s1 + 0x170]\n 16063: u64 [a1 + 0x408] = a0\n 16067: a0 = a1 + 0x400\n 16071: u64 [a0 + 0x40] = a3\n 16074: u64 [a0 + 0x38] = a2\n 16077: u64 [a0 + 0x30] = a4\n 16080: t0 = a1\n 16082: a0 = s1 + 0x1da0\n 16086: a1 = s1 + 0x1d80\n 16090: a2 = s1 + 0x1d60\n 16094: a3 = s1 + 0x1d40\n 16098: a4 = s1 + 0x1d20\n 16102: u64 [t0 + 0x428] = a5\n 16106: ra = 530, jump @1192\n      : @539 [@dyn 265] (gas: 13)\n 16112: a1 = s1 + 0x100\n 16116: a4 = u64 [a1 + 0xa8]\n 16120: a2 = u64 [a1 + 0x90]\n 16124: a0 = u64 [a1 + 0xb8]\n 16128: a0 = a0 | a4\n 16131: a3 = u64 [a1 + 0xb0]\n 16135: a1 = a2 | a3\n 16138: a1 = a1 | a0\n 16141: a1 = a1 >> 0x20\n 16144: a0 = a0 | a3\n 16147: a0 = a0 << 0x20\n 16150: a0 = a0 | a1\n 16153: jump @541 if a0 == 0\n      : @540 (gas: 1)\n 16156: jump @912\n      : @541 (gas: 34)\n 16159: t0 = a3\n 16161: a1 = s1 + 0x1958\n 16165: a5 = a1 + 0x400\n 16169: a0 = u64 [a5 + 0x50]\n 16172: a3 = u64 [a5 + 0x60]\n 16175: u64 [s1 + 0x1a0] = a3\n 16179: t1 = u64 [a1 + 0x448]\n 16183: a3 = u64 [a5 + 0x58]\n 16186: t2 = a0 ^ a4\n 16189: a5 = a0 <u a4\n 16192: ra = t1 <u a2\n 16195: a5 = ra if t2 == 0\n 16198: a1 = a3 - t0\n 16201: t2 = a1 - a5\n 16204: a1 = a1 <u a5\n 16207: u64 [s1 + 0x198] = a1\n 16211: a3 = a3 <u t0\n 16214: a5 = u64 [s1 + 0x1b8]\n 16218: a1 = u64 [s1 + 0x1a0]\n 16222: a5 = a1 - a5\n 16225: a5 = a5 - a3\n 16228: a1 = u64 [s1 + 0x198]\n 16232: a5 = a5 - a1\n 16235: a0 = a0 - a4\n 16238: a0 = a0 - ra\n 16241: a1 = t1 - a2\n 16244: a0 = a0 | a5\n 16247: a3 = a1 | t2\n 16250: a3 = a3 | a0\n 16253: a0 = a0 | t2\n 16256: a3 = a3 >> 0x20\n 16259: a0 = a0 << 0x20\n 16262: a0 = a0 | a3\n 16265: jump @543 if a0 == 0\n      : @542 (gas: 1)\n 16268: jump @912\n      : @543 (gas: 4)\n 16271: a0 = a2\n 16273: u64 [s1 + 0x1b8] = a1\n 16277: ra = 0x48c\n 16281: jump @15\n      : @544 (gas: 8)\n 16284: u64 [a4 + 64] = 0\n 16287: u64 [a4 + 56] = 0\n 16290: u64 [a4 + 48] = 0\n 16293: u64 [a4 + 40] = 0\n 16296: a0 = s1 + 0x4000\n 16300: i32 a0 = a0 + 0x180\n 16304: ecalli 14 // 'value_transferred'\n 16306: fallthrough\n      : @545 (gas: 9)\n 16307: a3 = s1 + 0x4158\n 16311: a0 = u64 [a3 + 0x38]\n 16314: a1 = u64 [a3 + 0x40]\n 16317: a2 = u64 [a3 + 0x30]\n 16320: a3 = u64 [a3 + 0x28]\n 16323: a1 = a1 | a2\n 16326: a0 = a0 | a3\n 16329: a0 = a0 | a1\n 16332: jump @547 if a0 == 0\n      : @546 (gas: 1)\n 16335: jump @1069\n      : @547 (gas: 3)\n 16338: a0 = u64 [s1 + 0x1b8]\n 16342: a0 = i32 [a0]\n 16344: jump @549 if a0 >u 3\n      : @548 (gas: 1)\n 16348: jump @1070\n      : @549 (gas: 3)\n 16351: a0 = s1 + 0x30a0\n 16355: a1 = 0x40\n 16358: ra = 532, jump @2\n      : @550 [@dyn 266] (gas: 7)\n 16364: a3 = s1 + 0x2958\n 16368: a5 = a3 + 0x700\n 16372: a4 = u64 [a5 + 0x60]\n 16375: a1 = u64 [a5 + 0x58]\n 16378: a2 = u64 [a5 + 0x50]\n 16381: a0 = u64 [a5 + 0x48]\n 16384: t0 = 534, jump @1438\n      : @551 [@dyn 267] (gas: 1)\n 16390: jump @553 if a1 == 0\n      : @552 (gas: 1)\n 16393: jump @912\n      : @553 (gas: 7)\n 16396: u64 [a3 + 1856] = 0\n 16400: u64 [a3 + 1848] = 0\n 16404: u64 [a3 + 1832] = 0x69780\n 16411: a1 = s1 + 0x3080\n 16415: u64 [a3 + 1840] = 0\n 16419: u64 [s1 + 0x1b8] = a0\n 16423: ra = 536, jump @4\n      : @554 [@dyn 268] (gas: 3)\n 16429: a1 = 0x20\n 16432: a0 = u64 [s1 + 0x1b8]\n 16436: ra = 538, jump @15\n      : @555 [@dyn 269] (gas: 5)\n 16442: i32 a1 = a0 + 0\n 16444: a2 = 0x20\n 16447: a0 = 0\n 16449: ecalli 11 // 'seal_return'\n 16451: fallthrough\n      : @556 (gas: 9)\n 16452: a1 = s1 + 0x100\n 16456: a2 = u64 [a1 + 0x80]\n 16460: a4 = u64 [a1 + 0x70]\n 16463: a0 = a2 | a4\n 16466: a3 = u64 [a1 + 0x78]\n 16469: a5 = u64 [a1 + 0x68]\n 16472: a1 = a3 | a5\n 16475: a0 = a0 | a1\n 16478: jump @558 if a0 == 0\n      : @557 (gas: 1)\n 16481: jump @692\n      : @558 (gas: 3)\n 16484: a0 = s1 + 0x700\n 16488: a1 = 0x40\n 16491: ra = 540, jump @2\n      : @559 [@dyn 270] (gas: 13)\n 16497: a1 = s1 + 0x700\n 16501: a4 = u64 [a1 + 0x18]\n 16504: a5 = u64 [a1 + 0x10]\n 16507: a3 = u64 [a1 + 0x8]\n 16510: a0 = u64 [a1]\n 16512: a2 = a3 | a4\n 16515: a1 = a0 | a5\n 16518: a1 = a1 | a2\n 16521: a1 = a1 >> 0x20\n 16524: a2 = a2 | a5\n 16527: a2 = a2 << 0x20\n 16530: a1 = a1 | a2\n 16533: jump @561 if a1 == 0\n      : @560 (gas: 1)\n 16536: jump @912\n      : @561 (gas: 11)\n 16539: u64 [s1 + 1776] = 0\n 16543: u64 [s1 + 1768] = 0\n 16547: u64 [s1 + 1760] = 0\n 16551: a2 = 0x8c379a000000000\n 16561: a1 = s1 + 0x6e0\n 16565: u64 [s1 + 0x6f8] = a2\n 16569: u64 [s1 + 0x1b8] = a0\n 16573: u64 [s1 + 0x1b0] = a3\n 16577: u64 [s1 + 0x1a8] = a4\n 16581: u64 [s1 + 0x1a0] = a5\n 16585: ra = 542, jump @4\n      : @562 [@dyn 271] (gas: 6)\n 16591: a5 = s1 + 0x100\n 16595: a1 = u64 [a5 + 0xb8]\n 16599: a0 = u64 [a5 + 0xa8]\n 16603: a3 = u64 [a5 + 0xa0]\n 16607: a3 = a3 | a0\n 16610: t0 = 544, jump @1416\n      : @563 [@dyn 272] (gas: 1)\n 16616: jump @565 if a0 != 0\n      : @564 (gas: 1)\n 16619: jump @912\n      : @565 (gas: 9)\n 16622: i32 a0 = a1 + 0x4\n 16625: u64 [s1 + 1752] = 0\n 16629: u64 [s1 + 1744] = 0\n 16633: u64 [s1 + 1728] = 0x20\n 16638: a1 = s1 + 0x6c0\n 16642: u64 [s1 + 1736] = 0\n 16646: u64 [s1 + 0x1a8] = a3\n 16650: u64 [s1 + 0x1a0] = a4\n 16654: ra = 546, jump @4\n      : @566 [@dyn 273] (gas: 1)\n 16660: t0 = 548, jump @1417\n      : @567 [@dyn 274] (gas: 1)\n 16666: jump @569 if a0 != 0\n      : @568 (gas: 1)\n 16669: jump @912\n      : @569 (gas: 7)\n 16672: i32 a0 = a1 + 0x24\n 16675: u64 [s1 + 1720] = 0\n 16679: u64 [s1 + 1712] = 0\n 16683: u64 [s1 + 1696] = 0x1d\n 16688: a1 = s1 + 0x6a0\n 16692: u64 [s1 + 1704] = 0\n 16696: ra = 550, jump @4\n      : @570 [@dyn 275] (gas: 1)\n 16702: t0 = 552, jump @1453\n      : @571 [@dyn 276] (gas: 1)\n 16708: jump @573 if a0 != 0\n      : @572 (gas: 1)\n 16711: jump @912\n      : @573 (gas: 13)\n 16714: i32 a0 = a2 + 0x44\n 16717: a1 = u64 [0x200f8]\n 16722: a2 = u64 [0x20100]\n 16727: a3 = u64 [0x20108]\n 16732: a4 = s1 + 0x600\n 16736: u64 [a4 + 0x98] = a1\n 16740: u64 [a4 + 0x90] = a2\n 16744: u64 [a4 + 0x88] = a3\n 16748: a2 = 0x6864726177000000\n 16758: a1 = s1 + 0x680\n 16762: u64 [a4 + 0x80] = a2\n 16766: ra = 0x3a8\n 16770: jump @4\n      : @574 (gas: 11)\n 16773: u64 [a2 + 2016] = 0\n 16777: u64 [a2 + 2008] = 0\n 16781: u64 [a2 + 2000] = 0\n 16785: u64 [a2 + 1992] = 0\n 16789: a0 = s1 + 0x4000\n 16793: i32 a0 = a0 + 0x120\n 16797: ra = 0x22a\n 16801: ecalli 14 // 'value_transferred'\n 16803: a0 = 0x3958\n 16807: t0 = 0x22c\n 16811: jump @1469\n      : @575 [@dyn 277] (gas: 2)\n 16814: a0 = 0x3958\n 16818: t0 = 556, jump @1469\n      : @576 [@dyn 278] (gas: 1)\n 16824: jump @578 if a0 == 0\n      : @577 (gas: 1)\n 16827: jump @1071\n      : @578 (gas: 3)\n 16830: a0 = u64 [s1 + 0x1b8]\n 16834: a0 = i32 [a0]\n 16836: jump @580 if a0 >u 67\n      : @579 (gas: 1)\n 16840: jump @1072\n      : @580 (gas: 32)\n 16843: a0 = s1 + 0x4000\n 16847: i32 a0 = a0 + 0x140\n 16851: a1 = 0x24\n 16854: ecalli 2 // 'call_data_load'\n 16856: a1 = s1 + 0x4158\n 16860: a0 = u64 [a1]\n 16862: u64 [s1 + 0x1a0] = a0\n 16866: a2 = a1 + 0xffffffffffffff00\n 16870: a0 = u64 [a2 + 0xf8]\n 16874: u64 [s1 + 0x1a8] = a0\n 16878: a0 = u64 [a2 + 0xf0]\n 16882: u64 [s1 + 0x1b0] = a0\n 16886: a0 = u64 [a2 + 0xe8]\n 16890: u64 [s1 + 0x1b8] = a0\n 16894: a0 = s1 + 0x4000\n 16898: i32 a0 = a0 + 0x160\n 16902: a1 = 0x4\n 16905: ecalli 2 // 'call_data_load'\n 16907: a3 = s1 + 0x4158\n 16911: a0 = u64 [a3 + 0x8]\n 16914: a1 = u64 [a3 + 0x10]\n 16917: a2 = u64 [a3 + 0x18]\n 16920: a3 = u64 [a3 + 0x20]\n 16923: a4 = s1 + 0x2958\n 16927: a5 = a4 + 0x700\n 16931: u64 [a5 + 0x20] = a3\n 16934: u64 [a5 + 0x18] = a2\n 16937: u64 [a5 + 0x10] = a1\n 16940: a1 = s1 + 0x3060\n 16944: u64 [a5 + 0x8] = a0\n 16947: a0 = 0\n 16949: ra = 558, jump @4\n      : @581 [@dyn 279] (gas: 3)\n 16955: t0 = 0x230\n 16959: a1 = s1 + 0x2958\n 16963: fallthrough\n      : @582 [@dyn 280] (gas: 8)\n 16964: u64 [a1 + 1792] = 0\n 16968: u64 [a1 + 1784] = 0\n 16972: u64 [a1 + 1768] = 0x4\n 16977: a2 = a1\n 16979: a0 = 0x20\n 16982: a1 = s1 + 0x3040\n 16986: u64 [a2 + 1776] = 0\n 16990: ra = 562, jump @4\n      : @583 [@dyn 281] (gas: 6)\n 16996: a0 = sp + 0xffffffffffffffe0\n 16999: a0 = a0 & 0xffffffffffffffe0\n 17002: u64 [s1 + 0x180] = a0\n 17006: sp = a0\n 17008: a1 = i32 [0x20154]\n 17013: jump @585 if a1 >u 63\n      : @584 (gas: 2)\n 17017: u32 [0x20154] = 0x40\n 17023: fallthrough\n      : @585 (gas: 14)\n 17024: a0 = sp + 0xffffffffffffffe0\n 17027: a2 = a0 & 0xffffffffffffffe0\n 17030: u64 [s1 + 0x198] = a2\n 17034: sp = a2\n 17036: a0 = 0x20160\n 17041: i32 a0 = a0 + 0\n 17043: i32 a2 = a2 + 0\n 17045: a1 = 0x40\n 17048: u64 [s1 + 0x170] = a0\n 17052: ra = 0x234\n 17056: ecalli 7 // 'hash_keccak_256'\n 17058: a3 = u64 [s1 + 0x198]\n 17062: t0 = 0x236\n 17066: jump @1454\n      : @586 [@dyn 282] (gas: 2)\n 17069: a3 = u64 [s1 + 0x198]\n 17073: t0 = 566, jump @1454\n      : @587 [@dyn 283] (gas: 10)\n 17079: u64 [s1 + 0x178] = a3\n 17083: u64 [a1 + 0x18] = a3\n 17086: u64 [s1 + 0x188] = a2\n 17090: u64 [a1 + 0x10] = a2\n 17093: u64 [s1 + 0x190] = a4\n 17097: u64 [a1 + 0x8] = a4\n 17100: u64 [s1 + 0x198] = a0\n 17104: u64 [a1] = a0\n 17106: a0 = s1 + 0x3020\n 17110: ra = 568, jump @6\n      : @588 [@dyn 284] (gas: 22)\n 17116: ra = s1 + 0x2958\n 17120: a2 = ra + 0x600\n 17124: a0 = u64 [a2 + 0xd0]\n 17128: a1 = u64 [a2 + 0xc8]\n 17132: t2 = u64 [ra + 0x6d8]\n 17136: a3 = u64 [a2 + 0xe0]\n 17140: t1 = u64 [s1 + 0x1b0]\n 17144: a4 = t1 ^ a0\n 17147: a0 = t1 <u a0\n 17150: t0 = u64 [s1 + 0x1b8]\n 17154: a1 = t0 <u a1\n 17157: a1 = a0 if a4 != 0\n 17160: a5 = u64 [s1 + 0x1a0]\n 17164: a0 = a5 ^ a3\n 17167: a2 = a5 <u a3\n 17170: a3 = u64 [s1 + 0x1a8]\n 17174: a4 = a3 <u t2\n 17177: a4 = a2 if a0 != 0\n 17180: a2 = a3 ^ t2\n 17183: a0 = a0 | a2\n 17186: a1 = a4 if a0 != 0\n 17189: jump @590 if a1 != 0\n      : @589 (gas: 1)\n 17192: jump @1073\n      : @590 (gas: 21)\n 17195: a0 = sp + 0xffffffffffffffe0\n 17198: a0 = a0 & 0xffffffffffffffe0\n 17201: u64 [s1 + 0x180] = a0\n 17205: sp = a0\n 17207: a4 = ra + 0x600\n 17211: u64 [a4 + 0x60] = a5\n 17214: u64 [a4 + 0x58] = a3\n 17217: u64 [ra + 0x650] = t1\n 17221: u64 [ra + 0x648] = t0\n 17225: a0 = u64 [s1 + 0x178]\n 17229: u64 [a4 + 0x80] = a0\n 17233: a0 = u64 [s1 + 0x188]\n 17237: u64 [a4 + 0x78] = a0\n 17240: a0 = u64 [s1 + 0x190]\n 17244: u64 [a4 + 0x70] = a0\n 17247: a0 = s1 + 0x2fe0\n 17251: a1 = s1 + 0x2fc0\n 17255: a2 = s1 + 0x2fa0\n 17259: a3 = u64 [s1 + 0x198]\n 17263: u64 [a4 + 0x68] = a3\n 17266: ra = 570, jump @1200\n      : @591 [@dyn 285] (gas: 28)\n 17272: a0 = s1 + 0x2958\n 17276: a0 = u64 [a0 + 0x6c0]\n 17280: u64 [s1 + 0x178] = a0\n 17284: a0 = s1 + 0x2958\n 17288: a0 = u64 [a0 + 0x6b8]\n 17292: u64 [s1 + 0x190] = a0\n 17296: a0 = s1 + 0x2958\n 17300: a0 = u64 [a0 + 0x6b0]\n 17304: u64 [s1 + 0x188] = a0\n 17308: a0 = s1 + 0x2958\n 17312: a0 = u64 [a0 + 0x6a8]\n 17316: u64 [s1 + 0x198] = a0\n 17320: a0 = s1 + 0x2958\n 17324: a0 = u64 [a0 + 0x698]\n 17328: a1 = s1 + 0x2958\n 17332: a1 = u64 [a1 + 0x6a0]\n 17336: a2 = s1 + 0x2958\n 17340: a2 = u64 [a2 + 0x688]\n 17344: a3 = s1 + 0x2958\n 17348: a3 = u64 [a3 + 0x690]\n 17352: a4 = u64 [s1 + 0x180]\n 17356: u64 [a4 + 0x10] = a0\n 17359: u64 [a4 + 0x18] = a1\n 17362: u64 [a4] = a2\n 17364: u64 [a4 + 0x8] = a3\n 17367: a1 = a4\n 17369: a0 = s1 + 0x2f80\n 17373: ra = 572, jump @6\n      : @592 [@dyn 286] (gas: 16)\n 17379: a0 = s1 + 0x2958\n 17383: a0 = u64 [a0 + 0x640]\n 17387: a1 = s1 + 0x100\n 17391: u64 [a1 + 0xb8] = a0\n 17395: a0 = s1 + 0x2958\n 17399: a0 = u64 [a0 + 0x638]\n 17403: u64 [a1 + 0xb0] = a0\n 17407: a0 = s1 + 0x2958\n 17411: a0 = u64 [a0 + 0x630]\n 17415: u64 [a1 + 0xa0] = a0\n 17419: a0 = s1 + 0x2958\n 17423: a0 = u64 [a0 + 0x628]\n 17427: u64 [a1 + 0xa8] = a0\n 17431: a0 = s1 + 0x2f60\n 17435: a1 = 0x40\n 17438: ra = 574, jump @2\n      : @593 [@dyn 287] (gas: 14)\n 17444: a3 = s1 + 0x2958\n 17448: a4 = a3 + 0x600\n 17452: a0 = u64 [a4 + 0x20]\n 17455: a1 = u64 [a4 + 0x18]\n 17458: a2 = u64 [a4 + 0x10]\n 17461: a3 = u64 [a4 + 0x8]\n 17464: a0 = a0 | a2\n 17467: a2 = a3 | a1\n 17470: a2 = a2 | a0\n 17473: a2 = a2 >> 0x20\n 17476: a0 = a0 | a1\n 17479: a0 = a0 << 0x20\n 17482: a0 = a0 | a2\n 17485: jump @595 if a0 == 0\n      : @594 (gas: 1)\n 17488: jump @912\n      : @595 (gas: 30)\n 17491: a0 = u64 [s1 + 0x198]\n 17495: a2 = a0 >> 0x3d\n 17498: a5 = u64 [s1 + 0x188]\n 17502: a1 = a5 << 0x3\n 17505: t1 = a1 | a2\n 17508: a4 = u64 [s1 + 0x190]\n 17512: a1 = a4 >> 0x3d\n 17515: a2 = u64 [s1 + 0x178]\n 17519: a2 = a2 << 0x3\n 17522: a1 = a1 | a2\n 17525: a2 = a5 >> 0x3d\n 17528: u64 [s1 + 0x188] = a3\n 17532: a3 = a4 << 0x3\n 17535: a2 = a2 | a3\n 17538: a3 = a0 << 0x3\n 17541: u64 [s1 + 0x190] = a3\n 17545: a5 = a2 >u 0\n 17547: a4 = a1 >u 0\n 17549: a4 = a5 if a1 == 0\n 17552: t0 = t1 >u 0\n 17554: a5 = a3 <u 0x100\n 17558: a5 = a5 ^ 0x1\n 17561: a5 = t0 if t1 != 0\n 17564: a1 = a1 | a2\n 17567: a5 = a4 if a1 != 0\n 17570: u64 [s1 + 0x180] = a5\n 17574: i32 a2 = a3 + 0xffffffffffffff80\n 17577: a0 = u64 [s1 + 0x1b0]\n 17581: a1 = u64 [s1 + 0x1b8]\n 17585: ra = 576, jump @1474\n      : @596 [@dyn 288] (gas: 8)\n 17591: u64 [s1 + 0x178] = a0\n 17595: u64 [s1 + 0x170] = a1\n 17599: a0 = u64 [s1 + 0x198]\n 17603: i32 a2 = a0 << 0x3\n 17606: u64 [s1 + 0x198] = a2\n 17610: a0 = u64 [s1 + 0x1a8]\n 17614: a1 = u64 [s1 + 0x1a0]\n 17618: ra = 578, jump @1474\n      : @597 [@dyn 289] (gas: 7)\n 17624: u64 [s1 + 0x160] = a0\n 17628: u64 [s1 + 0x168] = a1\n 17632: a1 = u64 [s1 + 0x190]\n 17636: i32 a2 = 0x80 - a1\n 17640: a0 = u64 [s1 + 0x1b0]\n 17644: a1 = u64 [s1 + 0x1b8]\n 17648: ra = 580, jump @1479\n      : @598 [@dyn 290] (gas: 21)\n 17654: a2 = u64 [s1 + 0x168]\n 17658: a2 = a2 | a1\n 17661: a1 = u64 [s1 + 0x190]\n 17665: a3 = a1 <u 0x80\n 17669: u64 [s1 + 0x168] = a3\n 17673: a4 = u64 [s1 + 0x170]\n 17677: a2 = a4 if a3 == 0\n 17680: a4 = u64 [s1 + 0x1a0]\n 17684: a2 = a4 if a1 == 0\n 17687: u64 [s1 + 0x1a0] = a2\n 17691: a2 = u64 [s1 + 0x160]\n 17695: a0 = a0 | a2\n 17698: a2 = u64 [s1 + 0x178]\n 17702: a0 = a2 if a3 == 0\n 17705: a2 = u64 [s1 + 0x1a8]\n 17709: a0 = a2 if a1 == 0\n 17712: u64 [s1 + 0x1a8] = a0\n 17716: a0 = u64 [s1 + 0x1b0]\n 17720: a1 = u64 [s1 + 0x1b8]\n 17724: a2 = u64 [s1 + 0x198]\n 17728: ra = 582, jump @1474\n      : @599 [@dyn 291] (gas: 21)\n 17734: a1 = 0\n 17736: a2 = u64 [s1 + 0x168]\n 17740: a0 = 0 if a2 == 0\n 17742: a0 = a0 << 0x20\n 17745: a0 = a0 >> 0x20\n 17748: a2 = u64 [s1 + 0x180]\n 17752: a4 = u64 [s1 + 0x1a8]\n 17756: a4 = 0 if a2 != 0\n 17758: a3 = u64 [s1 + 0x1a0]\n 17762: a3 = 0 if a2 != 0\n 17764: a0 = 0 if a2 != 0\n 17766: a1 = 0 if a2 == 0\n 17768: a2 = s1 + 0x2958\n 17772: u64 [a2 + 0x600] = a1\n 17776: a5 = a2 + 0x500\n 17780: u64 [a5 + 0xf8] = a0\n 17784: u64 [a5 + 0xf0] = a3\n 17788: a1 = s1 + 0x2f40\n 17792: u64 [a5 + 0xe8] = a4\n 17796: a0 = u64 [s1 + 0x188]\n 17800: ra = 584, jump @4\n      : @600 [@dyn 292] (gas: 4)\n 17806: a1 = 0x20\n 17809: a0 = u64 [s1 + 0x188]\n 17813: ra = 0x21a\n 17817: jump @15\n      : @601 (gas: 1)\n 17820: jump @603 if a0 == 1659016731\n      : @602 (gas: 1)\n 17827: jump @1074\n      : @603 (gas: 11)\n 17830: u64 [a3 + 2016] = 0\n 17834: u64 [a3 + 2008] = 0\n 17838: u64 [a3 + 2000] = 0\n 17842: u64 [a3 + 1992] = 0\n 17846: a0 = s1 + 0x4000\n 17850: i32 a0 = a0 + 0xfffffffffffff920\n 17854: ra = 0x24a\n 17858: ecalli 14 // 'value_transferred'\n 17860: a0 = 0x3158\n 17864: t0 = 0x24c\n 17868: jump @1469\n      : @604 [@dyn 293] (gas: 2)\n 17871: a0 = 0x3158\n 17875: t0 = 588, jump @1469\n      : @605 [@dyn 294] (gas: 1)\n 17881: jump @607 if a0 == 0\n      : @606 (gas: 1)\n 17884: jump @1081\n      : @607 (gas: 10)\n 17887: a0 = u64 [s1 + 0x1b8]\n 17891: a0 = u32 [a0]\n 17893: a2 = s1 + 0x1140\n 17897: u64 [a2 + 536] = 0\n 17901: u64 [a2 + 528] = 0\n 17905: u64 [a2 + 0x200] = a0\n 17909: a0 = s1 + 0x1360\n 17913: a1 = s1 + 0x1340\n 17917: u64 [a2 + 520] = 0\n 17921: ra = 590, jump @1185\n      : @608 [@dyn 295] (gas: 22)\n 17927: a4 = s1 + 0x1140\n 17931: a5 = a4 + 0x200\n 17935: a0 = u64 [a5 + 0x50]\n 17938: a1 = s1 + 0x100\n 17942: u64 [a1 + 0xa8] = a0\n 17946: a0 = u64 [a5 + 0x48]\n 17949: u64 [a1 + 0xb0] = a0\n 17953: a0 = u64 [a5 + 0x40]\n 17956: u64 [a1 + 0xb8] = a0\n 17960: a0 = u64 [a5 + 0x20]\n 17963: a1 = u64 [a5 + 0x28]\n 17966: a2 = u64 [a5 + 0x30]\n 17969: a3 = u64 [a5 + 0x38]\n 17972: a5 = a4 + 0x100\n 17976: u64 [a5 + 0xf8] = a3\n 17980: u64 [a5 + 0xf0] = a2\n 17984: u64 [a5 + 0xe8] = a1\n 17988: a2 = s1 + 0x1140\n 17992: a1 = s1 + 0x1320\n 17996: u64 [a2 + 0x1e0] = a0\n 18000: a0 = 0\n 18002: ra = 592, jump @4\n      : @609 [@dyn 296] (gas: 3)\n 18008: t0 = 0x252\n 18012: a1 = s1 + 0x1140\n 18016: fallthrough\n      : @610 [@dyn 297] (gas: 8)\n 18017: u64 [a1 + 472] = 0\n 18021: u64 [a1 + 464] = 0\n 18025: u64 [a1 + 448] = 0x3\n 18030: a2 = s1 + 0x1140\n 18034: a0 = 0x20\n 18037: a1 = s1 + 0x1300\n 18041: u64 [a2 + 456] = 0\n 18045: ra = 596, jump @4\n      : @611 [@dyn 298] (gas: 3)\n 18051: a1 = 0x20154\n 18056: a0 = i32 [0x20154]\n 18061: jump @613 if a0 >u 63\n      : @612 (gas: 2)\n 18065: u32 [0x20154] = 0x40\n 18071: fallthrough\n      : @613 (gas: 15)\n 18072: a0 = sp + 0xffffffffffffffe0\n 18075: a2 = a0 & 0xffffffffffffffe0\n 18078: u64 [s1 + 0x190] = a2\n 18082: sp = a2\n 18084: a0 = 0x20160\n 18089: i32 a0 = a0 + 0\n 18091: i32 a2 = a2 + 0\n 18093: u64 [s1 + 0x1a0] = a1\n 18097: a1 = 0x40\n 18100: u64 [s1 + 0x198] = a0\n 18104: ra = 0x256\n 18108: ecalli 7 // 'hash_keccak_256'\n 18110: a3 = u64 [s1 + 0x190]\n 18114: t0 = 0x258\n 18118: jump @1434\n      : @614 [@dyn 299] (gas: 2)\n 18121: a3 = u64 [s1 + 0x190]\n 18125: t0 = 600, jump @1434\n      : @615 [@dyn 300] (gas: 16)\n 18131: u64 [s1 + 0x190] = a0\n 18135: sp = a0\n 18137: a0 = u64 [s1 + 0x1a8]\n 18141: a0 = a0 << 0x20\n 18144: a0 = a0 >> 0x20\n 18147: a2 = s1 + 0x1140\n 18151: u64 [a2 + 440] = 0\n 18155: a3 = a2 + 0x100\n 18159: u64 [a3 + 0xb0] = a0\n 18163: a0 = u64 [s1 + 0x1b0]\n 18167: u64 [a3 + 0xa8] = a0\n 18171: a1 = s1 + 0x12e0\n 18175: a0 = u64 [s1 + 0x1b8]\n 18179: u64 [a3 + 0xa0] = a0\n 18183: a0 = 0\n 18185: ra = 602, jump @4\n      : @616 [@dyn 301] (gas: 11)\n 18191: a0 = u64 [s1 + 0x170]\n 18195: a1 = s1 + 0x1140\n 18199: a2 = a1 + 0x100\n 18203: u64 [a2 + 0x98] = a0\n 18207: a0 = u64 [s1 + 0x178]\n 18211: u64 [a2 + 0x90] = a0\n 18215: a0 = u64 [s1 + 0x180]\n 18219: u64 [a2 + 0x88] = a0\n 18223: t0 = 0x25c\n 18227: a3 = s1 + 0x1140\n 18231: fallthrough\n      : @617 [@dyn 302] (gas: 5)\n 18232: a0 = 0x20\n 18235: a1 = s1 + 0x12c0\n 18239: a2 = u64 [s1 + 0x188]\n 18243: u64 [a3 + 0x180] = a2\n 18247: ra = 606, jump @4\n      : @618 [@dyn 303] (gas: 3)\n 18253: a1 = u64 [s1 + 0x1a0]\n 18257: a0 = i32 [a1]\n 18259: jump @620 if a0 >u 63\n      : @619 (gas: 2)\n 18263: u32 [a1 + 0] = 0x40\n 18266: fallthrough\n      : @620 (gas: 4)\n 18267: a0 = sp + 0xffffffffffffffe0\n 18270: a0 = a0 & 0xffffffffffffffe0\n 18273: u64 [s1 + 0x1b8] = a0\n 18277: t0 = 608, jump @1430\n      : @621 [@dyn 304] (gas: 4)\n 18283: ra = 0x262\n 18287: ecalli 7 // 'hash_keccak_256'\n 18289: t0 = 0x264\n 18293: jump @1425\n      : @622 [@dyn 305] (gas: 1)\n 18296: t0 = 612, jump @1425\n      : @623 [@dyn 306] (gas: 2)\n 18302: a0 = s1 + 0x12a0\n 18306: ra = 614, jump @6\n      : @624 [@dyn 307] (gas: 11)\n 18312: a1 = s1 + 0x1140\n 18316: a2 = a1 + 0x100\n 18320: a0 = u64 [a2 + 0x78]\n 18323: u64 [s1 + 0x198] = a0\n 18327: a0 = u64 [a2 + 0x70]\n 18330: u64 [s1 + 0x190] = a0\n 18334: a0 = u64 [a2 + 0x68]\n 18337: u64 [s1 + 0x188] = a0\n 18341: a0 = u64 [a2 + 0x60]\n 18344: u64 [s1 + 0x180] = a0\n 18348: t0 = 616, jump @1462\n      : @625 [@dyn 308] (gas: 16)\n 18354: a3 = a2 + 0x700\n 18358: u64 [a3 + 0xf0] = a1\n 18362: a1 = a1 | a0\n 18365: u64 [a3 + 0xe8] = a0\n 18369: a0 = a1 <u 0x1\n 18372: a1 = u64 [s1 + 0x1a0]\n 18376: a0 = a0 + a1\n 18379: u64 [a3 + 0xf8] = a0\n 18383: a0 = a0 <u a1\n 18386: a1 = u64 [s1 + 0x1b8]\n 18390: a0 = a0 + a1\n 18393: a1 = s1 + 0x3958\n 18397: u64 [a1] = a0\n 18399: a0 = s1 + 0x1280\n 18403: a1 = s1 + 0x3940\n 18407: ra = 618, jump @6\n      : @626 [@dyn 309] (gas: 18)\n 18413: a1 = s1 + 0x1140\n 18417: a2 = a1 + 0x100\n 18421: a0 = u64 [a2 + 0x58]\n 18424: u64 [s1 + 0x178] = a0\n 18428: a0 = u64 [a2 + 0x50]\n 18431: u64 [s1 + 0x170] = a0\n 18435: a0 = u64 [a2 + 0x48]\n 18438: u64 [s1 + 0x168] = a0\n 18442: a0 = u64 [a2 + 0x40]\n 18445: u64 [s1 + 0x160] = a0\n 18449: a1 = u64 [s1 + 0x1a8]\n 18453: a0 = a1 + 0x2\n 18456: a1 = a0 <u a1\n 18459: a3 = u64 [s1 + 0x1b0]\n 18463: a2 = a3 + a1\n 18466: a3 = a2 <u a3\n 18469: a3 = a1 if a1 == 0\n 18472: t0 = 620, jump @1465\n      : @627 [@dyn 310] (gas: 8)\n 18478: a4 = s1 + 0x3958\n 18482: u64 [a4 + 0x20] = a1\n 18485: u64 [a4 + 0x18] = a3\n 18488: u64 [a4 + 0x10] = a2\n 18491: u64 [a4 + 0x8] = a0\n 18494: a0 = s1 + 0x1260\n 18498: a1 = s1 + 0x3960\n 18502: ra = 622, jump @6\n      : @628 [@dyn 311] (gas: 10)\n 18508: a5 = s1 + 0x1140\n 18512: a0 = u64 [a5 + 0x138]\n 18516: u64 [s1 + 0x158] = a0\n 18520: a0 = u64 [a5 + 0x130]\n 18524: u64 [s1 + 0x150] = a0\n 18528: a1 = u64 [s1 + 0x1a8]\n 18532: a0 = a1 + 0x3\n 18535: a1 = a0 <u a1\n 18538: a3 = u64 [s1 + 0x1b0]\n 18542: t0 = 624, jump @1463\n      : @629 [@dyn 312] (gas: 3)\n 18548: a1 = u64 [a5 + 0x128]\n 18552: u64 [s1 + 0x1a8] = a1\n 18556: t0 = 626, jump @1465\n      : @630 [@dyn 313] (gas: 10)\n 18562: a4 = u64 [a5 + 0x120]\n 18566: u64 [s1 + 0x1a0] = a4\n 18570: a4 = s1 + 0x3958\n 18574: u64 [a4 + 0x40] = a1\n 18577: u64 [a4 + 0x38] = a3\n 18580: u64 [a4 + 0x30] = a2\n 18583: u64 [a4 + 0x28] = a0\n 18586: a0 = s1 + 0x1240\n 18590: a1 = s1 + 0x3980\n 18594: ra = 628, jump @6\n      : @631 [@dyn 314] (gas: 6)\n 18600: a0 = s1 + 0x1140\n 18604: a0 = u64 [a0 + 0x100]\n 18608: u64 [s1 + 0x148] = a0\n 18612: a0 = s1 + 0x1220\n 18616: a1 = 0x40\n 18619: ra = 630, jump @2\n      : @632 [@dyn 315] (gas: 13)\n 18625: a2 = s1 + 0x1140\n 18629: t0 = u64 [a2 + 0xf8]\n 18633: a5 = u64 [a2 + 0xf0]\n 18637: a4 = u64 [a2 + 0xe8]\n 18641: a3 = u64 [a2 + 0xe0]\n 18645: a0 = a4 | t0\n 18648: a1 = a3 | a5\n 18651: a1 = a1 | a0\n 18654: a1 = a1 >> 0x20\n 18657: a0 = a0 | a5\n 18660: a0 = a0 << 0x20\n 18663: a0 = a0 | a1\n 18666: jump @634 if a0 == 0\n      : @633 (gas: 1)\n 18669: jump @912\n      : @634 (gas: 15)\n 18672: a0 = u64 [s1 + 0x180]\n 18676: u64 [a2 + 0xc0] = a0\n 18680: a0 = u64 [s1 + 0x188]\n 18684: u64 [a2 + 0xc8] = a0\n 18688: a0 = u64 [s1 + 0x190]\n 18692: u64 [a2 + 0xd0] = a0\n 18696: a1 = s1 + 0x1200\n 18700: a0 = u64 [s1 + 0x198]\n 18704: u64 [a2 + 0xd8] = a0\n 18708: a0 = a3\n 18710: u64 [s1 + 0x1b8] = a3\n 18714: u64 [s1 + 0x1b0] = a4\n 18718: u64 [s1 + 0x190] = t0\n 18722: u64 [s1 + 0x198] = a5\n 18726: ra = 632, jump @4\n      : @635 [@dyn 316] (gas: 12)\n 18732: a5 = s1 + 0x100\n 18736: a1 = u64 [a5 + 0xb8]\n 18740: a0 = u64 [a5 + 0x98]\n 18744: a4 = u64 [a5 + 0x90]\n 18748: a4 = a4 | a0\n 18751: a3 = 0x100000000\n 18761: a0 = 0xffffffe0\n 18771: a0 = a1 <u a0\n 18774: a2 = u64 [a5 + 0xb0]\n 18778: a0 = 0 if a2 != 0\n 18780: a0 = 0 if a4 != 0\n 18782: jump @637 if a0 != 0\n      : @636 (gas: 1)\n 18785: jump @912\n      : @637 (gas: 14)\n 18788: i32 a0 = a1 + 0x20\n 18791: a1 = u64 [s1 + 0x160]\n 18795: u64 [s1 + 0x190] = a3\n 18799: a3 = s1 + 0x1140\n 18803: u64 [a3 + 0xa0] = a1\n 18807: a1 = u64 [s1 + 0x168]\n 18811: u64 [a3 + 0xa8] = a1\n 18815: a1 = u64 [s1 + 0x170]\n 18819: u64 [a3 + 0xb0] = a1\n 18823: a1 = s1 + 0x11e0\n 18827: a2 = u64 [s1 + 0x178]\n 18831: u64 [a3 + 0xb8] = a2\n 18835: u64 [s1 + 0x198] = a4\n 18839: ra = 634, jump @4\n      : @638 [@dyn 317] (gas: 10)\n 18845: a4 = s1 + 0x100\n 18849: a2 = u64 [a4 + 0x98]\n 18853: a3 = u64 [a4 + 0xb0]\n 18857: a1 = u64 [a4 + 0xb8]\n 18861: a0 = u64 [a4 + 0x90]\n 18865: a0 = a0 + 0xffffffffffffffc0\n 18868: a0 = a1 <u a0\n 18871: a0 = 0 if a3 != 0\n 18873: a0 = 0 if a2 != 0\n 18875: jump @640 if a0 != 0\n      : @639 (gas: 1)\n 18878: jump @912\n      : @640 (gas: 12)\n 18881: i32 a0 = a1 + 0x40\n 18884: a1 = u64 [s1 + 0x1a0]\n 18888: a4 = s1 + 0x1140\n 18892: u64 [a4 + 0x80] = a1\n 18896: a1 = u64 [s1 + 0x1a8]\n 18900: u64 [a4 + 0x88] = a1\n 18904: a1 = u64 [s1 + 0x150]\n 18908: u64 [a4 + 0x90] = a1\n 18912: a1 = s1 + 0x11c0\n 18916: a2 = u64 [s1 + 0x158]\n 18920: u64 [a4 + 0x98] = a2\n 18924: ra = 636, jump @4\n      : @641 [@dyn 318] (gas: 9)\n 18930: a3 = s1 + 0x100\n 18934: a2 = u64 [a3 + 0xb8]\n 18938: a0 = 0xffffffa0\n 18948: a0 = a2 <u a0\n 18951: a1 = u64 [a3 + 0xb0]\n 18955: a0 = 0 if a1 != 0\n 18957: a1 = u64 [a3 + 0x98]\n 18961: a0 = 0 if a1 != 0\n 18963: jump @643 if a0 != 0\n      : @642 (gas: 1)\n 18966: jump @912\n      : @643 (gas: 10)\n 18969: a0 = u8 [s1 + 0x148]\n 18973: a1 = a0 >u 0\n 18975: i32 a0 = a2 + 0x60\n 18978: a3 = s1 + 0x1140\n 18982: u64 [a3 + 120] = 0\n 18985: u64 [a3 + 112] = 0\n 18988: u64 [a3 + 0x60] = a1\n 18991: a1 = s1 + 0x11a0\n 18995: u64 [a3 + 104] = 0\n 18998: ra = 638, jump @4\n      : @644 [@dyn 319] (gas: 3)\n 19004: a1 = 0x80\n 19008: a0 = u64 [s1 + 0x1b8]\n 19012: ra = 640, jump @15\n      : @645 [@dyn 320] (gas: 5)\n 19018: i32 a1 = a0 + 0\n 19020: a2 = 0x80\n 19024: a0 = 0\n 19026: ecalli 11 // 'seal_return'\n 19028: jump @556\n      : @646 (gas: 6)\n 19031: a0 = sp + 0xffffffffffffffe0\n 19034: a1 = a0 & 0xffffffffffffffe0\n 19037: sp = a1\n 19039: a2 = u64 [s1 + 0x28]\n 19042: a0 = a2 + 0x6\n 19045: t0 = 642, jump @1452\n      : @647 [@dyn 321] (gas: 7)\n 19051: u64 [a1 + 0x8] = a2\n 19054: u64 [a1] = a0\n 19056: u64 [a1 + 0x10] = a3\n 19059: u64 [a1 + 0x18] = a4\n 19062: a0 = s1 + 0x2e00\n 19066: u64 [s1 + 0x18] = a1\n 19069: ra = 644, jump @6\n      : @648 [@dyn 322] (gas: 3)\n 19075: a2 = s1 + 0x2958\n 19079: a0 = u8 [a2 + 0x4bc]\n 19083: jump @650 if a0 <=u 3\n      : @649 (gas: 1)\n 19087: jump @1105\n      : @650 (gas: 8)\n 19090: a0 = a0 + 0xfffffffffffffffd\n 19093: a0 = a0 >u 0\n 19095: u64 [a2 + 1184] = 0\n 19099: u64 [a2 + 1176] = 0\n 19103: u64 [a2 + 0x488] = a0\n 19107: a0 = s1 + 0x2de0\n 19111: u64 [a2 + 1168] = 0\n 19115: ra = 646, jump @1303\n      : @651 [@dyn 323] (gas: 6)\n 19121: a0 = sp + 0xffffffffffffffe0\n 19124: a1 = a0 & 0xffffffffffffffe0\n 19127: sp = a1\n 19129: a2 = u64 [s1 + 0x28]\n 19132: a0 = a2 + 0x8\n 19135: t0 = 648, jump @1452\n      : @652 [@dyn 324] (gas: 7)\n 19141: u64 [a1 + 0x18] = a4\n 19144: u64 [a1 + 0x10] = a3\n 19147: u64 [a1 + 0x8] = a2\n 19150: u64 [a1] = a0\n 19152: a0 = s1 + 0x2dc0\n 19156: u64 [s1 + 0x10] = a1\n 19159: ra = 650, jump @6\n      : @653 [@dyn 325] (gas: 3)\n 19165: a0 = s1 + 0x2958\n 19169: a0 = u8 [a0 + 0x468]\n 19173: jump @655 if a0 == 0\n      : @654 (gas: 1)\n 19176: jump @858\n      : @655 (gas: 3)\n 19179: a1 = u64 [s1 + 0x28]\n 19182: a0 = a1 + 0x2\n 19185: t0 = 652, jump @1439\n      : @656 [@dyn 326] (gas: 8)\n 19191: a5 = a4 + 0x500\n 19195: u64 [a5 + 0xc8] = a0\n 19199: u64 [a5 + 0xd0] = a2\n 19203: u64 [a5 + 0xd8] = a3\n 19207: u64 [a5 + 0xe0] = a1\n 19211: a0 = s1 + 0x2d00\n 19215: a1 = s1 + 0x3f20\n 19219: ra = 654, jump @6\n      : @657 [@dyn 327] (gas: 3)\n 19225: t0 = 0x290\n 19229: a1 = s1 + 0x2958\n 19233: fallthrough\n      : @658 [@dyn 328] (gas: 12)\n 19234: a2 = a1 + 0x300\n 19238: a0 = u64 [a2 + 0xc0]\n 19242: u64 [s1 + 0x128] = a0\n 19246: a0 = u64 [a2 + 0xb8]\n 19250: u64 [s1 + 0x120] = a0\n 19254: a0 = u64 [a2 + 0xb0]\n 19258: u64 [s1 + 0x118] = a0\n 19262: a0 = u64 [a2 + 0xa8]\n 19266: u64 [s1 + 0x110] = a0\n 19270: a0 = s1 + 0x2ce0\n 19274: a1 = 0x40\n 19277: ra = 658, jump @2\n      : @659 [@dyn 329] (gas: 26)\n 19283: a3 = s1 + 0x2958\n 19287: a4 = a3 + 0x300\n 19291: a0 = u64 [a4 + 0x88]\n 19295: a2 = u64 [a4 + 0xa0]\n 19299: a1 = u64 [a4 + 0x90]\n 19303: a3 = u64 [a4 + 0x98]\n 19307: a4 = a0 + 0x20\n 19310: u64 [s1 + 0x1b0] = a4\n 19314: u64 [s1 + 0x1b8] = a0\n 19318: a0 = a4 <u a0\n 19321: a4 = a1 + a0\n 19324: u64 [s1 + 0x1a8] = a4\n 19328: u64 [s1 + 0x190] = a1\n 19332: a1 = a4 <u a1\n 19335: a1 = a0 if a0 == 0\n 19338: a1 = a1 + a3\n 19341: u64 [s1 + 0x198] = a1\n 19345: u64 [s1 + 0x180] = a3\n 19349: a0 = a1 <u a3\n 19352: u64 [s1 + 0x188] = a2\n 19356: a0 = a0 + a2\n 19359: u64 [s1 + 0x1a0] = a0\n 19363: a0 = s1 + 0x4000\n 19367: i32 a0 = a0 + 0xffffffffffffff40\n 19371: ecalli 8 // 'now'\n 19373: fallthrough\n      : @660 (gas: 13)\n 19374: a5 = s1 + 0x100\n 19378: a0 = u64 [a5 + 0xb0]\n 19382: a3 = u64 [a5 + 0x98]\n 19386: a2 = a0 | a3\n 19389: a1 = u64 [a5 + 0xa8]\n 19393: a4 = u64 [a5 + 0xa0]\n 19397: a1 = a1 | a4\n 19400: a2 = a2 | a1\n 19403: a2 = a2 >> 0x20\n 19406: a1 = a1 | a3\n 19409: a1 = a1 << 0x20\n 19412: a1 = a1 | a2\n 19415: jump @662 if a1 == 0\n      : @661 (gas: 1)\n 19418: jump @912\n      : @662 (gas: 14)\n 19421: a3 = s1 + 0x3958\n 19425: a4 = a3 + 0x500\n 19429: a5 = u64 [a4 + 0xe8]\n 19433: a1 = u64 [a4 + 0xf0]\n 19437: a2 = u64 [a4 + 0xf8]\n 19441: a3 = u64 [a3 + 0x600]\n 19445: a4 = s1 + 0x2958\n 19449: u64 [a4 + 0x380] = a3\n 19453: a3 = a4 + 0x300\n 19457: u64 [a3 + 0x78] = a2\n 19460: u64 [a3 + 0x70] = a1\n 19463: a1 = s1 + 0x2cc0\n 19467: u64 [a3 + 0x68] = a5\n 19470: ra = 660, jump @4\n      : @663 [@dyn 330] (gas: 4)\n 19476: a5 = s1 + 0x100\n 19480: a1 = u64 [a5 + 0xb8]\n 19484: a0 = a1 + 0x40\n 19487: t0 = 662, jump @1435\n      : @664 [@dyn 331] (gas: 1)\n 19493: jump @666 if a1 == 0\n      : @665 (gas: 1)\n 19496: jump @912\n      : @666 (gas: 8)\n 19499: a2 = s1 + 0x2958\n 19503: u64 [a2 + 864] = 0\n 19507: u64 [a2 + 856] = 0\n 19511: a1 = 0x8e1bc9bf04000\n 19521: u64 [a2 + 0x348] = a1\n 19525: a1 = s1 + 0x2ca0\n 19529: u64 [a2 + 848] = 0\n 19533: ra = 664, jump @4\n      : @667 [@dyn 332] (gas: 4)\n 19539: a5 = s1 + 0x100\n 19543: a1 = u64 [a5 + 0xb8]\n 19547: a0 = a1 + 0x60\n 19550: t0 = 666, jump @1435\n      : @668 [@dyn 333] (gas: 1)\n 19556: jump @670 if a1 == 0\n      : @669 (gas: 1)\n 19559: jump @912\n      : @670 (gas: 12)\n 19562: a1 = u64 [s1 + 0xa0]\n 19566: a3 = s1 + 0x2958\n 19570: a4 = a3 + 0x300\n 19574: u64 [a4 + 0x28] = a1\n 19577: a1 = u64 [s1 + 0x98]\n 19581: u64 [a4 + 0x30] = a1\n 19584: a1 = u64 [s1 + 0x90]\n 19588: u64 [a4 + 0x38] = a1\n 19591: a1 = s1 + 0x2c80\n 19595: a2 = u64 [s1 + 0x88]\n 19599: u64 [a4 + 0x40] = a2\n 19602: ra = 668, jump @4\n      : @671 [@dyn 334] (gas: 13)\n 19608: a4 = s1 + 0x100\n 19612: a0 = u64 [a4 + 0xb8]\n 19616: a3 = u64 [a4 + 0x80]\n 19620: a0 = a0 | a3\n 19623: a1 = u64 [a4 + 0x90]\n 19627: a2 = u64 [a4 + 0x88]\n 19631: a1 = a1 | a2\n 19634: a0 = a0 | a1\n 19637: a0 = a0 >> 0x20\n 19640: a1 = a1 | a3\n 19643: a1 = a1 << 0x20\n 19646: a0 = a0 | a1\n 19649: jump @673 if a0 == 0\n      : @672 (gas: 1)\n 19652: jump @912\n      : @673 (gas: 8)\n 19655: a2 = s1 + 0x2958\n 19659: u64 [a2 + 800] = 0\n 19663: u64 [a2 + 792] = 0\n 19667: u64 [a2 + 784] = 0\n 19671: a1 = s1 + 0x2c60\n 19675: u64 [a2 + 776] = 0x60\n 19680: a0 = u64 [s1 + 0x1b8]\n 19684: ra = 670, jump @4\n      : @674 [@dyn 335] (gas: 18)\n 19690: a1 = s1 + 0x2958\n 19694: u64 [a1 + 736] = 0\n 19698: u64 [a1 + 728] = 0\n 19702: u64 [a1 + 720] = 0\n 19706: a2 = a1 + 0x200\n 19710: u64 [a2 + 200] = 0x80\n 19716: a0 = u64 [s1 + 0x188]\n 19720: u64 [a1 + 0x300] = a0\n 19724: a0 = u64 [s1 + 0x180]\n 19728: u64 [a2 + 0xf8] = a0\n 19732: a0 = u64 [s1 + 0x190]\n 19736: u64 [a2 + 0xf0] = a0\n 19740: a3 = a1\n 19742: a0 = s1 + 0x2c40\n 19746: a1 = s1 + 0x2c20\n 19750: a2 = u64 [s1 + 0x1b8]\n 19754: u64 [a3 + 0x2e8] = a2\n 19758: ra = 672, jump @1235\n      : @675 [@dyn 336] (gas: 7)\n 19764: a0 = sp + 0xffffffffffffffe0\n 19767: a0 = a0 & 0xffffffffffffffe0\n 19770: u64 [s1 + 0xd8] = a0\n 19774: sp = a0\n 19776: a0 = s1 + 0x2c00\n 19780: a1 = u64 [s1 + 0x1b8]\n 19784: ra = 674, jump @2\n      : @676 [@dyn 337] (gas: 3)\n 19790: t0 = 0x2a4\n 19794: a1 = s1 + 0x2958\n 19798: fallthrough\n      : @677 [@dyn 338] (gas: 13)\n 19799: a4 = a1 + 0x200\n 19803: a0 = u64 [a4 + 0xc0]\n 19807: a3 = u64 [a4 + 0xb8]\n 19811: a2 = u64 [a4 + 0xb0]\n 19815: a1 = u64 [a4 + 0xa8]\n 19819: a0 = a0 | a2\n 19822: a2 = a1 | a3\n 19825: a2 = a2 | a0\n 19828: a2 = a2 >> 0x20\n 19831: a0 = a0 | a3\n 19834: a0 = a0 << 0x20\n 19837: a0 = a0 | a2\n 19840: jump @679 if a0 == 0\n      : @678 (gas: 1)\n 19843: jump @912\n      : @679 (gas: 3)\n 19846: a0 = u64 [s1 + 0x1b0]\n 19850: u64 [s1 + 0x1b8] = a1\n 19854: ra = 678, jump @15\n      : @680 [@dyn 339] (gas: 9)\n 19860: a1 = sp + 0xffffffffffffffe0\n 19863: a2 = a1 & 0xffffffffffffffe0\n 19866: u64 [s1 + 0x1b0] = a2\n 19870: sp = a2\n 19872: i32 a0 = a0 + 0\n 19874: a1 = i32 [s1 + 0x1b8]\n 19878: i32 a2 = a2 + 0\n 19880: ecalli 7 // 'hash_keccak_256'\n 19882: fallthrough\n      : @681 (gas: 61)\n 19883: a3 = u64 [s1 + 0x1b0]\n 19887: a0 = u64 [a3 + 0x8]\n 19890: a1 = u64 [a3 + 0x18]\n 19893: a2 = u64 [a3]\n 19895: a3 = u64 [a3 + 0x10]\n 19898: t1 = reverse a0\n 19900: a4 = reverse a1\n 19902: u64 [s1 + 0x108] = a4\n 19906: t2 = reverse a2\n 19908: t0 = reverse a3\n 19910: a1 = clz t2\n 19912: a0 = clz t1\n 19914: a0 = a0 + 0x40\n 19917: a0 = a1 if t2 != 0\n 19920: a1 = clz t0\n 19922: a2 = clz a4\n 19924: a2 = a2 + 0x40\n 19927: a2 = a1 if t0 != 0\n 19930: a1 = a2 + 0x80\n 19934: a3 = t1 | t2\n 19937: a0 = a1 if a3 == 0\n 19940: a1 = a1 <u a2\n 19943: a1 = 0 if a3 != 0\n 19945: a3 = a1 >u 0\n 19947: a2 = a0 <u 0xee\n 19951: a4 = a2 ^ 0x1\n 19954: a3 = a4 if a1 == 0\n 19957: a2 = a3 <u 0x1\n 19960: a2 = a2 + 0xffffffffffffffff\n 19963: a5 = -a3\n 19965: a1 = -a1\n 19967: ra = a1 - a4\n 19970: a1 = 0xed - a0\n 19974: u64 [s1 + 0x190] = a5\n 19978: a0 = a5 >u 0\n 19980: a4 = a2 >u 0\n 19982: u64 [s1 + 0x1a8] = a2\n 19986: a4 = a0 if a2 == 0\n 19989: u64 [s1 + 0x198] = a1\n 19993: a0 = a1 <u 0x100\n 19997: a0 = a0 ^ 0x1\n 20000: a5 = ra >u 0\n 20002: a0 = a5 if ra != 0\n 20005: a0 = a4 if a3 != 0\n 20008: a3 = t0 | t2\n 20011: a1 = u64 [s1 + 0x108]\n 20015: a4 = a1 | t1\n 20018: a3 = a3 | a4\n 20021: a3 = a3 <u 0x1\n 20024: a0 = a0 | a3\n 20027: a4 = 0x69780\n 20032: u64 [s1 + 0xe0] = t2\n 20036: t2 = 0 if a0 != 0\n 20038: u64 [s1 + 0xe8] = t1\n 20042: t1 = 0 if a0 != 0\n 20044: u64 [s1 + 0xf0] = t0\n 20048: a2 = t0\n 20050: a2 = 0 if a0 != 0\n 20052: a3 = a1\n 20054: a3 = 0 if a0 != 0\n 20056: jump @683 if a0 == 0\n      : @682 (gas: 1)\n 20059: jump @920\n      : @683 (gas: 8)\n 20062: a0 = u64 [s1 + 0x198]\n 20066: a0 = a0 ^ 0xff\n 20070: a5 = u64 [s1 + 0x190]\n 20074: a1 = a0 | a5\n 20077: t0 = u64 [s1 + 0x1a8]\n 20081: a0 = ra | t0\n 20084: a0 = a0 | a1\n 20087: jump @685 if a0 != 0\n      : @684 (gas: 1)\n 20090: jump @920\n      : @685 (gas: 20)\n 20093: u64 [s1 + 328] = 0x69780\n 20100: a1 = u64 [s1 + 0x198]\n 20104: a2 = a1 + 0x1\n 20107: u64 [s1 + 0x1b8] = a2\n 20111: a0 = a2 <u 0x1\n 20114: a0 = a0 + ra\n 20117: u64 [s1 + 0x1b0] = a0\n 20121: a0 = a0 | a2\n 20124: a0 = a0 <u 0x1\n 20127: a0 = a0 + a5\n 20130: u64 [s1 + 0x1a0] = a0\n 20134: a0 = a0 <u a5\n 20137: a0 = a0 + t0\n 20140: u64 [s1 + 0x1a8] = a0\n 20144: a1 = 0xff - a1\n 20148: u64 [s1 + 0x198] = a1\n 20152: a2 = 0x80 - a1\n 20156: a0 = u64 [s1 + 0x108]\n 20160: a1 = u64 [s1 + 0xf0]\n 20164: ra = 680, jump @1474\n      : @686 [@dyn 340] (gas: 6)\n 20170: u64 [s1 + 0x190] = a0\n 20174: u64 [s1 + 0x180] = a1\n 20178: a0 = u64 [s1 + 0xe8]\n 20182: a1 = u64 [s1 + 0xe0]\n 20186: a2 = u64 [s1 + 0x198]\n 20190: ra = 682, jump @1479\n      : @687 [@dyn 341] (gas: 9)\n 20196: u64 [s1 + 0x188] = a0\n 20200: a0 = u64 [s1 + 0x180]\n 20204: a0 = a0 | a1\n 20207: u64 [s1 + 0x178] = a0\n 20211: a0 = u64 [s1 + 0x198]\n 20215: a2 = a0 + 0xffffffffffffff80\n 20218: a0 = u64 [s1 + 0x108]\n 20222: a1 = u64 [s1 + 0xf0]\n 20226: ra = 684, jump @1479\n      : @688 [@dyn 342] (gas: 18)\n 20232: a2 = u64 [s1 + 0x198]\n 20236: a3 = a2 <u 0x80\n 20240: u64 [s1 + 0x180] = a3\n 20244: a4 = u64 [s1 + 0x178]\n 20248: a1 = a4 if a3 != 0\n 20251: a4 = u64 [s1 + 0xe0]\n 20255: a1 = a4 if a2 == 0\n 20258: u64 [s1 + 0x158] = a1\n 20262: a1 = u64 [s1 + 0x190]\n 20266: a4 = u64 [s1 + 0x188]\n 20270: a1 = a1 | a4\n 20273: a1 = a0 if a3 == 0\n 20276: a0 = u64 [s1 + 0xe8]\n 20280: a1 = a0 if a2 == 0\n 20283: u64 [s1 + 0x190] = a1\n 20287: a0 = u64 [s1 + 0x108]\n 20291: a1 = u64 [s1 + 0xf0]\n 20295: ra = 686, jump @1479\n      : @689 [@dyn 343] (gas: 14)\n 20301: a5 = s1 + 0x100\n 20305: a2 = u64 [a5 + 0xb0]\n 20309: a3 = u64 [a5 + 0xa8]\n 20313: a2 = a2 | a3\n 20316: a3 = u64 [a5 + 0xb8]\n 20320: a4 = u64 [a5 + 0xa0]\n 20324: a3 = a3 | a4\n 20327: a2 = a2 | a3\n 20330: a3 = u64 [a5 + 0x80]\n 20334: a1 = 0 if a3 == 0\n 20336: u64 [a5 + 0x88] = a1\n 20340: a0 = 0 if a3 == 0\n 20342: u64 [a5 + 0x98] = a0\n 20346: jump @691 if a2 == 0\n      : @690 (gas: 1)\n 20349: jump @913\n      : @691 (gas: 4)\n 20352: a5 = 0\n 20354: u64 [s1 + 320] = 0\n 20358: ra = u64 [s1 + 0x158]\n 20362: jump @919\n      : @692 (gas: 12)\n 20365: a0 = s1 + 0x3158\n 20369: u64 [a0 + 864] = 0\n 20373: u64 [a0 + 856] = 0\n 20377: u64 [a0 + 848] = 0\n 20381: u64 [a0 + 840] = 0\n 20385: a0 = s1 + 0x740\n 20389: a1 = s1 + 0x34a0\n 20393: u64 [s1 + 0x180] = a2\n 20397: u64 [s1 + 0x178] = a3\n 20401: u64 [s1 + 0x170] = a4\n 20405: u64 [s1 + 0x168] = a5\n 20409: ra = 688, jump @6\n      : @693 [@dyn 344] (gas: 53)\n 20415: a3 = s1 + 0x700\n 20419: a0 = u64 [a3 + 0x48]\n 20422: a1 = u64 [a3 + 0x50]\n 20425: a2 = u64 [a3 + 0x40]\n 20428: a0 = reverse a0\n 20430: a3 = a0 << 0x20\n 20433: a1 = reverse a1\n 20435: a1 = a1 >> 0x20\n 20438: a1 = a1 | a3\n 20441: a0 = a0 >> 0x20\n 20444: a2 = reverse a2\n 20446: a3 = a2 << 0x20\n 20449: a0 = a0 | a3\n 20452: a2 = a2 >> 0x20\n 20455: a5 = s1 + 0x100\n 20459: a3 = u64 [a5 + 0x60]\n 20462: u32 [a3 + 0x10] = a2\n 20465: u64 [a3 + 0x8] = a0\n 20468: u64 [a3] = a1\n 20470: a0 = s1 + 0x3158\n 20474: a1 = u64 [a5 + 0x68]\n 20477: a2 = a0 + 0x300\n 20481: u64 [a2 + 0x80] = a1\n 20485: a1 = u64 [a5 + 0x70]\n 20488: u64 [a2 + 0x78] = a1\n 20491: a1 = u64 [a5 + 0x78]\n 20494: u64 [a2 + 0x70] = a1\n 20497: a1 = u64 [a5 + 0x80]\n 20501: u64 [a2 + 0x68] = a1\n 20504: u32 [a0 + 904] = 0\n 20508: u64 [a0 + 960] = 0\n 20512: u64 [a0 + 952] = 0\n 20516: u64 [a0 + 944] = 0\n 20520: u64 [a0 + 936] = 0\n 20524: a0 = a3 << 0x20\n 20527: a0 = a0 >> 0x20\n 20530: a1 = s1 + 0x34c0\n 20534: a1 = a1 << 0x20\n 20537: a1 = a1 >> 0x20\n 20540: a4 = 0x20160\n 20545: a2 = s1 + 0x3500\n 20549: a2 = a2 << 0x20\n 20552: a3 = a2 | a1\n 20555: u64 [a5 + 0xb8] = a4\n 20559: a4 = a4 << 0x20\n 20562: a4 = a4 >> 0x20\n 20565: a1 = s1 + 0x34e0\n 20569: a1 = a1 << 0x20\n 20572: a5 = a1 | a4\n 20575: a1 = 0xffffffffffffffff\n 20578: a2 = 0xffffffffffffffff\n 20581: ecalli 0 // 'call'\n 20582: fallthrough\n      : @694 (gas: 1)\n 20583: jump @696 if a0 != 0\n      : @695 (gas: 1)\n 20586: jump @1109\n      : @696 (gas: 3)\n 20589: a0 = s1 + 0x720\n 20593: a1 = 0x40\n 20596: ra = 690, jump @2\n      : @697 [@dyn 345] (gas: 13)\n 20602: a1 = s1 + 0x700\n 20606: a0 = u64 [a1 + 0x38]\n 20609: u64 [s1 + 0x1b0] = a0\n 20613: a0 = u64 [a1 + 0x30]\n 20616: u64 [s1 + 0x1a8] = a0\n 20620: a0 = u64 [a1 + 0x28]\n 20623: u64 [s1 + 0x1a0] = a0\n 20627: a0 = u64 [a1 + 0x20]\n 20630: u64 [s1 + 0x1b8] = a0\n 20634: ra = 0x2b4\n 20638: ecalli 10 // 'return_data_size'\n 20640: t0 = 0x2b6\n 20644: jump @1460\n      : @698 [@dyn 346] (gas: 1)\n 20647: t0 = 694, jump @1460\n      : @699 [@dyn 347] (gas: 1)\n 20653: jump @701 if a1 == 0\n      : @700 (gas: 1)\n 20656: jump @912\n      : @701 (gas: 3)\n 20659: a2 = a0\n 20661: a0 = a0 >> 0x20\n 20664: jump @703 if a0 == 0\n      : @702 (gas: 1)\n 20667: jump @912\n      : @703 (gas: 6)\n 20670: i32 a0 = a2 + 0\n 20672: u64 [s1 + 0x1b0] = a0\n 20676: a0 = u64 [s1 + 0x1b8]\n 20680: a1 = a2\n 20682: u64 [s1 + 0x1a8] = a2\n 20686: ra = 696, jump @15\n      : @704 [@dyn 348] (gas: 11)\n 20692: a1 = s1 + 0x3158\n 20696: a2 = u64 [s1 + 0x1a8]\n 20700: u32 [a1 + 0x3c8] = a2\n 20704: i32 a0 = a0 + 0\n 20706: a1 = s1 + 0x3000\n 20710: i32 a1 = a1 + 0x520\n 20714: a2 = 0\n 20716: ecalli 9 // 'return_data_copy'\n 20718: a0 = s1 + 0x3158\n 20722: a0 = i32 [a0 + 0x3c8]\n 20726: fallthrough\n      : @705 (gas: 2)\n 20727: a1 = u64 [s1 + 0x1b0]\n 20731: jump @707 if a0 >=u a1\n      : @706 (gas: 1)\n 20734: jump @912\n      : @707 (gas: 2)\n 20737: ecalli 10 // 'return_data_size'\n 20739: fallthrough\n      : @708 (gas: 3)\n 20740: a1 = a0\n 20742: a0 = a0 >> 0x20\n 20745: jump @710 if a0 == 0\n      : @709 (gas: 1)\n 20748: jump @912\n      : @710 (gas: 3)\n 20751: a0 = u64 [s1 + 0x1b8]\n 20755: u64 [s1 + 0x1b0] = a1\n 20759: ra = 698, jump @15\n      : @711 [@dyn 349] (gas: 7)\n 20765: i32 a1 = a0 + 0\n 20767: a2 = i32 [s1 + 0x1b0]\n 20771: a0 = 0x1\n 20774: ecalli 11 // 'seal_return'\n 20776: t0 = 0x2bc\n 20780: a2 = s1 + 0x1958\n 20784: jump @713\n      : @712 (gas: 3)\n 20786: t0 = 0x2bc\n 20790: a2 = s1 + 0x1958\n 20794: fallthrough\n      : @713 [@dyn 350] (gas: 12)\n 20795: a0 = u64 [s1 + 0x1b8]\n 20799: a3 = a2 + 0x100\n 20803: u64 [a3 + 0x88] = a0\n 20807: a0 = u64 [s1 + 0x1b0]\n 20811: u64 [a3 + 0x90] = a0\n 20815: a0 = u64 [s1 + 0x1a8]\n 20819: u64 [a3 + 0x98] = a0\n 20823: a1 = s1 + 0x1ae0\n 20827: a0 = u64 [s1 + 0x1a0]\n 20831: u64 [a3 + 0xa0] = a0\n 20835: a0 = 0\n 20837: ra = 702, jump @4\n      : @714 [@dyn 351] (gas: 3)\n 20843: t0 = 0x2c0\n 20847: a1 = s1 + 0x1958\n 20851: fallthrough\n      : @715 [@dyn 352] (gas: 8)\n 20852: u64 [a1 + 384] = 0\n 20856: u64 [a1 + 376] = 0\n 20860: u64 [a1 + 360] = 0x2\n 20865: a2 = a1\n 20867: a0 = 0x20\n 20870: a1 = s1 + 0x1ac0\n 20874: u64 [a2 + 368] = 0\n 20878: ra = 706, jump @4\n      : @716 [@dyn 353] (gas: 3)\n 20884: a2 = u64 [s1 + 0x190]\n 20888: a0 = i32 [a2]\n 20890: jump @718 if a0 >u 63\n      : @717 (gas: 3)\n 20894: u32 [a2 + 0] = 0x40\n 20897: t0 = 0x2c4\n 20901: jump @1427\n      : @718 (gas: 1)\n 20904: t0 = 708, jump @1427\n      : @719 [@dyn 354] (gas: 3)\n 20910: ra = 0x2c6\n 20914: ecalli 7 // 'hash_keccak_256'\n 20916: fallthrough\n      : @720 [@dyn 355] (gas: 6)\n 20917: a3 = u64 [s1 + 0x188]\n 20921: a0 = u64 [a3]\n 20923: a1 = u64 [a3 + 0x8]\n 20926: a2 = u64 [a3 + 0x10]\n 20929: a3 = u64 [a3 + 0x18]\n 20932: t0 = 712, jump @1447\n      : @721 [@dyn 356] (gas: 17)\n 20938: a4 = a3 + 0x3\n 20941: a3 = a4 <u a3\n 20944: a5 = a2 + a3\n 20947: a2 = a5 <u a2\n 20950: a2 = a3 if a3 == 0\n 20953: a2 = a2 + a1\n 20956: a1 = a2 <u a1\n 20959: a0 = a0 + a1\n 20962: a1 = s1 + 0x3958\n 20966: a3 = a1 + 0x100\n 20970: u64 [a3 + 0x28] = a4\n 20973: u64 [a3 + 0x30] = a5\n 20976: u64 [a3 + 0x38] = a2\n 20979: u64 [a3 + 0x40] = a0\n 20982: a0 = s1 + 0x1aa0\n 20986: a1 = s1 + 0x3a80\n 20990: ra = 714, jump @6\n      : @722 [@dyn 357] (gas: 15)\n 20996: a0 = s1 + 0x1958\n 21000: a2 = a0 + 0x100\n 21004: a1 = u64 [a2 + 0x48]\n 21007: u64 [s1 + 0x188] = a1\n 21011: a1 = u64 [a2 + 0x50]\n 21014: u64 [s1 + 0x180] = a1\n 21018: a1 = u64 [a2 + 0x58]\n 21021: u64 [s1 + 0x178] = a1\n 21025: a0 = u64 [a2 + 0x60]\n 21028: u64 [s1 + 0x170] = a0\n 21032: a0 = s1 + 0x4000\n 21036: i32 a0 = a0 + 0xfffffffffffffaa0\n 21040: ra = 0x2cc\n 21044: ecalli 8 // 'now'\n 21046: fallthrough\n      : @723 [@dyn 358] (gas: 18)\n 21047: a1 = s1 + 0x3958\n 21051: a4 = a1 + 0x100\n 21055: a0 = u64 [a4 + 0x60]\n 21058: t0 = u64 [a1 + 0x148]\n 21062: a2 = u64 [a4 + 0x58]\n 21065: a3 = u64 [a4 + 0x50]\n 21068: a1 = u64 [s1 + 0x170]\n 21072: a4 = a0 ^ a1\n 21075: a1 = a0 <u a1\n 21078: a0 = u64 [s1 + 0x178]\n 21082: a5 = a2 <u a0\n 21085: a5 = a1 if a4 != 0\n 21088: a1 = u64 [s1 + 0x180]\n 21092: t1 = a3 ^ a1\n 21095: a3 = a3 <u a1\n 21098: a1 = u64 [s1 + 0x188]\n 21102: a1 = t0 <u a1\n 21105: t0 = 718, jump @1456\n      : @724 [@dyn 359] (gas: 1)\n 21111: jump @726 if a1 != 0\n      : @725 (gas: 1)\n 21114: jump @882\n      : @726 (gas: 12)\n 21117: a0 = u64 [s1 + 0x1b8]\n 21121: a2 = s1 + 0x1958\n 21125: u64 [a2 + 0x88] = a0\n 21129: a0 = u64 [s1 + 0x1b0]\n 21133: u64 [a2 + 0x90] = a0\n 21137: a0 = u64 [s1 + 0x1a8]\n 21141: u64 [a2 + 0x98] = a0\n 21145: a1 = s1 + 0x19e0\n 21149: a0 = u64 [s1 + 0x1a0]\n 21153: u64 [a2 + 0xa0] = a0\n 21157: a0 = 0\n 21159: ra = 720, jump @4\n      : @727 [@dyn 360] (gas: 9)\n 21165: a1 = s1 + 0x1958\n 21169: u64 [a1 + 128] = 0\n 21173: u64 [a1 + 120] = 0\n 21176: u64 [a1 + 104] = 0x2\n 21180: a2 = a1\n 21182: a0 = 0x20\n 21185: a1 = s1 + 0x19c0\n 21189: u64 [a2 + 112] = 0\n 21192: ra = 722, jump @4\n      : @728 [@dyn 361] (gas: 3)\n 21198: a1 = u64 [s1 + 0x190]\n 21202: a0 = i32 [a1]\n 21204: jump @730 if a0 >u 63\n      : @729 (gas: 2)\n 21208: u32 [a1 + 0] = 0x40\n 21211: fallthrough\n      : @730 (gas: 4)\n 21212: a0 = sp + 0xffffffffffffffe0\n 21215: a0 = a0 & 0xffffffffffffffe0\n 21218: u64 [s1 + 0x170] = a0\n 21222: t0 = 724, jump @1430\n      : @731 [@dyn 362] (gas: 13)\n 21228: ecalli 7 // 'hash_keccak_256'\n 21230: a1 = u64 [s1 + 0x170]\n 21234: a0 = u64 [a1 + 0x18]\n 21237: u64 [s1 + 0x188] = a0\n 21241: a0 = u64 [a1 + 0x10]\n 21244: u64 [s1 + 0x180] = a0\n 21248: a0 = u64 [a1 + 0x8]\n 21251: u64 [s1 + 0x178] = a0\n 21255: a0 = u64 [a1]\n 21257: u64 [s1 + 0x170] = a0\n 21261: t0 = 0x2d6\n 21265: a2 = s1 + 0x1958\n 21269: fallthrough\n      : @732 [@dyn 363] (gas: 11)\n 21270: a0 = u64 [s1 + 0x1a0]\n 21274: u64 [a2 + 0x60] = a0\n 21277: a0 = u64 [s1 + 0x1a8]\n 21281: u64 [a2 + 0x58] = a0\n 21284: a0 = u64 [s1 + 0x1b0]\n 21288: u64 [a2 + 0x50] = a0\n 21291: a1 = s1 + 0x19a0\n 21295: a0 = u64 [s1 + 0x1b8]\n 21299: u64 [a2 + 0x48] = a0\n 21302: a0 = 0\n 21304: ra = 728, jump @4\n      : @733 [@dyn 364] (gas: 9)\n 21310: a1 = s1 + 0x1958\n 21314: u64 [a1 + 64] = 0\n 21317: u64 [a1 + 56] = 0\n 21320: u64 [a1 + 40] = 0x3\n 21324: a2 = a1\n 21326: a0 = 0x20\n 21329: a1 = s1 + 0x1980\n 21333: u64 [a2 + 48] = 0\n 21336: ra = 730, jump @4\n      : @734 [@dyn 365] (gas: 3)\n 21342: a1 = u64 [s1 + 0x190]\n 21346: a0 = i32 [a1]\n 21348: jump @736 if a0 >u 63\n      : @735 (gas: 2)\n 21352: u32 [a1 + 0] = 0x40\n 21355: fallthrough\n      : @736 (gas: 13)\n 21356: a0 = u64 [s1 + 0x170]\n 21360: a0 = reverse a0\n 21362: u64 [s1 + 0x160] = a0\n 21366: a0 = u64 [s1 + 0x178]\n 21370: a0 = reverse a0\n 21372: u64 [s1 + 0x158] = a0\n 21376: a0 = u64 [s1 + 0x180]\n 21380: a0 = reverse a0\n 21382: u64 [s1 + 0x150] = a0\n 21386: a0 = u64 [s1 + 0x188]\n 21390: a0 = reverse a0\n 21392: u64 [s1 + 0x148] = a0\n 21396: t0 = 732, jump @1427\n      : @737 [@dyn 366] (gas: 45)\n 21402: ecalli 7 // 'hash_keccak_256'\n 21404: a3 = u64 [s1 + 0x188]\n 21408: a0 = u64 [a3 + 0x18]\n 21411: a1 = u64 [a3 + 0x10]\n 21414: a2 = u64 [a3 + 0x8]\n 21417: a3 = u64 [a3]\n 21419: a0 = reverse a0\n 21421: u64 [s1 + 0x180] = a0\n 21425: a0 = reverse a1\n 21427: u64 [s1 + 0x178] = a0\n 21431: a0 = reverse a2\n 21433: u64 [s1 + 0x170] = a0\n 21437: a0 = reverse a3\n 21439: u64 [s1 + 0x168] = a0\n 21443: a0 = sp + 0xffffffffffffffe0\n 21446: a0 = a0 & 0xffffffffffffffe0\n 21449: u64 [s1 + 0x188] = a0\n 21453: sp = a0\n 21455: a0 = 0x30160\n 21460: u64 [s1 + 0x140] = a0\n 21464: i32 a0 = a0 + 0\n 21466: u64 [s1 + 0x118] = a0\n 21470: ecalli 4 // 'caller'\n 21472: a2 = u64 [s1 + 0x140]\n 21476: a0 = u64 [a2 + 0x8]\n 21479: a1 = i32 [a2 + 0x10]\n 21482: a2 = u64 [a2]\n 21484: a0 = reverse a0\n 21486: a3 = a0 << 0x20\n 21489: a1 = reverse a1\n 21491: a1 = a1 >> 0x20\n 21494: a3 = a3 | a1\n 21497: a0 = a0 >> 0x20\n 21500: a1 = reverse a2\n 21502: a2 = a1 << 0x20\n 21505: a0 = a0 | a2\n 21508: a1 = a1 >> 0x20\n 21511: a2 = s1 + 0x1958\n 21515: u64 [a2 + 32] = 0\n 21518: u64 [a2 + 0x18] = a1\n 21521: u64 [a2 + 0x10] = a0\n 21524: a1 = s1 + 0x1960\n 21528: u64 [a2 + 0x8] = a3\n 21531: a0 = 0\n 21533: ra = 734, jump @4\n      : @738 [@dyn 367] (gas: 13)\n 21539: a0 = u64 [s1 + 0x168]\n 21543: a1 = s1 + 0x1958\n 21547: u64 [a1] = a0\n 21549: a0 = u64 [s1 + 0x170]\n 21553: u64 [a1 + 0xfffffffffffffff8] = a0\n 21556: a0 = u64 [s1 + 0x178]\n 21560: u64 [a1 + 0xfffffffffffffff0] = a0\n 21563: a3 = a1\n 21565: a0 = 0x20\n 21568: a1 = s1 + 0x1940\n 21572: a2 = u64 [s1 + 0x180]\n 21576: u64 [a3 + 0xffffffffffffffe8] = a2\n 21579: ra = 736, jump @4\n      : @739 [@dyn 368] (gas: 3)\n 21585: a1 = u64 [s1 + 0x190]\n 21589: a0 = i32 [a1]\n 21591: jump @741 if a0 >=u 64\n      : @740 (gas: 2)\n 21595: u32 [a1 + 0] = 0x40\n 21598: fallthrough\n      : @741 (gas: 4)\n 21599: a0 = sp + 0xffffffffffffffe0\n 21602: a0 = a0 & 0xffffffffffffffe0\n 21605: u64 [s1 + 0x180] = a0\n 21609: t0 = 738, jump @1430\n      : @742 [@dyn 369] (gas: 3)\n 21615: ra = 0x2e4\n 21619: ecalli 7 // 'hash_keccak_256'\n 21621: fallthrough\n      : @743 [@dyn 370] (gas: 5)\n 21622: a1 = u64 [s1 + 0x148]\n 21626: a0 = a1 + 0x2\n 21629: a1 = a0 <u a1\n 21632: a3 = u64 [s1 + 0x150]\n 21636: t0 = 742, jump @1463\n      : @744 [@dyn 371] (gas: 31)\n 21642: a5 = s1 + 0x3958\n 21646: u64 [a5 + 0x170] = a2\n 21650: a4 = u64 [s1 + 0x180]\n 21654: a1 = u64 [a4 + 0x10]\n 21657: u64 [a5 + 0x168] = a0\n 21661: a0 = u64 [a4 + 0x18]\n 21664: a2 = u64 [s1 + 0x158]\n 21668: a3 = a3 + a2\n 21671: u64 [a5 + 0x178] = a3\n 21675: a2 = a3 <u a2\n 21678: a3 = u64 [s1 + 0x160]\n 21682: a2 = a2 + a3\n 21685: u64 [a5 + 0x180] = a2\n 21689: a2 = u64 [a4 + 0x8]\n 21692: a3 = u64 [a4]\n 21694: a5 = reverse a0\n 21696: a4 = reverse a1\n 21698: a1 = reverse a2\n 21700: a2 = reverse a3\n 21702: a0 = u64 [s1 + 0x188]\n 21706: u64 [s1 + 0x178] = a2\n 21710: u64 [a0 + 0x18] = a2\n 21713: u64 [s1 + 0x180] = a1\n 21717: u64 [a0 + 0x10] = a1\n 21720: u64 [s1 + 0x170] = a4\n 21724: u64 [a0 + 0x8] = a4\n 21727: u64 [s1 + 0x168] = a5\n 21731: u64 [a0] = a5\n 21733: a0 = s1 + 0x1920\n 21737: a1 = s1 + 0x3ac0\n 21741: ra = 744, jump @6\n      : @745 [@dyn 372] (gas: 15)\n 21747: a0 = s1 + 0x1140\n 21751: a2 = a0 + 0x700\n 21755: a1 = u64 [a2 + 0xe0]\n 21759: u64 [s1 + 0x138] = a1\n 21763: a1 = u64 [a2 + 0xe8]\n 21767: u64 [s1 + 0x130] = a1\n 21771: a1 = u64 [a2 + 0xf0]\n 21775: u64 [s1 + 0x128] = a1\n 21779: a0 = u64 [a2 + 0xf8]\n 21783: u64 [s1 + 0x120] = a0\n 21787: a0 = s1 + 0x4000\n 21791: i32 a0 = a0 + 0xfffffffffffffae0\n 21795: ra = 0x2ea\n 21799: ecalli 8 // 'now'\n 21801: fallthrough\n      : @746 [@dyn 373] (gas: 18)\n 21802: a3 = s1 + 0x3958\n 21806: a1 = a3 + 0x100\n 21810: a0 = u64 [a1 + 0xa0]\n 21814: t0 = u64 [a3 + 0x188]\n 21818: a2 = u64 [a1 + 0x98]\n 21822: a3 = u64 [a1 + 0x90]\n 21826: a1 = u64 [s1 + 0x120]\n 21830: a4 = a0 ^ a1\n 21833: a1 = a0 <u a1\n 21836: a0 = u64 [s1 + 0x128]\n 21840: a5 = a2 <u a0\n 21843: a5 = a1 if a4 != 0\n 21846: a1 = u64 [s1 + 0x130]\n 21850: t1 = a3 ^ a1\n 21853: a3 = a3 <u a1\n 21856: a1 = u64 [s1 + 0x138]\n 21860: a1 = t0 <u a1\n 21863: t0 = 748, jump @1456\n      : @747 [@dyn 374] (gas: 1)\n 21869: jump @754 if a1 != 0\n      : @748 (gas: 26)\n 21873: a5 = s1 + 0x100\n 21877: a0 = u64 [a5 + 0x48]\n 21880: a2 = a0 + 0x6\n 21883: a0 = a2 <u a0\n 21886: a1 = u64 [a5 + 0x50]\n 21889: a3 = a1 + a0\n 21892: a1 = a3 <u a1\n 21895: a1 = a0 if a0 == 0\n 21898: a0 = u64 [a5 + 0x58]\n 21901: a4 = a0 + a1\n 21904: a0 = a4 <u a0\n 21907: a1 = u64 [a5 + 0x60]\n 21910: a1 = a1 + a0\n 21913: a0 = s1 + 0x3958\n 21917: u64 [a5 + 0x38] = a2\n 21920: u64 [a0 + 0x1a8] = a2\n 21924: u64 [a5 + 0x30] = a3\n 21927: a2 = a0 + 0x100\n 21931: u64 [a2 + 0xb0] = a3\n 21935: u64 [a5 + 0x28] = a4\n 21938: u64 [a2 + 0xb8] = a4\n 21942: u64 [a5 + 0x20] = a1\n 21945: u64 [a2 + 0xc0] = a1\n 21949: a0 = s1 + 0x1900\n 21953: a1 = s1 + 0x3b00\n 21957: ra = 750, jump @6\n      : @749 [@dyn 375] (gas: 3)\n 21963: a0 = s1 + 0x1140\n 21967: a0 = u8 [a0 + 0x7d4]\n 21971: jump @751 if a0 <=u 3\n      : @750 (gas: 1)\n 21975: jump @1116\n      : @751 (gas: 1)\n 21978: jump @754 if a0 != 1\n      : @752 (gas: 14)\n 21983: a0 = sp + 0xffffffffffffffe0\n 21986: a1 = a0 & 0xffffffffffffffe0\n 21989: u64 [s1 + 0x110] = a1\n 21993: sp = a1\n 21995: a0 = u64 [s1 + 0x120]\n 21999: u64 [a1 + 0x18] = a0\n 22002: a0 = u64 [s1 + 0x128]\n 22006: u64 [a1 + 0x10] = a0\n 22009: a0 = u64 [s1 + 0x130]\n 22013: u64 [a1 + 0x8] = a0\n 22016: a0 = u64 [s1 + 0x138]\n 22020: u64 [a1] = a0\n 22022: a0 = s1 + 0x18e0\n 22026: ra = 752, jump @6\n      : @753 [@dyn 376] (gas: 19)\n 22032: a3 = s1 + 0x1140\n 22036: a4 = a3 + 0x700\n 22040: a0 = u64 [a4 + 0xa0]\n 22044: a1 = u64 [a4 + 0xa8]\n 22048: a2 = u64 [a4 + 0xb0]\n 22052: a3 = u64 [a4 + 0xb8]\n 22056: a4 = 0xffffff00ffffffff\n 22066: a2 = a2 & a4\n 22069: a4 = 0x200000000\n 22079: a2 = a2 | a4\n 22082: a4 = s1 + 0x3958\n 22086: a5 = a4 + 0x100\n 22090: u64 [a5 + 0xe0] = a3\n 22094: u64 [a5 + 0xd0] = a1\n 22098: u64 [a5 + 0xc8] = a0\n 22102: u64 [a5 + 0xd8] = a2\n 22106: a1 = s1 + 0x3b20\n 22110: a0 = u64 [s1 + 0x110]\n 22114: ra = 754, jump @9\n      : @754 [@dyn 377] (gas: 22)\n 22120: a0 = sp + 0xffffffffffffffe0\n 22123: a1 = a0 & 0xffffffffffffffe0\n 22126: sp = a1\n 22128: a2 = u64 [s1 + 0x168]\n 22132: a0 = a2 + 0x3\n 22135: a4 = a0 <u a2\n 22138: a3 = u64 [s1 + 0x170]\n 22142: a2 = a3 + a4\n 22145: a3 = a2 <u a3\n 22148: a3 = a4 if a4 == 0\n 22151: a4 = u64 [s1 + 0x180]\n 22155: a3 = a3 + a4\n 22158: a5 = a3 <u a4\n 22161: a4 = u64 [s1 + 0x178]\n 22165: a4 = a4 + a5\n 22168: u64 [a1 + 0x8] = a2\n 22171: u64 [a1] = a0\n 22173: u64 [a1 + 0x10] = a3\n 22176: u64 [a1 + 0x18] = a4\n 22179: a0 = s1 + 0x1880\n 22183: u64 [s1 + 0x138] = a1\n 22187: ra = 756, jump @6\n      : @755 [@dyn 378] (gas: 4)\n 22193: a0 = s1 + 0x1140\n 22197: a0 = u64 [a0 + 0x740]\n 22201: a1 = a0 & 0xff\n 22205: jump @779 if a1 != 0\n      : @756 (gas: 15)\n 22209: a3 = s1 + 0x1140\n 22213: a4 = a3 + 0x700\n 22217: a1 = u64 [a4 + 0x48]\n 22220: a2 = u64 [a4 + 0x58]\n 22223: a3 = u64 [a4 + 0x50]\n 22226: a0 = a0 | 0x1\n 22229: a4 = s1 + 0x3958\n 22233: a5 = a4 + 0x100\n 22237: u64 [a5 + 0xf0] = a1\n 22241: u64 [a5 + 0xe8] = a0\n 22245: u64 [a5 + 0xf8] = a3\n 22249: u64 [a4 + 0x200] = a2\n 22253: a1 = s1 + 0x3b40\n 22257: a0 = u64 [s1 + 0x138]\n 22261: ra = 758, jump @9\n      : @757 [@dyn 379] (gas: 13)\n 22267: a0 = u64 [s1 + 0x1a0]\n 22271: a2 = s1 + 0x1140\n 22275: a3 = a2 + 0x700\n 22279: u64 [a3 + 0x38] = a0\n 22282: a0 = u64 [s1 + 0x1a8]\n 22286: u64 [a3 + 0x30] = a0\n 22289: a0 = u64 [s1 + 0x1b0]\n 22293: u64 [a3 + 0x28] = a0\n 22296: a1 = s1 + 0x1860\n 22300: a0 = u64 [s1 + 0x1b8]\n 22304: u64 [a3 + 0x20] = a0\n 22307: a0 = 0\n 22309: ra = 760, jump @4\n      : @758 [@dyn 380] (gas: 3)\n 22315: t0 = 0x2fa\n 22319: a1 = s1 + 0x1140\n 22323: fallthrough\n      : @759 [@dyn 381] (gas: 8)\n 22324: u64 [a1 + 1816] = 0\n 22328: u64 [a1 + 1808] = 0\n 22332: u64 [a1 + 1792] = 0x4\n 22337: a2 = s1 + 0x1140\n 22341: a0 = 0x20\n 22344: a1 = s1 + 0x1840\n 22348: u64 [a2 + 1800] = 0\n 22352: ra = 764, jump @4\n      : @760 [@dyn 382] (gas: 7)\n 22358: a0 = sp + 0xffffffffffffffe0\n 22361: a0 = a0 & 0xffffffffffffffe0\n 22364: u64 [s1 + 0x138] = a0\n 22368: sp = a0\n 22370: a2 = u64 [s1 + 0x190]\n 22374: a0 = i32 [a2]\n 22376: jump @762 if a0 >u 63\n      : @761 (gas: 2)\n 22380: u32 [a2 + 0] = 0x40\n 22383: fallthrough\n      : @762 (gas: 4)\n 22384: a0 = sp + 0xffffffffffffffe0\n 22387: a0 = a0 & 0xffffffffffffffe0\n 22390: u64 [s1 + 0x130] = a0\n 22394: t0 = 766, jump @1430\n      : @763 [@dyn 383] (gas: 22)\n 22400: ecalli 7 // 'hash_keccak_256'\n 22402: a5 = s1 + 0x100\n 22406: a3 = u64 [a5 + 0x30]\n 22409: a0 = u64 [a3 + 0x18]\n 22412: a1 = u64 [a3 + 0x10]\n 22415: a2 = u64 [a3 + 0x8]\n 22418: a3 = u64 [a3]\n 22420: a0 = reverse a0\n 22422: a4 = reverse a1\n 22424: a2 = reverse a2\n 22426: a3 = reverse a3\n 22428: a1 = u64 [a5 + 0x38]\n 22431: u64 [a5 + 0x8] = a3\n 22434: u64 [a1 + 0x18] = a3\n 22437: u64 [a5 + 0x20] = a2\n 22440: u64 [a1 + 0x10] = a2\n 22443: u64 [a5 + 0x28] = a4\n 22446: u64 [a1 + 0x8] = a4\n 22449: u64 [a5 + 0x30] = a0\n 22452: u64 [a1] = a0\n 22454: a0 = s1 + 0x1820\n 22458: ra = 768, jump @6\n      : @764 [@dyn 384] (gas: 2)\n 22464: a3 = s1 + 0x1140\n 22468: fallthrough\n      : @765 (gas: 10)\n 22469: t0 = u64 [a3 + 0x6f8]\n 22473: a5 = u64 [a3 + 0x6f0]\n 22477: a4 = u64 [a3 + 0x6e8]\n 22481: a0 = t0 >u 0\n 22483: a1 = a5 >u 0\n 22485: a1 = a0 if t0 != 0\n 22488: a0 = a5 | t0\n 22491: a2 = a4 >u 0\n 22493: a2 = a1 if a0 != 0\n 22496: jump @767 if a2 == 0\n      : @766 (gas: 1)\n 22499: jump @1120\n      : @767 (gas: 22)\n 22502: a0 = u64 [a3 + 0x6e0]\n 22506: u64 [s1 + 0x190] = a0\n 22510: a0 = a0 + 0x1\n 22513: a1 = a0 <u 0x1\n 22516: a1 = a1 + a4\n 22519: a2 = a0 | a1\n 22522: a2 = a2 <u 0x1\n 22525: a2 = a2 + a5\n 22528: a3 = a2 <u a5\n 22531: a3 = a3 + t0\n 22534: u64 [s1 + 0x100] = a4\n 22538: a4 = s1 + 0x3958\n 22542: u64 [a4 + 0x208] = a0\n 22546: a0 = a4 + 0x200\n 22550: u64 [a0 + 0x10] = a1\n 22553: u64 [a0 + 0x18] = a2\n 22556: u64 [a0 + 0x20] = a3\n 22559: a1 = s1 + 0x3b60\n 22563: a0 = u64 [s1 + 0x138]\n 22567: u64 [s1 + 0x138] = a5\n 22571: u64 [s1 + 0xf8] = t0\n 22575: ra = 770, jump @9\n      : @768 [@dyn 385] (gas: 27)\n 22581: a0 = sp + 0xffffffffffffffe0\n 22584: a0 = a0 & 0xffffffffffffffe0\n 22587: u64 [s1 + 0x110] = a0\n 22591: sp = a0\n 22593: a1 = s1 + 0x1140\n 22597: a0 = u64 [s1 + 0xf8]\n 22601: a2 = a1 + 0x600\n 22605: u64 [a2 + 0x78] = a0\n 22608: a0 = u64 [s1 + 0x138]\n 22612: u64 [a2 + 0x70] = a0\n 22615: a0 = u64 [s1 + 0x100]\n 22619: u64 [a2 + 0x68] = a0\n 22622: a0 = u64 [s1 + 0x190]\n 22626: u64 [a2 + 0x60] = a0\n 22629: a0 = u64 [s1 + 0x108]\n 22633: u64 [a2 + 0x98] = a0\n 22637: a0 = u64 [s1 + 0x120]\n 22641: u64 [a2 + 0x90] = a0\n 22645: a0 = u64 [s1 + 0x128]\n 22649: u64 [a2 + 0x88] = a0\n 22653: a4 = s1 + 0x1140\n 22657: a0 = s1 + 0x17e0\n 22661: a1 = s1 + 0x17c0\n 22665: a2 = s1 + 0x17a0\n 22669: a3 = u64 [s1 + 0x130]\n 22673: u64 [a4 + 0x680] = a3\n 22677: ra = 772, jump @1200\n      : @769 [@dyn 386] (gas: 21)\n 22683: a1 = s1 + 0x1140\n 22687: a5 = a1 + 0x600\n 22691: a0 = u64 [a5 + 0xd8]\n 22695: u64 [s1 + 0x190] = a0\n 22699: a0 = u64 [a5 + 0xd0]\n 22703: u64 [s1 + 0x120] = a0\n 22707: a0 = u64 [a5 + 0xc8]\n 22711: u64 [s1 + 0x130] = a0\n 22715: a0 = u64 [a5 + 0xc0]\n 22719: u64 [s1 + 0x138] = a0\n 22723: a0 = u64 [a5 + 0xb0]\n 22727: a4 = u64 [a5 + 0xb8]\n 22731: a2 = u64 [a5 + 0xa0]\n 22735: a3 = u64 [a5 + 0xa8]\n 22739: a1 = u64 [s1 + 0x110]\n 22743: u64 [a1 + 0x10] = a0\n 22746: u64 [a1 + 0x18] = a4\n 22749: u64 [a1] = a2\n 22751: u64 [a1 + 0x8] = a3\n 22754: a0 = s1 + 0x1780\n 22758: ra = 774, jump @6\n      : @770 [@dyn 387] (gas: 67)\n 22764: a1 = s1 + 0x1140\n 22768: a2 = a1 + 0x600\n 22772: a0 = u64 [a2 + 0x50]\n 22775: u64 [s1 + 0xf0] = a0\n 22779: a0 = u64 [a2 + 0x58]\n 22782: u64 [s1 + 0xe8] = a0\n 22786: a0 = u64 [a2 + 0x40]\n 22789: a4 = s1 + 0x1140\n 22793: u64 [s1 + 0xe0] = a0\n 22797: a2 = u64 [s1 + 0x138]\n 22801: a0 = a2 >> 0x3d\n 22804: a3 = u64 [s1 + 0x130]\n 22808: a1 = a3 << 0x3\n 22811: a0 = a0 | a1\n 22814: u64 [s1 + 0x128] = a0\n 22818: a0 = a3 >> 0x3d\n 22821: a3 = u64 [s1 + 0x120]\n 22825: a1 = a3 << 0x3\n 22828: a0 = a0 | a1\n 22831: u64 [s1 + 0x130] = a0\n 22835: a0 = u64 [a4 + 0x648]\n 22839: u64 [s1 + 0xd8] = a0\n 22843: a0 = a3 >> 0x3d\n 22846: a1 = u64 [s1 + 0x190]\n 22850: a1 = a1 << 0x3\n 22853: a0 = a0 | a1\n 22856: u64 [s1 + 0x120] = a0\n 22860: a2 = a2 << 0x3\n 22863: u64 [s1 + 0x190] = a2\n 22867: a0 = u64 [s1 + 0x118]\n 22871: ecalli 4 // 'caller'\n 22873: a2 = u64 [s1 + 0x128]\n 22877: a0 = a2 >u 0\n 22879: a5 = u64 [s1 + 0x190]\n 22883: a1 = a5 <u 0x100\n 22887: a3 = a1 ^ 0x1\n 22890: a3 = a0 if a2 != 0\n 22893: a4 = u64 [s1 + 0x120]\n 22897: a0 = a4 >u 0\n 22899: a2 = u64 [s1 + 0x130]\n 22903: a1 = a2 >u 0\n 22905: a1 = a0 if a4 != 0\n 22908: a0 = a4\n 22910: a4 = u64 [s1 + 0x140]\n 22914: t1 = u64 [a4 + 0x8]\n 22917: a2 = a2 | a0\n 22920: t0 = i32 [a4 + 0x10]\n 22923: a3 = a1 if a2 != 0\n 22926: u64 [s1 + 0x108] = a3\n 22930: a1 = u64 [a4]\n 22932: a0 = reverse t1\n 22934: a2 = a0 << 0x20\n 22937: a3 = reverse t0\n 22939: a3 = a3 >> 0x20\n 22942: a3 = a3 | a2\n 22945: u64 [s1 + 0x100] = a3\n 22949: a0 = a0 >> 0x20\n 22952: a4 = reverse a1\n 22954: a2 = a4 << 0x20\n 22957: a1 = a2 | a0\n 22960: u64 [s1 + 0xf8] = a1\n 22964: a4 = a4 >> 0x20\n 22967: u64 [s1 + 0x130] = a4\n 22971: i32 a2 = 0x80 - a5\n 22975: u64 [s1 + 0xd0] = a2\n 22979: a0 = a3\n 22981: ra = 776, jump @1474\n      : @771 [@dyn 388] (gas: 8)\n 22987: u64 [s1 + 0x120] = a0\n 22991: u64 [s1 + 0xc0] = a1\n 22995: a0 = u64 [s1 + 0x138]\n 22999: i32 a2 = a0 << 0x3\n 23002: u64 [s1 + 0x128] = a2\n 23006: a0 = u64 [s1 + 0x130]\n 23010: a1 = 0\n 23012: ra = 778, jump @1479\n      : @772 [@dyn 389] (gas: 10)\n 23018: u64 [s1 + 0xb8] = a1\n 23022: a1 = u64 [s1 + 0x120]\n 23026: a0 = a0 | a1\n 23029: u64 [s1 + 0x138] = a0\n 23033: a0 = u64 [s1 + 0x190]\n 23037: i32 a2 = a0 + 0xffffffffffffff80\n 23040: u64 [s1 + 0xc8] = a2\n 23044: a0 = u64 [s1 + 0x100]\n 23048: a1 = u64 [s1 + 0xf8]\n 23052: ra = 780, jump @1479\n      : @773 [@dyn 390] (gas: 18)\n 23058: a2 = u64 [s1 + 0x190]\n 23062: a4 = a2 <u 0x80\n 23066: u64 [s1 + 0x120] = a4\n 23070: a3 = u64 [s1 + 0x138]\n 23074: a0 = a3 if a4 != 0\n 23077: a3 = u64 [s1 + 0x130]\n 23081: a0 = a3 if a2 == 0\n 23084: u64 [s1 + 0x138] = a0\n 23088: a0 = u64 [s1 + 0xc0]\n 23092: a3 = u64 [s1 + 0xb8]\n 23096: a0 = a0 | a3\n 23099: a0 = a1 if a4 == 0\n 23102: a0 = 0 if a2 == 0\n 23104: u64 [s1 + 0x130] = a0\n 23108: a0 = u64 [s1 + 0x100]\n 23112: a1 = u64 [s1 + 0xf8]\n 23116: a2 = u64 [s1 + 0x128]\n 23120: ra = 782, jump @1479\n      : @774 [@dyn 391] (gas: 20)\n 23126: a2 = a1\n 23128: a1 = u64 [s1 + 0x120]\n 23132: a0 = 0 if a1 == 0\n 23134: a2 = 0 if a1 == 0\n 23136: a3 = u64 [s1 + 0x108]\n 23140: a1 = u64 [s1 + 0x130]\n 23144: a1 = 0 if a3 != 0\n 23146: u64 [s1 + 0x130] = a1\n 23150: a1 = u64 [s1 + 0x138]\n 23154: a1 = 0 if a3 != 0\n 23156: u64 [s1 + 0x138] = a1\n 23160: a2 = 0 if a3 != 0\n 23162: u64 [s1 + 0x100] = a2\n 23166: a0 = 0 if a3 != 0\n 23168: u64 [s1 + 0xf8] = a0\n 23172: a0 = 0xffffffff\n 23182: u64 [s1 + 0xc0] = a0\n 23186: a1 = 0\n 23188: a2 = u64 [s1 + 0x128]\n 23192: ra = 784, jump @1479\n      : @775 [@dyn 392] (gas: 6)\n 23198: u64 [s1 + 0xa8] = a0\n 23202: u64 [s1 + 0xb8] = a1\n 23206: a0 = 0xffffffffffffffff\n 23209: a1 = 0xffffffffffffffff\n 23212: a2 = u64 [s1 + 0xd0]\n 23216: ra = 786, jump @1474\n      : @776 [@dyn 393] (gas: 8)\n 23222: u64 [s1 + 0xb0] = a1\n 23226: a1 = u64 [s1 + 0xa8]\n 23230: a0 = a0 | a1\n 23233: u64 [s1 + 0xd0] = a0\n 23237: a0 = 0xffffffffffffffff\n 23240: a1 = 0xffffffffffffffff\n 23243: a2 = u64 [s1 + 0xc8]\n 23247: ra = 788, jump @1479\n      : @777 [@dyn 394] (gas: 17)\n 23253: a2 = u64 [s1 + 0x120]\n 23257: a3 = u64 [s1 + 0xd0]\n 23261: a0 = a3 if a2 != 0\n 23264: a4 = u64 [s1 + 0x190]\n 23268: a3 = u64 [s1 + 0xc0]\n 23272: a0 = a3 if a4 == 0\n 23275: u64 [s1 + 0xd0] = a0\n 23279: a0 = u64 [s1 + 0xb8]\n 23283: a3 = u64 [s1 + 0xb0]\n 23287: a0 = a0 | a3\n 23290: a0 = a1 if a2 == 0\n 23293: a0 = 0 if a4 == 0\n 23295: u64 [s1 + 0x190] = a0\n 23299: a0 = 0xffffffffffffffff\n 23302: a1 = 0xffffffffffffffff\n 23305: a2 = u64 [s1 + 0x128]\n 23309: ra = 790, jump @1479\n      : @778 [@dyn 395] (gas: 40)\n 23315: a2 = u64 [s1 + 0x120]\n 23319: a0 = 0 if a2 == 0\n 23321: a1 = 0 if a2 == 0\n 23323: a2 = u64 [s1 + 0x190]\n 23327: a2 = a2 ^ 0xffffffffffffffff\n 23330: a3 = u64 [s1 + 0xd0]\n 23334: a3 = a3 ^ 0xffffffffffffffff\n 23337: a1 = a1 ^ 0xffffffffffffffff\n 23340: a0 = a0 ^ 0xffffffffffffffff\n 23343: a4 = u64 [s1 + 0x108]\n 23347: a3 = 0xffffffffffffffff if a4 != 0\n 23350: a2 = 0xffffffffffffffff if a4 != 0\n 23353: a0 = 0xffffffffffffffff if a4 != 0\n 23356: a1 = 0xffffffffffffffff if a4 != 0\n 23359: a4 = u64 [s1 + 0xd8]\n 23363: a1 = a1 & a4\n 23366: a4 = u64 [s1 + 0xe0]\n 23370: a0 = a0 & a4\n 23373: a4 = u64 [s1 + 0xe8]\n 23377: a2 = a2 & a4\n 23380: a4 = u64 [s1 + 0xf0]\n 23384: a3 = a3 & a4\n 23387: a5 = s1 + 0x100\n 23391: a4 = u64 [a5 + 0x38]\n 23394: a3 = a3 | a4\n 23397: a4 = u64 [a5 + 0x30]\n 23400: a2 = a2 | a4\n 23403: a4 = u64 [s1 + 0xf8]\n 23407: a0 = a0 | a4\n 23410: a4 = u64 [a5]\n 23412: a1 = a1 | a4\n 23415: a4 = s1 + 0x3958\n 23419: u64 [a4 + 0x230] = a1\n 23423: a1 = a4 + 0x200\n 23427: u64 [a1 + 0x28] = a0\n 23430: u64 [a1 + 0x40] = a2\n 23433: u64 [a1 + 0x38] = a3\n 23436: a1 = s1 + 0x3b80\n 23440: a0 = u64 [a5 + 0x10]\n 23443: ra = 792, jump @9\n      : @779 [@dyn 396] (gas: 21)\n 23449: a0 = s1 + 0x3958\n 23453: u64 [a0 + 608] = 0\n 23457: u64 [a0 + 600] = 0\n 23461: u64 [a0 + 592] = 0\n 23465: u64 [a0 + 584] = 0\n 23469: a0 = s1 + 0x4000\n 23473: i32 a0 = a0 + 0xfffffffffffffba0\n 23477: ecalli 14 // 'value_transferred'\n 23479: a0 = s1 + 0x3958\n 23483: a2 = a0 + 0x200\n 23487: a1 = u64 [a2 + 0x48]\n 23490: u64 [s1 + 0x190] = a1\n 23494: a1 = u64 [a2 + 0x50]\n 23497: u64 [s1 + 0x138] = a1\n 23501: a1 = u64 [a2 + 0x58]\n 23504: u64 [s1 + 0x130] = a1\n 23508: a0 = u64 [a2 + 0x60]\n 23511: u64 [s1 + 0x128] = a0\n 23515: a0 = s1 + 0x1760\n 23519: a1 = u64 [s1 + 0x188]\n 23523: ra = 794, jump @6\n      : @780 [@dyn 397] (gas: 24)\n 23529: a4 = s1 + 0x1140\n 23533: a5 = a4 + 0x600\n 23537: a3 = u64 [a5 + 0x20]\n 23540: a0 = u64 [a5 + 0x28]\n 23543: a1 = u64 [a5 + 0x30]\n 23546: a2 = u64 [a5 + 0x38]\n 23549: a5 = u64 [s1 + 0x128]\n 23553: u64 [a4 + 0x5d8] = a5\n 23557: a5 = u64 [s1 + 0x130]\n 23561: u64 [a4 + 0x5d0] = a5\n 23565: a5 = u64 [s1 + 0x138]\n 23569: u64 [a4 + 0x5c8] = a5\n 23573: a5 = u64 [s1 + 0x190]\n 23577: u64 [a4 + 0x5c0] = a5\n 23581: a5 = a4 + 0x500\n 23585: u64 [a5 + 0xf8] = a2\n 23589: u64 [a5 + 0xf0] = a1\n 23593: u64 [a5 + 0xe8] = a0\n 23597: a4 = s1 + 0x1140\n 23601: a0 = s1 + 0x1740\n 23605: a1 = s1 + 0x1720\n 23609: a2 = s1 + 0x1700\n 23613: u64 [a4 + 0x5e0] = a3\n 23617: ra = 796, jump @1275\n      : @781 [@dyn 398] (gas: 15)\n 23623: a3 = s1 + 0x1140\n 23627: a4 = a3 + 0x600\n 23631: a0 = u64 [a4 + 0x18]\n 23634: a1 = u64 [a4 + 0x10]\n 23637: a2 = u64 [a4 + 0x8]\n 23640: a3 = u64 [a4]\n 23642: a4 = s1 + 0x3958\n 23646: a5 = a4 + 0x200\n 23650: u64 [a5 + 0x80] = a0\n 23654: u64 [a5 + 0x78] = a1\n 23657: u64 [a5 + 0x70] = a2\n 23660: u64 [a5 + 0x68] = a3\n 23663: a1 = s1 + 0x3bc0\n 23667: a0 = u64 [s1 + 0x188]\n 23671: ra = 798, jump @9\n      : @782 [@dyn 399] (gas: 24)\n 23677: a0 = sp + 0xffffffffffffffe0\n 23680: t0 = a0 & 0xffffffffffffffe0\n 23683: sp = t0\n 23685: a0 = u64 [s1 + 0x168]\n 23689: a0 = a0 + 0x1\n 23692: a1 = a0 <u 0x1\n 23695: a2 = u64 [s1 + 0x170]\n 23699: a5 = a2 + a1\n 23702: a2 = a0 | a5\n 23705: a2 = a2 <u 0x1\n 23708: a3 = u64 [s1 + 0x180]\n 23712: a2 = a2 + a3\n 23715: a3 = a2 <u a3\n 23718: a4 = u64 [s1 + 0x178]\n 23722: a3 = a3 + a4\n 23725: a1 = t0\n 23727: u64 [s1 + 0x190] = t0\n 23731: a4 = t0\n 23733: u64 [a4 + 0x18] = a3\n 23736: u64 [a4 + 0x10] = a2\n 23739: u64 [a4 + 0x8] = a5\n 23742: u64 [a4] = a0\n 23744: a0 = s1 + 0x16e0\n 23748: ra = 800, jump @6\n      : @783 [@dyn 400] (gas: 14)\n 23754: a4 = s1 + 0x1140\n 23758: a5 = a4 + 0x500\n 23762: a2 = u64 [a5 + 0xa0]\n 23766: a0 = u64 [a5 + 0xa8]\n 23770: a1 = u64 [a5 + 0xb0]\n 23774: a3 = u64 [a5 + 0xb8]\n 23778: u64 [a5 + 0x78] = a3\n 23781: u64 [a5 + 0x70] = a1\n 23784: u64 [a5 + 0x68] = a0\n 23787: a3 = s1 + 0x1140\n 23791: a0 = s1 + 0x16c0\n 23795: a1 = s1 + 0x16a0\n 23799: u64 [a3 + 0x560] = a2\n 23803: ra = 802, jump @1267\n      : @784 [@dyn 401] (gas: 15)\n 23809: a3 = s1 + 0x1140\n 23813: a4 = a3 + 0x500\n 23817: a0 = u64 [a4 + 0x98]\n 23821: a1 = u64 [a4 + 0x90]\n 23825: a2 = u64 [a4 + 0x88]\n 23829: a3 = u64 [a4 + 0x80]\n 23833: a4 = s1 + 0x3958\n 23837: a5 = a4 + 0x200\n 23841: u64 [a5 + 0xa0] = a0\n 23845: u64 [a5 + 0x98] = a1\n 23849: u64 [a5 + 0x90] = a2\n 23853: u64 [a5 + 0x88] = a3\n 23857: a1 = s1 + 0x3be0\n 23861: a0 = u64 [s1 + 0x190]\n 23865: ra = 804, jump @9\n      : @785 [@dyn 402] (gas: 5)\n 23871: a0 = s1 + 0x4000\n 23875: i32 a0 = a0 + 0xfffffffffffffc00\n 23879: ra = 0x326\n 23883: ecalli 8 // 'now'\n 23885: fallthrough\n      : @786 [@dyn 403] (gas: 5)\n 23886: a1 = u64 [s1 + 0x168]\n 23890: a0 = a1 + 0x2\n 23893: a1 = a0 <u a1\n 23896: a3 = u64 [s1 + 0x170]\n 23900: t0 = 808, jump @1463\n      : @787 [@dyn 404] (gas: 22)\n 23906: a1 = u64 [s1 + 0x180]\n 23910: a3 = a3 + a1\n 23913: a1 = a3 <u a1\n 23916: a4 = u64 [s1 + 0x178]\n 23920: a1 = a1 + a4\n 23923: a4 = s1 + 0x3958\n 23927: a5 = a4 + 0x200\n 23931: u64 [a5 + 0xe0] = a1\n 23935: a1 = u64 [a5 + 0xb0]\n 23939: u64 [a5 + 0xd8] = a3\n 23943: a3 = u64 [a5 + 0xc0]\n 23947: u64 [a5 + 0xd0] = a2\n 23951: a2 = u64 [a5 + 0xb8]\n 23955: u64 [a5 + 0xc8] = a0\n 23959: a0 = u64 [a5 + 0xa8]\n 23963: u64 [a4 + 0x300] = a3\n 23967: u64 [a5 + 0xf8] = a2\n 23971: u64 [a5 + 0xf0] = a1\n 23975: u64 [a5 + 0xe8] = a0\n 23979: a0 = s1 + 0x3c20\n 23983: a1 = s1 + 0x3c40\n 23987: ra = 810, jump @9\n      : @788 [@dyn 405] (gas: 8)\n 23993: a0 = sp + 0xffffffffffffffe0\n 23996: a5 = a0 & 0xffffffffffffffe0\n 23999: sp = a5\n 24001: a1 = u64 [s1 + 0x148]\n 24005: a0 = a1 + 0x4\n 24008: a1 = a0 <u a1\n 24011: a3 = u64 [s1 + 0x150]\n 24015: t0 = 812, jump @1463\n      : @789 [@dyn 406] (gas: 31)\n 24021: a1 = u64 [s1 + 0x158]\n 24025: a3 = a3 + a1\n 24028: a1 = a3 <u a1\n 24031: a4 = u64 [s1 + 0x160]\n 24035: a1 = a1 + a4\n 24038: u64 [s1 + 0x190] = a5\n 24042: u64 [a5 + 0x18] = a1\n 24045: u64 [a5 + 0x10] = a3\n 24048: u64 [a5 + 0x8] = a2\n 24051: u64 [a5] = a0\n 24053: a0 = s1 + 0x3958\n 24057: u64 [a0 + 800] = 0\n 24061: u64 [a0 + 792] = 0\n 24065: u64 [a0 + 784] = 0\n 24069: u64 [a0 + 776] = 0\n 24073: a0 = s1 + 0x4000\n 24077: i32 a0 = a0 + 0xfffffffffffffc60\n 24081: ecalli 14 // 'value_transferred'\n 24083: a0 = s1 + 0x3958\n 24087: a2 = a0 + 0x300\n 24091: a1 = u64 [a2 + 0x8]\n 24094: u64 [s1 + 0x180] = a1\n 24098: a1 = u64 [a2 + 0x10]\n 24101: u64 [s1 + 0x178] = a1\n 24105: a1 = u64 [a2 + 0x18]\n 24108: u64 [s1 + 0x170] = a1\n 24112: a0 = u64 [a2 + 0x20]\n 24115: u64 [s1 + 0x168] = a0\n 24119: a0 = s1 + 0x1680\n 24123: a1 = u64 [s1 + 0x190]\n 24127: ra = 814, jump @6\n      : @790 [@dyn 407] (gas: 23)\n 24133: a4 = s1 + 0x1140\n 24137: a3 = u64 [a4 + 0x540]\n 24141: a0 = u64 [a4 + 0x548]\n 24145: a1 = u64 [a4 + 0x550]\n 24149: a2 = u64 [a4 + 0x558]\n 24153: a5 = u64 [s1 + 0x168]\n 24157: u64 [a4 + 0x4f8] = a5\n 24161: a5 = u64 [s1 + 0x170]\n 24165: u64 [a4 + 0x4f0] = a5\n 24169: a5 = u64 [s1 + 0x178]\n 24173: u64 [a4 + 0x4e8] = a5\n 24177: a5 = u64 [s1 + 0x180]\n 24181: u64 [a4 + 0x4e0] = a5\n 24185: a5 = a4 + 0x500\n 24189: u64 [a5 + 0x18] = a2\n 24192: u64 [a5 + 0x10] = a1\n 24195: u64 [a5 + 0x8] = a0\n 24198: a4 = s1 + 0x1140\n 24202: a0 = s1 + 0x1660\n 24206: a1 = s1 + 0x1640\n 24210: a2 = s1 + 0x1620\n 24214: u64 [a4 + 0x500] = a3\n 24218: ra = 816, jump @1275\n      : @791 [@dyn 408] (gas: 15)\n 24224: a3 = s1 + 0x1140\n 24228: a4 = a3 + 0x500\n 24232: a0 = u64 [a4 + 0x38]\n 24235: a1 = u64 [a4 + 0x30]\n 24238: a2 = u64 [a4 + 0x28]\n 24241: a3 = u64 [a4 + 0x20]\n 24244: a4 = s1 + 0x3958\n 24248: a5 = a4 + 0x300\n 24252: u64 [a5 + 0x40] = a0\n 24255: u64 [a5 + 0x38] = a1\n 24258: u64 [a5 + 0x30] = a2\n 24261: u64 [a5 + 0x28] = a3\n 24264: a1 = s1 + 0x3c80\n 24268: a0 = u64 [s1 + 0x190]\n 24272: ra = 818, jump @9\n      : @792 [@dyn 409] (gas: 3)\n 24278: a0 = s1 + 0x1600\n 24282: a1 = u64 [s1 + 0x188]\n 24286: ra = 820, jump @6\n      : @793 [@dyn 410] (gas: 13)\n 24292: a1 = s1 + 0x1140\n 24296: a2 = a1 + 0x400\n 24300: a0 = u64 [a2 + 0xd8]\n 24304: u64 [s1 + 0x170] = a0\n 24308: a0 = u64 [a2 + 0xd0]\n 24312: u64 [s1 + 0x168] = a0\n 24316: a0 = u64 [a2 + 0xc8]\n 24320: u64 [s1 + 0x160] = a0\n 24324: a0 = u64 [a2 + 0xc0]\n 24328: u64 [s1 + 0x158] = a0\n 24332: a0 = s1 + 0x15e0\n 24336: a1 = 0x40\n 24339: ra = 822, jump @2\n      : @794 [@dyn 411] (gas: 20)\n 24345: a1 = s1 + 0x1140\n 24349: a2 = a1 + 0x400\n 24353: a0 = u64 [a2 + 0xb8]\n 24357: u64 [s1 + 0x180] = a0\n 24361: a0 = u64 [a2 + 0xb0]\n 24365: u64 [s1 + 0x178] = a0\n 24369: a0 = u64 [a2 + 0xa8]\n 24373: u64 [s1 + 0x188] = a0\n 24377: a0 = u64 [a2 + 0xa0]\n 24381: u64 [s1 + 0x190] = a0\n 24385: a0 = s1 + 0x3958\n 24389: u64 [a0 + 864] = 0\n 24393: u64 [a0 + 856] = 0\n 24397: u64 [a0 + 848] = 0\n 24401: u64 [a0 + 840] = 0\n 24405: a0 = s1 + 0x4000\n 24409: i32 a0 = a0 + 0xfffffffffffffca0\n 24413: ra = 0x338\n 24417: ecalli 14 // 'value_transferred'\n 24419: fallthrough\n      : @795 [@dyn 412] (gas: 7)\n 24420: a3 = s1 + 0x100\n 24424: a0 = u64 [a3 + 0x80]\n 24428: a1 = u64 [a3 + 0x88]\n 24432: a0 = a0 | a1\n 24435: a2 = u64 [a3 + 0x78]\n 24438: a1 = u64 [a3 + 0x90]\n 24442: t0 = 826, jump @1472\n      : @796 [@dyn 413] (gas: 1)\n 24448: jump @798 if a0 == 0\n      : @797 (gas: 1)\n 24451: jump @912\n      : @798 (gas: 15)\n 24454: a3 = s1 + 0x3958\n 24458: a4 = a3 + 0x300\n 24462: a0 = u64 [a4 + 0x48]\n 24465: a1 = u64 [a4 + 0x50]\n 24468: a2 = u64 [a4 + 0x58]\n 24471: a3 = u64 [a4 + 0x60]\n 24474: a4 = s1 + 0x1140\n 24478: a5 = a4 + 0x400\n 24482: u64 [a5 + 0x98] = a3\n 24486: u64 [a5 + 0x90] = a2\n 24490: u64 [a5 + 0x88] = a1\n 24494: a1 = s1 + 0x15c0\n 24498: u64 [a5 + 0x80] = a0\n 24502: a0 = u64 [s1 + 0x190]\n 24506: ra = 828, jump @4\n      : @799 [@dyn 414] (gas: 11)\n 24512: a3 = s1 + 0x100\n 24516: a0 = u64 [a3 + 0x80]\n 24520: a1 = u64 [a3 + 0x78]\n 24523: a0 = a0 | a1\n 24526: a1 = 0xffffffe0\n 24536: a2 = u64 [a3 + 0x90]\n 24540: a1 = a2 <u a1\n 24543: a2 = u64 [a3 + 0x88]\n 24547: a1 = 0 if a2 != 0\n 24549: a1 = 0 if a0 != 0\n 24551: jump @801 if a1 != 0\n      : @800 (gas: 1)\n 24554: jump @912\n      : @801 (gas: 14)\n 24557: a0 = u64 [s1 + 0x190]\n 24561: i32 a0 = a0 + 0x20\n 24564: a3 = s1 + 0x1140\n 24568: a1 = u64 [s1 + 0x158]\n 24572: a4 = a3 + 0x400\n 24576: u64 [a4 + 0x60] = a1\n 24579: a1 = u64 [s1 + 0x160]\n 24583: u64 [a4 + 0x68] = a1\n 24586: a1 = u64 [s1 + 0x168]\n 24590: u64 [a4 + 0x70] = a1\n 24593: a1 = s1 + 0x15a0\n 24597: a2 = u64 [s1 + 0x170]\n 24601: u64 [a4 + 0x78] = a2\n 24604: ra = 830, jump @4\n      : @802 [@dyn 415] (gas: 45)\n 24610: a0 = u64 [s1 + 0x118]\n 24614: ecalli 4 // 'caller'\n 24616: a2 = u64 [s1 + 0x140]\n 24620: a0 = u64 [a2 + 0x8]\n 24623: a1 = i32 [a2 + 0x10]\n 24626: a2 = u64 [a2]\n 24628: a3 = reverse a0\n 24630: a0 = a3 << 0x20\n 24633: a1 = reverse a1\n 24635: a1 = a1 >> 0x20\n 24638: t0 = a1 | a0\n 24641: a3 = a3 >> 0x20\n 24644: a2 = reverse a2\n 24646: a1 = a2 << 0x20\n 24649: t1 = a1 | a3\n 24652: a2 = a2 >> 0x20\n 24655: a1 = s1 + 0x1140\n 24659: u64 [a1 + 1048] = 0\n 24663: a0 = u64 [s1 + 0x1a0]\n 24667: u64 [a1 + 0x438] = a0\n 24671: a0 = u64 [s1 + 0x1a8]\n 24675: u64 [a1 + 0x430] = a0\n 24679: a0 = u64 [s1 + 0x1b0]\n 24683: u64 [a1 + 0x428] = a0\n 24687: a0 = u64 [s1 + 0x1b8]\n 24691: u64 [a1 + 0x420] = a0\n 24695: a3 = u64 [0x20080]\n 24700: a4 = u64 [0x20088]\n 24705: a5 = u64 [0x20090]\n 24710: a0 = u64 [0x20098]\n 24715: u64 [a1 + 0x458] = a3\n 24719: a3 = a1 + 0x400\n 24723: u64 [a3 + 0x50] = a4\n 24726: u64 [a3 + 0x48] = a5\n 24729: u64 [a3 + 0x40] = a0\n 24732: u64 [a3 + 0x10] = a2\n 24735: u64 [a1 + 0x408] = t1\n 24739: a0 = s1 + 0x1140\n 24743: a1 = 0x40\n 24746: a2 = s1 + 0x1580\n 24750: a3 = s1 + 0x1560\n 24754: a4 = s1 + 0x1540\n 24758: u64 [a0 + 0x400] = t0\n 24762: a0 = u64 [s1 + 0x190]\n 24766: ra = 832, jump @12\n      : @803 [@dyn 416] (gas: 6)\n 24772: a0 = 0\n 24774: a1 = u64 [s1 + 0x198]\n 24778: a2 = 0\n 24780: ecalli 11 // 'seal_return'\n 24782: a1 = 0x20160\n 24787: jump @1079\n      : @804 (gas: 40)\n 24790: a1 = u64 [s1 + 0xf0]\n 24794: a0 = u64 [s1 + 0x180]\n 24798: t2 = a0 <u a1\n 24801: a5 = u64 [s1 + 0xb8]\n 24805: a0 = t0 ^ a5\n 24808: a2 = t0 <u a5\n 24811: a2 = t2 if a0 == 0\n 24814: a0 = u64 [s1 + 0xc0]\n 24818: a3 = a4 - a0\n 24821: t1 = a3 <u a2\n 24824: a4 = a4 <u a0\n 24827: a4 = a4 + t1\n 24830: u64 [s1 + 0x1b8] = a4\n 24834: t1 = u64 [s1 + 0xc8]\n 24838: a4 = u64 [s1 + 0x178]\n 24842: a4 = a4 - t1\n 24845: ra = u64 [s1 + 0x1b8]\n 24849: a4 = a4 - ra\n 24852: u64 [s1 + 0x1b8] = a4\n 24856: a3 = a3 - a2\n 24859: u64 [s1 + 0x1b0] = a3\n 24863: a2 = t0 - a5\n 24866: a2 = a2 - t2\n 24869: a4 = u64 [s1 + 0x180]\n 24873: a4 = a4 - a1\n 24876: a3 = s1 + 0x2158\n 24880: u64 [a3 + 0x168] = a1\n 24884: u64 [a3 + 0x148] = a4\n 24888: a4 = a3 + 0x100\n 24892: u64 [a4 + 0x70] = a5\n 24895: u64 [a4 + 0x78] = a0\n 24898: u64 [a4 + 0x50] = a2\n 24901: u64 [a3 + 0x180] = t1\n 24905: a0 = u64 [s1 + 0x1b0]\n 24909: u64 [a4 + 0x58] = a0\n 24912: a0 = s1 + 0x22c0\n 24916: a1 = s1 + 0x22a0\n 24920: a2 = u64 [s1 + 0x1b8]\n 24924: u64 [a4 + 0x60] = a2\n 24927: ra = 834, jump @1235\n      : @805 [@dyn 417] (gas: 25)\n 24933: u64 [s1 + 440] = 0\n 24937: u64 [s1 + 432] = 0\n 24941: u64 [s1 + 416] = 0\n 24945: u64 [s1 + 424] = 0\n 24949: a0 = u64 [s1 + 0xb0]\n 24953: a0 = a0 << 0x20\n 24956: a0 = a0 >> 0x20\n 24959: a2 = s1 + 0x100\n 24963: u64 [a2 + 0x40] = a0\n 24966: a0 = s1 + 0x3e00\n 24970: a0 = a0 << 0x20\n 24973: a0 = a0 >> 0x20\n 24976: a1 = s1 + 0x3e40\n 24980: a1 = a1 << 0x20\n 24983: a0 = a0 | a1\n 24986: u64 [a2 + 0x30] = a0\n 24989: a0 = u64 [s1 + 0xa8]\n 24993: a0 = a0 << 0x20\n 24996: a1 = a0 >> 0x20\n 24999: a0 = s1 + 0x3e20\n 25003: a0 = a0 << 0x20\n 25006: u64 [a2 + 0x28] = a1\n 25009: a0 = a0 | a1\n 25012: u64 [a2 + 0x20] = a0\n 25015: fallthrough\n      : @806 (gas: 3)\n 25016: a0 = s1 + 0x2280\n 25020: a1 = u64 [s1 + 0xf0]\n 25024: ra = 836, jump @2\n      : @807 [@dyn 418] (gas: 22)\n 25030: a5 = s1 + 0x2158\n 25034: a3 = a5 + 0x100\n 25038: a0 = u64 [a3 + 0x30]\n 25041: a1 = u64 [a3 + 0x40]\n 25044: a2 = u64 [a3 + 0x28]\n 25047: t2 = u64 [a5 + 0x138]\n 25051: ra = u64 [s1 + 0x1b0]\n 25055: t1 = ra ^ a0\n 25058: a0 = ra <u a0\n 25061: t0 = u64 [s1 + 0x1b8]\n 25065: a2 = t0 <u a2\n 25068: a2 = a0 if t1 != 0\n 25071: a4 = u64 [s1 + 0x1a0]\n 25075: a0 = a4 <u t2\n 25078: a3 = u64 [s1 + 0x1a8]\n 25082: t1 = a3 ^ a1\n 25085: a1 = a3 <u a1\n 25088: a1 = a0 if t1 == 0\n 25091: a0 = a4 ^ t2\n 25094: a0 = a0 | t1\n 25097: a1 = a2 if a0 == 0\n 25100: jump @896 if a1 == 0\n      : @808 (gas: 16)\n 25104: u64 [a5 + 0x8] = t0\n 25107: a0 = u64 [s1 + 0xf0]\n 25111: u64 [a5 + 0x28] = a0\n 25114: u64 [a5 + 0x10] = ra\n 25117: a0 = u64 [s1 + 0xb8]\n 25121: u64 [a5 + 0x30] = a0\n 25124: u64 [a5 + 0x18] = a4\n 25127: a0 = u64 [s1 + 0xc0]\n 25131: u64 [a5 + 0x38] = a0\n 25134: u64 [a5 + 0x20] = a3\n 25137: a0 = s1 + 0x21a0\n 25141: a1 = s1 + 0x2180\n 25145: a2 = s1 + 0x2160\n 25149: a3 = u64 [s1 + 0xc8]\n 25153: u64 [a5 + 0x40] = a3\n 25156: ra = 838, jump @1323\n      : @809 [@dyn 419] (gas: 3)\n 25162: t0 = 0x348\n 25166: a1 = s1 + 0x2158\n 25170: fallthrough\n      : @810 [@dyn 420] (gas: 12)\n 25171: a0 = u64 [a1 + 0x60]\n 25174: a2 = u64 [a1 + 0x58]\n 25177: a3 = u64 [a1 + 0x50]\n 25180: a1 = u64 [a1 + 0x48]\n 25183: a0 = a0 | a3\n 25186: a3 = a1 | a2\n 25189: a3 = a3 | a0\n 25192: a3 = a3 >> 0x20\n 25195: a0 = a0 | a2\n 25198: a0 = a0 << 0x20\n 25201: a0 = a0 | a3\n 25204: jump @912 if a0 != 0\n      : @811 (gas: 2)\n 25208: a0 = s1 + 0x2140\n 25212: ra = 842, jump @2\n      : @812 [@dyn 421] (gas: 12)\n 25218: a1 = s1 + 0x2158\n 25222: a2 = a1 + 0xffffffffffffff00\n 25226: a0 = u64 [a2 + 0xf8]\n 25230: a1 = s1 + 0x100\n 25234: u64 [a1 + 0x90] = a0\n 25238: a0 = u64 [a2 + 0xf0]\n 25242: u64 [a1 + 0x88] = a0\n 25246: a0 = u64 [a2 + 0xe8]\n 25250: u64 [a1 + 0x98] = a0\n 25254: t0 = 0x34c\n 25258: a2 = s1 + 0x1958\n 25262: fallthrough\n      : @813 [@dyn 422] (gas: 12)\n 25263: a0 = u64 [s1 + 0xd0]\n 25267: a3 = a2 + 0x700\n 25271: u64 [a3 + 0xe0] = a0\n 25275: a0 = u64 [s1 + 0xd8]\n 25279: u64 [a3 + 0xd8] = a0\n 25283: a0 = u64 [s1 + 0xe0]\n 25287: u64 [a3 + 0xd0] = a0\n 25291: a1 = s1 + 0x2120\n 25295: a0 = u64 [s1 + 0xe8]\n 25299: u64 [a3 + 0xc8] = a0\n 25303: a0 = 0\n 25305: ra = 846, jump @4\n      : @814 [@dyn 423] (gas: 9)\n 25311: a0 = s1 + 0x1958\n 25315: u64 [a0 + 1984] = 0\n 25319: u64 [a0 + 1976] = 0\n 25323: u64 [a0 + 1968] = 0\n 25327: a3 = a0\n 25329: a0 = 0x20\n 25332: a1 = s1 + 0x2100\n 25336: u64 [a3 + 1960] = 0x3\n 25341: ra = 848, jump @4\n      : @815 [@dyn 424] (gas: 3)\n 25347: a1 = u64 [s1 + 0xf8]\n 25351: a0 = i32 [a1]\n 25353: jump @817 if a0 >u 63\n      : @816 (gas: 2)\n 25357: u32 [a1 + 0] = 0x40\n 25360: fallthrough\n      : @817 (gas: 14)\n 25361: a0 = u64 [s1 + 0x138]\n 25365: a1 = u64 [s1 + 0x190]\n 25369: a0 = a0 & a1\n 25372: u64 [s1 + 0x168] = a0\n 25376: a1 = u64 [s1 + 0x188]\n 25380: a1 = a1 & 0xffffffffffffffff\n 25383: u64 [s1 + 0x170] = a1\n 25387: a1 = u64 [s1 + 0x198]\n 25391: a0 = a1 & 0xffffffffffffffff\n 25394: u64 [s1 + 0x178] = a0\n 25398: a0 = sp + 0xffffffffffffffe0\n 25401: a0 = a0 & 0xffffffffffffffe0\n 25404: u64 [s1 + 0x180] = a0\n 25408: t0 = 850, jump @1458\n      : @818 [@dyn 425] (gas: 21)\n 25414: ecalli 7 // 'hash_keccak_256'\n 25416: a3 = u64 [s1 + 0x180]\n 25420: a0 = u64 [a3 + 0x18]\n 25423: a1 = u64 [a3 + 0x10]\n 25426: a2 = u64 [a3 + 0x8]\n 25429: a3 = u64 [a3]\n 25431: a0 = reverse a0\n 25433: u64 [s1 + 0x160] = a0\n 25437: a0 = reverse a1\n 25439: u64 [s1 + 0x158] = a0\n 25443: a0 = reverse a2\n 25445: u64 [s1 + 0x150] = a0\n 25449: a0 = reverse a3\n 25451: u64 [s1 + 0x148] = a0\n 25455: a0 = sp + 0xffffffffffffffe0\n 25458: a0 = a0 & 0xffffffffffffffe0\n 25461: u64 [s1 + 0x180] = a0\n 25465: sp = a0\n 25467: t0 = 0x354\n 25471: a2 = s1 + 0x1958\n 25475: fallthrough\n      : @819 [@dyn 426] (gas: 11)\n 25476: u64 [a2 + 1952] = 0\n 25480: a0 = u64 [s1 + 0x168]\n 25484: a3 = a2 + 0x700\n 25488: u64 [a3 + 0x98] = a0\n 25492: a0 = u64 [s1 + 0x170]\n 25496: u64 [a3 + 0x90] = a0\n 25500: a1 = s1 + 0x20e0\n 25504: a0 = u64 [s1 + 0x178]\n 25508: u64 [a3 + 0x88] = a0\n 25512: a0 = 0\n 25514: ra = 854, jump @4\n      : @820 [@dyn 427] (gas: 15)\n 25520: a4 = s1 + 0x100\n 25524: a0 = u64 [a4 + 0x48]\n 25527: a1 = s1 + 0x1958\n 25531: a2 = a1 + 0x700\n 25535: u64 [a2 + 0x80] = a0\n 25539: a0 = u64 [a4 + 0x50]\n 25542: u64 [a2 + 0x78] = a0\n 25545: a0 = u64 [a4 + 0x58]\n 25548: u64 [a2 + 0x70] = a0\n 25551: a3 = a1\n 25553: a0 = 0x20\n 25556: a1 = s1 + 0x20c0\n 25560: a2 = u64 [a4 + 0x60]\n 25563: u64 [a3 + 0x768] = a2\n 25567: ra = 856, jump @4\n      : @821 [@dyn 428] (gas: 3)\n 25573: a1 = u64 [s1 + 0xf8]\n 25577: a0 = i32 [a1]\n 25579: jump @823 if a0 >u 63\n      : @822 (gas: 2)\n 25583: u32 [a1 + 0] = 0x40\n 25586: fallthrough\n      : @823 (gas: 4)\n 25587: a0 = sp + 0xffffffffffffffe0\n 25590: a0 = a0 & 0xffffffffffffffe0\n 25593: u64 [s1 + 0x178] = a0\n 25597: t0 = 858, jump @1458\n      : @824 [@dyn 429] (gas: 5)\n 25603: ra = 0x35c\n 25607: ecalli 7 // 'hash_keccak_256'\n 25609: a3 = u64 [s1 + 0x178]\n 25613: t0 = 0x35e\n 25617: jump @1454\n      : @825 [@dyn 430] (gas: 2)\n 25620: a3 = u64 [s1 + 0x178]\n 25624: t0 = 862, jump @1454\n      : @826 [@dyn 431] (gas: 6)\n 25630: u64 [a1 + 0x18] = a3\n 25633: u64 [a1 + 0x10] = a2\n 25636: u64 [a1 + 0x8] = a4\n 25639: u64 [a1] = a0\n 25641: a0 = s1 + 0x20a0\n 25645: ra = 864, jump @6\n      : @827 [@dyn 432] (gas: 10)\n 25651: a3 = s1 + 0x1958\n 25655: a4 = a3 + 0x700\n 25659: a0 = u64 [a4 + 0x60]\n 25662: a1 = u64 [a4 + 0x58]\n 25665: a2 = u64 [a4 + 0x50]\n 25668: a3 = u64 [a4 + 0x48]\n 25671: a4 = a2 | a0\n 25674: a5 = a3 | a1\n 25677: a4 = a4 | a5\n 25680: jump @830 if a4 == 0\n      : @828 (gas: 36)\n 25683: a4 = u64 [s1 + 0x188]\n 25687: a4 = reverse a4\n 25689: t0 = a4 << 0x20\n 25692: a5 = u64 [s1 + 0x190]\n 25696: a5 = reverse a5\n 25698: a5 = a5 >> 0x20\n 25701: t0 = a5 | t0\n 25704: a5 = u64 [s1 + 0x198]\n 25708: a5 = reverse a5\n 25710: t1 = a5 << 0x20\n 25713: a4 = a4 >> 0x20\n 25716: t1 = t1 | a4\n 25719: a5 = a5 >> 0x20\n 25722: a4 = u64 [s1 + 0xb0]\n 25726: u32 [a4 + 0x10] = a5\n 25729: u64 [a4 + 0x8] = t1\n 25732: u64 [a4] = t0\n 25734: a4 = s1 + 0x3958\n 25738: a5 = a4 + 0x400\n 25742: u64 [a5 + 0xa8] = a3\n 25746: u64 [a5 + 0xb0] = a2\n 25750: u64 [a5 + 0xb8] = a1\n 25754: u64 [a5 + 0xc0] = a0\n 25758: u32 [a4 + 1224] = 0\n 25762: u64 [a4 + 1280] = 0\n 25766: u64 [a4 + 1272] = 0\n 25770: u64 [a4 + 1264] = 0\n 25774: u64 [a4 + 1256] = 0\n 25778: a1 = 0xffffffffffffffff\n 25781: a2 = 0xffffffffffffffff\n 25784: a0 = u64 [s1 + 0x140]\n 25788: a3 = u64 [s1 + 0x130]\n 25792: a4 = u64 [s1 + 0x128]\n 25796: a5 = u64 [s1 + 0x120]\n 25800: ecalli 0 // 'call'\n 25801: fallthrough\n      : @829 (gas: 1)\n 25802: jump @903 if a0 != 0\n      : @830 (gas: 18)\n 25806: a3 = s1 + 0x100\n 25810: a1 = u64 [a3 + 0xb8]\n 25814: a1 = a1 + 0x1\n 25817: a0 = a1 <u 0x1\n 25820: a2 = u64 [a3 + 0xb0]\n 25824: a2 = a2 + a0\n 25827: u64 [a3 + 0xb8] = a1\n 25831: u64 [a3 + 0xb0] = a2\n 25835: a0 = a1 | a2\n 25838: a0 = a0 <u 0x1\n 25841: a1 = u64 [a3 + 0xa0]\n 25845: a0 = a0 + a1\n 25848: a1 = a0 <u a1\n 25851: a2 = u64 [a3 + 0xa8]\n 25855: a2 = a2 + a1\n 25858: u64 [a3 + 0xa8] = a2\n 25862: u64 [a3 + 0xa0] = a0\n 25866: jump @806\n      : @831 (gas: 34)\n 25869: a0 = u64 [s1 + 0xf8]\n 25873: a1 = u64 [s1 + 0x1b8]\n 25877: t1 = a1 <u a0\n 25880: a1 = u64 [s1 + 0xe0]\n 25884: a5 = u64 [s1 + 0x1a8]\n 25888: a3 = a5 ^ a1\n 25891: a2 = a5 <u a1\n 25894: a2 = t1 if a3 == 0\n 25897: t0 = u64 [s1 + 0xe8]\n 25901: a3 = u64 [s1 + 0x1a0]\n 25905: ra = a3 - t0\n 25908: a3 = a3 <u t0\n 25911: t2 = u64 [s1 + 0xf0]\n 25915: a4 = u64 [s1 + 0x1b0]\n 25919: a4 = a4 - t2\n 25922: a4 = a4 - a3\n 25925: a3 = ra <u a2\n 25928: a4 = a4 - a3\n 25931: ra = ra - a2\n 25934: a2 = a5 - a1\n 25937: a2 = a2 - t1\n 25940: a3 = u64 [s1 + 0x1b8]\n 25944: a3 = a3 - a0\n 25947: u64 [s1 + 0x5a0] = a0\n 25951: u64 [s1 + 0x580] = a3\n 25955: u64 [s1 + 0x5a8] = a1\n 25959: u64 [s1 + 0x5b0] = t0\n 25963: u64 [s1 + 0x588] = a2\n 25967: u64 [s1 + 0x5b8] = t2\n 25971: u64 [s1 + 0x590] = ra\n 25975: a0 = s1 + 0x5a0\n 25979: a1 = s1 + 0x580\n 25983: u64 [s1 + 0x598] = a4\n 25987: ra = 866, jump @1235\n      : @832 [@dyn 433] (gas: 3)\n 25993: a0 = s1 + 0x560\n 25997: a1 = 0x40\n 26000: ra = 868, jump @2\n      : @833 [@dyn 434] (gas: 13)\n 26006: t0 = u64 [s1 + 0x578]\n 26010: a1 = s1 + 0x500\n 26014: a5 = u64 [a1 + 0x70]\n 26017: a3 = u64 [a1 + 0x68]\n 26020: a0 = u64 [a1 + 0x60]\n 26023: a2 = a3 | t0\n 26026: a1 = a0 | a5\n 26029: a1 = a1 | a2\n 26032: a1 = a1 >> 0x20\n 26035: a2 = a2 | a5\n 26038: a2 = a2 << 0x20\n 26041: a1 = a1 | a2\n 26044: jump @912 if a1 != 0\n      : @834 (gas: 22)\n 26048: a1 = a0 + 0x20\n 26051: u64 [s1 + 0x1b0] = a1\n 26055: a4 = a1 <u a0\n 26058: a1 = a3 + a4\n 26061: u64 [s1 + 0x1b8] = a1\n 26065: a1 = a1 <u a3\n 26068: a1 = a4 if a4 == 0\n 26071: a1 = a1 + a5\n 26074: u64 [s1 + 0x1a0] = a1\n 26078: a1 = a1 <u a5\n 26081: a1 = a1 + t0\n 26084: u64 [s1 + 0x1a8] = a1\n 26088: u64 [s1 + 1368] = 0\n 26092: u64 [s1 + 1360] = 0\n 26096: u64 [s1 + 1352] = 0\n 26100: a1 = s1 + 0x540\n 26104: u64 [s1 + 1344] = 0x20\n 26109: u64 [s1 + 0x150] = a0\n 26113: u64 [s1 + 0x140] = a3\n 26117: u64 [s1 + 0x138] = t0\n 26121: u64 [s1 + 0x130] = a5\n 26125: ra = 870, jump @4\n      : @835 [@dyn 435] (gas: 3)\n 26131: a0 = s1 + 0x520\n 26135: a1 = u64 [s1 + 0xf8]\n 26139: ra = 872, jump @2\n      : @836 [@dyn 436] (gas: 13)\n 26145: a5 = s1 + 0x100\n 26149: a0 = u64 [a5 + 0xb0]\n 26153: a3 = u64 [a5 + 0xa0]\n 26157: a2 = a0 | a3\n 26160: a1 = u64 [a5 + 0xb8]\n 26164: a4 = u64 [a5 + 0xa8]\n 26168: a1 = a1 | a4\n 26171: a2 = a2 | a1\n 26174: a2 = a2 >> 0x20\n 26177: a1 = a1 | a3\n 26180: a1 = a1 << 0x20\n 26183: a1 = a1 | a2\n 26186: jump @912 if a1 != 0\n      : @837 (gas: 15)\n 26190: a5 = s1 + 0x500\n 26194: a4 = u64 [a5 + 0x38]\n 26197: a1 = u64 [a5 + 0x30]\n 26200: a2 = u64 [a5 + 0x28]\n 26203: a3 = u64 [a5 + 0x20]\n 26206: u64 [s1 + 0x158] = a3\n 26210: u64 [a5] = a3\n 26212: u64 [s1 + 0x160] = a2\n 26216: u64 [a5 + 0x8] = a2\n 26219: u64 [s1 + 0x168] = a1\n 26223: u64 [a5 + 0x10] = a1\n 26226: a1 = s1 + 0x500\n 26230: u64 [s1 + 0x170] = a4\n 26234: u64 [a5 + 0x18] = a4\n 26237: ra = 874, jump @4\n      : @838 [@dyn 437] (gas: 24)\n 26243: t0 = 0\n 26245: a4 = 0\n 26247: ra = 0\n 26249: t2 = 0\n 26251: a3 = s1 + 0x100\n 26255: a1 = u64 [a3 + 0x50]\n 26258: a0 = a1 + 0x40\n 26261: u64 [a3 + 0xb0] = a0\n 26265: a0 = a0 <u a1\n 26268: a2 = u64 [a3 + 0x40]\n 26271: a1 = a2 + a0\n 26274: u64 [a3 + 0xa8] = a1\n 26278: a1 = a1 <u a2\n 26281: a1 = a0 if a0 == 0\n 26284: a0 = u64 [a3 + 0x30]\n 26287: a1 = a1 + a0\n 26290: u64 [a3 + 0xa0] = a1\n 26294: a0 = a1 <u a0\n 26297: a1 = u64 [a3 + 0x38]\n 26300: a0 = a0 + a1\n 26303: u64 [a3 + 0xb8] = a0\n 26307: a1 = u64 [a3 + 0x8]\n 26310: t1 = u64 [s1 + 0x100]\n 26314: fallthrough\n      : @839 (gas: 17)\n 26315: a0 = u64 [s1 + 0x158]\n 26319: a0 = t0 <u a0\n 26322: a2 = u64 [s1 + 0x160]\n 26326: a3 = a4 ^ a2\n 26329: u64 [s1 + 0x198] = a4\n 26333: a2 = a4 <u a2\n 26336: a2 = a0 if a3 == 0\n 26339: a5 = u64 [s1 + 0x168]\n 26343: a0 = ra <u a5\n 26346: a3 = u64 [s1 + 0x170]\n 26350: a4 = t2 ^ a3\n 26353: a3 = t2 <u a3\n 26356: a3 = a0 if a4 == 0\n 26359: a0 = ra ^ a5\n 26362: a0 = a0 | a4\n 26365: a3 = a2 if a0 == 0\n 26368: jump @910 if a3 == 0\n      : @840 (gas: 10)\n 26372: a0 = a1 | t1\n 26375: a2 = u64 [s1 + 0x110]\n 26379: a3 = u64 [s1 + 0x118]\n 26383: a2 = a2 | a3\n 26386: a0 = a0 | a2\n 26389: a0 = a0 >> 0x20\n 26392: a2 = a2 | t1\n 26395: a2 = a2 << 0x20\n 26398: a0 = a0 | a2\n 26401: jump @912 if a0 != 0\n      : @841 (gas: 7)\n 26405: u64 [s1 + 0x180] = ra\n 26409: u64 [s1 + 0x188] = t2\n 26413: u64 [s1 + 0x190] = t0\n 26417: u64 [s1 + 0x100] = t1\n 26421: a0 = s1 + 0x4e0\n 26425: u64 [s1 + 0x108] = a1\n 26429: ra = 876, jump @2\n      : @842 [@dyn 438] (gas: 13)\n 26435: a1 = s1 + 0x100\n 26439: a0 = u64 [a1 + 0xb0]\n 26443: a4 = u64 [a1 + 0xa0]\n 26447: a2 = a0 | a4\n 26450: a3 = u64 [a1 + 0xb8]\n 26454: a5 = u64 [a1 + 0xa8]\n 26458: a1 = a5 | a3\n 26461: a2 = a2 | a1\n 26464: a2 = a2 >> 0x20\n 26467: a1 = a1 | a4\n 26470: a1 = a1 << 0x20\n 26473: a1 = a1 | a2\n 26476: jump @912 if a1 != 0\n      : @843 (gas: 18)\n 26480: u64 [s1 + 0x1a0] = a4\n 26484: a4 = u64 [s1 + 0x4f0]\n 26488: a1 = u64 [s1 + 0x4e8]\n 26492: a2 = u64 [s1 + 0x4e0]\n 26496: u64 [s1 + 0x1b8] = a3\n 26500: a3 = u64 [s1 + 0x148]\n 26504: a4 = a4 & a3\n 26507: a1 = a1 & 0xffffffffffffffff\n 26510: a2 = a2 & 0xffffffffffffffff\n 26513: u64 [s1 + 1240] = 0\n 26517: a3 = s1 + 0x400\n 26521: u64 [a3 + 0xc0] = a2\n 26525: u64 [a3 + 0xc8] = a1\n 26529: a1 = s1 + 0x4c0\n 26533: u64 [a3 + 0xd0] = a4\n 26537: u64 [s1 + 0x1b0] = a0\n 26541: u64 [s1 + 0x1a8] = a5\n 26545: ra = 878, jump @4\n      : @844 [@dyn 439] (gas: 51)\n 26551: a1 = u64 [s1 + 0x1b0]\n 26555: a0 = a1 + 0x20\n 26558: u64 [s1 + 0x178] = a0\n 26562: a2 = a0 <u a1\n 26565: a0 = u64 [s1 + 0x1a8]\n 26569: t1 = a0 + a2\n 26572: a3 = t1 <u a0\n 26575: a3 = a2 if a2 == 0\n 26578: a0 = u64 [s1 + 0x1a0]\n 26582: a2 = a0 + a3\n 26585: a3 = a2 <u a0\n 26588: a0 = u64 [s1 + 0x1b8]\n 26592: a0 = a0 + a3\n 26595: u64 [s1 + 0x1b8] = a0\n 26599: a0 = u64 [s1 + 0x108]\n 26603: a3 = a0 + 0x20\n 26606: a4 = a3 <u a0\n 26609: a0 = u64 [s1 + 0x118]\n 26613: a5 = a0 + a4\n 26616: a0 = a5 <u a0\n 26619: a0 = a4 if a4 == 0\n 26622: a1 = u64 [s1 + 0x100]\n 26626: a0 = a0 + a1\n 26629: a4 = a0 <u a1\n 26632: a1 = u64 [s1 + 0x110]\n 26636: a1 = a1 + a4\n 26639: u64 [s1 + 0x110] = a1\n 26643: t0 = u64 [s1 + 0x190]\n 26647: t0 = t0 + 0x1\n 26650: a4 = t0 <u 0x1\n 26653: t2 = u64 [s1 + 0x198]\n 26657: t2 = t2 + a4\n 26660: a4 = t0 | t2\n 26663: a4 = a4 <u 0x1\n 26666: a1 = u64 [s1 + 0x180]\n 26670: a4 = a4 + a1\n 26673: a1 = a4 <u a1\n 26676: ra = u64 [s1 + 0x188]\n 26680: ra = ra + a1\n 26683: a1 = u64 [s1 + 0x178]\n 26687: u64 [s1 + 0x1b0] = a1\n 26691: u64 [s1 + 0x1a8] = t1\n 26695: u64 [s1 + 0x1a0] = a2\n 26699: a1 = a3\n 26701: u64 [s1 + 0x118] = a5\n 26705: t1 = a0\n 26707: a0 = a4\n 26709: a4 = t2\n 26711: t2 = ra\n 26713: ra = a0\n 26715: jump @839\n      : @845 (gas: 3)\n 26718: a0 = s1 + 0x1bc0\n 26722: a1 = 0x40\n 26725: ra = 880, jump @2\n      : @846 [@dyn 440] (gas: 2)\n 26731: a2 = s1 + 0x1958\n 26735: fallthrough\n      : @847 (gas: 13)\n 26736: t0 = u64 [a2 + 0x280]\n 26740: a1 = a2 + 0x200\n 26744: a5 = u64 [a1 + 0x78]\n 26747: a4 = u64 [a1 + 0x70]\n 26750: a0 = u64 [a1 + 0x68]\n 26753: a3 = a4 | t0\n 26756: a1 = a0 | a5\n 26759: a1 = a1 | a3\n 26762: a1 = a1 >> 0x20\n 26765: a3 = a3 | a5\n 26768: a3 = a3 << 0x20\n 26771: a1 = a1 | a3\n 26774: jump @912 if a1 != 0\n      : @848 (gas: 11)\n 26778: u64 [a2 + 600] = 0\n 26782: u64 [a2 + 592] = 0\n 26786: u64 [a2 + 584] = 0\n 26790: a3 = 0x8c379a000000000\n 26800: a1 = s1 + 0x1ba0\n 26804: u64 [a2 + 0x260] = a3\n 26808: u64 [s1 + 0x1b8] = a0\n 26812: u64 [s1 + 0x1b0] = a4\n 26816: u64 [s1 + 0x1a0] = t0\n 26820: u64 [s1 + 0x1a8] = a5\n 26824: ra = 882, jump @4\n      : @849 [@dyn 441] (gas: 1)\n 26830: t0 = 884, jump @1415\n      : @850 [@dyn 442] (gas: 1)\n 26836: jump @912 if a0 == 0\n      : @851 (gas: 10)\n 26840: i32 a0 = a1 + 0x4\n 26843: a2 = s1 + 0x1958\n 26847: u64 [a2 + 576] = 0\n 26851: u64 [a2 + 568] = 0\n 26855: u64 [a2 + 552] = 0x20\n 26860: a1 = s1 + 0x1b80\n 26864: u64 [a2 + 560] = 0\n 26868: u64 [s1 + 0x1a8] = a3\n 26872: u64 [s1 + 0x1a0] = a4\n 26876: ra = 886, jump @4\n      : @852 [@dyn 443] (gas: 1)\n 26882: t0 = 888, jump @1417\n      : @853 [@dyn 444] (gas: 1)\n 26888: jump @912 if a0 == 0\n      : @854 (gas: 8)\n 26892: i32 a0 = a1 + 0x24\n 26895: a3 = s1 + 0x1958\n 26899: u64 [a3 + 544] = 0\n 26903: u64 [a3 + 536] = 0\n 26907: u64 [a3 + 520] = 0x14\n 26912: a1 = s1 + 0x1b60\n 26916: u64 [a3 + 528] = 0\n 26920: ra = 890, jump @4\n      : @855 [@dyn 445] (gas: 1)\n 26926: t0 = 892, jump @1419\n      : @856 [@dyn 446] (gas: 1)\n 26932: jump @912 if a0 == 0\n      : @857 (gas: 12)\n 26936: i32 a0 = a3 + 0x44\n 26939: a1 = u64 [0x20070]\n 26944: a2 = u64 [0x20078]\n 26949: a4 = s1 + 0x1958\n 26953: u64 [a4 + 0x200] = a1\n 26957: u64 [a4 + 0x1f8] = a2\n 26961: a1 = 0x7265737300000000\n 26971: u64 [a4 + 0x1f0] = a1\n 26975: a1 = s1 + 0x1b40\n 26979: u64 [a4 + 488] = 0\n 26983: ra = 0x3a8\n 26987: jump @4\n      : @858 (gas: 3)\n 26990: a0 = s1 + 0x2da0\n 26994: a1 = 0x40\n 26997: ra = 894, jump @2\n      : @859 [@dyn 447] (gas: 14)\n 27003: a2 = s1 + 0x2958\n 27007: t0 = u64 [a2 + 0x460]\n 27011: a1 = a2 + 0x400\n 27015: a5 = u64 [a1 + 0x58]\n 27018: a4 = u64 [a1 + 0x50]\n 27021: a0 = u64 [a1 + 0x48]\n 27024: a3 = a4 | t0\n 27027: a1 = a0 | a5\n 27030: a1 = a1 | a3\n 27033: a1 = a1 >> 0x20\n 27036: a3 = a3 | a5\n 27039: a3 = a3 << 0x20\n 27042: a1 = a1 | a3\n 27045: jump @912 if a1 != 0\n      : @860 (gas: 11)\n 27049: u64 [a2 + 1080] = 0\n 27053: u64 [a2 + 1072] = 0\n 27057: u64 [a2 + 1064] = 0\n 27061: a3 = 0x8c379a000000000\n 27071: a1 = s1 + 0x2d80\n 27075: u64 [a2 + 0x440] = a3\n 27079: u64 [s1 + 0x1b8] = a0\n 27083: u64 [s1 + 0x1b0] = a4\n 27087: u64 [s1 + 0x1a0] = t0\n 27091: u64 [s1 + 0x1a8] = a5\n 27095: ra = 896, jump @4\n      : @861 [@dyn 448] (gas: 1)\n 27101: t0 = 898, jump @1415\n      : @862 [@dyn 449] (gas: 1)\n 27107: jump @912 if a0 == 0\n      : @863 (gas: 3)\n 27111: i32 a0 = a1 + 0x4\n 27114: a1 = 0x2958\n 27118: t0 = 900, jump @1473\n      : @864 [@dyn 450] (gas: 5)\n 27124: a1 = s1 + 0x2d60\n 27128: u64 [a2 + 1040] = 0\n 27132: u64 [s1 + 0x1a8] = a3\n 27136: u64 [s1 + 0x1a0] = a4\n 27140: ra = 902, jump @4\n      : @865 [@dyn 451] (gas: 1)\n 27146: t0 = 904, jump @1417\n      : @866 [@dyn 452] (gas: 1)\n 27152: jump @912 if a0 == 0\n      : @867 (gas: 8)\n 27156: i32 a0 = a1 + 0x24\n 27159: a3 = s1 + 0x2958\n 27163: u64 [a3 + 1024] = 0\n 27167: u64 [a3 + 1016] = 0\n 27171: u64 [a3 + 1000] = 0x16\n 27176: a1 = s1 + 0x2d40\n 27180: u64 [a3 + 1008] = 0\n 27184: ra = 906, jump @4\n      : @868 [@dyn 453] (gas: 1)\n 27190: t0 = 908, jump @1419\n      : @869 [@dyn 454] (gas: 1)\n 27196: jump @912 if a0 == 0\n      : @870 (gas: 13)\n 27200: i32 a0 = a3 + 0x44\n 27203: a1 = u64 [0x20000]\n 27208: a2 = u64 [0x20008]\n 27213: a3 = u64 [0x20010]\n 27218: a4 = s1 + 0x2958\n 27222: a5 = a4 + 0x300\n 27226: u64 [a5 + 0xe0] = a1\n 27230: u64 [a5 + 0xd8] = a2\n 27234: u64 [a5 + 0xd0] = a3\n 27238: a1 = s1 + 0x2d20\n 27242: u64 [a4 + 968] = 0\n 27246: ra = 0x3a8\n 27250: jump @4\n      : @871 (gas: 3)\n 27253: a0 = s1 + 0x1060\n 27257: a1 = 0x40\n 27260: ra = 910, jump @2\n      : @872 [@dyn 455] (gas: 15)\n 27266: a2 = s1 + 0x7ff\n 27270: a2 = a2 + 0x139\n 27274: t0 = u64 [a2 + 0x740]\n 27278: a1 = a2 + 0x700\n 27282: a5 = u64 [a1 + 0x38]\n 27285: a4 = u64 [a1 + 0x30]\n 27288: a0 = u64 [a1 + 0x28]\n 27291: a3 = a4 | t0\n 27294: a1 = a0 | a5\n 27297: a1 = a1 | a3\n 27300: a1 = a1 >> 0x20\n 27303: a3 = a3 | a5\n 27306: a3 = a3 << 0x20\n 27309: a1 = a1 | a3\n 27312: jump @912 if a1 != 0\n      : @873 (gas: 11)\n 27316: u64 [a2 + 1816] = 0\n 27320: u64 [a2 + 1808] = 0\n 27324: u64 [a2 + 1800] = 0\n 27328: a3 = 0x8c379a000000000\n 27338: a1 = s1 + 0x1040\n 27342: u64 [a2 + 0x720] = a3\n 27346: u64 [s1 + 0x1b8] = a0\n 27350: u64 [s1 + 0x1b0] = a4\n 27354: u64 [s1 + 0x1a0] = t0\n 27358: u64 [s1 + 0x1a8] = a5\n 27362: ra = 912, jump @4\n      : @874 [@dyn 456] (gas: 1)\n 27368: t0 = 914, jump @1415\n      : @875 [@dyn 457] (gas: 1)\n 27374: jump @912 if a0 == 0\n      : @876 (gas: 11)\n 27378: i32 a0 = a1 + 0x4\n 27381: a2 = s1 + 0x7ff\n 27385: a2 = a2 + 0x139\n 27389: u64 [a2 + 1792] = 0\n 27393: u64 [a2 + 1784] = 0\n 27397: u64 [a2 + 1768] = 0x20\n 27402: a1 = s1 + 0x1020\n 27406: u64 [a2 + 1776] = 0\n 27410: u64 [s1 + 0x1a8] = a3\n 27414: u64 [s1 + 0x1a0] = a4\n 27418: ra = 916, jump @4\n      : @877 [@dyn 458] (gas: 10)\n 27424: a2 = s1 + 0x100\n 27428: a4 = u64 [a2 + 0xa8]\n 27432: a3 = u64 [a2 + 0xb0]\n 27436: a1 = u64 [a2 + 0xb8]\n 27440: a0 = u64 [a2 + 0xa0]\n 27444: a0 = a0 + 0xffffffffffffffdc\n 27447: a0 = a1 <u a0\n 27450: a0 = 0 if a3 != 0\n 27452: a0 = 0 if a4 != 0\n 27454: jump @912 if a0 == 0\n      : @878 (gas: 9)\n 27458: i32 a0 = a1 + 0x24\n 27461: a2 = s1 + 0x7ff\n 27465: a2 = a2 + 0x139\n 27469: u64 [a2 + 1760] = 0\n 27473: u64 [a2 + 1752] = 0\n 27477: u64 [a2 + 1736] = 0x1a\n 27482: a1 = s1 + 0x1000\n 27486: u64 [a2 + 1744] = 0\n 27490: ra = 918, jump @4\n      : @879 [@dyn 459] (gas: 1)\n 27496: t0 = 920, jump @1419\n      : @880 [@dyn 460] (gas: 1)\n 27502: jump @912 if a0 == 0\n      : @881 (gas: 16)\n 27506: i32 a0 = a3 + 0x44\n 27509: a1 = u64 [0x200c0]\n 27514: a2 = u64 [0x200c8]\n 27519: a3 = u64 [0x200d0]\n 27524: a4 = s1 + 0x7ff\n 27528: a4 = a4 + 0x139\n 27532: a5 = a4 + 0x600\n 27536: u64 [a5 + 0xc0] = a1\n 27540: u64 [a5 + 0xb8] = a2\n 27544: u64 [a5 + 0xb0] = a3\n 27548: a2 = 0x6564000000000000\n 27558: a1 = s1 + 0x7ff\n 27562: a1 = a1 + 0x7e1\n 27566: u64 [a5 + 0xa8] = a2\n 27570: ra = 0x3a8\n 27574: jump @4\n      : @882 (gas: 3)\n 27577: a0 = s1 + 0x1a80\n 27581: a1 = 0x40\n 27584: ra = 922, jump @2\n      : @883 [@dyn 461] (gas: 14)\n 27590: a4 = s1 + 0x1958\n 27594: t0 = u64 [a4 + 0x140]\n 27598: a1 = a4 + 0x100\n 27602: a5 = u64 [a1 + 0x38]\n 27605: a3 = u64 [a1 + 0x30]\n 27608: a0 = u64 [a1 + 0x28]\n 27611: a2 = a3 | t0\n 27614: a1 = a0 | a5\n 27617: a1 = a1 | a2\n 27620: a1 = a1 >> 0x20\n 27623: a2 = a2 | a5\n 27626: a2 = a2 << 0x20\n 27629: a1 = a1 | a2\n 27632: jump @912 if a1 != 0\n      : @884 (gas: 11)\n 27636: u64 [a4 + 280] = 0\n 27640: u64 [a4 + 272] = 0\n 27644: u64 [a4 + 264] = 0\n 27648: u64 [s1 + 0x1b0] = a3\n 27652: a3 = 0x8c379a000000000\n 27662: a1 = s1 + 0x1a60\n 27666: u64 [a4 + 0x120] = a3\n 27670: u64 [s1 + 0x1b8] = a0\n 27674: u64 [s1 + 0x1a8] = t0\n 27678: u64 [s1 + 0x1a0] = a5\n 27682: ra = 924, jump @4\n      : @885 [@dyn 462] (gas: 6)\n 27688: a5 = s1 + 0x100\n 27692: a1 = u64 [a5 + 0xb8]\n 27696: a0 = u64 [a5 + 0xa8]\n 27700: a3 = u64 [a5 + 0xa0]\n 27704: a3 = a3 | a0\n 27707: t0 = 926, jump @1416\n      : @886 [@dyn 463] (gas: 1)\n 27713: jump @912 if a0 == 0\n      : @887 (gas: 11)\n 27717: i32 a0 = a1 + 0x4\n 27720: a2 = s1 + 0x1958\n 27724: u64 [a2 + 256] = 0\n 27728: a5 = 0\n 27730: u64 [a2 + 248] = 0\n 27734: u64 [a2 + 232] = 0x20\n 27739: a1 = s1 + 0x1a40\n 27743: u64 [a2 + 240] = 0\n 27747: u64 [s1 + 0x1a8] = a3\n 27751: u64 [s1 + 0x1a0] = a4\n 27755: ra = 928, jump @4\n      : @888 [@dyn 464] (gas: 1)\n 27761: t0 = 930, jump @1417\n      : @889 [@dyn 465] (gas: 1)\n 27767: jump @912 if a0 == 0\n      : @890 (gas: 8)\n 27771: i32 a0 = a1 + 0x24\n 27774: a3 = s1 + 0x1958\n 27778: u64 [a3 + 224] = 0\n 27782: u64 [a3 + 216] = 0\n 27786: u64 [a3 + 200] = 0xe\n 27791: a1 = s1 + 0x1a20\n 27795: u64 [a3 + 208] = 0\n 27799: ra = 932, jump @4\n      : @891 [@dyn 466] (gas: 1)\n 27805: t0 = 934, jump @1453\n      : @892 [@dyn 467] (gas: 1)\n 27811: jump @912 if a0 == 0\n      : @893 (gas: 10)\n 27815: i32 a0 = a2 + 0x44\n 27818: a1 = u64 [0x20058]\n 27823: a3 = s1 + 0x1958\n 27827: u64 [a3 + 176] = 0\n 27831: u64 [a3 + 0xc0] = a1\n 27835: a1 = 0x20656e6465640000\n 27845: u64 [a3 + 0xb8] = a1\n 27849: a1 = s1 + 0x1a00\n 27853: u64 [a3 + 168] = 0\n 27857: ra = 936, jump @4\n      : @894 [@dyn 468] (gas: 3)\n 27863: a1 = 0x64\n 27866: a0 = u64 [s1 + 0x1b8]\n 27870: ra = 938, jump @15\n      : @895 [@dyn 469] (gas: 5)\n 27876: i32 a1 = a0 + 0\n 27878: a0 = 0x1\n 27881: a2 = 0x64\n 27884: ecalli 11 // 'seal_return'\n 27886: fallthrough\n      : @896 (gas: 3)\n 27887: a0 = s1 + 0x2260\n 27891: a1 = 0x40\n 27894: ra = 940, jump @2\n      : @897 [@dyn 470] (gas: 14)\n 27900: a2 = s1 + 0x2158\n 27904: t0 = u64 [a2 + 0x120]\n 27908: a1 = a2 + 0x100\n 27912: a5 = u64 [a1 + 0x18]\n 27915: a4 = u64 [a1 + 0x10]\n 27918: a0 = u64 [a1 + 0x8]\n 27921: a3 = a4 | t0\n 27924: a1 = a0 | a5\n 27927: a1 = a1 | a3\n 27930: a1 = a1 >> 0x20\n 27933: a3 = a3 | a5\n 27936: a3 = a3 << 0x20\n 27939: a1 = a1 | a3\n 27942: jump @912 if a1 != 0\n      : @898 (gas: 10)\n 27946: u64 [a2 + 256] = 0\n 27950: u64 [a2 + 248] = 0\n 27954: u64 [a2 + 240] = 0\n 27958: a1 = s1 + 0x2240\n 27962: u64 [a2 + 232] = 0\n 27966: u64 [s1 + 0x1b8] = a0\n 27970: u64 [s1 + 0x1b0] = a4\n 27974: u64 [s1 + 0x1a0] = t0\n 27978: u64 [s1 + 0x1a8] = a5\n 27982: ra = 942, jump @4\n      : @899 [@dyn 471] (gas: 11)\n 27988: a4 = s1 + 0x100\n 27992: a2 = u64 [a4 + 0xb8]\n 27996: a0 = u64 [a4 + 0xa8]\n 28000: a1 = u64 [a4 + 0xa0]\n 28004: a0 = a0 | a1\n 28007: a1 = 0xffffffe0\n 28017: a1 = a2 <u a1\n 28020: a3 = u64 [a4 + 0xb0]\n 28024: a1 = 0 if a3 != 0\n 28026: a1 = 0 if a0 != 0\n 28028: jump @912 if a1 == 0\n      : @900 (gas: 8)\n 28032: i32 a0 = a2 + 0x20\n 28035: a3 = s1 + 0x2158\n 28039: u64 [a3 + 224] = 0\n 28043: u64 [a3 + 216] = 0\n 28047: u64 [a3 + 208] = 0\n 28051: a1 = s1 + 0x2220\n 28055: u64 [a3 + 200] = 0\n 28059: ra = 944, jump @4\n      : @901 [@dyn 472] (gas: 28)\n 28065: a4 = s1 + 0x2158\n 28069: u64 [a4 + 128] = 0\n 28073: u64 [a4 + 120] = 0\n 28076: u64 [a4 + 112] = 0\n 28079: a0 = u64 [s1 + 0xd0]\n 28083: u64 [a4 + 0xa0] = a0\n 28087: a0 = u64 [s1 + 0xd8]\n 28091: u64 [a4 + 0x98] = a0\n 28095: a0 = u64 [s1 + 0xe0]\n 28099: u64 [a4 + 0x90] = a0\n 28103: a0 = u64 [s1 + 0xe8]\n 28107: u64 [a4 + 0x88] = a0\n 28111: a0 = u64 [0x20038]\n 28116: a1 = u64 [0x20040]\n 28121: a2 = u64 [0x20048]\n 28126: a3 = u64 [0x20050]\n 28131: u64 [a4 + 0xc0] = a0\n 28135: u64 [a4 + 0xb8] = a1\n 28139: u64 [a4 + 0xb0] = a2\n 28143: u64 [a4 + 0xa8] = a3\n 28147: a0 = a4\n 28149: a1 = 0x40\n 28152: a2 = s1 + 0x2200\n 28156: a3 = s1 + 0x21e0\n 28160: a4 = s1 + 0x21c0\n 28164: u64 [a0 + 104] = 0\n 28167: a0 = u64 [s1 + 0x1b8]\n 28171: ra = 946, jump @12\n      : @902 [@dyn 473] (gas: 6)\n 28177: a0 = 0\n 28179: a1 = u64 [s1 + 0x100]\n 28183: a2 = 0\n 28185: ecalli 11 // 'seal_return'\n 28187: a1 = 0x20160\n 28192: jump @1079\n      : @903 (gas: 3)\n 28195: a0 = s1 + 0x2080\n 28199: a1 = 0x40\n 28202: ra = 948, jump @2\n      : @904 [@dyn 474] (gas: 14)\n 28208: a0 = s1 + 0x1958\n 28212: a2 = a0 + 0x700\n 28216: a1 = u64 [a2 + 0x40]\n 28219: u64 [s1 + 0x1b0] = a1\n 28223: a1 = u64 [a2 + 0x38]\n 28226: u64 [s1 + 0x1a8] = a1\n 28230: a1 = u64 [a2 + 0x30]\n 28233: u64 [s1 + 0x1a0] = a1\n 28237: a0 = u64 [a2 + 0x28]\n 28240: u64 [s1 + 0x1b8] = a0\n 28244: ra = 0x3b6\n 28248: ecalli 10 // 'return_data_size'\n 28250: t0 = 0x3b8\n 28254: jump @1460\n      : @905 [@dyn 475] (gas: 1)\n 28257: t0 = 952, jump @1460\n      : @906 [@dyn 476] (gas: 1)\n 28263: jump @912 if a1 != 0\n      : @907 (gas: 3)\n 28267: a2 = a0\n 28269: a0 = a0 >> 0x20\n 28272: jump @912 if a0 != 0\n      : @908 (gas: 6)\n 28276: i32 a0 = a2 + 0\n 28278: u64 [s1 + 0x1b0] = a0\n 28282: a0 = u64 [s1 + 0x1b8]\n 28286: a1 = a2\n 28288: u64 [s1 + 0x1a8] = a2\n 28292: ra = 954, jump @15\n      : @909 [@dyn 477] (gas: 11)\n 28298: a1 = s1 + 0x3958\n 28302: a2 = u64 [s1 + 0x1a8]\n 28306: u32 [a1 + 0x508] = a2\n 28310: i32 a0 = a0 + 0\n 28312: a1 = s1 + 0x4000\n 28316: i32 a1 = a1 + 0xfffffffffffffe60\n 28320: a2 = 0\n 28322: ecalli 9 // 'return_data_copy'\n 28324: a0 = s1 + 0x3958\n 28328: a0 = i32 [a0 + 0x508]\n 28332: jump @705\n      : @910 (gas: 30)\n 28335: a0 = u64 [s1 + 0x150]\n 28339: t2 = u64 [s1 + 0x1b0]\n 28343: t0 = t2 <u a0\n 28346: a5 = u64 [s1 + 0x140]\n 28350: a1 = u64 [s1 + 0x1a8]\n 28354: a3 = a1 ^ a5\n 28357: a2 = a1 <u a5\n 28360: a2 = t0 if a3 == 0\n 28363: a3 = u64 [s1 + 0x130]\n 28367: a4 = u64 [s1 + 0x1a0]\n 28371: ra = a4 - a3\n 28374: t1 = a4 <u a3\n 28377: a4 = u64 [s1 + 0x138]\n 28381: a3 = u64 [s1 + 0x1b8]\n 28385: a4 = a3 - a4\n 28388: a4 = a4 - t1\n 28391: a3 = ra <u a2\n 28394: a3 = a4 - a3\n 28397: a4 = ra - a2\n 28400: a2 = a1 - a5\n 28403: a2 = a2 - t0\n 28406: a1 = t2 - a0\n 28409: a2 = a2 | a3\n 28412: a3 = a1 | a4\n 28415: a3 = a3 | a2\n 28418: a2 = a2 | a4\n 28421: a3 = a3 >> 0x20\n 28424: a2 = a2 << 0x20\n 28427: a2 = a2 | a3\n 28430: jump @912 if a2 != 0\n      : @911 (gas: 1)\n 28433: jump @1126\n      : @912 (gas: 1)\n 28436: trap\n      : @913 (gas: 5)\n 28437: a0 = u64 [s1 + 0x1b8]\n 28441: a2 = a0 + 0xffffffffffffff80\n 28444: a0 = u64 [s1 + 0xe8]\n 28448: a1 = u64 [s1 + 0xe0]\n 28452: ra = 956, jump @1474\n      : @914 [@dyn 478] (gas: 6)\n 28458: u64 [s1 + 0x178] = a0\n 28462: u64 [s1 + 0x180] = a1\n 28466: a0 = u64 [s1 + 0x108]\n 28470: a1 = u64 [s1 + 0xf0]\n 28474: a2 = u64 [s1 + 0x1b8]\n 28478: ra = 958, jump @1474\n      : @915 [@dyn 479] (gas: 7)\n 28484: u64 [s1 + 0x170] = a0\n 28488: u64 [s1 + 0x168] = a1\n 28492: a1 = u64 [s1 + 0x1b8]\n 28496: a2 = 0x80 - a1\n 28500: a0 = u64 [s1 + 0xe8]\n 28504: a1 = u64 [s1 + 0xe0]\n 28508: ra = 960, jump @1479\n      : @916 [@dyn 480] (gas: 20)\n 28514: a2 = u64 [s1 + 0x168]\n 28518: a1 = a1 | a2\n 28521: a2 = u64 [s1 + 0x1b8]\n 28525: a3 = a2 <u 0x80\n 28529: u64 [s1 + 0x160] = a3\n 28533: a4 = u64 [s1 + 0x180]\n 28537: a1 = a4 if a3 == 0\n 28540: a4 = u64 [s1 + 0xf0]\n 28544: a1 = a4 if a2 == 0\n 28547: u64 [s1 + 0x180] = a1\n 28551: a1 = u64 [s1 + 0x170]\n 28555: a0 = a0 | a1\n 28558: a1 = u64 [s1 + 0x178]\n 28562: a0 = a1 if a3 == 0\n 28565: a1 = u64 [s1 + 0x108]\n 28569: a0 = a1 if a2 == 0\n 28572: u64 [s1 + 0x178] = a0\n 28576: a0 = u64 [s1 + 0xe8]\n 28580: a1 = u64 [s1 + 0xe0]\n 28584: ra = 962, jump @1474\n      : @917 [@dyn 481] (gas: 16)\n 28590: a5 = 0\n 28592: u64 [s1 + 360] = 0\n 28596: a4 = s1 + 0x100\n 28600: a2 = u64 [a4 + 0x60]\n 28603: a1 = 0 if a2 == 0\n 28605: u64 [a4 + 0x70] = a1\n 28608: a0 = 0 if a2 == 0\n 28610: u64 [a4 + 0x60] = a0\n 28613: a2 = u64 [a4 + 0x48]\n 28616: a3 = a2 + 0xffffffffffffffff\n 28619: u64 [a4 + 0x38] = a3\n 28622: a2 = a2 >u 0\n 28624: a2 = a2 + 0xffffffffffffffff\n 28627: u64 [a4 + 0x30] = a2\n 28630: ra = u64 [s1 + 0x158]\n 28634: fallthrough\n      : @918 (gas: 93)\n 28635: u64 [s1 + 0x150] = a5\n 28639: u64 [s1 + 320] = 0\n 28643: a1 = u64 [s1 + 0x178]\n 28647: a2 = a1 >> 0x3f\n 28650: a5 = u64 [s1 + 0x180]\n 28654: a3 = a5 << 0x1\n 28657: t1 = a3 | a2\n 28660: a2 = a1 << 0x1\n 28663: a4 = ra >> 0x3f\n 28666: a4 = a4 | a2\n 28669: u64 [s1 + 0x158] = a4\n 28673: a3 = u64 [s1 + 0x130]\n 28677: a0 = a3 ^ t1\n 28680: t2 = u64 [s1 + 0x188]\n 28684: a1 = a3 <u t1\n 28687: a2 = u64 [s1 + 0x138]\n 28691: t0 = a2 <u a4\n 28694: t0 = a1 if a0 != 0\n 28697: a1 = u64 [s1 + 0x170]\n 28701: a1 = a1 << 0x1\n 28704: a0 = u64 [s1 + 0x160]\n 28708: a4 = a0 >> 0x3f\n 28711: a1 = a1 | a4\n 28714: u64 [s1 + 0x170] = a1\n 28718: a4 = a5 >> 0x3f\n 28721: a0 = a0 << 0x1\n 28724: a4 = a4 | a0\n 28727: a0 = ra << 0x1\n 28730: a1 = u64 [s1 + 0x190]\n 28734: a5 = a1 >> 0x3f\n 28737: a2 = a0 | a5\n 28740: a5 = a1 << 0x1\n 28743: a1 = t2 >> 0x3f\n 28746: a1 = a1 | a5\n 28749: a5 = t2 << 0x1\n 28752: a0 = u64 [s1 + 0x198]\n 28756: ra = a0 >> 0x3f\n 28759: t2 = a5 | ra\n 28762: a0 = a0 << 0x1\n 28765: a5 = u64 [s1 + 0x150]\n 28769: a0 = a0 | a5\n 28772: u64 [s1 + 0x198] = a0\n 28776: a5 = u64 [s1 + 0x168]\n 28780: a0 = a5 | t2\n 28783: u64 [s1 + 0x188] = a0\n 28787: a0 = a5 | a1\n 28790: u64 [s1 + 0x190] = a0\n 28794: ra = a5 | a2\n 28797: a0 = a3 - a4\n 28800: a0 = a0 <u t0\n 28803: a1 = a3 <u a4\n 28806: t2 = u64 [s1 + 0x170]\n 28810: a5 = a3 - t2\n 28813: a5 = a5 - a1\n 28816: a5 = a5 - a0\n 28819: t0 = a5 >>a 0x3f\n 28822: a0 = u64 [s1 + 0x148]\n 28826: a0 = t0 & a0\n 28829: a2 = u64 [s1 + 0x158]\n 28833: a1 = a2 - a0\n 28836: u64 [s1 + 0x178] = a1\n 28840: a1 = a2 <u a0\n 28843: a0 = t1 - a1\n 28846: u64 [s1 + 0x180] = a0\n 28850: a1 = 0 if t1 != 0\n 28852: a0 = a4 - a1\n 28855: u64 [s1 + 0x160] = a0\n 28859: a1 = a4 <u a1\n 28862: a1 = t2 - a1\n 28865: a0 = s1 + 0x100\n 28869: u64 [a0 + 0x70] = a1\n 28872: a3 = u64 [a0 + 0xb8]\n 28876: a1 = u64 [a0 + 0xb0]\n 28880: a2 = a3 | a1\n 28883: a2 = a2 <u 0x1\n 28886: a4 = u64 [a0 + 0xa0]\n 28890: a5 = a4 <u a2\n 28893: a4 = a4 - a2\n 28896: a2 = a3 <u 0x1\n 28899: a1 = a1 - a2\n 28902: a2 = u64 [a0 + 0xa8]\n 28906: a2 = a2 - a5\n 28909: a3 = a3 + 0xffffffffffffffff\n 28912: u64 [a0 + 0xb0] = a1\n 28916: u64 [a0 + 0xa8] = a2\n 28920: a2 = a2 | a1\n 28923: u64 [a0 + 0xb8] = a3\n 28927: a3 = a3 | a4\n 28930: a2 = a2 | a3\n 28933: a5 = t0 & 0x1\n 28936: u64 [a0 + 0xa0] = a4\n 28940: u64 [s1 + 360] = 0\n 28944: jump @918 if a2 != 0\n      : @919 (gas: 20)\n 28948: a2 = u64 [s1 + 0x190]\n 28952: a0 = a2 >> 0x3f\n 28955: a1 = ra << 0x1\n 28958: a0 = a0 | a1\n 28961: a4 = u64 [s1 + 0x188]\n 28965: a1 = a4 >> 0x3f\n 28968: a2 = a2 << 0x1\n 28971: a1 = a1 | a2\n 28974: a3 = u64 [s1 + 0x198]\n 28978: a2 = a3 >> 0x3f\n 28981: a4 = a4 << 0x1\n 28984: a3 = a3 << 0x1\n 28987: a3 = a3 | a5\n 28990: a5 = u64 [s1 + 0x140]\n 28994: a2 = a2 | a5\n 28997: a2 = a2 | a4\n 29000: t1 = a5 | a1\n 29003: t2 = a5 | a0\n 29006: a4 = u64 [s1 + 0x148]\n 29010: fallthrough\n      : @920 (gas: 53)\n 29011: a5 = a4 mulhu a3\n 29014: a0 = a4 * a2\n 29017: a1 = a4\n 29019: a4 = a0 + a5\n 29022: a0 = a4 <u a0\n 29025: a2 = a1 mulhu a2\n 29028: a0 = a0 + a2\n 29031: a2 = t2 * a1\n 29034: a5 = t1 mulhu a1\n 29037: a2 = a2 + a5\n 29040: u64 [s1 + 0x1b8] = a2\n 29044: t1 = t1 * a1\n 29047: t2 = a1 * a3\n 29050: a1 = u64 [s1 + 0xf0]\n 29054: a5 = a1 ^ a4\n 29057: a2 = a1 <u a4\n 29060: ra = u64 [s1 + 0x108]\n 29064: t0 = ra <u t2\n 29067: a2 = t0 if a5 == 0\n 29070: a3 = u64 [s1 + 0xe0]\n 29074: a5 = u64 [s1 + 0x1b8]\n 29078: a5 = a3 - a5\n 29081: t1 = t1 + a0\n 29084: a0 = t1 <u a0\n 29087: a5 = a5 - a0\n 29090: a3 = u64 [s1 + 0xe8]\n 29094: a0 = a3 - t1\n 29097: a3 = a3 <u t1\n 29100: a5 = a5 - a3\n 29103: a3 = a0 <u a2\n 29106: a5 = a5 - a3\n 29109: a0 = a0 - a2\n 29112: a1 = a1 - a4\n 29115: a1 = a1 - t0\n 29118: a2 = ra - t2\n 29121: a4 = s1 + 0x2958\n 29125: a3 = u64 [s1 + 0x110]\n 29129: u64 [a4 + 0x268] = a3\n 29133: a3 = u64 [s1 + 0x118]\n 29137: u64 [a4 + 0x270] = a3\n 29141: a3 = a4 + 0x200\n 29145: u64 [a3 + 0x48] = a2\n 29148: a2 = u64 [s1 + 0x120]\n 29152: u64 [a3 + 0x78] = a2\n 29155: a2 = u64 [s1 + 0x128]\n 29159: u64 [a3 + 0x80] = a2\n 29163: u64 [a3 + 0x50] = a1\n 29166: u64 [a3 + 0x58] = a0\n 29169: a0 = s1 + 0x2be0\n 29173: a1 = s1 + 0x2bc0\n 29177: a2 = s1 + 0x2ba0\n 29181: u64 [a3 + 0x60] = a5\n 29184: ra = 964, jump @1275\n      : @921 [@dyn 482] (gas: 37)\n 29190: a0 = s1 + 0x2958\n 29194: t0 = u64 [a0 + 0x2a0]\n 29198: a5 = u64 [a0 + 0x298]\n 29202: t1 = u64 [a0 + 0x290]\n 29206: t2 = u64 [a0 + 0x288]\n 29210: a1 = u64 [s1 + 0x28]\n 29213: a0 = a1 + 0x7\n 29216: a1 = a0 <u a1\n 29219: a3 = u64 [s1 + 0x30]\n 29222: a2 = a3 + a1\n 29225: a3 = a2 <u a3\n 29228: a3 = a1 if a1 == 0\n 29231: a1 = u64 [s1 + 0x38]\n 29234: a3 = a3 + a1\n 29237: a1 = a3 <u a1\n 29240: a4 = u64 [s1 + 0x40]\n 29243: a1 = a1 + a4\n 29246: a4 = s1 + 0x3958\n 29250: u64 [a4 + 0x620] = a1\n 29254: a1 = a4 + 0x600\n 29258: u64 [a1 + 0x18] = a3\n 29261: u64 [a1 + 0x10] = a2\n 29264: u64 [a1 + 0x8] = a0\n 29267: a1 = u64 [s1 + 0xd8]\n 29271: u64 [s1 + 0x78] = a5\n 29274: u64 [a1 + 0x10] = a5\n 29277: a0 = t0\n 29279: u64 [s1 + 0x80] = a0\n 29283: u64 [a1 + 0x18] = a0\n 29286: a0 = t2\n 29288: u64 [s1 + 0x68] = a0\n 29291: u64 [a1] = a0\n 29293: a0 = t1\n 29295: u64 [s1 + 0x70] = a0\n 29298: u64 [a1 + 0x8] = a0\n 29301: a0 = s1 + 0x3f60\n 29305: ra = 966, jump @9\n      : @922 [@dyn 483] (gas: 3)\n 29311: a0 = s1 + 0x2b80\n 29315: a1 = u64 [s1 + 0x18]\n 29318: ra = 968, jump @6\n      : @923 [@dyn 484] (gas: 7)\n 29324: a3 = s1 + 0x2958\n 29328: a4 = a3 + 0x200\n 29332: a0 = u64 [a4 + 0x28]\n 29335: a1 = u64 [a4 + 0x30]\n 29338: a2 = u64 [a4 + 0x38]\n 29341: a3 = u64 [a4 + 0x40]\n 29344: t0 = 970, jump @1464\n      : @924 [@dyn 485] (gas: 8)\n 29350: a5 = a4 + 0x600\n 29354: u64 [a5 + 0x40] = a3\n 29357: u64 [a5 + 0x30] = a1\n 29360: u64 [a5 + 0x28] = a0\n 29363: u64 [a5 + 0x38] = a2\n 29366: a1 = s1 + 0x3f80\n 29370: a0 = u64 [s1 + 0x18]\n 29373: ra = 972, jump @9\n      : @925 [@dyn 486] (gas: 3)\n 29379: a0 = s1 + 0x2b60\n 29383: a1 = 0x40\n 29386: ra = 974, jump @2\n      : @926 [@dyn 487] (gas: 7)\n 29392: a3 = s1 + 0x2958\n 29396: a5 = a3 + 0x200\n 29400: a0 = u64 [a5 + 0x20]\n 29403: a1 = u64 [a5 + 0x18]\n 29406: a2 = u64 [a5 + 0x10]\n 29409: a4 = u64 [a5 + 0x8]\n 29412: t0 = 976, jump @1449\n      : @927 [@dyn 488] (gas: 1)\n 29418: jump @912 if a0 != 0\n      : @928 (gas: 13)\n 29422: a0 = u64 [s1 + 0x68]\n 29425: a1 = a3 + 0x100\n 29429: u64 [a1 + 0xe8] = a0\n 29433: a0 = u64 [s1 + 0x70]\n 29436: u64 [a1 + 0xf0] = a0\n 29440: a0 = u64 [s1 + 0x78]\n 29443: u64 [a1 + 0xf8] = a0\n 29447: a1 = s1 + 0x2b40\n 29451: a0 = u64 [s1 + 0x80]\n 29455: u64 [a3 + 0x200] = a0\n 29459: a0 = a4\n 29461: u64 [s1 + 0x1b8] = a4\n 29465: ra = 978, jump @4\n      : @929 [@dyn 489] (gas: 24)\n 29471: a0 = u64 [0x20018]\n 29476: a3 = s1 + 0x2958\n 29480: a1 = u64 [s1 + 0x88]\n 29484: a5 = a3 + 0x100\n 29488: u64 [a5 + 0xc0] = a1\n 29492: a1 = u64 [s1 + 0x90]\n 29496: u64 [a5 + 0xb8] = a1\n 29500: u64 [a5 + 0xe0] = a0\n 29504: a0 = u64 [0x20020]\n 29509: a1 = u64 [0x20028]\n 29514: a2 = u64 [0x20030]\n 29519: a4 = u64 [s1 + 0x98]\n 29523: u64 [a5 + 0xb0] = a4\n 29527: u64 [a5 + 0xd8] = a0\n 29531: u64 [a5 + 0xd0] = a1\n 29535: u64 [a5 + 0xc8] = a2\n 29539: a4 = a3\n 29541: a1 = 0x20\n 29544: a2 = s1 + 0x2b20\n 29548: a3 = s1 + 0x2b00\n 29552: a0 = u64 [s1 + 0xa0]\n 29556: u64 [a4 + 0x1a8] = a0\n 29560: a0 = u64 [s1 + 0x1b8]\n 29564: ra = 980, jump @10\n      : @930 [@dyn 490] (gas: 13)\n 29570: a0 = s1 + 0x2958\n 29574: a1 = u64 [s1 + 0x88]\n 29578: a3 = a0 + 0x100\n 29582: u64 [a3 + 0xa0] = a1\n 29586: a1 = u64 [s1 + 0x90]\n 29590: u64 [a3 + 0x98] = a1\n 29594: a1 = u64 [s1 + 0x98]\n 29598: u64 [a3 + 0x90] = a1\n 29602: a1 = s1 + 0x2ae0\n 29606: a2 = u64 [s1 + 0xa0]\n 29610: u64 [a3 + 0x88] = a2\n 29614: a0 = 0\n 29616: ra = 982, jump @4\n      : @931 [@dyn 491] (gas: 3)\n 29622: t0 = 0x3d8\n 29626: a1 = s1 + 0x2958\n 29630: fallthrough\n      : @932 [@dyn 492] (gas: 8)\n 29631: u64 [a1 + 384] = 0\n 29635: u64 [a1 + 376] = 0\n 29639: u64 [a1 + 360] = 0x4\n 29644: a2 = a1\n 29646: a0 = 0x20\n 29649: a1 = s1 + 0x2ac0\n 29653: u64 [a2 + 368] = 0\n 29657: ra = 986, jump @4\n      : @933 [@dyn 493] (gas: 7)\n 29663: a0 = sp + 0xffffffffffffffe0\n 29666: a0 = a0 & 0xffffffffffffffe0\n 29669: u64 [s1 + 0x1b8] = a0\n 29673: sp = a0\n 29675: a2 = u64 [s1 + 0x100]\n 29679: a0 = i32 [a2]\n 29681: jump @935 if a0 >u 63\n      : @934 (gas: 2)\n 29685: u32 [a2 + 0] = 0x40\n 29688: fallthrough\n      : @935 (gas: 11)\n 29689: a0 = sp + 0xffffffffffffffe0\n 29692: a0 = a0 & 0xffffffffffffffe0\n 29695: u64 [s1 + 0x1b0] = a0\n 29699: sp = a0\n 29701: i32 a2 = a0 + 0\n 29703: a1 = 0x40\n 29706: a0 = u64 [s1 + 0xf8]\n 29710: ra = 0x3dc\n 29714: ecalli 7 // 'hash_keccak_256'\n 29716: t0 = 0x3de\n 29720: jump @1428\n      : @936 [@dyn 494] (gas: 1)\n 29723: t0 = 990, jump @1428\n      : @937 [@dyn 495] (gas: 3)\n 29729: a0 = s1 + 0x2aa0\n 29733: a1 = 0x40\n 29736: ra = 992, jump @2\n      : @938 [@dyn 496] (gas: 13)\n 29742: a0 = s1 + 0x2958\n 29746: a2 = a0 + 0x100\n 29750: a1 = u64 [a2 + 0x60]\n 29753: u64 [s1 + 0x60] = a1\n 29756: a1 = u64 [a2 + 0x58]\n 29759: u64 [s1 + 0x58] = a1\n 29762: a1 = u64 [a2 + 0x50]\n 29765: u64 [s1 + 0x50] = a1\n 29768: a0 = u64 [a2 + 0x48]\n 29771: u64 [s1 + 0xf0] = a0\n 29775: a0 = s1 + 0x2a80\n 29779: a1 = u64 [s1 + 0x1b8]\n 29783: ra = 994, jump @6\n      : @939 [@dyn 497] (gas: 6)\n 29789: a0 = u64 [s1 + 0xf0]\n 29793: a1 = u64 [s1 + 0x60]\n 29796: a2 = u64 [s1 + 0x50]\n 29799: a2 = a2 | a1\n 29802: a3 = u64 [s1 + 0x58]\n 29805: t0 = 996, jump @1461\n      : @940 [@dyn 498] (gas: 1)\n 29811: jump @912 if a1 != 0\n      : @941 (gas: 16)\n 29815: a5 = s1 + 0x2958\n 29819: a2 = u64 [a5 + 0x140]\n 29823: a1 = u64 [a5 + 0x138]\n 29827: a3 = u64 [a5 + 0x130]\n 29831: a4 = u64 [a5 + 0x128]\n 29835: u64 [s1 + 0x110] = a4\n 29839: u64 [a5 + 0x108] = a4\n 29843: u64 [s1 + 0x118] = a3\n 29847: a4 = a5 + 0x100\n 29851: u64 [a4 + 0x10] = a3\n 29854: u64 [s1 + 0x120] = a1\n 29858: u64 [a4 + 0x18] = a1\n 29861: a1 = s1 + 0x2a60\n 29865: u64 [s1 + 0x128] = a2\n 29869: u64 [a4 + 0x20] = a2\n 29872: ra = 998, jump @4\n      : @942 [@dyn 499] (gas: 13)\n 29878: a0 = u64 [s1 + 0x198]\n 29882: a1 = s1 + 0x2958\n 29886: u64 [a1 + 0x100] = a0\n 29890: a0 = u64 [s1 + 0x1a0]\n 29894: u64 [a1 + 0xf8] = a0\n 29898: a0 = u64 [s1 + 0x1a8]\n 29902: u64 [a1 + 0xf0] = a0\n 29906: a2 = a1\n 29908: a1 = s1 + 0x2a40\n 29912: a0 = u64 [s1 + 0x1b0]\n 29916: u64 [a2 + 0xe8] = a0\n 29920: a0 = 0\n 29922: ra = 1000, jump @4\n      : @943 [@dyn 500] (gas: 7)\n 29928: a0 = sp + 0xffffffffffffffe0\n 29931: a0 = a0 & 0xffffffffffffffe0\n 29934: u64 [s1 + 0x190] = a0\n 29938: sp = a0\n 29940: a0 = u64 [s1 + 0x100]\n 29944: a0 = i32 [a0]\n 29946: jump @945 if a0 >u 31\n      : @944 (gas: 3)\n 29950: a1 = u64 [s1 + 0x100]\n 29954: u32 [a1 + 0] = 0x20\n 29957: fallthrough\n      : @945 (gas: 3)\n 29958: a0 = 0xffffffff\n 29968: u64 [s1 + 0x130] = a0\n 29972: t0 = 1002, jump @1445\n      : @946 [@dyn 501] (gas: 33)\n 29978: a0 = u64 [s1 + 0xf8]\n 29982: ecalli 7 // 'hash_keccak_256'\n 29984: t1 = 0\n 29986: a5 = 0\n 29988: t0 = 0\n 29990: a3 = u64 [s1 + 0x1b8]\n 29994: a0 = u64 [a3 + 0x18]\n 29997: a1 = u64 [a3 + 0x10]\n 30000: a4 = u64 [a3 + 0x8]\n 30003: t2 = u64 [a3]\n 30005: ra = reverse a0\n 30007: a3 = reverse a1\n 30009: a0 = reverse a4\n 30011: a1 = 0\n 30013: a2 = reverse t2\n 30015: a4 = u64 [s1 + 0x190]\n 30019: u64 [a4 + 0x18] = a2\n 30022: u64 [s1 + 0x138] = a0\n 30026: u64 [a4 + 0x10] = a0\n 30029: u64 [a4 + 0x8] = a3\n 30032: u64 [a4] = ra\n 30034: a0 = 0xffffffe0\n 30044: a4 = s1 + 0x100\n 30048: u64 [a4 + 0x8] = a0\n 30051: a0 = u64 [s1 + 0xf0]\n 30055: u64 [a4 + 0xb8] = a0\n 30059: a0 = u64 [s1 + 0x50]\n 30062: u64 [a4 + 0xb0] = a0\n 30066: a0 = u64 [s1 + 0x58]\n 30069: u64 [a4 + 0xa8] = a0\n 30073: a0 = u64 [s1 + 0x60]\n 30076: u64 [a4 + 0xa0] = a0\n 30080: fallthrough\n      : @947 (gas: 40)\n 30081: u64 [s1 + 0x148] = a2\n 30085: u64 [s1 + 0x150] = a3\n 30089: u64 [s1 + 0x158] = ra\n 30093: ra = u64 [s1 + 0x1b8]\n 30097: t2 = ra + 0x20\n 30100: a0 = u64 [s1 + 0x110]\n 30104: u64 [s1 + 0x170] = t1\n 30108: a0 = t1 <u a0\n 30111: a2 = u64 [s1 + 0x118]\n 30115: a3 = a5 ^ a2\n 30118: u64 [s1 + 0x168] = a5\n 30122: a2 = a5 <u a2\n 30125: a2 = a0 if a3 == 0\n 30128: a4 = u64 [s1 + 0x120]\n 30132: a0 = a1 <u a4\n 30135: a3 = u64 [s1 + 0x128]\n 30139: a5 = t0 ^ a3\n 30142: u64 [s1 + 0x160] = t0\n 30146: a3 = t0 <u a3\n 30149: a3 = a0 if a5 == 0\n 30152: u64 [s1 + 0x140] = a1\n 30156: a0 = a1 ^ a4\n 30159: a0 = a0 | a5\n 30162: u64 [s1 + 0x198] = t2\n 30166: a4 = t2 <u ra\n 30169: a3 = a2 if a0 == 0\n 30172: a1 = s1 + 0x100\n 30176: a2 = u64 [a1 + 0xb0]\n 30180: a0 = a2 + a4\n 30183: u64 [a1 + 0x88] = a0\n 30187: a0 = a0 <u a2\n 30190: a0 = a4 if a4 == 0\n 30193: a2 = u64 [a1 + 0xa8]\n 30197: a0 = a0 + a2\n 30200: u64 [a1 + 0x78] = a0\n 30203: a0 = a0 <u a2\n 30206: a2 = u64 [a1 + 0xa0]\n 30210: a0 = a0 + a2\n 30213: u64 [a1 + 0x80] = a0\n 30217: jump @953 if a3 == 0\n      : @948 (gas: 3)\n 30221: a0 = s1 + 0x2620\n 30225: a1 = u64 [s1 + 0x190]\n 30229: ra = 1004, jump @6\n      : @949 [@dyn 502] (gas: 1)\n 30235: t0 = 1006, jump @1457\n      : @950 [@dyn 503] (gas: 1)\n 30241: jump @912 if a1 == 0\n      : @951 (gas: 17)\n 30245: a3 = s1 + 0x2158\n 30249: a5 = a3 + 0x400\n 30253: a0 = u64 [a5 + 0xd8]\n 30257: a1 = u64 [a5 + 0xd0]\n 30261: a2 = u64 [a5 + 0xc8]\n 30265: a4 = u64 [s1 + 0x130]\n 30269: a0 = a0 & a4\n 30272: a4 = 0xffffffffffffffff\n 30275: a1 = a1 & a4\n 30278: a2 = a2 & a4\n 30281: u64 [a3 + 1216] = 0\n 30285: u64 [a5 + 0xa8] = a2\n 30289: u64 [a5 + 0xb0] = a1\n 30293: a1 = s1 + 0x2600\n 30297: u64 [a5 + 0xb8] = a0\n 30301: a0 = u64 [s1 + 0x198]\n 30305: ra = 1008, jump @4\n      : @952 [@dyn 504] (gas: 41)\n 30311: ra = u64 [s1 + 0x158]\n 30315: ra = ra + 0x1\n 30318: a0 = ra <u 0x1\n 30321: a3 = u64 [s1 + 0x150]\n 30325: a3 = a3 + a0\n 30328: a0 = ra | a3\n 30331: a0 = a0 <u 0x1\n 30334: a1 = u64 [s1 + 0x138]\n 30338: a0 = a0 + a1\n 30341: a1 = a0 <u a1\n 30344: a4 = u64 [s1 + 0x148]\n 30348: a4 = a4 + a1\n 30351: t1 = u64 [s1 + 0x170]\n 30355: t1 = t1 + 0x1\n 30358: a1 = t1 <u 0x1\n 30361: a5 = u64 [s1 + 0x168]\n 30365: a5 = a5 + a1\n 30368: a1 = t1 | a5\n 30371: a1 = a1 <u 0x1\n 30374: a2 = u64 [s1 + 0x140]\n 30378: a1 = a1 + a2\n 30381: a2 = a1 <u a2\n 30384: t0 = u64 [s1 + 0x160]\n 30388: t0 = t0 + a2\n 30391: a2 = u64 [s1 + 0x190]\n 30395: u64 [a2 + 0x8] = a3\n 30398: u64 [a2] = ra\n 30400: u64 [a2 + 0x10] = a0\n 30403: u64 [a2 + 0x18] = a4\n 30406: a2 = s1 + 0x100\n 30410: u64 [a2 + 0x38] = a0\n 30413: a0 = u64 [a2 + 0x98]\n 30417: u64 [a2 + 0xb8] = a0\n 30421: a0 = u64 [a2 + 0x88]\n 30425: u64 [a2 + 0xb0] = a0\n 30429: a0 = u64 [a2 + 0x78]\n 30432: u64 [a2 + 0xa8] = a0\n 30436: a0 = u64 [a2 + 0x80]\n 30440: u64 [a2 + 0xa0] = a0\n 30444: a2 = a4\n 30446: jump @947\n      : @953 (gas: 41)\n 30449: t0 = u64 [s1 + 0xf0]\n 30453: a0 = u64 [s1 + 0x198]\n 30457: t2 = a0 <u t0\n 30460: a5 = u64 [s1 + 0x50]\n 30463: a0 = u64 [s1 + 0x188]\n 30467: a3 = a0 ^ a5\n 30470: a2 = a0 <u a5\n 30473: a2 = t2 if a3 == 0\n 30476: a1 = u64 [s1 + 0x58]\n 30479: a4 = u64 [s1 + 0x178]\n 30483: a3 = a4 - a1\n 30486: t1 = a3 <u a2\n 30489: a4 = a4 <u a1\n 30492: a4 = a4 + t1\n 30495: u64 [s1 + 0x1b8] = a4\n 30499: t1 = u64 [s1 + 0x60]\n 30502: a4 = u64 [s1 + 0x180]\n 30506: a4 = a4 - t1\n 30509: ra = u64 [s1 + 0x1b8]\n 30513: a4 = a4 - ra\n 30516: u64 [s1 + 0x1b8] = a4\n 30520: a3 = a3 - a2\n 30523: u64 [s1 + 0x1b0] = a3\n 30527: a2 = a0 - a5\n 30530: a2 = a2 - t2\n 30533: a0 = u64 [s1 + 0x198]\n 30537: a4 = a0 - t0\n 30540: a3 = s1 + 0x2958\n 30544: u64 [a3 + 0xc8] = t0\n 30548: u64 [a3 + 0xa8] = a4\n 30552: u64 [a3 + 0xd0] = a5\n 30556: u64 [a3 + 0xd8] = a1\n 30560: u64 [a3 + 0xb0] = a2\n 30564: u64 [a3 + 0xe0] = t1\n 30568: a0 = u64 [s1 + 0x1b0]\n 30572: u64 [a3 + 0xb8] = a0\n 30576: a0 = s1 + 0x2a20\n 30580: a1 = s1 + 0x2a00\n 30584: a2 = u64 [s1 + 0x1b8]\n 30588: u64 [a3 + 0xc0] = a2\n 30592: ra = 1010, jump @1235\n      : @954 [@dyn 505] (gas: 17)\n 30598: u64 [s1 + 272] = 0\n 30602: u64 [s1 + 232] = 0\n 30606: u64 [s1 + 264] = 0\n 30610: a2 = 0\n 30612: t0 = 0\n 30614: ra = 0\n 30616: a4 = 0\n 30618: a5 = 0\n 30620: u64 [s1 + 392] = 0\n 30624: u64 [s1 + 384] = 0\n 30628: u64 [s1 + 368] = 0\n 30632: u64 [s1 + 376] = 0\n 30636: a0 = 0x100000000\n 30646: u64 [s1 + 0x118] = a0\n 30650: a0 = 0xffffffe0\n 30660: u64 [s1 + 0x48] = a0\n 30663: fallthrough\n      : @955 (gas: 8)\n 30664: u64 [s1 + 0xc8] = a5\n 30668: u64 [s1 + 0xd0] = a4\n 30672: u64 [s1 + 0xd8] = ra\n 30676: u64 [s1 + 0x138] = t0\n 30680: u64 [s1 + 0xe0] = a2\n 30684: a0 = s1 + 0x29e0\n 30688: a1 = u64 [s1 + 0xf0]\n 30692: ra = 1012, jump @2\n      : @956 [@dyn 506] (gas: 21)\n 30698: a3 = s1 + 0x2958\n 30702: a0 = u64 [a3 + 0x90]\n 30706: a1 = u64 [a3 + 0xa0]\n 30710: a2 = u64 [a3 + 0x88]\n 30714: t1 = u64 [a3 + 0x98]\n 30718: a3 = u64 [s1 + 0x180]\n 30722: a4 = a3 ^ a0\n 30725: a0 = a3 <u a0\n 30728: t0 = u64 [s1 + 0x188]\n 30732: a2 = t0 <u a2\n 30735: a2 = a0 if a4 != 0\n 30738: a5 = u64 [s1 + 0x170]\n 30742: a0 = a5 <u t1\n 30745: a4 = u64 [s1 + 0x178]\n 30749: t2 = a4 ^ a1\n 30752: a1 = a4 <u a1\n 30755: a1 = a0 if t2 == 0\n 30758: a0 = a5 ^ t1\n 30761: a0 = a0 | t2\n 30764: a1 = a2 if a0 == 0\n 30767: jump @991 if a1 == 0\n      : @957 (gas: 19)\n 30771: a1 = s1 + 0x2158\n 30775: u64 [a1 + 0x6c8] = t0\n 30779: a0 = u64 [s1 + 0xf0]\n 30783: a2 = a1 + 0x600\n 30787: u64 [a2 + 0xe8] = a0\n 30791: u64 [a2 + 0xd0] = a3\n 30795: a0 = u64 [s1 + 0x50]\n 30798: u64 [a2 + 0xf0] = a0\n 30802: u64 [a2 + 0xd8] = a5\n 30806: a0 = u64 [s1 + 0x58]\n 30809: u64 [a2 + 0xf8] = a0\n 30813: u64 [a2 + 0xe0] = a4\n 30817: a4 = a1\n 30819: a0 = s1 + 0x2860\n 30823: a1 = s1 + 0x2840\n 30827: a2 = s1 + 0x2820\n 30831: a3 = u64 [s1 + 0x60]\n 30834: u64 [a4 + 0x700] = a3\n 30838: ra = 1014, jump @1323\n      : @958 [@dyn 507] (gas: 3)\n 30844: t0 = 0x3f8\n 30848: a1 = s1 + 0x2158\n 30852: fallthrough\n      : @959 [@dyn 508] (gas: 13)\n 30853: a4 = a1 + 0x700\n 30857: a0 = u64 [a4 + 0x20]\n 30860: a2 = u64 [a4 + 0x18]\n 30863: a3 = u64 [a4 + 0x10]\n 30866: a1 = u64 [a4 + 0x8]\n 30869: a0 = a0 | a3\n 30872: a3 = a1 | a2\n 30875: a3 = a3 | a0\n 30878: a3 = a3 >> 0x20\n 30881: a0 = a0 | a2\n 30884: a0 = a0 << 0x20\n 30887: a0 = a0 | a3\n 30890: jump @912 if a0 != 0\n      : @960 (gas: 2)\n 30894: a0 = s1 + 0x2800\n 30898: ra = 1018, jump @2\n      : @961 [@dyn 509] (gas: 19)\n 30904: a2 = s1 + 0x2158\n 30908: a3 = a2 + 0x600\n 30912: a0 = u64 [a3 + 0xa8]\n 30916: u64 [s1 + 0x1b8] = a0\n 30920: a0 = u64 [a3 + 0xb0]\n 30924: u64 [s1 + 0x1b0] = a0\n 30928: a0 = u64 [a3 + 0xb8]\n 30932: u64 [s1 + 0x1a8] = a0\n 30936: a0 = u64 [s1 + 0x88]\n 30940: u64 [a3 + 0xa0] = a0\n 30944: a0 = u64 [s1 + 0x90]\n 30948: u64 [a3 + 0x98] = a0\n 30952: a0 = u64 [s1 + 0x98]\n 30956: u64 [a3 + 0x90] = a0\n 30960: a1 = s1 + 0x27e0\n 30964: a0 = u64 [s1 + 0xa0]\n 30968: u64 [a3 + 0x88] = a0\n 30972: a0 = 0\n 30974: ra = 1020, jump @4\n      : @962 [@dyn 510] (gas: 9)\n 30980: a0 = s1 + 0x2158\n 30984: u64 [a0 + 1664] = 0\n 30988: u64 [a0 + 1656] = 0\n 30992: u64 [a0 + 1648] = 0\n 30996: a3 = a0\n 30998: a0 = 0x20\n 31001: a1 = s1 + 0x27c0\n 31005: u64 [a3 + 1640] = 0x3\n 31010: ra = 1022, jump @4\n      : @963 [@dyn 511] (gas: 3)\n 31016: a1 = u64 [s1 + 0x100]\n 31020: a0 = i32 [a1]\n 31022: jump @965 if a0 >u 63\n      : @964 (gas: 2)\n 31026: u32 [a1 + 0] = 0x40\n 31029: fallthrough\n      : @965 (gas: 11)\n 31030: a0 = u64 [s1 + 0x130]\n 31034: a1 = u64 [s1 + 0x1a8]\n 31038: a0 = a0 & a1\n 31041: u64 [s1 + 0x140] = a0\n 31045: a1 = u64 [s1 + 0x1b0]\n 31049: a1 = a1 & 0xffffffffffffffff\n 31052: u64 [s1 + 0x148] = a1\n 31056: a1 = u64 [s1 + 0x1b8]\n 31060: a0 = a1 & 0xffffffffffffffff\n 31063: u64 [s1 + 0x150] = a0\n 31067: t0 = 1024, jump @1441\n      : @966 [@dyn 512] (gas: 30)\n 31073: ecalli 7 // 'hash_keccak_256'\n 31075: a3 = u64 [s1 + 0x1b8]\n 31079: a0 = u64 [a3 + 0x18]\n 31082: a1 = u64 [a3 + 0x10]\n 31085: a2 = u64 [a3 + 0x8]\n 31088: a3 = u64 [a3]\n 31090: a0 = reverse a0\n 31092: u64 [s1 + 0x1b8] = a0\n 31096: a0 = reverse a1\n 31098: u64 [s1 + 0x1b0] = a0\n 31102: a0 = reverse a2\n 31104: u64 [s1 + 0x1a8] = a0\n 31108: a0 = reverse a3\n 31110: u64 [s1 + 0x1a0] = a0\n 31114: a0 = sp + 0xffffffffffffffe0\n 31117: a0 = a0 & 0xffffffffffffffe0\n 31120: u64 [s1 + 0x168] = a0\n 31124: sp = a0\n 31126: a2 = s1 + 0x2158\n 31130: u64 [a2 + 1632] = 0\n 31134: a0 = u64 [s1 + 0x140]\n 31138: a3 = a2 + 0x600\n 31142: u64 [a3 + 0x58] = a0\n 31145: a0 = u64 [s1 + 0x148]\n 31149: u64 [a3 + 0x50] = a0\n 31152: a1 = s1 + 0x27a0\n 31156: a0 = u64 [s1 + 0x150]\n 31160: u64 [a3 + 0x48] = a0\n 31163: a0 = 0\n 31165: ra = 1026, jump @4\n      : @967 [@dyn 513] (gas: 14)\n 31171: a0 = u64 [s1 + 0x1a0]\n 31175: a1 = s1 + 0x2158\n 31179: a2 = a1 + 0x600\n 31183: u64 [a2 + 0x40] = a0\n 31186: a0 = u64 [s1 + 0x1a8]\n 31190: u64 [a2 + 0x38] = a0\n 31193: a0 = u64 [s1 + 0x1b0]\n 31197: u64 [a2 + 0x30] = a0\n 31200: a3 = a1\n 31202: a0 = 0x20\n 31205: a1 = s1 + 0x2780\n 31209: a2 = u64 [s1 + 0x1b8]\n 31213: u64 [a3 + 0x628] = a2\n 31217: ra = 1028, jump @4\n      : @968 [@dyn 514] (gas: 3)\n 31223: a1 = u64 [s1 + 0x100]\n 31227: a0 = i32 [a1]\n 31229: jump @970 if a0 >u 63\n      : @969 (gas: 3)\n 31233: u32 [a1 + 0] = 0x40\n 31236: t0 = 0x406\n 31240: jump @1441\n      : @970 (gas: 1)\n 31243: t0 = 1030, jump @1441\n      : @971 [@dyn 515] (gas: 5)\n 31249: ra = 0x408\n 31253: ecalli 7 // 'hash_keccak_256'\n 31255: a3 = u64 [s1 + 0x1b8]\n 31259: t0 = 0x40a\n 31263: jump @1437\n      : @972 [@dyn 516] (gas: 2)\n 31266: a3 = u64 [s1 + 0x1b8]\n 31270: t0 = 1034, jump @1437\n      : @973 [@dyn 517] (gas: 12)\n 31276: u64 [s1 + 0x1a0] = a1\n 31280: a2 = u64 [s1 + 0x168]\n 31284: u64 [a2 + 0x18] = a1\n 31287: u64 [s1 + 0x1a8] = a0\n 31291: u64 [a2 + 0x10] = a0\n 31294: u64 [s1 + 0x198] = a4\n 31298: u64 [a2 + 0x8] = a4\n 31301: u64 [s1 + 0x190] = a5\n 31305: u64 [a2] = a5\n 31307: a0 = s1 + 0x2760\n 31311: a1 = 0x40\n 31314: ra = 1036, jump @2\n      : @974 [@dyn 518] (gas: 19)\n 31320: a1 = s1 + 0x2158\n 31324: a5 = a1 + 0x600\n 31328: a0 = u64 [a5 + 0x20]\n 31331: u64 [s1 + 0x160] = a0\n 31335: a2 = u64 [a5 + 0x18]\n 31338: u64 [s1 + 0x158] = a2\n 31342: a4 = u64 [a5 + 0x10]\n 31345: u64 [s1 + 0x1b0] = a4\n 31349: a3 = u64 [a5 + 0x8]\n 31352: u64 [s1 + 0x1b8] = a3\n 31356: u64 [a5] = a0\n 31358: a5 = a1 + 0x500\n 31362: u64 [a5 + 0xf8] = a2\n 31366: u64 [a5 + 0xf0] = a4\n 31370: a0 = s1 + 0x2740\n 31374: u64 [a5 + 0xe8] = a3\n 31378: ra = 0x40e\n 31382: t0 = 0x506\n 31386: jump @1443\n      : @975 [@dyn 519] (gas: 3)\n 31389: a0 = s1 + 0x2720\n 31393: a1 = u64 [s1 + 0x168]\n 31397: ra = 1040, jump @6\n      : @976 [@dyn 520] (gas: 7)\n 31403: a3 = s1 + 0x100\n 31407: a0 = u64 [a3 + 0x60]\n 31410: a1 = u64 [a3 + 0xb0]\n 31414: a0 = a0 | a1\n 31417: a2 = u64 [a3 + 0x58]\n 31420: a1 = u64 [a3 + 0xb8]\n 31424: t0 = 1042, jump @1472\n      : @977 [@dyn 521] (gas: 1)\n 31430: jump @912 if a0 != 0\n      : @978 (gas: 17)\n 31434: a4 = s1 + 0x2158\n 31438: a5 = a4 + 0x500\n 31442: a3 = u64 [a5 + 0xe0]\n 31446: a2 = u64 [a5 + 0xd8]\n 31450: a1 = u64 [a5 + 0xd0]\n 31454: a0 = u64 [a5 + 0xc8]\n 31458: u64 [s1 + 0x128] = a0\n 31462: u64 [a5 + 0xa8] = a0\n 31466: u64 [s1 + 0x120] = a1\n 31470: u64 [a5 + 0xb0] = a1\n 31474: u64 [s1 + 0xc0] = a2\n 31478: u64 [a5 + 0xb8] = a2\n 31482: a1 = s1 + 0x2700\n 31486: u64 [s1 + 0xb8] = a3\n 31490: u64 [a5 + 0xc0] = a3\n 31494: a0 = u64 [s1 + 0x1b8]\n 31498: ra = 1044, jump @4\n      : @979 [@dyn 522] (gas: 21)\n 31504: a0 = u64 [s1 + 0x190]\n 31508: a0 = a0 + 0x1\n 31511: a1 = a0 <u 0x1\n 31514: a2 = u64 [s1 + 0x198]\n 31518: a1 = a1 + a2\n 31521: a2 = a0 | a1\n 31524: a2 = a2 <u 0x1\n 31527: a3 = u64 [s1 + 0x1a8]\n 31531: a2 = a2 + a3\n 31534: a3 = a2 <u a3\n 31537: a4 = u64 [s1 + 0x1a0]\n 31541: a3 = a3 + a4\n 31544: a4 = s1 + 0x3958\n 31548: a5 = a4 + 0x600\n 31552: u64 [a5 + 0x50] = a1\n 31555: u64 [a5 + 0x48] = a0\n 31558: u64 [a5 + 0x58] = a2\n 31561: u64 [a5 + 0x60] = a3\n 31564: a0 = s1 + 0x26e0\n 31568: a1 = s1 + 0x3fa0\n 31572: ra = 1046, jump @6\n      : @980 [@dyn 523] (gas: 12)\n 31578: a3 = s1 + 0x100\n 31582: a0 = u64 [a3 + 0x60]\n 31585: a2 = u64 [a3 + 0x58]\n 31588: a2 = a2 | a0\n 31591: a0 = u64 [s1 + 0x48]\n 31594: a1 = u64 [a3 + 0xb8]\n 31598: a0 = a1 <u a0\n 31601: a1 = u64 [a3 + 0xb0]\n 31605: a0 = 0 if a1 != 0\n 31607: u64 [a3 + 0x68] = a2\n 31610: a0 = 0 if a2 != 0\n 31612: jump @912 if a0 == 0\n      : @981 (gas: 14)\n 31616: a5 = s1 + 0x2158\n 31620: t0 = u64 [a5 + 0x5a0]\n 31624: a2 = a5 + 0x500\n 31628: a1 = u64 [a2 + 0x98]\n 31632: a3 = u64 [a2 + 0x90]\n 31636: a4 = u64 [a2 + 0x88]\n 31640: a0 = u64 [s1 + 0x1b8]\n 31644: i32 a0 = a0 + 0x20\n 31647: u64 [a2 + 0x68] = a4\n 31650: u64 [a2 + 0x70] = a3\n 31653: u64 [a2 + 0x78] = a1\n 31656: a1 = s1 + 0x26c0\n 31660: u64 [a5 + 0x580] = t0\n 31664: ra = 1048, jump @4\n      : @982 [@dyn 524] (gas: 3)\n 31670: a1 = u64 [s1 + 0x190]\n 31674: a0 = a1 + 0x2\n 31677: t0 = 1050, jump @1432\n      : @983 [@dyn 525] (gas: 7)\n 31683: u64 [a5 + 0x70] = a2\n 31686: u64 [a5 + 0x68] = a0\n 31689: u64 [a5 + 0x78] = a3\n 31692: u64 [a5 + 0x80] = a1\n 31696: a0 = s1 + 0x26a0\n 31700: a1 = s1 + 0x3fc0\n 31704: ra = 1052, jump @6\n      : @984 [@dyn 526] (gas: 10)\n 31710: a2 = s1 + 0x100\n 31714: a0 = u64 [a2 + 0x18]\n 31717: a0 = a0 + 0xffffffffffffffc0\n 31720: a1 = u64 [a2 + 0xb8]\n 31724: a0 = a1 <u a0\n 31727: a1 = u64 [a2 + 0xb0]\n 31731: a0 = 0 if a1 != 0\n 31733: a1 = u64 [a2 + 0x68]\n 31736: a0 = 0 if a1 != 0\n 31738: jump @912 if a0 == 0\n      : @985 (gas: 18)\n 31742: a2 = s1 + 0x2158\n 31746: t0 = u64 [a2 + 0x560]\n 31750: a3 = a2 + 0x500\n 31754: a1 = u64 [a3 + 0x58]\n 31757: a4 = u64 [a3 + 0x50]\n 31760: a5 = u64 [a3 + 0x48]\n 31763: a0 = u64 [s1 + 0x1b8]\n 31767: i32 a0 = a0 + 0x40\n 31770: u64 [s1 + 0xa8] = a5\n 31774: u64 [a3 + 0x28] = a5\n 31777: u64 [s1 + 0xb0] = a4\n 31781: u64 [a3 + 0x30] = a4\n 31784: u64 [s1 + 0x160] = a1\n 31788: u64 [a3 + 0x38] = a1\n 31791: a1 = s1 + 0x2680\n 31795: u64 [s1 + 0x158] = t0\n 31799: u64 [a2 + 0x540] = t0\n 31803: ra = 1054, jump @4\n      : @986 [@dyn 527] (gas: 3)\n 31809: a1 = u64 [s1 + 0x190]\n 31813: a0 = a1 + 0x3\n 31816: t0 = 1056, jump @1432\n      : @987 [@dyn 528] (gas: 7)\n 31822: u64 [a5 + 0x90] = a2\n 31826: u64 [a5 + 0x88] = a0\n 31830: u64 [a5 + 0x98] = a3\n 31834: u64 [a5 + 0xa0] = a1\n 31838: a0 = s1 + 0x2660\n 31842: a1 = s1 + 0x3fe0\n 31846: ra = 1058, jump @6\n      : @988 [@dyn 529] (gas: 10)\n 31852: a2 = s1 + 0x100\n 31856: a0 = u64 [a2 + 0x18]\n 31859: a0 = a0 + 0xffffffffffffffa0\n 31862: a1 = u64 [a2 + 0xb8]\n 31866: a0 = a1 <u a0\n 31869: a1 = u64 [a2 + 0xb0]\n 31873: a0 = 0 if a1 != 0\n 31875: a1 = u64 [a2 + 0x68]\n 31878: a0 = 0 if a1 != 0\n 31880: jump @912 if a0 == 0\n      : @989 (gas: 12)\n 31884: a2 = s1 + 0x2158\n 31888: a0 = u64 [a2 + 0x508]\n 31892: a0 = a0 & 0xff\n 31896: a1 = a0 >u 0\n 31898: a0 = u64 [s1 + 0x1b8]\n 31902: i32 a0 = a0 + 0x60\n 31905: u64 [a2 + 1280] = 0\n 31909: u64 [a2 + 1272] = 0\n 31913: u64 [a2 + 0x4e8] = a1\n 31917: a1 = s1 + 0x2640\n 31921: u64 [a2 + 1264] = 0\n 31925: ra = 1060, jump @4\n      : @990 [@dyn 530] (gas: 78)\n 31931: a0 = u64 [s1 + 0x68]\n 31934: a1 = u64 [s1 + 0xa8]\n 31938: a0 = a0 <u a1\n 31941: a2 = u64 [s1 + 0x70]\n 31944: a3 = u64 [s1 + 0xb0]\n 31948: a1 = a3 ^ a2\n 31951: a2 = a2 <u a3\n 31954: a2 = a0 if a1 == 0\n 31957: a0 = u64 [s1 + 0x80]\n 31961: a3 = u64 [s1 + 0x158]\n 31965: a1 = a3 ^ a0\n 31968: a0 = a0 <u a3\n 31971: a4 = u64 [s1 + 0x78]\n 31974: a5 = u64 [s1 + 0x160]\n 31978: a3 = a4 <u a5\n 31981: a0 = a3 if a1 == 0\n 31984: a3 = a5 ^ a4\n 31987: a1 = a1 | a3\n 31990: a0 = a2 if a1 == 0\n 31993: a1 = u64 [s1 + 0x128]\n 31997: a2 = u64 [s1 + 0x138]\n 32001: a1 = a2 <u a1\n 32004: a3 = u64 [s1 + 0x120]\n 32008: ra = u64 [s1 + 0xd8]\n 32012: a2 = a3 ^ ra\n 32015: a3 = ra <u a3\n 32018: a3 = a1 if a2 == 0\n 32021: t2 = u64 [s1 + 0xc0]\n 32025: a2 = u64 [s1 + 0xd0]\n 32029: a1 = a2 <u t2\n 32032: t1 = u64 [s1 + 0xb8]\n 32036: a5 = u64 [s1 + 0xc8]\n 32040: t0 = t1 ^ a5\n 32043: a4 = a5 <u t1\n 32046: a4 = a1 if t0 == 0\n 32049: a1 = t2 ^ a2\n 32052: a1 = a1 | t0\n 32055: t0 = u64 [s1 + 0x138]\n 32059: a4 = a3 if a1 == 0\n 32062: a0 = a4 & ~a0\n 32065: a4 = a2\n 32067: a1 = u64 [s1 + 0x108]\n 32071: a2 = u64 [s1 + 0x140]\n 32075: a1 = a2 if a0 != 0\n 32078: u64 [s1 + 0x108] = a1\n 32082: a1 = u64 [s1 + 0xe8]\n 32086: a2 = u64 [s1 + 0x148]\n 32090: a1 = a2 if a0 != 0\n 32093: u64 [s1 + 0xe8] = a1\n 32097: a1 = u64 [s1 + 0x110]\n 32101: a2 = u64 [s1 + 0x150]\n 32105: a1 = a2 if a0 != 0\n 32108: u64 [s1 + 0x110] = a1\n 32112: a5 = t1 if a0 != 0\n 32115: a4 = t2 if a0 != 0\n 32118: a1 = u64 [s1 + 0x120]\n 32122: ra = a1 if a0 != 0\n 32125: a1 = u64 [s1 + 0x128]\n 32129: t0 = a1 if a0 != 0\n 32132: a2 = u64 [s1 + 0xe0]\n 32136: a2 = 0 if a0 != 0\n 32138: a1 = u64 [s1 + 0x188]\n 32142: a1 = a1 + 0x1\n 32145: a0 = a1 <u 0x1\n 32148: a3 = u64 [s1 + 0x180]\n 32152: a3 = a3 + a0\n 32155: u64 [s1 + 0x188] = a1\n 32159: u64 [s1 + 0x180] = a3\n 32163: a0 = a1 | a3\n 32166: a0 = a0 <u 0x1\n 32169: a1 = u64 [s1 + 0x170]\n 32173: a0 = a0 + a1\n 32176: a1 = a0 <u a1\n 32179: a3 = u64 [s1 + 0x178]\n 32183: a3 = a3 + a1\n 32186: u64 [s1 + 0x178] = a3\n 32190: u64 [s1 + 0x170] = a0\n 32194: jump @955\n      : @991 (gas: 14)\n 32197: a0 = u64 [s1 + 0xe8]\n 32201: a3 = a0 & 0xffffffffffffffff\n 32204: a4 = s1 + 0x100\n 32208: a0 = u64 [a4 + 0x10]\n 32211: a2 = a0 & 0xffffffffffffffff\n 32214: a0 = u64 [a4 + 0x8]\n 32217: a1 = u64 [a4 + 0x30]\n 32220: a0 = a0 & a1\n 32223: u64 [a4 + 0x30] = a2\n 32226: u64 [a4 + 0x20] = a0\n 32229: a0 = a0 | a2\n 32232: u64 [a4 + 0x28] = a3\n 32235: a0 = a0 | a3\n 32238: jump @1023 if a0 == 0\n      : @992 (gas: 3)\n 32242: a0 = s1 + 0x29c0\n 32246: a1 = u64 [s1 + 0x18]\n 32249: ra = 1062, jump @6\n      : @993 [@dyn 531] (gas: 17)\n 32255: a1 = s1 + 0x2958\n 32259: a0 = u32 [a1 + 0x7c]\n 32262: a0 = a0 << 0x20\n 32265: a1 = u64 [a1 + 0x80]\n 32269: a2 = u64 [s1 + 0x120]\n 32273: a0 = a0 | a2\n 32276: a3 = s1 + 0x3958\n 32280: a2 = u64 [s1 + 0x128]\n 32284: a4 = a3 + 0x600\n 32288: u64 [a4 + 0xb0] = a2\n 32292: a2 = u64 [s1 + 0x130]\n 32296: u64 [a4 + 0xa8] = a2\n 32300: u64 [a4 + 0xc0] = a1\n 32304: u64 [a4 + 0xb8] = a0\n 32308: a1 = s1 + 0x4000\n 32312: a0 = u64 [s1 + 0x18]\n 32315: ra = 1064, jump @9\n      : @994 [@dyn 532] (gas: 3)\n 32321: a1 = u64 [s1 + 0x28]\n 32324: a0 = a1 + 0x4\n 32327: t0 = 1066, jump @1439\n      : @995 [@dyn 533] (gas: 8)\n 32333: a5 = a4 + 0x600\n 32337: u64 [a5 + 0xd8] = a3\n 32341: u64 [a5 + 0xd0] = a2\n 32345: u64 [a5 + 0xc8] = a0\n 32349: u64 [a5 + 0xe0] = a1\n 32353: a0 = s1 + 0x29a0\n 32357: a1 = s1 + 0x4020\n 32361: ra = 1068, jump @6\n      : @996 [@dyn 534] (gas: 30)\n 32367: a0 = s1 + 0x2958\n 32371: a5 = u64 [a0 + 0x60]\n 32374: a3 = u64 [a0 + 0x48]\n 32377: a4 = u64 [a0 + 0x50]\n 32380: a0 = u64 [a0 + 0x58]\n 32383: t0 = 0x5a\n 32386: a1 = a3 mulhu t0\n 32389: a2 = a4 * t0\n 32392: a1 = a1 + a2\n 32395: u64 [s1 + 0x1b8] = a1\n 32399: a1 = a1 <u a2\n 32402: a2 = a4 mulhu t0\n 32405: a1 = a1 + a2\n 32408: a2 = a0 * t0\n 32411: a2 = a2 + a1\n 32414: u64 [s1 + 0x168] = a2\n 32418: a1 = a2 <u a1\n 32421: u64 [s1 + 0x118] = a4\n 32425: a2 = a4 | a5\n 32428: u64 [s1 + 0x140] = a3\n 32432: a3 = a3 | a0\n 32435: a4 = a3 | a2\n 32438: u64 [s1 + 0x138] = a5\n 32442: a3 = a5 * t0\n 32445: u64 [s1 + 0xf0] = a0\n 32449: a2 = a0 mulhu t0\n 32452: a3 = a3 + a2\n 32455: a0 = a3 + a1\n 32458: u64 [s1 + 0x170] = a0\n 32462: jump @998 if a4 == 0\n      : @997 (gas: 9)\n 32465: a0 = u64 [s1 + 0x170]\n 32469: a1 = 0 if a0 != 0\n 32471: a2 = a3 <u a2\n 32474: a3 = u64 [s1 + 0x138]\n 32478: a3 = a3 mulhu t0\n 32481: a3 = a3 >u 0\n 32483: a2 = a2 | a3\n 32486: a1 = a1 | a2\n 32489: jump @1128 if a1 != 0\n      : @998 (gas: 55)\n 32493: a1 = u64 [s1 + 0x140]\n 32497: t0 = a1 * 0x5a\n 32500: t1 = u64 [s1 + 0x168]\n 32504: a0 = t0 | t1\n 32507: ra = u64 [s1 + 0x1b8]\n 32511: t2 = u64 [s1 + 0x170]\n 32515: a1 = ra | t2\n 32518: a0 = a0 | a1\n 32521: a0 = a0 <u 0x1\n 32524: u64 [s1 + 0x1b0] = a0\n 32528: a0 = clz t1\n 32530: a0 = a0 + 0x40\n 32533: a2 = clz t2\n 32535: a2 = a0 if t2 == 0\n 32538: a0 = clz t0\n 32540: a0 = a0 + 0x40\n 32543: a1 = clz ra\n 32545: a1 = a0 if ra == 0\n 32548: a0 = a1 + 0x80\n 32552: a3 = t1 | t2\n 32555: a2 = a0 if a3 == 0\n 32558: a4 = a0 <u a1\n 32561: a4 = 0 if a3 != 0\n 32563: a5 = a4 >u 0\n 32565: a0 = a2 <u 0xfa\n 32569: a3 = a0 ^ 0x1\n 32572: a5 = a3 if a4 == 0\n 32575: a0 = a5 <u 0x1\n 32578: a0 = a0 + 0xffffffffffffffff\n 32581: a1 = -a5\n 32583: a4 = -a4\n 32585: a3 = a4 - a3\n 32588: a2 = 0xf9 - a2\n 32592: u64 [s1 + 0x190] = a1\n 32596: a4 = a1 >u 0\n 32598: a1 = a0 >u 0\n 32600: a1 = a4 if a0 == 0\n 32603: a4 = a3 >u 0\n 32605: u64 [s1 + 0x188] = a2\n 32609: a2 = a2 <u 0x100\n 32613: a2 = a2 ^ 0x1\n 32616: a2 = a4 if a3 != 0\n 32619: a2 = a1 if a5 != 0\n 32622: a1 = u64 [s1 + 0x1b0]\n 32626: a1 = a1 | a2\n 32629: t2 = 0 if a1 != 0\n 32631: u64 [s1 + 0x198] = t2\n 32635: t1 = 0 if a1 != 0\n 32637: u64 [s1 + 0x1b0] = t1\n 32641: ra = 0 if a1 != 0\n 32643: u64 [s1 + 0x1a8] = ra\n 32647: u64 [s1 + 0x158] = t0\n 32651: t0 = 0 if a1 != 0\n 32653: u64 [s1 + 0x1a0] = t0\n 32657: jump @1013 if a1 != 0\n      : @999 (gas: 7)\n 32661: a1 = u64 [s1 + 0x188]\n 32665: a1 = a1 ^ 0xff\n 32669: a2 = u64 [s1 + 0x190]\n 32673: a1 = a1 | a2\n 32676: a2 = a3 | a0\n 32679: a1 = a1 | a2\n 32682: jump @1013 if a1 == 0\n      : @1000 (gas: 20)\n 32686: a4 = u64 [s1 + 0x188]\n 32690: a2 = a4 + 0x1\n 32693: u64 [s1 + 0x1b0] = a2\n 32697: a1 = a2 <u 0x1\n 32700: a1 = a1 + a3\n 32703: u64 [s1 + 0x1a8] = a1\n 32707: a1 = a1 | a2\n 32710: a1 = a1 <u 0x1\n 32713: a2 = u64 [s1 + 0x190]\n 32717: a1 = a1 + a2\n 32720: u64 [s1 + 0x198] = a1\n 32724: a1 = a1 <u a2\n 32727: a0 = a0 + a1\n 32730: u64 [s1 + 0x1a0] = a0\n 32734: a1 = 0xff - a4\n 32738: u64 [s1 + 0x190] = a1\n 32742: a2 = 0x80 - a1\n 32746: a0 = u64 [s1 + 0x158]\n 32750: a1 = u64 [s1 + 0x1b8]\n 32754: ra = 1070, jump @1474\n      : @1001 [@dyn 535] (gas: 6)\n 32760: u64 [s1 + 0x188] = a0\n 32764: u64 [s1 + 0x180] = a1\n 32768: a0 = u64 [s1 + 0x168]\n 32772: a1 = u64 [s1 + 0x170]\n 32776: a2 = u64 [s1 + 0x190]\n 32780: ra = 1072, jump @1479\n      : @1002 [@dyn 536] (gas: 9)\n 32786: u64 [s1 + 0x178] = a0\n 32790: a0 = u64 [s1 + 0x180]\n 32794: a0 = a0 | a1\n 32797: u64 [s1 + 0x180] = a0\n 32801: a0 = u64 [s1 + 0x190]\n 32805: a2 = a0 + 0xffffffffffffff80\n 32808: a0 = u64 [s1 + 0x158]\n 32812: a1 = u64 [s1 + 0x1b8]\n 32816: ra = 1074, jump @1479\n      : @1003 [@dyn 537] (gas: 18)\n 32822: a2 = u64 [s1 + 0x190]\n 32826: a3 = a2 <u 0x80\n 32830: u64 [s1 + 0x160] = a3\n 32834: a4 = u64 [s1 + 0x180]\n 32838: a1 = a4 if a3 != 0\n 32841: a4 = u64 [s1 + 0x170]\n 32845: a1 = a4 if a2 == 0\n 32848: u64 [s1 + 0x180] = a1\n 32852: a1 = u64 [s1 + 0x188]\n 32856: a4 = u64 [s1 + 0x178]\n 32860: a1 = a1 | a4\n 32863: a1 = a0 if a3 == 0\n 32866: a0 = u64 [s1 + 0x168]\n 32870: a1 = a0 if a2 == 0\n 32873: u64 [s1 + 0x188] = a1\n 32877: a0 = u64 [s1 + 0x158]\n 32881: a1 = u64 [s1 + 0x1b8]\n 32885: ra = 1076, jump @1479\n      : @1004 [@dyn 538] (gas: 14)\n 32891: a5 = s1 + 0x100\n 32895: a2 = u64 [a5 + 0xa8]\n 32899: a3 = u64 [a5 + 0xa0]\n 32903: a2 = a2 | a3\n 32906: a3 = u64 [a5 + 0xb0]\n 32910: a4 = u64 [a5 + 0x98]\n 32914: a3 = a3 | a4\n 32917: a2 = a2 | a3\n 32920: a3 = u64 [a5 + 0x60]\n 32923: a1 = 0 if a3 == 0\n 32925: u64 [a5 + 0x78] = a1\n 32928: a0 = 0 if a3 == 0\n 32930: u64 [a5 + 0x90] = a0\n 32934: jump @1006 if a2 != 0\n      : @1005 (gas: 3)\n 32937: u64 [s1 + 368] = 0\n 32941: u64 [s1 + 344] = 0\n 32945: jump @1012\n      : @1006 (gas: 5)\n 32948: a0 = u64 [s1 + 0x1b0]\n 32952: a2 = a0 + 0xffffffffffffff80\n 32955: a0 = u64 [s1 + 0x168]\n 32959: a1 = u64 [s1 + 0x170]\n 32963: ra = 1078, jump @1474\n      : @1007 [@dyn 539] (gas: 6)\n 32969: u64 [s1 + 0x160] = a0\n 32973: u64 [s1 + 0x148] = a1\n 32977: a0 = u64 [s1 + 0x158]\n 32981: a1 = u64 [s1 + 0x1b8]\n 32985: a2 = u64 [s1 + 0x1b0]\n 32989: ra = 1080, jump @1474\n      : @1008 [@dyn 540] (gas: 7)\n 32995: u64 [s1 + 0x100] = a0\n 32999: u64 [s1 + 0x150] = a1\n 33003: a1 = u64 [s1 + 0x1b0]\n 33007: a2 = 0x80 - a1\n 33011: a0 = u64 [s1 + 0x168]\n 33015: a1 = u64 [s1 + 0x170]\n 33019: ra = 1082, jump @1479\n      : @1009 [@dyn 541] (gas: 20)\n 33025: a2 = u64 [s1 + 0x150]\n 33029: a1 = a1 | a2\n 33032: a2 = u64 [s1 + 0x1b0]\n 33036: a4 = a2 <u 0x80\n 33040: u64 [s1 + 0x150] = a4\n 33044: a3 = u64 [s1 + 0x148]\n 33048: a1 = a3 if a4 == 0\n 33051: a3 = u64 [s1 + 0x1b8]\n 33055: a3 = a1 if a2 != 0\n 33058: u64 [s1 + 0x1b8] = a3\n 33062: a1 = u64 [s1 + 0x100]\n 33066: a0 = a0 | a1\n 33069: a1 = u64 [s1 + 0x160]\n 33073: a0 = a1 if a4 == 0\n 33076: a1 = u64 [s1 + 0x158]\n 33080: a1 = a0 if a2 != 0\n 33083: u64 [s1 + 0x158] = a1\n 33087: a0 = u64 [s1 + 0x168]\n 33091: a1 = u64 [s1 + 0x170]\n 33095: ra = 1084, jump @1474\n      : @1010 [@dyn 542] (gas: 11)\n 33101: t0 = u64 [s1 + 0x158]\n 33105: u64 [s1 + 368] = 0\n 33109: u64 [s1 + 352] = 0\n 33113: a3 = s1 + 0x100\n 33117: a2 = u64 [a3 + 0x50]\n 33120: a1 = 0 if a2 == 0\n 33122: u64 [a3 + 0x68] = a1\n 33125: a0 = 0 if a2 == 0\n 33127: u64 [a3 + 80] = 0x63\n 33131: u64 [a3 + 72] = 0\n 33134: fallthrough\n      : @1011 (gas: 90)\n 33135: u64 [s1 + 344] = 0\n 33139: a2 = t0 >> 0x3f\n 33142: ra = u64 [s1 + 0x1b8]\n 33146: a3 = ra << 0x1\n 33149: a3 = a3 | a2\n 33152: a2 = t0 << 0x1\n 33155: a1 = u64 [s1 + 0x180]\n 33159: a4 = a1 >> 0x3f\n 33162: t2 = a2 | a4\n 33165: a2 = u64 [s1 + 0x148]\n 33169: a4 = a2 ^ a3\n 33172: t1 = a2 <u a3\n 33175: a5 = u64 [s1 + 0x150]\n 33179: t0 = a5 <u t2\n 33182: t0 = t1 if a4 != 0\n 33185: a5 = u64 [s1 + 0x168]\n 33189: a5 = a5 << 0x1\n 33192: a4 = a0 >> 0x3f\n 33195: a4 = a4 | a5\n 33198: u64 [s1 + 0x168] = a4\n 33202: a4 = ra >> 0x3f\n 33205: a0 = a0 << 0x1\n 33208: a4 = a4 | a0\n 33211: a0 = a1 << 0x1\n 33214: a1 = u64 [s1 + 0x188]\n 33218: a5 = a1 >> 0x3f\n 33221: a0 = a0 | a5\n 33224: u64 [s1 + 0x1b8] = a0\n 33228: a5 = a1 << 0x1\n 33231: a0 = u64 [s1 + 0x178]\n 33235: a1 = a0 >> 0x3f\n 33238: t1 = a5 | a1\n 33241: a5 = a0 << 0x1\n 33244: a0 = u64 [s1 + 0x190]\n 33248: ra = a0 >> 0x3f\n 33251: a5 = a5 | ra\n 33254: a0 = a0 << 0x1\n 33257: a1 = u64 [s1 + 0x170]\n 33261: a0 = a0 | a1\n 33264: u64 [s1 + 0x190] = a0\n 33268: a1 = u64 [s1 + 0x160]\n 33272: a0 = a1 | a5\n 33275: u64 [s1 + 0x178] = a0\n 33279: a0 = a1 | t1\n 33282: u64 [s1 + 0x188] = a0\n 33286: a0 = u64 [s1 + 0x1b8]\n 33290: a0 = a0 | a1\n 33293: u64 [s1 + 0x180] = a0\n 33297: a0 = a2 - a4\n 33300: a0 = a0 <u t0\n 33303: a1 = a2 <u a4\n 33306: t1 = u64 [s1 + 0x168]\n 33310: a5 = a2 - t1\n 33313: a5 = a5 - a1\n 33316: a5 = a5 - a0\n 33319: ra = a5 >>a 0x3f\n 33322: a0 = ra & 0x64\n 33325: t0 = t2 - a0\n 33328: a1 = t2 <u a0\n 33331: a0 = a3 - a1\n 33334: u64 [s1 + 0x1b8] = a0\n 33338: a1 = 0 if a3 != 0\n 33340: a0 = a4 - a1\n 33343: a1 = a4 <u a1\n 33346: a1 = t1 - a1\n 33349: u64 [s1 + 0x168] = a1\n 33353: a1 = s1 + 0x100\n 33357: a3 = u64 [a1 + 0xb0]\n 33361: a5 = u64 [a1 + 0xa8]\n 33365: a2 = a3 | a5\n 33368: a2 = a2 <u 0x1\n 33371: a4 = u64 [a1 + 0x98]\n 33375: t2 = a4 <u a2\n 33378: a4 = a4 - a2\n 33381: a2 = a3 <u 0x1\n 33384: a5 = a5 - a2\n 33387: a2 = u64 [a1 + 0xa0]\n 33391: a2 = a2 - t2\n 33394: a3 = a3 + 0xffffffffffffffff\n 33397: u64 [a1 + 0xa8] = a5\n 33401: u64 [a1 + 0xa0] = a2\n 33405: a2 = a2 | a5\n 33408: u64 [a1 + 0xb0] = a3\n 33412: a3 = a3 | a4\n 33415: a2 = a2 | a3\n 33418: a3 = ra & 0x1\n 33421: u64 [a1 + 0x70] = a3\n 33424: u64 [a1 + 0x98] = a4\n 33428: u64 [s1 + 352] = 0\n 33432: jump @1011 if a2 != 0\n      : @1012 (gas: 26)\n 33436: a2 = u64 [s1 + 0x188]\n 33440: a0 = a2 >> 0x3f\n 33443: a1 = u64 [s1 + 0x180]\n 33447: a1 = a1 << 0x1\n 33450: a0 = a0 | a1\n 33453: a3 = u64 [s1 + 0x178]\n 33457: a1 = a3 >> 0x3f\n 33460: a2 = a2 << 0x1\n 33463: a1 = a1 | a2\n 33466: a4 = u64 [s1 + 0x190]\n 33470: a2 = a4 >> 0x3f\n 33473: a3 = a3 << 0x1\n 33476: a4 = a4 << 0x1\n 33479: a5 = u64 [s1 + 0x170]\n 33483: a4 = a4 | a5\n 33486: a5 = s1 + 0x100\n 33490: u64 [a5 + 0xa0] = a4\n 33494: a4 = u64 [a5 + 0x58]\n 33497: a2 = a2 | a4\n 33500: a2 = a2 | a3\n 33503: u64 [a5 + 0xa8] = a2\n 33507: a1 = a1 | a4\n 33510: u64 [a5 + 0xb0] = a1\n 33514: a0 = a0 | a4\n 33517: u64 [a5 + 0x98] = a0\n 33521: fallthrough\n      : @1013 (gas: 55)\n 33522: a1 = sp + 0xffffffffffffffe0\n 33525: a1 = a1 & 0xffffffffffffffe0\n 33528: sp = a1\n 33530: a0 = u64 [s1 + 0x1a0]\n 33534: a2 = u64 [s1 + 0x140]\n 33538: t1 = a2 <u a0\n 33541: a0 = u64 [s1 + 0x118]\n 33545: t0 = u64 [s1 + 0x1a8]\n 33549: a2 = a0 ^ t0\n 33552: a3 = a0 <u t0\n 33555: u64 [s1 + 0x1a8] = t0\n 33559: a3 = t1 if a2 == 0\n 33562: a2 = u64 [s1 + 0x138]\n 33566: a4 = u64 [s1 + 0x198]\n 33570: t2 = a2 - a4\n 33573: a5 = u64 [s1 + 0xf0]\n 33577: a2 = u64 [s1 + 0x1b0]\n 33581: a4 = a5 <u a2\n 33584: t2 = t2 - a4\n 33587: a4 = a5 - a2\n 33590: a5 = a4 <u a3\n 33593: t2 = t2 - a5\n 33596: ra = a4 - a3\n 33599: a2 = a0 - t0\n 33602: t1 = a2 - t1\n 33605: a2 = u64 [s1 + 0x28]\n 33608: a0 = a2 + 0x5\n 33611: a2 = a0 <u a2\n 33614: a4 = u64 [s1 + 0x30]\n 33617: a3 = a4 + a2\n 33620: a4 = a3 <u a4\n 33623: a4 = a2 if a2 == 0\n 33626: a2 = u64 [s1 + 0x38]\n 33629: a4 = a4 + a2\n 33632: a2 = a4 <u a2\n 33635: a5 = u64 [s1 + 0x40]\n 33638: a2 = a2 + a5\n 33641: a5 = s1 + 0x3958\n 33645: u64 [a5 + 0x6f0] = a3\n 33649: u64 [a5 + 0x6e8] = a0\n 33653: u64 [a5 + 0x6f8] = a4\n 33657: u64 [a5 + 0x700] = a2\n 33661: a0 = u64 [s1 + 0x1a0]\n 33665: a2 = u64 [s1 + 0x140]\n 33669: a0 = a2 - a0\n 33672: u64 [s1 + 0x168] = ra\n 33676: u64 [a1 + 0x10] = ra\n 33679: u64 [s1 + 0x160] = t1\n 33683: u64 [a1 + 0x8] = t1\n 33686: u64 [s1 + 0x158] = a0\n 33690: u64 [a1] = a0\n 33692: u64 [s1 + 0x170] = t2\n 33696: u64 [a1 + 0x18] = t2\n 33699: a0 = s1 + 0x4040\n 33703: ra = 1086, jump @9\n      : @1014 [@dyn 543] (gas: 53)\n 33710: a0 = u64 [s1 + 0xe8]\n 33714: a0 = reverse a0\n 33716: a1 = a0 << 0x20\n 33719: a2 = u64 [s1 + 0x108]\n 33723: a2 = reverse a2\n 33725: a2 = a2 >> 0x20\n 33728: a1 = a1 | a2\n 33731: a2 = u64 [s1 + 0x110]\n 33735: a2 = reverse a2\n 33737: a3 = a2 << 0x20\n 33740: a4 = 0x30160\n 33745: a0 = a0 >> 0x20\n 33748: a0 = a0 | a3\n 33751: a2 = a2 >> 0x20\n 33754: u64 [0x30168] = a0\n 33759: u64 [0x30160] = a1\n 33764: u32 [0x30170] = a2\n 33769: a0 = u64 [s1 + 0x198]\n 33773: a1 = s1 + 0x3958\n 33777: a2 = a1 + 0x700\n 33781: u64 [a2 + 0x20] = a0\n 33784: a0 = u64 [s1 + 0x1b0]\n 33788: u64 [a2 + 0x18] = a0\n 33791: a0 = u64 [s1 + 0x1a8]\n 33795: u64 [a2 + 0x10] = a0\n 33798: a0 = u64 [s1 + 0x1a0]\n 33802: u64 [a2 + 0x8] = a0\n 33805: u32 [a1 + 1832] = 0\n 33809: u64 [a1 + 1888] = 0\n 33813: u64 [a1 + 1880] = 0\n 33817: u64 [a1 + 1872] = 0\n 33821: u64 [a1 + 1864] = 0\n 33825: a0 = a4 << 0x20\n 33828: a0 = a0 >> 0x20\n 33831: a1 = s1 + 0x4060\n 33835: a1 = a1 << 0x20\n 33838: a1 = a1 >> 0x20\n 33841: a2 = s1 + 0x40a0\n 33845: a2 = a2 << 0x20\n 33848: a3 = a2 | a1\n 33851: a4 = u64 [s1 + 0x20]\n 33854: a4 = a4 << 0x20\n 33857: a4 = a4 >> 0x20\n 33860: a1 = s1 + 0x4080\n 33864: a1 = a1 << 0x20\n 33867: a5 = a1 | a4\n 33870: a1 = 0xffffffffffffffff\n 33873: a2 = 0xffffffffffffffff\n 33876: ecalli 0 // 'call'\n 33877: u64 [s1 + 0x178] = a0\n 33881: a0 = s1 + 0x2940\n 33885: a1 = 0x40\n 33888: ra = 1088, jump @2\n      : @1015 [@dyn 544] (gas: 13)\n 33895: a0 = s1 + 0x2958\n 33899: a1 = u64 [a0]\n 33901: a2 = s1 + 0x100\n 33905: u64 [a2 + 0x80] = a1\n 33909: a3 = a0 + 0xffffffffffffff00\n 33913: a1 = u64 [a3 + 0xf8]\n 33917: u64 [a2 + 0x88] = a1\n 33921: a1 = u64 [a3 + 0xf0]\n 33925: u64 [a2 + 0x90] = a1\n 33929: a0 = u64 [a3 + 0xe8]\n 33933: u64 [a2 + 0xb8] = a0\n 33937: a0 = u64 [a2 + 0x78]\n 33940: jump @1026 if a0 != 0\n      : @1016 (gas: 13)\n 33944: a4 = s1 + 0x100\n 33948: a0 = u64 [a4 + 0xb8]\n 33952: a2 = u64 [a4 + 0x88]\n 33956: a0 = a0 | a2\n 33959: a1 = u64 [a4 + 0x90]\n 33963: a3 = u64 [a4 + 0x80]\n 33967: a1 = a1 | a3\n 33970: a0 = a0 | a1\n 33973: a0 = a0 >> 0x20\n 33976: a1 = a1 | a2\n 33979: a1 = a1 << 0x20\n 33982: a0 = a0 | a1\n 33985: jump @1018 if a0 == 0\n      : @1017 (gas: 1)\n 33988: jump @912\n      : @1018 (gas: 13)\n 33991: a0 = s1 + 0x2158\n 33995: a1 = u64 [s1 + 0x1a0]\n 33999: a3 = a0 + 0x700\n 34003: u64 [a3 + 0xc8] = a1\n 34007: a1 = u64 [s1 + 0x1a8]\n 34011: u64 [a3 + 0xd0] = a1\n 34015: a1 = u64 [s1 + 0x1b0]\n 34019: u64 [a3 + 0xd8] = a1\n 34023: a1 = s1 + 0x2920\n 34027: a2 = u64 [s1 + 0x198]\n 34031: u64 [a3 + 0xe0] = a2\n 34035: a0 = u64 [s1 + 0x1b8]\n 34039: ra = 1090, jump @4\n      : @1019 [@dyn 545] (gas: 11)\n 34046: a3 = s1 + 0x100\n 34050: a0 = u64 [a3 + 0x88]\n 34054: a1 = u64 [a3 + 0x80]\n 34058: a0 = a0 | a1\n 34061: a1 = 0xffffffe0\n 34071: a2 = u64 [a3 + 0xb8]\n 34075: a1 = a2 <u a1\n 34078: a2 = u64 [a3 + 0x90]\n 34082: a1 = 0 if a2 != 0\n 34084: a1 = 0 if a0 != 0\n 34086: jump @1021 if a1 != 0\n      : @1020 (gas: 1)\n 34089: jump @912\n      : @1021 (gas: 14)\n 34092: a0 = u64 [s1 + 0x1b8]\n 34096: i32 a0 = a0 + 0x20\n 34099: a3 = s1 + 0x2158\n 34103: a1 = u64 [s1 + 0x158]\n 34107: a4 = a3 + 0x700\n 34111: u64 [a4 + 0xa8] = a1\n 34115: a1 = u64 [s1 + 0x160]\n 34119: u64 [a4 + 0xb0] = a1\n 34123: a1 = u64 [s1 + 0x168]\n 34127: u64 [a4 + 0xb8] = a1\n 34131: a1 = s1 + 0x2900\n 34135: a2 = u64 [s1 + 0x170]\n 34139: u64 [a4 + 0xc0] = a2\n 34143: ra = 1092, jump @4\n      : @1022 [@dyn 546] (gas: 32)\n 34150: a4 = s1 + 0x2158\n 34154: u64 [a4 + 1888] = 0\n 34158: a0 = u64 [s1 + 0x120]\n 34162: a5 = a4 + 0x700\n 34166: u64 [a5 + 0x58] = a0\n 34169: a0 = u64 [s1 + 0x128]\n 34173: u64 [a5 + 0x50] = a0\n 34176: a0 = u64 [s1 + 0x130]\n 34180: u64 [a5 + 0x48] = a0\n 34183: a0 = u64 [s1 + 0x88]\n 34187: u64 [a5 + 0x80] = a0\n 34191: a0 = u64 [s1 + 0x90]\n 34195: u64 [a5 + 0x78] = a0\n 34198: a0 = u64 [s1 + 0x98]\n 34202: u64 [a5 + 0x70] = a0\n 34205: a0 = u64 [0x20038]\n 34210: a1 = u64 [0x20040]\n 34215: a2 = u64 [0x20048]\n 34220: a3 = u64 [s1 + 0xa0]\n 34224: u64 [a5 + 0x68] = a3\n 34227: u64 [a5 + 0xa0] = a0\n 34231: u64 [a5 + 0x98] = a1\n 34235: u64 [a5 + 0x90] = a2\n 34239: a5 = a4\n 34241: a0 = u64 [0x20050]\n 34246: a1 = 0x40\n 34249: a2 = s1 + 0x28e0\n 34253: a3 = s1 + 0x28c0\n 34257: a4 = s1 + 0x28a0\n 34261: u64 [a5 + 0x788] = a0\n 34265: a0 = u64 [s1 + 0x1b8]\n 34269: ra = 1094, jump @12\n      : @1023 [@dyn 547] (gas: 3)\n 34276: a0 = s1 + 0x2880\n 34280: a1 = u64 [s1 + 0x10]\n 34283: ra = 1096, jump @6\n      : @1024 [@dyn 548] (gas: 17)\n 34290: a3 = s1 + 0x2158\n 34294: a4 = a3 + 0x700\n 34298: a0 = u64 [a4 + 0x28]\n 34301: a1 = u64 [a4 + 0x30]\n 34304: a2 = u64 [a4 + 0x40]\n 34307: a3 = u64 [a4 + 0x38]\n 34310: a0 = a0 & 0xffffffffffffff00\n 34314: a0 = a0 | 0x1\n 34317: a4 = s1 + 0x3958\n 34321: a5 = a4 + 0x700\n 34325: u64 [a5 + 0xa0] = a2\n 34329: u64 [a5 + 0x98] = a3\n 34333: u64 [a5 + 0x90] = a1\n 34337: u64 [a5 + 0x88] = a0\n 34341: a1 = s1 + 0x40e0\n 34345: a0 = u64 [s1 + 0x10]\n 34348: ra = 1098, jump @9\n      : @1025 [@dyn 549] (gas: 6)\n 34355: a0 = 0\n 34357: a1 = u64 [s1 + 0xf8]\n 34361: a2 = 0\n 34363: ecalli 11 // 'seal_return'\n 34365: a1 = 0x20160\n 34370: jump @1079\n      : @1026 (gas: 2)\n 34373: ecalli 10 // 'return_data_size'\n 34375: fallthrough\n      : @1027 (gas: 13)\n 34376: a5 = s1 + 0x100\n 34380: a1 = u64 [a5 + 0xb8]\n 34384: a3 = u64 [a5 + 0x88]\n 34388: a1 = a1 | a3\n 34391: a2 = u64 [a5 + 0x90]\n 34395: a4 = u64 [a5 + 0x80]\n 34399: a2 = a2 | a4\n 34402: a1 = a1 | a2\n 34405: a1 = a1 >> 0x20\n 34408: a2 = a2 | a3\n 34411: a2 = a2 << 0x20\n 34414: a1 = a1 | a2\n 34417: jump @1029 if a1 == 0\n      : @1028 (gas: 1)\n 34420: jump @912\n      : @1029 (gas: 2)\n 34423: a1 = a0 >> 0x20\n 34426: jump @1031 if a1 == 0\n      : @1030 (gas: 1)\n 34429: jump @912\n      : @1031 (gas: 6)\n 34432: a1 = a0\n 34434: u64 [s1 + 0x1a8] = a0\n 34438: i32 a0 = a0 + 0\n 34440: u64 [s1 + 0x1b0] = a0\n 34444: a0 = u64 [s1 + 0x1b8]\n 34448: ra = 1100, jump @15\n      : @1032 [@dyn 550] (gas: 11)\n 34455: a1 = s1 + 0x3958\n 34459: a2 = u64 [s1 + 0x1a8]\n 34463: u32 [a1 + 0x768] = a2\n 34467: i32 a0 = a0 + 0\n 34469: a1 = s1 + 0x4000\n 34473: i32 a1 = a1 + 0xc0\n 34477: a2 = 0\n 34479: ecalli 9 // 'return_data_copy'\n 34481: a0 = s1 + 0x3958\n 34485: a0 = i32 [a0 + 0x768]\n 34489: jump @705\n      : @1033 (gas: 4)\n 34492: a1 = 0x20160\n 34497: i32 a1 = a1 + 0\n 34499: a0 = 0x1\n 34502: jump @1080\n      : @1034 (gas: 4)\n 34505: a1 = 0x20160\n 34510: i32 a1 = a1 + 0\n 34512: a0 = 0x1\n 34515: jump @1080\n      : @1035 (gas: 4)\n 34518: a1 = 0x20160\n 34523: i32 a1 = a1 + 0\n 34525: a0 = 0x1\n 34528: jump @1080\n      : @1036 (gas: 10)\n 34531: a0 = s1 + 0x1140\n 34535: u64 [a0 + 752] = 0\n 34539: u64 [a0 + 744] = 0\n 34543: u64 [a0 + 736] = 0\n 34547: a2 = s1 + 0x1140\n 34551: a0 = 0x4e487b7100000000\n 34561: a1 = s1 + 0x1420\n 34565: u64 [a2 + 0x2f8] = a0\n 34569: a0 = 0\n 34571: ra = 1102, jump @4\n      : @1037 [@dyn 551] (gas: 3)\n 34578: t0 = 0x450\n 34582: a1 = s1 + 0x1140\n 34586: fallthrough\n      : @1038 [@dyn 552] (gas: 9)\n 34587: u64 [a1 + 728] = 0\n 34591: u64 [a1 + 720] = 0\n 34595: u64 [a1 + 704] = 0x21\n 34600: a2 = s1 + 0x1140\n 34604: a0 = 0x4\n 34607: a1 = s1 + 0x1400\n 34611: u64 [a2 + 712] = 0\n 34615: ra = 0x48a\n 34619: jump @4\n      : @1039 (gas: 4)\n 34623: a1 = 0x20160\n 34628: i32 a1 = a1 + 0\n 34630: a0 = 0x1\n 34633: jump @1080\n      : @1040 (gas: 4)\n 34636: a1 = 0x20160\n 34641: i32 a1 = a1 + 0\n 34643: a0 = 0x1\n 34646: jump @1080\n      : @1041 (gas: 4)\n 34649: a1 = 0x20160\n 34654: i32 a1 = a1 + 0\n 34656: a0 = 0x1\n 34659: jump @1080\n      : @1042 (gas: 4)\n 34662: a1 = 0x20160\n 34667: i32 a1 = a1 + 0\n 34669: a0 = 0x1\n 34672: jump @1080\n      : @1043 (gas: 4)\n 34675: a1 = 0x20160\n 34680: i32 a1 = a1 + 0\n 34682: a0 = 0x1\n 34685: jump @1080\n      : @1044 (gas: 4)\n 34688: a1 = 0x20160\n 34693: i32 a1 = a1 + 0\n 34695: a0 = 0x1\n 34698: jump @1080\n      : @1045 (gas: 9)\n 34701: a0 = s1 + 0x1958\n 34705: u64 [a0 + 1752] = 0\n 34709: u64 [a0 + 1744] = 0\n 34713: u64 [a0 + 1736] = 0\n 34717: a2 = a0\n 34719: t0 = 0x452\n 34723: a0 = 0x4e487b7100000000\n 34733: a1 = 0x2000\n 34737: fallthrough\n      : @1046 [@dyn 553] (gas: 5)\n 34738: i32 a1 = a1 + 0x20\n 34741: a1 = a1 + s1\n 34744: u64 [a2 + 0x6e0] = a0\n 34748: a0 = 0\n 34750: ra = 1108, jump @4\n      : @1047 [@dyn 554] (gas: 3)\n 34757: t0 = 0x456\n 34761: a1 = s1 + 0x1958\n 34765: fallthrough\n      : @1048 [@dyn 555] (gas: 8)\n 34766: u64 [a1 + 1728] = 0\n 34770: u64 [a1 + 1720] = 0\n 34774: u64 [a1 + 1704] = 0x21\n 34779: a2 = a1\n 34781: a0 = 0x4\n 34784: a1 = s1 + 0x2000\n 34788: u64 [a2 + 1712] = 0\n 34792: ra = 1112, jump @4\n      : @1049 [@dyn 556] (gas: 3)\n 34799: a0 = u64 [s1 + 0xf8]\n 34803: a0 = i32 [a0]\n 34805: jump @1051 if a0 >u 63\n      : @1050 (gas: 3)\n 34809: a1 = u64 [s1 + 0xf8]\n 34813: u32 [a1 + 0] = 0x40\n 34816: fallthrough\n      : @1051 (gas: 5)\n 34817: a0 = 0x1\n 34820: a2 = 0x24\n 34823: a1 = u64 [s1 + 0x100]\n 34827: ecalli 11 // 'seal_return'\n 34829: fallthrough\n      : @1052 (gas: 4)\n 34830: a1 = 0x20160\n 34835: i32 a1 = a1 + 0\n 34837: a0 = 0x1\n 34840: jump @1080\n      : @1053 (gas: 4)\n 34843: a1 = 0x20160\n 34848: i32 a1 = a1 + 0\n 34850: a0 = 0x1\n 34853: jump @1080\n      : @1054 (gas: 4)\n 34856: a1 = 0x20160\n 34861: i32 a1 = a1 + 0\n 34863: a0 = 0x1\n 34866: jump @1080\n      : @1055 (gas: 4)\n 34869: a1 = 0x20160\n 34874: i32 a1 = a1 + 0\n 34876: a0 = 0x1\n 34879: jump @1080\n      : @1056 (gas: 4)\n 34882: a1 = 0x20160\n 34887: i32 a1 = a1 + 0\n 34889: a0 = 0x1\n 34892: jump @1080\n      : @1057 (gas: 4)\n 34895: a1 = 0x20160\n 34900: i32 a1 = a1 + 0\n 34902: a0 = 0x1\n 34905: jump @1080\n      : @1058 (gas: 4)\n 34908: a1 = 0x20160\n 34913: i32 a1 = a1 + 0\n 34915: a0 = 0x1\n 34918: jump @1080\n      : @1059 (gas: 4)\n 34921: a1 = 0x20160\n 34926: i32 a1 = a1 + 0\n 34928: a0 = 0x1\n 34931: jump @1080\n      : @1060 (gas: 4)\n 34934: a1 = 0x20160\n 34939: i32 a1 = a1 + 0\n 34941: a0 = 0x1\n 34944: jump @1080\n      : @1061 (gas: 4)\n 34947: a1 = 0x20160\n 34952: i32 a1 = a1 + 0\n 34954: a0 = 0x1\n 34957: jump @1080\n      : @1062 (gas: 4)\n 34960: a1 = 0x20160\n 34965: i32 a1 = a1 + 0\n 34967: a0 = 0x1\n 34970: jump @1080\n      : @1063 (gas: 4)\n 34973: a1 = 0x20160\n 34978: i32 a1 = a1 + 0\n 34980: a0 = 0x1\n 34983: jump @1080\n      : @1064 (gas: 4)\n 34986: a1 = 0x20160\n 34991: i32 a1 = a1 + 0\n 34993: a0 = 0x1\n 34996: jump @1080\n      : @1065 (gas: 4)\n 34999: a1 = 0x20160\n 35004: i32 a1 = a1 + 0\n 35006: a0 = 0x1\n 35009: jump @1080\n      : @1066 (gas: 4)\n 35012: a1 = 0x20160\n 35017: i32 a1 = a1 + 0\n 35019: a0 = 0x1\n 35022: jump @1080\n      : @1067 (gas: 4)\n 35025: a1 = 0x20160\n 35030: i32 a1 = a1 + 0\n 35032: a0 = 0x1\n 35035: jump @1080\n      : @1068 (gas: 4)\n 35038: a1 = 0x20160\n 35043: i32 a1 = a1 + 0\n 35045: a0 = 0x1\n 35048: jump @1080\n      : @1069 (gas: 4)\n 35051: a1 = 0x20160\n 35056: i32 a1 = a1 + 0\n 35058: a0 = 0x1\n 35061: jump @1080\n      : @1070 (gas: 4)\n 35064: a1 = 0x20160\n 35069: i32 a1 = a1 + 0\n 35071: a0 = 0x1\n 35074: jump @1080\n      : @1071 (gas: 4)\n 35077: a1 = 0x20160\n 35082: i32 a1 = a1 + 0\n 35084: a0 = 0x1\n 35087: jump @1080\n      : @1072 (gas: 4)\n 35090: a1 = 0x20160\n 35095: i32 a1 = a1 + 0\n 35097: a0 = 0x1\n 35100: jump @1080\n      : @1073 (gas: 6)\n 35103: a0 = 0x1\n 35106: a1 = u64 [s1 + 0x170]\n 35110: a2 = 0\n 35112: ecalli 11 // 'seal_return'\n 35114: a1 = 0x20160\n 35119: jump @1079\n      : @1074 (gas: 1)\n 35121: jump @1078 if a0 != 293231504\n      : @1075 (gas: 9)\n 35128: u64 [a3 + 256] = 0\n 35132: u64 [a3 + 248] = 0\n 35136: u64 [a3 + 240] = 0\n 35140: u64 [a3 + 232] = 0\n 35144: a0 = s1 + 0x3000\n 35148: i32 a0 = a0 + 0x240\n 35152: ra = 0x45a\n 35156: ecalli 14 // 'value_transferred'\n 35158: fallthrough\n      : @1076 [@dyn 557] (gas: 9)\n 35159: a3 = s1 + 0x3158\n 35163: a0 = u64 [a3 + 0xf8]\n 35167: a1 = u64 [a3 + 0x100]\n 35171: a2 = u64 [a3 + 0xf0]\n 35175: a3 = u64 [a3 + 0xe8]\n 35179: a1 = a1 | a2\n 35182: a0 = a0 | a3\n 35185: a0 = a0 | a1\n 35188: jump @1134 if a0 == 0\n      : @1077 (gas: 4)\n 35192: a1 = 0x20160\n 35197: i32 a1 = a1 + 0\n 35199: a0 = 0x1\n 35202: jump @1080\n      : @1078 (gas: 4)\n 35204: a1 = 0x20160\n 35209: i32 a1 = a1 + 0\n 35211: a0 = 0x1\n 35214: jump @1080\n      : @1079 (gas: 6)\n 35216: i32 a1 = a1 + 0\n 35218: a0 = 0x1\n 35221: a2 = 0\n 35223: ecalli 11 // 'seal_return'\n 35225: a1 = 0x20160\n 35230: jump @1079\n      : @1080 (gas: 4)\n 35232: a2 = 0\n 35234: ecalli 11 // 'seal_return'\n 35236: a1 = 0x20160\n 35241: jump @1079\n      : @1081 (gas: 2)\n 35243: a1 = 0x20160\n 35248: jump @1079\n      : @1082 (gas: 10)\n 35250: a0 = s1 + 0x7ff\n 35254: a0 = a0 + 0x139\n 35258: u64 [a0 + 216] = 0\n 35262: u64 [a0 + 208] = 0\n 35266: u64 [a0 + 200] = 0\n 35270: a2 = a0\n 35272: t0 = 0x45c\n 35276: a0 = 0x4e487b7100000000\n 35286: a1 = s1 + 0x7ff\n 35290: fallthrough\n      : @1083 [@dyn 558] (gas: 4)\n 35291: a1 = a1 + 0x201\n 35295: u64 [a2 + 0xe0] = a0\n 35299: a0 = 0\n 35301: ra = 1118, jump @4\n      : @1084 [@dyn 559] (gas: 11)\n 35308: a1 = s1 + 0x7ff\n 35312: a1 = a1 + 0x139\n 35316: u64 [a1 + 192] = 0\n 35320: u64 [a1 + 184] = 0\n 35324: u64 [a1 + 168] = 0x11\n 35329: a2 = a1\n 35331: a0 = 0x4\n 35334: a1 = s1 + 0x7ff\n 35338: a1 = a1 + 0x1e1\n 35342: u64 [a2 + 176] = 0\n 35346: ra = 1120, jump @4\n      : @1085 [@dyn 560] (gas: 2)\n 35353: a1 = i32 [0x20154]\n 35358: jump @1087 if a1 >u 63\n      : @1086 (gas: 3)\n 35362: u32 [0x20154] = 0x40\n 35368: a1 = 0x20160\n 35373: jump @1094\n      : @1087 (gas: 2)\n 35376: a1 = 0x20160\n 35381: jump @1094\n      : @1088 (gas: 10)\n 35384: a0 = s1 + 0x7ff\n 35388: a0 = a0 + 0x139\n 35392: u64 [a0 + 280] = 0\n 35396: u64 [a0 + 272] = 0\n 35400: u64 [a0 + 264] = 0\n 35404: a2 = a0\n 35406: t0 = 0x462\n 35410: a0 = 0x4e487b7100000000\n 35420: a1 = s1 + 0x7ff\n 35424: fallthrough\n      : @1089 [@dyn 561] (gas: 4)\n 35425: a1 = a1 + 0x241\n 35429: u64 [a2 + 0x120] = a0\n 35433: a0 = 0\n 35435: ra = 1124, jump @4\n      : @1090 [@dyn 562] (gas: 11)\n 35442: a1 = s1 + 0x7ff\n 35446: a1 = a1 + 0x139\n 35450: u64 [a1 + 256] = 0\n 35454: u64 [a1 + 248] = 0\n 35458: u64 [a1 + 232] = 0x11\n 35463: a2 = a1\n 35465: a0 = 0x4\n 35468: a1 = s1 + 0x7ff\n 35472: a1 = a1 + 0x221\n 35476: u64 [a2 + 240] = 0\n 35480: ra = 1126, jump @4\n      : @1091 [@dyn 563] (gas: 2)\n 35487: a1 = i32 [0x20154]\n 35492: jump @1093 if a1 >u 63\n      : @1092 (gas: 3)\n 35496: u32 [0x20154] = 0x40\n 35502: a1 = 0x20160\n 35507: jump @1094\n      : @1093 (gas: 2)\n 35509: a1 = 0x20160\n 35514: fallthrough\n      : @1094 (gas: 5)\n 35515: i32 a1 = a1 + 0\n 35517: a0 = 0x1\n 35520: a2 = 0x24\n 35523: ecalli 11 // 'seal_return'\n 35525: fallthrough\n      : @1095 (gas: 7)\n 35526: u64 [a2 + 472] = 0\n 35530: u64 [a2 + 464] = 0\n 35534: u64 [a2 + 456] = 0\n 35538: t0 = 0x468\n 35542: a0 = 0x4e487b7100000000\n 35552: a1 = 0x2000\n 35556: fallthrough\n      : @1096 [@dyn 564] (gas: 5)\n 35557: i32 a1 = a1 + 0xfffffffffffffb20\n 35561: a1 = a1 + s1\n 35564: u64 [a2 + 0x1e0] = a0\n 35568: a0 = 0\n 35570: ra = 1130, jump @4\n      : @1097 [@dyn 565] (gas: 3)\n 35577: t0 = 0x46c\n 35581: a1 = s1 + 0x1958\n 35585: fallthrough\n      : @1098 [@dyn 566] (gas: 9)\n 35586: u64 [a1 + 448] = 0\n 35590: u64 [a1 + 440] = 0\n 35594: u64 [a1 + 424] = 0x21\n 35599: a2 = a1\n 35601: a0 = 0x4\n 35604: a1 = s1 + 0x1b00\n 35608: u64 [a2 + 432] = 0\n 35612: ra = 0x48a\n 35616: jump @4\n      : @1099 (gas: 7)\n 35620: u64 [a2 + 1688] = 0\n 35624: u64 [a2 + 1680] = 0\n 35628: u64 [a2 + 1672] = 0\n 35632: t0 = 0x46e\n 35636: a0 = 0x4e487b7100000000\n 35646: a1 = s1 + 0x7ff\n 35650: fallthrough\n      : @1100 [@dyn 567] (gas: 4)\n 35651: a1 = a1 + 0x7c1\n 35655: u64 [a2 + 0x6a0] = a0\n 35659: a0 = 0\n 35661: ra = 1136, jump @4\n      : @1101 [@dyn 568] (gas: 11)\n 35668: a1 = s1 + 0x7ff\n 35672: a1 = a1 + 0x139\n 35676: u64 [a1 + 1664] = 0\n 35680: u64 [a1 + 1656] = 0\n 35684: u64 [a1 + 1640] = 0x21\n 35689: a2 = a1\n 35691: a0 = 0x4\n 35694: a1 = s1 + 0x7ff\n 35698: a1 = a1 + 0x7a1\n 35702: u64 [a2 + 1648] = 0\n 35706: ra = 1138, jump @4\n      : @1102 [@dyn 569] (gas: 3)\n 35713: a0 = u64 [s1 + 0x190]\n 35717: a0 = i32 [a0]\n 35719: jump @1104 if a0 >u 63\n      : @1103 (gas: 3)\n 35723: a1 = u64 [s1 + 0x190]\n 35727: u32 [a1 + 0] = 0x40\n 35730: fallthrough\n      : @1104 (gas: 5)\n 35731: a0 = 0x1\n 35734: a2 = 0x24\n 35737: a1 = u64 [s1 + 0x188]\n 35741: ecalli 11 // 'seal_return'\n 35743: fallthrough\n      : @1105 (gas: 9)\n 35744: a0 = s1 + 0x2158\n 35748: u64 [a0 + 1176] = 0\n 35752: u64 [a0 + 1168] = 0\n 35756: u64 [a0 + 1160] = 0\n 35760: a2 = a0\n 35762: t0 = 0x474\n 35766: a0 = 0x4e487b7100000000\n 35776: a1 = 0x2000\n 35780: fallthrough\n      : @1106 [@dyn 570] (gas: 5)\n 35781: i32 a1 = a1 + 0x5e0\n 35785: a1 = a1 + s1\n 35788: u64 [a2 + 0x4a0] = a0\n 35792: a0 = 0\n 35794: ra = 1142, jump @4\n      : @1107 [@dyn 571] (gas: 3)\n 35801: t0 = 0x478\n 35805: a1 = s1 + 0x2158\n 35809: fallthrough\n      : @1108 [@dyn 572] (gas: 9)\n 35810: u64 [a1 + 1152] = 0\n 35814: u64 [a1 + 1144] = 0\n 35818: u64 [a1 + 1128] = 0x21\n 35823: a2 = a1\n 35825: a0 = 0x4\n 35828: a1 = s1 + 0x25c0\n 35832: u64 [a2 + 1136] = 0\n 35836: ra = 0x492\n 35840: jump @4\n      : @1109 (gas: 2)\n 35844: a1 = i32 [s1 + 0x1b8]\n 35848: jump @1080\n      : @1110 (gas: 10)\n 35851: a0 = s1 + 0x7ff\n 35855: a0 = a0 + 0x139\n 35859: u64 [a0 + 344] = 0\n 35863: u64 [a0 + 336] = 0\n 35867: u64 [a0 + 328] = 0\n 35871: a2 = a0\n 35873: t0 = 0x47a\n 35877: a0 = 0x4e487b7100000000\n 35887: a1 = s1 + 0x7ff\n 35891: fallthrough\n      : @1111 [@dyn 573] (gas: 4)\n 35892: a1 = a1 + 0x281\n 35896: u64 [a2 + 0x160] = a0\n 35900: a0 = 0\n 35902: ra = 1148, jump @4\n      : @1112 [@dyn 574] (gas: 11)\n 35909: a1 = s1 + 0x7ff\n 35913: a1 = a1 + 0x139\n 35917: u64 [a1 + 320] = 0\n 35921: u64 [a1 + 312] = 0\n 35925: u64 [a1 + 296] = 0x21\n 35930: a2 = a1\n 35932: a0 = 0x4\n 35935: a1 = s1 + 0x7ff\n 35939: a1 = a1 + 0x261\n 35943: u64 [a2 + 304] = 0\n 35947: ra = 1150, jump @4\n      : @1113 [@dyn 575] (gas: 3)\n 35954: a0 = u64 [s1 + 0xf8]\n 35958: a0 = i32 [a0]\n 35960: jump @1115 if a0 >u 63\n      : @1114 (gas: 3)\n 35964: a1 = u64 [s1 + 0xf8]\n 35968: u32 [a1 + 0] = 0x40\n 35971: fallthrough\n      : @1115 (gas: 5)\n 35972: a0 = 0x1\n 35975: a2 = 0x24\n 35978: a1 = u64 [s1 + 0xf0]\n 35982: ecalli 11 // 'seal_return'\n 35984: fallthrough\n      : @1116 (gas: 9)\n 35985: a0 = s1 + 0x1140\n 35989: u64 [a0 + 1936] = 0\n 35993: u64 [a0 + 1928] = 0\n 35997: u64 [a0 + 1920] = 0\n 36001: a2 = s1 + 0x1140\n 36005: t0 = 0x480\n 36009: a0 = 0x4e487b7100000000\n 36019: a1 = 0x2000\n 36023: fallthrough\n      : @1117 [@dyn 576] (gas: 5)\n 36024: i32 a1 = a1 + 0xfffffffffffff8c0\n 36028: a1 = a1 + s1\n 36031: u64 [a2 + 0x798] = a0\n 36035: a0 = 0\n 36037: ra = 1154, jump @4\n      : @1118 [@dyn 577] (gas: 3)\n 36044: t0 = 0x484\n 36048: a1 = s1 + 0x1140\n 36052: fallthrough\n      : @1119 [@dyn 578] (gas: 9)\n 36053: u64 [a1 + 1912] = 0\n 36057: u64 [a1 + 1904] = 0\n 36061: u64 [a1 + 1888] = 0x21\n 36066: a2 = s1 + 0x1140\n 36070: a0 = 0x4\n 36073: a1 = s1 + 0x18a0\n 36077: u64 [a2 + 1896] = 0\n 36081: ra = 0x48a\n 36085: jump @4\n      : @1120 (gas: 8)\n 36089: u64 [a3 + 1008] = 0\n 36093: u64 [a3 + 1000] = 0\n 36097: u64 [a3 + 992] = 0\n 36101: a0 = 0x4e487b7100000000\n 36111: a1 = s1 + 0x1520\n 36115: u64 [a3 + 0x3f8] = a0\n 36119: a0 = 0\n 36121: ra = 1158, jump @4\n      : @1121 [@dyn 579] (gas: 3)\n 36128: t0 = 0x488\n 36132: a1 = s1 + 0x1140\n 36136: fallthrough\n      : @1122 [@dyn 580] (gas: 8)\n 36137: u64 [a1 + 984] = 0\n 36141: u64 [a1 + 976] = 0\n 36145: u64 [a1 + 960] = 0x41\n 36150: a2 = s1 + 0x1140\n 36154: a0 = 0x4\n 36157: a1 = s1 + 0x1500\n 36161: u64 [a2 + 968] = 0\n 36165: ra = 1162, jump @4\n      : @1123 [@dyn 581] (gas: 3)\n 36172: a0 = u64 [s1 + 0x190]\n 36176: a0 = i32 [a0]\n 36178: jump @1125 if a0 >u 63\n      : @1124 (gas: 3)\n 36182: a1 = u64 [s1 + 0x190]\n 36186: u32 [a1 + 0] = 0x40\n 36189: fallthrough\n      : @1125 (gas: 7)\n 36190: a0 = 0x1\n 36193: a2 = 0x24\n 36196: a1 = u64 [s1 + 0x198]\n 36200: ecalli 11 // 'seal_return'\n 36202: u64 [s1 + 0x1b8] = a1\n 36206: ra = 0x48c\n 36210: jump @15\n      : @1126 (gas: 2)\n 36214: u64 [s1 + 0x1b8] = a1\n 36218: ra = 1164, jump @15\n      : @1127 [@dyn 582] (gas: 5)\n 36225: i32 a1 = a0 + 0\n 36227: a2 = i32 [s1 + 0x1b8]\n 36231: a0 = 0\n 36233: ecalli 11 // 'seal_return'\n 36235: jump @556\n      : @1128 (gas: 10)\n 36238: a0 = s1 + 0x2958\n 36242: u64 [a0 + 56] = 0\n 36245: u64 [a0 + 48] = 0\n 36248: u64 [a0 + 40] = 0\n 36251: a2 = a0\n 36253: a0 = 0x4e487b7100000000\n 36263: a1 = s1 + 0x2980\n 36267: u64 [a2 + 0x40] = a0\n 36270: a0 = 0\n 36272: ra = 1166, jump @4\n      : @1129 [@dyn 583] (gas: 3)\n 36279: t0 = 0x490\n 36283: a1 = s1 + 0x2958\n 36287: fallthrough\n      : @1130 [@dyn 584] (gas: 8)\n 36288: u64 [a1 + 32] = 0\n 36291: u64 [a1 + 24] = 0\n 36294: u64 [a1 + 8] = 0x11\n 36298: a2 = a1\n 36300: a0 = 0x4\n 36303: a1 = s1 + 0x2960\n 36307: u64 [a2 + 16] = 0\n 36310: ra = 1170, jump @4\n      : @1131 [@dyn 585] (gas: 3)\n 36317: a0 = u64 [s1 + 0x100]\n 36321: a0 = i32 [a0]\n 36323: jump @1133 if a0 >u 63\n      : @1132 (gas: 3)\n 36327: a1 = u64 [s1 + 0x100]\n 36331: u32 [a1 + 0] = 0x40\n 36334: fallthrough\n      : @1133 (gas: 7)\n 36335: a0 = 0x1\n 36338: a2 = 0x24\n 36341: a1 = u64 [s1 + 0xf8]\n 36345: ra = 0x494\n 36349: ecalli 11 // 'seal_return'\n 36351: t0 = 0x496\n 36355: jump @1471\n      : @1134 [@dyn 586] (gas: 1)\n 36358: t0 = 1174, jump @1471\n      : @1135 [@dyn 587] (gas: 1)\n 36364: jump @1137 if a1 <u a0\n      : @1136 (gas: 2)\n 36367: a1 = 0x20160\n 36372: jump @1079\n      : @1137 (gas: 17)\n 36375: a0 = s1 + 0x3000\n 36379: i32 a0 = a0 + 0x260\n 36383: a1 = 0x4\n 36386: ecalli 2 // 'call_data_load'\n 36388: a3 = s1 + 0x3158\n 36392: a4 = a3 + 0x100\n 36396: a0 = u64 [a4 + 0x8]\n 36399: a1 = u64 [a4 + 0x10]\n 36402: a2 = u64 [a4 + 0x18]\n 36405: a3 = u64 [a4 + 0x20]\n 36408: u64 [s1 + 0x478] = a3\n 36412: u64 [s1 + 0x470] = a2\n 36416: u64 [s1 + 0x468] = a1\n 36420: a1 = s1 + 0x460\n 36424: u64 [s1 + 0x460] = a0\n 36428: a0 = 0\n 36430: ra = 1176, jump @4\n      : @1138 [@dyn 588] (gas: 7)\n 36437: u64 [s1 + 1112] = 0\n 36441: u64 [s1 + 1104] = 0\n 36445: u64 [s1 + 1088] = 0x2\n 36450: a0 = 0x20\n 36453: a1 = s1 + 0x440\n 36457: u64 [s1 + 1096] = 0\n 36461: ra = 1178, jump @4\n      : @1139 [@dyn 589] (gas: 9)\n 36468: a0 = sp + 0xffffffffffffffe0\n 36471: a0 = a0 & 0xffffffffffffffe0\n 36474: u64 [s1 + 0x190] = a0\n 36478: sp = a0\n 36480: a0 = 0x20154\n 36485: u64 [s1 + 0x198] = a0\n 36489: a0 = i32 [0x20154]\n 36494: a1 = 0x3f\n 36497: jump @1141 if a1 <u a0\n      : @1140 (gas: 4)\n 36500: a1 = u64 [s1 + 0x198]\n 36504: u32 [a1 + 0] = 0x40\n 36507: t0 = 0x49c\n 36511: jump @1459\n      : @1141 (gas: 1)\n 36514: t0 = 1180, jump @1459\n      : @1142 [@dyn 590] (gas: 9)\n 36520: a0 = 0x20160\n 36525: u64 [s1 + 0x188] = a0\n 36529: i32 a0 = a0 + 0\n 36531: i32 a2 = a2 + 0\n 36533: a1 = 0x40\n 36536: ra = 0x49e\n 36540: ecalli 7 // 'hash_keccak_256'\n 36542: t0 = 0x4a0\n 36546: jump @1425\n      : @1143 [@dyn 591] (gas: 1)\n 36549: t0 = 1184, jump @1425\n      : @1144 [@dyn 592] (gas: 2)\n 36555: a0 = s1 + 0x420\n 36559: ra = 1186, jump @6\n      : @1145 [@dyn 593] (gas: 9)\n 36566: a0 = u64 [s1 + 0x420]\n 36570: u64 [s1 + 0x180] = a0\n 36574: a0 = u64 [s1 + 0x428]\n 36578: u64 [s1 + 0x178] = a0\n 36582: a0 = u64 [s1 + 0x430]\n 36586: u64 [s1 + 0x170] = a0\n 36590: a0 = u64 [s1 + 0x438]\n 36594: u64 [s1 + 0x168] = a0\n 36598: t0 = 1188, jump @1462\n      : @1146 [@dyn 594] (gas: 15)\n 36604: a3 = a2 + 0x100\n 36608: u64 [a3 + 0x30] = a1\n 36611: a1 = a1 | a0\n 36614: u64 [a3 + 0x28] = a0\n 36617: a0 = a1 <u 0x1\n 36620: a1 = u64 [s1 + 0x1a0]\n 36624: a0 = a0 + a1\n 36627: u64 [a3 + 0x38] = a0\n 36630: a0 = a0 <u a1\n 36633: a1 = u64 [s1 + 0x1b8]\n 36637: a0 = a0 + a1\n 36640: u64 [a3 + 0x40] = a0\n 36643: a0 = s1 + 0x400\n 36647: a1 = s1 + 0x3280\n 36651: ra = 1190, jump @6\n      : @1147 [@dyn 595] (gas: 12)\n 36658: a1 = s1 + 0x400\n 36662: a0 = u64 [a1]\n 36664: u64 [s1 + 0x160] = a0\n 36668: a0 = u64 [a1 + 0x8]\n 36671: u64 [s1 + 0x158] = a0\n 36675: a0 = u64 [a1 + 0x10]\n 36678: u64 [s1 + 0x150] = a0\n 36682: a0 = u64 [a1 + 0x18]\n 36685: u64 [s1 + 0x148] = a0\n 36689: a1 = u64 [s1 + 0x1a8]\n 36693: a0 = a1 + 0x2\n 36696: t0 = 1192, jump @1414\n      : @1148 [@dyn 596] (gas: 7)\n 36702: u64 [a5 + 0x60] = a1\n 36705: u64 [a5 + 0x58] = a3\n 36708: u64 [a5 + 0x50] = a2\n 36711: u64 [a5 + 0x48] = a0\n 36714: a0 = s1 + 0x3e0\n 36718: a1 = s1 + 0x32a0\n 36722: ra = 1194, jump @6\n      : @1149 [@dyn 597] (gas: 11)\n 36729: a0 = u64 [s1 + 0x3e0]\n 36733: u64 [s1 + 0x140] = a0\n 36737: a0 = u64 [s1 + 0x3e8]\n 36741: u64 [s1 + 0x138] = a0\n 36745: a0 = u64 [s1 + 0x3f0]\n 36749: u64 [s1 + 0x130] = a0\n 36753: a0 = u64 [s1 + 0x3f8]\n 36757: u64 [s1 + 0x128] = a0\n 36761: a1 = u64 [s1 + 0x1a8]\n 36765: a0 = a1 + 0x3\n 36768: t0 = 1196, jump @1414\n      : @1150 [@dyn 598] (gas: 7)\n 36774: u64 [a5 + 0x80] = a1\n 36778: u64 [a5 + 0x78] = a3\n 36781: u64 [a5 + 0x70] = a2\n 36784: u64 [a5 + 0x68] = a0\n 36787: a0 = s1 + 0x3c0\n 36791: a1 = s1 + 0x32c0\n 36795: ra = 1198, jump @6\n      : @1151 [@dyn 599] (gas: 11)\n 36802: a0 = u64 [s1 + 0x3c0]\n 36806: u64 [s1 + 0x120] = a0\n 36810: a0 = u64 [s1 + 0x3c8]\n 36814: u64 [s1 + 0x118] = a0\n 36818: a0 = u64 [s1 + 0x3d0]\n 36822: u64 [s1 + 0x110] = a0\n 36826: a0 = u64 [s1 + 0x3d8]\n 36830: u64 [s1 + 0x108] = a0\n 36834: a1 = u64 [s1 + 0x1a8]\n 36838: a0 = a1 + 0x4\n 36841: t0 = 1200, jump @1414\n      : @1152 [@dyn 600] (gas: 7)\n 36847: u64 [a5 + 0xa0] = a1\n 36851: u64 [a5 + 0x98] = a3\n 36855: u64 [a5 + 0x90] = a2\n 36859: u64 [a5 + 0x88] = a0\n 36863: a0 = s1 + 0x3a0\n 36867: a1 = s1 + 0x32e0\n 36871: ra = 1202, jump @6\n      : @1153 [@dyn 601] (gas: 11)\n 36878: a0 = u64 [s1 + 0x3a0]\n 36882: u64 [s1 + 0x100] = a0\n 36886: a0 = u64 [s1 + 0x3a8]\n 36890: u64 [s1 + 0xf8] = a0\n 36894: a0 = u64 [s1 + 0x3b0]\n 36898: u64 [s1 + 0xf0] = a0\n 36902: a0 = u64 [s1 + 0x3b8]\n 36906: u64 [s1 + 0xe8] = a0\n 36910: a1 = u64 [s1 + 0x1a8]\n 36914: a0 = a1 + 0x5\n 36917: t0 = 1204, jump @1414\n      : @1154 [@dyn 602] (gas: 7)\n 36923: u64 [a5 + 0xc0] = a1\n 36927: u64 [a5 + 0xb8] = a3\n 36931: u64 [a5 + 0xb0] = a2\n 36935: u64 [a5 + 0xa8] = a0\n 36939: a0 = s1 + 0x380\n 36943: a1 = s1 + 0x3300\n 36947: ra = 1206, jump @6\n      : @1155 [@dyn 603] (gas: 11)\n 36954: a0 = u64 [s1 + 0x380]\n 36958: u64 [s1 + 0xe0] = a0\n 36962: a0 = u64 [s1 + 0x388]\n 36966: u64 [s1 + 0xd0] = a0\n 36970: a0 = u64 [s1 + 0x390]\n 36974: u64 [s1 + 0xc0] = a0\n 36978: a0 = u64 [s1 + 0x398]\n 36982: u64 [s1 + 0xb0] = a0\n 36986: a1 = u64 [s1 + 0x1a8]\n 36990: a0 = a1 + 0x6\n 36993: t0 = 1208, jump @1414\n      : @1156 [@dyn 604] (gas: 7)\n 36999: u64 [a5 + 0xe0] = a1\n 37003: u64 [a5 + 0xd8] = a3\n 37007: u64 [a5 + 0xd0] = a2\n 37011: u64 [a5 + 0xc8] = a0\n 37015: a0 = s1 + 0x360\n 37019: a1 = s1 + 0x3320\n 37023: ra = 1210, jump @6\n      : @1157 [@dyn 605] (gas: 27)\n 37030: a0 = u64 [s1 + 0x360]\n 37034: u64 [s1 + 0xb8] = a0\n 37038: a0 = u64 [s1 + 0x368]\n 37042: u64 [s1 + 0xa8] = a0\n 37046: a0 = u64 [s1 + 0x370]\n 37050: u64 [s1 + 0x190] = a0\n 37054: a1 = u64 [s1 + 0x1a8]\n 37058: a0 = a1 + 0x7\n 37061: a1 = a0 <u a1\n 37064: a3 = u64 [s1 + 0x1b0]\n 37068: a2 = a3 + a1\n 37071: a3 = a2 <u a3\n 37074: a3 = a1 if a1 == 0\n 37077: a1 = u64 [s1 + 0x1a0]\n 37081: a3 = a3 + a1\n 37084: a1 = a3 <u a1\n 37087: a4 = u64 [s1 + 0x1b8]\n 37091: a1 = a1 + a4\n 37094: a4 = s1 + 0x3158\n 37098: u64 [a4 + 0x200] = a1\n 37102: a1 = a4 + 0x100\n 37106: u64 [a1 + 0xf8] = a3\n 37110: u64 [a1 + 0xf0] = a2\n 37114: u64 [a1 + 0xe8] = a0\n 37118: a0 = s1 + 0x340\n 37122: a1 = s1 + 0x3340\n 37126: ra = 1212, jump @6\n      : @1158 [@dyn 606] (gas: 9)\n 37133: a0 = u64 [s1 + 0x340]\n 37137: u64 [s1 + 0xd8] = a0\n 37141: a0 = u64 [s1 + 0x348]\n 37145: u64 [s1 + 0xc8] = a0\n 37149: a1 = u64 [s1 + 0x1a8]\n 37153: a0 = a1 + 0x8\n 37156: a1 = a0 <u a1\n 37159: a3 = u64 [s1 + 0x1b0]\n 37163: t0 = 1214, jump @1463\n      : @1159 [@dyn 607] (gas: 3)\n 37169: a1 = u64 [s1 + 0x350]\n 37173: u64 [s1 + 0x1b0] = a1\n 37177: t0 = 1216, jump @1465\n      : @1160 [@dyn 608] (gas: 11)\n 37183: a4 = u64 [s1 + 0x358]\n 37187: u64 [s1 + 0x1b8] = a4\n 37191: a4 = s1 + 0x3158\n 37195: a5 = a4 + 0x200\n 37199: u64 [a5 + 0x20] = a1\n 37202: u64 [a5 + 0x18] = a3\n 37205: u64 [a5 + 0x10] = a2\n 37208: u64 [a5 + 0x8] = a0\n 37211: a0 = s1 + 0x320\n 37215: a1 = s1 + 0x3360\n 37219: ra = 1218, jump @6\n      : @1161 [@dyn 609] (gas: 14)\n 37226: a0 = u8 [s1 + 0x320]\n 37230: u64 [s1 + 0x1a8] = a0\n 37234: a0 = u64 [s1 + 0x168]\n 37238: a3 = s1 + 0x300\n 37242: u64 [a3 + 0x18] = a0\n 37245: a0 = u64 [s1 + 0x170]\n 37249: u64 [a3 + 0x10] = a0\n 37252: a0 = u64 [s1 + 0x178]\n 37256: u64 [a3 + 0x8] = a0\n 37259: a0 = 0x80\n 37263: a1 = s1 + 0x300\n 37267: a2 = u64 [s1 + 0x180]\n 37271: u64 [a3] = a2\n 37273: ra = 1220, jump @4\n      : @1162 [@dyn 610] (gas: 11)\n 37280: a0 = u64 [s1 + 0x148]\n 37284: u64 [s1 + 0x2f8] = a0\n 37288: a0 = u64 [s1 + 0x150]\n 37292: u64 [s1 + 0x2f0] = a0\n 37296: a0 = u64 [s1 + 0x158]\n 37300: u64 [s1 + 0x2e8] = a0\n 37304: a0 = 0xa0\n 37308: a1 = s1 + 0x2e0\n 37312: a2 = u64 [s1 + 0x160]\n 37316: u64 [s1 + 0x2e0] = a2\n 37320: ra = 1222, jump @4\n      : @1163 [@dyn 611] (gas: 11)\n 37327: a0 = u64 [s1 + 0x128]\n 37331: u64 [s1 + 0x2d8] = a0\n 37335: a0 = u64 [s1 + 0x130]\n 37339: u64 [s1 + 0x2d0] = a0\n 37343: a0 = u64 [s1 + 0x138]\n 37347: u64 [s1 + 0x2c8] = a0\n 37351: a0 = 0xc0\n 37355: a1 = s1 + 0x2c0\n 37359: a2 = u64 [s1 + 0x140]\n 37363: u64 [s1 + 0x2c0] = a2\n 37367: ra = 1224, jump @4\n      : @1164 [@dyn 612] (gas: 11)\n 37374: a0 = u64 [s1 + 0x108]\n 37378: u64 [s1 + 0x2b8] = a0\n 37382: a0 = u64 [s1 + 0x110]\n 37386: u64 [s1 + 0x2b0] = a0\n 37390: a0 = u64 [s1 + 0x118]\n 37394: u64 [s1 + 0x2a8] = a0\n 37398: a0 = 0xe0\n 37402: a1 = s1 + 0x2a0\n 37406: a2 = u64 [s1 + 0x120]\n 37410: u64 [s1 + 0x2a0] = a2\n 37414: ra = 1226, jump @4\n      : @1165 [@dyn 613] (gas: 11)\n 37421: a0 = u64 [s1 + 0xe8]\n 37425: u64 [s1 + 0x298] = a0\n 37429: a0 = u64 [s1 + 0xf0]\n 37433: u64 [s1 + 0x290] = a0\n 37437: a0 = u64 [s1 + 0xf8]\n 37441: u64 [s1 + 0x288] = a0\n 37445: a0 = 0x100\n 37449: a1 = s1 + 0x280\n 37453: a2 = u64 [s1 + 0x100]\n 37457: u64 [s1 + 0x280] = a2\n 37461: ra = 1228, jump @4\n      : @1166 [@dyn 614] (gas: 11)\n 37468: a0 = u64 [s1 + 0xb0]\n 37472: u64 [s1 + 0x278] = a0\n 37476: a0 = u64 [s1 + 0xc0]\n 37480: u64 [s1 + 0x270] = a0\n 37484: a0 = u64 [s1 + 0xd0]\n 37488: u64 [s1 + 0x268] = a0\n 37492: a0 = 0x120\n 37496: a1 = s1 + 0x260\n 37500: a2 = u64 [s1 + 0xe0]\n 37504: u64 [s1 + 0x260] = a2\n 37508: ra = 1230, jump @4\n      : @1167 [@dyn 615] (gas: 12)\n 37515: a0 = u64 [s1 + 0x190]\n 37519: a0 = a0 << 0x20\n 37522: a0 = a0 >> 0x20\n 37525: u64 [s1 + 600] = 0\n 37529: u64 [s1 + 0x250] = a0\n 37533: a0 = u64 [s1 + 0xa8]\n 37537: u64 [s1 + 0x248] = a0\n 37541: a0 = 0x140\n 37545: a1 = s1 + 0x240\n 37549: a2 = u64 [s1 + 0xb8]\n 37553: u64 [s1 + 0x240] = a2\n 37557: ra = 1232, jump @4\n      : @1168 [@dyn 616] (gas: 14)\n 37564: a0 = u64 [s1 + 0x190]\n 37568: a0 = a0 << 0x18\n 37571: a0 = a0 >> 0x38\n 37574: u64 [s1 + 536] = 0\n 37578: u64 [s1 + 528] = 0\n 37582: u64 [s1 + 520] = 0\n 37586: u64 [s1 + 512] = 0x160\n 37592: u64 [s1 + 568] = 0\n 37596: u64 [s1 + 560] = 0\n 37600: u64 [s1 + 0x220] = a0\n 37604: a0 = s1 + 0x220\n 37608: a1 = s1 + 0x200\n 37612: u64 [s1 + 552] = 0\n 37616: ra = 1234, jump @1174\n      : @1169 [@dyn 617] (gas: 11)\n 37622: a0 = u64 [s1 + 0x1b8]\n 37626: u64 [s1 + 0x1f8] = a0\n 37630: a0 = u64 [s1 + 0x1b0]\n 37634: u64 [s1 + 0x1f0] = a0\n 37638: a0 = u64 [s1 + 0xc8]\n 37642: u64 [s1 + 0x1e8] = a0\n 37646: a0 = 0x180\n 37650: a1 = s1 + 0x1e0\n 37654: a2 = u64 [s1 + 0xd8]\n 37658: u64 [s1 + 0x1e0] = a2\n 37662: ra = 1236, jump @4\n      : @1170 [@dyn 618] (gas: 9)\n 37669: a0 = u64 [s1 + 0x1a8]\n 37673: a0 = a0 >u 0\n 37675: u64 [s1 + 472] = 0\n 37679: u64 [s1 + 464] = 0\n 37683: u64 [s1 + 0x1c0] = a0\n 37687: a0 = 0x1a0\n 37691: a1 = s1 + 0x1c0\n 37695: u64 [s1 + 456] = 0\n 37699: ra = 1238, jump @4\n      : @1171 [@dyn 619] (gas: 3)\n 37706: a0 = u64 [s1 + 0x198]\n 37710: a0 = i32 [a0]\n 37712: jump @1173 if a0 >u 447\n      : @1172 (gas: 3)\n 37717: a1 = u64 [s1 + 0x198]\n 37721: u32 [a1 + 0] = 0x1c0\n 37725: fallthrough\n      : @1173 (gas: 6)\n 37726: a0 = u64 [s1 + 0x188]\n 37730: i32 a1 = a0 + 0x80\n 37734: a2 = 0x140\n 37738: a0 = 0\n 37740: ecalli 11 // 'seal_return'\n 37742: jump @556\n      : @1174 (gas: 19)\n 37745: sp = sp + 0xffffffffffffff90\n 37748: u64 [sp + 0x68] = ra\n 37751: u64 [sp + 0x60] = s0\n 37754: s0 = sp + 0x70\n 37757: sp = sp & 0xfffffffffffffff0\n 37760: a2 = u64 [a0 + 0x18]\n 37763: t1 = u64 [a0 + 0x10]\n 37766: t0 = u64 [a0]\n 37768: a5 = u64 [a0 + 0x8]\n 37771: a0 = a2 >u 0\n 37773: a4 = t1 >u 0\n 37775: a4 = a0 if a2 != 0\n 37778: a0 = a5 >u 0\n 37780: a3 = t0 <u 0x4\n 37783: a3 = a3 ^ 0x1\n 37786: a3 = a0 if a5 != 0\n 37789: a0 = t1 | a2\n 37792: a3 = a4 if a0 != 0\n 37795: jump @1179 if a3 != 0\n      : @1175 (gas: 12)\n 37798: t2 = u64 [a1 + 0x18]\n 37801: a4 = u64 [a1 + 0x10]\n 37804: a0 = u64 [a1]\n 37806: a1 = u64 [a1 + 0x8]\n 37809: a3 = a0 | a4\n 37812: a1 = a1 | t2\n 37815: a3 = a3 | a1\n 37818: a3 = a3 >> 0x20\n 37821: a1 = a1 | a4\n 37824: a1 = a1 << 0x20\n 37827: a1 = a1 | a3\n 37830: jump @1178 if a1 != 0\n      : @1176 (gas: 6)\n 37833: u64 [sp + 0x40] = t0\n 37836: u64 [sp + 0x48] = a5\n 37839: u64 [sp + 0x50] = t1\n 37842: a1 = sp + 0x40\n 37845: u64 [sp + 0x58] = a2\n 37848: ra = 1240, jump @4\n      : @1177 [@dyn 620] (gas: 5)\n 37855: sp = s0 + 0xffffffffffffff90\n 37858: ra = u64 [sp + 0x68]\n 37861: s0 = u64 [sp + 0x60]\n 37864: sp = sp + 0x70\n 37867: ret\n      : @1178 (gas: 1)\n 37869: trap\n      : @1179 (gas: 1)\n 37870: t0 = 1242, jump @1431\n      : @1180 [@dyn 621] (gas: 1)\n 37876: ra = 1244, jump @4\n      : @1181 [@dyn 622] (gas: 7)\n 37883: u64 [sp + 24] = 0\n 37886: u64 [sp + 16] = 0\n 37889: u64 [sp + 0] = 0x21\n 37892: a0 = 0x4\n 37895: a1 = sp\n 37897: u64 [sp + 8] = 0\n 37900: ra = 1246, jump @4\n      : @1182 [@dyn 623] (gas: 2)\n 37907: a1 = i32 [0x20154]\n 37912: jump @1184 if a1 >u 63\n      : @1183 (gas: 2)\n 37916: u32 [0x20154] = 0x40\n 37922: fallthrough\n      : @1184 (gas: 7)\n 37923: a1 = 0x20160\n 37928: i32 a1 = a1 + 0\n 37930: a0 = 0x1\n 37933: a2 = 0x24\n 37936: ra = 0x4e0\n 37940: ecalli 11 // 'seal_return'\n 37942: fallthrough\n      : @1185 [@dyn 624] (gas: 33)\n 37943: sp = sp + 0xffffffffffffff80\n 37946: u64 [sp + 0x78] = ra\n 37949: u64 [sp + 0x70] = s0\n 37952: u64 [sp + 0x68] = s1\n 37955: s0 = sp + 0x80\n 37959: sp = sp & 0xffffffffffffffe0\n 37962: a2 = u64 [a1]\n 37964: t0 = u64 [a1 + 0x18]\n 37967: a4 = u64 [a1 + 0x8]\n 37970: a1 = u64 [a1 + 0x10]\n 37973: a5 = a2 + 0xfffffffffffffffc\n 37976: s1 = a5 <u a2\n 37979: a2 = a4 + s1\n 37982: a2 = a2 + 0xffffffffffffffff\n 37985: a3 = a2 ^ a4\n 37988: a4 = a2 <u a4\n 37991: a4 = s1 if a3 == 0\n 37994: a3 = a1 + 0xffffffffffffffff\n 37997: a4 = a4 + a3\n 38000: a3 = a4 <u a3\n 38003: a1 = a1 <u 0x1\n 38006: a1 = t0 - a1\n 38009: a1 = a1 + a3\n 38012: a3 = a1 >s 0\n 38014: s1 = a4 >u 0\n 38016: s1 = a3 if a1 != 0\n 38019: a1 = a1 | a4\n 38022: a3 = a2 >u 0\n 38024: a4 = a5 <u 0x40\n 38027: a4 = a4 ^ 0x1\n 38030: a4 = a3 if a2 != 0\n 38033: a4 = s1 if a1 != 0\n 38036: jump @1189 if a4 == 0\n      : @1186 (gas: 16)\n 38040: s1 = a0\n 38042: i32 a0 = sp + 0x20\n 38045: a1 = 0x4\n 38048: ecalli 2 // 'call_data_load'\n 38050: a0 = u64 [sp + 0x38]\n 38053: u64 [sp + 0x18] = a0\n 38056: a0 = u64 [sp + 0x30]\n 38059: u64 [sp + 0x10] = a0\n 38062: a0 = u64 [sp + 0x28]\n 38065: u64 [sp + 0x8] = a0\n 38068: a0 = u64 [sp + 0x20]\n 38071: u64 [sp] = a0\n 38073: i32 a0 = sp + 0x40\n 38076: a1 = 0x24\n 38079: ecalli 2 // 'call_data_load'\n 38081: fallthrough\n      : @1187 (gas: 10)\n 38082: a1 = u64 [sp + 0x50]\n 38085: a0 = u64 [sp + 0x58]\n 38088: a2 = 0x100000000\n 38098: a2 = a2 ^ a1\n 38101: a2 = a2 | a0\n 38104: a3 = a1 >> 0x20\n 38107: a3 = a3 <u 0x1\n 38110: a3 = 0 if a0 != 0\n 38112: a3 = 0 if a2 == 0\n 38114: jump @1190 if a3 == 0\n      : @1188 (gas: 20)\n 38117: a2 = u64 [sp + 0x40]\n 38120: a3 = u64 [sp + 0x48]\n 38123: u64 [s1 + 0x20] = a2\n 38126: a2 = u64 [sp]\n 38128: u64 [s1] = a2\n 38130: u64 [s1 + 0x28] = a3\n 38133: a2 = u64 [sp + 0x8]\n 38136: u64 [s1 + 0x8] = a2\n 38139: u64 [s1 + 0x30] = a1\n 38142: a1 = u64 [sp + 0x10]\n 38145: u64 [s1 + 0x10] = a1\n 38148: u64 [s1 + 0x38] = a0\n 38151: a0 = u64 [sp + 0x18]\n 38154: u64 [s1 + 0x18] = a0\n 38157: sp = s0 + 0xffffffffffffff80\n 38160: ra = u64 [sp + 0x78]\n 38163: s0 = u64 [sp + 0x70]\n 38166: s1 = u64 [sp + 0x68]\n 38169: sp = sp + 0x80\n 38173: ret\n      : @1189 (gas: 2)\n 38175: a1 = 0x20160\n 38180: jump @1191\n      : @1190 (gas: 2)\n 38182: a1 = 0x20160\n 38187: fallthrough\n      : @1191 (gas: 6)\n 38188: i32 a1 = a1 + 0\n 38190: a0 = 0x1\n 38193: a2 = 0\n 38195: ra = 0x4e2\n 38199: ecalli 11 // 'seal_return'\n 38201: fallthrough\n      : @1192 [@dyn 625] (gas: 23)\n 38202: sp = sp + 0xffffffffffffff10\n 38206: u64 [sp + 0xe8] = ra\n 38210: u64 [sp + 0xe0] = s0\n 38214: u64 [sp + 0xd8] = s1\n 38218: s0 = sp + 0xf0\n 38222: sp = sp & 0xfffffffffffffff0\n 38225: s1 = u64 [a1 + 0x10]\n 38228: t0 = u64 [a1 + 0x18]\n 38231: a5 = u64 [a1 + 0x8]\n 38234: a1 = u64 [a1]\n 38236: u64 [sp + 0x68] = a5\n 38239: u64 [sp + 0x58] = t0\n 38242: t1 = a5 | t0\n 38245: t0 = a1\n 38247: a5 = a1 | s1\n 38250: a5 = a5 | t1\n 38253: a5 = a5 >> 0x20\n 38256: u64 [sp + 0x60] = s1\n 38259: a1 = t1 | s1\n 38262: a1 = a1 << 0x20\n 38265: a1 = a1 | a5\n 38268: u64 [sp + 0x50] = a0\n 38271: jump @1199 if a1 != 0\n      : @1193 (gas: 28)\n 38275: a0 = u64 [a4 + 0x18]\n 38278: u64 [sp + 0x18] = a0\n 38281: a0 = u64 [a4 + 0x10]\n 38284: u64 [sp + 0x10] = a0\n 38287: a0 = u64 [a4 + 0x8]\n 38290: u64 [sp + 0x8] = a0\n 38293: a0 = u64 [a4]\n 38295: u64 [sp] = a0\n 38297: a0 = u64 [a3 + 0x18]\n 38300: u64 [sp + 0x48] = a0\n 38303: a0 = u64 [a3 + 0x10]\n 38306: u64 [sp + 0x40] = a0\n 38309: a0 = u64 [a3 + 0x8]\n 38312: u64 [sp + 0x38] = a0\n 38315: a0 = u64 [a3]\n 38317: u64 [sp + 0x30] = a0\n 38320: a0 = u64 [a2 + 0x18]\n 38323: a1 = u64 [a2 + 0x10]\n 38326: a3 = u64 [a2 + 0x8]\n 38329: a2 = u64 [a2]\n 38331: u64 [sp + 0xb0] = a2\n 38335: u64 [sp + 0xb8] = a3\n 38339: u64 [sp + 0xc0] = a1\n 38343: a1 = sp + 0xb0\n 38347: u64 [sp + 0xc8] = a0\n 38351: s1 = t0\n 38353: a0 = t0\n 38355: ra = 1252, jump @4\n      : @1194 [@dyn 626] (gas: 12)\n 38362: a0 = u64 [sp + 0x60]\n 38365: a1 = u64 [sp + 0x58]\n 38368: a2 = a0 | a1\n 38371: a0 = 0x100000000\n 38381: u64 [sp + 0x20] = a0\n 38384: a0 = 0xffffffe0\n 38394: a0 = s1 <u a0\n 38397: a1 = u64 [sp + 0x68]\n 38400: a0 = 0 if a1 != 0\n 38402: u64 [sp + 0x28] = a2\n 38405: a0 = 0 if a2 != 0\n 38407: jump @1199 if a0 == 0\n      : @1195 (gas: 11)\n 38411: i32 a0 = s1 + 0x20\n 38414: a1 = u64 [sp + 0x30]\n 38417: u64 [sp + 0x90] = a1\n 38421: a1 = u64 [sp + 0x38]\n 38424: u64 [sp + 0x98] = a1\n 38428: a1 = u64 [sp + 0x40]\n 38431: u64 [sp + 0xa0] = a1\n 38435: a1 = sp + 0x90\n 38439: a2 = u64 [sp + 0x48]\n 38442: u64 [sp + 0xa8] = a2\n 38446: ra = 1254, jump @4\n      : @1196 [@dyn 627] (gas: 8)\n 38453: a0 = u64 [sp + 0x20]\n 38456: a0 = a0 + 0xffffffffffffffc0\n 38459: a0 = s1 <u a0\n 38462: a1 = u64 [sp + 0x68]\n 38465: a0 = 0 if a1 != 0\n 38467: a1 = u64 [sp + 0x28]\n 38470: a0 = 0 if a1 != 0\n 38472: jump @1199 if a0 == 0\n      : @1197 (gas: 26)\n 38476: a0 = s1 + 0x60\n 38479: u64 [sp + 0x48] = a0\n 38482: a0 = a0 <u s1\n 38485: a1 = u64 [sp + 0x68]\n 38488: a2 = a1 + a0\n 38491: u64 [sp + 0x40] = a2\n 38494: a1 = a2 <u a1\n 38497: a1 = a0 if a0 == 0\n 38500: a0 = u64 [sp + 0x60]\n 38503: a1 = a1 + a0\n 38506: u64 [sp + 0x38] = a1\n 38509: a0 = a1 <u a0\n 38512: a1 = u64 [sp + 0x58]\n 38515: a0 = a0 + a1\n 38518: u64 [sp + 0x68] = a0\n 38521: i32 a0 = s1 + 0x40\n 38524: a1 = u64 [sp]\n 38526: u64 [sp + 0x70] = a1\n 38529: a1 = u64 [sp + 0x8]\n 38532: u64 [sp + 0x78] = a1\n 38535: a1 = u64 [sp + 0x10]\n 38538: u64 [sp + 0x80] = a1\n 38542: a1 = sp + 0x70\n 38545: a2 = u64 [sp + 0x18]\n 38548: u64 [sp + 0x88] = a2\n 38552: ra = 1256, jump @4\n      : @1198 [@dyn 628] (gas: 15)\n 38559: a0 = u64 [sp + 0x50]\n 38562: a1 = u64 [sp + 0x38]\n 38565: u64 [a0 + 0x10] = a1\n 38568: a1 = u64 [sp + 0x40]\n 38571: u64 [a0 + 0x8] = a1\n 38574: a1 = u64 [sp + 0x48]\n 38577: u64 [a0] = a1\n 38579: a1 = u64 [sp + 0x68]\n 38582: u64 [a0 + 0x18] = a1\n 38585: sp = s0 + 0xffffffffffffff10\n 38589: ra = u64 [sp + 0xe8]\n 38593: s0 = u64 [sp + 0xe0]\n 38597: s1 = u64 [sp + 0xd8]\n 38601: sp = sp + 0xf0\n 38605: ret\n      : @1199 (gas: 1)\n 38607: trap\n      : @1200 (gas: 31)\n 38608: sp = sp + 0xfffffffffffffee0\n 38612: u64 [sp + 0x118] = ra\n 38616: u64 [sp + 0x110] = s0\n 38620: u64 [sp + 0x108] = s1\n 38624: s0 = sp + 0x120\n 38628: sp = sp & 0xffffffffffffffe0\n 38631: s1 = sp\n 38633: u64 [s1 + 0x38] = a0\n 38636: a0 = u64 [a2]\n 38638: u64 [s1 + 0x48] = a0\n 38641: a0 = u64 [a2 + 0x8]\n 38644: u64 [s1 + 0x40] = a0\n 38647: a0 = u64 [a2 + 0x10]\n 38650: u64 [s1 + 0x50] = a0\n 38653: a0 = u64 [a2 + 0x18]\n 38656: u64 [s1 + 0x58] = a0\n 38659: a0 = u64 [a1 + 0x18]\n 38662: a2 = u64 [a1 + 0x10]\n 38665: a3 = u64 [a1 + 0x8]\n 38668: a1 = u64 [a1]\n 38670: u64 [s1 + 0x30] = a0\n 38673: u64 [s1 + 0xf8] = a0\n 38677: u64 [s1 + 0x28] = a2\n 38680: u64 [s1 + 0xf0] = a2\n 38684: u64 [s1 + 0x20] = a3\n 38687: u64 [s1 + 0xe8] = a3\n 38691: u64 [s1 + 0x18] = a1\n 38694: u64 [s1 + 0xe0] = a1\n 38698: a0 = s1 + 0xc0\n 38702: a1 = s1 + 0xe0\n 38706: ra = 1258, jump @6\n      : @1201 [@dyn 629] (gas: 16)\n 38713: a0 = u64 [s1 + 0xd8]\n 38717: t0 = u64 [s1 + 0xc0]\n 38721: a2 = u64 [s1 + 0xd0]\n 38725: a3 = u64 [s1 + 0xc8]\n 38729: a1 = u64 [s1 + 0x58]\n 38732: a4 = a0 ^ a1\n 38735: a1 = a1 <u a0\n 38738: a0 = u64 [s1 + 0x50]\n 38741: a5 = a0 <u a2\n 38744: a5 = a1 if a4 != 0\n 38747: a1 = u64 [s1 + 0x40]\n 38750: t1 = a3 ^ a1\n 38753: a3 = a1 <u a3\n 38756: a1 = u64 [s1 + 0x48]\n 38759: a1 = a1 <u t0\n 38762: t0 = 1260, jump @1456\n      : @1202 [@dyn 630] (gas: 1)\n 38768: jump @1207 if a1 == 0\n      : @1203 (gas: 11)\n 38772: a0 = u64 [s1 + 0x18]\n 38775: u64 [s1 + 0x60] = a0\n 38778: a0 = u64 [s1 + 0x20]\n 38781: u64 [s1 + 0x68] = a0\n 38784: a0 = u64 [s1 + 0x28]\n 38787: u64 [s1 + 0x70] = a0\n 38790: a1 = s1 + 0x60\n 38793: a0 = u64 [s1 + 0x30]\n 38796: u64 [s1 + 0x78] = a0\n 38799: a0 = 0\n 38801: ra = 1262, jump @4\n      : @1204 [@dyn 631] (gas: 2)\n 38808: a1 = i32 [0x20154]\n 38813: jump @1206 if a1 >u 31\n      : @1205 (gas: 2)\n 38817: u32 [0x20154] = 0x20\n 38823: fallthrough\n      : @1206 (gas: 52)\n 38824: a0 = sp + 0xffffffffffffffe0\n 38827: a2 = a0 & 0xffffffffffffffe0\n 38830: u64 [s1 + 0x30] = a2\n 38833: sp = a2\n 38835: a0 = 0x20160\n 38840: i32 a0 = a0 + 0\n 38842: i32 a2 = a2 + 0\n 38844: a1 = 0x20\n 38847: ecalli 7 // 'hash_keccak_256'\n 38849: a3 = u64 [s1 + 0x30]\n 38852: a0 = u64 [a3]\n 38854: a1 = u64 [a3 + 0x8]\n 38857: a2 = u64 [a3 + 0x18]\n 38860: a3 = u64 [a3 + 0x10]\n 38863: t0 = reverse a0\n 38865: a1 = reverse a1\n 38867: a2 = reverse a2\n 38869: a3 = reverse a3\n 38871: a4 = u64 [s1 + 0x40]\n 38874: a4 = a4 + a3\n 38877: t1 = u64 [s1 + 0x48]\n 38880: t1 = t1 + a2\n 38883: a2 = t1 <u a2\n 38886: a4 = a4 + a2\n 38889: a0 = a4 ^ a3\n 38892: a3 = a4 <u a3\n 38895: a3 = a2 if a0 == 0\n 38898: a0 = u64 [s1 + 0x50]\n 38901: a0 = a0 + a1\n 38904: a3 = a3 + a0\n 38907: a2 = a3 <u a0\n 38910: a5 = u64 [s1 + 0x58]\n 38913: t0 = t0 + a5\n 38916: a0 = a0 <u a1\n 38919: a0 = a0 + t0\n 38922: a0 = a0 + a2\n 38925: a1 = u64 [s1 + 0x38]\n 38928: a2 = 0\n 38930: u64 [a1 + 56] = 0\n 38933: u64 [a1 + 48] = 0\n 38936: u64 [a1 + 40] = 0\n 38939: u64 [a1 + 32] = 0\n 38942: u64 [a1] = t1\n 38944: u64 [a1 + 0x8] = a4\n 38947: u64 [a1 + 0x10] = a3\n 38950: u64 [a1 + 0x18] = a0\n 38953: sp = s0 + 0xfffffffffffffee0\n 38957: ra = u64 [sp + 0x118]\n 38961: s0 = u64 [sp + 0x110]\n 38965: s1 = u64 [sp + 0x108]\n 38969: sp = sp + 0x120\n 38973: ret\n      : @1207 (gas: 1)\n 38975: t0 = 1264, jump @1450\n      : @1208 [@dyn 632] (gas: 1)\n 38981: ra = 1266, jump @4\n      : @1209 [@dyn 633] (gas: 7)\n 38988: u64 [s1 + 152] = 0\n 38992: u64 [s1 + 144] = 0\n 38996: u64 [s1 + 128] = 0x32\n 39001: a0 = 0x4\n 39004: a1 = s1 + 0x80\n 39008: u64 [s1 + 136] = 0\n 39012: ra = 1268, jump @4\n      : @1210 [@dyn 634] (gas: 2)\n 39019: a1 = i32 [0x20154]\n 39024: jump @1212 if a1 >u 63\n      : @1211 (gas: 2)\n 39028: u32 [0x20154] = 0x40\n 39034: fallthrough\n      : @1212 (gas: 8)\n 39035: a1 = 0x20160\n 39040: i32 a1 = a1 + 0\n 39042: a0 = 0x1\n 39045: a2 = 0x24\n 39048: ra = 0x4f6\n 39052: ecalli 11 // 'seal_return'\n 39054: t0 = 0x4f8\n 39058: jump @1443\n      : @1213 [@dyn 635] (gas: 1)\n 39061: t0 = 1272, jump @1443\n      : @1214 [@dyn 636] (gas: 7)\n 39067: t0 = a0 >u 0\n 39069: a4 = t1 <u 0xfffffffffffffec0\n 39073: a4 = a4 ^ 0x1\n 39076: a4 = t0 if a0 != 0\n 39079: a1 = a2 | a3\n 39082: a4 = a5 if a1 != 0\n 39085: jump @1218 if a4 != 0\n      : @1215 (gas: 2)\n 39088: a1 = t1 + 0x140\n 39092: t0 = 1274, jump @1440\n      : @1216 [@dyn 637] (gas: 1)\n 39098: ra = 1276, jump @4\n      : @1217 [@dyn 638] (gas: 5)\n 39105: sp = s0 + 0xffffffffffffff90\n 39108: ra = u64 [sp + 0x68]\n 39111: s0 = u64 [sp + 0x60]\n 39114: sp = sp + 0x70\n 39117: ret\n      : @1218 (gas: 1)\n 39119: t0 = 1278, jump @1431\n      : @1219 [@dyn 639] (gas: 1)\n 39125: ra = 1280, jump @4\n      : @1220 [@dyn 640] (gas: 7)\n 39132: u64 [sp + 24] = 0\n 39135: u64 [sp + 16] = 0\n 39138: u64 [sp + 0] = 0x41\n 39141: a0 = 0x4\n 39144: a1 = sp\n 39146: u64 [sp + 8] = 0\n 39149: ra = 1282, jump @4\n      : @1221 [@dyn 641] (gas: 2)\n 39156: a1 = i32 [0x20154]\n 39161: jump @1223 if a1 >u 63\n      : @1222 (gas: 2)\n 39165: u32 [0x20154] = 0x40\n 39171: fallthrough\n      : @1223 (gas: 8)\n 39172: a1 = 0x20160\n 39177: i32 a1 = a1 + 0\n 39179: a0 = 0x1\n 39182: a2 = 0x24\n 39185: ra = 0x504\n 39189: ecalli 11 // 'seal_return'\n 39191: t0 = 0x506\n 39195: jump @1443\n      : @1224 [@dyn 642] (gas: 1)\n 39198: t0 = 1286, jump @1443\n      : @1225 [@dyn 643] (gas: 7)\n 39204: t0 = a0 >u 0\n 39206: a4 = t1 <u 0xffffffffffffff80\n 39209: a4 = a4 ^ 0x1\n 39212: a4 = t0 if a0 != 0\n 39215: a1 = a2 | a3\n 39218: a4 = a5 if a1 != 0\n 39221: jump @1229 if a4 != 0\n      : @1226 (gas: 2)\n 39224: a1 = t1 + 0x80\n 39228: t0 = 1288, jump @1440\n      : @1227 [@dyn 644] (gas: 1)\n 39234: ra = 1290, jump @4\n      : @1228 [@dyn 645] (gas: 5)\n 39241: sp = s0 + 0xffffffffffffff90\n 39244: ra = u64 [sp + 0x68]\n 39247: s0 = u64 [sp + 0x60]\n 39250: sp = sp + 0x70\n 39253: ret\n      : @1229 (gas: 1)\n 39255: t0 = 1292, jump @1431\n      : @1230 [@dyn 646] (gas: 1)\n 39261: ra = 1294, jump @4\n      : @1231 [@dyn 647] (gas: 7)\n 39268: u64 [sp + 24] = 0\n 39271: u64 [sp + 16] = 0\n 39274: u64 [sp + 0] = 0x41\n 39277: a0 = 0x4\n 39280: a1 = sp\n 39282: u64 [sp + 8] = 0\n 39285: ra = 1296, jump @4\n      : @1232 [@dyn 648] (gas: 2)\n 39292: a1 = i32 [0x20154]\n 39297: jump @1234 if a1 >u 63\n      : @1233 (gas: 2)\n 39301: u32 [0x20154] = 0x40\n 39307: fallthrough\n      : @1234 (gas: 7)\n 39308: a1 = 0x20160\n 39313: i32 a1 = a1 + 0\n 39315: a0 = 0x1\n 39318: a2 = 0x24\n 39321: ra = 0x512\n 39325: ecalli 11 // 'seal_return'\n 39327: fallthrough\n      : @1235 [@dyn 649] (gas: 46)\n 39328: sp = sp + 0xffffffffffffff70\n 39332: u64 [sp + 0x88] = ra\n 39336: u64 [sp + 0x80] = s0\n 39340: u64 [sp + 0x78] = s1\n 39343: s0 = sp + 0x90\n 39347: sp = sp & 0xfffffffffffffff0\n 39350: t0 = a0\n 39352: a2 = u64 [a1]\n 39354: t2 = u64 [a0 + 0x8]\n 39357: a5 = u64 [a1 + 0x8]\n 39360: t1 = u64 [a0]\n 39362: a3 = a2 + 0x1f\n 39365: ra = a3 <u a2\n 39368: a2 = a5 + ra\n 39371: a3 = a3 & 0xffffffffffffffe0\n 39374: u64 [sp + 0x8] = t1\n 39377: t1 = t1 + a3\n 39380: a4 = t1 <u a3\n 39383: a3 = a2 + t2\n 39386: a3 = a3 + a4\n 39389: s1 = a3 ^ a2\n 39392: a0 = a3 <u a2\n 39395: a0 = a4 if s1 == 0\n 39398: a4 = u64 [t0 + 0x18]\n 39401: a5 = a2 <u a5\n 39404: s1 = u64 [a1 + 0x10]\n 39407: t0 = u64 [t0 + 0x10]\n 39410: a1 = u64 [a1 + 0x18]\n 39413: a5 = ra if ra == 0\n 39416: a5 = a5 + s1\n 39419: s1 = a5 <u s1\n 39422: a2 = a5 + t0\n 39425: a0 = a0 + a2\n 39428: a5 = a2 <u a5\n 39431: a2 = a0 <u a2\n 39434: a1 = a1 + a4\n 39437: a1 = a1 + s1\n 39440: a1 = a1 + a5\n 39443: a5 = a1 + a2\n 39446: a1 = a5 >u 0\n 39448: a2 = a0 >u 0\n 39450: a2 = a1 if a5 != 0\n 39453: a1 = a0 | a5\n 39456: s1 = a3 >u 0\n 39458: s1 = a2 if a1 != 0\n 39461: jump @1239 if s1 != 0\n      : @1236 (gas: 13)\n 39464: a1 = u64 [sp + 0x8]\n 39467: a1 = t1 <u a1\n 39470: a2 = a3 ^ t2\n 39473: s1 = a3 <u t2\n 39476: s1 = a1 if a2 == 0\n 39479: a1 = a0 <u t0\n 39482: a2 = a5 ^ a4\n 39485: a4 = a5 <u a4\n 39488: a4 = a1 if a2 == 0\n 39491: a1 = a0 ^ t0\n 39494: a1 = a1 | a2\n 39497: a4 = s1 if a1 == 0\n 39500: jump @1239 if a4 != 0\n      : @1237 (gas: 7)\n 39503: u64 [sp + 0x50] = t1\n 39506: u64 [sp + 0x58] = a3\n 39509: u64 [sp + 0x60] = a0\n 39512: a0 = 0x40\n 39515: a1 = sp + 0x50\n 39518: u64 [sp + 0x68] = a5\n 39521: ra = 1300, jump @4\n      : @1238 [@dyn 650] (gas: 6)\n 39528: sp = s0 + 0xffffffffffffff70\n 39532: ra = u64 [sp + 0x88]\n 39536: s0 = u64 [sp + 0x80]\n 39540: s1 = u64 [sp + 0x78]\n 39543: sp = sp + 0x90\n 39547: ret\n      : @1239 (gas: 1)\n 39549: t0 = 1302, jump @1468\n      : @1240 [@dyn 651] (gas: 1)\n 39555: ra = 1304, jump @4\n      : @1241 [@dyn 652] (gas: 7)\n 39562: u64 [sp + 40] = 0\n 39565: u64 [sp + 32] = 0\n 39568: u64 [sp + 16] = 0x41\n 39572: a0 = 0x4\n 39575: a1 = sp + 0x10\n 39578: u64 [sp + 24] = 0\n 39581: ra = 1306, jump @4\n      : @1242 [@dyn 653] (gas: 2)\n 39588: a1 = i32 [0x20154]\n 39593: jump @1244 if a1 >u 63\n      : @1243 (gas: 2)\n 39597: u32 [0x20154] = 0x40\n 39603: fallthrough\n      : @1244 (gas: 7)\n 39604: a1 = 0x20160\n 39609: i32 a1 = a1 + 0\n 39611: a0 = 0x1\n 39614: a2 = 0x24\n 39617: ra = 0x51c\n 39621: ecalli 11 // 'seal_return'\n 39623: fallthrough\n      : @1245 [@dyn 654] (gas: 6)\n 39624: sp = sp + 0xffffffffffffff00\n 39628: u64 [sp + 0xf8] = ra\n 39632: u64 [sp + 0xf0] = s0\n 39636: u64 [sp + 0xe8] = s1\n 39640: s0 = sp + 0x100\n 39644: t0 = 1310, jump @1455\n      : @1246 [@dyn 655] (gas: 1)\n 39650: jump @1248 if a0 == 0\n      : @1247 (gas: 6)\n 39653: sp = s0 + 0xffffffffffffff00\n 39657: ra = u64 [sp + 0xf8]\n 39661: s0 = u64 [sp + 0xf0]\n 39665: s1 = u64 [sp + 0xe8]\n 39669: sp = sp + 0x100\n 39673: ret\n      : @1248 (gas: 3)\n 39675: a0 = sp + 0xc0\n 39679: a1 = 0x40\n 39682: ra = 1312, jump @2\n      : @1249 [@dyn 656] (gas: 5)\n 39689: a2 = u64 [sp + 0xd8]\n 39693: s1 = u64 [sp + 0xd0]\n 39697: a0 = u64 [sp + 0xc8]\n 39701: a1 = u64 [sp + 0xc0]\n 39705: t0 = 1314, jump @1448\n      : @1250 [@dyn 657] (gas: 1)\n 39711: jump @1263 if a0 != 0\n      : @1251 (gas: 8)\n 39715: u64 [sp + 176] = 0\n 39719: u64 [sp + 168] = 0\n 39723: u64 [sp + 160] = 0\n 39727: a0 = 0x8c379a000000000\n 39737: a1 = sp + 0xa0\n 39741: u64 [sp + 0xb8] = a0\n 39745: a0 = u64 [sp + 0x18]\n 39748: ra = 1316, jump @4\n      : @1252 [@dyn 658] (gas: 1)\n 39755: t0 = 1318, jump @1429\n      : @1253 [@dyn 659] (gas: 1)\n 39761: jump @1263 if a0 == 0\n      : @1254 (gas: 8)\n 39765: a0 = u64 [sp + 0x18]\n 39768: i32 a0 = a0 + 0x4\n 39771: u64 [sp + 152] = 0\n 39775: u64 [sp + 144] = 0\n 39779: u64 [sp + 128] = 0x20\n 39784: a1 = sp + 0x80\n 39788: u64 [sp + 136] = 0\n 39792: ra = 1320, jump @4\n      : @1255 [@dyn 660] (gas: 1)\n 39799: t0 = 1322, jump @1442\n      : @1256 [@dyn 661] (gas: 1)\n 39805: jump @1263 if a0 == 0\n      : @1257 (gas: 8)\n 39808: s1 = u64 [sp + 0x18]\n 39811: i32 a0 = s1 + 0x24\n 39814: u64 [sp + 120] = 0\n 39817: u64 [sp + 112] = 0\n 39820: u64 [sp + 96] = 0x21\n 39824: a1 = sp + 0x60\n 39827: u64 [sp + 104] = 0\n 39830: ra = 1324, jump @4\n      : @1258 [@dyn 662] (gas: 4)\n 39837: a0 = 0x100000000\n 39847: u64 [sp] = a0\n 39849: a0 = 0xffffffbc\n 39859: t0 = 1326, jump @1446\n      : @1259 [@dyn 663] (gas: 1)\n 39865: jump @1263 if a0 == 0\n      : @1260 (gas: 12)\n 39868: s1 = u64 [sp + 0x18]\n 39871: i32 a0 = s1 + 0x44\n 39874: a1 = u64 [0x20110]\n 39879: u64 [sp + 0x58] = a1\n 39882: a1 = u64 [0x20118]\n 39887: a2 = u64 [0x20120]\n 39892: a3 = u64 [0x20128]\n 39897: u64 [sp + 0x50] = a1\n 39900: u64 [sp + 0x48] = a2\n 39903: a1 = sp + 0x40\n 39906: u64 [sp + 0x40] = a3\n 39909: ra = 1328, jump @4\n      : @1261 [@dyn 664] (gas: 3)\n 39916: a0 = u64 [sp]\n 39918: a0 = a0 + 0xffffffffffffff9c\n 39921: t0 = 1330, jump @1446\n      : @1262 [@dyn 665] (gas: 1)\n 39927: jump @1264 if a0 != 0\n      : @1263 (gas: 1)\n 39930: trap\n      : @1264 (gas: 9)\n 39931: s1 = u64 [sp + 0x18]\n 39934: i32 a0 = s1 + 0x64\n 39937: u64 [sp + 48] = 0\n 39940: u64 [sp + 40] = 0\n 39943: a1 = 0x6e00000000000000\n 39953: u64 [sp + 0x38] = a1\n 39956: a1 = sp + 0x20\n 39959: u64 [sp + 32] = 0\n 39962: ra = 1332, jump @4\n      : @1265 [@dyn 666] (gas: 3)\n 39969: a1 = 0x84\n 39973: a0 = s1\n 39975: ra = 1334, jump @15\n      : @1266 [@dyn 667] (gas: 6)\n 39982: i32 a1 = a0 + 0\n 39984: a0 = 0x1\n 39987: a2 = 0x84\n 39991: ra = 0x538\n 39995: ecalli 11 // 'seal_return'\n 39997: fallthrough\n      : @1267 [@dyn 668] (gas: 16)\n 39998: a2 = u64 [a1]\n 40000: t0 = u64 [a1 + 0x18]\n 40003: a3 = u64 [a1 + 0x8]\n 40006: a5 = u64 [a1 + 0x10]\n 40009: a4 = a2 + 0x1\n 40012: a2 = a4 <u 0x1\n 40015: a2 = a2 + a3\n 40018: a3 = a4 | a2\n 40021: a3 = a3 <u 0x1\n 40024: a3 = a3 + a5\n 40027: a5 = a3 <u a5\n 40030: a5 = a5 + t0\n 40033: t0 = a2 | a5\n 40036: a1 = a4 | a3\n 40039: a1 = a1 | t0\n 40042: jump @1269 if a1 == 0\n      : @1268 (gas: 5)\n 40045: u64 [a0] = a4\n 40047: u64 [a0 + 0x8] = a2\n 40050: u64 [a0 + 0x10] = a3\n 40053: u64 [a0 + 0x18] = a5\n 40056: ret\n      : @1269 (gas: 6)\n 40058: sp = sp + 0xffffffffffffffb0\n 40061: u64 [sp + 0x48] = ra\n 40064: u64 [sp + 0x40] = s0\n 40067: s0 = sp + 0x50\n 40070: sp = sp & 0xfffffffffffffff0\n 40073: t0 = 1338, jump @1431\n      : @1270 [@dyn 669] (gas: 1)\n 40079: ra = 1340, jump @4\n      : @1271 [@dyn 670] (gas: 7)\n 40086: u64 [sp + 24] = 0\n 40089: u64 [sp + 16] = 0\n 40092: u64 [sp + 0] = 0x11\n 40095: a0 = 0x4\n 40098: a1 = sp\n 40100: u64 [sp + 8] = 0\n 40103: ra = 1342, jump @4\n      : @1272 [@dyn 671] (gas: 2)\n 40110: a1 = i32 [0x20154]\n 40115: jump @1274 if a1 >u 63\n      : @1273 (gas: 2)\n 40119: u32 [0x20154] = 0x40\n 40125: fallthrough\n      : @1274 (gas: 7)\n 40126: a1 = 0x20160\n 40131: i32 a1 = a1 + 0\n 40133: a0 = 0x1\n 40136: a2 = 0x24\n 40139: ra = 0x540\n 40143: ecalli 11 // 'seal_return'\n 40145: fallthrough\n      : @1275 [@dyn 672] (gas: 45)\n 40146: sp = sp + 0xffffffffffffff90\n 40149: u64 [sp + 0x68] = ra\n 40152: u64 [sp + 0x60] = s0\n 40155: u64 [sp + 0x58] = s1\n 40158: s0 = sp + 0x70\n 40161: sp = sp & 0xfffffffffffffff0\n 40164: a3 = u64 [a1 + 0x18]\n 40167: u64 [sp + 0x8] = a3\n 40170: a4 = u64 [a2 + 0x18]\n 40173: t2 = u64 [a1]\n 40175: u64 [sp] = t2\n 40177: a3 = u64 [a1 + 0x8]\n 40180: s1 = u64 [a2 + 0x8]\n 40183: a5 = u64 [a2]\n 40185: t1 = u64 [a1 + 0x10]\n 40188: t0 = u64 [a2 + 0x10]\n 40191: a2 = s1 + a3\n 40194: t2 = t2 + a5\n 40197: a5 = t2 <u a5\n 40200: a2 = a2 + a5\n 40203: ra = a2 ^ s1\n 40206: s1 = a2 <u s1\n 40209: s1 = a5 if ra == 0\n 40212: a1 = t0 + t1\n 40215: a5 = u64 [sp + 0x8]\n 40218: a5 = a5 + a4\n 40221: a4 = a1 <u t0\n 40224: a4 = a4 + a5\n 40227: a5 = a1 + s1\n 40230: a1 = a5 <u a1\n 40233: ra = a4 + a1\n 40236: a4 = a2 ^ a3\n 40239: a3 = a2 <u a3\n 40242: a1 = u64 [sp]\n 40244: s1 = t2 <u a1\n 40247: s1 = a3 if a4 != 0\n 40250: t0 = a5 <u t1\n 40253: a1 = u64 [sp + 0x8]\n 40256: a4 = ra ^ a1\n 40259: a3 = ra <u a1\n 40262: a3 = t0 if a4 == 0\n 40265: a1 = a5 ^ t1\n 40268: a1 = a1 | a4\n 40271: s1 = a3 if a1 != 0\n 40274: jump @1277 if s1 != 0\n      : @1276 (gas: 10)\n 40277: u64 [a0] = t2\n 40279: u64 [a0 + 0x8] = a2\n 40282: u64 [a0 + 0x10] = a5\n 40285: u64 [a0 + 0x18] = ra\n 40288: sp = s0 + 0xffffffffffffff90\n 40291: ra = u64 [sp + 0x68]\n 40294: s0 = u64 [sp + 0x60]\n 40297: s1 = u64 [sp + 0x58]\n 40300: sp = sp + 0x70\n 40303: ret\n      : @1277 (gas: 1)\n 40305: t0 = 1346, jump @1468\n      : @1278 [@dyn 673] (gas: 1)\n 40311: ra = 1348, jump @4\n      : @1279 [@dyn 674] (gas: 7)\n 40318: u64 [sp + 40] = 0\n 40321: u64 [sp + 32] = 0\n 40324: u64 [sp + 16] = 0x11\n 40328: a0 = 0x4\n 40331: a1 = sp + 0x10\n 40334: u64 [sp + 24] = 0\n 40337: ra = 1350, jump @4\n      : @1280 [@dyn 675] (gas: 2)\n 40344: a1 = i32 [0x20154]\n 40349: jump @1282 if a1 >u 63\n      : @1281 (gas: 2)\n 40353: u32 [0x20154] = 0x40\n 40359: fallthrough\n      : @1282 (gas: 7)\n 40360: a1 = 0x20160\n 40365: i32 a1 = a1 + 0\n 40367: a0 = 0x1\n 40370: a2 = 0x24\n 40373: ra = 0x548\n 40377: ecalli 11 // 'seal_return'\n 40379: fallthrough\n      : @1283 [@dyn 676] (gas: 6)\n 40380: sp = sp + 0xffffffffffffff20\n 40384: u64 [sp + 0xd8] = ra\n 40388: u64 [sp + 0xd0] = s0\n 40392: u64 [sp + 0xc8] = s1\n 40396: s0 = sp + 0xe0\n 40400: t0 = 1354, jump @1455\n      : @1284 [@dyn 677] (gas: 1)\n 40406: jump @1286 if a0 == 0\n      : @1285 (gas: 6)\n 40409: sp = s0 + 0xffffffffffffff20\n 40413: ra = u64 [sp + 0xd8]\n 40417: s0 = u64 [sp + 0xd0]\n 40421: s1 = u64 [sp + 0xc8]\n 40425: sp = sp + 0xe0\n 40429: ret\n      : @1286 (gas: 3)\n 40431: a0 = sp + 0xa0\n 40435: a1 = 0x40\n 40438: ra = 1356, jump @2\n      : @1287 [@dyn 678] (gas: 5)\n 40445: a2 = u64 [sp + 0xb8]\n 40449: s1 = u64 [sp + 0xb0]\n 40453: a0 = u64 [sp + 0xa8]\n 40457: a1 = u64 [sp + 0xa0]\n 40461: t0 = 1358, jump @1448\n      : @1288 [@dyn 679] (gas: 1)\n 40467: jump @1299 if a0 != 0\n      : @1289 (gas: 1)\n 40470: t0 = 1360, jump @1470\n      : @1290 [@dyn 680] (gas: 1)\n 40476: ra = 1362, jump @4\n      : @1291 [@dyn 681] (gas: 1)\n 40483: t0 = 1364, jump @1429\n      : @1292 [@dyn 682] (gas: 1)\n 40489: jump @1299 if a0 == 0\n      : @1293 (gas: 8)\n 40492: a0 = u64 [sp + 0x18]\n 40495: i32 a0 = a0 + 0x4\n 40498: u64 [sp + 120] = 0\n 40501: u64 [sp + 112] = 0\n 40504: u64 [sp + 96] = 0x20\n 40508: a1 = sp + 0x60\n 40511: u64 [sp + 104] = 0\n 40514: ra = 1366, jump @4\n      : @1294 [@dyn 683] (gas: 1)\n 40521: t0 = 1368, jump @1442\n      : @1295 [@dyn 684] (gas: 1)\n 40527: jump @1299 if a0 == 0\n      : @1296 (gas: 8)\n 40530: s1 = u64 [sp + 0x18]\n 40533: i32 a0 = s1 + 0x24\n 40536: u64 [sp + 88] = 0\n 40539: u64 [sp + 80] = 0\n 40542: u64 [sp + 64] = 0x13\n 40546: a1 = sp + 0x40\n 40549: u64 [sp + 72] = 0\n 40552: ra = 1370, jump @4\n      : @1297 [@dyn 685] (gas: 2)\n 40559: a0 = 0xffffffbc\n 40569: t0 = 1372, jump @1446\n      : @1298 [@dyn 686] (gas: 1)\n 40575: jump @1300 if a0 != 0\n      : @1299 (gas: 1)\n 40578: trap\n      : @1300 (gas: 11)\n 40579: s1 = u64 [sp + 0x18]\n 40582: i32 a0 = s1 + 0x44\n 40585: a1 = u64 [0x20130]\n 40590: a2 = u64 [0x20138]\n 40595: u64 [sp + 0x38] = a1\n 40598: u64 [sp + 0x30] = a2\n 40601: a1 = 0x6973740000000000\n 40611: u64 [sp + 0x28] = a1\n 40614: a1 = sp + 0x20\n 40617: u64 [sp + 32] = 0\n 40620: ra = 1374, jump @4\n      : @1301 [@dyn 687] (gas: 3)\n 40627: a1 = 0x64\n 40630: a0 = s1\n 40632: ra = 1376, jump @15\n      : @1302 [@dyn 688] (gas: 6)\n 40639: i32 a1 = a0 + 0\n 40641: a0 = 0x1\n 40644: a2 = 0x64\n 40647: ra = 0x562\n 40651: ecalli 11 // 'seal_return'\n 40653: fallthrough\n      : @1303 [@dyn 689] (gas: 6)\n 40654: sp = sp + 0xffffffffffffff20\n 40658: u64 [sp + 0xd8] = ra\n 40662: u64 [sp + 0xd0] = s0\n 40666: u64 [sp + 0xc8] = s1\n 40670: s0 = sp + 0xe0\n 40674: t0 = 1380, jump @1455\n      : @1304 [@dyn 690] (gas: 1)\n 40680: jump @1306 if a0 == 0\n      : @1305 (gas: 6)\n 40683: sp = s0 + 0xffffffffffffff20\n 40687: ra = u64 [sp + 0xd8]\n 40691: s0 = u64 [sp + 0xd0]\n 40695: s1 = u64 [sp + 0xc8]\n 40699: sp = sp + 0xe0\n 40703: ret\n      : @1306 (gas: 3)\n 40705: a0 = sp + 0xa0\n 40709: a1 = 0x40\n 40712: ra = 1382, jump @2\n      : @1307 [@dyn 691] (gas: 5)\n 40719: a2 = u64 [sp + 0xb8]\n 40723: s1 = u64 [sp + 0xb0]\n 40727: a0 = u64 [sp + 0xa8]\n 40731: a1 = u64 [sp + 0xa0]\n 40735: t0 = 1384, jump @1448\n      : @1308 [@dyn 692] (gas: 1)\n 40741: jump @1319 if a0 != 0\n      : @1309 (gas: 1)\n 40744: t0 = 1386, jump @1470\n      : @1310 [@dyn 693] (gas: 1)\n 40750: ra = 1388, jump @4\n      : @1311 [@dyn 694] (gas: 1)\n 40757: t0 = 1390, jump @1429\n      : @1312 [@dyn 695] (gas: 1)\n 40763: jump @1319 if a0 == 0\n      : @1313 (gas: 8)\n 40766: a0 = u64 [sp + 0x18]\n 40769: i32 a0 = a0 + 0x4\n 40772: u64 [sp + 120] = 0\n 40775: u64 [sp + 112] = 0\n 40778: u64 [sp + 96] = 0x20\n 40782: a1 = sp + 0x60\n 40785: u64 [sp + 104] = 0\n 40788: ra = 1392, jump @4\n      : @1314 [@dyn 696] (gas: 1)\n 40795: t0 = 1394, jump @1442\n      : @1315 [@dyn 697] (gas: 1)\n 40801: jump @1319 if a0 == 0\n      : @1316 (gas: 8)\n 40804: s1 = u64 [sp + 0x18]\n 40807: i32 a0 = s1 + 0x24\n 40810: u64 [sp + 88] = 0\n 40813: u64 [sp + 80] = 0\n 40816: u64 [sp + 64] = 0x12\n 40820: a1 = sp + 0x40\n 40823: u64 [sp + 72] = 0\n 40826: ra = 1396, jump @4\n      : @1317 [@dyn 698] (gas: 2)\n 40833: a0 = 0xffffffbc\n 40843: t0 = 1398, jump @1446\n      : @1318 [@dyn 699] (gas: 1)\n 40849: jump @1320 if a0 != 0\n      : @1319 (gas: 1)\n 40852: trap\n      : @1320 (gas: 11)\n 40853: s1 = u64 [sp + 0x18]\n 40856: i32 a0 = s1 + 0x44\n 40859: a1 = u64 [0x20140]\n 40864: a2 = u64 [0x20148]\n 40869: u64 [sp + 0x38] = a1\n 40872: u64 [sp + 0x30] = a2\n 40875: a1 = 0x6564000000000000\n 40885: u64 [sp + 0x28] = a1\n 40888: a1 = sp + 0x20\n 40891: u64 [sp + 32] = 0\n 40894: ra = 1400, jump @4\n      : @1321 [@dyn 700] (gas: 3)\n 40901: a1 = 0x64\n 40904: a0 = s1\n 40906: ra = 1402, jump @15\n      : @1322 [@dyn 701] (gas: 6)\n 40913: i32 a1 = a0 + 0\n 40915: a0 = 0x1\n 40918: a2 = 0x64\n 40921: ra = 0x57c\n 40925: ecalli 11 // 'seal_return'\n 40927: fallthrough\n      : @1323 [@dyn 702] (gas: 22)\n 40928: sp = sp + 0xffffffffffffff40\n 40932: u64 [sp + 0xb8] = ra\n 40936: u64 [sp + 0xb0] = s0\n 40940: u64 [sp + 0xa8] = s1\n 40944: s0 = sp + 0xc0\n 40948: sp = sp & 0xfffffffffffffff0\n 40951: a4 = u64 [a1 + 0x10]\n 40954: a3 = u64 [a1 + 0x18]\n 40957: a5 = u64 [a1 + 0x8]\n 40960: a1 = u64 [a1]\n 40962: u64 [sp + 0x28] = a3\n 40965: u64 [sp + 0x20] = a5\n 40968: a5 = a5 | a3\n 40971: a3 = a1 | a4\n 40974: a3 = a3 | a5\n 40977: a3 = a3 >> 0x20\n 40980: u64 [sp + 0x30] = a4\n 40983: a4 = a4 | a5\n 40986: a4 = a4 << 0x20\n 40989: a3 = a3 | a4\n 40992: u64 [sp + 0x38] = a0\n 40995: jump @1327 if a3 != 0\n      : @1324 (gas: 10)\n 40999: a0 = u64 [a2 + 0x18]\n 41002: u64 [sp + 0x10] = a0\n 41005: s1 = u64 [a2 + 0x10]\n 41008: a0 = u64 [a2 + 0x8]\n 41011: u64 [sp + 0x8] = a0\n 41014: a0 = u64 [a2]\n 41016: u64 [sp] = a0\n 41018: a0 = sp + 0x80\n 41022: u64 [sp + 0x18] = a1\n 41025: ra = 1406, jump @2\n      : @1325 [@dyn 703] (gas: 19)\n 41032: t0 = u64 [sp + 0x10]\n 41035: a5 = u64 [sp + 0x8]\n 41038: t1 = u64 [sp]\n 41040: a0 = u64 [sp + 0x88]\n 41044: a1 = u64 [sp + 0x98]\n 41048: a2 = u64 [sp + 0x80]\n 41052: a3 = u64 [sp + 0x90]\n 41056: a4 = a0 ^ a5\n 41059: a0 = a5 <u a0\n 41062: a2 = t1 <u a2\n 41065: a2 = a0 if a4 != 0\n 41068: a0 = s1 <u a3\n 41071: a4 = a1 ^ t0\n 41074: a1 = t0 <u a1\n 41077: a1 = a0 if a4 == 0\n 41080: a3 = a3 ^ s1\n 41083: a3 = a3 | a4\n 41086: a1 = a2 if a3 == 0\n 41089: jump @1328 if a1 == 0\n      : @1326 (gas: 47)\n 41093: a0 = s1 >> 0x3b\n 41096: a1 = t0 << 0x5\n 41099: t0 = a1 | a0\n 41102: a1 = a5 >> 0x3b\n 41105: s1 = s1 << 0x5\n 41108: a1 = a1 | s1\n 41111: a2 = t1 >> 0x3b\n 41114: a3 = a5 << 0x5\n 41117: a2 = a2 | a3\n 41120: a3 = t1 << 0x5\n 41123: a0 = u64 [sp + 0x18]\n 41126: a3 = a3 + a0\n 41129: a4 = a3 <u a0\n 41132: a5 = u64 [sp + 0x20]\n 41135: a2 = a2 + a5\n 41138: a2 = a2 + a4\n 41141: a0 = a2 ^ a5\n 41144: s1 = a2 <u a5\n 41147: s1 = a4 if a0 == 0\n 41150: a5 = u64 [sp + 0x30]\n 41153: a1 = a1 + a5\n 41156: s1 = s1 + a1\n 41159: a4 = s1 <u a1\n 41162: a1 = a1 <u a5\n 41165: a5 = u64 [sp + 0x28]\n 41168: a0 = a5 + t0\n 41171: a0 = a0 + a1\n 41174: a0 = a0 + a4\n 41177: a1 = a3 + 0x20\n 41180: a3 = a1 <u a3\n 41183: a4 = a2 + a3\n 41186: a2 = a4 <u a2\n 41189: a2 = a3 if a3 == 0\n 41192: a2 = a2 + s1\n 41195: a3 = a2 <u s1\n 41198: a0 = a0 + a3\n 41201: a3 = u64 [sp + 0x38]\n 41204: u64 [a3] = a1\n 41206: u64 [a3 + 0x8] = a4\n 41209: u64 [a3 + 0x10] = a2\n 41212: u64 [a3 + 0x18] = a0\n 41215: sp = s0 + 0xffffffffffffff40\n 41219: ra = u64 [sp + 0xb8]\n 41223: s0 = u64 [sp + 0xb0]\n 41227: s1 = u64 [sp + 0xa8]\n 41231: sp = sp + 0xc0\n 41235: ret\n      : @1327 (gas: 1)\n 41237: trap\n      : @1328 (gas: 8)\n 41238: u64 [sp + 112] = 0\n 41241: u64 [sp + 104] = 0\n 41244: u64 [sp + 96] = 0\n 41247: a0 = 0x4e487b7100000000\n 41257: a1 = sp + 0x60\n 41260: u64 [sp + 0x78] = a0\n 41263: a0 = 0\n 41265: ra = 1408, jump @4\n      : @1329 [@dyn 704] (gas: 7)\n 41272: u64 [sp + 88] = 0\n 41275: u64 [sp + 80] = 0\n 41278: u64 [sp + 64] = 0x32\n 41282: a0 = 0x4\n 41285: a1 = sp + 0x40\n 41288: u64 [sp + 72] = 0\n 41291: ra = 1410, jump @4\n      : @1330 [@dyn 705] (gas: 2)\n 41298: a1 = i32 [0x20154]\n 41303: jump @1332 if a1 >u 63\n      : @1331 (gas: 2)\n 41307: u32 [0x20154] = 0x40\n 41313: fallthrough\n      : @1332 (gas: 7)\n 41314: a1 = 0x20160\n 41319: i32 a1 = a1 + 0\n 41321: a0 = 0x1\n 41324: a2 = 0x24\n 41327: ra = 0x584\n 41331: ecalli 11 // 'seal_return'\n 41333: fallthrough\n      : @1333 [@dyn 706] (gas: 24)\n 41334: sp = sp + 0xfffffffffffffa40\n 41338: a2 = sp + 0x500\n 41342: u64 [a2 + 0xb8] = ra\n 41346: u64 [a2 + 0xb0] = s0\n 41350: u64 [a2 + 0xa8] = s1\n 41354: s0 = sp + 0x5c0\n 41358: sp = sp & 0xffffffffffffffe0\n 41361: s1 = sp\n 41363: a2 = u64 [a1]\n 41365: a3 = u64 [a1 + 0x8]\n 41368: a4 = u64 [a1 + 0x10]\n 41371: a1 = u64 [a1 + 0x18]\n 41374: u64 [s1 + 0x40] = a0\n 41377: u64 [s1 + 0x70] = a1\n 41380: u64 [s1 + 0x438] = a1\n 41384: u64 [s1 + 0x58] = a4\n 41387: u64 [s1 + 0x430] = a4\n 41391: u64 [s1 + 0x60] = a3\n 41394: u64 [s1 + 0x428] = a3\n 41398: a1 = s1 + 0x420\n 41402: u64 [s1 + 0x68] = a2\n 41405: u64 [s1 + 0x420] = a2\n 41409: a0 = 0\n 41411: ra = 1414, jump @4\n      : @1334 [@dyn 707] (gas: 7)\n 41418: u64 [s1 + 1048] = 0\n 41422: u64 [s1 + 1040] = 0\n 41426: u64 [s1 + 1024] = 0x2\n 41431: a0 = 0x20\n 41434: a1 = s1 + 0x400\n 41438: u64 [s1 + 1032] = 0\n 41442: ra = 1416, jump @4\n      : @1335 [@dyn 708] (gas: 3)\n 41449: a2 = 0x20154\n 41454: a0 = i32 [0x20154]\n 41459: jump @1337 if a0 >u 63\n      : @1336 (gas: 2)\n 41463: u32 [0x20154] = 0x40\n 41469: fallthrough\n      : @1337 (gas: 13)\n 41470: u64 [s1 + 0x28] = a2\n 41473: a0 = sp + 0xffffffffffffffe0\n 41476: a2 = a0 & 0xffffffffffffffe0\n 41479: u64 [s1 + 0x78] = a2\n 41482: sp = a2\n 41484: a0 = 0x20160\n 41489: i32 a0 = a0 + 0\n 41491: i32 a2 = a2 + 0\n 41493: a1 = 0x40\n 41496: u64 [s1 + 0x20] = a0\n 41499: ra = 0x58a\n 41503: ecalli 7 // 'hash_keccak_256'\n 41505: fallthrough\n      : @1338 [@dyn 709] (gas: 6)\n 41506: a3 = u64 [s1 + 0x78]\n 41509: a0 = u64 [a3 + 0x18]\n 41512: a1 = u64 [a3 + 0x10]\n 41515: a2 = u64 [a3 + 0x8]\n 41518: a3 = u64 [a3]\n 41520: t0 = 1420, jump @1447\n      : @1339 [@dyn 710] (gas: 8)\n 41526: a4 = s1 + 0x400\n 41530: u64 [a4 + 0x58] = a3\n 41533: u64 [a4 + 0x50] = a2\n 41536: u64 [a4 + 0x48] = a1\n 41539: u64 [a4 + 0x40] = a0\n 41542: a0 = s1 + 0x3e0\n 41546: a1 = s1 + 0x440\n 41550: ra = 1422, jump @6\n      : @1340 [@dyn 711] (gas: 9)\n 41557: a4 = s1 + 0x300\n 41561: a0 = u64 [a4 + 0xf0]\n 41565: a1 = u64 [a4 + 0xf8]\n 41569: a2 = u64 [a4 + 0xe8]\n 41573: a3 = u64 [a4 + 0xe0]\n 41577: a1 = a1 | a2\n 41580: a0 = a0 | a3\n 41583: a0 = a0 | a1\n 41586: jump @1402 if a0 == 0\n      : @1341 (gas: 11)\n 41590: a0 = u64 [s1 + 0x68]\n 41593: u64 [s1 + 0x3c0] = a0\n 41597: a0 = u64 [s1 + 0x60]\n 41600: u64 [s1 + 0x3c8] = a0\n 41604: a0 = u64 [s1 + 0x58]\n 41607: u64 [s1 + 0x3d0] = a0\n 41611: a1 = s1 + 0x3c0\n 41615: a0 = u64 [s1 + 0x70]\n 41618: u64 [s1 + 0x3d8] = a0\n 41622: a0 = 0\n 41624: ra = 1424, jump @4\n      : @1342 [@dyn 712] (gas: 7)\n 41631: u64 [s1 + 952] = 0\n 41635: u64 [s1 + 944] = 0\n 41639: u64 [s1 + 928] = 0x2\n 41644: a0 = 0x20\n 41647: a1 = s1 + 0x3a0\n 41651: u64 [s1 + 936] = 0\n 41655: ra = 1426, jump @4\n      : @1343 [@dyn 713] (gas: 7)\n 41662: a0 = sp + 0xffffffffffffffe0\n 41665: a0 = a0 & 0xffffffffffffffe0\n 41668: u64 [s1 + 0x48] = a0\n 41671: sp = a0\n 41673: a2 = u64 [s1 + 0x28]\n 41676: a0 = i32 [a2]\n 41678: jump @1345 if a0 >u 63\n      : @1344 (gas: 2)\n 41682: u32 [a2 + 0] = 0x40\n 41685: fallthrough\n      : @1345 (gas: 12)\n 41686: a0 = sp + 0xffffffffffffffe0\n 41689: a0 = a0 & 0xffffffffffffffe0\n 41692: u64 [s1 + 0x78] = a0\n 41695: sp = a0\n 41697: i32 a2 = a0 + 0\n 41699: a1 = 0x40\n 41702: a0 = u64 [s1 + 0x20]\n 41705: ra = 0x594\n 41709: ecalli 7 // 'hash_keccak_256'\n 41711: a3 = u64 [s1 + 0x78]\n 41714: t0 = 0x596\n 41718: jump @1437\n      : @1346 [@dyn 714] (gas: 2)\n 41721: a3 = u64 [s1 + 0x78]\n 41724: t0 = 1430, jump @1437\n      : @1347 [@dyn 715] (gas: 12)\n 41730: u64 [s1 + 0x60] = a1\n 41733: a2 = u64 [s1 + 0x48]\n 41736: u64 [a2 + 0x18] = a1\n 41739: u64 [s1 + 0x68] = a0\n 41742: u64 [a2 + 0x10] = a0\n 41745: u64 [s1 + 0x58] = a4\n 41748: u64 [a2 + 0x8] = a4\n 41751: u64 [s1 + 0x50] = a5\n 41754: u64 [a2] = a5\n 41756: a0 = s1 + 0x380\n 41760: a1 = 0x40\n 41763: ra = 1432, jump @2\n      : @1348 [@dyn 716] (gas: 17)\n 41770: a4 = s1 + 0x300\n 41774: a0 = u64 [a4 + 0x98]\n 41778: u64 [s1 + 0x38] = a0\n 41781: a1 = u64 [a4 + 0x90]\n 41785: u64 [s1 + 0x30] = a1\n 41788: a3 = u64 [a4 + 0x88]\n 41792: u64 [s1 + 0x70] = a3\n 41795: a2 = u64 [a4 + 0x80]\n 41799: u64 [s1 + 0x78] = a2\n 41802: u64 [a4 + 0x78] = a0\n 41805: u64 [a4 + 0x70] = a1\n 41808: u64 [a4 + 0x68] = a3\n 41811: a0 = s1 + 0x360\n 41815: u64 [a4 + 0x60] = a2\n 41818: ra = 0x59a\n 41822: t0 = 0x4f8\n 41826: jump @1443\n      : @1349 [@dyn 717] (gas: 3)\n 41829: a0 = s1 + 0x340\n 41833: a1 = u64 [s1 + 0x48]\n 41836: ra = 1436, jump @6\n      : @1350 [@dyn 718] (gas: 6)\n 41843: a0 = u64 [s1 + 0x38]\n 41846: a1 = u64 [s1 + 0x70]\n 41849: a0 = a0 | a1\n 41852: a2 = u64 [s1 + 0x30]\n 41855: a1 = u64 [s1 + 0x78]\n 41858: t0 = 1438, jump @1472\n      : @1351 [@dyn 719] (gas: 1)\n 41864: jump @1405 if a0 != 0\n      : @1352 (gas: 12)\n 41868: a4 = s1 + 0x300\n 41872: a0 = u64 [a4 + 0x58]\n 41875: a1 = u64 [a4 + 0x50]\n 41878: a2 = u64 [a4 + 0x48]\n 41881: a3 = u64 [a4 + 0x40]\n 41884: u64 [a4 + 0x20] = a3\n 41887: u64 [a4 + 0x28] = a2\n 41890: u64 [a4 + 0x30] = a1\n 41893: a1 = s1 + 0x320\n 41897: u64 [a4 + 0x38] = a0\n 41900: a0 = u64 [s1 + 0x78]\n 41903: ra = 1440, jump @4\n      : @1353 [@dyn 720] (gas: 20)\n 41910: a0 = u64 [s1 + 0x50]\n 41913: a0 = a0 + 0x1\n 41916: a1 = a0 <u 0x1\n 41919: a2 = u64 [s1 + 0x58]\n 41922: a1 = a1 + a2\n 41925: a2 = a0 | a1\n 41928: a2 = a2 <u 0x1\n 41931: a3 = u64 [s1 + 0x68]\n 41934: a2 = a2 + a3\n 41937: a3 = a2 <u a3\n 41940: a4 = u64 [s1 + 0x60]\n 41943: a3 = a3 + a4\n 41946: a4 = s1 + 0x400\n 41950: u64 [a4 + 0x68] = a1\n 41953: u64 [a4 + 0x60] = a0\n 41956: u64 [a4 + 0x70] = a2\n 41959: u64 [a4 + 0x78] = a3\n 41962: a0 = s1 + 0x300\n 41966: a1 = s1 + 0x460\n 41970: ra = 1442, jump @6\n      : @1354 [@dyn 721] (gas: 13)\n 41977: a0 = u64 [s1 + 0x38]\n 41980: a2 = u64 [s1 + 0x30]\n 41983: a2 = a2 | a0\n 41986: a0 = 0x100000000\n 41996: u64 [s1 + 0x38] = a0\n 41999: a0 = 0xffffffe0\n 42009: a1 = u64 [s1 + 0x78]\n 42012: a0 = a1 <u a0\n 42015: a1 = u64 [s1 + 0x70]\n 42018: a0 = 0 if a1 != 0\n 42020: u64 [s1 + 0x48] = a2\n 42023: a0 = 0 if a2 != 0\n 42025: jump @1405 if a0 == 0\n      : @1355 (gas: 14)\n 42029: a0 = s1 + 0x300\n 42033: a2 = u64 [a0 + 0x18]\n 42036: a1 = u64 [a0 + 0x10]\n 42039: a3 = u64 [a0 + 0x8]\n 42042: a4 = u64 [a0]\n 42044: a0 = u64 [s1 + 0x78]\n 42047: i32 a0 = a0 + 0x20\n 42050: a5 = s1 + 0x200\n 42054: u64 [a5 + 0xe0] = a4\n 42058: u64 [a5 + 0xe8] = a3\n 42062: u64 [a5 + 0xf0] = a1\n 42066: a1 = s1 + 0x2e0\n 42070: u64 [a5 + 0xf8] = a2\n 42074: ra = 1444, jump @4\n      : @1356 [@dyn 722] (gas: 3)\n 42081: a1 = u64 [s1 + 0x50]\n 42084: a0 = a1 + 0x2\n 42087: t0 = 1446, jump @1418\n      : @1357 [@dyn 723] (gas: 7)\n 42093: u64 [a4 + 0x88] = a2\n 42097: u64 [a4 + 0x80] = a0\n 42101: u64 [a4 + 0x90] = a3\n 42105: u64 [a4 + 0x98] = a1\n 42109: a0 = s1 + 0x2c0\n 42113: a1 = s1 + 0x480\n 42117: ra = 1448, jump @6\n      : @1358 [@dyn 724] (gas: 3)\n 42124: a0 = u64 [s1 + 0x38]\n 42127: a0 = a0 + 0xffffffffffffffc0\n 42130: t0 = 1450, jump @1420\n      : @1359 [@dyn 725] (gas: 1)\n 42136: jump @1405 if a0 == 0\n      : @1360 (gas: 14)\n 42140: a5 = s1 + 0x200\n 42144: a4 = u64 [a5 + 0xd8]\n 42148: a1 = u64 [a5 + 0xd0]\n 42152: a2 = u64 [a5 + 0xc8]\n 42156: a3 = u64 [a5 + 0xc0]\n 42160: a0 = u64 [s1 + 0x78]\n 42163: i32 a0 = a0 + 0x40\n 42166: u64 [a5 + 0xa0] = a3\n 42170: u64 [a5 + 0xa8] = a2\n 42174: u64 [a5 + 0xb0] = a1\n 42178: a1 = s1 + 0x2a0\n 42182: u64 [a5 + 0xb8] = a4\n 42186: u64 [s1 + 0x18] = a0\n 42189: ra = 1452, jump @4\n      : @1361 [@dyn 726] (gas: 3)\n 42196: a1 = u64 [s1 + 0x50]\n 42199: a0 = a1 + 0x3\n 42202: t0 = 1454, jump @1418\n      : @1362 [@dyn 727] (gas: 7)\n 42208: u64 [a4 + 0xa8] = a2\n 42212: u64 [a4 + 0xa0] = a0\n 42216: u64 [a4 + 0xb0] = a3\n 42220: u64 [a4 + 0xb8] = a1\n 42224: a0 = s1 + 0x280\n 42228: a1 = s1 + 0x4a0\n 42232: ra = 1456, jump @6\n      : @1363 [@dyn 728] (gas: 4)\n 42239: a0 = 0x100000000\n 42249: u64 [s1 + 0x38] = a0\n 42252: a0 = 0xffffffa0\n 42262: t0 = 1458, jump @1420\n      : @1364 [@dyn 729] (gas: 1)\n 42268: jump @1405 if a0 == 0\n      : @1365 (gas: 14)\n 42272: a5 = s1 + 0x200\n 42276: a4 = u64 [a5 + 0x98]\n 42280: a1 = u64 [a5 + 0x90]\n 42284: a2 = u64 [a5 + 0x88]\n 42288: a3 = u64 [a5 + 0x80]\n 42292: a0 = u64 [s1 + 0x78]\n 42295: i32 a0 = a0 + 0x60\n 42298: u64 [a5 + 0x60] = a3\n 42301: u64 [a5 + 0x68] = a2\n 42304: u64 [a5 + 0x70] = a1\n 42307: a1 = s1 + 0x260\n 42311: u64 [a5 + 0x78] = a4\n 42314: u64 [s1 + 0x30] = a0\n 42317: ra = 1460, jump @4\n      : @1366 [@dyn 730] (gas: 3)\n 42324: a1 = u64 [s1 + 0x50]\n 42327: a0 = a1 + 0x4\n 42330: t0 = 1462, jump @1418\n      : @1367 [@dyn 731] (gas: 7)\n 42336: u64 [a4 + 0xc8] = a2\n 42340: u64 [a4 + 0xc0] = a0\n 42344: u64 [a4 + 0xd0] = a3\n 42348: u64 [a4 + 0xd8] = a1\n 42352: a0 = s1 + 0x240\n 42356: a1 = s1 + 0x4c0\n 42360: ra = 1464, jump @6\n      : @1368 [@dyn 732] (gas: 3)\n 42367: a0 = u64 [s1 + 0x38]\n 42370: a0 = a0 + 0xffffffffffffff80\n 42373: t0 = 1466, jump @1420\n      : @1369 [@dyn 733] (gas: 1)\n 42379: jump @1405 if a0 == 0\n      : @1370 (gas: 13)\n 42383: a5 = s1 + 0x200\n 42387: a2 = u64 [a5 + 0x58]\n 42390: a1 = u64 [a5 + 0x50]\n 42393: a3 = u64 [a5 + 0x48]\n 42396: a4 = u64 [a5 + 0x40]\n 42399: a0 = u64 [s1 + 0x78]\n 42402: i32 a0 = a0 + 0x80\n 42406: u64 [a5 + 0x20] = a4\n 42409: u64 [a5 + 0x28] = a3\n 42412: u64 [a5 + 0x30] = a1\n 42415: a1 = s1 + 0x220\n 42419: u64 [a5 + 0x38] = a2\n 42422: ra = 1468, jump @4\n      : @1371 [@dyn 734] (gas: 3)\n 42429: a1 = u64 [s1 + 0x50]\n 42432: a0 = a1 + 0x5\n 42435: t0 = 1470, jump @1418\n      : @1372 [@dyn 735] (gas: 7)\n 42441: u64 [a4 + 0xe8] = a2\n 42445: u64 [a4 + 0xe0] = a0\n 42449: u64 [a4 + 0xf0] = a3\n 42453: u64 [a4 + 0xf8] = a1\n 42457: a0 = s1 + 0x200\n 42461: a1 = s1 + 0x4e0\n 42465: ra = 1472, jump @6\n      : @1373 [@dyn 736] (gas: 4)\n 42472: a0 = 0x100000000\n 42482: u64 [s1 + 0x38] = a0\n 42485: a0 = 0xffffff60\n 42495: t0 = 1474, jump @1420\n      : @1374 [@dyn 737] (gas: 1)\n 42501: jump @1405 if a0 == 0\n      : @1375 (gas: 14)\n 42505: a0 = s1 + 0x200\n 42509: a2 = u64 [a0 + 0x18]\n 42512: a1 = u64 [a0 + 0x10]\n 42515: a3 = u64 [a0 + 0x8]\n 42518: a4 = u64 [a0]\n 42520: a0 = u64 [s1 + 0x78]\n 42523: i32 a0 = a0 + 0xa0\n 42527: a5 = s1 + 0x100\n 42531: u64 [a5 + 0xe0] = a4\n 42535: u64 [a5 + 0xe8] = a3\n 42539: u64 [a5 + 0xf0] = a1\n 42543: a1 = s1 + 0x1e0\n 42547: u64 [a5 + 0xf8] = a2\n 42551: ra = 1476, jump @4\n      : @1376 [@dyn 738] (gas: 3)\n 42558: a1 = u64 [s1 + 0x50]\n 42561: a0 = a1 + 0x6\n 42564: t0 = 1478, jump @1424\n      : @1377 [@dyn 739] (gas: 7)\n 42570: u64 [a4 + 0x8] = a2\n 42573: u64 [a4] = a0\n 42575: u64 [a4 + 0x10] = a3\n 42578: u64 [a4 + 0x18] = a1\n 42581: a0 = s1 + 0x1c0\n 42585: a1 = s1 + 0x500\n 42589: ra = 1480, jump @6\n      : @1378 [@dyn 740] (gas: 3)\n 42596: a0 = u64 [s1 + 0x38]\n 42599: a0 = a0 + 0xffffffffffffff40\n 42603: t0 = 1482, jump @1420\n      : @1379 [@dyn 741] (gas: 1)\n 42609: jump @1405 if a0 == 0\n      : @1380 (gas: 15)\n 42613: a4 = s1 + 0x100\n 42617: a0 = u64 [a4 + 0xd0]\n 42621: u64 [s1 + 0x38] = a0\n 42624: a1 = u64 [a4 + 0xc8]\n 42628: a2 = u64 [a4 + 0xc0]\n 42632: a0 = a0 << 0x20\n 42635: a3 = a0 >> 0x20\n 42638: a0 = u64 [s1 + 0x78]\n 42641: i32 a0 = a0 + 0xc0\n 42645: u64 [s1 + 440] = 0\n 42649: u64 [a4 + 0xa0] = a2\n 42653: u64 [a4 + 0xa8] = a1\n 42657: a1 = s1 + 0x1a0\n 42661: u64 [a4 + 0xb0] = a3\n 42665: ra = 1484, jump @4\n      : @1381 [@dyn 742] (gas: 4)\n 42672: a1 = u64 [s1 + 0x38]\n 42675: a1 = a1 << 0x18\n 42678: a1 = a1 >> 0x38\n 42681: jump @1406 if a1 >u 3\n      : @1382 (gas: 10)\n 42686: a0 = 0x100000000\n 42696: u64 [s1 + 0x38] = a0\n 42699: a0 = 0xffffff20\n 42709: a2 = u64 [s1 + 0x78]\n 42712: a0 = a2 <u a0\n 42715: a2 = u64 [s1 + 0x70]\n 42718: a0 = 0 if a2 != 0\n 42720: a2 = u64 [s1 + 0x48]\n 42723: a0 = 0 if a2 != 0\n 42725: jump @1405 if a0 == 0\n      : @1383 (gas: 8)\n 42729: a0 = u64 [s1 + 0x78]\n 42732: i32 a0 = a0 + 0xe0\n 42736: u64 [s1 + 408] = 0\n 42740: u64 [s1 + 400] = 0\n 42744: u64 [s1 + 0x180] = a1\n 42748: a1 = s1 + 0x180\n 42752: u64 [s1 + 392] = 0\n 42756: ra = 1486, jump @4\n      : @1384 [@dyn 743] (gas: 3)\n 42763: a1 = u64 [s1 + 0x50]\n 42766: a0 = a1 + 0x7\n 42769: t0 = 1488, jump @1424\n      : @1385 [@dyn 744] (gas: 7)\n 42775: u64 [a4 + 0x20] = a0\n 42778: u64 [a4 + 0x28] = a2\n 42781: u64 [a4 + 0x30] = a3\n 42784: u64 [a4 + 0x38] = a1\n 42787: a0 = s1 + 0x160\n 42791: a1 = s1 + 0x520\n 42795: ra = 1490, jump @6\n      : @1386 [@dyn 745] (gas: 3)\n 42802: a0 = u64 [s1 + 0x38]\n 42805: a0 = a0 + 0xffffffffffffff00\n 42809: t0 = 1492, jump @1420\n      : @1387 [@dyn 746] (gas: 1)\n 42815: jump @1405 if a0 == 0\n      : @1388 (gas: 13)\n 42819: a5 = s1 + 0x100\n 42823: a2 = u64 [a5 + 0x78]\n 42826: a1 = u64 [a5 + 0x70]\n 42829: a3 = u64 [a5 + 0x68]\n 42832: a4 = u64 [a5 + 0x60]\n 42835: a0 = u64 [s1 + 0x78]\n 42838: i32 a0 = a0 + 0x100\n 42842: u64 [a5 + 0x40] = a4\n 42845: u64 [a5 + 0x48] = a3\n 42848: u64 [a5 + 0x50] = a1\n 42851: a1 = s1 + 0x140\n 42855: u64 [a5 + 0x58] = a2\n 42858: ra = 1494, jump @4\n      : @1389 [@dyn 747] (gas: 3)\n 42865: a1 = u64 [s1 + 0x50]\n 42868: a0 = a1 + 0x8\n 42871: t0 = 1496, jump @1424\n      : @1390 [@dyn 748] (gas: 7)\n 42877: u64 [a4 + 0x48] = a2\n 42880: u64 [a4 + 0x40] = a0\n 42883: u64 [a4 + 0x50] = a3\n 42886: u64 [a4 + 0x58] = a1\n 42889: a0 = s1 + 0x120\n 42893: a1 = s1 + 0x540\n 42897: ra = 1498, jump @6\n      : @1391 [@dyn 749] (gas: 2)\n 42904: a0 = 0xfffffee0\n 42914: t0 = 1500, jump @1420\n      : @1392 [@dyn 750] (gas: 1)\n 42920: jump @1405 if a0 == 0\n      : @1393 (gas: 11)\n 42924: a0 = u64 [s1 + 0x120]\n 42928: a0 = a0 & 0xff\n 42932: a1 = a0 >u 0\n 42934: a0 = u64 [s1 + 0x78]\n 42937: i32 a0 = a0 + 0x120\n 42941: u64 [s1 + 280] = 0\n 42945: u64 [s1 + 272] = 0\n 42949: u64 [s1 + 0x100] = a1\n 42953: a1 = s1 + 0x100\n 42957: u64 [s1 + 264] = 0\n 42961: ra = 1502, jump @4\n      : @1394 [@dyn 751] (gas: 3)\n 42968: a0 = s1 + 0xe0\n 42972: a1 = u64 [s1 + 0x30]\n 42975: ra = 1504, jump @2\n      : @1395 [@dyn 752] (gas: 12)\n 42982: a0 = u64 [s1 + 0xe0]\n 42986: u64 [s1 + 0x78] = a0\n 42989: a0 = u64 [s1 + 0xe8]\n 42993: u64 [s1 + 0x70] = a0\n 42996: a0 = u64 [s1 + 0xf0]\n 43000: u64 [s1 + 0x68] = a0\n 43003: a0 = u64 [s1 + 0xf8]\n 43007: u64 [s1 + 0x60] = a0\n 43010: i32 a0 = s1 + 0x560\n 43014: ra = 0x5e2\n 43018: ecalli 8 // 'now'\n 43020: fallthrough\n      : @1396 [@dyn 753] (gas: 17)\n 43021: a1 = s1 + 0x500\n 43025: a0 = u64 [a1 + 0x78]\n 43028: t0 = u64 [s1 + 0x560]\n 43032: a2 = u64 [a1 + 0x70]\n 43035: a3 = u64 [a1 + 0x68]\n 43038: a1 = u64 [s1 + 0x60]\n 43041: a4 = a0 ^ a1\n 43044: a1 = a0 <u a1\n 43047: a0 = u64 [s1 + 0x68]\n 43050: a5 = a2 <u a0\n 43053: a5 = a1 if a4 != 0\n 43056: a1 = u64 [s1 + 0x70]\n 43059: t1 = a3 ^ a1\n 43062: a3 = a3 <u a1\n 43065: a1 = u64 [s1 + 0x78]\n 43068: a1 = t0 <u a1\n 43071: t0 = 1508, jump @1456\n      : @1397 [@dyn 754] (gas: 1)\n 43077: jump @1403 if a1 == 0\n      : @1398 (gas: 3)\n 43081: a0 = s1 + 0xc0\n 43085: a1 = u64 [s1 + 0x18]\n 43088: ra = 1510, jump @2\n      : @1399 [@dyn 755] (gas: 12)\n 43095: a0 = u64 [s1 + 0xc0]\n 43099: u64 [s1 + 0x78] = a0\n 43102: a0 = u64 [s1 + 0xc8]\n 43106: u64 [s1 + 0x70] = a0\n 43109: a0 = u64 [s1 + 0xd0]\n 43113: u64 [s1 + 0x68] = a0\n 43116: a0 = u64 [s1 + 0xd8]\n 43120: u64 [s1 + 0x60] = a0\n 43123: i32 a0 = s1 + 0x580\n 43127: ra = 0x5e8\n 43131: ecalli 8 // 'now'\n 43133: fallthrough\n      : @1400 [@dyn 756] (gas: 17)\n 43134: a1 = s1 + 0x500\n 43138: a0 = u64 [a1 + 0x98]\n 43142: t0 = u64 [s1 + 0x580]\n 43146: a2 = u64 [a1 + 0x90]\n 43150: a3 = u64 [a1 + 0x88]\n 43154: a1 = u64 [s1 + 0x60]\n 43157: a4 = a0 ^ a1\n 43160: a1 = a0 <u a1\n 43163: a0 = u64 [s1 + 0x68]\n 43166: a5 = a2 <u a0\n 43169: a5 = a1 if a4 != 0\n 43172: a1 = u64 [s1 + 0x70]\n 43175: t1 = a3 ^ a1\n 43178: a3 = a3 <u a1\n 43181: a1 = u64 [s1 + 0x78]\n 43184: a1 = t0 <u a1\n 43187: t0 = 1514, jump @1456\n      : @1401 [@dyn 757] (gas: 5)\n 43193: a0 = a1 <u 0x3\n 43196: a0 = a0 + 0xffffffffffffffff\n 43199: a1 = 0x2 - a1\n 43202: a2 = a0\n 43204: jump @1404\n      : @1402 (gas: 3)\n 43206: a1 = 0\n 43208: a2 = 0\n 43210: jump @1404\n      : @1403 (gas: 4)\n 43212: a0 = 0\n 43214: a2 = 0\n 43216: a1 = 0x3\n 43219: fallthrough\n      : @1404 (gas: 12)\n 43220: a3 = u64 [s1 + 0x40]\n 43223: u64 [a3] = a1\n 43225: u64 [a3 + 0x8] = a0\n 43228: u64 [a3 + 0x10] = a2\n 43231: u64 [a3 + 0x18] = a0\n 43234: sp = s0 + 0xfffffffffffffa40\n 43238: a0 = sp + 0x500\n 43242: ra = u64 [a0 + 0xb8]\n 43246: s0 = u64 [a0 + 0xb0]\n 43250: s1 = u64 [a0 + 0xa8]\n 43254: sp = sp + 0x5c0\n 43258: ret\n      : @1405 (gas: 1)\n 43260: trap\n      : @1406 (gas: 1)\n 43261: t0 = 1516, jump @1450\n      : @1407 [@dyn 758] (gas: 1)\n 43267: ra = 1518, jump @4\n      : @1408 [@dyn 759] (gas: 7)\n 43274: u64 [s1 + 152] = 0\n 43278: u64 [s1 + 144] = 0\n 43282: u64 [s1 + 128] = 0x21\n 43287: a0 = 0x4\n 43290: a1 = s1 + 0x80\n 43294: u64 [s1 + 136] = 0\n 43298: ra = 1520, jump @4\n      : @1409 [@dyn 760] (gas: 3)\n 43305: a0 = u64 [s1 + 0x28]\n 43308: a0 = i32 [a0]\n 43310: jump @1411 if a0 >u 63\n      : @1410 (gas: 3)\n 43314: a1 = u64 [s1 + 0x28]\n 43317: u32 [a1 + 0] = 0x40\n 43320: fallthrough\n      : @1411 (gas: 7)\n 43321: a0 = 0x1\n 43324: a2 = 0x24\n 43327: a1 = u64 [s1 + 0x20]\n 43330: ecalli 11 // 'seal_return'\n 43332: a0 = 0\n 43334: ra = 0x5f2\n 43338: jump @21\n      : @1412 [export #0: 'call'] (gas: 2)\n 43342: a0 = 0\n 43344: ra = 1522, jump @21\n      : @1413 [@dyn 761] [export #1: 'deploy'] (gas: 2)\n 43351: a0 = 0x1\n 43354: ra = 1524, jump @21\n      : @1414 [@dyn 762] (gas: 13)\n 43361: a1 = a0 <u a1\n 43364: a3 = u64 [s1 + 0x1b0]\n 43368: a2 = a3 + a1\n 43371: a3 = a2 <u a3\n 43374: a3 = a1 if a1 == 0\n 43377: a1 = u64 [s1 + 0x1a0]\n 43381: a3 = a3 + a1\n 43384: a1 = a3 <u a1\n 43387: a4 = u64 [s1 + 0x1b8]\n 43391: a1 = a1 + a4\n 43394: a4 = s1 + 0x3158\n 43398: a5 = a4 + 0x100\n 43402: jump [t0]\n      : @1415 (gas: 12)\n 43404: a5 = s1 + 0x100\n 43408: a1 = u64 [a5 + 0xb8]\n 43412: a0 = u64 [a5 + 0xa8]\n 43416: a3 = u64 [a5 + 0xa0]\n 43420: a3 = a3 | a0\n 43423: a4 = 0x100000000\n 43433: a0 = 0xfffffffc\n 43443: a0 = a1 <u a0\n 43446: a2 = u64 [a5 + 0xb0]\n 43450: a0 = 0 if a2 != 0\n 43452: a0 = 0 if a3 != 0\n 43454: jump [t0]\n      : @1416 (gas: 7)\n 43456: a4 = 0x100000000\n 43466: a0 = 0xfffffffc\n 43476: a0 = a1 <u a0\n 43479: a2 = u64 [a5 + 0xb0]\n 43483: a0 = 0 if a2 != 0\n 43485: a0 = 0 if a3 != 0\n 43487: jump [t0]\n      : @1417 (gas: 10)\n 43489: a4 = s1 + 0x100\n 43493: a3 = u64 [a4 + 0xa8]\n 43497: a2 = u64 [a4 + 0xb0]\n 43501: a1 = u64 [a4 + 0xb8]\n 43505: a0 = u64 [a4 + 0xa0]\n 43509: a0 = a0 + 0xffffffffffffffdc\n 43512: a0 = a1 <u a0\n 43515: a0 = 0 if a2 != 0\n 43517: a0 = 0 if a3 != 0\n 43519: jump [t0]\n      : @1418 (gas: 12)\n 43521: a1 = a0 <u a1\n 43524: a3 = u64 [s1 + 0x58]\n 43527: a2 = a3 + a1\n 43530: a3 = a2 <u a3\n 43533: a3 = a1 if a1 == 0\n 43536: a1 = u64 [s1 + 0x68]\n 43539: a3 = a3 + a1\n 43542: a1 = a3 <u a1\n 43545: a4 = u64 [s1 + 0x60]\n 43548: a1 = a1 + a4\n 43551: a4 = s1 + 0x400\n 43555: jump [t0]\n      : @1419 (gas: 9)\n 43557: a2 = s1 + 0x100\n 43561: a3 = u64 [a2 + 0xb8]\n 43565: a0 = 0xffffffbc\n 43575: a0 = a3 <u a0\n 43578: a1 = u64 [a2 + 0xb0]\n 43582: a0 = 0 if a1 != 0\n 43584: a1 = u64 [a2 + 0xa8]\n 43588: a0 = 0 if a1 != 0\n 43590: jump [t0]\n      : @1420 (gas: 7)\n 43592: a1 = u64 [s1 + 0x78]\n 43595: a0 = a1 <u a0\n 43598: a1 = u64 [s1 + 0x70]\n 43601: a0 = 0 if a1 != 0\n 43603: a1 = u64 [s1 + 0x48]\n 43606: a0 = 0 if a1 != 0\n 43608: jump [t0]\n      : @1421 (gas: 19)\n 43610: a3 = u64 [s1 + 0x188]\n 43614: a0 = u64 [a3]\n 43616: a1 = u64 [a3 + 0x8]\n 43619: a2 = u64 [a3 + 0x10]\n 43622: a3 = u64 [a3 + 0x18]\n 43625: a0 = reverse a0\n 43627: a1 = reverse a1\n 43629: a2 = reverse a2\n 43631: a3 = reverse a3\n 43633: a4 = a3 + 0x6\n 43636: a3 = a4 <u a3\n 43639: a5 = a2 + a3\n 43642: a2 = a5 <u a2\n 43645: a2 = a3 if a3 == 0\n 43648: a2 = a2 + a1\n 43651: a1 = a2 <u a1\n 43654: a0 = a0 + a1\n 43657: a1 = s1 + 0x3958\n 43661: jump [t0]\n      : @1422 (gas: 19)\n 43663: a3 = u64 [s1 + 0x188]\n 43667: a0 = u64 [a3]\n 43669: a1 = u64 [a3 + 0x8]\n 43672: a2 = u64 [a3 + 0x10]\n 43675: a3 = u64 [a3 + 0x18]\n 43678: a0 = reverse a0\n 43680: a1 = reverse a1\n 43682: a2 = reverse a2\n 43684: a3 = reverse a3\n 43686: a4 = a3 + 0x5\n 43689: a3 = a4 <u a3\n 43692: a5 = a2 + a3\n 43695: a2 = a5 <u a2\n 43698: a2 = a3 if a3 == 0\n 43701: a2 = a2 + a1\n 43704: a1 = a2 <u a1\n 43707: a0 = a0 + a1\n 43710: a1 = s1 + 0x3158\n 43714: jump [t0]\n      : @1423 (gas: 14)\n 43716: a0 = u64 [a2 + 0x8]\n 43719: a1 = u64 [a2]\n 43721: a2 = i32 [a2 + 0x10]\n 43724: a0 = reverse a0\n 43726: a3 = a0 >> 0x20\n 43729: a1 = reverse a1\n 43731: a4 = a1 << 0x20\n 43734: a3 = a3 | a4\n 43737: a0 = a0 << 0x20\n 43740: a2 = reverse a2\n 43742: a2 = a2 >> 0x20\n 43745: a0 = a0 | a2\n 43748: a1 = a1 >> 0x20\n 43751: jump [t0]\n      : @1424 (gas: 12)\n 43753: a1 = a0 <u a1\n 43756: a3 = u64 [s1 + 0x58]\n 43759: a2 = a3 + a1\n 43762: a3 = a2 <u a3\n 43765: a3 = a1 if a1 == 0\n 43768: a1 = u64 [s1 + 0x68]\n 43771: a3 = a3 + a1\n 43774: a1 = a3 <u a1\n 43777: a4 = u64 [s1 + 0x60]\n 43780: a1 = a1 + a4\n 43783: a4 = s1 + 0x500\n 43787: jump [t0]\n      : @1425 (gas: 19)\n 43789: a3 = u64 [s1 + 0x1b8]\n 43793: a0 = u64 [a3 + 0x18]\n 43796: a1 = u64 [a3 + 0x10]\n 43799: a2 = u64 [a3 + 0x8]\n 43802: a3 = u64 [a3]\n 43804: a5 = reverse a0\n 43806: u64 [s1 + 0x1a8] = a5\n 43810: a4 = reverse a1\n 43812: u64 [s1 + 0x1b0] = a4\n 43816: a2 = reverse a2\n 43818: u64 [s1 + 0x1a0] = a2\n 43822: a0 = reverse a3\n 43824: u64 [s1 + 0x1b8] = a0\n 43828: a1 = u64 [s1 + 0x190]\n 43832: u64 [a1 + 0x18] = a0\n 43835: u64 [a1 + 0x10] = a2\n 43838: u64 [a1 + 0x8] = a4\n 43841: u64 [a1] = a5\n 43843: jump [t0]\n      : @1426 (gas: 10)\n 43845: a0 = u64 [a3 + 0x18]\n 43848: a1 = u64 [a3 + 0x10]\n 43851: a2 = u64 [a3 + 0x8]\n 43854: a3 = u64 [a3]\n 43856: a0 = reverse a0\n 43858: a1 = reverse a1\n 43860: a2 = reverse a2\n 43862: a3 = reverse a3\n 43864: a4 = s1 + 0x3958\n 43868: jump [t0]\n      : @1427 (gas: 8)\n 43870: a0 = sp + 0xffffffffffffffe0\n 43873: a0 = a0 & 0xffffffffffffffe0\n 43876: u64 [s1 + 0x188] = a0\n 43880: sp = a0\n 43882: i32 a2 = a0 + 0\n 43884: a1 = 0x40\n 43887: a0 = u64 [s1 + 0x198]\n 43891: jump [t0]\n      : @1428 (gas: 19)\n 43893: a3 = u64 [s1 + 0x1b0]\n 43897: a0 = u64 [a3 + 0x18]\n 43900: a1 = u64 [a3 + 0x10]\n 43903: a2 = u64 [a3 + 0x8]\n 43906: a3 = u64 [a3]\n 43908: a0 = reverse a0\n 43910: a1 = reverse a1\n 43912: a2 = reverse a2\n 43914: a3 = reverse a3\n 43916: a4 = u64 [s1 + 0x1b8]\n 43920: u64 [s1 + 0x198] = a3\n 43924: u64 [a4 + 0x18] = a3\n 43927: u64 [s1 + 0x1a0] = a2\n 43931: u64 [a4 + 0x10] = a2\n 43934: u64 [s1 + 0x1a8] = a1\n 43938: u64 [a4 + 0x8] = a1\n 43941: u64 [s1 + 0x1b0] = a0\n 43945: u64 [a4] = a0\n 43947: jump [t0]\n      : @1429 (gas: 11)\n 43949: a2 = u64 [sp + 0x8]\n 43952: a2 = a2 | s1\n 43955: s1 = 0x100000000\n 43965: a0 = 0xfffffffc\n 43975: a1 = u64 [sp + 0x18]\n 43978: a0 = a1 <u a0\n 43981: a1 = u64 [sp + 0x10]\n 43984: a0 = 0 if a1 != 0\n 43986: u64 [sp + 0x8] = a2\n 43989: a0 = 0 if a2 != 0\n 43991: jump [t0]\n      : @1430 (gas: 5)\n 43993: sp = a0\n 43995: i32 a2 = a0 + 0\n 43997: a1 = 0x40\n 44000: a0 = u64 [s1 + 0x198]\n 44004: jump [t0]\n      : @1431 (gas: 8)\n 44006: u64 [sp + 48] = 0\n 44009: u64 [sp + 40] = 0\n 44012: u64 [sp + 32] = 0\n 44015: a0 = 0x4e487b7100000000\n 44025: a1 = sp + 0x20\n 44028: u64 [sp + 0x38] = a0\n 44031: a0 = 0\n 44033: jump [t0]\n      : @1432 (gas: 13)\n 44035: a1 = a0 <u a1\n 44038: a3 = u64 [s1 + 0x198]\n 44042: a2 = a3 + a1\n 44045: a3 = a2 <u a3\n 44048: a3 = a1 if a1 == 0\n 44051: a1 = u64 [s1 + 0x1a8]\n 44055: a3 = a3 + a1\n 44058: a1 = a3 <u a1\n 44061: a4 = u64 [s1 + 0x1a0]\n 44065: a1 = a1 + a4\n 44068: a4 = s1 + 0x3958\n 44072: a5 = a4 + 0x600\n 44076: jump [t0]\n      : @1433 (gas: 13)\n 44078: a1 = a0 <u a1\n 44081: a3 = u64 [s1 + 0x180]\n 44085: a2 = a3 + a1\n 44088: a3 = a2 <u a3\n 44091: a3 = a1 if a1 == 0\n 44094: a1 = u64 [s1 + 0x190]\n 44098: a3 = a3 + a1\n 44101: a1 = a3 <u a1\n 44104: a4 = u64 [s1 + 0x188]\n 44108: a1 = a1 + a4\n 44111: a4 = s1 + 0x3958\n 44115: a5 = a4 + 0x300\n 44119: jump [t0]\n      : @1434 (gas: 15)\n 44121: a0 = u64 [a3 + 0x18]\n 44124: a1 = u64 [a3 + 0x10]\n 44127: a2 = u64 [a3 + 0x8]\n 44130: a3 = u64 [a3]\n 44132: a0 = reverse a0\n 44134: u64 [s1 + 0x188] = a0\n 44138: a0 = reverse a1\n 44140: u64 [s1 + 0x180] = a0\n 44144: a0 = reverse a2\n 44146: u64 [s1 + 0x178] = a0\n 44150: a0 = reverse a3\n 44152: u64 [s1 + 0x170] = a0\n 44156: a0 = sp + 0xffffffffffffffe0\n 44159: a0 = a0 & 0xffffffffffffffe0\n 44162: jump [t0]\n      : @1435 (gas: 18)\n 44164: a1 = a0 <u a1\n 44167: a3 = u64 [a5 + 0x90]\n 44171: a2 = a3 + a1\n 44174: a3 = a2 <u a3\n 44177: a3 = a1 if a1 == 0\n 44180: a1 = u64 [a5 + 0x80]\n 44184: a3 = a3 + a1\n 44187: a1 = a3 <u a1\n 44190: a4 = u64 [a5 + 0x88]\n 44194: a1 = a1 + a4\n 44197: a4 = a0 | a3\n 44200: a1 = a1 | a2\n 44203: a4 = a4 | a1\n 44206: a4 = a4 >> 0x20\n 44209: a1 = a1 | a3\n 44212: a1 = a1 << 0x20\n 44215: a1 = a1 | a4\n 44218: jump [t0]\n      : @1436 (gas: 6)\n 44220: a0 = a1 <u a0\n 44223: a2 = u64 [a3 + 0x90]\n 44227: a0 = 0 if a2 != 0\n 44229: a2 = u64 [a3 + 0x88]\n 44233: a0 = 0 if a2 != 0\n 44235: jump [t0]\n      : @1437 (gas: 9)\n 44237: a0 = u64 [a3 + 0x18]\n 44240: a1 = u64 [a3 + 0x10]\n 44243: a2 = u64 [a3 + 0x8]\n 44246: a3 = u64 [a3]\n 44248: a5 = reverse a0\n 44250: a4 = reverse a1\n 44252: a0 = reverse a2\n 44254: a1 = reverse a3\n 44256: jump [t0]\n      : @1438 (gas: 8)\n 44258: a4 = a4 | a2\n 44261: a2 = a0 | a1\n 44264: a2 = a2 | a4\n 44267: a2 = a2 >> 0x20\n 44270: a1 = a1 | a4\n 44273: a1 = a1 << 0x20\n 44276: a1 = a1 | a2\n 44279: jump [t0]\n      : @1439 (gas: 12)\n 44281: a1 = a0 <u a1\n 44284: a3 = u64 [s1 + 0x30]\n 44287: a2 = a3 + a1\n 44290: a3 = a2 <u a3\n 44293: a3 = a1 if a1 == 0\n 44296: a1 = u64 [s1 + 0x38]\n 44299: a3 = a3 + a1\n 44302: a1 = a3 <u a1\n 44305: a4 = u64 [s1 + 0x40]\n 44308: a1 = a1 + a4\n 44311: a4 = s1 + 0x3958\n 44315: jump [t0]\n      : @1440 (gas: 14)\n 44317: a4 = a1 <u t1\n 44320: a5 = a0 + a4\n 44323: a0 = a5 <u a0\n 44326: a0 = a4 if a4 == 0\n 44329: a0 = a0 + a2\n 44332: a2 = a0 <u a2\n 44335: a2 = a2 + a3\n 44338: u64 [sp + 0x40] = a1\n 44341: u64 [sp + 0x48] = a5\n 44344: u64 [sp + 0x50] = a0\n 44347: a0 = 0x40\n 44350: a1 = sp + a0\n 44353: u64 [sp + 0x58] = a2\n 44356: jump [t0]\n      : @1441 (gas: 8)\n 44358: a0 = sp + 0xffffffffffffffe0\n 44361: a0 = a0 & 0xffffffffffffffe0\n 44364: u64 [s1 + 0x1b8] = a0\n 44368: sp = a0\n 44370: i32 a2 = a0 + 0\n 44372: a1 = 0x40\n 44375: a0 = u64 [s1 + 0xf8]\n 44379: jump [t0]\n      : @1442 (gas: 8)\n 44381: a0 = s1 + 0xffffffffffffffdc\n 44384: a1 = u64 [sp + 0x18]\n 44387: a0 = a1 <u a0\n 44390: a1 = u64 [sp + 0x10]\n 44393: a0 = 0 if a1 != 0\n 44395: a1 = u64 [sp + 0x8]\n 44398: a0 = 0 if a1 != 0\n 44400: jump [t0]\n      : @1443 (gas: 13)\n 44402: sp = sp + 0xffffffffffffff90\n 44405: u64 [sp + 0x68] = ra\n 44408: u64 [sp + 0x60] = s0\n 44411: s0 = sp + 0x70\n 44414: sp = sp & 0xfffffffffffffff0\n 44417: a3 = u64 [a0 + 0x18]\n 44420: a2 = u64 [a0 + 0x10]\n 44423: t1 = u64 [a0]\n 44425: a0 = u64 [a0 + 0x8]\n 44428: a4 = a3 >u 0\n 44430: a5 = a2 >u 0\n 44432: a5 = a4 if a3 != 0\n 44435: jump [t0]\n      : @1444 (gas: 7)\n 44437: a0 = sp + 0xffffffffffffffe0\n 44440: a0 = a0 & 0xffffffffffffffe0\n 44443: u64 [s1 + 0x1b8] = a0\n 44447: sp = a0\n 44449: i32 a2 = a0 + 0\n 44451: a1 = 0x40\n 44454: jump [t0]\n      : @1445 (gas: 7)\n 44456: a0 = sp + 0xffffffffffffffe0\n 44459: a0 = a0 & 0xffffffffffffffe0\n 44462: u64 [s1 + 0x1b8] = a0\n 44466: sp = a0\n 44468: i32 a2 = a0 + 0\n 44470: a1 = 0x20\n 44473: jump [t0]\n      : @1446 (gas: 6)\n 44475: a0 = s1 <u a0\n 44478: a1 = u64 [sp + 0x10]\n 44481: a0 = 0 if a1 != 0\n 44483: a1 = u64 [sp + 0x8]\n 44486: a0 = 0 if a1 != 0\n 44488: jump [t0]\n      : @1447 (gas: 5)\n 44490: a0 = reverse a0\n 44492: a1 = reverse a1\n 44494: a2 = reverse a2\n 44496: a3 = reverse a3\n 44498: jump [t0]\n      : @1448 (gas: 11)\n 44500: u64 [sp + 0x10] = a0\n 44503: u64 [sp + 0x8] = a2\n 44506: a0 = a0 | a2\n 44509: u64 [sp + 0x18] = a1\n 44512: a1 = a1 | s1\n 44515: a1 = a1 | a0\n 44518: a1 = a1 >> 0x20\n 44521: a0 = a0 | s1\n 44524: a0 = a0 << 0x20\n 44527: a0 = a0 | a1\n 44530: jump [t0]\n      : @1449 (gas: 8)\n 44532: a0 = a0 | a2\n 44535: a2 = a4 | a1\n 44538: a2 = a2 | a0\n 44541: a2 = a2 >> 0x20\n 44544: a0 = a0 | a1\n 44547: a0 = a0 << 0x20\n 44550: a0 = a0 | a2\n 44553: jump [t0]\n      : @1450 (gas: 8)\n 44555: u64 [s1 + 176] = 0\n 44559: u64 [s1 + 168] = 0\n 44563: u64 [s1 + 160] = 0\n 44567: a0 = 0x4e487b7100000000\n 44577: a1 = s1 + 0xa0\n 44581: u64 [s1 + 0xb8] = a0\n 44585: a0 = 0\n 44587: jump [t0]\n      : @1451 (gas: 9)\n 44589: a1 = a0 <u a1\n 44592: a3 = u64 [s1 + 0x178]\n 44596: a2 = a3 + a1\n 44599: a3 = a2 <u a3\n 44602: a3 = a1 if a1 == 0\n 44605: a1 = u64 [s1 + 0x190]\n 44609: a3 = a3 + a1\n 44612: a1 = a3 <u a1\n 44615: jump [t0]\n      : @1452 (gas: 11)\n 44617: a4 = a0 <u a2\n 44620: a3 = u64 [s1 + 0x30]\n 44623: a2 = a3 + a4\n 44626: a3 = a2 <u a3\n 44629: a3 = a4 if a4 == 0\n 44632: a4 = u64 [s1 + 0x38]\n 44635: a3 = a3 + a4\n 44638: a4 = a3 <u a4\n 44641: a5 = u64 [s1 + 0x40]\n 44644: a4 = a4 + a5\n 44647: jump [t0]\n      : @1453 (gas: 9)\n 44649: a3 = s1 + 0x100\n 44653: a2 = u64 [a3 + 0xb8]\n 44657: a0 = 0xffffffbc\n 44667: a0 = a2 <u a0\n 44670: a1 = u64 [a3 + 0xb0]\n 44674: a0 = 0 if a1 != 0\n 44676: a1 = u64 [a3 + 0xa8]\n 44680: a0 = 0 if a1 != 0\n 44682: jump [t0]\n      : @1454 (gas: 10)\n 44684: a0 = u64 [a3 + 0x18]\n 44687: a1 = u64 [a3 + 0x10]\n 44690: a2 = u64 [a3 + 0x8]\n 44693: a3 = u64 [a3]\n 44695: a0 = reverse a0\n 44697: a4 = reverse a1\n 44699: a2 = reverse a2\n 44701: a3 = reverse a3\n 44703: a1 = u64 [s1 + 0x180]\n 44707: jump [t0]\n      : @1455 (gas: 9)\n 44709: sp = sp & 0xfffffffffffffff0\n 44712: a1 = u64 [a0 + 0x10]\n 44715: a2 = u64 [a0 + 0x18]\n 44718: a3 = u64 [a0 + 0x8]\n 44721: a0 = u64 [a0]\n 44723: a2 = a2 | a3\n 44726: a0 = a0 | a1\n 44729: a0 = a0 | a2\n 44732: jump [t0]\n      : @1456 (gas: 5)\n 44734: a1 = a3 if t1 != 0\n 44737: a0 = a0 ^ a2\n 44740: a0 = a0 | a4\n 44743: a1 = a5 if a0 != 0\n 44746: jump [t0]\n      : @1457 (gas: 11)\n 44748: a3 = s1 + 0x100\n 44752: a0 = u64 [a3 + 0xa8]\n 44756: a1 = u64 [a3 + 0xa0]\n 44760: a0 = a0 | a1\n 44763: a1 = u64 [a3 + 0x8]\n 44766: a2 = u64 [a3 + 0xb8]\n 44770: a1 = a2 <u a1\n 44773: a2 = u64 [a3 + 0xb0]\n 44777: a1 = 0 if a2 != 0\n 44779: a1 = 0 if a0 != 0\n 44781: jump [t0]\n      : @1458 (gas: 5)\n 44783: sp = a0\n 44785: i32 a2 = a0 + 0\n 44787: a1 = 0x40\n 44790: a0 = u64 [s1 + 0x100]\n 44794: jump [t0]\n      : @1459 (gas: 5)\n 44796: a0 = sp + 0xffffffffffffffe0\n 44799: a2 = a0 & 0xffffffffffffffe0\n 44802: u64 [s1 + 0x1b8] = a2\n 44806: sp = a2\n 44808: jump [t0]\n      : @1460 (gas: 13)\n 44810: a4 = s1 + 0x100\n 44814: a1 = u64 [a4 + 0xb0]\n 44818: a2 = u64 [a4 + 0xa0]\n 44822: a1 = a1 | a2\n 44825: a3 = u64 [a4 + 0xa8]\n 44829: a2 = u64 [a4 + 0xb8]\n 44833: a2 = a2 | a3\n 44836: a2 = a2 | a1\n 44839: a2 = a2 >> 0x20\n 44842: a1 = a1 | a3\n 44845: a1 = a1 << 0x20\n 44848: a1 = a1 | a2\n 44851: jump [t0]\n      : @1461 (gas: 7)\n 44853: a1 = a0 | a3\n 44856: a1 = a1 | a2\n 44859: a1 = a1 >> 0x20\n 44862: a2 = a2 | a3\n 44865: a2 = a2 << 0x20\n 44868: a1 = a1 | a2\n 44871: jump [t0]\n      : @1462 (gas: 7)\n 44873: a0 = u64 [s1 + 0x1a8]\n 44877: a0 = a0 + 0x1\n 44880: a1 = a0 <u 0x1\n 44883: a2 = u64 [s1 + 0x1b0]\n 44887: a1 = a1 + a2\n 44890: a2 = s1 + 0x3158\n 44894: jump [t0]\n      : @1463 (gas: 4)\n 44896: a2 = a3 + a1\n 44899: a3 = a2 <u a3\n 44902: a3 = a1 if a1 == 0\n 44905: jump [t0]\n      : @1464 (gas: 6)\n 44907: a4 = 0xffffff00ffffffff\n 44917: a2 = a2 & a4\n 44920: a4 = 0x300000000\n 44930: a2 = a2 | a4\n 44933: a4 = s1 + 0x3958\n 44937: jump [t0]\n      : @1465 (gas: 6)\n 44939: a1 = u64 [s1 + 0x1a0]\n 44943: a3 = a3 + a1\n 44946: a1 = a3 <u a1\n 44949: a4 = u64 [s1 + 0x1b8]\n 44953: a1 = a1 + a4\n 44956: jump [t0]\n      : @1466 (gas: 8)\n 44958: a0 = sp + 0xffffffffffffffe0\n 44961: a0 = a0 & 0xffffffffffffffe0\n 44964: u64 [s1 + 0x188] = a0\n 44968: sp = a0\n 44970: i32 a2 = a0 + 0\n 44972: a1 = 0x40\n 44975: a0 = u64 [s1 + 0x190]\n 44979: jump [t0]\n      : @1467 (gas: 10)\n 44981: a3 = s1 + a0\n 44984: a4 = a3 + 0x300\n 44988: a0 = u64 [a4 + 0xf8]\n 44992: a1 = u64 [a3 + 0x400]\n 44996: a2 = u64 [a4 + 0xf0]\n 45000: a3 = u64 [a4 + 0xe8]\n 45004: a1 = a1 | a2\n 45007: a0 = a0 | a3\n 45010: a0 = a0 | a1\n 45013: jump [t0]\n      : @1468 (gas: 8)\n 45015: u64 [sp + 64] = 0\n 45018: u64 [sp + 56] = 0\n 45021: u64 [sp + 48] = 0\n 45024: a0 = 0x4e487b7100000000\n 45034: a1 = sp + 0x30\n 45037: u64 [sp + 0x48] = a0\n 45040: a0 = 0\n 45042: jump [t0]\n      : @1469 (gas: 10)\n 45044: a3 = s1 + a0\n 45047: a4 = a3 + 0x700\n 45051: a0 = u64 [a4 + 0xd8]\n 45055: a1 = u64 [a4 + 0xe0]\n 45059: a2 = u64 [a4 + 0xd0]\n 45063: a3 = u64 [a4 + 0xc8]\n 45067: a1 = a1 | a2\n 45070: a0 = a0 | a3\n 45073: a0 = a0 | a1\n 45076: jump [t0]\n      : @1470 (gas: 8)\n 45078: u64 [sp + 144] = 0\n 45082: u64 [sp + 136] = 0\n 45086: u64 [sp + 128] = 0\n 45090: a0 = 0x8c379a000000000\n 45100: a1 = sp + 0x80\n 45104: u64 [sp + 0x98] = a0\n 45108: a0 = u64 [sp + 0x18]\n 45111: jump [t0]\n      : @1471 (gas: 4)\n 45113: a0 = u64 [s1 + 0x1b8]\n 45117: a0 = i32 [a0]\n 45119: a1 = 0x23\n 45122: jump [t0]\n      : @1472 (gas: 7)\n 45124: a1 = a1 | a2\n 45127: a1 = a1 | a0\n 45130: a1 = a1 >> 0x20\n 45133: a0 = a0 | a2\n 45136: a0 = a0 << 0x20\n 45139: a0 = a0 | a1\n 45142: jump [t0]\n      : @1473 (gas: 6)\n 45144: a2 = s1 + a1\n 45147: u64 [a2 + 1056] = 0\n 45151: u64 [a2 + 1048] = 0\n 45155: a1 = 0x20\n 45158: u64 [a2 + 0x408] = a1\n 45162: jump [t0]\n      : @1474 (gas: 2)\n 45164: a3 = a2 & 0x40\n 45167: jump @1478 if a3 != 0\n      : @1475 (gas: 1)\n 45170: jump @1477 if a2 == 0\n      : @1476 (gas: 6)\n 45173: i32 a3 = 0x40 - a2\n 45176: a3 = a1 << a3\n 45179: a1 = a1 >> a2\n 45182: a0 = a0 >> a2\n 45185: a0 = a0 | a3\n 45188: ret\n      : @1477 (gas: 1)\n 45190: ret\n      : @1478 (gas: 4)\n 45192: a0 = a2 + 0xffffffffffffffc0\n 45195: a0 = a1 >> a0\n 45198: a1 = 0\n 45200: ret\n      : @1479 (gas: 2)\n 45202: a3 = a2 & 0x40\n 45205: jump @1483 if a3 != 0\n      : @1480 (gas: 1)\n 45208: jump @1482 if a2 == 0\n      : @1481 (gas: 6)\n 45211: i32 a3 = 0x40 - a2\n 45214: a3 = a0 >> a3\n 45217: a0 = a0 << a2\n 45220: a1 = a1 << a2\n 45223: a1 = a1 | a3\n 45226: ret\n      : @1482 (gas: 1)\n 45228: ret\n      : @1483 (gas: 4)\n 45230: a1 = a2 + 0xffffffffffffffc0\n 45233: a1 = a0 << a1\n 45236: a0 = 0\n 45238: ret\n","bytecode":{"object":"50564d000043cf000000000000010700c18001c00080038150726c6120656d61476e69662079646165000064657a696c612a6d526f3331ed86f8e5b49675ed9e8d2a7984935a5cefd48b3a9139625058faf64056795474e66438b907a71980ef6c5d354a02f1f252190018af82fcba705473616820656d6147646e6520746f6e200000746579206465746f6e20656d6147676f7270206e69209b47f4b3238edb512840b82388d42f16f694fd6c8f2b44956f7bec8118393962756f6d6120646942207473756d20746e7461657267206562206e61687420726520746e657272754373756d20656d6167646e652065622074648a883b43ed0da2fe00a162788f4d9d111eb0b84174f447eea55ebc104b29ec7361657274206f4e646e756620797275746977206f7420736e776f20796c6e4f63206e616320726573696874206c6c616f6974636e756620656f6420656d6147786520746f6e2073726c6120656d6147646e6520796461650480f40f000000000400000012000000200000002e00000034000000410000004c0000005b0000005e0000006e0000007e000000890000009b000000a600000063616c6c63616c6c5f646174615f636f707963616c6c5f646174615f6c6f616463616c6c5f646174615f73697a6563616c6c65726465706f7369745f6576656e746765745f73746f72616765686173685f6b656363616b5f3235366e6f7772657475726e5f646174615f636f707972657475726e5f646174615f73697a657365616c5f72657475726e7365745f696d6d757461626c655f646174617365745f73746f7261676576616c75655f7472616e73666572726564051302c04ea90463616c6cc057a9066465706c6f7906c0c9cc82fa02c0b8b02b0073019602a80278033e0446041c0521055105e405230651067f068b06ca06f0060308330849086f088908e7080a094f0959097609cc09fb09030a220a3c0a480a4e0a6b0a730ab20aba0ad90af30aff0a050b220b2a0b8a0bf00bf60b250c6a0cd30c210d2e0d580d810ddb0dfe0d1f0e460e500e6e0ec40ef30efb0e1b0f370f9a0fd10f151028108c109310a710bd10c410ec10f3108a11a911f9110412111266129f12aa12eb121c13401363138d139813b6130d1441144a146a148614ec141c152a1546156515b015f11521162a164a16751683168a169716cd16e7162f1765179417a018a718ed18e519041a931ac41ae31a3a1b601ba61bc81be81b2f1c381c6d1c8c1c311d631d721db21dd71d341e5c1ee81e441f9c1fd42022218d211d2233227c22f32208233c239f23b523e9234d2463249724b024e42420254c25d825122624269726a9261f273127a727b9272b283d28b028c628ee28202968297a29ca29302a422ab82ad22af62a332b7c2ba32be02bce2ce22df32d152e842e8f2eb32ecd2e122f3c2f7f2f9d2f233051306a30aa300b31483103327932a533de33e833313485341235443575358a35cc35183649366336703676369b3613376f378d37a737b437ba37e83716385c388538cb38fc3854397139ec39353a3e3a5e3aa43aae3aea3a213b3b3b503b5a3b863bcd3bdb3bf83b3d3c8b3c143d213d3f3dac3db93dd73d073e323e3f3ef03eec3f06402d403a407140cf40e84014411a413e414441ae41b8413b4244426442ad42b742dc427843e3432444b744d844f64446458e45cf45d9450746584661468346c946d3460f4738474d476b4778477e478847b247ed472e484c4874488248a848c1482c499d49f2493c4a4a4a6b4a834ab14ac54add4af74a194b224b534b144c254c534c644c984cea4c344d4e4d574d944dca4ee44e084f4d4fbf4f7a50a750ad50d4501d513b516b5174519451ae51b551ca51045237527752ad52ce52ec5216533e535e539a53235451546f5476548a54f3542a556d55cb5510566856b156fb562b57345756578057c05735589b58ec58cb59ea59125a565a9e5ab65ad55a135b995be95b475c7d5cca5c015d3f5d4e5d625db95dd55d455ea05ed65ee45e195f645f805fc05f2260c4606561c6614a6253628262af62df62036346638463b063e563036414641e643364896596651366216683664367b7676b68ce68d468026908692e6934697b69dd69e369f4690a6a106a366a3c6a826ae86aee6a206b686b6e6bc66b286c416c716c776c9d6ca36cd76ce46cfc6c546da16d116e306e616e676e8a6e2a6f446f626fae6f06727f728c72a672c372d072ea721f738273b673bf73df731b7421742e745d747374b674e8741a751b76217667768677ea777c788578b878047928796179c379f779117a227a2c7a587a9d7aab7ac67a107b5a7bb67bc37bde7b417c4e7c6c7cbb7cff7d417e4d7e6f7ef87f128036807b80c980e38001814d81ae836784fe846685e485f2853386978612871b87b287c587ce87ef875789db89ec89198a618a728a9f8ae58af98a028b438b548b818bc58bd98be28b348c458c728cb88ccc8cd58c208d298d4c8d818db78dc08ddd8d068e0c8e558e748ea88ec58ecb8ed68efc8e328f5e8f798fa68fc28fef8f0e903b905a908790a6900d9131913f916a91a091cf91fe912d925c928b92bc92f69225934a93df93f493fb93139437943a95da9535969f9639977097989745984c986b9895989b98ba98c198d598dc98f4981e992499429949995d9964997c99a099689a839a8a9aa49ac89ae29a099b1f9b4b9b519b779b7d9b9d9bb99bec9bf79b219c2e9c3e9c8f9c969cae9cd29c779d7e9d989dbc9dd69dfd9d139e1c9e239e299e499e4f9e6f9e7f9eb39ebf9ece9ee89e0f9f259f2e9f359f3b9f5b9f619f819f919fc59fd19fe09f48a038a152a176a1caa1e9a122a236a255a29fa2bea2f9a202a32aa365a373a388a3b6a3f9a361a46da48ca498a4d4a4e0a4ffa41ca554a560a57fa58ba5bda5c9a5e8a505a63ea64aa664a671a6b0a60ba717a732a73fa771a77da798a7a8a7d8a7e6a70da845a857a87ea8b9a803a90aa929a957a961a9390858010251086f06330780010383770a0c2862069511f07b10087b15648964753308206497501002a7047c78017c797c7a027c7b03978808d4980897aa1097bb18d4ba0ad4a8087c79057c7a047c7b067c7c07979908d4a90997bb1097cc18d4cb0bd4b909979920d489027c79097c7a087c7b0a7c7c0b979908d4a90997bb1097cc18d4cb0bd4b9097c7a0d7c7b0c7c7c0e7c780f97aa08d4ba0a97cc10978818d4c808d4a808978820d498037c78117c7a107c7b127c7c13978808d4a80897bb1097cc18d4cb0bd4b8087c7a157c7b147c7c167c791797aa08d4ba0a97cc10979918d4c909d4a909979920d4890a7c78197c79187c7b1a7c7c1b978808d4980897bb1097cc18d4cb0bd4b8087c791d7c7b1c7c7c1e7c771f979908d4b90997cc10977718d4c707d49707977720d487076f776fa86f396f2a7b5a187b59107b58087b57821008821595111032009511d87b10207b15187b161082897b19088289087b198285108286183308205010045f036f686f59821a6faa821b086fbb787b18787a10787908787898bc38787c1f98bc30787c1e98bc28787c1d98bc20787c1c98bc18787c1b98bc10787c1a98bb08787b1998ab38787b1798ab30787b1698ab28787b1598ab20787b1498ab18787b1398ab10787b1298aa08787a11989a38787a0f989a30787a0e989a28787a0d989a20787a0c989a18787a0b989a10787a0a98990878790998893878790798893078790698892878790598892078790498891878790398891078790298880878780182102082151882161095112832009511a07b10587b15507b16489515608411e06476828718828910828a0882886f776f996faa6f887b18187b1a107b19087b17491138491130491128491120481140208318831a20831b403309ff33073300060a0601821738821830821928821a2050120828ab007b6a187b69107b68087b679551a082105882155082164895116032009511a07b10587b15509515608411e08272827a08827b108277188283828908828c108288186f746fbb6faa6f276f826fcc6f996f387b17187b1a107b1b087b147b18387b19307b1c287b12208318831a203309ff330b2033070a0d9551a08210588215509511603200951160ff7b1098007b1590007b1688009515a0008411e082ab7b1b3882ab087b1b3082ab107b1b2882aa187b1a20829a7b1a18829a087b1a10829a107b1a088299187b19648650100a5a0182186f888219086f99821a106faa821b186fbb7b1b587b1a507b19487b18408218206f888219286f99821a306faa821b386fbb7b1b787b1a707b19687b18608379836a8317403308020a05955160ff8210980082159000821688009511a0003200951120ff7b10d8007b15d0007b16c8009515e0008411e082bc7b1c4082bc087b1c4882bc107b1c5082bb187b1b5833020c82ab7b1b1882ab087b1b2082ab107b1b2882aa187b1a308296829a087b1a829a107b1a088299187b19104911384033000e2892007b183850100e8c006f687b187882186f887b18708218086f887b18688218106f887b18608218186f887b1898008218206f887b1890008218286f887b1888008218306f887b1880008218406f887b18b8008218486f887b18b0008218506f887b18a8008218586f887b18a0008379811a388317603308030a05955120ff8210d8008215d0008216c8009511e00032008b7910520931c8780883881f8488e05638000001253309540102390a540102ae8a093d085401020133086001028377c887073200009511f07b10087b158475010a03013d07500102510507501010095010126f019511c0fe7b1038017b1530017b162801951540018411e04911584911504911408000330740c8710849114850101403fc4911784911704911684911608317600a0e01821770821878821968821a60d49808d4a707d4870751071733086001028388330701330933001e0a0b28ff00330660010383670a043a0768010339087001033a096001036f77977a206f88988820d4a8087b18189877206f98978620d467077b1710988620492198004921900049218800492180009517209518800050101662fc801734977720821838d467074921b8004921b0004921a8004921a0007b18d8008218107b18c8008218187b18c0007b17d0009517a0009518c000501018a6fc4921f8004921f0004921e8004921e00001492118014921100149210801492100019517e0009518000150101a78fc390854010256187f0c2003540102800001330760010283778000330833090a01288ff933078000330850101c53fe83783307330933001e0a0b01951110fe7b10e8017b15e0017b16d8019515f001951190bf8411e06416956958314929c0004929b8004929a8008000330740956800324929b0005010208afa33075001027b67b80139075001025517040828a88200956700308377200233083300220a0201956a583181a7e40052475bcba58d0a282e13514745ef799981015247b79a9da50a2870329569583951471bb156b2b70a5147b89b39d01a0651470c01e3db060a956b58415247e46e45ed0a284a3a524759123df10a28573852375cb38f0928d1135237740cde0928e6305247490fa4150a289227524795ab6b160a28cc2b5247746169320a28e52652474b7a753d0a280a125247e0512d480a283f155147dc3d6a530a28093e492aa007492a9807492a9007492a8807956700408377e0f80a0e01956b583195bc000782c7980082c8a00082c9900082ca8800d49808d4a707d4870751070628e77e8267b80181775617030728e77e492bc007492bb807492bb007492ba80701956780119568003950102443fa95674011827858956900017b98b8008278507b98b0008278487b98a8008277407b97a00095676011330840501026e7f7956a401182a73882a83082a92882ab20501228b1a50051070628c866956900018297a0007ba78297a8007ba7088297b0007ba71033022a95684011018297b8007ba71864b77b6bb8013300180228cff850122cb6a700ac7806284a7e956700408377e0f93308040a0295675839827ba000827a9800827890008279880095675819956c00017bcba0007b7bc0037bcaa800957b00037bbab8007bc8b0007bb8b0009568001d7bc9b8007bb9a800330750102e6df8956758194927a0034927980349279003647a3307209568e01c492a8803025010304af83308540102390754010256173f0b200354010240019517e08479e07b6988016491330760010283777b68900183993308407b6798013300320a07826a880133023428faa100826a8801501234f2a1007bbac0007bb9b8007bb8b0007bb7a8009567c01c9568003a501036d0f8956b581982b7800382b8700382b9680382ba7803826ca001d3c707826cb001d3c808d487078268a801d3a808826ab801d3a909d49808d48707887701492b6003492b58037bb748039567a01c492b5003501038f69300956758198268a001957a00037ba8408268a8017ba8388268b0017ba8309568801c8269b8017ba928330750103a59f733023c95685819014928200349281803492808030264893307209568601c4929100350103e32f782689001818756173f0e480840330240282ca10050124028a1003300420a073302442816a00050124412a0007b8bc8007b8cd0007b89d8007b87e0009567401c9568203a501046dbf733024895695819017c97fc025417030728687c511701be008267b801959a00027ba7c8008267b0017ba7d0008267a8017ba7d8009568201c8267a0017ba7e000330750104aa2f633024c95685819014928c0024928b8024928a8020264893307209568001c4929b00250104e7bf682699001819756173f0e4809403302502875a00050125071a0003300520a07330254285f9f005012545b9f007b8be8007b8cf0007b89f8007b8700019567e01b9568403a50105624f733025895695819017c979c025417030728947f5117020728255d956758394927200149271801492710014927080195670040837760fa0a0e01956a583995ab000182b71882b82082b91082ba08d49808d4a707d4870751070628b7459567e01433084050105a90f4956940118292b80395980003828cb000828ba8008287a000d42b0ad4c708d4a808988820d4ca0a97aa20d4a808510806285a63492990034929880349298003140a00000000a079c3089568c0147b9a98037b67b8017b6bb0017b62a0017b6ca80150105c64f550125e9c9d00520706281b6383870495694011492978034929700349296003209568a014492968037b6aa8017b6ba0015010602ff5956a000182a8b80082a7a0009577dcd8780782a9b000949782a9a800949752070628ce6283872495694011492958034929500349294003219568801449294803501062eaf495670001827aa800827bb0008278b800140900000000010000001407bcffffff00000000d8780794b794a7520706287c628387443a08a00002956c401195cb00037bb8383a08a800027b69a0013a09b000023a0ab800027bb8307bb928956860147bba2050106481f4956a000182a9b80082a7a00095779cd8790782a8b000948782a8a8009487520706282062839764956a4011492a1003492a0803140800000000000000307ba8180395684014492a000350106633f4330884008267b801501068a4f78378330701330984000a0b014929400549293805492930054929280595670040837780fe33006a0a0e01956a583995ab000582b73882b84082b93082ba28d49808d4a707d4870751070628c77950126cbea200ac780628c879956700408377a0fe3308040a0295675839957c000582cb6082ca5882c85082c948956758297b6b8800957c00057bcba0007b6a90007bca98007b6898007bc890009568e02e7b69a0007bc98800330750106e79f395675829492780054927780549277005647a3307209568c02e492a68050250107056f33308540102390754010256173f1120035401024033027228e7a000501272e3a00033076001027b672083777b68000183993308407b67f8003300740a07826ab80133027628039d00826ab801501276fb9c0095bc00057bca80007bc9787bc8707bc7689567a02e9568c03e501078d8f3956b582982b7600582b8500582b9480582ba5805826c8800d3c707826c9800d3c808d4870782689000d3a808826aa000d3a909d49808d48707887701492b4005492b38057bb728059567802e492b300550107afe8e009567582982688800957a00057ba820826890007ba818826898007ba8109568602e8269a0007ba908330750107c61f233027e9568582901492800054928f8044928e8040264893307209568402e4929f004502080003af282680001818756173f0f48084033028200281a9e0050228200169e000a07826ab80182a782a80882a91082aa186f7b6f8c6f996fa79572037b6728d87208c889077b6930d8970ada880ac8ca0a7b6c38d8ca087b6b40c8b808956b58397bb2880595b900057b9790007b9a98007b98a0009567202e9568e03e50208400adf295675829957900048298c8007b68b8018298d0007b68b0018298d8007b68a8018297e0007b67a00195670040837700ff330086000a080195685839958b000582b7c0008282a80582b9b80082bab0008268a001d3870bd887088267a801d8790cdbb80c8268b001d38a03d88a0a8268b801d8820850228800b09e00520806283f3a9567a02533084050208a00f3ef956958218292600495980004828c58828b50828748d42b0ad4c708d4a808988820d4ca0a97aa20d4a80851080628bf5e492938044929300449292804140a00000000a079c308956880257b9a40047b67b8017b6bb0017b62a0017b6ca80150208c00c9f050228e00009900520706287e5e8387043308582150229000b89f0095686025492910047b6aa8017b6ba0015020920098f050229400249900520706284d5e838724956a5821492a0004492af803492ae8031695684025492af0035020960069f050229800399900520706281e5e83a7443a085800023a096000023a0a680002956b582195bc00037bc8e0007bc9d8007bcad00095682025492bc8033300a8032824f04929c0074929b8074929b0074929a80795670040837700010a0e01956a583995ab000782b7b80082b8c00082b9b00082baa800d49808d4a707d4870751070628ec758267b80181775617030728ec759567202f33084050209a0091ee956a582995ac000582cbe00082c8d80082c9d00082c7c80050229c00409b0051080628685d492ac005492ab805492aa8055a9568002f492ab0057b67b801330018022883ef492900044929f8034929f0034929e80395670040837740fd33009e000a0e330758393302a00028c09d00330758395022a000b89d00510706286c755022a2002f9e00ac7806286c7595670040837760fd3308040a0295675839957900048298207b68d0008298187b68d8008298107b68e0008298087b68e80049274004492738044927300449272804956700259568803d5020a400e1ef956758218278b0037b68b8018278a8037b68b0018077b8037b67a80133076001037b67b00083773300a6000a048269b0003302a800282998008269b0005022a800219800956b000182b9a800d3980882b9b000d39707d4870782b8b800d3a808d48707887701956858214928a003492898037b8788039567e024492890035020aa00e487008267d00095695821959a00037ba780008267d8007ba7788267e0007ba7709568c0248267e8007ba76833075020ac0039ee95675821492760034927580349275003647a3307209568a024492a4803025020ae0015ee3308540102390754010256173f122003540102403302b00028a49b005022b000a09b0033076001027b67a80083777b68f80083993308407b6700013300b2000a07826ab8013302b40028bc9700826ab8015022b400b4970095bc00047bca607bc9587bc8507bc748956780249568a03d5020b60091ee956b582182b7400382b8300382b9280382ba3803826cd000d3c707826ce000d3c808d487078268d800d3a808826ae800d3a909d49808d48707887701492b2003492b18037bb7080395676024492b10035020b800b68900956758218268d0007b7800038268d800957a00027ba8f8008268e0007ba8f000956840248269e8007ba9e80033075020ba0014ed3302bc0095685821014928e0024928d8024928c802026489330720956820244929d0025020be00ebec8268f800818756173f0f4808403302c000281a99005022c000169900826700010a07826ab80182a782a80882a91082aa186f726f8c6f996faa9517e08478e0648195a3067b6a9801d8a30bc8b9077b69a001d8970adabb0ac8ca0a7b6ca801d8ca097b62b001c829097b87087b837b8a107b8918956700247b68b8015020c2005bed95685821017c87bc02541703072894729577fd8e774928a002492898027b8788029567e023492890025020c400b989009567c0238268b8015020c6001ded956a582195ab000282b76882b87082b97882ba80005022c8002c9a0095bc00047bca80007bc8707bc7687bc9789568c03d8267b8015020ca0065ed9517e0847ce064c182689801958708d88708826aa001c88a09d8a90ada880a8268a801c88a0ad88a08826bb001c88b0b64c87b6cb8017bcb187bca107bc9087bc79567a0235020cc0097ec956a582195ab000282b74882b85082b96082ba58847700ff867701956b583995bc00047bc9a0007bca98007bc890007bc788009568e03d8267b8015020ce00d9ec8267d00095695821959a00027ba7408267d8007ba7388267e0007ba730956880238267e8007ba72833075020d00034eb3302d200956858210149282002492818024928080204648933072095686023492910025020d4000beb9517e08477e07b67b80164718269f800819756173f08480940019517e08477e07b67b0015022d6008198003300d8000a073302da0028f694005022da00f29400956740233308405020dc0084e995675821827800027b68c800957900018298f8007b68c0008298f0007b68b8008297e8007b67f000956720238268b8015020de007aeb8267f0008268c8008269b800d48909826ac0005022e000559800510806282a58956c582182c9e00182c8d80182cad00182cbc8017b6b18017bcba8017b6a200195cb00017bbab0007b6828017bb8b800956800237b6930017bb9c0005020e20026ea8267980195685821958900017b97a0008267a0017b9798008267a8017b97900064899568e0228267b0017b97880133075020e400f0e99517e08477e07b67100164718269f800819756171f08480920011407ffffffff000000007b6738015022e6001b9600826700010a074926980149269001330c49268801826ab80182a71882a81082a90882aa6f726f876f9b6fa982681001649a7b89187b6b50017b8b1064797b87087b6258017b821407e0ffffff00000000956b00017bb7088267f0007bb7b8008267b8007bb7b0008267c0007bb7a8008267c8007bb7a000017b6a68017b6970018263b8019534208267180182699801d8790782692001826b9001d39b0ad89b09daa709826b2801d8bc07826a300182628801d3a200d8a20ada070a7b6c6001d3bc07d407077b648001d8340bda790a956900018297b000c8b702d87207dabb07829ca800c87c0bd8cb07829ca000c8c7077b9778520a06284b487b6b40017b624801956760205020e800a7e95022ea002c9600520806286a56956a581995ab000782b71882b81082b908826b3801d2b7078488ff8499ff492a000795ab00067bb9e8007bb8f000956840207bb7f800826780015020ec0068e8826b580195bb017b6b580188b701826a7001c87a0ad4ab0788770182685001c87803d8830882676801c8870782699801959901889801826c9001c88c0c7b6998017b6c9001d4c90888880182696001c88902d89209826c8801c89c0c7b6c880164a9956c000182c8107b8a087b8b7b8310647a7b87187b63500182c780007bc7b80082c7487bc7b00082c7407bc7a80082c7787bc7a000642c2886fe492a2004492a1804492a1004492a080495670030837760050a0e01956a583195ab000482b71882b82082b91082ba08d49808d4a707d48707510706284a6e8267b801817756170307284a6e9567ff079577c1013308405020ee0036e6956aff0795aa390182aba00082a8980082a9900082a788005022f000e59200510806280d55492a8000491a78491a6800a3029568ff079588a101491a707b67b801330018022825e795675839491760491758491750491748956700408377a0f90a0e01956a583982a75882a86082a95082aa48d49808d4a707d4870751070628c46d8267b80181775617030728c46d95675839492780004917784917704917689567e0139568c0395020f200b4e795674011957900028298b000956a00017ba8a8008298a8007ba8b8008297a0007ba7b0009567c0133308405020f40057e5956a401195ac000282cb980082c8900082c9880082c780005022f600069200510806282e54956b000182b8a800978820988920492a780282b8b00095ac00027bc86082b8b8007bc8689568a0137bc9707b67b801330018022833e6491b60491b58491b50491b48956700408377a0013300f8000a0e01956a584182a75882a86082a95082aa48d49808d4a707d4870751070628ec6c5022fa00e09400ac780628ec6c956700408377c0013308040a02956a584182a76882a87082a97882aa8000956b58317bba95ba00ff7ba9f8007ba8f000956840317ba7e80033075020fc00afe5956958294929e0074929d8074929c80704330720956820314929d0075020fe008de5390854010256183f143308403d0854010233020001281f9300502200011b93003307600102837783993308400a07826ab80182a71882a81082a90882aa6f776f886f996faa956b58417bbaa0007bb998007bb890007bb78800956700319568e0415020020118e6330204019568582901958900078297c000956800017b87b8008297b8007b87b0008297b0007b87a8008297a8007b87a0009567e03033084050200601aee3956a582995ac000782c7a00082c8980082c9900082cb8800502208016f9100510706288552956900018297a00095ac00077bc7688297a8007bc7708297b0007bc7789568c0308297b8007bc7800064b77b6bb80133001802288ae4492a4004492a3804492a3004492a280495670030837780050a0e01956b583195bc000482c73882c84082c93082ca28d49808d4a707d4870751070628596b8267b80181775617030728596b492b6004492b5804492b5004492b4804956720119568a03550200a0116e59567ff07957739018278f0077b68b8018278e8077b68b0018077f8077b67a80133076001037b67a001837733000c010a0401956c000182c9a00050220e01598d0082c9a800d3980882c9b000d39707d4870782c8b800d3a808d487078877019568ff07958839014928e0074928d8077b87c807956700114928d007502010011c7d95675831492780044927780449277004647849286804019567e0109568c0355020120170e49569ff07959939018292c00795970007827cb800827bb000827aa800d42b07d4ca08d4870751071601956700017b7ab800959800077b8a88007b7bb0007b8b90007b7ca8007b8c98009568c0107b62a0017b92a00733075020140121e39568ff07958839014928800749287807492868070264893307209568a0104929700750201601f9e23309540102390754010256173f0b200354010240017b6990019517e08479e07b69980164913307600102837783993308407b6788010a07826a980182a782a80882a91082aa186f776f886f996faa95ab06d8ab0ac8a90cd89c09daaa09c88909d88908c8870795685831958a00047bab88007bac90007ba998007ba7a000956780109568e035502018015fe39569ff07959939017c975c0754170307282c6c826ab801826bb001826ca8018262a0015117030728664b9517e08477e07b67b80164717b9240067b9c38067b9b30069567ff07957781079568ff07958861077b9a280650201a01007d956aff0795aa390195ab000682b85882b96082b74882ba507b687001826bb8017bb8107b6968017bb9187b6778017bb77b6a60017bba0864b8956958314929c0044929b8044929b0044929a804019567003650201c012ee395670030837720060a08956a583195ab000482b7e00082b8d80082b9c80082bad000959b00a3027b6bb801d89b09c89a0b7b6bb001d8ab0ada990ac88a0a7b6aa801d88a08c887077b67a00195670030837740060a0801956a583182a7f00482a8e80482a9000582a2f804956a000182acb000d3c70bd87c0782acb800d88c08dbb70882aca800d82c0782aba000d3b90ad89b09daa709d3c207d4a707db790851080628736995670030837760060a0801956758318272200595790005829818829c08829a1095c9803a09d8c907c87a0cd8ac0ada770ac8a807d88708c82808826ba801d8b7027b695801826ab801d8a903826ab001d3ca097b6c5001d8ac0ada930a8269a001d3890c7b684001d89809dac2097b674801d3b707d4c707db790a510a062878699567ff079577410733084050201e0147df9568ff0795883901958c000682c7207b67880182c9187b69800182ca107b6a900182cb087b6b98017bc7958c00057bc9f8007bcaf0009567ff07957721077bcbe800330020013302f80428548c00956b000182b9980082b7880082b89000d4870782ba8000d4a908d47808988820d4a707977720d4870751070628c64d82677801956aff0795aa390195ab00057bb7c800826760017bb7d000826770017bb7d8009568ff0795880107826768017bb7e000649750202201c8df95670030837780060a0801956c000182cb980082c7880082c98000d47909140a00000000010000001407e0ffffff00000000d87b0782c890009487949752070628474d956758317b6988017b6a8001827c28058278300582793805827a400583b720956bff0795bb39017bbac00595ba00057ba9b8007ba8b0009568ff079588e1067baca8007b6738015020240138df956a000182a8980082a780009577c050222601908a0052070628de4c8389408267b801956aff0795aa390195ab00057bb788008267b0017bb790008267a8017bb798009568ff079588c1068267a0017bb7a0007b698001649750202801d9de956b000182b89800140a00000000010000001407a0ffffff00000000d8780782b99000949782b988009497520706286a4c838960826758019568ff07958839017b6a3001648a958b00057bb768826750017bb770826748017bb7789568ff079588a106826740017ba780057b692801649750202a0162de956a000182a8980082a73095778050222c01bb890052070628094c838780009569ff07959939014929600549295805492950059568ff0795888106492948057b67300150202e0119de956b000182b89800140a0000000001000000140760ffffff00000000d8780782b99000949782b98800949752070628aa4b8387a0009569ff07959939014929400549293805492930059568ff0795886106492928057b6718017b6a200150203001b6dd956a000182a8980082a720957740ff502232010e8900520706285c4b8387c0009569ff07959939014929200549291805492910059568ff0795884106492908057b672001502034016cdd956c000182c79800140b0000000001000000140820ffffff00000000d8870882ca900094a882ca880094a852080628fd4a8377e000956aff0795aa3901492a0005492af804492af0049568ff0795882106492ae804017b6708017b6b10015020360108dd956a000182a8980082a710957700ff5022380160880052070628ae4a838700019569ff07959939014929e0044929d8044929d0049568ff07958801064929c8047b67100150203a01bedc956a000182a898001407e0feffff0000000050223c0113880052070628614a838720019569ff07959939014929c0044929b8044929b0049568ff079588e1054929a8047b67000150203e0171dc826768019569ff0795993901959a00047ba7a000826770017ba79800826760017ba790009568ff079588c105826778017ba7880033075020400135dc9568ff07958839014928800449287804492868040264893307209568ff079588a105492970045020420109dc9517e08477e07b676801647133075401027b67f800390754010256173f0c8268f800480840019517e08479e07b69900164913307600102837783993308407b67f0000a07826a900182a71882a81082a90882aa6f7b7b6b70016f887b6878016f997b6990016fa77b678801826a68017ba7187ba9107ba8087bab9567ff0795778105826898015020440143da956aff0795aa390195ab000482b76082b85882b95082ba48956b583195bc00057bc7607bc8587bc9507bca489568a0368267680150204601b8dc9567ff07957761058268380150204801f7d99567ff0795773901827228048273300482743804827a400482677001957701887c0182687801c88c0cd4c70b88bb0182689001c88b0bd88b0882698801c89808956958317b988005959800057b8b787b8c707b87687b8aa0007b9498057b9390057b9288059567c0369568e03650204a0133dc9567ff07957741058268800150204c0172d99567ff0795773901827208048273100482741804827a200482677001957b02d87b0c82687801c8c807d88708dacc0882699001c89808d8980c82698801c89c0c956958317b9cc005959c00057bc8b8007bc7b0007bcba8007bcae0007b94d8057b93d0057b92c805956700379568203750204e01abdb9567ff07957721058268280150205001ead89567ff07957739018272e8038273f0038274f803827a000482677001957b03d87b0c82687801c8c807d88708dacc0882699001c89808d8980c82698801c89c0c956958317b9c0006959c00057bc8f8007bc7f0007bcbe8007b9a20067b9418067b9310067b92080695674037956860375020520123db9567ff0795770105826830015020540162d89567ff07957739018272c8038273d0038274d803827ae00382677001957b04d87b0c82687801c8c807d88708dacc0882699001c89808d8980c82698801c89c0c956958317b9c4006959c00067bc8387bc7307bcb287bca607b9458067b9350067b924806956780379568a037502056019fda9567ff079577e1048268180150205801ded79567ff07957739018272a8038273b0038274b803827ac00382677001957b05d87b0c82687801c8c807d88708dacc0882699001c89808d8980c82698801c89c0c956958317b9c8006959c00067bc8787bc7707bcb687bcaa0007b9498067b9390067b9288069567c0379568e03750205a011ada9517e0847ce064c18268700195870650225c016e8500826b8801c8b8087b6c98017bc8187bca107bc9087bc79567ff079577c1048268200150205e012dd79567ff0795773901827888037b688001827890037b686801807898037b6860019567ff079577a104826898015020600127d99568ff079588390180877c039777208288800382696001d4970795695831826a6801959b00067bbab000826a80017bbaa8007bb8c0007bb7b80095680038826798015020620162d99567ff07957781048268080150206401a1d69569ff0795993901959a000382a76082a85882ac5082ab488e798e8adb790a8ec97b6b800188bb0485bb017b6c6801dbc90bd48707db7a0b510b062856629567ff079577610482689801502066017dd89567ff079577390182722803957b000382b83082b94082ba3882678001987b20826c680197cc20d4cb0b977c201407ffffffff00ffffffd2a707d4c707d4b909956a583195ab00067bb8d0007ba2c8067bb9e0007bb7d8009568203882679801502068019ad89567ff07957741048268100150206a01d9d59567ff0795773901827208038273100382741803827a200382677001957b07d87b0c82687801c8c807d88708dacc0882699001c89808d8980c82698801c89c0c956958317b9c0007959c00067bc8f8007bc7f0007bcbe8007b9a20077b9418077b9310077b920807956740389568603850206c0112d89517e0847be07b6b980164b18268700195870850226e01628300826c8801c8c8087bb8187bba107bb9087bb79567ff0795772104826800015020700125d5956aff0795aa390195ab000282b7f80082a8000382b9f00082bae800d49808d4a707d487078e777b6790019567ff0795770104826898015020720114d7956aff0795aa390195ab000282b7c80082b8d00082b9e00082bad800847700ff826b9001d4b707956b583195bc00077bc9407bca387bc8307bc7289568803882679801502074014ed79568583149286007492858074928500749284807019567ff079577e1039568a03850207601a4d69568ff0795883901958900028297c0007b6778018297b8007b6770018297b0007b6768018297a8007b6760019567ff079577c103330840502078013bd49567ff0795773901957900028298a0007b689001829898007b688801829890007b688001829888007b689801956700408377c0f80a08956a583195ab000782b76882b87082b97882ba8000826b4001956cff0795cc39017bcb0002826b48017bcbf801826b50017bcbf001826b58017bcbe801826ba0017bcb2002826ba8017bcb1802826bb0017bcb1002826bb8017bcb080295cb00027bba407bb9387bb8307bb728826790017bb760826788017bb758826780017bb7509567ff079577a1039568ff07958881039569ff0795996103956aff0795aa4103956bff0795bb2103826298017bc2480250207a017268956b000182b88000648982b79000d4870782ba880082b89800d4a808d47808988820d4a707977720d4870751070628184264a29568ff0795883901958b000282b77082ba80007b6ab8018283680282ba78d39700d8970c82649801d84308da080cc92a0bc9cb00d8cb0b7b6bb001d82a0a826c9001826bb801c9cb0cc9ac0c826ab001c9ac0cc99707c98707c94308d4c707d4080ad47a0ad4070798aa20977720d4a707510706289f413a07d800023a09e00002956bff0795bb390195bc00017bc7e0007bc9d8003a07e800023a09f00002956b000182ba607bcaa80082ba687bcab0007bc7d0007bc9c80082b7707bc7b8009569ff0795990103956aff0795aae10282b7787bc7c00082b7980050207c0151d59567ff079577c10233084050207e0128d2956aff0795aa390195ac000182c7a00082c8980082c9900082cb880050228001e57f51070628fc4064ba9567ff0795773901956c000182c8607b78680182c8687b78700182c8707b7878019568ff079588a10282c9787b79800164b77bcab8003300180228f8d2492a0004492af803492af003492ae8039567003083774005330082010a0e33075831330284012835810033075831502284012d810051070628e4598267b80181775617030728e4599567ff07957781013308405020860168d1956aff0795aa390182ab6082a85882a95082a748502288011b7e510806284440491a40491a38491a280a9568ff0795886101491a307b67b80133001802285fd2492a4002492a3802492a3002492a2802956700308377800333008a010a0e01956a583195ab000282b73882b84082b93082ba28d49808d4a707d48707510706285e5950228c01048100ac7806285e59956700308377a0033308040a02956a583195ab000282b74882b85082b95882ba607b6a78067b6970067b686806956860067b676006330750208e01d6d149265806492650064926400604330720956840064926480650209001b8d19517e08477e07b67b80164713309540102390754010256173f0b200354010240017b69a8019517e08479e07b69b00164913307600102837783993308407b67a0010a07826ab00182a71882a81082a90882aa6f776f886f996faa826bb8017b6a88017bba187b6990017bb9107b6898017bb8087b67b0017bb79567200633084050209201f8cf956800068287387b67f0008287307b67e8008287287b67e0008287207b67f800956700068268b80150209401f6d1826be000826ae8008267f8008269f000d4b90950229601d17e51080628a73e82621806956a000682a81082ac0882a97b6928017b69e0057b6c30017b6ce8057b6838017b68f0059568e0057b6240017b62f80550209801abd08268f8009587207b670801d887078269e000c879087b681801d89808da77088267e800c878087b680001d878077b67b80182678801956900057b97d800826790017b97d000826798017b97c8009568c0058267b0017b97c000330750209a014ad09517e08477e07b67200164718269a801819756171f08480920018267f0008268b801c887077b6710011407ffffffff000000007b67480150229c01667c8267a0010a0733023303330049269801826ab80182a71882a81082a90882ac6f746f8b6f9a6fc98268200164977b89187b6a78017b8a1064bc7b8b087b6480017b84956a000182a9087ba9b80082a9187ba9a80082a97ba9a00082a9107ba9b00001956b00017bb788007bbc900082b728d8720782b930d3930ad89309daa70982b738d8700482ba4082bc9800d3ac0bd8ac0adab40ad37007d4b707da790a520a062823337b6060017b6368017b6270019567a00450209e0144d0956800018287b800828ba000d4b709828ab000828ca800d4ac08d48909989920d4b808978820d4980851080628e53c7b6ba001826bb0048268a8048269a0047b6ab001826a4801d2ab0b8488ff8499ff49269804956a00047ba980007ba88800956880047bab90007b67b8017b6ca8015020a001dcce8268b8019587207b675801d887098268a801c898077b675001d8870ada990a8267a001c8a700d8700a8267b001c8a7077b67b001826480019544017b648001884a0182679001c8a707d4740a88aa0182687801c88a0ad88a0b82698801c8b90982627001952201882b0182636801c8b303d4320b88bb01826c6001c8cb0bd8cb0c82689801c8c8087b689801647c826820017b87087b847b8a1064977b89187b6a7801956a000182a9587ba9b80082a9507ba9a8007b60a00164b02876fe492a8002492a7802492a7002492a6802956700308377c0030a0e01956b583195bc000282c77882c8800082c97082ca68d49808d4a707d487075107062837558267b801817756170307283755492ba002492b9802492b9002492b88029567ff07957741019568e0335020a201a2ce9567ff07957739018278107b68b8018278087b68b0018077187b67a80133076001037b67600183773300a4010a04826960013302a60128e976826960015022a601e2768269a801d398088269b001d39707d487078268b801d3a808d487078878019567ff079577390149074917f895670010492728f99567ff0795772101956900107b9820f95020a8019d66492680014926780149267001492668014926a8014926b0014926b80133075401027b679801330701017b67a001956758314927c0024927b8024927b0024927a802019567ff0795770101956800345020aa01c2cd95670010827718f995680010828800f97b68900195680010828410f995680010828808f9826bb801d37b00d8b7078269b001d8940cdb070c826aa801d38a03d8a8078262a00182689001d82808db3708d34907d40707db7c085208660b956800107b82e0f8956800107b8ae8f8956800107b89f0f89568ff079588e100956900107b9bf8f833075020ac0143cc956700104927d8f8956700104927d0f8956700104927c8f83307209568ff079588c100956a0010492ac0f8025020ae0111cc82689801818756173f08480840019517e08479e07b69880164913307600102837783993308407b6790013300b0010a0701826a880182a782a80882a91082aa185022b201467895ab08d8ab0ac8a90cd89c09daaa09c88909d88908c8870795685831958a00027babc8007bacd0007ba9d8007ba7e0009567ff079577a100956820345020b4017bcc956700107c77a0f8510714028267a001956800107b8780f88267a801956800107b8788f88267b001956800107b8790f89568ff07958881008267b801956900107b9798f833075020b6013dcb95670010492778f895670010492770f895670010492768f83307209568ff07958861956a0010492a60f8025020b8010ccb82689801818756173f0e4808403302ba012844795022ba0141793300bc010a073302be012822745022be011f74958a00027babe8007bacf0007ba9f8007b8700039567ff07957741956840345020c001accb95670010827740f895680010828848f895690010829950f8956a001082aa58f87b6af8077b69f0077b68e8077b67e00782676801956800107b8718f882677001956800107b8710f882677801956800107b8708f89567ff079577219568ff079588019569e007826a8001956b00107bba00f85020c201c56595670010827738f87b67680195670010827730f87b67700195670010827728f87b67780195670010827720f87b6780018267b8017b67d8078267b0017b67d0078267a8017b67c8079568c0078267a0017b67c00733075020c401e6c94926b8074926b0074926a8073307209568a0074926a007025020c601c8c982689801818756173f0e4808403302c8012800785022c801fd773300ca010a073302cc0128de725022cc01db72958a00037bab087bac107ba9187ba7204928400349283803492830034928280395676034956880345020ce01e2ca8269b8018267b0018268a801826aa0017b6a60077b6868077b67700795678007956860077b6978075020d0012e649568000782879800956900017b97b800828790007b97b000828788007b97a800828780002820fc492bc000492bb800492bb000492ba80095670040837700023300d2010a0e01956a584182a7b80082a8c00082a9b00082aaa800d49808d4a707d487075107062848505022d401ba77ac780628495095670040837720023308040a02956a584182a9c80082a7d00082a8d80082aae000956b58317bba80007bb8787bb7709567e0319568c0317bb9685020d601b16895685831828788007b67b801828790007b67b001828798007b67a8018287a0007b67a0019567a0313308405020d8011fc7956758318278607b6898018279587b699001827a507b6a8801827b487b6b80017b78207b79187b7a107b7b088268a0017b78408268a8017b78388268b0017b783064799567803195686031826ab8017b9a285020da01235a956b000182b7800082b8980082b98800d4890982ba90005022dc01ca7551080628a03533082033001a02284fcb9567583949278003492778034927700349276803956700408377c0fc0a0e01956a583995ab000382b77882b8800082b97082ba68d49808d4a707d48707510706281d4f8267b80180779569581949296006492958067b9748069567c01f9568a01f492950065020de01515a956b581995bc000682c79800956800017b87a00082c790007b87a80082c788007b87b80082c76882c87082c97882ca80007bca407bc9387bc8309568801f7bc72833075020e00120c73302e20195685819014928200649281806492808060364893307209568601f492910065020e401f7c63308540102390754010256173f0b200354010240019517e08479e07b69b00164913307600102837783997b6898013308407b6790013300e6010a07826ab0013302e80128b871826ab0015022e801b1717b67b00164718267a0019777209877209569581949290006959a00057ba7f8008267a8017ba7f0009568401f8267b8017ba7e80033075020ea016bc68267700195685819958900057b97e000826778017b97d800826780017b97d000648a3307209568201f826988017ba9c8055020ec0134c682689801818756173f0e4808403302ee012863725022ee016072826790013300f0010a07826ab8013302f201288071826ab8015022f20179717b6888018269b0017b98187b6790017b97107b6b80017b9b087b6c78017b9c9567001f3308405020f40195c495685819958c000582c7c0007b67a00182c9b8007b69980182cbb0007b6ba80182caa8007b6ab8017bc7a0007bc998007bcb90009567e01e7bca88003300f6013302060528a8719567c01e8268b0015020f8016cc6956a000182a7a00082a8a800d4870782a9980082a8b8005022fa01527451070628193395675819957c000582cb800082ca7882c97082c8687b6870017bc8487b6968017bc9507b6a60017bca589568a01e7b6b58017bcb608267b8015020fc0118c58267780195770188780182698001c89808d48709889901826a9001c8a909d8a90a826b8801c8ba0a956b583995bc00037bc890007bc788007bc998007bcaa0009567801e9568e03c5020fe01bcc5956b000182b7a00082b99800d47909140a00000000010000001407e0ffffff0000000082b8b800d8780782b8a80094879497520706285432956758197b69b001647982724005957c000582cb387b6aa00182ca3082c8288267b8018377207b689801959c00057bc8087b6a50017bca107b6b48017bcb189568601e7b6240017b9220055020000241c48268780195870250220202136f7bc9b0007bc7a8007bcab8007bc8c0009567401e9568003d5020040208c5956a000182a9b00082a7a0009577c082a8b800d8780782a8a8009487949752070628b4319569581982920005959c000482cbf80082caf00082c8e8008267b8018377407b68a0017bc8c8007b6a38017bcad0007b6b30017bcbd8009568201e7b6228017b92e00450200602a9c382687801958703502208027b6e7bc9d0007bc7c8007bcad8007bc8e0009567001e9568203d50200a0270c41407a0ffffff00000000956900018298b800d878078298a80094878298b000948752070628193133020c0295695819018297a8048477ff008e788267b8018377604929a004492998047b9888049568e01d4929900450200e0223c39567c01d33084050201002dcc195685819828a80047b6ab801828978047b69b001828b70047b6ba801828c68047b6c9001826728017b87e003826730017b87d803826738017b87d0038267a0017b87c803826740017b870004826748017b87f803826750017b87f003826798017b87e803826758017b872004826760017b871804826768017b871004826770017b870804958700047b7a407b79387b7b3064829567a01d9568801d9569601d956a401d956b201d7b2c280450201202505695680001828ba800828990008287b800d4b707828ab000d4a908d47808988820d4a707977720d4870751070628f82f64a295685819958c000482c75082ca607b6aa0018283480482ca58d3b704d8b70cd89300da400cc92a08c9c804d8c8087b689801d82a0a826cb8018268a001c9c80cc9ac0c82689801c98c0cc9b707c90707c99308d4c707d4480ad47a0ad4470798aa20977720d4a70751070628882f64977b68b80133008c042834c5491b40491b38491b30491b2895670040837780010a0e01956a584182a73882a84082a93082aa28d49808d4a707d48707510706281c498267b801817756170307281c499567a030330840502014022fc0956a582995ac000782cb6082c85882c95082c74850221602e26c510806280b2f492a4007492a3807492a280780970695688030492a30077b67b8015020180228c13308208267b80150201a0299c4837833092033070a0b019568000182898000828b70d4b907828a78828c68d4ca08d48707510706282c0f9567000733084050201c02aabf95680007828b18828c10828a088287d4ba09d4c708d49808988820d4c909979920d49808510806287c2e4926f0064926e8064926e006140900000000a079c3089568e0067b69f8067b67b8017b6ab0017b6ba8017b6ca00150201e0286c0956c000182c8b80082c7a80082caa000d47a0a50222002de6852070628292e8387044926d8064926d0064926c006209568c0064926c8067b6aa8017b6ba0015020220241c050222402cd6852070628f72d8387244926b8064926b0064926a0061d9568a0064926a8065020260217c0502228022b6d52070628cd2d8397443a08f800023a090001023a0a080102956b00067bb898007bb990007bba880014090000007761726468956880067bb980003300a80328cdbf4929e0074929d8074929d0074929c807956700408377200133002a020a0e3307583933022c0228496e3307583950222c02426e510706284a478267b801817756174307284a4795670040837740013308240a029568584182877b67a001958900ff8297f8007b67a8018297f0007b67b0018297e8007b67b80195670040837760013308040a02956a584182a70882a81082a91882aa20956b582995bc00077bca207bc9187bc810956860307bc708330750202e021abf330230029568582901492800074928f8064928e806046489330720956840304929f00650203202f1be9517e08477e07b6780016471390854010256183f0b200354010240019517e08479e07b69980164913307600102837783993308407b677001330034020a07826a98013302360228e26b826a980150223602db6b7b6a78017b8a187b6988017b89107b6b90017b8b087b6798017b8795672030502038026bbf95605829950900068297d0008298c8008204d806829ae0008263b001d3730bd873078262b801d88208dbb708826ca001d3ac07d8ac09826aa801d84a0bdb790bd34a09d49707db7b0852080628f7459517e08477e07b6780016471950b00067bbc607bba587b0350067b024806826778017bb78000826788017bb778826790017bb7709567e02f9568c02f9569a02f826a98017bba6850203a025e53956758298277c0067b677801956758298277b8067b679001956758298277b0067b678801956758298277a8067b6798019567582982779806956858298288a0069569582982998806956a582982aa9006826b80017bb7107bb8187bb97bba0864b89567802f50203c0264be9567582982774006956800017b87b80095675829827738067b87b00095675829827730067b87a00095675829827728067b87a8009567602f33084050203e02f7bb956a582995ab000682b72082b81882b91082ba08d49707d48a09d47909989920d48707977720d4970751070628c42a8267980198793d826c880197c803d49803826b900198b83d82697801979903d4980898c93d7b6a880197ba03d4a909977a037b6a90018e9c8e8bda8c0b8e3288ac000185cc01db320cd49808db8b0c7b6c800183a9808267b0018268b80150204002bb6b7b6778017b687001826798018a79037b6998018267a8018268a001502042029a6b7b6760017b686801826890018d8980008267b0018268b80150204402a26b82696801d4890982689001888a80007b6a6801826b7001daab09826ba001da8b097b69a00182696001d4970782697801daa9078269a801da89077b67a8018267b0018268b80182699801502046022c6b330882696801939797772098772082698001826ba801949b826aa001949a94979398956958297b980006959c00057bc7f8007bcaf0009568402f7bcbe8008267880150204802c7bb3308208267880133001a022834bf51471b96e2620a288e43492ae007492ad807492ad007492ac80795670040837720f933004a020a0e3307583133024c0228286a3307583150224c02216a51070628cf438267b80180779569401149291802492910027b97000295676013956840134929080250204e02364e956b401195bc000282c750956800017b87a80082c7487b87b00082c7407b87b80082c72082c82882c93082ca3895bc00017bcaf8007bc9f0007bc8e80095694011956820137b97e001330750205002fdba3302520295684011014928d8014928d0014928c0010395694011330720956800134929c80150205402d2ba3308540102390754010256173f0b200354010240019517e08479e07b69900164913307600102837783997b68a0013308407b679801330056020a07826a900133025802289365826a9001502258028c657b67900164718267a801977720987720956940114929b801959a00017ba7b0008267b0017ba7a8009568e0128267b8017ba7a000330750205a0246ba8267700195684011958900017b979800826778017b979000826780017b97880033025c02956a4011013307209568c012826988017ba9800150205e0208ba8268a001818756173f08480840019517e08477e07b67b801502260027464330062020a07330264022898635022640295639567a01250206602bfba95684011958900018297787b6798018297707b6790018297687b6788018297607b678001502268029d67959a00077ba8f000d478087ba7e8008887018268a001c887077ba7f800d887078268b801c88707956858397b87956780129568403950206a025aba95684011958900018297587b6778018297507b6770018297487b6768018297407b6760018268a801958702d88708826ab001c88a09d8a90ada880a50226c026367956b58397bb8207bba187bb9107bb708956760129568603950206e02fbb9956c401182c738017b67580182c730017b6750018268a801958703d88708826ab00150227002f26682c828017b68a801502272020f6782cb20017b6ba001956b58397bb8407bba387bb9307bb7289567401295688039502074029fb995674011827700017b67480195672012330840502076025ab7956940118292f800829cf000829be800829ae000d42b07d4ca08d47808988820d4c707977720d48707510706282726826780017b97c000826788017b97c800826790017b97d00095680012826798017b97d80064a77b6ab8017b6bb0017b6290017b6c98015020780229b8956c000182c8b80082c7980082cb9000d47b0b140a00000000010000001407e0ffffff00000000d8780782c9b000949794b752070628b325838720826860017b6a9001956a40117ba8a000826868017ba8a800826870017ba8b0009568e011826978017ba9b8007b6b980150207a02b8b7956b000182b9980082bab00082b8b80082b790009577c0d8780794a794975207062856258387408268a001956b40117bb880008268a8017bb88800826850017bb890009568c011826958017bb9980050207c0263b7956a000182a9b8001407a0ffffff00000000d8790782a8b000948782a89800948752070628fe247c6748018e78839760956a4011491a78491a707ba8609568a011491a6850207e0219b7330880008267b8015020800289ba83783309800033070a0b28f0f59517e08478e0648182692895970650228202e4637b89087b877b8a107b8b189567002e7b681850208402c4b7956958297c97bc04541703072811419577fd8e774929a004492998047b9788049567e02d492990045020860223549517e08478e06481826928959708502288028a637b8b187b8a107b89087b879567c02d7b681050208a026ab7956758297c77680451070628861e82682895870250228c02086295bc00057bc7c8007bc9d0007bcad8007bc8e0009567002d9568203f50208e022eb7330290029568582901958900038297c0007b6728018297b8007b6720018297b0007b6718018297a8007b6710019567e02c33084050209202c8b4956a582995ab000382b7880082b9a00082b8900082ba9800957b207b6bb0017b67b801d87b07c8780b7b6ba8017b689001d88b08da7708c8a8087b6898017b6a8001d8a8077b698801c897077b67a00195670040837740ff0a0801956c000182c7b00082ca9800d4a70982c8a80082cba000d4b808d48909989920d4a808978820d49808510806283a23956a583995ab000582bce80082b8f00082b9f80082aa0006956b58297bba800395ba00037ba9787ba8709568c02c7bac685020940241b5956c000182c8b80095874050229602656051080628ec2295695829492960034929580314080040f09bbce108007b9848039568a02c492950035020980202b5956c000182c8b80095876050229a02266051080628ad228268a000956a582995ab00037bb828826898007bb830826890007bb8389568802c826988007bb94050209c02bdb4956b000182b7b80082ba8000d4a70782b8900082b98800d49808d48707987720d4a808978820d48707510706285022956958294929200349291803492910039568602c49290803608267b80150209e026bb4956858294928e0024928d8024928d002958900024929c8008000826788017b870003826780017b97f800826790017b97f000648a9567402c9568202c8269b8017ba9e8025020a002724c9517e08477e07b67d80064719567002c8268b8015020a202cdb23302a4029568582901958b000282b7c00082bab80082b9b00082b8a800d49707d4a809d47909989920d4a707977720d497075107062891218267b0017b68b8015020a6023fb79518e08489e07b69b001649183778168b80183990a0701826ab00182a70882a81882a982aa106f736f8b7b6b08016f946fa268486837957740db4807682868b9959940db280995988000d4430adaa807d8980894a88e8a8879ee00859b01da8b0a88a9019599ff9aac9a88c9b8009a78ed007b6c90018ec78e9b7b69a801da970b7b689801888700018577018e0cdb0c07dbab07d4420a82680801d4380bd4ba0a88aa01d4a707330b8097067b64e00094747b63e80094737b62f00064299479648a947a51070628f822826798018577ff00826c9001d4c7088262a801d42007d4870752070628d92249264801809706826898019589017b69b801889701c807077b67b001d49707887701c8c7077b67a001d8c707c827077b67a8019a88ff007b6898019a898000826708018268f0005020a802a8617b6790017b6880018267e8008268e000826998015020aa02b4617b67880182678001d487077b67780182679801957980826708018268f0005020ac02906182699801889a80007b6a8001826b7801dbab08826be000da9b087b68580182689001826b8801d4b808daa7088267e800da97087b689001826708018268f0005020ae024b61956c000182c9b00082caa800d4a90982cab80082cba000d4ba0ad4a90982ca800093a87bc8880093a77bc7980051090628981f330c4926400182605801288a219567583149276003492758034927500349274803956740079568a0347b6980017b6a78017b6b70017b6c68015020b00288b2956a000782a74882a85082a9406f77977a206f88988820d4a8089877206f99979a20d4a707989920956c000182ca607aa9107ba7087ba89567583182c868957900037b98800082c8707b987882c8787b987082c880007b9868482788034927c0034927b8034927b0034927a80397a7209877209568c034978820988820330b60010295690035979920d4890a7bcbb80097bb2098bb209568e034978820d4b80c3308ff3309ff0a01520706289a3b956720073308405020b202a1af956800078287387b67b0018287307b67a8018287287b67a0018287207b67b8013300b4020a0a3302b60228665e5022b602635e51080628641e647998772051070628591e83977b67b0018267b80164987b69a8015020b802ffb3956858318269a8017a89c8038377956800308388200533090a09956758318177c803018268b001ae870628161e0a0a01647898772051070628081e8267b8017b68b0015020ba02b6b383788169b0013307010a0b3302bc0295695819280b3302bc0295695819018267b801959a00017ba788008267b0017ba790008267a8017ba798009568e01a8267a0017ba7a00033075020be02eaaf3302c00295685819014928800149287801492868010264893307209568c01a492970015020c202c1af82699001819756173f0e4809403302c40228b9595022c402b6593300c6020a0701826a880182a782a80882a91082aa185022c802065c95ab03d8ab0ac8a90cd89c09daaa09c88909d88908c8870795685839958a00017bab287bac307ba9387ba7409567a01a9568803a5020ca0243b095675819957900018298487b6888018298507b6880018298587b6878018297607b677001956700408377a0fa3300cc020a080195685839958b000182b7608282480182b95882ba5082687001d3870bd8870882677801d8790cdbb80c82688001d38a03d88a0a82688801d882085022ce024d5c520806283f198267b801956958197b9788008267b0017b9790008267a8017b9798009568e0198267a0017b97a00033075020d002a8ae95685819492880004918784918680264893307209568c0194919705020d20287ae82689001818756173f08480840019517e08477e07b6770015022d402f3580a07826870018287187b6788018287107b6780018287087b67780182877b6770013302d60295695819018267a0017b97608267a8017b97588267b0017b97509568a0198267b8017b974833075020d80217ae95685819491840491838491828036489330720956880194919305020da02f7ad82689001818756173f0848084001826770016f777b676001826778016f777b675801826780016f777b675001826788016f777b6748015022dc02ca570a07826a880182a71882a81082a90882aa6f777b6780016f877b6778016f977b6770016fa77b6768019517e08477e07b678801647133076001037b67400183777b6718010a048269400182970881981082996f77977a206f88988820d48a0a9877206f98978920d49707988820956958194919207b98187b9710956860197b9a0833075020de0232ad82676801956858197b87826770017b87f8826778017b87f0648a33072095684019826980017ba9e85020e00204ad82689001818755174008480840019517e08477e07b6780015022e20270573300e4020a070182684801958702d88708826a50015022e602dc5a956c58397bc97001826b800182b8107bc7680182b71882695801c89a0a7bca7801d89a09826a6001c8a9097bc9800182b90882ba6f7c6f8b6f986fa9826788017b6978017b79187b6880017b78107b6b70017b7b087b6c68017b7c956720199568c03a5020e80254ad95674011957900078298e0007b6838018298e8007b6830018298f0007b6828018297f8007b672001956700408377e0fa3300ea020a0801956a583995a800018287a00082a2880182899800828a900082682001d3870bd8870882672801d8790cdbb80c82683001d38a03d88a0a82683801d882085022ec0257595208fb00956c000182c748957906d8790782c850c8780ad88a08da770882c758c8870bd87b0782c860c87808956758397bc9387b79a8017bca30957900017b9ab0007bcb287b9bb8007bc8207b98c000956700199568003b5020ee027cac956740117c77d4075417030728ba365217018e009517e08478e07b6810016481826720017b8718826728017b8710826730017b8708826738017b879567e0185020f00237ac956a401195ab000782b7a00082b8a80082b9b00082bab800140bffffffff00ffffffd2b909140b0000000002000000d4b909956b583995bc00017bcae0007bc8d0007bc7c8007bc9d8009568203b826710015020f20262ac9517e08478e0648182696801959703d8970b826a7001c8ba09d8a90adabb0a826b8001c8ba0ad8ba0c826b7801c8cb0b7b89087b877b8a107b8b18956780187b6838015020f40296ab95674011827740078478ff005208dc04956a401195ab000782b84882b95882ba50867701956b583995bc00017bc8f0007bc7e8007bcaf8007bb900029568403b826738015020f602cfab8267a00195694011959a00077ba7388267a8017ba7308267b0017ba728956860188267b8017ba72033075020f8022aaa3302fa029568401101492818074928100749280007049569401133072095684018492908075020fc02ffa99517e08477e07b673801647182699001819756173f08480940019517e08477e07b6730015022fe025f540a07956c000182ca3082a71882a81082a90882aa6f776f8b6f996faa82c8387bca087b8a187bc9207b89107bcb287b8b087bc7307b87956720185020000387aa956a40110182a2f80682acf00682abe8068e278ec8db2708d42c078eb9db780951090628163582a7e0067b679001957701887801c8b808d48709889901c8c909d8c90ac82a0a7b6b0001956b58397bb7080295b700027b78107b79187b7a209568603b826738017b6c38017b62f8005020020395aa9517e08477e07b6710016471956840118267f800958900067b9778826738017b9770826700017b9768826790017b9760826708017b979800826720017b979000826728017b978800956b40119567e0179568c0179569a017826a30017bba8006502004033b3e95684011958c000682c7d8007b67900182c7d0007b67200182c7c8007b67300182c7c0007b67380182c7b00082cbb80082c9a00082caa800826810017b87107b8b187b897b8a0895678017502006035ba995684011958900068297507b67f0008297587b67e800829740956b40117b67e0008269380198973d826a300197a803d487077b67280198a73d826a200197a803d487077b67300182b748067b67d80098a73d82689001978803d487077b6720019799037b699001826718010a04826928018e97826c900188c80001858a01db970a826b20018eb7826930018e98dbb70864b7826b400182b308d4790981b210db980a7b6a080182b86f379779206f2a98aa20d49a0a7b6a00019877206f8b97b920d479087b68f80098bb207b6b30018dc980007b69d00064a750200803a7567b6720017b68c000826738018a79037b69280182673001330850200a03ae567b68b80082682001d487077b673801826790018379807b69c800826700018268f80050200c03865682699001889b80007b6b2001826a3801dbba07826a3001da9a077b6738018267c000826ab800d4a707dab80793977b673001826700018268f8008269280150200e03425664898268200193879389826a08018268300194a87b6830018268380194a87b68380194a97b69000194a77b67f8001407ffffffff000000007b67c00033088269280150201003fa557b67a8007b68b8003307ff3308ff8269d00050201203bc557b68b0008268a800d487077b67d0003307ff3308ff8269c80050201403c35582692001826ad000db9a07826b9001826ac000daba077b67d0008267b800826ab000d4a707da980793b77b6790013307ff3308ff826928015020160385558269200193979398826990018599ff826ad00085aaff8588ff8577ff826b080194baff94b9ff94b7ff94b8ff826bd800d2b808826be000d2b707826be800d2b909826bf000d2ba0a956c000182cb38d4ba0a82cb30d4b909826bf800d4b70782cbd4b808956b58397bb8300295b800027b87287b89407b8a389568803b82c7105020180331a79567583949276002492758024927500249274802956700408377a0fb0a0e95675839957900028298487b6890018298507b6838018298587b6830018297607b672801956760178268880150201a035ea6956b401195bc000682ca2082c72882c83082c938826c28017bbcd805826c30017bbcd005826c38017bbcc805826c90017bbcc00595bc00057bc9f8007bc8f0007bc7e800956b40119567401795682017956900177bbae00550201c039140956a401195ab000682b71882b81082b90882ba956b583995bc00027bc780007bc8787bc9707bca689568c03b8267880150201e034da69517e08472e064218267680195770188780182697001c8890cd4c709889901826a8001c8a909d8a90a826b7801c8ba0a64287b629001642b7bba187bb9107bbc087bb79567e016502020037da5956b401195bc000582c9a00082c7a80082c8b00082cab8007bca787bc8707bc768956a40119567c0169568a0167ba9600550202203433f956a401195ab000582b7980082b8900082b9880082ba8000956b583995bc00027bc7a0007bc898007bc990007bca88009568e03b82679001502024038ba595670040837700fc330026030a080182686801958702d88708826a700150222803045282688001c88a0ad88a08826b7801c8b808956b583995bc00027bc8e00082c8b0007bcad80082cac0007bc9d00082c9b8007bc7c80082c7a8007bba00037bc9f8007bc8f0007bc7e8009567203c9568403c50202a0311a59517e0847ce064c182684801958704d88708826a500150222c03915182685801c88a0ad88a08826b6001c8b8087b6c90017bc8187bca107bc9087bc7956758394927200349271803492710034927080395670040837760fc0a0e95675839957900038298087b6880018298107b6878018298187b6870018297207b676801956780168268900150202e0302a4956b401182ba400582b7480582b8500582b95805826c68017bbcf804826c70017bbcf004826c78017bbce804826c80017bbce00495bc00057bc9187bc8107bc708956b40119567601695684016956920167bba000550203003383e956a401195ab000582b73882b83082b92882ba20956b583995bc00037bc7407bc8387bc9307bca289568803c8267900150203203f4a395670016826888015020340363a395684011958900048297d8007b6770018297d0007b6768018297c8007b6760018297c0007b6758019567e0153308405020360302a195684011958900048297b8007b6780018297b0007b6778018297a8007b6788018297a0007b6790019567583949276003492758034927500349274803956700408377a0fc330038030a0e01956a000182a7800082a88800d4870782a97882a8900050223a03ca5051070628910f956a583995ab000382b74882b85082b95882ba60956b401195bc00047bca98007bc990007bc888009568c0157bc780008267900150203c0395a1956a000182a7800082a878d487071408e0ffffff0000000082a99000d8890882a9880094989478520806282a0f82679001837720956a40118268580195ab00047bb860826860017bb868826868017bb8709568a015826970017bb97850203e0333a1826718010a048269400182970881981082996f7a97a7206f88988820d4780298aa206f99979820d4a80398992095684011492818048267a0017b8738048267a8017b8730048267b0017b8728048267b8017b8720043a0a8000023a0b8800023a0c9000023a079800027b8a5804958a00047bab507bac487ba7407ba9107b8308049567401133084095698015956a6015956b40157b72000482679001502040031ba333078268980133090a0b330860010228bd288268f00082678001d88704826cb800d3c207d8c209da74098267c000c97b0ad89a03d87b0bc83b0b7b6bb8018263c800826b7801c93b0b8260b801c90b0b7b6bb801c99a0a7b6ab001c9c209c94909826b8001c98b0b956a58217ba868017bab480195ab00017bbc707bb7787bb9507ba380018267b0017bb7589567c0229568a0228269b8017bb9605020420341384926b8014926b0014926a0014926a8018267b000977720987720956900017b97409567003e9777209877209568403e978820d487077b97308267a8009777209878209567203e9777207b9828d487077b972001956780228268f00050204403559e956c582195ca000182a73082a84082a92882c438018260b001d37003d870078262b801d89209db3709826ba001d84b07826aa801d38a03d88a08da3708d34b07d43707da79085108e30a7bc2088267f0007bc7287bc0108267b8007bc7307bcb188267c0007bc7387bca209567a0219568802195696021826ac8007bca40502046039c3d330248039568582101828760828958828a50828848d4a707d4980ad47a0a98aa20d49707977720d4a7075207a00c9567402150204a03999d95685821958900ff8297f800956800017b8790008297f0007b8788008297e8007b87980033024c0395695819018267d000959a00077ba7e0008267d8007ba7d8008267e0007ba7d000956820218267e8007ba7c800330750204e03769e956758194927c0074927b8074927b007647a33072095680021492aa8070350205003529e8268f800818756173f08480840018267380182689001d287077b676801826888018488ff7b687001826898018487ff7b6778019517e08477e07b67800150225203af4b0a07826a800182a71882a81082a90882aa6f777b6760016f877b6758016f977b6750016fa77b6748019517e08477e07b67800164713302540395695819014929a00782676801959a00077ba79800826770017ba790009568e020826778017ba78800330750205603a59d956b000182b74895685819958900077b97800082b7507b977882b7587b9770648a3307209568c02082b9607ba9680750205803709d8268f800818756173f08480840019517e08477e07b67780150225a03f24a33005c030a07826a780133025e03287b4a826a780150225e03744a7b8a187b89107b8b087b879567a02050206003149e956a581995ab000782b76082b85882b95082ba48d4790bd48a0cd4cb0b510b7e826b88016fbb97b220826c90016fcc98cc20d42c02826c98016fcc97c32098bb20d4b30398cc20826bb0007abc107bb3087bb2956b583995bc00047bcaa8007bc9b0007bc8b8007bc7c000482bc804492b0005492bf804492bf004492be8043308ff3309ff82674001826a3001826b2801826c20010a0152075909956a000182a8b80095880188870182a9b000c879097ba8b8007ba9b000d4980788770182a8a000c88707d8870882a9a800c889097ba9a8007ba7a00028aefc8267f8008268b801d878038268e000826ca801d38c0ad88c09daa3098262e800826aa001c92a00d82a0a8264f000826bb001c94b0bc9ab0bd8900ac9ab0bc99000c98c09c93909826ab801c97a0a7b67a0057b6a80057b68a8057b62b0057b6988057b64b8057b6090059567a005956880057b6b9805502062031d349567600533084050206403859a8262780595680005828c70828a68828760d42a09d4c708d49808988820d4c909979920d49808520858099578207b68b001d8780bc8ba087b68b801d8a808dabb08c8c8087b68a001d8c808c828087b68a8014926580549265005492648059568400549264005207b6750017b6a40017b6238017b6c300150206603429b956720058268f80050206803fa99956c000182c7b00082caa000d4a70982c8b80082cba800d4b808d48909989920d4a808978820d498085208ca08956c000582cb3882c83082c92882ca207b6a58017bca7b6960017bc9087b6868017bc810956800057b6b70017bcb1850206a03d29a3302330b33003304956a000182a8509587407ba7b000d8870782a940c879087ba8a800d89808da770882a730c878087ba8a000d8780782a838c887077ba7b80082a808826300010182675801d8720782696001d39b0a7b6b9801d89b09daa709826c6801d8c007826a7001d3a40bd8a40adab70ad3c007d4b707da790a510aaf07d4380782691001826a1801d4a909d49707987720d43909979920d497075207f3077b6080017b6488017b6290017b6300019567e0047b68080150206c03d898956800018287b000828ba000d4b709828ab800828ca800d4ac08d48909989920d4b808978820d498085208a8077b6ba001826bf0048268e8048269e0047b6ab801826a4801d2ab0b8488ff8499ff4926d804956a00047ba9c0007ba8c8009568c0047babd0007b67b0017b6ca80150206e039e998268b0019587207b677801d887098267a801c89703d8730ada990a8267a001c8a709d8790a8267b801c8a7077b67b80182670801957a20d87a0b82671801c8b70cd87c07dabb0782680001c88707d8870b82681001c8b8087b68100182629001952201882b0182649801c8b404d4420b88bb0182688001c88b0bd88b0882608801c88000826878017b68b0017b63a8017b69a00164a87b6c1801647364b7644b640464702870fe9567c01b33084050207003b09795695819018292800295980002828c78828b70828768d42b0ad4c708d4a808988820d4ca0a97aa20d4a80852087e06492958024929500249294802140a00000000a079c3089568a01b7b9a60027b67b8017b6bb0017b62a0017b6ca80150207203879850227403be405107400683870495695819492940024929380249292802209568801b492930027b6aa8017b6ba00150207603539850227803df4051070c06838724956a5819492a2002492a1802492a0802149568601b492a100250207a03279850227c03f7405107e00583a7443a087000023a09780002956b58197bb800027bb9f801140800000000737365727bb8f0019568401b492be8013300a80328e4979567a02d33084050207e03a096956958298292600495980004828c58828b50828748d42b0ad4c708d4a808988820d4ca0a97aa20d4a80852086f05492938044929300449292804140a00000000a079c3089568802d7b9a40047b67b8017b6bb0017b62a0017b6ca80150208003789750228203af3f5107310583870433085829502284036a469568602d492910047b6aa8017b6ba001502086034b9750228803d73f51070405838724956a5829492a0004492af803492ae803169568402d492af00350208a031f9750228c03ef3f5107d80483a7443a080000023a090800023a0a100002956b582995bc00037bc8e0007bc9d8007bcad0009568202d492bc8033300a80328dd969567601033084050208e0399959569ff07959939018292400795980007828c38828b30828728d42b0ad4c708d4a808988820d4ca0a97aa20d4a80852086404492918074929100749290807140a00000000a079c308956840107b9a20077b67b8017b6bb0017b62a0017b6ca801502090036d9650229203a43e510726048387049569ff0795993901492900074929f8064929e80620956820104929f0067b6aa8017b6ba00150209403359695690001829ba800829ab0008298b8008297a0009577dcd8780794a794b75107d6038387249569ff07959939014929e0064929d8064929c8061a956800104929d00650209603ed9550229803bd3e5107a60383a7443a08c000023a09c800023a0ad00002956bff0795bb390195bc00067bc8c0007bc9b8007bcab000140900000000000064659568ff079588e1077bc9a8003300a8032899959567801a33084050209a035594956b581982b2400195b80001828c38828a30828728d42a09d4c708d49808988820d4c909979920d4980852082403492b1801492b1001492b08017b6ab001140a00000000a079c3089568601a7bba20017b67b8017b62a8017b6ca00150209c032d95956c000182c8b80082c7a80082caa000d47a0a50229e03853d5107d3028387049569581949290001330c4929f8004929e800209568401a4929f0007b6aa8017b6ba0015020a003e4945022a203703d51079d02838724956a5819492ae000492ad800492ac8000e9568201a492ad0005020a403b8945022a603cc41510771028397443a08580002956a5819492ab0007ba8c000140800006465646e65207ba8b8009568001a492aa8005020a8037e943308648267b8015020aa03ef9783783307013309640a0b01956760223308405020ac031f93956958218292200195980001828c18828b10828708d42b0ad4c708d4a808988820d4ca0a97aa20d4a8085208ee01492900014929f8004929f000956840224929e8007b67b8017b6bb0017b62a0017b6ca8015020ae030194956b000182b9b80082b7a80082b8a000d487071408e0ffffff00000000d8890882bab00094a8947851089801839720956a5821492ae000492ad800492ad00095682022492ac8005020b003b493956b5821492b8000491b78491b708267d0007bb7a0008267d8007bb798008267e0007bb790008267e8007bb788003a073800023a084000023a094800023a0a5000027bb7c0007bb8b8007bb9b0007bbaa80064b733084095690022956ae021956bc0214917688267b8015020b203ce9533078268000133090a0b330860010228701b956780203308405020b403eb9195675819957900078298407b68b0018298387b68a8018298307b68a0018297287b67b8013300b6030a0a3302b80328ac405022b803a9405208ad0064799877205207a40083977b67b0018267b80164987b69a8015020ba034996956858398269a8017a890805837795680040838860fe33090a099567583981770805284be2826750018264b001d87402826c40018268a801d3c80ad8c809daa209826a3001826ba001c9ab00d8ab03826b3801826ab801c9ba0bc93b0bd8900ac9ab0ac9900bc9c809c92909c97408d4a909d4b80ad49a0ad4b90998aa20979920d4a90952090628651e008267b8019579808267e8008268e0005020bc0348417b6778017b688001826708018268f0008269b8015020be032e417b6770017b6868018268b8019a8980008267e8008268e0005020c003364182696801d498088269b801889a80007b6a6001826b8001daab08826bf000da9b087b68800182687001d4870782687801daa80782680801da98077b6778018267e8008268e0005020c203c440330c49266801956b000182b96093987bb87093977bb76082b948959aff7bba388e999599ff7bb93082605801017b6c5001492640018268780198893f826c800197ca01d49a03978901980b3fd49b0b7b6b5801826a3001d33a0782648801d83a0882693801d8b902db78028268700197880182676001987b3fd4b8087b68700198cb3f977701d47b0b97070182689001988c3fd4c709978c0198483fd4c808974c018267980198703fd40c04977701826c5001d4c7077b679801826c6801d44c077b678801d48c077b679001d49c00c9ba07d82707d8ba0882647001c94a0cc98c0cc97c0c99c23f82674801d2720782695801c979087b687801d87908c983077b6780019438c98b077b676001d88b08c98408956700017b7870827ab8008278b000d48a09889901827ba000d89b0cc99b0b88a901c998088279a800c9c90995aaff7b78b0007b79a800d489097b7ab800d4ba0ad4a909842c017b7ba000492668015209cbfe8269900198973f970801d48707826b880198b83f979901d49808826a980198a93f97bb0197aa01d4ca0a826c4001d4c909d4b909d48c03d47c04826b480101d6ab0cca9b0764b8c8c70bd87b07d69809c89707ca8409d6830cc8c9097b69b801ca8303caa8048268f000d3b80cd8b80982600801d84002dac209826ae000826cb801c9ca0cc87303d87307c97c0c826ae800c93a07d83a0ac9ac0cd8970ac9ac0cc99707c9b808c92808c94009956b5829826a10017bba6802826a18017bba700295ba00027ba948826920017ba978826928017ba980007ba8507ba7589567e02b9568c02b9569a02b7bac605020c403d22a956758298272a002827c98028273900282748802826828958707d88708826a30c88a09d8a90ada880a826838c88a0ad88a08826b40c8b808956b58397bb8200695b800067b8a187b89107b87088268d8007b6c787b8c1064277b6780007b871864477b67687b8764377b67707b87089567603f5020c6034b909567802b8268185020c803bb8f956a582995ab000282b72882b83082b93882ba405022ca03cb3c95bc00067bca407bc8307bc7287bc9389568803f8267185020cc0307909567602b3308405020ce034b8d956a582995ac000282c72082c81882c91082cb085022d003103b52072afc82676895a800017b87e8008267707b87f0008267787b87f8009568402b826780007ba7000264b77b6bb8015020d203368e3a07180002956a58298268880095ac00017bc8c000826890007bc8b8007bc7e0003a072000023a082800023a09300002826b98007bcbb0007bc7d8007bc8d0007bc9c80064ab3308209569202b956a002b8267a0007bb7a8018267b8015020d403b18f9567582982688800957a00017ba8a000826890007ba89800826898007ba890009568e02a8269a0007ba9880033075020d6039f8d3302d80395685829014928800149287801492868010464893307209568c02a492970015020da03768d9517e08477e07b67b801647182690001819756173f08480940019517e08477e07b67b001647183793308408267f8003300dc030a073302de03285d375022de035a379567a02a3308405020e003ed8b95675829957900018298607b68608298587b68588298507b68508297487b67f0009567802a8268b8015020e203ea8d8267f000826860826950d48909826a585022e403c83a5208a1fa956c582982c9400182c8380182ca300182cb28017b6b10017bcb08017b6a180195cb00017bba107b6820017bb8189568602a7b6928017bb9205020e6039f8c82679801956858297b8700018267a0017b87f8008267a8017b87f00064899568402a8267b0017b97e80033075020e8036d8c9517e08477e07b679001647182670001817756171f0c82680001480820011407ffffffff000000007b6730015022ea0394388267f8000a073303330c3302826ab80182a71882a81082ab0882a46f706f8a6fb733086f49826b90017bb9187b6738017bb7107bba087bb01407e0ffffff00000000956b00017bb7088267f0007bb7b8008267507bb7b0008267587bb7a8008267607bb7a000017b6948017b6a50017b6058018260b801950420826710017b637001d8730782691801d39c0a7b6c6801d89c09daa709826b2001d8b807826a2801d3a20c7b626001d8a20adac70a7b684001d3b807d4c7077b649801d8040bda790a956800018289b000c8b9077b878800d89707dabb078289a800c897077b8778d897078289a000c897077b878000510ae80095672026826890015020ec032c8c5022ee03b1385108f3f8956a582195ac000482c7d80082c8d00082c9c800826b3001d2b707330bffd2b808d2b909492ac0047bc9a8007bc8b000956800267bc7b800826798015020f003ee8a82605801950001880701826a5001c87a0ad4a00788770182683801c88707d88708826b4801c88b0b82637001953301883801826c6801c88c0cd4c30888880182694001c89808d8980982626001c89202826990017b9a087b907b97107b9b18956900017b9738829798007b97b800829788007b97b0008297787b97a800829780007b97a00064b92893fe8262f00082679801d82704826c5082678801d3c70ad8c709daa409826858826b7801c98b0ad89a03d88b0bc83b0b7b6bb801826360826b8001c93b0b8260b801c90b0b7b6bb801c99a0a7b6ab001c9c709c9490982679801c9270b956a58297ba2c8007baba8007bacd0007ba8d8007ba9b0007ba3e0008267b0017ba7b8009567202a9568002a8269b8017ba9c0005020f2032022492610014926e80049260801330933023300330b330c49268801492680014926700149267801140700000000010000007b6718011407e0ffffff000000007b6748017b6cc8007b6bd0007b60d8007b6238017b69e0009567e0298268f0005020f4033188956a582982a7900082a8a00082a9880082a39800826a8001d37a0bd87a0782628801d89209dbb709826c7001d83c07826b7801d38b04d88b08da4708d33c07d44707da790851089605956858217b82c8068267f000958900067b97e8007b9ad0008267507b97f0007b9cd8008267587b97f8007b9be000648b956760289568402895692028826a607bba00075020f6036a273302f8039568582101958b000782b72082b91882ba1082b808d4a707d4980ad47a0a98aa20d49707977720d4a70752076af6956700285020fa03638795695821959a000682a7a8007b67b80182a7b0007b67b00182a7b8007b67a801826788007ba7a000826790007ba79800826798007ba790009568e0278267a0007ba7880033075020fc03518895675821492780064927780649277006647a3307209568c027492a6806035020fe032d8882680001818756173f0848084001826730018268a801d287077b6740018268b0018488ff7b6848018268b8018487ff7b67500150220004eb330a07826ab80182a71882a81082a90882aa6f777b67b8016f877b67b0016f977b67a8016fa77b67a0019517e08477e07b6768016471956958214929600682674001959a00067ba758826748017ba7509568a027826750017ba74833075020020492878267a00195685821958900067b97408267a8017b97388267b0017b9730648a330720956880278269b8017ba92806502004045e8782680001818756173f0e48084033020604283e33502206043b33330008040a07826ab80133020a0428ae32826ab80150220a04a7327b68a001826968017b98187b67a8017b97107b6b98017b9b087b6c90017b9c9567602733084050200c04c38595685821958c000682c7207b67600182c9187b69580182cb107b6bb00182ca087b6ab8017bc7958c00057bc9f8007bcbf000956740277bcae80033000e043302060528d8329567202782686801502010049c87956a000182a76082a8b000d4870782a95882a8b80050221204843552074ef4956b582195bc000582cae00082c9d80082c8d00082c7c8007b6728017bc7a8007b6820017bc8b0007b69c0007bc9b800956800277b6ab8007bcac0008267b8015020140445868267900195770188780182699801c89808d48709889901826aa801c8a909d8a90a826ba001c8ba0a956b583995bc00067bc8507bc7487bc9587bca609567e0269568a03f50201604ed86956a000182a76082a958d4790982674882a8b800d8780782a8b00094877ba9689497510798f3956c582182c2a00595c9000582989800829a9000829b88008267b8018377207b9b687b9a707b98789568c0267bc28005502018049f858268900195870250221a0446307bc9707bc7687bca787bc880009567a0269568c03f50201c046986956900018297189577c08298b800d878078298b0009487829868948751071af39569582182926005959a000582a85882ab5082ac488267b8018377407b6ca8007bac287b6bb0007bab307b6860017ba838956880267b6258017b92400550201e0414858268900195870350222004bb2f7bc990007bc788007bca98007bc8a000956760269568e03f50202204db85956900018297189577a08298b800d878078298b0009487829868948751078cf295695821829708058477ff008e788267b801837760492900054929f8047b98e804956840264929f004502024049a848267688268a800d88707826970826ab000d39a08d8a909da870982678000826a5801d37a08d8a707826b78826c6001d8cb0ada8a07d3bc0ad4a808da89078268280182693801d88908826a20018260d800d30a09d8a00ada980a8264c0008269d000d849088263b800826cc800d3c302d83c0bda280bd39408d4280882623801da8a0be07b07649b8268080182694001db79087b6808018268e80082694801db79087b68e8008268100182695001db79087b681001db730cdb740b82682001db780082682801db78028269e000947982688801958801888701826a8001c87a0a7b6888017b6a8001d4a80788770182687001c88707d88708826a7801c88a0a7b6a78017b6770012806fa8267e800847aff956b000182b7108479ff82b70882b830d287077bb9307bb720d497077bba28d4a7075107f6079567c0298268185020260448849568582980877c9777208288800082692001d49707956a58398269280195ab00067bb9b000826930017bb9a8007bb8c0007bb7b8009568004082671850202804898482682895870450222a04b22e95bc00067bcad8007bc9d0007bc7c8007bc8e0009567a0299568204050202c04d88395675829827c60827a48827b5082775833025ad62a08ca2b09c898087b68b801d89808d62b09c89808ca2709c889097b696801d889087b6b1801d4cb097b6a4001d47a0ad49a0b7b6c3801ca2c0a7b67f000d62709c89a0ac88a077b677001510b1f826770019478d89a09826a3801d62a0a8eaad4a909d498085208a50e8268400196825a82636801d432078260b80182647001d44008d487078877017b67b00168379577406849da470968279577406808da070895878000d4430adaa709d8870b94ab8ebc8897fa00857a01daba0c88c7019577ff9ac89abbc9ab0a9a99f9007b6890018e8b8e78da7b088eab7b69880188990001859901dbab09dbc8098268b001d4980894847b64980194837b63b00194807b60a8017b62580194827b62a00152086103826888018588ff0082699001d49808d47a09d4980851084803826b880195b9017b69b001889801c8a8087b68a801d4980888880182699001c898087b689801d89808c887077b67a0019ab8ff007b6890019a898000826758018268b80150202e047a307b6788017b6880018267680182687001826990015020300486307b67780182678001d487077b67800182679001957980826758018268b80150203204623082699001889a80007b6a6001826b8001dbab08826b7001da9b087b68800182688801826b7801d4b808daa70882676801da97087b688801826758018268b801502034041d30956c000182c9a80082caa000d4a90982cab00082cb9800d4ba0ad4a90982ca6093a87bc87893a77bc7900052090e492670014926580128eb018267b001957980826768018268700150203604a92f7b6760017b684801826758018268b8018269b001502038048f2f7b6700017b6850018268b0019a898000826768018268700150203a04972f82695001d498088269b001889b80007b6b5001826a4801daba08826ab801db980a7b6ab80182680001d4870782686001dab80782685801db97087b685801826768018268700150203c04252f826258014926700149266001956a000182a95093987ba8689397491a5063491a48014926580198293f8260b801970a01d49a0a97290182688001988b3fd4b90482694801d3a90bd8a903826c5001d84c02dbb302826c680197cc01987b3fd4cb0b7b6b6801980b3f977701d47b0b97870182688801988c3fd4c7077b67b801978c018267780198783fd48c03977c018267900198703fd40c0c97770182687001d487077b67900182686001d4c8077b677801d438077b6788018267b801d487077b678001c9b907d82707d8b90882636801c9390cc98c0cc97c0c99c03f840764c97402d87408c98a077b67b80194a8c98b07d88b08c983087b68680195680001828ab000828ca800d4ca09889901828b9800d89b04c99b0b88a901c99c0c8289a000c9490995aaff7b8ca8007b89a000d4c9097b8ab000d4ba0ad4a909840a017b8a707b8b9800492660015209d7fe8269880198973f82688001978801d48707826a780198a83f979901d49808826b900198b93f97aa0197bb01826c7001d4cb0b956c00017bcba00082cb58d4b909d4a9097bc9a800d4b8087bc8b000d4b7077bc79800019518e08488e064818267a00182694001d87903826718018262a801d32709d8270a7b62a801da930a82693801826b9801c9b904826cf0008269b001d89c0bc9b404c99c0bd8ab0cc9c404c9ab00c92709c93903826928959705d89709826b30c89b0ad8ba0bda990b826938c89b0bd89b09826c40c8c909956c58397bcaf0067bc7e8067bcbf8067bc900078267a00182694001c979077b6068017b80107b6360017b83087b6758017b877b6470017b84189567404050203e041d7fff8267e8006f77977820826908016f99989920d49808826910016f99979a20330b600103987720d4a7079899203e076801033e086001033d097001038267980195685839958900077b97208267b0017b97188267a8017b97108267a0017b9708482828074928600749285807492850074928480797b720987720956860409788209888209569a040979920d4890a826b2097bb2098bb2095688040978820d4b80c3308ff3309ff0a7b6778019567402933084050204004b57bff956758298278956900017b988000957a00ff82a8f8007b98880082a8f0007b98900082a7e8007b97b8008297785207b101956b000182b7b80082b98800d4970782b8900082ba8000d4a808d48707987720d49808978820d487075107062850ea956758218268a001957a00077ba8c8008268a8017ba8d0008268b0017ba8d80095682029826998017ba9e0008267b80150204204587cff956a000182a7880082a88000d487071408e0ffffff0000000082a9b800d8890882a990009498947852080628ebe98267b801837720956a58218268580195ab00077bb8a800826860017bb8b000826868017bb8b80095680029826970017bb9c00050204404f07bff956b5821492b60078267200195bc00077bc758826728017bc750826730017bc748826788007bc78000826790007bc778826798007bc7703a073800023a084000023a09480002826aa0007bca687bc7a0007bc898007bc9900064bc3a075000023308409569e028956ac028956ba0287bc788078267b80150204604fc7dff9567802882681050204804567cff956a582195ab000782b72882b83082b94082ba38847700ff867701956b583995bc00077bc9a0007bca98007bc890007bc788009568e04082671050204a04987cff33078268f80033090a0b3308600102284e030a0a01956c000182c8b80082ca8800d4a80882c9900082cb8000d4b909d49808988820d4a909979920d4980851080628a0e89878205108062897e864787b67a80183777b67b0018267b80150204c043d7eff956858398269a8017a8968078377956800408388c00033090a099567583981776807283eca3308600102838833070128da023308600102838833070128cd023308600102838833070128c002956740114927f0024927e8024927e00295694011140700000000717b484e956820147b97f802330750204e04447aff3302500495684011014928d8024928d0024928c0022195694011330704956800144929c80233008a0428147aff3308600102838833070128570233086001028388330701284a0233086001028388330701283d02330860010283883307012830023308600102838833070128230233086001028388330701281602956758194927d8064927d0064927c806647933025204140700000000717b484e3308002001838820c868087b97e0063307502054049179ff3302560495685819014928c0064928b8064928a806216489330704956800204929b006502058046779ff8267f800817756173f0c8268f80048084001330701330924826800010a0b013308600102838833070128880133086001028388330701287b0133086001028388330701286e0133086001028388330701286101330860010283883307012854013308600102838833070128470133086001028388330701283a0133086001028388330701282d013308600102838833070128200133086001028388330701281301330860010283883307012806013308600102838833070128f9003308600102838833070128ec003308600102838833070128df003308600102838833070128d2003308600102838833070128c5003308600102838833070128b8003308600102838833070128ab0033086001028388330701289e0033086001028388330701289100330860010283883307012884003307018268700133090a0b330860010228615247905b7a1153492a0001492af800492af000492ae800956700308377400233005a040a0e01956a583182a7f80082a8000182a9f00082aae800d49808d4a707d487075107920433086001028388330701281e330860010283883307012812838833070133090a0b330860010228f233090a0b330860010228e7330860010228e09567ff07957739014927d8004927d0004927c800647933025c04140700000000717b484e9568ff0701958801027b97e000330750205e046a77ff9568ff07958839014928c0004928b8004928a8001164893307049568ff079588e1014929b000502060043d77ff390854010256183f122003540102403308600102288e0033086001022886009567ff0795773901492718014927100149270801647933026204140700000000717b484e9568ff0701958841027b972001330750206404e476ff9568ff0795883901492800014928f8004928e8001164893307049568ff07958821024929f00050206604b776ff390854010256183f112003540102403308600102280833086001020183883307013309240a0b014929d8014929d0014929c80133026804140700000000717b484e3308002001838820fbc868087b97e001330750206a045d76ff33026c0495685819014928c0014928b8014928a8012164893307049568001b4929b00133008a04282f76ff49299806492990064929880633026e04140700000000717b484e9568ff07019588c1077b97a0063307502070040276ff9568ff07958839014928800649287806492868062164893307049568ff079588a1074929700650207204d575ff82679001817756173f0c8268900148084001330701330924826888010a0b0195675821492798044927900449278804647933027404140700000000717b484e33080020018388e005c868087b97a0043307502076047d75ff3302780495685821014928800449287804492868042164893307049568c0254929700433009204284f75ff8168b8012898fd9567ff0795773901492758014927500149274801647933027a04140700000000717b484e9568ff0701958881027b976001330750207c041175ff9568ff07958839014928400149283801492828012164893307049568ff07958861024929300150207e04e474ff8267f800817756173f0c8268f800480840013307013309248268f0000a0b01956740114927900749278807492780079569401133028004140700000000717b484e33080020018388c0f8c868087b9798073307502082048a74ff33028404956840110149287807492870074928600721956940113307049568a0184929680733008a04285a74ff492af003492ae803492ae003140700000000717b484e956820157ba7f8033307502086043674ff3302880495684011014928d8034928d0034928c0034195694011330704956800154929c80350208a040a74ff82679001817756173f0c8268900148084001330701330924826898010a0b7b68b80133008c04285b77ff7b68b80150208c045377ff83788169b80133070a0b28b9b2956758294917384917304917286479140700000000717b484e956880297b9740330750208e049f73ff33029004956858290149182049181849180811648933070495686029491910502092047973ff82670001817756173f0c82680001480840013307013309248268f800330094040a0b33029604283622502296043322ac780b3308600102287cfb95670030837760023308040a02956a583195ab000182b70882b81082b91882ba207b6a78047b6970047b686804956860047b6760043307502098040173ff49265804492650044926400402330720956840044926480450209a04e272ff9517e08477e07b679001647133075401027b679801390754010233083fac78118268980148084033029c04285d2050229c045a2033076001027b6788018377839933084033009e040a073302a004284b1c5022a004481c956720045020a2047273ff826720047b678001826728047b677801826730047b677001826738047b6768015022a4045320959a00017ba830d478087ba7288887018268a001c887077ba738d887078268b801c887077ba74095670004956880325020a6041673ff9568000482877b6760018287087b6758018287107b6750018287187b6748018268a8019587025022a804091a7bc8607bca587bc9507bc7489567e0039568a0325020aa04cf72ff8267e0037b6740018267e8037b6738018267f0037b6730018267f8037b6728018268a8019587035022ac04c1197bc880007bca787bc9707bc7689567c0039568c0325020ae048672ff8267c0037b6720018267c8037b6718018267d0037b6710018267d8037b6708018268a8019587045022b00478197bc8a0007bca98007bc990007bc788009567a0039568e0325020b2043a72ff8267a0037b6700018267a8037b67f8008267b0037b67f0008267b8037b67e8008268a8019587055022b4042c197bc8c0007bcab8007bc9b0007bc7a80095678003956800335020b604ee71ff826780037b67e000826788037b67d000826790037b67c000826798037b67b0008268a8019587065022b804e0187bc8e0007bcad8007bc9d0007bc7c80095676003956820335020ba04a271ff826760037b67b800826768037b67a800826770037b6790018268a801958707d88708826ab001c88a09d8a90ada880a8268a001c88a0ad88a08826bb801c8b808956b58317bb8000295b800017b8af8007b89f0007b87e80095674003956840335020bc043b71ff826740037b67d800826748037b67c8008268a801958708d88708826ab0015022be04351e826850037b68b0015022c004521e826b58037b6bb801956b583195bc00027bc8207bca187bc9107bc70895672003956860335020c204de70ff7c6720037b67a80182676801956a00037ba718826770017ba710826778017ba7083307800095680003826980017ba95020c404b66fff826748017b67f802826750017b67f002826758017b67e8023307a0009568e002826960017b69e0025020c604876fff826728017b67d802826730017b67d002826738017b67c8023307c0009568c002826940017b69c0025020c804586fff826708017b67b802826710017b67b002826718017b67a8023307e0009568a002826920017b69a0025020ca04296fff8267e8007b6798028267f0007b6790028267f8007b6788023307000195688002826900017b6980025020cc04fa6eff8267b0007b6778028267c0007b6770028267d0007b67680233072001956860028269e0007b6960025020ce04cb6eff82679001977720987720492658027b6750028267a8007b67480233074001956840028269b8007b6940025020d0049a6eff8267900197771898773849261802492610024926080249260002600149263802492630027b6720029567200295680002492628025020d20481008267b8017b67f8018267b0017b67f0018267c8007b67e801330780019568e0018269d8007b69e0015020d404316eff8267a8018e774926d8014926d0017b67c0013307a0019568c0014926c8015020d6040c6eff8267980181775627bf010e826898014808c0010182678801837880003309400133070a0b28d6ac9511907b10687b15609515708411f08279188273108272827c088e978e3bdb970b8ec7882a0485aa01dbc70ad49307db7b0a520a4b828418828b108287828808d4b70ad44808d48a0a98aa20d4b808978820d4a8085208277b12407b1c487b13509518407b19585020d804776dff9551908210688215609511703200005022da04f8175020dc045b6dff49111849111049012133070464184911085020de04436dff390854010256183f0b20035401024001330860010283883307013309243300e0040a0b019511807b10787b15707b1668951580008411e08289828218828b08828810959cfcd89c06c86b099599ffd3b90ad8b90bdaa60b958affc8ab0bd8ab0a888801c98208c8a8088f8a8eb6db8a06d4b8088e9a88cb4085bb01db9a0bdb860b510b8b0064768317203308040a028217387b17188217307b17108217287b17088217207b178317403308240a020182185082175814090000000001000000d38909d47909988a2088aa01947a939a510a44821940821a487b692082197b697b6a288219087b69087b68308218107b68107b67388217187b671895518082107882157082166895118000320033086001022808330860010201838833070133093300e2040a0b01951110ff7b10e8007b15e0007b16d8009515f0008411f0828610828218828c0882887b1c687b1258d42c036482d4680cd43c0c98cc207b1660d46308978820d4c8087b17505208500182b7187b171882b7107b171082b7087b170882b77b1782a7187b174882a7107b174082a7087b173882a77b1730829718829810829a0882997b19b0007b1ab8007b18c0009518b0007b17c800642664275020e4047c6bff821760821858d48709140700000000010000007b17201407e0ffffff00000000d8760782186894877b192894975107c8008367208218307b1890008218387b1898008218407b18a000951890008219487b19a8005020e604216bff8217209577c0d8760782186894878218289487510787009567607b1748d86707821868c878097b1940d88908da7708821760c878087b1838d87807821858c887077b176883674082187b18708218087b18788218107b1880009518708219187b1988005020e804b76aff8217508218387b78108218407b78088218487b788218687b7818955110ff8210e8008215e0008216d8009511f0003200009511e0fe7b1018017b1510017b160801951520018411e064167b673882977b67488297087b67408297107b67508297187b6758828718828910828a0882887b67307b67f8007b69287b69f0007b6a207b6ae8007b68187b68e0009567c0009568e0005020ea040f6bff8267d8008262c0008269d000826ac800826858d3870bd87808826750d8970cdbb80c826840d38a03d8a80a826848d828085022ec0454175108cf008267187b67608267207b67688267287b67709568608267307b677833075020ee04be69ff390854010256181f0b200354010220019517e08479e07b693064913307600102837783993308200a07826a3082a782a80882a91882aa106f726f886f996faa826b40c8ab0b826348c89303d89309c89b0bd3ab07d8ab0ada790a826750c88707c87a0ad87a09826c58c8c202d88707c82707c8970782683833094918384918304918284918207b837b8b087b8a107b87189551e0fe8210180182151001821608019511200132005022f004cc155020f2040a69ff4926980049269000492680003233070495688000492688005020f404eb68ff390854010256183f0b20035401024001330860010283883307013309243300f6040a0b3302f80428e0145022f804dd148e72883bc0fe85bb01db720bd4a908db8c0b520b22953840015022fa0469145020fc049568ff95519082106882156095117032005022fe041713502000057a68ff4911184911104901413307046418491108502002056268ff390854010256183f0b2003540102400133086001028388330701330924330004050a0b330206052857145022060554148e72883b8085bb01db720bd4a908db8c0b520b229538800050220805e11350200a050d68ff955190821068821560951170320050220c058f1250200e05f267ff491118491110490141330704641849110850201005da67ff390854010256183f0b2003540102400133086001028388330701330924330012050a0b01951170ff7b1088007b1580007b1678951590008411f064728289827408828c088273959a1fd89a00c80c0984aae07b1308c8a303d8a30bc8490ac8ba0ad39a06d89a07da6b07822b18d8c90c828610822210828818da000cc86c0cd86c06c82c09c89707d8c90cd89709c8b808c86808c8c808c8980c8ec88e79dbc809d4c7088ea6db8906520658821808d88308d34a09d84a06da9806d82708d3bc09d8bc0bda980bd32708d49808da860b520b317b13507b1a587b17603307409518507b1c6850201405ee66ff955170ff8210880082158000821678951190003200502216055a1550201805cc66ff4911284911204911104133070495181049111850201a05b266ff390854010256183f0b200354010240013308600102838833070133092433001c050a0b01951100ff7b10f8007b15f0007b16e8009515000150221e05c913510719955100ff8210f8008215f0008216e8009511000132009517c000330840502020051365ff8219d8008216d0008217c8008218c00050222205bb125207db004921b0004921a8004921a000140700000000a079c3089518a0007b17b800821718502024050b66ff5022260562105107a90082171883770449219800492190004921800020951880004921880050202805df65ff50222a05e61151077d8216188367244911784911704911602195186049116850202c05b965ff140700000000010000007b171407bcffffff0000000050222e0508125107418216188367443a081001027b18583a081801023a092001023a0a2801027b18507b19489518407b1a40502030056a65ff821795779c50223205ca11520704008216188367644911304911281408000000000000006e7b1838951820491120502034053565ff33088400646750203605a668ff837833070133098400330038050a0b018289828218828a08828c10959b0188b901c8a909d49b0a88aa01c8ca0ad8ca0cc82c0cd4c902d4ab08d428085108107b7b7b79087b7a107b7c1832009511b07b10487b15409515508411f050223a055d0f50203c05c064ff491118491110490111330704641849110850203e05a864ff390854010256183f0b2003540102400133086001028388330701330924330040050a0b019511907b10687b15607b16589515708411f0828a187b1a08829b1882847b14828a08829608829c828310829210c8a609c8c404d8c40cc8c909d36900d86906da0c06c83208821c08c8bc0cd8280bc8cb0bc8680cd88c08c88b00d3a90bd8a90a8218d88406dbba06d83c02821808d3800bd8800adab20ad33c08d4b808db8a0652061f7b747b79087b7c107b7018955190821068821560821658951170320050224205661250204405d863ff4911284911204911101133070495181049111850204605be63ff390854010256183f0b2003540102400133086001028388330701330924330048050a0b01951120ff7b10d8007b15d0007b16c8009515e00050224a05d510510719955120ff8210d8008215d0008216c8009511e00032009517a00033084050204c051f62ff8219b8008216b0008217a8008218a00050224e05c70f52076f502250050012502052053363ff502254058a0d51075982171883770449117849117049116020951860491168502056050d63ff50225805140f5107338216188367244911584911504911401395184049114850205a05e762ff1407bcffffff0000000050225c05420f520704008216188367443a083001023a093801027b18387b1930140800000000007473697b182895182049112050205e05a362ff3308646467502060051566ff8378330701330964330062050a0b01951120ff7b10d8007b15d0007b16c8009515e00050226405c30f510719955120ff8210d8008215d0008216c8009511e00032009517a000330840502066050d61ff8219b8008216b0008217a8008218a00050226805b50e52076f50226a05ee1050206c052162ff50226e05780c5107598217188377044911784911704911602095186049116850207005fb61ff50227205020e5107338216188367244911584911504911401295184049114850207405d561ff1407bcffffff0000000050227605300e520704008216188367443a084001023a094801027b18387b1930140800000000000064657b1828951820491120502078059161ff330864646750207a050365ff837833070133096433007c050a0b01951140ff7b10b8007b15b0007b16a8009515c0008411f0828b10828a18828c0882887b1a287b1c20d4ac0cd4b80ad4ca0a98aa207b1b30d4cb0b97bb20d4ba0a7b1738520af2008297187b17108296108297087b170882977b17951780007b181850207e05d45fff821210821c088213821788008218980082198000821a9000d3c70bd87c07d89309dbb709d8a607d3280bd88208dab708d36a0ad4ba0adaa9085108950098673b972805d4780298c83b976605d4680898393b97ca05d4a909973a05821718c87a0ad87a0b821c20c8c909c8b909d3c907d8c906da7b06821c30c8c808c88606d8860bd8c808821c28c82c07c88707c8b70795a820d8a80ac8a90bd89b09daaa09c86909d8690ac8a707821a387ba87bab087ba9107ba718955140ff8210b8008215b0008216a8009511c000320000491170491168491160140700000000717b484e9518607b17783307502080051e60ff49115849115049114032330704951840491148502082050460ff390854010256183f0b2003540102400133086001028388330701330924330084050a0b01951140fa951900057b90b8007b95b0007b96a8009515c0058411e064168289828a08828b108288187b67407b68707b6838047b6b587b6b30047b6a607b6a2804956820047b69687b6920043307502086058c5fff492618044926100449260004023307209568000449260804502088056d5fff3309540102390754010256173f0b200354010240017b69289517e08479e07b697864913307600102837783993308407b672033008a050a0701826a7882a71882a81082a90882aa50228c059a0b956b00047bba587bb9507bb8487bb7409567e0039568400450208e05f35fff956b000382b7f00082b8f80082b9e80082bae000d49808d4a707d48707510754068267687b67c0038267607b67c8038267587b67d0039568c0038267707b67d803330750209005b75eff4926b8034926b0034926a003023307209568a0034926a80350209205985eff9517e08477e07b67486471826928819756173f08480940019517e08477e07b677864718379330840826720330094050a07826a783302960528d709826a7850229605d1097b68608269487b98187b67687b97107b6b587b9b087b6c507b9c9567800333084050209805f25cff956b000382b798007b673882b890007b683082ba88007b6a7082b980007b69787bb7787bb8707bba68956760037bb96033009a053302f80428100a9567400382684850209c05d55eff826738826870d4870782693082687850229e05c20c52077405956b000382b75882b85082b94882ba407bba207bb9287bb830956820037bb7388267785020a005a05dff826750957701887801826958c89808d48709889901826a68c8a909d8a90a826b60c8ba0a956b00047bb8687bb7607bb9707bba7895670003956860045020a2054f5eff826738826930d47909140700000000010000007b67381407e0ffffff00000000826878d8780782687094877b694894975107d30495670003827918827810827a08827b826778837720956c00027bcbe0007bcae8007bc8f0009568e0027bc9f8005020a405f55cff8268509587025022a6059a057bb988007bb780007bba90007bb898009567c002956880045020a805bc5dff8267389577c05022aa05b60551076404956c000282cbd80082c8d00082c9c80082cac0008267788377407bcaa0007bc9a8007bc8b0009568a0027bcbb8007b67185020ac05825cff8268509587035022ae0527057bb9a8007bb7a0007bbab0007bb8b800956780029568a0045020b005495dff140700000000010000007b67381407a0ffffff000000005022b20532055107e003956c000282cb980082c8900082c9880082ca80008267788377607bca607bc9687bc870956860027bcb787b67305020b405025cff8268509587045022b605a7047bb9c8007bb7c0007bbad0007bb8d800956740029568c0045020b805c95cff8267389577805022ba05c30451077103956c000282c95882c85082ca4882cb40826778837780007bcb207bca287bc830956820027bc9385020bc05995bff8268509587055022be053e047bb9e8007bb7e0007bbaf0007bb8f800956700029568e0045020c005605cff140700000000010000007b6738140760ffffff000000005022c20549045107f70295670002827918827810827a08827b8267788377a000956c00017bcbe0007bcae8007bc8f0009568e0017bc9f8005020c405185bff8268509587065022c605a5047bb9087bb77bba107bb8189567c001956800055020c805e45bff826738957740ff5022ca05dd0351078b02956b000182b7d0007b673882b8c80082b9c000977720987a208267788377c0004926b8017bb9a0007bb8a8009568a0017bbab0005020cc05a65aff8268389788189888385618034402140700000000010000007b6738140720ffffff00000000826978d8790782697094978269489497510717028267788377e00049269801492690017b68800195688001492688015020ce054b5aff8268509587075022d005d8037bb7207bb9287bba307bb83895676001956820055020d205165bff826738957700ff5022d4050f035107bd01956c000182c97882c87082ca6882cb60826778837700017bcb407bca487bc850956840017bc9585020d605e559ff8268509587085022d80572037bb9487bb7407bba507bb85895672001956840055020da05b05aff1407e0feffff000000005022dc05a60251075401826720018477ff008e788267788377200149261801492610017b68000195680001492608015020de057e59ff9567e0008268305020e0053658ff8267e0007b67788267e8007b67708267f0007b67688267f8007b6760836760053300e2050a08019568000582877882626005828970828a68826860d3870bd88708826768d8790cdbb80c826870d38a03d88a0a826878d882085022e4057f06510887009567c0008268185020e605c557ff8267c0007b67788267c8007b67708267d0007b67688267d8007b6760836780053300e8050a080195680005828798008262800582899000828a8800826860d3870bd88708826768d8790cdbb80c826870d38a03d88a0a826878d882085022ea050b068887039577ff9a88026479281033083309280a3307330933080301826a407ba87ba7087ba9107ba718955140fa951700058270b8008275b0008276a8009511c0053200005022ec050e055020ee054c58ff4926980049269000492680002133070495688000492688005020f0052d58ff826728817756173f0b826828480840013307013309248268200a0b33073300f20528b85bff33075020f205b25bff3307015020f405a85bffd88708826ab001c88a09d8a90ada880a8268a001c88a0ad88a08826bb801c8b808956b583195bc00013202956c000182c8b80082c7a80082caa000d47a0a140b00000000010000001407fcffffff00000000d8780782c9b000949794a73202140b00000000010000001407fcffffff00000000d8780782c9b000949794a73202956b000182baa80082b9b00082b8b80082b7a0009577dcd87807949794a73202d88708826a58c88a09d8a90ada880a826868c88a0ad88a08826b60c8b808956b0004320295690001829ab8001407bcffffff00000000d87a078298b00094878298a80094873202826878d87807826870948782684894873202826a880182a782a80882a91082aa186f776f886f996faa95ab06d8ab0ac8a90cd89c09daaa09c88909d88908c88707956858393202826a880182a782a80882a91082aa186f776f886f996faa95ab05d8ab0ac8a90cd89c09daaa09c88909d88908c8870795685831320282970882988199106f77987a206f88978b20d4ba0a9777206f99989920d497079888203202d88708826a58c88a09d8a90ada880a826868c88a0ad88a08826b60c8b808956b00053202826ab80182a71882a81082a90882aa6f7c7b6ca8016f8b7b6bb0016f997b69a0016fa77b67b801826890017b87187b89107b8b087b8c320282a71882a81082a90882aa6f776f886f996faa956b583932029517e08477e07b67880164718379330840826798013202826ab00182a71882a81082a90882aa6f776f886f996faa826bb8017b6a98017bba187b69a0017bb9107b68a8017bb8087b67b0017bb73202821908d46909140600000000010000001407fcffffff00000000821818d8780782181094877b19089497320264718379330840826798013202491130491128491120140700000000717b484e9518207b173833073202d88708826a9801c88a09d8a90ada880a8268a801c88a0ad88a08826ba001c8b808956b583995bc00063202d88708826a8001c88a09d8a90ada880a82689001c88a0ad88a08826b8801c8b808956b583995bc0003320282a71882a81082a90882aa6f777b6788016f877b6780016f977b6778016fa77b6770019517e08477e03202d8870882ca9000c88a09d8a90ada880a82c88000c88a0ad88a0882cb8800c8b808d4a70bd49808d48b0b98bb20d4a808978820d4b8083202d8780782a99000949782a988009497320282a71882a81082a90882aa6f7c6f8b6f976fa83202d49b0bd48709d4b909989920d4b808978820d498083202d88708826a30c88a09d8a90ada880a826838c88a0ad88a08826b40c8b808956b58393202d8380bc8b70cd87c07dabb07c89707d89709c8a9097b18407b1c487b1750330740c871087b195832029517e08477e07b67b801647183793308408267f80032029567dc821818d878078218109487821808948732029511907b10687b15609515708411f0827a1882791082738277088eab8e9cdbab0c32029517e08477e07b67b8016471837933084032029517e08477e07b67b801647183793308203202d876078218109487821808948732026f776f886f996faa32027b17107b1908d497077b1818d46808d47808988820d46707977720d487073202d49707d48b09d47909989920d48707977720d4970732024926b0004926a8004926a000140700000000717b484e9568a0007b67b80033073202d88708826a7801c88a09d8a90ada880a82689001c88a0ad88a083202d8970b826a30c8ba09d8a90adabb0a826b38c8ba0ad8ba0b826c40c8cb0b3202956a000182a9b8001407bcffffff00000000d8790782a8b000948782a8a8009487320282a71882a81082a90882aa6f776f8b6f996faa8268800132028411f0827810827918827a088277d4a909d48707d497073202db3a08d39707d4b707db7c083202956a000182a7a80082a8a000d4870782a80882a9b800d8890882a9b000949894783202647183793308408267000132029517e08479e07b69b80164913202956b000182b8b00082b9a000d4980882baa80082b9b800d4a909d48909989920d4a808978820d498083202d4a708d49808988820d4a909979920d4980832028267a8019577018878018269b001c89808956958313202c88a09d8a90ada880a3202140bffffffff00ffffffd2b909140b0000000003000000d4b909956b583932028268a001c88a0ad88a08826bb801c8b80832029517e08477e07b67880164718379330840826790013202c8760a95ab000382b7f80082a8000482b9f00082bae800d49808d4a707d487073202491140491138491130140700000000717b484e9518307b174833073202c8760a95ab000782b7d80082b8e00082b9d00082bac800d49808d4a707d487073202492190004921880049218000140700000000a079c308951880007b17980082171832028267b80181773308233202d49808d47808988820d49707977720d487073202c8860949292004492918043308207b9808043202849a40520a195109148d9a40cfa80ad09808d09707d4a707320032009597c0d0780733083200849a40520a195109148d9a40d0a70acf9707cf9808d4a808320032009598c0cf870833073200214225a952484992244992244992244992244992244992244992244992244992244992244992542529a524292949a84a494a922449922449922449922449922449922449922449929224294955494a922849699204494a929424294949aaaa92942425a9242922225292242949920a95524a9294524a924a8a88882222222549929424494a49124942a9a4a4a4489122458a14295294a488882849128490309426a5211122222249481292244d922409a594502184529294241111899024111191484444888810111111420486a812852a8d8888481111242284081111a51181040412010101114820418204124820810412484444442322229224512422424488442412894888240992882291c4481109928814111111111111111185888812218410c1240a45891489082222224244444422894492444444101189442252488c082522449144901241444444488c488888888888282446841211a24822488920222222244624121111118d489224492444444424499224220288888808419288081111212292284a1211212244440410402a498848881092488888248a924444001111224289464444a41149922409928814912411111111115188882811420811248290a2448a44041149224244444422894492444444101189442252488c08252288221181a2245549922449121111111144444444444444232222228924924820890411912449922411114044444410481281888820902422424410481242888888884844444423222292245124124444440492881011918888882822229004928814914824121111114144444484288a880844249248121111118888884422521011512204214410110851948822220291241141444444228944924444442022222222220a2246841211449188401425a94a4a24912412494944102392222222101144248940449288202992481249a4485204114912898888880822229148440a22468412112451149944208a084482888888888888202212812422222222222222828888888822a22089a2c8002210451491a4aa28911205108988888818118948449248449248228948124924494404812422492489888888201289249144228944249144a2484a89884422512222221a91244992281291202222229044828844249224a2912449922812912422888888888848101111114822928848241291248988469224490249448a2411454444414484440421122202a15224a92a22222282881111111111912022222290444422918828221111118d4892244914898888082222222242148d084422892411111111444414228288888848121111111111511011114a44104204238942258a925425499244444444041111898888245144444444101149129148142922224410514444448824924412118d88888824924824499244342292842449128948249248249124894810118944225144444444444424922449222222222222a220a2111109208044251111119188888888882022124812111111111111511011400089a22411114522918888288848024944444444441011400089a2242222222222828844208988888888082202082051944444444484882022114822222222228288000249444444444410111111111111051111a1444490442142442651a84491a4a2288a485244041191241149121144441011111149248924121149222222828808222222228924914422222222222282880822222222892491442222222222228288082222222289249144222249222222888820222222924812492422924444440449914024921411414444444444041191884444444444041111444492548a2492241111444424894492009244444444041111444444441249228944444444444404491409449214114144444424292222888888888844244944101111222288888888888888041111111111115144928888888888888888888824894422111111111111414491882449922222119124922491882492244992242144444408914844242222121144248888888820292212894444a28844444444111181248a442488489220492222118988888846244992249044a488248988888288908820894288602451a84491a4aa8844225124884422918808222212241149111111111144229148229188888888882848a2283222114004511591a4aa2891124522512446449224492249922422228888442449924444442489888888082291482491442212892491442289249144a2482911894494888888462492244914898888882022914884288a48049148224944898888082222222244464444888820222222222289249288244944444444441444444424224210452651a844344a12244992444444444410111111111111111105111111894408a2482488224144444422888888888888888888888848242222888888888888888888888882884884208a4482281244924444440411111111114144444444242222221a111149922089481111119144248888888888481089442291249148a48848101191089244222222a21189244912454444441011111111492249a420624428114108114ca25091882212411449444444441444444444948808a248248828221144241289224144444444444444442422888844044944248944221189209248124924222222228888041040242a892822914422128944441009222222828848242a8988888844444444441009222222820022124549c488221111114482888888888888888888888888888888888824454444041111892449922292882449924844124992244992229224118d24499244914810912441121188882011941a912449120922494992248988002222228288880449224244441024890811419024841011114044242222228a4804491489485144444444448a24894812298818114a449044218249142a11452482482412451011111149249144922449a24822222291888804111111111111111111119194228888888888888848109124499224894412892491242a459244228288484404111111412422229188442211114151125154111111114122124844444414910892282222228288442412491211111105112342242208218249142a12514422882289888888888288888888888988208a4c228822410411894422114424128944a288202291482422892441244944101111914410114444924404111109222222499224111111115144441011910002485492888888888888202222924a121111111111440490284aa244924810111495a4244849248888a4888808929220499120224982888888082246444444442488888848441291242291886844242249922422222222924810912089880022228848904444229188041191882449928888081144444410111151444490441141c4888848922449449044458da45454259544928a24a9445424222589240951145549442492241089249244121111114444441091884404111189444412898820221291445124452422222222228248524a5292485224224922111191441222892492e42412442291484491202949114510114554c4485a9288a04811458c88888888288818114a4410452241344a1224499244244944109148241211d188441249249144822422222222a220225122411499445024128922622412894841245122411419451451441114492a8aa248a2104591544a5292481229882812291109a2c8248268241144442291482452554422912822888888888888884644444412492491202249922449229188442222888884248a4422510411111101248044444444044991449248222989082222229224222222228888442211298818112211411245914904459254952449520431222a2949449224494444928888208922229148242222222222228888888888888888a4441091482422124924928848249188a288248a522449544a22259188288888441444242211114444241211491111415111451445114014414412414422892022118988a44822888a449248924824128924899488481209222222a2884422918808229224222222222222222282882445449288202992481249a428491144444424898808222222222222228288682411441289888888888888880892228920924824292222228a48241289882022222222222222494444041149129124114144101111111111092222222222222222221a114904494492444444440411490091a8241211894422124491544a5292888888888810428848928844444450544844224924494424128924121191242211912022229248249124924892114144928824924824491289249248222212444c92244912114444444444c48888888888828888122188222312918844124191a4a2288a248a181111111105918848921289208a4c228822124192228848922489122551924452444444444424111147441289482289442422114922928824491289888888880822414492244912892492441211112122228808222211499244244914894424a88a249244924492488c442289449224918824492222222288884424491211111149222222228248249244128948224924918824924412898828aa4a24881149922449444400111111411089881011110491880811411009212202888848248888244992242222808888882088441011110491880811411009214444444424124444244992241111014444440441242222444404111191542422224404412484101111114044442241442449922411111140444404111109221145888808824844848820888488082022824450d24810114992244944444444441011910012158988880822928888888810428888281191088a0a890411894422114582285144114444111591884424894822922449922449321211444444101111114422221289482412114111292549498c884492242291482291449244922491241291482449244924124994482211492449241189241111492249244924494c4a92249144124944924492244922222212894822224144442449922449442489a448a92482481091244124492488041149124422128988288210111111218488882811111144444444444441c488502282248a2293a844140922414492248988209224888888888848242241444444141105491445640011445524a9aa482405108948241223221291482491482491441291482249242222082222222249222222824822492491482249249148492422221151229248924892482412892412111111111111414454151111400490111111114444442491442249928888884844228a884410319224499244041111111111111111511011512204516444221291088a241545512451444422112988884422252282281209a28844109148248a041189442251444444242288441241444444444444444404914492482211491211449244a21411111191241141244812114124912845442489442291880822414444441049244a11114522222248249124224924492212912422114992488a48442422124924124512894822894424124992244944824822121111111109922022222282489224892449241249249244a2444a2212894812a59412492a92a41251292249a4288a2822229244249248229144444404111111442422114144442211914422228888442429452212890822222288888808221111894424128988202222a5c84824892492482249244924914812492211894424924492244994242222892489242291241111892492449248449248242645242289442422499224499224492222222291481489409428891292841022229148242222924822491249322281282222222212119188244992888888888888404424804854128988888888884044442291884824841089884222222210094424492422222212282aa4119188244992244511818828a222124a42492889888800220a448c0891888850124a4249280925a12422a20820265120624428118128229368280925a12494849250124a4249280925a12494849250124a4249280925a124948492448502111111d188884812a1144aa542150a45444411408c281011114a4404420421211111510410230a4444841211811041282c694444003112052246841211111111408c281011114a4404a2884ca21111450031120522468412111189888822801851202222948808441199442322220288912810312244222222228088021123422422104564124544048a4a242980488188499448208ac824a2489090881491241111512022242290442142128904212a512488404444444410491249228908449148242241924404222222222241248908444444444482888888404444444424888888084444444444828888884044444424912492484444444420222292082282888824890844442412898802111111111181888888888840444444444420222222222210111111111188242222222210494404111111414444444444208a8888084421624454922449a99424495292244992248124691048921208110c25d124899424499224495249491225254992922601244925492549922449a250588a4644449294a42449924892a4922429498a88880a2409200124a5482291884420494a912449922449529244128124494a2222a2111191529224495222914844042222922449920491244992022182490a955292aa244992244992242549492222a2201011121108110c255124289224110492a4209024251022184aa248509224110492a4209024251022184aa211914825254992244992244992244925254992244992244902119128082491241022184aa21111112422228a042222828888002212082289081181204912492080020892848410922450824c92009204a24089684992244992a4242549824092944088602889264992a4929224499224499294244992a424499282401249022182a1241a1111412222a24820222248100892249104822449248100824c42480248124881926844440489888822818888204120489244120892249104020832092109204920054aa21111912425499224892449450249111149922449224992244992244992244992244952928888689200920249240984088692684444442a49128944240a4484440442886092142a892649412449442022229244229188448188908840925264924aa24412244992140944241289248944241248920411499224924092244992449244049204900092942292944444440492202222229004111111494444249004111111810012401011119124892490041111118124884892449248200922222202012480202249898888884012a42422900822221149222222024942000920492912111111488224890824828824492489049220492202010411512222220291402412894434124992244992202281482412896844442449922409925455999244444434084484440452249354448104124922894414119100024854010490a8222222a9922449922822804451494a4549aa922449a228495592244994524a529292244992289254144511492a4955511295289254159148242a09208024a52a519200924a2489241251224924918892541445919448124924499294282a495525499292244992284992244952129528494a2549925229894a49544a4a55952449929424498a8800222a912492922449922202481495a4aa28494a529214114924aa4a94444544229224294992228944490a2001248a2452129528111191a4240124958888485244041091a294244989489424495249254992545200"},"methodIdentifiers":{"ENDING_PERIOD()":"f13d1259","STARTING_PERIOD()":"3d757a4b","TREASURY_SHARE()":"32696174","WINNER_SHARE()":"dbe3010c","currentGameId()":"536a3ddc","emergencyEndGame(uint256)":"b256b11b","endGame(uint256)":"d0399bb8","gamePlayerList(uint256,uint256)":"ed456ee4","gamePlayers(uint256,address)":"62e2961b","games(uint256)":"117a5b90","getGamePlayerCount(uint256)":"ff8fb35c","getGamePlayers(uint256)":"15a40f49","getGameState(uint256)":"ffde0c74","getPlayerBid(uint256,address)":"a59d9ab7","owner()":"8da5cb5b","placeBid(uint256)":"9979ef45","startNewGame()":"482d51e0","withdrawTreasury()":"166bab95"}},"hash":"f1074e9220ea5f9f29374497ba81eca73185bf74ee3104b2e08d7584f7561a48","factoryDependencies":{}}}}