{"contracts/BigWickGame.sol":{"BigWickGame":{"abi":[{"inputs":[],"stateMutability":"nonpayable","type":"constructor"},{"anonymous":false,"inputs":[{"indexed":true,"internalType":"uint256","name":"gameId","type":"uint256"},{"indexed":true,"internalType":"address","name":"player","type":"address"},{"indexed":false,"internalType":"uint256","name":"amount","type":"uint256"},{"indexed":false,"internalType":"uint256","name":"totalBid","type":"uint256"}],"name":"BidPlaced","type":"event"},{"anonymous":false,"inputs":[{"indexed":true,"internalType":"uint256","name":"gameId","type":"uint256"},{"indexed":false,"internalType":"uint256","name":"candleEnd","type":"uint256"}],"name":"CandleEndDetermined","type":"event"},{"anonymous":false,"inputs":[{"indexed":true,"internalType":"uint256","name":"gameId","type":"uint256"},{"indexed":true,"internalType":"address","name":"winner","type":"address"},{"indexed":false,"internalType":"uint256","name":"prizeAmount","type":"uint256"},{"indexed":false,"internalType":"uint256","name":"treasuryAmount","type":"uint256"}],"name":"GameEnded","type":"event"},{"anonymous":false,"inputs":[{"indexed":true,"internalType":"uint256","name":"gameId","type":"uint256"},{"indexed":false,"internalType":"uint256","name":"startTime","type":"uint256"},{"indexed":false,"internalType":"uint256","name":"endingPeriodStart","type":"uint256"},{"indexed":false,"internalType":"uint256","name":"endTime","type":"uint256"}],"name":"GameStarted","type":"event"},{"anonymous":false,"inputs":[{"indexed":true,"internalType":"address","name":"player","type":"address"},{"indexed":false,"internalType":"uint256","name":"amount","type":"uint256"}],"name":"WithdrawalReady","type":"event"},{"inputs":[],"name":"ENDING_PERIOD","outputs":[{"internalType":"uint256","name":"","type":"uint256"}],"stateMutability":"view","type":"function"},{"inputs":[],"name":"STARTING_PERIOD","outputs":[{"internalType":"uint256","name":"","type":"uint256"}],"stateMutability":"view","type":"function"},{"inputs":[],"name":"TREASURY_SHARE","outputs":[{"internalType":"uint256","name":"","type":"uint256"}],"stateMutability":"view","type":"function"},{"inputs":[],"name":"WINNER_SHARE","outputs":[{"internalType":"uint256","name":"","type":"uint256"}],"stateMutability":"view","type":"function"},{"inputs":[],"name":"currentGameId","outputs":[{"internalType":"uint256","name":"","type":"uint256"}],"stateMutability":"view","type":"function"},{"inputs":[{"internalType":"uint256","name":"gameId","type":"uint256"}],"name":"emergencyEndGame","outputs":[],"stateMutability":"nonpayable","type":"function"},{"inputs":[{"internalType":"uint256","name":"gameId","type":"uint256"}],"name":"endGame","outputs":[],"stateMutability":"nonpayable","type":"function"},{"inputs":[{"internalType":"uint256","name":"","type":"uint256"},{"internalType":"uint256","name":"","type":"uint256"}],"name":"gamePlayerList","outputs":[{"internalType":"address","name":"","type":"address"}],"stateMutability":"view","type":"function"},{"inputs":[{"internalType":"uint256","name":"","type":"uint256"},{"internalType":"address","name":"","type":"address"}],"name":"gamePlayers","outputs":[{"internalType":"uint256","name":"totalBid","type":"uint256"},{"internalType":"uint256","name":"bidCount","type":"uint256"},{"internalType":"uint256","name":"lastBidTime","type":"uint256"},{"internalType":"bool","name":"exists","type":"bool"}],"stateMutability":"view","type":"function"},{"inputs":[{"internalType":"uint256","name":"","type":"uint256"}],"name":"games","outputs":[{"internalType":"uint256","name":"gameId","type":"uint256"},{"internalType":"uint256","name":"startTime","type":"uint256"},{"internalType":"uint256","name":"endingPeriodStart","type":"uint256"},{"internalType":"uint256","name":"endTime","type":"uint256"},{"internalType":"uint256","name":"totalPot","type":"uint256"},{"internalType":"uint256","name":"treasuryFund","type":"uint256"},{"internalType":"address","name":"winner","type":"address"},{"internalType":"enum BigWickGame.GameState","name":"state","type":"uint8"},{"internalType":"uint256","name":"candleEnd","type":"uint256"},{"internalType":"bool","name":"finalized","type":"bool"}],"stateMutability":"view","type":"function"},{"inputs":[{"internalType":"uint256","name":"gameId","type":"uint256"}],"name":"getGamePlayerCount","outputs":[{"internalType":"uint256","name":"","type":"uint256"}],"stateMutability":"view","type":"function"},{"inputs":[{"internalType":"uint256","name":"gameId","type":"uint256"}],"name":"getGamePlayers","outputs":[{"internalType":"address[]","name":"","type":"address[]"}],"stateMutability":"view","type":"function"},{"inputs":[{"internalType":"uint256","name":"gameId","type":"uint256"}],"name":"getGameState","outputs":[{"internalType":"enum BigWickGame.GameState","name":"","type":"uint8"}],"stateMutability":"view","type":"function"},{"inputs":[{"internalType":"uint256","name":"gameId","type":"uint256"},{"internalType":"address","name":"player","type":"address"}],"name":"getPlayerBid","outputs":[{"internalType":"uint256","name":"","type":"uint256"},{"internalType":"uint256","name":"","type":"uint256"},{"internalType":"uint256","name":"","type":"uint256"}],"stateMutability":"view","type":"function"},{"inputs":[],"name":"owner","outputs":[{"internalType":"address","name":"","type":"address"}],"stateMutability":"view","type":"function"},{"inputs":[{"internalType":"address","name":"","type":"address"}],"name":"pendingWithdrawals","outputs":[{"internalType":"uint256","name":"","type":"uint256"}],"stateMutability":"view","type":"function"},{"inputs":[{"internalType":"uint256","name":"gameId","type":"uint256"}],"name":"placeBid","outputs":[],"stateMutability":"payable","type":"function"},{"inputs":[],"name":"startNewGame","outputs":[{"internalType":"uint256","name":"","type":"uint256"}],"stateMutability":"nonpayable","type":"function"},{"inputs":[],"name":"withdraw","outputs":[],"stateMutability":"nonpayable","type":"function"},{"inputs":[],"name":"withdrawTreasury","outputs":[],"stateMutability":"nonpayable","type":"function"}],"evm":{"assembly":"// RO data = 0/0 bytes\n// RW data = 400/65984 bytes\n// Stack size = 32768 bytes\n\n// Instructions = 13189\n// Code size = 47729 bytes\n\n      : @0 (gas: 2)\n     0: a1 = i32 [0x20198]\n     5: jump @36 if a1 == 0\n      : @1 (gas: 4)\n     9: a0 = 0x301c0\n    14: i32 a0 = a0 + 0\n    16: ecalli 13 // 'set_immutable_data'\n    18: jump @36\n      : @2 (gas: 8)\n    21: sp = sp + 0xfffffffffffffff0\n    24: u64 [sp + 0x8] = ra\n    27: u64 [sp] = s0\n    29: a2 = a1\n    31: s0 = a0\n    33: a1 = 0x20\n    36: a0 = a2\n    38: ra = 2, jump @16\n      : @3 [@dyn 1] (gas: 100)\n    43: a1 = u8 [a0 + 0x1]\n    46: a2 = u8 [a0]\n    48: a3 = u8 [a0 + 0x2]\n    51: a4 = u8 [a0 + 0x3]\n    54: a1 = a1 << 0x8\n    57: a1 = a1 | a2\n    60: a3 = a3 << 0x10\n    63: a4 = a4 << 0x18\n    66: a3 = a3 | a4\n    69: a1 = a1 | a3\n    72: a2 = u8 [a0 + 0x5]\n    75: a3 = u8 [a0 + 0x4]\n    78: a4 = u8 [a0 + 0x6]\n    81: a5 = u8 [a0 + 0x7]\n    84: a2 = a2 << 0x8\n    87: a2 = a2 | a3\n    90: a4 = a4 << 0x10\n    93: a5 = a5 << 0x18\n    96: a4 = a4 | a5\n    99: a2 = a2 | a4\n   102: a2 = a2 << 0x20\n   105: t0 = a2 | a1\n   108: a2 = u8 [a0 + 0x9]\n   111: a3 = u8 [a0 + 0x8]\n   114: a4 = u8 [a0 + 0xa]\n   117: a5 = u8 [a0 + 0xb]\n   120: a2 = a2 << 0x8\n   123: a2 = a2 | a3\n   126: a4 = a4 << 0x10\n   129: a5 = a5 << 0x18\n   132: a4 = a4 | a5\n   135: a2 = a2 | a4\n   138: a3 = u8 [a0 + 0xd]\n   141: a4 = u8 [a0 + 0xc]\n   144: a5 = u8 [a0 + 0xe]\n   147: a1 = u8 [a0 + 0xf]\n   150: a3 = a3 << 0x8\n   153: a3 = a3 | a4\n   156: a5 = a5 << 0x10\n   159: a1 = a1 << 0x18\n   162: a1 = a1 | a5\n   165: a1 = a1 | a3\n   168: a1 = a1 << 0x20\n   171: t1 = a1 | a2\n   174: a1 = u8 [a0 + 0x11]\n   177: a3 = u8 [a0 + 0x10]\n   180: a4 = u8 [a0 + 0x12]\n   183: a5 = u8 [a0 + 0x13]\n   186: a1 = a1 << 0x8\n   189: a1 = a1 | a3\n   192: a4 = a4 << 0x10\n   195: a5 = a5 << 0x18\n   198: a4 = a4 | a5\n   201: a1 = a1 | a4\n   204: a3 = u8 [a0 + 0x15]\n   207: a4 = u8 [a0 + 0x14]\n   210: a5 = u8 [a0 + 0x16]\n   213: a2 = u8 [a0 + 0x17]\n   216: a3 = a3 << 0x8\n   219: a3 = a3 | a4\n   222: a5 = a5 << 0x10\n   225: a2 = a2 << 0x18\n   228: a2 = a2 | a5\n   231: a2 = a2 | a3\n   234: a2 = a2 << 0x20\n   237: a3 = a2 | a1\n   240: a1 = u8 [a0 + 0x19]\n   243: a2 = u8 [a0 + 0x18]\n   246: a4 = u8 [a0 + 0x1a]\n   249: a5 = u8 [a0 + 0x1b]\n   252: a1 = a1 << 0x8\n   255: a1 = a1 | a2\n   258: a4 = a4 << 0x10\n   261: a5 = a5 << 0x18\n   264: a4 = a4 | a5\n   267: a1 = a1 | a4\n   270: a2 = u8 [a0 + 0x1d]\n   273: a4 = u8 [a0 + 0x1c]\n   276: a5 = u8 [a0 + 0x1e]\n   279: a0 = u8 [a0 + 0x1f]\n   282: a2 = a2 << 0x8\n   285: a2 = a2 | a4\n   288: a5 = a5 << 0x10\n   291: a0 = a0 << 0x18\n   294: a0 = a0 | a5\n   297: a0 = a0 | a2\n   300: a0 = a0 << 0x20\n   303: a0 = a0 | a1\n   306: a0 = reverse a0\n   308: a1 = reverse a3\n   310: a2 = reverse t1\n   312: a3 = reverse t0\n   314: u64 [s0 + 0x18] = a3\n   317: u64 [s0 + 0x10] = a2\n   320: u64 [s0 + 0x8] = a1\n   323: u64 [s0] = a0\n   325: ra = u64 [sp + 0x8]\n   328: s0 = u64 [sp]\n   330: sp = sp + 0x10\n   333: ret\n      : @4 (gas: 12)\n   335: sp = sp + 0xffffffffffffffd8\n   338: u64 [sp + 0x20] = ra\n   341: u64 [sp + 0x18] = s0\n   344: u64 [sp + 0x10] = s1\n   347: a2 = u64 [a1]\n   349: u64 [sp + 0x8] = a2\n   352: a2 = u64 [a1 + 0x8]\n   355: u64 [sp] = a2\n   357: s0 = u64 [a1 + 0x10]\n   360: s1 = u64 [a1 + 0x18]\n   363: a1 = 0x20\n   366: ra = 4, jump @16\n      : @5 [@dyn 2] (gas: 71)\n   371: a1 = reverse s1\n   373: a2 = reverse s0\n   375: a3 = u64 [sp]\n   377: a3 = reverse a3\n   379: a4 = u64 [sp + 0x8]\n   382: a4 = reverse a4\n   384: u8 [a0 + 0x18] = a4\n   387: u8 [a0 + 0x10] = a3\n   390: u8 [a0 + 0x8] = a2\n   393: u8 [a0] = a1\n   395: a5 = a4 >> 0x38\n   398: u8 [a0 + 0x1f] = a5\n   401: a5 = a4 >> 0x30\n   404: u8 [a0 + 0x1e] = a5\n   407: a5 = a4 >> 0x28\n   410: u8 [a0 + 0x1d] = a5\n   413: a5 = a4 >> 0x20\n   416: u8 [a0 + 0x1c] = a5\n   419: a5 = a4 >> 0x18\n   422: u8 [a0 + 0x1b] = a5\n   425: a5 = a4 >> 0x10\n   428: u8 [a0 + 0x1a] = a5\n   431: a4 = a4 >> 0x8\n   434: u8 [a0 + 0x19] = a4\n   437: a4 = a3 >> 0x38\n   440: u8 [a0 + 0x17] = a4\n   443: a4 = a3 >> 0x30\n   446: u8 [a0 + 0x16] = a4\n   449: a4 = a3 >> 0x28\n   452: u8 [a0 + 0x15] = a4\n   455: a4 = a3 >> 0x20\n   458: u8 [a0 + 0x14] = a4\n   461: a4 = a3 >> 0x18\n   464: u8 [a0 + 0x13] = a4\n   467: a4 = a3 >> 0x10\n   470: u8 [a0 + 0x12] = a4\n   473: a3 = a3 >> 0x8\n   476: u8 [a0 + 0x11] = a3\n   479: a3 = a2 >> 0x38\n   482: u8 [a0 + 0xf] = a3\n   485: a3 = a2 >> 0x30\n   488: u8 [a0 + 0xe] = a3\n   491: a3 = a2 >> 0x28\n   494: u8 [a0 + 0xd] = a3\n   497: a3 = a2 >> 0x20\n   500: u8 [a0 + 0xc] = a3\n   503: a3 = a2 >> 0x18\n   506: u8 [a0 + 0xb] = a3\n   509: a3 = a2 >> 0x10\n   512: u8 [a0 + 0xa] = a3\n   515: a2 = a2 >> 0x8\n   518: u8 [a0 + 0x9] = a2\n   521: a2 = a1 >> 0x38\n   524: u8 [a0 + 0x7] = a2\n   527: a2 = a1 >> 0x30\n   530: u8 [a0 + 0x6] = a2\n   533: a2 = a1 >> 0x28\n   536: u8 [a0 + 0x5] = a2\n   539: a2 = a1 >> 0x20\n   542: u8 [a0 + 0x4] = a2\n   545: a2 = a1 >> 0x18\n   548: u8 [a0 + 0x3] = a2\n   551: a2 = a1 >> 0x10\n   554: u8 [a0 + 0x2] = a2\n   557: a1 = a1 >> 0x8\n   560: u8 [a0 + 0x1] = a1\n   563: ra = u64 [sp + 0x20]\n   566: s0 = u64 [sp + 0x18]\n   569: s1 = u64 [sp + 0x10]\n   572: sp = sp + 0x28\n   575: ret\n      : @6 (gas: 32)\n   577: sp = sp + 0xffffffffffffffa0\n   580: u64 [sp + 0x58] = ra\n   583: u64 [sp + 0x50] = s0\n   586: u64 [sp + 0x48] = s1\n   589: s0 = sp + 0x60\n   592: sp = sp & 0xffffffffffffffe0\n   595: s1 = a0\n   597: a0 = u64 [a1 + 0x18]\n   600: a2 = u64 [a1 + 0x10]\n   603: a3 = u64 [a1 + 0x8]\n   606: a1 = u64 [a1]\n   608: a0 = reverse a0\n   610: a2 = reverse a2\n   612: a3 = reverse a3\n   614: a1 = reverse a1\n   616: u64 [sp + 0x18] = a1\n   619: u64 [sp + 0x10] = a3\n   622: u64 [sp + 0x8] = a2\n   625: u64 [sp] = a0\n   627: u64 [sp + 56] = 0\n   630: u64 [sp + 48] = 0\n   633: u64 [sp + 40] = 0\n   636: u64 [sp + 32] = 0\n   639: u32 [sp + 64] = 0x20\n   643: i32 a1 = sp + 0\n   645: i32 a3 = sp + 0x20\n   648: i32 a4 = sp + 0x40\n   651: a2 = 0xffffffffffffffff\n   654: a0 = 0\n   656: ra = 0x6\n   659: ecalli 6 // 'get_storage'\n   661: fallthrough\n      : @7 [@dyn 3] (gas: 5)\n   662: a0 = u64 [sp + 0x38]\n   665: a1 = u64 [sp + 0x30]\n   668: a2 = u64 [sp + 0x28]\n   671: a3 = u64 [sp + 0x20]\n   674: t0 = 8, jump @1606\n      : @8 [@dyn 4] (gas: 10)\n   680: u64 [s1 + 0x18] = a3\n   683: u64 [s1 + 0x10] = a2\n   686: u64 [s1 + 0x8] = a1\n   689: u64 [s1] = a0\n   691: sp = s0 + 0xffffffffffffffa0\n   694: ra = u64 [sp + 0x58]\n   697: s0 = u64 [sp + 0x50]\n   700: s1 = u64 [sp + 0x48]\n   703: sp = sp + 0x60\n   706: ret\n      : @9 (gas: 40)\n   708: sp = sp + 0xffffffffffffffa0\n   711: u64 [sp + 0x58] = ra\n   714: u64 [sp + 0x50] = s0\n   717: s0 = sp + 0x60\n   720: sp = sp & 0xffffffffffffffe0\n   723: t0 = u64 [a0]\n   725: a3 = u64 [a0 + 0x8]\n   728: a4 = u64 [a0 + 0x10]\n   731: a0 = u64 [a0 + 0x18]\n   734: t1 = u64 [a1]\n   736: a2 = u64 [a1 + 0x8]\n   739: a5 = u64 [a1 + 0x10]\n   742: a1 = u64 [a1 + 0x18]\n   745: t2 = reverse a0\n   747: a4 = reverse a4\n   749: a3 = reverse a3\n   751: a0 = reverse t0\n   753: t0 = reverse a1\n   755: a5 = reverse a5\n   757: a2 = reverse a2\n   759: a1 = reverse t1\n   761: u64 [sp + 0x18] = a0\n   764: u64 [sp + 0x10] = a3\n   767: u64 [sp + 0x8] = a4\n   770: u64 [sp] = t2\n   772: u64 [sp + 0x38] = a1\n   775: u64 [sp + 0x30] = a2\n   778: u64 [sp + 0x28] = a5\n   781: u64 [sp + 0x20] = t0\n   784: i32 a1 = sp + 0\n   786: i32 a3 = sp + 0x20\n   789: a2 = 0xffffffffffffffff\n   792: a4 = 0x20\n   795: a0 = 0\n   797: ecalli 14 // 'set_storage'\n   799: sp = s0 + 0xffffffffffffffa0\n   802: ra = u64 [sp + 0x58]\n   805: s0 = u64 [sp + 0x50]\n   808: sp = sp + 0x60\n   811: ret\n      : @10 (gas: 24)\n   813: sp = sp + 0xffffffffffffff60\n   817: u64 [sp + 0x98] = ra\n   821: u64 [sp + 0x90] = s0\n   825: u64 [sp + 0x88] = s1\n   829: s0 = sp + 0xa0\n   833: sp = sp & 0xffffffffffffffe0\n   836: a4 = u64 [a3]\n   838: u64 [sp + 0x38] = a4\n   841: a4 = u64 [a3 + 0x8]\n   844: u64 [sp + 0x30] = a4\n   847: a4 = u64 [a3 + 0x10]\n   850: u64 [sp + 0x28] = a4\n   853: a3 = u64 [a3 + 0x18]\n   856: u64 [sp + 0x20] = a3\n   859: a3 = u64 [a2]\n   861: u64 [sp + 0x18] = a3\n   864: a3 = u64 [a2 + 0x8]\n   867: u64 [sp + 0x10] = a3\n   870: a3 = u64 [a2 + 0x10]\n   873: u64 [sp + 0x8] = a3\n   876: a2 = u64 [a2 + 0x18]\n   879: u64 [sp] = a2\n   881: s1 = a1\n   883: ra = 10, jump @16\n      : @11 [@dyn 5] (gas: 35)\n   888: a1 = u64 [sp]\n   890: a1 = reverse a1\n   892: a2 = u64 [sp + 0x8]\n   895: a2 = reverse a2\n   897: a3 = u64 [sp + 0x10]\n   900: a3 = reverse a3\n   902: a4 = u64 [sp + 0x18]\n   905: a4 = reverse a4\n   907: u64 [sp + 0x58] = a4\n   910: u64 [sp + 0x50] = a3\n   913: u64 [sp + 0x48] = a2\n   916: u64 [sp + 0x40] = a1\n   919: a1 = u64 [sp + 0x20]\n   922: a1 = reverse a1\n   924: a2 = u64 [sp + 0x28]\n   927: a2 = reverse a2\n   929: a3 = u64 [sp + 0x30]\n   932: a3 = reverse a3\n   934: a4 = u64 [sp + 0x38]\n   937: a4 = reverse a4\n   939: u64 [sp + 0x78] = a4\n   942: u64 [sp + 0x70] = a3\n   945: u64 [sp + 0x68] = a2\n   948: u64 [sp + 0x60] = a1\n   951: i32 a2 = a0 + 0\n   953: i32 a3 = s1 + 0\n   955: i32 a0 = sp + 0x40\n   958: a1 = 0x2\n   961: ecalli 5 // 'deposit_event'\n   963: sp = s0 + 0xffffffffffffff60\n   967: ra = u64 [sp + 0x98]\n   971: s0 = u64 [sp + 0x90]\n   975: s1 = u64 [sp + 0x88]\n   979: sp = sp + 0xa0\n   983: ret\n      : @12 (gas: 33)\n   985: sp = sp + 0xffffffffffffff20\n   989: u64 [sp + 0xd8] = ra\n   993: u64 [sp + 0xd0] = s0\n   997: u64 [sp + 0xc8] = s1\n  1001: s0 = sp + 0xe0\n  1005: sp = sp & 0xffffffffffffffe0\n  1008: a5 = u64 [a4]\n  1010: u64 [sp + 0x40] = a5\n  1013: a5 = u64 [a4 + 0x8]\n  1016: u64 [sp + 0x48] = a5\n  1019: a5 = u64 [a4 + 0x10]\n  1022: u64 [sp + 0x50] = a5\n  1025: a4 = u64 [a4 + 0x18]\n  1028: u64 [sp + 0x58] = a4\n  1031: t0 = 0xc\n  1034: a4 = u64 [a3]\n  1036: u64 [sp + 0x18] = a4\n  1039: a4 = u64 [a3 + 0x8]\n  1042: u64 [sp + 0x20] = a4\n  1045: a4 = u64 [a3 + 0x10]\n  1048: u64 [sp + 0x28] = a4\n  1051: a3 = u64 [a3 + 0x18]\n  1054: u64 [sp + 0x30] = a3\n  1057: s1 = u64 [a2]\n  1059: a3 = u64 [a2 + 0x8]\n  1062: u64 [sp] = a3\n  1064: a3 = u64 [a2 + 0x10]\n  1067: u64 [sp + 0x8] = a3\n  1070: a2 = u64 [a2 + 0x18]\n  1073: u64 [sp + 0x10] = a2\n  1076: u64 [sp + 56] = 0x40\n  1080: ra = 0xe\n  1083: jump @16\n      : @13 [@dyn 6] (gas: 2)\n  1086: u64 [sp + 0x38] = a1\n  1089: ra = 14, jump @16\n      : @14 [@dyn 7] (gas: 41)\n  1093: a1 = reverse s1\n  1095: u64 [sp + 0x78] = a1\n  1098: a1 = u64 [sp]\n  1100: a1 = reverse a1\n  1102: u64 [sp + 0x70] = a1\n  1105: a1 = u64 [sp + 0x8]\n  1108: a1 = reverse a1\n  1110: u64 [sp + 0x68] = a1\n  1113: a1 = u64 [sp + 0x10]\n  1116: a1 = reverse a1\n  1118: u64 [sp + 0x60] = a1\n  1121: a1 = u64 [sp + 0x18]\n  1124: a1 = reverse a1\n  1126: u64 [sp + 0x98] = a1\n  1130: a1 = u64 [sp + 0x20]\n  1133: a1 = reverse a1\n  1135: u64 [sp + 0x90] = a1\n  1139: a1 = u64 [sp + 0x28]\n  1142: a1 = reverse a1\n  1144: u64 [sp + 0x88] = a1\n  1148: a1 = u64 [sp + 0x30]\n  1151: a1 = reverse a1\n  1153: u64 [sp + 0x80] = a1\n  1157: a1 = u64 [sp + 0x40]\n  1160: a1 = reverse a1\n  1162: u64 [sp + 0xb8] = a1\n  1166: a1 = u64 [sp + 0x48]\n  1169: a1 = reverse a1\n  1171: u64 [sp + 0xb0] = a1\n  1175: a1 = u64 [sp + 0x50]\n  1178: a1 = reverse a1\n  1180: u64 [sp + 0xa8] = a1\n  1184: a1 = u64 [sp + 0x58]\n  1187: a1 = reverse a1\n  1189: u64 [sp + 0xa0] = a1\n  1193: i32 a2 = a0 + 0\n  1195: a3 = i32 [sp + 0x38]\n  1198: i32 a0 = sp + 0x60\n  1201: a1 = 0x3\n  1204: ecalli 5 // 'deposit_event'\n  1206: t0 = 16, jump @1624\n      : @15 [@dyn 8] (gas: 1)\n  1212: ret\n      : @16 (gas: 2)\n  1214: i32 a2 = a0 >> 0x10\n  1217: jump @21 if a2 != 0\n      : @17 (gas: 4)\n  1220: a1 = a1 + a0\n  1223: i32 a1 = a1 + 0x1f\n  1226: a1 = a1 & 0xffffffffffffffe0\n  1229: jump @21 if a1 >u 65536\n      : @18 (gas: 3)\n  1235: a2 = 0x20194\n  1240: a3 = i32 [0x20194]\n  1245: jump @20 if a3 >=u a1\n      : @19 (gas: 2)\n  1248: u32 [0x20194] = a1\n  1253: fallthrough\n      : @20 (gas: 4)\n  1254: a1 = 0x201a0\n  1259: i32 a0 = a0 + 0\n  1261: a0 = a0 + a1\n  1264: ret\n      : @21 (gas: 1)\n  1266: trap\n      : @22 (gas: 6)\n  1267: sp = sp + 0xfffffffffffffff0\n  1270: u64 [sp + 0x8] = ra\n  1273: u64 [sp] = s0\n  1275: s0 = a0 & 0x1\n  1278: ecalli 3 // 'call_data_size'\n  1280: fallthrough\n      : @23 (gas: 2)\n  1281: u32 [0x20190] = a0\n  1286: jump @25 if s0 == 0\n      : @24 (gas: 1)\n  1289: ra = 18, jump @26\n      : @25 [@dyn 9] (gas: 1)\n  1293: ra = 20, jump @38\n      : @26 [@dyn 10] (gas: 13)\n  1298: sp = sp + 0xfffffffffffffec0\n  1302: u64 [sp + 0x138] = ra\n  1306: u64 [sp + 0x130] = s0\n  1310: u64 [sp + 0x128] = s1\n  1314: s0 = sp + 0x140\n  1318: sp = sp & 0xffffffffffffffe0\n  1321: u64 [sp + 88] = 0\n  1324: u64 [sp + 80] = 0\n  1327: u64 [sp + 64] = 0x80\n  1332: a0 = 0x40\n  1335: a1 = sp + a0\n  1338: u64 [sp + 72] = 0\n  1341: ra = 22, jump @4\n      : @27 [@dyn 11] (gas: 7)\n  1346: u64 [sp + 120] = 0\n  1349: u64 [sp + 112] = 0\n  1352: u64 [sp + 104] = 0\n  1355: u64 [sp + 96] = 0\n  1358: i32 a0 = sp + 0x60\n  1361: ecalli 15 // 'value_transferred'\n  1363: fallthrough\n      : @28 (gas: 8)\n  1364: a0 = u64 [sp + 0x70]\n  1367: a1 = u64 [sp + 0x78]\n  1370: a2 = u64 [sp + 0x68]\n  1373: a3 = u64 [sp + 0x60]\n  1376: a1 = a1 | a2\n  1379: a0 = a0 | a3\n  1382: a0 = a0 | a1\n  1385: jump @30 if a0 == 0\n      : @29 (gas: 7)\n  1388: a1 = 0x201a0\n  1393: i32 a1 = a1 + 0\n  1395: a0 = 0x1\n  1398: a2 = 0\n  1400: ra = 0x20\n  1403: ecalli 12 // 'seal_return'\n  1405: jump @38\n      : @30 (gas: 25)\n  1408: s1 = 0x301a0\n  1413: i32 a0 = s1 + 0\n  1415: ecalli 4 // 'caller'\n  1417: a0 = u64 [0x301a8]\n  1422: a1 = i32 [0x301b0]\n  1427: a2 = u64 [0x301a0]\n  1432: a0 = reverse a0\n  1434: a3 = a0 << 0x20\n  1437: a1 = reverse a1\n  1439: a1 = a1 >> 0x20\n  1442: a1 = a1 | a3\n  1445: u64 [sp + 0x18] = a1\n  1448: a0 = a0 >> 0x20\n  1451: a1 = reverse a2\n  1453: s1 = a1 << 0x20\n  1456: a0 = a0 | s1\n  1459: u64 [sp + 0x10] = a0\n  1462: s1 = a1 >> 0x20\n  1465: u64 [sp + 152] = 0\n  1469: u64 [sp + 144] = 0\n  1473: u64 [sp + 136] = 0\n  1477: u64 [sp + 128] = 0\n  1481: a0 = sp + 0x20\n  1484: a1 = sp + 0x80\n  1488: ra = 24, jump @6\n      : @31 [@dyn 12] (gas: 17)\n  1493: a0 = u32 [sp + 0x34]\n  1496: a0 = a0 << 0x20\n  1499: a1 = u64 [sp + 0x38]\n  1502: a0 = a0 | s1\n  1505: u64 [sp + 184] = 0\n  1509: u64 [sp + 176] = 0\n  1513: u64 [sp + 168] = 0\n  1517: u64 [sp + 160] = 0\n  1521: u64 [sp + 0xd8] = a1\n  1525: a1 = u64 [sp + 0x10]\n  1528: u64 [sp + 0xc8] = a1\n  1532: a1 = u64 [sp + 0x18]\n  1535: u64 [sp + 0xc0] = a1\n  1539: u64 [sp + 0xd0] = a0\n  1543: a0 = sp + 0xa0\n  1547: a1 = sp + 0xc0\n  1551: ra = 26, jump @9\n      : @32 [@dyn 13] (gas: 11)\n  1556: u64 [sp + 248] = 0\n  1560: u64 [sp + 240] = 0\n  1564: u64 [sp + 232] = 0\n  1568: u64 [sp + 224] = 0x1\n  1573: u64 [sp + 280] = 0\n  1577: u64 [sp + 272] = 0\n  1581: u64 [sp + 264] = 0\n  1585: u64 [sp + 256] = 0\n  1589: a0 = sp + 0xe0\n  1593: a1 = sp + 0x100\n  1597: ra = 28, jump @9\n      : @33 [@dyn 14] (gas: 2)\n  1602: a1 = i32 [0x20194]\n  1607: jump @35 if a1 >u 127\n      : @34 (gas: 2)\n  1611: u32 [0x20194] = 0x80\n  1618: fallthrough\n      : @35 (gas: 6)\n  1619: a0 = 0x201a0\n  1624: i32 a0 = a0 + 0x80\n  1628: a1 = 0\n  1630: a2 = 0\n  1632: ecalli 1 // 'call_data_copy'\n  1634: jump @0\n      : @36 (gas: 3)\n  1637: a0 = 0x80\n  1641: a1 = 0\n  1643: ra = 30, jump @16\n      : @37 [@dyn 15] (gas: 6)\n  1648: i32 a1 = a0 + 0\n  1650: a0 = 0\n  1652: a2 = 0\n  1654: ra = 0x20\n  1657: ecalli 12 // 'seal_return'\n  1659: fallthrough\n      : @38 [@dyn 16] (gas: 16)\n  1660: sp = sp + 0xfffffffffffffe10\n  1664: u64 [sp + 0x1e8] = ra\n  1668: u64 [sp + 0x1e0] = s0\n  1672: u64 [sp + 0x1d8] = s1\n  1676: s0 = sp + 0x1f0\n  1680: sp = sp + 0xffffffffffffbad0\n  1684: sp = sp & 0xffffffffffffffe0\n  1687: s1 = sp\n  1689: a2 = s1 + 0x3138\n  1693: u64 [a2 + 1280] = 0\n  1697: u64 [a2 + 1272] = 0\n  1701: u64 [a2 + 1256] = 0x80\n  1707: a0 = 0x40\n  1710: a1 = s1 + 0x3620\n  1714: u64 [a2 + 1264] = 0\n  1718: ra = 34, jump @4\n      : @39 [@dyn 17] (gas: 4)\n  1723: a0 = 0x20190\n  1728: u64 [s1 + 0x1b8] = a0\n  1732: a0 = i32 [0x20190]\n  1737: jump @41 if a0 >=u 4\n      : @40 (gas: 1)\n  1741: jump @1174\n      : @41 (gas: 6)\n  1745: a0 = s1 + 0x3000\n  1749: i32 a0 = a0 + 0x640\n  1753: a1 = 0\n  1755: ra = 0x24\n  1758: ecalli 2 // 'call_data_load'\n  1760: fallthrough\n      : @42 [@dyn 18] (gas: 3)\n  1761: a3 = s1 + 0x3138\n  1765: a0 = i32 [a3 + 0x524]\n  1769: jump @44 if a0 != 2376452955\n      : @43 (gas: 1)\n  1776: jump @660\n      : @44 (gas: 2)\n  1779: a2 = s1 + 0x4138\n  1783: jump @46 if a0 != 2574905157\n      : @45 (gas: 1)\n  1790: jump @540\n      : @46 (gas: 1)\n  1793: jump @86 if a0 == 2778569399\n      : @47 (gas: 2)\n  1801: a1 = 0xffffffffb256b11b\n  1807: jump @49 if a0 != a1\n      : @48 (gas: 1)\n  1810: jump @387\n      : @49 (gas: 1)\n  1813: jump @135 if a0 == 3493436344\n      : @50 (gas: 1)\n  1821: jump @52 if a0 != 3689087244\n      : @51 (gas: 1)\n  1828: jump @611\n      : @52 (gas: 1)\n  1831: jump @54 if a0 != 3980750564\n      : @53 (gas: 1)\n  1838: jump @221\n      : @54 (gas: 1)\n  1841: jump @177 if a0 == 4047311449\n      : @55 (gas: 2)\n  1849: a1 = 0xfffffffff3f43703\n  1855: jump @57 if a0 != a1\n      : @56 (gas: 1)\n  1858: jump @672\n      : @57 (gas: 1)\n  1861: jump @59 if a0 != 4287607644\n      : @58 (gas: 1)\n  1867: jump @247\n      : @59 (gas: 1)\n  1870: jump @61 if a0 != 4292742260\n      : @60 (gas: 1)\n  1876: jump @699\n      : @61 (gas: 1)\n  1879: jump @63 if a0 != 363073353\n      : @62 (gas: 1)\n  1886: jump @462\n      : @63 (gas: 1)\n  1889: jump @65 if a0 != 376155029\n      : @64 (gas: 1)\n  1896: jump @623\n      : @65 (gas: 1)\n  1899: jump @67 if a0 != 845767028\n      : @66 (gas: 1)\n  1906: jump @601\n      : @67 (gas: 2)\n  1909: a2 = s1 + 0x3938\n  1913: jump @188 if a0 == 1020253707\n      : @68 (gas: 1)\n  1921: jump @70 if a0 != 1031109195\n      : @69 (gas: 1)\n  1928: jump @451\n      : @70 (gas: 2)\n  1931: a1 = 0x482d51e0\n  1937: jump @72 if a0 != a1\n      : @71 (gas: 1)\n  1940: jump @270\n      : @72 (gas: 1)\n  1943: jump @74 if a0 == 1399471580\n      : @73 (gas: 1)\n  1950: jump @492\n      : @74 (gas: 8)\n  1953: u64 [a2 + 1184] = 0\n  1957: u64 [a2 + 1176] = 0\n  1961: u64 [a2 + 1168] = 0\n  1965: u64 [a2 + 1160] = 0\n  1969: a0 = s1 + 0x4000\n  1973: i32 a0 = a0 + 0xfffffffffffffdc0\n  1977: ecalli 15 // 'value_transferred'\n  1979: fallthrough\n      : @75 (gas: 10)\n  1980: a4 = s1 + 0x3938\n  1984: a5 = a4 + 0x400\n  1988: a0 = u64 [a5 + 0x98]\n  1992: a1 = u64 [a5 + 0xa0]\n  1996: a2 = u64 [a5 + 0x90]\n  2000: a3 = u64 [a5 + 0x88]\n  2004: a1 = a1 | a2\n  2007: a0 = a0 | a3\n  2010: a0 = a0 | a1\n  2013: jump @77 if a0 == 0\n      : @76 (gas: 1)\n  2016: jump @1128\n      : @77 (gas: 3)\n  2020: a0 = u64 [s1 + 0x1b8]\n  2024: a0 = i32 [a0]\n  2026: jump @79 if a0 >u 3\n      : @78 (gas: 1)\n  2030: jump @1129\n      : @79 (gas: 7)\n  2034: u64 [a4 + 1216] = 0\n  2038: u64 [a4 + 1208] = 0\n  2042: u64 [a4 + 1200] = 0\n  2046: u64 [a4 + 1192] = 0x1\n  2051: a0 = s1 + 0x1320\n  2055: a1 = s1 + 0x3de0\n  2059: ra = 38, jump @6\n      : @80 [@dyn 19] (gas: 3)\n  2064: t0 = 0x28\n  2067: a1 = s1 + 0x1138\n  2071: fallthrough\n      : @81 [@dyn 20] (gas: 13)\n  2072: a0 = u64 [a1 + 0x200]\n  2076: a2 = s1 + 0x100\n  2080: u64 [a2 + 0xb8] = a0\n  2084: a3 = a1 + 0x100\n  2088: a0 = u64 [a3 + 0xf8]\n  2092: u64 [a2 + 0xb0] = a0\n  2096: a0 = u64 [a3 + 0xf0]\n  2100: u64 [a2 + 0xa8] = a0\n  2104: a0 = u64 [a3 + 0xe8]\n  2108: u64 [a2 + 0xa0] = a0\n  2112: a0 = s1 + 0x1300\n  2116: a1 = 0x40\n  2119: ra = 42, jump @2\n      : @82 [@dyn 21] (gas: 7)\n  2124: a3 = s1 + 0x1138\n  2128: a5 = a3 + 0x100\n  2132: a0 = u64 [a5 + 0xe0]\n  2136: a1 = u64 [a5 + 0xd8]\n  2140: a2 = u64 [a5 + 0xd0]\n  2144: a4 = u64 [a5 + 0xc8]\n  2148: t0 = 44, jump @1577\n      : @83 [@dyn 22] (gas: 1)\n  2154: jump @85 if a0 == 0\n      : @84 (gas: 1)\n  2157: jump @993\n      : @85 (gas: 15)\n  2160: a2 = s1 + 0x100\n  2164: a0 = u64 [a2 + 0xa0]\n  2168: a5 = a3 + 0x100\n  2172: u64 [a5 + 0xa8] = a0\n  2176: a0 = u64 [a2 + 0xa8]\n  2180: u64 [a5 + 0xb0] = a0\n  2184: a0 = u64 [a2 + 0xb0]\n  2188: u64 [a5 + 0xb8] = a0\n  2192: a1 = s1 + 0x12e0\n  2196: a0 = u64 [a2 + 0xb8]\n  2200: u64 [a5 + 0xc0] = a0\n  2204: a0 = a4\n  2206: u64 [s1 + 0x1b8] = a4\n  2210: ra = 0x2ca\n  2214: jump @4\n      : @86 (gas: 8)\n  2217: u64 [a2 + 160] = 0\n  2221: u64 [a2 + 152] = 0\n  2225: u64 [a2 + 144] = 0\n  2229: u64 [a2 + 136] = 0\n  2233: a0 = s1 + 0x4000\n  2237: i32 a0 = a0 + 0x1c0\n  2241: ecalli 15 // 'value_transferred'\n  2243: fallthrough\n      : @87 (gas: 9)\n  2244: a3 = s1 + 0x4138\n  2248: a0 = u64 [a3 + 0x98]\n  2252: a1 = u64 [a3 + 0xa0]\n  2256: a2 = u64 [a3 + 0x90]\n  2260: a3 = u64 [a3 + 0x88]\n  2264: a1 = a1 | a2\n  2267: a0 = a0 | a3\n  2270: a0 = a0 | a1\n  2273: jump @89 if a0 == 0\n      : @88 (gas: 1)\n  2276: jump @1130\n      : @89 (gas: 3)\n  2280: a0 = u64 [s1 + 0x1b8]\n  2284: a0 = i32 [a0]\n  2286: jump @91 if a0 >u 67\n      : @90 (gas: 1)\n  2290: jump @1131\n      : @91 (gas: 2)\n  2294: a0 = s1 + 0x2100\n  2298: ra = 46, jump @1296\n      : @92 [@dyn 23] (gas: 27)\n  2304: a1 = s1 + 0x1938\n  2308: a2 = a1 + 0x700\n  2312: a0 = u64 [a2 + 0xd8]\n  2316: a1 = s1 + 0x100\n  2320: u64 [a1 + 0xa0] = a0\n  2324: a0 = u64 [a2 + 0xd0]\n  2328: u64 [a1 + 0xa8] = a0\n  2332: a0 = u64 [a2 + 0xc8]\n  2336: u64 [a1 + 0xb8] = a0\n  2340: a0 = s1 + 0x4000\n  2344: i32 a0 = a0 + 0x1e0\n  2348: a1 = 0x4\n  2351: ecalli 2 // 'call_data_load'\n  2353: a3 = s1 + 0x4138\n  2357: a0 = u64 [a3 + 0xa8]\n  2361: a1 = u64 [a3 + 0xb0]\n  2365: a2 = u64 [a3 + 0xb8]\n  2369: a3 = u64 [a3 + 0xc0]\n  2373: a4 = s1 + 0x1938\n  2377: a5 = a4 + 0x700\n  2381: u64 [a5 + 0xc0] = a3\n  2385: u64 [a5 + 0xb8] = a2\n  2389: u64 [a5 + 0xb0] = a1\n  2393: a1 = s1 + 0x20e0\n  2397: u64 [a5 + 0xa8] = a0\n  2401: a0 = 0\n  2403: ra = 48, jump @4\n      : @93 [@dyn 24] (gas: 3)\n  2408: t0 = 0x32\n  2411: a1 = s1 + 0x1938\n  2415: fallthrough\n      : @94 [@dyn 25] (gas: 8)\n  2416: u64 [a1 + 1952] = 0\n  2420: u64 [a1 + 1944] = 0\n  2424: u64 [a1 + 1928] = 0x3\n  2429: a2 = a1\n  2431: a0 = 0x20\n  2434: a1 = s1 + 0x20c0\n  2438: u64 [a2 + 1936] = 0\n  2442: ra = 52, jump @4\n      : @95 [@dyn 26] (gas: 3)\n  2447: a1 = 0x20194\n  2452: a0 = i32 [0x20194]\n  2457: jump @97 if a0 >u 63\n      : @96 (gas: 3)\n  2461: u32 [0x20194] = 0x40\n  2467: t0 = 0x36\n  2470: jump @1627\n      : @97 (gas: 1)\n  2474: t0 = 54, jump @1627\n      : @98 [@dyn 27] (gas: 11)\n  2480: a0 = 0x201a0\n  2485: i32 a0 = a0 + 0\n  2487: i32 a2 = a2 + 0\n  2489: u64 [s1 + 0x198] = a1\n  2493: a1 = 0x40\n  2496: u64 [s1 + 0x190] = a0\n  2500: ra = 0x38\n  2503: ecalli 7 // 'hash_keccak_256'\n  2505: a3 = u64 [s1 + 0x1b0]\n  2509: t0 = 0x3a\n  2512: jump @1587\n      : @99 [@dyn 28] (gas: 2)\n  2516: a3 = u64 [s1 + 0x1b0]\n  2520: t0 = 58, jump @1587\n      : @100 [@dyn 29] (gas: 16)\n  2526: u64 [s1 + 0x1b0] = a0\n  2530: sp = a0\n  2532: a0 = u64 [s1 + 0x1a0]\n  2536: a0 = a0 << 0x20\n  2539: a0 = a0 >> 0x20\n  2542: a2 = s1 + 0x1938\n  2546: u64 [a2 + 1920] = 0\n  2550: a3 = a2 + 0x700\n  2554: u64 [a3 + 0x78] = a0\n  2557: a0 = u64 [s1 + 0x1a8]\n  2561: u64 [a3 + 0x70] = a0\n  2564: a1 = s1 + 0x20a0\n  2568: a0 = u64 [s1 + 0x1b8]\n  2572: u64 [a3 + 0x68] = a0\n  2575: a0 = 0\n  2577: ra = 60, jump @4\n      : @101 [@dyn 30] (gas: 14)\n  2582: a0 = u64 [s1 + 0x170]\n  2586: a1 = s1 + 0x1938\n  2590: a2 = a1 + 0x700\n  2594: u64 [a2 + 0x60] = a0\n  2597: a0 = u64 [s1 + 0x178]\n  2601: u64 [a2 + 0x58] = a0\n  2604: a0 = u64 [s1 + 0x180]\n  2608: u64 [a2 + 0x50] = a0\n  2611: a3 = a1\n  2613: a0 = 0x20\n  2616: a1 = s1 + 0x2080\n  2620: a2 = u64 [s1 + 0x188]\n  2624: u64 [a3 + 0x748] = a2\n  2628: ra = 62, jump @4\n      : @102 [@dyn 31] (gas: 3)\n  2633: a1 = u64 [s1 + 0x198]\n  2637: a0 = i32 [a1]\n  2639: jump @104 if a0 >u 63\n      : @103 (gas: 2)\n  2643: u32 [a1 + 0] = 0x40\n  2646: fallthrough\n      : @104 (gas: 12)\n  2647: a0 = sp + 0xffffffffffffffe0\n  2650: a0 = a0 & 0xffffffffffffffe0\n  2653: u64 [s1 + 0x1b8] = a0\n  2657: sp = a0\n  2659: i32 a2 = a0 + 0\n  2661: a1 = 0x40\n  2664: a0 = u64 [s1 + 0x190]\n  2668: ra = 0x40\n  2671: ecalli 7 // 'hash_keccak_256'\n  2673: a3 = u64 [s1 + 0x1b8]\n  2677: t0 = 0x42\n  2680: jump @1592\n      : @105 [@dyn 32] (gas: 2)\n  2684: a3 = u64 [s1 + 0x1b8]\n  2688: t0 = 66, jump @1592\n      : @106 [@dyn 33] (gas: 12)\n  2694: u64 [s1 + 0x188] = a1\n  2698: a2 = u64 [s1 + 0x1b0]\n  2702: u64 [a2 + 0x18] = a1\n  2705: u64 [s1 + 0x190] = a0\n  2709: u64 [a2 + 0x10] = a0\n  2712: u64 [s1 + 0x180] = a4\n  2716: u64 [a2 + 0x8] = a4\n  2719: u64 [s1 + 0x178] = a5\n  2723: u64 [a2] = a5\n  2725: a0 = s1 + 0x2060\n  2729: a1 = 0x40\n  2732: ra = 68, jump @2\n      : @107 [@dyn 34] (gas: 18)\n  2737: a1 = s1 + 0x1938\n  2741: a5 = a1 + 0x700\n  2745: a0 = u64 [a5 + 0x40]\n  2748: u64 [s1 + 0x1a0] = a0\n  2752: a2 = u64 [a5 + 0x38]\n  2755: u64 [s1 + 0x198] = a2\n  2759: a4 = u64 [a5 + 0x30]\n  2762: u64 [s1 + 0x1a8] = a4\n  2766: a3 = u64 [a5 + 0x28]\n  2769: u64 [s1 + 0x1b8] = a3\n  2773: u64 [a5 + 0x20] = a0\n  2776: u64 [a5 + 0x18] = a2\n  2779: u64 [a5 + 0x10] = a4\n  2782: a0 = s1 + 0x2040\n  2786: u64 [a5 + 0x8] = a3\n  2789: ra = 0x46\n  2792: t0 = 0x5a8\n  2796: jump @1600\n      : @108 [@dyn 35] (gas: 3)\n  2800: a0 = s1 + 0x2020\n  2804: a1 = u64 [s1 + 0x1b0]\n  2808: ra = 72, jump @6\n      : @109 [@dyn 36] (gas: 7)\n  2813: a3 = s1 + 0x100\n  2817: a0 = u64 [a3 + 0xa0]\n  2821: a1 = u64 [a3 + 0xa8]\n  2825: a0 = a0 | a1\n  2828: a2 = u64 [a3 + 0x98]\n  2832: a1 = u64 [a3 + 0xb8]\n  2836: t0 = 74, jump @1631\n      : @110 [@dyn 37] (gas: 1)\n  2842: jump @112 if a0 == 0\n      : @111 (gas: 1)\n  2845: jump @993\n      : @112 (gas: 17)\n  2848: a0 = s1 + 0x1938\n  2852: a4 = u64 [a0 + 0x700]\n  2856: a5 = a0 + 0x600\n  2860: a3 = u64 [a5 + 0xf8]\n  2864: a2 = u64 [a5 + 0xf0]\n  2868: a1 = u64 [a5 + 0xe8]\n  2872: u64 [s1 + 0x170] = a1\n  2876: u64 [a5 + 0xc8] = a1\n  2880: u64 [s1 + 0x168] = a2\n  2884: u64 [a5 + 0xd0] = a2\n  2888: u64 [s1 + 0x160] = a3\n  2892: u64 [a5 + 0xd8] = a3\n  2896: a1 = s1 + 0x2000\n  2900: u64 [s1 + 0x158] = a4\n  2904: u64 [a5 + 0xe0] = a4\n  2908: a0 = u64 [s1 + 0x1b8]\n  2912: ra = 76, jump @4\n      : @113 [@dyn 38] (gas: 20)\n  2917: a0 = u64 [s1 + 0x178]\n  2921: a0 = a0 + 0x1\n  2924: a1 = a0 <u 0x1\n  2927: a2 = u64 [s1 + 0x180]\n  2931: a1 = a1 + a2\n  2934: a2 = a0 | a1\n  2937: a2 = a2 <u 0x1\n  2940: a3 = u64 [s1 + 0x190]\n  2944: a2 = a2 + a3\n  2947: a3 = a2 <u a3\n  2950: a4 = u64 [s1 + 0x188]\n  2954: a3 = a3 + a4\n  2957: a4 = s1 + 0x4138\n  2961: u64 [a4 + 0xd0] = a1\n  2965: u64 [a4 + 0xc8] = a0\n  2969: u64 [a4 + 0xd8] = a2\n  2973: u64 [a4 + 0xe0] = a3\n  2977: a0 = s1 + 0x1fe0\n  2981: a1 = s1 + 0x4200\n  2985: ra = 78, jump @6\n      : @114 [@dyn 39] (gas: 12)\n  2990: a4 = s1 + 0x100\n  2994: a0 = u64 [a4 + 0xa0]\n  2998: a2 = u64 [a4 + 0x98]\n  3002: a2 = a2 | a0\n  3005: a3 = 0x100000000\n  3015: a0 = 0xffffffe0\n  3025: a1 = u64 [a4 + 0xb8]\n  3029: a0 = a1 <u a0\n  3032: a1 = u64 [a4 + 0xa8]\n  3036: a0 = 0 if a1 != 0\n  3038: a0 = 0 if a2 != 0\n  3040: jump @116 if a0 != 0\n      : @115 (gas: 1)\n  3043: jump @993\n      : @116 (gas: 22)\n  3046: a0 = s1 + 0x1938\n  3050: u64 [s1 + 0x1b0] = a2\n  3054: a2 = a0\n  3056: t0 = u64 [a0 + 0x6c0]\n  3060: a5 = a0 + 0x600\n  3064: a4 = u64 [a5 + 0xb8]\n  3068: u64 [s1 + 0x1a0] = a3\n  3072: a3 = u64 [a5 + 0xb0]\n  3076: a1 = u64 [a5 + 0xa8]\n  3080: a0 = u64 [s1 + 0x1b8]\n  3084: i32 a0 = a0 + 0x20\n  3087: u64 [s1 + 0x198] = a1\n  3091: a5 = a2 + 0x600\n  3095: u64 [a5 + 0x88] = a1\n  3099: u64 [s1 + 0x150] = a3\n  3103: u64 [a5 + 0x90] = a3\n  3107: u64 [s1 + 0x148] = a4\n  3111: u64 [a5 + 0x98] = a4\n  3115: a1 = s1 + 0x1fc0\n  3119: u64 [s1 + 0x140] = t0\n  3123: u64 [a2 + 0x6a0] = t0\n  3127: ra = 80, jump @4\n      : @117 [@dyn 40] (gas: 3)\n  3132: a1 = u64 [s1 + 0x178]\n  3136: a0 = a1 + 0x2\n  3139: t0 = 82, jump @1590\n      : @118 [@dyn 41] (gas: 7)\n  3145: u64 [a4 + 0xf0] = a2\n  3149: u64 [a4 + 0xe8] = a0\n  3153: u64 [a4 + 0xf8] = a3\n  3157: u64 [a4 + 0x100] = a1\n  3161: a0 = s1 + 0x1fa0\n  3165: a1 = s1 + 0x4220\n  3169: ra = 84, jump @6\n      : @119 [@dyn 42] (gas: 10)\n  3174: a3 = s1 + 0x100\n  3178: a2 = u64 [a3 + 0xb0]\n  3182: a0 = u64 [a3 + 0xa0]\n  3186: a0 = a0 + 0xffffffffffffffc0\n  3189: a1 = u64 [a3 + 0xb8]\n  3193: a0 = a1 <u a0\n  3196: a1 = u64 [a3 + 0xa8]\n  3200: a0 = 0 if a1 != 0\n  3202: a0 = 0 if a2 != 0\n  3204: jump @121 if a0 != 0\n      : @120 (gas: 1)\n  3207: jump @993\n      : @121 (gas: 18)\n  3210: a2 = s1 + 0x1938\n  3214: t0 = u64 [a2 + 0x680]\n  3218: a5 = a2 + 0x600\n  3222: a4 = u64 [a5 + 0x78]\n  3225: a3 = u64 [a5 + 0x70]\n  3228: a1 = u64 [a5 + 0x68]\n  3231: a0 = u64 [s1 + 0x1b8]\n  3235: i32 a0 = a0 + 0x40\n  3238: u64 [s1 + 0x1a0] = a1\n  3242: u64 [a5 + 0x48] = a1\n  3245: u64 [s1 + 0x138] = a3\n  3249: u64 [a5 + 0x50] = a3\n  3252: u64 [s1 + 0x130] = a4\n  3256: u64 [a5 + 0x58] = a4\n  3259: a1 = s1 + 0x1f80\n  3263: u64 [s1 + 0x128] = t0\n  3267: u64 [a2 + 0x660] = t0\n  3271: ra = 86, jump @4\n      : @122 [@dyn 43] (gas: 3)\n  3276: a1 = u64 [s1 + 0x178]\n  3280: a0 = a1 + 0x3\n  3283: t0 = 88, jump @1590\n      : @123 [@dyn 44] (gas: 8)\n  3289: a5 = a4 + 0x100\n  3293: u64 [a5 + 0x10] = a2\n  3296: u64 [a5 + 0x8] = a0\n  3299: u64 [a5 + 0x18] = a3\n  3302: u64 [a5 + 0x20] = a1\n  3305: a0 = s1 + 0x1f60\n  3309: a1 = s1 + 0x4240\n  3313: ra = 90, jump @6\n      : @124 [@dyn 45] (gas: 9)\n  3318: a0 = 0xffffffa0\n  3328: a2 = s1 + 0x100\n  3332: a1 = u64 [a2 + 0xb8]\n  3336: a0 = a1 <u a0\n  3339: a1 = u64 [a2 + 0xa8]\n  3343: a0 = 0 if a1 != 0\n  3345: a1 = u64 [a2 + 0xb0]\n  3349: a0 = 0 if a1 != 0\n  3351: jump @126 if a0 != 0\n      : @125 (gas: 1)\n  3354: jump @993\n      : @126 (gas: 3)\n  3357: t0 = 0x5c\n  3360: a2 = s1 + 0x1938\n  3364: fallthrough\n      : @127 [@dyn 46] (gas: 11)\n  3365: a0 = u64 [a2 + 0x628]\n  3369: a0 = a0 & 0xff\n  3373: a1 = a0 >u 0\n  3375: a0 = u64 [s1 + 0x1b8]\n  3379: i32 a0 = a0 + 0x60\n  3382: u64 [a2 + 1568] = 0\n  3386: u64 [a2 + 1560] = 0\n  3390: u64 [a2 + 0x608] = a1\n  3394: a1 = s1 + 0x1f40\n  3398: u64 [a2 + 1552] = 0\n  3402: ra = 94, jump @4\n      : @128 [@dyn 47] (gas: 3)\n  3407: a0 = s1 + 0x1f20\n  3411: a1 = 0x40\n  3414: ra = 96, jump @2\n      : @129 [@dyn 48] (gas: 45)\n  3419: a1 = s1 + 0x1938\n  3423: a3 = u64 [a1 + 0x600]\n  3427: u64 [s1 + 0x1b8] = a3\n  3431: a2 = u64 [a1 + 0x5f8]\n  3435: u64 [s1 + 0x1b0] = a2\n  3439: a4 = u64 [a1 + 0x5f0]\n  3443: u64 [s1 + 0x1a8] = a4\n  3447: a5 = u64 [a1 + 0x5e8]\n  3451: u64 [s1 + 0x190] = a5\n  3455: a0 = u64 [s1 + 0x128]\n  3459: u64 [a1 + 0x560] = a0\n  3463: a0 = u64 [s1 + 0x130]\n  3467: u64 [a1 + 0x558] = a0\n  3471: a0 = u64 [s1 + 0x138]\n  3475: u64 [a1 + 0x550] = a0\n  3479: a0 = u64 [s1 + 0x1a0]\n  3483: u64 [a1 + 0x548] = a0\n  3487: a0 = u64 [s1 + 0x140]\n  3491: u64 [a1 + 0x580] = a0\n  3495: a0 = u64 [s1 + 0x148]\n  3499: u64 [a1 + 0x578] = a0\n  3503: a0 = u64 [s1 + 0x150]\n  3507: u64 [a1 + 0x570] = a0\n  3511: a0 = u64 [s1 + 0x198]\n  3515: u64 [a1 + 0x568] = a0\n  3519: a0 = u64 [s1 + 0x158]\n  3523: u64 [a1 + 0x5a0] = a0\n  3527: a0 = u64 [s1 + 0x160]\n  3531: u64 [a1 + 0x598] = a0\n  3535: a0 = u64 [s1 + 0x168]\n  3539: u64 [a1 + 0x590] = a0\n  3543: a0 = u64 [s1 + 0x170]\n  3547: u64 [a1 + 0x588] = a0\n  3551: a0 = a1 + 0x500\n  3555: u64 [a0 + 0xc0] = a3\n  3559: u64 [a0 + 0xb8] = a2\n  3563: u64 [a0 + 0xb0] = a4\n  3567: t0 = a1\n  3569: a0 = s1 + 0x1f00\n  3573: a1 = s1 + 0x1ee0\n  3577: a2 = s1 + 0x1ec0\n  3581: a3 = s1 + 0x1ea0\n  3585: a4 = s1 + 0x1e80\n  3589: u64 [t0 + 0x5a8] = a5\n  3593: ra = 98, jump @1300\n      : @130 [@dyn 49] (gas: 13)\n  3599: a1 = s1 + 0x100\n  3603: a4 = u64 [a1 + 0xa8]\n  3607: a2 = u64 [a1 + 0x90]\n  3611: a0 = u64 [a1 + 0xb8]\n  3615: a0 = a0 | a4\n  3618: a3 = u64 [a1 + 0xb0]\n  3622: a1 = a2 | a3\n  3625: a1 = a1 | a0\n  3628: a1 = a1 >> 0x20\n  3631: a0 = a0 | a3\n  3634: a0 = a0 << 0x20\n  3637: a0 = a0 | a1\n  3640: jump @132 if a0 == 0\n      : @131 (gas: 1)\n  3643: jump @993\n      : @132 (gas: 34)\n  3646: t0 = a3\n  3648: a1 = s1 + 0x1938\n  3652: a5 = a1 + 0x500\n  3656: a0 = u64 [a5 + 0xd0]\n  3660: a3 = u64 [a5 + 0xe0]\n  3664: u64 [s1 + 0x1a0] = a3\n  3668: t1 = u64 [a1 + 0x5c8]\n  3672: a3 = u64 [a5 + 0xd8]\n  3676: t2 = a0 ^ a4\n  3679: a5 = a0 <u a4\n  3682: ra = t1 <u a2\n  3685: a5 = ra if t2 == 0\n  3688: a1 = a3 - t0\n  3691: t2 = a1 - a5\n  3694: a1 = a1 <u a5\n  3697: u64 [s1 + 0x198] = a1\n  3701: a3 = a3 <u t0\n  3704: a5 = u64 [s1 + 0x1b8]\n  3708: a1 = u64 [s1 + 0x1a0]\n  3712: a5 = a1 - a5\n  3715: a5 = a5 - a3\n  3718: a1 = u64 [s1 + 0x198]\n  3722: a5 = a5 - a1\n  3725: a0 = a0 - a4\n  3728: a0 = a0 - ra\n  3731: a1 = t1 - a2\n  3734: a0 = a0 | a5\n  3737: a3 = a1 | t2\n  3740: a3 = a3 | a0\n  3743: a0 = a0 | t2\n  3746: a3 = a3 >> 0x20\n  3749: a0 = a0 << 0x20\n  3752: a0 = a0 | a3\n  3755: jump @134 if a0 == 0\n      : @133 (gas: 1)\n  3758: jump @993\n      : @134 (gas: 4)\n  3761: a0 = a2\n  3763: u64 [s1 + 0x1b8] = a1\n  3767: ra = 0x530\n  3771: jump @16\n      : @135 (gas: 9)\n  3774: u64 [a2 + 544] = 0\n  3778: u64 [a2 + 536] = 0\n  3782: u64 [a2 + 528] = 0\n  3786: u64 [a2 + 520] = 0\n  3790: a0 = s1 + 0x4000\n  3794: i32 a0 = a0 + 0x340\n  3798: ra = 0x64\n  3801: ecalli 15 // 'value_transferred'\n  3803: fallthrough\n      : @136 [@dyn 50] (gas: 10)\n  3804: a3 = s1 + 0x4138\n  3808: a4 = a3 + 0x200\n  3812: a0 = u64 [a4 + 0x18]\n  3815: a1 = u64 [a4 + 0x20]\n  3818: a2 = u64 [a4 + 0x10]\n  3821: a3 = u64 [a4 + 0x8]\n  3824: a1 = a1 | a2\n  3827: a0 = a0 | a3\n  3830: a0 = a0 | a1\n  3833: jump @138 if a0 == 0\n      : @137 (gas: 1)\n  3836: jump @1132\n      : @138 (gas: 1)\n  3839: t0 = 102, jump @1625\n      : @139 [@dyn 51] (gas: 1)\n  3845: jump @141 if a1 <u a0\n      : @140 (gas: 1)\n  3848: jump @1133\n      : @141 (gas: 23)\n  3851: a0 = s1 + 0x4000\n  3855: i32 a0 = a0 + 0x360\n  3859: a1 = 0x4\n  3862: ecalli 2 // 'call_data_load'\n  3864: a0 = s1 + 0x4138\n  3868: a4 = a0 + 0x200\n  3872: a3 = u64 [a4 + 0x40]\n  3875: a2 = u64 [a4 + 0x38]\n  3878: a1 = u64 [a4 + 0x30]\n  3881: a0 = u64 [a4 + 0x28]\n  3884: u64 [s1 + 0x88] = a3\n  3888: a4 = s1 + 0x3138\n  3892: a5 = a4 + 0x100\n  3896: u64 [a5 + 0x40] = a3\n  3899: u64 [s1 + 0x90] = a2\n  3903: u64 [a5 + 0x38] = a2\n  3906: u64 [s1 + 0x98] = a1\n  3910: u64 [a5 + 0x30] = a1\n  3913: a1 = s1 + 0x3260\n  3917: u64 [s1 + 0xa0] = a0\n  3921: u64 [a5 + 0x28] = a0\n  3924: a0 = 0\n  3926: ra = 104, jump @4\n      : @142 [@dyn 52] (gas: 9)\n  3931: a0 = s1 + 0x3138\n  3935: u64 [a0 + 288] = 0\n  3939: u64 [a0 + 280] = 0\n  3943: u64 [a0 + 272] = 0\n  3947: a3 = a0\n  3949: a0 = 0x20\n  3952: a1 = s1 + 0x3240\n  3956: u64 [a3 + 264] = 0x2\n  3961: ra = 106, jump @4\n      : @143 [@dyn 53] (gas: 3)\n  3966: a1 = 0x20194\n  3971: a0 = i32 [0x20194]\n  3976: jump @145 if a0 >u 63\n      : @144 (gas: 3)\n  3980: u32 [0x20194] = 0x40\n  3986: t0 = 0x6c\n  3989: jump @1603\n      : @145 (gas: 1)\n  3993: t0 = 108, jump @1603\n      : @146 [@dyn 54] (gas: 10)\n  3999: a0 = 0x201a0\n  4004: i32 a0 = a0 + 0\n  4006: u64 [s1 + 0x100] = a1\n  4010: i32 a2 = a2 + 0\n  4012: a1 = 0x40\n  4015: u64 [s1 + 0xf8] = a0\n  4019: ra = 0x6e\n  4022: ecalli 7 // 'hash_keccak_256'\n  4024: t0 = 0x70\n  4027: jump @1597\n      : @147 [@dyn 55] (gas: 1)\n  4031: t0 = 112, jump @1597\n      : @148 [@dyn 56] (gas: 8)\n  4037: a5 = a4 + 0x200\n  4041: u64 [a5 + 0x60] = a3\n  4044: u64 [a5 + 0x58] = a2\n  4047: u64 [a5 + 0x50] = a1\n  4050: u64 [a5 + 0x48] = a0\n  4053: a0 = s1 + 0x3220\n  4057: a1 = s1 + 0x4380\n  4061: ra = 114, jump @6\n      : @149 [@dyn 57] (gas: 25)\n  4066: a4 = s1 + 0x3138\n  4070: a0 = u64 [a4 + 0x100]\n  4074: a1 = u64 [a4 + 0xf0]\n  4078: a2 = u64 [a4 + 0xe8]\n  4082: a3 = u64 [a4 + 0xf8]\n  4086: a5 = u64 [s1 + 0x88]\n  4090: a0 = a0 ^ a5\n  4093: a5 = u64 [s1 + 0x98]\n  4097: a1 = a1 ^ a5\n  4100: a0 = a0 | a1\n  4103: a1 = u64 [s1 + 0x90]\n  4107: a1 = a1 ^ a3\n  4110: a3 = u64 [s1 + 0xa0]\n  4114: a2 = a2 ^ a3\n  4117: a1 = a1 | a2\n  4120: a0 = a0 | a1\n  4123: a0 = a0 <u 0x1\n  4126: u64 [a4 + 224] = 0\n  4130: u64 [a4 + 216] = 0\n  4134: u64 [a4 + 0xc8] = a0\n  4138: a0 = s1 + 0x3200\n  4142: u64 [a4 + 208] = 0\n  4146: ra = 0x74\n  4149: t0 = 0x610\n  4153: jump @1586\n      : @150 [@dyn 58] (gas: 12)\n  4157: a0 = s1 + 0x3138\n  4161: a1 = u64 [s1 + 0x88]\n  4165: u64 [a0 + 0xc0] = a1\n  4169: a1 = u64 [s1 + 0x90]\n  4173: u64 [a0 + 0xb8] = a1\n  4177: a1 = u64 [s1 + 0x98]\n  4181: u64 [a0 + 0xb0] = a1\n  4185: a1 = s1 + 0x31e0\n  4189: a2 = u64 [s1 + 0xa0]\n  4193: u64 [a0 + 0xa8] = a2\n  4197: a0 = 0\n  4199: ra = 118, jump @4\n      : @151 [@dyn 59] (gas: 9)\n  4204: a1 = s1 + 0x3138\n  4208: u64 [a1 + 160] = 0\n  4212: u64 [a1 + 152] = 0\n  4216: u64 [a1 + 136] = 0x2\n  4221: a2 = a1\n  4223: a0 = 0x20\n  4226: a1 = s1 + 0x31c0\n  4230: u64 [a2 + 144] = 0\n  4234: ra = 120, jump @4\n      : @152 [@dyn 60] (gas: 3)\n  4239: a1 = u64 [s1 + 0x100]\n  4243: a0 = i32 [a1]\n  4245: jump @154 if a0 >u 63\n      : @153 (gas: 3)\n  4249: u32 [a1 + 0] = 0x40\n  4252: t0 = 0x7a\n  4255: jump @1598\n      : @154 (gas: 1)\n  4259: t0 = 122, jump @1598\n      : @155 [@dyn 61] (gas: 31)\n  4265: ecalli 7 // 'hash_keccak_256'\n  4267: a3 = u64 [s1 + 0x1b8]\n  4271: a0 = u64 [a3]\n  4273: a1 = u64 [a3 + 0x8]\n  4276: a2 = u64 [a3 + 0x10]\n  4279: a3 = u64 [a3 + 0x18]\n  4282: a4 = reverse a0\n  4284: a5 = reverse a1\n  4286: a2 = reverse a2\n  4288: a0 = reverse a3\n  4290: t0 = a0 + 0x3\n  4293: u64 [s1 + 0x28] = a0\n  4296: a1 = t0 <u a0\n  4299: a0 = a2 + a1\n  4302: u64 [s1 + 0x30] = a2\n  4305: a3 = a0 <u a2\n  4308: a3 = a1 if a1 == 0\n  4311: a3 = a3 + a5\n  4314: u64 [s1 + 0x38] = a5\n  4317: a1 = a3 <u a5\n  4320: u64 [s1 + 0x40] = a4\n  4323: a1 = a1 + a4\n  4326: a4 = s1 + 0x4138\n  4330: u64 [a4 + 0x268] = t0\n  4334: a2 = a4 + 0x200\n  4338: u64 [a2 + 0x70] = a0\n  4341: u64 [a2 + 0x78] = a3\n  4344: u64 [a2 + 0x80] = a1\n  4348: a0 = s1 + 0x31a0\n  4352: a1 = s1 + 0x43a0\n  4356: ra = 124, jump @6\n      : @156 [@dyn 62] (gas: 14)\n  4361: a0 = s1 + 0x3138\n  4365: a1 = u64 [a0 + 0x68]\n  4368: u64 [s1 + 0x1b8] = a1\n  4372: a1 = u64 [a0 + 0x70]\n  4375: u64 [s1 + 0x1b0] = a1\n  4379: a1 = u64 [a0 + 0x78]\n  4382: u64 [s1 + 0x1a8] = a1\n  4386: a0 = u64 [a0 + 0x80]\n  4390: u64 [s1 + 0x1a0] = a0\n  4394: a0 = s1 + 0x4000\n  4398: i32 a0 = a0 + 0x3c0\n  4402: ra = 0x7e\n  4405: ecalli 8 // 'now'\n  4407: fallthrough\n      : @157 [@dyn 63] (gas: 18)\n  4408: a1 = s1 + 0x4138\n  4412: a4 = a1 + 0x200\n  4416: a0 = u64 [a4 + 0xa0]\n  4420: t0 = u64 [a1 + 0x288]\n  4424: a2 = u64 [a4 + 0x98]\n  4428: a3 = u64 [a4 + 0x90]\n  4432: a1 = u64 [s1 + 0x1a0]\n  4436: a4 = a0 ^ a1\n  4439: a1 = a0 <u a1\n  4442: a0 = u64 [s1 + 0x1a8]\n  4446: a5 = a2 <u a0\n  4449: a5 = a1 if a4 != 0\n  4452: a1 = u64 [s1 + 0x1b0]\n  4456: t1 = a3 ^ a1\n  4459: a3 = a3 <u a1\n  4462: a1 = u64 [s1 + 0x1b8]\n  4466: a1 = t0 <u a1\n  4469: t0 = 128, jump @1613\n      : @158 [@dyn 64] (gas: 1)\n  4476: jump @160 if a1 != 0\n      : @159 (gas: 1)\n  4479: jump @733\n      : @160 (gas: 3)\n  4482: a0 = s1 + 0x27e0\n  4486: a1 = 0x40\n  4489: ra = 130, jump @2\n      : @161 [@dyn 65] (gas: 2)\n  4495: a2 = s1 + 0x2138\n  4499: fallthrough\n      : @162 (gas: 13)\n  4500: t0 = u64 [a2 + 0x6c0]\n  4504: a1 = a2 + 0x600\n  4508: a5 = u64 [a1 + 0xb8]\n  4512: a4 = u64 [a1 + 0xb0]\n  4516: a0 = u64 [a1 + 0xa8]\n  4520: a3 = a4 | t0\n  4523: a1 = a0 | a5\n  4526: a1 = a1 | a3\n  4529: a1 = a1 >> 0x20\n  4532: a3 = a3 | a5\n  4535: a3 = a3 << 0x20\n  4538: a1 = a1 | a3\n  4541: jump @164 if a1 == 0\n      : @163 (gas: 1)\n  4544: jump @993\n      : @164 (gas: 11)\n  4547: u64 [a2 + 1688] = 0\n  4551: u64 [a2 + 1680] = 0\n  4555: u64 [a2 + 1672] = 0\n  4559: a3 = 0x8c379a000000000\n  4569: a1 = s1 + 0x27c0\n  4573: u64 [a2 + 0x6a0] = a3\n  4577: u64 [s1 + 0x1b8] = a0\n  4581: u64 [s1 + 0x1b0] = a4\n  4585: u64 [s1 + 0x1a0] = t0\n  4589: u64 [s1 + 0x1a8] = a5\n  4593: ra = 132, jump @4\n      : @165 [@dyn 66] (gas: 1)\n  4599: t0 = 134, jump @1561\n      : @166 [@dyn 67] (gas: 1)\n  4606: jump @168 if a0 != 0\n      : @167 (gas: 1)\n  4609: jump @993\n      : @168 (gas: 10)\n  4612: i32 a0 = a1 + 0x4\n  4615: a2 = s1 + 0x2138\n  4619: u64 [a2 + 1664] = 0\n  4623: u64 [a2 + 1656] = 0\n  4627: u64 [a2 + 1640] = 0x20\n  4632: a1 = s1 + 0x27a0\n  4636: u64 [a2 + 1648] = 0\n  4640: u64 [s1 + 0x1a8] = a3\n  4644: u64 [s1 + 0x1a0] = a4\n  4648: ra = 136, jump @4\n      : @169 [@dyn 68] (gas: 1)\n  4654: t0 = 138, jump @1565\n      : @170 [@dyn 69] (gas: 1)\n  4661: jump @172 if a0 != 0\n      : @171 (gas: 1)\n  4664: jump @993\n      : @172 (gas: 8)\n  4667: i32 a0 = a1 + 0x24\n  4670: a3 = s1 + 0x2138\n  4674: u64 [a3 + 1632] = 0\n  4678: u64 [a3 + 1624] = 0\n  4682: u64 [a3 + 1608] = 0x16\n  4687: a1 = s1 + 0x2780\n  4691: u64 [a3 + 1616] = 0\n  4695: ra = 140, jump @4\n      : @173 [@dyn 70] (gas: 1)\n  4701: t0 = 142, jump @1567\n      : @174 [@dyn 71] (gas: 1)\n  4708: jump @176 if a0 != 0\n      : @175 (gas: 1)\n  4711: jump @993\n      : @176 (gas: 13)\n  4714: i32 a0 = a3 + 0x44\n  4717: a1 = u64 [0x20078]\n  4722: a2 = u64 [0x20080]\n  4727: a3 = u64 [0x20088]\n  4732: a4 = s1 + 0x2138\n  4736: a5 = a4 + 0x600\n  4740: u64 [a5 + 0x40] = a1\n  4743: u64 [a5 + 0x38] = a2\n  4746: u64 [a5 + 0x30] = a3\n  4749: a1 = s1 + 0x2760\n  4753: u64 [a4 + 1576] = 0\n  4757: ra = 0x426\n  4761: jump @4\n      : @177 (gas: 11)\n  4764: u64 [a2 + 1216] = 0\n  4768: u64 [a2 + 1208] = 0\n  4772: u64 [a2 + 1200] = 0\n  4776: u64 [a2 + 1192] = 0\n  4780: a0 = s1 + 0x4000\n  4784: i32 a0 = a0 + 0x5e0\n  4788: ra = 0x90\n  4792: ecalli 15 // 'value_transferred'\n  4794: a0 = 0x4000\n  4798: t0 = 0x92\n  4802: jump @1607\n      : @178 [@dyn 72] (gas: 2)\n  4806: a0 = 0x4000\n  4810: t0 = 146, jump @1607\n      : @179 [@dyn 73] (gas: 8)\n  4817: a0 = u64 [a4 + 0xb8]\n  4821: a1 = u64 [a4 + 0xc0]\n  4825: a2 = u64 [a4 + 0xb0]\n  4829: a3 = u64 [a4 + 0xa8]\n  4833: a1 = a1 | a2\n  4836: a0 = a0 | a3\n  4839: a0 = a0 | a1\n  4842: jump @181 if a0 == 0\n      : @180 (gas: 1)\n  4845: jump @1134\n      : @181 (gas: 3)\n  4848: a0 = u64 [s1 + 0x1b8]\n  4852: a0 = i32 [a0]\n  4854: jump @183 if a0 >u 3\n      : @182 (gas: 1)\n  4858: jump @1135\n      : @183 (gas: 3)\n  4861: a0 = s1 + 0x3420\n  4865: a1 = 0x40\n  4868: ra = 148, jump @2\n      : @184 [@dyn 74] (gas: 7)\n  4874: a3 = s1 + 0x3138\n  4878: a4 = u64 [a3 + 0x300]\n  4882: a5 = a3 + 0x200\n  4886: a1 = u64 [a5 + 0xf8]\n  4890: a2 = u64 [a5 + 0xf0]\n  4894: a0 = u64 [a5 + 0xe8]\n  4898: t0 = 150, jump @1593\n      : @185 [@dyn 75] (gas: 1)\n  4905: jump @187 if a1 == 0\n      : @186 (gas: 1)\n  4908: jump @993\n      : @187 (gas: 8)\n  4911: u64 [a3 + 736] = 0\n  4915: u64 [a3 + 728] = 0\n  4919: u64 [a3 + 712] = 0x69780\n  4926: a1 = s1 + 0x3400\n  4930: u64 [a3 + 720] = 0\n  4934: u64 [s1 + 0x1b8] = a0\n  4938: ra = 0x2ca\n  4942: jump @4\n      : @188 (gas: 8)\n  4945: u64 [a2 + 64] = 0\n  4948: u64 [a2 + 56] = 0\n  4951: u64 [a2 + 48] = 0\n  4954: u64 [a2 + 40] = 0\n  4957: a0 = s1 + 0x4000\n  4961: i32 a0 = a0 + 0xfffffffffffff960\n  4965: ecalli 15 // 'value_transferred'\n  4967: fallthrough\n      : @189 (gas: 9)\n  4968: a3 = s1 + 0x3938\n  4972: a0 = u64 [a3 + 0x38]\n  4975: a1 = u64 [a3 + 0x40]\n  4978: a2 = u64 [a3 + 0x30]\n  4981: a3 = u64 [a3 + 0x28]\n  4984: a1 = a1 | a2\n  4987: a0 = a0 | a3\n  4990: a0 = a0 | a1\n  4993: jump @191 if a0 == 0\n      : @190 (gas: 1)\n  4996: jump @1136\n      : @191 (gas: 3)\n  4999: a0 = u64 [s1 + 0x1b8]\n  5003: a0 = i32 [a0]\n  5005: jump @193 if a0 >u 3\n      : @192 (gas: 1)\n  5009: jump @1137\n      : @193 (gas: 8)\n  5012: a0 = 0x301a0\n  5017: u64 [s1 + 0x1b8] = a0\n  5021: i32 a0 = a0 + 0\n  5023: u64 [s1 + 0x1a0] = a0\n  5027: ra = 0x98\n  5031: ecalli 4 // 'caller'\n  5033: t0 = 0x9a\n  5037: jump @1582\n      : @194 [@dyn 76] (gas: 1)\n  5041: t0 = 154, jump @1582\n      : @195 [@dyn 77] (gas: 8)\n  5048: u64 [a2 + 520] = 0\n  5052: u64 [a2 + 0x200] = a1\n  5056: u64 [a2 + 0x1f8] = a0\n  5060: a1 = s1 + 0x7ff\n  5064: a1 = a1 + 0x321\n  5068: u64 [a2 + 0x1f0] = a3\n  5072: a0 = 0\n  5074: ra = 156, jump @4\n      : @196 [@dyn 78] (gas: 11)\n  5080: a1 = s1 + 0x7ff\n  5084: a1 = a1 + 0x131\n  5088: u64 [a1 + 488] = 0\n  5092: u64 [a1 + 480] = 0\n  5096: u64 [a1 + 464] = 0x5\n  5101: a2 = a1\n  5103: a0 = 0x20\n  5106: a1 = s1 + 0x7ff\n  5110: a1 = a1 + 0x301\n  5114: u64 [a2 + 472] = 0\n  5118: ra = 158, jump @4\n      : @197 [@dyn 79] (gas: 4)\n  5124: a2 = 0x20194\n  5129: a0 = i32 [0x20194]\n  5134: a1 = 0x3f\n  5137: jump @199 if a1 <u a0\n      : @198 (gas: 4)\n  5140: u32 [0x20194] = 0x40\n  5146: u64 [s1 + 0x190] = a2\n  5150: t0 = 0xa0\n  5154: jump @1627\n      : @199 (gas: 2)\n  5158: u64 [s1 + 0x190] = a2\n  5162: t0 = 160, jump @1627\n      : @200 [@dyn 80] (gas: 11)\n  5169: a0 = 0x201a0\n  5174: u64 [s1 + 0x198] = a0\n  5178: i32 a0 = a0 + 0\n  5180: i32 a2 = a2 + 0\n  5182: a1 = 0x40\n  5185: u64 [s1 + 0x1a8] = a0\n  5189: ra = 0xa2\n  5193: ecalli 7 // 'hash_keccak_256'\n  5195: a3 = u64 [s1 + 0x1b0]\n  5199: t0 = 0xa4\n  5203: jump @1574\n      : @201 [@dyn 81] (gas: 2)\n  5207: a3 = u64 [s1 + 0x1b0]\n  5211: t0 = 164, jump @1574\n      : @202 [@dyn 82] (gas: 8)\n  5218: u64 [a4 + 0x60] = a3\n  5221: u64 [a4 + 0x58] = a2\n  5224: u64 [a4 + 0x50] = a1\n  5227: u64 [a4 + 0x48] = a0\n  5230: a0 = s1 + 0x7ff\n  5234: a0 = a0 + 0x2e1\n  5238: a1 = s1 + 0x3980\n  5242: ra = 166, jump @6\n      : @203 [@dyn 83] (gas: 11)\n  5248: a0 = s1 + 0x7ff\n  5252: a0 = a0 + 0x131\n  5256: a1 = a0 + 0x100\n  5260: a5 = u64 [a1 + 0xc8]\n  5264: a4 = u64 [a1 + 0xc0]\n  5268: a3 = u64 [a1 + 0xb8]\n  5272: a2 = u64 [a1 + 0xb0]\n  5276: a0 = a3 | a5\n  5279: a1 = a2 | a4\n  5282: a0 = a0 | a1\n  5285: jump @205 if a0 == 0\n      : @204 (gas: 1)\n  5288: jump @1138\n      : @205 (gas: 4)\n  5291: a0 = s1 + 0x7ff\n  5295: a0 = a0 + 0x241\n  5299: a1 = 0x40\n  5302: ra = 168, jump @2\n      : @206 [@dyn 84] (gas: 15)\n  5308: a4 = s1 + 0x7ff\n  5312: a4 = a4 + 0x131\n  5316: t0 = u64 [a4 + 0x128]\n  5320: a1 = a4 + 0x100\n  5324: a5 = u64 [a1 + 0x20]\n  5327: a3 = u64 [a1 + 0x18]\n  5330: a0 = u64 [a1 + 0x10]\n  5333: a2 = a3 | t0\n  5336: a1 = a0 | a5\n  5339: a1 = a1 | a2\n  5342: a1 = a1 >> 0x20\n  5345: a2 = a2 | a5\n  5348: a2 = a2 << 0x20\n  5351: a1 = a1 | a2\n  5354: jump @208 if a1 == 0\n      : @207 (gas: 1)\n  5357: jump @993\n      : @208 (gas: 12)\n  5360: u64 [a4 + 256] = 0\n  5364: u64 [a4 + 248] = 0\n  5368: u64 [a4 + 240] = 0\n  5372: u64 [s1 + 0x1b0] = a3\n  5376: a3 = 0x8c379a000000000\n  5386: a1 = s1 + 0x7ff\n  5390: a1 = a1 + 0x221\n  5394: u64 [a4 + 0x108] = a3\n  5398: u64 [s1 + 0x1b8] = a0\n  5402: u64 [s1 + 0x1a8] = t0\n  5406: u64 [s1 + 0x1a0] = a5\n  5410: ra = 170, jump @4\n      : @209 [@dyn 85] (gas: 6)\n  5416: a5 = s1 + 0x100\n  5420: a1 = u64 [a5 + 0xb8]\n  5424: a0 = u64 [a5 + 0xa8]\n  5428: a3 = u64 [a5 + 0xa0]\n  5432: a3 = a3 | a0\n  5435: t0 = 172, jump @1562\n      : @210 [@dyn 86] (gas: 1)\n  5442: jump @212 if a0 != 0\n      : @211 (gas: 1)\n  5445: jump @993\n      : @212 (gas: 13)\n  5448: i32 a0 = a1 + 0x4\n  5451: a2 = s1 + 0x7ff\n  5455: a2 = a2 + 0x131\n  5459: a5 = 0\n  5461: u64 [a2 + 232] = 0\n  5465: u64 [a2 + 224] = 0\n  5469: u64 [a2 + 208] = 0x20\n  5474: a1 = s1 + 0x7ff\n  5478: a1 = a1 + 0x201\n  5482: u64 [a2 + 216] = 0\n  5486: u64 [s1 + 0x1a8] = a3\n  5490: u64 [s1 + 0x1a0] = a4\n  5494: ra = 174, jump @4\n      : @213 [@dyn 87] (gas: 1)\n  5500: t0 = 176, jump @1565\n      : @214 [@dyn 88] (gas: 1)\n  5507: jump @216 if a0 != 0\n      : @215 (gas: 1)\n  5510: jump @993\n      : @216 (gas: 10)\n  5513: i32 a0 = a1 + 0x24\n  5516: a3 = s1 + 0x7ff\n  5520: a3 = a3 + 0x131\n  5524: u64 [a3 + 200] = 0\n  5528: u64 [a3 + 192] = 0\n  5532: u64 [a3 + 176] = 0x14\n  5537: a1 = s1 + 0x7ff\n  5541: a1 = a1 + 0x1e1\n  5545: u64 [a3 + 184] = 0\n  5549: ra = 178, jump @4\n      : @217 [@dyn 89] (gas: 1)\n  5555: t0 = 180, jump @1567\n      : @218 [@dyn 90] (gas: 1)\n  5562: jump @220 if a0 != 0\n      : @219 (gas: 1)\n  5565: jump @993\n      : @220 (gas: 14)\n  5568: i32 a0 = a3 + 0x44\n  5571: a1 = u64 [0x20118]\n  5576: a2 = u64 [0x20120]\n  5581: a4 = s1 + 0x7ff\n  5585: a4 = a4 + 0x131\n  5589: u64 [a4 + 0xa8] = a1\n  5593: u64 [a4 + 0xa0] = a2\n  5597: a1 = 0x6472617700000000\n  5607: u64 [a4 + 0x98] = a1\n  5611: a1 = s1 + 0x7ff\n  5615: a1 = a1 + 0x1c1\n  5619: u64 [a4 + 144] = 0\n  5623: ra = 0x426\n  5627: jump @4\n      : @221 (gas: 11)\n  5630: u64 [a2 + 1120] = 0\n  5634: u64 [a2 + 1112] = 0\n  5638: u64 [a2 + 1104] = 0\n  5642: u64 [a2 + 1096] = 0\n  5646: a0 = s1 + 0x4000\n  5650: i32 a0 = a0 + 0x580\n  5654: ra = 0xb6\n  5658: ecalli 15 // 'value_transferred'\n  5660: a0 = 0x4000\n  5664: t0 = 0xb8\n  5668: jump @1607\n      : @222 [@dyn 91] (gas: 2)\n  5672: a0 = 0x4000\n  5676: t0 = 184, jump @1607\n      : @223 [@dyn 92] (gas: 8)\n  5683: a0 = u64 [a4 + 0x58]\n  5686: a1 = u64 [a4 + 0x60]\n  5689: a2 = u64 [a4 + 0x50]\n  5692: a3 = u64 [a4 + 0x48]\n  5695: a1 = a1 | a2\n  5698: a0 = a0 | a3\n  5701: a0 = a0 | a1\n  5704: jump @225 if a0 == 0\n      : @224 (gas: 1)\n  5707: jump @1151\n      : @225 (gas: 3)\n  5710: a0 = u64 [s1 + 0x1b8]\n  5714: a0 = i32 [a0]\n  5716: jump @227 if a0 >u 67\n      : @226 (gas: 1)\n  5720: jump @1152\n      : @227 (gas: 22)\n  5723: a0 = s1 + 0x4000\n  5727: i32 a0 = a0 + 0x5a0\n  5731: a1 = 0x24\n  5734: ecalli 2 // 'call_data_load'\n  5736: a1 = s1 + 0x4138\n  5740: a2 = a1 + 0x400\n  5744: a0 = u64 [a2 + 0x80]\n  5748: u64 [s1 + 0x1a0] = a0\n  5752: a0 = u64 [a2 + 0x78]\n  5755: u64 [s1 + 0x1a8] = a0\n  5759: a0 = u64 [a2 + 0x70]\n  5762: u64 [s1 + 0x1b0] = a0\n  5766: a0 = u64 [a2 + 0x68]\n  5769: u64 [s1 + 0x1b8] = a0\n  5773: a0 = s1 + 0x4000\n  5777: i32 a0 = a0 + 0x5c0\n  5781: a1 = 0x4\n  5784: ra = 0xba\n  5788: ecalli 2 // 'call_data_load'\n  5790: a0 = 0x4000\n  5794: t0 = 0xbc\n  5798: jump @1607\n      : @228 [@dyn 93] (gas: 2)\n  5802: a0 = 0x4000\n  5806: t0 = 188, jump @1607\n      : @229 [@dyn 94] (gas: 13)\n  5813: a0 = u64 [a4 + 0x88]\n  5817: a1 = u64 [a4 + 0x90]\n  5821: a2 = u64 [a4 + 0x98]\n  5825: a3 = u64 [a4 + 0xa0]\n  5829: a4 = s1 + 0x3138\n  5833: a5 = a4 + 0x200\n  5837: u64 [a5 + 0xc0] = a3\n  5841: u64 [a5 + 0xb8] = a2\n  5845: u64 [a5 + 0xb0] = a1\n  5849: a1 = s1 + 0x33e0\n  5853: u64 [a5 + 0xa8] = a0\n  5857: a0 = 0\n  5859: ra = 190, jump @4\n      : @230 [@dyn 95] (gas: 9)\n  5865: a1 = s1 + 0x3138\n  5869: u64 [a1 + 672] = 0\n  5873: u64 [a1 + 664] = 0\n  5877: u64 [a1 + 648] = 0x4\n  5882: a2 = a1\n  5884: a0 = 0x20\n  5887: a1 = s1 + 0x33c0\n  5891: u64 [a2 + 656] = 0\n  5895: ra = 192, jump @4\n      : @231 [@dyn 96] (gas: 6)\n  5901: a0 = sp + 0xffffffffffffffe0\n  5904: a0 = a0 & 0xffffffffffffffe0\n  5907: u64 [s1 + 0x180] = a0\n  5911: sp = a0\n  5913: a1 = i32 [0x20194]\n  5918: jump @233 if a1 >u 63\n      : @232 (gas: 2)\n  5922: u32 [0x20194] = 0x40\n  5928: fallthrough\n      : @233 (gas: 30)\n  5929: a0 = sp + 0xffffffffffffffe0\n  5932: a2 = a0 & 0xffffffffffffffe0\n  5935: u64 [s1 + 0x198] = a2\n  5939: sp = a2\n  5941: a0 = 0x201a0\n  5946: i32 a0 = a0 + 0\n  5948: i32 a2 = a2 + 0\n  5950: a1 = 0x40\n  5953: u64 [s1 + 0x170] = a0\n  5957: ecalli 7 // 'hash_keccak_256'\n  5959: a3 = u64 [s1 + 0x198]\n  5963: a0 = u64 [a3 + 0x18]\n  5966: a1 = u64 [a3 + 0x10]\n  5969: a2 = u64 [a3 + 0x8]\n  5972: a3 = u64 [a3]\n  5974: a0 = reverse a0\n  5976: a4 = reverse a1\n  5978: a2 = reverse a2\n  5980: a3 = reverse a3\n  5982: a1 = u64 [s1 + 0x180]\n  5986: u64 [s1 + 0x178] = a3\n  5990: u64 [a1 + 0x18] = a3\n  5993: u64 [s1 + 0x188] = a2\n  5997: u64 [a1 + 0x10] = a2\n  6000: u64 [s1 + 0x190] = a4\n  6004: u64 [a1 + 0x8] = a4\n  6007: u64 [s1 + 0x198] = a0\n  6011: u64 [a1] = a0\n  6013: a0 = s1 + 0x33a0\n  6017: ra = 194, jump @6\n      : @234 [@dyn 97] (gas: 22)\n  6023: ra = s1 + 0x3138\n  6027: a2 = ra + 0x200\n  6031: a0 = u64 [a2 + 0x70]\n  6034: a1 = u64 [a2 + 0x68]\n  6037: t2 = u64 [ra + 0x278]\n  6041: a3 = u64 [a2 + 0x80]\n  6045: t1 = u64 [s1 + 0x1b0]\n  6049: a4 = t1 ^ a0\n  6052: a0 = t1 <u a0\n  6055: t0 = u64 [s1 + 0x1b8]\n  6059: a1 = t0 <u a1\n  6062: a1 = a0 if a4 != 0\n  6065: a5 = u64 [s1 + 0x1a0]\n  6069: a0 = a5 ^ a3\n  6072: a2 = a5 <u a3\n  6075: a3 = u64 [s1 + 0x1a8]\n  6079: a4 = a3 <u t2\n  6082: a4 = a2 if a0 != 0\n  6085: a2 = a3 ^ t2\n  6088: a0 = a0 | a2\n  6091: a1 = a4 if a0 != 0\n  6094: jump @236 if a1 != 0\n      : @235 (gas: 1)\n  6097: jump @1153\n      : @236 (gas: 21)\n  6100: a0 = sp + 0xffffffffffffffe0\n  6103: a0 = a0 & 0xffffffffffffffe0\n  6106: u64 [s1 + 0x180] = a0\n  6110: sp = a0\n  6112: a4 = ra + 0x200\n  6116: u64 [a4] = a5\n  6118: u64 [ra + 0x1f8] = a3\n  6122: u64 [ra + 0x1f0] = t1\n  6126: u64 [ra + 0x1e8] = t0\n  6130: a0 = u64 [s1 + 0x178]\n  6134: u64 [a4 + 0x20] = a0\n  6137: a0 = u64 [s1 + 0x188]\n  6141: u64 [a4 + 0x18] = a0\n  6144: a0 = u64 [s1 + 0x190]\n  6148: u64 [a4 + 0x10] = a0\n  6151: a0 = s1 + 0x3360\n  6155: a1 = s1 + 0x3340\n  6159: a2 = s1 + 0x3320\n  6163: a3 = u64 [s1 + 0x198]\n  6167: u64 [a4 + 0x8] = a3\n  6170: ra = 196, jump @1308\n      : @237 [@dyn 98] (gas: 28)\n  6177: a0 = s1 + 0x3138\n  6181: a0 = u64 [a0 + 0x260]\n  6185: u64 [s1 + 0x178] = a0\n  6189: a0 = s1 + 0x3138\n  6193: a0 = u64 [a0 + 0x258]\n  6197: u64 [s1 + 0x190] = a0\n  6201: a0 = s1 + 0x3138\n  6205: a0 = u64 [a0 + 0x250]\n  6209: u64 [s1 + 0x188] = a0\n  6213: a0 = s1 + 0x3138\n  6217: a0 = u64 [a0 + 0x248]\n  6221: u64 [s1 + 0x198] = a0\n  6225: a0 = s1 + 0x3138\n  6229: a0 = u64 [a0 + 0x238]\n  6233: a1 = s1 + 0x3138\n  6237: a1 = u64 [a1 + 0x240]\n  6241: a2 = s1 + 0x3138\n  6245: a2 = u64 [a2 + 0x228]\n  6249: a3 = s1 + 0x3138\n  6253: a3 = u64 [a3 + 0x230]\n  6257: a4 = u64 [s1 + 0x180]\n  6261: u64 [a4 + 0x10] = a0\n  6264: u64 [a4 + 0x18] = a1\n  6267: u64 [a4] = a2\n  6269: u64 [a4 + 0x8] = a3\n  6272: a1 = a4\n  6274: a0 = s1 + 0x3300\n  6278: ra = 198, jump @6\n      : @238 [@dyn 99] (gas: 16)\n  6284: a0 = s1 + 0x3138\n  6288: a0 = u64 [a0 + 0x1e0]\n  6292: a1 = s1 + 0x100\n  6296: u64 [a1 + 0xb8] = a0\n  6300: a0 = s1 + 0x3138\n  6304: a0 = u64 [a0 + 0x1d8]\n  6308: u64 [a1 + 0xb0] = a0\n  6312: a0 = s1 + 0x3138\n  6316: a0 = u64 [a0 + 0x1d0]\n  6320: u64 [a1 + 0xa0] = a0\n  6324: a0 = s1 + 0x3138\n  6328: a0 = u64 [a0 + 0x1c8]\n  6332: u64 [a1 + 0xa8] = a0\n  6336: a0 = s1 + 0x32e0\n  6340: a1 = 0x40\n  6343: ra = 200, jump @2\n      : @239 [@dyn 100] (gas: 14)\n  6349: a3 = s1 + 0x3138\n  6353: a4 = a3 + 0x100\n  6357: a0 = u64 [a4 + 0xc0]\n  6361: a1 = u64 [a4 + 0xb8]\n  6365: a2 = u64 [a4 + 0xb0]\n  6369: a3 = u64 [a4 + 0xa8]\n  6373: a0 = a0 | a2\n  6376: a2 = a3 | a1\n  6379: a2 = a2 | a0\n  6382: a2 = a2 >> 0x20\n  6385: a0 = a0 | a1\n  6388: a0 = a0 << 0x20\n  6391: a0 = a0 | a2\n  6394: jump @241 if a0 == 0\n      : @240 (gas: 1)\n  6397: jump @993\n      : @241 (gas: 30)\n  6400: a0 = u64 [s1 + 0x198]\n  6404: a2 = a0 >> 0x3d\n  6407: a5 = u64 [s1 + 0x188]\n  6411: a1 = a5 << 0x3\n  6414: t1 = a1 | a2\n  6417: a4 = u64 [s1 + 0x190]\n  6421: a1 = a4 >> 0x3d\n  6424: a2 = u64 [s1 + 0x178]\n  6428: a2 = a2 << 0x3\n  6431: a1 = a1 | a2\n  6434: a2 = a5 >> 0x3d\n  6437: u64 [s1 + 0x188] = a3\n  6441: a3 = a4 << 0x3\n  6444: a2 = a2 | a3\n  6447: a3 = a0 << 0x3\n  6450: u64 [s1 + 0x190] = a3\n  6454: a5 = a2 >u 0\n  6456: a4 = a1 >u 0\n  6458: a4 = a5 if a1 == 0\n  6461: t0 = t1 >u 0\n  6463: a5 = a3 <u 0x100\n  6467: a5 = a5 ^ 0x1\n  6470: a5 = t0 if t1 != 0\n  6473: a1 = a1 | a2\n  6476: a5 = a4 if a1 != 0\n  6479: u64 [s1 + 0x180] = a5\n  6483: i32 a2 = a3 + 0xffffffffffffff80\n  6486: a0 = u64 [s1 + 0x1b0]\n  6490: a1 = u64 [s1 + 0x1b8]\n  6494: ra = 202, jump @1634\n      : @242 [@dyn 101] (gas: 8)\n  6501: u64 [s1 + 0x178] = a0\n  6505: u64 [s1 + 0x170] = a1\n  6509: a0 = u64 [s1 + 0x198]\n  6513: i32 a2 = a0 << 0x3\n  6516: u64 [s1 + 0x198] = a2\n  6520: a0 = u64 [s1 + 0x1a8]\n  6524: a1 = u64 [s1 + 0x1a0]\n  6528: ra = 204, jump @1634\n      : @243 [@dyn 102] (gas: 7)\n  6535: u64 [s1 + 0x160] = a0\n  6539: u64 [s1 + 0x168] = a1\n  6543: a1 = u64 [s1 + 0x190]\n  6547: i32 a2 = 0x80 - a1\n  6551: a0 = u64 [s1 + 0x1b0]\n  6555: a1 = u64 [s1 + 0x1b8]\n  6559: ra = 206, jump @1639\n      : @244 [@dyn 103] (gas: 21)\n  6566: a2 = u64 [s1 + 0x168]\n  6570: a2 = a2 | a1\n  6573: a1 = u64 [s1 + 0x190]\n  6577: a3 = a1 <u 0x80\n  6581: u64 [s1 + 0x168] = a3\n  6585: a4 = u64 [s1 + 0x170]\n  6589: a2 = a4 if a3 == 0\n  6592: a4 = u64 [s1 + 0x1a0]\n  6596: a2 = a4 if a1 == 0\n  6599: u64 [s1 + 0x1a0] = a2\n  6603: a2 = u64 [s1 + 0x160]\n  6607: a0 = a0 | a2\n  6610: a2 = u64 [s1 + 0x178]\n  6614: a0 = a2 if a3 == 0\n  6617: a2 = u64 [s1 + 0x1a8]\n  6621: a0 = a2 if a1 == 0\n  6624: u64 [s1 + 0x1a8] = a0\n  6628: a0 = u64 [s1 + 0x1b0]\n  6632: a1 = u64 [s1 + 0x1b8]\n  6636: a2 = u64 [s1 + 0x198]\n  6640: ra = 208, jump @1634\n      : @245 [@dyn 104] (gas: 21)\n  6647: a1 = 0\n  6649: a2 = u64 [s1 + 0x168]\n  6653: a0 = 0 if a2 == 0\n  6655: a0 = a0 << 0x20\n  6658: a0 = a0 >> 0x20\n  6661: a2 = u64 [s1 + 0x180]\n  6665: a4 = u64 [s1 + 0x1a8]\n  6669: a4 = 0 if a2 != 0\n  6671: a3 = u64 [s1 + 0x1a0]\n  6675: a3 = 0 if a2 != 0\n  6677: a0 = 0 if a2 != 0\n  6679: a1 = 0 if a2 == 0\n  6681: a2 = s1 + 0x3138\n  6685: a5 = a2 + 0x100\n  6689: u64 [a5 + 0xa0] = a1\n  6693: u64 [a5 + 0x98] = a0\n  6697: u64 [a5 + 0x90] = a3\n  6701: a1 = s1 + 0x32c0\n  6705: u64 [a5 + 0x88] = a4\n  6709: a0 = u64 [s1 + 0x188]\n  6713: ra = 210, jump @4\n      : @246 [@dyn 105] (gas: 4)\n  6719: a1 = 0x20\n  6722: a0 = u64 [s1 + 0x188]\n  6726: ra = 0x2cc\n  6730: jump @16\n      : @247 (gas: 10)\n  6733: u64 [a2 + 1344] = 0\n  6737: u64 [a2 + 1336] = 0\n  6741: u64 [a2 + 1328] = 0\n  6745: u64 [a2 + 1320] = 0\n  6749: a0 = s1 + 0x4000\n  6753: i32 a0 = a0 + 0x660\n  6757: ra = 0xd4\n  6761: ecalli 15 // 'value_transferred'\n  6763: t0 = 0xd6\n  6767: jump @1616\n      : @248 [@dyn 106] (gas: 1)\n  6771: t0 = 214, jump @1616\n      : @249 [@dyn 107] (gas: 1)\n  6778: t0 = 216, jump @1608\n      : @250 [@dyn 108] (gas: 1)\n  6785: jump @252 if a0 == 0\n      : @251 (gas: 1)\n  6788: jump @1154\n      : @252 (gas: 1)\n  6791: t0 = 218, jump @1625\n      : @253 [@dyn 109] (gas: 1)\n  6798: jump @255 if a1 <u a0\n      : @254 (gas: 1)\n  6801: jump @1155\n      : @255 (gas: 7)\n  6804: a0 = s1 + 0x4000\n  6808: i32 a0 = a0 + 0x680\n  6812: a1 = 0x4\n  6815: ra = 0xdc\n  6819: ecalli 2 // 'call_data_load'\n  6821: t0 = 0xde\n  6825: jump @1616\n      : @256 [@dyn 110] (gas: 1)\n  6829: t0 = 222, jump @1616\n      : @257 [@dyn 111] (gas: 13)\n  6836: a0 = u64 [a4 + 0x48]\n  6839: a1 = u64 [a4 + 0x50]\n  6842: a2 = u64 [a4 + 0x58]\n  6845: a3 = u64 [a4 + 0x60]\n  6848: a4 = s1 + 0x3138\n  6852: a5 = a4 + 0x400\n  6856: u64 [a5 + 0x40] = a3\n  6859: u64 [a5 + 0x38] = a2\n  6862: u64 [a5 + 0x30] = a1\n  6865: a1 = s1 + 0x3560\n  6869: u64 [a5 + 0x28] = a0\n  6872: a0 = 0\n  6874: ra = 224, jump @4\n      : @258 [@dyn 112] (gas: 9)\n  6880: a1 = s1 + 0x3138\n  6884: u64 [a1 + 1056] = 0\n  6888: u64 [a1 + 1048] = 0\n  6892: u64 [a1 + 1032] = 0x4\n  6897: a2 = a1\n  6899: a0 = 0x20\n  6902: a1 = s1 + 0x3540\n  6906: u64 [a2 + 1040] = 0\n  6910: ra = 226, jump @4\n      : @259 [@dyn 113] (gas: 2)\n  6916: a1 = i32 [0x20194]\n  6921: jump @261 if a1 >u 63\n      : @260 (gas: 4)\n  6925: a1 = 0x40\n  6928: u32 [0x20194] = a1\n  6933: t0 = 0xe4\n  6937: jump @1603\n      : @261 (gas: 1)\n  6941: t0 = 228, jump @1603\n      : @262 [@dyn 114] (gas: 8)\n  6948: a0 = 0x201a0\n  6953: i32 a0 = a0 + 0\n  6955: i32 a2 = a2 + 0\n  6957: a1 = 0x40\n  6960: ra = 0xe6\n  6964: ecalli 7 // 'hash_keccak_256'\n  6966: t0 = 0xe8\n  6970: jump @1591\n      : @263 [@dyn 115] (gas: 1)\n  6974: t0 = 232, jump @1591\n      : @264 [@dyn 116] (gas: 7)\n  6981: u64 [a5 + 0x80] = a3\n  6985: u64 [a5 + 0x78] = a2\n  6988: u64 [a5 + 0x70] = a1\n  6991: u64 [a5 + 0x68] = a0\n  6994: a0 = s1 + 0x3520\n  6998: a1 = s1 + 0x46a0\n  7002: ra = 234, jump @6\n      : @265 [@dyn 117] (gas: 14)\n  7008: a1 = s1 + 0x3138\n  7012: a0 = u64 [a1 + 0x400]\n  7016: a2 = s1 + 0x100\n  7020: u64 [a2 + 0xb8] = a0\n  7024: a3 = a1 + 0x300\n  7028: a0 = u64 [a3 + 0xf8]\n  7032: u64 [a2 + 0xb0] = a0\n  7036: a0 = u64 [a3 + 0xf0]\n  7040: u64 [a2 + 0xa8] = a0\n  7044: a0 = u64 [a3 + 0xe8]\n  7048: u64 [a2 + 0xa0] = a0\n  7052: a0 = s1 + 0x3500\n  7056: a1 = 0x40\n  7059: ra = 236, jump @2\n      : @266 [@dyn 118] (gas: 7)\n  7065: a3 = s1 + 0x3138\n  7069: a5 = a3 + 0x300\n  7073: a0 = u64 [a5 + 0xe0]\n  7077: a1 = u64 [a5 + 0xd8]\n  7081: a2 = u64 [a5 + 0xd0]\n  7085: a4 = u64 [a5 + 0xc8]\n  7089: t0 = 238, jump @1577\n      : @267 [@dyn 119] (gas: 1)\n  7096: jump @269 if a0 == 0\n      : @268 (gas: 1)\n  7099: jump @993\n      : @269 (gas: 15)\n  7102: a2 = s1 + 0x100\n  7106: a0 = u64 [a2 + 0xa0]\n  7110: a5 = a3 + 0x300\n  7114: u64 [a5 + 0xa8] = a0\n  7118: a0 = u64 [a2 + 0xa8]\n  7122: u64 [a5 + 0xb0] = a0\n  7126: a0 = u64 [a2 + 0xb0]\n  7130: u64 [a5 + 0xb8] = a0\n  7134: a1 = s1 + 0x34e0\n  7138: a0 = u64 [a2 + 0xb8]\n  7142: u64 [a5 + 0xc0] = a0\n  7146: a0 = a4\n  7148: u64 [s1 + 0x1b8] = a4\n  7152: ra = 0x2ca\n  7156: jump @4\n      : @270 (gas: 1)\n  7159: t0 = 240, jump @1633\n      : @271 [@dyn 120] (gas: 3)\n  7166: i32 a0 = a0 + 0xfffffffffffffa60\n  7170: ecalli 15 // 'value_transferred'\n  7172: fallthrough\n      : @272 (gas: 10)\n  7173: a4 = s1 + 0x3938\n  7177: a5 = a4 + 0x100\n  7181: a0 = u64 [a5 + 0x38]\n  7184: a1 = u64 [a5 + 0x40]\n  7187: a2 = u64 [a5 + 0x30]\n  7190: a3 = u64 [a5 + 0x28]\n  7193: a1 = a1 | a2\n  7196: a0 = a0 | a3\n  7199: a0 = a0 | a1\n  7202: jump @274 if a0 == 0\n      : @273 (gas: 1)\n  7205: jump @1156\n      : @274 (gas: 3)\n  7208: a0 = u64 [s1 + 0x1b8]\n  7212: a0 = i32 [a0]\n  7214: jump @276 if a0 >u 3\n      : @275 (gas: 1)\n  7218: jump @1157\n      : @276 (gas: 7)\n  7221: u64 [a4 + 352] = 0\n  7225: u64 [a4 + 344] = 0\n  7229: u64 [a4 + 336] = 0\n  7233: u64 [a4 + 328] = 0\n  7237: a0 = s1 + 0x12c0\n  7241: a1 = s1 + 0x3a80\n  7245: ra = 242, jump @6\n      : @277 [@dyn 121] (gas: 14)\n  7251: a0 = s1 + 0x1138\n  7255: a1 = u64 [a0 + 0x190]\n  7259: u64 [s1 + 0x1b8] = a1\n  7263: a1 = u64 [a0 + 0x188]\n  7267: u64 [s1 + 0x1b0] = a1\n  7271: a0 = u32 [a0 + 0x198]\n  7275: u64 [s1 + 0x1a8] = a0\n  7279: a0 = 0x301a0\n  7284: u64 [s1 + 0x1a0] = a0\n  7288: i32 a0 = a0 + 0\n  7290: ra = 0xf4\n  7294: ecalli 4 // 'caller'\n  7296: t0 = 0xf6\n  7300: jump @1571\n      : @278 [@dyn 122] (gas: 1)\n  7304: t0 = 246, jump @1571\n      : @279 [@dyn 123] (gas: 7)\n  7311: a1 = s1 + 0x1138\n  7315: u64 [a1 + 384] = 0\n  7319: u64 [a1 + 376] = 0\n  7323: u64 [a1 + 0x168] = a0\n  7327: a0 = s1 + 0x12a0\n  7331: u64 [a1 + 368] = 0\n  7335: ra = 248, jump @1353\n      : @280 [@dyn 124] (gas: 9)\n  7342: a0 = s1 + 0x3938\n  7346: u64 [a0 + 384] = 0\n  7350: u64 [a0 + 376] = 0\n  7354: u64 [a0 + 368] = 0\n  7358: a1 = a0\n  7360: u64 [a1 + 360] = 0x1\n  7365: a0 = s1 + 0x1280\n  7369: a1 = s1 + 0x3aa0\n  7373: ra = 250, jump @6\n      : @281 [@dyn 125] (gas: 10)\n  7379: a2 = s1 + 0x1138\n  7383: t1 = u64 [a2 + 0x160]\n  7387: a0 = a2 + 0x100\n  7391: a3 = u64 [a0 + 0x58]\n  7394: a5 = u64 [a0 + 0x50]\n  7397: a4 = u64 [a0 + 0x48]\n  7400: a0 = a5 | t1\n  7403: a1 = a4 | a3\n  7406: a0 = a0 | a1\n  7409: jump @294 if a0 == 0\n      : @282 (gas: 13)\n  7413: a0 = s1 + 0x100\n  7417: u64 [a0 + 0xb8] = a4\n  7421: a1 = a2 + 0x100\n  7425: u64 [a1 + 0x28] = a4\n  7428: u64 [a0 + 0xb0] = a5\n  7432: u64 [a1 + 0x30] = a5\n  7435: u64 [a0 + 0xa8] = a3\n  7439: u64 [a1 + 0x38] = a3\n  7442: a1 = s1 + 0x1260\n  7446: u64 [s1 + 0x1a0] = t1\n  7450: u64 [a2 + 0x140] = t1\n  7454: a0 = 0\n  7456: ra = 252, jump @4\n      : @283 [@dyn 126] (gas: 3)\n  7462: t0 = 0xfe\n  7466: a1 = s1 + 0x1138\n  7470: fallthrough\n      : @284 [@dyn 127] (gas: 8)\n  7471: u64 [a1 + 288] = 0\n  7475: u64 [a1 + 280] = 0\n  7479: u64 [a1 + 264] = 0x2\n  7484: a2 = a1\n  7486: a0 = 0x20\n  7489: a1 = s1 + 0x1240\n  7493: u64 [a2 + 272] = 0\n  7497: ra = 256, jump @4\n      : @285 [@dyn 128] (gas: 3)\n  7503: a2 = 0x20194\n  7508: a0 = i32 [0x20194]\n  7513: jump @287 if a0 >u 63\n      : @286 (gas: 2)\n  7517: u32 [0x20194] = 0x40\n  7523: fallthrough\n      : @287 (gas: 15)\n  7524: u64 [s1 + 0x190] = a2\n  7528: a0 = sp + 0xffffffffffffffe0\n  7531: a2 = a0 & 0xffffffffffffffe0\n  7534: u64 [s1 + 0x198] = a2\n  7538: sp = a2\n  7540: a0 = 0x201a0\n  7545: i32 a0 = a0 + 0\n  7547: i32 a2 = a2 + 0\n  7549: a1 = 0x40\n  7552: u64 [s1 + 0x188] = a0\n  7556: ra = 0x102\n  7560: ecalli 7 // 'hash_keccak_256'\n  7562: a3 = u64 [s1 + 0x198]\n  7566: t0 = 0x104\n  7570: jump @1563\n      : @288 [@dyn 129] (gas: 2)\n  7574: a3 = u64 [s1 + 0x198]\n  7578: t0 = 260, jump @1563\n      : @289 [@dyn 130] (gas: 8)\n  7585: a3 = a1 + 0x100\n  7589: u64 [a3 + 0x88] = a4\n  7593: u64 [a3 + 0x90] = a5\n  7597: u64 [a3 + 0x98] = a2\n  7601: u64 [a3 + 0xa0] = a0\n  7605: a0 = s1 + 0x1220\n  7609: a1 = s1 + 0x3ac0\n  7613: ra = 262, jump @6\n      : @290 [@dyn 131] (gas: 4)\n  7619: a2 = s1 + 0x1138\n  7623: a0 = u8 [a2 + 0xfc]\n  7627: a1 = 0x3\n  7630: jump @292 if a1 >=u a0\n      : @291 (gas: 1)\n  7633: jump @1213\n      : @292 (gas: 6)\n  7636: a2 = s1 + 0x100\n  7640: a4 = u64 [a2 + 0xb8]\n  7644: a5 = u64 [a2 + 0xb0]\n  7648: a3 = u64 [a2 + 0xa8]\n  7652: t1 = u64 [s1 + 0x1a0]\n  7656: jump @294 if a0 == 3\n      : @293 (gas: 1)\n  7660: jump @944\n      : @294 (gas: 1)\n  7663: t0 = 264, jump @1620\n      : @295 [@dyn 132] (gas: 10)\n  7670: t0 = s1 + 0x7ff\n  7674: t0 = t0 + 0x131\n  7678: u64 [t0 + 0x7e8] = t1\n  7682: a2 = t0 + 0x700\n  7686: u64 [a2 + 0xe0] = a3\n  7690: u64 [a2 + 0xd8] = a5\n  7694: a0 = s1 + 0x1120\n  7698: a1 = s1 + 0x1100\n  7702: u64 [a2 + 0xd0] = a4\n  7706: ra = 266, jump @1372\n      : @296 [@dyn 133] (gas: 23)\n  7713: a3 = s1 + 0x1138\n  7717: a4 = a3 + 0xffffffffffffff00\n  7721: a1 = u64 [a4 + 0xf8]\n  7725: a2 = u64 [a3]\n  7727: a0 = u64 [a4 + 0xe8]\n  7731: a3 = u64 [a4 + 0xf0]\n  7735: u64 [s1 + 0x170] = a1\n  7739: a4 = u64 [s1 + 0x1b8]\n  7743: u64 [a4 + 0x10] = a1\n  7746: u64 [s1 + 0x168] = a2\n  7750: u64 [a4 + 0x18] = a2\n  7753: u64 [s1 + 0x178] = a0\n  7757: u64 [a4] = a0\n  7759: u64 [s1 + 0x160] = a3\n  7763: u64 [a4 + 0x8] = a3\n  7766: a1 = a4\n  7768: a2 = s1 + 0x3938\n  7772: u64 [a2 + 448] = 0\n  7776: u64 [a2 + 440] = 0\n  7780: u64 [a2 + 432] = 0\n  7784: u64 [a2 + 424] = 0x1\n  7789: a0 = s1 + 0x3ae0\n  7793: ra = 268, jump @9\n      : @297 [@dyn 134] (gas: 7)\n  7799: a0 = s1 + 0x4000\n  7803: i32 a0 = a0 + 0xfffffffffffffb00\n  7807: ra = 0x10e\n  7811: ecalli 8 // 'now'\n  7813: a0 = 0x4000\n  7817: t0 = 0x110\n  7821: jump @1629\n      : @298 [@dyn 135] (gas: 2)\n  7825: a0 = 0x4000\n  7829: t0 = 272, jump @1629\n      : @299 [@dyn 136] (gas: 21)\n  7836: a0 = u64 [a4 + 0xe0]\n  7840: a1 = u64 [a4 + 0xd8]\n  7844: a2 = u64 [a4 + 0xc8]\n  7848: a3 = u64 [a4 + 0xd0]\n  7852: a4 = a2 + 0x2a300\n  7857: u64 [s1 + 0x1b8] = a4\n  7861: a2 = a4 <u a2\n  7864: a4 = a3 + a2\n  7867: u64 [s1 + 0x1b0] = a4\n  7871: a3 = a4 <u a3\n  7874: a3 = a2 if a2 == 0\n  7877: a3 = a3 + a1\n  7880: u64 [s1 + 0x1a8] = a3\n  7884: a1 = a3 <u a1\n  7887: a0 = a0 + a1\n  7890: u64 [s1 + 0x1a0] = a0\n  7894: a0 = s1 + 0x4000\n  7898: i32 a0 = a0 + 0xfffffffffffffb20\n  7902: ra = 0x112\n  7906: ecalli 8 // 'now'\n  7908: fallthrough\n      : @300 [@dyn 137] (gas: 22)\n  7909: a3 = s1 + 0x3938\n  7913: a0 = u64 [a3 + 0x1f0]\n  7917: a1 = u64 [a3 + 0x1e8]\n  7921: a2 = u64 [a3 + 0x200]\n  7925: t0 = u64 [a3 + 0x1f8]\n  7929: a3 = s1 + 0x100\n  7933: a5 = u64 [a3 + 0xb0]\n  7937: a4 = a0 ^ a5\n  7940: a0 = a5 <u a0\n  7943: a5 = u64 [a3 + 0xb8]\n  7947: a1 = a5 <u a1\n  7950: a1 = a0 if a4 != 0\n  7953: a5 = u64 [a3 + 0xa8]\n  7957: a0 = a5 <u t0\n  7960: a4 = u64 [a3 + 0xa0]\n  7964: a3 = a2 ^ a4\n  7967: a2 = a4 <u a2\n  7970: a2 = a0 if a3 == 0\n  7973: a0 = t0 ^ a5\n  7976: a0 = a0 | a3\n  7979: a1 = a2 if a0 != 0\n  7982: jump @302 if a1 == 0\n      : @301 (gas: 1)\n  7985: jump @1200\n      : @302 (gas: 5)\n  7988: a0 = s1 + 0x4000\n  7992: i32 a0 = a0 + 0xfffffffffffffb40\n  7996: ra = 0x114\n  8000: ecalli 8 // 'now'\n  8002: fallthrough\n      : @303 [@dyn 138] (gas: 34)\n  8003: a0 = s1 + 0x3938\n  8007: t0 = u64 [a0 + 0x220]\n  8011: a2 = a0 + 0x200\n  8015: a1 = u64 [a2 + 0x18]\n  8018: a5 = u64 [a2 + 0x8]\n  8021: a3 = u64 [a2 + 0x10]\n  8024: a2 = a5 + 0x93a80\n  8029: a0 = a2 <u a5\n  8032: a5 = a3 + a0\n  8035: a3 = a5 <u a3\n  8038: a3 = a0 if a0 == 0\n  8041: a0 = a1 + a3\n  8044: a1 = a0 <u a1\n  8047: a1 = a1 + t0\n  8050: a4 = u64 [s1 + 0x1a8]\n  8054: t0 = a0 <u a4\n  8057: u64 [s1 + 0x158] = a2\n  8061: a3 = u64 [s1 + 0x1b8]\n  8065: t1 = a2 <u a3\n  8068: a3 = u64 [s1 + 0x1b0]\n  8072: a2 = a3 ^ a5\n  8075: u64 [s1 + 0x150] = a5\n  8079: a3 = a5 <u a3\n  8082: a3 = t1 if a2 == 0\n  8085: a2 = u64 [s1 + 0x1a0]\n  8089: a5 = a2 ^ a1\n  8092: u64 [s1 + 0x140] = a1\n  8096: a2 = a1 <u a2\n  8099: a2 = t0 if a5 == 0\n  8102: u64 [s1 + 0x148] = a0\n  8106: a0 = a0 ^ a4\n  8109: a0 = a0 | a5\n  8112: a3 = a2 if a0 != 0\n  8115: jump @305 if a3 == 0\n      : @304 (gas: 1)\n  8118: jump @1206\n      : @305 (gas: 3)\n  8121: a0 = s1 + 0x10e0\n  8125: a1 = 0x40\n  8128: ra = 278, jump @2\n      : @306 [@dyn 139] (gas: 19)\n  8134: a1 = s1 + 0x7ff\n  8138: a1 = a1 + 0x131\n  8142: a5 = a1 + 0x700\n  8146: a0 = u64 [a5 + 0xc8]\n  8150: u64 [s1 + 0x188] = a0\n  8154: a2 = u64 [a5 + 0xc0]\n  8158: u64 [s1 + 0x180] = a2\n  8162: a3 = u64 [a5 + 0xb8]\n  8166: u64 [s1 + 0x190] = a3\n  8170: a4 = u64 [a5 + 0xb0]\n  8174: u64 [s1 + 0x198] = a4\n  8178: u64 [a5 + 0xa8] = a0\n  8182: u64 [a5 + 0xa0] = a2\n  8186: u64 [a5 + 0x98] = a3\n  8190: a0 = s1 + 0x10c0\n  8194: u64 [a5 + 0x90] = a4\n  8198: ra = 0x118\n  8202: t0 = 0x59a\n  8206: jump @1600\n      : @307 [@dyn 140] (gas: 13)\n  8210: a4 = s1 + 0x100\n  8214: a2 = u64 [a4 + 0x98]\n  8218: a0 = u64 [a4 + 0x88]\n  8222: a1 = u64 [a4 + 0x90]\n  8226: a0 = a0 | a1\n  8229: a3 = u64 [a4 + 0x80]\n  8233: a1 = a2 | a3\n  8236: a1 = a1 | a0\n  8239: a1 = a1 >> 0x20\n  8242: a0 = a0 | a3\n  8245: a0 = a0 << 0x20\n  8248: a0 = a0 | a1\n  8251: jump @309 if a0 == 0\n      : @308 (gas: 1)\n  8254: jump @993\n      : @309 (gas: 14)\n  8257: a0 = u64 [s1 + 0x178]\n  8261: a3 = s1 + 0x7ff\n  8265: a3 = a3 + 0x131\n  8269: a4 = a3 + 0x700\n  8273: u64 [a4 + 0x70] = a0\n  8276: a0 = u64 [s1 + 0x160]\n  8280: u64 [a4 + 0x78] = a0\n  8283: a0 = u64 [s1 + 0x170]\n  8287: u64 [a4 + 0x80] = a0\n  8291: a1 = s1 + 0x10a0\n  8295: a0 = u64 [s1 + 0x168]\n  8299: u64 [a4 + 0x88] = a0\n  8303: a0 = a2\n  8305: ra = 282, jump @4\n      : @310 [@dyn 141] (gas: 4)\n  8311: a0 = s1 + 0x4000\n  8315: i32 a0 = a0 + 0xfffffffffffffb60\n  8319: ecalli 8 // 'now'\n  8321: fallthrough\n      : @311 (gas: 12)\n  8322: a5 = s1 + 0x100\n  8326: a4 = u64 [a5 + 0x98]\n  8330: a0 = u64 [a5 + 0x88]\n  8334: a2 = u64 [a5 + 0x80]\n  8338: a2 = a2 | a0\n  8341: a3 = 0x100000000\n  8351: a0 = 0xffffffe0\n  8361: a0 = a4 <u a0\n  8364: a1 = u64 [a5 + 0x90]\n  8368: a0 = 0 if a1 != 0\n  8370: a0 = 0 if a2 != 0\n  8372: jump @313 if a0 != 0\n      : @312 (gas: 1)\n  8375: jump @993\n      : @313 (gas: 18)\n  8378: a0 = s1 + 0x3938\n  8382: u64 [s1 + 0x188] = a2\n  8386: u64 [s1 + 0x180] = a3\n  8390: a5 = u64 [a0 + 0x228]\n  8394: a1 = u64 [a0 + 0x230]\n  8398: a2 = u64 [a0 + 0x238]\n  8402: a3 = u64 [a0 + 0x240]\n  8406: i32 a0 = a4 + 0x20\n  8409: a4 = s1 + 0x7ff\n  8413: a4 = a4 + 0x131\n  8417: u64 [a4 + 0x768] = a3\n  8421: a3 = a4 + 0x700\n  8425: u64 [a3 + 0x60] = a2\n  8428: u64 [a3 + 0x58] = a1\n  8431: a1 = s1 + 0x1080\n  8435: u64 [a3 + 0x50] = a5\n  8438: u64 [s1 + 0x138] = a0\n  8442: ra = 284, jump @4\n      : @314 [@dyn 142] (gas: 5)\n  8448: a3 = s1 + 0x100\n  8452: a1 = u64 [a3 + 0x98]\n  8456: a0 = u64 [a3 + 0x80]\n  8460: a0 = a0 + 0xffffffffffffffc0\n  8463: t0 = 286, jump @1618\n      : @315 [@dyn 143] (gas: 1)\n  8470: jump @317 if a0 != 0\n      : @316 (gas: 1)\n  8473: jump @993\n      : @317 (gas: 16)\n  8476: i32 a2 = a1 + 0x40\n  8479: a0 = u64 [s1 + 0x1b8]\n  8483: a3 = s1 + 0x7ff\n  8487: a3 = a3 + 0x131\n  8491: a4 = a3 + 0x700\n  8495: u64 [a4 + 0x30] = a0\n  8498: a0 = u64 [s1 + 0x1b0]\n  8502: u64 [a4 + 0x38] = a0\n  8505: a0 = u64 [s1 + 0x1a8]\n  8509: u64 [a4 + 0x40] = a0\n  8512: a1 = s1 + 0x1060\n  8516: a0 = u64 [s1 + 0x1a0]\n  8520: u64 [a4 + 0x48] = a0\n  8523: u64 [s1 + 0x180] = a2\n  8527: a0 = a2\n  8529: ra = 288, jump @4\n      : @318 [@dyn 144] (gas: 10)\n  8535: a4 = s1 + 0x100\n  8539: a1 = u64 [a4 + 0x98]\n  8543: a3 = 0x100000000\n  8553: a0 = 0xffffffa0\n  8563: a0 = a1 <u a0\n  8566: a2 = u64 [a4 + 0x90]\n  8570: a0 = 0 if a2 != 0\n  8572: a2 = u64 [a4 + 0x88]\n  8576: a0 = 0 if a2 != 0\n  8578: jump @320 if a0 != 0\n      : @319 (gas: 1)\n  8581: jump @993\n      : @320 (gas: 18)\n  8584: i32 a2 = a1 + 0x60\n  8587: a0 = u64 [s1 + 0x158]\n  8591: a1 = s1 + 0x7ff\n  8595: a1 = a1 + 0x131\n  8599: u64 [s1 + 0x130] = a3\n  8603: a3 = a1\n  8605: a4 = a1 + 0x700\n  8609: u64 [a4 + 0x10] = a0\n  8612: a0 = u64 [s1 + 0x150]\n  8616: u64 [a4 + 0x18] = a0\n  8619: a0 = u64 [s1 + 0x148]\n  8623: u64 [a4 + 0x20] = a0\n  8626: a1 = s1 + 0x1040\n  8630: a0 = u64 [s1 + 0x140]\n  8634: u64 [a3 + 0x728] = a0\n  8638: u64 [s1 + 0x128] = a2\n  8642: a0 = a2\n  8644: ra = 290, jump @4\n      : @321 [@dyn 145] (gas: 5)\n  8650: a3 = s1 + 0x100\n  8654: a1 = u64 [a3 + 0x98]\n  8658: a0 = u64 [a3 + 0x30]\n  8661: a0 = a0 + 0xffffffffffffff80\n  8664: t0 = 292, jump @1618\n      : @322 [@dyn 146] (gas: 1)\n  8671: jump @324 if a0 != 0\n      : @323 (gas: 1)\n  8674: jump @993\n      : @324 (gas: 10)\n  8677: i32 a0 = a1 + 0x80\n  8681: a2 = s1 + 0x7ff\n  8685: a2 = a2 + 0x131\n  8689: u64 [a2 + 1800] = 0\n  8693: u64 [a2 + 1792] = 0\n  8697: u64 [a2 + 1784] = 0\n  8701: a1 = s1 + 0x1020\n  8705: u64 [a2 + 1776] = 0\n  8709: u64 [s1 + 0x130] = a0\n  8713: ra = 294, jump @4\n      : @325 [@dyn 147] (gas: 10)\n  8719: a4 = s1 + 0x100\n  8723: a1 = u64 [a4 + 0x98]\n  8727: a3 = 0x100000000\n  8737: a0 = 0xffffff60\n  8747: a0 = a1 <u a0\n  8750: a2 = u64 [a4 + 0x90]\n  8754: a0 = 0 if a2 != 0\n  8756: a2 = u64 [a4 + 0x88]\n  8760: a0 = 0 if a2 != 0\n  8762: jump @327 if a0 != 0\n      : @326 (gas: 1)\n  8765: jump @993\n      : @327 (gas: 11)\n  8768: i32 a0 = a1 + 0xa0\n  8772: a2 = s1 + 0x7ff\n  8776: a2 = a2 + 0x131\n  8780: u64 [a2 + 1768] = 0\n  8784: u64 [a2 + 1760] = 0\n  8788: u64 [a2 + 1752] = 0\n  8792: a1 = s1 + 0x1000\n  8796: u64 [a2 + 1744] = 0\n  8800: u64 [s1 + 0x118] = a0\n  8804: u64 [s1 + 0x120] = a3\n  8808: ra = 296, jump @4\n      : @328 [@dyn 148] (gas: 5)\n  8814: a3 = s1 + 0x100\n  8818: a1 = u64 [a3 + 0x98]\n  8822: a0 = u64 [a3 + 0x20]\n  8825: a0 = a0 + 0xffffffffffffff40\n  8829: t0 = 298, jump @1618\n      : @329 [@dyn 149] (gas: 1)\n  8836: jump @331 if a0 != 0\n      : @330 (gas: 1)\n  8839: jump @993\n      : @331 (gas: 11)\n  8842: i32 a0 = a1 + 0xc0\n  8846: a2 = s1 + 0x7ff\n  8850: a2 = a2 + 0x131\n  8854: u64 [a2 + 1736] = 0\n  8858: u64 [a2 + 1728] = 0\n  8862: u64 [a2 + 1720] = 0\n  8866: a1 = s1 + 0x7ff\n  8870: a1 = a1 + 0x7e1\n  8874: u64 [a2 + 1712] = 0\n  8878: u64 [s1 + 0x120] = a0\n  8882: ra = 300, jump @4\n      : @332 [@dyn 150] (gas: 10)\n  8888: a5 = s1 + 0x100\n  8892: a0 = u64 [a5 + 0x98]\n  8896: a4 = 0x100000000\n  8906: a1 = 0xffffff20\n  8916: a1 = a0 <u a1\n  8919: a3 = u64 [a5 + 0x90]\n  8923: a1 = 0 if a3 != 0\n  8925: a3 = u64 [a5 + 0x88]\n  8929: a1 = 0 if a3 != 0\n  8931: jump @334 if a1 != 0\n      : @333 (gas: 1)\n  8934: jump @993\n      : @334 (gas: 12)\n  8937: i32 a0 = a0 + 0xe0\n  8941: a3 = s1 + 0x7ff\n  8945: a3 = a3 + 0x131\n  8949: u64 [a3 + 1704] = 0\n  8953: u64 [a3 + 1696] = 0\n  8957: u64 [a3 + 1688] = 0\n  8961: a1 = s1 + 0x7ff\n  8965: a1 = a1 + 0x7c1\n  8969: u64 [a3 + 1680] = 0x1\n  8974: u64 [s1 + 0x108] = a0\n  8978: u64 [s1 + 0x110] = a4\n  8982: ra = 302, jump @4\n      : @335 [@dyn 151] (gas: 10)\n  8988: a3 = s1 + 0x100\n  8992: a2 = u64 [a3 + 0x98]\n  8996: a0 = u64 [a3 + 0x10]\n  8999: a0 = a0 + 0xffffffffffffff00\n  9003: a0 = a2 <u a0\n  9006: a1 = u64 [a3 + 0x90]\n  9010: a0 = 0 if a1 != 0\n  9012: a1 = u64 [a3 + 0x88]\n  9016: a0 = 0 if a1 != 0\n  9018: jump @337 if a0 != 0\n      : @336 (gas: 1)\n  9021: jump @993\n      : @337 (gas: 11)\n  9024: i32 a0 = a2 + 0x100\n  9028: a3 = s1 + 0x7ff\n  9032: a3 = a3 + 0x131\n  9036: u64 [a3 + 1672] = 0\n  9040: u64 [a3 + 1664] = 0\n  9044: u64 [a3 + 1656] = 0\n  9048: a1 = s1 + 0x7ff\n  9052: a1 = a1 + 0x7a1\n  9056: u64 [a3 + 1648] = 0\n  9060: u64 [s1 + 0x110] = a0\n  9064: ra = 304, jump @4\n      : @338 [@dyn 152] (gas: 9)\n  9070: a0 = 0xfffffee0\n  9080: a2 = s1 + 0x100\n  9084: a1 = u64 [a2 + 0x98]\n  9088: a0 = a1 <u a0\n  9091: a1 = u64 [a2 + 0x90]\n  9095: a0 = 0 if a1 != 0\n  9097: a1 = u64 [a2 + 0x88]\n  9101: a0 = 0 if a1 != 0\n  9103: jump @340 if a0 != 0\n      : @339 (gas: 1)\n  9106: jump @993\n      : @340 (gas: 13)\n  9109: a0 = u64 [s1 + 0x198]\n  9113: i32 a2 = a0 + 0x120\n  9117: a0 = s1 + 0x7ff\n  9121: a0 = a0 + 0x131\n  9125: u64 [a0 + 1640] = 0\n  9129: u64 [a0 + 1632] = 0\n  9133: u64 [a0 + 1624] = 0\n  9137: a1 = s1 + 0x7ff\n  9141: a1 = a1 + 0x781\n  9145: u64 [a0 + 1616] = 0\n  9149: u64 [s1 + 0x100] = a2\n  9153: a0 = a2\n  9155: ra = 306, jump @4\n      : @341 [@dyn 153] (gas: 15)\n  9161: a0 = u64 [s1 + 0x168]\n  9165: a2 = s1 + 0x7ff\n  9169: a2 = a2 + 0x131\n  9173: a3 = a2 + 0x600\n  9177: u64 [a3 + 0x48] = a0\n  9180: a0 = u64 [s1 + 0x170]\n  9184: u64 [a3 + 0x40] = a0\n  9187: a0 = u64 [s1 + 0x160]\n  9191: u64 [a3 + 0x38] = a0\n  9194: a1 = s1 + 0x7ff\n  9198: a1 = a1 + 0x761\n  9202: a0 = u64 [s1 + 0x178]\n  9206: u64 [a3 + 0x30] = a0\n  9209: a0 = 0\n  9211: ra = 308, jump @4\n      : @342 [@dyn 154] (gas: 11)\n  9217: a1 = s1 + 0x7ff\n  9221: a1 = a1 + 0x131\n  9225: u64 [a1 + 1576] = 0\n  9229: u64 [a1 + 1568] = 0\n  9233: u64 [a1 + 1552] = 0x2\n  9238: a2 = a1\n  9240: a0 = 0x20\n  9243: a1 = s1 + 0x7ff\n  9247: a1 = a1 + 0x741\n  9251: u64 [a2 + 1560] = 0\n  9255: ra = 310, jump @4\n      : @343 [@dyn 155] (gas: 8)\n  9261: a0 = sp + 0xffffffffffffffe0\n  9264: a0 = a0 & 0xffffffffffffffe0\n  9267: u64 [s1 + 0x168] = a0\n  9271: sp = a0\n  9273: a0 = 0x20194\n  9278: u64 [s1 + 0xf8] = a0\n  9282: a0 = i32 [0x20194]\n  9287: jump @345 if a0 >u 63\n      : @344 (gas: 3)\n  9291: a1 = u64 [s1 + 0xf8]\n  9295: u32 [a1 + 0] = 0x40\n  9298: fallthrough\n      : @345 (gas: 32)\n  9299: a0 = sp + 0xffffffffffffffe0\n  9302: a2 = a0 & 0xffffffffffffffe0\n  9305: u64 [s1 + 0x190] = a2\n  9309: sp = a2\n  9311: a0 = 0x201a0\n  9316: i32 a0 = a0 + 0\n  9318: i32 a2 = a2 + 0\n  9320: a1 = 0x40\n  9323: u64 [s1 + 0xf0] = a0\n  9327: ecalli 7 // 'hash_keccak_256'\n  9329: a3 = u64 [s1 + 0x190]\n  9333: a0 = u64 [a3 + 0x18]\n  9336: a1 = u64 [a3 + 0x10]\n  9339: a2 = u64 [a3 + 0x8]\n  9342: a3 = u64 [a3]\n  9344: a4 = reverse a0\n  9346: u64 [s1 + 0x170] = a4\n  9350: a1 = reverse a1\n  9352: u64 [s1 + 0x178] = a1\n  9356: a2 = reverse a2\n  9358: u64 [s1 + 0x190] = a2\n  9362: a0 = reverse a3\n  9364: u64 [s1 + 0x188] = a0\n  9368: a3 = u64 [s1 + 0x168]\n  9372: u64 [a3 + 0x18] = a0\n  9375: u64 [a3 + 0x10] = a2\n  9378: u64 [a3 + 0x8] = a1\n  9381: u64 [a3] = a4\n  9383: a0 = s1 + 0x7ff\n  9387: a0 = a0 + 0x721\n  9391: a1 = u64 [s1 + 0x198]\n  9395: ra = 312, jump @2\n      : @346 [@dyn 156] (gas: 15)\n  9401: a3 = s1 + 0x7ff\n  9405: a3 = a3 + 0x131\n  9409: a0 = u64 [a3 + 0x608]\n  9413: a1 = u64 [a3 + 0x600]\n  9417: a2 = u64 [a3 + 0x5f8]\n  9421: a3 = u64 [a3 + 0x5f0]\n  9425: a4 = s1 + 0x3938\n  9429: a5 = a4 + 0x200\n  9433: u64 [a5 + 0x60] = a0\n  9436: u64 [a5 + 0x58] = a1\n  9439: u64 [a5 + 0x50] = a2\n  9442: u64 [a5 + 0x48] = a3\n  9445: a1 = s1 + 0x3b80\n  9449: a0 = u64 [s1 + 0x168]\n  9453: ra = 314, jump @9\n      : @347 [@dyn 157] (gas: 4)\n  9459: a0 = s1 + 0x7ff\n  9463: a0 = a0 + 0x701\n  9467: a1 = u64 [s1 + 0x138]\n  9471: ra = 316, jump @2\n      : @348 [@dyn 158] (gas: 31)\n  9477: a0 = s1 + 0x7ff\n  9481: a0 = a0 + 0x131\n  9485: t0 = u64 [a0 + 0x5d0]\n  9489: t1 = u64 [a0 + 0x5d8]\n  9493: t2 = u64 [a0 + 0x5e0]\n  9497: a3 = u64 [a0 + 0x5e8]\n  9501: a0 = u64 [s1 + 0x170]\n  9505: a0 = a0 + 0x1\n  9508: a5 = a0 <u 0x1\n  9511: a1 = u64 [s1 + 0x178]\n  9515: a5 = a5 + a1\n  9518: a4 = a0 | a5\n  9521: a4 = a4 <u 0x1\n  9524: a1 = u64 [s1 + 0x190]\n  9528: a4 = a4 + a1\n  9531: a1 = a4 <u a1\n  9534: a2 = u64 [s1 + 0x188]\n  9538: a1 = a1 + a2\n  9541: a2 = s1 + 0x3938\n  9545: u64 [a2 + 0x280] = a1\n  9549: a1 = a2 + 0x200\n  9553: u64 [a1 + 0x78] = a4\n  9556: u64 [a1 + 0x70] = a5\n  9559: u64 [a1 + 0x68] = a0\n  9562: u64 [a1 + 0xa0] = a3\n  9566: u64 [a2 + 0x298] = t2\n  9570: u64 [a2 + 0x290] = t1\n  9574: u64 [a2 + 0x288] = t0\n  9578: a0 = s1 + 0x3ba0\n  9582: a1 = s1 + 0x3bc0\n  9586: ra = 318, jump @9\n      : @349 [@dyn 159] (gas: 4)\n  9592: a0 = s1 + 0x7ff\n  9596: a0 = a0 + 0x6e1\n  9600: a1 = u64 [s1 + 0x180]\n  9604: ra = 320, jump @2\n      : @350 [@dyn 160] (gas: 31)\n  9610: a0 = s1 + 0x7ff\n  9614: a0 = a0 + 0x131\n  9618: t0 = u64 [a0 + 0x5b0]\n  9622: t1 = u64 [a0 + 0x5b8]\n  9626: t2 = u64 [a0 + 0x5c0]\n  9630: a3 = u64 [a0 + 0x5c8]\n  9634: a0 = u64 [s1 + 0x170]\n  9638: a4 = a0 + 0x2\n  9641: a5 = a4 <u a0\n  9644: a1 = u64 [s1 + 0x178]\n  9648: a0 = a1 + a5\n  9651: a1 = a0 <u a1\n  9654: a1 = a5 if a5 == 0\n  9657: a2 = u64 [s1 + 0x190]\n  9661: a1 = a1 + a2\n  9664: a5 = a1 <u a2\n  9667: a2 = u64 [s1 + 0x188]\n  9671: a5 = a5 + a2\n  9674: a2 = s1 + 0x3938\n  9678: u64 [a2 + 0x2c0] = a5\n  9682: a5 = a2 + 0x200\n  9686: u64 [a5 + 0xb8] = a1\n  9690: u64 [a5 + 0xb0] = a0\n  9694: u64 [a5 + 0xa8] = a4\n  9698: u64 [a5 + 0xe0] = a3\n  9702: u64 [a2 + 0x2d8] = t2\n  9706: u64 [a2 + 0x2d0] = t1\n  9710: u64 [a2 + 0x2c8] = t0\n  9714: a0 = s1 + 0x3be0\n  9718: a1 = s1 + 0x3c00\n  9722: ra = 322, jump @9\n      : @351 [@dyn 161] (gas: 4)\n  9728: a0 = s1 + 0x7ff\n  9732: a0 = a0 + 0x6c1\n  9736: a1 = u64 [s1 + 0x128]\n  9740: ra = 324, jump @2\n      : @352 [@dyn 162] (gas: 31)\n  9746: a0 = s1 + 0x7ff\n  9750: a0 = a0 + 0x131\n  9754: t0 = u64 [a0 + 0x590]\n  9758: t1 = u64 [a0 + 0x598]\n  9762: t2 = u64 [a0 + 0x5a0]\n  9766: a3 = u64 [a0 + 0x5a8]\n  9770: a0 = u64 [s1 + 0x170]\n  9774: a4 = a0 + 0x3\n  9777: a5 = a4 <u a0\n  9780: a1 = u64 [s1 + 0x178]\n  9784: a0 = a1 + a5\n  9787: a1 = a0 <u a1\n  9790: a1 = a5 if a5 == 0\n  9793: a2 = u64 [s1 + 0x190]\n  9797: a1 = a1 + a2\n  9800: a5 = a1 <u a2\n  9803: a2 = u64 [s1 + 0x188]\n  9807: a5 = a5 + a2\n  9810: a2 = s1 + 0x3938\n  9814: u64 [a2 + 0x300] = a5\n  9818: a5 = a2 + 0x200\n  9822: u64 [a5 + 0xf8] = a1\n  9826: u64 [a5 + 0xf0] = a0\n  9830: u64 [a5 + 0xe8] = a4\n  9834: u64 [a2 + 0x320] = a3\n  9838: u64 [a2 + 0x318] = t2\n  9842: u64 [a2 + 0x310] = t1\n  9846: u64 [a2 + 0x308] = t0\n  9850: a0 = s1 + 0x3c20\n  9854: a1 = s1 + 0x3c40\n  9858: ra = 326, jump @9\n      : @353 [@dyn 163] (gas: 4)\n  9864: a0 = s1 + 0x7ff\n  9868: a0 = a0 + 0x6a1\n  9872: a1 = u64 [s1 + 0x130]\n  9876: ra = 328, jump @2\n      : @354 [@dyn 164] (gas: 31)\n  9882: a0 = s1 + 0x7ff\n  9886: a0 = a0 + 0x131\n  9890: t0 = u64 [a0 + 0x570]\n  9894: t1 = u64 [a0 + 0x578]\n  9898: t2 = u64 [a0 + 0x580]\n  9902: a3 = u64 [a0 + 0x588]\n  9906: a0 = u64 [s1 + 0x170]\n  9910: a4 = a0 + 0x4\n  9913: a5 = a4 <u a0\n  9916: a1 = u64 [s1 + 0x178]\n  9920: a0 = a1 + a5\n  9923: a1 = a0 <u a1\n  9926: a1 = a5 if a5 == 0\n  9929: a2 = u64 [s1 + 0x190]\n  9933: a1 = a1 + a2\n  9936: a5 = a1 <u a2\n  9939: a2 = u64 [s1 + 0x188]\n  9943: a5 = a5 + a2\n  9946: a2 = s1 + 0x3938\n  9950: u64 [a2 + 0x340] = a5\n  9954: a5 = a2 + 0x300\n  9958: u64 [a5 + 0x38] = a1\n  9961: u64 [a5 + 0x30] = a0\n  9964: u64 [a5 + 0x28] = a4\n  9967: u64 [a5 + 0x60] = a3\n  9970: u64 [a2 + 0x358] = t2\n  9974: u64 [a2 + 0x350] = t1\n  9978: u64 [a2 + 0x348] = t0\n  9982: a0 = s1 + 0x3c60\n  9986: a1 = s1 + 0x3c80\n  9990: ra = 330, jump @9\n      : @355 [@dyn 165] (gas: 4)\n  9996: a0 = s1 + 0x7ff\n 10000: a0 = a0 + 0x681\n 10004: a1 = u64 [s1 + 0x118]\n 10008: ra = 332, jump @2\n      : @356 [@dyn 166] (gas: 31)\n 10014: a0 = s1 + 0x7ff\n 10018: a0 = a0 + 0x131\n 10022: t0 = u64 [a0 + 0x550]\n 10026: t1 = u64 [a0 + 0x558]\n 10030: t2 = u64 [a0 + 0x560]\n 10034: a3 = u64 [a0 + 0x568]\n 10038: a0 = u64 [s1 + 0x170]\n 10042: a4 = a0 + 0x5\n 10045: a5 = a4 <u a0\n 10048: a1 = u64 [s1 + 0x178]\n 10052: a0 = a1 + a5\n 10055: a1 = a0 <u a1\n 10058: a1 = a5 if a5 == 0\n 10061: a2 = u64 [s1 + 0x190]\n 10065: a1 = a1 + a2\n 10068: a5 = a1 <u a2\n 10071: a2 = u64 [s1 + 0x188]\n 10075: a5 = a5 + a2\n 10078: a2 = s1 + 0x3938\n 10082: u64 [a2 + 0x380] = a5\n 10086: a5 = a2 + 0x300\n 10090: u64 [a5 + 0x78] = a1\n 10093: u64 [a5 + 0x70] = a0\n 10096: u64 [a5 + 0x68] = a4\n 10099: u64 [a5 + 0xa0] = a3\n 10103: u64 [a2 + 0x398] = t2\n 10107: u64 [a2 + 0x390] = t1\n 10111: u64 [a2 + 0x388] = t0\n 10115: a0 = s1 + 0x3ca0\n 10119: a1 = s1 + 0x3cc0\n 10123: ra = 334, jump @9\n      : @357 [@dyn 167] (gas: 6)\n 10129: a0 = sp + 0xffffffffffffffe0\n 10132: a5 = a0 & 0xffffffffffffffe0\n 10135: sp = a5\n 10137: a1 = u64 [s1 + 0x170]\n 10141: a0 = a1 + 0x6\n 10144: t0 = 336, jump @1611\n      : @358 [@dyn 168] (gas: 11)\n 10151: a4 = u64 [s1 + 0x188]\n 10155: a1 = a1 + a4\n 10158: u64 [s1 + 0x198] = a5\n 10162: u64 [a5 + 0x18] = a1\n 10165: u64 [a5 + 0x10] = a3\n 10168: u64 [a5 + 0x8] = a2\n 10171: u64 [a5] = a0\n 10173: a0 = s1 + 0x7ff\n 10177: a0 = a0 + 0x661\n 10181: a1 = u64 [s1 + 0x120]\n 10185: ra = 338, jump @2\n      : @359 [@dyn 169] (gas: 12)\n 10191: a0 = s1 + 0x7ff\n 10195: a0 = a0 + 0x131\n 10199: a1 = u64 [a0 + 0x530]\n 10203: u64 [s1 + 0x180] = a1\n 10207: a1 = u64 [a0 + 0x538]\n 10211: u64 [s1 + 0x168] = a1\n 10215: a1 = u32 [a0 + 0x540]\n 10219: u64 [s1 + 0x160] = a1\n 10223: a0 = s1 + 0x7ff\n 10227: a0 = a0 + 0x641\n 10231: a1 = u64 [s1 + 0x198]\n 10235: ra = 340, jump @6\n      : @360 [@dyn 170] (gas: 18)\n 10241: a1 = s1 + 0x7ff\n 10245: a1 = a1 + 0x131\n 10249: a0 = u32 [a1 + 0x524]\n 10253: a0 = a0 << 0x20\n 10256: a1 = u64 [a1 + 0x528]\n 10260: a2 = u64 [s1 + 0x160]\n 10264: a0 = a0 | a2\n 10267: a2 = s1 + 0x3938\n 10271: a3 = u64 [s1 + 0x168]\n 10275: a4 = a2 + 0x300\n 10279: u64 [a4 + 0xb0] = a3\n 10283: a3 = u64 [s1 + 0x180]\n 10287: u64 [a4 + 0xa8] = a3\n 10291: u64 [a4 + 0xc0] = a1\n 10295: u64 [a4 + 0xb8] = a0\n 10299: a1 = s1 + 0x3ce0\n 10303: a0 = u64 [s1 + 0x198]\n 10307: ra = 342, jump @9\n      : @361 [@dyn 171] (gas: 4)\n 10313: a0 = s1 + 0x7ff\n 10317: a0 = a0 + 0x621\n 10321: a1 = u64 [s1 + 0x108]\n 10325: ra = 344, jump @2\n      : @362 [@dyn 172] (gas: 18)\n 10331: a2 = s1 + 0x7ff\n 10335: a2 = a2 + 0x131\n 10339: a0 = u64 [a2 + 0x508]\n 10343: a1 = u64 [a2 + 0x500]\n 10347: a5 = u64 [a2 + 0x4f8]\n 10351: a4 = u64 [a2 + 0x4f0]\n 10355: a2 = a0 >u 0\n 10357: a3 = a1 >u 0\n 10359: a3 = a2 if a0 != 0\n 10362: a2 = a5 >u 0\n 10364: u64 [s1 + 0x180] = a4\n 10368: a4 = a4 <u 0x4\n 10371: a4 = a4 ^ 0x1\n 10374: u64 [s1 + 0x168] = a5\n 10378: a4 = a2 if a5 != 0\n 10381: a0 = a0 | a1\n 10384: a4 = a3 if a0 != 0\n 10387: jump @364 if a4 == 0\n      : @363 (gas: 1)\n 10390: jump @1224\n      : @364 (gas: 4)\n 10393: a0 = s1 + 0x7ff\n 10397: a0 = a0 + 0x601\n 10401: a1 = u64 [s1 + 0x198]\n 10405: ra = 346, jump @6\n      : @365 [@dyn 173] (gas: 26)\n 10411: a0 = s1 + 0x7ff\n 10415: a0 = a0 + 0x131\n 10419: t0 = u64 [a0 + 0x4d0]\n 10423: a4 = a0 + 0x400\n 10427: a1 = u64 [a4 + 0xd8]\n 10431: a2 = u64 [a4 + 0xe8]\n 10435: a3 = u64 [a4 + 0xe0]\n 10439: a0 = u64 [s1 + 0x180]\n 10443: a4 = a0 >> 0x20\n 10446: a5 = u64 [s1 + 0x168]\n 10450: a5 = a5 << 0x20\n 10453: a4 = a4 | a5\n 10456: a5 = a0 << 0x20\n 10459: a0 = 0xffffff00ffffffff\n 10469: a0 = a0 & a3\n 10472: a0 = a0 | a5\n 10475: a2 = a2 | a4\n 10478: a3 = s1 + 0x3938\n 10482: a4 = a3 + 0x300\n 10486: u64 [a4 + 0xd0] = a1\n 10490: u64 [a3 + 0x3c8] = t0\n 10494: u64 [a4 + 0xe0] = a2\n 10498: u64 [a4 + 0xd8] = a0\n 10502: a1 = s1 + 0x3d00\n 10506: a0 = u64 [s1 + 0x198]\n 10510: ra = 348, jump @9\n      : @366 [@dyn 174] (gas: 4)\n 10516: a0 = s1 + 0x7ff\n 10520: a0 = a0 + 0x5e1\n 10524: a1 = u64 [s1 + 0x110]\n 10528: ra = 350, jump @2\n      : @367 [@dyn 175] (gas: 31)\n 10534: a0 = s1 + 0x7ff\n 10538: a0 = a0 + 0x131\n 10542: t0 = u64 [a0 + 0x4b0]\n 10546: t1 = u64 [a0 + 0x4b8]\n 10550: t2 = u64 [a0 + 0x4c0]\n 10554: a3 = u64 [a0 + 0x4c8]\n 10558: a0 = u64 [s1 + 0x170]\n 10562: a4 = a0 + 0x7\n 10565: a5 = a4 <u a0\n 10568: a1 = u64 [s1 + 0x178]\n 10572: a0 = a1 + a5\n 10575: a1 = a0 <u a1\n 10578: a1 = a5 if a5 == 0\n 10581: a2 = u64 [s1 + 0x190]\n 10585: a1 = a1 + a2\n 10588: a5 = a1 <u a2\n 10591: a2 = u64 [s1 + 0x188]\n 10595: a5 = a5 + a2\n 10598: a2 = s1 + 0x3938\n 10602: u64 [a2 + 0x400] = a5\n 10606: a5 = a2 + 0x300\n 10610: u64 [a5 + 0xf8] = a1\n 10614: u64 [a5 + 0xf0] = a0\n 10618: u64 [a5 + 0xe8] = a4\n 10622: u64 [a2 + 0x420] = a3\n 10626: u64 [a2 + 0x418] = t2\n 10630: u64 [a2 + 0x410] = t1\n 10634: u64 [a2 + 0x408] = t0\n 10638: a0 = s1 + 0x3d20\n 10642: a1 = s1 + 0x3d40\n 10646: ra = 352, jump @9\n      : @368 [@dyn 176] (gas: 7)\n 10652: a0 = sp + 0xffffffffffffffe0\n 10655: a4 = a0 & 0xffffffffffffffe0\n 10658: u64 [s1 + 0x198] = a4\n 10662: sp = a4\n 10664: a1 = u64 [s1 + 0x170]\n 10668: a0 = a1 + 0x8\n 10671: t0 = 354, jump @1611\n      : @369 [@dyn 177] (gas: 10)\n 10678: a5 = u64 [s1 + 0x188]\n 10682: a1 = a1 + a5\n 10685: u64 [a4 + 0x18] = a1\n 10688: u64 [a4 + 0x10] = a3\n 10691: u64 [a4 + 0x8] = a2\n 10694: u64 [a4] = a0\n 10696: a0 = s1 + 0x7ff\n 10700: a0 = a0 + 0x5c1\n 10704: a1 = u64 [s1 + 0x100]\n 10708: ra = 356, jump @2\n      : @370 [@dyn 178] (gas: 16)\n 10714: a3 = s1 + 0x7ff\n 10718: a3 = a3 + 0x131\n 10722: a4 = a3 + 0x400\n 10726: a0 = u64 [a4 + 0xa0]\n 10730: a1 = u64 [a4 + 0xa8]\n 10734: a2 = u64 [a4 + 0x98]\n 10738: a3 = u64 [a4 + 0x90]\n 10742: a1 = a1 | a2\n 10745: a0 = a0 | a3\n 10748: a0 = a0 | a1\n 10751: a0 = a0 >u 0\n 10753: u64 [s1 + 0x190] = a0\n 10757: a0 = s1 + 0x7ff\n 10761: a0 = a0 + 0x5a1\n 10765: a1 = u64 [s1 + 0x198]\n 10769: ra = 358, jump @6\n      : @371 [@dyn 179] (gas: 19)\n 10775: a3 = s1 + 0x7ff\n 10779: a3 = a3 + 0x131\n 10783: a4 = a3 + 0x400\n 10787: a0 = u64 [a4 + 0x70]\n 10790: a1 = u64 [a4 + 0x78]\n 10793: a2 = u64 [a4 + 0x88]\n 10797: a3 = u64 [a4 + 0x80]\n 10801: a0 = a0 & 0xffffffffffffff00\n 10805: a4 = u64 [s1 + 0x190]\n 10809: a0 = a0 | a4\n 10812: a4 = s1 + 0x3938\n 10816: a5 = a4 + 0x400\n 10820: u64 [a5 + 0x40] = a2\n 10823: u64 [a5 + 0x38] = a3\n 10826: u64 [a5 + 0x30] = a1\n 10829: u64 [a5 + 0x28] = a0\n 10832: a1 = s1 + 0x3d60\n 10836: a0 = u64 [s1 + 0x198]\n 10840: ra = 360, jump @9\n      : @372 [@dyn 180] (gas: 9)\n 10846: a1 = s1 + 0x3938\n 10850: u64 [a1 + 1120] = 0\n 10854: u64 [a1 + 1112] = 0\n 10858: u64 [a1 + 1104] = 0\n 10862: u64 [a1 + 1096] = 0x1\n 10867: a0 = s1 + 0x7ff\n 10871: a0 = a0 + 0x581\n 10875: a1 = s1 + 0x3d80\n 10879: ra = 362, jump @6\n      : @373 [@dyn 181] (gas: 15)\n 10885: a1 = s1 + 0x7ff\n 10889: a1 = a1 + 0x131\n 10893: a2 = a1 + 0x400\n 10897: a0 = u64 [a2 + 0x68]\n 10900: u64 [s1 + 0x178] = a0\n 10904: a0 = u64 [a2 + 0x60]\n 10907: u64 [s1 + 0x170] = a0\n 10911: a0 = u64 [a2 + 0x58]\n 10914: u64 [s1 + 0x168] = a0\n 10918: a0 = u64 [a2 + 0x50]\n 10921: u64 [s1 + 0x160] = a0\n 10925: a0 = s1 + 0x7ff\n 10929: a0 = a0 + 0x561\n 10933: a1 = 0x40\n 10936: ra = 364, jump @2\n      : @374 [@dyn 182] (gas: 17)\n 10942: a0 = s1 + 0x7ff\n 10946: a0 = a0 + 0x131\n 10950: a2 = a0 + 0x400\n 10954: a1 = u64 [a2 + 0x48]\n 10957: u64 [s1 + 0x190] = a1\n 10961: a1 = u64 [a2 + 0x40]\n 10964: u64 [s1 + 0x188] = a1\n 10968: a1 = u64 [a2 + 0x38]\n 10971: u64 [s1 + 0x180] = a1\n 10975: a1 = u64 [a2 + 0x30]\n 10978: u64 [s1 + 0x198] = a1\n 10982: a0 = s1 + 0x4000\n 10986: i32 a0 = a0 + 0xfffffffffffffda0\n 10990: ra = 0x16e\n 10994: ecalli 8 // 'now'\n 10996: t0 = 0x170\n 11000: jump @1630\n      : @375 [@dyn 183] (gas: 1)\n 11004: t0 = 368, jump @1630\n      : @376 [@dyn 184] (gas: 46)\n 11011: a0 = u64 [a4 + 0x68]\n 11014: a1 = u64 [a4 + 0x70]\n 11017: a2 = u64 [a4 + 0x78]\n 11020: a3 = u64 [a4 + 0x80]\n 11024: a4 = u64 [s1 + 0x140]\n 11028: a5 = s1 + 0x7ff\n 11032: a5 = a5 + 0x131\n 11036: u64 [a5 + 0x3a8] = a4\n 11040: a4 = u64 [s1 + 0x148]\n 11044: u64 [a5 + 0x3a0] = a4\n 11048: a4 = u64 [s1 + 0x150]\n 11052: u64 [a5 + 0x398] = a4\n 11056: a4 = u64 [s1 + 0x158]\n 11060: u64 [a5 + 0x390] = a4\n 11064: a4 = u64 [s1 + 0x1a0]\n 11068: u64 [a5 + 0x3c8] = a4\n 11072: a4 = u64 [s1 + 0x1a8]\n 11076: u64 [a5 + 0x3c0] = a4\n 11080: a4 = u64 [s1 + 0x1b0]\n 11084: u64 [a5 + 0x3b8] = a4\n 11088: a4 = u64 [s1 + 0x1b8]\n 11092: u64 [a5 + 0x3b0] = a4\n 11096: a4 = a5 + 0x300\n 11100: u64 [a4 + 0xe8] = a3\n 11104: u64 [a4 + 0xe0] = a2\n 11108: u64 [a4 + 0xd8] = a1\n 11112: u64 [a4 + 0xd0] = a0\n 11116: a0 = u64 [s1 + 0x190]\n 11120: u64 [a5 + 0x408] = a0\n 11124: a0 = u64 [s1 + 0x188]\n 11128: u64 [a5 + 0x400] = a0\n 11132: a0 = u64 [s1 + 0x180]\n 11136: u64 [a4 + 0xf8] = a0\n 11140: a0 = s1 + 0x7ff\n 11144: a0 = a0 + 0x541\n 11148: a1 = s1 + 0x7ff\n 11152: a1 = a1 + 0x521\n 11156: a2 = s1 + 0x7ff\n 11160: a2 = a2 + 0x501\n 11164: a3 = s1 + 0x7ff\n 11168: a3 = a3 + 0x4e1\n 11172: a4 = s1 + 0x7ff\n 11176: a4 = a4 + 0x4c1\n 11180: t0 = u64 [s1 + 0x198]\n 11184: u64 [a5 + 0x3f0] = t0\n 11188: ra = 370, jump @1300\n      : @377 [@dyn 185] (gas: 14)\n 11194: a4 = s1 + 0x100\n 11198: a1 = u64 [a4 + 0x80]\n 11202: a2 = a1\n 11204: a0 = u64 [a4 + 0x90]\n 11208: a0 = a0 | a1\n 11211: a3 = u64 [a4 + 0x88]\n 11215: a1 = u64 [a4 + 0x98]\n 11219: a1 = a1 | a3\n 11222: a1 = a1 | a0\n 11225: a1 = a1 >> 0x20\n 11228: a0 = a0 | a3\n 11231: a0 = a0 << 0x20\n 11234: a0 = a0 | a1\n 11237: jump @379 if a0 == 0\n      : @378 (gas: 1)\n 11240: jump @993\n      : @379 (gas: 36)\n 11243: t0 = a3\n 11245: a1 = s1 + 0x7ff\n 11249: a1 = a1 + 0x131\n 11253: a4 = a1 + 0x400\n 11257: a0 = u64 [a4 + 0x18]\n 11260: a3 = u64 [a4 + 0x28]\n 11263: u64 [s1 + 0x1b8] = a3\n 11267: t1 = u64 [a1 + 0x410]\n 11271: a3 = u64 [a4 + 0x20]\n 11274: ra = a0 ^ a2\n 11277: a5 = a0 <u a2\n 11280: t2 = u64 [s1 + 0x198]\n 11284: a1 = t1 <u t2\n 11287: a5 = a1 if ra == 0\n 11290: a4 = a3 - t0\n 11293: ra = a4 - a5\n 11296: a4 = a4 <u a5\n 11299: u64 [s1 + 0x1b0] = a4\n 11303: a3 = a3 <u t0\n 11306: a5 = u64 [s1 + 0x190]\n 11310: a4 = u64 [s1 + 0x1b8]\n 11314: a5 = a4 - a5\n 11317: a5 = a5 - a3\n 11320: a3 = u64 [s1 + 0x1b0]\n 11324: a5 = a5 - a3\n 11327: a0 = a0 - a2\n 11330: a0 = a0 - a1\n 11333: a1 = t1 - t2\n 11336: a0 = a0 | a5\n 11339: a3 = a1 | ra\n 11342: a3 = a3 | a0\n 11345: a0 = a0 | ra\n 11348: a3 = a3 >> 0x20\n 11351: a0 = a0 << 0x20\n 11354: a0 = a0 | a3\n 11357: jump @381 if a0 == 0\n      : @380 (gas: 1)\n 11360: jump @993\n      : @381 (gas: 26)\n 11363: a0 = u64 [0x200f8]\n 11368: a2 = u64 [0x20100]\n 11373: a4 = s1 + 0x7ff\n 11377: a4 = a4 + 0x131\n 11381: a5 = a4 + 0x300\n 11385: u64 [a5 + 0x88] = a0\n 11389: u64 [a5 + 0x80] = a2\n 11393: a0 = u64 [0x20108]\n 11398: a2 = u64 [0x20110]\n 11403: a4 = s1 + 0x100\n 11407: a3 = u64 [a4 + 0x60]\n 11410: u64 [a5 + 0x50] = a3\n 11413: a3 = u64 [a4 + 0x68]\n 11416: u64 [a5 + 0x58] = a3\n 11419: u64 [a5 + 0x78] = a0\n 11422: u64 [a5 + 0x70] = a2\n 11425: a0 = u64 [a4 + 0x70]\n 11428: u64 [a5 + 0x60] = a0\n 11431: a2 = s1 + 0x7ff\n 11435: a2 = a2 + 0x4a1\n 11439: a3 = s1 + 0x7ff\n 11443: a3 = a3 + 0x481\n 11447: a0 = u64 [a4 + 0x78]\n 11450: u64 [a5 + 0x68] = a0\n 11453: a0 = u64 [a4 + 0x98]\n 11457: ra = 372, jump @10\n      : @382 [@dyn 186] (gas: 4)\n 11463: a0 = s1 + 0x7ff\n 11467: a0 = a0 + 0x461\n 11471: a1 = 0x40\n 11474: ra = 374, jump @2\n      : @383 [@dyn 187] (gas: 8)\n 11480: a3 = s1 + 0x7ff\n 11484: a3 = a3 + 0x131\n 11488: a5 = a3 + 0x300\n 11492: a0 = u64 [a5 + 0x48]\n 11495: a1 = u64 [a5 + 0x40]\n 11498: a2 = u64 [a5 + 0x38]\n 11501: a4 = u64 [a5 + 0x30]\n 11504: t0 = 376, jump @1577\n      : @384 [@dyn 188] (gas: 1)\n 11511: jump @386 if a0 == 0\n      : @385 (gas: 1)\n 11514: jump @993\n      : @386 (gas: 18)\n 11517: a3 = a4\n 11519: a0 = s1 + 0x7ff\n 11523: a0 = a0 + 0x131\n 11527: a5 = s1 + 0x100\n 11531: a1 = u64 [a5 + 0x60]\n 11534: u64 [a0 + 0x310] = a1\n 11538: a1 = u64 [a5 + 0x68]\n 11541: u64 [a0 + 0x318] = a1\n 11545: a1 = u64 [a5 + 0x70]\n 11548: u64 [a0 + 0x320] = a1\n 11552: a1 = s1 + 0x7ff\n 11556: a1 = a1 + 0x441\n 11560: a2 = u64 [a5 + 0x78]\n 11563: u64 [a0 + 0x328] = a2\n 11567: a0 = a4\n 11569: u64 [a5 + 0xb8] = a3\n 11573: ra = 0x2ca\n 11577: jump @4\n      : @387 (gas: 1)\n 11580: t0 = 378, jump @1633\n      : @388 [@dyn 189] (gas: 4)\n 11587: i32 a0 = a0 + 0x260\n 11591: ra = 0x17c\n 11595: ecalli 15 // 'value_transferred'\n 11597: fallthrough\n      : @389 [@dyn 190] (gas: 3)\n 11598: a3 = s1 + 0x4138\n 11602: a4 = a3 + 0x100\n 11606: t0 = 382, jump @1608\n      : @390 [@dyn 191] (gas: 1)\n 11613: jump @392 if a0 == 0\n      : @391 (gas: 1)\n 11616: jump @1158\n      : @392 (gas: 1)\n 11619: t0 = 384, jump @1625\n      : @393 [@dyn 192] (gas: 1)\n 11626: jump @395 if a1 <u a0\n      : @394 (gas: 1)\n 11629: jump @1159\n      : @395 (gas: 21)\n 11632: a0 = s1 + 0x4000\n 11636: i32 a0 = a0 + 0x280\n 11640: a1 = 0x4\n 11643: ecalli 2 // 'call_data_load'\n 11645: a0 = s1 + 0x4138\n 11649: a2 = a0 + 0x100\n 11653: a1 = u64 [a2 + 0x60]\n 11656: u64 [s1 + 0xd0] = a1\n 11660: a1 = u64 [a2 + 0x58]\n 11663: u64 [s1 + 0xd8] = a1\n 11667: a1 = u64 [a2 + 0x50]\n 11670: u64 [s1 + 0xe0] = a1\n 11674: a1 = u64 [a2 + 0x48]\n 11677: u64 [s1 + 0xe8] = a1\n 11681: u64 [a0 + 384] = 0\n 11685: u64 [a0 + 376] = 0\n 11689: u64 [a0 + 368] = 0\n 11693: u64 [a0 + 360] = 0\n 11697: a0 = s1 + 0x2740\n 11701: a1 = s1 + 0x42a0\n 11705: ra = 386, jump @6\n      : @396 [@dyn 193] (gas: 14)\n 11711: a0 = s1 + 0x2138\n 11715: a1 = u64 [a0 + 0x610]\n 11719: u64 [s1 + 0x1b8] = a1\n 11723: a1 = u64 [a0 + 0x608]\n 11727: u64 [s1 + 0x1b0] = a1\n 11731: a0 = u32 [a0 + 0x618]\n 11735: u64 [s1 + 0x1a8] = a0\n 11739: a0 = 0x301a0\n 11744: u64 [s1 + 0x1a0] = a0\n 11748: i32 a0 = a0 + 0\n 11750: ra = 0x184\n 11754: ecalli 4 // 'caller'\n 11756: t0 = 0x186\n 11760: jump @1571\n      : @397 [@dyn 194] (gas: 1)\n 11764: t0 = 390, jump @1571\n      : @398 [@dyn 195] (gas: 7)\n 11771: a1 = s1 + 0x2138\n 11775: u64 [a1 + 1536] = 0\n 11779: u64 [a1 + 1528] = 0\n 11783: u64 [a1 + 0x5e8] = a0\n 11787: a0 = s1 + 0x2720\n 11791: u64 [a1 + 1520] = 0\n 11795: ra = 392, jump @1353\n      : @399 [@dyn 196] (gas: 13)\n 11801: a0 = u64 [s1 + 0xd0]\n 11805: a2 = s1 + 0x2138\n 11809: a3 = a2 + 0x500\n 11813: u64 [a3 + 0xe0] = a0\n 11817: a0 = u64 [s1 + 0xd8]\n 11821: u64 [a3 + 0xd8] = a0\n 11825: a0 = u64 [s1 + 0xe0]\n 11829: u64 [a3 + 0xd0] = a0\n 11833: a1 = s1 + 0x2700\n 11837: a0 = u64 [s1 + 0xe8]\n 11841: u64 [a3 + 0xc8] = a0\n 11845: a0 = 0\n 11847: ra = 394, jump @4\n      : @400 [@dyn 197] (gas: 9)\n 11853: a0 = s1 + 0x2138\n 11857: u64 [a0 + 1472] = 0\n 11861: u64 [a0 + 1464] = 0\n 11865: u64 [a0 + 1456] = 0\n 11869: a3 = a0\n 11871: a0 = 0x20\n 11874: a1 = s1 + 0x26e0\n 11878: u64 [a3 + 1448] = 0x2\n 11883: ra = 396, jump @4\n      : @401 [@dyn 198] (gas: 3)\n 11889: a1 = 0x20194\n 11894: a0 = i32 [0x20194]\n 11899: jump @403 if a0 >u 63\n      : @402 (gas: 3)\n 11903: u32 [0x20194] = 0x40\n 11909: t0 = 0x18e\n 11913: jump @1603\n      : @403 (gas: 1)\n 11917: t0 = 398, jump @1603\n      : @404 [@dyn 199] (gas: 10)\n 11924: a0 = 0x201a0\n 11929: i32 a0 = a0 + 0\n 11931: u64 [s1 + 0x128] = a1\n 11935: i32 a2 = a2 + 0\n 11937: a1 = 0x40\n 11940: u64 [s1 + 0x130] = a0\n 11944: ra = 0x190\n 11948: ecalli 7 // 'hash_keccak_256'\n 11950: t0 = 0x192\n 11954: jump @1597\n      : @405 [@dyn 200] (gas: 1)\n 11958: t0 = 402, jump @1597\n      : @406 [@dyn 201] (gas: 8)\n 11965: a5 = a4 + 0x100\n 11969: u64 [a5 + 0xa0] = a3\n 11973: u64 [a5 + 0x98] = a2\n 11977: u64 [a5 + 0x90] = a1\n 11981: u64 [a5 + 0x88] = a0\n 11985: a0 = s1 + 0x26c0\n 11989: a1 = s1 + 0x42c0\n 11993: ra = 404, jump @6\n      : @407 [@dyn 202] (gas: 25)\n 11999: a4 = s1 + 0x2138\n 12003: a0 = u64 [a4 + 0x5a0]\n 12007: a1 = u64 [a4 + 0x590]\n 12011: a2 = u64 [a4 + 0x588]\n 12015: a3 = u64 [a4 + 0x598]\n 12019: a5 = u64 [s1 + 0xd0]\n 12023: a0 = a0 ^ a5\n 12026: a5 = u64 [s1 + 0xe0]\n 12030: a1 = a1 ^ a5\n 12033: a0 = a0 | a1\n 12036: a1 = u64 [s1 + 0xd8]\n 12040: a1 = a1 ^ a3\n 12043: a3 = u64 [s1 + 0xe8]\n 12047: a2 = a2 ^ a3\n 12050: a1 = a1 | a2\n 12053: a0 = a0 | a1\n 12056: a0 = a0 <u 0x1\n 12059: u64 [a4 + 1408] = 0\n 12063: u64 [a4 + 1400] = 0\n 12067: u64 [a4 + 0x568] = a0\n 12071: a0 = s1 + 0x26a0\n 12075: u64 [a4 + 1392] = 0\n 12079: ra = 0x196\n 12083: t0 = 0x610\n 12087: jump @1586\n      : @408 [@dyn 203] (gas: 13)\n 12091: a0 = s1 + 0x2138\n 12095: a1 = u64 [s1 + 0xd0]\n 12099: a3 = a0 + 0x500\n 12103: u64 [a3 + 0x60] = a1\n 12106: a1 = u64 [s1 + 0xd8]\n 12110: u64 [a3 + 0x58] = a1\n 12113: a1 = u64 [s1 + 0xe0]\n 12117: u64 [a3 + 0x50] = a1\n 12120: a1 = s1 + 0x2680\n 12124: a2 = u64 [s1 + 0xe8]\n 12128: u64 [a3 + 0x48] = a2\n 12131: a0 = 0\n 12133: ra = 408, jump @4\n      : @409 [@dyn 204] (gas: 9)\n 12139: a1 = s1 + 0x2138\n 12143: u64 [a1 + 1344] = 0\n 12147: u64 [a1 + 1336] = 0\n 12151: u64 [a1 + 1320] = 0x2\n 12156: a2 = a1\n 12158: a0 = 0x20\n 12161: a1 = s1 + 0x2660\n 12165: u64 [a2 + 1328] = 0\n 12169: ra = 410, jump @4\n      : @410 [@dyn 205] (gas: 3)\n 12175: a1 = u64 [s1 + 0x128]\n 12179: a0 = i32 [a1]\n 12181: jump @412 if a0 >u 63\n      : @411 (gas: 2)\n 12185: u32 [a1 + 0] = 0x40\n 12188: fallthrough\n      : @412 (gas: 4)\n 12189: a0 = sp + 0xffffffffffffffe0\n 12192: a0 = a0 & 0xffffffffffffffe0\n 12195: u64 [s1 + 0x1b8] = a0\n 12199: t0 = 412, jump @1602\n      : @413 [@dyn 206] (gas: 32)\n 12206: ecalli 7 // 'hash_keccak_256'\n 12208: a3 = u64 [s1 + 0x1b8]\n 12212: a0 = u64 [a3]\n 12214: a1 = u64 [a3 + 0x8]\n 12217: a2 = u64 [a3 + 0x10]\n 12220: a3 = u64 [a3 + 0x18]\n 12223: t0 = reverse a0\n 12225: a5 = reverse a1\n 12227: a2 = reverse a2\n 12229: a3 = reverse a3\n 12231: a0 = sp + 0xffffffffffffffe0\n 12234: a1 = a0 & 0xffffffffffffffe0\n 12237: sp = a1\n 12239: t1 = a3 + 0x6\n 12242: u64 [s1 + 0x198] = a3\n 12246: a4 = t1 <u a3\n 12249: a0 = a2 + a4\n 12252: u64 [s1 + 0x1a0] = a2\n 12256: a3 = a0 <u a2\n 12259: a3 = a4 if a4 == 0\n 12262: a3 = a3 + a5\n 12265: u64 [s1 + 0x1a8] = a5\n 12269: a2 = a3 <u a5\n 12272: u64 [s1 + 0x1b0] = t0\n 12276: a2 = a2 + t0\n 12279: u64 [a1 + 0x8] = a0\n 12282: u64 [a1] = t1\n 12284: u64 [a1 + 0x10] = a3\n 12287: u64 [a1 + 0x18] = a2\n 12290: a0 = s1 + 0x2640\n 12294: u64 [s1 + 0x1b8] = a1\n 12298: ra = 414, jump @6\n      : @414 [@dyn 207] (gas: 3)\n 12304: t0 = 0x1a0\n 12308: a2 = s1 + 0x2138\n 12312: fallthrough\n      : @415 [@dyn 208] (gas: 2)\n 12313: a0 = u8 [a2 + 0x51c]\n 12317: jump @417 if a0 <=u 3\n      : @416 (gas: 1)\n 12321: jump @1160\n      : @417 (gas: 10)\n 12324: a0 = a0 + 0xfffffffffffffffd\n 12327: a0 = a0 >u 0\n 12329: u64 [a2 + 1280] = 0\n 12333: u64 [a2 + 1272] = 0\n 12337: u64 [a2 + 0x4e8] = a0\n 12341: a0 = s1 + 0x2620\n 12345: u64 [a2 + 1264] = 0\n 12349: ra = 0x1a2\n 12353: t0 = 0x62e\n 12357: jump @1586\n      : @418 [@dyn 209] (gas: 3)\n 12361: a0 = s1 + 0x2600\n 12365: a1 = u64 [s1 + 0x1b8]\n 12369: ra = 420, jump @6\n      : @419 [@dyn 210] (gas: 2)\n 12375: a0 = 0x2000\n 12379: t0 = 422, jump @1607\n      : @420 [@dyn 211] (gas: 1)\n 12386: t0 = 424, jump @1605\n      : @421 [@dyn 212] (gas: 8)\n 12393: a5 = a4 + 0x100\n 12397: u64 [a5 + 0xc0] = a3\n 12401: u64 [a5 + 0xb0] = a1\n 12405: u64 [a5 + 0xa8] = a0\n 12409: u64 [a5 + 0xb8] = a2\n 12413: a1 = s1 + 0x42e0\n 12417: a0 = u64 [s1 + 0x1b8]\n 12421: ra = 426, jump @9\n      : @422 [@dyn 213] (gas: 23)\n 12427: a0 = sp + 0xffffffffffffffe0\n 12430: a5 = a0 & 0xffffffffffffffe0\n 12433: sp = a5\n 12435: a1 = u64 [s1 + 0x198]\n 12439: a0 = a1 + 0x8\n 12442: a1 = a0 <u a1\n 12445: a3 = u64 [s1 + 0x1a0]\n 12449: a2 = a3 + a1\n 12452: a3 = a2 <u a3\n 12455: a3 = a1 if a1 == 0\n 12458: a1 = u64 [s1 + 0x1a8]\n 12462: a3 = a3 + a1\n 12465: a1 = a3 <u a1\n 12468: a4 = u64 [s1 + 0x1b0]\n 12472: a4 = a4 + a1\n 12475: a1 = a5\n 12477: u64 [s1 + 0x1b8] = a5\n 12481: u64 [a5 + 0x18] = a4\n 12484: u64 [a5 + 0x10] = a3\n 12487: u64 [a5 + 0x8] = a2\n 12490: u64 [a5] = a0\n 12492: a0 = s1 + 0x25e0\n 12496: ra = 428, jump @6\n      : @423 [@dyn 214] (gas: 2)\n 12502: a0 = 0x2000\n 12506: t0 = 430, jump @1607\n      : @424 [@dyn 215] (gas: 15)\n 12513: a0 = u64 [a4 + 0xa8]\n 12517: a1 = u64 [a4 + 0xb0]\n 12521: a2 = u64 [a4 + 0xc0]\n 12525: a3 = u64 [a4 + 0xb8]\n 12529: a0 = a0 & 0xffffffffffffff00\n 12533: a0 = a0 | 0x1\n 12536: a4 = s1 + 0x4138\n 12540: a5 = a4 + 0x100\n 12544: u64 [a5 + 0xe0] = a2\n 12548: u64 [a5 + 0xd8] = a3\n 12552: u64 [a5 + 0xd0] = a1\n 12556: u64 [a5 + 0xc8] = a0\n 12560: a1 = s1 + 0x4300\n 12564: a0 = u64 [s1 + 0x1b8]\n 12568: ra = 432, jump @9\n      : @425 [@dyn 216] (gas: 13)\n 12574: a0 = u64 [s1 + 0xd0]\n 12578: a2 = s1 + 0x2138\n 12582: a3 = a2 + 0x400\n 12586: u64 [a3 + 0xa0] = a0\n 12590: a0 = u64 [s1 + 0xd8]\n 12594: u64 [a3 + 0x98] = a0\n 12598: a0 = u64 [s1 + 0xe0]\n 12602: u64 [a3 + 0x90] = a0\n 12606: a1 = s1 + 0x25c0\n 12610: a0 = u64 [s1 + 0xe8]\n 12614: u64 [a3 + 0x88] = a0\n 12618: a0 = 0\n 12620: ra = 434, jump @4\n      : @426 [@dyn 217] (gas: 9)\n 12626: a1 = s1 + 0x2138\n 12630: u64 [a1 + 1152] = 0\n 12634: u64 [a1 + 1144] = 0\n 12638: u64 [a1 + 1128] = 0x4\n 12643: a2 = a1\n 12645: a0 = 0x20\n 12648: a1 = s1 + 0x25a0\n 12652: u64 [a2 + 1136] = 0\n 12656: ra = 436, jump @4\n      : @427 [@dyn 218] (gas: 1)\n 12662: t0 = 438, jump @1620\n      : @428 [@dyn 219] (gas: 3)\n 12669: a2 = u64 [s1 + 0x128]\n 12673: a0 = i32 [a2]\n 12675: jump @430 if a0 >u 63\n      : @429 (gas: 2)\n 12679: u32 [a2 + 0] = 0x40\n 12682: fallthrough\n      : @430 (gas: 4)\n 12683: a0 = sp + 0xffffffffffffffe0\n 12686: a0 = a0 & 0xffffffffffffffe0\n 12689: u64 [s1 + 0x1b0] = a0\n 12693: t0 = 440, jump @1602\n      : @431 [@dyn 220] (gas: 4)\n 12700: ra = 0x1ba\n 12704: ecalli 7 // 'hash_keccak_256'\n 12706: t0 = 0x1bc\n 12710: jump @1575\n      : @432 [@dyn 221] (gas: 1)\n 12714: t0 = 444, jump @1575\n      : @433 [@dyn 222] (gas: 3)\n 12721: a0 = s1 + 0x2580\n 12725: a1 = 0x40\n 12728: ra = 446, jump @2\n      : @434 [@dyn 223] (gas: 13)\n 12734: a0 = s1 + 0x2138\n 12738: a2 = a0 + 0x400\n 12742: a1 = u64 [a2 + 0x60]\n 12745: u64 [s1 + 0xc8] = a1\n 12749: a1 = u64 [a2 + 0x58]\n 12752: u64 [s1 + 0xc0] = a1\n 12756: a1 = u64 [a2 + 0x50]\n 12759: u64 [s1 + 0xb8] = a1\n 12763: a0 = u64 [a2 + 0x48]\n 12766: u64 [s1 + 0xf0] = a0\n 12770: a0 = s1 + 0x2560\n 12774: a1 = u64 [s1 + 0x1b8]\n 12778: ra = 448, jump @6\n      : @435 [@dyn 224] (gas: 6)\n 12784: a0 = u64 [s1 + 0xf0]\n 12788: a1 = u64 [s1 + 0xc8]\n 12792: a2 = u64 [s1 + 0xb8]\n 12796: a2 = a2 | a1\n 12799: a3 = u64 [s1 + 0xc0]\n 12803: t0 = 450, jump @1601\n      : @436 [@dyn 225] (gas: 1)\n 12810: jump @438 if a1 == 0\n      : @437 (gas: 1)\n 12813: jump @993\n      : @438 (gas: 16)\n 12816: a5 = s1 + 0x2138\n 12820: a2 = u64 [a5 + 0x440]\n 12824: a1 = u64 [a5 + 0x438]\n 12828: a3 = u64 [a5 + 0x430]\n 12832: a4 = u64 [a5 + 0x428]\n 12836: u64 [s1 + 0x108] = a4\n 12840: u64 [a5 + 0x408] = a4\n 12844: u64 [s1 + 0x110] = a3\n 12848: a4 = a5 + 0x400\n 12852: u64 [a4 + 0x10] = a3\n 12855: u64 [s1 + 0x118] = a1\n 12859: u64 [a4 + 0x18] = a1\n 12862: a1 = s1 + 0x2540\n 12866: u64 [s1 + 0x120] = a2\n 12870: u64 [a4 + 0x20] = a2\n 12873: ra = 452, jump @4\n      : @439 [@dyn 226] (gas: 13)\n 12879: a0 = u64 [s1 + 0x198]\n 12883: a1 = s1 + 0x2138\n 12887: u64 [a1 + 0x400] = a0\n 12891: a0 = u64 [s1 + 0x1a0]\n 12895: u64 [a1 + 0x3f8] = a0\n 12899: a0 = u64 [s1 + 0x1a8]\n 12903: u64 [a1 + 0x3f0] = a0\n 12907: a2 = a1\n 12909: a1 = s1 + 0x2520\n 12913: a0 = u64 [s1 + 0x1b0]\n 12917: u64 [a2 + 0x3e8] = a0\n 12921: a0 = 0\n 12923: ra = 454, jump @4\n      : @440 [@dyn 227] (gas: 7)\n 12929: a0 = sp + 0xffffffffffffffe0\n 12932: a0 = a0 & 0xffffffffffffffe0\n 12935: u64 [s1 + 0x100] = a0\n 12939: sp = a0\n 12941: a2 = u64 [s1 + 0x128]\n 12945: a0 = i32 [a2]\n 12947: jump @442 if a0 >u 31\n      : @441 (gas: 2)\n 12951: u32 [a2 + 0] = 0x20\n 12954: fallthrough\n      : @442 (gas: 3)\n 12955: a0 = 0xffffffff\n 12965: u64 [s1 + 0x138] = a0\n 12969: t0 = 456, jump @1604\n      : @443 [@dyn 228] (gas: 36)\n 12976: a0 = u64 [s1 + 0x130]\n 12980: ecalli 7 // 'hash_keccak_256'\n 12982: u64 [s1 + 408] = 0\n 12986: u64 [s1 + 400] = 0\n 12990: a5 = 0\n 12992: u64 [s1 + 392] = 0\n 12996: a3 = u64 [s1 + 0x1b8]\n 13000: a0 = u64 [a3 + 0x18]\n 13003: a1 = u64 [a3 + 0x10]\n 13006: a2 = u64 [a3 + 0x8]\n 13009: a3 = u64 [a3]\n 13011: t0 = reverse a0\n 13013: a0 = reverse a1\n 13015: a4 = reverse a2\n 13017: a2 = reverse a3\n 13019: a1 = u64 [s1 + 0x100]\n 13023: a3 = a2\n 13025: u64 [a1 + 0x18] = a2\n 13028: u64 [s1 + 0x150] = a4\n 13032: u64 [a1 + 0x10] = a4\n 13035: a2 = a0\n 13037: u64 [a1 + 0x8] = a0\n 13040: u64 [s1 + 0x158] = t0\n 13044: u64 [a1] = t0\n 13046: a0 = 0xffffffe0\n 13056: u64 [s1 + 0xf8] = a0\n 13060: a0 = u64 [s1 + 0xf0]\n 13064: a4 = s1 + 0x100\n 13068: u64 [a4 + 0xb8] = a0\n 13072: a0 = u64 [s1 + 0xb8]\n 13076: u64 [a4 + 0xb0] = a0\n 13080: a0 = u64 [s1 + 0xc0]\n 13084: u64 [a4 + 0xa8] = a0\n 13088: a0 = u64 [s1 + 0xc8]\n 13092: u64 [a4 + 0xa0] = a0\n 13096: fallthrough\n      : @444 (gas: 37)\n 13097: u64 [s1 + 0x168] = a3\n 13101: u64 [s1 + 0x170] = a2\n 13105: t1 = u64 [s1 + 0x1b8]\n 13109: t2 = t1 + 0x20\n 13112: a0 = u64 [s1 + 0x108]\n 13116: a2 = u64 [s1 + 0x198]\n 13120: a0 = a2 <u a0\n 13123: a2 = u64 [s1 + 0x110]\n 13127: a4 = u64 [s1 + 0x190]\n 13131: a3 = a4 ^ a2\n 13134: a2 = a4 <u a2\n 13137: a2 = a0 if a3 == 0\n 13140: a4 = u64 [s1 + 0x118]\n 13144: a0 = a5 <u a4\n 13147: a3 = u64 [s1 + 0x120]\n 13151: t0 = u64 [s1 + 0x188]\n 13155: ra = t0 ^ a3\n 13158: a3 = t0 <u a3\n 13161: a3 = a0 if ra == 0\n 13164: u64 [s1 + 0x160] = a5\n 13168: a0 = a5 ^ a4\n 13171: a0 = a0 | ra\n 13174: u64 [s1 + 0x180] = t2\n 13178: a4 = t2 <u t1\n 13181: a3 = a2 if a0 == 0\n 13184: a2 = s1 + 0x100\n 13188: a0 = u64 [a2 + 0xb0]\n 13192: t0 = a0 + a4\n 13195: a0 = t0 <u a0\n 13198: a0 = a4 if a4 == 0\n 13201: a5 = u64 [a2 + 0xa8]\n 13205: a4 = a5 + a0\n 13208: a0 = a4 <u a5\n 13211: a5 = u64 [a2 + 0xa0]\n 13215: a0 = a0 + a5\n 13218: u64 [a2 + 0x78] = a0\n 13221: jump @446 if a3 != 0\n      : @445 (gas: 1)\n 13224: jump @892\n      : @446 (gas: 4)\n 13227: u64 [s1 + 0x140] = a4\n 13231: u64 [s1 + 0x148] = t0\n 13235: a0 = s1 + 0x2180\n 13239: ra = 458, jump @6\n      : @447 [@dyn 229] (gas: 11)\n 13245: a3 = s1 + 0x100\n 13249: a0 = u64 [a3 + 0xa8]\n 13253: a1 = u64 [a3 + 0xa0]\n 13257: a0 = a0 | a1\n 13260: a1 = u64 [s1 + 0xf8]\n 13264: a2 = u64 [a3 + 0xb8]\n 13268: a1 = a2 <u a1\n 13271: a2 = u64 [a3 + 0xb0]\n 13275: a1 = 0 if a2 != 0\n 13277: a1 = 0 if a0 != 0\n 13279: jump @449 if a1 != 0\n      : @448 (gas: 1)\n 13282: jump @993\n      : @449 (gas: 16)\n 13285: a3 = s1 + 0x2138\n 13289: a0 = u64 [a3 + 0x58]\n 13292: a1 = u64 [a3 + 0x50]\n 13295: a2 = u64 [a3 + 0x48]\n 13298: a4 = u64 [s1 + 0x138]\n 13302: a0 = a0 & a4\n 13305: a4 = 0xffffffffffffffff\n 13308: a1 = a1 & a4\n 13311: a2 = a2 & a4\n 13314: u64 [a3 + 64] = 0\n 13317: u64 [a3 + 0x28] = a2\n 13320: u64 [a3 + 0x30] = a1\n 13323: a1 = s1 + 0x2160\n 13327: u64 [a3 + 0x38] = a0\n 13330: a0 = u64 [s1 + 0x180]\n 13334: ra = 460, jump @4\n      : @450 [@dyn 230] (gas: 47)\n 13340: a4 = u64 [s1 + 0x158]\n 13344: a4 = a4 + 0x1\n 13347: u64 [s1 + 0x158] = a4\n 13351: a0 = a4 <u 0x1\n 13354: a3 = u64 [s1 + 0x170]\n 13358: a3 = a3 + a0\n 13361: a0 = a4 | a3\n 13364: a0 = a0 <u 0x1\n 13367: a1 = u64 [s1 + 0x150]\n 13371: t1 = a1 + a0\n 13374: a1 = t1 <u a1\n 13377: a0 = u64 [s1 + 0x168]\n 13381: a0 = a0 + a1\n 13384: a2 = u64 [s1 + 0x198]\n 13388: a2 = a2 + 0x1\n 13391: a1 = a2 <u 0x1\n 13394: a5 = u64 [s1 + 0x190]\n 13398: a5 = a5 + a1\n 13401: u64 [s1 + 0x198] = a2\n 13405: u64 [s1 + 0x190] = a5\n 13409: a1 = a2 | a5\n 13412: a1 = a1 <u 0x1\n 13415: a2 = u64 [s1 + 0x160]\n 13419: t0 = a2 + a1\n 13422: a2 = t0 <u a2\n 13425: a5 = u64 [s1 + 0x188]\n 13429: a5 = a5 + a2\n 13432: u64 [s1 + 0x188] = a5\n 13436: a2 = a3\n 13438: a5 = s1 + 0x100\n 13442: a1 = u64 [a5]\n 13444: u64 [a1 + 0x8] = a3\n 13447: u64 [a1] = a4\n 13449: u64 [a1 + 0x10] = t1\n 13452: a3 = a0\n 13454: u64 [a1 + 0x18] = a0\n 13457: u64 [s1 + 0x150] = t1\n 13461: a0 = u64 [a5 + 0x80]\n 13465: u64 [a5 + 0xb8] = a0\n 13469: a0 = u64 [a5 + 0x48]\n 13472: u64 [a5 + 0xb0] = a0\n 13476: a0 = u64 [a5 + 0x40]\n 13479: u64 [a5 + 0xa8] = a0\n 13483: a0 = u64 [a5 + 0x78]\n 13486: u64 [a5 + 0xa0] = a0\n 13490: a5 = t0\n 13492: jump @444\n      : @451 (gas: 11)\n 13495: u64 [a2 + 288] = 0\n 13499: u64 [a2 + 280] = 0\n 13503: u64 [a2 + 272] = 0\n 13507: u64 [a2 + 264] = 0\n 13511: a0 = s1 + 0x4000\n 13515: i32 a0 = a0 + 0xfffffffffffffa40\n 13519: ra = 0x1ce\n 13523: ecalli 15 // 'value_transferred'\n 13525: a0 = 0x4000\n 13529: t0 = 0x1d0\n 13533: jump @1629\n      : @452 [@dyn 231] (gas: 2)\n 13537: a0 = 0x4000\n 13541: t0 = 464, jump @1629\n      : @453 [@dyn 232] (gas: 8)\n 13548: a0 = u64 [a4 + 0x18]\n 13551: a1 = u64 [a4 + 0x20]\n 13554: a2 = u64 [a4 + 0x10]\n 13557: a3 = u64 [a4 + 0x8]\n 13560: a1 = a1 | a2\n 13563: a0 = a0 | a3\n 13566: a0 = a0 | a1\n 13569: jump @455 if a0 == 0\n      : @454 (gas: 1)\n 13572: jump @1165\n      : @455 (gas: 3)\n 13575: a0 = u64 [s1 + 0x1b8]\n 13579: a0 = i32 [a0]\n 13581: jump @457 if a0 >u 3\n      : @456 (gas: 1)\n 13585: jump @1166\n      : @457 (gas: 4)\n 13588: a0 = s1 + 0x7ff\n 13592: a0 = a0 + 0x361\n 13596: a1 = 0x40\n 13599: ra = 466, jump @2\n      : @458 [@dyn 233] (gas: 8)\n 13605: a3 = s1 + 0x7ff\n 13609: a3 = a3 + 0x131\n 13613: a5 = a3 + 0x200\n 13617: a4 = u64 [a5 + 0x48]\n 13620: a1 = u64 [a5 + 0x40]\n 13623: a2 = u64 [a5 + 0x38]\n 13626: a0 = u64 [a5 + 0x30]\n 13629: t0 = 468, jump @1593\n      : @459 [@dyn 234] (gas: 1)\n 13636: jump @461 if a1 == 0\n      : @460 (gas: 1)\n 13639: jump @993\n      : @461 (gas: 9)\n 13642: u64 [a3 + 552] = 0\n 13646: u64 [a3 + 544] = 0\n 13650: u64 [a3 + 528] = 0x2a300\n 13657: a1 = s1 + 0x7ff\n 13661: a1 = a1 + 0x341\n 13665: u64 [a3 + 536] = 0\n 13669: u64 [s1 + 0x1b8] = a0\n 13673: ra = 0x2ca\n 13677: jump @4\n      : @462 (gas: 9)\n 13680: u64 [a3 + 1664] = 0\n 13684: u64 [a3 + 1656] = 0\n 13688: u64 [a3 + 1648] = 0\n 13692: u64 [a3 + 1640] = 0\n 13696: a0 = s1 + 0x3000\n 13700: i32 a0 = a0 + 0x7a0\n 13704: ra = 0x1d6\n 13708: ecalli 15 // 'value_transferred'\n 13710: fallthrough\n      : @463 [@dyn 235] (gas: 10)\n 13711: a3 = s1 + 0x3138\n 13715: a4 = a3 + 0x600\n 13719: a0 = u64 [a4 + 0x78]\n 13722: a1 = u64 [a4 + 0x80]\n 13726: a2 = u64 [a4 + 0x70]\n 13729: a3 = u64 [a4 + 0x68]\n 13732: a1 = a1 | a2\n 13735: a0 = a0 | a3\n 13738: a0 = a0 | a1\n 13741: jump @465 if a0 == 0\n      : @464 (gas: 1)\n 13744: jump @1167\n      : @465 (gas: 1)\n 13747: t0 = 472, jump @1625\n      : @466 [@dyn 236] (gas: 1)\n 13754: jump @468 if a1 <u a0\n      : @467 (gas: 1)\n 13757: jump @1168\n      : @468 (gas: 17)\n 13760: a0 = s1 + 0x3000\n 13764: i32 a0 = a0 + 0x7c0\n 13768: a1 = 0x4\n 13771: ecalli 2 // 'call_data_load'\n 13773: a3 = s1 + 0x3138\n 13777: a4 = a3 + 0x600\n 13781: a0 = u64 [a4 + 0x88]\n 13785: a1 = u64 [a4 + 0x90]\n 13789: a2 = u64 [a4 + 0x98]\n 13793: a3 = u64 [a4 + 0xa0]\n 13797: u64 [s1 + 0x678] = a3\n 13801: u64 [s1 + 0x670] = a2\n 13805: u64 [s1 + 0x668] = a1\n 13809: a1 = s1 + 0x660\n 13813: u64 [s1 + 0x660] = a0\n 13817: a0 = 0\n 13819: ra = 474, jump @4\n      : @469 [@dyn 237] (gas: 7)\n 13825: u64 [s1 + 1624] = 0\n 13829: u64 [s1 + 1616] = 0\n 13833: u64 [s1 + 1600] = 0x4\n 13838: a0 = 0x20\n 13841: a1 = s1 + 0x640\n 13845: u64 [s1 + 1608] = 0\n 13849: ra = 476, jump @4\n      : @470 [@dyn 238] (gas: 1)\n 13855: t0 = 478, jump @1620\n      : @471 [@dyn 239] (gas: 4)\n 13862: a2 = 0x20194\n 13867: a0 = i32 [0x20194]\n 13872: a1 = 0x3f\n 13875: jump @473 if a1 <u a0\n      : @472 (gas: 4)\n 13878: u32 [0x20194] = 0x40\n 13884: u64 [s1 + 0x1a8] = a2\n 13888: t0 = 0x1e0\n 13892: jump @1627\n      : @473 (gas: 2)\n 13896: u64 [s1 + 0x1a8] = a2\n 13900: t0 = 480, jump @1627\n      : @474 [@dyn 240] (gas: 27)\n 13907: a0 = 0x201a0\n 13912: i32 a0 = a0 + 0\n 13914: i32 a2 = a2 + 0\n 13916: a1 = 0x40\n 13919: u64 [s1 + 0x1a0] = a0\n 13923: ecalli 7 // 'hash_keccak_256'\n 13925: a3 = u64 [s1 + 0x1b0]\n 13929: a0 = u64 [a3 + 0x18]\n 13932: a1 = u64 [a3 + 0x10]\n 13935: a2 = u64 [a3 + 0x8]\n 13938: a3 = u64 [a3]\n 13940: a0 = reverse a0\n 13942: a1 = reverse a1\n 13944: a2 = reverse a2\n 13946: a3 = reverse a3\n 13948: a4 = u64 [s1 + 0x1b8]\n 13952: u64 [s1 + 0x188] = a3\n 13956: u64 [a4 + 0x18] = a3\n 13959: u64 [s1 + 0x190] = a2\n 13963: u64 [a4 + 0x10] = a2\n 13966: u64 [s1 + 0x198] = a1\n 13970: u64 [a4 + 0x8] = a1\n 13973: u64 [s1 + 0x1b0] = a0\n 13977: u64 [a4] = a0\n 13979: a0 = s1 + 0x620\n 13983: a1 = 0x40\n 13986: ra = 482, jump @2\n      : @475 [@dyn 241] (gas: 12)\n 13992: a1 = s1 + 0x600\n 13996: a0 = u64 [a1 + 0x38]\n 13999: u64 [s1 + 0xf0] = a0\n 14003: a0 = u64 [a1 + 0x30]\n 14006: u64 [s1 + 0xe8] = a0\n 14010: a0 = u64 [a1 + 0x28]\n 14013: u64 [s1 + 0xe0] = a0\n 14017: a0 = u64 [a1 + 0x20]\n 14020: u64 [s1 + 0xf8] = a0\n 14024: a0 = s1 + 0x600\n 14028: a1 = u64 [s1 + 0x1b8]\n 14032: ra = 484, jump @6\n      : @476 [@dyn 242] (gas: 6)\n 14038: a4 = u64 [s1 + 0xe0]\n 14042: a3 = u64 [s1 + 0xe8]\n 14046: a0 = u64 [s1 + 0xf8]\n 14050: a2 = u64 [s1 + 0xf0]\n 14054: a2 = a2 | a4\n 14057: t0 = 486, jump @1601\n      : @477 [@dyn 243] (gas: 1)\n 14064: jump @479 if a1 == 0\n      : @478 (gas: 1)\n 14067: jump @993\n      : @479 (gas: 15)\n 14070: t0 = u64 [s1 + 0x618]\n 14074: a3 = s1 + 0x600\n 14078: a1 = u64 [a3 + 0x10]\n 14081: a5 = u64 [a3 + 0x8]\n 14084: a2 = u64 [a3]\n 14086: u64 [s1 + 0x128] = a2\n 14090: u64 [s1 + 0x5e0] = a2\n 14094: u64 [s1 + 0x130] = a5\n 14098: u64 [s1 + 0x5e8] = a5\n 14102: u64 [s1 + 0x138] = a1\n 14106: u64 [s1 + 0x5f0] = a1\n 14110: a1 = s1 + 0x5e0\n 14114: u64 [s1 + 0x140] = t0\n 14118: u64 [s1 + 0x5f8] = t0\n 14122: ra = 488, jump @4\n      : @480 [@dyn 244] (gas: 26)\n 14128: a1 = u64 [s1 + 0xf8]\n 14132: a0 = a1 + 0x20\n 14135: u64 [s1 + 0x108] = a0\n 14139: a0 = a0 <u a1\n 14142: a2 = u64 [s1 + 0xe0]\n 14146: a1 = a2 + a0\n 14149: u64 [s1 + 0x118] = a1\n 14153: a1 = a1 <u a2\n 14156: a1 = a0 if a0 == 0\n 14159: a0 = u64 [s1 + 0xe8]\n 14163: a1 = a1 + a0\n 14166: u64 [s1 + 0x100] = a1\n 14170: a0 = a1 <u a0\n 14173: u64 [s1 + 0x1b8] = a0\n 14177: a0 = u64 [s1 + 0x188]\n 14181: a2 = s1 + 0x500\n 14185: u64 [a2 + 0xd8] = a0\n 14189: a0 = u64 [s1 + 0x190]\n 14193: u64 [a2 + 0xd0] = a0\n 14197: a0 = u64 [s1 + 0x198]\n 14201: u64 [a2 + 0xc8] = a0\n 14205: a1 = s1 + 0x5c0\n 14209: a0 = u64 [s1 + 0x1b0]\n 14213: u64 [a2 + 0xc0] = a0\n 14217: a0 = 0\n 14219: ra = 490, jump @4\n      : @481 [@dyn 245] (gas: 7)\n 14225: a0 = sp + 0xffffffffffffffe0\n 14228: a0 = a0 & 0xffffffffffffffe0\n 14231: u64 [s1 + 0x120] = a0\n 14235: sp = a0\n 14237: a2 = u64 [s1 + 0x1a8]\n 14241: a0 = i32 [a2]\n 14243: jump @483 if a0 >u 31\n      : @482 (gas: 2)\n 14247: u32 [a2 + 0] = 0x20\n 14250: fallthrough\n      : @483 (gas: 7)\n 14251: a0 = u64 [s1 + 0xf0]\n 14255: a1 = u64 [s1 + 0x1b8]\n 14259: a0 = a0 + a1\n 14262: u64 [s1 + 0x110] = a0\n 14266: a0 = 0xffffffff\n 14276: u64 [s1 + 0x148] = a0\n 14280: t0 = 492, jump @1604\n      : @484 [@dyn 246] (gas: 34)\n 14286: a0 = u64 [s1 + 0x1a0]\n 14290: ecalli 7 // 'hash_keccak_256'\n 14292: t0 = 0\n 14294: t1 = 0\n 14296: ra = 0\n 14298: u64 [s1 + 408] = 0\n 14302: a3 = u64 [s1 + 0x1b8]\n 14306: a0 = u64 [a3 + 0x18]\n 14309: a1 = u64 [a3 + 0x10]\n 14312: a2 = u64 [a3 + 0x8]\n 14315: a5 = u64 [a3]\n 14317: t2 = reverse a0\n 14319: a4 = reverse a1\n 14321: a3 = reverse a2\n 14323: a2 = reverse a5\n 14325: a1 = u64 [s1 + 0x120]\n 14329: a0 = a2\n 14331: u64 [a1 + 0x18] = a2\n 14334: u64 [s1 + 0x178] = a3\n 14338: u64 [a1 + 0x10] = a3\n 14341: a5 = a4\n 14343: u64 [a1 + 0x8] = a4\n 14346: u64 [s1 + 0x180] = t2\n 14350: u64 [a1] = t2\n 14352: a3 = s1 + 0x100\n 14356: a2 = u64 [a3 + 0x8]\n 14359: u64 [a3 + 0xb8] = a2\n 14363: a2 = u64 [a3 + 0x18]\n 14366: u64 [a3 + 0xa8] = a2\n 14370: a2 = u64 [a3]\n 14372: u64 [a3 + 0xa0] = a2\n 14376: a2 = u64 [a3 + 0x10]\n 14379: u64 [a3 + 0xb0] = a2\n 14383: fallthrough\n      : @485 (gas: 20)\n 14384: a4 = s1 + 0x100\n 14388: u64 [a4 + 0x88] = a0\n 14392: u64 [a4 + 0x90] = a5\n 14396: a0 = u64 [a4 + 0x28]\n 14399: a0 = t0 <u a0\n 14402: a2 = u64 [a4 + 0x30]\n 14405: a3 = t1 ^ a2\n 14408: a2 = t1 <u a2\n 14411: a2 = a0 if a3 == 0\n 14414: a0 = u64 [a4 + 0x38]\n 14417: t2 = ra <u a0\n 14420: a3 = u64 [a4 + 0x40]\n 14423: a5 = u64 [a4 + 0x98]\n 14427: a4 = a5 ^ a3\n 14430: a3 = a5 <u a3\n 14433: a3 = t2 if a4 == 0\n 14436: a0 = ra ^ a0\n 14439: a0 = a0 | a4\n 14442: a3 = a2 if a0 == 0\n 14445: jump @487 if a3 != 0\n      : @486 (gas: 1)\n 14448: jump @874\n      : @487 (gas: 5)\n 14451: u64 [s1 + 0x160] = ra\n 14455: u64 [s1 + 0x168] = t1\n 14459: u64 [s1 + 0x170] = t0\n 14463: a0 = s1 + 0x4a0\n 14467: ra = 494, jump @6\n      : @488 [@dyn 247] (gas: 13)\n 14473: a1 = s1 + 0x100\n 14477: a0 = u64 [a1 + 0xb8]\n 14481: a4 = u64 [a1 + 0xa0]\n 14485: a2 = a0 | a4\n 14488: a3 = u64 [a1 + 0xb0]\n 14492: a5 = u64 [a1 + 0xa8]\n 14496: a1 = a5 | a3\n 14499: a2 = a2 | a1\n 14502: a2 = a2 >> 0x20\n 14505: a1 = a1 | a4\n 14508: a1 = a1 << 0x20\n 14511: a1 = a1 | a2\n 14514: jump @490 if a1 == 0\n      : @489 (gas: 1)\n 14517: jump @993\n      : @490 (gas: 18)\n 14520: u64 [s1 + 0x1a0] = a4\n 14524: a4 = u64 [s1 + 0x4b0]\n 14528: a1 = u64 [s1 + 0x4a8]\n 14532: a2 = u64 [s1 + 0x4a0]\n 14536: u64 [s1 + 0x1b0] = a3\n 14540: a3 = u64 [s1 + 0x148]\n 14544: a4 = a4 & a3\n 14547: a1 = a1 & 0xffffffffffffffff\n 14550: a2 = a2 & 0xffffffffffffffff\n 14553: u64 [s1 + 1176] = 0\n 14557: a3 = s1 + 0x400\n 14561: u64 [a3 + 0x80] = a2\n 14565: u64 [a3 + 0x88] = a1\n 14569: a1 = s1 + 0x480\n 14573: u64 [a3 + 0x90] = a4\n 14577: u64 [s1 + 0x1b8] = a0\n 14581: u64 [s1 + 0x1a8] = a5\n 14585: ra = 496, jump @4\n      : @491 [@dyn 248] (gas: 57)\n 14591: a1 = u64 [s1 + 0x1b8]\n 14595: a0 = a1 + 0x20\n 14598: u64 [s1 + 0x158] = a0\n 14602: a2 = a0 <u a1\n 14605: a1 = u64 [s1 + 0x1a8]\n 14609: a0 = a1 + a2\n 14612: u64 [s1 + 0x150] = a0\n 14616: a3 = a0 <u a1\n 14619: a3 = a2 if a2 == 0\n 14622: a0 = u64 [s1 + 0x1a0]\n 14626: ra = a0 + a3\n 14629: a3 = ra <u a0\n 14632: a0 = u64 [s1 + 0x1b0]\n 14636: a0 = a0 + a3\n 14639: u64 [s1 + 0x1b0] = a0\n 14643: t2 = u64 [s1 + 0x180]\n 14647: t2 = t2 + 0x1\n 14650: u64 [s1 + 0x180] = t2\n 14654: a3 = t2 <u 0x1\n 14657: a0 = u64 [s1 + 0x190]\n 14661: a0 = a0 + a3\n 14664: a3 = t2 | a0\n 14667: a3 = a3 <u 0x1\n 14670: a1 = u64 [s1 + 0x178]\n 14674: a3 = a3 + a1\n 14677: a4 = a3 <u a1\n 14680: a2 = u64 [s1 + 0x188]\n 14684: a2 = a2 + a4\n 14687: t0 = u64 [s1 + 0x170]\n 14691: t0 = t0 + 0x1\n 14694: a4 = t0 <u 0x1\n 14697: t1 = u64 [s1 + 0x168]\n 14701: t1 = t1 + a4\n 14704: a4 = t0 | t1\n 14707: a4 = a4 <u 0x1\n 14710: a5 = u64 [s1 + 0x160]\n 14714: a4 = a4 + a5\n 14717: a5 = a4 <u a5\n 14720: a1 = u64 [s1 + 0x198]\n 14724: a1 = a1 + a5\n 14727: u64 [s1 + 0x198] = a1\n 14731: a5 = a0\n 14733: a1 = u64 [s1 + 0x120]\n 14737: u64 [a1 + 0x8] = a0\n 14740: u64 [a1] = t2\n 14742: u64 [a1 + 0x10] = a3\n 14745: a0 = a2\n 14747: u64 [a1 + 0x18] = a2\n 14750: u64 [s1 + 0x178] = a3\n 14754: a3 = s1 + 0x100\n 14758: a2 = u64 [a3 + 0x58]\n 14761: u64 [a3 + 0xb8] = a2\n 14765: a2 = u64 [a3 + 0x50]\n 14768: u64 [a3 + 0xa8] = a2\n 14772: u64 [s1 + 0x1a0] = ra\n 14776: ra = a4\n 14778: jump @485\n      : @492 (gas: 2)\n 14781: a1 = 0x62e2961b\n 14787: jump @494 if a0 == a1\n      : @493 (gas: 1)\n 14790: jump @1169\n      : @494 (gas: 1)\n 14793: t0 = 498, jump @1632\n      : @495 [@dyn 249] (gas: 5)\n 14800: i32 a0 = a0 + 0xfffffffffffffe00\n 14804: ra = 0x1f4\n 14808: ecalli 15 // 'value_transferred'\n 14810: t0 = 0x1f6\n 14814: jump @1630\n      : @496 [@dyn 250] (gas: 1)\n 14817: t0 = 502, jump @1630\n      : @497 [@dyn 251] (gas: 8)\n 14823: a0 = u64 [a4 + 0xd8]\n 14827: a1 = u64 [a4 + 0xe0]\n 14831: a2 = u64 [a4 + 0xd0]\n 14835: a3 = u64 [a4 + 0xc8]\n 14839: a1 = a1 | a2\n 14842: a0 = a0 | a3\n 14845: a0 = a0 | a1\n 14848: jump @499 if a0 == 0\n      : @498 (gas: 1)\n 14851: jump @1177\n      : @499 (gas: 3)\n 14854: a0 = u64 [s1 + 0x1b8]\n 14858: a0 = i32 [a0]\n 14860: jump @501 if a0 >u 67\n      : @500 (gas: 1)\n 14864: jump @1178\n      : @501 (gas: 2)\n 14867: a0 = s1 + 0x14e0\n 14871: ra = 504, jump @1296\n      : @502 [@dyn 252] (gas: 16)\n 14877: a1 = s1 + 0x1138\n 14881: a2 = a1 + 0x300\n 14885: a0 = u64 [a2 + 0xb8]\n 14889: a1 = s1 + 0x100\n 14893: u64 [a1 + 0xa8] = a0\n 14897: a0 = u64 [a2 + 0xb0]\n 14901: u64 [a1 + 0xb0] = a0\n 14905: a0 = u64 [a2 + 0xa8]\n 14909: u64 [a1 + 0xb8] = a0\n 14913: a0 = s1 + 0x4000\n 14917: i32 a0 = a0 + 0xfffffffffffffe20\n 14921: a1 = 0x4\n 14924: ra = 0x1fa\n 14928: ecalli 2 // 'call_data_load'\n 14930: t0 = 0x1fc\n 14934: jump @1630\n      : @503 [@dyn 253] (gas: 1)\n 14937: t0 = 508, jump @1630\n      : @504 [@dyn 254] (gas: 13)\n 14943: a0 = u64 [a4 + 0xe8]\n 14947: a1 = u64 [a4 + 0xf0]\n 14951: a2 = u64 [a4 + 0xf8]\n 14955: a3 = u64 [a3 + 0x500]\n 14959: a4 = s1 + 0x1138\n 14963: a5 = a4 + 0x300\n 14967: u64 [a5 + 0xa0] = a3\n 14971: u64 [a5 + 0x98] = a2\n 14975: u64 [a5 + 0x90] = a1\n 14979: a1 = s1 + 0x14c0\n 14983: u64 [a5 + 0x88] = a0\n 14987: a0 = 0\n 14989: ra = 510, jump @4\n      : @505 [@dyn 255] (gas: 3)\n 14995: t0 = 0x200\n 14999: a1 = s1 + 0x1138\n 15003: fallthrough\n      : @506 [@dyn 256] (gas: 8)\n 15004: u64 [a1 + 896] = 0\n 15008: u64 [a1 + 888] = 0\n 15012: u64 [a1 + 872] = 0x3\n 15017: a2 = a1\n 15019: a0 = 0x20\n 15022: a1 = s1 + 0x14a0\n 15026: u64 [a2 + 880] = 0\n 15030: ra = 514, jump @4\n      : @507 [@dyn 257] (gas: 3)\n 15036: a1 = 0x20194\n 15041: a0 = i32 [0x20194]\n 15046: jump @509 if a0 >u 63\n      : @508 (gas: 2)\n 15050: u32 [0x20194] = 0x40\n 15056: fallthrough\n      : @509 (gas: 15)\n 15057: a0 = sp + 0xffffffffffffffe0\n 15060: a2 = a0 & 0xffffffffffffffe0\n 15063: u64 [s1 + 0x190] = a2\n 15067: sp = a2\n 15069: a0 = 0x201a0\n 15074: i32 a0 = a0 + 0\n 15076: i32 a2 = a2 + 0\n 15078: u64 [s1 + 0x1a0] = a1\n 15082: a1 = 0x40\n 15085: u64 [s1 + 0x198] = a0\n 15089: ra = 0x204\n 15093: ecalli 7 // 'hash_keccak_256'\n 15095: a3 = u64 [s1 + 0x190]\n 15099: t0 = 0x206\n 15103: jump @1587\n      : @510 [@dyn 258] (gas: 2)\n 15106: a3 = u64 [s1 + 0x190]\n 15110: t0 = 518, jump @1587\n      : @511 [@dyn 259] (gas: 16)\n 15116: u64 [s1 + 0x190] = a0\n 15120: sp = a0\n 15122: a0 = u64 [s1 + 0x1a8]\n 15126: a0 = a0 << 0x20\n 15129: a0 = a0 >> 0x20\n 15132: a2 = s1 + 0x1138\n 15136: u64 [a2 + 864] = 0\n 15140: a3 = a2 + 0x300\n 15144: u64 [a3 + 0x58] = a0\n 15147: a0 = u64 [s1 + 0x1b0]\n 15151: u64 [a3 + 0x50] = a0\n 15154: a1 = s1 + 0x1480\n 15158: a0 = u64 [s1 + 0x1b8]\n 15162: u64 [a3 + 0x48] = a0\n 15165: a0 = 0\n 15167: ra = 520, jump @4\n      : @512 [@dyn 260] (gas: 14)\n 15173: a0 = u64 [s1 + 0x170]\n 15177: a1 = s1 + 0x1138\n 15181: a2 = a1 + 0x300\n 15185: u64 [a2 + 0x40] = a0\n 15188: a0 = u64 [s1 + 0x178]\n 15192: u64 [a2 + 0x38] = a0\n 15195: a0 = u64 [s1 + 0x180]\n 15199: u64 [a2 + 0x30] = a0\n 15202: a3 = a1\n 15204: a0 = 0x20\n 15207: a1 = s1 + 0x1460\n 15211: a2 = u64 [s1 + 0x188]\n 15215: u64 [a3 + 0x328] = a2\n 15219: ra = 522, jump @4\n      : @513 [@dyn 261] (gas: 3)\n 15225: a1 = u64 [s1 + 0x1a0]\n 15229: a0 = i32 [a1]\n 15231: jump @515 if a0 >u 63\n      : @514 (gas: 2)\n 15235: u32 [a1 + 0] = 0x40\n 15238: fallthrough\n      : @515 (gas: 4)\n 15239: a0 = sp + 0xffffffffffffffe0\n 15242: a0 = a0 & 0xffffffffffffffe0\n 15245: u64 [s1 + 0x1b8] = a0\n 15249: t0 = 524, jump @1579\n      : @516 [@dyn 262] (gas: 4)\n 15255: ra = 0x20e\n 15259: ecalli 7 // 'hash_keccak_256'\n 15261: t0 = 0x210\n 15265: jump @1573\n      : @517 [@dyn 263] (gas: 1)\n 15268: t0 = 528, jump @1573\n      : @518 [@dyn 264] (gas: 2)\n 15274: a0 = s1 + 0x1440\n 15278: ra = 530, jump @6\n      : @519 [@dyn 265] (gas: 31)\n 15284: a1 = s1 + 0x1138\n 15288: a2 = a1 + 0x300\n 15292: a0 = u64 [a2 + 0x20]\n 15295: u64 [s1 + 0x198] = a0\n 15299: a0 = u64 [a2 + 0x18]\n 15302: u64 [s1 + 0x190] = a0\n 15306: a0 = u64 [a2 + 0x10]\n 15309: u64 [s1 + 0x188] = a0\n 15313: a0 = u64 [a2 + 0x8]\n 15316: u64 [s1 + 0x180] = a0\n 15320: a0 = u64 [s1 + 0x1a8]\n 15324: a0 = a0 + 0x1\n 15327: a1 = a0 <u 0x1\n 15330: a2 = u64 [s1 + 0x1b0]\n 15334: a1 = a1 + a2\n 15337: a2 = s1 + 0x3938\n 15341: a3 = a2 + 0x500\n 15345: u64 [a3 + 0x10] = a1\n 15348: a1 = a1 | a0\n 15351: u64 [a3 + 0x8] = a0\n 15354: a0 = a1 <u 0x1\n 15357: a1 = u64 [s1 + 0x1a0]\n 15361: a0 = a0 + a1\n 15364: u64 [a3 + 0x18] = a0\n 15367: a0 = a0 <u a1\n 15370: a1 = u64 [s1 + 0x1b8]\n 15374: a0 = a0 + a1\n 15377: u64 [a3 + 0x20] = a0\n 15380: a0 = s1 + 0x1420\n 15384: a1 = s1 + 0x3e40\n 15388: ra = 532, jump @6\n      : @520 [@dyn 266] (gas: 18)\n 15394: a1 = s1 + 0x1138\n 15398: a0 = u64 [a1 + 0x300]\n 15402: u64 [s1 + 0x178] = a0\n 15406: a2 = a1 + 0x200\n 15410: a0 = u64 [a2 + 0xf8]\n 15414: u64 [s1 + 0x170] = a0\n 15418: a0 = u64 [a2 + 0xf0]\n 15422: u64 [s1 + 0x168] = a0\n 15426: a0 = u64 [a2 + 0xe8]\n 15430: u64 [s1 + 0x160] = a0\n 15434: a1 = u64 [s1 + 0x1a8]\n 15438: a0 = a1 + 0x2\n 15441: a1 = a0 <u a1\n 15444: a3 = u64 [s1 + 0x1b0]\n 15448: a2 = a3 + a1\n 15451: a3 = a2 <u a3\n 15454: a3 = a1 if a1 == 0\n 15457: t0 = 534, jump @1621\n      : @521 [@dyn 267] (gas: 9)\n 15463: a4 = s1 + 0x3938\n 15467: a5 = a4 + 0x500\n 15471: u64 [a5 + 0x40] = a1\n 15474: u64 [a5 + 0x38] = a3\n 15477: u64 [a5 + 0x30] = a2\n 15480: u64 [a5 + 0x28] = a0\n 15483: a0 = s1 + 0x1400\n 15487: a1 = s1 + 0x3e60\n 15491: ra = 536, jump @6\n      : @522 [@dyn 268] (gas: 10)\n 15497: a5 = s1 + 0x1138\n 15501: a0 = u64 [a5 + 0x2e0]\n 15505: u64 [s1 + 0x158] = a0\n 15509: a0 = u64 [a5 + 0x2d8]\n 15513: u64 [s1 + 0x150] = a0\n 15517: a1 = u64 [s1 + 0x1a8]\n 15521: a0 = a1 + 0x3\n 15524: a1 = a0 <u a1\n 15527: a3 = u64 [s1 + 0x1b0]\n 15531: t0 = 538, jump @1623\n      : @523 [@dyn 269] (gas: 3)\n 15537: a1 = u64 [a5 + 0x2d0]\n 15541: u64 [s1 + 0x1a8] = a1\n 15545: t0 = 540, jump @1621\n      : @524 [@dyn 270] (gas: 11)\n 15551: a4 = u64 [a5 + 0x2c8]\n 15555: u64 [s1 + 0x1a0] = a4\n 15559: a4 = s1 + 0x3938\n 15563: a5 = a4 + 0x500\n 15567: u64 [a5 + 0x60] = a1\n 15570: u64 [a5 + 0x58] = a3\n 15573: u64 [a5 + 0x50] = a2\n 15576: u64 [a5 + 0x48] = a0\n 15579: a0 = s1 + 0x13e0\n 15583: a1 = s1 + 0x3e80\n 15587: ra = 542, jump @6\n      : @525 [@dyn 271] (gas: 6)\n 15593: a0 = s1 + 0x1138\n 15597: a0 = u64 [a0 + 0x2a8]\n 15601: u64 [s1 + 0x148] = a0\n 15605: a0 = s1 + 0x13c0\n 15609: a1 = 0x40\n 15612: ra = 544, jump @2\n      : @526 [@dyn 272] (gas: 14)\n 15618: a2 = s1 + 0x1138\n 15622: t0 = u64 [a2 + 0x2a0]\n 15626: a0 = a2 + 0x200\n 15630: a5 = u64 [a0 + 0x98]\n 15634: a4 = u64 [a0 + 0x90]\n 15638: a3 = u64 [a0 + 0x88]\n 15642: a0 = a4 | t0\n 15645: a1 = a3 | a5\n 15648: a1 = a1 | a0\n 15651: a1 = a1 >> 0x20\n 15654: a0 = a0 | a5\n 15657: a0 = a0 << 0x20\n 15660: a0 = a0 | a1\n 15663: jump @528 if a0 == 0\n      : @527 (gas: 1)\n 15666: jump @993\n      : @528 (gas: 15)\n 15669: a0 = u64 [s1 + 0x180]\n 15673: u64 [a2 + 0x268] = a0\n 15677: a0 = u64 [s1 + 0x188]\n 15681: u64 [a2 + 0x270] = a0\n 15685: a0 = u64 [s1 + 0x190]\n 15689: u64 [a2 + 0x278] = a0\n 15693: a1 = s1 + 0x13a0\n 15697: a0 = u64 [s1 + 0x198]\n 15701: u64 [a2 + 0x280] = a0\n 15705: a0 = a3\n 15707: u64 [s1 + 0x1b8] = a3\n 15711: u64 [s1 + 0x1b0] = a4\n 15715: u64 [s1 + 0x190] = t0\n 15719: u64 [s1 + 0x198] = a5\n 15723: ra = 546, jump @4\n      : @529 [@dyn 273] (gas: 12)\n 15729: a5 = s1 + 0x100\n 15733: a1 = u64 [a5 + 0xb8]\n 15737: a0 = u64 [a5 + 0x98]\n 15741: a4 = u64 [a5 + 0x90]\n 15745: a4 = a4 | a0\n 15748: a3 = 0x100000000\n 15758: a0 = 0xffffffe0\n 15768: a0 = a1 <u a0\n 15771: a2 = u64 [a5 + 0xb0]\n 15775: a0 = 0 if a2 != 0\n 15777: a0 = 0 if a4 != 0\n 15779: jump @531 if a0 != 0\n      : @530 (gas: 1)\n 15782: jump @993\n      : @531 (gas: 16)\n 15785: i32 a0 = a1 + 0x20\n 15788: a1 = u64 [s1 + 0x160]\n 15792: a2 = s1 + 0x1138\n 15796: u64 [s1 + 0x190] = a3\n 15800: a3 = a2\n 15802: a5 = a2 + 0x200\n 15806: u64 [a5 + 0x48] = a1\n 15809: a1 = u64 [s1 + 0x168]\n 15813: u64 [a5 + 0x50] = a1\n 15816: a1 = u64 [s1 + 0x170]\n 15820: u64 [a5 + 0x58] = a1\n 15823: a1 = s1 + 0x1380\n 15827: a2 = u64 [s1 + 0x178]\n 15831: u64 [a3 + 0x260] = a2\n 15835: u64 [s1 + 0x198] = a4\n 15839: ra = 548, jump @4\n      : @532 [@dyn 274] (gas: 10)\n 15845: a2 = s1 + 0x100\n 15849: a4 = u64 [a2 + 0x98]\n 15853: a3 = u64 [a2 + 0xb0]\n 15857: a1 = u64 [a2 + 0xb8]\n 15861: a0 = u64 [a2 + 0x90]\n 15865: a0 = a0 + 0xffffffffffffffc0\n 15868: a0 = a1 <u a0\n 15871: a0 = 0 if a3 != 0\n 15873: a0 = 0 if a4 != 0\n 15875: jump @534 if a0 != 0\n      : @533 (gas: 1)\n 15878: jump @993\n      : @534 (gas: 13)\n 15881: i32 a0 = a1 + 0x40\n 15884: a1 = u64 [s1 + 0x1a0]\n 15888: a4 = s1 + 0x1138\n 15892: a3 = a4 + 0x200\n 15896: u64 [a3 + 0x28] = a1\n 15899: a1 = u64 [s1 + 0x1a8]\n 15903: u64 [a3 + 0x30] = a1\n 15906: a1 = u64 [s1 + 0x150]\n 15910: u64 [a3 + 0x38] = a1\n 15913: a1 = s1 + 0x1360\n 15917: a2 = u64 [s1 + 0x158]\n 15921: u64 [a3 + 0x40] = a2\n 15924: ra = 550, jump @4\n      : @535 [@dyn 275] (gas: 9)\n 15930: a3 = s1 + 0x100\n 15934: a2 = u64 [a3 + 0xb8]\n 15938: a0 = 0xffffffa0\n 15948: a0 = a2 <u a0\n 15951: a1 = u64 [a3 + 0xb0]\n 15955: a0 = 0 if a1 != 0\n 15957: a1 = u64 [a3 + 0x98]\n 15961: a0 = 0 if a1 != 0\n 15963: jump @537 if a0 != 0\n      : @536 (gas: 1)\n 15966: jump @993\n      : @537 (gas: 10)\n 15969: a0 = u8 [s1 + 0x148]\n 15973: a1 = a0 >u 0\n 15975: i32 a0 = a2 + 0x60\n 15978: a3 = s1 + 0x1138\n 15982: u64 [a3 + 544] = 0\n 15986: u64 [a3 + 536] = 0\n 15990: u64 [a3 + 0x208] = a1\n 15994: a1 = s1 + 0x1340\n 15998: u64 [a3 + 528] = 0\n 16002: ra = 552, jump @4\n      : @538 [@dyn 276] (gas: 3)\n 16008: a1 = 0x80\n 16012: a0 = u64 [s1 + 0x1b8]\n 16016: ra = 554, jump @16\n      : @539 [@dyn 277] (gas: 5)\n 16022: i32 a1 = a0 + 0\n 16024: a2 = 0x80\n 16028: a0 = 0\n 16030: ecalli 12 // 'seal_return'\n 16032: jump @699\n      : @540 (gas: 1)\n 16035: t0 = 556, jump @1625\n      : @541 [@dyn 278] (gas: 1)\n 16041: jump @543 if a1 <u a0\n      : @542 (gas: 1)\n 16044: jump @1179\n      : @543 (gas: 24)\n 16047: a0 = s1 + 0x4000\n 16051: i32 a0 = a0 + 0xfffffffffffffee0\n 16055: a1 = 0x4\n 16058: ecalli 2 // 'call_data_load'\n 16060: a0 = s1 + 0x3938\n 16064: a5 = a0 + 0x500\n 16068: a4 = u64 [a5 + 0xc0]\n 16072: a3 = u64 [a5 + 0xb8]\n 16076: a1 = u64 [a5 + 0xb0]\n 16080: a2 = u64 [a5 + 0xa8]\n 16084: a0 = s1 + 0x1938\n 16088: a5 = s1 + 0x100\n 16092: u64 [a5 + 0xa0] = a4\n 16096: u64 [a0 + 0x540] = a4\n 16100: u64 [a5 + 0xa8] = a3\n 16104: a4 = a0 + 0x500\n 16108: u64 [a4 + 0x38] = a3\n 16111: u64 [a5 + 0xb0] = a1\n 16115: u64 [a4 + 0x30] = a1\n 16118: a1 = s1 + 0x1e60\n 16122: u64 [a5 + 0xb8] = a2\n 16126: u64 [a4 + 0x28] = a2\n 16129: a0 = 0\n 16131: ra = 558, jump @4\n      : @544 [@dyn 279] (gas: 9)\n 16137: a0 = s1 + 0x1938\n 16141: u64 [a0 + 1312] = 0\n 16145: u64 [a0 + 1304] = 0\n 16149: u64 [a0 + 1296] = 0\n 16153: a3 = a0\n 16155: a0 = 0x20\n 16158: a1 = s1 + 0x1e40\n 16162: u64 [a3 + 1288] = 0x2\n 16167: ra = 560, jump @4\n      : @545 [@dyn 280] (gas: 3)\n 16173: a1 = 0x20194\n 16178: a0 = i32 [0x20194]\n 16183: jump @547 if a0 >u 63\n      : @546 (gas: 2)\n 16187: u32 [0x20194] = 0x40\n 16193: fallthrough\n      : @547 (gas: 15)\n 16194: a0 = sp + 0xffffffffffffffe0\n 16197: a2 = a0 & 0xffffffffffffffe0\n 16200: u64 [s1 + 0x188] = a2\n 16204: sp = a2\n 16206: a0 = 0x201a0\n 16211: i32 a0 = a0 + 0\n 16213: u64 [s1 + 0x190] = a1\n 16217: i32 a2 = a2 + 0\n 16219: a1 = 0x40\n 16222: u64 [s1 + 0x198] = a0\n 16226: ra = 0x232\n 16230: ecalli 7 // 'hash_keccak_256'\n 16232: a3 = u64 [s1 + 0x188]\n 16236: t0 = 0x234\n 16240: jump @1574\n      : @548 [@dyn 281] (gas: 2)\n 16243: a3 = u64 [s1 + 0x188]\n 16247: t0 = 564, jump @1574\n      : @549 [@dyn 282] (gas: 8)\n 16253: a5 = a4 + 0x500\n 16257: u64 [a5 + 0xe0] = a3\n 16261: u64 [a5 + 0xd8] = a2\n 16265: u64 [a5 + 0xd0] = a1\n 16269: u64 [a5 + 0xc8] = a0\n 16273: a0 = s1 + 0x1e20\n 16277: a1 = s1 + 0x3f00\n 16281: ra = 566, jump @6\n      : @550 [@dyn 283] (gas: 25)\n 16287: a4 = s1 + 0x1938\n 16291: a0 = u64 [a4 + 0x500]\n 16295: a1 = u64 [a4 + 0x4f0]\n 16299: a2 = u64 [a4 + 0x4e8]\n 16303: a3 = u64 [a4 + 0x4f8]\n 16307: a5 = u64 [s1 + 0x1a0]\n 16311: a0 = a0 ^ a5\n 16314: a5 = u64 [s1 + 0x1b0]\n 16318: a1 = a1 ^ a5\n 16321: a0 = a0 | a1\n 16324: a1 = u64 [s1 + 0x1a8]\n 16328: a1 = a1 ^ a3\n 16331: a3 = u64 [s1 + 0x1b8]\n 16335: a2 = a2 ^ a3\n 16338: a1 = a1 | a2\n 16341: a0 = a0 | a1\n 16344: a0 = a0 <u 0x1\n 16347: u64 [a4 + 1248] = 0\n 16351: u64 [a4 + 1240] = 0\n 16355: u64 [a4 + 0x4c8] = a0\n 16359: a0 = s1 + 0x1e00\n 16363: u64 [a4 + 1232] = 0\n 16367: ra = 0x238\n 16371: t0 = 0x610\n 16375: jump @1586\n      : @551 [@dyn 284] (gas: 13)\n 16378: a0 = s1 + 0x1938\n 16382: a1 = u64 [s1 + 0x1a0]\n 16386: a3 = a0 + 0x400\n 16390: u64 [a3 + 0xc0] = a1\n 16394: a1 = u64 [s1 + 0x1a8]\n 16398: u64 [a3 + 0xb8] = a1\n 16402: a1 = u64 [s1 + 0x1b0]\n 16406: u64 [a3 + 0xb0] = a1\n 16410: a1 = s1 + 0x1de0\n 16414: a2 = u64 [s1 + 0x1b8]\n 16418: u64 [a3 + 0xa8] = a2\n 16422: a0 = 0\n 16424: ra = 570, jump @4\n      : @552 [@dyn 285] (gas: 3)\n 16430: t0 = 0x23c\n 16434: a1 = s1 + 0x1938\n 16438: fallthrough\n      : @553 [@dyn 286] (gas: 8)\n 16439: u64 [a1 + 1184] = 0\n 16443: u64 [a1 + 1176] = 0\n 16447: u64 [a1 + 1160] = 0x2\n 16452: a2 = a1\n 16454: a0 = 0x20\n 16457: a1 = s1 + 0x1dc0\n 16461: u64 [a2 + 1168] = 0\n 16465: ra = 574, jump @4\n      : @554 [@dyn 287] (gas: 3)\n 16471: a1 = u64 [s1 + 0x190]\n 16475: a0 = i32 [a1]\n 16477: jump @556 if a0 >u 63\n      : @555 (gas: 3)\n 16481: u32 [a1 + 0] = 0x40\n 16484: t0 = 0x240\n 16488: jump @1576\n      : @556 (gas: 1)\n 16491: t0 = 576, jump @1576\n      : @557 [@dyn 288] (gas: 5)\n 16497: ra = 0x242\n 16501: ecalli 7 // 'hash_keccak_256'\n 16503: a3 = u64 [s1 + 0x188]\n 16507: t0 = 0x244\n 16511: jump @1563\n      : @558 [@dyn 289] (gas: 2)\n 16514: a3 = u64 [s1 + 0x188]\n 16518: t0 = 580, jump @1563\n      : @559 [@dyn 290] (gas: 8)\n 16524: a3 = a1 + 0x500\n 16528: u64 [a3 + 0xe8] = a4\n 16532: u64 [a3 + 0xf0] = a5\n 16536: u64 [a3 + 0xf8] = a2\n 16540: u64 [a1 + 0x600] = a0\n 16544: a0 = s1 + 0x1da0\n 16548: a1 = s1 + 0x3f20\n 16552: ra = 582, jump @6\n      : @560 [@dyn 291] (gas: 3)\n 16558: t0 = 0x248\n 16562: a2 = s1 + 0x1938\n 16566: fallthrough\n      : @561 [@dyn 292] (gas: 2)\n 16567: a0 = u8 [a2 + 0x47c]\n 16571: jump @563 if a0 <=u 3\n      : @562 (gas: 1)\n 16575: jump @1180\n      : @563 (gas: 1)\n 16578: jump @578 if a0 == 1\n      : @564 (gas: 12)\n 16583: a0 = u64 [s1 + 0x1b8]\n 16587: a3 = a2 + 0x400\n 16591: u64 [a3 + 0x48] = a0\n 16594: a0 = u64 [s1 + 0x1b0]\n 16598: u64 [a3 + 0x50] = a0\n 16601: a0 = u64 [s1 + 0x1a8]\n 16605: u64 [a3 + 0x58] = a0\n 16608: a1 = s1 + 0x1d80\n 16612: a0 = u64 [s1 + 0x1a0]\n 16616: u64 [a3 + 0x60] = a0\n 16619: a0 = 0\n 16621: ra = 586, jump @4\n      : @565 [@dyn 293] (gas: 3)\n 16627: t0 = 0x24c\n 16631: a1 = s1 + 0x1938\n 16635: fallthrough\n      : @566 [@dyn 294] (gas: 8)\n 16636: u64 [a1 + 1088] = 0\n 16640: u64 [a1 + 1080] = 0\n 16644: u64 [a1 + 1064] = 0x2\n 16649: a2 = a1\n 16651: a0 = 0x20\n 16654: a1 = s1 + 0x1d60\n 16658: u64 [a2 + 1072] = 0\n 16662: ra = 590, jump @4\n      : @567 [@dyn 295] (gas: 3)\n 16668: a2 = u64 [s1 + 0x190]\n 16672: a0 = i32 [a2]\n 16674: jump @569 if a0 >u 63\n      : @568 (gas: 3)\n 16678: u32 [a2 + 0] = 0x40\n 16681: t0 = 0x250\n 16685: jump @1576\n      : @569 (gas: 1)\n 16688: t0 = 592, jump @1576\n      : @570 [@dyn 296] (gas: 5)\n 16694: ra = 0x252\n 16698: ecalli 7 // 'hash_keccak_256'\n 16700: a3 = u64 [s1 + 0x188]\n 16704: t0 = 0x254\n 16708: jump @1563\n      : @571 [@dyn 297] (gas: 2)\n 16711: a3 = u64 [s1 + 0x188]\n 16715: t0 = 596, jump @1563\n      : @572 [@dyn 298] (gas: 8)\n 16721: a3 = a1 + 0x600\n 16725: u64 [a3 + 0x8] = a4\n 16728: u64 [a3 + 0x10] = a5\n 16731: u64 [a3 + 0x18] = a2\n 16734: u64 [a3 + 0x20] = a0\n 16737: a0 = s1 + 0x1d40\n 16741: a1 = s1 + 0x3f40\n 16745: ra = 598, jump @6\n      : @573 [@dyn 299] (gas: 3)\n 16751: t0 = 0x258\n 16755: a2 = s1 + 0x1938\n 16759: fallthrough\n      : @574 [@dyn 300] (gas: 2)\n 16760: a0 = u8 [a2 + 0x41c]\n 16764: jump @576 if a0 <=u 3\n      : @575 (gas: 1)\n 16768: jump @1219\n      : @576 (gas: 1)\n 16771: jump @578 if a0 == 2\n      : @577 (gas: 1)\n 16775: jump @956\n      : @578 (gas: 10)\n 16778: a0 = s1 + 0x3938\n 16782: u64 [a0 + 1600] = 0\n 16786: u64 [a0 + 1592] = 0\n 16790: u64 [a0 + 1584] = 0\n 16794: u64 [a0 + 1576] = 0\n 16798: a0 = s1 + 0x4000\n 16802: i32 a0 = a0 + 0xffffffffffffff60\n 16806: ra = 0x25a\n 16810: ecalli 15 // 'value_transferred'\n 16812: fallthrough\n      : @579 [@dyn 301] (gas: 3)\n 16813: a3 = s1 + 0x3938\n 16817: a4 = a3 + 0x600\n 16821: t0 = 604, jump @1608\n      : @580 [@dyn 302] (gas: 1)\n 16827: jump @582 if a0 == 0\n      : @581 (gas: 1)\n 16830: jump @779\n      : @582 (gas: 3)\n 16833: a0 = s1 + 0x1640\n 16837: a1 = 0x40\n 16840: ra = 606, jump @2\n      : @583 [@dyn 303] (gas: 14)\n 16846: a2 = s1 + 0x1138\n 16850: t0 = u64 [a2 + 0x520]\n 16854: a1 = a2 + 0x500\n 16858: a5 = u64 [a1 + 0x18]\n 16861: a4 = u64 [a1 + 0x10]\n 16864: a0 = u64 [a1 + 0x8]\n 16867: a3 = a4 | t0\n 16870: a1 = a0 | a5\n 16873: a1 = a1 | a3\n 16876: a1 = a1 >> 0x20\n 16879: a3 = a3 | a5\n 16882: a3 = a3 << 0x20\n 16885: a1 = a1 | a3\n 16888: jump @585 if a1 == 0\n      : @584 (gas: 1)\n 16891: jump @993\n      : @585 (gas: 11)\n 16894: u64 [a2 + 1272] = 0\n 16898: u64 [a2 + 1264] = 0\n 16902: u64 [a2 + 1256] = 0\n 16906: a3 = 0x8c379a000000000\n 16916: a1 = s1 + 0x1620\n 16920: u64 [a2 + 0x500] = a3\n 16924: u64 [s1 + 0x1b8] = a0\n 16928: u64 [s1 + 0x1b0] = a4\n 16932: u64 [s1 + 0x1a0] = t0\n 16936: u64 [s1 + 0x1a8] = a5\n 16940: ra = 608, jump @4\n      : @586 [@dyn 304] (gas: 1)\n 16946: t0 = 610, jump @1561\n      : @587 [@dyn 305] (gas: 1)\n 16952: jump @589 if a0 != 0\n      : @588 (gas: 1)\n 16955: jump @993\n      : @589 (gas: 10)\n 16958: i32 a0 = a1 + 0x4\n 16961: a2 = s1 + 0x1138\n 16965: u64 [a2 + 1248] = 0\n 16969: u64 [a2 + 1240] = 0\n 16973: u64 [a2 + 1224] = 0x20\n 16978: a1 = s1 + 0x1600\n 16982: u64 [a2 + 1232] = 0\n 16986: u64 [s1 + 0x1a8] = a3\n 16990: u64 [s1 + 0x1a0] = a4\n 16994: ra = 612, jump @4\n      : @590 [@dyn 306] (gas: 10)\n 17000: a3 = s1 + 0x100\n 17004: a1 = u64 [a3 + 0xb8]\n 17008: a0 = u64 [a3 + 0xa0]\n 17012: a0 = a0 + 0xffffffffffffffdc\n 17015: a0 = a1 <u a0\n 17018: a2 = u64 [a3 + 0xb0]\n 17022: a0 = 0 if a2 != 0\n 17024: a2 = u64 [a3 + 0xa8]\n 17028: a0 = 0 if a2 != 0\n 17030: jump @592 if a0 != 0\n      : @591 (gas: 1)\n 17033: jump @993\n      : @592 (gas: 8)\n 17036: i32 a0 = a1 + 0x24\n 17039: a2 = s1 + 0x1138\n 17043: u64 [a2 + 1216] = 0\n 17047: u64 [a2 + 1208] = 0\n 17051: u64 [a2 + 1192] = 0x21\n 17056: a1 = s1 + 0x15e0\n 17060: u64 [a2 + 1200] = 0\n 17064: ra = 614, jump @4\n      : @593 [@dyn 307] (gas: 10)\n 17070: a0 = s1 + 0x100\n 17074: a3 = u64 [a0 + 0xa8]\n 17078: a4 = u64 [a0 + 0xb0]\n 17082: a1 = u64 [a0 + 0xb8]\n 17086: a2 = 0x100000000\n 17096: a0 = 0xffffffbc\n 17106: a0 = a1 <u a0\n 17109: a0 = 0 if a4 != 0\n 17111: a0 = 0 if a3 != 0\n 17113: jump @595 if a0 != 0\n      : @594 (gas: 1)\n 17116: jump @993\n      : @595 (gas: 14)\n 17119: i32 a0 = a1 + 0x44\n 17122: a1 = u64 [0x200c0]\n 17127: u64 [s1 + 0x1a0] = a2\n 17131: a5 = s1 + 0x1138\n 17135: a4 = a5 + 0x400\n 17139: u64 [a4 + 0xa0] = a1\n 17143: a1 = u64 [0x200c8]\n 17148: a2 = u64 [0x200d0]\n 17153: a3 = u64 [0x200d8]\n 17158: u64 [a4 + 0x98] = a1\n 17162: u64 [a4 + 0x90] = a2\n 17166: a1 = s1 + 0x15c0\n 17170: u64 [a4 + 0x88] = a3\n 17174: ra = 616, jump @4\n      : @596 [@dyn 308] (gas: 10)\n 17180: a3 = s1 + 0x100\n 17184: a2 = u64 [a3 + 0xb8]\n 17188: a0 = u64 [a3 + 0xa0]\n 17192: a0 = a0 + 0xffffffffffffff9c\n 17195: a0 = a2 <u a0\n 17198: a1 = u64 [a3 + 0xb0]\n 17202: a0 = 0 if a1 != 0\n 17204: a1 = u64 [a3 + 0xa8]\n 17208: a0 = 0 if a1 != 0\n 17210: jump @598 if a0 != 0\n      : @597 (gas: 1)\n 17213: jump @993\n      : @598 (gas: 9)\n 17216: i32 a0 = a2 + 0x64\n 17219: a3 = s1 + 0x1138\n 17223: u64 [a3 + 1144] = 0\n 17227: u64 [a3 + 1136] = 0\n 17231: a1 = 0x3000000000000000\n 17241: u64 [a3 + 0x480] = a1\n 17245: a1 = s1 + 0x15a0\n 17249: u64 [a3 + 1128] = 0\n 17253: ra = 618, jump @4\n      : @599 [@dyn 309] (gas: 3)\n 17259: a1 = 0x84\n 17263: a0 = u64 [s1 + 0x1b8]\n 17267: ra = 620, jump @16\n      : @600 [@dyn 310] (gas: 5)\n 17273: i32 a1 = a0 + 0\n 17275: a0 = 0x1\n 17278: a2 = 0x84\n 17282: ecalli 12 // 'seal_return'\n 17284: fallthrough\n      : @601 (gas: 9)\n 17285: a0 = s1 + 0x3938\n 17289: u64 [a0 + 32] = 0\n 17292: u64 [a0 + 24] = 0\n 17295: u64 [a0 + 16] = 0\n 17298: u64 [a0 + 8] = 0\n 17301: a0 = s1 + 0x4000\n 17305: i32 a0 = a0 + 0xfffffffffffff940\n 17309: ecalli 15 // 'value_transferred'\n 17311: fallthrough\n      : @602 (gas: 9)\n 17312: a3 = s1 + 0x3938\n 17316: a0 = u64 [a3 + 0x18]\n 17319: a1 = u64 [a3 + 0x20]\n 17322: a2 = u64 [a3 + 0x10]\n 17325: a3 = u64 [a3 + 0x8]\n 17328: a1 = a1 | a2\n 17331: a0 = a0 | a3\n 17334: a0 = a0 | a1\n 17337: jump @604 if a0 == 0\n      : @603 (gas: 1)\n 17340: jump @1183\n      : @604 (gas: 3)\n 17343: a0 = u64 [s1 + 0x1b8]\n 17347: a0 = i32 [a0]\n 17349: jump @606 if a0 >u 3\n      : @605 (gas: 1)\n 17353: jump @1184\n      : @606 (gas: 4)\n 17356: a0 = s1 + 0x7ff\n 17360: a0 = a0 + 0x1a1\n 17364: a1 = 0x40\n 17367: ra = 622, jump @2\n      : @607 [@dyn 311] (gas: 7)\n 17373: a3 = s1 + 0x7ff\n 17377: a3 = a3 + 0x131\n 17381: a4 = u64 [a3 + 0x88]\n 17385: a1 = u64 [a3 + 0x80]\n 17389: a2 = u64 [a3 + 0x78]\n 17392: a0 = u64 [a3 + 0x70]\n 17395: t0 = 624, jump @1593\n      : @608 [@dyn 312] (gas: 1)\n 17401: jump @610 if a1 == 0\n      : @609 (gas: 1)\n 17404: jump @993\n      : @610 (gas: 9)\n 17407: u64 [a3 + 104] = 0\n 17410: u64 [a3 + 96] = 0\n 17413: u64 [a3 + 80] = 0xa\n 17417: a1 = s1 + 0x7ff\n 17421: a1 = a1 + 0x181\n 17425: u64 [a3 + 88] = 0\n 17428: u64 [s1 + 0x1b8] = a0\n 17432: ra = 0x2ca\n 17436: jump @4\n      : @611 (gas: 11)\n 17439: u64 [a2 + 1088] = 0\n 17443: u64 [a2 + 1080] = 0\n 17447: u64 [a2 + 1072] = 0\n 17451: u64 [a2 + 1064] = 0\n 17455: a0 = s1 + 0x4000\n 17459: i32 a0 = a0 + 0x560\n 17463: ra = 0x272\n 17467: ecalli 15 // 'value_transferred'\n 17469: a0 = 0x4000\n 17473: t0 = 0x274\n 17477: jump @1607\n      : @612 [@dyn 313] (gas: 2)\n 17480: a0 = 0x4000\n 17484: t0 = 628, jump @1607\n      : @613 [@dyn 314] (gas: 1)\n 17490: t0 = 630, jump @1608\n      : @614 [@dyn 315] (gas: 1)\n 17496: jump @616 if a0 == 0\n      : @615 (gas: 1)\n 17499: jump @1185\n      : @616 (gas: 3)\n 17502: a0 = u64 [s1 + 0x1b8]\n 17506: a0 = i32 [a0]\n 17508: jump @618 if a0 >u 3\n      : @617 (gas: 1)\n 17512: jump @1186\n      : @618 (gas: 3)\n 17515: a0 = s1 + 0x32a0\n 17519: a1 = 0x40\n 17522: ra = 632, jump @2\n      : @619 [@dyn 316] (gas: 7)\n 17528: a3 = s1 + 0x3138\n 17532: a5 = a3 + 0x100\n 17536: a4 = u64 [a5 + 0x80]\n 17540: a1 = u64 [a5 + 0x78]\n 17543: a2 = u64 [a5 + 0x70]\n 17546: a0 = u64 [a5 + 0x68]\n 17549: t0 = 634, jump @1593\n      : @620 [@dyn 317] (gas: 1)\n 17555: jump @622 if a1 == 0\n      : @621 (gas: 1)\n 17558: jump @993\n      : @622 (gas: 8)\n 17561: u64 [a3 + 352] = 0\n 17565: u64 [a3 + 344] = 0\n 17569: u64 [a3 + 328] = 0x5a\n 17574: a1 = s1 + 0x3280\n 17578: u64 [a3 + 336] = 0\n 17582: u64 [s1 + 0x1b8] = a0\n 17586: ra = 0x2ca\n 17590: jump @4\n      : @623 (gas: 8)\n 17593: u64 [a3 + 1728] = 0\n 17597: u64 [a3 + 1720] = 0\n 17601: u64 [a3 + 1712] = 0\n 17605: u64 [a3 + 1704] = 0\n 17609: a0 = s1 + 0x3000\n 17613: i32 a0 = a0 + 0x7e0\n 17617: ecalli 15 // 'value_transferred'\n 17619: fallthrough\n      : @624 (gas: 10)\n 17620: a4 = s1 + 0x3138\n 17624: a5 = a4 + 0x600\n 17628: a0 = u64 [a5 + 0xb8]\n 17632: a1 = u64 [a5 + 0xc0]\n 17636: a2 = u64 [a5 + 0xb0]\n 17640: a3 = u64 [a5 + 0xa8]\n 17644: a1 = a1 | a2\n 17647: a0 = a0 | a3\n 17650: a0 = a0 | a1\n 17653: jump @626 if a0 == 0\n      : @625 (gas: 1)\n 17656: jump @1187\n      : @626 (gas: 3)\n 17659: a0 = u64 [s1 + 0x1b8]\n 17663: a0 = i32 [a0]\n 17665: jump @628 if a0 >u 3\n      : @627 (gas: 1)\n 17669: jump @1188\n      : @628 (gas: 8)\n 17672: u64 [a4 + 1760] = 0\n 17676: u64 [a4 + 1752] = 0\n 17680: u64 [a4 + 1744] = 0\n 17684: u64 [a4 + 1736] = 0\n 17688: a0 = s1 + 0x7ff\n 17692: a0 = a0 + 0x161\n 17696: a1 = s1 + 0x3800\n 17700: ra = 636, jump @6\n      : @629 [@dyn 318] (gas: 44)\n 17706: a0 = s1 + 0x7ff\n 17710: a0 = a0 + 0x131\n 17714: a1 = u64 [a0 + 0x38]\n 17717: u64 [s1 + 0x1b8] = a1\n 17721: a1 = u64 [a0 + 0x30]\n 17724: u64 [s1 + 0x1b0] = a1\n 17728: a0 = u32 [a0 + 0x40]\n 17731: u64 [s1 + 0x1a8] = a0\n 17735: a0 = 0x301a0\n 17740: u64 [s1 + 0x160] = a0\n 17744: i32 a0 = a0 + 0\n 17746: ecalli 4 // 'caller'\n 17748: a2 = u64 [s1 + 0x160]\n 17752: a0 = u64 [a2 + 0x8]\n 17755: a1 = u64 [a2]\n 17757: a2 = i32 [a2 + 0x10]\n 17760: a0 = reverse a0\n 17762: a3 = a0 >> 0x20\n 17765: a1 = reverse a1\n 17767: a4 = a1 << 0x20\n 17770: a3 = a3 | a4\n 17773: a0 = a0 << 0x20\n 17776: a2 = reverse a2\n 17778: a2 = a2 >> 0x20\n 17781: a0 = a0 | a2\n 17784: a1 = a1 >> 0x20\n 17787: a2 = u64 [s1 + 0x1a8]\n 17791: a1 = a1 ^ a2\n 17794: a2 = u64 [s1 + 0x1b0]\n 17798: a0 = a0 ^ a2\n 17801: a0 = a0 | a1\n 17804: a1 = u64 [s1 + 0x1b8]\n 17808: a1 = a1 ^ a3\n 17811: a0 = a0 | a1\n 17814: a0 = a0 <u 0x1\n 17817: a1 = s1 + 0x7ff\n 17821: a1 = a1 + 0x131\n 17825: u64 [a1 + 40] = 0\n 17828: u64 [a1 + 32] = 0\n 17831: u64 [a1 + 0x10] = a0\n 17834: a0 = s1 + 0x7ff\n 17838: a0 = a0 + 0x141\n 17842: u64 [a1 + 24] = 0\n 17845: ra = 638, jump @1353\n      : @630 [@dyn 319] (gas: 11)\n 17851: u64 [s1 + 384] = 0\n 17855: u64 [s1 + 376] = 0\n 17859: u64 [s1 + 368] = 0\n 17863: u64 [s1 + 360] = 0\n 17867: u64 [s1 + 424] = 0\n 17871: u64 [s1 + 432] = 0\n 17875: u64 [s1 + 440] = 0\n 17879: a0 = 0x20194\n 17884: u64 [s1 + 0x198] = a0\n 17888: a0 = 0x1\n 17891: fallthrough\n      : @631 (gas: 10)\n 17892: u64 [s1 + 0x1a0] = a0\n 17896: a0 = s1 + 0x3138\n 17900: u64 [a0 + 1792] = 0\n 17904: u64 [a0 + 1784] = 0\n 17908: u64 [a0 + 1776] = 0\n 17912: u64 [a0 + 1768] = 0x1\n 17917: a0 = s1 + 0x7ff\n 17921: a0 = a0 + 0x121\n 17925: a1 = s1 + 0x3820\n 17929: ra = 640, jump @6\n      : @632 [@dyn 320] (gas: 24)\n 17935: a0 = s1 + 0x1000\n 17939: a0 = u64 [a0 + 0xfffffffffffff928]\n 17943: a1 = s1 + 0x1000\n 17947: a1 = u64 [a1 + 0xfffffffffffff920]\n 17951: a3 = s1 + 0x7ff\n 17955: a3 = a3 + 0x131\n 17959: t0 = u64 [a3]\n 17961: a3 = u64 [a3 + 0x8]\n 17964: t1 = u64 [s1 + 0x1a8]\n 17968: a4 = t1 ^ a0\n 17971: a0 = a0 <u t1\n 17974: t2 = u64 [s1 + 0x1a0]\n 17978: a1 = a1 <u t2\n 17981: a1 = a0 if a4 != 0\n 17984: a5 = u64 [s1 + 0x1b8]\n 17988: a0 = a5 ^ a3\n 17991: a2 = a3 <u a5\n 17994: a3 = u64 [s1 + 0x1b0]\n 17998: a4 = t0 <u a3\n 18001: a4 = a2 if a0 != 0\n 18004: a2 = a3 ^ t0\n 18007: a0 = a0 | a2\n 18010: a1 = a4 if a0 != 0\n 18013: jump @715 if a1 != 0\n      : @633 (gas: 12)\n 18017: a1 = s1 + 0x1000\n 18021: u64 [a1 + 0xfffffffffffff900] = t2\n 18025: a1 = s1 + 0x1000\n 18029: u64 [a1 + 0xfffffffffffff908] = t1\n 18033: a1 = s1 + 0x1000\n 18037: u64 [a1 + 0xfffffffffffff910] = a3\n 18041: a1 = s1 + 0x7ff\n 18045: a1 = a1 + 0x101\n 18049: a2 = s1 + 0x1000\n 18053: u64 [a2 + 0xfffffffffffff918] = a5\n 18057: a0 = 0\n 18059: ra = 642, jump @4\n      : @634 [@dyn 321] (gas: 12)\n 18065: a0 = s1 + 0x1000\n 18069: u64 [a0 + 4294965496] = 0\n 18073: a0 = s1 + 0x1000\n 18077: u64 [a0 + 4294965488] = 0\n 18081: a0 = s1 + 0x1000\n 18085: u64 [a0 + 4294965480] = 0\n 18089: a0 = 0x20\n 18092: a1 = s1 + 0x7ff\n 18096: a1 = a1 + 0xe1\n 18100: a3 = s1 + 0x1000\n 18104: u64 [a3 + 4294965472] = 0x2\n 18109: ra = 644, jump @4\n      : @635 [@dyn 322] (gas: 3)\n 18115: a1 = u64 [s1 + 0x198]\n 18119: a0 = i32 [a1]\n 18121: jump @637 if a0 >u 63\n      : @636 (gas: 2)\n 18125: u32 [a1 + 0] = 0x40\n 18128: fallthrough\n      : @637 (gas: 12)\n 18129: a0 = sp + 0xffffffffffffffe0\n 18132: a2 = a0 & 0xffffffffffffffe0\n 18135: u64 [s1 + 0x188] = a2\n 18139: sp = a2\n 18141: a0 = 0x201a0\n 18146: i32 a0 = a0 + 0\n 18148: i32 a2 = a2 + 0\n 18150: a1 = 0x40\n 18153: u64 [s1 + 0x190] = a0\n 18157: ra = 0x286\n 18161: ecalli 7 // 'hash_keccak_256'\n 18163: fallthrough\n      : @638 [@dyn 323] (gas: 6)\n 18164: a3 = u64 [s1 + 0x188]\n 18168: a0 = u64 [a3]\n 18170: a1 = u64 [a3 + 0x8]\n 18173: a2 = u64 [a3 + 0x10]\n 18176: a3 = u64 [a3 + 0x18]\n 18179: t0 = 648, jump @1606\n      : @639 [@dyn 324] (gas: 18)\n 18185: a4 = a3 + 0x8\n 18188: a3 = a4 <u a3\n 18191: a5 = a2 + a3\n 18194: a2 = a5 <u a2\n 18197: a2 = a3 if a3 == 0\n 18200: a2 = a2 + a1\n 18203: a1 = a2 <u a1\n 18206: a0 = a0 + a1\n 18209: a1 = s1 + 0x3138\n 18213: a3 = a1 + 0x700\n 18217: u64 [a3 + 0x8] = a4\n 18220: u64 [a3 + 0x10] = a5\n 18223: u64 [a3 + 0x18] = a2\n 18226: u64 [a3 + 0x20] = a0\n 18229: a0 = s1 + 0x7ff\n 18233: a0 = a0 + 0xc1\n 18237: a1 = s1 + 0x3840\n 18241: ra = 650, jump @6\n      : @640 [@dyn 325] (gas: 3)\n 18247: a0 = s1 + 0x1000\n 18251: a0 = u8 [a0 + 0xfffffffffffff8c0]\n 18255: jump @658 if a0 == 0\n      : @641 (gas: 16)\n 18259: a0 = u64 [s1 + 0x1a0]\n 18263: a1 = s1 + 0x1000\n 18267: u64 [a1 + 0xfffffffffffff8a0] = a0\n 18271: a0 = u64 [s1 + 0x1a8]\n 18275: a1 = s1 + 0x1000\n 18279: u64 [a1 + 0xfffffffffffff8a8] = a0\n 18283: a0 = u64 [s1 + 0x1b0]\n 18287: a1 = s1 + 0x1000\n 18291: u64 [a1 + 0xfffffffffffff8b0] = a0\n 18295: a1 = s1 + 0x7ff\n 18299: a1 = a1 + 0xa1\n 18303: a0 = u64 [s1 + 0x1b8]\n 18307: a2 = s1 + 0x1000\n 18311: u64 [a2 + 0xfffffffffffff8b8] = a0\n 18315: a0 = 0\n 18317: ra = 652, jump @4\n      : @642 [@dyn 326] (gas: 12)\n 18323: a0 = s1 + 0x1000\n 18327: u64 [a0 + 4294965400] = 0\n 18331: a0 = s1 + 0x1000\n 18335: u64 [a0 + 4294965392] = 0\n 18339: a0 = s1 + 0x1000\n 18343: u64 [a0 + 4294965384] = 0\n 18347: a0 = 0x20\n 18350: a1 = s1 + 0x7ff\n 18354: a1 = a1 + 0x81\n 18358: a3 = s1 + 0x1000\n 18362: u64 [a3 + 4294965376] = 0x2\n 18367: ra = 654, jump @4\n      : @643 [@dyn 327] (gas: 3)\n 18373: a1 = u64 [s1 + 0x198]\n 18377: a0 = i32 [a1]\n 18379: jump @645 if a0 >u 63\n      : @644 (gas: 3)\n 18383: u32 [a1 + 0] = 0x40\n 18386: t0 = 0x290\n 18390: jump @1619\n      : @645 (gas: 1)\n 18393: t0 = 656, jump @1619\n      : @646 [@dyn 328] (gas: 4)\n 18399: ra = 0x292\n 18403: ecalli 7 // 'hash_keccak_256'\n 18405: t0 = 0x294\n 18409: jump @1570\n      : @647 [@dyn 329] (gas: 1)\n 18412: t0 = 660, jump @1570\n      : @648 [@dyn 330] (gas: 8)\n 18418: u64 [a3 + 0x28] = a4\n 18421: u64 [a3 + 0x30] = a5\n 18424: u64 [a3 + 0x38] = a2\n 18427: u64 [a3 + 0x40] = a0\n 18430: a0 = s1 + 0x7ff\n 18434: a0 = a0 + 0x61\n 18437: a1 = s1 + 0x3860\n 18441: ra = 662, jump @6\n      : @649 [@dyn 331] (gas: 35)\n 18447: a0 = s1 + 0x1000\n 18451: a0 = u64 [a0 + 0xfffffffffffff860]\n 18455: a1 = s1 + 0x1000\n 18459: a1 = u64 [a1 + 0xfffffffffffff868]\n 18463: a2 = s1 + 0x1000\n 18467: a2 = u64 [a2 + 0xfffffffffffff870]\n 18471: a3 = s1 + 0x1000\n 18475: a3 = u64 [a3 + 0xfffffffffffff878]\n 18479: a4 = s1 + 0x1000\n 18483: u64 [a4 + 0xfffffffffffff818] = a3\n 18487: a3 = s1 + 0x1000\n 18491: u64 [a3 + 0xfffffffffffff810] = a2\n 18495: a2 = s1 + 0x1000\n 18499: u64 [a2 + 0xfffffffffffff808] = a1\n 18503: a1 = s1 + 0x1000\n 18507: u64 [a1 + 0xfffffffffffff800] = a0\n 18511: a0 = u64 [s1 + 0x168]\n 18515: a1 = s1 + 0x1000\n 18519: u64 [a1 + 0xfffffffffffff838] = a0\n 18523: a0 = u64 [s1 + 0x170]\n 18527: a1 = s1 + 0x1000\n 18531: u64 [a1 + 0xfffffffffffff830] = a0\n 18535: a0 = u64 [s1 + 0x178]\n 18539: a1 = s1 + 0x1000\n 18543: u64 [a1 + 0xfffffffffffff828] = a0\n 18547: a0 = s1 + 0x7ff\n 18551: a0 = a0 + 0x41\n 18554: a1 = s1 + 0x7ff\n 18558: a1 = a1 + 0x21\n 18561: a2 = s1 + 0x7ff\n 18565: a2 = a2 + 0x1\n 18568: a3 = u64 [s1 + 0x180]\n 18572: a4 = s1 + 0x1000\n 18576: u64 [a4 + 0xfffffffffffff820] = a3\n 18580: ra = 664, jump @1380\n      : @650 [@dyn 332] (gas: 23)\n 18586: a0 = s1 + 0x1000\n 18590: a0 = u64 [a0 + 0xfffffffffffff858]\n 18594: u64 [s1 + 0x168] = a0\n 18598: a0 = s1 + 0x1000\n 18602: a0 = u64 [a0 + 0xfffffffffffff850]\n 18606: u64 [s1 + 0x170] = a0\n 18610: a0 = s1 + 0x1000\n 18614: a0 = u64 [a0 + 0xfffffffffffff848]\n 18618: u64 [s1 + 0x178] = a0\n 18622: a0 = s1 + 0x1000\n 18626: a0 = u64 [a0 + 0xfffffffffffff840]\n 18630: u64 [s1 + 0x180] = a0\n 18634: a0 = u64 [s1 + 0x1b8]\n 18638: u64 [s1 + 0x7f8] = a0\n 18642: a0 = u64 [s1 + 0x1b0]\n 18646: u64 [s1 + 0x7f0] = a0\n 18650: a0 = u64 [s1 + 0x1a8]\n 18654: u64 [s1 + 0x7e8] = a0\n 18658: a1 = s1 + 0x7e0\n 18662: a0 = u64 [s1 + 0x1a0]\n 18666: u64 [s1 + 0x7e0] = a0\n 18670: a0 = 0\n 18672: ra = 666, jump @4\n      : @651 [@dyn 333] (gas: 7)\n 18678: u64 [s1 + 2008] = 0\n 18682: u64 [s1 + 2000] = 0\n 18686: u64 [s1 + 1992] = 0\n 18690: a0 = 0x20\n 18693: a1 = s1 + 0x7c0\n 18697: u64 [s1 + 1984] = 0x2\n 18702: ra = 668, jump @4\n      : @652 [@dyn 334] (gas: 3)\n 18708: a1 = u64 [s1 + 0x198]\n 18712: a0 = i32 [a1]\n 18714: jump @654 if a0 >u 63\n      : @653 (gas: 3)\n 18718: u32 [a1 + 0] = 0x40\n 18721: t0 = 0x29e\n 18725: jump @1619\n      : @654 (gas: 1)\n 18728: t0 = 670, jump @1619\n      : @655 [@dyn 335] (gas: 4)\n 18734: ra = 0x2a0\n 18738: ecalli 7 // 'hash_keccak_256'\n 18740: t0 = 0x2a2\n 18744: jump @1570\n      : @656 [@dyn 336] (gas: 1)\n 18747: t0 = 674, jump @1570\n      : @657 [@dyn 337] (gas: 11)\n 18753: u64 [a3 + 0x48] = a4\n 18756: u64 [a3 + 0x50] = a5\n 18759: u64 [a3 + 0x58] = a2\n 18762: u64 [a3 + 0x60] = a0\n 18765: u64 [a1 + 1920] = 0\n 18769: u64 [a1 + 1912] = 0\n 18773: u64 [a1 + 1904] = 0\n 18777: u64 [a1 + 1896] = 0\n 18781: a0 = s1 + 0x3880\n 18785: a1 = s1 + 0x38a0\n 18789: ra = 676, jump @9\n      : @658 [@dyn 338] (gas: 11)\n 18795: a2 = u64 [s1 + 0x1b8]\n 18799: a0 = u64 [s1 + 0x1b0]\n 18803: a1 = u64 [s1 + 0x1a8]\n 18807: a3 = u64 [s1 + 0x1a0]\n 18811: u64 [s1 + 0x780] = a3\n 18815: u64 [s1 + 0x788] = a1\n 18819: u64 [s1 + 0x790] = a0\n 18823: a0 = s1 + 0x7a0\n 18827: a1 = s1 + 0x780\n 18831: u64 [s1 + 0x798] = a2\n 18835: ra = 678, jump @1372\n      : @659 [@dyn 339] (gas: 10)\n 18841: a1 = s1 + 0x700\n 18845: a0 = u64 [a1 + 0xb8]\n 18849: a2 = s1 + 0x100\n 18853: u64 [a2 + 0xb8] = a0\n 18857: a0 = u64 [a1 + 0xb0]\n 18861: u64 [a2 + 0xb0] = a0\n 18865: a0 = u64 [a1 + 0xa8]\n 18869: u64 [a2 + 0xa8] = a0\n 18873: a0 = u64 [a1 + 0xa0]\n 18877: jump @631\n      : @660 (gas: 9)\n 18880: a0 = s1 + 0x3938\n 18884: u64 [a0 + 1408] = 0\n 18888: u64 [a0 + 1400] = 0\n 18892: u64 [a0 + 1392] = 0\n 18896: u64 [a0 + 1384] = 0\n 18900: a0 = s1 + 0x4000\n 18904: i32 a0 = a0 + 0xfffffffffffffea0\n 18908: ecalli 15 // 'value_transferred'\n 18910: fallthrough\n      : @661 (gas: 10)\n 18911: a4 = s1 + 0x3938\n 18915: a5 = a4 + 0x500\n 18919: a0 = u64 [a5 + 0x78]\n 18922: a1 = u64 [a5 + 0x80]\n 18926: a2 = u64 [a5 + 0x70]\n 18929: a3 = u64 [a5 + 0x68]\n 18932: a1 = a1 | a2\n 18935: a0 = a0 | a3\n 18938: a0 = a0 | a1\n 18941: jump @663 if a0 == 0\n      : @662 (gas: 1)\n 18944: jump @1189\n      : @663 (gas: 3)\n 18947: a0 = u64 [s1 + 0x1b8]\n 18951: a0 = i32 [a0]\n 18953: jump @665 if a0 >u 3\n      : @664 (gas: 1)\n 18957: jump @1190\n      : @665 (gas: 7)\n 18960: u64 [a4 + 1440] = 0\n 18964: u64 [a4 + 1432] = 0\n 18968: u64 [a4 + 1424] = 0\n 18972: u64 [a4 + 1416] = 0\n 18976: a0 = s1 + 0x1540\n 18980: a1 = s1 + 0x3ec0\n 18984: ra = 680, jump @6\n      : @666 [@dyn 340] (gas: 3)\n 18990: t0 = 0x2aa\n 18994: a1 = s1 + 0x1138\n 18998: fallthrough\n      : @667 [@dyn 341] (gas: 11)\n 18999: a2 = a1 + 0x400\n 19003: a0 = u64 [a2 + 0x18]\n 19006: a1 = s1 + 0x100\n 19010: u64 [a1 + 0xa8] = a0\n 19014: a0 = u64 [a2 + 0x10]\n 19017: u64 [a1 + 0xb8] = a0\n 19021: a0 = u64 [a2 + 0x8]\n 19024: u64 [a1 + 0xb0] = a0\n 19028: a0 = s1 + 0x1520\n 19032: a1 = 0x40\n 19035: ra = 684, jump @2\n      : @668 [@dyn 342] (gas: 7)\n 19041: a3 = s1 + 0x1138\n 19045: a4 = u64 [a3 + 0x400]\n 19049: a5 = a3 + 0x300\n 19053: a1 = u64 [a5 + 0xf8]\n 19057: a2 = u64 [a5 + 0xf0]\n 19061: a0 = u64 [a5 + 0xe8]\n 19065: t0 = 686, jump @1593\n      : @669 [@dyn 343] (gas: 1)\n 19071: jump @671 if a1 == 0\n      : @670 (gas: 1)\n 19074: jump @993\n      : @671 (gas: 15)\n 19077: a4 = s1 + 0x100\n 19081: a1 = u64 [a4 + 0xa8]\n 19085: a1 = a1 << 0x20\n 19088: a2 = a1 >> 0x20\n 19091: u64 [a3 + 992] = 0\n 19095: a1 = u64 [a4 + 0xb0]\n 19099: a5 = a3 + 0x300\n 19103: u64 [a5 + 0xc8] = a1\n 19107: a1 = u64 [a4 + 0xb8]\n 19111: u64 [a5 + 0xd0] = a1\n 19115: a1 = s1 + 0x1500\n 19119: u64 [a5 + 0xd8] = a2\n 19123: u64 [s1 + 0x1b8] = a0\n 19127: ra = 0x2ca\n 19131: jump @4\n      : @672 (gas: 1)\n 19134: t0 = 688, jump @1632\n      : @673 [@dyn 344] (gas: 6)\n 19140: i32 a0 = a0 + 0x600\n 19144: ra = 0x2b2\n 19148: ecalli 15 // 'value_transferred'\n 19150: a0 = 0x4000\n 19154: t0 = 0x2b4\n 19158: jump @1607\n      : @674 [@dyn 345] (gas: 2)\n 19161: a0 = 0x4000\n 19165: t0 = 692, jump @1607\n      : @675 [@dyn 346] (gas: 8)\n 19171: a0 = u64 [a4 + 0xd8]\n 19175: a1 = u64 [a4 + 0xe0]\n 19179: a2 = u64 [a4 + 0xd0]\n 19183: a3 = u64 [a4 + 0xc8]\n 19187: a1 = a1 | a2\n 19190: a0 = a0 | a3\n 19193: a0 = a0 | a1\n 19196: jump @677 if a0 == 0\n      : @676 (gas: 1)\n 19199: jump @1191\n      : @677 (gas: 1)\n 19202: t0 = 694, jump @1625\n      : @678 [@dyn 347] (gas: 1)\n 19208: jump @680 if a1 <u a0\n      : @679 (gas: 1)\n 19211: jump @1192\n      : @680 (gas: 5)\n 19214: a0 = s1 + 0x4000\n 19218: i32 a0 = a0 + 0x620\n 19222: a1 = 0x4\n 19225: ecalli 2 // 'call_data_load'\n 19227: fallthrough\n      : @681 (gas: 11)\n 19228: a4 = s1 + 0x4138\n 19232: a1 = u64 [a4 + 0x4f8]\n 19236: a0 = u64 [a4 + 0x500]\n 19240: a2 = 0x100000000\n 19250: a2 = a2 ^ a1\n 19253: a2 = a2 | a0\n 19256: a3 = a1 >> 0x20\n 19259: a3 = a3 <u 0x1\n 19262: a3 = 0 if a0 != 0\n 19264: a3 = 0 if a2 == 0\n 19266: jump @683 if a3 != 0\n      : @682 (gas: 1)\n 19269: jump @1193\n      : @683 (gas: 11)\n 19272: a2 = u64 [a4 + 0x4f0]\n 19276: a3 = u64 [a4 + 0x4e8]\n 19280: a4 = s1 + 0x3138\n 19284: a5 = a4 + 0x300\n 19288: u64 [a5 + 0x88] = a3\n 19292: u64 [a5 + 0x90] = a2\n 19296: u64 [a5 + 0x98] = a1\n 19300: a1 = s1 + 0x34c0\n 19304: u64 [a5 + 0xa0] = a0\n 19308: a0 = 0\n 19310: ra = 696, jump @4\n      : @684 [@dyn 348] (gas: 2)\n 19316: a0 = 0x3138\n 19320: t0 = 698, jump @1615\n      : @685 [@dyn 349] (gas: 4)\n 19326: i32 a1 = a1 + 0x4a0\n 19330: a1 = a1 + s1\n 19333: u64 [a2 + 880] = 0\n 19337: ra = 700, jump @4\n      : @686 [@dyn 350] (gas: 2)\n 19343: a1 = i32 [0x20194]\n 19348: jump @688 if a1 >u 63\n      : @687 (gas: 4)\n 19352: a1 = 0x40\n 19355: u32 [0x20194] = a1\n 19360: t0 = 0x2be\n 19364: jump @1603\n      : @688 (gas: 1)\n 19367: t0 = 702, jump @1603\n      : @689 [@dyn 351] (gas: 8)\n 19373: a0 = 0x201a0\n 19378: i32 a0 = a0 + 0\n 19380: i32 a2 = a2 + 0\n 19382: a1 = 0x40\n 19385: ra = 0x2c0\n 19389: ecalli 7 // 'hash_keccak_256'\n 19391: t0 = 0x2c2\n 19395: jump @1591\n      : @690 [@dyn 352] (gas: 1)\n 19398: t0 = 706, jump @1591\n      : @691 [@dyn 353] (gas: 7)\n 19404: u64 [a5 + 0x20] = a3\n 19407: u64 [a5 + 0x18] = a2\n 19410: u64 [a5 + 0x10] = a1\n 19413: u64 [a5 + 0x8] = a0\n 19416: a0 = s1 + 0x3480\n 19420: a1 = s1 + 0x4640\n 19424: ra = 708, jump @6\n      : @692 [@dyn 354] (gas: 14)\n 19430: a1 = s1 + 0x3138\n 19434: a2 = a1 + 0x300\n 19438: a0 = u64 [a2 + 0x60]\n 19441: a1 = s1 + 0x100\n 19445: u64 [a1 + 0xb8] = a0\n 19449: a0 = u64 [a2 + 0x58]\n 19452: u64 [a1 + 0xb0] = a0\n 19456: a0 = u64 [a2 + 0x50]\n 19459: u64 [a1 + 0xa8] = a0\n 19463: a0 = u64 [a2 + 0x48]\n 19466: u64 [a1 + 0xa0] = a0\n 19470: a0 = s1 + 0x3460\n 19474: a1 = 0x40\n 19477: ra = 710, jump @2\n      : @693 [@dyn 355] (gas: 7)\n 19483: a3 = s1 + 0x3138\n 19487: a5 = a3 + 0x300\n 19491: a0 = u64 [a5 + 0x40]\n 19494: a1 = u64 [a5 + 0x38]\n 19497: a2 = u64 [a5 + 0x30]\n 19500: a4 = u64 [a5 + 0x28]\n 19503: t0 = 712, jump @1577\n      : @694 [@dyn 356] (gas: 1)\n 19509: jump @696 if a0 == 0\n      : @695 (gas: 1)\n 19512: jump @993\n      : @696 (gas: 14)\n 19515: a2 = s1 + 0x100\n 19519: a0 = u64 [a2 + 0xa0]\n 19523: a5 = a3 + 0x300\n 19527: u64 [a5 + 0x8] = a0\n 19530: a0 = u64 [a2 + 0xa8]\n 19534: u64 [a5 + 0x10] = a0\n 19537: a0 = u64 [a2 + 0xb0]\n 19541: u64 [a5 + 0x18] = a0\n 19544: a1 = s1 + 0x3440\n 19548: a0 = u64 [a2 + 0xb8]\n 19552: u64 [a5 + 0x20] = a0\n 19555: a0 = a4\n 19557: u64 [s1 + 0x1b8] = a4\n 19561: ra = 714, jump @4\n      : @697 [@dyn 357] (gas: 3)\n 19567: a1 = 0x20\n 19570: a0 = u64 [s1 + 0x1b8]\n 19574: ra = 716, jump @16\n      : @698 [@dyn 358] (gas: 5)\n 19580: i32 a1 = a0 + 0\n 19582: a2 = 0x20\n 19585: a0 = 0\n 19587: ecalli 12 // 'seal_return'\n 19589: fallthrough\n      : @699 (gas: 10)\n 19590: u64 [a2 + 1440] = 0\n 19594: u64 [a2 + 1432] = 0\n 19598: u64 [a2 + 1424] = 0\n 19602: u64 [a2 + 1416] = 0\n 19606: a0 = s1 + 0x4000\n 19610: i32 a0 = a0 + 0x6c0\n 19614: ra = 0x2ce\n 19618: ecalli 15 // 'value_transferred'\n 19620: t0 = 0x2d0\n 19624: jump @1616\n      : @700 [@dyn 359] (gas: 1)\n 19627: t0 = 720, jump @1616\n      : @701 [@dyn 360] (gas: 8)\n 19633: a0 = u64 [a4 + 0x98]\n 19637: a1 = u64 [a4 + 0xa0]\n 19641: a2 = u64 [a4 + 0x90]\n 19645: a3 = u64 [a4 + 0x88]\n 19649: a1 = a1 | a2\n 19652: a0 = a0 | a3\n 19655: a0 = a0 | a1\n 19658: jump @703 if a0 == 0\n      : @702 (gas: 1)\n 19661: jump @1194\n      : @703 (gas: 1)\n 19664: t0 = 722, jump @1625\n      : @704 [@dyn 361] (gas: 1)\n 19670: jump @706 if a1 <u a0\n      : @705 (gas: 1)\n 19673: jump @1195\n      : @706 (gas: 7)\n 19676: a0 = s1 + 0x4000\n 19680: i32 a0 = a0 + 0x6e0\n 19684: a1 = 0x4\n 19687: ra = 0x2d4\n 19691: ecalli 2 // 'call_data_load'\n 19693: t0 = 0x2d6\n 19697: jump @1616\n      : @707 [@dyn 362] (gas: 1)\n 19700: t0 = 726, jump @1616\n      : @708 [@dyn 363] (gas: 13)\n 19706: a2 = u64 [a4 + 0xa8]\n 19710: a0 = u64 [a4 + 0xb0]\n 19714: a1 = u64 [a4 + 0xb8]\n 19718: a3 = u64 [a4 + 0xc0]\n 19722: a4 = s1 + 0x3138\n 19726: a5 = a4 + 0x400\n 19730: u64 [a5 + 0xc0] = a3\n 19734: u64 [a5 + 0xb8] = a1\n 19738: u64 [a5 + 0xb0] = a0\n 19742: a0 = s1 + 0x3600\n 19746: a1 = s1 + 0x35e0\n 19750: u64 [a5 + 0xa8] = a2\n 19754: ra = 728, jump @1480\n      : @709 [@dyn 364] (gas: 13)\n 19760: a1 = s1 + 0x3138\n 19764: a2 = a1 + 0x400\n 19768: a0 = u64 [a2 + 0xc8]\n 19772: u64 [s1 + 0x1b8] = a0\n 19776: a0 = u64 [a2 + 0xd0]\n 19780: u64 [s1 + 0x1b0] = a0\n 19784: a0 = u64 [a2 + 0xd8]\n 19788: u64 [s1 + 0x1a8] = a0\n 19792: a0 = u64 [a2 + 0xe0]\n 19796: u64 [s1 + 0x1a0] = a0\n 19800: a0 = s1 + 0x35c0\n 19804: a1 = 0x40\n 19807: ra = 730, jump @2\n      : @710 [@dyn 365] (gas: 26)\n 19813: a0 = s1 + 0x3138\n 19817: a5 = a0 + 0x400\n 19821: a1 = u64 [a5 + 0xa0]\n 19825: u64 [s1 + 0x198] = a1\n 19829: a2 = u64 [a5 + 0x98]\n 19833: u64 [s1 + 0x190] = a2\n 19837: a3 = u64 [a5 + 0x90]\n 19841: u64 [s1 + 0x188] = a3\n 19845: a4 = u64 [a5 + 0x88]\n 19849: u64 [s1 + 0x180] = a4\n 19853: u64 [a5 + 0x60] = a1\n 19856: u64 [a5 + 0x58] = a2\n 19859: u64 [a5 + 0x50] = a3\n 19862: u64 [a5 + 0x48] = a4\n 19865: a1 = u64 [s1 + 0x1a0]\n 19869: u64 [a5 + 0x80] = a1\n 19873: a1 = u64 [s1 + 0x1a8]\n 19877: u64 [a5 + 0x78] = a1\n 19880: a1 = u64 [s1 + 0x1b0]\n 19884: u64 [a5 + 0x70] = a1\n 19887: a2 = a0\n 19889: a0 = s1 + 0x35a0\n 19893: a1 = s1 + 0x3580\n 19897: a3 = u64 [s1 + 0x1b8]\n 19901: u64 [a2 + 0x468] = a3\n 19905: ra = 732, jump @1285\n      : @711 [@dyn 366] (gas: 7)\n 19911: a4 = s1 + 0x100\n 19915: a0 = u64 [a4 + 0x80]\n 19919: a1 = u64 [a4 + 0x98]\n 19923: a2 = u64 [a4 + 0x88]\n 19927: a2 = a2 | a1\n 19930: a3 = u64 [a4 + 0x90]\n 19934: t0 = 734, jump @1601\n      : @712 [@dyn 367] (gas: 1)\n 19940: jump @714 if a1 == 0\n      : @713 (gas: 1)\n 19943: jump @993\n      : @714 (gas: 3)\n 19946: a1 = 0x20\n 19949: ra = 0x2cc\n 19953: jump @16\n      : @715 (gas: 9)\n 19956: a1 = s1 + 0x100\n 19960: a2 = u64 [a1 + 0x80]\n 19964: a4 = u64 [a1 + 0x70]\n 19967: a0 = a2 | a4\n 19970: a3 = u64 [a1 + 0x78]\n 19973: a5 = u64 [a1 + 0x68]\n 19976: a1 = a3 | a5\n 19979: a0 = a0 | a1\n 19982: jump @717 if a0 == 0\n      : @716 (gas: 1)\n 19985: jump @1196\n      : @717 (gas: 3)\n 19988: a0 = s1 + 0x700\n 19992: a1 = 0x40\n 19995: ra = 736, jump @2\n      : @718 [@dyn 368] (gas: 13)\n 20001: a1 = s1 + 0x700\n 20005: a4 = u64 [a1 + 0x18]\n 20008: a5 = u64 [a1 + 0x10]\n 20011: a3 = u64 [a1 + 0x8]\n 20014: a0 = u64 [a1]\n 20016: a2 = a3 | a4\n 20019: a1 = a0 | a5\n 20022: a1 = a1 | a2\n 20025: a1 = a1 >> 0x20\n 20028: a2 = a2 | a5\n 20031: a2 = a2 << 0x20\n 20034: a1 = a1 | a2\n 20037: jump @720 if a1 == 0\n      : @719 (gas: 1)\n 20040: jump @993\n      : @720 (gas: 11)\n 20043: u64 [s1 + 1776] = 0\n 20047: u64 [s1 + 1768] = 0\n 20051: u64 [s1 + 1760] = 0\n 20055: a2 = 0x8c379a000000000\n 20065: a1 = s1 + 0x6e0\n 20069: u64 [s1 + 0x6f8] = a2\n 20073: u64 [s1 + 0x1b8] = a0\n 20077: u64 [s1 + 0x1b0] = a3\n 20081: u64 [s1 + 0x1a8] = a4\n 20085: u64 [s1 + 0x1a0] = a5\n 20089: ra = 738, jump @4\n      : @721 [@dyn 369] (gas: 6)\n 20095: a5 = s1 + 0x100\n 20099: a1 = u64 [a5 + 0xb8]\n 20103: a0 = u64 [a5 + 0xa8]\n 20107: a3 = u64 [a5 + 0xa0]\n 20111: a3 = a3 | a0\n 20114: t0 = 740, jump @1562\n      : @722 [@dyn 370] (gas: 1)\n 20120: jump @724 if a0 != 0\n      : @723 (gas: 1)\n 20123: jump @993\n      : @724 (gas: 9)\n 20126: i32 a0 = a1 + 0x4\n 20129: u64 [s1 + 1752] = 0\n 20133: u64 [s1 + 1744] = 0\n 20137: u64 [s1 + 1728] = 0x20\n 20142: a1 = s1 + 0x6c0\n 20146: u64 [s1 + 1736] = 0\n 20150: u64 [s1 + 0x1a8] = a3\n 20154: u64 [s1 + 0x1a0] = a4\n 20158: ra = 742, jump @4\n      : @725 [@dyn 371] (gas: 1)\n 20164: t0 = 744, jump @1565\n      : @726 [@dyn 372] (gas: 1)\n 20170: jump @728 if a0 != 0\n      : @727 (gas: 1)\n 20173: jump @993\n      : @728 (gas: 7)\n 20176: i32 a0 = a1 + 0x24\n 20179: u64 [s1 + 1720] = 0\n 20183: u64 [s1 + 1712] = 0\n 20187: u64 [s1 + 1696] = 0x1d\n 20192: a1 = s1 + 0x6a0\n 20196: u64 [s1 + 1704] = 0\n 20200: ra = 746, jump @4\n      : @729 [@dyn 373] (gas: 1)\n 20206: t0 = 748, jump @1578\n      : @730 [@dyn 374] (gas: 1)\n 20212: jump @732 if a0 != 0\n      : @731 (gas: 1)\n 20215: jump @993\n      : @732 (gas: 13)\n 20218: i32 a0 = a2 + 0x44\n 20221: a1 = u64 [0x20128]\n 20226: a2 = u64 [0x20130]\n 20231: a3 = u64 [0x20138]\n 20236: a4 = s1 + 0x600\n 20240: u64 [a4 + 0x98] = a1\n 20244: u64 [a4 + 0x90] = a2\n 20248: u64 [a4 + 0x88] = a3\n 20252: a2 = 0x6864726177000000\n 20262: a1 = s1 + 0x680\n 20266: u64 [a4 + 0x80] = a2\n 20270: ra = 0x426\n 20274: jump @4\n      : @733 (gas: 6)\n 20277: a0 = sp + 0xffffffffffffffe0\n 20280: a1 = a0 & 0xffffffffffffffe0\n 20283: sp = a1\n 20285: a2 = u64 [s1 + 0x28]\n 20288: a0 = a2 + 0x6\n 20291: t0 = 750, jump @1609\n      : @734 [@dyn 375] (gas: 7)\n 20297: u64 [a1 + 0x8] = a2\n 20300: u64 [a1] = a0\n 20302: u64 [a1 + 0x10] = a3\n 20305: u64 [a1 + 0x18] = a4\n 20308: a0 = s1 + 0x3180\n 20312: u64 [s1 + 0x20] = a1\n 20315: ra = 752, jump @6\n      : @735 [@dyn 376] (gas: 3)\n 20321: a2 = s1 + 0x3138\n 20325: a0 = u8 [a2 + 0x5c]\n 20328: jump @737 if a0 <=u 3\n      : @736 (gas: 1)\n 20332: jump @1222\n      : @737 (gas: 10)\n 20335: a0 = a0 + 0xfffffffffffffffd\n 20338: a0 = a0 >u 0\n 20340: u64 [a2 + 64] = 0\n 20343: u64 [a2 + 56] = 0\n 20346: u64 [a2 + 0x28] = a0\n 20349: a0 = s1 + 0x3160\n 20353: u64 [a2 + 48] = 0\n 20356: ra = 0x2f2\n 20360: t0 = 0x62e\n 20364: jump @1586\n      : @738 [@dyn 377] (gas: 6)\n 20367: a0 = sp + 0xffffffffffffffe0\n 20370: a1 = a0 & 0xffffffffffffffe0\n 20373: sp = a1\n 20375: a2 = u64 [s1 + 0x28]\n 20378: a0 = a2 + 0x8\n 20381: t0 = 756, jump @1609\n      : @739 [@dyn 378] (gas: 7)\n 20387: u64 [a1 + 0x18] = a4\n 20390: u64 [a1 + 0x10] = a3\n 20393: u64 [a1 + 0x8] = a2\n 20396: u64 [a1] = a0\n 20398: a0 = s1 + 0x3140\n 20402: u64 [s1 + 0x18] = a1\n 20405: ra = 758, jump @6\n      : @740 [@dyn 379] (gas: 3)\n 20411: a0 = s1 + 0x3138\n 20415: a0 = u8 [a0 + 0x8]\n 20418: jump @742 if a0 == 0\n      : @741 (gas: 1)\n 20421: jump @932\n      : @742 (gas: 3)\n 20424: a1 = u64 [s1 + 0x28]\n 20427: a0 = a1 + 0x2\n 20430: t0 = 760, jump @1595\n      : @743 [@dyn 380] (gas: 8)\n 20436: a5 = a4 + 0x200\n 20440: u64 [a5 + 0xa8] = a0\n 20444: u64 [a5 + 0xb0] = a2\n 20448: u64 [a5 + 0xb8] = a3\n 20452: u64 [a5 + 0xc0] = a1\n 20456: a0 = s1 + 0x3080\n 20460: a1 = s1 + 0x43e0\n 20464: ra = 762, jump @6\n      : @744 [@dyn 381] (gas: 3)\n 20470: t0 = 0x2fc\n 20474: a1 = s1 + 0x2938\n 20478: fallthrough\n      : @745 [@dyn 382] (gas: 12)\n 20479: a2 = a1 + 0x700\n 20483: a0 = u64 [a2 + 0x60]\n 20486: u64 [s1 + 0x128] = a0\n 20490: a0 = u64 [a2 + 0x58]\n 20493: u64 [s1 + 0x120] = a0\n 20497: a0 = u64 [a2 + 0x50]\n 20500: u64 [s1 + 0x118] = a0\n 20504: a0 = u64 [a2 + 0x48]\n 20507: u64 [s1 + 0x110] = a0\n 20511: a0 = s1 + 0x3060\n 20515: a1 = 0x40\n 20518: ra = 766, jump @2\n      : @746 [@dyn 383] (gas: 26)\n 20524: a3 = s1 + 0x2938\n 20528: a4 = a3 + 0x700\n 20532: a0 = u64 [a4 + 0x28]\n 20535: a2 = u64 [a4 + 0x40]\n 20538: a1 = u64 [a4 + 0x30]\n 20541: a3 = u64 [a4 + 0x38]\n 20544: a4 = a0 + 0x20\n 20547: u64 [s1 + 0x1b0] = a4\n 20551: u64 [s1 + 0x1b8] = a0\n 20555: a0 = a4 <u a0\n 20558: a4 = a1 + a0\n 20561: u64 [s1 + 0x1a8] = a4\n 20565: u64 [s1 + 0x190] = a1\n 20569: a1 = a4 <u a1\n 20572: a1 = a0 if a0 == 0\n 20575: a1 = a1 + a3\n 20578: u64 [s1 + 0x198] = a1\n 20582: u64 [s1 + 0x180] = a3\n 20586: a0 = a1 <u a3\n 20589: u64 [s1 + 0x188] = a2\n 20593: a0 = a0 + a2\n 20596: u64 [s1 + 0x1a0] = a0\n 20600: a0 = s1 + 0x4000\n 20604: i32 a0 = a0 + 0x400\n 20608: ecalli 8 // 'now'\n 20610: fallthrough\n      : @747 (gas: 13)\n 20611: a5 = s1 + 0x100\n 20615: a0 = u64 [a5 + 0xb0]\n 20619: a3 = u64 [a5 + 0x98]\n 20623: a2 = a0 | a3\n 20626: a1 = u64 [a5 + 0xa8]\n 20630: a4 = u64 [a5 + 0xa0]\n 20634: a1 = a1 | a4\n 20637: a2 = a2 | a1\n 20640: a2 = a2 >> 0x20\n 20643: a1 = a1 | a3\n 20646: a1 = a1 << 0x20\n 20649: a1 = a1 | a2\n 20652: jump @749 if a1 == 0\n      : @748 (gas: 1)\n 20655: jump @993\n      : @749 (gas: 14)\n 20658: a3 = s1 + 0x4138\n 20662: a4 = a3 + 0x200\n 20666: a5 = u64 [a4 + 0xc8]\n 20670: a1 = u64 [a4 + 0xd0]\n 20674: a2 = u64 [a4 + 0xd8]\n 20678: a3 = u64 [a4 + 0xe0]\n 20682: a4 = s1 + 0x2938\n 20686: u64 [a4 + 0x720] = a3\n 20690: a3 = a4 + 0x700\n 20694: u64 [a3 + 0x18] = a2\n 20697: u64 [a3 + 0x10] = a1\n 20700: a1 = s1 + 0x3040\n 20704: u64 [a3 + 0x8] = a5\n 20707: ra = 768, jump @4\n      : @750 [@dyn 384] (gas: 4)\n 20713: a5 = s1 + 0x100\n 20717: a1 = u64 [a5 + 0xb8]\n 20721: a0 = a1 + 0x40\n 20724: t0 = 770, jump @1588\n      : @751 [@dyn 385] (gas: 1)\n 20730: jump @753 if a1 == 0\n      : @752 (gas: 1)\n 20733: jump @993\n      : @753 (gas: 8)\n 20736: a2 = s1 + 0x2938\n 20740: u64 [a2 + 1792] = 0\n 20744: u64 [a2 + 1784] = 0\n 20748: a1 = 0x8e1bc9bf04000\n 20758: u64 [a2 + 0x6e8] = a1\n 20762: a1 = s1 + 0x3020\n 20766: u64 [a2 + 1776] = 0\n 20770: ra = 772, jump @4\n      : @754 [@dyn 386] (gas: 4)\n 20776: a5 = s1 + 0x100\n 20780: a1 = u64 [a5 + 0xb8]\n 20784: a0 = a1 + 0x60\n 20787: t0 = 774, jump @1588\n      : @755 [@dyn 387] (gas: 1)\n 20793: jump @757 if a1 == 0\n      : @756 (gas: 1)\n 20796: jump @993\n      : @757 (gas: 12)\n 20799: a1 = u64 [s1 + 0xa0]\n 20803: a3 = s1 + 0x2938\n 20807: a4 = a3 + 0x600\n 20811: u64 [a4 + 0xc8] = a1\n 20815: a1 = u64 [s1 + 0x98]\n 20819: u64 [a4 + 0xd0] = a1\n 20823: a1 = u64 [s1 + 0x90]\n 20827: u64 [a4 + 0xd8] = a1\n 20831: a1 = s1 + 0x3000\n 20835: a2 = u64 [s1 + 0x88]\n 20839: u64 [a4 + 0xe0] = a2\n 20843: ra = 776, jump @4\n      : @758 [@dyn 388] (gas: 13)\n 20849: a4 = s1 + 0x100\n 20853: a0 = u64 [a4 + 0xb8]\n 20857: a3 = u64 [a4 + 0x80]\n 20861: a0 = a0 | a3\n 20864: a1 = u64 [a4 + 0x90]\n 20868: a2 = u64 [a4 + 0x88]\n 20872: a1 = a1 | a2\n 20875: a0 = a0 | a1\n 20878: a0 = a0 >> 0x20\n 20881: a1 = a1 | a3\n 20884: a1 = a1 << 0x20\n 20887: a0 = a0 | a1\n 20890: jump @760 if a0 == 0\n      : @759 (gas: 1)\n 20893: jump @993\n      : @760 (gas: 8)\n 20896: a2 = s1 + 0x2938\n 20900: u64 [a2 + 1728] = 0\n 20904: u64 [a2 + 1720] = 0\n 20908: u64 [a2 + 1712] = 0\n 20912: a1 = s1 + 0x2fe0\n 20916: u64 [a2 + 1704] = 0x60\n 20921: a0 = u64 [s1 + 0x1b8]\n 20925: ra = 778, jump @4\n      : @761 [@dyn 389] (gas: 18)\n 20931: a1 = s1 + 0x2938\n 20935: u64 [a1 + 1664] = 0\n 20939: u64 [a1 + 1656] = 0\n 20943: u64 [a1 + 1648] = 0\n 20947: a2 = a1 + 0x600\n 20951: u64 [a2 + 104] = 0x80\n 20956: a0 = u64 [s1 + 0x188]\n 20960: u64 [a2 + 0xa0] = a0\n 20964: a0 = u64 [s1 + 0x180]\n 20968: u64 [a2 + 0x98] = a0\n 20972: a0 = u64 [s1 + 0x190]\n 20976: u64 [a2 + 0x90] = a0\n 20980: a3 = a1\n 20982: a0 = s1 + 0x2fc0\n 20986: a1 = s1 + 0x2fa0\n 20990: a2 = u64 [s1 + 0x1b8]\n 20994: u64 [a3 + 0x688] = a2\n 20998: ra = 780, jump @1343\n      : @762 [@dyn 390] (gas: 7)\n 21004: a0 = sp + 0xffffffffffffffe0\n 21007: a0 = a0 & 0xffffffffffffffe0\n 21010: u64 [s1 + 0xd8] = a0\n 21014: sp = a0\n 21016: a0 = s1 + 0x2f80\n 21020: a1 = u64 [s1 + 0x1b8]\n 21024: ra = 782, jump @2\n      : @763 [@dyn 391] (gas: 3)\n 21030: t0 = 0x310\n 21034: a1 = s1 + 0x2938\n 21038: fallthrough\n      : @764 [@dyn 392] (gas: 13)\n 21039: a4 = a1 + 0x600\n 21043: a0 = u64 [a4 + 0x60]\n 21046: a3 = u64 [a4 + 0x58]\n 21049: a2 = u64 [a4 + 0x50]\n 21052: a1 = u64 [a4 + 0x48]\n 21055: a0 = a0 | a2\n 21058: a2 = a1 | a3\n 21061: a2 = a2 | a0\n 21064: a2 = a2 >> 0x20\n 21067: a0 = a0 | a3\n 21070: a0 = a0 << 0x20\n 21073: a0 = a0 | a2\n 21076: jump @766 if a0 == 0\n      : @765 (gas: 1)\n 21079: jump @993\n      : @766 (gas: 3)\n 21082: a0 = u64 [s1 + 0x1b0]\n 21086: u64 [s1 + 0x1b8] = a1\n 21090: ra = 786, jump @16\n      : @767 [@dyn 393] (gas: 9)\n 21096: a1 = sp + 0xffffffffffffffe0\n 21099: a2 = a1 & 0xffffffffffffffe0\n 21102: u64 [s1 + 0x1b0] = a2\n 21106: sp = a2\n 21108: i32 a0 = a0 + 0\n 21110: a1 = i32 [s1 + 0x1b8]\n 21114: i32 a2 = a2 + 0\n 21116: ecalli 7 // 'hash_keccak_256'\n 21118: fallthrough\n      : @768 (gas: 61)\n 21119: a3 = u64 [s1 + 0x1b0]\n 21123: a0 = u64 [a3 + 0x8]\n 21126: a1 = u64 [a3 + 0x18]\n 21129: a2 = u64 [a3]\n 21131: a3 = u64 [a3 + 0x10]\n 21134: t1 = reverse a0\n 21136: a4 = reverse a1\n 21138: u64 [s1 + 0x108] = a4\n 21142: t2 = reverse a2\n 21144: t0 = reverse a3\n 21146: a1 = clz t2\n 21148: a0 = clz t1\n 21150: a0 = a0 + 0x40\n 21153: a0 = a1 if t2 != 0\n 21156: a1 = clz t0\n 21158: a2 = clz a4\n 21160: a2 = a2 + 0x40\n 21163: a2 = a1 if t0 != 0\n 21166: a1 = a2 + 0x80\n 21170: a3 = t1 | t2\n 21173: a0 = a1 if a3 == 0\n 21176: a1 = a1 <u a2\n 21179: a1 = 0 if a3 != 0\n 21181: a3 = a1 >u 0\n 21183: a2 = a0 <u 0xee\n 21187: a4 = a2 ^ 0x1\n 21190: a3 = a4 if a1 == 0\n 21193: a2 = a3 <u 0x1\n 21196: a2 = a2 + 0xffffffffffffffff\n 21199: a5 = -a3\n 21201: a1 = -a1\n 21203: ra = a1 - a4\n 21206: a1 = 0xed - a0\n 21210: u64 [s1 + 0x1a0] = a5\n 21214: a0 = a5 >u 0\n 21216: a4 = a2 >u 0\n 21218: u64 [s1 + 0x1a8] = a2\n 21222: a4 = a0 if a2 == 0\n 21225: u64 [s1 + 0x1b0] = a1\n 21229: a0 = a1 <u 0x100\n 21233: a0 = a0 ^ 0x1\n 21236: a5 = ra >u 0\n 21238: a0 = a5 if ra != 0\n 21241: a0 = a4 if a3 != 0\n 21244: a3 = t0 | t2\n 21247: a1 = u64 [s1 + 0x108]\n 21251: a4 = a1 | t1\n 21254: a3 = a3 | a4\n 21257: a3 = a3 <u 0x1\n 21260: a0 = a0 | a3\n 21263: a4 = 0x69780\n 21268: u64 [s1 + 0xe0] = t2\n 21272: t2 = 0 if a0 != 0\n 21274: u64 [s1 + 0xe8] = t1\n 21278: t1 = 0 if a0 != 0\n 21280: u64 [s1 + 0xf0] = t0\n 21284: a2 = t0\n 21286: a2 = 0 if a0 != 0\n 21288: a3 = a1\n 21290: a3 = 0 if a0 != 0\n 21292: jump @770 if a0 == 0\n      : @769 (gas: 1)\n 21295: jump @1001\n      : @770 (gas: 8)\n 21298: a0 = u64 [s1 + 0x1b0]\n 21302: a0 = a0 ^ 0xff\n 21306: a5 = u64 [s1 + 0x1a0]\n 21310: a1 = a0 | a5\n 21313: t0 = u64 [s1 + 0x1a8]\n 21317: a0 = ra | t0\n 21320: a0 = a0 | a1\n 21323: jump @772 if a0 != 0\n      : @771 (gas: 1)\n 21326: jump @1001\n      : @772 (gas: 20)\n 21329: u64 [s1 + 328] = 0x69780\n 21336: a1 = u64 [s1 + 0x1b0]\n 21340: a2 = a1 + 0x1\n 21343: u64 [s1 + 0x1b8] = a2\n 21347: a0 = a2 <u 0x1\n 21350: a0 = a0 + ra\n 21353: u64 [s1 + 0x198] = a0\n 21357: a0 = a0 | a2\n 21360: a0 = a0 <u 0x1\n 21363: a0 = a0 + a5\n 21366: u64 [s1 + 0x188] = a0\n 21370: a0 = a0 <u a5\n 21373: a0 = a0 + t0\n 21376: u64 [s1 + 0x190] = a0\n 21380: a1 = 0xff - a1\n 21384: u64 [s1 + 0x1b0] = a1\n 21388: a2 = 0x80 - a1\n 21392: a0 = u64 [s1 + 0x108]\n 21396: a1 = u64 [s1 + 0xf0]\n 21400: ra = 788, jump @1634\n      : @773 [@dyn 394] (gas: 6)\n 21406: u64 [s1 + 0x1a8] = a0\n 21410: u64 [s1 + 0x180] = a1\n 21414: a0 = u64 [s1 + 0xe8]\n 21418: a1 = u64 [s1 + 0xe0]\n 21422: a2 = u64 [s1 + 0x1b0]\n 21426: ra = 790, jump @1639\n      : @774 [@dyn 395] (gas: 9)\n 21432: u64 [s1 + 0x1a0] = a0\n 21436: a0 = u64 [s1 + 0x180]\n 21440: a0 = a0 | a1\n 21443: u64 [s1 + 0x178] = a0\n 21447: a0 = u64 [s1 + 0x1b0]\n 21451: a2 = a0 + 0xffffffffffffff80\n 21454: a0 = u64 [s1 + 0x108]\n 21458: a1 = u64 [s1 + 0xf0]\n 21462: ra = 792, jump @1639\n      : @775 [@dyn 396] (gas: 18)\n 21468: a2 = u64 [s1 + 0x1b0]\n 21472: a3 = a2 <u 0x80\n 21476: u64 [s1 + 0x180] = a3\n 21480: a4 = u64 [s1 + 0x178]\n 21484: a1 = a4 if a3 != 0\n 21487: a4 = u64 [s1 + 0xe0]\n 21491: a1 = a4 if a2 == 0\n 21494: u64 [s1 + 0x158] = a1\n 21498: a1 = u64 [s1 + 0x1a8]\n 21502: a4 = u64 [s1 + 0x1a0]\n 21506: a1 = a1 | a4\n 21509: a1 = a0 if a3 == 0\n 21512: a0 = u64 [s1 + 0xe8]\n 21516: a1 = a0 if a2 == 0\n 21519: u64 [s1 + 0x1a8] = a1\n 21523: a0 = u64 [s1 + 0x108]\n 21527: a1 = u64 [s1 + 0xf0]\n 21531: ra = 794, jump @1639\n      : @776 [@dyn 397] (gas: 14)\n 21537: a5 = s1 + 0x100\n 21541: a2 = u64 [a5 + 0x98]\n 21545: a3 = u64 [a5 + 0x90]\n 21549: a2 = a2 | a3\n 21552: a3 = u64 [a5 + 0xb8]\n 21556: a4 = u64 [a5 + 0x88]\n 21560: a3 = a3 | a4\n 21563: a2 = a2 | a3\n 21566: a3 = u64 [a5 + 0x80]\n 21570: a1 = 0 if a3 == 0\n 21572: u64 [a5 + 0xa0] = a1\n 21576: a0 = 0 if a3 == 0\n 21578: u64 [a5 + 0xb0] = a0\n 21582: jump @778 if a2 == 0\n      : @777 (gas: 1)\n 21585: jump @994\n      : @778 (gas: 4)\n 21588: a5 = 0\n 21590: u64 [s1 + 320] = 0\n 21594: ra = u64 [s1 + 0x158]\n 21598: jump @1000\n      : @779 (gas: 3)\n 21601: t0 = 0x31c\n 21605: a2 = s1 + 0x1938\n 21609: fallthrough\n      : @780 [@dyn 398] (gas: 12)\n 21610: a0 = u64 [s1 + 0x1b8]\n 21614: a3 = a2 + 0x300\n 21618: u64 [a3 + 0x8] = a0\n 21621: a0 = u64 [s1 + 0x1b0]\n 21625: u64 [a3 + 0x10] = a0\n 21628: a0 = u64 [s1 + 0x1a8]\n 21632: u64 [a3 + 0x18] = a0\n 21635: a1 = s1 + 0x1c40\n 21639: a0 = u64 [s1 + 0x1a0]\n 21643: u64 [a3 + 0x20] = a0\n 21646: a0 = 0\n 21648: ra = 798, jump @4\n      : @781 [@dyn 399] (gas: 3)\n 21654: t0 = 0x320\n 21658: a1 = s1 + 0x1938\n 21662: fallthrough\n      : @782 [@dyn 400] (gas: 8)\n 21663: u64 [a1 + 768] = 0\n 21667: u64 [a1 + 760] = 0\n 21671: u64 [a1 + 744] = 0x2\n 21676: a2 = a1\n 21678: a0 = 0x20\n 21681: a1 = s1 + 0x1c20\n 21685: u64 [a2 + 752] = 0\n 21689: ra = 802, jump @4\n      : @783 [@dyn 401] (gas: 3)\n 21695: a2 = u64 [s1 + 0x190]\n 21699: a0 = i32 [a2]\n 21701: jump @785 if a0 >u 63\n      : @784 (gas: 3)\n 21705: u32 [a2 + 0] = 0x40\n 21708: t0 = 0x324\n 21712: jump @1576\n      : @785 (gas: 1)\n 21715: t0 = 804, jump @1576\n      : @786 [@dyn 402] (gas: 3)\n 21721: ra = 0x326\n 21725: ecalli 7 // 'hash_keccak_256'\n 21727: fallthrough\n      : @787 [@dyn 403] (gas: 6)\n 21728: a3 = u64 [s1 + 0x188]\n 21732: a0 = u64 [a3]\n 21734: a1 = u64 [a3 + 0x8]\n 21737: a2 = u64 [a3 + 0x10]\n 21740: a3 = u64 [a3 + 0x18]\n 21743: t0 = 808, jump @1606\n      : @788 [@dyn 404] (gas: 17)\n 21749: a4 = a3 + 0x3\n 21752: a3 = a4 <u a3\n 21755: a5 = a2 + a3\n 21758: a2 = a5 <u a2\n 21761: a2 = a3 if a3 == 0\n 21764: a2 = a2 + a1\n 21767: a1 = a2 <u a1\n 21770: a0 = a0 + a1\n 21773: a1 = s1 + 0x3938\n 21777: a3 = a1 + 0x600\n 21781: u64 [a3 + 0x48] = a4\n 21784: u64 [a3 + 0x50] = a5\n 21787: u64 [a3 + 0x58] = a2\n 21790: u64 [a3 + 0x60] = a0\n 21793: a0 = s1 + 0x1c00\n 21797: a1 = s1 + 0x3f80\n 21801: ra = 810, jump @6\n      : @789 [@dyn 405] (gas: 15)\n 21807: a0 = s1 + 0x1938\n 21811: a2 = a0 + 0x200\n 21815: a1 = u64 [a2 + 0xc8]\n 21819: u64 [s1 + 0x188] = a1\n 21823: a1 = u64 [a2 + 0xd0]\n 21827: u64 [s1 + 0x180] = a1\n 21831: a1 = u64 [a2 + 0xd8]\n 21835: u64 [s1 + 0x178] = a1\n 21839: a0 = u64 [a2 + 0xe0]\n 21843: u64 [s1 + 0x170] = a0\n 21847: a0 = s1 + 0x4000\n 21851: i32 a0 = a0 + 0xffffffffffffffa0\n 21854: ra = 0x32c\n 21858: ecalli 8 // 'now'\n 21860: fallthrough\n      : @790 [@dyn 406] (gas: 18)\n 21861: a1 = s1 + 0x3938\n 21865: a4 = a1 + 0x600\n 21869: a0 = u64 [a4 + 0x80]\n 21873: t0 = u64 [a1 + 0x668]\n 21877: a2 = u64 [a4 + 0x78]\n 21880: a3 = u64 [a4 + 0x70]\n 21883: a1 = u64 [s1 + 0x170]\n 21887: a4 = a0 ^ a1\n 21890: a1 = a0 <u a1\n 21893: a0 = u64 [s1 + 0x178]\n 21897: a5 = a2 <u a0\n 21900: a5 = a1 if a4 != 0\n 21903: a1 = u64 [s1 + 0x180]\n 21907: t1 = a3 ^ a1\n 21910: a3 = a3 <u a1\n 21913: a1 = u64 [s1 + 0x188]\n 21917: a1 = t0 <u a1\n 21920: t0 = 814, jump @1613\n      : @791 [@dyn 407] (gas: 1)\n 21926: jump @793 if a1 != 0\n      : @792 (gas: 1)\n 21929: jump @969\n      : @793 (gas: 13)\n 21932: a0 = u64 [s1 + 0x1b8]\n 21936: a2 = s1 + 0x1938\n 21940: a3 = a2 + 0x200\n 21944: u64 [a3 + 0x8] = a0\n 21947: a0 = u64 [s1 + 0x1b0]\n 21951: u64 [a3 + 0x10] = a0\n 21954: a0 = u64 [s1 + 0x1a8]\n 21958: u64 [a3 + 0x18] = a0\n 21961: a1 = s1 + 0x1b40\n 21965: a0 = u64 [s1 + 0x1a0]\n 21969: u64 [a3 + 0x20] = a0\n 21972: a0 = 0\n 21974: ra = 816, jump @4\n      : @794 [@dyn 408] (gas: 3)\n 21980: t0 = 0x332\n 21984: a1 = s1 + 0x1938\n 21988: fallthrough\n      : @795 [@dyn 409] (gas: 8)\n 21989: u64 [a1 + 512] = 0\n 21993: u64 [a1 + 504] = 0\n 21997: u64 [a1 + 488] = 0x2\n 22002: a2 = a1\n 22004: a0 = 0x20\n 22007: a1 = s1 + 0x1b20\n 22011: u64 [a2 + 496] = 0\n 22015: ra = 820, jump @4\n      : @796 [@dyn 410] (gas: 3)\n 22021: a1 = u64 [s1 + 0x190]\n 22025: a0 = i32 [a1]\n 22027: jump @798 if a0 >u 63\n      : @797 (gas: 2)\n 22031: u32 [a1 + 0] = 0x40\n 22034: fallthrough\n      : @798 (gas: 4)\n 22035: a0 = sp + 0xffffffffffffffe0\n 22038: a0 = a0 & 0xffffffffffffffe0\n 22041: u64 [s1 + 0x170] = a0\n 22045: t0 = 822, jump @1579\n      : @799 [@dyn 411] (gas: 13)\n 22051: ecalli 7 // 'hash_keccak_256'\n 22053: a1 = u64 [s1 + 0x170]\n 22057: a0 = u64 [a1 + 0x18]\n 22060: u64 [s1 + 0x188] = a0\n 22064: a0 = u64 [a1 + 0x10]\n 22067: u64 [s1 + 0x180] = a0\n 22071: a0 = u64 [a1 + 0x8]\n 22074: u64 [s1 + 0x178] = a0\n 22078: a0 = u64 [a1]\n 22080: u64 [s1 + 0x170] = a0\n 22084: t0 = 0x338\n 22088: a2 = s1 + 0x1938\n 22092: fallthrough\n      : @800 [@dyn 412] (gas: 12)\n 22093: a0 = u64 [s1 + 0x1a0]\n 22097: a3 = a2 + 0x100\n 22101: u64 [a3 + 0xe0] = a0\n 22105: a0 = u64 [s1 + 0x1a8]\n 22109: u64 [a3 + 0xd8] = a0\n 22113: a0 = u64 [s1 + 0x1b0]\n 22117: u64 [a3 + 0xd0] = a0\n 22121: a1 = s1 + 0x1b00\n 22125: a0 = u64 [s1 + 0x1b8]\n 22129: u64 [a3 + 0xc8] = a0\n 22133: a0 = 0\n 22135: ra = 826, jump @4\n      : @801 [@dyn 413] (gas: 3)\n 22141: t0 = 0x33c\n 22145: a1 = s1 + 0x1938\n 22149: fallthrough\n      : @802 [@dyn 414] (gas: 8)\n 22150: u64 [a1 + 448] = 0\n 22154: u64 [a1 + 440] = 0\n 22158: u64 [a1 + 424] = 0x3\n 22163: a2 = a1\n 22165: a0 = 0x20\n 22168: a1 = s1 + 0x1ae0\n 22172: u64 [a2 + 432] = 0\n 22176: ra = 830, jump @4\n      : @803 [@dyn 415] (gas: 3)\n 22182: a1 = u64 [s1 + 0x190]\n 22186: a0 = i32 [a1]\n 22188: jump @805 if a0 >u 63\n      : @804 (gas: 2)\n 22192: u32 [a1 + 0] = 0x40\n 22195: fallthrough\n      : @805 (gas: 13)\n 22196: a0 = u64 [s1 + 0x170]\n 22200: a0 = reverse a0\n 22202: u64 [s1 + 0x160] = a0\n 22206: a0 = u64 [s1 + 0x178]\n 22210: a0 = reverse a0\n 22212: u64 [s1 + 0x158] = a0\n 22216: a0 = u64 [s1 + 0x180]\n 22220: a0 = reverse a0\n 22222: u64 [s1 + 0x150] = a0\n 22226: a0 = u64 [s1 + 0x188]\n 22230: a0 = reverse a0\n 22232: u64 [s1 + 0x148] = a0\n 22236: t0 = 832, jump @1576\n      : @806 [@dyn 416] (gas: 46)\n 22242: ecalli 7 // 'hash_keccak_256'\n 22244: a3 = u64 [s1 + 0x188]\n 22248: a0 = u64 [a3 + 0x18]\n 22251: a1 = u64 [a3 + 0x10]\n 22254: a2 = u64 [a3 + 0x8]\n 22257: a3 = u64 [a3]\n 22259: a0 = reverse a0\n 22261: u64 [s1 + 0x180] = a0\n 22265: a0 = reverse a1\n 22267: u64 [s1 + 0x178] = a0\n 22271: a0 = reverse a2\n 22273: u64 [s1 + 0x170] = a0\n 22277: a0 = reverse a3\n 22279: u64 [s1 + 0x168] = a0\n 22283: a0 = sp + 0xffffffffffffffe0\n 22286: a0 = a0 & 0xffffffffffffffe0\n 22289: u64 [s1 + 0x188] = a0\n 22293: sp = a0\n 22295: a0 = 0x301a0\n 22300: u64 [s1 + 0x140] = a0\n 22304: i32 a0 = a0 + 0\n 22306: u64 [s1 + 0x118] = a0\n 22310: ecalli 4 // 'caller'\n 22312: a2 = u64 [s1 + 0x140]\n 22316: a0 = u64 [a2 + 0x8]\n 22319: a1 = i32 [a2 + 0x10]\n 22322: a2 = u64 [a2]\n 22324: a0 = reverse a0\n 22326: a3 = a0 << 0x20\n 22329: a1 = reverse a1\n 22331: a1 = a1 >> 0x20\n 22334: a3 = a3 | a1\n 22337: a0 = a0 >> 0x20\n 22340: a1 = reverse a2\n 22342: a2 = a1 << 0x20\n 22345: a0 = a0 | a2\n 22348: a1 = a1 >> 0x20\n 22351: a2 = s1 + 0x1938\n 22355: u64 [a2 + 416] = 0\n 22359: a4 = a2 + 0x100\n 22363: u64 [a4 + 0x98] = a1\n 22367: u64 [a4 + 0x90] = a0\n 22371: a1 = s1 + 0x1ac0\n 22375: u64 [a4 + 0x88] = a3\n 22379: a0 = 0\n 22381: ra = 834, jump @4\n      : @807 [@dyn 417] (gas: 14)\n 22387: a0 = u64 [s1 + 0x168]\n 22391: a1 = s1 + 0x1938\n 22395: a2 = a1 + 0x100\n 22399: u64 [a2 + 0x80] = a0\n 22403: a0 = u64 [s1 + 0x170]\n 22407: u64 [a2 + 0x78] = a0\n 22410: a0 = u64 [s1 + 0x178]\n 22414: u64 [a2 + 0x70] = a0\n 22417: a3 = a1\n 22419: a0 = 0x20\n 22422: a1 = s1 + 0x1aa0\n 22426: a2 = u64 [s1 + 0x180]\n 22430: u64 [a3 + 0x168] = a2\n 22434: ra = 836, jump @4\n      : @808 [@dyn 418] (gas: 3)\n 22440: a1 = u64 [s1 + 0x190]\n 22444: a0 = i32 [a1]\n 22446: jump @810 if a0 >=u 64\n      : @809 (gas: 2)\n 22450: u32 [a1 + 0] = 0x40\n 22453: fallthrough\n      : @810 (gas: 4)\n 22454: a0 = sp + 0xffffffffffffffe0\n 22457: a0 = a0 & 0xffffffffffffffe0\n 22460: u64 [s1 + 0x180] = a0\n 22464: t0 = 838, jump @1579\n      : @811 [@dyn 419] (gas: 3)\n 22470: ra = 0x348\n 22474: ecalli 7 // 'hash_keccak_256'\n 22476: fallthrough\n      : @812 [@dyn 420] (gas: 5)\n 22477: a1 = u64 [s1 + 0x148]\n 22481: a0 = a1 + 0x2\n 22484: a1 = a0 <u a1\n 22487: a3 = u64 [s1 + 0x150]\n 22491: t0 = 842, jump @1623\n      : @813 [@dyn 421] (gas: 31)\n 22497: a5 = s1 + 0x3938\n 22501: u64 [a5 + 0x690] = a2\n 22505: a4 = u64 [s1 + 0x180]\n 22509: a1 = u64 [a4 + 0x10]\n 22512: u64 [a5 + 0x688] = a0\n 22516: a0 = u64 [a4 + 0x18]\n 22519: a2 = u64 [s1 + 0x158]\n 22523: a3 = a3 + a2\n 22526: u64 [a5 + 0x698] = a3\n 22530: a2 = a3 <u a2\n 22533: a3 = u64 [s1 + 0x160]\n 22537: a2 = a2 + a3\n 22540: u64 [a5 + 0x6a0] = a2\n 22544: a2 = u64 [a4 + 0x8]\n 22547: a3 = u64 [a4]\n 22549: a5 = reverse a0\n 22551: a4 = reverse a1\n 22553: a1 = reverse a2\n 22555: a2 = reverse a3\n 22557: a0 = u64 [s1 + 0x188]\n 22561: u64 [s1 + 0x178] = a2\n 22565: u64 [a0 + 0x18] = a2\n 22568: u64 [s1 + 0x180] = a1\n 22572: u64 [a0 + 0x10] = a1\n 22575: u64 [s1 + 0x170] = a4\n 22579: u64 [a0 + 0x8] = a4\n 22582: u64 [s1 + 0x168] = a5\n 22586: u64 [a0] = a5\n 22588: a0 = s1 + 0x1a80\n 22592: a1 = s1 + 0x3fc0\n 22596: ra = 844, jump @6\n      : @814 [@dyn 422] (gas: 15)\n 22602: a0 = s1 + 0x1938\n 22606: a2 = a0 + 0x100\n 22610: a1 = u64 [a2 + 0x48]\n 22613: u64 [s1 + 0x138] = a1\n 22617: a1 = u64 [a2 + 0x50]\n 22620: u64 [s1 + 0x130] = a1\n 22624: a1 = u64 [a2 + 0x58]\n 22627: u64 [s1 + 0x128] = a1\n 22631: a0 = u64 [a2 + 0x60]\n 22634: u64 [s1 + 0x120] = a0\n 22638: a0 = s1 + 0x4000\n 22642: i32 a0 = a0 + 0xffffffffffffffe0\n 22645: ra = 0x34e\n 22649: ecalli 8 // 'now'\n 22651: fallthrough\n      : @815 [@dyn 423] (gas: 18)\n 22652: a3 = s1 + 0x3938\n 22656: a1 = a3 + 0x600\n 22660: a0 = u64 [a1 + 0xc0]\n 22664: t0 = u64 [a3 + 0x6a8]\n 22668: a2 = u64 [a1 + 0xb8]\n 22672: a3 = u64 [a1 + 0xb0]\n 22676: a1 = u64 [s1 + 0x120]\n 22680: a4 = a0 ^ a1\n 22683: a1 = a0 <u a1\n 22686: a0 = u64 [s1 + 0x128]\n 22690: a5 = a2 <u a0\n 22693: a5 = a1 if a4 != 0\n 22696: a1 = u64 [s1 + 0x130]\n 22700: t1 = a3 ^ a1\n 22703: a3 = a3 <u a1\n 22706: a1 = u64 [s1 + 0x138]\n 22710: a1 = t0 <u a1\n 22713: t0 = 848, jump @1613\n      : @816 [@dyn 424] (gas: 1)\n 22719: jump @824 if a1 != 0\n      : @817 (gas: 26)\n 22723: a5 = s1 + 0x100\n 22727: a0 = u64 [a5 + 0x48]\n 22730: a2 = a0 + 0x6\n 22733: a0 = a2 <u a0\n 22736: a1 = u64 [a5 + 0x50]\n 22739: a3 = a1 + a0\n 22742: a1 = a3 <u a1\n 22745: a1 = a0 if a0 == 0\n 22748: a0 = u64 [a5 + 0x58]\n 22751: a4 = a0 + a1\n 22754: a0 = a4 <u a0\n 22757: a1 = u64 [a5 + 0x60]\n 22760: a1 = a1 + a0\n 22763: a0 = s1 + 0x3938\n 22767: u64 [a5 + 0x38] = a2\n 22770: u64 [a0 + 0x6c8] = a2\n 22774: u64 [a5 + 0x30] = a3\n 22777: a2 = a0 + 0x600\n 22781: u64 [a2 + 0xd0] = a3\n 22785: u64 [a5 + 0x28] = a4\n 22788: u64 [a2 + 0xd8] = a4\n 22792: u64 [a5 + 0x20] = a1\n 22795: u64 [a2 + 0xe0] = a1\n 22799: a0 = s1 + 0x1a60\n 22803: a1 = s1 + 0x4000\n 22807: ra = 850, jump @6\n      : @818 [@dyn 425] (gas: 3)\n 22813: a0 = s1 + 0x1938\n 22817: a0 = u8 [a0 + 0x13c]\n 22821: jump @820 if a0 <=u 3\n      : @819 (gas: 1)\n 22825: jump @1230\n      : @820 (gas: 1)\n 22828: jump @824 if a0 != 1\n      : @821 (gas: 14)\n 22833: a0 = sp + 0xffffffffffffffe0\n 22836: a1 = a0 & 0xffffffffffffffe0\n 22839: u64 [s1 + 0x110] = a1\n 22843: sp = a1\n 22845: a0 = u64 [s1 + 0x120]\n 22849: u64 [a1 + 0x18] = a0\n 22852: a0 = u64 [s1 + 0x128]\n 22856: u64 [a1 + 0x10] = a0\n 22859: a0 = u64 [s1 + 0x130]\n 22863: u64 [a1 + 0x8] = a0\n 22866: a0 = u64 [s1 + 0x138]\n 22870: u64 [a1] = a0\n 22872: a0 = s1 + 0x1a40\n 22876: ra = 852, jump @6\n      : @822 [@dyn 426] (gas: 2)\n 22882: a0 = 0x2000\n 22886: t0 = 854, jump @1629\n      : @823 [@dyn 427] (gas: 17)\n 22892: a0 = u64 [a4 + 0x8]\n 22895: a1 = u64 [a4 + 0x10]\n 22898: a2 = u64 [a4 + 0x18]\n 22901: a3 = u64 [a4 + 0x20]\n 22904: a4 = 0xffffff00ffffffff\n 22914: a2 = a2 & a4\n 22917: a4 = 0x200000000\n 22927: a2 = a2 | a4\n 22930: a4 = s1 + 0x3938\n 22934: u64 [a4 + 0x700] = a3\n 22938: a3 = a4 + 0x600\n 22942: u64 [a3 + 0xf0] = a1\n 22946: u64 [a3 + 0xe8] = a0\n 22950: u64 [a3 + 0xf8] = a2\n 22954: a1 = s1 + 0x4020\n 22958: a0 = u64 [s1 + 0x110]\n 22962: ra = 856, jump @9\n      : @824 [@dyn 428] (gas: 22)\n 22968: a0 = sp + 0xffffffffffffffe0\n 22971: a1 = a0 & 0xffffffffffffffe0\n 22974: sp = a1\n 22976: a2 = u64 [s1 + 0x168]\n 22980: a0 = a2 + 0x3\n 22983: a4 = a0 <u a2\n 22986: a3 = u64 [s1 + 0x170]\n 22990: a2 = a3 + a4\n 22993: a3 = a2 <u a3\n 22996: a3 = a4 if a4 == 0\n 22999: a4 = u64 [s1 + 0x180]\n 23003: a3 = a3 + a4\n 23006: a5 = a3 <u a4\n 23009: a4 = u64 [s1 + 0x178]\n 23013: a4 = a4 + a5\n 23016: u64 [a1 + 0x8] = a2\n 23019: u64 [a1] = a0\n 23021: u64 [a1 + 0x10] = a3\n 23024: u64 [a1 + 0x18] = a4\n 23027: a0 = s1 + 0x19e0\n 23031: u64 [s1 + 0x138] = a1\n 23035: ra = 858, jump @6\n      : @825 [@dyn 429] (gas: 4)\n 23041: a4 = s1 + 0x1938\n 23045: a0 = u64 [a4 + 0xa8]\n 23049: a1 = a0 & 0xff\n 23053: jump @849 if a1 != 0\n      : @826 (gas: 13)\n 23057: a1 = u64 [a4 + 0xb0]\n 23061: a2 = u64 [a4 + 0xc0]\n 23065: a3 = u64 [a4 + 0xb8]\n 23069: a0 = a0 | 0x1\n 23072: a4 = s1 + 0x3938\n 23076: a5 = a4 + 0x700\n 23080: u64 [a5 + 0x10] = a1\n 23083: u64 [a5 + 0x8] = a0\n 23086: u64 [a5 + 0x18] = a3\n 23089: u64 [a5 + 0x20] = a2\n 23092: a1 = s1 + 0x4040\n 23096: a0 = u64 [s1 + 0x138]\n 23100: ra = 860, jump @9\n      : @827 [@dyn 430] (gas: 12)\n 23106: a0 = u64 [s1 + 0x1a0]\n 23110: a2 = s1 + 0x1938\n 23114: u64 [a2 + 0xa0] = a0\n 23118: a0 = u64 [s1 + 0x1a8]\n 23122: u64 [a2 + 0x98] = a0\n 23126: a0 = u64 [s1 + 0x1b0]\n 23130: u64 [a2 + 0x90] = a0\n 23134: a1 = s1 + 0x19c0\n 23138: a0 = u64 [s1 + 0x1b8]\n 23142: u64 [a2 + 0x88] = a0\n 23146: a0 = 0\n 23148: ra = 862, jump @4\n      : @828 [@dyn 431] (gas: 9)\n 23154: a1 = s1 + 0x1938\n 23158: u64 [a1 + 128] = 0\n 23162: u64 [a1 + 120] = 0\n 23165: u64 [a1 + 104] = 0x4\n 23169: a2 = a1\n 23171: a0 = 0x20\n 23174: a1 = s1 + 0x19a0\n 23178: u64 [a2 + 112] = 0\n 23181: ra = 864, jump @4\n      : @829 [@dyn 432] (gas: 7)\n 23187: a0 = sp + 0xffffffffffffffe0\n 23190: a0 = a0 & 0xffffffffffffffe0\n 23193: u64 [s1 + 0x138] = a0\n 23197: sp = a0\n 23199: a2 = u64 [s1 + 0x190]\n 23203: a0 = i32 [a2]\n 23205: jump @831 if a0 >u 63\n      : @830 (gas: 2)\n 23209: u32 [a2 + 0] = 0x40\n 23212: fallthrough\n      : @831 (gas: 4)\n 23213: a0 = sp + 0xffffffffffffffe0\n 23216: a0 = a0 & 0xffffffffffffffe0\n 23219: u64 [s1 + 0x130] = a0\n 23223: t0 = 866, jump @1579\n      : @832 [@dyn 433] (gas: 3)\n 23229: ra = 0x364\n 23233: ecalli 7 // 'hash_keccak_256'\n 23235: fallthrough\n      : @833 [@dyn 434] (gas: 3)\n 23236: a5 = s1 + 0x100\n 23240: a3 = u64 [a5 + 0x30]\n 23243: t0 = 870, jump @1617\n      : @834 [@dyn 435] (gas: 11)\n 23249: a1 = u64 [a5 + 0x38]\n 23252: u64 [a5 + 0x8] = a3\n 23255: u64 [a1 + 0x18] = a3\n 23258: u64 [a5 + 0x20] = a2\n 23261: u64 [a1 + 0x10] = a2\n 23264: u64 [a5 + 0x28] = a4\n 23267: u64 [a1 + 0x8] = a4\n 23270: u64 [a5 + 0x30] = a0\n 23273: u64 [a1] = a0\n 23275: a0 = s1 + 0x1980\n 23279: ra = 872, jump @6\n      : @835 [@dyn 436] (gas: 11)\n 23285: a4 = s1 + 0x1938\n 23289: t0 = u64 [a4 + 0x60]\n 23292: a5 = u64 [a4 + 0x58]\n 23295: a3 = u64 [a4 + 0x50]\n 23298: a0 = t0 >u 0\n 23300: a1 = a5 >u 0\n 23302: a1 = a0 if t0 != 0\n 23305: a0 = a5 | t0\n 23308: a2 = a3 >u 0\n 23310: a2 = a1 if a0 != 0\n 23313: jump @837 if a2 == 0\n      : @836 (gas: 1)\n 23316: jump @1232\n      : @837 (gas: 22)\n 23319: a0 = u64 [a4 + 0x48]\n 23322: u64 [s1 + 0x190] = a0\n 23326: a0 = a0 + 0x1\n 23329: a1 = a0 <u 0x1\n 23332: a1 = a1 + a3\n 23335: a2 = a0 | a1\n 23338: a2 = a2 <u 0x1\n 23341: a2 = a2 + a5\n 23344: u64 [s1 + 0x100] = a3\n 23348: a3 = a2 <u a5\n 23351: a3 = a3 + t0\n 23354: a4 = s1 + 0x3938\n 23358: u64 [a4 + 0x728] = a0\n 23362: a0 = a4 + 0x700\n 23366: u64 [a0 + 0x30] = a1\n 23369: u64 [a0 + 0x38] = a2\n 23372: u64 [a0 + 0x40] = a3\n 23375: a1 = s1 + 0x4060\n 23379: a0 = u64 [s1 + 0x138]\n 23383: u64 [s1 + 0x138] = a5\n 23387: u64 [s1 + 0xf8] = t0\n 23391: ra = 874, jump @9\n      : @838 [@dyn 437] (gas: 28)\n 23397: a0 = sp + 0xffffffffffffffe0\n 23400: a0 = a0 & 0xffffffffffffffe0\n 23403: u64 [s1 + 0x110] = a0\n 23407: sp = a0\n 23409: a0 = s1 + 0x1138\n 23413: a1 = u64 [s1 + 0xf8]\n 23417: a2 = a0 + 0x700\n 23421: u64 [a2 + 0xe0] = a1\n 23425: a1 = u64 [s1 + 0x138]\n 23429: u64 [a2 + 0xd8] = a1\n 23433: a1 = u64 [s1 + 0x100]\n 23437: u64 [a2 + 0xd0] = a1\n 23441: a1 = u64 [s1 + 0x190]\n 23445: u64 [a2 + 0xc8] = a1\n 23449: a0 = u64 [s1 + 0x108]\n 23453: a1 = s1 + 0x1938\n 23457: u64 [a1] = a0\n 23459: a0 = u64 [s1 + 0x120]\n 23463: u64 [a1 + 0xfffffffffffffff8] = a0\n 23466: a0 = u64 [s1 + 0x128]\n 23470: u64 [a1 + 0xfffffffffffffff0] = a0\n 23473: a4 = a1\n 23475: a0 = s1 + 0x1940\n 23479: a1 = s1 + 0x1920\n 23483: a2 = s1 + 0x1900\n 23487: a3 = u64 [s1 + 0x130]\n 23491: u64 [a4 + 0xffffffffffffffe8] = a3\n 23494: ra = 876, jump @1308\n      : @839 [@dyn 438] (gas: 20)\n 23500: a1 = s1 + 0x1938\n 23504: a0 = u64 [a1 + 0x40]\n 23507: u64 [s1 + 0x190] = a0\n 23511: a0 = u64 [a1 + 0x38]\n 23514: u64 [s1 + 0x120] = a0\n 23518: a0 = u64 [a1 + 0x30]\n 23521: u64 [s1 + 0x130] = a0\n 23525: a0 = u64 [a1 + 0x28]\n 23528: u64 [s1 + 0x138] = a0\n 23532: a0 = u64 [a1 + 0x18]\n 23535: a4 = u64 [a1 + 0x20]\n 23538: a2 = u64 [a1 + 0x8]\n 23541: a3 = u64 [a1 + 0x10]\n 23544: a1 = u64 [s1 + 0x110]\n 23548: u64 [a1 + 0x10] = a0\n 23551: u64 [a1 + 0x18] = a4\n 23554: u64 [a1] = a2\n 23556: u64 [a1 + 0x8] = a3\n 23559: a0 = s1 + 0x18e0\n 23563: ra = 878, jump @6\n      : @840 [@dyn 439] (gas: 67)\n 23569: a1 = s1 + 0x1138\n 23573: a2 = a1 + 0x700\n 23577: a0 = u64 [a2 + 0xb8]\n 23581: u64 [s1 + 0xf0] = a0\n 23585: a0 = u64 [a2 + 0xc0]\n 23589: u64 [s1 + 0xe8] = a0\n 23593: a0 = u64 [a2 + 0xa8]\n 23597: a3 = a1\n 23599: u64 [s1 + 0xe0] = a0\n 23603: a2 = u64 [s1 + 0x138]\n 23607: a0 = a2 >> 0x3d\n 23610: a4 = u64 [s1 + 0x130]\n 23614: a1 = a4 << 0x3\n 23617: a0 = a0 | a1\n 23620: u64 [s1 + 0x128] = a0\n 23624: a0 = a4 >> 0x3d\n 23627: a4 = u64 [s1 + 0x120]\n 23631: a1 = a4 << 0x3\n 23634: a0 = a0 | a1\n 23637: u64 [s1 + 0x130] = a0\n 23641: a0 = u64 [a3 + 0x7b0]\n 23645: u64 [s1 + 0xd8] = a0\n 23649: a0 = a4 >> 0x3d\n 23652: a1 = u64 [s1 + 0x190]\n 23656: a1 = a1 << 0x3\n 23659: a0 = a0 | a1\n 23662: u64 [s1 + 0x120] = a0\n 23666: a2 = a2 << 0x3\n 23669: u64 [s1 + 0x190] = a2\n 23673: a0 = u64 [s1 + 0x118]\n 23677: ecalli 4 // 'caller'\n 23679: a2 = u64 [s1 + 0x128]\n 23683: a0 = a2 >u 0\n 23685: a5 = u64 [s1 + 0x190]\n 23689: a1 = a5 <u 0x100\n 23693: a3 = a1 ^ 0x1\n 23696: a3 = a0 if a2 != 0\n 23699: a4 = u64 [s1 + 0x120]\n 23703: a0 = a4 >u 0\n 23705: a2 = u64 [s1 + 0x130]\n 23709: a1 = a2 >u 0\n 23711: a1 = a0 if a4 != 0\n 23714: a0 = a4\n 23716: a4 = u64 [s1 + 0x140]\n 23720: t1 = u64 [a4 + 0x8]\n 23723: a2 = a2 | a0\n 23726: t0 = i32 [a4 + 0x10]\n 23729: a3 = a1 if a2 != 0\n 23732: u64 [s1 + 0x108] = a3\n 23736: a1 = u64 [a4]\n 23738: a0 = reverse t1\n 23740: a2 = a0 << 0x20\n 23743: a3 = reverse t0\n 23745: a3 = a3 >> 0x20\n 23748: a3 = a3 | a2\n 23751: u64 [s1 + 0x100] = a3\n 23755: a0 = a0 >> 0x20\n 23758: a4 = reverse a1\n 23760: a2 = a4 << 0x20\n 23763: a1 = a2 | a0\n 23766: u64 [s1 + 0xf8] = a1\n 23770: a4 = a4 >> 0x20\n 23773: u64 [s1 + 0x130] = a4\n 23777: i32 a2 = 0x80 - a5\n 23781: u64 [s1 + 0xd0] = a2\n 23785: a0 = a3\n 23787: ra = 880, jump @1634\n      : @841 [@dyn 440] (gas: 8)\n 23793: u64 [s1 + 0x120] = a0\n 23797: u64 [s1 + 0xc0] = a1\n 23801: a0 = u64 [s1 + 0x138]\n 23805: i32 a2 = a0 << 0x3\n 23808: u64 [s1 + 0x128] = a2\n 23812: a0 = u64 [s1 + 0x130]\n 23816: a1 = 0\n 23818: ra = 882, jump @1639\n      : @842 [@dyn 441] (gas: 10)\n 23824: u64 [s1 + 0xb8] = a1\n 23828: a1 = u64 [s1 + 0x120]\n 23832: a0 = a0 | a1\n 23835: u64 [s1 + 0x138] = a0\n 23839: a0 = u64 [s1 + 0x190]\n 23843: i32 a2 = a0 + 0xffffffffffffff80\n 23846: u64 [s1 + 0xc8] = a2\n 23850: a0 = u64 [s1 + 0x100]\n 23854: a1 = u64 [s1 + 0xf8]\n 23858: ra = 884, jump @1639\n      : @843 [@dyn 442] (gas: 18)\n 23864: a2 = u64 [s1 + 0x190]\n 23868: a4 = a2 <u 0x80\n 23872: u64 [s1 + 0x120] = a4\n 23876: a3 = u64 [s1 + 0x138]\n 23880: a0 = a3 if a4 != 0\n 23883: a3 = u64 [s1 + 0x130]\n 23887: a0 = a3 if a2 == 0\n 23890: u64 [s1 + 0x138] = a0\n 23894: a0 = u64 [s1 + 0xc0]\n 23898: a3 = u64 [s1 + 0xb8]\n 23902: a0 = a0 | a3\n 23905: a0 = a1 if a4 == 0\n 23908: a0 = 0 if a2 == 0\n 23910: u64 [s1 + 0x130] = a0\n 23914: a0 = u64 [s1 + 0x100]\n 23918: a1 = u64 [s1 + 0xf8]\n 23922: a2 = u64 [s1 + 0x128]\n 23926: ra = 886, jump @1639\n      : @844 [@dyn 443] (gas: 20)\n 23932: a2 = a1\n 23934: a1 = u64 [s1 + 0x120]\n 23938: a0 = 0 if a1 == 0\n 23940: a2 = 0 if a1 == 0\n 23942: a3 = u64 [s1 + 0x108]\n 23946: a1 = u64 [s1 + 0x130]\n 23950: a1 = 0 if a3 != 0\n 23952: u64 [s1 + 0x130] = a1\n 23956: a1 = u64 [s1 + 0x138]\n 23960: a1 = 0 if a3 != 0\n 23962: u64 [s1 + 0x138] = a1\n 23966: a2 = 0 if a3 != 0\n 23968: u64 [s1 + 0x100] = a2\n 23972: a0 = 0 if a3 != 0\n 23974: u64 [s1 + 0xf8] = a0\n 23978: a0 = 0xffffffff\n 23988: u64 [s1 + 0xc0] = a0\n 23992: a1 = 0\n 23994: a2 = u64 [s1 + 0x128]\n 23998: ra = 888, jump @1639\n      : @845 [@dyn 444] (gas: 6)\n 24004: u64 [s1 + 0xa8] = a0\n 24008: u64 [s1 + 0xb8] = a1\n 24012: a0 = 0xffffffffffffffff\n 24015: a1 = 0xffffffffffffffff\n 24018: a2 = u64 [s1 + 0xd0]\n 24022: ra = 890, jump @1634\n      : @846 [@dyn 445] (gas: 8)\n 24028: u64 [s1 + 0xb0] = a1\n 24032: a1 = u64 [s1 + 0xa8]\n 24036: a0 = a0 | a1\n 24039: u64 [s1 + 0xd0] = a0\n 24043: a0 = 0xffffffffffffffff\n 24046: a1 = 0xffffffffffffffff\n 24049: a2 = u64 [s1 + 0xc8]\n 24053: ra = 892, jump @1639\n      : @847 [@dyn 446] (gas: 17)\n 24059: a2 = u64 [s1 + 0x120]\n 24063: a3 = u64 [s1 + 0xd0]\n 24067: a0 = a3 if a2 != 0\n 24070: a4 = u64 [s1 + 0x190]\n 24074: a3 = u64 [s1 + 0xc0]\n 24078: a0 = a3 if a4 == 0\n 24081: u64 [s1 + 0xd0] = a0\n 24085: a0 = u64 [s1 + 0xb8]\n 24089: a3 = u64 [s1 + 0xb0]\n 24093: a0 = a0 | a3\n 24096: a0 = a1 if a2 == 0\n 24099: a0 = 0 if a4 == 0\n 24101: u64 [s1 + 0x190] = a0\n 24105: a0 = 0xffffffffffffffff\n 24108: a1 = 0xffffffffffffffff\n 24111: a2 = u64 [s1 + 0x128]\n 24115: ra = 894, jump @1639\n      : @848 [@dyn 447] (gas: 40)\n 24121: a2 = u64 [s1 + 0x120]\n 24125: a0 = 0 if a2 == 0\n 24127: a1 = 0 if a2 == 0\n 24129: a2 = u64 [s1 + 0x190]\n 24133: a2 = a2 ^ 0xffffffffffffffff\n 24136: a3 = u64 [s1 + 0xd0]\n 24140: a3 = a3 ^ 0xffffffffffffffff\n 24143: a1 = a1 ^ 0xffffffffffffffff\n 24146: a0 = a0 ^ 0xffffffffffffffff\n 24149: a4 = u64 [s1 + 0x108]\n 24153: a3 = 0xffffffffffffffff if a4 != 0\n 24156: a2 = 0xffffffffffffffff if a4 != 0\n 24159: a0 = 0xffffffffffffffff if a4 != 0\n 24162: a1 = 0xffffffffffffffff if a4 != 0\n 24165: a4 = u64 [s1 + 0xd8]\n 24169: a1 = a1 & a4\n 24172: a4 = u64 [s1 + 0xe0]\n 24176: a0 = a0 & a4\n 24179: a4 = u64 [s1 + 0xe8]\n 24183: a2 = a2 & a4\n 24186: a4 = u64 [s1 + 0xf0]\n 24190: a3 = a3 & a4\n 24193: a5 = s1 + 0x100\n 24197: a4 = u64 [a5 + 0x38]\n 24200: a3 = a3 | a4\n 24203: a4 = u64 [a5 + 0x30]\n 24206: a2 = a2 | a4\n 24209: a4 = u64 [s1 + 0xf8]\n 24213: a0 = a0 | a4\n 24216: a4 = u64 [a5]\n 24218: a1 = a1 | a4\n 24221: a4 = s1 + 0x3938\n 24225: u64 [a4 + 0x750] = a1\n 24229: a1 = a4 + 0x700\n 24233: u64 [a1 + 0x48] = a0\n 24236: u64 [a1 + 0x60] = a2\n 24239: u64 [a1 + 0x58] = a3\n 24242: a1 = s1 + 0x4080\n 24246: a0 = u64 [a5 + 0x10]\n 24249: ra = 896, jump @9\n      : @849 [@dyn 448] (gas: 21)\n 24255: a0 = s1 + 0x3938\n 24259: u64 [a0 + 1920] = 0\n 24263: u64 [a0 + 1912] = 0\n 24267: u64 [a0 + 1904] = 0\n 24271: u64 [a0 + 1896] = 0\n 24275: a0 = s1 + 0x4000\n 24279: i32 a0 = a0 + 0xa0\n 24283: ecalli 15 // 'value_transferred'\n 24285: a0 = s1 + 0x3938\n 24289: a2 = a0 + 0x700\n 24293: a1 = u64 [a2 + 0x68]\n 24296: u64 [s1 + 0x190] = a1\n 24300: a1 = u64 [a2 + 0x70]\n 24303: u64 [s1 + 0x138] = a1\n 24307: a1 = u64 [a2 + 0x78]\n 24310: u64 [s1 + 0x130] = a1\n 24314: a0 = u64 [a2 + 0x80]\n 24318: u64 [s1 + 0x128] = a0\n 24322: a0 = s1 + 0x18c0\n 24326: a1 = u64 [s1 + 0x188]\n 24330: ra = 898, jump @6\n      : @850 [@dyn 449] (gas: 22)\n 24336: a4 = s1 + 0x1138\n 24340: a3 = u64 [a4 + 0x788]\n 24344: a0 = u64 [a4 + 0x790]\n 24348: a1 = u64 [a4 + 0x798]\n 24352: a2 = u64 [a4 + 0x7a0]\n 24356: a5 = u64 [s1 + 0x128]\n 24360: u64 [a4 + 0x740] = a5\n 24364: a5 = u64 [s1 + 0x130]\n 24368: u64 [a4 + 0x738] = a5\n 24372: a5 = u64 [s1 + 0x138]\n 24376: u64 [a4 + 0x730] = a5\n 24380: a5 = u64 [s1 + 0x190]\n 24384: u64 [a4 + 0x728] = a5\n 24388: a5 = a4 + 0x700\n 24392: u64 [a5 + 0x60] = a2\n 24395: u64 [a5 + 0x58] = a1\n 24398: u64 [a5 + 0x50] = a0\n 24401: a0 = s1 + 0x18a0\n 24405: a1 = s1 + 0x1880\n 24409: a2 = s1 + 0x1860\n 24413: u64 [a5 + 0x48] = a3\n 24416: ra = 900, jump @1380\n      : @851 [@dyn 450] (gas: 15)\n 24422: a3 = s1 + 0x1138\n 24426: a4 = a3 + 0x700\n 24430: a0 = u64 [a4 + 0x80]\n 24434: a1 = u64 [a4 + 0x78]\n 24437: a2 = u64 [a4 + 0x70]\n 24440: a3 = u64 [a4 + 0x68]\n 24443: a4 = s1 + 0x3938\n 24447: a5 = a4 + 0x700\n 24451: u64 [a5 + 0xa0] = a0\n 24455: u64 [a5 + 0x98] = a1\n 24459: u64 [a5 + 0x90] = a2\n 24463: u64 [a5 + 0x88] = a3\n 24467: a1 = s1 + 0x40c0\n 24471: a0 = u64 [s1 + 0x188]\n 24475: ra = 902, jump @9\n      : @852 [@dyn 451] (gas: 24)\n 24481: a0 = sp + 0xffffffffffffffe0\n 24484: t0 = a0 & 0xffffffffffffffe0\n 24487: sp = t0\n 24489: a0 = u64 [s1 + 0x168]\n 24493: a0 = a0 + 0x1\n 24496: a1 = a0 <u 0x1\n 24499: a2 = u64 [s1 + 0x170]\n 24503: a5 = a2 + a1\n 24506: a2 = a0 | a5\n 24509: a2 = a2 <u 0x1\n 24512: a3 = u64 [s1 + 0x180]\n 24516: a2 = a2 + a3\n 24519: a3 = a2 <u a3\n 24522: a4 = u64 [s1 + 0x178]\n 24526: a3 = a3 + a4\n 24529: a1 = t0\n 24531: u64 [s1 + 0x190] = t0\n 24535: a4 = t0\n 24537: u64 [a4 + 0x18] = a3\n 24540: u64 [a4 + 0x10] = a2\n 24543: u64 [a4 + 0x8] = a5\n 24546: u64 [a4] = a0\n 24548: a0 = s1 + 0x1840\n 24552: ra = 904, jump @6\n      : @853 [@dyn 452] (gas: 14)\n 24558: a4 = s1 + 0x1138\n 24562: a5 = a4 + 0x700\n 24566: a2 = u64 [a5 + 0x8]\n 24569: a0 = u64 [a5 + 0x10]\n 24572: a1 = u64 [a5 + 0x18]\n 24575: a3 = u64 [a5 + 0x20]\n 24578: a5 = a4 + 0x600\n 24582: u64 [a5 + 0xe0] = a3\n 24586: u64 [a5 + 0xd8] = a1\n 24590: u64 [a5 + 0xd0] = a0\n 24594: a0 = s1 + 0x1820\n 24598: a1 = s1 + 0x1800\n 24602: u64 [a5 + 0xc8] = a2\n 24606: ra = 906, jump @1372\n      : @854 [@dyn 453] (gas: 15)\n 24612: a3 = s1 + 0x1138\n 24616: a0 = u64 [a3 + 0x700]\n 24620: a4 = a3 + 0x600\n 24624: a1 = u64 [a4 + 0xf8]\n 24628: a2 = u64 [a4 + 0xf0]\n 24632: a3 = u64 [a4 + 0xe8]\n 24636: a4 = s1 + 0x3938\n 24640: a5 = a4 + 0x700\n 24644: u64 [a5 + 0xc0] = a0\n 24648: u64 [a5 + 0xb8] = a1\n 24652: u64 [a5 + 0xb0] = a2\n 24656: u64 [a5 + 0xa8] = a3\n 24660: a1 = s1 + 0x40e0\n 24664: a0 = u64 [s1 + 0x190]\n 24668: ra = 908, jump @9\n      : @855 [@dyn 454] (gas: 5)\n 24674: a0 = s1 + 0x4000\n 24678: i32 a0 = a0 + 0x100\n 24682: ra = 0x38e\n 24686: ecalli 8 // 'now'\n 24688: fallthrough\n      : @856 [@dyn 455] (gas: 5)\n 24689: a1 = u64 [s1 + 0x168]\n 24693: a0 = a1 + 0x2\n 24696: a1 = a0 <u a1\n 24699: a3 = u64 [s1 + 0x170]\n 24703: t0 = 912, jump @1623\n      : @857 [@dyn 456] (gas: 23)\n 24709: a1 = u64 [s1 + 0x180]\n 24713: a3 = a3 + a1\n 24716: a1 = a3 <u a1\n 24719: a4 = u64 [s1 + 0x178]\n 24723: a1 = a1 + a4\n 24726: a4 = s1 + 0x4138\n 24730: u64 [a4] = a1\n 24732: a5 = a4 + 0xffffffffffffff00\n 24736: u64 [a5 + 0xf8] = a3\n 24740: a3 = s1 + 0x3938\n 24744: a1 = u64 [a3 + 0x7d8]\n 24748: u64 [a5 + 0xf0] = a2\n 24752: a2 = u64 [a3 + 0x7e0]\n 24756: u64 [a5 + 0xe8] = a0\n 24760: a0 = u64 [a3 + 0x7d0]\n 24764: a3 = u64 [a3 + 0x7c8]\n 24768: u64 [a4 + 0x20] = a2\n 24771: u64 [a4 + 0x18] = a1\n 24774: u64 [a4 + 0x10] = a0\n 24777: u64 [a4 + 0x8] = a3\n 24780: a0 = s1 + 0x4120\n 24784: a1 = s1 + 0x4140\n 24788: ra = 914, jump @9\n      : @858 [@dyn 457] (gas: 8)\n 24794: a0 = sp + 0xffffffffffffffe0\n 24797: a5 = a0 & 0xffffffffffffffe0\n 24800: sp = a5\n 24802: a1 = u64 [s1 + 0x148]\n 24806: a0 = a1 + 0x4\n 24809: a1 = a0 <u a1\n 24812: a3 = u64 [s1 + 0x150]\n 24816: t0 = 916, jump @1623\n      : @859 [@dyn 458] (gas: 30)\n 24822: a1 = u64 [s1 + 0x158]\n 24826: a3 = a3 + a1\n 24829: a1 = a3 <u a1\n 24832: a4 = u64 [s1 + 0x160]\n 24836: a1 = a1 + a4\n 24839: u64 [s1 + 0x190] = a5\n 24843: u64 [a5 + 0x18] = a1\n 24846: u64 [a5 + 0x10] = a3\n 24849: u64 [a5 + 0x8] = a2\n 24852: u64 [a5] = a0\n 24854: a0 = s1 + 0x4138\n 24858: u64 [a0 + 64] = 0\n 24861: u64 [a0 + 56] = 0\n 24864: u64 [a0 + 48] = 0\n 24867: u64 [a0 + 40] = 0\n 24870: a0 = s1 + 0x4000\n 24874: i32 a0 = a0 + 0x160\n 24878: ecalli 15 // 'value_transferred'\n 24880: a0 = s1 + 0x4138\n 24884: a1 = u64 [a0 + 0x28]\n 24887: u64 [s1 + 0x180] = a1\n 24891: a1 = u64 [a0 + 0x30]\n 24894: u64 [s1 + 0x178] = a1\n 24898: a1 = u64 [a0 + 0x38]\n 24901: u64 [s1 + 0x170] = a1\n 24905: a0 = u64 [a0 + 0x40]\n 24908: u64 [s1 + 0x168] = a0\n 24912: a0 = s1 + 0x17e0\n 24916: a1 = u64 [s1 + 0x190]\n 24920: ra = 918, jump @6\n      : @860 [@dyn 459] (gas: 22)\n 24926: a4 = s1 + 0x1138\n 24930: a3 = u64 [a4 + 0x6a8]\n 24934: a0 = u64 [a4 + 0x6b0]\n 24938: a1 = u64 [a4 + 0x6b8]\n 24942: a2 = u64 [a4 + 0x6c0]\n 24946: a5 = u64 [s1 + 0x168]\n 24950: u64 [a4 + 0x660] = a5\n 24954: a5 = u64 [s1 + 0x170]\n 24958: u64 [a4 + 0x658] = a5\n 24962: a5 = u64 [s1 + 0x178]\n 24966: u64 [a4 + 0x650] = a5\n 24970: a5 = u64 [s1 + 0x180]\n 24974: u64 [a4 + 0x648] = a5\n 24978: a5 = a4 + 0x600\n 24982: u64 [a5 + 0x80] = a2\n 24986: u64 [a5 + 0x78] = a1\n 24989: u64 [a5 + 0x70] = a0\n 24992: a0 = s1 + 0x17c0\n 24996: a1 = s1 + 0x17a0\n 25000: a2 = s1 + 0x1780\n 25004: u64 [a5 + 0x68] = a3\n 25007: ra = 920, jump @1380\n      : @861 [@dyn 460] (gas: 14)\n 25013: a3 = s1 + 0x1138\n 25017: a4 = a3 + 0x600\n 25021: a0 = u64 [a4 + 0xa0]\n 25025: a1 = u64 [a4 + 0x98]\n 25029: a2 = u64 [a4 + 0x90]\n 25033: a3 = u64 [a4 + 0x88]\n 25037: a4 = s1 + 0x4138\n 25041: u64 [a4 + 0x60] = a0\n 25044: u64 [a4 + 0x58] = a1\n 25047: u64 [a4 + 0x50] = a2\n 25050: u64 [a4 + 0x48] = a3\n 25053: a1 = s1 + 0x4180\n 25057: a0 = u64 [s1 + 0x190]\n 25061: ra = 922, jump @9\n      : @862 [@dyn 461] (gas: 3)\n 25067: a0 = s1 + 0x1760\n 25071: a1 = u64 [s1 + 0x188]\n 25075: ra = 924, jump @6\n      : @863 [@dyn 462] (gas: 13)\n 25081: a1 = s1 + 0x1138\n 25085: a2 = a1 + 0x600\n 25089: a0 = u64 [a2 + 0x40]\n 25092: u64 [s1 + 0x170] = a0\n 25096: a0 = u64 [a2 + 0x38]\n 25099: u64 [s1 + 0x168] = a0\n 25103: a0 = u64 [a2 + 0x30]\n 25106: u64 [s1 + 0x160] = a0\n 25110: a0 = u64 [a2 + 0x28]\n 25113: u64 [s1 + 0x158] = a0\n 25117: a0 = s1 + 0x1740\n 25121: a1 = 0x40\n 25124: ra = 926, jump @2\n      : @864 [@dyn 463] (gas: 20)\n 25130: a1 = s1 + 0x1138\n 25134: a2 = a1 + 0x600\n 25138: a0 = u64 [a2 + 0x20]\n 25141: u64 [s1 + 0x180] = a0\n 25145: a0 = u64 [a2 + 0x18]\n 25148: u64 [s1 + 0x178] = a0\n 25152: a0 = u64 [a2 + 0x10]\n 25155: u64 [s1 + 0x188] = a0\n 25159: a0 = u64 [a2 + 0x8]\n 25162: u64 [s1 + 0x190] = a0\n 25166: a0 = s1 + 0x4138\n 25170: u64 [a0 + 128] = 0\n 25174: u64 [a0 + 120] = 0\n 25177: u64 [a0 + 112] = 0\n 25180: u64 [a0 + 104] = 0\n 25183: a0 = s1 + 0x4000\n 25187: i32 a0 = a0 + 0x1a0\n 25191: ra = 0x3a0\n 25195: ecalli 15 // 'value_transferred'\n 25197: fallthrough\n      : @865 [@dyn 464] (gas: 7)\n 25198: a3 = s1 + 0x100\n 25202: a0 = u64 [a3 + 0x80]\n 25206: a1 = u64 [a3 + 0x88]\n 25210: a0 = a0 | a1\n 25213: a2 = u64 [a3 + 0x78]\n 25216: a1 = u64 [a3 + 0x90]\n 25220: t0 = 930, jump @1631\n      : @866 [@dyn 465] (gas: 1)\n 25226: jump @868 if a0 == 0\n      : @867 (gas: 1)\n 25229: jump @993\n      : @868 (gas: 14)\n 25232: a3 = s1 + 0x4138\n 25236: a0 = u64 [a3 + 0x68]\n 25239: a1 = u64 [a3 + 0x70]\n 25242: a2 = u64 [a3 + 0x78]\n 25245: a3 = u64 [a3 + 0x80]\n 25249: a4 = s1 + 0x1138\n 25253: u64 [a4 + 0x600] = a3\n 25257: a3 = a4 + 0x500\n 25261: u64 [a3 + 0xf8] = a2\n 25265: u64 [a3 + 0xf0] = a1\n 25269: a1 = s1 + 0x1720\n 25273: u64 [a3 + 0xe8] = a0\n 25277: a0 = u64 [s1 + 0x190]\n 25281: ra = 932, jump @4\n      : @869 [@dyn 466] (gas: 11)\n 25287: a3 = s1 + 0x100\n 25291: a0 = u64 [a3 + 0x80]\n 25295: a1 = u64 [a3 + 0x78]\n 25298: a0 = a0 | a1\n 25301: a1 = 0xffffffe0\n 25311: a2 = u64 [a3 + 0x90]\n 25315: a1 = a2 <u a1\n 25318: a2 = u64 [a3 + 0x88]\n 25322: a1 = 0 if a2 != 0\n 25324: a1 = 0 if a0 != 0\n 25326: jump @871 if a1 != 0\n      : @870 (gas: 1)\n 25329: jump @993\n      : @871 (gas: 14)\n 25332: a0 = u64 [s1 + 0x190]\n 25336: i32 a0 = a0 + 0x20\n 25339: a3 = s1 + 0x1138\n 25343: a1 = u64 [s1 + 0x158]\n 25347: a4 = a3 + 0x500\n 25351: u64 [a4 + 0xc8] = a1\n 25355: a1 = u64 [s1 + 0x160]\n 25359: u64 [a4 + 0xd0] = a1\n 25363: a1 = u64 [s1 + 0x168]\n 25367: u64 [a4 + 0xd8] = a1\n 25371: a1 = s1 + 0x1700\n 25375: a2 = u64 [s1 + 0x170]\n 25379: u64 [a4 + 0xe0] = a2\n 25383: ra = 934, jump @4\n      : @872 [@dyn 467] (gas: 45)\n 25389: a0 = u64 [s1 + 0x118]\n 25393: ecalli 4 // 'caller'\n 25395: a2 = u64 [s1 + 0x140]\n 25399: a0 = u64 [a2 + 0x8]\n 25402: a1 = i32 [a2 + 0x10]\n 25405: a2 = u64 [a2]\n 25407: a3 = reverse a0\n 25409: a0 = a3 << 0x20\n 25412: a1 = reverse a1\n 25414: a1 = a1 >> 0x20\n 25417: t0 = a1 | a0\n 25420: a3 = a3 >> 0x20\n 25423: a2 = reverse a2\n 25425: a1 = a2 << 0x20\n 25428: t1 = a1 | a3\n 25431: a2 = a2 >> 0x20\n 25434: a1 = s1 + 0x1138\n 25438: u64 [a1 + 1408] = 0\n 25442: a0 = u64 [s1 + 0x1a0]\n 25446: u64 [a1 + 0x5a0] = a0\n 25450: a0 = u64 [s1 + 0x1a8]\n 25454: u64 [a1 + 0x598] = a0\n 25458: a0 = u64 [s1 + 0x1b0]\n 25462: u64 [a1 + 0x590] = a0\n 25466: a0 = u64 [s1 + 0x1b8]\n 25470: u64 [a1 + 0x588] = a0\n 25474: a3 = u64 [0x200a0]\n 25479: a4 = u64 [0x200a8]\n 25484: a5 = u64 [0x200b0]\n 25489: a0 = u64 [0x200b8]\n 25494: u64 [a1 + 0x5c0] = a3\n 25498: a3 = a1 + 0x500\n 25502: u64 [a3 + 0xb8] = a4\n 25506: u64 [a3 + 0xb0] = a5\n 25510: u64 [a3 + 0xa8] = a0\n 25514: u64 [a3 + 0x78] = a2\n 25517: u64 [a1 + 0x570] = t1\n 25521: a0 = a1\n 25523: a1 = 0x40\n 25526: a2 = s1 + 0x16e0\n 25530: a3 = s1 + 0x16c0\n 25534: a4 = s1 + 0x16a0\n 25538: u64 [a0 + 0x568] = t0\n 25542: a0 = u64 [s1 + 0x190]\n 25546: ra = 936, jump @12\n      : @873 [@dyn 468] (gas: 6)\n 25552: a0 = 0\n 25554: a1 = u64 [s1 + 0x198]\n 25558: a2 = 0\n 25560: ecalli 12 // 'seal_return'\n 25562: a1 = 0x201a0\n 25567: jump @1175\n      : @874 (gas: 34)\n 25570: a0 = u64 [s1 + 0xf8]\n 25574: a1 = u64 [s1 + 0x1b8]\n 25578: t1 = a1 <u a0\n 25581: a1 = u64 [s1 + 0xe0]\n 25585: a5 = u64 [s1 + 0x1a8]\n 25589: a3 = a5 ^ a1\n 25592: a2 = a5 <u a1\n 25595: a2 = t1 if a3 == 0\n 25598: t0 = u64 [s1 + 0xe8]\n 25602: a3 = u64 [s1 + 0x1a0]\n 25606: ra = a3 - t0\n 25609: a3 = a3 <u t0\n 25612: t2 = u64 [s1 + 0xf0]\n 25616: a4 = u64 [s1 + 0x1b0]\n 25620: a4 = a4 - t2\n 25623: a4 = a4 - a3\n 25626: a3 = ra <u a2\n 25629: a4 = a4 - a3\n 25632: ra = ra - a2\n 25635: a2 = a5 - a1\n 25638: a2 = a2 - t1\n 25641: a3 = u64 [s1 + 0x1b8]\n 25645: a3 = a3 - a0\n 25648: u64 [s1 + 0x5a0] = a0\n 25652: u64 [s1 + 0x580] = a3\n 25656: u64 [s1 + 0x5a8] = a1\n 25660: u64 [s1 + 0x5b0] = t0\n 25664: u64 [s1 + 0x588] = a2\n 25668: u64 [s1 + 0x5b8] = t2\n 25672: u64 [s1 + 0x590] = ra\n 25676: a0 = s1 + 0x5a0\n 25680: a1 = s1 + 0x580\n 25684: u64 [s1 + 0x598] = a4\n 25688: ra = 938, jump @1343\n      : @875 [@dyn 469] (gas: 3)\n 25694: a0 = s1 + 0x560\n 25698: a1 = 0x40\n 25701: ra = 940, jump @2\n      : @876 [@dyn 470] (gas: 13)\n 25707: t0 = u64 [s1 + 0x578]\n 25711: a1 = s1 + 0x500\n 25715: a5 = u64 [a1 + 0x70]\n 25718: a3 = u64 [a1 + 0x68]\n 25721: a0 = u64 [a1 + 0x60]\n 25724: a2 = a3 | t0\n 25727: a1 = a0 | a5\n 25730: a1 = a1 | a2\n 25733: a1 = a1 >> 0x20\n 25736: a2 = a2 | a5\n 25739: a2 = a2 << 0x20\n 25742: a1 = a1 | a2\n 25745: jump @878 if a1 == 0\n      : @877 (gas: 1)\n 25748: jump @993\n      : @878 (gas: 22)\n 25751: a1 = a0 + 0x20\n 25754: u64 [s1 + 0x1b0] = a1\n 25758: a4 = a1 <u a0\n 25761: a1 = a3 + a4\n 25764: u64 [s1 + 0x1b8] = a1\n 25768: a1 = a1 <u a3\n 25771: a1 = a4 if a4 == 0\n 25774: a1 = a1 + a5\n 25777: u64 [s1 + 0x1a0] = a1\n 25781: a1 = a1 <u a5\n 25784: a1 = a1 + t0\n 25787: u64 [s1 + 0x1a8] = a1\n 25791: u64 [s1 + 1368] = 0\n 25795: u64 [s1 + 1360] = 0\n 25799: u64 [s1 + 1352] = 0\n 25803: a1 = s1 + 0x540\n 25807: u64 [s1 + 1344] = 0x20\n 25812: u64 [s1 + 0x150] = a0\n 25816: u64 [s1 + 0x140] = a3\n 25820: u64 [s1 + 0x138] = t0\n 25824: u64 [s1 + 0x130] = a5\n 25828: ra = 942, jump @4\n      : @879 [@dyn 471] (gas: 3)\n 25834: a0 = s1 + 0x520\n 25838: a1 = u64 [s1 + 0xf8]\n 25842: ra = 944, jump @2\n      : @880 [@dyn 472] (gas: 13)\n 25848: a5 = s1 + 0x100\n 25852: a0 = u64 [a5 + 0xb0]\n 25856: a3 = u64 [a5 + 0xa0]\n 25860: a2 = a0 | a3\n 25863: a1 = u64 [a5 + 0xb8]\n 25867: a4 = u64 [a5 + 0xa8]\n 25871: a1 = a1 | a4\n 25874: a2 = a2 | a1\n 25877: a2 = a2 >> 0x20\n 25880: a1 = a1 | a3\n 25883: a1 = a1 << 0x20\n 25886: a1 = a1 | a2\n 25889: jump @882 if a1 == 0\n      : @881 (gas: 1)\n 25892: jump @993\n      : @882 (gas: 15)\n 25895: a5 = s1 + 0x500\n 25899: a4 = u64 [a5 + 0x38]\n 25902: a1 = u64 [a5 + 0x30]\n 25905: a2 = u64 [a5 + 0x28]\n 25908: a3 = u64 [a5 + 0x20]\n 25911: u64 [s1 + 0x158] = a3\n 25915: u64 [a5] = a3\n 25917: u64 [s1 + 0x160] = a2\n 25921: u64 [a5 + 0x8] = a2\n 25924: u64 [s1 + 0x168] = a1\n 25928: u64 [a5 + 0x10] = a1\n 25931: a1 = s1 + 0x500\n 25935: u64 [s1 + 0x170] = a4\n 25939: u64 [a5 + 0x18] = a4\n 25942: ra = 946, jump @4\n      : @883 [@dyn 473] (gas: 24)\n 25948: t0 = 0\n 25950: a4 = 0\n 25952: ra = 0\n 25954: t2 = 0\n 25956: a3 = s1 + 0x100\n 25960: a1 = u64 [a3 + 0x50]\n 25963: a0 = a1 + 0x40\n 25966: u64 [a3 + 0xb0] = a0\n 25970: a0 = a0 <u a1\n 25973: a2 = u64 [a3 + 0x40]\n 25976: a1 = a2 + a0\n 25979: u64 [a3 + 0xa8] = a1\n 25983: a1 = a1 <u a2\n 25986: a1 = a0 if a0 == 0\n 25989: a0 = u64 [a3 + 0x30]\n 25992: a1 = a1 + a0\n 25995: u64 [a3 + 0xa0] = a1\n 25999: a0 = a1 <u a0\n 26002: a1 = u64 [a3 + 0x38]\n 26005: a0 = a0 + a1\n 26008: u64 [a3 + 0xb8] = a0\n 26012: a1 = u64 [a3 + 0x8]\n 26015: t1 = u64 [s1 + 0x100]\n 26019: fallthrough\n      : @884 (gas: 17)\n 26020: a0 = u64 [s1 + 0x158]\n 26024: a0 = t0 <u a0\n 26027: a2 = u64 [s1 + 0x160]\n 26031: a3 = a4 ^ a2\n 26034: u64 [s1 + 0x198] = a4\n 26038: a2 = a4 <u a2\n 26041: a2 = a0 if a3 == 0\n 26044: a5 = u64 [s1 + 0x168]\n 26048: a0 = ra <u a5\n 26051: a3 = u64 [s1 + 0x170]\n 26055: a4 = t2 ^ a3\n 26058: a3 = t2 <u a3\n 26061: a3 = a0 if a4 == 0\n 26064: a0 = ra ^ a5\n 26067: a0 = a0 | a4\n 26070: a3 = a2 if a0 == 0\n 26073: jump @991 if a3 == 0\n      : @885 (gas: 10)\n 26077: a0 = a1 | t1\n 26080: a2 = u64 [s1 + 0x110]\n 26084: a3 = u64 [s1 + 0x118]\n 26088: a2 = a2 | a3\n 26091: a0 = a0 | a2\n 26094: a0 = a0 >> 0x20\n 26097: a2 = a2 | t1\n 26100: a2 = a2 << 0x20\n 26103: a0 = a0 | a2\n 26106: jump @887 if a0 == 0\n      : @886 (gas: 1)\n 26109: jump @993\n      : @887 (gas: 7)\n 26112: u64 [s1 + 0x180] = ra\n 26116: u64 [s1 + 0x188] = t2\n 26120: u64 [s1 + 0x190] = t0\n 26124: u64 [s1 + 0x100] = t1\n 26128: a0 = s1 + 0x4e0\n 26132: u64 [s1 + 0x108] = a1\n 26136: ra = 948, jump @2\n      : @888 [@dyn 474] (gas: 13)\n 26142: a1 = s1 + 0x100\n 26146: a0 = u64 [a1 + 0xb0]\n 26150: a4 = u64 [a1 + 0xa0]\n 26154: a2 = a0 | a4\n 26157: a3 = u64 [a1 + 0xb8]\n 26161: a5 = u64 [a1 + 0xa8]\n 26165: a1 = a5 | a3\n 26168: a2 = a2 | a1\n 26171: a2 = a2 >> 0x20\n 26174: a1 = a1 | a4\n 26177: a1 = a1 << 0x20\n 26180: a1 = a1 | a2\n 26183: jump @890 if a1 == 0\n      : @889 (gas: 1)\n 26186: jump @993\n      : @890 (gas: 18)\n 26189: u64 [s1 + 0x1a0] = a4\n 26193: a4 = u64 [s1 + 0x4f0]\n 26197: a1 = u64 [s1 + 0x4e8]\n 26201: a2 = u64 [s1 + 0x4e0]\n 26205: u64 [s1 + 0x1b8] = a3\n 26209: a3 = u64 [s1 + 0x148]\n 26213: a4 = a4 & a3\n 26216: a1 = a1 & 0xffffffffffffffff\n 26219: a2 = a2 & 0xffffffffffffffff\n 26222: u64 [s1 + 1240] = 0\n 26226: a3 = s1 + 0x400\n 26230: u64 [a3 + 0xc0] = a2\n 26234: u64 [a3 + 0xc8] = a1\n 26238: a1 = s1 + 0x4c0\n 26242: u64 [a3 + 0xd0] = a4\n 26246: u64 [s1 + 0x1b0] = a0\n 26250: u64 [s1 + 0x1a8] = a5\n 26254: ra = 950, jump @4\n      : @891 [@dyn 475] (gas: 51)\n 26260: a1 = u64 [s1 + 0x1b0]\n 26264: a0 = a1 + 0x20\n 26267: u64 [s1 + 0x178] = a0\n 26271: a2 = a0 <u a1\n 26274: a0 = u64 [s1 + 0x1a8]\n 26278: t1 = a0 + a2\n 26281: a3 = t1 <u a0\n 26284: a3 = a2 if a2 == 0\n 26287: a0 = u64 [s1 + 0x1a0]\n 26291: a2 = a0 + a3\n 26294: a3 = a2 <u a0\n 26297: a0 = u64 [s1 + 0x1b8]\n 26301: a0 = a0 + a3\n 26304: u64 [s1 + 0x1b8] = a0\n 26308: a0 = u64 [s1 + 0x108]\n 26312: a3 = a0 + 0x20\n 26315: a4 = a3 <u a0\n 26318: a0 = u64 [s1 + 0x118]\n 26322: a5 = a0 + a4\n 26325: a0 = a5 <u a0\n 26328: a0 = a4 if a4 == 0\n 26331: a1 = u64 [s1 + 0x100]\n 26335: a0 = a0 + a1\n 26338: a4 = a0 <u a1\n 26341: a1 = u64 [s1 + 0x110]\n 26345: a1 = a1 + a4\n 26348: u64 [s1 + 0x110] = a1\n 26352: t0 = u64 [s1 + 0x190]\n 26356: t0 = t0 + 0x1\n 26359: a4 = t0 <u 0x1\n 26362: t2 = u64 [s1 + 0x198]\n 26366: t2 = t2 + a4\n 26369: a4 = t0 | t2\n 26372: a4 = a4 <u 0x1\n 26375: a1 = u64 [s1 + 0x180]\n 26379: a4 = a4 + a1\n 26382: a1 = a4 <u a1\n 26385: ra = u64 [s1 + 0x188]\n 26389: ra = ra + a1\n 26392: a1 = u64 [s1 + 0x178]\n 26396: u64 [s1 + 0x1b0] = a1\n 26400: u64 [s1 + 0x1a8] = t1\n 26404: u64 [s1 + 0x1a0] = a2\n 26408: a1 = a3\n 26410: u64 [s1 + 0x118] = a5\n 26414: t1 = a0\n 26416: a0 = a4\n 26418: a4 = t2\n 26420: t2 = ra\n 26422: ra = a0\n 26424: jump @884\n      : @892 (gas: 40)\n 26427: a1 = u64 [s1 + 0xf0]\n 26431: a0 = u64 [s1 + 0x180]\n 26435: t2 = a0 <u a1\n 26438: a5 = u64 [s1 + 0xb8]\n 26442: a0 = t0 ^ a5\n 26445: a2 = t0 <u a5\n 26448: a2 = t2 if a0 == 0\n 26451: a0 = u64 [s1 + 0xc0]\n 26455: a3 = a4 - a0\n 26458: t1 = a3 <u a2\n 26461: a4 = a4 <u a0\n 26464: a4 = a4 + t1\n 26467: u64 [s1 + 0x1b8] = a4\n 26471: t1 = u64 [s1 + 0xc8]\n 26475: a4 = u64 [s1 + 0x178]\n 26479: a4 = a4 - t1\n 26482: ra = u64 [s1 + 0x1b8]\n 26486: a4 = a4 - ra\n 26489: u64 [s1 + 0x1b8] = a4\n 26493: a3 = a3 - a2\n 26496: u64 [s1 + 0x1b0] = a3\n 26500: a2 = t0 - a5\n 26503: a2 = a2 - t2\n 26506: a4 = u64 [s1 + 0x180]\n 26510: a4 = a4 - a1\n 26513: a3 = s1 + 0x2138\n 26517: u64 [a3 + 0x3c8] = a1\n 26521: u64 [a3 + 0x3a8] = a4\n 26525: a4 = a3 + 0x300\n 26529: u64 [a4 + 0xd0] = a5\n 26533: u64 [a4 + 0xd8] = a0\n 26537: u64 [a4 + 0xb0] = a2\n 26541: u64 [a3 + 0x3e0] = t1\n 26545: a0 = u64 [s1 + 0x1b0]\n 26549: u64 [a4 + 0xb8] = a0\n 26553: a0 = s1 + 0x2500\n 26557: a1 = s1 + 0x24e0\n 26561: a2 = u64 [s1 + 0x1b8]\n 26565: u64 [a4 + 0xc0] = a2\n 26569: ra = 952, jump @1343\n      : @893 [@dyn 476] (gas: 5)\n 26575: u64 [s1 + 416] = 0\n 26579: u64 [s1 + 408] = 0\n 26583: u64 [s1 + 392] = 0\n 26587: u64 [s1 + 400] = 0\n 26591: fallthrough\n      : @894 (gas: 3)\n 26592: a0 = s1 + 0x24c0\n 26596: a1 = u64 [s1 + 0xf0]\n 26600: ra = 954, jump @2\n      : @895 [@dyn 477] (gas: 22)\n 26606: a5 = s1 + 0x2138\n 26610: a3 = a5 + 0x300\n 26614: a0 = u64 [a3 + 0x90]\n 26618: a1 = u64 [a3 + 0xa0]\n 26622: a2 = u64 [a3 + 0x88]\n 26626: t2 = u64 [a5 + 0x398]\n 26630: ra = u64 [s1 + 0x198]\n 26634: t1 = ra ^ a0\n 26637: a0 = ra <u a0\n 26640: t0 = u64 [s1 + 0x1a0]\n 26644: a2 = t0 <u a2\n 26647: a2 = a0 if t1 != 0\n 26650: a4 = u64 [s1 + 0x188]\n 26654: a0 = a4 <u t2\n 26657: a3 = u64 [s1 + 0x190]\n 26661: t1 = a3 ^ a1\n 26664: a1 = a3 <u a1\n 26667: a1 = a0 if t1 == 0\n 26670: a0 = a4 ^ t2\n 26673: a0 = a0 | t1\n 26676: a1 = a2 if a0 == 0\n 26679: jump @983 if a1 == 0\n      : @896 (gas: 17)\n 26683: u64 [a5 + 0x268] = t0\n 26687: a0 = u64 [s1 + 0xf0]\n 26691: u64 [a5 + 0x288] = a0\n 26695: u64 [a5 + 0x270] = ra\n 26699: a0 = u64 [s1 + 0xb8]\n 26703: u64 [a5 + 0x290] = a0\n 26707: u64 [a5 + 0x278] = a4\n 26711: a0 = u64 [s1 + 0xc0]\n 26715: a4 = a5 + 0x200\n 26719: u64 [a4 + 0x98] = a0\n 26723: u64 [a4 + 0x80] = a3\n 26727: a0 = s1 + 0x23e0\n 26731: a1 = s1 + 0x23c0\n 26735: a2 = s1 + 0x23a0\n 26739: a3 = u64 [s1 + 0xc8]\n 26743: u64 [a4 + 0xa0] = a3\n 26747: ra = 956, jump @1470\n      : @897 [@dyn 478] (gas: 14)\n 26753: a1 = s1 + 0x2138\n 26757: a4 = a1 + 0x200\n 26761: a0 = u64 [a4 + 0xc0]\n 26765: a2 = u64 [a4 + 0xb8]\n 26769: a3 = u64 [a4 + 0xb0]\n 26773: a1 = u64 [a4 + 0xa8]\n 26777: a0 = a0 | a3\n 26780: a3 = a1 | a2\n 26783: a3 = a3 | a0\n 26786: a3 = a3 >> 0x20\n 26789: a0 = a0 | a2\n 26792: a0 = a0 << 0x20\n 26795: a0 = a0 | a3\n 26798: jump @993 if a0 != 0\n      : @898 (gas: 2)\n 26802: a0 = s1 + 0x2380\n 26806: ra = 958, jump @2\n      : @899 [@dyn 479] (gas: 3)\n 26812: t0 = 0x3c0\n 26816: a2 = s1 + 0x2138\n 26820: fallthrough\n      : @900 [@dyn 480] (gas: 18)\n 26821: a3 = a2 + 0x200\n 26825: a0 = u64 [a3 + 0x48]\n 26828: u64 [s1 + 0x1b8] = a0\n 26832: a0 = u64 [a3 + 0x50]\n 26835: u64 [s1 + 0x1b0] = a0\n 26839: a0 = u64 [a3 + 0x58]\n 26842: u64 [s1 + 0x1a8] = a0\n 26846: a0 = u64 [s1 + 0xd0]\n 26850: u64 [a3 + 0x40] = a0\n 26853: a0 = u64 [s1 + 0xd8]\n 26857: u64 [a3 + 0x38] = a0\n 26860: a0 = u64 [s1 + 0xe0]\n 26864: u64 [a3 + 0x30] = a0\n 26867: a1 = s1 + 0x2360\n 26871: a0 = u64 [s1 + 0xe8]\n 26875: u64 [a3 + 0x28] = a0\n 26878: a0 = 0\n 26880: ra = 962, jump @4\n      : @901 [@dyn 481] (gas: 9)\n 26886: a0 = s1 + 0x2138\n 26890: u64 [a0 + 544] = 0\n 26894: u64 [a0 + 536] = 0\n 26898: u64 [a0 + 528] = 0\n 26902: a3 = a0\n 26904: a0 = 0x20\n 26907: a1 = s1 + 0x2340\n 26911: u64 [a3 + 520] = 0x3\n 26916: ra = 964, jump @4\n      : @902 [@dyn 482] (gas: 3)\n 26922: a1 = u64 [s1 + 0x128]\n 26926: a0 = i32 [a1]\n 26928: jump @904 if a0 >u 63\n      : @903 (gas: 2)\n 26932: u32 [a1 + 0] = 0x40\n 26935: fallthrough\n      : @904 (gas: 14)\n 26936: a0 = u64 [s1 + 0x138]\n 26940: a1 = u64 [s1 + 0x1a8]\n 26944: a0 = a0 & a1\n 26947: u64 [s1 + 0x1a8] = a0\n 26951: a1 = u64 [s1 + 0x1b0]\n 26955: a1 = a1 & 0xffffffffffffffff\n 26958: u64 [s1 + 0x1b0] = a1\n 26962: a1 = u64 [s1 + 0x1b8]\n 26966: a0 = a1 & 0xffffffffffffffff\n 26969: u64 [s1 + 0x1b8] = a0\n 26973: a0 = sp + 0xffffffffffffffe0\n 26976: a0 = a0 & 0xffffffffffffffe0\n 26979: u64 [s1 + 0x180] = a0\n 26983: t0 = 966, jump @1602\n      : @905 [@dyn 483] (gas: 21)\n 26989: ecalli 7 // 'hash_keccak_256'\n 26991: a3 = u64 [s1 + 0x180]\n 26995: a0 = u64 [a3 + 0x18]\n 26998: a1 = u64 [a3 + 0x10]\n 27001: a2 = u64 [a3 + 0x8]\n 27004: a3 = u64 [a3]\n 27006: a0 = reverse a0\n 27008: u64 [s1 + 0x178] = a0\n 27012: a0 = reverse a1\n 27014: u64 [s1 + 0x170] = a0\n 27018: a0 = reverse a2\n 27020: u64 [s1 + 0x168] = a0\n 27024: a0 = reverse a3\n 27026: u64 [s1 + 0x160] = a0\n 27030: a0 = sp + 0xffffffffffffffe0\n 27033: a0 = a0 & 0xffffffffffffffe0\n 27036: u64 [s1 + 0x180] = a0\n 27040: sp = a0\n 27042: t0 = 0x3c8\n 27046: a2 = s1 + 0x2138\n 27050: fallthrough\n      : @906 [@dyn 484] (gas: 11)\n 27051: u64 [a2 + 512] = 0\n 27055: a0 = u64 [s1 + 0x1a8]\n 27059: a3 = a2 + 0x100\n 27063: u64 [a3 + 0xf8] = a0\n 27067: a0 = u64 [s1 + 0x1b0]\n 27071: u64 [a3 + 0xf0] = a0\n 27075: a1 = s1 + 0x2320\n 27079: a0 = u64 [s1 + 0x1b8]\n 27083: u64 [a3 + 0xe8] = a0\n 27087: a0 = 0\n 27089: ra = 970, jump @4\n      : @907 [@dyn 485] (gas: 14)\n 27095: a0 = u64 [s1 + 0x160]\n 27099: a1 = s1 + 0x2138\n 27103: a2 = a1 + 0x100\n 27107: u64 [a2 + 0xe0] = a0\n 27111: a0 = u64 [s1 + 0x168]\n 27115: u64 [a2 + 0xd8] = a0\n 27119: a0 = u64 [s1 + 0x170]\n 27123: u64 [a2 + 0xd0] = a0\n 27127: a3 = a1\n 27129: a0 = 0x20\n 27132: a1 = s1 + 0x2300\n 27136: a2 = u64 [s1 + 0x178]\n 27140: u64 [a3 + 0x1c8] = a2\n 27144: ra = 972, jump @4\n      : @908 [@dyn 486] (gas: 3)\n 27150: a1 = u64 [s1 + 0x128]\n 27154: a0 = i32 [a1]\n 27156: jump @910 if a0 >u 63\n      : @909 (gas: 2)\n 27160: u32 [a1 + 0] = 0x40\n 27163: fallthrough\n      : @910 (gas: 4)\n 27164: a0 = sp + 0xffffffffffffffe0\n 27167: a0 = a0 & 0xffffffffffffffe0\n 27170: u64 [s1 + 0x178] = a0\n 27174: t0 = 974, jump @1602\n      : @911 [@dyn 487] (gas: 5)\n 27180: ra = 0x3d0\n 27184: ecalli 7 // 'hash_keccak_256'\n 27186: a3 = u64 [s1 + 0x178]\n 27190: t0 = 0x3d2\n 27194: jump @1594\n      : @912 [@dyn 488] (gas: 2)\n 27197: a3 = u64 [s1 + 0x178]\n 27201: t0 = 978, jump @1594\n      : @913 [@dyn 489] (gas: 3)\n 27207: i32 a0 = a0 + 0x2e0\n 27211: a0 = a0 + s1\n 27214: ra = 980, jump @6\n      : @914 [@dyn 490] (gas: 2)\n 27220: a2 = s1 + 0x2138\n 27224: fallthrough\n      : @915 (gas: 9)\n 27225: t0 = u64 [a2 + 0x1c0]\n 27229: a0 = a2 + 0x100\n 27233: a4 = u64 [a0 + 0xb8]\n 27237: a5 = u64 [a0 + 0xb0]\n 27241: a3 = u64 [a0 + 0xa8]\n 27245: a0 = a5 | t0\n 27248: a1 = a3 | a4\n 27251: a0 = a0 | a1\n 27254: jump @931 if a0 == 0\n      : @916 (gas: 15)\n 27258: u64 [s1 + 0x160] = a3\n 27262: u64 [s1 + 0x168] = a5\n 27266: u64 [s1 + 0x170] = a4\n 27270: u64 [s1 + 0x178] = t0\n 27274: u64 [a2 + 416] = 0\n 27278: a0 = u64 [s1 + 0x1b8]\n 27282: a3 = a2 + 0x100\n 27286: u64 [a3 + 0x88] = a0\n 27290: a0 = u64 [s1 + 0x1b0]\n 27294: u64 [a3 + 0x90] = a0\n 27298: a1 = s1 + 0x22c0\n 27302: a0 = u64 [s1 + 0x1a8]\n 27306: u64 [a3 + 0x98] = a0\n 27310: a0 = 0\n 27312: ra = 982, jump @4\n      : @917 [@dyn 491] (gas: 9)\n 27318: a0 = s1 + 0x2138\n 27322: u64 [a0 + 384] = 0\n 27326: u64 [a0 + 376] = 0\n 27330: u64 [a0 + 368] = 0\n 27334: a3 = a0\n 27336: a0 = 0x20\n 27339: a1 = s1 + 0x22a0\n 27343: u64 [a3 + 360] = 0x5\n 27348: ra = 984, jump @4\n      : @918 [@dyn 492] (gas: 7)\n 27354: a0 = sp + 0xffffffffffffffe0\n 27357: a0 = a0 & 0xffffffffffffffe0\n 27360: u64 [s1 + 0x180] = a0\n 27364: sp = a0\n 27366: a1 = u64 [s1 + 0x128]\n 27370: a0 = i32 [a1]\n 27372: jump @920 if a0 >u 63\n      : @919 (gas: 2)\n 27376: u32 [a1 + 0] = 0x40\n 27379: fallthrough\n      : @920 (gas: 4)\n 27380: a0 = sp + 0xffffffffffffffe0\n 27383: a0 = a0 & 0xffffffffffffffe0\n 27386: u64 [s1 + 0x158] = a0\n 27390: t0 = 986, jump @1602\n      : @921 [@dyn 493] (gas: 5)\n 27396: ra = 0x3dc\n 27400: ecalli 7 // 'hash_keccak_256'\n 27402: a3 = u64 [s1 + 0x158]\n 27406: t0 = 0x3de\n 27410: jump @1594\n      : @922 [@dyn 494] (gas: 2)\n 27413: a3 = u64 [s1 + 0x158]\n 27417: t0 = 990, jump @1594\n      : @923 [@dyn 495] (gas: 3)\n 27423: i32 a0 = a0 + 0x280\n 27427: a0 = a0 + s1\n 27430: ra = 992, jump @6\n      : @924 [@dyn 496] (gas: 22)\n 27436: a5 = s1 + 0x2138\n 27440: a3 = u64 [a5 + 0x148]\n 27444: a0 = u64 [a5 + 0x150]\n 27448: a1 = u64 [a5 + 0x158]\n 27452: a2 = u64 [a5 + 0x160]\n 27456: a4 = u64 [s1 + 0x178]\n 27460: u64 [a5 + 0x100] = a4\n 27464: a4 = u64 [s1 + 0x170]\n 27468: u64 [a5 + 0xf8] = a4\n 27472: a4 = u64 [s1 + 0x168]\n 27476: u64 [a5 + 0xf0] = a4\n 27480: a4 = u64 [s1 + 0x160]\n 27484: u64 [a5 + 0xe8] = a4\n 27488: a4 = a5 + 0x100\n 27492: u64 [a4 + 0x20] = a2\n 27495: u64 [a4 + 0x18] = a1\n 27498: u64 [a4 + 0x10] = a0\n 27501: a0 = s1 + 0x2260\n 27505: a1 = s1 + 0x2240\n 27509: a2 = s1 + 0x2220\n 27513: u64 [a4 + 0x8] = a3\n 27516: ra = 994, jump @1380\n      : @925 [@dyn 497] (gas: 15)\n 27522: a3 = s1 + 0x2138\n 27526: a4 = a3 + 0x100\n 27530: a0 = u64 [a4 + 0x40]\n 27533: a1 = u64 [a4 + 0x38]\n 27536: a2 = u64 [a4 + 0x30]\n 27539: a3 = u64 [a4 + 0x28]\n 27542: a4 = s1 + 0x4138\n 27546: u64 [a4 + 0x200] = a0\n 27550: a0 = a4 + 0x100\n 27554: u64 [a0 + 0xf8] = a1\n 27558: u64 [a0 + 0xf0] = a2\n 27562: u64 [a0 + 0xe8] = a3\n 27566: a1 = s1 + 0x4320\n 27570: a0 = u64 [s1 + 0x180]\n 27574: ra = 996, jump @9\n      : @926 [@dyn 498] (gas: 3)\n 27580: a0 = s1 + 0x2200\n 27584: a1 = 0x40\n 27587: ra = 998, jump @2\n      : @927 [@dyn 499] (gas: 6)\n 27593: a3 = s1 + 0x2138\n 27597: a0 = u64 [a3 + 0xe0]\n 27601: a1 = u64 [a3 + 0xd8]\n 27605: a2 = u64 [a3 + 0xd0]\n 27609: a4 = u64 [a3 + 0xc8]\n 27613: t0 = 1000, jump @1577\n      : @928 [@dyn 500] (gas: 1)\n 27619: jump @993 if a0 != 0\n      : @929 (gas: 12)\n 27623: a0 = u64 [s1 + 0x160]\n 27627: u64 [a3 + 0xa8] = a0\n 27631: a0 = u64 [s1 + 0x168]\n 27635: u64 [a3 + 0xb0] = a0\n 27639: a0 = u64 [s1 + 0x170]\n 27643: u64 [a3 + 0xb8] = a0\n 27647: a1 = s1 + 0x21e0\n 27651: a0 = u64 [s1 + 0x178]\n 27655: u64 [a3 + 0xc0] = a0\n 27659: a0 = a4\n 27661: u64 [s1 + 0x180] = a4\n 27665: ra = 1002, jump @4\n      : @930 [@dyn 501] (gas: 29)\n 27671: a0 = s1 + 0x2138\n 27675: a5 = s1 + 0x100\n 27679: a1 = u64 [a5 + 0xa8]\n 27683: u64 [a0 + 0x78] = a1\n 27686: a0 = s1 + 0x2138\n 27690: a1 = u64 [a5 + 0xb0]\n 27694: u64 [a0 + 0x70] = a1\n 27697: a0 = s1 + 0x2138\n 27701: a1 = u64 [a5 + 0xb8]\n 27705: u64 [a0 + 0x68] = a1\n 27708: a0 = u64 [0x20058]\n 27713: a1 = u64 [0x20060]\n 27718: a2 = u64 [0x20068]\n 27723: a3 = u64 [0x20070]\n 27728: a4 = s1 + 0x2138\n 27732: u64 [a4 + 0xa0] = a0\n 27736: a0 = s1 + 0x2138\n 27740: u64 [a0 + 0x98] = a1\n 27744: a0 = s1 + 0x2138\n 27748: u64 [a0 + 0x90] = a2\n 27752: a0 = s1 + 0x2138\n 27756: u64 [a0 + 0x88] = a3\n 27760: a1 = 0x20\n 27763: a2 = s1 + 0x21c0\n 27767: a3 = s1 + 0x21a0\n 27771: a0 = s1 + 0x2138\n 27775: u64 [a0 + 128] = 0\n 27779: a0 = u64 [a5 + 0x80]\n 27783: ra = 1004, jump @10\n      : @931 [@dyn 502] (gas: 18)\n 27789: a3 = s1 + 0x100\n 27793: a1 = u64 [a3 + 0xa0]\n 27797: a1 = a1 + 0x1\n 27800: a0 = a1 <u 0x1\n 27803: a2 = u64 [a3 + 0x98]\n 27807: a2 = a2 + a0\n 27810: u64 [a3 + 0xa0] = a1\n 27814: u64 [a3 + 0x98] = a2\n 27818: a0 = a1 | a2\n 27821: a0 = a0 <u 0x1\n 27824: a1 = u64 [a3 + 0x88]\n 27828: a0 = a0 + a1\n 27831: a1 = a0 <u a1\n 27834: a2 = u64 [a3 + 0x90]\n 27838: a2 = a2 + a1\n 27841: u64 [a3 + 0x90] = a2\n 27845: u64 [a3 + 0x88] = a0\n 27849: jump @894\n      : @932 (gas: 3)\n 27852: a0 = s1 + 0x3120\n 27856: a1 = 0x40\n 27859: ra = 1006, jump @2\n      : @933 [@dyn 503] (gas: 14)\n 27865: a0 = s1 + 0x3138\n 27869: a4 = u64 [a0]\n 27871: a1 = a0 + 0xffffffffffffff00\n 27875: a5 = u64 [a1 + 0xf8]\n 27879: a3 = u64 [a1 + 0xf0]\n 27883: a2 = u64 [a1 + 0xe8]\n 27887: a0 = a3 | a4\n 27890: a1 = a2 | a5\n 27893: a1 = a1 | a0\n 27896: a1 = a1 >> 0x20\n 27899: a0 = a0 | a5\n 27902: a0 = a0 << 0x20\n 27905: a0 = a0 | a1\n 27908: jump @993 if a0 != 0\n      : @934 (gas: 14)\n 27912: a0 = s1 + 0x2938\n 27916: u64 [s1 + 0x1b0] = a3\n 27920: a3 = a0\n 27922: u64 [a0 + 2008] = 0\n 27926: u64 [a0 + 2000] = 0\n 27930: u64 [a0 + 1992] = 0\n 27934: a0 = 0x8c379a000000000\n 27944: a1 = s1 + 0x3100\n 27948: u64 [a3 + 0x7e0] = a0\n 27952: a0 = a2\n 27954: u64 [s1 + 0x1b8] = a2\n 27958: u64 [s1 + 0x1a0] = a4\n 27962: u64 [s1 + 0x1a8] = a5\n 27966: ra = 1008, jump @4\n      : @935 [@dyn 504] (gas: 1)\n 27972: t0 = 1010, jump @1561\n      : @936 [@dyn 505] (gas: 1)\n 27978: jump @993 if a0 == 0\n      : @937 (gas: 10)\n 27982: i32 a0 = a1 + 0x4\n 27985: a2 = s1 + 0x2938\n 27989: u64 [a2 + 1984] = 0\n 27993: u64 [a2 + 1976] = 0\n 27997: u64 [a2 + 1960] = 0x20\n 28002: a1 = s1 + 0x30e0\n 28006: u64 [a2 + 1968] = 0\n 28010: u64 [s1 + 0x1a8] = a3\n 28014: u64 [s1 + 0x1a0] = a4\n 28018: ra = 1012, jump @4\n      : @938 [@dyn 506] (gas: 1)\n 28024: t0 = 1014, jump @1612\n      : @939 [@dyn 507] (gas: 1)\n 28030: jump @993 if a0 == 0\n      : @940 (gas: 8)\n 28034: i32 a0 = a1 + 0x24\n 28037: a2 = s1 + 0x2938\n 28041: u64 [a2 + 1952] = 0\n 28045: u64 [a2 + 1944] = 0\n 28049: u64 [a2 + 1928] = 0x16\n 28054: a1 = s1 + 0x30c0\n 28058: u64 [a2 + 1936] = 0\n 28062: ra = 1016, jump @4\n      : @941 [@dyn 508] (gas: 1)\n 28068: t0 = 1018, jump @1578\n      : @942 [@dyn 509] (gas: 1)\n 28074: jump @993 if a0 == 0\n      : @943 (gas: 13)\n 28078: i32 a0 = a2 + 0x44\n 28081: a1 = u64 [0x20000]\n 28086: a2 = u64 [0x20008]\n 28091: a3 = u64 [0x20010]\n 28096: a4 = s1 + 0x2938\n 28100: a5 = a4 + 0x700\n 28104: u64 [a5 + 0x80] = a1\n 28108: u64 [a5 + 0x78] = a2\n 28111: u64 [a5 + 0x70] = a3\n 28114: a1 = s1 + 0x30a0\n 28118: u64 [a4 + 1896] = 0\n 28122: ra = 0x426\n 28126: jump @4\n      : @944 (gas: 3)\n 28129: a0 = s1 + 0x1200\n 28133: a1 = 0x40\n 28136: ra = 1020, jump @2\n      : @945 [@dyn 510] (gas: 13)\n 28142: a2 = s1 + 0x1138\n 28146: t0 = u64 [a2 + 0xe0]\n 28150: a5 = u64 [a2 + 0xd8]\n 28154: a4 = u64 [a2 + 0xd0]\n 28158: a0 = u64 [a2 + 0xc8]\n 28162: a3 = a4 | t0\n 28165: a1 = a0 | a5\n 28168: a1 = a1 | a3\n 28171: a1 = a1 >> 0x20\n 28174: a3 = a3 | a5\n 28177: a3 = a3 << 0x20\n 28180: a1 = a1 | a3\n 28183: jump @993 if a1 != 0\n      : @946 (gas: 11)\n 28187: u64 [a2 + 184] = 0\n 28191: u64 [a2 + 176] = 0\n 28195: u64 [a2 + 168] = 0\n 28199: a3 = 0x8c379a000000000\n 28209: a1 = s1 + 0x11e0\n 28213: u64 [a2 + 0xc0] = a3\n 28217: u64 [s1 + 0x1b8] = a0\n 28221: u64 [s1 + 0x1b0] = a4\n 28225: u64 [s1 + 0x1a0] = t0\n 28229: u64 [s1 + 0x1a8] = a5\n 28233: ra = 1022, jump @4\n      : @947 [@dyn 511] (gas: 1)\n 28239: t0 = 1024, jump @1561\n      : @948 [@dyn 512] (gas: 1)\n 28245: jump @993 if a0 == 0\n      : @949 (gas: 11)\n 28249: i32 a0 = a1 + 0x4\n 28252: a2 = s1 + 0x1138\n 28256: a5 = 0\n 28258: u64 [a2 + 160] = 0\n 28262: u64 [a2 + 152] = 0\n 28266: u64 [a2 + 136] = 0x20\n 28271: a1 = s1 + 0x11c0\n 28275: u64 [a2 + 144] = 0\n 28279: u64 [s1 + 0x1a8] = a3\n 28283: u64 [s1 + 0x1a0] = a4\n 28287: ra = 1026, jump @4\n      : @950 [@dyn 513] (gas: 1)\n 28293: t0 = 1028, jump @1612\n      : @951 [@dyn 514] (gas: 1)\n 28299: jump @993 if a0 == 0\n      : @952 (gas: 8)\n 28303: i32 a0 = a1 + 0x24\n 28306: a2 = s1 + 0x1138\n 28310: u64 [a2 + 128] = 0\n 28314: u64 [a2 + 120] = 0\n 28317: u64 [a2 + 104] = 0x1a\n 28321: a1 = s1 + 0x11a0\n 28325: u64 [a2 + 112] = 0\n 28328: ra = 1030, jump @4\n      : @953 [@dyn 515] (gas: 1)\n 28334: t0 = 1032, jump @1567\n      : @954 [@dyn 516] (gas: 1)\n 28340: jump @993 if a0 == 0\n      : @955 (gas: 13)\n 28344: i32 a0 = a3 + 0x44\n 28347: a1 = u64 [0x200e0]\n 28352: a2 = u64 [0x200e8]\n 28357: a3 = u64 [0x200f0]\n 28362: a4 = s1 + 0x1138\n 28366: u64 [a4 + 0x60] = a1\n 28369: u64 [a4 + 0x58] = a2\n 28372: u64 [a4 + 0x50] = a3\n 28375: a2 = 0x6564000000000000\n 28385: a1 = s1 + 0x1180\n 28389: u64 [a4 + 0x48] = a2\n 28392: ra = 0x426\n 28396: jump @4\n      : @956 (gas: 3)\n 28399: a0 = s1 + 0x1d20\n 28403: a1 = 0x40\n 28406: ra = 1034, jump @2\n      : @957 [@dyn 517] (gas: 2)\n 28412: a2 = s1 + 0x1938\n 28416: fallthrough\n      : @958 (gas: 13)\n 28417: t0 = u64 [a2 + 0x400]\n 28421: a1 = a2 + 0x300\n 28425: a5 = u64 [a1 + 0xf8]\n 28429: a4 = u64 [a1 + 0xf0]\n 28433: a0 = u64 [a1 + 0xe8]\n 28437: a3 = a4 | t0\n 28440: a1 = a0 | a5\n 28443: a1 = a1 | a3\n 28446: a1 = a1 >> 0x20\n 28449: a3 = a3 | a5\n 28452: a3 = a3 << 0x20\n 28455: a1 = a1 | a3\n 28458: jump @993 if a1 != 0\n      : @959 (gas: 11)\n 28462: u64 [a2 + 984] = 0\n 28466: u64 [a2 + 976] = 0\n 28470: u64 [a2 + 968] = 0\n 28474: a3 = 0x8c379a000000000\n 28484: a1 = s1 + 0x1d00\n 28488: u64 [a2 + 0x3e0] = a3\n 28492: u64 [s1 + 0x1b8] = a0\n 28496: u64 [s1 + 0x1b0] = a4\n 28500: u64 [s1 + 0x1a0] = t0\n 28504: u64 [s1 + 0x1a8] = a5\n 28508: ra = 1036, jump @4\n      : @960 [@dyn 518] (gas: 1)\n 28514: t0 = 1038, jump @1561\n      : @961 [@dyn 519] (gas: 1)\n 28520: jump @993 if a0 == 0\n      : @962 (gas: 10)\n 28524: i32 a0 = a1 + 0x4\n 28527: a2 = s1 + 0x1938\n 28531: u64 [a2 + 960] = 0\n 28535: u64 [a2 + 952] = 0\n 28539: u64 [a2 + 936] = 0x20\n 28544: a1 = s1 + 0x1ce0\n 28548: u64 [a2 + 944] = 0\n 28552: u64 [s1 + 0x1a8] = a3\n 28556: u64 [s1 + 0x1a0] = a4\n 28560: ra = 1040, jump @4\n      : @963 [@dyn 520] (gas: 1)\n 28566: t0 = 1042, jump @1565\n      : @964 [@dyn 521] (gas: 1)\n 28572: jump @993 if a0 == 0\n      : @965 (gas: 8)\n 28576: i32 a0 = a1 + 0x24\n 28579: a3 = s1 + 0x1938\n 28583: u64 [a3 + 928] = 0\n 28587: u64 [a3 + 920] = 0\n 28591: u64 [a3 + 904] = 0x14\n 28596: a1 = s1 + 0x1cc0\n 28600: u64 [a3 + 912] = 0\n 28604: ra = 1044, jump @4\n      : @966 [@dyn 522] (gas: 1)\n 28610: t0 = 1046, jump @1567\n      : @967 [@dyn 523] (gas: 1)\n 28616: jump @993 if a0 == 0\n      : @968 (gas: 13)\n 28620: i32 a0 = a3 + 0x44\n 28623: a1 = u64 [0x20090]\n 28628: a2 = u64 [0x20098]\n 28633: a4 = s1 + 0x1938\n 28637: a3 = a4 + 0x300\n 28641: u64 [a3 + 0x80] = a1\n 28645: u64 [a3 + 0x78] = a2\n 28648: a1 = 0x7265737300000000\n 28658: u64 [a3 + 0x70] = a1\n 28661: a1 = s1 + 0x1ca0\n 28665: u64 [a4 + 872] = 0\n 28669: ra = 0x426\n 28673: jump @4\n      : @969 (gas: 3)\n 28676: a0 = s1 + 0x1be0\n 28680: a1 = 0x40\n 28683: ra = 1048, jump @2\n      : @970 [@dyn 524] (gas: 14)\n 28689: a4 = s1 + 0x1938\n 28693: t0 = u64 [a4 + 0x2c0]\n 28697: a1 = a4 + 0x200\n 28701: a5 = u64 [a1 + 0xb8]\n 28705: a3 = u64 [a1 + 0xb0]\n 28709: a0 = u64 [a1 + 0xa8]\n 28713: a2 = a3 | t0\n 28716: a1 = a0 | a5\n 28719: a1 = a1 | a2\n 28722: a1 = a1 >> 0x20\n 28725: a2 = a2 | a5\n 28728: a2 = a2 << 0x20\n 28731: a1 = a1 | a2\n 28734: jump @993 if a1 != 0\n      : @971 (gas: 11)\n 28738: u64 [a4 + 664] = 0\n 28742: u64 [a4 + 656] = 0\n 28746: u64 [a4 + 648] = 0\n 28750: u64 [s1 + 0x1b0] = a3\n 28754: a3 = 0x8c379a000000000\n 28764: a1 = s1 + 0x1bc0\n 28768: u64 [a4 + 0x2a0] = a3\n 28772: u64 [s1 + 0x1b8] = a0\n 28776: u64 [s1 + 0x1a8] = t0\n 28780: u64 [s1 + 0x1a0] = a5\n 28784: ra = 1050, jump @4\n      : @972 [@dyn 525] (gas: 6)\n 28790: a5 = s1 + 0x100\n 28794: a1 = u64 [a5 + 0xb8]\n 28798: a0 = u64 [a5 + 0xa8]\n 28802: a3 = u64 [a5 + 0xa0]\n 28806: a3 = a3 | a0\n 28809: t0 = 1052, jump @1562\n      : @973 [@dyn 526] (gas: 1)\n 28815: jump @993 if a0 == 0\n      : @974 (gas: 10)\n 28819: i32 a0 = a1 + 0x4\n 28822: a2 = s1 + 0x1938\n 28826: u64 [a2 + 640] = 0\n 28830: u64 [a2 + 632] = 0\n 28834: u64 [a2 + 616] = 0x20\n 28839: a1 = s1 + 0x1ba0\n 28843: u64 [a2 + 624] = 0\n 28847: u64 [s1 + 0x1a8] = a3\n 28851: u64 [s1 + 0x1a0] = a4\n 28855: ra = 1054, jump @4\n      : @975 [@dyn 527] (gas: 1)\n 28861: t0 = 1056, jump @1565\n      : @976 [@dyn 528] (gas: 1)\n 28867: jump @993 if a0 == 0\n      : @977 (gas: 8)\n 28871: i32 a0 = a1 + 0x24\n 28874: a3 = s1 + 0x1938\n 28878: u64 [a3 + 608] = 0\n 28882: u64 [a3 + 600] = 0\n 28886: u64 [a3 + 584] = 0xe\n 28891: a1 = s1 + 0x1b80\n 28895: u64 [a3 + 592] = 0\n 28899: ra = 1058, jump @4\n      : @978 [@dyn 529] (gas: 1)\n 28905: t0 = 1060, jump @1578\n      : @979 [@dyn 530] (gas: 1)\n 28911: jump @993 if a0 == 0\n      : @980 (gas: 10)\n 28915: i32 a0 = a2 + 0x44\n 28918: a1 = u64 [0x20078]\n 28923: a3 = s1 + 0x1938\n 28927: u64 [a3 + 560] = 0\n 28931: u64 [a3 + 0x240] = a1\n 28935: a1 = 0x20656e6465640000\n 28945: u64 [a3 + 0x238] = a1\n 28949: a1 = s1 + 0x1b60\n 28953: u64 [a3 + 552] = 0\n 28957: ra = 1062, jump @4\n      : @981 [@dyn 531] (gas: 3)\n 28963: a1 = 0x64\n 28966: a0 = u64 [s1 + 0x1b8]\n 28970: ra = 1064, jump @16\n      : @982 [@dyn 532] (gas: 5)\n 28976: i32 a1 = a0 + 0\n 28978: a0 = 0x1\n 28981: a2 = 0x64\n 28984: ecalli 12 // 'seal_return'\n 28986: fallthrough\n      : @983 (gas: 3)\n 28987: a0 = s1 + 0x24a0\n 28991: a1 = 0x40\n 28994: ra = 1066, jump @2\n      : @984 [@dyn 533] (gas: 2)\n 29000: a2 = s1 + 0x2138\n 29004: fallthrough\n      : @985 (gas: 13)\n 29005: t0 = u64 [a2 + 0x380]\n 29009: a1 = a2 + 0x300\n 29013: a5 = u64 [a1 + 0x78]\n 29016: a4 = u64 [a1 + 0x70]\n 29019: a0 = u64 [a1 + 0x68]\n 29022: a3 = a4 | t0\n 29025: a1 = a0 | a5\n 29028: a1 = a1 | a3\n 29031: a1 = a1 >> 0x20\n 29034: a3 = a3 | a5\n 29037: a3 = a3 << 0x20\n 29040: a1 = a1 | a3\n 29043: jump @993 if a1 != 0\n      : @986 (gas: 10)\n 29047: u64 [a2 + 864] = 0\n 29051: u64 [a2 + 856] = 0\n 29055: u64 [a2 + 848] = 0\n 29059: a1 = s1 + 0x2480\n 29063: u64 [a2 + 840] = 0\n 29067: u64 [s1 + 0x1b8] = a0\n 29071: u64 [s1 + 0x1b0] = a4\n 29075: u64 [s1 + 0x1a0] = t0\n 29079: u64 [s1 + 0x1a8] = a5\n 29083: ra = 1068, jump @4\n      : @987 [@dyn 534] (gas: 11)\n 29089: a4 = s1 + 0x100\n 29093: a2 = u64 [a4 + 0xb8]\n 29097: a0 = u64 [a4 + 0xa8]\n 29101: a1 = u64 [a4 + 0xa0]\n 29105: a0 = a0 | a1\n 29108: a1 = 0xffffffe0\n 29118: a1 = a2 <u a1\n 29121: a3 = u64 [a4 + 0xb0]\n 29125: a1 = 0 if a3 != 0\n 29127: a1 = 0 if a0 != 0\n 29129: jump @993 if a1 == 0\n      : @988 (gas: 8)\n 29133: i32 a0 = a2 + 0x20\n 29136: a3 = s1 + 0x2138\n 29140: u64 [a3 + 832] = 0\n 29144: u64 [a3 + 824] = 0\n 29148: u64 [a3 + 816] = 0\n 29152: a1 = s1 + 0x2460\n 29156: u64 [a3 + 808] = 0\n 29160: ra = 1070, jump @4\n      : @989 [@dyn 535] (gas: 30)\n 29166: a4 = s1 + 0x2138\n 29170: u64 [a4 + 736] = 0\n 29174: u64 [a4 + 728] = 0\n 29178: u64 [a4 + 720] = 0\n 29182: a0 = u64 [s1 + 0xd0]\n 29186: a5 = a4 + 0x300\n 29190: u64 [a5] = a0\n 29192: a0 = u64 [s1 + 0xd8]\n 29196: a1 = a4 + 0x200\n 29200: u64 [a1 + 0xf8] = a0\n 29204: a0 = u64 [s1 + 0xe0]\n 29208: u64 [a1 + 0xf0] = a0\n 29212: a0 = u64 [s1 + 0xe8]\n 29216: u64 [a1 + 0xe8] = a0\n 29220: a0 = u64 [0x20038]\n 29225: a1 = u64 [0x20040]\n 29230: a2 = u64 [0x20048]\n 29235: a3 = u64 [0x20050]\n 29240: u64 [a5 + 0x20] = a0\n 29243: u64 [a5 + 0x18] = a1\n 29246: u64 [a5 + 0x10] = a2\n 29249: u64 [a5 + 0x8] = a3\n 29252: a0 = a4\n 29254: a1 = 0x40\n 29257: a2 = s1 + 0x2440\n 29261: a3 = s1 + 0x2420\n 29265: a4 = s1 + 0x2400\n 29269: u64 [a0 + 712] = 0\n 29273: a0 = u64 [s1 + 0x1b8]\n 29277: ra = 1072, jump @12\n      : @990 [@dyn 536] (gas: 6)\n 29283: a0 = 0\n 29285: a1 = u64 [s1 + 0x130]\n 29289: a2 = 0\n 29291: ecalli 12 // 'seal_return'\n 29293: a1 = 0x201a0\n 29298: jump @1175\n      : @991 (gas: 30)\n 29301: a0 = u64 [s1 + 0x150]\n 29305: t2 = u64 [s1 + 0x1b0]\n 29309: t0 = t2 <u a0\n 29312: a5 = u64 [s1 + 0x140]\n 29316: a1 = u64 [s1 + 0x1a8]\n 29320: a3 = a1 ^ a5\n 29323: a2 = a1 <u a5\n 29326: a2 = t0 if a3 == 0\n 29329: a3 = u64 [s1 + 0x130]\n 29333: a4 = u64 [s1 + 0x1a0]\n 29337: ra = a4 - a3\n 29340: t1 = a4 <u a3\n 29343: a4 = u64 [s1 + 0x138]\n 29347: a3 = u64 [s1 + 0x1b8]\n 29351: a4 = a3 - a4\n 29354: a4 = a4 - t1\n 29357: a3 = ra <u a2\n 29360: a3 = a4 - a3\n 29363: a4 = ra - a2\n 29366: a2 = a1 - a5\n 29369: a2 = a2 - t0\n 29372: a1 = t2 - a0\n 29375: a2 = a2 | a3\n 29378: a3 = a1 | a4\n 29381: a3 = a3 | a2\n 29384: a2 = a2 | a4\n 29387: a3 = a3 >> 0x20\n 29390: a2 = a2 << 0x20\n 29393: a2 = a2 | a3\n 29396: jump @993 if a2 != 0\n      : @992 (gas: 1)\n 29399: jump @1238\n      : @993 (gas: 1)\n 29402: trap\n      : @994 (gas: 5)\n 29403: a0 = u64 [s1 + 0x1b8]\n 29407: a2 = a0 + 0xffffffffffffff80\n 29410: a0 = u64 [s1 + 0xe8]\n 29414: a1 = u64 [s1 + 0xe0]\n 29418: ra = 1074, jump @1634\n      : @995 [@dyn 537] (gas: 6)\n 29424: u64 [s1 + 0x178] = a0\n 29428: u64 [s1 + 0x180] = a1\n 29432: a0 = u64 [s1 + 0x108]\n 29436: a1 = u64 [s1 + 0xf0]\n 29440: a2 = u64 [s1 + 0x1b8]\n 29444: ra = 1076, jump @1634\n      : @996 [@dyn 538] (gas: 7)\n 29450: u64 [s1 + 0x170] = a0\n 29454: u64 [s1 + 0x168] = a1\n 29458: a1 = u64 [s1 + 0x1b8]\n 29462: a2 = 0x80 - a1\n 29466: a0 = u64 [s1 + 0xe8]\n 29470: a1 = u64 [s1 + 0xe0]\n 29474: ra = 1078, jump @1639\n      : @997 [@dyn 539] (gas: 20)\n 29480: a2 = u64 [s1 + 0x168]\n 29484: a1 = a1 | a2\n 29487: a2 = u64 [s1 + 0x1b8]\n 29491: a3 = a2 <u 0x80\n 29495: u64 [s1 + 0x160] = a3\n 29499: a4 = u64 [s1 + 0x180]\n 29503: a1 = a4 if a3 == 0\n 29506: a4 = u64 [s1 + 0xf0]\n 29510: a1 = a4 if a2 == 0\n 29513: u64 [s1 + 0x180] = a1\n 29517: a1 = u64 [s1 + 0x170]\n 29521: a0 = a0 | a1\n 29524: a1 = u64 [s1 + 0x178]\n 29528: a0 = a1 if a3 == 0\n 29531: a1 = u64 [s1 + 0x108]\n 29535: a0 = a1 if a2 == 0\n 29538: u64 [s1 + 0x178] = a0\n 29542: a0 = u64 [s1 + 0xe8]\n 29546: a1 = u64 [s1 + 0xe0]\n 29550: ra = 1080, jump @1634\n      : @998 [@dyn 540] (gas: 16)\n 29556: a5 = 0\n 29558: u64 [s1 + 360] = 0\n 29562: a4 = s1 + 0x100\n 29566: a2 = u64 [a4 + 0x60]\n 29569: a1 = 0 if a2 == 0\n 29571: u64 [a4 + 0x70] = a1\n 29574: a0 = 0 if a2 == 0\n 29576: u64 [a4 + 0x60] = a0\n 29579: a2 = u64 [a4 + 0x48]\n 29582: a3 = a2 + 0xffffffffffffffff\n 29585: u64 [a4 + 0x38] = a3\n 29588: a2 = a2 >u 0\n 29590: a2 = a2 + 0xffffffffffffffff\n 29593: u64 [a4 + 0x30] = a2\n 29596: ra = u64 [s1 + 0x158]\n 29600: fallthrough\n      : @999 (gas: 93)\n 29601: u64 [s1 + 0x150] = a5\n 29605: u64 [s1 + 320] = 0\n 29609: a1 = u64 [s1 + 0x178]\n 29613: a2 = a1 >> 0x3f\n 29616: a5 = u64 [s1 + 0x180]\n 29620: a3 = a5 << 0x1\n 29623: t1 = a3 | a2\n 29626: a2 = a1 << 0x1\n 29629: a4 = ra >> 0x3f\n 29632: a4 = a4 | a2\n 29635: u64 [s1 + 0x158] = a4\n 29639: a3 = u64 [s1 + 0x130]\n 29643: a0 = a3 ^ t1\n 29646: t2 = u64 [s1 + 0x1a0]\n 29650: a1 = a3 <u t1\n 29653: a2 = u64 [s1 + 0x138]\n 29657: t0 = a2 <u a4\n 29660: t0 = a1 if a0 != 0\n 29663: a1 = u64 [s1 + 0x170]\n 29667: a1 = a1 << 0x1\n 29670: a0 = u64 [s1 + 0x160]\n 29674: a4 = a0 >> 0x3f\n 29677: a1 = a1 | a4\n 29680: u64 [s1 + 0x170] = a1\n 29684: a4 = a5 >> 0x3f\n 29687: a0 = a0 << 0x1\n 29690: a4 = a4 | a0\n 29693: a0 = ra << 0x1\n 29696: a1 = u64 [s1 + 0x1a8]\n 29700: a5 = a1 >> 0x3f\n 29703: a2 = a0 | a5\n 29706: a5 = a1 << 0x1\n 29709: a1 = t2 >> 0x3f\n 29712: a1 = a1 | a5\n 29715: a5 = t2 << 0x1\n 29718: a0 = u64 [s1 + 0x1b0]\n 29722: ra = a0 >> 0x3f\n 29725: t2 = a5 | ra\n 29728: a0 = a0 << 0x1\n 29731: a5 = u64 [s1 + 0x150]\n 29735: a0 = a0 | a5\n 29738: u64 [s1 + 0x1b0] = a0\n 29742: a5 = u64 [s1 + 0x168]\n 29746: a0 = a5 | t2\n 29749: u64 [s1 + 0x1a0] = a0\n 29753: a0 = a5 | a1\n 29756: u64 [s1 + 0x1a8] = a0\n 29760: ra = a5 | a2\n 29763: a0 = a3 - a4\n 29766: a0 = a0 <u t0\n 29769: a1 = a3 <u a4\n 29772: t2 = u64 [s1 + 0x170]\n 29776: a5 = a3 - t2\n 29779: a5 = a5 - a1\n 29782: a5 = a5 - a0\n 29785: t0 = a5 >>a 0x3f\n 29788: a0 = u64 [s1 + 0x148]\n 29792: a0 = t0 & a0\n 29795: a2 = u64 [s1 + 0x158]\n 29799: a1 = a2 - a0\n 29802: u64 [s1 + 0x178] = a1\n 29806: a1 = a2 <u a0\n 29809: a0 = t1 - a1\n 29812: u64 [s1 + 0x180] = a0\n 29816: a1 = 0 if t1 != 0\n 29818: a0 = a4 - a1\n 29821: u64 [s1 + 0x160] = a0\n 29825: a1 = a4 <u a1\n 29828: a1 = t2 - a1\n 29831: a0 = s1 + 0x100\n 29835: u64 [a0 + 0x70] = a1\n 29838: a3 = u64 [a0 + 0xb8]\n 29842: a1 = u64 [a0 + 0x98]\n 29846: a2 = a3 | a1\n 29849: a2 = a2 <u 0x1\n 29852: a4 = u64 [a0 + 0x88]\n 29856: a5 = a4 <u a2\n 29859: a4 = a4 - a2\n 29862: a2 = a3 <u 0x1\n 29865: a1 = a1 - a2\n 29868: a2 = u64 [a0 + 0x90]\n 29872: a2 = a2 - a5\n 29875: a3 = a3 + 0xffffffffffffffff\n 29878: u64 [a0 + 0x98] = a1\n 29882: u64 [a0 + 0x90] = a2\n 29886: a2 = a2 | a1\n 29889: u64 [a0 + 0xb8] = a3\n 29893: a3 = a3 | a4\n 29896: a2 = a2 | a3\n 29899: a5 = t0 & 0x1\n 29902: u64 [a0 + 0x88] = a4\n 29906: u64 [s1 + 360] = 0\n 29910: jump @999 if a2 != 0\n      : @1000 (gas: 20)\n 29914: a2 = u64 [s1 + 0x1a8]\n 29918: a0 = a2 >> 0x3f\n 29921: a1 = ra << 0x1\n 29924: a0 = a0 | a1\n 29927: a4 = u64 [s1 + 0x1a0]\n 29931: a1 = a4 >> 0x3f\n 29934: a2 = a2 << 0x1\n 29937: a1 = a1 | a2\n 29940: a3 = u64 [s1 + 0x1b0]\n 29944: a2 = a3 >> 0x3f\n 29947: a4 = a4 << 0x1\n 29950: a3 = a3 << 0x1\n 29953: a3 = a3 | a5\n 29956: a5 = u64 [s1 + 0x140]\n 29960: a2 = a2 | a5\n 29963: a2 = a2 | a4\n 29966: t1 = a5 | a1\n 29969: t2 = a5 | a0\n 29972: a4 = u64 [s1 + 0x148]\n 29976: fallthrough\n      : @1001 (gas: 53)\n 29977: a5 = a4 mulhu a3\n 29980: a0 = a4 * a2\n 29983: a1 = a4\n 29985: a4 = a0 + a5\n 29988: a0 = a4 <u a0\n 29991: a2 = a1 mulhu a2\n 29994: a0 = a0 + a2\n 29997: a2 = t2 * a1\n 30000: a5 = t1 mulhu a1\n 30003: a2 = a2 + a5\n 30006: u64 [s1 + 0x1b8] = a2\n 30010: t1 = t1 * a1\n 30013: t2 = a1 * a3\n 30016: a1 = u64 [s1 + 0xf0]\n 30020: a5 = a1 ^ a4\n 30023: a2 = a1 <u a4\n 30026: ra = u64 [s1 + 0x108]\n 30030: t0 = ra <u t2\n 30033: a2 = t0 if a5 == 0\n 30036: a3 = u64 [s1 + 0xe0]\n 30040: a5 = u64 [s1 + 0x1b8]\n 30044: a5 = a3 - a5\n 30047: t1 = t1 + a0\n 30050: a0 = t1 <u a0\n 30053: a5 = a5 - a0\n 30056: a3 = u64 [s1 + 0xe8]\n 30060: a0 = a3 - t1\n 30063: a3 = a3 <u t1\n 30066: a5 = a5 - a3\n 30069: a3 = a0 <u a2\n 30072: a5 = a5 - a3\n 30075: a0 = a0 - a2\n 30078: a1 = a1 - a4\n 30081: a1 = a1 - t0\n 30084: a2 = ra - t2\n 30087: a4 = s1 + 0x2938\n 30091: a3 = u64 [s1 + 0x110]\n 30095: u64 [a4 + 0x608] = a3\n 30099: a3 = u64 [s1 + 0x118]\n 30103: u64 [a4 + 0x610] = a3\n 30107: a3 = a4 + 0x500\n 30111: u64 [a3 + 0xe8] = a2\n 30115: a2 = u64 [s1 + 0x120]\n 30119: u64 [a4 + 0x618] = a2\n 30123: a2 = u64 [s1 + 0x128]\n 30127: u64 [a4 + 0x620] = a2\n 30131: u64 [a3 + 0xf0] = a1\n 30135: u64 [a3 + 0xf8] = a0\n 30139: a0 = s1 + 0x2f60\n 30143: a1 = s1 + 0x2f40\n 30147: a2 = s1 + 0x2f20\n 30151: u64 [a4 + 0x600] = a5\n 30155: ra = 1082, jump @1380\n      : @1002 [@dyn 541] (gas: 37)\n 30161: a0 = s1 + 0x2938\n 30165: t0 = u64 [a0 + 0x640]\n 30169: a5 = u64 [a0 + 0x638]\n 30173: t1 = u64 [a0 + 0x630]\n 30177: t2 = u64 [a0 + 0x628]\n 30181: a1 = u64 [s1 + 0x28]\n 30184: a0 = a1 + 0x7\n 30187: a1 = a0 <u a1\n 30190: a3 = u64 [s1 + 0x30]\n 30193: a2 = a3 + a1\n 30196: a3 = a2 <u a3\n 30199: a3 = a1 if a1 == 0\n 30202: a1 = u64 [s1 + 0x38]\n 30205: a3 = a3 + a1\n 30208: a1 = a3 <u a1\n 30211: a4 = u64 [s1 + 0x40]\n 30214: a1 = a1 + a4\n 30217: a4 = s1 + 0x4138\n 30221: u64 [a4 + 0x300] = a1\n 30225: a1 = a4 + 0x200\n 30229: u64 [a1 + 0xf8] = a3\n 30233: u64 [a1 + 0xf0] = a2\n 30237: u64 [a1 + 0xe8] = a0\n 30241: a1 = u64 [s1 + 0xd8]\n 30245: u64 [s1 + 0x78] = a5\n 30248: u64 [a1 + 0x10] = a5\n 30251: a0 = t0\n 30253: u64 [s1 + 0x80] = a0\n 30257: u64 [a1 + 0x18] = a0\n 30260: a0 = t2\n 30262: u64 [s1 + 0x68] = a0\n 30265: u64 [a1] = a0\n 30267: a0 = t1\n 30269: u64 [s1 + 0x70] = a0\n 30272: u64 [a1 + 0x8] = a0\n 30275: a0 = s1 + 0x4420\n 30279: ra = 1084, jump @9\n      : @1003 [@dyn 542] (gas: 3)\n 30285: a0 = s1 + 0x2f00\n 30289: a1 = u64 [s1 + 0x20]\n 30292: ra = 1086, jump @6\n      : @1004 [@dyn 543] (gas: 3)\n 30298: a3 = s1 + 0x2938\n 30302: a4 = a3 + 0x500\n 30306: t0 = 1088, jump @1605\n      : @1005 [@dyn 544] (gas: 8)\n 30312: a5 = a4 + 0x300\n 30316: u64 [a5 + 0x20] = a3\n 30319: u64 [a5 + 0x10] = a1\n 30322: u64 [a5 + 0x8] = a0\n 30325: u64 [a5 + 0x18] = a2\n 30328: a1 = s1 + 0x4440\n 30332: a0 = u64 [s1 + 0x20]\n 30335: ra = 1090, jump @9\n      : @1006 [@dyn 545] (gas: 3)\n 30341: a0 = s1 + 0x2ee0\n 30345: a1 = 0x40\n 30348: ra = 1092, jump @2\n      : @1007 [@dyn 546] (gas: 7)\n 30354: a3 = s1 + 0x2938\n 30358: a5 = a3 + 0x500\n 30362: a0 = u64 [a5 + 0xc0]\n 30366: a1 = u64 [a5 + 0xb8]\n 30370: a2 = u64 [a5 + 0xb0]\n 30374: a4 = u64 [a5 + 0xa8]\n 30378: t0 = 1094, jump @1577\n      : @1008 [@dyn 547] (gas: 1)\n 30384: jump @993 if a0 != 0\n      : @1009 (gas: 13)\n 30388: a0 = u64 [s1 + 0x68]\n 30391: a2 = a3 + 0x500\n 30395: u64 [a2 + 0x88] = a0\n 30399: a0 = u64 [s1 + 0x70]\n 30402: u64 [a2 + 0x90] = a0\n 30406: a0 = u64 [s1 + 0x78]\n 30409: u64 [a2 + 0x98] = a0\n 30413: a1 = s1 + 0x2ec0\n 30417: a0 = u64 [s1 + 0x80]\n 30421: u64 [a2 + 0xa0] = a0\n 30425: a0 = a4\n 30427: u64 [s1 + 0x1b8] = a4\n 30431: ra = 1096, jump @4\n      : @1010 [@dyn 548] (gas: 24)\n 30437: a0 = u64 [0x20018]\n 30442: a3 = s1 + 0x2938\n 30446: a1 = u64 [s1 + 0x88]\n 30450: a5 = a3 + 0x500\n 30454: u64 [a5 + 0x60] = a1\n 30457: a1 = u64 [s1 + 0x90]\n 30461: u64 [a5 + 0x58] = a1\n 30464: u64 [a5 + 0x80] = a0\n 30468: a0 = u64 [0x20020]\n 30473: a1 = u64 [0x20028]\n 30478: a2 = u64 [0x20030]\n 30483: a4 = u64 [s1 + 0x98]\n 30487: u64 [a5 + 0x50] = a4\n 30490: u64 [a5 + 0x78] = a0\n 30493: u64 [a5 + 0x70] = a1\n 30496: u64 [a5 + 0x68] = a2\n 30499: a4 = a3\n 30501: a1 = 0x20\n 30504: a2 = s1 + 0x2ea0\n 30508: a3 = s1 + 0x2e80\n 30512: a0 = u64 [s1 + 0xa0]\n 30516: u64 [a4 + 0x548] = a0\n 30520: a0 = u64 [s1 + 0x1b8]\n 30524: ra = 1098, jump @10\n      : @1011 [@dyn 549] (gas: 13)\n 30530: a0 = s1 + 0x2938\n 30534: a1 = u64 [s1 + 0x88]\n 30538: a3 = a0 + 0x500\n 30542: u64 [a3 + 0x40] = a1\n 30545: a1 = u64 [s1 + 0x90]\n 30549: u64 [a3 + 0x38] = a1\n 30552: a1 = u64 [s1 + 0x98]\n 30556: u64 [a3 + 0x30] = a1\n 30559: a1 = s1 + 0x2e60\n 30563: a2 = u64 [s1 + 0xa0]\n 30567: u64 [a3 + 0x28] = a2\n 30570: a0 = 0\n 30572: ra = 1100, jump @4\n      : @1012 [@dyn 550] (gas: 3)\n 30578: t0 = 0x44e\n 30582: a1 = s1 + 0x2938\n 30586: fallthrough\n      : @1013 [@dyn 551] (gas: 8)\n 30587: u64 [a1 + 1312] = 0\n 30591: u64 [a1 + 1304] = 0\n 30595: u64 [a1 + 1288] = 0x4\n 30600: a2 = a1\n 30602: a0 = 0x20\n 30605: a1 = s1 + 0x2e40\n 30609: u64 [a2 + 1296] = 0\n 30613: ra = 1104, jump @4\n      : @1014 [@dyn 552] (gas: 1)\n 30619: t0 = 1106, jump @1620\n      : @1015 [@dyn 553] (gas: 3)\n 30625: a2 = u64 [s1 + 0x100]\n 30629: a0 = i32 [a2]\n 30631: jump @1017 if a0 >u 63\n      : @1016 (gas: 2)\n 30635: u32 [a2 + 0] = 0x40\n 30638: fallthrough\n      : @1017 (gas: 11)\n 30639: a0 = sp + 0xffffffffffffffe0\n 30642: a0 = a0 & 0xffffffffffffffe0\n 30645: u64 [s1 + 0x1b0] = a0\n 30649: sp = a0\n 30651: i32 a2 = a0 + 0\n 30653: a1 = 0x40\n 30656: a0 = u64 [s1 + 0xf8]\n 30660: ra = 0x454\n 30664: ecalli 7 // 'hash_keccak_256'\n 30666: t0 = 0x456\n 30670: jump @1575\n      : @1018 [@dyn 554] (gas: 1)\n 30673: t0 = 1110, jump @1575\n      : @1019 [@dyn 555] (gas: 3)\n 30679: a0 = s1 + 0x2e20\n 30683: a1 = 0x40\n 30686: ra = 1112, jump @2\n      : @1020 [@dyn 556] (gas: 13)\n 30692: a0 = s1 + 0x2938\n 30696: a1 = u64 [a0 + 0x500]\n 30700: u64 [s1 + 0x60] = a1\n 30703: a2 = a0 + 0x400\n 30707: a1 = u64 [a2 + 0xf8]\n 30711: u64 [s1 + 0x58] = a1\n 30714: a1 = u64 [a2 + 0xf0]\n 30718: u64 [s1 + 0x50] = a1\n 30721: a0 = u64 [a2 + 0xe8]\n 30725: u64 [s1 + 0xf0] = a0\n 30729: a0 = s1 + 0x2e00\n 30733: a1 = u64 [s1 + 0x1b8]\n 30737: ra = 1114, jump @6\n      : @1021 [@dyn 557] (gas: 6)\n 30743: a0 = u64 [s1 + 0xf0]\n 30747: a1 = u64 [s1 + 0x60]\n 30750: a2 = u64 [s1 + 0x50]\n 30753: a2 = a2 | a1\n 30756: a3 = u64 [s1 + 0x58]\n 30759: t0 = 1116, jump @1601\n      : @1022 [@dyn 558] (gas: 1)\n 30765: jump @993 if a1 != 0\n      : @1023 (gas: 16)\n 30769: a5 = s1 + 0x2938\n 30773: a2 = u64 [a5 + 0x4e0]\n 30777: a1 = u64 [a5 + 0x4d8]\n 30781: a3 = u64 [a5 + 0x4d0]\n 30785: a4 = u64 [a5 + 0x4c8]\n 30789: u64 [s1 + 0x110] = a4\n 30793: u64 [a5 + 0x4a8] = a4\n 30797: u64 [s1 + 0x118] = a3\n 30801: a4 = a5 + 0x400\n 30805: u64 [a4 + 0xb0] = a3\n 30809: u64 [s1 + 0x120] = a1\n 30813: u64 [a4 + 0xb8] = a1\n 30817: a1 = s1 + 0x2de0\n 30821: u64 [s1 + 0x128] = a2\n 30825: u64 [a4 + 0xc0] = a2\n 30829: ra = 1118, jump @4\n      : @1024 [@dyn 559] (gas: 14)\n 30835: a0 = u64 [s1 + 0x198]\n 30839: a1 = s1 + 0x2938\n 30843: a2 = a1 + 0x400\n 30847: u64 [a2 + 0xa0] = a0\n 30851: a0 = u64 [s1 + 0x1a0]\n 30855: u64 [a2 + 0x98] = a0\n 30859: a0 = u64 [s1 + 0x1a8]\n 30863: u64 [a2 + 0x90] = a0\n 30867: a2 = a1\n 30869: a1 = s1 + 0x2dc0\n 30873: a0 = u64 [s1 + 0x1b0]\n 30877: u64 [a2 + 0x488] = a0\n 30881: a0 = 0\n 30883: ra = 1120, jump @4\n      : @1025 [@dyn 560] (gas: 7)\n 30889: a0 = sp + 0xffffffffffffffe0\n 30892: a0 = a0 & 0xffffffffffffffe0\n 30895: u64 [s1 + 0x190] = a0\n 30899: sp = a0\n 30901: a0 = u64 [s1 + 0x100]\n 30905: a0 = i32 [a0]\n 30907: jump @1027 if a0 >u 31\n      : @1026 (gas: 3)\n 30911: a1 = u64 [s1 + 0x100]\n 30915: u32 [a1 + 0] = 0x20\n 30918: fallthrough\n      : @1027 (gas: 3)\n 30919: a0 = 0xffffffff\n 30929: u64 [s1 + 0x130] = a0\n 30933: t0 = 1122, jump @1604\n      : @1028 [@dyn 561] (gas: 33)\n 30939: a0 = u64 [s1 + 0xf8]\n 30943: ecalli 7 // 'hash_keccak_256'\n 30945: t1 = 0\n 30947: a5 = 0\n 30949: t0 = 0\n 30951: a3 = u64 [s1 + 0x1b8]\n 30955: a0 = u64 [a3 + 0x18]\n 30958: a1 = u64 [a3 + 0x10]\n 30961: a4 = u64 [a3 + 0x8]\n 30964: t2 = u64 [a3]\n 30966: ra = reverse a0\n 30968: a3 = reverse a1\n 30970: a0 = reverse a4\n 30972: a1 = 0\n 30974: a2 = reverse t2\n 30976: a4 = u64 [s1 + 0x190]\n 30980: u64 [a4 + 0x18] = a2\n 30983: u64 [s1 + 0x138] = a0\n 30987: u64 [a4 + 0x10] = a0\n 30990: u64 [a4 + 0x8] = a3\n 30993: u64 [a4] = ra\n 30995: a0 = 0xffffffe0\n 31005: a4 = s1 + 0x100\n 31009: u64 [a4 + 0x8] = a0\n 31012: a0 = u64 [s1 + 0xf0]\n 31016: u64 [a4 + 0xb8] = a0\n 31020: a0 = u64 [s1 + 0x50]\n 31023: u64 [a4 + 0xb0] = a0\n 31027: a0 = u64 [s1 + 0x58]\n 31030: u64 [a4 + 0xa8] = a0\n 31034: a0 = u64 [s1 + 0x60]\n 31037: u64 [a4 + 0xa0] = a0\n 31041: fallthrough\n      : @1029 (gas: 40)\n 31042: u64 [s1 + 0x148] = a2\n 31046: u64 [s1 + 0x150] = a3\n 31050: u64 [s1 + 0x158] = ra\n 31054: ra = u64 [s1 + 0x1b8]\n 31058: t2 = ra + 0x20\n 31061: a0 = u64 [s1 + 0x110]\n 31065: u64 [s1 + 0x170] = t1\n 31069: a0 = t1 <u a0\n 31072: a2 = u64 [s1 + 0x118]\n 31076: a3 = a5 ^ a2\n 31079: u64 [s1 + 0x168] = a5\n 31083: a2 = a5 <u a2\n 31086: a2 = a0 if a3 == 0\n 31089: a4 = u64 [s1 + 0x120]\n 31093: a0 = a1 <u a4\n 31096: a3 = u64 [s1 + 0x128]\n 31100: a5 = t0 ^ a3\n 31103: u64 [s1 + 0x160] = t0\n 31107: a3 = t0 <u a3\n 31110: a3 = a0 if a5 == 0\n 31113: u64 [s1 + 0x140] = a1\n 31117: a0 = a1 ^ a4\n 31120: a0 = a0 | a5\n 31123: u64 [s1 + 0x198] = t2\n 31127: a4 = t2 <u ra\n 31130: a3 = a2 if a0 == 0\n 31133: a1 = s1 + 0x100\n 31137: a2 = u64 [a1 + 0xb0]\n 31141: a0 = a2 + a4\n 31144: u64 [a1 + 0x88] = a0\n 31148: a0 = a0 <u a2\n 31151: a0 = a4 if a4 == 0\n 31154: a2 = u64 [a1 + 0xa8]\n 31158: a0 = a0 + a2\n 31161: u64 [a1 + 0x78] = a0\n 31164: a0 = a0 <u a2\n 31167: a2 = u64 [a1 + 0xa0]\n 31171: a0 = a0 + a2\n 31174: u64 [a1 + 0x80] = a0\n 31178: jump @1034 if a3 == 0\n      : @1030 (gas: 3)\n 31182: a0 = s1 + 0x2860\n 31186: a1 = u64 [s1 + 0x190]\n 31190: ra = 1124, jump @6\n      : @1031 [@dyn 562] (gas: 11)\n 31196: a3 = s1 + 0x100\n 31200: a0 = u64 [a3 + 0xa8]\n 31204: a1 = u64 [a3 + 0xa0]\n 31208: a0 = a0 | a1\n 31211: a1 = u64 [a3 + 0x8]\n 31214: a2 = u64 [a3 + 0xb8]\n 31218: a1 = a2 <u a1\n 31221: a2 = u64 [a3 + 0xb0]\n 31225: a1 = 0 if a2 != 0\n 31227: a1 = 0 if a0 != 0\n 31229: jump @993 if a1 == 0\n      : @1032 (gas: 17)\n 31233: a3 = s1 + 0x2138\n 31237: a5 = a3 + 0x700\n 31241: a0 = u64 [a5 + 0x38]\n 31244: a1 = u64 [a5 + 0x30]\n 31247: a2 = u64 [a5 + 0x28]\n 31250: a4 = u64 [s1 + 0x130]\n 31254: a0 = a0 & a4\n 31257: a4 = 0xffffffffffffffff\n 31260: a1 = a1 & a4\n 31263: a2 = a2 & a4\n 31266: u64 [a3 + 1824] = 0\n 31270: u64 [a5 + 0x8] = a2\n 31273: u64 [a5 + 0x10] = a1\n 31276: a1 = s1 + 0x2840\n 31280: u64 [a5 + 0x18] = a0\n 31283: a0 = u64 [s1 + 0x198]\n 31287: ra = 1126, jump @4\n      : @1033 [@dyn 563] (gas: 41)\n 31293: ra = u64 [s1 + 0x158]\n 31297: ra = ra + 0x1\n 31300: a0 = ra <u 0x1\n 31303: a3 = u64 [s1 + 0x150]\n 31307: a3 = a3 + a0\n 31310: a0 = ra | a3\n 31313: a0 = a0 <u 0x1\n 31316: a1 = u64 [s1 + 0x138]\n 31320: a0 = a0 + a1\n 31323: a1 = a0 <u a1\n 31326: a4 = u64 [s1 + 0x148]\n 31330: a4 = a4 + a1\n 31333: t1 = u64 [s1 + 0x170]\n 31337: t1 = t1 + 0x1\n 31340: a1 = t1 <u 0x1\n 31343: a5 = u64 [s1 + 0x168]\n 31347: a5 = a5 + a1\n 31350: a1 = t1 | a5\n 31353: a1 = a1 <u 0x1\n 31356: a2 = u64 [s1 + 0x140]\n 31360: a1 = a1 + a2\n 31363: a2 = a1 <u a2\n 31366: t0 = u64 [s1 + 0x160]\n 31370: t0 = t0 + a2\n 31373: a2 = u64 [s1 + 0x190]\n 31377: u64 [a2 + 0x8] = a3\n 31380: u64 [a2] = ra\n 31382: u64 [a2 + 0x10] = a0\n 31385: u64 [a2 + 0x18] = a4\n 31388: a2 = s1 + 0x100\n 31392: u64 [a2 + 0x38] = a0\n 31395: a0 = u64 [a2 + 0x98]\n 31399: u64 [a2 + 0xb8] = a0\n 31403: a0 = u64 [a2 + 0x88]\n 31407: u64 [a2 + 0xb0] = a0\n 31411: a0 = u64 [a2 + 0x78]\n 31414: u64 [a2 + 0xa8] = a0\n 31418: a0 = u64 [a2 + 0x80]\n 31422: u64 [a2 + 0xa0] = a0\n 31426: a2 = a4\n 31428: jump @1029\n      : @1034 (gas: 42)\n 31431: t0 = u64 [s1 + 0xf0]\n 31435: a0 = u64 [s1 + 0x198]\n 31439: t2 = a0 <u t0\n 31442: a5 = u64 [s1 + 0x50]\n 31445: a0 = u64 [s1 + 0x188]\n 31449: a3 = a0 ^ a5\n 31452: a2 = a0 <u a5\n 31455: a2 = t2 if a3 == 0\n 31458: a1 = u64 [s1 + 0x58]\n 31461: a4 = u64 [s1 + 0x178]\n 31465: a3 = a4 - a1\n 31468: t1 = a3 <u a2\n 31471: a4 = a4 <u a1\n 31474: a4 = a4 + t1\n 31477: u64 [s1 + 0x1b8] = a4\n 31481: t1 = u64 [s1 + 0x60]\n 31484: a4 = u64 [s1 + 0x180]\n 31488: a4 = a4 - t1\n 31491: ra = u64 [s1 + 0x1b8]\n 31495: a4 = a4 - ra\n 31498: u64 [s1 + 0x1b8] = a4\n 31502: a3 = a3 - a2\n 31505: u64 [s1 + 0x1b0] = a3\n 31509: a2 = a0 - a5\n 31512: a2 = a2 - t2\n 31515: a0 = u64 [s1 + 0x198]\n 31519: a4 = a0 - t0\n 31522: a3 = s1 + 0x2938\n 31526: u64 [a3 + 0x468] = t0\n 31530: u64 [a3 + 0x448] = a4\n 31534: a4 = a3 + 0x400\n 31538: u64 [a4 + 0x70] = a5\n 31541: u64 [a4 + 0x78] = a1\n 31544: u64 [a4 + 0x50] = a2\n 31547: u64 [a3 + 0x480] = t1\n 31551: a0 = u64 [s1 + 0x1b0]\n 31555: u64 [a4 + 0x58] = a0\n 31558: a0 = s1 + 0x2da0\n 31562: a1 = s1 + 0x2d80\n 31566: a2 = u64 [s1 + 0x1b8]\n 31570: u64 [a4 + 0x60] = a2\n 31573: ra = 1128, jump @1343\n      : @1035 [@dyn 564] (gas: 17)\n 31579: u64 [s1 + 272] = 0\n 31583: u64 [s1 + 232] = 0\n 31587: u64 [s1 + 264] = 0\n 31591: a2 = 0\n 31593: t0 = 0\n 31595: ra = 0\n 31597: a4 = 0\n 31599: a5 = 0\n 31601: u64 [s1 + 392] = 0\n 31605: u64 [s1 + 384] = 0\n 31609: u64 [s1 + 368] = 0\n 31613: u64 [s1 + 376] = 0\n 31617: a0 = 0x100000000\n 31627: u64 [s1 + 0x118] = a0\n 31631: a0 = 0xffffffe0\n 31641: u64 [s1 + 0x48] = a0\n 31644: fallthrough\n      : @1036 (gas: 8)\n 31645: u64 [s1 + 0xc8] = a5\n 31649: u64 [s1 + 0xd0] = a4\n 31653: u64 [s1 + 0xd8] = ra\n 31657: u64 [s1 + 0x138] = t0\n 31661: u64 [s1 + 0xe0] = a2\n 31665: a0 = s1 + 0x2d60\n 31669: a1 = u64 [s1 + 0xf0]\n 31673: ra = 1130, jump @2\n      : @1037 [@dyn 565] (gas: 22)\n 31679: a5 = s1 + 0x2938\n 31683: a3 = a5 + 0x400\n 31687: a0 = u64 [a3 + 0x30]\n 31690: a1 = u64 [a3 + 0x40]\n 31693: a2 = u64 [a3 + 0x28]\n 31696: t2 = u64 [a5 + 0x438]\n 31700: ra = u64 [s1 + 0x180]\n 31704: t1 = ra ^ a0\n 31707: a0 = ra <u a0\n 31710: t0 = u64 [s1 + 0x188]\n 31714: a2 = t0 <u a2\n 31717: a2 = a0 if t1 != 0\n 31720: a4 = u64 [s1 + 0x170]\n 31724: a0 = a4 <u t2\n 31727: a3 = u64 [s1 + 0x178]\n 31731: t1 = a3 ^ a1\n 31734: a1 = a3 <u a1\n 31737: a1 = a0 if t1 == 0\n 31740: a0 = a4 ^ t2\n 31743: a0 = a0 | t1\n 31746: a1 = a2 if a0 == 0\n 31749: jump @1073 if a1 == 0\n      : @1038 (gas: 17)\n 31753: u64 [a5 + 0x128] = t0\n 31757: a0 = u64 [s1 + 0xf0]\n 31761: u64 [a5 + 0x148] = a0\n 31765: u64 [a5 + 0x130] = ra\n 31769: a0 = u64 [s1 + 0x50]\n 31772: u64 [a5 + 0x150] = a0\n 31776: u64 [a5 + 0x138] = a4\n 31780: a0 = u64 [s1 + 0x58]\n 31783: a4 = a5 + 0x100\n 31787: u64 [a4 + 0x58] = a0\n 31790: u64 [a4 + 0x40] = a3\n 31793: a0 = s1 + 0x2aa0\n 31797: a1 = s1 + 0x2a80\n 31801: a2 = s1 + 0x2a60\n 31805: a3 = u64 [s1 + 0x60]\n 31808: u64 [a4 + 0x60] = a3\n 31811: ra = 1132, jump @1470\n      : @1039 [@dyn 566] (gas: 3)\n 31817: t0 = 0x46e\n 31821: a1 = s1 + 0x2938\n 31825: fallthrough\n      : @1040 [@dyn 567] (gas: 13)\n 31826: a4 = a1 + 0x100\n 31830: a0 = u64 [a4 + 0x80]\n 31834: a2 = u64 [a4 + 0x78]\n 31837: a3 = u64 [a4 + 0x70]\n 31840: a1 = u64 [a4 + 0x68]\n 31843: a0 = a0 | a3\n 31846: a3 = a1 | a2\n 31849: a3 = a3 | a0\n 31852: a3 = a3 >> 0x20\n 31855: a0 = a0 | a2\n 31858: a0 = a0 << 0x20\n 31861: a0 = a0 | a3\n 31864: jump @993 if a0 != 0\n      : @1041 (gas: 2)\n 31868: a0 = s1 + 0x2a40\n 31872: ra = 1136, jump @2\n      : @1042 [@dyn 568] (gas: 19)\n 31878: a2 = s1 + 0x2938\n 31882: a1 = a2 + 0x100\n 31886: a0 = u64 [a1 + 0x8]\n 31889: u64 [s1 + 0x1b8] = a0\n 31893: a0 = u64 [a1 + 0x10]\n 31896: u64 [s1 + 0x1b0] = a0\n 31900: a0 = u64 [a1 + 0x18]\n 31903: u64 [s1 + 0x1a8] = a0\n 31907: a0 = u64 [s1 + 0x88]\n 31911: u64 [a1] = a0\n 31913: a0 = u64 [s1 + 0x90]\n 31917: u64 [a2 + 0xf8] = a0\n 31921: a0 = u64 [s1 + 0x98]\n 31925: u64 [a2 + 0xf0] = a0\n 31929: a1 = s1 + 0x2a20\n 31933: a0 = u64 [s1 + 0xa0]\n 31937: u64 [a2 + 0xe8] = a0\n 31941: a0 = 0\n 31943: ra = 1138, jump @4\n      : @1043 [@dyn 569] (gas: 9)\n 31949: a0 = s1 + 0x2938\n 31953: u64 [a0 + 224] = 0\n 31957: u64 [a0 + 216] = 0\n 31961: u64 [a0 + 208] = 0\n 31965: a3 = a0\n 31967: a0 = 0x20\n 31970: a1 = s1 + 0x2a00\n 31974: u64 [a3 + 200] = 0x3\n 31979: ra = 1140, jump @4\n      : @1044 [@dyn 570] (gas: 3)\n 31985: a1 = u64 [s1 + 0x100]\n 31989: a0 = i32 [a1]\n 31991: jump @1046 if a0 >u 63\n      : @1045 (gas: 2)\n 31995: u32 [a1 + 0] = 0x40\n 31998: fallthrough\n      : @1046 (gas: 11)\n 31999: a0 = u64 [s1 + 0x130]\n 32003: a1 = u64 [s1 + 0x1a8]\n 32007: a0 = a0 & a1\n 32010: u64 [s1 + 0x140] = a0\n 32014: a1 = u64 [s1 + 0x1b0]\n 32018: a1 = a1 & 0xffffffffffffffff\n 32021: u64 [s1 + 0x148] = a1\n 32025: a1 = u64 [s1 + 0x1b8]\n 32029: a0 = a1 & 0xffffffffffffffff\n 32032: u64 [s1 + 0x150] = a0\n 32036: t0 = 1142, jump @1598\n      : @1047 [@dyn 571] (gas: 29)\n 32042: ecalli 7 // 'hash_keccak_256'\n 32044: a3 = u64 [s1 + 0x1b8]\n 32048: a0 = u64 [a3 + 0x18]\n 32051: a1 = u64 [a3 + 0x10]\n 32054: a2 = u64 [a3 + 0x8]\n 32057: a3 = u64 [a3]\n 32059: a0 = reverse a0\n 32061: u64 [s1 + 0x1b8] = a0\n 32065: a0 = reverse a1\n 32067: u64 [s1 + 0x1b0] = a0\n 32071: a0 = reverse a2\n 32073: u64 [s1 + 0x1a8] = a0\n 32077: a0 = reverse a3\n 32079: u64 [s1 + 0x1a0] = a0\n 32083: a0 = sp + 0xffffffffffffffe0\n 32086: a0 = a0 & 0xffffffffffffffe0\n 32089: u64 [s1 + 0x168] = a0\n 32093: sp = a0\n 32095: a2 = s1 + 0x2938\n 32099: u64 [a2 + 192] = 0\n 32103: a0 = u64 [s1 + 0x140]\n 32107: u64 [a2 + 0xb8] = a0\n 32111: a0 = u64 [s1 + 0x148]\n 32115: u64 [a2 + 0xb0] = a0\n 32119: a1 = s1 + 0x29e0\n 32123: a0 = u64 [s1 + 0x150]\n 32127: u64 [a2 + 0xa8] = a0\n 32131: a0 = 0\n 32133: ra = 1144, jump @4\n      : @1048 [@dyn 572] (gas: 13)\n 32139: a0 = u64 [s1 + 0x1a0]\n 32143: a1 = s1 + 0x2938\n 32147: u64 [a1 + 0xa0] = a0\n 32151: a0 = u64 [s1 + 0x1a8]\n 32155: u64 [a1 + 0x98] = a0\n 32159: a0 = u64 [s1 + 0x1b0]\n 32163: u64 [a1 + 0x90] = a0\n 32167: a3 = a1\n 32169: a0 = 0x20\n 32172: a1 = s1 + 0x29c0\n 32176: a2 = u64 [s1 + 0x1b8]\n 32180: u64 [a3 + 0x88] = a2\n 32184: ra = 1146, jump @4\n      : @1049 [@dyn 573] (gas: 3)\n 32190: a1 = u64 [s1 + 0x100]\n 32194: a0 = i32 [a1]\n 32196: jump @1051 if a0 >u 63\n      : @1050 (gas: 3)\n 32200: u32 [a1 + 0] = 0x40\n 32203: t0 = 0x47c\n 32207: jump @1598\n      : @1051 (gas: 1)\n 32210: t0 = 1148, jump @1598\n      : @1052 [@dyn 574] (gas: 5)\n 32216: ra = 0x47e\n 32220: ecalli 7 // 'hash_keccak_256'\n 32222: a3 = u64 [s1 + 0x1b8]\n 32226: t0 = 0x480\n 32230: jump @1592\n      : @1053 [@dyn 575] (gas: 2)\n 32233: a3 = u64 [s1 + 0x1b8]\n 32237: t0 = 1152, jump @1592\n      : @1054 [@dyn 576] (gas: 12)\n 32243: u64 [s1 + 0x1a0] = a1\n 32247: a2 = u64 [s1 + 0x168]\n 32251: u64 [a2 + 0x18] = a1\n 32254: u64 [s1 + 0x1a8] = a0\n 32258: u64 [a2 + 0x10] = a0\n 32261: u64 [s1 + 0x198] = a4\n 32265: u64 [a2 + 0x8] = a4\n 32268: u64 [s1 + 0x190] = a5\n 32272: u64 [a2] = a5\n 32274: a0 = s1 + 0x29a0\n 32278: a1 = 0x40\n 32281: ra = 1154, jump @2\n      : @1055 [@dyn 577] (gas: 17)\n 32287: a1 = s1 + 0x2938\n 32291: a0 = u64 [a1 + 0x80]\n 32295: u64 [s1 + 0x160] = a0\n 32299: a2 = u64 [a1 + 0x78]\n 32302: u64 [s1 + 0x158] = a2\n 32306: a4 = u64 [a1 + 0x70]\n 32309: u64 [s1 + 0x1b0] = a4\n 32313: a3 = u64 [a1 + 0x68]\n 32316: u64 [s1 + 0x1b8] = a3\n 32320: u64 [a1 + 0x60] = a0\n 32323: u64 [a1 + 0x58] = a2\n 32326: u64 [a1 + 0x50] = a4\n 32329: a0 = s1 + 0x2980\n 32333: u64 [a1 + 0x48] = a3\n 32336: ra = 0x484\n 32340: t0 = 0x5a8\n 32344: jump @1600\n      : @1056 [@dyn 578] (gas: 3)\n 32347: a0 = s1 + 0x2960\n 32351: a1 = u64 [s1 + 0x168]\n 32355: ra = 1158, jump @6\n      : @1057 [@dyn 579] (gas: 7)\n 32361: a3 = s1 + 0x100\n 32365: a0 = u64 [a3 + 0x60]\n 32368: a1 = u64 [a3 + 0xb0]\n 32372: a0 = a0 | a1\n 32375: a2 = u64 [a3 + 0x58]\n 32378: a1 = u64 [a3 + 0xb8]\n 32382: t0 = 1160, jump @1631\n      : @1058 [@dyn 580] (gas: 1)\n 32388: jump @993 if a0 != 0\n      : @1059 (gas: 16)\n 32392: a4 = s1 + 0x2938\n 32396: a3 = u64 [a4 + 0x40]\n 32399: a2 = u64 [a4 + 0x38]\n 32402: a1 = u64 [a4 + 0x30]\n 32405: a0 = u64 [a4 + 0x28]\n 32408: u64 [s1 + 0x128] = a0\n 32412: u64 [a4 + 0x8] = a0\n 32415: u64 [s1 + 0x120] = a1\n 32419: u64 [a4 + 0x10] = a1\n 32422: u64 [s1 + 0xc0] = a2\n 32426: u64 [a4 + 0x18] = a2\n 32429: a1 = s1 + 0x2940\n 32433: u64 [s1 + 0xb8] = a3\n 32437: u64 [a4 + 0x20] = a3\n 32440: a0 = u64 [s1 + 0x1b8]\n 32444: ra = 1162, jump @4\n      : @1060 [@dyn 581] (gas: 21)\n 32450: a0 = u64 [s1 + 0x190]\n 32454: a0 = a0 + 0x1\n 32457: a1 = a0 <u 0x1\n 32460: a2 = u64 [s1 + 0x198]\n 32464: a1 = a1 + a2\n 32467: a2 = a0 | a1\n 32470: a2 = a2 <u 0x1\n 32473: a3 = u64 [s1 + 0x1a8]\n 32477: a2 = a2 + a3\n 32480: a3 = a2 <u a3\n 32483: a4 = u64 [s1 + 0x1a0]\n 32487: a3 = a3 + a4\n 32490: a4 = s1 + 0x4138\n 32494: a5 = a4 + 0x300\n 32498: u64 [a5 + 0x30] = a1\n 32501: u64 [a5 + 0x28] = a0\n 32504: u64 [a5 + 0x38] = a2\n 32507: u64 [a5 + 0x40] = a3\n 32510: a0 = s1 + 0x2920\n 32514: a1 = s1 + 0x4460\n 32518: ra = 1164, jump @6\n      : @1061 [@dyn 582] (gas: 12)\n 32524: a3 = s1 + 0x100\n 32528: a0 = u64 [a3 + 0x60]\n 32531: a2 = u64 [a3 + 0x58]\n 32534: a2 = a2 | a0\n 32537: a0 = u64 [s1 + 0x48]\n 32540: a1 = u64 [a3 + 0xb8]\n 32544: a0 = a1 <u a0\n 32547: a1 = u64 [a3 + 0xb0]\n 32551: a0 = 0 if a1 != 0\n 32553: u64 [a3 + 0x68] = a2\n 32556: a0 = 0 if a2 != 0\n 32558: jump @993 if a0 == 0\n      : @1062 (gas: 16)\n 32562: a0 = s1 + 0x2938\n 32566: a2 = u64 [a0]\n 32568: a5 = a0 + 0xffffffffffffff00\n 32572: a1 = u64 [a5 + 0xf8]\n 32576: a3 = u64 [a5 + 0xf0]\n 32580: a4 = u64 [a5 + 0xe8]\n 32584: a0 = u64 [s1 + 0x1b8]\n 32588: i32 a0 = a0 + 0x20\n 32591: a5 = s1 + 0x2138\n 32595: u64 [a5 + 0x7c8] = a4\n 32599: a4 = a5 + 0x700\n 32603: u64 [a4 + 0xd0] = a3\n 32607: u64 [a4 + 0xd8] = a1\n 32611: a1 = s1 + 0x2900\n 32615: u64 [a4 + 0xe0] = a2\n 32619: ra = 1166, jump @4\n      : @1063 [@dyn 583] (gas: 3)\n 32625: a1 = u64 [s1 + 0x190]\n 32629: a0 = a1 + 0x2\n 32632: t0 = 1168, jump @1584\n      : @1064 [@dyn 584] (gas: 7)\n 32638: u64 [a5 + 0x50] = a2\n 32641: u64 [a5 + 0x48] = a0\n 32644: u64 [a5 + 0x58] = a3\n 32647: u64 [a5 + 0x60] = a1\n 32650: a0 = s1 + 0x28e0\n 32654: a1 = s1 + 0x4480\n 32658: ra = 1170, jump @6\n      : @1065 [@dyn 585] (gas: 10)\n 32664: a2 = s1 + 0x100\n 32668: a0 = u64 [a2 + 0x18]\n 32671: a0 = a0 + 0xffffffffffffffc0\n 32674: a1 = u64 [a2 + 0xb8]\n 32678: a0 = a1 <u a0\n 32681: a1 = u64 [a2 + 0xb0]\n 32685: a0 = 0 if a1 != 0\n 32687: a1 = u64 [a2 + 0x68]\n 32690: a0 = 0 if a1 != 0\n 32692: jump @993 if a0 == 0\n      : @1066 (gas: 18)\n 32696: a2 = s1 + 0x2138\n 32700: t0 = u64 [a2 + 0x7c0]\n 32704: a3 = a2 + 0x700\n 32708: a1 = u64 [a3 + 0xb8]\n 32712: a4 = u64 [a3 + 0xb0]\n 32716: a5 = u64 [a3 + 0xa8]\n 32720: a0 = u64 [s1 + 0x1b8]\n 32724: i32 a0 = a0 + 0x40\n 32727: u64 [s1 + 0xa8] = a5\n 32731: u64 [a3 + 0x88] = a5\n 32735: u64 [s1 + 0xb0] = a4\n 32739: u64 [a3 + 0x90] = a4\n 32743: u64 [s1 + 0x160] = a1\n 32747: u64 [a3 + 0x98] = a1\n 32751: a1 = s1 + 0x28c0\n 32755: u64 [s1 + 0x158] = t0\n 32759: u64 [a2 + 0x7a0] = t0\n 32763: ra = 1172, jump @4\n      : @1067 [@dyn 586] (gas: 3)\n 32769: a1 = u64 [s1 + 0x190]\n 32773: a0 = a1 + 0x3\n 32776: t0 = 1174, jump @1584\n      : @1068 [@dyn 587] (gas: 7)\n 32782: u64 [a5 + 0x70] = a2\n 32785: u64 [a5 + 0x68] = a0\n 32788: u64 [a5 + 0x78] = a3\n 32791: u64 [a5 + 0x80] = a1\n 32795: a0 = s1 + 0x28a0\n 32799: a1 = s1 + 0x44a0\n 32803: ra = 1176, jump @6\n      : @1069 [@dyn 588] (gas: 10)\n 32809: a2 = s1 + 0x100\n 32813: a0 = u64 [a2 + 0x18]\n 32816: a0 = a0 + 0xffffffffffffffa0\n 32819: a1 = u64 [a2 + 0xb8]\n 32823: a0 = a1 <u a0\n 32826: a1 = u64 [a2 + 0xb0]\n 32830: a0 = 0 if a1 != 0\n 32832: a1 = u64 [a2 + 0x68]\n 32835: a0 = 0 if a1 != 0\n 32837: jump @993 if a0 == 0\n      : @1070 (gas: 3)\n 32841: t0 = 0x49a\n 32845: a2 = s1 + 0x2138\n 32849: fallthrough\n      : @1071 [@dyn 589] (gas: 11)\n 32850: a0 = u64 [a2 + 0x768]\n 32854: a0 = a0 & 0xff\n 32858: a1 = a0 >u 0\n 32860: a0 = u64 [s1 + 0x1b8]\n 32864: i32 a0 = a0 + 0x60\n 32867: u64 [a2 + 1888] = 0\n 32871: u64 [a2 + 1880] = 0\n 32875: u64 [a2 + 0x748] = a1\n 32879: a1 = s1 + 0x2880\n 32883: u64 [a2 + 1872] = 0\n 32887: ra = 1180, jump @4\n      : @1072 [@dyn 590] (gas: 78)\n 32893: a0 = u64 [s1 + 0x68]\n 32896: a1 = u64 [s1 + 0xa8]\n 32900: a0 = a0 <u a1\n 32903: a2 = u64 [s1 + 0x70]\n 32906: a3 = u64 [s1 + 0xb0]\n 32910: a1 = a3 ^ a2\n 32913: a2 = a2 <u a3\n 32916: a2 = a0 if a1 == 0\n 32919: a0 = u64 [s1 + 0x80]\n 32923: a3 = u64 [s1 + 0x158]\n 32927: a1 = a3 ^ a0\n 32930: a0 = a0 <u a3\n 32933: a4 = u64 [s1 + 0x78]\n 32936: a5 = u64 [s1 + 0x160]\n 32940: a3 = a4 <u a5\n 32943: a0 = a3 if a1 == 0\n 32946: a3 = a5 ^ a4\n 32949: a1 = a1 | a3\n 32952: a0 = a2 if a1 == 0\n 32955: a1 = u64 [s1 + 0x128]\n 32959: a2 = u64 [s1 + 0x138]\n 32963: a1 = a2 <u a1\n 32966: a3 = u64 [s1 + 0x120]\n 32970: ra = u64 [s1 + 0xd8]\n 32974: a2 = a3 ^ ra\n 32977: a3 = ra <u a3\n 32980: a3 = a1 if a2 == 0\n 32983: t2 = u64 [s1 + 0xc0]\n 32987: a2 = u64 [s1 + 0xd0]\n 32991: a1 = a2 <u t2\n 32994: t1 = u64 [s1 + 0xb8]\n 32998: a5 = u64 [s1 + 0xc8]\n 33002: t0 = t1 ^ a5\n 33005: a4 = a5 <u t1\n 33008: a4 = a1 if t0 == 0\n 33011: a1 = t2 ^ a2\n 33014: a1 = a1 | t0\n 33017: t0 = u64 [s1 + 0x138]\n 33021: a4 = a3 if a1 == 0\n 33024: a0 = a4 & ~a0\n 33027: a4 = a2\n 33029: a1 = u64 [s1 + 0x108]\n 33033: a2 = u64 [s1 + 0x140]\n 33037: a1 = a2 if a0 != 0\n 33040: u64 [s1 + 0x108] = a1\n 33044: a1 = u64 [s1 + 0xe8]\n 33048: a2 = u64 [s1 + 0x148]\n 33052: a1 = a2 if a0 != 0\n 33055: u64 [s1 + 0xe8] = a1\n 33059: a1 = u64 [s1 + 0x110]\n 33063: a2 = u64 [s1 + 0x150]\n 33067: a1 = a2 if a0 != 0\n 33070: u64 [s1 + 0x110] = a1\n 33074: a5 = t1 if a0 != 0\n 33077: a4 = t2 if a0 != 0\n 33080: a1 = u64 [s1 + 0x120]\n 33084: ra = a1 if a0 != 0\n 33087: a1 = u64 [s1 + 0x128]\n 33091: t0 = a1 if a0 != 0\n 33094: a2 = u64 [s1 + 0xe0]\n 33098: a2 = 0 if a0 != 0\n 33100: a1 = u64 [s1 + 0x188]\n 33104: a1 = a1 + 0x1\n 33107: a0 = a1 <u 0x1\n 33110: a3 = u64 [s1 + 0x180]\n 33114: a3 = a3 + a0\n 33117: u64 [s1 + 0x188] = a1\n 33121: u64 [s1 + 0x180] = a3\n 33125: a0 = a1 | a3\n 33128: a0 = a0 <u 0x1\n 33131: a1 = u64 [s1 + 0x170]\n 33135: a0 = a0 + a1\n 33138: a1 = a0 <u a1\n 33141: a3 = u64 [s1 + 0x178]\n 33145: a3 = a3 + a1\n 33148: u64 [s1 + 0x178] = a3\n 33152: u64 [s1 + 0x170] = a0\n 33156: jump @1036\n      : @1073 (gas: 14)\n 33159: a1 = u64 [s1 + 0xe8]\n 33163: a1 = a1 & 0xffffffffffffffff\n 33166: a4 = s1 + 0x100\n 33170: a2 = u64 [a4 + 0x10]\n 33173: a0 = a2 & 0xffffffffffffffff\n 33176: a2 = u64 [a4 + 0x30]\n 33179: a3 = u64 [a4 + 0x8]\n 33182: a2 = a2 & a3\n 33185: u64 [a4 + 0x38] = a0\n 33188: u64 [a4 + 0x28] = a2\n 33191: a0 = a0 | a2\n 33194: u64 [a4 + 0x30] = a1\n 33197: a0 = a0 | a1\n 33200: jump @1124 if a0 == 0\n      : @1074 (gas: 3)\n 33204: a0 = s1 + 0x2d40\n 33208: a1 = u64 [s1 + 0x20]\n 33211: ra = 1182, jump @6\n      : @1075 [@dyn 591] (gas: 17)\n 33217: a1 = s1 + 0x2938\n 33221: a0 = u32 [a1 + 0x41c]\n 33225: a0 = a0 << 0x20\n 33228: a1 = u64 [a1 + 0x420]\n 33232: a2 = u64 [s1 + 0x128]\n 33236: a0 = a0 | a2\n 33239: a3 = s1 + 0x4138\n 33243: a2 = u64 [s1 + 0x130]\n 33247: a4 = a3 + 0x300\n 33251: u64 [a4 + 0x90] = a2\n 33255: a2 = u64 [s1 + 0x138]\n 33259: u64 [a4 + 0x88] = a2\n 33263: u64 [a4 + 0xa0] = a1\n 33267: u64 [a4 + 0x98] = a0\n 33271: a1 = s1 + 0x44c0\n 33275: a0 = u64 [s1 + 0x20]\n 33278: ra = 1184, jump @9\n      : @1076 [@dyn 592] (gas: 3)\n 33284: a1 = u64 [s1 + 0x28]\n 33287: a0 = a1 + 0x4\n 33290: t0 = 1186, jump @1595\n      : @1077 [@dyn 593] (gas: 8)\n 33296: a5 = a4 + 0x300\n 33300: u64 [a5 + 0xb8] = a3\n 33304: u64 [a5 + 0xb0] = a2\n 33308: u64 [a5 + 0xa8] = a0\n 33312: u64 [a5 + 0xc0] = a1\n 33316: a0 = s1 + 0x2d20\n 33320: a1 = s1 + 0x44e0\n 33324: ra = 1188, jump @6\n      : @1078 [@dyn 594] (gas: 31)\n 33330: a0 = s1 + 0x2938\n 33334: a5 = u64 [a0 + 0x400]\n 33338: a1 = a0 + 0x300\n 33342: a3 = u64 [a1 + 0xe8]\n 33346: a4 = u64 [a1 + 0xf0]\n 33350: a0 = u64 [a1 + 0xf8]\n 33354: t0 = 0x5a\n 33357: a1 = a3 mulhu t0\n 33360: a2 = a4 * t0\n 33363: a1 = a1 + a2\n 33366: u64 [s1 + 0x1b8] = a1\n 33370: a1 = a1 <u a2\n 33373: a2 = a4 mulhu t0\n 33376: a1 = a1 + a2\n 33379: a2 = a0 * t0\n 33382: a2 = a2 + a1\n 33385: u64 [s1 + 0x168] = a2\n 33389: a1 = a2 <u a1\n 33392: u64 [s1 + 0x118] = a4\n 33396: a2 = a4 | a5\n 33399: u64 [s1 + 0x140] = a3\n 33403: a3 = a3 | a0\n 33406: a4 = a3 | a2\n 33409: u64 [s1 + 0x120] = a5\n 33413: a3 = a5 * t0\n 33416: u64 [s1 + 0x110] = a0\n 33420: a2 = a0 mulhu t0\n 33423: a3 = a3 + a2\n 33426: a0 = a3 + a1\n 33429: u64 [s1 + 0x170] = a0\n 33433: jump @1081 if a4 == 0\n      : @1079 (gas: 9)\n 33436: a0 = u64 [s1 + 0x170]\n 33440: a1 = 0 if a0 != 0\n 33442: a2 = a3 <u a2\n 33445: a3 = u64 [s1 + 0x120]\n 33449: a3 = a3 mulhu t0\n 33452: a3 = a3 >u 0\n 33454: a2 = a2 | a3\n 33457: a1 = a1 | a2\n 33460: jump @1081 if a1 == 0\n      : @1080 (gas: 1)\n 33463: jump @1240\n      : @1081 (gas: 55)\n 33466: a1 = u64 [s1 + 0x140]\n 33470: t0 = a1 * 0x5a\n 33473: t1 = u64 [s1 + 0x168]\n 33477: a0 = t0 | t1\n 33480: ra = u64 [s1 + 0x1b8]\n 33484: t2 = u64 [s1 + 0x170]\n 33488: a1 = ra | t2\n 33491: a0 = a0 | a1\n 33494: a0 = a0 <u 0x1\n 33497: u64 [s1 + 0x1b0] = a0\n 33501: a0 = clz t1\n 33503: a0 = a0 + 0x40\n 33506: a2 = clz t2\n 33508: a2 = a0 if t2 == 0\n 33511: a0 = clz t0\n 33513: a0 = a0 + 0x40\n 33516: a1 = clz ra\n 33518: a1 = a0 if ra == 0\n 33521: a0 = a1 + 0x80\n 33525: a3 = t1 | t2\n 33528: a2 = a0 if a3 == 0\n 33531: a4 = a0 <u a1\n 33534: a4 = 0 if a3 != 0\n 33536: a5 = a4 >u 0\n 33538: a0 = a2 <u 0xfa\n 33542: a3 = a0 ^ 0x1\n 33545: a5 = a3 if a4 == 0\n 33548: a0 = a5 <u 0x1\n 33551: a0 = a0 + 0xffffffffffffffff\n 33554: a1 = -a5\n 33556: a4 = -a4\n 33558: a3 = a4 - a3\n 33561: a2 = 0xf9 - a2\n 33565: u64 [s1 + 0x190] = a1\n 33569: a4 = a1 >u 0\n 33571: a1 = a0 >u 0\n 33573: a1 = a4 if a0 == 0\n 33576: a4 = a3 >u 0\n 33578: u64 [s1 + 0x188] = a2\n 33582: a2 = a2 <u 0x100\n 33586: a2 = a2 ^ 0x1\n 33589: a2 = a4 if a3 != 0\n 33592: a2 = a1 if a5 != 0\n 33595: a1 = u64 [s1 + 0x1b0]\n 33599: a1 = a1 | a2\n 33602: t2 = 0 if a1 != 0\n 33604: u64 [s1 + 0x1a8] = t2\n 33608: t1 = 0 if a1 != 0\n 33610: u64 [s1 + 0x1a0] = t1\n 33614: ra = 0 if a1 != 0\n 33616: u64 [s1 + 0x198] = ra\n 33620: u64 [s1 + 0x158] = t0\n 33624: t0 = 0 if a1 != 0\n 33626: u64 [s1 + 0x1b0] = t0\n 33630: jump @1096 if a1 != 0\n      : @1082 (gas: 7)\n 33634: a1 = u64 [s1 + 0x188]\n 33638: a1 = a1 ^ 0xff\n 33642: a2 = u64 [s1 + 0x190]\n 33646: a1 = a1 | a2\n 33649: a2 = a3 | a0\n 33652: a1 = a1 | a2\n 33655: jump @1096 if a1 == 0\n      : @1083 (gas: 20)\n 33659: a4 = u64 [s1 + 0x188]\n 33663: a2 = a4 + 0x1\n 33666: u64 [s1 + 0x1b0] = a2\n 33670: a1 = a2 <u 0x1\n 33673: a1 = a1 + a3\n 33676: u64 [s1 + 0x1a8] = a1\n 33680: a1 = a1 | a2\n 33683: a1 = a1 <u 0x1\n 33686: a2 = u64 [s1 + 0x190]\n 33690: a1 = a1 + a2\n 33693: u64 [s1 + 0x198] = a1\n 33697: a1 = a1 <u a2\n 33700: a0 = a0 + a1\n 33703: u64 [s1 + 0x1a0] = a0\n 33707: a1 = 0xff - a4\n 33711: u64 [s1 + 0x190] = a1\n 33715: a2 = 0x80 - a1\n 33719: a0 = u64 [s1 + 0x158]\n 33723: a1 = u64 [s1 + 0x1b8]\n 33727: ra = 1190, jump @1634\n      : @1084 [@dyn 595] (gas: 6)\n 33733: u64 [s1 + 0x188] = a0\n 33737: u64 [s1 + 0x180] = a1\n 33741: a0 = u64 [s1 + 0x168]\n 33745: a1 = u64 [s1 + 0x170]\n 33749: a2 = u64 [s1 + 0x190]\n 33753: ra = 1192, jump @1639\n      : @1085 [@dyn 596] (gas: 9)\n 33759: u64 [s1 + 0x178] = a0\n 33763: a0 = u64 [s1 + 0x180]\n 33767: a0 = a0 | a1\n 33770: u64 [s1 + 0x180] = a0\n 33774: a0 = u64 [s1 + 0x190]\n 33778: a2 = a0 + 0xffffffffffffff80\n 33781: a0 = u64 [s1 + 0x158]\n 33785: a1 = u64 [s1 + 0x1b8]\n 33789: ra = 1194, jump @1639\n      : @1086 [@dyn 597] (gas: 18)\n 33795: a2 = u64 [s1 + 0x190]\n 33799: a3 = a2 <u 0x80\n 33803: u64 [s1 + 0x160] = a3\n 33807: a4 = u64 [s1 + 0x180]\n 33811: a1 = a4 if a3 != 0\n 33814: a4 = u64 [s1 + 0x170]\n 33818: a1 = a4 if a2 == 0\n 33821: u64 [s1 + 0x180] = a1\n 33825: a1 = u64 [s1 + 0x188]\n 33829: a4 = u64 [s1 + 0x178]\n 33833: a1 = a1 | a4\n 33836: a1 = a0 if a3 == 0\n 33839: a0 = u64 [s1 + 0x168]\n 33843: a1 = a0 if a2 == 0\n 33846: u64 [s1 + 0x188] = a1\n 33850: a0 = u64 [s1 + 0x158]\n 33854: a1 = u64 [s1 + 0x1b8]\n 33858: ra = 1196, jump @1639\n      : @1087 [@dyn 598] (gas: 14)\n 33864: a5 = s1 + 0x100\n 33868: a2 = u64 [a5 + 0xa8]\n 33872: a3 = u64 [a5 + 0xa0]\n 33876: a2 = a2 | a3\n 33879: a3 = u64 [a5 + 0xb0]\n 33883: a4 = u64 [a5 + 0x98]\n 33887: a3 = a3 | a4\n 33890: a2 = a2 | a3\n 33893: a3 = u64 [a5 + 0x60]\n 33896: a1 = 0 if a3 == 0\n 33898: u64 [a5 + 0x78] = a1\n 33901: a0 = 0 if a3 == 0\n 33903: u64 [a5 + 0x90] = a0\n 33907: jump @1089 if a2 != 0\n      : @1088 (gas: 3)\n 33910: u64 [s1 + 368] = 0\n 33914: u64 [s1 + 344] = 0\n 33918: jump @1095\n      : @1089 (gas: 5)\n 33921: a0 = u64 [s1 + 0x1b0]\n 33925: a2 = a0 + 0xffffffffffffff80\n 33928: a0 = u64 [s1 + 0x168]\n 33932: a1 = u64 [s1 + 0x170]\n 33936: ra = 1198, jump @1634\n      : @1090 [@dyn 599] (gas: 6)\n 33942: u64 [s1 + 0x160] = a0\n 33946: u64 [s1 + 0x148] = a1\n 33950: a0 = u64 [s1 + 0x158]\n 33954: a1 = u64 [s1 + 0x1b8]\n 33958: a2 = u64 [s1 + 0x1b0]\n 33962: ra = 1200, jump @1634\n      : @1091 [@dyn 600] (gas: 7)\n 33968: u64 [s1 + 0x108] = a0\n 33972: u64 [s1 + 0x150] = a1\n 33976: a1 = u64 [s1 + 0x1b0]\n 33980: a2 = 0x80 - a1\n 33984: a0 = u64 [s1 + 0x168]\n 33988: a1 = u64 [s1 + 0x170]\n 33992: ra = 1202, jump @1639\n      : @1092 [@dyn 601] (gas: 20)\n 33998: a2 = u64 [s1 + 0x150]\n 34002: a1 = a1 | a2\n 34005: a2 = u64 [s1 + 0x1b0]\n 34009: a4 = a2 <u 0x80\n 34013: u64 [s1 + 0x150] = a4\n 34017: a3 = u64 [s1 + 0x148]\n 34021: a1 = a3 if a4 == 0\n 34024: a3 = u64 [s1 + 0x1b8]\n 34028: a3 = a1 if a2 != 0\n 34031: u64 [s1 + 0x1b8] = a3\n 34035: a1 = u64 [s1 + 0x108]\n 34039: a0 = a0 | a1\n 34042: a1 = u64 [s1 + 0x160]\n 34046: a0 = a1 if a4 == 0\n 34049: a1 = u64 [s1 + 0x158]\n 34053: a1 = a0 if a2 != 0\n 34056: u64 [s1 + 0x158] = a1\n 34060: a0 = u64 [s1 + 0x168]\n 34064: a1 = u64 [s1 + 0x170]\n 34068: ra = 1204, jump @1634\n      : @1093 [@dyn 602] (gas: 11)\n 34074: t0 = u64 [s1 + 0x158]\n 34078: u64 [s1 + 368] = 0\n 34082: u64 [s1 + 352] = 0\n 34086: a3 = s1 + 0x100\n 34090: a2 = u64 [a3 + 0x50]\n 34093: a1 = 0 if a2 == 0\n 34095: u64 [a3 + 0x68] = a1\n 34098: a0 = 0 if a2 == 0\n 34100: u64 [a3 + 80] = 0x63\n 34104: u64 [a3 + 72] = 0\n 34107: fallthrough\n      : @1094 (gas: 90)\n 34108: u64 [s1 + 344] = 0\n 34112: a2 = t0 >> 0x3f\n 34115: ra = u64 [s1 + 0x1b8]\n 34119: a3 = ra << 0x1\n 34122: a3 = a3 | a2\n 34125: a2 = t0 << 0x1\n 34128: a1 = u64 [s1 + 0x180]\n 34132: a4 = a1 >> 0x3f\n 34135: t2 = a2 | a4\n 34138: a2 = u64 [s1 + 0x148]\n 34142: a4 = a2 ^ a3\n 34145: t1 = a2 <u a3\n 34148: a5 = u64 [s1 + 0x150]\n 34152: t0 = a5 <u t2\n 34155: t0 = t1 if a4 != 0\n 34158: a5 = u64 [s1 + 0x168]\n 34162: a5 = a5 << 0x1\n 34165: a4 = a0 >> 0x3f\n 34168: a4 = a4 | a5\n 34171: u64 [s1 + 0x168] = a4\n 34175: a4 = ra >> 0x3f\n 34178: a0 = a0 << 0x1\n 34181: a4 = a4 | a0\n 34184: a0 = a1 << 0x1\n 34187: a1 = u64 [s1 + 0x188]\n 34191: a5 = a1 >> 0x3f\n 34194: a0 = a0 | a5\n 34197: u64 [s1 + 0x1b8] = a0\n 34201: a5 = a1 << 0x1\n 34204: a0 = u64 [s1 + 0x178]\n 34208: a1 = a0 >> 0x3f\n 34211: t1 = a5 | a1\n 34214: a5 = a0 << 0x1\n 34217: a0 = u64 [s1 + 0x190]\n 34221: ra = a0 >> 0x3f\n 34224: a5 = a5 | ra\n 34227: a0 = a0 << 0x1\n 34230: a1 = u64 [s1 + 0x170]\n 34234: a0 = a0 | a1\n 34237: u64 [s1 + 0x190] = a0\n 34241: a1 = u64 [s1 + 0x160]\n 34245: a0 = a1 | a5\n 34248: u64 [s1 + 0x178] = a0\n 34252: a0 = a1 | t1\n 34255: u64 [s1 + 0x188] = a0\n 34259: a0 = u64 [s1 + 0x1b8]\n 34263: a0 = a0 | a1\n 34266: u64 [s1 + 0x180] = a0\n 34270: a0 = a2 - a4\n 34273: a0 = a0 <u t0\n 34276: a1 = a2 <u a4\n 34279: t1 = u64 [s1 + 0x168]\n 34283: a5 = a2 - t1\n 34286: a5 = a5 - a1\n 34289: a5 = a5 - a0\n 34292: ra = a5 >>a 0x3f\n 34295: a0 = ra & 0x64\n 34298: t0 = t2 - a0\n 34301: a1 = t2 <u a0\n 34304: a0 = a3 - a1\n 34307: u64 [s1 + 0x1b8] = a0\n 34311: a1 = 0 if a3 != 0\n 34313: a0 = a4 - a1\n 34316: a1 = a4 <u a1\n 34319: a1 = t1 - a1\n 34322: u64 [s1 + 0x168] = a1\n 34326: a1 = s1 + 0x100\n 34330: a3 = u64 [a1 + 0xb0]\n 34334: a5 = u64 [a1 + 0xa8]\n 34338: a2 = a3 | a5\n 34341: a2 = a2 <u 0x1\n 34344: a4 = u64 [a1 + 0x98]\n 34348: t2 = a4 <u a2\n 34351: a4 = a4 - a2\n 34354: a2 = a3 <u 0x1\n 34357: a5 = a5 - a2\n 34360: a2 = u64 [a1 + 0xa0]\n 34364: a2 = a2 - t2\n 34367: a3 = a3 + 0xffffffffffffffff\n 34370: u64 [a1 + 0xa8] = a5\n 34374: u64 [a1 + 0xa0] = a2\n 34378: a2 = a2 | a5\n 34381: u64 [a1 + 0xb0] = a3\n 34385: a3 = a3 | a4\n 34388: a2 = a2 | a3\n 34391: a3 = ra & 0x1\n 34394: u64 [a1 + 0x70] = a3\n 34397: u64 [a1 + 0x98] = a4\n 34401: u64 [s1 + 352] = 0\n 34405: jump @1094 if a2 != 0\n      : @1095 (gas: 26)\n 34409: a2 = u64 [s1 + 0x188]\n 34413: a0 = a2 >> 0x3f\n 34416: a1 = u64 [s1 + 0x180]\n 34420: a1 = a1 << 0x1\n 34423: a0 = a0 | a1\n 34426: a3 = u64 [s1 + 0x178]\n 34430: a1 = a3 >> 0x3f\n 34433: a2 = a2 << 0x1\n 34436: a1 = a1 | a2\n 34439: a4 = u64 [s1 + 0x190]\n 34443: a2 = a4 >> 0x3f\n 34446: a3 = a3 << 0x1\n 34449: a4 = a4 << 0x1\n 34452: a5 = u64 [s1 + 0x170]\n 34456: a4 = a4 | a5\n 34459: a5 = s1 + 0x100\n 34463: u64 [a5 + 0xb0] = a4\n 34467: a4 = u64 [a5 + 0x58]\n 34470: a2 = a2 | a4\n 34473: a2 = a2 | a3\n 34476: u64 [a5 + 0x98] = a2\n 34480: a1 = a1 | a4\n 34483: u64 [a5 + 0xa0] = a1\n 34487: a0 = a0 | a4\n 34490: u64 [a5 + 0xa8] = a0\n 34494: fallthrough\n      : @1096 (gas: 55)\n 34495: a1 = sp + 0xffffffffffffffe0\n 34498: a1 = a1 & 0xffffffffffffffe0\n 34501: sp = a1\n 34503: a0 = u64 [s1 + 0x140]\n 34507: a2 = u64 [s1 + 0x1b0]\n 34511: t1 = a0 <u a2\n 34514: ra = u64 [s1 + 0x118]\n 34518: a0 = u64 [s1 + 0x198]\n 34522: a2 = ra ^ a0\n 34525: a3 = ra <u a0\n 34528: a3 = t1 if a2 == 0\n 34531: a2 = u64 [s1 + 0x120]\n 34535: a4 = u64 [s1 + 0x1a8]\n 34539: t2 = a2 - a4\n 34542: a5 = u64 [s1 + 0x110]\n 34546: a2 = u64 [s1 + 0x1a0]\n 34550: a4 = a5 <u a2\n 34553: t2 = t2 - a4\n 34556: a4 = a5 - a2\n 34559: a5 = a4 <u a3\n 34562: t2 = t2 - a5\n 34565: t0 = a4 - a3\n 34568: a2 = ra - a0\n 34571: t1 = a2 - t1\n 34574: a2 = u64 [s1 + 0x28]\n 34577: a0 = a2 + 0x5\n 34580: a2 = a0 <u a2\n 34583: a4 = u64 [s1 + 0x30]\n 34586: a3 = a4 + a2\n 34589: a4 = a3 <u a4\n 34592: a4 = a2 if a2 == 0\n 34595: a2 = u64 [s1 + 0x38]\n 34598: a4 = a4 + a2\n 34601: a2 = a4 <u a2\n 34604: a5 = u64 [s1 + 0x40]\n 34607: a2 = a2 + a5\n 34610: a5 = s1 + 0x4138\n 34614: u64 [a5 + 0x3d0] = a3\n 34618: a3 = a5 + 0x300\n 34622: u64 [a3 + 0xc8] = a0\n 34626: u64 [a3 + 0xd8] = a4\n 34630: u64 [a3 + 0xe0] = a2\n 34634: a0 = u64 [s1 + 0x140]\n 34638: a2 = u64 [s1 + 0x1b0]\n 34642: a0 = a0 - a2\n 34645: u64 [s1 + 0x170] = t0\n 34649: u64 [a1 + 0x10] = t0\n 34652: u64 [s1 + 0x168] = t1\n 34656: u64 [a1 + 0x8] = t1\n 34659: u64 [s1 + 0x160] = a0\n 34663: u64 [a1] = a0\n 34665: u64 [s1 + 0x178] = t2\n 34669: u64 [a1 + 0x18] = t2\n 34672: a0 = s1 + 0x4500\n 34676: ra = 1206, jump @9\n      : @1097 [@dyn 603] (gas: 12)\n 34683: a2 = s1 + 0x2938\n 34687: u64 [a2 + 928] = 0\n 34691: a0 = u64 [s1 + 0x128]\n 34695: a3 = a2 + 0x300\n 34699: u64 [a3 + 0x98] = a0\n 34703: a0 = u64 [s1 + 0x130]\n 34707: u64 [a3 + 0x90] = a0\n 34711: a1 = s1 + 0x2cc0\n 34715: a0 = u64 [s1 + 0x138]\n 34719: u64 [a3 + 0x88] = a0\n 34723: a0 = 0\n 34725: ra = 1208, jump @4\n      : @1098 [@dyn 604] (gas: 2)\n 34732: a0 = 0x2938\n 34736: t0 = 1210, jump @1615\n      : @1099 [@dyn 605] (gas: 4)\n 34742: i32 a1 = a1 + 0xfffffffffffffca0\n 34746: a1 = a1 + s1\n 34749: u64 [a2 + 880] = 0\n 34753: ra = 1212, jump @4\n      : @1100 [@dyn 606] (gas: 1)\n 34760: t0 = 1214, jump @1620\n      : @1101 [@dyn 607] (gas: 3)\n 34766: a0 = u64 [s1 + 0x100]\n 34770: a0 = i32 [a0]\n 34772: jump @1103 if a0 >u 63\n      : @1102 (gas: 4)\n 34776: a1 = u64 [s1 + 0x100]\n 34780: u32 [a1 + 0] = 0x40\n 34783: t0 = 0x4c0\n 34787: jump @1628\n      : @1103 (gas: 1)\n 34790: t0 = 1216, jump @1628\n      : @1104 [@dyn 608] (gas: 6)\n 34796: a0 = u64 [s1 + 0xf8]\n 34800: ra = 0x4c2\n 34804: ecalli 7 // 'hash_keccak_256'\n 34806: a3 = u64 [s1 + 0x190]\n 34810: t0 = 0x4c4\n 34814: jump @1617\n      : @1105 [@dyn 609] (gas: 2)\n 34817: a3 = u64 [s1 + 0x190]\n 34821: t0 = 1220, jump @1617\n      : @1106 [@dyn 610] (gas: 7)\n 34827: a1 = u64 [s1 + 0x1b8]\n 34831: u64 [a1 + 0x18] = a3\n 34834: u64 [a1 + 0x10] = a2\n 34837: u64 [a1 + 0x8] = a4\n 34840: u64 [a1] = a0\n 34842: a0 = s1 + 0x2c80\n 34846: ra = 1222, jump @6\n      : @1107 [@dyn 611] (gas: 22)\n 34853: a5 = s1 + 0x2938\n 34857: a3 = u64 [a5 + 0x348]\n 34861: a0 = u64 [a5 + 0x350]\n 34865: a1 = u64 [a5 + 0x358]\n 34869: a2 = u64 [a5 + 0x360]\n 34873: a4 = u64 [s1 + 0x1a8]\n 34877: u64 [a5 + 0x300] = a4\n 34881: a4 = u64 [s1 + 0x1a0]\n 34885: u64 [a5 + 0x2f8] = a4\n 34889: a4 = u64 [s1 + 0x198]\n 34893: u64 [a5 + 0x2f0] = a4\n 34897: a4 = u64 [s1 + 0x1b0]\n 34901: u64 [a5 + 0x2e8] = a4\n 34905: a4 = a5 + 0x300\n 34909: u64 [a4 + 0x20] = a2\n 34912: u64 [a4 + 0x18] = a1\n 34915: u64 [a4 + 0x10] = a0\n 34918: a0 = s1 + 0x2c60\n 34922: a1 = s1 + 0x2c40\n 34926: a2 = s1 + 0x2c20\n 34930: u64 [a4 + 0x8] = a3\n 34933: ra = 1224, jump @1380\n      : @1108 [@dyn 612] (gas: 15)\n 34939: a3 = s1 + 0x2938\n 34943: a4 = a3 + 0x300\n 34947: a0 = u64 [a4 + 0x40]\n 34950: a1 = u64 [a4 + 0x38]\n 34953: a2 = u64 [a4 + 0x30]\n 34956: a3 = u64 [a4 + 0x28]\n 34959: a4 = s1 + 0x4138\n 34963: u64 [a4 + 0x400] = a0\n 34967: a0 = a4 + 0x300\n 34971: u64 [a0 + 0xf8] = a1\n 34975: u64 [a0 + 0xf0] = a2\n 34979: u64 [a0 + 0xe8] = a3\n 34983: a1 = s1 + 0x4520\n 34987: a0 = u64 [s1 + 0x1b8]\n 34991: ra = 1226, jump @9\n      : @1109 [@dyn 613] (gas: 3)\n 34998: a0 = s1 + 0x2c00\n 35002: a1 = 0x40\n 35005: ra = 1228, jump @2\n      : @1110 [@dyn 614] (gas: 3)\n 35012: t0 = 0x4ce\n 35016: a1 = s1 + 0x2938\n 35020: fallthrough\n      : @1111 [@dyn 615] (gas: 18)\n 35021: a4 = a1 + 0x200\n 35025: a2 = u64 [a4 + 0xe0]\n 35029: a3 = u64 [a4 + 0xd8]\n 35033: a0 = u64 [a4 + 0xd0]\n 35037: a1 = u64 [a4 + 0xc8]\n 35041: a4 = s1 + 0x100\n 35045: u64 [a4 + 0x90] = a0\n 35049: u64 [a4 + 0x88] = a2\n 35053: a0 = a0 | a2\n 35056: u64 [a4 + 0xb8] = a1\n 35060: a1 = a1 | a3\n 35063: a1 = a1 | a0\n 35066: a1 = a1 >> 0x20\n 35069: u64 [a4 + 0x80] = a3\n 35073: a0 = a0 | a3\n 35076: a0 = a0 << 0x20\n 35079: a0 = a0 | a1\n 35082: jump @1113 if a0 == 0\n      : @1112 (gas: 1)\n 35085: jump @993\n      : @1113 (gas: 13)\n 35088: a0 = s1 + 0x2938\n 35092: a1 = u64 [s1 + 0x1b0]\n 35096: a3 = a0 + 0x200\n 35100: u64 [a3 + 0xa8] = a1\n 35104: a1 = u64 [s1 + 0x198]\n 35108: u64 [a3 + 0xb0] = a1\n 35112: a1 = u64 [s1 + 0x1a0]\n 35116: u64 [a3 + 0xb8] = a1\n 35120: a1 = s1 + 0x2be0\n 35124: a2 = u64 [s1 + 0x1a8]\n 35128: u64 [a3 + 0xc0] = a2\n 35132: a0 = u64 [s1 + 0x1b8]\n 35136: ra = 1232, jump @4\n      : @1114 [@dyn 616] (gas: 11)\n 35143: a3 = s1 + 0x100\n 35147: a0 = u64 [a3 + 0x88]\n 35151: a1 = u64 [a3 + 0x80]\n 35155: a0 = a0 | a1\n 35158: a1 = 0xffffffe0\n 35168: a2 = u64 [a3 + 0xb8]\n 35172: a1 = a2 <u a1\n 35175: a2 = u64 [a3 + 0x90]\n 35179: a1 = 0 if a2 != 0\n 35181: a1 = 0 if a0 != 0\n 35183: jump @1116 if a1 != 0\n      : @1115 (gas: 1)\n 35186: jump @993\n      : @1116 (gas: 14)\n 35189: a0 = u64 [s1 + 0x1b8]\n 35193: i32 a0 = a0 + 0x20\n 35196: a3 = s1 + 0x2938\n 35200: a1 = u64 [s1 + 0x160]\n 35204: a4 = a3 + 0x200\n 35208: u64 [a4 + 0x88] = a1\n 35212: a1 = u64 [s1 + 0x168]\n 35216: u64 [a4 + 0x90] = a1\n 35220: a1 = u64 [s1 + 0x170]\n 35224: u64 [a4 + 0x98] = a1\n 35228: a1 = s1 + 0x2bc0\n 35232: a2 = u64 [s1 + 0x178]\n 35236: u64 [a4 + 0xa0] = a2\n 35240: ra = 1234, jump @4\n      : @1117 [@dyn 617] (gas: 32)\n 35247: a4 = s1 + 0x2938\n 35251: u64 [a4 + 576] = 0\n 35255: a0 = u64 [s1 + 0x128]\n 35259: a5 = a4 + 0x200\n 35263: u64 [a5 + 0x38] = a0\n 35266: a0 = u64 [s1 + 0x130]\n 35270: u64 [a5 + 0x30] = a0\n 35273: a0 = u64 [s1 + 0x88]\n 35277: u64 [a5 + 0x60] = a0\n 35280: a0 = u64 [s1 + 0x90]\n 35284: u64 [a5 + 0x58] = a0\n 35287: a0 = u64 [s1 + 0x98]\n 35291: u64 [a5 + 0x50] = a0\n 35294: a0 = u64 [s1 + 0xa0]\n 35298: u64 [a5 + 0x48] = a0\n 35301: a0 = u64 [0x20038]\n 35306: a1 = u64 [0x20040]\n 35311: a2 = u64 [0x20048]\n 35316: a3 = u64 [0x20050]\n 35321: u64 [a5 + 0x80] = a0\n 35325: u64 [a5 + 0x78] = a1\n 35328: u64 [a5 + 0x70] = a2\n 35331: u64 [a5 + 0x68] = a3\n 35334: a5 = a4\n 35336: a1 = 0x40\n 35339: a2 = s1 + 0x2ba0\n 35343: a3 = s1 + 0x2b80\n 35347: a4 = s1 + 0x2b60\n 35351: a0 = u64 [s1 + 0x138]\n 35355: u64 [a5 + 0x228] = a0\n 35359: a0 = u64 [s1 + 0x1b8]\n 35363: ra = 1236, jump @12\n      : @1118 [@dyn 618] (gas: 3)\n 35370: a0 = s1 + 0x2b40\n 35374: a1 = 0x40\n 35377: ra = 1238, jump @2\n      : @1119 [@dyn 619] (gas: 7)\n 35384: a3 = s1 + 0x2938\n 35388: a5 = a3 + 0x200\n 35392: a0 = u64 [a5 + 0x20]\n 35395: a1 = u64 [a5 + 0x18]\n 35398: a2 = u64 [a5 + 0x10]\n 35401: a4 = u64 [a5 + 0x8]\n 35404: t0 = 1240, jump @1577\n      : @1120 [@dyn 620] (gas: 1)\n 35410: jump @1122 if a0 == 0\n      : @1121 (gas: 1)\n 35413: jump @993\n      : @1122 (gas: 15)\n 35416: a3 = a4\n 35418: a2 = s1 + 0x2938\n 35422: a0 = u64 [s1 + 0x1b0]\n 35426: a1 = a2 + 0x100\n 35430: u64 [a1 + 0xe8] = a0\n 35434: a0 = u64 [s1 + 0x198]\n 35438: u64 [a1 + 0xf0] = a0\n 35442: a0 = u64 [s1 + 0x1a0]\n 35446: u64 [a1 + 0xf8] = a0\n 35450: a1 = s1 + 0x2b20\n 35454: a0 = u64 [s1 + 0x1a8]\n 35458: u64 [a2 + 0x200] = a0\n 35462: a0 = a4\n 35464: u64 [s1 + 0x1b8] = a3\n 35468: ra = 1242, jump @4\n      : @1123 [@dyn 621] (gas: 23)\n 35475: a5 = s1 + 0x100\n 35479: a0 = u64 [a5 + 0x28]\n 35482: a4 = s1 + 0x2938\n 35486: u64 [a4 + 0x1b8] = a0\n 35490: a0 = u64 [a5 + 0x30]\n 35493: u64 [a4 + 0x1b0] = a0\n 35497: a0 = u64 [a5 + 0x38]\n 35500: u64 [a4 + 0x1a8] = a0\n 35504: a0 = u64 [0x20058]\n 35509: a1 = u64 [0x20060]\n 35514: a2 = u64 [0x20068]\n 35519: a3 = u64 [0x20070]\n 35524: u64 [a4 + 0x1e0] = a0\n 35528: a0 = a4 + 0x100\n 35532: u64 [a0 + 0xd8] = a1\n 35536: u64 [a0 + 0xd0] = a2\n 35540: u64 [a0 + 0xc8] = a3\n 35544: a1 = 0x20\n 35547: a2 = s1 + 0x2b00\n 35551: a3 = s1 + 0x2ae0\n 35555: u64 [a4 + 448] = 0\n 35559: a0 = u64 [a5 + 0xb8]\n 35563: ra = 1244, jump @10\n      : @1124 [@dyn 622] (gas: 3)\n 35570: a0 = s1 + 0x2ac0\n 35574: a1 = u64 [s1 + 0x18]\n 35577: ra = 1246, jump @6\n      : @1125 [@dyn 623] (gas: 2)\n 35584: a0 = 0x3000\n 35588: t0 = 1248, jump @1629\n      : @1126 [@dyn 624] (gas: 15)\n 35594: a0 = u64 [a4 + 0x88]\n 35598: a1 = u64 [a4 + 0x90]\n 35602: a2 = u64 [a4 + 0xa0]\n 35606: a3 = u64 [a4 + 0x98]\n 35610: a0 = a0 & 0xffffffffffffff00\n 35614: a0 = a0 | 0x1\n 35617: a4 = s1 + 0x4138\n 35621: a5 = a4 + 0x400\n 35625: u64 [a5 + 0x20] = a2\n 35628: u64 [a5 + 0x18] = a3\n 35631: u64 [a5 + 0x10] = a1\n 35634: u64 [a5 + 0x8] = a0\n 35637: a1 = s1 + 0x4540\n 35641: a0 = u64 [s1 + 0x18]\n 35644: ra = 1250, jump @9\n      : @1127 [@dyn 625] (gas: 6)\n 35651: a0 = 0\n 35653: a1 = u64 [s1 + 0xf8]\n 35657: a2 = 0\n 35659: ecalli 12 // 'seal_return'\n 35661: a1 = 0x201a0\n 35666: jump @1175\n      : @1128 (gas: 4)\n 35669: a1 = 0x201a0\n 35674: i32 a1 = a1 + 0\n 35676: a0 = 0x1\n 35679: jump @1176\n      : @1129 (gas: 4)\n 35682: a1 = 0x201a0\n 35687: i32 a1 = a1 + 0\n 35689: a0 = 0x1\n 35692: jump @1176\n      : @1130 (gas: 4)\n 35695: a1 = 0x201a0\n 35700: i32 a1 = a1 + 0\n 35702: a0 = 0x1\n 35705: jump @1176\n      : @1131 (gas: 4)\n 35708: a1 = 0x201a0\n 35713: i32 a1 = a1 + 0\n 35715: a0 = 0x1\n 35718: jump @1176\n      : @1132 (gas: 4)\n 35721: a1 = 0x201a0\n 35726: i32 a1 = a1 + 0\n 35728: a0 = 0x1\n 35731: jump @1176\n      : @1133 (gas: 4)\n 35734: a1 = 0x201a0\n 35739: i32 a1 = a1 + 0\n 35741: a0 = 0x1\n 35744: jump @1176\n      : @1134 (gas: 4)\n 35747: a1 = 0x201a0\n 35752: i32 a1 = a1 + 0\n 35754: a0 = 0x1\n 35757: jump @1176\n      : @1135 (gas: 4)\n 35760: a1 = 0x201a0\n 35765: i32 a1 = a1 + 0\n 35767: a0 = 0x1\n 35770: jump @1176\n      : @1136 (gas: 4)\n 35773: a1 = 0x201a0\n 35778: i32 a1 = a1 + 0\n 35780: a0 = 0x1\n 35783: jump @1176\n      : @1137 (gas: 4)\n 35786: a1 = 0x201a0\n 35791: i32 a1 = a1 + 0\n 35793: a0 = 0x1\n 35796: jump @1176\n      : @1138 (gas: 9)\n 35799: u64 [s1 + 0x178] = a5\n 35803: u64 [s1 + 0x180] = a4\n 35807: u64 [s1 + 0x188] = a3\n 35811: u64 [s1 + 0x1b0] = a2\n 35815: a0 = u64 [s1 + 0x1a0]\n 35819: ra = 0x4e4\n 35823: ecalli 4 // 'caller'\n 35825: t0 = 0x4e6\n 35829: jump @1582\n      : @1139 [@dyn 626] (gas: 1)\n 35832: t0 = 1254, jump @1582\n      : @1140 [@dyn 627] (gas: 9)\n 35838: u64 [a2 + 424] = 0\n 35842: a4 = a2 + 0x100\n 35846: u64 [a4 + 0xa0] = a1\n 35850: u64 [a4 + 0x98] = a0\n 35854: a1 = s1 + 0x7ff\n 35858: a1 = a1 + 0x2c1\n 35862: u64 [a4 + 0x90] = a3\n 35866: a0 = 0\n 35868: ra = 1256, jump @4\n      : @1141 [@dyn 628] (gas: 11)\n 35875: a1 = s1 + 0x7ff\n 35879: a1 = a1 + 0x131\n 35883: u64 [a1 + 392] = 0\n 35887: u64 [a1 + 384] = 0\n 35891: u64 [a1 + 368] = 0x5\n 35896: a2 = a1\n 35898: a0 = 0x20\n 35901: a1 = s1 + 0x7ff\n 35905: a1 = a1 + 0x2a1\n 35909: u64 [a2 + 376] = 0\n 35913: ra = 1258, jump @4\n      : @1142 [@dyn 629] (gas: 3)\n 35920: a0 = u64 [s1 + 0x190]\n 35924: a0 = i32 [a0]\n 35926: jump @1144 if a0 >u 63\n      : @1143 (gas: 4)\n 35930: a1 = u64 [s1 + 0x190]\n 35934: u32 [a1 + 0] = 0x40\n 35937: t0 = 0x4ec\n 35941: jump @1628\n      : @1144 (gas: 1)\n 35944: t0 = 1260, jump @1628\n      : @1145 [@dyn 630] (gas: 6)\n 35950: a0 = u64 [s1 + 0x1a8]\n 35954: ra = 0x4ee\n 35958: ecalli 7 // 'hash_keccak_256'\n 35960: a3 = u64 [s1 + 0x190]\n 35964: t0 = 0x4f0\n 35968: jump @1574\n      : @1146 [@dyn 631] (gas: 2)\n 35971: a3 = u64 [s1 + 0x190]\n 35975: t0 = 1264, jump @1574\n      : @1147 [@dyn 632] (gas: 11)\n 35981: u64 [a4 + 0x80] = a3\n 35985: u64 [a4 + 0x78] = a2\n 35988: u64 [a4 + 0x70] = a1\n 35991: u64 [a4 + 0x68] = a0\n 35994: u64 [a4 + 160] = 0\n 35998: u64 [a4 + 152] = 0\n 36002: u64 [a4 + 144] = 0\n 36006: u64 [a4 + 136] = 0\n 36010: a0 = s1 + 0x39a0\n 36014: a1 = s1 + 0x39c0\n 36018: ra = 1266, jump @9\n      : @1148 [@dyn 633] (gas: 58)\n 36025: a0 = u64 [s1 + 0x1a0]\n 36029: ecalli 4 // 'caller'\n 36031: a1 = u64 [s1 + 0x1b8]\n 36035: a0 = i32 [a1 + 0x10]\n 36038: u64 [s1 + 0x1a0] = a0\n 36042: a0 = u64 [a1]\n 36044: u64 [s1 + 0x190] = a0\n 36048: a0 = u64 [a1 + 0x8]\n 36051: u64 [s1 + 0x170] = a0\n 36055: ecalli 9 // 'ref_time_left'\n 36057: a1 = u64 [s1 + 0x1b8]\n 36061: a2 = u64 [s1 + 0x170]\n 36065: u64 [a1 + 0x8] = a2\n 36068: a2 = u64 [s1 + 0x190]\n 36072: u64 [a1] = a2\n 36074: a2 = u64 [s1 + 0x1a0]\n 36078: u32 [a1 + 0x10] = a2\n 36081: a3 = a1\n 36083: a1 = u64 [s1 + 0x178]\n 36087: a2 = s1 + 0x3938\n 36091: u64 [a2 + 0xc0] = a1\n 36095: a1 = u64 [s1 + 0x180]\n 36099: u64 [a2 + 0xb8] = a1\n 36103: a1 = u64 [s1 + 0x188]\n 36107: u64 [a2 + 0xb0] = a1\n 36111: a1 = u64 [s1 + 0x1b0]\n 36115: u64 [a2 + 0xa8] = a1\n 36119: a0 = a0 >u 0x8fc\n 36123: a1 = -a0\n 36125: u64 [a2 + 0x100] = a1\n 36129: u64 [a2 + 0xf8] = a1\n 36133: u64 [a2 + 0xf0] = a1\n 36137: u64 [a2 + 0xe8] = a1\n 36141: u32 [a2 + 200] = 0\n 36145: a1 = a3 << 0x20\n 36148: a1 = a1 >> 0x20\n 36151: a0 = a0 << 0x23\n 36154: a0 = a0 | a1\n 36157: a1 = s1 + 0x39e0\n 36161: a1 = a1 << 0x20\n 36164: a1 = a1 >> 0x20\n 36167: a2 = s1 + 0x3a20\n 36171: a2 = a2 << 0x20\n 36174: a3 = a2 | a1\n 36177: a4 = u64 [s1 + 0x198]\n 36181: a4 = a4 << 0x20\n 36184: a4 = a4 >> 0x20\n 36187: a1 = s1 + 0x3a00\n 36191: a1 = a1 << 0x20\n 36194: a5 = a1 | a4\n 36197: a1 = 0xffffffffffffffff\n 36200: a2 = 0xffffffffffffffff\n 36203: ecalli 0 // 'call'\n 36204: a0 = a0 <u 0x1\n 36207: u64 [s1 + 0x1b8] = a0\n 36211: a0 = s1 + 0x7ff\n 36215: a0 = a0 + 0x281\n 36219: ra = 1268, jump @1388\n      : @1149 [@dyn 634] (gas: 12)\n 36225: a1 = s1 + 0x7ff\n 36229: a1 = a1 + 0x131\n 36233: u64 [a1 + 328] = 0\n 36237: u64 [a1 + 320] = 0\n 36241: a0 = u64 [s1 + 0x1b8]\n 36245: u64 [a1 + 0x130] = a0\n 36249: a0 = s1 + 0x7ff\n 36253: a0 = a0 + 0x261\n 36257: u64 [a1 + 312] = 0\n 36261: ra = 0x4f6\n 36265: t0 = 0x5f2\n 36269: jump @1586\n      : @1150 [@dyn 635] (gas: 6)\n 36272: a0 = 0\n 36274: a1 = u64 [s1 + 0x1a8]\n 36278: a2 = 0\n 36280: ecalli 12 // 'seal_return'\n 36282: a1 = 0x201a0\n 36287: jump @1175\n      : @1151 (gas: 4)\n 36290: a1 = 0x201a0\n 36295: i32 a1 = a1 + 0\n 36297: a0 = 0x1\n 36300: jump @1176\n      : @1152 (gas: 4)\n 36303: a1 = 0x201a0\n 36308: i32 a1 = a1 + 0\n 36310: a0 = 0x1\n 36313: jump @1176\n      : @1153 (gas: 6)\n 36316: a0 = 0x1\n 36319: a1 = u64 [s1 + 0x170]\n 36323: a2 = 0\n 36325: ecalli 12 // 'seal_return'\n 36327: a1 = 0x201a0\n 36332: jump @1175\n      : @1154 (gas: 4)\n 36335: a1 = 0x201a0\n 36340: i32 a1 = a1 + 0\n 36342: a0 = 0x1\n 36345: jump @1176\n      : @1155 (gas: 4)\n 36348: a1 = 0x201a0\n 36353: i32 a1 = a1 + 0\n 36355: a0 = 0x1\n 36358: jump @1176\n      : @1156 (gas: 4)\n 36361: a1 = 0x201a0\n 36366: i32 a1 = a1 + 0\n 36368: a0 = 0x1\n 36371: jump @1176\n      : @1157 (gas: 4)\n 36374: a1 = 0x201a0\n 36379: i32 a1 = a1 + 0\n 36381: a0 = 0x1\n 36384: jump @1176\n      : @1158 (gas: 4)\n 36387: a1 = 0x201a0\n 36392: i32 a1 = a1 + 0\n 36394: a0 = 0x1\n 36397: jump @1176\n      : @1159 (gas: 4)\n 36400: a1 = 0x201a0\n 36405: i32 a1 = a1 + 0\n 36407: a0 = 0x1\n 36410: jump @1176\n      : @1160 (gas: 8)\n 36413: u64 [a2 + 24] = 0\n 36416: u64 [a2 + 16] = 0\n 36419: u64 [a2 + 8] = 0\n 36422: a0 = 0x4e487b7100000000\n 36432: a1 = s1 + 0x2140\n 36436: u64 [a2 + 0x20] = a0\n 36439: a0 = 0\n 36441: ra = 1272, jump @4\n      : @1161 [@dyn 636] (gas: 9)\n 36448: a1 = s1 + 0x2138\n 36452: u64 [a1 + 0] = 0\n 36454: u64 [a1 + 4294967288] = 0\n 36457: u64 [a1 + 4294967272] = 0x21\n 36461: a2 = a1\n 36463: a0 = 0x4\n 36466: a1 = s1 + 0x2120\n 36470: u64 [a2 + 4294967280] = 0\n 36473: ra = 1274, jump @4\n      : @1162 [@dyn 637] (gas: 3)\n 36480: a0 = u64 [s1 + 0x128]\n 36484: a0 = i32 [a0]\n 36486: jump @1164 if a0 >u 63\n      : @1163 (gas: 3)\n 36490: a1 = u64 [s1 + 0x128]\n 36494: u32 [a1 + 0] = 0x40\n 36497: fallthrough\n      : @1164 (gas: 5)\n 36498: a0 = 0x1\n 36501: a2 = 0x24\n 36504: a1 = u64 [s1 + 0x130]\n 36508: ecalli 12 // 'seal_return'\n 36510: fallthrough\n      : @1165 (gas: 4)\n 36511: a1 = 0x201a0\n 36516: i32 a1 = a1 + 0\n 36518: a0 = 0x1\n 36521: jump @1176\n      : @1166 (gas: 4)\n 36524: a1 = 0x201a0\n 36529: i32 a1 = a1 + 0\n 36531: a0 = 0x1\n 36534: jump @1176\n      : @1167 (gas: 4)\n 36536: a1 = 0x201a0\n 36541: i32 a1 = a1 + 0\n 36543: a0 = 0x1\n 36546: jump @1176\n      : @1168 (gas: 4)\n 36548: a1 = 0x201a0\n 36553: i32 a1 = a1 + 0\n 36555: a0 = 0x1\n 36558: jump @1176\n      : @1169 (gas: 1)\n 36560: jump @1174 if a0 != 293231504\n      : @1170 (gas: 9)\n 36567: u64 [a3 + 1344] = 0\n 36571: u64 [a3 + 1336] = 0\n 36575: u64 [a3 + 1328] = 0\n 36579: u64 [a3 + 1320] = 0\n 36583: a0 = s1 + 0x3000\n 36587: i32 a0 = a0 + 0x660\n 36591: ra = 0x4fc\n 36595: ecalli 15 // 'value_transferred'\n 36597: fallthrough\n      : @1171 [@dyn 638] (gas: 3)\n 36598: a3 = s1 + 0x3138\n 36602: a4 = a3 + 0x500\n 36606: t0 = 1278, jump @1608\n      : @1172 [@dyn 639] (gas: 1)\n 36612: jump @1246 if a0 == 0\n      : @1173 (gas: 4)\n 36616: a1 = 0x201a0\n 36621: i32 a1 = a1 + 0\n 36623: a0 = 0x1\n 36626: jump @1176\n      : @1174 (gas: 4)\n 36628: a1 = 0x201a0\n 36633: i32 a1 = a1 + 0\n 36635: a0 = 0x1\n 36638: jump @1176\n      : @1175 (gas: 6)\n 36640: i32 a1 = a1 + 0\n 36642: a0 = 0x1\n 36645: a2 = 0\n 36647: ecalli 12 // 'seal_return'\n 36649: a1 = 0x201a0\n 36654: jump @1175\n      : @1176 (gas: 4)\n 36656: a2 = 0\n 36658: ecalli 12 // 'seal_return'\n 36660: a1 = 0x201a0\n 36665: jump @1175\n      : @1177 (gas: 2)\n 36667: a1 = 0x201a0\n 36672: jump @1175\n      : @1178 (gas: 2)\n 36674: a1 = 0x201a0\n 36679: jump @1175\n      : @1179 (gas: 2)\n 36681: a1 = 0x201a0\n 36686: jump @1175\n      : @1180 (gas: 10)\n 36688: a0 = s1 + 0x1138\n 36692: u64 [a0 + 1112] = 0\n 36696: u64 [a0 + 1104] = 0\n 36700: u64 [a0 + 1096] = 0\n 36704: a2 = a0\n 36706: a0 = 0x4e487b7100000000\n 36716: a1 = s1 + 0x1580\n 36720: u64 [a2 + 0x460] = a0\n 36724: a0 = 0\n 36726: ra = 1280, jump @4\n      : @1181 [@dyn 640] (gas: 3)\n 36733: t0 = 0x502\n 36737: a1 = s1 + 0x1138\n 36741: fallthrough\n      : @1182 [@dyn 641] (gas: 9)\n 36742: u64 [a1 + 1088] = 0\n 36746: u64 [a1 + 1080] = 0\n 36750: u64 [a1 + 1064] = 0x21\n 36755: a2 = a1\n 36757: a0 = 0x4\n 36760: a1 = s1 + 0x1560\n 36764: u64 [a2 + 1072] = 0\n 36768: ra = 0x52e\n 36772: jump @4\n      : @1183 (gas: 2)\n 36776: a1 = 0x201a0\n 36781: jump @1175\n      : @1184 (gas: 2)\n 36784: a1 = 0x201a0\n 36789: jump @1175\n      : @1185 (gas: 2)\n 36792: a1 = 0x201a0\n 36797: jump @1175\n      : @1186 (gas: 2)\n 36800: a1 = 0x201a0\n 36805: jump @1175\n      : @1187 (gas: 2)\n 36808: a1 = 0x201a0\n 36813: jump @1175\n      : @1188 (gas: 2)\n 36816: a1 = 0x201a0\n 36821: jump @1175\n      : @1189 (gas: 2)\n 36824: a1 = 0x201a0\n 36829: jump @1175\n      : @1190 (gas: 2)\n 36832: a1 = 0x201a0\n 36837: jump @1175\n      : @1191 (gas: 2)\n 36840: a1 = 0x201a0\n 36845: jump @1175\n      : @1192 (gas: 2)\n 36848: a1 = 0x201a0\n 36853: jump @1175\n      : @1193 (gas: 2)\n 36856: a1 = 0x201a0\n 36861: jump @1175\n      : @1194 (gas: 2)\n 36864: a1 = 0x201a0\n 36869: jump @1175\n      : @1195 (gas: 2)\n 36872: a1 = 0x201a0\n 36877: jump @1175\n      : @1196 (gas: 12)\n 36880: a0 = s1 + 0x3138\n 36884: u64 [a0 + 1952] = 0\n 36888: u64 [a0 + 1944] = 0\n 36892: u64 [a0 + 1936] = 0\n 36896: u64 [a0 + 1928] = 0\n 36900: a0 = s1 + 0x760\n 36904: a1 = s1 + 0x38c0\n 36908: u64 [s1 + 0x180] = a2\n 36912: u64 [s1 + 0x178] = a3\n 36916: u64 [s1 + 0x170] = a4\n 36920: u64 [s1 + 0x168] = a5\n 36924: ra = 1284, jump @6\n      : @1197 [@dyn 642] (gas: 67)\n 36931: a0 = u64 [s1 + 0x760]\n 36935: u64 [s1 + 0x1b8] = a0\n 36939: a0 = u64 [s1 + 0x770]\n 36943: u64 [s1 + 0x1b0] = a0\n 36947: a0 = u64 [s1 + 0x768]\n 36951: u64 [s1 + 0x1a8] = a0\n 36955: ecalli 9 // 'ref_time_left'\n 36957: a1 = u64 [s1 + 0x1a8]\n 36961: a1 = reverse a1\n 36963: a2 = u64 [s1 + 0x1b0]\n 36967: a2 = reverse a2\n 36969: a2 = a2 >> 0x20\n 36972: a3 = a1 << 0x20\n 36975: a2 = a2 | a3\n 36978: a1 = a1 >> 0x20\n 36981: a3 = u64 [s1 + 0x1b8]\n 36985: a3 = reverse a3\n 36987: a4 = a3 << 0x20\n 36990: a1 = a1 | a4\n 36993: a3 = a3 >> 0x20\n 36996: a4 = u64 [s1 + 0x160]\n 37000: u32 [a4 + 0x10] = a3\n 37003: u64 [a4 + 0x8] = a1\n 37006: u64 [a4] = a2\n 37008: a1 = s1 + 0x3138\n 37012: a2 = u64 [s1 + 0x168]\n 37016: a3 = a1 + 0x700\n 37020: u64 [a3 + 0xc0] = a2\n 37024: a2 = u64 [s1 + 0x170]\n 37028: u64 [a3 + 0xb8] = a2\n 37032: a2 = u64 [s1 + 0x178]\n 37036: u64 [a3 + 0xb0] = a2\n 37040: a2 = u64 [s1 + 0x180]\n 37044: u64 [a3 + 0xa8] = a2\n 37048: u32 [a1 + 1992] = 0\n 37052: a0 = a0 >u 0x8fc\n 37056: a1 = -a0\n 37058: a2 = s1 + 0x3938\n 37062: u64 [a2] = a1\n 37064: a3 = a2 + 0xffffffffffffff00\n 37068: u64 [a3 + 0xf8] = a1\n 37072: u64 [a3 + 0xf0] = a1\n 37076: u64 [a3 + 0xe8] = a1\n 37080: a1 = a4 << 0x20\n 37083: a1 = a1 >> 0x20\n 37086: a0 = a0 << 0x23\n 37089: a0 = a0 | a1\n 37092: a1 = s1 + 0x38e0\n 37096: a1 = a1 << 0x20\n 37099: a1 = a1 >> 0x20\n 37102: a4 = 0x201a0\n 37107: u64 [s1 + 0x1b8] = a4\n 37111: a2 = s1 + 0x3920\n 37115: a2 = a2 << 0x20\n 37118: a3 = a2 | a1\n 37121: a4 = a4 << 0x20\n 37124: a4 = a4 >> 0x20\n 37127: a1 = s1 + 0x3900\n 37131: a1 = a1 << 0x20\n 37134: a5 = a1 | a4\n 37137: a1 = 0xffffffffffffffff\n 37140: a2 = 0xffffffffffffffff\n 37143: ecalli 0 // 'call'\n 37144: a0 = a0 <u 0x1\n 37147: u64 [s1 + 0x1b0] = a0\n 37151: a0 = s1 + 0x740\n 37155: ra = 1286, jump @1388\n      : @1198 [@dyn 643] (gas: 9)\n 37161: u64 [s1 + 1848] = 0\n 37165: u64 [s1 + 1840] = 0\n 37169: a0 = u64 [s1 + 0x1b0]\n 37173: u64 [s1 + 0x720] = a0\n 37177: a0 = s1 + 0x720\n 37181: u64 [s1 + 1832] = 0\n 37185: ra = 0x508\n 37189: t0 = 0x5f2\n 37193: jump @1586\n      : @1199 [@dyn 644] (gas: 3)\n 37196: a1 = i32 [s1 + 0x1b8]\n 37200: a0 = 0\n 37202: jump @1176\n      : @1200 (gas: 6)\n 37205: a0 = s1 + 0x7ff\n 37209: a0 = a0 + 0x131\n 37213: u64 [a0 + 640] = 0\n 37217: u64 [a0 + 632] = 0\n 37221: u64 [a0 + 624] = 0\n 37225: t0 = 1290, jump @1622\n      : @1201 [@dyn 645] (gas: 4)\n 37231: a1 = a1 + 0x3a1\n 37235: u64 [a2 + 0x288] = a0\n 37239: a0 = 0\n 37241: ra = 1292, jump @4\n      : @1202 [@dyn 646] (gas: 11)\n 37248: a1 = s1 + 0x7ff\n 37252: a1 = a1 + 0x131\n 37256: u64 [a1 + 616] = 0\n 37260: u64 [a1 + 608] = 0\n 37264: u64 [a1 + 592] = 0x11\n 37269: a2 = a1\n 37271: a0 = 0x4\n 37274: a1 = s1 + 0x7ff\n 37278: a1 = a1 + 0x381\n 37282: u64 [a2 + 600] = 0\n 37286: ra = 1294, jump @4\n      : @1203 [@dyn 647] (gas: 2)\n 37293: a1 = i32 [0x20194]\n 37298: jump @1205 if a1 >u 63\n      : @1204 (gas: 3)\n 37302: u32 [0x20194] = 0x40\n 37308: a1 = 0x201a0\n 37313: jump @1212\n      : @1205 (gas: 2)\n 37315: a1 = 0x201a0\n 37320: jump @1212\n      : @1206 (gas: 6)\n 37322: a0 = s1 + 0x7ff\n 37326: a0 = a0 + 0x131\n 37330: u64 [a0 + 704] = 0\n 37334: u64 [a0 + 696] = 0\n 37338: u64 [a0 + 688] = 0\n 37342: t0 = 1296, jump @1622\n      : @1207 [@dyn 648] (gas: 4)\n 37348: a1 = a1 + 0x3e1\n 37352: u64 [a2 + 0x2c8] = a0\n 37356: a0 = 0\n 37358: ra = 1298, jump @4\n      : @1208 [@dyn 649] (gas: 11)\n 37365: a1 = s1 + 0x7ff\n 37369: a1 = a1 + 0x131\n 37373: u64 [a1 + 680] = 0\n 37377: u64 [a1 + 672] = 0\n 37381: u64 [a1 + 656] = 0x11\n 37386: a2 = a1\n 37388: a0 = 0x4\n 37391: a1 = s1 + 0x7ff\n 37395: a1 = a1 + 0x3c1\n 37399: u64 [a2 + 664] = 0\n 37403: ra = 1300, jump @4\n      : @1209 [@dyn 650] (gas: 2)\n 37410: a1 = i32 [0x20194]\n 37415: jump @1211 if a1 >u 63\n      : @1210 (gas: 3)\n 37419: u32 [0x20194] = 0x40\n 37425: a1 = 0x201a0\n 37430: jump @1212\n      : @1211 (gas: 2)\n 37432: a1 = 0x201a0\n 37437: fallthrough\n      : @1212 (gas: 5)\n 37438: i32 a1 = a1 + 0\n 37440: a0 = 0x1\n 37443: a2 = 0x24\n 37446: ecalli 12 // 'seal_return'\n 37448: fallthrough\n      : @1213 (gas: 8)\n 37449: u64 [a2 + 56] = 0\n 37452: u64 [a2 + 48] = 0\n 37455: u64 [a2 + 40] = 0\n 37458: a0 = 0x4e487b7100000000\n 37468: a1 = s1 + 0x1160\n 37472: u64 [a2 + 0x40] = a0\n 37475: a0 = 0\n 37477: ra = 1302, jump @4\n      : @1214 [@dyn 651] (gas: 3)\n 37484: t0 = 0x518\n 37488: a1 = s1 + 0x1138\n 37492: fallthrough\n      : @1215 [@dyn 652] (gas: 8)\n 37493: u64 [a1 + 32] = 0\n 37496: u64 [a1 + 24] = 0\n 37499: u64 [a1 + 8] = 0x21\n 37503: a2 = a1\n 37505: a0 = 0x4\n 37508: a1 = s1 + 0x1140\n 37512: u64 [a2 + 16] = 0\n 37515: ra = 1306, jump @4\n      : @1216 [@dyn 653] (gas: 3)\n 37522: a0 = u64 [s1 + 0x190]\n 37526: a0 = i32 [a0]\n 37528: jump @1218 if a0 >u 63\n      : @1217 (gas: 3)\n 37532: a1 = u64 [s1 + 0x190]\n 37536: u32 [a1 + 0] = 0x40\n 37539: fallthrough\n      : @1218 (gas: 5)\n 37540: a0 = 0x1\n 37543: a2 = 0x24\n 37546: a1 = u64 [s1 + 0x188]\n 37550: ecalli 12 // 'seal_return'\n 37552: fallthrough\n      : @1219 (gas: 8)\n 37553: u64 [a2 + 856] = 0\n 37557: u64 [a2 + 848] = 0\n 37561: u64 [a2 + 840] = 0\n 37565: a0 = 0x4e487b7100000000\n 37575: a1 = s1 + 0x1c80\n 37579: u64 [a2 + 0x360] = a0\n 37583: a0 = 0\n 37585: ra = 1308, jump @4\n      : @1220 [@dyn 654] (gas: 3)\n 37592: t0 = 0x51e\n 37596: a1 = s1 + 0x1938\n 37600: fallthrough\n      : @1221 [@dyn 655] (gas: 9)\n 37601: u64 [a1 + 832] = 0\n 37605: u64 [a1 + 824] = 0\n 37609: u64 [a1 + 808] = 0x21\n 37614: a2 = a1\n 37616: a0 = 0x4\n 37619: a1 = s1 + 0x1c60\n 37623: u64 [a2 + 816] = 0\n 37627: ra = 0x52e\n 37631: jump @4\n      : @1222 (gas: 10)\n 37635: a0 = s1 + 0x2138\n 37639: u64 [a0 + 1784] = 0\n 37643: u64 [a0 + 1776] = 0\n 37647: u64 [a0 + 1768] = 0\n 37651: a2 = a0\n 37653: a0 = 0x4e487b7100000000\n 37663: a1 = s1 + 0x2820\n 37667: u64 [a2 + 0x700] = a0\n 37671: a0 = 0\n 37673: ra = 1312, jump @4\n      : @1223 [@dyn 656] (gas: 10)\n 37680: a1 = s1 + 0x2138\n 37684: u64 [a1 + 1760] = 0\n 37688: u64 [a1 + 1752] = 0\n 37692: u64 [a1 + 1736] = 0x21\n 37697: a2 = a1\n 37699: a0 = 0x4\n 37702: a1 = s1 + 0x2800\n 37706: u64 [a2 + 1744] = 0\n 37710: ra = 0x536\n 37714: jump @4\n      : @1224 (gas: 6)\n 37718: a0 = s1 + 0x7ff\n 37722: a0 = a0 + 0x131\n 37726: u64 [a0 + 768] = 0\n 37730: u64 [a0 + 760] = 0\n 37734: u64 [a0 + 752] = 0\n 37738: t0 = 1314, jump @1622\n      : @1225 [@dyn 657] (gas: 4)\n 37744: a1 = a1 + 0x421\n 37748: u64 [a2 + 0x308] = a0\n 37752: a0 = 0\n 37754: ra = 1316, jump @4\n      : @1226 [@dyn 658] (gas: 11)\n 37761: a1 = s1 + 0x7ff\n 37765: a1 = a1 + 0x131\n 37769: u64 [a1 + 744] = 0\n 37773: u64 [a1 + 736] = 0\n 37777: u64 [a1 + 720] = 0x21\n 37782: a2 = a1\n 37784: a0 = 0x4\n 37787: a1 = s1 + 0x7ff\n 37791: a1 = a1 + 0x401\n 37795: u64 [a2 + 728] = 0\n 37799: ra = 1318, jump @4\n      : @1227 [@dyn 659] (gas: 3)\n 37806: a0 = u64 [s1 + 0xf8]\n 37810: a0 = i32 [a0]\n 37812: jump @1229 if a0 >u 63\n      : @1228 (gas: 3)\n 37816: a1 = u64 [s1 + 0xf8]\n 37820: u32 [a1 + 0] = 0x40\n 37823: fallthrough\n      : @1229 (gas: 5)\n 37824: a0 = 0x1\n 37827: a2 = 0x24\n 37830: a1 = u64 [s1 + 0xf0]\n 37834: ecalli 12 // 'seal_return'\n 37836: fallthrough\n      : @1230 (gas: 10)\n 37837: a0 = s1 + 0x1938\n 37841: u64 [a0 + 248] = 0\n 37845: u64 [a0 + 240] = 0\n 37849: u64 [a0 + 232] = 0\n 37853: a2 = a0\n 37855: a0 = 0x4e487b7100000000\n 37865: a1 = s1 + 0x1a20\n 37869: u64 [a2 + 0x100] = a0\n 37873: a0 = 0\n 37875: ra = 1320, jump @4\n      : @1231 [@dyn 660] (gas: 10)\n 37882: a1 = s1 + 0x1938\n 37886: u64 [a1 + 224] = 0\n 37890: u64 [a1 + 216] = 0\n 37894: u64 [a1 + 200] = 0x21\n 37899: a2 = a1\n 37901: a0 = 0x4\n 37904: a1 = s1 + 0x1a00\n 37908: u64 [a2 + 208] = 0\n 37912: ra = 0x52e\n 37916: jump @4\n      : @1232 (gas: 10)\n 37920: a0 = s1 + 0x1138\n 37924: u64 [a0 + 1368] = 0\n 37928: u64 [a0 + 1360] = 0\n 37932: u64 [a0 + 1352] = 0\n 37936: a2 = a0\n 37938: a0 = 0x4e487b7100000000\n 37948: a1 = s1 + 0x1680\n 37952: u64 [a2 + 0x560] = a0\n 37956: a0 = 0\n 37958: ra = 1322, jump @4\n      : @1233 [@dyn 661] (gas: 3)\n 37965: t0 = 0x52c\n 37969: a1 = s1 + 0x1138\n 37973: fallthrough\n      : @1234 [@dyn 662] (gas: 8)\n 37974: u64 [a1 + 1344] = 0\n 37978: u64 [a1 + 1336] = 0\n 37982: u64 [a1 + 1320] = 0x41\n 37987: a2 = a1\n 37989: a0 = 0x4\n 37992: a1 = s1 + 0x1660\n 37996: u64 [a2 + 1328] = 0\n 38000: ra = 1326, jump @4\n      : @1235 [@dyn 663] (gas: 3)\n 38007: a0 = u64 [s1 + 0x190]\n 38011: a0 = i32 [a0]\n 38013: jump @1237 if a0 >u 63\n      : @1236 (gas: 3)\n 38017: a1 = u64 [s1 + 0x190]\n 38021: u32 [a1 + 0] = 0x40\n 38024: fallthrough\n      : @1237 (gas: 7)\n 38025: a0 = 0x1\n 38028: a2 = 0x24\n 38031: a1 = u64 [s1 + 0x198]\n 38035: ecalli 12 // 'seal_return'\n 38037: u64 [s1 + 0x1b8] = a1\n 38041: ra = 0x530\n 38045: jump @16\n      : @1238 (gas: 2)\n 38049: u64 [s1 + 0x1b8] = a1\n 38053: ra = 1328, jump @16\n      : @1239 [@dyn 664] (gas: 5)\n 38060: i32 a1 = a0 + 0\n 38062: a2 = i32 [s1 + 0x1b8]\n 38066: a0 = 0\n 38068: ecalli 12 // 'seal_return'\n 38070: jump @699\n      : @1240 (gas: 10)\n 38073: a0 = s1 + 0x2938\n 38077: u64 [a0 + 984] = 0\n 38081: u64 [a0 + 976] = 0\n 38085: u64 [a0 + 968] = 0\n 38089: a2 = a0\n 38091: a0 = 0x4e487b7100000000\n 38101: a1 = s1 + 0x2d00\n 38105: u64 [a2 + 0x3e0] = a0\n 38109: a0 = 0\n 38111: ra = 1330, jump @4\n      : @1241 [@dyn 665] (gas: 3)\n 38118: t0 = 0x534\n 38122: a1 = s1 + 0x2938\n 38126: fallthrough\n      : @1242 [@dyn 666] (gas: 8)\n 38127: u64 [a1 + 960] = 0\n 38131: u64 [a1 + 952] = 0\n 38135: u64 [a1 + 936] = 0x11\n 38140: a2 = a1\n 38142: a0 = 0x4\n 38145: a1 = s1 + 0x2ce0\n 38149: u64 [a2 + 944] = 0\n 38153: ra = 1334, jump @4\n      : @1243 [@dyn 667] (gas: 3)\n 38160: a0 = u64 [s1 + 0x100]\n 38164: a0 = i32 [a0]\n 38166: jump @1245 if a0 >u 63\n      : @1244 (gas: 3)\n 38170: a1 = u64 [s1 + 0x100]\n 38174: u32 [a1 + 0] = 0x40\n 38177: fallthrough\n      : @1245 (gas: 7)\n 38178: a0 = 0x1\n 38181: a2 = 0x24\n 38184: a1 = u64 [s1 + 0xf8]\n 38188: ra = 0x538\n 38192: ecalli 12 // 'seal_return'\n 38194: t0 = 0x53a\n 38198: jump @1625\n      : @1246 [@dyn 668] (gas: 1)\n 38201: t0 = 1338, jump @1625\n      : @1247 [@dyn 669] (gas: 1)\n 38207: jump @1249 if a1 <u a0\n      : @1248 (gas: 2)\n 38210: a1 = 0x201a0\n 38215: jump @1175\n      : @1249 (gas: 17)\n 38218: a0 = s1 + 0x3000\n 38222: i32 a0 = a0 + 0x680\n 38226: a1 = 0x4\n 38229: ecalli 2 // 'call_data_load'\n 38231: a3 = s1 + 0x3138\n 38235: a4 = a3 + 0x500\n 38239: a0 = u64 [a4 + 0x48]\n 38242: a1 = u64 [a4 + 0x50]\n 38245: a2 = u64 [a4 + 0x58]\n 38248: a3 = u64 [a4 + 0x60]\n 38251: u64 [s1 + 0x478] = a3\n 38255: u64 [s1 + 0x470] = a2\n 38259: u64 [s1 + 0x468] = a1\n 38263: a1 = s1 + 0x460\n 38267: u64 [s1 + 0x460] = a0\n 38271: a0 = 0\n 38273: ra = 1340, jump @4\n      : @1250 [@dyn 670] (gas: 7)\n 38280: u64 [s1 + 1112] = 0\n 38284: u64 [s1 + 1104] = 0\n 38288: u64 [s1 + 1088] = 0x2\n 38293: a0 = 0x20\n 38296: a1 = s1 + 0x440\n 38300: u64 [s1 + 1096] = 0\n 38304: ra = 1342, jump @4\n      : @1251 [@dyn 671] (gas: 9)\n 38311: a0 = sp + 0xffffffffffffffe0\n 38314: a0 = a0 & 0xffffffffffffffe0\n 38317: u64 [s1 + 0x190] = a0\n 38321: sp = a0\n 38323: a0 = 0x20194\n 38328: u64 [s1 + 0x198] = a0\n 38332: a0 = i32 [0x20194]\n 38337: a1 = 0x3f\n 38340: jump @1253 if a1 <u a0\n      : @1252 (gas: 4)\n 38343: a1 = u64 [s1 + 0x198]\n 38347: u32 [a1 + 0] = 0x40\n 38350: t0 = 0x540\n 38354: jump @1603\n      : @1253 (gas: 1)\n 38357: t0 = 1344, jump @1603\n      : @1254 [@dyn 672] (gas: 9)\n 38363: a0 = 0x201a0\n 38368: u64 [s1 + 0x188] = a0\n 38372: i32 a0 = a0 + 0\n 38374: i32 a2 = a2 + 0\n 38376: a1 = 0x40\n 38379: ra = 0x542\n 38383: ecalli 7 // 'hash_keccak_256'\n 38385: t0 = 0x544\n 38389: jump @1573\n      : @1255 [@dyn 673] (gas: 1)\n 38392: t0 = 1348, jump @1573\n      : @1256 [@dyn 674] (gas: 2)\n 38398: a0 = s1 + 0x420\n 38402: ra = 1350, jump @6\n      : @1257 [@dyn 675] (gas: 29)\n 38409: a0 = u64 [s1 + 0x420]\n 38413: u64 [s1 + 0x180] = a0\n 38417: a0 = u64 [s1 + 0x428]\n 38421: u64 [s1 + 0x178] = a0\n 38425: a0 = u64 [s1 + 0x430]\n 38429: u64 [s1 + 0x170] = a0\n 38433: a0 = u64 [s1 + 0x438]\n 38437: u64 [s1 + 0x168] = a0\n 38441: a0 = u64 [s1 + 0x1a8]\n 38445: a0 = a0 + 0x1\n 38448: a1 = a0 <u 0x1\n 38451: a2 = u64 [s1 + 0x1b0]\n 38455: a1 = a1 + a2\n 38458: a2 = s1 + 0x3138\n 38462: a3 = a2 + 0x500\n 38466: u64 [a3 + 0x70] = a1\n 38469: a1 = a1 | a0\n 38472: u64 [a3 + 0x68] = a0\n 38475: a0 = a1 <u 0x1\n 38478: a1 = u64 [s1 + 0x1a0]\n 38482: a0 = a0 + a1\n 38485: u64 [a3 + 0x78] = a0\n 38488: a0 = a0 <u a1\n 38491: a1 = u64 [s1 + 0x1b8]\n 38495: a0 = a0 + a1\n 38498: u64 [a3 + 0x80] = a0\n 38502: a0 = s1 + 0x400\n 38506: a1 = s1 + 0x36a0\n 38510: ra = 1352, jump @6\n      : @1258 [@dyn 676] (gas: 12)\n 38517: a1 = s1 + 0x400\n 38521: a0 = u64 [a1]\n 38523: u64 [s1 + 0x160] = a0\n 38527: a0 = u64 [a1 + 0x8]\n 38530: u64 [s1 + 0x158] = a0\n 38534: a0 = u64 [a1 + 0x10]\n 38537: u64 [s1 + 0x150] = a0\n 38541: a0 = u64 [a1 + 0x18]\n 38544: u64 [s1 + 0x148] = a0\n 38548: a1 = u64 [s1 + 0x1a8]\n 38552: a0 = a1 + 0x2\n 38555: t0 = 1354, jump @1564\n      : @1259 [@dyn 677] (gas: 7)\n 38561: u64 [a5 + 0xa0] = a1\n 38565: u64 [a5 + 0x98] = a3\n 38569: u64 [a5 + 0x90] = a2\n 38573: u64 [a5 + 0x88] = a0\n 38577: a0 = s1 + 0x3e0\n 38581: a1 = s1 + 0x36c0\n 38585: ra = 1356, jump @6\n      : @1260 [@dyn 678] (gas: 11)\n 38592: a0 = u64 [s1 + 0x3e0]\n 38596: u64 [s1 + 0x140] = a0\n 38600: a0 = u64 [s1 + 0x3e8]\n 38604: u64 [s1 + 0x138] = a0\n 38608: a0 = u64 [s1 + 0x3f0]\n 38612: u64 [s1 + 0x130] = a0\n 38616: a0 = u64 [s1 + 0x3f8]\n 38620: u64 [s1 + 0x128] = a0\n 38624: a1 = u64 [s1 + 0x1a8]\n 38628: a0 = a1 + 0x3\n 38631: t0 = 1358, jump @1564\n      : @1261 [@dyn 679] (gas: 7)\n 38637: u64 [a5 + 0xc0] = a1\n 38641: u64 [a5 + 0xb8] = a3\n 38645: u64 [a5 + 0xb0] = a2\n 38649: u64 [a5 + 0xa8] = a0\n 38653: a0 = s1 + 0x3c0\n 38657: a1 = s1 + 0x36e0\n 38661: ra = 1360, jump @6\n      : @1262 [@dyn 680] (gas: 11)\n 38668: a0 = u64 [s1 + 0x3c0]\n 38672: u64 [s1 + 0x120] = a0\n 38676: a0 = u64 [s1 + 0x3c8]\n 38680: u64 [s1 + 0x118] = a0\n 38684: a0 = u64 [s1 + 0x3d0]\n 38688: u64 [s1 + 0x110] = a0\n 38692: a0 = u64 [s1 + 0x3d8]\n 38696: u64 [s1 + 0x108] = a0\n 38700: a1 = u64 [s1 + 0x1a8]\n 38704: a0 = a1 + 0x4\n 38707: t0 = 1362, jump @1564\n      : @1263 [@dyn 681] (gas: 7)\n 38713: u64 [a5 + 0xe0] = a1\n 38717: u64 [a5 + 0xd8] = a3\n 38721: u64 [a5 + 0xd0] = a2\n 38725: u64 [a5 + 0xc8] = a0\n 38729: a0 = s1 + 0x3a0\n 38733: a1 = s1 + 0x3700\n 38737: ra = 1364, jump @6\n      : @1264 [@dyn 682] (gas: 29)\n 38744: a0 = u64 [s1 + 0x3a0]\n 38748: u64 [s1 + 0x100] = a0\n 38752: a0 = u64 [s1 + 0x3a8]\n 38756: u64 [s1 + 0xf8] = a0\n 38760: a0 = u64 [s1 + 0x3b0]\n 38764: u64 [s1 + 0xf0] = a0\n 38768: a0 = u64 [s1 + 0x3b8]\n 38772: u64 [s1 + 0xe8] = a0\n 38776: a1 = u64 [s1 + 0x1a8]\n 38780: a0 = a1 + 0x5\n 38783: a1 = a0 <u a1\n 38786: a3 = u64 [s1 + 0x1b0]\n 38790: a2 = a3 + a1\n 38793: a3 = a2 <u a3\n 38796: a3 = a1 if a1 == 0\n 38799: a1 = u64 [s1 + 0x1a0]\n 38803: a3 = a3 + a1\n 38806: a1 = a3 <u a1\n 38809: a4 = u64 [s1 + 0x1b8]\n 38813: a1 = a1 + a4\n 38816: a4 = s1 + 0x3138\n 38820: u64 [a4 + 0x600] = a1\n 38824: a1 = a4 + 0x500\n 38828: u64 [a1 + 0xf8] = a3\n 38832: u64 [a1 + 0xf0] = a2\n 38836: u64 [a1 + 0xe8] = a0\n 38840: a0 = s1 + 0x380\n 38844: a1 = s1 + 0x3720\n 38848: ra = 1366, jump @6\n      : @1265 [@dyn 683] (gas: 11)\n 38855: a0 = u64 [s1 + 0x380]\n 38859: u64 [s1 + 0xe0] = a0\n 38863: a0 = u64 [s1 + 0x388]\n 38867: u64 [s1 + 0xd0] = a0\n 38871: a0 = u64 [s1 + 0x390]\n 38875: u64 [s1 + 0xc0] = a0\n 38879: a0 = u64 [s1 + 0x398]\n 38883: u64 [s1 + 0xb0] = a0\n 38887: a1 = u64 [s1 + 0x1a8]\n 38891: a0 = a1 + 0x6\n 38894: t0 = 1368, jump @1585\n      : @1266 [@dyn 684] (gas: 7)\n 38900: u64 [a5 + 0x20] = a1\n 38903: u64 [a5 + 0x18] = a3\n 38906: u64 [a5 + 0x10] = a2\n 38909: u64 [a5 + 0x8] = a0\n 38912: a0 = s1 + 0x360\n 38916: a1 = s1 + 0x3740\n 38920: ra = 1370, jump @6\n      : @1267 [@dyn 685] (gas: 9)\n 38927: a0 = u64 [s1 + 0x360]\n 38931: u64 [s1 + 0xb8] = a0\n 38935: a0 = u64 [s1 + 0x368]\n 38939: u64 [s1 + 0xa8] = a0\n 38943: a0 = u64 [s1 + 0x370]\n 38947: u64 [s1 + 0x190] = a0\n 38951: a1 = u64 [s1 + 0x1a8]\n 38955: a0 = a1 + 0x7\n 38958: t0 = 1372, jump @1585\n      : @1268 [@dyn 686] (gas: 7)\n 38964: u64 [a5 + 0x40] = a1\n 38967: u64 [a5 + 0x38] = a3\n 38970: u64 [a5 + 0x30] = a2\n 38973: u64 [a5 + 0x28] = a0\n 38976: a0 = s1 + 0x340\n 38980: a1 = s1 + 0x3760\n 38984: ra = 1374, jump @6\n      : @1269 [@dyn 687] (gas: 9)\n 38991: a0 = u64 [s1 + 0x340]\n 38995: u64 [s1 + 0xd8] = a0\n 38999: a0 = u64 [s1 + 0x348]\n 39003: u64 [s1 + 0xc8] = a0\n 39007: a1 = u64 [s1 + 0x1a8]\n 39011: a0 = a1 + 0x8\n 39014: a1 = a0 <u a1\n 39017: a3 = u64 [s1 + 0x1b0]\n 39021: t0 = 1376, jump @1623\n      : @1270 [@dyn 688] (gas: 3)\n 39027: a1 = u64 [s1 + 0x350]\n 39031: u64 [s1 + 0x1b0] = a1\n 39035: t0 = 1378, jump @1621\n      : @1271 [@dyn 689] (gas: 11)\n 39041: a4 = u64 [s1 + 0x358]\n 39045: u64 [s1 + 0x1b8] = a4\n 39049: a4 = s1 + 0x3138\n 39053: a5 = a4 + 0x600\n 39057: u64 [a5 + 0x60] = a1\n 39060: u64 [a5 + 0x58] = a3\n 39063: u64 [a5 + 0x50] = a2\n 39066: u64 [a5 + 0x48] = a0\n 39069: a0 = s1 + 0x320\n 39073: a1 = s1 + 0x3780\n 39077: ra = 1380, jump @6\n      : @1272 [@dyn 690] (gas: 14)\n 39084: a0 = u8 [s1 + 0x320]\n 39088: u64 [s1 + 0x1a8] = a0\n 39092: a0 = u64 [s1 + 0x168]\n 39096: a3 = s1 + 0x300\n 39100: u64 [a3 + 0x18] = a0\n 39103: a0 = u64 [s1 + 0x170]\n 39107: u64 [a3 + 0x10] = a0\n 39110: a0 = u64 [s1 + 0x178]\n 39114: u64 [a3 + 0x8] = a0\n 39117: a0 = 0x80\n 39121: a1 = s1 + 0x300\n 39125: a2 = u64 [s1 + 0x180]\n 39129: u64 [a3] = a2\n 39131: ra = 1382, jump @4\n      : @1273 [@dyn 691] (gas: 11)\n 39138: a0 = u64 [s1 + 0x148]\n 39142: u64 [s1 + 0x2f8] = a0\n 39146: a0 = u64 [s1 + 0x150]\n 39150: u64 [s1 + 0x2f0] = a0\n 39154: a0 = u64 [s1 + 0x158]\n 39158: u64 [s1 + 0x2e8] = a0\n 39162: a0 = 0xa0\n 39166: a1 = s1 + 0x2e0\n 39170: a2 = u64 [s1 + 0x160]\n 39174: u64 [s1 + 0x2e0] = a2\n 39178: ra = 1384, jump @4\n      : @1274 [@dyn 692] (gas: 11)\n 39185: a0 = u64 [s1 + 0x128]\n 39189: u64 [s1 + 0x2d8] = a0\n 39193: a0 = u64 [s1 + 0x130]\n 39197: u64 [s1 + 0x2d0] = a0\n 39201: a0 = u64 [s1 + 0x138]\n 39205: u64 [s1 + 0x2c8] = a0\n 39209: a0 = 0xc0\n 39213: a1 = s1 + 0x2c0\n 39217: a2 = u64 [s1 + 0x140]\n 39221: u64 [s1 + 0x2c0] = a2\n 39225: ra = 1386, jump @4\n      : @1275 [@dyn 693] (gas: 11)\n 39232: a0 = u64 [s1 + 0x108]\n 39236: u64 [s1 + 0x2b8] = a0\n 39240: a0 = u64 [s1 + 0x110]\n 39244: u64 [s1 + 0x2b0] = a0\n 39248: a0 = u64 [s1 + 0x118]\n 39252: u64 [s1 + 0x2a8] = a0\n 39256: a0 = 0xe0\n 39260: a1 = s1 + 0x2a0\n 39264: a2 = u64 [s1 + 0x120]\n 39268: u64 [s1 + 0x2a0] = a2\n 39272: ra = 1388, jump @4\n      : @1276 [@dyn 694] (gas: 11)\n 39279: a0 = u64 [s1 + 0xe8]\n 39283: u64 [s1 + 0x298] = a0\n 39287: a0 = u64 [s1 + 0xf0]\n 39291: u64 [s1 + 0x290] = a0\n 39295: a0 = u64 [s1 + 0xf8]\n 39299: u64 [s1 + 0x288] = a0\n 39303: a0 = 0x100\n 39307: a1 = s1 + 0x280\n 39311: a2 = u64 [s1 + 0x100]\n 39315: u64 [s1 + 0x280] = a2\n 39319: ra = 1390, jump @4\n      : @1277 [@dyn 695] (gas: 11)\n 39326: a0 = u64 [s1 + 0xb0]\n 39330: u64 [s1 + 0x278] = a0\n 39334: a0 = u64 [s1 + 0xc0]\n 39338: u64 [s1 + 0x270] = a0\n 39342: a0 = u64 [s1 + 0xd0]\n 39346: u64 [s1 + 0x268] = a0\n 39350: a0 = 0x120\n 39354: a1 = s1 + 0x260\n 39358: a2 = u64 [s1 + 0xe0]\n 39362: u64 [s1 + 0x260] = a2\n 39366: ra = 1392, jump @4\n      : @1278 [@dyn 696] (gas: 12)\n 39373: a0 = u64 [s1 + 0x190]\n 39377: a0 = a0 << 0x20\n 39380: a0 = a0 >> 0x20\n 39383: u64 [s1 + 600] = 0\n 39387: u64 [s1 + 0x250] = a0\n 39391: a0 = u64 [s1 + 0xa8]\n 39395: u64 [s1 + 0x248] = a0\n 39399: a0 = 0x140\n 39403: a1 = s1 + 0x240\n 39407: a2 = u64 [s1 + 0xb8]\n 39411: u64 [s1 + 0x240] = a2\n 39415: ra = 1394, jump @4\n      : @1279 [@dyn 697] (gas: 14)\n 39422: a0 = u64 [s1 + 0x190]\n 39426: a0 = a0 << 0x18\n 39429: a0 = a0 >> 0x38\n 39432: u64 [s1 + 536] = 0\n 39436: u64 [s1 + 528] = 0\n 39440: u64 [s1 + 520] = 0\n 39444: u64 [s1 + 512] = 0x160\n 39450: u64 [s1 + 568] = 0\n 39454: u64 [s1 + 560] = 0\n 39458: u64 [s1 + 0x220] = a0\n 39462: a0 = s1 + 0x220\n 39466: a1 = s1 + 0x200\n 39470: u64 [s1 + 552] = 0\n 39474: ra = 1396, jump @1285\n      : @1280 [@dyn 698] (gas: 11)\n 39480: a0 = u64 [s1 + 0x1b8]\n 39484: u64 [s1 + 0x1f8] = a0\n 39488: a0 = u64 [s1 + 0x1b0]\n 39492: u64 [s1 + 0x1f0] = a0\n 39496: a0 = u64 [s1 + 0xc8]\n 39500: u64 [s1 + 0x1e8] = a0\n 39504: a0 = 0x180\n 39508: a1 = s1 + 0x1e0\n 39512: a2 = u64 [s1 + 0xd8]\n 39516: u64 [s1 + 0x1e0] = a2\n 39520: ra = 1398, jump @4\n      : @1281 [@dyn 699] (gas: 9)\n 39527: a0 = u64 [s1 + 0x1a8]\n 39531: a0 = a0 >u 0\n 39533: u64 [s1 + 472] = 0\n 39537: u64 [s1 + 464] = 0\n 39541: u64 [s1 + 0x1c0] = a0\n 39545: a0 = 0x1a0\n 39549: a1 = s1 + 0x1c0\n 39553: u64 [s1 + 456] = 0\n 39557: ra = 1400, jump @4\n      : @1282 [@dyn 700] (gas: 3)\n 39564: a0 = u64 [s1 + 0x198]\n 39568: a0 = i32 [a0]\n 39570: jump @1284 if a0 >u 447\n      : @1283 (gas: 3)\n 39575: a1 = u64 [s1 + 0x198]\n 39579: u32 [a1 + 0] = 0x1c0\n 39583: fallthrough\n      : @1284 (gas: 6)\n 39584: a0 = u64 [s1 + 0x188]\n 39588: i32 a1 = a0 + 0x80\n 39592: a2 = 0x140\n 39596: a0 = 0\n 39598: ecalli 12 // 'seal_return'\n 39600: jump @699\n      : @1285 (gas: 19)\n 39603: sp = sp + 0xffffffffffffff90\n 39606: u64 [sp + 0x68] = ra\n 39609: u64 [sp + 0x60] = s0\n 39612: s0 = sp + 0x70\n 39615: sp = sp & 0xfffffffffffffff0\n 39618: a2 = u64 [a0 + 0x18]\n 39621: t1 = u64 [a0 + 0x10]\n 39624: t0 = u64 [a0]\n 39626: a5 = u64 [a0 + 0x8]\n 39629: a0 = a2 >u 0\n 39631: a4 = t1 >u 0\n 39633: a4 = a0 if a2 != 0\n 39636: a0 = a5 >u 0\n 39638: a3 = t0 <u 0x4\n 39641: a3 = a3 ^ 0x1\n 39644: a3 = a0 if a5 != 0\n 39647: a0 = t1 | a2\n 39650: a3 = a4 if a0 != 0\n 39653: jump @1290 if a3 != 0\n      : @1286 (gas: 12)\n 39656: t2 = u64 [a1 + 0x18]\n 39659: a4 = u64 [a1 + 0x10]\n 39662: a0 = u64 [a1]\n 39664: a1 = u64 [a1 + 0x8]\n 39667: a3 = a0 | a4\n 39670: a1 = a1 | t2\n 39673: a3 = a3 | a1\n 39676: a3 = a3 >> 0x20\n 39679: a1 = a1 | a4\n 39682: a1 = a1 << 0x20\n 39685: a1 = a1 | a3\n 39688: jump @1289 if a1 != 0\n      : @1287 (gas: 6)\n 39691: u64 [sp + 0x40] = t0\n 39694: u64 [sp + 0x48] = a5\n 39697: u64 [sp + 0x50] = t1\n 39700: a1 = sp + 0x40\n 39703: u64 [sp + 0x58] = a2\n 39706: ra = 1402, jump @4\n      : @1288 [@dyn 701] (gas: 5)\n 39713: sp = s0 + 0xffffffffffffff90\n 39716: ra = u64 [sp + 0x68]\n 39719: s0 = u64 [sp + 0x60]\n 39722: sp = sp + 0x70\n 39725: ret\n      : @1289 (gas: 1)\n 39727: trap\n      : @1290 (gas: 1)\n 39728: t0 = 1404, jump @1580\n      : @1291 [@dyn 702] (gas: 1)\n 39734: ra = 1406, jump @4\n      : @1292 [@dyn 703] (gas: 7)\n 39741: u64 [sp + 24] = 0\n 39744: u64 [sp + 16] = 0\n 39747: u64 [sp + 0] = 0x21\n 39750: a0 = 0x4\n 39753: a1 = sp\n 39755: u64 [sp + 8] = 0\n 39758: ra = 1408, jump @4\n      : @1293 [@dyn 704] (gas: 2)\n 39765: a1 = i32 [0x20194]\n 39770: jump @1295 if a1 >u 63\n      : @1294 (gas: 2)\n 39774: u32 [0x20194] = 0x40\n 39780: fallthrough\n      : @1295 (gas: 7)\n 39781: a1 = 0x201a0\n 39786: i32 a1 = a1 + 0\n 39788: a0 = 0x1\n 39791: a2 = 0x24\n 39794: ra = 0x582\n 39798: ecalli 12 // 'seal_return'\n 39800: fallthrough\n      : @1296 [@dyn 705] (gas: 11)\n 39801: sp = sp + 0xffffffffffffffc0\n 39804: u64 [sp + 0x38] = ra\n 39807: u64 [sp + 0x30] = s0\n 39810: u64 [sp + 0x28] = s1\n 39813: s0 = sp + 0x40\n 39816: sp = sp & 0xffffffffffffffe0\n 39819: s1 = a0\n 39821: i32 a0 = sp + 0\n 39823: a1 = 0x24\n 39826: ecalli 2 // 'call_data_load'\n 39828: fallthrough\n      : @1297 (gas: 10)\n 39829: a0 = u64 [sp + 0x10]\n 39832: a1 = u64 [sp + 0x18]\n 39835: a2 = 0x100000000\n 39845: a2 = a2 ^ a0\n 39848: a2 = a2 | a1\n 39851: a3 = a0 >> 0x20\n 39854: a3 = a3 <u 0x1\n 39857: a3 = 0 if a1 != 0\n 39859: a3 = 0 if a2 == 0\n 39861: jump @1299 if a3 == 0\n      : @1298 (gas: 12)\n 39864: a2 = u64 [sp]\n 39866: a3 = u64 [sp + 0x8]\n 39869: u64 [s1] = a2\n 39871: u64 [s1 + 0x8] = a3\n 39874: u64 [s1 + 0x10] = a0\n 39877: u64 [s1 + 0x18] = a1\n 39880: sp = s0 + 0xffffffffffffffc0\n 39883: ra = u64 [sp + 0x38]\n 39886: s0 = u64 [sp + 0x30]\n 39889: s1 = u64 [sp + 0x28]\n 39892: sp = sp + 0x40\n 39895: ret\n      : @1299 (gas: 7)\n 39897: a1 = 0x201a0\n 39902: i32 a1 = a1 + 0\n 39904: a0 = 0x1\n 39907: a2 = 0\n 39909: ra = 0x584\n 39913: ecalli 12 // 'seal_return'\n 39915: fallthrough\n      : @1300 [@dyn 706] (gas: 23)\n 39916: sp = sp + 0xffffffffffffff10\n 39920: u64 [sp + 0xe8] = ra\n 39924: u64 [sp + 0xe0] = s0\n 39928: u64 [sp + 0xd8] = s1\n 39932: s0 = sp + 0xf0\n 39936: sp = sp & 0xfffffffffffffff0\n 39939: s1 = u64 [a1 + 0x10]\n 39942: t0 = u64 [a1 + 0x18]\n 39945: a5 = u64 [a1 + 0x8]\n 39948: a1 = u64 [a1]\n 39950: u64 [sp + 0x68] = a5\n 39953: u64 [sp + 0x58] = t0\n 39956: t1 = a5 | t0\n 39959: t0 = a1\n 39961: a5 = a1 | s1\n 39964: a5 = a5 | t1\n 39967: a5 = a5 >> 0x20\n 39970: u64 [sp + 0x60] = s1\n 39973: a1 = t1 | s1\n 39976: a1 = a1 << 0x20\n 39979: a1 = a1 | a5\n 39982: u64 [sp + 0x50] = a0\n 39985: jump @1307 if a1 != 0\n      : @1301 (gas: 28)\n 39989: a0 = u64 [a4 + 0x18]\n 39992: u64 [sp + 0x18] = a0\n 39995: a0 = u64 [a4 + 0x10]\n 39998: u64 [sp + 0x10] = a0\n 40001: a0 = u64 [a4 + 0x8]\n 40004: u64 [sp + 0x8] = a0\n 40007: a0 = u64 [a4]\n 40009: u64 [sp] = a0\n 40011: a0 = u64 [a3 + 0x18]\n 40014: u64 [sp + 0x48] = a0\n 40017: a0 = u64 [a3 + 0x10]\n 40020: u64 [sp + 0x40] = a0\n 40023: a0 = u64 [a3 + 0x8]\n 40026: u64 [sp + 0x38] = a0\n 40029: a0 = u64 [a3]\n 40031: u64 [sp + 0x30] = a0\n 40034: a0 = u64 [a2 + 0x18]\n 40037: a1 = u64 [a2 + 0x10]\n 40040: a3 = u64 [a2 + 0x8]\n 40043: a2 = u64 [a2]\n 40045: u64 [sp + 0xb0] = a2\n 40049: u64 [sp + 0xb8] = a3\n 40053: u64 [sp + 0xc0] = a1\n 40057: a1 = sp + 0xb0\n 40061: u64 [sp + 0xc8] = a0\n 40065: s1 = t0\n 40067: a0 = t0\n 40069: ra = 1414, jump @4\n      : @1302 [@dyn 707] (gas: 12)\n 40076: a0 = u64 [sp + 0x60]\n 40079: a1 = u64 [sp + 0x58]\n 40082: a2 = a0 | a1\n 40085: a0 = 0x100000000\n 40095: u64 [sp + 0x20] = a0\n 40098: a0 = 0xffffffe0\n 40108: a0 = s1 <u a0\n 40111: a1 = u64 [sp + 0x68]\n 40114: a0 = 0 if a1 != 0\n 40116: u64 [sp + 0x28] = a2\n 40119: a0 = 0 if a2 != 0\n 40121: jump @1307 if a0 == 0\n      : @1303 (gas: 11)\n 40125: i32 a0 = s1 + 0x20\n 40128: a1 = u64 [sp + 0x30]\n 40131: u64 [sp + 0x90] = a1\n 40135: a1 = u64 [sp + 0x38]\n 40138: u64 [sp + 0x98] = a1\n 40142: a1 = u64 [sp + 0x40]\n 40145: u64 [sp + 0xa0] = a1\n 40149: a1 = sp + 0x90\n 40153: a2 = u64 [sp + 0x48]\n 40156: u64 [sp + 0xa8] = a2\n 40160: ra = 1416, jump @4\n      : @1304 [@dyn 708] (gas: 8)\n 40167: a0 = u64 [sp + 0x20]\n 40170: a0 = a0 + 0xffffffffffffffc0\n 40173: a0 = s1 <u a0\n 40176: a1 = u64 [sp + 0x68]\n 40179: a0 = 0 if a1 != 0\n 40181: a1 = u64 [sp + 0x28]\n 40184: a0 = 0 if a1 != 0\n 40186: jump @1307 if a0 == 0\n      : @1305 (gas: 26)\n 40190: a0 = s1 + 0x60\n 40193: u64 [sp + 0x48] = a0\n 40196: a0 = a0 <u s1\n 40199: a1 = u64 [sp + 0x68]\n 40202: a2 = a1 + a0\n 40205: u64 [sp + 0x40] = a2\n 40208: a1 = a2 <u a1\n 40211: a1 = a0 if a0 == 0\n 40214: a0 = u64 [sp + 0x60]\n 40217: a1 = a1 + a0\n 40220: u64 [sp + 0x38] = a1\n 40223: a0 = a1 <u a0\n 40226: a1 = u64 [sp + 0x58]\n 40229: a0 = a0 + a1\n 40232: u64 [sp + 0x68] = a0\n 40235: i32 a0 = s1 + 0x40\n 40238: a1 = u64 [sp]\n 40240: u64 [sp + 0x70] = a1\n 40243: a1 = u64 [sp + 0x8]\n 40246: u64 [sp + 0x78] = a1\n 40249: a1 = u64 [sp + 0x10]\n 40252: u64 [sp + 0x80] = a1\n 40256: a1 = sp + 0x70\n 40259: a2 = u64 [sp + 0x18]\n 40262: u64 [sp + 0x88] = a2\n 40266: ra = 1418, jump @4\n      : @1306 [@dyn 709] (gas: 15)\n 40273: a0 = u64 [sp + 0x50]\n 40276: a1 = u64 [sp + 0x38]\n 40279: u64 [a0 + 0x10] = a1\n 40282: a1 = u64 [sp + 0x40]\n 40285: u64 [a0 + 0x8] = a1\n 40288: a1 = u64 [sp + 0x48]\n 40291: u64 [a0] = a1\n 40293: a1 = u64 [sp + 0x68]\n 40296: u64 [a0 + 0x18] = a1\n 40299: sp = s0 + 0xffffffffffffff10\n 40303: ra = u64 [sp + 0xe8]\n 40307: s0 = u64 [sp + 0xe0]\n 40311: s1 = u64 [sp + 0xd8]\n 40315: sp = sp + 0xf0\n 40319: ret\n      : @1307 (gas: 1)\n 40321: trap\n      : @1308 (gas: 31)\n 40322: sp = sp + 0xfffffffffffffee0\n 40326: u64 [sp + 0x118] = ra\n 40330: u64 [sp + 0x110] = s0\n 40334: u64 [sp + 0x108] = s1\n 40338: s0 = sp + 0x120\n 40342: sp = sp & 0xffffffffffffffe0\n 40345: s1 = sp\n 40347: u64 [s1 + 0x38] = a0\n 40350: a0 = u64 [a2]\n 40352: u64 [s1 + 0x48] = a0\n 40355: a0 = u64 [a2 + 0x8]\n 40358: u64 [s1 + 0x40] = a0\n 40361: a0 = u64 [a2 + 0x10]\n 40364: u64 [s1 + 0x50] = a0\n 40367: a0 = u64 [a2 + 0x18]\n 40370: u64 [s1 + 0x58] = a0\n 40373: a0 = u64 [a1 + 0x18]\n 40376: a2 = u64 [a1 + 0x10]\n 40379: a3 = u64 [a1 + 0x8]\n 40382: a1 = u64 [a1]\n 40384: u64 [s1 + 0x30] = a0\n 40387: u64 [s1 + 0xf8] = a0\n 40391: u64 [s1 + 0x28] = a2\n 40394: u64 [s1 + 0xf0] = a2\n 40398: u64 [s1 + 0x20] = a3\n 40401: u64 [s1 + 0xe8] = a3\n 40405: u64 [s1 + 0x18] = a1\n 40408: u64 [s1 + 0xe0] = a1\n 40412: a0 = s1 + 0xc0\n 40416: a1 = s1 + 0xe0\n 40420: ra = 1420, jump @6\n      : @1309 [@dyn 710] (gas: 16)\n 40427: a0 = u64 [s1 + 0xd8]\n 40431: t0 = u64 [s1 + 0xc0]\n 40435: a2 = u64 [s1 + 0xd0]\n 40439: a3 = u64 [s1 + 0xc8]\n 40443: a1 = u64 [s1 + 0x58]\n 40446: a4 = a0 ^ a1\n 40449: a1 = a1 <u a0\n 40452: a0 = u64 [s1 + 0x50]\n 40455: a5 = a0 <u a2\n 40458: a5 = a1 if a4 != 0\n 40461: a1 = u64 [s1 + 0x40]\n 40464: t1 = a3 ^ a1\n 40467: a3 = a1 <u a3\n 40470: a1 = u64 [s1 + 0x48]\n 40473: a1 = a1 <u t0\n 40476: t0 = 1422, jump @1613\n      : @1310 [@dyn 711] (gas: 1)\n 40482: jump @1315 if a1 == 0\n      : @1311 (gas: 11)\n 40486: a0 = u64 [s1 + 0x18]\n 40489: u64 [s1 + 0x60] = a0\n 40492: a0 = u64 [s1 + 0x20]\n 40495: u64 [s1 + 0x68] = a0\n 40498: a0 = u64 [s1 + 0x28]\n 40501: u64 [s1 + 0x70] = a0\n 40504: a1 = s1 + 0x60\n 40507: a0 = u64 [s1 + 0x30]\n 40510: u64 [s1 + 0x78] = a0\n 40513: a0 = 0\n 40515: ra = 1424, jump @4\n      : @1312 [@dyn 712] (gas: 2)\n 40522: a1 = i32 [0x20194]\n 40527: jump @1314 if a1 >u 31\n      : @1313 (gas: 2)\n 40531: u32 [0x20194] = 0x20\n 40537: fallthrough\n      : @1314 (gas: 52)\n 40538: a0 = sp + 0xffffffffffffffe0\n 40541: a2 = a0 & 0xffffffffffffffe0\n 40544: u64 [s1 + 0x30] = a2\n 40547: sp = a2\n 40549: a0 = 0x201a0\n 40554: i32 a0 = a0 + 0\n 40556: i32 a2 = a2 + 0\n 40558: a1 = 0x20\n 40561: ecalli 7 // 'hash_keccak_256'\n 40563: a3 = u64 [s1 + 0x30]\n 40566: a0 = u64 [a3]\n 40568: a1 = u64 [a3 + 0x8]\n 40571: a2 = u64 [a3 + 0x18]\n 40574: a3 = u64 [a3 + 0x10]\n 40577: t0 = reverse a0\n 40579: a1 = reverse a1\n 40581: a2 = reverse a2\n 40583: a3 = reverse a3\n 40585: a4 = u64 [s1 + 0x40]\n 40588: a4 = a4 + a3\n 40591: t1 = u64 [s1 + 0x48]\n 40594: t1 = t1 + a2\n 40597: a2 = t1 <u a2\n 40600: a4 = a4 + a2\n 40603: a0 = a4 ^ a3\n 40606: a3 = a4 <u a3\n 40609: a3 = a2 if a0 == 0\n 40612: a0 = u64 [s1 + 0x50]\n 40615: a0 = a0 + a1\n 40618: a3 = a3 + a0\n 40621: a2 = a3 <u a0\n 40624: a5 = u64 [s1 + 0x58]\n 40627: t0 = t0 + a5\n 40630: a0 = a0 <u a1\n 40633: a0 = a0 + t0\n 40636: a0 = a0 + a2\n 40639: a1 = u64 [s1 + 0x38]\n 40642: a2 = 0\n 40644: u64 [a1 + 56] = 0\n 40647: u64 [a1 + 48] = 0\n 40650: u64 [a1 + 40] = 0\n 40653: u64 [a1 + 32] = 0\n 40656: u64 [a1] = t1\n 40658: u64 [a1 + 0x8] = a4\n 40661: u64 [a1 + 0x10] = a3\n 40664: u64 [a1 + 0x18] = a0\n 40667: sp = s0 + 0xfffffffffffffee0\n 40671: ra = u64 [sp + 0x118]\n 40675: s0 = u64 [sp + 0x110]\n 40679: s1 = u64 [sp + 0x108]\n 40683: sp = sp + 0x120\n 40687: ret\n      : @1315 (gas: 1)\n 40689: t0 = 1426, jump @1610\n      : @1316 [@dyn 713] (gas: 1)\n 40695: ra = 1428, jump @4\n      : @1317 [@dyn 714] (gas: 7)\n 40702: u64 [s1 + 152] = 0\n 40706: u64 [s1 + 144] = 0\n 40710: u64 [s1 + 128] = 0x32\n 40715: a0 = 0x4\n 40718: a1 = s1 + 0x80\n 40722: u64 [s1 + 136] = 0\n 40726: ra = 1430, jump @4\n      : @1318 [@dyn 715] (gas: 2)\n 40733: a1 = i32 [0x20194]\n 40738: jump @1320 if a1 >u 63\n      : @1319 (gas: 2)\n 40742: u32 [0x20194] = 0x40\n 40748: fallthrough\n      : @1320 (gas: 8)\n 40749: a1 = 0x201a0\n 40754: i32 a1 = a1 + 0\n 40756: a0 = 0x1\n 40759: a2 = 0x24\n 40762: ra = 0x598\n 40766: ecalli 12 // 'seal_return'\n 40768: t0 = 0x59a\n 40772: jump @1600\n      : @1321 [@dyn 716] (gas: 1)\n 40775: t0 = 1434, jump @1600\n      : @1322 [@dyn 717] (gas: 7)\n 40781: t0 = a0 >u 0\n 40783: a4 = t1 <u 0xfffffffffffffec0\n 40787: a4 = a4 ^ 0x1\n 40790: a4 = t0 if a0 != 0\n 40793: a1 = a2 | a3\n 40796: a4 = a5 if a1 != 0\n 40799: jump @1326 if a4 != 0\n      : @1323 (gas: 2)\n 40802: a1 = t1 + 0x140\n 40806: t0 = 1436, jump @1596\n      : @1324 [@dyn 718] (gas: 1)\n 40812: ra = 1438, jump @4\n      : @1325 [@dyn 719] (gas: 5)\n 40819: sp = s0 + 0xffffffffffffff90\n 40822: ra = u64 [sp + 0x68]\n 40825: s0 = u64 [sp + 0x60]\n 40828: sp = sp + 0x70\n 40831: ret\n      : @1326 (gas: 1)\n 40833: t0 = 1440, jump @1580\n      : @1327 [@dyn 720] (gas: 1)\n 40839: ra = 1442, jump @4\n      : @1328 [@dyn 721] (gas: 7)\n 40846: u64 [sp + 24] = 0\n 40849: u64 [sp + 16] = 0\n 40852: u64 [sp + 0] = 0x41\n 40855: a0 = 0x4\n 40858: a1 = sp\n 40860: u64 [sp + 8] = 0\n 40863: ra = 1444, jump @4\n      : @1329 [@dyn 722] (gas: 2)\n 40870: a1 = i32 [0x20194]\n 40875: jump @1331 if a1 >u 63\n      : @1330 (gas: 2)\n 40879: u32 [0x20194] = 0x40\n 40885: fallthrough\n      : @1331 (gas: 8)\n 40886: a1 = 0x201a0\n 40891: i32 a1 = a1 + 0\n 40893: a0 = 0x1\n 40896: a2 = 0x24\n 40899: ra = 0x5a6\n 40903: ecalli 12 // 'seal_return'\n 40905: t0 = 0x5a8\n 40909: jump @1600\n      : @1332 [@dyn 723] (gas: 1)\n 40912: t0 = 1448, jump @1600\n      : @1333 [@dyn 724] (gas: 7)\n 40918: t0 = a0 >u 0\n 40920: a4 = t1 <u 0xffffffffffffff80\n 40923: a4 = a4 ^ 0x1\n 40926: a4 = t0 if a0 != 0\n 40929: a1 = a2 | a3\n 40932: a4 = a5 if a1 != 0\n 40935: jump @1337 if a4 != 0\n      : @1334 (gas: 2)\n 40938: a1 = t1 + 0x80\n 40942: t0 = 1450, jump @1596\n      : @1335 [@dyn 725] (gas: 1)\n 40948: ra = 1452, jump @4\n      : @1336 [@dyn 726] (gas: 5)\n 40955: sp = s0 + 0xffffffffffffff90\n 40958: ra = u64 [sp + 0x68]\n 40961: s0 = u64 [sp + 0x60]\n 40964: sp = sp + 0x70\n 40967: ret\n      : @1337 (gas: 1)\n 40969: t0 = 1454, jump @1580\n      : @1338 [@dyn 727] (gas: 1)\n 40975: ra = 1456, jump @4\n      : @1339 [@dyn 728] (gas: 7)\n 40982: u64 [sp + 24] = 0\n 40985: u64 [sp + 16] = 0\n 40988: u64 [sp + 0] = 0x41\n 40991: a0 = 0x4\n 40994: a1 = sp\n 40996: u64 [sp + 8] = 0\n 40999: ra = 1458, jump @4\n      : @1340 [@dyn 729] (gas: 2)\n 41006: a1 = i32 [0x20194]\n 41011: jump @1342 if a1 >u 63\n      : @1341 (gas: 2)\n 41015: u32 [0x20194] = 0x40\n 41021: fallthrough\n      : @1342 (gas: 7)\n 41022: a1 = 0x201a0\n 41027: i32 a1 = a1 + 0\n 41029: a0 = 0x1\n 41032: a2 = 0x24\n 41035: ra = 0x5b4\n 41039: ecalli 12 // 'seal_return'\n 41041: fallthrough\n      : @1343 [@dyn 730] (gas: 46)\n 41042: sp = sp + 0xffffffffffffff70\n 41046: u64 [sp + 0x88] = ra\n 41050: u64 [sp + 0x80] = s0\n 41054: u64 [sp + 0x78] = s1\n 41057: s0 = sp + 0x90\n 41061: sp = sp & 0xfffffffffffffff0\n 41064: t0 = a0\n 41066: a2 = u64 [a1]\n 41068: t2 = u64 [a0 + 0x8]\n 41071: a5 = u64 [a1 + 0x8]\n 41074: t1 = u64 [a0]\n 41076: a3 = a2 + 0x1f\n 41079: ra = a3 <u a2\n 41082: a2 = a5 + ra\n 41085: a3 = a3 & 0xffffffffffffffe0\n 41088: u64 [sp + 0x8] = t1\n 41091: t1 = t1 + a3\n 41094: a4 = t1 <u a3\n 41097: a3 = a2 + t2\n 41100: a3 = a3 + a4\n 41103: s1 = a3 ^ a2\n 41106: a0 = a3 <u a2\n 41109: a0 = a4 if s1 == 0\n 41112: a4 = u64 [t0 + 0x18]\n 41115: a5 = a2 <u a5\n 41118: s1 = u64 [a1 + 0x10]\n 41121: t0 = u64 [t0 + 0x10]\n 41124: a1 = u64 [a1 + 0x18]\n 41127: a5 = ra if ra == 0\n 41130: a5 = a5 + s1\n 41133: s1 = a5 <u s1\n 41136: a2 = a5 + t0\n 41139: a0 = a0 + a2\n 41142: a5 = a2 <u a5\n 41145: a2 = a0 <u a2\n 41148: a1 = a1 + a4\n 41151: a1 = a1 + s1\n 41154: a1 = a1 + a5\n 41157: a5 = a1 + a2\n 41160: a1 = a5 >u 0\n 41162: a2 = a0 >u 0\n 41164: a2 = a1 if a5 != 0\n 41167: a1 = a0 | a5\n 41170: s1 = a3 >u 0\n 41172: s1 = a2 if a1 != 0\n 41175: jump @1347 if s1 != 0\n      : @1344 (gas: 13)\n 41178: a1 = u64 [sp + 0x8]\n 41181: a1 = t1 <u a1\n 41184: a2 = a3 ^ t2\n 41187: s1 = a3 <u t2\n 41190: s1 = a1 if a2 == 0\n 41193: a1 = a0 <u t0\n 41196: a2 = a5 ^ a4\n 41199: a4 = a5 <u a4\n 41202: a4 = a1 if a2 == 0\n 41205: a1 = a0 ^ t0\n 41208: a1 = a1 | a2\n 41211: a4 = s1 if a1 == 0\n 41214: jump @1347 if a4 != 0\n      : @1345 (gas: 7)\n 41217: u64 [sp + 0x50] = t1\n 41220: u64 [sp + 0x58] = a3\n 41223: u64 [sp + 0x60] = a0\n 41226: a0 = 0x40\n 41229: a1 = sp + 0x50\n 41232: u64 [sp + 0x68] = a5\n 41235: ra = 1462, jump @4\n      : @1346 [@dyn 731] (gas: 6)\n 41242: sp = s0 + 0xffffffffffffff70\n 41246: ra = u64 [sp + 0x88]\n 41250: s0 = u64 [sp + 0x80]\n 41254: s1 = u64 [sp + 0x78]\n 41257: sp = sp + 0x90\n 41261: ret\n      : @1347 (gas: 1)\n 41263: t0 = 1464, jump @1626\n      : @1348 [@dyn 732] (gas: 1)\n 41269: ra = 1466, jump @4\n      : @1349 [@dyn 733] (gas: 7)\n 41276: u64 [sp + 40] = 0\n 41279: u64 [sp + 32] = 0\n 41282: u64 [sp + 16] = 0x41\n 41286: a0 = 0x4\n 41289: a1 = sp + 0x10\n 41292: u64 [sp + 24] = 0\n 41295: ra = 1468, jump @4\n      : @1350 [@dyn 734] (gas: 2)\n 41302: a1 = i32 [0x20194]\n 41307: jump @1352 if a1 >u 63\n      : @1351 (gas: 2)\n 41311: u32 [0x20194] = 0x40\n 41317: fallthrough\n      : @1352 (gas: 7)\n 41318: a1 = 0x201a0\n 41323: i32 a1 = a1 + 0\n 41325: a0 = 0x1\n 41328: a2 = 0x24\n 41331: ra = 0x5be\n 41335: ecalli 12 // 'seal_return'\n 41337: fallthrough\n      : @1353 [@dyn 735] (gas: 14)\n 41338: sp = sp + 0xffffffffffffff00\n 41342: u64 [sp + 0xf8] = ra\n 41346: u64 [sp + 0xf0] = s0\n 41350: u64 [sp + 0xe8] = s1\n 41354: s0 = sp + 0x100\n 41358: sp = sp & 0xfffffffffffffff0\n 41361: a1 = u64 [a0 + 0x10]\n 41364: a2 = u64 [a0 + 0x18]\n 41367: a3 = u64 [a0 + 0x8]\n 41370: a0 = u64 [a0]\n 41372: a2 = a2 | a3\n 41375: a0 = a0 | a1\n 41378: a0 = a0 | a2\n 41381: jump @1355 if a0 == 0\n      : @1354 (gas: 6)\n 41384: sp = s0 + 0xffffffffffffff00\n 41388: ra = u64 [sp + 0xf8]\n 41392: s0 = u64 [sp + 0xf0]\n 41396: s1 = u64 [sp + 0xe8]\n 41400: sp = sp + 0x100\n 41404: ret\n      : @1355 (gas: 3)\n 41406: a0 = sp + 0xc0\n 41410: a1 = 0x40\n 41413: ra = 1472, jump @2\n      : @1356 [@dyn 736] (gas: 15)\n 41420: a2 = u64 [sp + 0xd8]\n 41424: s1 = u64 [sp + 0xd0]\n 41428: a0 = u64 [sp + 0xc8]\n 41432: a1 = u64 [sp + 0xc0]\n 41436: u64 [sp + 0x10] = a0\n 41439: u64 [sp + 0x8] = a2\n 41442: a0 = a0 | a2\n 41445: u64 [sp + 0x18] = a1\n 41448: a1 = a1 | s1\n 41451: a1 = a1 | a0\n 41454: a1 = a1 >> 0x20\n 41457: a0 = a0 | s1\n 41460: a0 = a0 << 0x20\n 41463: a0 = a0 | a1\n 41466: jump @1368 if a0 != 0\n      : @1357 (gas: 8)\n 41470: u64 [sp + 176] = 0\n 41474: u64 [sp + 168] = 0\n 41478: u64 [sp + 160] = 0\n 41482: a0 = 0x8c379a000000000\n 41492: a1 = sp + 0xa0\n 41496: u64 [sp + 0xb8] = a0\n 41500: a0 = u64 [sp + 0x18]\n 41503: ra = 1474, jump @4\n      : @1358 [@dyn 737] (gas: 1)\n 41510: t0 = 1476, jump @1568\n      : @1359 [@dyn 738] (gas: 1)\n 41516: jump @1368 if a0 == 0\n      : @1360 (gas: 8)\n 41520: a0 = u64 [sp + 0x18]\n 41523: i32 a0 = a0 + 0x4\n 41526: u64 [sp + 152] = 0\n 41530: u64 [sp + 144] = 0\n 41534: u64 [sp + 128] = 0x20\n 41539: a1 = sp + 0x80\n 41543: u64 [sp + 136] = 0\n 41547: ra = 1478, jump @4\n      : @1361 [@dyn 739] (gas: 1)\n 41554: t0 = 1480, jump @1581\n      : @1362 [@dyn 740] (gas: 1)\n 41560: jump @1368 if a0 == 0\n      : @1363 (gas: 8)\n 41563: s1 = u64 [sp + 0x18]\n 41566: i32 a0 = s1 + 0x24\n 41569: u64 [sp + 120] = 0\n 41572: u64 [sp + 112] = 0\n 41575: u64 [sp + 96] = 0x21\n 41579: a1 = sp + 0x60\n 41582: u64 [sp + 104] = 0\n 41585: ra = 1482, jump @4\n      : @1364 [@dyn 741] (gas: 3)\n 41592: a0 = 0x100000000\n 41602: u64 [sp] = a0\n 41604: t0 = 1484, jump @1589\n      : @1365 [@dyn 742] (gas: 1)\n 41610: jump @1368 if a0 == 0\n      : @1366 (gas: 12)\n 41613: s1 = u64 [sp + 0x18]\n 41616: i32 a0 = s1 + 0x44\n 41619: a1 = u64 [0x20140]\n 41624: u64 [sp + 0x58] = a1\n 41627: a1 = u64 [0x20148]\n 41632: a2 = u64 [0x20150]\n 41637: a3 = u64 [0x20158]\n 41642: u64 [sp + 0x50] = a1\n 41645: u64 [sp + 0x48] = a2\n 41648: a1 = sp + 0x40\n 41651: u64 [sp + 0x40] = a3\n 41654: ra = 1486, jump @4\n      : @1367 [@dyn 743] (gas: 8)\n 41661: a0 = u64 [sp]\n 41663: a0 = a0 + 0xffffffffffffff9c\n 41666: a0 = s1 <u a0\n 41669: a1 = u64 [sp + 0x10]\n 41672: a0 = 0 if a1 != 0\n 41674: a1 = u64 [sp + 0x8]\n 41677: a0 = 0 if a1 != 0\n 41679: jump @1369 if a0 != 0\n      : @1368 (gas: 1)\n 41682: trap\n      : @1369 (gas: 9)\n 41683: s1 = u64 [sp + 0x18]\n 41686: i32 a0 = s1 + 0x64\n 41689: u64 [sp + 48] = 0\n 41692: u64 [sp + 40] = 0\n 41695: a1 = 0x6e00000000000000\n 41705: u64 [sp + 0x38] = a1\n 41708: a1 = sp + 0x20\n 41711: u64 [sp + 32] = 0\n 41714: ra = 1488, jump @4\n      : @1370 [@dyn 744] (gas: 3)\n 41721: a1 = 0x84\n 41725: a0 = s1\n 41727: ra = 1490, jump @16\n      : @1371 [@dyn 745] (gas: 6)\n 41734: i32 a1 = a0 + 0\n 41736: a0 = 0x1\n 41739: a2 = 0x84\n 41743: ra = 0x5d4\n 41747: ecalli 12 // 'seal_return'\n 41749: fallthrough\n      : @1372 [@dyn 746] (gas: 16)\n 41750: a2 = u64 [a1]\n 41752: t0 = u64 [a1 + 0x18]\n 41755: a3 = u64 [a1 + 0x8]\n 41758: a5 = u64 [a1 + 0x10]\n 41761: a4 = a2 + 0x1\n 41764: a2 = a4 <u 0x1\n 41767: a2 = a2 + a3\n 41770: a3 = a4 | a2\n 41773: a3 = a3 <u 0x1\n 41776: a3 = a3 + a5\n 41779: a5 = a3 <u a5\n 41782: a5 = a5 + t0\n 41785: t0 = a2 | a5\n 41788: a1 = a4 | a3\n 41791: a1 = a1 | t0\n 41794: jump @1374 if a1 == 0\n      : @1373 (gas: 5)\n 41797: u64 [a0] = a4\n 41799: u64 [a0 + 0x8] = a2\n 41802: u64 [a0 + 0x10] = a3\n 41805: u64 [a0 + 0x18] = a5\n 41808: ret\n      : @1374 (gas: 6)\n 41810: sp = sp + 0xffffffffffffffb0\n 41813: u64 [sp + 0x48] = ra\n 41816: u64 [sp + 0x40] = s0\n 41819: s0 = sp + 0x50\n 41822: sp = sp & 0xfffffffffffffff0\n 41825: t0 = 1494, jump @1580\n      : @1375 [@dyn 747] (gas: 1)\n 41831: ra = 1496, jump @4\n      : @1376 [@dyn 748] (gas: 7)\n 41838: u64 [sp + 24] = 0\n 41841: u64 [sp + 16] = 0\n 41844: u64 [sp + 0] = 0x11\n 41847: a0 = 0x4\n 41850: a1 = sp\n 41852: u64 [sp + 8] = 0\n 41855: ra = 1498, jump @4\n      : @1377 [@dyn 749] (gas: 2)\n 41862: a1 = i32 [0x20194]\n 41867: jump @1379 if a1 >u 63\n      : @1378 (gas: 2)\n 41871: u32 [0x20194] = 0x40\n 41877: fallthrough\n      : @1379 (gas: 7)\n 41878: a1 = 0x201a0\n 41883: i32 a1 = a1 + 0\n 41885: a0 = 0x1\n 41888: a2 = 0x24\n 41891: ra = 0x5dc\n 41895: ecalli 12 // 'seal_return'\n 41897: fallthrough\n      : @1380 [@dyn 750] (gas: 45)\n 41898: sp = sp + 0xffffffffffffff90\n 41901: u64 [sp + 0x68] = ra\n 41904: u64 [sp + 0x60] = s0\n 41907: u64 [sp + 0x58] = s1\n 41910: s0 = sp + 0x70\n 41913: sp = sp & 0xfffffffffffffff0\n 41916: a3 = u64 [a1 + 0x18]\n 41919: u64 [sp + 0x8] = a3\n 41922: a4 = u64 [a2 + 0x18]\n 41925: t2 = u64 [a1]\n 41927: u64 [sp] = t2\n 41929: a3 = u64 [a1 + 0x8]\n 41932: s1 = u64 [a2 + 0x8]\n 41935: a5 = u64 [a2]\n 41937: t1 = u64 [a1 + 0x10]\n 41940: t0 = u64 [a2 + 0x10]\n 41943: a2 = s1 + a3\n 41946: t2 = t2 + a5\n 41949: a5 = t2 <u a5\n 41952: a2 = a2 + a5\n 41955: ra = a2 ^ s1\n 41958: s1 = a2 <u s1\n 41961: s1 = a5 if ra == 0\n 41964: a1 = t0 + t1\n 41967: a5 = u64 [sp + 0x8]\n 41970: a5 = a5 + a4\n 41973: a4 = a1 <u t0\n 41976: a4 = a4 + a5\n 41979: a5 = a1 + s1\n 41982: a1 = a5 <u a1\n 41985: ra = a4 + a1\n 41988: a4 = a2 ^ a3\n 41991: a3 = a2 <u a3\n 41994: a1 = u64 [sp]\n 41996: s1 = t2 <u a1\n 41999: s1 = a3 if a4 != 0\n 42002: t0 = a5 <u t1\n 42005: a1 = u64 [sp + 0x8]\n 42008: a4 = ra ^ a1\n 42011: a3 = ra <u a1\n 42014: a3 = t0 if a4 == 0\n 42017: a1 = a5 ^ t1\n 42020: a1 = a1 | a4\n 42023: s1 = a3 if a1 != 0\n 42026: jump @1382 if s1 != 0\n      : @1381 (gas: 10)\n 42029: u64 [a0] = t2\n 42031: u64 [a0 + 0x8] = a2\n 42034: u64 [a0 + 0x10] = a5\n 42037: u64 [a0 + 0x18] = ra\n 42040: sp = s0 + 0xffffffffffffff90\n 42043: ra = u64 [sp + 0x68]\n 42046: s0 = u64 [sp + 0x60]\n 42049: s1 = u64 [sp + 0x58]\n 42052: sp = sp + 0x70\n 42055: ret\n      : @1382 (gas: 1)\n 42057: t0 = 1502, jump @1626\n      : @1383 [@dyn 751] (gas: 1)\n 42063: ra = 1504, jump @4\n      : @1384 [@dyn 752] (gas: 7)\n 42070: u64 [sp + 40] = 0\n 42073: u64 [sp + 32] = 0\n 42076: u64 [sp + 16] = 0x11\n 42080: a0 = 0x4\n 42083: a1 = sp + 0x10\n 42086: u64 [sp + 24] = 0\n 42089: ra = 1506, jump @4\n      : @1385 [@dyn 753] (gas: 2)\n 42096: a1 = i32 [0x20194]\n 42101: jump @1387 if a1 >u 63\n      : @1386 (gas: 2)\n 42105: u32 [0x20194] = 0x40\n 42111: fallthrough\n      : @1387 (gas: 7)\n 42112: a1 = 0x201a0\n 42117: i32 a1 = a1 + 0\n 42119: a0 = 0x1\n 42122: a2 = 0x24\n 42125: ra = 0x5e4\n 42129: ecalli 12 // 'seal_return'\n 42131: fallthrough\n      : @1388 [@dyn 754] (gas: 9)\n 42132: sp = sp + 0xffffffffffffff20\n 42136: u64 [sp + 0xd8] = ra\n 42140: u64 [sp + 0xd0] = s0\n 42144: u64 [sp + 0xc8] = s1\n 42148: s0 = sp + 0xe0\n 42152: sp = sp & 0xffffffffffffffe0\n 42155: s1 = a0\n 42157: ecalli 11 // 'return_data_size'\n 42159: fallthrough\n      : @1389 (gas: 1)\n 42160: jump @1402 if a0 == 0\n      : @1390 (gas: 6)\n 42164: u64 [sp + 0x18] = s1\n 42167: ecalli 11 // 'return_data_size'\n 42169: s1 = a0\n 42171: a0 = sp + 0xa0\n 42175: a1 = 0x40\n 42178: ra = 1510, jump @2\n      : @1391 [@dyn 755] (gas: 28)\n 42185: a2 = u64 [sp + 0xb8]\n 42189: a5 = u64 [sp + 0xb0]\n 42193: u64 [sp + 0x38] = a5\n 42196: t0 = u64 [sp + 0xa8]\n 42200: u64 [sp + 0x30] = t0\n 42203: t1 = u64 [sp + 0xa0]\n 42207: u64 [sp + 0x28] = t1\n 42210: a0 = s1 + 0x1f\n 42213: u64 [sp + 0x20] = s1\n 42216: a1 = a0 <u s1\n 42219: s1 = a2\n 42221: a0 = a0 & 0xffffffffffffffe0\n 42224: a2 = a0 + 0x20\n 42227: a0 = a2 <u a0\n 42230: a3 = a1 + a0\n 42233: a4 = a3 <u a1\n 42236: a4 = a0 if a0 == 0\n 42239: u64 [sp + 120] = 0\n 42242: u64 [sp + 0x60] = a2\n 42245: u64 [sp + 0x98] = s1\n 42249: u64 [sp + 0x90] = a5\n 42253: u64 [sp + 0x88] = t0\n 42257: u64 [sp + 0x80] = t1\n 42261: u64 [sp + 0x68] = a3\n 42264: a0 = sp + 0x80\n 42268: a1 = sp + 0x60\n 42271: u64 [sp + 0x70] = a4\n 42274: ra = 1512, jump @1343\n      : @1392 [@dyn 756] (gas: 5)\n 42280: a0 = u64 [sp + 0x28]\n 42283: a2 = u64 [sp + 0x30]\n 42286: a2 = a2 | s1\n 42289: a3 = u64 [sp + 0x38]\n 42292: t0 = 1514, jump @1601\n      : @1393 [@dyn 757] (gas: 1)\n 42298: jump @1401 if a1 != 0\n      : @1394 (gas: 7)\n 42302: u64 [sp + 88] = 0\n 42305: u64 [sp + 80] = 0\n 42308: u64 [sp + 72] = 0\n 42311: a1 = sp + 0x40\n 42314: a2 = u64 [sp + 0x20]\n 42317: u64 [sp + 0x40] = a2\n 42320: ra = 1516, jump @4\n      : @1395 [@dyn 758] (gas: 2)\n 42327: ecalli 11 // 'return_data_size'\n 42329: fallthrough\n      : @1396 (gas: 10)\n 42330: a3 = u64 [sp + 0x28]\n 42333: u64 [sp + 0x20] = s1\n 42336: a1 = u64 [sp + 0x38]\n 42339: a1 = a1 | s1\n 42342: a2 = 0xffffffe0\n 42352: a2 = a3 <u a2\n 42355: a4 = u64 [sp + 0x30]\n 42358: a2 = 0 if a4 != 0\n 42360: a2 = 0 if a1 != 0\n 42362: jump @1401 if a2 == 0\n      : @1397 (gas: 3)\n 42365: s1 = a0\n 42367: a0 = a0 >> 0x20\n 42370: jump @1401 if a0 != 0\n      : @1398 (gas: 5)\n 42373: i32 a0 = a3 + 0x20\n 42376: i32 a1 = s1 + 0\n 42378: u64 [sp + 0x10] = a1\n 42381: a1 = s1\n 42383: ra = 1518, jump @16\n      : @1399 [@dyn 759] (gas: 6)\n 42390: u32 [sp + 0xc0] = s1\n 42394: i32 a0 = a0 + 0\n 42396: i32 a1 = sp + 0xc0\n 42400: a2 = 0\n 42402: ecalli 10 // 'return_data_copy'\n 42404: fallthrough\n      : @1400 (gas: 8)\n 42405: a4 = u64 [sp + 0x28]\n 42408: a0 = i32 [sp + 0xc0]\n 42412: s1 = u64 [sp + 0x18]\n 42415: a1 = u64 [sp + 0x20]\n 42418: a2 = u64 [sp + 0x38]\n 42421: a3 = u64 [sp + 0x30]\n 42424: a5 = u64 [sp + 0x10]\n 42427: jump @1403 if a0 >=u a5\n      : @1401 (gas: 1)\n 42430: trap\n      : @1402 (gas: 5)\n 42431: a3 = 0\n 42433: a2 = 0\n 42435: a1 = 0\n 42437: a4 = 0x60\n 42440: fallthrough\n      : @1403 (gas: 5)\n 42441: u64 [s1] = a4\n 42443: u64 [s1 + 0x8] = a3\n 42446: u64 [s1 + 0x10] = a2\n 42449: u64 [s1 + 0x18] = a1\n 42452: t0 = 1520, jump @1624\n      : @1404 [@dyn 760] (gas: 1)\n 42458: ret\n      : @1405 [@dyn 761] (gas: 1)\n 42460: jump @1408 if a0 == 0\n      : @1406 (gas: 1)\n 42463: t0 = 1524, jump @1624\n      : @1407 [@dyn 762] (gas: 1)\n 42469: ret\n      : @1408 (gas: 3)\n 42471: a0 = sp + 0xa0\n 42475: a1 = 0x40\n 42478: ra = 1526, jump @2\n      : @1409 [@dyn 763] (gas: 1)\n 42485: t0 = 1528, jump @1583\n      : @1410 [@dyn 764] (gas: 1)\n 42491: jump @1422 if a0 != 0\n      : @1411 (gas: 1)\n 42494: t0 = 1530, jump @1599\n      : @1412 [@dyn 765] (gas: 1)\n 42500: ra = 1532, jump @4\n      : @1413 [@dyn 766] (gas: 1)\n 42507: t0 = 1534, jump @1568\n      : @1414 [@dyn 767] (gas: 1)\n 42513: jump @1422 if a0 == 0\n      : @1415 (gas: 1)\n 42516: t0 = 1536, jump @1614\n      : @1416 [@dyn 768] (gas: 1)\n 42522: ra = 1538, jump @4\n      : @1417 [@dyn 769] (gas: 1)\n 42529: t0 = 1540, jump @1581\n      : @1418 [@dyn 770] (gas: 1)\n 42535: jump @1422 if a0 == 0\n      : @1419 (gas: 8)\n 42538: s1 = u64 [sp + 0x18]\n 42541: i32 a0 = s1 + 0x24\n 42544: u64 [sp + 88] = 0\n 42547: u64 [sp + 80] = 0\n 42550: u64 [sp + 64] = 0xf\n 42554: a1 = sp + 0x40\n 42557: u64 [sp + 72] = 0\n 42560: ra = 1542, jump @4\n      : @1420 [@dyn 771] (gas: 1)\n 42567: t0 = 1544, jump @1589\n      : @1421 [@dyn 772] (gas: 1)\n 42573: jump @1423 if a0 != 0\n      : @1422 (gas: 1)\n 42576: trap\n      : @1423 (gas: 10)\n 42577: s1 = u64 [sp + 0x18]\n 42580: i32 a0 = s1 + 0x44\n 42583: a1 = u64 [0x20160]\n 42588: a2 = u64 [0x20168]\n 42593: u64 [sp + 0x38] = a1\n 42596: u64 [sp + 40] = 0\n 42599: u64 [sp + 0x30] = a2\n 42602: a1 = sp + 0x20\n 42605: u64 [sp + 32] = 0\n 42608: ra = 1546, jump @4\n      : @1424 [@dyn 773] (gas: 3)\n 42615: a1 = 0x64\n 42618: a0 = s1\n 42620: ra = 1548, jump @16\n      : @1425 [@dyn 774] (gas: 7)\n 42627: i32 a1 = a0 + 0\n 42629: a0 = 0x1\n 42632: a2 = 0x64\n 42635: ra = 0x60e\n 42639: ecalli 12 // 'seal_return'\n 42641: t0 = 0x610\n 42645: jump @1586\n      : @1426 [@dyn 775] (gas: 1)\n 42648: t0 = 1552, jump @1586\n      : @1427 [@dyn 776] (gas: 1)\n 42654: jump @1430 if a0 == 0\n      : @1428 (gas: 1)\n 42657: t0 = 1554, jump @1624\n      : @1429 [@dyn 777] (gas: 1)\n 42663: ret\n      : @1430 (gas: 3)\n 42665: a0 = sp + 0xa0\n 42669: a1 = 0x40\n 42672: ra = 1556, jump @2\n      : @1431 [@dyn 778] (gas: 1)\n 42679: t0 = 1558, jump @1583\n      : @1432 [@dyn 779] (gas: 1)\n 42685: jump @1444 if a0 != 0\n      : @1433 (gas: 1)\n 42688: t0 = 1560, jump @1599\n      : @1434 [@dyn 780] (gas: 1)\n 42694: ra = 1562, jump @4\n      : @1435 [@dyn 781] (gas: 1)\n 42701: t0 = 1564, jump @1568\n      : @1436 [@dyn 782] (gas: 1)\n 42707: jump @1444 if a0 == 0\n      : @1437 (gas: 1)\n 42710: t0 = 1566, jump @1614\n      : @1438 [@dyn 783] (gas: 1)\n 42716: ra = 1568, jump @4\n      : @1439 [@dyn 784] (gas: 1)\n 42723: t0 = 1570, jump @1581\n      : @1440 [@dyn 785] (gas: 1)\n 42729: jump @1444 if a0 == 0\n      : @1441 (gas: 8)\n 42732: s1 = u64 [sp + 0x18]\n 42735: i32 a0 = s1 + 0x24\n 42738: u64 [sp + 88] = 0\n 42741: u64 [sp + 80] = 0\n 42744: u64 [sp + 64] = 0x13\n 42748: a1 = sp + 0x40\n 42751: u64 [sp + 72] = 0\n 42754: ra = 1572, jump @4\n      : @1442 [@dyn 786] (gas: 1)\n 42761: t0 = 1574, jump @1589\n      : @1443 [@dyn 787] (gas: 1)\n 42767: jump @1445 if a0 != 0\n      : @1444 (gas: 1)\n 42770: trap\n      : @1445 (gas: 11)\n 42771: s1 = u64 [sp + 0x18]\n 42774: i32 a0 = s1 + 0x44\n 42777: a1 = u64 [0x20170]\n 42782: a2 = u64 [0x20178]\n 42787: u64 [sp + 0x38] = a1\n 42790: u64 [sp + 0x30] = a2\n 42793: a1 = 0x6973740000000000\n 42803: u64 [sp + 0x28] = a1\n 42806: a1 = sp + 0x20\n 42809: u64 [sp + 32] = 0\n 42812: ra = 1576, jump @4\n      : @1446 [@dyn 788] (gas: 3)\n 42819: a1 = 0x64\n 42822: a0 = s1\n 42824: ra = 1578, jump @16\n      : @1447 [@dyn 789] (gas: 7)\n 42831: i32 a1 = a0 + 0\n 42833: a0 = 0x1\n 42836: a2 = 0x64\n 42839: ra = 0x62c\n 42843: ecalli 12 // 'seal_return'\n 42845: t0 = 0x62e\n 42849: jump @1586\n      : @1448 [@dyn 790] (gas: 1)\n 42852: t0 = 1582, jump @1586\n      : @1449 [@dyn 791] (gas: 1)\n 42858: jump @1452 if a0 == 0\n      : @1450 (gas: 1)\n 42861: t0 = 1584, jump @1624\n      : @1451 [@dyn 792] (gas: 1)\n 42867: ret\n      : @1452 (gas: 3)\n 42869: a0 = sp + 0xa0\n 42873: a1 = 0x40\n 42876: ra = 1586, jump @2\n      : @1453 [@dyn 793] (gas: 1)\n 42883: t0 = 1588, jump @1583\n      : @1454 [@dyn 794] (gas: 1)\n 42889: jump @1466 if a0 != 0\n      : @1455 (gas: 1)\n 42892: t0 = 1590, jump @1599\n      : @1456 [@dyn 795] (gas: 1)\n 42898: ra = 1592, jump @4\n      : @1457 [@dyn 796] (gas: 1)\n 42905: t0 = 1594, jump @1568\n      : @1458 [@dyn 797] (gas: 1)\n 42911: jump @1466 if a0 == 0\n      : @1459 (gas: 1)\n 42914: t0 = 1596, jump @1614\n      : @1460 [@dyn 798] (gas: 1)\n 42920: ra = 1598, jump @4\n      : @1461 [@dyn 799] (gas: 1)\n 42927: t0 = 1600, jump @1581\n      : @1462 [@dyn 800] (gas: 1)\n 42933: jump @1466 if a0 == 0\n      : @1463 (gas: 8)\n 42936: s1 = u64 [sp + 0x18]\n 42939: i32 a0 = s1 + 0x24\n 42942: u64 [sp + 88] = 0\n 42945: u64 [sp + 80] = 0\n 42948: u64 [sp + 64] = 0x12\n 42952: a1 = sp + 0x40\n 42955: u64 [sp + 72] = 0\n 42958: ra = 1602, jump @4\n      : @1464 [@dyn 801] (gas: 1)\n 42965: t0 = 1604, jump @1589\n      : @1465 [@dyn 802] (gas: 1)\n 42971: jump @1467 if a0 != 0\n      : @1466 (gas: 1)\n 42974: trap\n      : @1467 (gas: 11)\n 42975: s1 = u64 [sp + 0x18]\n 42978: i32 a0 = s1 + 0x44\n 42981: a1 = u64 [0x20180]\n 42986: a2 = u64 [0x20188]\n 42991: u64 [sp + 0x38] = a1\n 42994: u64 [sp + 0x30] = a2\n 42997: a1 = 0x6564000000000000\n 43007: u64 [sp + 0x28] = a1\n 43010: a1 = sp + 0x20\n 43013: u64 [sp + 32] = 0\n 43016: ra = 1606, jump @4\n      : @1468 [@dyn 803] (gas: 3)\n 43023: a1 = 0x64\n 43026: a0 = s1\n 43028: ra = 1608, jump @16\n      : @1469 [@dyn 804] (gas: 6)\n 43035: i32 a1 = a0 + 0\n 43037: a0 = 0x1\n 43040: a2 = 0x64\n 43043: ra = 0x64a\n 43047: ecalli 12 // 'seal_return'\n 43049: fallthrough\n      : @1470 [@dyn 805] (gas: 22)\n 43050: sp = sp + 0xffffffffffffff40\n 43054: u64 [sp + 0xb8] = ra\n 43058: u64 [sp + 0xb0] = s0\n 43062: u64 [sp + 0xa8] = s1\n 43066: s0 = sp + 0xc0\n 43070: sp = sp & 0xfffffffffffffff0\n 43073: a4 = u64 [a1 + 0x10]\n 43076: a3 = u64 [a1 + 0x18]\n 43079: a5 = u64 [a1 + 0x8]\n 43082: a1 = u64 [a1]\n 43084: u64 [sp + 0x28] = a3\n 43087: u64 [sp + 0x20] = a5\n 43090: a5 = a5 | a3\n 43093: a3 = a1 | a4\n 43096: a3 = a3 | a5\n 43099: a3 = a3 >> 0x20\n 43102: u64 [sp + 0x30] = a4\n 43105: a4 = a4 | a5\n 43108: a4 = a4 << 0x20\n 43111: a3 = a3 | a4\n 43114: u64 [sp + 0x38] = a0\n 43117: jump @1474 if a3 != 0\n      : @1471 (gas: 10)\n 43121: a0 = u64 [a2 + 0x18]\n 43124: u64 [sp + 0x10] = a0\n 43127: s1 = u64 [a2 + 0x10]\n 43130: a0 = u64 [a2 + 0x8]\n 43133: u64 [sp + 0x8] = a0\n 43136: a0 = u64 [a2]\n 43138: u64 [sp] = a0\n 43140: a0 = sp + 0x80\n 43144: u64 [sp + 0x18] = a1\n 43147: ra = 1612, jump @2\n      : @1472 [@dyn 806] (gas: 19)\n 43154: t0 = u64 [sp + 0x10]\n 43157: a5 = u64 [sp + 0x8]\n 43160: t1 = u64 [sp]\n 43162: a0 = u64 [sp + 0x88]\n 43166: a1 = u64 [sp + 0x98]\n 43170: a2 = u64 [sp + 0x80]\n 43174: a3 = u64 [sp + 0x90]\n 43178: a4 = a0 ^ a5\n 43181: a0 = a5 <u a0\n 43184: a2 = t1 <u a2\n 43187: a2 = a0 if a4 != 0\n 43190: a0 = s1 <u a3\n 43193: a4 = a1 ^ t0\n 43196: a1 = t0 <u a1\n 43199: a1 = a0 if a4 == 0\n 43202: a3 = a3 ^ s1\n 43205: a3 = a3 | a4\n 43208: a1 = a2 if a3 == 0\n 43211: jump @1475 if a1 == 0\n      : @1473 (gas: 47)\n 43215: a0 = s1 >> 0x3b\n 43218: a1 = t0 << 0x5\n 43221: t0 = a1 | a0\n 43224: a1 = a5 >> 0x3b\n 43227: s1 = s1 << 0x5\n 43230: a1 = a1 | s1\n 43233: a2 = t1 >> 0x3b\n 43236: a3 = a5 << 0x5\n 43239: a2 = a2 | a3\n 43242: a3 = t1 << 0x5\n 43245: a0 = u64 [sp + 0x18]\n 43248: a3 = a3 + a0\n 43251: a4 = a3 <u a0\n 43254: a5 = u64 [sp + 0x20]\n 43257: a2 = a2 + a5\n 43260: a2 = a2 + a4\n 43263: a0 = a2 ^ a5\n 43266: s1 = a2 <u a5\n 43269: s1 = a4 if a0 == 0\n 43272: a5 = u64 [sp + 0x30]\n 43275: a1 = a1 + a5\n 43278: s1 = s1 + a1\n 43281: a4 = s1 <u a1\n 43284: a1 = a1 <u a5\n 43287: a5 = u64 [sp + 0x28]\n 43290: a0 = a5 + t0\n 43293: a0 = a0 + a1\n 43296: a0 = a0 + a4\n 43299: a1 = a3 + 0x20\n 43302: a3 = a1 <u a3\n 43305: a4 = a2 + a3\n 43308: a2 = a4 <u a2\n 43311: a2 = a3 if a3 == 0\n 43314: a2 = a2 + s1\n 43317: a3 = a2 <u s1\n 43320: a0 = a0 + a3\n 43323: a3 = u64 [sp + 0x38]\n 43326: u64 [a3] = a1\n 43328: u64 [a3 + 0x8] = a4\n 43331: u64 [a3 + 0x10] = a2\n 43334: u64 [a3 + 0x18] = a0\n 43337: sp = s0 + 0xffffffffffffff40\n 43341: ra = u64 [sp + 0xb8]\n 43345: s0 = u64 [sp + 0xb0]\n 43349: s1 = u64 [sp + 0xa8]\n 43353: sp = sp + 0xc0\n 43357: ret\n      : @1474 (gas: 1)\n 43359: trap\n      : @1475 (gas: 8)\n 43360: u64 [sp + 112] = 0\n 43363: u64 [sp + 104] = 0\n 43366: u64 [sp + 96] = 0\n 43369: a0 = 0x4e487b7100000000\n 43379: a1 = sp + 0x60\n 43382: u64 [sp + 0x78] = a0\n 43385: a0 = 0\n 43387: ra = 1614, jump @4\n      : @1476 [@dyn 807] (gas: 7)\n 43394: u64 [sp + 88] = 0\n 43397: u64 [sp + 80] = 0\n 43400: u64 [sp + 64] = 0x32\n 43404: a0 = 0x4\n 43407: a1 = sp + 0x40\n 43410: u64 [sp + 72] = 0\n 43413: ra = 1616, jump @4\n      : @1477 [@dyn 808] (gas: 2)\n 43420: a1 = i32 [0x20194]\n 43425: jump @1479 if a1 >u 63\n      : @1478 (gas: 2)\n 43429: u32 [0x20194] = 0x40\n 43435: fallthrough\n      : @1479 (gas: 7)\n 43436: a1 = 0x201a0\n 43441: i32 a1 = a1 + 0\n 43443: a0 = 0x1\n 43446: a2 = 0x24\n 43449: ra = 0x652\n 43453: ecalli 12 // 'seal_return'\n 43455: fallthrough\n      : @1480 [@dyn 809] (gas: 24)\n 43456: sp = sp + 0xfffffffffffffa40\n 43460: a2 = sp + 0x500\n 43464: u64 [a2 + 0xb8] = ra\n 43468: u64 [a2 + 0xb0] = s0\n 43472: u64 [a2 + 0xa8] = s1\n 43476: s0 = sp + 0x5c0\n 43480: sp = sp & 0xffffffffffffffe0\n 43483: s1 = sp\n 43485: a2 = u64 [a1]\n 43487: a3 = u64 [a1 + 0x8]\n 43490: a4 = u64 [a1 + 0x10]\n 43493: a1 = u64 [a1 + 0x18]\n 43496: u64 [s1 + 0x40] = a0\n 43499: u64 [s1 + 0x70] = a1\n 43502: u64 [s1 + 0x438] = a1\n 43506: u64 [s1 + 0x58] = a4\n 43509: u64 [s1 + 0x430] = a4\n 43513: u64 [s1 + 0x60] = a3\n 43516: u64 [s1 + 0x428] = a3\n 43520: a1 = s1 + 0x420\n 43524: u64 [s1 + 0x68] = a2\n 43527: u64 [s1 + 0x420] = a2\n 43531: a0 = 0\n 43533: ra = 1620, jump @4\n      : @1481 [@dyn 810] (gas: 7)\n 43540: u64 [s1 + 1048] = 0\n 43544: u64 [s1 + 1040] = 0\n 43548: u64 [s1 + 1024] = 0x2\n 43553: a0 = 0x20\n 43556: a1 = s1 + 0x400\n 43560: u64 [s1 + 1032] = 0\n 43564: ra = 1622, jump @4\n      : @1482 [@dyn 811] (gas: 3)\n 43571: a2 = 0x20194\n 43576: a0 = i32 [0x20194]\n 43581: jump @1484 if a0 >u 63\n      : @1483 (gas: 2)\n 43585: u32 [0x20194] = 0x40\n 43591: fallthrough\n      : @1484 (gas: 13)\n 43592: u64 [s1 + 0x28] = a2\n 43595: a0 = sp + 0xffffffffffffffe0\n 43598: a2 = a0 & 0xffffffffffffffe0\n 43601: u64 [s1 + 0x78] = a2\n 43604: sp = a2\n 43606: a0 = 0x201a0\n 43611: i32 a0 = a0 + 0\n 43613: i32 a2 = a2 + 0\n 43615: a1 = 0x40\n 43618: u64 [s1 + 0x20] = a0\n 43621: ra = 0x658\n 43625: ecalli 7 // 'hash_keccak_256'\n 43627: fallthrough\n      : @1485 [@dyn 812] (gas: 6)\n 43628: a3 = u64 [s1 + 0x78]\n 43631: a0 = u64 [a3 + 0x18]\n 43634: a1 = u64 [a3 + 0x10]\n 43637: a2 = u64 [a3 + 0x8]\n 43640: a3 = u64 [a3]\n 43642: t0 = 1626, jump @1606\n      : @1486 [@dyn 813] (gas: 8)\n 43648: a4 = s1 + 0x400\n 43652: u64 [a4 + 0x58] = a3\n 43655: u64 [a4 + 0x50] = a2\n 43658: u64 [a4 + 0x48] = a1\n 43661: u64 [a4 + 0x40] = a0\n 43664: a0 = s1 + 0x3e0\n 43668: a1 = s1 + 0x440\n 43672: ra = 1628, jump @6\n      : @1487 [@dyn 814] (gas: 9)\n 43679: a4 = s1 + 0x300\n 43683: a0 = u64 [a4 + 0xf0]\n 43687: a1 = u64 [a4 + 0xf8]\n 43691: a2 = u64 [a4 + 0xe8]\n 43695: a3 = u64 [a4 + 0xe0]\n 43699: a1 = a1 | a2\n 43702: a0 = a0 | a3\n 43705: a0 = a0 | a1\n 43708: jump @1549 if a0 == 0\n      : @1488 (gas: 11)\n 43712: a0 = u64 [s1 + 0x68]\n 43715: u64 [s1 + 0x3c0] = a0\n 43719: a0 = u64 [s1 + 0x60]\n 43722: u64 [s1 + 0x3c8] = a0\n 43726: a0 = u64 [s1 + 0x58]\n 43729: u64 [s1 + 0x3d0] = a0\n 43733: a1 = s1 + 0x3c0\n 43737: a0 = u64 [s1 + 0x70]\n 43740: u64 [s1 + 0x3d8] = a0\n 43744: a0 = 0\n 43746: ra = 1630, jump @4\n      : @1489 [@dyn 815] (gas: 7)\n 43753: u64 [s1 + 952] = 0\n 43757: u64 [s1 + 944] = 0\n 43761: u64 [s1 + 928] = 0x2\n 43766: a0 = 0x20\n 43769: a1 = s1 + 0x3a0\n 43773: u64 [s1 + 936] = 0\n 43777: ra = 1632, jump @4\n      : @1490 [@dyn 816] (gas: 7)\n 43784: a0 = sp + 0xffffffffffffffe0\n 43787: a0 = a0 & 0xffffffffffffffe0\n 43790: u64 [s1 + 0x48] = a0\n 43793: sp = a0\n 43795: a2 = u64 [s1 + 0x28]\n 43798: a0 = i32 [a2]\n 43800: jump @1492 if a0 >u 63\n      : @1491 (gas: 2)\n 43804: u32 [a2 + 0] = 0x40\n 43807: fallthrough\n      : @1492 (gas: 12)\n 43808: a0 = sp + 0xffffffffffffffe0\n 43811: a0 = a0 & 0xffffffffffffffe0\n 43814: u64 [s1 + 0x78] = a0\n 43817: sp = a0\n 43819: i32 a2 = a0 + 0\n 43821: a1 = 0x40\n 43824: a0 = u64 [s1 + 0x20]\n 43827: ra = 0x662\n 43831: ecalli 7 // 'hash_keccak_256'\n 43833: a3 = u64 [s1 + 0x78]\n 43836: t0 = 0x664\n 43840: jump @1592\n      : @1493 [@dyn 817] (gas: 2)\n 43843: a3 = u64 [s1 + 0x78]\n 43846: t0 = 1636, jump @1592\n      : @1494 [@dyn 818] (gas: 12)\n 43852: u64 [s1 + 0x60] = a1\n 43855: a2 = u64 [s1 + 0x48]\n 43858: u64 [a2 + 0x18] = a1\n 43861: u64 [s1 + 0x68] = a0\n 43864: u64 [a2 + 0x10] = a0\n 43867: u64 [s1 + 0x58] = a4\n 43870: u64 [a2 + 0x8] = a4\n 43873: u64 [s1 + 0x50] = a5\n 43876: u64 [a2] = a5\n 43878: a0 = s1 + 0x380\n 43882: a1 = 0x40\n 43885: ra = 1638, jump @2\n      : @1495 [@dyn 819] (gas: 17)\n 43892: a4 = s1 + 0x300\n 43896: a0 = u64 [a4 + 0x98]\n 43900: u64 [s1 + 0x38] = a0\n 43903: a1 = u64 [a4 + 0x90]\n 43907: u64 [s1 + 0x30] = a1\n 43910: a3 = u64 [a4 + 0x88]\n 43914: u64 [s1 + 0x70] = a3\n 43917: a2 = u64 [a4 + 0x80]\n 43921: u64 [s1 + 0x78] = a2\n 43924: u64 [a4 + 0x78] = a0\n 43927: u64 [a4 + 0x70] = a1\n 43930: u64 [a4 + 0x68] = a3\n 43933: a0 = s1 + 0x360\n 43937: u64 [a4 + 0x60] = a2\n 43940: ra = 0x668\n 43944: t0 = 0x59a\n 43948: jump @1600\n      : @1496 [@dyn 820] (gas: 3)\n 43951: a0 = s1 + 0x340\n 43955: a1 = u64 [s1 + 0x48]\n 43958: ra = 1642, jump @6\n      : @1497 [@dyn 821] (gas: 6)\n 43965: a0 = u64 [s1 + 0x38]\n 43968: a1 = u64 [s1 + 0x70]\n 43971: a0 = a0 | a1\n 43974: a2 = u64 [s1 + 0x30]\n 43977: a1 = u64 [s1 + 0x78]\n 43980: t0 = 1644, jump @1631\n      : @1498 [@dyn 822] (gas: 1)\n 43986: jump @1552 if a0 != 0\n      : @1499 (gas: 12)\n 43990: a4 = s1 + 0x300\n 43994: a0 = u64 [a4 + 0x58]\n 43997: a1 = u64 [a4 + 0x50]\n 44000: a2 = u64 [a4 + 0x48]\n 44003: a3 = u64 [a4 + 0x40]\n 44006: u64 [a4 + 0x20] = a3\n 44009: u64 [a4 + 0x28] = a2\n 44012: u64 [a4 + 0x30] = a1\n 44015: a1 = s1 + 0x320\n 44019: u64 [a4 + 0x38] = a0\n 44022: a0 = u64 [s1 + 0x78]\n 44025: ra = 1646, jump @4\n      : @1500 [@dyn 823] (gas: 20)\n 44032: a0 = u64 [s1 + 0x50]\n 44035: a0 = a0 + 0x1\n 44038: a1 = a0 <u 0x1\n 44041: a2 = u64 [s1 + 0x58]\n 44044: a1 = a1 + a2\n 44047: a2 = a0 | a1\n 44050: a2 = a2 <u 0x1\n 44053: a3 = u64 [s1 + 0x68]\n 44056: a2 = a2 + a3\n 44059: a3 = a2 <u a3\n 44062: a4 = u64 [s1 + 0x60]\n 44065: a3 = a3 + a4\n 44068: a4 = s1 + 0x400\n 44072: u64 [a4 + 0x68] = a1\n 44075: u64 [a4 + 0x60] = a0\n 44078: u64 [a4 + 0x70] = a2\n 44081: u64 [a4 + 0x78] = a3\n 44084: a0 = s1 + 0x300\n 44088: a1 = s1 + 0x460\n 44092: ra = 1648, jump @6\n      : @1501 [@dyn 824] (gas: 13)\n 44099: a0 = u64 [s1 + 0x38]\n 44102: a2 = u64 [s1 + 0x30]\n 44105: a2 = a2 | a0\n 44108: a0 = 0x100000000\n 44118: u64 [s1 + 0x38] = a0\n 44121: a0 = 0xffffffe0\n 44131: a1 = u64 [s1 + 0x78]\n 44134: a0 = a1 <u a0\n 44137: a1 = u64 [s1 + 0x70]\n 44140: a0 = 0 if a1 != 0\n 44142: u64 [s1 + 0x48] = a2\n 44145: a0 = 0 if a2 != 0\n 44147: jump @1552 if a0 == 0\n      : @1502 (gas: 14)\n 44151: a0 = s1 + 0x300\n 44155: a2 = u64 [a0 + 0x18]\n 44158: a1 = u64 [a0 + 0x10]\n 44161: a3 = u64 [a0 + 0x8]\n 44164: a4 = u64 [a0]\n 44166: a0 = u64 [s1 + 0x78]\n 44169: i32 a0 = a0 + 0x20\n 44172: a5 = s1 + 0x200\n 44176: u64 [a5 + 0xe0] = a4\n 44180: u64 [a5 + 0xe8] = a3\n 44184: u64 [a5 + 0xf0] = a1\n 44188: a1 = s1 + 0x2e0\n 44192: u64 [a5 + 0xf8] = a2\n 44196: ra = 1650, jump @4\n      : @1503 [@dyn 825] (gas: 3)\n 44203: a1 = u64 [s1 + 0x50]\n 44206: a0 = a1 + 0x2\n 44209: t0 = 1652, jump @1566\n      : @1504 [@dyn 826] (gas: 7)\n 44215: u64 [a4 + 0x88] = a2\n 44219: u64 [a4 + 0x80] = a0\n 44223: u64 [a4 + 0x90] = a3\n 44227: u64 [a4 + 0x98] = a1\n 44231: a0 = s1 + 0x2c0\n 44235: a1 = s1 + 0x480\n 44239: ra = 1654, jump @6\n      : @1505 [@dyn 827] (gas: 3)\n 44246: a0 = u64 [s1 + 0x38]\n 44249: a0 = a0 + 0xffffffffffffffc0\n 44252: t0 = 1656, jump @1569\n      : @1506 [@dyn 828] (gas: 1)\n 44258: jump @1552 if a0 == 0\n      : @1507 (gas: 14)\n 44262: a5 = s1 + 0x200\n 44266: a4 = u64 [a5 + 0xd8]\n 44270: a1 = u64 [a5 + 0xd0]\n 44274: a2 = u64 [a5 + 0xc8]\n 44278: a3 = u64 [a5 + 0xc0]\n 44282: a0 = u64 [s1 + 0x78]\n 44285: i32 a0 = a0 + 0x40\n 44288: u64 [a5 + 0xa0] = a3\n 44292: u64 [a5 + 0xa8] = a2\n 44296: u64 [a5 + 0xb0] = a1\n 44300: a1 = s1 + 0x2a0\n 44304: u64 [a5 + 0xb8] = a4\n 44308: u64 [s1 + 0x18] = a0\n 44311: ra = 1658, jump @4\n      : @1508 [@dyn 829] (gas: 3)\n 44318: a1 = u64 [s1 + 0x50]\n 44321: a0 = a1 + 0x3\n 44324: t0 = 1660, jump @1566\n      : @1509 [@dyn 830] (gas: 7)\n 44330: u64 [a4 + 0xa8] = a2\n 44334: u64 [a4 + 0xa0] = a0\n 44338: u64 [a4 + 0xb0] = a3\n 44342: u64 [a4 + 0xb8] = a1\n 44346: a0 = s1 + 0x280\n 44350: a1 = s1 + 0x4a0\n 44354: ra = 1662, jump @6\n      : @1510 [@dyn 831] (gas: 4)\n 44361: a0 = 0x100000000\n 44371: u64 [s1 + 0x38] = a0\n 44374: a0 = 0xffffffa0\n 44384: t0 = 1664, jump @1569\n      : @1511 [@dyn 832] (gas: 1)\n 44390: jump @1552 if a0 == 0\n      : @1512 (gas: 14)\n 44394: a5 = s1 + 0x200\n 44398: a4 = u64 [a5 + 0x98]\n 44402: a1 = u64 [a5 + 0x90]\n 44406: a2 = u64 [a5 + 0x88]\n 44410: a3 = u64 [a5 + 0x80]\n 44414: a0 = u64 [s1 + 0x78]\n 44417: i32 a0 = a0 + 0x60\n 44420: u64 [a5 + 0x60] = a3\n 44423: u64 [a5 + 0x68] = a2\n 44426: u64 [a5 + 0x70] = a1\n 44429: a1 = s1 + 0x260\n 44433: u64 [a5 + 0x78] = a4\n 44436: u64 [s1 + 0x30] = a0\n 44439: ra = 1666, jump @4\n      : @1513 [@dyn 833] (gas: 3)\n 44446: a1 = u64 [s1 + 0x50]\n 44449: a0 = a1 + 0x4\n 44452: t0 = 1668, jump @1566\n      : @1514 [@dyn 834] (gas: 7)\n 44458: u64 [a4 + 0xc8] = a2\n 44462: u64 [a4 + 0xc0] = a0\n 44466: u64 [a4 + 0xd0] = a3\n 44470: u64 [a4 + 0xd8] = a1\n 44474: a0 = s1 + 0x240\n 44478: a1 = s1 + 0x4c0\n 44482: ra = 1670, jump @6\n      : @1515 [@dyn 835] (gas: 3)\n 44489: a0 = u64 [s1 + 0x38]\n 44492: a0 = a0 + 0xffffffffffffff80\n 44495: t0 = 1672, jump @1569\n      : @1516 [@dyn 836] (gas: 1)\n 44501: jump @1552 if a0 == 0\n      : @1517 (gas: 13)\n 44505: a5 = s1 + 0x200\n 44509: a2 = u64 [a5 + 0x58]\n 44512: a1 = u64 [a5 + 0x50]\n 44515: a3 = u64 [a5 + 0x48]\n 44518: a4 = u64 [a5 + 0x40]\n 44521: a0 = u64 [s1 + 0x78]\n 44524: i32 a0 = a0 + 0x80\n 44528: u64 [a5 + 0x20] = a4\n 44531: u64 [a5 + 0x28] = a3\n 44534: u64 [a5 + 0x30] = a1\n 44537: a1 = s1 + 0x220\n 44541: u64 [a5 + 0x38] = a2\n 44544: ra = 1674, jump @4\n      : @1518 [@dyn 837] (gas: 3)\n 44551: a1 = u64 [s1 + 0x50]\n 44554: a0 = a1 + 0x5\n 44557: t0 = 1676, jump @1566\n      : @1519 [@dyn 838] (gas: 7)\n 44563: u64 [a4 + 0xe8] = a2\n 44567: u64 [a4 + 0xe0] = a0\n 44571: u64 [a4 + 0xf0] = a3\n 44575: u64 [a4 + 0xf8] = a1\n 44579: a0 = s1 + 0x200\n 44583: a1 = s1 + 0x4e0\n 44587: ra = 1678, jump @6\n      : @1520 [@dyn 839] (gas: 4)\n 44594: a0 = 0x100000000\n 44604: u64 [s1 + 0x38] = a0\n 44607: a0 = 0xffffff60\n 44617: t0 = 1680, jump @1569\n      : @1521 [@dyn 840] (gas: 1)\n 44623: jump @1552 if a0 == 0\n      : @1522 (gas: 14)\n 44627: a0 = s1 + 0x200\n 44631: a2 = u64 [a0 + 0x18]\n 44634: a1 = u64 [a0 + 0x10]\n 44637: a3 = u64 [a0 + 0x8]\n 44640: a4 = u64 [a0]\n 44642: a0 = u64 [s1 + 0x78]\n 44645: i32 a0 = a0 + 0xa0\n 44649: a5 = s1 + 0x100\n 44653: u64 [a5 + 0xe0] = a4\n 44657: u64 [a5 + 0xe8] = a3\n 44661: u64 [a5 + 0xf0] = a1\n 44665: a1 = s1 + 0x1e0\n 44669: u64 [a5 + 0xf8] = a2\n 44673: ra = 1682, jump @4\n      : @1523 [@dyn 841] (gas: 3)\n 44680: a1 = u64 [s1 + 0x50]\n 44683: a0 = a1 + 0x6\n 44686: t0 = 1684, jump @1572\n      : @1524 [@dyn 842] (gas: 7)\n 44692: u64 [a4 + 0x8] = a2\n 44695: u64 [a4] = a0\n 44697: u64 [a4 + 0x10] = a3\n 44700: u64 [a4 + 0x18] = a1\n 44703: a0 = s1 + 0x1c0\n 44707: a1 = s1 + 0x500\n 44711: ra = 1686, jump @6\n      : @1525 [@dyn 843] (gas: 3)\n 44718: a0 = u64 [s1 + 0x38]\n 44721: a0 = a0 + 0xffffffffffffff40\n 44725: t0 = 1688, jump @1569\n      : @1526 [@dyn 844] (gas: 1)\n 44731: jump @1552 if a0 == 0\n      : @1527 (gas: 15)\n 44735: a4 = s1 + 0x100\n 44739: a0 = u64 [a4 + 0xd0]\n 44743: u64 [s1 + 0x38] = a0\n 44746: a1 = u64 [a4 + 0xc8]\n 44750: a2 = u64 [a4 + 0xc0]\n 44754: a0 = a0 << 0x20\n 44757: a3 = a0 >> 0x20\n 44760: a0 = u64 [s1 + 0x78]\n 44763: i32 a0 = a0 + 0xc0\n 44767: u64 [s1 + 440] = 0\n 44771: u64 [a4 + 0xa0] = a2\n 44775: u64 [a4 + 0xa8] = a1\n 44779: a1 = s1 + 0x1a0\n 44783: u64 [a4 + 0xb0] = a3\n 44787: ra = 1690, jump @4\n      : @1528 [@dyn 845] (gas: 4)\n 44794: a1 = u64 [s1 + 0x38]\n 44797: a1 = a1 << 0x18\n 44800: a1 = a1 >> 0x38\n 44803: jump @1553 if a1 >u 3\n      : @1529 (gas: 10)\n 44808: a0 = 0x100000000\n 44818: u64 [s1 + 0x38] = a0\n 44821: a0 = 0xffffff20\n 44831: a2 = u64 [s1 + 0x78]\n 44834: a0 = a2 <u a0\n 44837: a2 = u64 [s1 + 0x70]\n 44840: a0 = 0 if a2 != 0\n 44842: a2 = u64 [s1 + 0x48]\n 44845: a0 = 0 if a2 != 0\n 44847: jump @1552 if a0 == 0\n      : @1530 (gas: 8)\n 44851: a0 = u64 [s1 + 0x78]\n 44854: i32 a0 = a0 + 0xe0\n 44858: u64 [s1 + 408] = 0\n 44862: u64 [s1 + 400] = 0\n 44866: u64 [s1 + 0x180] = a1\n 44870: a1 = s1 + 0x180\n 44874: u64 [s1 + 392] = 0\n 44878: ra = 1692, jump @4\n      : @1531 [@dyn 846] (gas: 3)\n 44885: a1 = u64 [s1 + 0x50]\n 44888: a0 = a1 + 0x7\n 44891: t0 = 1694, jump @1572\n      : @1532 [@dyn 847] (gas: 7)\n 44897: u64 [a4 + 0x20] = a0\n 44900: u64 [a4 + 0x28] = a2\n 44903: u64 [a4 + 0x30] = a3\n 44906: u64 [a4 + 0x38] = a1\n 44909: a0 = s1 + 0x160\n 44913: a1 = s1 + 0x520\n 44917: ra = 1696, jump @6\n      : @1533 [@dyn 848] (gas: 3)\n 44924: a0 = u64 [s1 + 0x38]\n 44927: a0 = a0 + 0xffffffffffffff00\n 44931: t0 = 1698, jump @1569\n      : @1534 [@dyn 849] (gas: 1)\n 44937: jump @1552 if a0 == 0\n      : @1535 (gas: 13)\n 44941: a5 = s1 + 0x100\n 44945: a2 = u64 [a5 + 0x78]\n 44948: a1 = u64 [a5 + 0x70]\n 44951: a3 = u64 [a5 + 0x68]\n 44954: a4 = u64 [a5 + 0x60]\n 44957: a0 = u64 [s1 + 0x78]\n 44960: i32 a0 = a0 + 0x100\n 44964: u64 [a5 + 0x40] = a4\n 44967: u64 [a5 + 0x48] = a3\n 44970: u64 [a5 + 0x50] = a1\n 44973: a1 = s1 + 0x140\n 44977: u64 [a5 + 0x58] = a2\n 44980: ra = 1700, jump @4\n      : @1536 [@dyn 850] (gas: 3)\n 44987: a1 = u64 [s1 + 0x50]\n 44990: a0 = a1 + 0x8\n 44993: t0 = 1702, jump @1572\n      : @1537 [@dyn 851] (gas: 7)\n 44999: u64 [a4 + 0x48] = a2\n 45002: u64 [a4 + 0x40] = a0\n 45005: u64 [a4 + 0x50] = a3\n 45008: u64 [a4 + 0x58] = a1\n 45011: a0 = s1 + 0x120\n 45015: a1 = s1 + 0x540\n 45019: ra = 1704, jump @6\n      : @1538 [@dyn 852] (gas: 2)\n 45026: a0 = 0xfffffee0\n 45036: t0 = 1706, jump @1569\n      : @1539 [@dyn 853] (gas: 1)\n 45042: jump @1552 if a0 == 0\n      : @1540 (gas: 11)\n 45046: a0 = u64 [s1 + 0x120]\n 45050: a0 = a0 & 0xff\n 45054: a1 = a0 >u 0\n 45056: a0 = u64 [s1 + 0x78]\n 45059: i32 a0 = a0 + 0x120\n 45063: u64 [s1 + 280] = 0\n 45067: u64 [s1 + 272] = 0\n 45071: u64 [s1 + 0x100] = a1\n 45075: a1 = s1 + 0x100\n 45079: u64 [s1 + 264] = 0\n 45083: ra = 1708, jump @4\n      : @1541 [@dyn 854] (gas: 3)\n 45090: a0 = s1 + 0xe0\n 45094: a1 = u64 [s1 + 0x30]\n 45097: ra = 1710, jump @2\n      : @1542 [@dyn 855] (gas: 12)\n 45104: a0 = u64 [s1 + 0xe0]\n 45108: u64 [s1 + 0x78] = a0\n 45111: a0 = u64 [s1 + 0xe8]\n 45115: u64 [s1 + 0x70] = a0\n 45118: a0 = u64 [s1 + 0xf0]\n 45122: u64 [s1 + 0x68] = a0\n 45125: a0 = u64 [s1 + 0xf8]\n 45129: u64 [s1 + 0x60] = a0\n 45132: i32 a0 = s1 + 0x560\n 45136: ra = 0x6b0\n 45140: ecalli 8 // 'now'\n 45142: fallthrough\n      : @1543 [@dyn 856] (gas: 17)\n 45143: a1 = s1 + 0x500\n 45147: a0 = u64 [a1 + 0x78]\n 45150: t0 = u64 [s1 + 0x560]\n 45154: a2 = u64 [a1 + 0x70]\n 45157: a3 = u64 [a1 + 0x68]\n 45160: a1 = u64 [s1 + 0x60]\n 45163: a4 = a0 ^ a1\n 45166: a1 = a0 <u a1\n 45169: a0 = u64 [s1 + 0x68]\n 45172: a5 = a2 <u a0\n 45175: a5 = a1 if a4 != 0\n 45178: a1 = u64 [s1 + 0x70]\n 45181: t1 = a3 ^ a1\n 45184: a3 = a3 <u a1\n 45187: a1 = u64 [s1 + 0x78]\n 45190: a1 = t0 <u a1\n 45193: t0 = 1714, jump @1613\n      : @1544 [@dyn 857] (gas: 1)\n 45199: jump @1550 if a1 == 0\n      : @1545 (gas: 3)\n 45203: a0 = s1 + 0xc0\n 45207: a1 = u64 [s1 + 0x18]\n 45210: ra = 1716, jump @2\n      : @1546 [@dyn 858] (gas: 12)\n 45217: a0 = u64 [s1 + 0xc0]\n 45221: u64 [s1 + 0x78] = a0\n 45224: a0 = u64 [s1 + 0xc8]\n 45228: u64 [s1 + 0x70] = a0\n 45231: a0 = u64 [s1 + 0xd0]\n 45235: u64 [s1 + 0x68] = a0\n 45238: a0 = u64 [s1 + 0xd8]\n 45242: u64 [s1 + 0x60] = a0\n 45245: i32 a0 = s1 + 0x580\n 45249: ra = 0x6b6\n 45253: ecalli 8 // 'now'\n 45255: fallthrough\n      : @1547 [@dyn 859] (gas: 17)\n 45256: a1 = s1 + 0x500\n 45260: a0 = u64 [a1 + 0x98]\n 45264: t0 = u64 [s1 + 0x580]\n 45268: a2 = u64 [a1 + 0x90]\n 45272: a3 = u64 [a1 + 0x88]\n 45276: a1 = u64 [s1 + 0x60]\n 45279: a4 = a0 ^ a1\n 45282: a1 = a0 <u a1\n 45285: a0 = u64 [s1 + 0x68]\n 45288: a5 = a2 <u a0\n 45291: a5 = a1 if a4 != 0\n 45294: a1 = u64 [s1 + 0x70]\n 45297: t1 = a3 ^ a1\n 45300: a3 = a3 <u a1\n 45303: a1 = u64 [s1 + 0x78]\n 45306: a1 = t0 <u a1\n 45309: t0 = 1720, jump @1613\n      : @1548 [@dyn 860] (gas: 5)\n 45315: a0 = a1 <u 0x3\n 45318: a0 = a0 + 0xffffffffffffffff\n 45321: a1 = 0x2 - a1\n 45324: a2 = a0\n 45326: jump @1551\n      : @1549 (gas: 3)\n 45328: a1 = 0\n 45330: a2 = 0\n 45332: jump @1551\n      : @1550 (gas: 4)\n 45334: a0 = 0\n 45336: a2 = 0\n 45338: a1 = 0x3\n 45341: fallthrough\n      : @1551 (gas: 12)\n 45342: a3 = u64 [s1 + 0x40]\n 45345: u64 [a3] = a1\n 45347: u64 [a3 + 0x8] = a0\n 45350: u64 [a3 + 0x10] = a2\n 45353: u64 [a3 + 0x18] = a0\n 45356: sp = s0 + 0xfffffffffffffa40\n 45360: a0 = sp + 0x500\n 45364: ra = u64 [a0 + 0xb8]\n 45368: s0 = u64 [a0 + 0xb0]\n 45372: s1 = u64 [a0 + 0xa8]\n 45376: sp = sp + 0x5c0\n 45380: ret\n      : @1552 (gas: 1)\n 45382: trap\n      : @1553 (gas: 1)\n 45383: t0 = 1722, jump @1610\n      : @1554 [@dyn 861] (gas: 1)\n 45389: ra = 1724, jump @4\n      : @1555 [@dyn 862] (gas: 7)\n 45396: u64 [s1 + 152] = 0\n 45400: u64 [s1 + 144] = 0\n 45404: u64 [s1 + 128] = 0x21\n 45409: a0 = 0x4\n 45412: a1 = s1 + 0x80\n 45416: u64 [s1 + 136] = 0\n 45420: ra = 1726, jump @4\n      : @1556 [@dyn 863] (gas: 3)\n 45427: a0 = u64 [s1 + 0x28]\n 45430: a0 = i32 [a0]\n 45432: jump @1558 if a0 >u 63\n      : @1557 (gas: 3)\n 45436: a1 = u64 [s1 + 0x28]\n 45439: u32 [a1 + 0] = 0x40\n 45442: fallthrough\n      : @1558 (gas: 7)\n 45443: a0 = 0x1\n 45446: a2 = 0x24\n 45449: a1 = u64 [s1 + 0x20]\n 45452: ecalli 12 // 'seal_return'\n 45454: a0 = 0\n 45456: ra = 0x6c0\n 45460: jump @22\n      : @1559 [export #0: 'call'] (gas: 2)\n 45464: a0 = 0\n 45466: ra = 1728, jump @22\n      : @1560 [@dyn 864] [export #1: 'deploy'] (gas: 2)\n 45473: a0 = 0x1\n 45476: ra = 1730, jump @22\n      : @1561 [@dyn 865] (gas: 12)\n 45483: a5 = s1 + 0x100\n 45487: a1 = u64 [a5 + 0xb8]\n 45491: a0 = u64 [a5 + 0xa8]\n 45495: a3 = u64 [a5 + 0xa0]\n 45499: a3 = a3 | a0\n 45502: a4 = 0x100000000\n 45512: a0 = 0xfffffffc\n 45522: a0 = a1 <u a0\n 45525: a2 = u64 [a5 + 0xb0]\n 45529: a0 = 0 if a2 != 0\n 45531: a0 = 0 if a3 != 0\n 45533: jump [t0]\n      : @1562 (gas: 7)\n 45535: a4 = 0x100000000\n 45545: a0 = 0xfffffffc\n 45555: a0 = a1 <u a0\n 45558: a2 = u64 [a5 + 0xb0]\n 45562: a0 = 0 if a2 != 0\n 45564: a0 = 0 if a3 != 0\n 45566: jump [t0]\n      : @1563 (gas: 18)\n 45568: a0 = u64 [a3]\n 45570: a1 = u64 [a3 + 0x8]\n 45573: a2 = u64 [a3 + 0x10]\n 45576: a3 = u64 [a3 + 0x18]\n 45579: a0 = reverse a0\n 45581: a1 = reverse a1\n 45583: a2 = reverse a2\n 45585: a3 = reverse a3\n 45587: a4 = a3 + 0x6\n 45590: a3 = a4 <u a3\n 45593: a5 = a2 + a3\n 45596: a2 = a5 <u a2\n 45599: a2 = a3 if a3 == 0\n 45602: a2 = a2 + a1\n 45605: a1 = a2 <u a1\n 45608: a0 = a0 + a1\n 45611: a1 = s1 + 0x3938\n 45615: jump [t0]\n      : @1564 (gas: 13)\n 45617: a1 = a0 <u a1\n 45620: a3 = u64 [s1 + 0x1b0]\n 45624: a2 = a3 + a1\n 45627: a3 = a2 <u a3\n 45630: a3 = a1 if a1 == 0\n 45633: a1 = u64 [s1 + 0x1a0]\n 45637: a3 = a3 + a1\n 45640: a1 = a3 <u a1\n 45643: a4 = u64 [s1 + 0x1b8]\n 45647: a1 = a1 + a4\n 45650: a4 = s1 + 0x3138\n 45654: a5 = a4 + 0x500\n 45658: jump [t0]\n      : @1565 (gas: 10)\n 45660: a4 = s1 + 0x100\n 45664: a3 = u64 [a4 + 0xa8]\n 45668: a2 = u64 [a4 + 0xb0]\n 45672: a1 = u64 [a4 + 0xb8]\n 45676: a0 = u64 [a4 + 0xa0]\n 45680: a0 = a0 + 0xffffffffffffffdc\n 45683: a0 = a1 <u a0\n 45686: a0 = 0 if a2 != 0\n 45688: a0 = 0 if a3 != 0\n 45690: jump [t0]\n      : @1566 (gas: 12)\n 45692: a1 = a0 <u a1\n 45695: a3 = u64 [s1 + 0x58]\n 45698: a2 = a3 + a1\n 45701: a3 = a2 <u a3\n 45704: a3 = a1 if a1 == 0\n 45707: a1 = u64 [s1 + 0x68]\n 45710: a3 = a3 + a1\n 45713: a1 = a3 <u a1\n 45716: a4 = u64 [s1 + 0x60]\n 45719: a1 = a1 + a4\n 45722: a4 = s1 + 0x400\n 45726: jump [t0]\n      : @1567 (gas: 9)\n 45728: a2 = s1 + 0x100\n 45732: a3 = u64 [a2 + 0xb8]\n 45736: a0 = 0xffffffbc\n 45746: a0 = a3 <u a0\n 45749: a1 = u64 [a2 + 0xb0]\n 45753: a0 = 0 if a1 != 0\n 45755: a1 = u64 [a2 + 0xa8]\n 45759: a0 = 0 if a1 != 0\n 45761: jump [t0]\n      : @1568 (gas: 11)\n 45763: a2 = u64 [sp + 0x8]\n 45766: a2 = a2 | s1\n 45769: s1 = 0x100000000\n 45779: a0 = 0xfffffffc\n 45789: a1 = u64 [sp + 0x18]\n 45792: a0 = a1 <u a0\n 45795: a1 = u64 [sp + 0x10]\n 45798: a0 = 0 if a1 != 0\n 45800: u64 [sp + 0x8] = a2\n 45803: a0 = 0 if a2 != 0\n 45805: jump [t0]\n      : @1569 (gas: 7)\n 45807: a1 = u64 [s1 + 0x78]\n 45810: a0 = a1 <u a0\n 45813: a1 = u64 [s1 + 0x70]\n 45816: a0 = 0 if a1 != 0\n 45818: a1 = u64 [s1 + 0x48]\n 45821: a0 = 0 if a1 != 0\n 45823: jump [t0]\n      : @1570 (gas: 20)\n 45825: a3 = u64 [s1 + 0x188]\n 45829: a0 = u64 [a3]\n 45831: a1 = u64 [a3 + 0x8]\n 45834: a2 = u64 [a3 + 0x10]\n 45837: a3 = u64 [a3 + 0x18]\n 45840: a0 = reverse a0\n 45842: a1 = reverse a1\n 45844: a2 = reverse a2\n 45846: a3 = reverse a3\n 45848: a4 = a3 + 0x5\n 45851: a3 = a4 <u a3\n 45854: a5 = a2 + a3\n 45857: a2 = a5 <u a2\n 45860: a2 = a3 if a3 == 0\n 45863: a2 = a2 + a1\n 45866: a1 = a2 <u a1\n 45869: a0 = a0 + a1\n 45872: a1 = s1 + 0x3138\n 45876: a3 = a1 + 0x700\n 45880: jump [t0]\n      : @1571 (gas: 25)\n 45882: a5 = s1 + 0x100\n 45886: a2 = u64 [a5 + 0xa0]\n 45890: a0 = u64 [a2 + 0x8]\n 45893: a1 = u64 [a2]\n 45895: a2 = i32 [a2 + 0x10]\n 45898: a0 = reverse a0\n 45900: a3 = a0 >> 0x20\n 45903: a1 = reverse a1\n 45905: a4 = a1 << 0x20\n 45908: a3 = a3 | a4\n 45911: a0 = a0 << 0x20\n 45914: a2 = reverse a2\n 45916: a2 = a2 >> 0x20\n 45919: a0 = a0 | a2\n 45922: a1 = a1 >> 0x20\n 45925: a2 = u64 [a5 + 0xa8]\n 45929: a1 = a1 ^ a2\n 45932: a2 = u64 [a5 + 0xb0]\n 45936: a0 = a0 ^ a2\n 45939: a0 = a0 | a1\n 45942: a1 = u64 [a5 + 0xb8]\n 45946: a1 = a1 ^ a3\n 45949: a0 = a0 | a1\n 45952: a0 = a0 <u 0x1\n 45955: jump [t0]\n      : @1572 (gas: 12)\n 45957: a1 = a0 <u a1\n 45960: a3 = u64 [s1 + 0x58]\n 45963: a2 = a3 + a1\n 45966: a3 = a2 <u a3\n 45969: a3 = a1 if a1 == 0\n 45972: a1 = u64 [s1 + 0x68]\n 45975: a3 = a3 + a1\n 45978: a1 = a3 <u a1\n 45981: a4 = u64 [s1 + 0x60]\n 45984: a1 = a1 + a4\n 45987: a4 = s1 + 0x500\n 45991: jump [t0]\n      : @1573 (gas: 19)\n 45993: a3 = u64 [s1 + 0x1b8]\n 45997: a0 = u64 [a3 + 0x18]\n 46000: a1 = u64 [a3 + 0x10]\n 46003: a2 = u64 [a3 + 0x8]\n 46006: a3 = u64 [a3]\n 46008: a5 = reverse a0\n 46010: u64 [s1 + 0x1a8] = a5\n 46014: a4 = reverse a1\n 46016: u64 [s1 + 0x1b0] = a4\n 46020: a2 = reverse a2\n 46022: u64 [s1 + 0x1a0] = a2\n 46026: a0 = reverse a3\n 46028: u64 [s1 + 0x1b8] = a0\n 46032: a1 = u64 [s1 + 0x190]\n 46036: u64 [a1 + 0x18] = a0\n 46039: u64 [a1 + 0x10] = a2\n 46042: u64 [a1 + 0x8] = a4\n 46045: u64 [a1] = a5\n 46047: jump [t0]\n      : @1574 (gas: 10)\n 46049: a0 = u64 [a3 + 0x18]\n 46052: a1 = u64 [a3 + 0x10]\n 46055: a2 = u64 [a3 + 0x8]\n 46058: a3 = u64 [a3]\n 46060: a0 = reverse a0\n 46062: a1 = reverse a1\n 46064: a2 = reverse a2\n 46066: a3 = reverse a3\n 46068: a4 = s1 + 0x3938\n 46072: jump [t0]\n      : @1575 (gas: 19)\n 46074: a3 = u64 [s1 + 0x1b0]\n 46078: a0 = u64 [a3 + 0x18]\n 46081: a1 = u64 [a3 + 0x10]\n 46084: a2 = u64 [a3 + 0x8]\n 46087: a3 = u64 [a3]\n 46089: a0 = reverse a0\n 46091: a1 = reverse a1\n 46093: a2 = reverse a2\n 46095: a3 = reverse a3\n 46097: a4 = u64 [s1 + 0x1b8]\n 46101: u64 [s1 + 0x198] = a3\n 46105: u64 [a4 + 0x18] = a3\n 46108: u64 [s1 + 0x1a0] = a2\n 46112: u64 [a4 + 0x10] = a2\n 46115: u64 [s1 + 0x1a8] = a1\n 46119: u64 [a4 + 0x8] = a1\n 46122: u64 [s1 + 0x1b0] = a0\n 46126: u64 [a4] = a0\n 46128: jump [t0]\n      : @1576 (gas: 8)\n 46130: a0 = sp + 0xffffffffffffffe0\n 46133: a0 = a0 & 0xffffffffffffffe0\n 46136: u64 [s1 + 0x188] = a0\n 46140: sp = a0\n 46142: i32 a2 = a0 + 0\n 46144: a1 = 0x40\n 46147: a0 = u64 [s1 + 0x198]\n 46151: jump [t0]\n      : @1577 (gas: 8)\n 46153: a0 = a0 | a2\n 46156: a2 = a4 | a1\n 46159: a2 = a2 | a0\n 46162: a2 = a2 >> 0x20\n 46165: a0 = a0 | a1\n 46168: a0 = a0 << 0x20\n 46171: a0 = a0 | a2\n 46174: jump [t0]\n      : @1578 (gas: 9)\n 46176: a3 = s1 + 0x100\n 46180: a2 = u64 [a3 + 0xb8]\n 46184: a0 = 0xffffffbc\n 46194: a0 = a2 <u a0\n 46197: a1 = u64 [a3 + 0xb0]\n 46201: a0 = 0 if a1 != 0\n 46203: a1 = u64 [a3 + 0xa8]\n 46207: a0 = 0 if a1 != 0\n 46209: jump [t0]\n      : @1579 (gas: 5)\n 46211: sp = a0\n 46213: i32 a2 = a0 + 0\n 46215: a1 = 0x40\n 46218: a0 = u64 [s1 + 0x198]\n 46222: jump [t0]\n      : @1580 (gas: 8)\n 46224: u64 [sp + 48] = 0\n 46227: u64 [sp + 40] = 0\n 46230: u64 [sp + 32] = 0\n 46233: a0 = 0x4e487b7100000000\n 46243: a1 = sp + 0x20\n 46246: u64 [sp + 0x38] = a0\n 46249: a0 = 0\n 46251: jump [t0]\n      : @1581 (gas: 8)\n 46253: a0 = s1 + 0xffffffffffffffdc\n 46256: a1 = u64 [sp + 0x18]\n 46259: a0 = a1 <u a0\n 46262: a1 = u64 [sp + 0x10]\n 46265: a0 = 0 if a1 != 0\n 46267: a1 = u64 [sp + 0x8]\n 46270: a0 = 0 if a1 != 0\n 46272: jump [t0]\n      : @1582 (gas: 17)\n 46274: a2 = u64 [s1 + 0x1b8]\n 46278: a0 = u64 [a2 + 0x8]\n 46281: a1 = i32 [a2 + 0x10]\n 46284: a2 = u64 [a2]\n 46286: a0 = reverse a0\n 46288: a3 = a0 << 0x20\n 46291: a1 = reverse a1\n 46293: a1 = a1 >> 0x20\n 46296: a3 = a3 | a1\n 46299: a0 = a0 >> 0x20\n 46302: a1 = reverse a2\n 46304: a2 = a1 << 0x20\n 46307: a0 = a0 | a2\n 46310: a1 = a1 >> 0x20\n 46313: a2 = s1 + 0x7ff\n 46317: a2 = a2 + 0x131\n 46321: jump [t0]\n      : @1583 (gas: 15)\n 46323: a2 = u64 [sp + 0xb8]\n 46327: s1 = u64 [sp + 0xb0]\n 46331: a0 = u64 [sp + 0xa8]\n 46335: a1 = u64 [sp + 0xa0]\n 46339: u64 [sp + 0x10] = a0\n 46342: u64 [sp + 0x8] = a2\n 46345: a0 = a0 | a2\n 46348: u64 [sp + 0x18] = a1\n 46351: a1 = a1 | s1\n 46354: a1 = a1 | a0\n 46357: a1 = a1 >> 0x20\n 46360: a0 = a0 | s1\n 46363: a0 = a0 << 0x20\n 46366: a0 = a0 | a1\n 46369: jump [t0]\n      : @1584 (gas: 13)\n 46371: a1 = a0 <u a1\n 46374: a3 = u64 [s1 + 0x198]\n 46378: a2 = a3 + a1\n 46381: a3 = a2 <u a3\n 46384: a3 = a1 if a1 == 0\n 46387: a1 = u64 [s1 + 0x1a8]\n 46391: a3 = a3 + a1\n 46394: a1 = a3 <u a1\n 46397: a4 = u64 [s1 + 0x1a0]\n 46401: a1 = a1 + a4\n 46404: a4 = s1 + 0x4138\n 46408: a5 = a4 + 0x300\n 46412: jump [t0]\n      : @1585 (gas: 13)\n 46414: a1 = a0 <u a1\n 46417: a3 = u64 [s1 + 0x1b0]\n 46421: a2 = a3 + a1\n 46424: a3 = a2 <u a3\n 46427: a3 = a1 if a1 == 0\n 46430: a1 = u64 [s1 + 0x1a0]\n 46434: a3 = a3 + a1\n 46437: a1 = a3 <u a1\n 46440: a4 = u64 [s1 + 0x1b8]\n 46444: a1 = a1 + a4\n 46447: a4 = s1 + 0x3138\n 46451: a5 = a4 + 0x600\n 46455: jump [t0]\n      : @1586 (gas: 14)\n 46457: sp = sp + 0xffffffffffffff20\n 46461: u64 [sp + 0xd8] = ra\n 46465: u64 [sp + 0xd0] = s0\n 46469: u64 [sp + 0xc8] = s1\n 46473: s0 = sp + 0xe0\n 46477: sp = sp & 0xfffffffffffffff0\n 46480: a1 = u64 [a0 + 0x10]\n 46483: a2 = u64 [a0 + 0x18]\n 46486: a3 = u64 [a0 + 0x8]\n 46489: a0 = u64 [a0]\n 46491: a2 = a2 | a3\n 46494: a0 = a0 | a1\n 46497: a0 = a0 | a2\n 46500: jump [t0]\n      : @1587 (gas: 15)\n 46502: a0 = u64 [a3 + 0x18]\n 46505: a1 = u64 [a3 + 0x10]\n 46508: a2 = u64 [a3 + 0x8]\n 46511: a3 = u64 [a3]\n 46513: a0 = reverse a0\n 46515: u64 [s1 + 0x188] = a0\n 46519: a0 = reverse a1\n 46521: u64 [s1 + 0x180] = a0\n 46525: a0 = reverse a2\n 46527: u64 [s1 + 0x178] = a0\n 46531: a0 = reverse a3\n 46533: u64 [s1 + 0x170] = a0\n 46537: a0 = sp + 0xffffffffffffffe0\n 46540: a0 = a0 & 0xffffffffffffffe0\n 46543: jump [t0]\n      : @1588 (gas: 18)\n 46545: a1 = a0 <u a1\n 46548: a3 = u64 [a5 + 0x90]\n 46552: a2 = a3 + a1\n 46555: a3 = a2 <u a3\n 46558: a3 = a1 if a1 == 0\n 46561: a1 = u64 [a5 + 0x80]\n 46565: a3 = a3 + a1\n 46568: a1 = a3 <u a1\n 46571: a4 = u64 [a5 + 0x88]\n 46575: a1 = a1 + a4\n 46578: a4 = a0 | a3\n 46581: a1 = a1 | a2\n 46584: a4 = a4 | a1\n 46587: a4 = a4 >> 0x20\n 46590: a1 = a1 | a3\n 46593: a1 = a1 << 0x20\n 46596: a1 = a1 | a4\n 46599: jump [t0]\n      : @1589 (gas: 7)\n 46601: a0 = 0xffffffbc\n 46611: a0 = s1 <u a0\n 46614: a1 = u64 [sp + 0x10]\n 46617: a0 = 0 if a1 != 0\n 46619: a1 = u64 [sp + 0x8]\n 46622: a0 = 0 if a1 != 0\n 46624: jump [t0]\n      : @1590 (gas: 12)\n 46626: a1 = a0 <u a1\n 46629: a3 = u64 [s1 + 0x180]\n 46633: a2 = a3 + a1\n 46636: a3 = a2 <u a3\n 46639: a3 = a1 if a1 == 0\n 46642: a1 = u64 [s1 + 0x190]\n 46646: a3 = a3 + a1\n 46649: a1 = a3 <u a1\n 46652: a4 = u64 [s1 + 0x188]\n 46656: a1 = a1 + a4\n 46659: a4 = s1 + 0x4138\n 46663: jump [t0]\n      : @1591 (gas: 12)\n 46665: a3 = u64 [s1 + 0x1b8]\n 46669: a0 = u64 [a3 + 0x18]\n 46672: a1 = u64 [a3 + 0x10]\n 46675: a2 = u64 [a3 + 0x8]\n 46678: a3 = u64 [a3]\n 46680: a0 = reverse a0\n 46682: a1 = reverse a1\n 46684: a2 = reverse a2\n 46686: a3 = reverse a3\n 46688: a4 = s1 + 0x4138\n 46692: a5 = a4 + 0x500\n 46696: jump [t0]\n      : @1592 (gas: 9)\n 46698: a0 = u64 [a3 + 0x18]\n 46701: a1 = u64 [a3 + 0x10]\n 46704: a2 = u64 [a3 + 0x8]\n 46707: a3 = u64 [a3]\n 46709: a5 = reverse a0\n 46711: a4 = reverse a1\n 46713: a0 = reverse a2\n 46715: a1 = reverse a3\n 46717: jump [t0]\n      : @1593 (gas: 8)\n 46719: a4 = a4 | a2\n 46722: a2 = a0 | a1\n 46725: a2 = a2 | a4\n 46728: a2 = a2 >> 0x20\n 46731: a1 = a1 | a4\n 46734: a1 = a1 << 0x20\n 46737: a1 = a1 | a2\n 46740: jump [t0]\n      : @1594 (gas: 15)\n 46742: a0 = u64 [a3 + 0x18]\n 46745: a1 = u64 [a3 + 0x10]\n 46748: a2 = u64 [a3 + 0x8]\n 46751: a3 = u64 [a3]\n 46753: a0 = reverse a0\n 46755: a4 = reverse a1\n 46757: a2 = reverse a2\n 46759: a3 = reverse a3\n 46761: a1 = u64 [s1 + 0x180]\n 46765: u64 [a1 + 0x18] = a3\n 46768: u64 [a1 + 0x10] = a2\n 46771: u64 [a1 + 0x8] = a4\n 46774: u64 [a1] = a0\n 46776: a0 = 0x2000\n 46780: jump [t0]\n      : @1595 (gas: 12)\n 46782: a1 = a0 <u a1\n 46785: a3 = u64 [s1 + 0x30]\n 46788: a2 = a3 + a1\n 46791: a3 = a2 <u a3\n 46794: a3 = a1 if a1 == 0\n 46797: a1 = u64 [s1 + 0x38]\n 46800: a3 = a3 + a1\n 46803: a1 = a3 <u a1\n 46806: a4 = u64 [s1 + 0x40]\n 46809: a1 = a1 + a4\n 46812: a4 = s1 + 0x4138\n 46816: jump [t0]\n      : @1596 (gas: 14)\n 46818: a4 = a1 <u t1\n 46821: a5 = a0 + a4\n 46824: a0 = a5 <u a0\n 46827: a0 = a4 if a4 == 0\n 46830: a0 = a0 + a2\n 46833: a2 = a0 <u a2\n 46836: a2 = a2 + a3\n 46839: u64 [sp + 0x40] = a1\n 46842: u64 [sp + 0x48] = a5\n 46845: u64 [sp + 0x50] = a0\n 46848: a0 = 0x40\n 46851: a1 = sp + a0\n 46854: u64 [sp + 0x58] = a2\n 46857: jump [t0]\n      : @1597 (gas: 11)\n 46859: a3 = u64 [s1 + 0x1b8]\n 46863: a0 = u64 [a3 + 0x18]\n 46866: a1 = u64 [a3 + 0x10]\n 46869: a2 = u64 [a3 + 0x8]\n 46872: a3 = u64 [a3]\n 46874: a0 = reverse a0\n 46876: a1 = reverse a1\n 46878: a2 = reverse a2\n 46880: a3 = reverse a3\n 46882: a4 = s1 + 0x4138\n 46886: jump [t0]\n      : @1598 (gas: 8)\n 46888: a0 = sp + 0xffffffffffffffe0\n 46891: a0 = a0 & 0xffffffffffffffe0\n 46894: u64 [s1 + 0x1b8] = a0\n 46898: sp = a0\n 46900: i32 a2 = a0 + 0\n 46902: a1 = 0x40\n 46905: a0 = u64 [s1 + 0xf8]\n 46909: jump [t0]\n      : @1599 (gas: 8)\n 46911: u64 [sp + 144] = 0\n 46915: u64 [sp + 136] = 0\n 46919: u64 [sp + 128] = 0\n 46923: a0 = 0x8c379a000000000\n 46933: a1 = sp + 0x80\n 46937: u64 [sp + 0x98] = a0\n 46941: a0 = u64 [sp + 0x18]\n 46944: jump [t0]\n      : @1600 (gas: 13)\n 46946: sp = sp + 0xffffffffffffff90\n 46949: u64 [sp + 0x68] = ra\n 46952: u64 [sp + 0x60] = s0\n 46955: s0 = sp + 0x70\n 46958: sp = sp & 0xfffffffffffffff0\n 46961: a3 = u64 [a0 + 0x18]\n 46964: a2 = u64 [a0 + 0x10]\n 46967: t1 = u64 [a0]\n 46969: a0 = u64 [a0 + 0x8]\n 46972: a4 = a3 >u 0\n 46974: a5 = a2 >u 0\n 46976: a5 = a4 if a3 != 0\n 46979: jump [t0]\n      : @1601 (gas: 7)\n 46981: a1 = a0 | a3\n 46984: a1 = a1 | a2\n 46987: a1 = a1 >> 0x20\n 46990: a2 = a2 | a3\n 46993: a2 = a2 << 0x20\n 46996: a1 = a1 | a2\n 46999: jump [t0]\n      : @1602 (gas: 5)\n 47001: sp = a0\n 47003: i32 a2 = a0 + 0\n 47005: a1 = 0x40\n 47008: a0 = u64 [s1 + 0x130]\n 47012: jump [t0]\n      : @1603 (gas: 5)\n 47014: a0 = sp + 0xffffffffffffffe0\n 47017: a2 = a0 & 0xffffffffffffffe0\n 47020: u64 [s1 + 0x1b8] = a2\n 47024: sp = a2\n 47026: jump [t0]\n      : @1604 (gas: 7)\n 47028: a0 = sp + 0xffffffffffffffe0\n 47031: a0 = a0 & 0xffffffffffffffe0\n 47034: u64 [s1 + 0x1b8] = a0\n 47038: sp = a0\n 47040: i32 a2 = a0 + 0\n 47042: a1 = 0x20\n 47045: jump [t0]\n      : @1605 (gas: 10)\n 47047: a0 = u64 [a4 + 0xc8]\n 47051: a1 = u64 [a4 + 0xd0]\n 47055: a2 = u64 [a4 + 0xd8]\n 47059: a3 = u64 [a4 + 0xe0]\n 47063: a4 = 0xffffff00ffffffff\n 47073: a2 = a2 & a4\n 47076: a4 = 0x300000000\n 47086: a2 = a2 | a4\n 47089: a4 = s1 + 0x4138\n 47093: jump [t0]\n      : @1606 (gas: 5)\n 47095: a0 = reverse a0\n 47097: a1 = reverse a1\n 47099: a2 = reverse a2\n 47101: a3 = reverse a3\n 47103: jump [t0]\n      : @1607 (gas: 4)\n 47105: i32 a0 = a0 + 0x138\n 47109: a3 = s1 + a0\n 47112: a4 = a3 + 0x400\n 47116: jump [t0]\n      : @1608 (gas: 8)\n 47118: a0 = u64 [a4 + 0x38]\n 47121: a1 = u64 [a4 + 0x40]\n 47124: a2 = u64 [a4 + 0x30]\n 47127: a3 = u64 [a4 + 0x28]\n 47130: a1 = a1 | a2\n 47133: a0 = a0 | a3\n 47136: a0 = a0 | a1\n 47139: jump [t0]\n      : @1609 (gas: 11)\n 47141: a4 = a0 <u a2\n 47144: a3 = u64 [s1 + 0x30]\n 47147: a2 = a3 + a4\n 47150: a3 = a2 <u a3\n 47153: a3 = a4 if a4 == 0\n 47156: a4 = u64 [s1 + 0x38]\n 47159: a3 = a3 + a4\n 47162: a4 = a3 <u a4\n 47165: a5 = u64 [s1 + 0x40]\n 47168: a4 = a4 + a5\n 47171: jump [t0]\n      : @1610 (gas: 8)\n 47173: u64 [s1 + 176] = 0\n 47177: u64 [s1 + 168] = 0\n 47181: u64 [s1 + 160] = 0\n 47185: a0 = 0x4e487b7100000000\n 47195: a1 = s1 + 0xa0\n 47199: u64 [s1 + 0xb8] = a0\n 47203: a0 = 0\n 47205: jump [t0]\n      : @1611 (gas: 9)\n 47207: a1 = a0 <u a1\n 47210: a3 = u64 [s1 + 0x178]\n 47214: a2 = a3 + a1\n 47217: a3 = a2 <u a3\n 47220: a3 = a1 if a1 == 0\n 47223: a1 = u64 [s1 + 0x190]\n 47227: a3 = a3 + a1\n 47230: a1 = a3 <u a1\n 47233: jump [t0]\n      : @1612 (gas: 10)\n 47235: a2 = s1 + 0x100\n 47239: a4 = u64 [a2 + 0xa8]\n 47243: a3 = u64 [a2 + 0xb0]\n 47247: a1 = u64 [a2 + 0xb8]\n 47251: a0 = u64 [a2 + 0xa0]\n 47255: a0 = a0 + 0xffffffffffffffdc\n 47258: a0 = a1 <u a0\n 47261: a0 = 0 if a3 != 0\n 47263: a0 = 0 if a4 != 0\n 47265: jump [t0]\n      : @1613 (gas: 5)\n 47267: a1 = a3 if t1 != 0\n 47270: a0 = a0 ^ a2\n 47273: a0 = a0 | a4\n 47276: a1 = a5 if a0 != 0\n 47279: jump [t0]\n      : @1614 (gas: 8)\n 47281: a0 = u64 [sp + 0x18]\n 47284: i32 a0 = a0 + 0x4\n 47287: u64 [sp + 120] = 0\n 47290: u64 [sp + 112] = 0\n 47293: u64 [sp + 96] = 0x20\n 47297: a1 = sp + 0x60\n 47300: u64 [sp + 104] = 0\n 47303: jump [t0]\n      : @1615 (gas: 8)\n 47305: a1 = s1 + a0\n 47308: u64 [a1 + 896] = 0\n 47312: u64 [a1 + 888] = 0\n 47316: u64 [a1 + 872] = 0x5\n 47321: a2 = a1\n 47323: a0 = 0x20\n 47326: a1 = 0x3000\n 47330: jump [t0]\n      : @1616 (gas: 4)\n 47332: a0 = 0x4138\n 47336: a3 = s1 + a0\n 47339: a4 = a3 + 0x500\n 47343: jump [t0]\n      : @1617 (gas: 9)\n 47345: a0 = u64 [a3 + 0x18]\n 47348: a1 = u64 [a3 + 0x10]\n 47351: a2 = u64 [a3 + 0x8]\n 47354: a3 = u64 [a3]\n 47356: a0 = reverse a0\n 47358: a4 = reverse a1\n 47360: a2 = reverse a2\n 47362: a3 = reverse a3\n 47364: jump [t0]\n      : @1618 (gas: 6)\n 47366: a0 = a1 <u a0\n 47369: a2 = u64 [a3 + 0x90]\n 47373: a0 = 0 if a2 != 0\n 47375: a2 = u64 [a3 + 0x88]\n 47379: a0 = 0 if a2 != 0\n 47381: jump [t0]\n      : @1619 (gas: 8)\n 47383: a0 = sp + 0xffffffffffffffe0\n 47386: a0 = a0 & 0xffffffffffffffe0\n 47389: u64 [s1 + 0x188] = a0\n 47393: sp = a0\n 47395: i32 a2 = a0 + 0\n 47397: a1 = 0x40\n 47400: a0 = u64 [s1 + 0x190]\n 47404: jump [t0]\n      : @1620 (gas: 5)\n 47406: a0 = sp + 0xffffffffffffffe0\n 47409: a0 = a0 & 0xffffffffffffffe0\n 47412: u64 [s1 + 0x1b8] = a0\n 47416: sp = a0\n 47418: jump [t0]\n      : @1621 (gas: 6)\n 47420: a1 = u64 [s1 + 0x1a0]\n 47424: a3 = a3 + a1\n 47427: a1 = a3 <u a1\n 47430: a4 = u64 [s1 + 0x1b8]\n 47434: a1 = a1 + a4\n 47437: jump [t0]\n      : @1622 (gas: 4)\n 47439: a2 = a0\n 47441: a0 = 0x4e487b7100000000\n 47451: a1 = s1 + 0x7ff\n 47455: jump [t0]\n      : @1623 (gas: 4)\n 47457: a2 = a3 + a1\n 47460: a3 = a2 <u a3\n 47463: a3 = a1 if a1 == 0\n 47466: jump [t0]\n      : @1624 (gas: 6)\n 47468: sp = s0 + 0xffffffffffffff20\n 47472: ra = u64 [sp + 0xd8]\n 47476: s0 = u64 [sp + 0xd0]\n 47480: s1 = u64 [sp + 0xc8]\n 47484: sp = sp + 0xe0\n 47488: jump [t0]\n      : @1625 (gas: 4)\n 47490: a0 = u64 [s1 + 0x1b8]\n 47494: a0 = i32 [a0]\n 47496: a1 = 0x23\n 47499: jump [t0]\n      : @1626 (gas: 8)\n 47501: u64 [sp + 64] = 0\n 47504: u64 [sp + 56] = 0\n 47507: u64 [sp + 48] = 0\n 47510: a0 = 0x4e487b7100000000\n 47520: a1 = sp + 0x30\n 47523: u64 [sp + 0x48] = a0\n 47526: a0 = 0\n 47528: jump [t0]\n      : @1627 (gas: 5)\n 47530: a0 = sp + 0xffffffffffffffe0\n 47533: a2 = a0 & 0xffffffffffffffe0\n 47536: u64 [s1 + 0x1b0] = a2\n 47540: sp = a2\n 47542: jump [t0]\n      : @1628 (gas: 7)\n 47544: a0 = sp + 0xffffffffffffffe0\n 47547: a0 = a0 & 0xffffffffffffffe0\n 47550: u64 [s1 + 0x190] = a0\n 47554: sp = a0\n 47556: i32 a2 = a0 + 0\n 47558: a1 = 0x40\n 47561: jump [t0]\n      : @1629 (gas: 4)\n 47563: i32 a0 = a0 + 0xfffffffffffff938\n 47567: a3 = s1 + a0\n 47570: a4 = a3 + 0x100\n 47574: jump [t0]\n      : @1630 (gas: 4)\n 47576: a0 = 0x3938\n 47580: a3 = s1 + a0\n 47583: a4 = a3 + 0x400\n 47587: jump [t0]\n      : @1631 (gas: 7)\n 47589: a1 = a1 | a2\n 47592: a1 = a1 | a0\n 47595: a1 = a1 >> 0x20\n 47598: a0 = a0 | a2\n 47601: a0 = a0 << 0x20\n 47604: a0 = a0 | a1\n 47607: jump [t0]\n      : @1632 (gas: 6)\n 47609: u64 [a2 + 1248] = 0\n 47613: u64 [a2 + 1240] = 0\n 47617: u64 [a2 + 1232] = 0\n 47621: u64 [a2 + 1224] = 0\n 47625: a0 = s1 + 0x4000\n 47629: jump [t0]\n      : @1633 (gas: 6)\n 47631: u64 [a2 + 320] = 0\n 47635: u64 [a2 + 312] = 0\n 47639: u64 [a2 + 304] = 0\n 47643: u64 [a2 + 296] = 0\n 47647: a0 = s1 + 0x4000\n 47651: jump [t0]\n      : @1634 (gas: 2)\n 47653: a3 = a2 & 0x40\n 47656: jump @1638 if a3 != 0\n      : @1635 (gas: 1)\n 47659: jump @1637 if a2 == 0\n      : @1636 (gas: 6)\n 47662: i32 a3 = 0x40 - a2\n 47665: a3 = a1 << a3\n 47668: a1 = a1 >> a2\n 47671: a0 = a0 >> a2\n 47674: a0 = a0 | a3\n 47677: ret\n      : @1637 (gas: 1)\n 47679: ret\n      : @1638 (gas: 4)\n 47681: a0 = a2 + 0xffffffffffffffc0\n 47684: a0 = a1 >> a0\n 47687: a1 = 0\n 47689: ret\n      : @1639 (gas: 2)\n 47691: a3 = a2 & 0x40\n 47694: jump @1643 if a3 != 0\n      : @1640 (gas: 1)\n 47697: jump @1642 if a2 == 0\n      : @1641 (gas: 6)\n 47700: i32 a3 = 0x40 - a2\n 47703: a3 = a0 >> a3\n 47706: a0 = a0 << a2\n 47709: a1 = a1 << a2\n 47712: a1 = a1 | a3\n 47715: ret\n      : @1642 (gas: 1)\n 47717: ret\n      : @1643 (gas: 4)\n 47719: a1 = a2 + 0xffffffffffffffc0\n 47722: a1 = a0 << a1\n 47725: a0 = 0\n 47727: ret\n","bytecode":{"object":"50564d000053db000000000000010700c1c001c00080038190726c6120656d61476e69662079646165000064657a696c612a6d526f3331ed86f8e5b49675ed9e8d2a7984935a5cefd48b3a9139625058faf64056795474e66438b907a71980ef6c5d354a02f1f252190018af82fcba7054190b9cc296a7f461f110c0637f100a8374e11821bf46cd3b03244caded3dbc7a73616820656d6147646e6520746f6e200000746579206465746f6e20656d6147676f7270206e69209b47f4b3238edb512840b82388d42f16f694fd6c8f2b44956f7bec8118393962756f6d6120646942207473756d20746e7461657267206562206e61687420726520746e657272754373756d20656d6167646e652065622074648a883b43ed0da2fe00a162788f4d9d111eb0b84174f447eea55ebc104b29ec73646e7566206f4e68746977206f74207361657274206f4e646e756620797275746977206f7420736e776f20796c6e4f63206e616320726573696874206c6c616f6974636e756620726566736e6172540064656c69616620656f6420656d6147786520746f6e2073726c6120656d6147646e65207964616504810510000000000400000012000000200000002e00000034000000410000004c0000005b0000005e0000006b0000007b0000008b00000096000000a8000000b300000063616c6c63616c6c5f646174615f636f707963616c6c5f646174615f6c6f616463616c6c5f646174615f73697a6563616c6c65726465706f7369745f6576656e746765745f73746f72616765686173685f6b656363616b5f3235366e6f777265665f74696d655f6c65667472657475726e5f646174615f636f707972657475726e5f646174615f73697a657365616c5f72657475726e7365745f696d6d757461626c655f646174617365745f73746f7261676576616c75655f7472616e73666572726564051302c098b10463616c6cc0a1b1066465706c6f7906c088d8836102c071ba2b0073019602a80278033e044504bc040d0512054205d5051406420670067c06bb06e106100818084c086a080009680970098f09b009d409de09160a490a7c0a860ab10af00afd0a1a0b650bae0b3c0c490c660ccc0cd90cf60c250d4f0d5b0d0f0edc0e050f5b0f7e0f9f0fbf0fc50fe20f3d106c108f10a910091138117c118f11f711fe112e1235125d126412c612d1120a132913b113b813d81304143114571462148014bc14281542157c158315b315ba1528163316aa16b516e9160d17871721188c18cd1865198719a619f7193f1a731a7a1a811a8e1aad1ab41ae01a041b241b3e1b451b601b991bb81bfe1b531c881c8f1cae1cd31c261d2f1d4f1d961da11dc31df61d211e771e911e9c1ee51e431fc61f12207720002116215721ca21df210f226e228422b8221c236e23c92301242d24b924f324052578258a250026122688269a260c271e279127a727cf27012849285b28ab28142926299c29b629da29172a5e2a852abe2afc2a032bba2bc72cd82cf72c432d4e2d5d2d6a2dbf2df42dfb2d192e4d2e712e942eb62ebd2edf2e3b2f6b2f8f2fae2f1030193049305730623069308b30d630e1301e31523176317d319c31aa31b131be31f0310a324f328132b032bd331c34e134ec34253544358f35ba3501361f3626365336a836d636f03630379137ce378938ff38d039e139e7391d3a593a5f3a933a9c3abc3a023b0c3b453b793b973ba43baa3bb43b223c673c893cb13cbf3ce93c023d713de53d3a3e883e963ea93e093f2d3f733f7d3f9f3ffa3f2e4037405740714082408c40ae40b740f340fc401c413641474151416f417841ad41bb41ce41324238426842ae421c436b437943dd43f943484452445844784493442a45bb450f469146c346f446094747479347c547df47ec47f2470f489a48f64814492e493b4941496b4999492e4a374a614a7f4ac44ad94ae34a084b744b7e4b8f4bad4bc64bcc4be64b1b4c354c6f4c7c4cab4cb14cd64cf44cfa4c304d654dc74de44d214e7f4e984ec44eca4eee4ef44e494f614f8f4fa34fbb4fd44ff64fff4f2c50e950fa50285139517151c3510c5226522f5268529e53b853dc5321546a5496549f54bf54d954e054f5542f556555a655dc55e555055623564d567d568656a656e2567357a857c657cd57e1574a587c58bf581d5962596c59b859015a425a725a935abd5ac45ad15af55a655bcc5b115cf15c105d385d7c5dc45ddc5dfb5d395ebf5e105f665fa15fee5f2460626071608560da60f6605e61b561eb61f9612a626e628a62c7622d63d0635e646b64ea64f8645c651e669466cf67ee678168bc68c56806692a696d69ab69d7690e6a2c6a3d6a476a546ab66ada6a046b156b1f6b2c6b826bbc6bc96be36b176c8d6cd96c446d4a6d786d7e6da46daa6dee6d4f6e556e856e8b6eae6eb46efc6e626f686f966f9c6fc26fc86f117076708f70bd70c370e970ef70237130714871a171ee716372f0720a7328737473d1754d765a76687685769276b076e576427772777b779b77a177d177d777e47717782d787378a978db78dc793d7a5b7bbf7b497c527c867ccd7cf17c2a7d8b7dbe7dd87de97df37d1f7e5b7e697e847ec27e0c7f717f7e7f987f01800e80298052807d80c181048210823282c583df83038448849684b084ce841a857b87ac87b687c887ce87ec8701880b8825887b88b688c488cd884789af892a8a388a528a938af28a008b0a8b438bf88bfe8b238c508c6e8c838c8d8cb98c818db08d608e808ef68e048f7d8f868f439029914c916f918091ad91e491f59122926c9275929292d892e192309370938193ae93fa934d9456947794ac94e694ef94109539953f958895a795db95f895fe9509967596a196c096ed960c9739975897c797f4970f9834984f9873988198ac98e298119940996f999e99cd99fe99389a679a8c9a219b369b3d9b559b799bec9b8c9ce79c519deb9d229e4a9ef79efe9e1d9f479f4d9f6c9f739f879f8e9fa69fd09fd69ff49ffb9f0fa016a02ea052a01aa135a13ca156a17aa1cca126a22ca252a258a278a28aa2bda2f9a206a316a367a36ea386a3aaa34fa456a470a494a4c9a428a53aa557a596a5daa5dca5e5a5f5a5fba504a60ba611a61aa621a627a647a64da677a683a698a69ea6a7a6b7a6bda6c6a6cda6d3a6dca6e3a6e9a609a70fa743a74fa764a76aa773a783a789a792a799a79fa7a8a7afa7b5a7d5a7dba70fa81ba82aa892a882a99ca9c0a914aa33aa6caa80aa9faae9aa08ab43ab4cab74abafabbdabd2ab00ac43acabacb7acd6ace2ac1ead2aad49ad66ad9eadaaadc9add5ad07ae13ae32ae4fae88ae94aeaeaebbaefaae55af61af7caf89afbbafc7afe2aff2af22b030b057b08fb0a1b0c8b003b14db154b173b1a1b1abb13908980102510860063307c0010383770a0d2853069511f07b10087b1564896475330820649750100298047c78017c797c7a027c7b03978808d4980897aa1097bb18d4ba0ad4a8087c79057c7a047c7b067c7c07979908d4a90997bb1097cc18d4cb0bd4b909979920d489027c79097c7a087c7b0a7c7c0b979908d4a90997bb1097cc18d4cb0bd4b9097c7a0d7c7b0c7c7c0e7c780f97aa08d4ba0a97cc10978818d4c808d4a808978820d498037c78117c7a107c7b127c7c13978808d4a80897bb1097cc18d4cb0bd4b8087c7a157c7b147c7c167c791797aa08d4ba0a97cc10979918d4c909d4a909979920d4890a7c78197c79187c7b1a7c7c1b978808d4980897bb1097cc18d4cb0bd4b8087c791d7c7b1c7c7c1e7c771f979908d4b90997cc10977718d4c707d49707977720d487076f776fa86f396f2a7b5a187b59107b58087b57821008821595111032009511d87b10207b15187b161082897b19088289087b1982851082861833082050100450036f686f59821a6faa821b086fbb787b18787a10787908787898bc38787c1f98bc30787c1e98bc28787c1d98bc20787c1c98bc18787c1b98bc10787c1a98bb08787b1998ab38787b1798ab30787b1698ab28787b1598ab20787b1498ab18787b1398ab10787b1298aa08787a11989a38787a0f989a30787a0e989a28787a0d989a20787a0c989a18787a0b989a10787a0a98990878790998893878790798893078790698892878790598892078790498891878790398891078790298880878780182102082151882161095112832009511a07b10587b15507b16489515608411e06476828718828910828a0882886f776f996faa6f887b18187b1a107b19087b17491138491130491128491120481140208318831a20831b403309ff33073300060a0601821738821830821928821a2050120855b5007b6a187b69107b68087b679551a082105882155082164895116032009511a07b10587b15509515608411e08272827a08827b108277188283828908828c108288186f746fbb6faa6f276f826fcc6f996f387b17187b1a107b1b087b147b18387b19307b1c287b12208318831a203309ff330b2033070a0e9551a08210588215509511603200951160ff7b1098007b1590007b1688009515a0008411e082ab7b1b3882ab087b1b3082ab107b1b2882aa187b1a20829a7b1a18829a087b1a10829a107b1a088299187b19648650100a4b0182186f888219086f99821a106faa821b186fbb7b1b587b1a507b19487b18408218206f888219286f99821a306faa821b386fbb7b1b787b1a707b19687b18608379836a8317403308020a05955160ff8210980082159000821688009511a0003200951120ff7b10d8007b15d0007b16c8009515e0008411e082bc7b1c4082bc087b1c4882bc107b1c5082bb187b1b5833020c82ab7b1b1882ab087b1b2082ab107b1b2882aa187b1a308296829a087b1a829a107b1a088299187b19104911384033000e2883007b183850100e7d6f687b187882186f887b18708218086f887b18688218106f887b18608218186f887b1898008218206f887b1890008218286f887b1888008218306f887b1880008218406f887b18b8008218486f887b18b0008218506f887b18a8008218586f887b18a0008379811a388317603308030a05501210b6b40032008b7910520931c8780883881f8488e05638000001253309940102390a940102ae8a093d08940102013308a001028377c887073200009511f07b10087b158475010a03013d07900102510507501012095010146f019511c0fe7b1038017b1530017b162801951540018411e04911584911504911408000330740c8710849114850101612fc4911784911704911684911608317600a0f01821770821878821968821a60d49808d4a707d487075107173308a00102838833070133093300200a0c28ff003306a0010383670a043a07a801033908b001033a09a001036f77977a206f88988820d4a8087b18189877206f98978620d467077b1710988620492198004921900049218800492180009517209518800050101871fc801734977720821838d467074921b8004921b0004921a8004921a0007b18d8008218107b18c8008218187b18c0007b17d0009517a0009518c00050101ab5fc4921f8004921f0004921e8004921e00001492118014921100149210801492100019517e0009518000150101c87fc390894010256187f0c20039401028000013307a0010283778000330833090a01289ef933078000330850101e53fe8378330733093300200a0c01951110fe7b10e8017b15e0017b16d8019515f0019511d0ba8411e0641695693831492900054929f8044929e8048000330740956820364929f00450102299fa33079001027b67b80139079001025517040828478800956700308377400633083300240a0201956a383181a7240552475bcba58d0a28d04295693841524745ef79990a28a5375147b79a9da5a80133081bb156b2ab8706282a265147b89b39d0a90752470c01e3db0a28fb3c5247e46e45ed0a28d00e514759123df16b0b33080337f4f3ab8706287c4352375cb38f092802135237740cde092832455247490fa4150a28122e524795ab6b160a28513d5247746169320a28133c9569383951470bd6cf3cd80b52474b7a753d0a282f2d3308e0512d48ab87062863145147dc3d6a530a281f324929a004492998044929900449298804956700408377c0fd0a0f01956b383995bc000482c7980082c8a00082c9900082ca8800d49808d4a707d48707510707287583008267b80181775617030828748300492bc004492bb804492bb004492ba80401956720139568e03d50102636fa330228956838110182870002956900017b97b800958a000182a7f8007b97b00082a7f0007b97a80082a7e8007b97a0009567001333084050102acef7956a381195ac000182c7e00082c8d80082c9d00082cbc80050122ce5ab00510706286d6a956900018297a00095ac00017bc7a8008297a8007bc7b0008297b0007bc7b8009568e0128297b8007bc7c00064b77b6bb8013300ca0228a9f84929a000492998004929900049298800956700408377c0010a0f01956a384182a7980082a8a00082a9900082aa8800d49808d4a707d48707510707288b82008267b801817756174308288a82009567002150102e7f920095683819958900078297d800956800017b87a0008297d0007b87a8008297c8007b87b800956700408377e0013308040a02956a384182a7a80082a8b00082a9b80082aac000956b381995bc00077bcac0007bc9b8007bc8b0009568e0207bc7a8003307501030ecf733023295683819014928a00749289807492888070364893307209568c02049299007501034c5f73308940102390794010256173f112003940102403302362804b00050123600b0003307a00102837783997b6898013308407b6790013300380a07826ab00133023a28d6ab00826ab00150123aceab007b67b00164718267a0019777209877209569381949298007959a00077ba7788267a8017ba7709568a0208267b8017ba768330750103c3ef78267700195683819958900077b9760826778017b9758826780017b9750648a33072095688020826988017ba9480750103e0bf782689801818756173f08480840019517e08477e07b67b80164718379330840826790013300400a07826ab80133024228f2ab00826ab801501242eaab007b6888018269b0017b98187b6790017b97107b6b80017b9b087b6c78017b9c9567602033084050104469f595683819958c000782c7407b67a00182c9387b69980182cb307b6ba80182ca287b6ab8017bc7207bc9187bcb10956740207bca083300463302a8052876ac00956720208268b00150104849f7956a000182a7a00082a8a800d4870782a9980082a8b80050124ad1ae0051070628bd6795673819827b0007957c000682caf80082c9f00082c8e8007b6870017bc8c8007b6968017bc9d0007b6a60017bcad800956800207b6b58017bcbe0008267b80150104ceff58267780195770188780182698001c89808d48709889901826a9001c8a909d8a90a826b8801c8ba0a956b38417bb8d0007bb7c8007bb9d8007bbae0009567e01f9568004250104e98f6956b000182b7a00082b99800d47909140a00000000010000001407e0ffffff0000000082b8b800d8780782b8a8009487949752070628f766956738197b69b00164798272c006957c000682cbb8007b6aa00182cab00082c8a8008267b8018377207b689801959c00067bc888007b6a50017bca90007b6b48017bcb98009568c01f7b6240017b92a00650105018f582687801958702501252dfa9007bb9f0007bb7e8007bbaf8007bb800019567a01f95682042501054e0f5956a000182a9b00082a7a0009577c082a8b800d8780782a8a800948794975207062853669569381982928006959c000682cb7882ca7082c8688267b8018377407b68a0017bc8487b6a38017bca507b6b30017bcb589568801f7b6228017b92600650105688f4826878019587035012584fa90095bc00017bc9107bc7087bca187bc8209567601f9568404250105a50f51407a0ffffff00000000956900018298b800d878078298a80094878298b000948752070628c06533025c9569381901829728068477ff008e788267b80183776049292006492918067b9808069568401f4929100650105e05f49567201f330840501060bff295683819828a00067b6ab8018289f8057b69b001828bf0057b6ba801828ce8057b6c9001826728017b876005826730017b875805826738017b8750058267a0017b874805826740017b878005826748017b877805826750017b877005826798017b876805826758017b87a005826760017b879805826768017b879005826770017b878805958700057b7ac0007b79b8007b7bb00064829567001f9568e01e9569c01e956aa01e956b801e7b2ca805501062e38d0095680001828ba800828990008287b800d4b707828ab000d4a908d47808988820d4a707977720d48707510706289f6464a295683819958c000582c7d00082cae0007b6aa0018283c80582cad800d3b704d8b70cd89300da400cc92a08c9c804d8c8087b689801d82a0a826cb8018268a001c9c80cc9ac0c82689801c98c0cc9b707c90707c99308d4c707d4480ad47a0ad4470798aa20977720d4a707510706282c6464977b68b801330030052803f64929200249291802492910024929080295670040837740033300640a0f01956a384195ab000282b71882b82082b91082ba08d49808d4a707d48707510706288d7c50126683aa00ac7806288e7c95670040837760033308040a0295673841957b000282ba4082b93882b83082b7287b6a8800956b383195bc00017bca407b6990007bc9387b6898007bc830956860327b67a0007bc7283307501068f9f195673831492720014927180149271001647a33072095684032492a08010250106ad6f13308940102390794010256173f1120039401024033026c2811a80050126c0da8003307a0010283777b68000183993308407b67f80033006e0a073302702850a7005012704ca70095bc00027bca607bc9587bc8507bc748956720329568804350107264f2956b383182b7000182b8f00082b9e80082baf800826c8800d3c707826c9800d3c808d4870782689000d3a808826aa000d3a909d49808d48707887701492be000492bd8007bb7c80095670032492bd000330074330210062840a50095673831826888007b78c000826890007b78b800826898007b78b0009568e0318269a0007b79a8003307501076e8f0956838314928a00049289800492888000264893307209568c03149299000501078c5f082680001818756173f0e48084033027a2889a60050127a85a6000a07826ab80182a782a80882a91082aa186f7b6f8c6f996fa79572037b6728d87208c889077b6930d8970ada880ac8ca0a7b6c38d8ca087b6b40c8b808956b38417bb2680295b900027b97707b9a787b9880009567a0319568a04350107c3df1956738318278687b68b8018278707b68b0018278787b68a801827780007b67a001956700408377c00333007e0a080195683841958b000282b7a0008282880282b9980082ba90008268a001d3870bd887088267a801d8790cdbb80c8268b001d38a03d88a0a8268b801d88208502280002ea70052080628b63d9567e027330840502082008cee95693821018292c00695980006828cb800828bb0008287a800d42b0ad4c708d4a808988820d4ca0a97aa20d4a808510806281a61492998064929900649298806140a00000000a079c3089568c0277b9aa0067b67b8017b6bb0017b62a0017b6ca801502084005eef50228600b49f0052070628d96083870495693821492980064929780649296806209568a027492970067b6aa8017b6ba0015020880027ef50228a002ea00052070628a260838724956a3821492a6006492a5806492a48061695688027492a500650208c00f8ee50228e0043a00052070628736083a7443a087800023a098000023a0a880002956b382195bc00067bc8407bc9387bca3095686027492b28063300260428b6ee4929c0044929b8044929b0044929a804956700408377e005330090000a0f3307004033029200283fa500330700405022920037a50082b7b80082b8c00082b9b00082baa800d49808d4a707d4870751070628b6788267b80181775617030728b678956720343308405020940011ed956a383182ab000395ac000282c8f80082c9f00082c7e800502296005da30051080628ae5f492ae002492ad802492ac80280970695680034492ad0027b67b8013300ca022801ee49194049193849193049192895670040837760f90a0f01956a383982a73882a84082a93082aa28d49808d4a707d487075107062839788267b8018177561703072839783307a001037b67b80183777b67a001330098000a0433029a002815a10050229a0011a100492908027b9800027b97f8019568ff07958821037b9af001330750209c007ded9568ff07958831014928e8014928e0014928d0010564893307209568ff07958801034929d80150209e0051ed3309940102390794010233083fac78152003940102407b6990013302a0002888a5007b6990015022a00080a5003307a001027b679801837783993308407b67a8013300a2000a07826ab0013302a400288e9f00826ab0015022a400869f007bba607bb9587bb8507bb7489567ff079577e102956880395020a600c7ed9567ff079577310195780001828cc800828bc000828ab8008289b000d4ca07d4b908d48707510706282f779567ff07957741023308405020a8005feb956bff0795bb310182b2280195b80001828c20828a18828710d42a09d4c708d49808988820d4c909979920d4980851080628ed5d492b0001492bf800492bf0007b6ab001140a00000000a079c3089568ff07958821027bba08017b67b8017b62a8017b6ca0015020aa002dec956c000182c8b80082c7a80082caa000d47a0a5022ac00a49c0052070628955d8387049569ff0795993101330c4929e8004929e0004929d000209568ff07958801024929d8007b6aa8017b6ba0015020ae00d9eb5022b000e09c0052070628545d838724956aff0795aa3101492ac800492ac000492ab000149568ff079588e101492ab8005020b200a2eb5022b400ed9c00520706281d5d83a7443a081801023a09200102956bff0795bb31017bb8a8007bb9a000140800000000776172647bb898009568ff079588c101492b9000330026042854eb4929600449295804492950044929480495670040837780053300b6000a0f330700403302b80028dda100330700405022b800d5a10082b75882b86082b95082ba48d49808d4a707d487075107062877778267b801817756174307287777956700408377a0053308240a029568384195890004829780007b67a0018297787b67a8018297707b67b0018297687b67b801956700408377c0053308043300ba000a02330700403302bc00285ba100330700405022bc0053a10082b7880082b8900082b9980082baa000956b383195bc00027bcac0007bc9b8007bc8b0009568e0337bc7a80033075020be006cea956838314928a00249289802492888020464893307209568c033492990025020c00048ea9517e08477e07b6780016471390894010256183f0b200394010240019517e08479e07b69980164913307a00102837783993308407b6770010a07826a980182a71882a81082a90882aa6f776f8b6f996faa826880017b6a78017b8a187b6988017b89107b6b90017b8b087b6798017b879567a0335020c200c0ea956038319509000282977082986882047802829a80008263b001d3730bd873078262b801d88208dbb708826ca001d3ac07d8ac09826aa801d84a0bdb790bd34a09d49707db7b08520806280b769517e08477e07b6780016471950b00027bbc7b0af8017b03f0017b02e801826778017bb720826788017bb718826790017bb710956760339568403395692033826a98017bba085020c40068850095673831827760027b67780195673831827758027b67900195673831827750027b67880195673831827748027b679801956738318277380295683831828840029569383182992802956a383182aa3002826b80017bb7107bb8187bb97bba0864b8956700335020c600bbe9956738318277e001956800017b87b800956738318277d8017b87b000956738318277d0017b87a000956738318277c8017b87a8009567e0323308405020c8004ee7956a383195ab000182b7c00082b8b80082b9b00082baa800d49707d48a09d47909989920d48707977720d4970751070628dd598267980198793d826c880197c803d49803826b900198b83d82697801979903d4980898c93d7b6a880197ba03d4a909977a037b6a90018e9c8e8bda8c0b8e3288ac000185cc01db320cd49808db8b0c7b6c800183a9808267b0018268b8015020ca00c7a0007b6778017b687001826798018a79037b6998018267a8018268a0015020cc00a5a0007b6760017b686801826890018d8980008267b0018268b8015020ce00aca00082696801d4890982689001888a80007b6a6801826b7001daab09826ba001da8b097b69a00182696001d4970782697801daa9078269a801da89077b67a8018267b0018268b801826998015020d00035a000330882696801939797772098772082698001826ba801949b826aa001949a9497939895693831959c00017bc8a0007bc798007bca90009568c0327bcb8800826788015020d20016e7330820826788013300cc022874ea4929400549293805492930054929280595670040837760063300d4000a0f3302d60028759e005022d600719e005022d800949d00510706286b735022da00fb9e00ac7806286b7395670040837780063308043300dc000a023302de00283b9e005022de00379e0082b74882b85082b95882ba60956b383195bc00047bca407bc9387bc830956860357bc72833075020e00075e69568383149282004492818044928080404648933072095684035492910045020e20051e6390894010256183f143308403d089401023302e400288d9c005022e400899c003307a00102837783993308403300e6000a073302e800280f9b005022e8000b9b007bca80007bc9787bc8707bc768956720359568a0465020ea00e7e69568383182870004956900017b97b800958a000382a7f8007b97b00082a7f0007b97a80082a7e8007b97a000956700353308405020ec0082e4956a383195ac000382c7e00082c8d80082c9d00082cbc8005022ee00989800510706281f57956900018297a00095ac00037bc7a8008297a8007bc7b0008297b0007bc7b8009568e0348297b8007bc7c00064b77b6bb8013300ca02285be55022f000189e00837760fa0a0f01956b383995bc000182c73882c84082c93082ca28d49808d4a707d4870751070628e4718267b80181775617030728e471492b6001492b5801492b5001492b48019567c0129568803a5020f200f4e595673811827890017b68b801827888017b68b001807798017b67a8013307a001037b67a00183773300f4000a043302f60028b696005022f600b296009568381149288001492878017b8768019567a012492870015020f800d384009567383949278001492778014927700164784928680101956780129568a03a5020fa0074e5956938118293600195970001827a58827c50827b48d43c07d4ab08d487075107fe00956700017b7bb800959800017b8b287b7cb0007b8c307b7aa8007b8a38956860127b63a0017b93400133075020fc002fe43302fe00956838110149282001492818014928080102648933072095684012492910015020000106e43309940102390794010256173f0b200394010240017b6990019517e08479e07b69980164913307a00102837783993308407b678801330002010a07826a980133020401286e9400826a980150220401669400958a00017bab88007bac90007ba998007ba7a000956720129568c03a5020060184e4956938117c97fc00330803ae780628787495690001829bb800829cb000829aa8008263a0015117030728f54f502208013f9b009562ff07952231017b23e807952900077b9ae0007b9cd80095672011956800117b9bd00050200a01fc8400956a381195ab00ff82b8f80082a982b7e80082baf0007b687001826bb8017bb8107b6968017bb9187b6778017bb77b6a60017bba0864b8956938394929c0014929b8014929b0014929a801019567e03a50200c0153e495670040837700fb33000e010a083307004033021001283e9b003307004050221001369b0082b7e00082b8d80082b9c80082bad000959b00a3027b6bb801d89b09c89a0b7b6bb001d8ab0ada990ac88a0a7b6aa801d88a08c887077b67a00195670040837720fb330012010a0801956a383982a7f00182a8e80182a9000282a2f801956a000182acb000d3c70bd87c0782acb800d88c08dbb70882aca800d82c0782aba000d3b90ad89b09daa709d3c207d4a707db790851080628247295670040837740fb330014010a0801956738398272200295790002829818829c08829a1095c9803a09d8c907c87a0cd8ac0ada770ac8a807d88708c82808826ba801d8b7027b695801826ab801d8a903826ab001d3ca097b6c5001d8ac0ada930a8269a001d3890c7b684001d89809dac2097b674801d3b707d4c707db790a510a062814729567e0103308405020160155e09568ff0795883101958c000782c7c8007b67880182c9c0007b69800182cab8007b6a900182cbb0007b6b98017bc7a8007bc9a0007bca98009567c0107bcb90003300180133029a0528549700956b000182b9980082b7880082b89000d4870782ba8000d4a908d47808988820d4a707977720d48707510706289c5282677801956aff0795aa310195ab00077bb770826760017bb778826770017bb780009568a010826768017bb78800649750201a01dee095670040837760fb0a0801956c000182cb980082c7880082c98000d47909140a00000000010000001407e0ffffff00000000d87b0782c8900094879497520706282352956738397b6988017b6a8001827c28028278300282793802827a400283b720956bff0795bb31017bba680795ba00077ba9607ba858956880107bac507b67380150201c0155e0956a000182a8980082a780009577c050221e01f7970052070628c1518389408267b801956aff0795aa310195ab00077bb7308267b0017bb7388267a8017bb740956860108267a0017bb7487b698001649750202001fedf956b000182b89800140a00000000010000001407a0ffffff00000000d8780782b99000949782b988009497520706285551838960826758019568ff07958831017b6a3001648a958b00077bb710826750017bb718826748017bb72095684010826740017ba728077b6928016497502022018bdf956a000182a8980082a730957780502224012e970052070628f850838780009569ff079599310149290807492900074929f806956820104929f0067b6730015020260146df956b000182b89800140a0000000001000000140760ffffff00000000d8780782b99000949782b988009497520706289d508387a0009569ff07959931014929e8064929e0064929d806956800104929d0067b6718017b6a200150202801e7de956a000182a8980082a720957740ff50222a018996005207062853508387c0009569ff07959931014929c8064929c0064929b8069568ff079588e1074929b0067b67200150202c019dde956c000182c79800140b0000000001000000140820ffffff00000000d8870882ca900094a882ca880094a852080628f44f8377e000956aff0795aa3101492aa806492aa006492a98069568ff079588c107492a9006017b6708017b6b100150202e0139de956a000182a9980082a710957700ffd8790782a89000948782a888009487520706289d4f83970001956aff0795aa3101492a8806492a8006492a78069568ff079588a107492a70067b67100150203001e7dd1407e0feffff000000009569000182989800d8780782989000948782988800948752070628484f82679801837920019567ff07957731014927680649276006492758069568ff0795888107492750067b6900016497502032018cdd826768019569ff0795993101959a00067ba748826770017ba740826760017ba7389568ff0795886107826778017ba73033075020340154dd9568ff07958831014928280649282006492810060264893307209568ff0795884107492918065020360128dd9517e08477e07b676801647133079401027b67f800390794010256173f0c8268f800480840019517e08479e07b69900164913307a00102837783993308407b67f0000a07826a900182a71882a81082a90882aa6f7b7b6b70016f887b6878016f997b6990016fa77b678801826a68017ba7187ba9107ba8087bab9567ff0795772107826898015020380162db956aff0795aa310182a7080682a8000682a9f80582aaf005956b383995bc00027bc7607bc8587bc9507bca489568803b8267680150203a01d7dd9567ff07957701078268380150203c0116db9567ff07957731018272d0058273d8058274e005827ae80582677001957701887c0182687801c88c0cd4c70b88bb0182689001c88b0bd88b0882698801c89808956938397b988002959800027b8b787b8c707b87687b8aa0007b9498027b9390027b9288029567a03b9568c03b50203e0152dd9567ff079577e106826880015020400191da9567ff07957731018272b0058273b8058274c005827ac80582677001957b02d87b0c82687801c8c807d88708dacc0882699001c89808d8980c82698801c89c0c956938397b9cc002959c00027bc8b8007bc7b0007bcba8007bcae0007b94d8027b93d0027b92c8029567e03b9568003c50204201cadc9567ff079577c106826828015020440109da9567ff079577310182729005827398058274a005827aa80582677001957b03d87b0c82687801c8c807d88708dacc0882699001c89808d8980c82698801c89c0c956938397b9c0003959c00027bc8f8007bc7f0007bcbe8007b9a20037b9418037b9310037b9208039567203c9568403c5020460142dc9567ff079577a106826830015020480181d99567ff0795773101827270058273780582748005827a880582677001957b04d87b0c82687801c8c807d88708dacc0882699001c89808d8980c82698801c89c0c956938397b9c4003959c00037bc8387bc7307bcb287bca607b9458037b9350037b9248039567603c9568803c50204a01bedb9567ff07957781068268180150204c01fdd89567ff0795773101827250058273580582746005827a680582677001957b05d87b0c82687801c8c807d88708dacc0882699001c89808d8980c82698801c89c0c956938397b9c8003959c00037bc8787bc7707bcb687bcaa0007b9498037b9390037b9288039567a03c9568c03c50204e0139db9517e0847ce064c18268700195870650225001c79000826b8801c8b8087b6c98017bc8187bca107bc9087bc79567ff079577610682682001502052014cd89567ff0795773101827830057b688001827838057b686801807840057b6860019567ff0795774106826898015020540146da9568ff0795883101808724059777208288280582696001d4970795693839826a6801959b00037bbab000826a80017bbaa8007bb8c0007bb7b8009568e03c826798015020560181da9567ff07957721068268080150205801c0d79569ff07959931018297080582980005829cf804829bf0048e798e8adb790a8ec97b6b800188bb0485bb017b6c6801dbc90bd48707db7a0b510b0628c06a9567ff07957701068268980150205a019cd99567ff07957731018272d004957b000482b8d80082b9e80082bae00082678001987b20826c680197cc20d4cb0b977c201407ffffffff00ffffffd2a707d4c707d4b909956a383995ab00037bb8d0007ba2c8037bb9e0007bb7d8009568003d8267980150205c01b6d99567ff079577e1058268100150205e01f5d69567ff07957731018272b0048273b8048274c004827ac80482677001957b07d87b0c82687801c8c807d88708dacc0882699001c89808d8980c82698801c89c0c956938397b9c0004959c00037bc8f8007bc7f0007bcbe8007b9a20047b9418047b9310047b9208049567203d9568403d502060012ed99517e0847be07b6b980164b18268700195870850226201b88e00826c8801c8c8087bb8187bba107bb9087bb79567ff079577c105826800015020640141d6956aff0795aa310195ab000482b7a00082b8a80082b9980082ba9000d49808d4a707d487078e777b6790019567ff079577a105826898015020660130d8956aff0795aa310195ab000482b77082b87882b9880082ba8000847700ff826b9001d4b707956b383995bc00047bc9407bca387bc8307bc7289568603d82679801502068016cd89568383949286004492858044928500449284804019567ff07957781059568803d50206a01c2d79568ff0795883101958900048297687b6778018297607b6770018297587b6768018297507b6760019567ff079577610533084050206c015dd59567ff0795773101957900048298487b6890018298407b6888018298387b6880018298307b689801956700408377a0fd33006e010a083302700128e08e0050227001dc8e0082b76882b87082b97882ba8000826b4001956cff0795cc31017bcba803826b48017bcba003826b50017bcb9803826b58017bcb9003826ba0017bcbc803826ba8017bcbc003826bb0017bcbb803826bb8017bcbb00395cb00037bbae8007bb9e0007bb8d8007bb7d000826790017bc70804826788017bc70004826780017bb7f8009567ff07957741059568ff07958821059569ff0795990105956aff0795aae104956bff0795bbc104826298017bc2f003502072013870956b000182b88000648982b79000d4870782ba880082b89800d4a808d47808988820d4a707977720d4870751070628f24664a29568ff0795883101958b000482b71882ba287b6ab8018283100482ba20d39700d8970c82649801d84308da080cc92a0bc9cb00d8cb0b7b6bb001d82a0a826c9001826bb801c9cb0cc9ac0c826ab001c9ac0cc99707c98707c94308d4c707d4080ad47a0ad4070798aa20977720d4a707510706287a463a07f800023a09000102956bff0795bb310195bc00037bc788007bc980003a070801023a09100102956b000182ba607bca5082ba687bca587bc7787bc97082b7707bc7609569ff079599a104956aff0795aa810482b7787bc76882b79800502074016cd69567ff07957761043308405020760143d3956aff0795aa310195ac000382c74882c84082c93882cb305022780159870051070628e04564ba9567ff0795773101956c000182c8607b78100382c8687b78180382c8707b7820039568ff079588410482c9787b79280364b77bcab8003300ca022816d450227a01d38c008377600233007c010a0f01956a384195ab000150227e01b88a0051070628c360502280011f8c00ac780628c36095670040837780023308040a0295673841957900018298607b68d0008298587b68d8008298507b68e0008298487b68e80049278001492778014927700149276801956740279568a0425020820188d495673821827810067b68b801827808067b68b001807718067b67a8013307a001037b67a0018377330084010a0433028601284a85005022860146850095683821492800064928f8057b87e805956720274928f0055020880167738267d00095693821959a00057ba7e0008267d8007ba7d8008267e0007ba7d000956800278267e8007ba7c800330750208a0108d3956738214927c0054927b8054927b005647a3307209568e026492aa8050250208c01e4d23308940102390794010256173f1220039401024033028e01281d890050228e011989003307a0010283777b68280183993308407b673001330090010a0733029201285988005022920155880095bc00017bcaa0007bc998007bc890007bc788009567c0269568c0425020940168d3956b382182b7a00582b8900582b9880582ba9805826cd000d3c707826ce000d3c808d487078268d800d3a808826ae800d3a909d49808d48707887701492b8005492b78057bb768059567a026492b7005330096013302100628428600956738218268d000957a00057ba8608268d8007ba8588268e0007ba850956880268269e8007ba948330750209801ead195683821492840054928380549282805026489330720956860264929300550209a01c6d182682801818756173f08480840019517e08477e07b67b80150229c01f287000a07826ab80182a782a80882a91082aa186f726f8c6f996faa9517e08478e0648195a3067b6a9801d8a30bc8b9077b69a001d8970adabb0ac8ca0a7b6ca801d8ca097b62b001c829097b87087b837b8a107b8918956740267b68b80150209e0137d23302a00195693821017c971c0554170307281c5e9577fd8e77492900054929f8047b97e804956720264929f0043300a20133022e0628348500956700268268b8015020a401f0d1330700205022a601a687005022a80165870095bc00017bcac0007bc8b0007bc7a8007bc9b8009568e0428267b8015020aa013fd29517e0847ce064c182689801958708d88708826aa001c88a09d8a90ada880a8268a801c88a0ad88a08826bb001c88b0b64c87b6cb8017bcb187bca107bc9087bc79567e0255020ac0171d1330700205022ae0127870082b7a80082b8b00082b9c00082bab800847700ff867701956b384195bc00017bc9e0007bcad8007bc8d0007bc7c800956800438267b8015020b001acd18267d00095693821959a00047ba7a0008267d8007ba798008267e0007ba790009568c0258267e8007ba7880033075020b20103d0956838214928800449287804492868040464893307209568a025492970045020b401dfcf5022b601b8870082692801819756173f08480940019517e08477e07b67b0015022b8010486003300ba010a073302bc01285482005022bc01508200956780253308405020be015dce95673821957900048298607b68c8008298587b68c0008298507b68b8008297487b67f000956760258268b8015020c00157d08267f0008268c8008269b800d48909826ac0005022c20182850051080628cd40956c382182c9400482c8380482ca300482cb28047b6b08017bcb08047b6a100195cb00047bba107b6818017bb818956840257b6920017bb9205020c40106cf82679801956838217b8700048267a0017b87f8038267a8017b87f0036489956820258267b0017b97e80333075020c601d4ce9517e08477e07b670001647182692801819756171f08480920011407ffffffff000000007b6738015022c8010b8500826730010a074926980149269001330c49268801826ab80182a71882a81082a90882aa6f726f876f9b6fa982680001649a7b89187b6b50017b8b1064797b87087b6258017b821407e0ffffff000000007b67f8008267f000956b00017bb7b8008267b8007bb7b0008267c0007bb7a8008267c8007bb7a000017b6a68017b6970018263b8019534208267080182699801d8790782691001826b9001d39b0ad89b09daa709826b1801d8bc07826a200182628801d3a200d8a20ada070a7b6c6001d3bc07d407077b648001d8340bda790a956900018297b000c8b702d87207dabb07829ca800c87c0bd8cb07829ca000c8c7077b9778520a062893337b6b40017b624801956780215020ca018ace956a000182a7a80082a8a000d487078268f80082a9b800d8890882a9b0009498947852080628f83e956a382182a75882a85082a948826b3801d2b707330bffd2b808d2b909491a407ba9287ba830956860217ba738826780015020cc0139cd826b580195bb017b6b580188b701826a7001c87a0ad4ab0788770182685001c87803d8830882676801c8870782699801959901889801826c9001c88c0c7b6998017b6c9001d4c90888880182696001c88902d89209826c8801c89c0c7b6c880164a9956c000182c87b8a087b8b7b8310647a7b87187b63500182c780007bc7b80082c7487bc7b00082c7407bc7a80082c7787bc7a000642c2875fe4929200149291801492910014929080195670040837740fa3300ce010a0f330700403302d00128ee8400330700405022d001e6840082b71882b82082b91082ba08d49808d4a707d48707510706289b598267b801817756170307289b599567ff07957761033308405020d201f6ca956aff0795aa310195ac000282cb4882c84082c93882c7305022d40142810051080628933d492a2802492a2002492a100200a3029568ff0795884103492a18027b67b8013300ca0228e2cb492a8006492a7806492a7006492a6806956700308377a0073300d6010a0f01956a383195ab000682b77882b8800082b97082ba68d49808d4a707d487075107062808595022d801cf8300ac7806280759956700308377c0073308040a02956a383195ab000682b7880082b8900082b9980082baa0007b6a78067b6970067b686806956860067b67600633075020da0154cb4926580649265006492640060433072095684006492648065020dc0136cb5022de010f83003309940102390794010233083fac78152003940102407b69a8013302e001286683007b69a8015022e0015e83003307a00102837783993308407b67a0010a07826ab00182a71882a81082a90882aa6f776f886f996faa826bb8017b6a88017bba187b6990017bb9107b6898017bb8087b67b0017bb7956720063308405020e20173c9956800068287387b67f0008287307b67e8008287287b67e0008287207b67f800956700068268b8015020e40171cb826be000826ae8008267f8008269f000d4b9095022e6019c800051080628e73b82621806956a000682a81082ac0882a97b6928017b69e0057b6c30017b6ce8057b6838017b68f0059568e0057b6240017b62f8055020e80125ca8268f8009587207b670801d887078269e000c879087b681801d89808da77088267e800c878087b680001d878077b67b80182678801956900057b97d800826790017b97d000826798017b97c8009568c0058267b0017b97c00033075020ea01c4c99517e08477e07b67200164718269a801819756171f08480920018267f0008268b801c887077b6710011407ffffffff000000007b6748015022ec01ec7f8267a0010a0733023303330049269801826ab80182a71882a81082a90882ac6f746f8b6f9a6fc98268200164977b89187b6a78017b8a1064bc7b8b087b6480017b84956a000182a9087ba9b80082a9187ba9a80082a97ba9a00082a9107ba9b00001956b00017bb788007bbc900082b728d8720782b930d3930ad89309daa70982b738d8700482ba4082bc9800d3ac0bd8ac0adab40ad37007d4b707da790a520a0628722b7b6060017b6368017b6270019567a0045020ee01bec9956800018287b800828ba000d4b709828ab000828ca800d4ac08d48909989920d4b808978820d4980851080628253a7b6ba001826bb0048268a8048269a0047b6ab001826a4801d2ab0b8488ff8499ff49269804956a00047ba980007ba88800956880047bab90007b67b8017b6ca8015020f00156c88268b8019587207b675801d887098268a801c898077b675001d8870ada990a8267a001c8a700d8700a8267b001c8a7077b67b001826480019544017b648001884a0182679001c8a707d4740a88aa0182687801c88a0ad88a0b82698801c8b90982627001952201882b0182636801c8b303d4320b88bb01826c6001c8cb0bd8cb0c82689801c8c8087b689801647c826820017b87087b847b8a1064977b89187b6a7801956a000182a9587ba9b80082a9507ba9a8007b60a00164b02876fe33081b96e262aa8706280a555022f201308000837700fe3300f4010a0f3302f60128fa7f5022f601f77f82b7d80082b8e00082b9d00082bac800d49808d4a707d487075107062838558267b8018177561743072832559567e0145020f801626195683811958900038297b800956800017b87a8008297b0007b87b0008297a8007b87b80095670040837720fe3308043300fa010a023302fc0128827f5022fc017f7f82b7e80082b8f00082b9f80082aa0005956b381195bc00037bcaa0007bc998007bc890009568c0147bc7880033075020fe01c2c63302000295683811014928800349287803492868030364893307209568a014492970035020020299c63308940102390794010256173f0b200394010240019517e08479e07b69900164913307a00102837783997b68a0013308407b679801330004020a07826a90013302060228a77a826a900150220602a07a7b67900164718267a8019777209877209569381149296003959a00037ba7588267b0017ba750956880148267b8017ba74833075020080210c68267700195683811958900037b9740826778017b9738826780017b9730648a33072095686014826988017ba9280350200a02dcc58268a001818756173f08480840019517e08477e07b67b80150220c02f27833000e020a0733021002280878502210020578956740145020120293c695683811958900038297207b6798018297187b6790018297107b6788018297087b6780018267a8019577018878018269b001c8980895693839959a00057ba810d478087ba7088887018268a001c887077ba718d887078268b801c887077ba720956720149568403e5020140225c695683811828700037b677801958900028297f8007b6770018297f0007b6768018297e8007b6760018268a801958702d88708826ab001c88a09d8a90ada880a50221602db7c956b383995bc00057bc8407bca387bc9307bc728956700149568603e50201802bec5956c381182c7e0027b67580182c7d8027b6750018268a801958703d88708826ab00150221a02b67c82c8d0027b68a80150221c02837c82cbc8027b6ba001956b383995bc00057bc8607bca587bc9507bc7489567e0139568803e50201e025ec5956738118277a8027b6748019567c0133308405020200219c3956938118292a00295970002827c9800827b9000827a8800d42b07d4ca08d47808988820d4c707977720d4870751070628a835826780017b976802826788017b977002826790017b9778029568a013826798017b97800264a77b6ab8017b6bb0017b6290017b6c980150202202e4c3956c000182c8b80082c7980082cb9000d47b0b140a00000000010000001407e0ffffff00000000d8780782c9b000949794b752070628343583872082686001956938117b6a9001649a959c00027bc848826868017bc850826870017bc85895688013826978017ba960027b6b98015020240270c395690001829b9800829ab0008298b800829790009577c0d8780794a794b752070628d4348387408268a001956b381195ba00027ba8288268a8017ba830826850017ba83895686013826958017ba940502026021bc3956a000182a9b8001407a0ffffff00000000d8790782a8b000948782a898009487520706287c347c6748018e78839760956a3811492a2002492a18027ba8080295684013492a100250202802cdc2330880008267b80150202a022ec683783309800033070a0c28e60d50222c02df7aac7806289d50956700408377e0fe3308040a0295673839957c000582cbc00082cab80082c8b00082c9a80095673819956c00017bcba0007b7b40057bcaa800957b00057bba387bc8b0007bb8309568601e7bc9b8007bb928330750202e024cc295673819492720054927180549271005647a3307209568401e492a0805025020300228c23308940102390794010256173f0b200394010240019517e08479e07b69880164913307a0010283777b68900183993308407b679801330032020a07826a880133023402287174826a8801502234026a7495bc00057bcae0007bc9d8007bc8d0007bc7c8009567201e9568003f50203602a8c2956b381982b7000582b8f00482b9e80482baf804826ca001d3c707826cb001d3c808d487078268a801d3a808826ab801d3a909d49808d48707887701492be004492bd8047bb7c8049567001e492bd0043300380233021006288275956738198268a001957a00047ba8c0008268a8017ba8b8008268b0017ba8b0009568e01d8269b8017ba9a800330750203a0227c133023c0295683819014928a00449289804492888040264893307209568c01d4929900450203e02fec082689001818756173f0e4808403302400228ca7350224002c773330042020a07826a880133024402288171826a8801502244027a71958a00057babe8007bacf0007ba9f8007b8700069567a01d9568203f5020460299c13302480295693819017c977c045417030728914e511701c8008267b801959a00047ba7488267b0017ba7508267a8017ba7589568801d8267a0017ba760330750204a0262c033024c0295683819014928400449283804492828040264893307209568601d4929300450204e0239c082699001819756173f0e48094033025002280573502250020273330052020a07826a88013302540228bc70826a880150225402b570958a00067bab087bac107ba9187ba7209567401d9568403f50205602d8c03302580295693819017c971c04541703072831515117020728682d956738394927400649273806492730064927280695670040837760ff33005a020a0f01956a383995ab000650225c02597651070628a3129567401633084050205e024dbe956938118292200595980005828c18828b10828708d42b0ad4c708d4a808988820d4ca0a97aa20d4a80851080628df304929f8044929f0044929e804140a00000000a079c308956820167b9a00057b67b8017b6bb0017b62a0017b6ca8015020600223bf50226202796f520706289f30838704956938114929e0044929d8044929c80420956800164929d0047b6aa8017b6ba00150206402edbe956a000182a8b80082a7a0009577dcd8780782a9b000949782a9a8009497520706285130838724956938114929c0044929b8044929a804219568e0154929b00450206602a7be95670001827aa800827bb0008278b800140900000000010000001407bcffffff00000000d8780794b794a752070628fe2f8387443a08c000027b69a001956c381195cb00047bb8a0003a08c800023a09d000023a0ad800027bb898007bb990009568c0157bba88005020680239be956a000182a9b80082a7a00095779cd8790782a8b000948782a8a8009487520706289d2f839764956a3811492a7804492a7004140800000000000000307ba880049568a015492a680450206a02eabd330884008267b80150206c024bc18378330701330984000a0c019567383949172049171849171049170895670040837740f90a0f01956a383982a71882a82082a91082aa08d49808d4a707d4870751070628ec4b8267b80181775617030728e74b9567ff079577a10133084050206e023ebc956aff0795aa310182ab880082a8800082a97882a770502270028c7251080628de2e491a68491a60491a500a9568ff0795888101491a587b67b8013300ca022833bd492940044929380449293004492928049567004083776005330072020a0f330700403302740228bc733307004050227402b57350227602bc73510706285d4b8267b80181775617030728584b9567a03233084050207802a3bb956a383195ac000182cb800082c87882c97082c76850227a02f27151080628442e492a6001492a5801492a48015a95688032492a50017b67b8013300ca022899bc492ac006492ab806492ab006492aa806956700308377e0070a0f01956b383195bc000682c7b80082c8c00082c9b00082caa800d49808d4a707d4870751070628d04a8267b80181775617030728cb4a492be006492bd806492bd006492bc8069567ff07957761019568003850207c021dbd9567ff07957731018278387b68b8018278307b68b0018077407b67a8013307a001037b67600183770a048269600182970882988199106f77987a206f88978b20d4ba0a9777206f99989920d497079888208269a801d398088269b001d39707d487078268b801d3a808d487078877019568ff07958831014918284918207b87109567ff079577410149181850207e02c55b492680014926780149267001492668014926a8014926b0014926b80133079401027b679801330701017b67a00195673831492700074927f8064927f0064927e806019567ff0795772101956820385020800238bc95670010827728f995680010828820f9956aff0795aa310182a282aa088263a801d3730bd837078264a001d84808dbb708826cb801d3ac07d8ca09826ab001d8a20bdb790bd32a09d49707db7b0852089707956800107b8400f9956800107b8308f9956800107b8a10f99568ff0795880101956900107b9c18f9330750208202c4ba956700104927f8f8956700104927f0f8956700104927e8f83307209568ff079588e100956a0010492ae0f8025020840292ba82689801818756173f08480840019517e08479e07b69880164913307a00102837783993308407b679001330086020a0701826a880182a782a80882a91082aa1850228802f47095ab08d8ab0ac8a90cd89c09daaa09c88909d88908c8870795683831958a00077bab087bac107ba9187ba7209567ff079577c1009568403850208a0200bb956700107c77c0f851071c028267a001956800107b87a0f88267a801956800107b87a8f88267b001956800107b87b0f89568ff079588a1008267b801956900107b97b8f8330750208c02c2b995670010492798f895670010492790f895670010492788f83307209568ff0795888100956a0010492a80f80250208e0290b982689801818756173f0e48084033029002284171502290023e71330092020a073302940228186b50229402156b7bab287bac307ba9387ba7409567ff07957761956860385020960238ba95670010827760f895680010828868f895690010829970f8956a001082aa78f8956b00107bba18f8956a00107ba910f8956900107b9808f8956800107b8700f882676801956800107b8738f882677001956800107b8730f882677801956800107b8728f89567ff079577419568ff079588219569ff07959901826a8001956b00107bba20f850209802165b95670010827758f87b67680195670010827750f87b67700195670010827748f87b67780195670010827740f87b6780018267b8017b67f8078267b0017b67f0078267a8017b67e8079568e0078267a0017b67e007330750209a025fb84926d8074926d0074926c8073307209568c0074926c0070250209c0241b882689801818756173f0e48084033029e0228f26f50229e02ef6f3300a0020a073302a20228c9695022a202c6697bab487bac507ba9587ba76049288007492878074928700749286807956780389568a0385020a4025fb98269b8018267b0018268a801826aa0017b6a80077b6888077b6790079567a007956880077b6998075020a6028359956800078287b800956900017b97b8008287b0007b97b0008287a8007b97a8008287a0002827fc9567383949278005492778054927700549276805956700408377a0fe0a0f01956b383995bc000582c77882c8800082c97082ca68d49808d4a707d4870751070628d8458267b80181775617030728d345492ba005492b9805492b9005492b8805956740159568c03e5020a80219b83302aa02956838110195890004829718956800017b87a8008297107b87b8008297087b87b000956720153308405020ac02bab5956a381182ab000495ac000382c8f80082c9f00082c7e8005022ae02066c510806285828956b000182b8a800978820988920492ae00382b8b00095ac00037bc8c80082b8b8007bc8d000956800157bc9d8007b67b8013300ca022894b65022b0023b6f837700063300b2020a0f330700403302b402282b6d330700405022b402246d82b7d80082b8e00082b9d00082bac800d49808d4a707d4870751070628e9445022b602806eac780628e54495670040837720063308040a0201956b384182b8f80482b7000514090000000001000000d38909d47909988a2088aa01947a939a520a0628b34482b9f00482bae804956b383195bc00037bca88007bc990007bc898009568c0347bc7a00033075020b802e1b5330738315022ba02516d8388a004c86808492970035020bc02c6b5390894010256183f133308403d089401023302be0228026c5022be02ff6b3307a00102837783993308403300c0020a073302c20228866a5022c202836a7bca207bc9187bc8107bc70895678034956840465020c40261b69568383195890003829760956800017b87b8008297587b87b0008297507b87a8008297487b87a000956760343308405020c60200b4956a383195ac000382c74082c83882c93082cb285022c8021a6851070628a226956900018297a00095ac00037bc7088297a8007bc7108297b0007bc718956840348297b8007bc72064b77b6bb8015020ca02e6b43308208267b8015020cc0248b8837833092033070a0c014929a005492998054929900549298805956700408377c0063300ce020a0f3302d002283c6c5022d002396c82b7980082b8a00082b9900082ba8800d49808d4a707d487075107062833435022d202b26cac7806282f43956700408377e0063308043300d4020a023302d60228f36b5022d602f06b82b9a80082b7b00082b8b80082bac000956b383195bc00047bcac0007bc8b8007bc7b000956700369568e0357bc9a8005020d802965c95683831958900048297c8007b67b8018297d0007b67b0018297d8007b67a8018297e0007b67a0019567c0353308405020da02b6b295673831957c000482c8a0007b68980182c998007b69900182ca90007b6a880182cb88007b6b80017bc8607bc9587bca507bcb488268a0017bc880008268a8017bc8788268b0017bc87064799567a03595688035826ab8017b9a68045020dc02f24c956b000182b7800082b8980082b98800d4890982ba90005022de02a76951080628f3243308203300cc0228cdb69568000182898000828b70d4b907828a78828c68d4ca08d4870751070628ff41956700073308405020e002fab195680007828b18828c10828a088287d4ba09d4c708d49808988820d4c909979920d498085108062892244926f0064926e8064926e006140900000000a079c3089568e0067b69f8067b67b8017b6ab0017b6ba8017b6ca0015020e202d6b2956c000182c8b80082c7a80082caa000d47a0a5022e4024d63520706283f248387044926d8064926d0064926c006209568c0064926c8067b6aa8017b6ba0015020e60291b25022e8029863520706280d248387244926b8064926b0064926a0061d9568a0064926a8065020ea0267b25022ec02726552070628e3238397443a082801023a093001023a0a380102956b00067bb898007bb990007bba880014090000007761726468956880067bb9800033002604281db29517e08478e064818269289597065022ee02e2687b89087b877b8a107b8b18956780317b68205020f002e6b2956938317c975c541703072897439577fd8e774919404919387b9728956760314919303300f20233022e0628ed659517e08478e064818269289597085022f40288687b8b187b8a107b89087b87956740317b68185020f6028cb2956738317c770851070628071d8268289587025022f802f06695bc00027bc7a8007bc9b0007bcab8007bc8c000956780309568e0435020fa0251b23302fc029568382901958900078297607b6728018297587b6720018297507b6718018297487b671001956760303308405020fe02efaf956a382995ab000782b72882b94082b83082ba38957b207b6bb0017b67b801d87b07c8780b7b6ba8017b689001d88b08da7708c8a8087b6898017b6a8001d8a8077b698801c897077b67a00195670040837700040a0801956c000182c7b00082ca9800d4a70982c8a80082cba000d4b808d48909989920d4a808978820d49808510806282b22956a384195ab000282bcc80082b8d00082b9d80082bae000956b38297bba200795ba00077ba9187ba810956840307bac08502000036cb0956c000182c8b80095874050220203dd6451080628dd2195693829492900074929f80614080040f09bbce108007b98e806956820304929f006502004032db0956c000182c8b800958760502206039e64510806289e218268a000956a382995ab00067bb8c800826898007bb8d000826890007bb8d80095680030826988007bb9e00050200803e4af956b000182b7b80082ba8000d4a70782b8900082b98800d49808d48707987720d4a808978820d48707510706283d21956938294929c0064929b8064929b0069568e02f4929a806608267b80150200a0392af95683829492880064928780649287006958900064919688000826788017b97a000826780017b979800826790017b979000648a9567c02f9568a02f8269b8017ba9880650200c034c4e9517e08477e07b67d80064719567802f8268b80150200e03f5ad330210039568382901958b000682b76082ba5882b95082b848d49707d4a809d47909989920d4a707977720d497075107062883208267b0017b68b801502012035cb29518e08489e07b69b001649183778168b80183990a0701826ab00182a70882a81882a982aa106f736f8b7b6b08016f946fa268486837957740db4807682868b9959940db280995988000d4430adaa807d8980894a88e8a8879ee00859b01da8b0a88a9019599ff9aac9a88c9b8009a78ed007b6ca0018ec78e9b7b69a801da970b7b68b001888700018577018e0cdb0c07dbab07d4420a82680801d4380bd4ba0a88aa01d4a707330b8097067b64e00094747b63e80094737b62f00064299479648a947a51070628ea218267b0018577ff00826ca001d4c7088262a801d42007d4870752070628cb21492648018097068268b0019589017b69b801889701c807077b679801d49707887701c8c7077b678801d8c707c827077b6790019a88ff007b68b0019a898000826708018268f000502014038d667b67a8017b6880018267e8008268e0008269b0015020160399667b67a00182678001d487077b6778018267b001957980826708018268f0005020180375668269b001889a80007b6a8001826b7801dbab08826be000da9b087b6858018268a801826ba001d4b808daa7088267e800da97087b68a801826708018268f00050201a033066956c000182c9980082ca9000d4a90982cab80082cb8800d4ba0ad4a90982ca800093a87bc8a00093a77bc7b000510906288a1e330c4926400182605801287c2033021c0395693819018267b801959a00037ba7088267b0017ba7108267a8017ba7189568401c8267a0017ba720330750201e03bfac330220039568381901492800034928f8024928e8020264893307209568201c4929f0025020220396ac82699001819756173f0e4809403302240328625f502224035f5f330026030a0701826a880182a782a80882a91082aa1850222803086395ab03d8ab0ac8a90cd89c09daaa09c88909d88908c8870795683839958a00067bab487bac507ba9587ba7609567001c9568803f50202a0318ad95673819957900028298c8007b6888018298d0007b6880018298d8007b6878018297e0007b677001956700408377a033002c030a080195683839958b000682b780008282680682b97882ba7082687001d3870bd8870882677801d8790cdbb80c82688001d38a03d88a0a82688801d8820850222e030363520806285b1a8267b80195693819959a00027ba7088267b0017ba7108267a8017ba7189568401b8267a0017ba72033075020300379ab330232039568381901492800024928f8014928e8010264893307209568201b4929f0015020340350ab82689001818756173f08480840019517e08477e07b67700150223603665e0a07826870018287187b6788018287107b6780018287087b67780182877b6770013302380395693819018267a001959a00017ba7e0008267a8017ba7d8008267b0017ba7d0009568001b8267b8017ba7c800330750203a03d8aa33023c0395683819014928c0014928b8014928a8010364893307209568e01a4929b00150203e03afaa82689001818756173f0848084001826770016f777b676001826778016f777b675801826780016f777b675001826788016f777b67480150224003565d0a07826a880182a71882a81082a90882aa6f777b6780016f877b6778016f977b6770016fa77b6768019517e08477e07b67880164713307a001037b67400183777b6718010a048269400182970881981082996f77977a206f88988820d48a0a9877206f98978920d49707988820956938194929a001959b00017bb898007bb790009568c01a7bba8800330750204203e2a98267680195683819958900017b978000826770017b9778826778017b9770648a3307209568a01a826980017ba9680150204403ada982689001818755174008480840019517e08477e07b67800150224603c35c330048030a070182684801958702d88708826a500150224a038661956c38397bc99006826b800182b8107bc7880682b71882695801c89a0a7bca9806d89a09826a6001c8a9097bc9a00682b90882ba6f7c6f8b6f986fa9826788017b6978017b79187b6880017b78107b6b70017b7b087b6c68017b7c9567801a9568c03f50204c03fda995673819957900018298487b6838018298507b6830018298587b6828018297607b672001956700408377e033004e030a0801956a383995a800068287c00082a2a8068289b800828ab00082682001d3870bd8870882672801d8790cdbb80c82683001d38a03d88a0a82683801d8820850225003ea5f5208f900956c000182c748957906d8790782c850c8780ad88a08da770882c758c8870bd87b0782c860c87808956738397bc9387b79c8067bca30957900067b9ad0007bcb287b9bd8007bc8207b98e0009567601a95680040502052032aa9956738197c773c015417030728a43a5217018c009517e08478e07b6810016481826720017b8718826728017b8710826730017b8708826738017b879567401a50205403e5a83307002050225603656082b70882b81082b91882ba20140bffffffff00ffffffd2b909140b0000000002000000d4b909956b38397bba000795ba00067ba8f0007ba7e8007ba9f80095682040826710015020580312a99517e08478e0648182696801959703d8970b826a7001c8ba09d8a90adabb0a826b8001c8ba0ad8ba0c826b7801c8cb0b7b89087b877b8a107b8b189567e0197b68380150205a0346a8956b381982b7a8008478ff005208b20482b8b00082b9c00082bab800867701956b383995bc00077bc8107bc7087bca187bc920956840408267380150205c0388a88267a001956938197b97a0008267a8017b9798008267b0017b9790009568c0198267b8017b978800330750205e03e3a695683819492880004918784918680464893307209568a01949197050206003c2a69517e08477e07b673801647182699001819756173f08480940019517e08477e07b67300150226203cc59330064030a0701956c000182ca3050226603265e82c8387bca087b8a187bc9207b89107bcb287b8b087bc7307b87956780195020680352a7956b381982b26082bc5882ba508e278ec8db2708d42c078ea9db7809510906280c3982b7487b679001957701887801c8a808d48709889901c8c9097b6a0001d8c90ac82a0a956b38397bb7280795b700077b78307b79387b7a4095686040826738017b6c38017b62f80050206a0365a79517e08477e07b6710016471956738118268f800957900077b98e000826838017b98d800826800017b98d000826890017b98c80082670801956838197b87826720017b87f8826728017b87f0648b956740199568201995690019826a30017bbae850206c03bc41956838198287407b6790018287387b6720018287307b6730018287287b673801828718828b20828908828a10826810017b87107b8b187b897b8a089567e01850206e0336a695683811958900078297b8007b67f0008297c0007b67e8008297a800648a7b67e0008269380198973d826b300197b803d487077b67280198b73d826b200197b803d487077b67300182a7b0077b67d80098b73d82689001978803d487077b6720019799037b699001826718010a04826928018e97826c900188c80001858a01db970a826b20018eb7826930018e98dbb70864b7826b400182b308d4790981b210db980a7b6a080182b86f379779206f2a98aa20d49a0a7b6a00019877206f8b97b920d479087b68f80098bb207b6b30018dc980007b69d00064a7502070033a5d7b6720017b68c000826738018a79037b69280182673001330850207203415d7b68b80082682001d487077b673801826790018379807b69c800826700018268f80050207403195d82699001889b80007b6b2001826a3801dbba07826a3001da9a077b6738018267c000826ab800d4a707dab80793977b673001826700018268f8008269280150207603d55c64898268200193879389826a08018268300194a87b6830018268380194a87b68380194a97b69000194a77b67f8001407ffffffff000000007b67c000330882692801502078038d5c7b67a8007b68b8003307ff3308ff8269d00050207a034f5c7b68b0008268a800d487077b67d0003307ff3308ff8269c80050207c03565c82692001826ad000db9a07826b9001826ac000daba077b67d0008267b800826ab000d4a707da980793b77b6790013307ff3308ff8269280150207e03185c8269200193979398826990018599ff826ad00085aaff8588ff8577ff826b080194baff94b9ff94b7ff94b8ff826bd800d2b808826be000d2b707826be800d2b909826bf000d2ba0a956c000182cb38d4ba0a82cb30d4b909826bf800d4b70782cbd4b808956b38397bb8500795b800077b87487b89607b8a589568804082c710502080030ba49567383949278007492778074927700749276807956700408377a0000a0f95673839957900078298687b6890018298707b6838018298787b683001829780007b6728019567c018826888015020820337a3956b381182ba880782b7900782b8980782b9a007826c28017bbc4007826c30017bbc3807826c38017bbc3007826c90017bbc280795bc00077bc9607bc8587bc7509567a01895688018956960187bca48502084034a44956a381195ab000782b7800082b87882b97082ba68956b383995bc00077bc7a0007bc898007bc990007bca88009568c040826788015020860329a39517e08472e064218267680195770188780182697001c8890cd4c709889901826a8001c8a909d8a90a826b7801c8ba0a64287b629001642b7bba187bb9107bbc087bb7956740185020880359a2956b381195bc000782c90882c71082c81882ca2095bc00067bcae0007bc8d8007bc7d00095672018956800187bc9c80050208a03f842956a381182a7000795ab000682b8f80082b9f00082bae800956b383995bc00077bc7c0007bc8b8007bc9b0007bcaa8009568e0408267900150208c0368a2956700408377000133008e030a080182686801958702d88708826a700150229003e25882688001c88a0ad88a08826b7801c8b808956b38417bb895bc00ff7bcaf800956a383982a8d8077bc9f00082a9e0077bc7e80082a7d00782aac8077bb9207bb8187bb7107bba08956720419568404150209203f0a19517e0847ce064c182684801958704d88708826a500150229403715882685801c88a0ad88a08826b6001c8b8087b6c90017bc8187bca107bc9087bc79567384149174049173849173049172895670040837760010a0f956738418278287b6880018278307b6878018278387b6870018277407b6768019567e0178268900150209603e9a0956b381182baa80682b7b00682b8b80682b9c006826c68017bbc6006826c70017bbc5806826c78017bbc5006826c80017bbc480695bc00067bc980007bc8787bc7709567c0179568a017956980177bca6850209803fb41956a381195ab000682b7a00082b8980082b9900082ba8800956b38417bb7607bb8587bb9507bba48956880418267900150209a03dfa0956760178268880150209c034ea095683811958900068297407b6770018297387b6768018297307b6760018297287b6758019567401733084050209e03f19d95683811958900068297207b6780018297187b6778018297107b6788018297087b6790019567384149278000491778491770491768956700408377a0013300a0030a0f01956a000182a7800082a88800d4870782a97882a890005022a2036157510706284d10956a384182a76882a87082a97882aa8000956b38117bba000695ba00057ba9f8007ba8f000956820177ba7e800826790015020a4038e9e956a000182a7800082a878d487071408e0ffffff0000000082a99000d8890882a988009498947852080628e90f82679001837720956a38118268580195ab00057bb8c800826860017bb8d000826868017bb8d80095680017826970017bb9e0005020a603289e826718010a048269400182970881981082996f7a97a7206f88988820d4780298aa206f99979820d4a80398992095683811492880058267a0017b87a0058267a8017b8798058267b0017b8790058267b8017b8788053a0aa000023a0ba800023a0cb000023a07b800027b8ac005958a00057babb8007bacb0007ba7a8007ba9787b83700564873308409569e016956ac016956ba0167b726805826790015020a8030fa033078268980133090a0c3308a0010228412b8267f8008268b801d878038268e000826ca801d38c0ad88c09daa3098262e800826aa001c92a00d82a0a8264f000826bb001c94b0bc9ab0bd8900ac9ab0bc99000c98c09c93909826ab801c97a0a7b67a0057b6a80057b68a8057b62b0057b6988057b64b8057b6090059567a005956880057b6b98055020aa03fa3b956760053308405020ac03b09b8262780595680005828c70828a68828760d42a09d4c708d49808988820d4c909979920d4980851080628460e9578207b68b001d8780bc8ba087b68b801d8a808dabb08c8c8087b68a001d8c808c828087b68a8014926580549265005492648059568400549264005207b6750017b6a40017b6238017b6c30015020ae036b9c956720058268f8005020b003239b956c000182c7b00082caa000d4a70982c8b80082cba800d4b808d48909989920d4a808978820d4980851080628b60d956c000582cb3882c83082c92882ca207b6a58017bca7b6960017bc9087b6868017bc810956800057b6b70017bcb185020b203f99b3302330b33003304956a000182a8509587407ba7b000d8870782a940c879087ba8a800d89808da770882a730c878087ba8a000d8780782a838c887077ba7b80082a808826300010182675801d8720782696001d39b0a7b6b9801d89b09daa709826c6801d8c007826a7001d3a40bd8a40adab70ad3c007d4b707da790a510a9c0cd4380782691001826a1801d4a909d49707987720d43909979920d4970751070628dd0c7b6080017b6488017b6290017b6300019567e0047b6808015020b403fd99956800018287b000828ba000d4b709828ab800828ca800d4ac08d48909989920d4b808978820d4980851080628900c7b6ba001826bf0048268e8048269e0047b6ab801826a4801d2ab0b8488ff8499ff4926d804956a00047ba9c0007ba8c8009568c0047babd0007b67b0017b6ca8015020b603c19a8268b0019587207b677801d887098267a801c89703d8730ada990a8267a001c8a709d8790a8267b801c8a7077b67b80182670801957a20d87a0b82671801c8b70cd87c07dabb0782680001c88707d8870b82681001c8b8087b68100182629001952201882b0182649801c8b404d4420b88bb0182688001c88b0bd88b0882608801c88000826878017b68b0017b63a8017b69a00164a87b6c1801647364b7644b64046470286cfe8268f00082678001d88704826cb800d3c207d8c209da74098267c000c97b0ad89a03d87b0bc83b0b7b6bb8018263c800826b7801c93b0b8260b801c90b0b7b6bb801c99a0a7b6ab001c9c209c94909826b8001c98b0b956a38217ba8c8037baba80395ab00037bbcd0007bb7d8007bb9b0007ba3e0038267b0017bb7b800956700259568e0248269b8017bb9c0005020b80389384926a001492698014926880149269001019567c0248268f0005020ba032d98956c382195ca000382a7900082a8a00082a9880082c4980382609801d37003d870078262a001d89209db3709826b8801d84b07826a9001d38a03d88a08da3708d34b07d43707da7908510804097bc268028267f0007bc788027bc070028267b8007bc790027bcb78028267c00095cb00027bb798007bba80009567e0239568c0239569a023826ac8007bbaa0005020bc03af3f95683821958b000282b7c00082b9b80082bab00082b8a800d4a707d4980ad47a0a98aa20d49707977720d4a70752072c0a956780235020be035f973302c0039569382101959a000282a7487b67b80182a7507b67b00182a7587b67a8018267d0007ba7408267d8007ba7388267e0007ba730956860238267e8007ba72833075020c2034f9895673821492720024927180249271002647a33072095684023492a0802035020c4032b9882682801818756173f0848084001826738018268a801d287077b67a8018268b0018488ff7b68b0018268b8018487ff7b67b8019517e08477e07b6780015022c603324e0a07826a800182a71882a81082a90882aa6f777b6778016f877b6770016f977b6768016fa77b6760019517e08477e07b67800164713302c8039569382101492900028267a801959a00017ba7f8008267b0017ba7f000956820238267b8017ba7e80033075020ca037e978267600195683821958900017b97e000826768017b97d800826770017b97d000648a33072095680023826978017ba9c8015020cc03479782682801818756173f08480840019517e08477e07b6778015022ce03734d3300d0030a07826a78013302d203285c4c826a78015022d203554c8377e002c867075020d403f39795693821018292c00195970001827bb800827cb000827aa800d42c07d4ba08d48707510717027b6a60017b6c68017b6b70017b6278014929a0018267b801959a00017ba788008267b0017ba790009568c0228267a8017ba7980033075020d6039f9695673821492780014927780149277001647a3307209568a022492a6801055020d8037b969517e08477e07b678001647182682801818756173f08480840019517e08477e07b6758015022da039b4c3300dc030a07826a58013302de0328844b826a58015022de037d4b83778002c867075020e0031b97956c382182ca480182c7500182c8580182c96001826b78017bcb0001826b70017bcbf800826b68017bcbf000826b60017bcbe80095cb00017bb9207bb8187bb7109567602295684022956920227bba085020e2032e38956a382195ab000182b74082b83882b93082ba28956b38417bb7000295b700017b78f8007b79f0007b7ae80095682043826780015020e4030e97956700223308405020e6035294956a382182a7e00082a8d80082a9d00082abc8005022e8036c485207f706826760017ba7a800826768017ba7b000826770017ba7b8009568e021826778017ba7c00064b77b6b80015020ea033e9595673821956c000182c8a8007b78789567382182c8b0007b78709567382182c8b8007b78683a075800023a086000023a096800023a0a700002956b38217bb7a000956738217b789800956738217b799000956738217b7a88003308209569c021956aa021956738214927800082c780005020ec03a696956a000182a8a00095880188870182a99800c879097ba8a0007ba99800d4980788770182a88800c88707d8870882a99000c889097ba990007ba788002817fb956720313308405020ee03429395673831827b957800ff828cf800828af0008289e800d4ba07d4c908d47808988820d4c707977720d487075207d605956738297b6ab001647a4927d8074927d0074927c807140700000000a079c308956800317ba7e00764977b69b8017b6ba0017b6ca8015020f00311945022f203674451079005838704956938294929c0074929b8074929a807209568e0304929b0077b6aa8017b6ba0015020f403dd935022f6030b4b51075c05838724956938294929a0074929980749298807169568c030492990075020f803b1935022fa03bc46510730058397443a080000023a090800023a0a100002956b382995bc00077bc880007bc9787bca709568a030492b680733002604287193956700123308405020fc032d92956938118292e000829cd800829bd0008297c800d42b0ad4c708d4a808988820d4ca0a97aa20d4a8085208c3044929b8004929b0004929a800140a00000000a079c3089568e0117b9ac0007b67b8017b6bb0017b62a0017b6ca8015020fe030693502200045c435107850483870495693811330c4929a0004929980049298800209568c011492990007b6aa8017b6ba00150200204d09250220404fe4951074f0483872495693811492980004919784919681a9568a01149197050200604a79250220804f2435107260483a7443a08e000023a09e800023a0af00002956b38117bb8607bb9587bba5014090000000000006465956880117bb948330026042863929567201d33084050200a041f9195693819018292000495980003828cf800828bf0008287e800d42b0ad4c708d4a808988820d4ca0a97aa20d4a8085208b0034929d8034929d0034929c803140a00000000a079c3089568001d7b9ae0037b67b8017b6bb0017b62a0017b6ca80150200c04f39150220e04494251077203838704956938194929c0034929b8034929a803209568e01c4929b0037b6aa8017b6ba00150201004bf9150221204c64251073e03838724956a3819492aa003492a9803492a8803149568c01c492a900350201404939150221604de425107120383a7443a089000023a09980002956b381995ba00037ba880007ba978140800000000737365727ba8709568a01c492b680333002604284e919567e01b330840502018040a90956b381982b2c00295b80002828cb800828ab0008287a800d42a09d4c708d49808988820d4c909979920d4980852089c02492b9802492b9002492b88027b6ab001140a00000000a079c3089568c01b7bbaa0027b67b8017b62a8017b6ca00150201a04df90956c000182c8b80082c7a80082caa000d47a0a50221c04564151074b0283870495693819492980024929780249296802209568a01b492970027b6aa8017b6ba00150201e049890502220049f4151071702838724956a3819492a6002492a5802492a48020e9568801b492a5002502022046c905022240477435107eb018397443a08780002956a3819492a30027ba84002140800006465646e65207ba838029568601b492a28025020260432903308648267b80150202804949383783307013309640a0c019567a02433084050202a04d38e95693821018292800395980003828c78828b70828768d42b0ad4c708d4a808988820d4ca0a97aa20d4a8085208670149296003492958034929500395688024492948037b67b8017b6bb0017b62a0017b6ca80150202c04b48f956b000182b9b80082b7a80082b8a000d487071408e0ffffff00000000d8890882bab00094a8947851081101839720956a3821492a4003492a3803492a300395686024492a280350202e04678f956b3821492be002492bd802492bd0028267d00095bc00037bc78267d80095b800027b87f8008267e0007b87f0008267e8007b87e8003a073800023a084000023a094800023a0a5000027bc7207bc8187bc9107bca0864b733084095694024956a2024956b00244927c8028267b801502030047c9133078268300133090a0c3308a0010228ae1c826750018264b001d87402826c40018268a801d3c80ad8c809daa209826a3001826ba001c9ab00d8ab03826b3801826ab801c9ba0bc93b0bd8900ac9ab0ac9900bc9c809c92909c97408d4a909d4b80ad49a0ad4b90998aa20979920d4a90952090628ca21008267b8019579808267e8008268e000502032043b477b6778017b688001826708018268f0008269b8015020340421477b6770017b6868018268b8019a8980008267e8008268e00050203604294782696801d498088269b801889a80007b6a6001826b8001daab08826bf000da9b087b68800182687001d4870782687801daa80782680801da98077b6778018267e8008268e00050203804b746330c49266801956b000182b96093987bb87093977bb76082b948959aff7bba388e999599ff7bb93082605801017b6c5001492640018268780198893f826c800197ca01d49a03978901980b3fd49b0b7b6b5801826a3001d33a078264a001d83a0882693801d8b902db78028268700197880182676001987b3fd4b8087b68700198cb3f977701d47b0b9707018268a801988c3fd4c709978c0198483fd4c808974c018267b00198703fd40c04977701826c5001d4c7077b67b001826c6801d44c077b67a001d48c077b67a801d49c00c9ba07d82707d8ba0882647001c94a0cc98c0cc97c0c99c23f82674801d2720782695801c979087b687801d87908c983077b6780019438c98b077b676001d88b08c98408956700017b7870827ab80082789800d48a09889901827b8800d89b0cc99b0b88a901c9980882799000c9c90995aaff7b7898007b799000d489097b7ab800d4ba0ad4a909842c017b7b8800492668015209cbfe8269a80198973f970801d48707826ba00198b83f979901d49808826ab00198a93f97bb0197aa01d4ca0a826c4001d4c909d4b909d48c03d47c04826b480101d6ab0cca9b0764b8c8c70bd87b07d69809c89707ca8409d6830cc8c9097b69b801ca8303caa8048268f000d3b80cd8b80982600801d84002dac209826ae000826cb801c9ca0cc87303d87307c97c0c826ae800c93a07d83a0ac9ac0cd8970ac9ac0cc99707c9b808c92808c94009956b3829826a10017bba0806826a18017bba100695ba00057ba9e800826920017bb91806826928017bb920067ba8f0007ba7f8009567602f9568402f9569202f7bbc000650203a04df2d9567382982724006827c38068273300682742806826828958707d88708826a30c88a09d8a90ada880a826838c88a0ad88a08826b40c8b808956b38417bb8000395b800027b8af8007b89f0007b87e8008268d8007b6c787b8c1064277b6780007b871864477b67687b8764377b67707b87089567204450203c047d8c9567002f82682050203e04ed8b956a382995ab000550224004654195bc00037bca207bc8107bc7087bc9189568404482672050204204458c9567e02e330840502044048989956a382995ac000582c7c00082c8b80082c9b00082cba800502246049f3d52072afc82676895a900057b9788008267707b9790008267787b9798009568c02e826780007b97a00064b77b6bb80150204804708a3a07180002956a38298268880095ac00057bc860826890007bc8587bc780003a072000023a082800023a09300002826b98007bcb507bc7787bc8707bc96864ab3308209569a02e956a802e8267a0007bb748058267b80150204a04f18b9567382982688800957a00057ba840826890007ba838826898007ba8309568602e8269a0007ba928330750204c04e38933024e0495683829014928200549281805492808050464893307209568402e4929100550205004ba8950225204934182690001819756173f08480940019517e08477e07b67b001647183793308408267f800330054040a0733025604282c3c50225604293c9567202e33084050205804378895673829827800057b6860957900048298f8007b68588298f0007b68508297e8007b67f0009567002e8268b80150205a04308a8267f000826860826950d48909826a5850225c045e3f5208adfa956c382982c9e00482c8d80482cad00482cbc8047b6b10017bcba8047b6a180195cb00047bbab0007b6820017bb8b8009568e02d7b6928017bb9c00050205e04e2888267980195683829958900047b97a0008267a0017b9798008267a8017b97900064899568c02d8267b0017b978804330750206004ac889517e08477e07b679001647182670001817756171f0c82680001480820011407ffffffff000000007b67300150226204df3e8267f8000a073303330c3302826ab80182a71882a81082ab0882a46f706f8a6fb733086f49826b90017bb9187b6738017bb7107bba087bb01407e0ffffff00000000956b00017bb7088267f0007bb7b8008267507bb7b0008267587bb7a8008267607bb7a000017b6948017b6a50017b6058018260b801950420826710017b637001d8730782691801d39c0a7b6c6801d89c09daa709826b2001d8b807826a2801d3a20c7b626001d8a20adac70a7b684001d3b807d4c7077b649801d8040bda790a956800018289b000c8b9077b878800d89707dabb078289a800c897077b8778d897078289a000c897077b878000510afd009567602882689001502064046b88956a000182a7a80082a8a000d4870782a80882a9b800d8890882a9b000949894785108ddf8956a382195ac000782c73882c83082c928826b3001d2b707330bffd2b808d2b909492a20077bc9087bc810956840287bc7188267980150206604188782605801950001880701826a5001c87a0ad4a00788770182683801c88707d88708826b4801c88b0b82637001953301883801826c6801c88c0cd4c30888880182694001c89808d8980982626001c89202826990017b9a087b907b97107b9b18956900017b9738829798007b97b800829788007b97b0008297787b97a800829780007b97a00064b9287efe8262f00082679801d82704826c5082678801d3c70ad8c709daa409826858826b7801c98b0ad89a03d88b0bc83b0b7b6bb801826360826b8001c93b0b8260b801c90b0b7b6bb801c99a0a7b6ab001c9c709c9490982679801c9270b956a38297ba268047bab480495ab00047bbc707bb8787bb9507ba380048267b0017bb7589567a02d9568802d8269b8017bb96050206804fd24492610014926e80049260801330933023300330b330c49268801492680014926700149267801140700000000010000007b6718011407e0ffffff000000007b6748017b6cc8007b6bd0007b60d8007b6238017b69e0009567602d8268f00050206a045c84956c382995ca000482a73082a84082a92882c4380482608001d37003d8700782628801d89209db3709826b7001d84b07826a7801d38a03d88a08da3708d34b07d43707da7908510882057bc228018267f0007bc748017bc030018267507bc750017bcb380182675895cb00017bb7587bba409567a02a9568802a9569602a826a607bba6050206c04e72b33026e049568382901958b000182b7800082b97882ba7082b868d4a707d4980ad47a0a98aa20d49707977720d4a707520762f69567402a50207004958395693829959800018287087b67b8018287107b67b0018287187b67a801826788007b87826790007b97f800826798007b97f0009568202a8267a0007b97e8003307502072048884956738294927e0004927d8004927d000647a3307209568002a492ac8000350207404648482680001818756173f0848084001826730018268a801d287077b6740018268b0018488ff7b6848018268b8018487ff7b67500150227604043a0a07826ab80182a71882a81082a90882aa6f777b67b8016f877b67b0016f977b67a8016fa77b67a0019517e08477e07b6768016471956938294929c000826740017b97b800826748017b97b0009568e029826750017b97a800330750207804ca838267a001956838297b87a0008267a8017b8798008267b0017b879000648a3307209568c0298269b8017ba9880050207a04978382680001818756173f0e48084033027c0428593950227c04563933007e040a07826ab80133028004288438826ab801502280047d387b68a001826968017b98187b67a8017b97107b6b98017b9b087b6c90017b9c9567a02933084050208204fc8195683829828780007b6760018289787b695801828b707b6bb001828a687b6ab8017b87607b89587b8b50956780297b8a48330084043302a805280a39956760298268680150208604de83956a000182a76082a8b000d4870782a95882a8b80050228804673b520756f4956b382982ba4082b93882b83082b7287b6728017bb7087b6820017bb8107b69c0007bb918956840297b6ab8007bba208267b80150208a0493828267900195770188780182699801c89808d48709889901826aa801c8a909d8a90a826ba001c8ba0a956b384195bc00037bc8307bc7287bc9387bca40956720299568604450208c043b83956a000182a76082a958d4790982674882a8b800d8780782a8b00094877ba96894975107acf3956738298279957c00ff82c8f80082caf00082cbe8008267b801837720956c38217bcbc80795cb00077bbad0007bb8d800956800297bb9e00050208e04e4818268900195870250229004ab357bc9507bc7487bca587bc8609567e0289568804450209204af82956900018297189577c08298b800d878078298b00094878298689487510726f3956938218292c007959a000782a8b80082abb00082aca8008267b8018377407b6ca8007bac88007b6bb0007bab90007b6860017ba898009568c0287b6258017b92a00750209404548182689001958703502296041b357bc9707bc7687bca787bc880009567a0289568a044502098041e82956900018297189577a08298b800d878078298b00094878298689487510795f233029a049569382101829768078477ff008e788267b80183776049296007492958077b984807956880284929500750209c04d8808267688268a800d88707826970826ab000d39a08d8a909da870982678000826a5801d37a08d8a707826b78826c6001d8cb0ada8a07d3bc0ad4a808da89078268280182693801d88908826a20018260d800d30a09d8a00ada980a8264c0008269d000d849088263b800826cc800d3c302d83c0bda280bd39408d4280882623801da8a0be07b07649b8268080182694001db79087b6808018268e80082694801db79087b68e8008268100182695001db79087b681001db730cdb740b82682001db780082682801db78028269e000947982688801958801888701826a8001c87a0a7b6888017b6a8001d4a80788770182687001c88707d88708826a7801c88a0a7b6a78017b6770012819fa8268e8008488ff956b000182b9108497ff82b93082ba08d2a9097bb7387bb928d497077bb830d48707510742099567402d82682050209e0486809568382980871c049777208288200482692801d49707956a38418269300195ab00037bb99000826938017bb988007bb8a0007bb798009568c0448267205020a004c6808268289587045022a204b43495bc00037bcab8007bc9b0007bc7a8007bc8c0009567202d9568e0445020a404158095673829827c000495780003828ae800828bf0008287f80033025ad62a08ca2b09c898087b68b801d89808d62b09c89808ca2709c889097b696801d889087b6b1801d4cb097b6a4001d47a0ad49a0b7b6c2001ca2c0a7b671001d62709c89a0ac88a077b677001510b21826770019478d89a09826a2001d62a0a8eaad4a909d498085108062802128268400196825a82636801d432078260b80182647001d44008d487078877017b67b00168379577406849da470968279577406808da070895878000d4430adaa709d8870b94ab8ebc8897fa00857a01daba0c88c7019577ff9ac89abbc9ab0a9a99f9007b6890018e8b8e78da7b088eab7b69880188990001859901dbab09dbc8098268b001d4980894847b64a80194837b63a00194807b6098017b62580194827b62b00152086103826888018588ff0082699001d49808d47a09d4980851084803826b880195b9017b69b001889801c8a8087b68a801d4980888880182699001c898087b689801d89808c887077b67a0019ab8ff007b6890019a898000826758018268b8015020a60466367b6788017b6880018267680182687001826990015020a80472367b67780182678001d487077b67800182679001957980826758018268b8015020aa044e3682699001889a80007b6a6001826b8001dbab08826b7001da9b087b68800182688801826b7801d4b808daa70882676801da97087b688801826758018268b8015020ac040936956c000182c9a80082caa000d4a90982cab00082cb9800d4ba0ad4a90982ca6093a87bc87893a77bc7900052090e492670014926580128eb018267b00195798082676801826870015020ae0495357b6760017b684801826758018268b8018269b0015020b0047b357b6708017b6850018268b0019a89800082676801826870015020b204833582695001d498088269b001889b80007b6b5001826a4801daba08826ab801db980a7b6ab80182680801d4870782686001dab80782685801db97087b68580182676801826870015020b4041135826258014926700149266001956a000182a95093987ba8689397491a5063491a48014926580198293f8260b801970a01d49a0a97290182688001988b3fd4b90482694801d3a90bd8a903826c5001d84c02dbb302826c680197cc01987b3fd4cb0b7b6b6801980b3f977701d47b0b97870182688801988c3fd4c7077b67b801978c018267780198783fd48c03977c018267900198703fd40c0c97770182687001d487077b67900182686001d4c8077b677801d438077b6788018267b801d487077b678001c9b907d82707d8b90882636801c9390cc98c0cc97c0c99c03f840764c97402d87408c98a077b67b80194a8c98b07d88b08c983087b68680195680001828ab000828ca800d4ca09889901828b9800d89b04c99b0b88a901c99c0c8289a000c9490995aaff7b8ca8007b89a000d4c9097b8ab000d4ba0ad4a909840a017b8a707b8b9800492660015209d7fe8269880198973f82688001978801d48707826a780198a83f979901d49808826b900198b93f97aa0197bb01826c7001d4cb0b956c00017bcbb00082cb58d4b909d4a9097bc99800d4b8087bc8a000d4b7077bc7a800019518e08488e06481826740018269b001d897038260180182679801d37009d8700ada930a82692001826ba801c9b904826c10018269a001d89c0bc9b404c99c0bd8ab0cc9c404c9ab02c97009c93903826928959705d89709826b30c89b0ad8ba0bda990b826938c89b0bd89b09826c40c8c909956c38417bcad00395ca00037ba7c8007babd8007ba9e000826740018269b001c997077b6270017b82107b6368017b83087b6760017b877b6478017b8418956700455020b604507bff956938294929a00382672801959a00037ba79800826730017ba790009568c02c826738017ba7880033075020b804aa79ff330738295022ba0419318388a0fcc86808492970035020bc048e79ff5022be04663182670001817756173f12826800014808403302c00428d5315022c004d2318267f8003300c2040a07826a90013302c40428f330826a90015022c404ec308268b8017b8a187b89107b8b087b879567802c5020c604237aff956c382982ca480382c7500382c8580382c96003826ba8017bcb0003826ba0017bcbf802826b98017bcbf002826bb0017bcbe80295cb00037bb9207bb8187bb7109567602c9568402c9569202c7bba085020c804351b956a382995ab000382b74082b83882b93082ba28956b38417bb7000495b700037b78f8007b79f0007b7ae800956820458267b8015020ca04157aff9567002c3308405020cc045877ff3302ce049568382901958b000282b9e00082bad80082b7d00082b8c800956b00017bb790007bb98800d497077bb8b800d4a808d478089888207bba8000d4a707977720d4870751070628cde9956738298268b001957a00027ba8a800826898017ba8b0008268a0017ba8b8009568e02b8269a8017ba9c0008267b8015020d0040f78ff956a000182a7880082a88000d487071408e0ffffff0000000082a9b800d8890882a99000949894785208062868e98267b801837720956a38298268600195ab00027bb88800826868017bb89000826870017bb898009568c02b826978017bb9a0005020d204a777ff956b3829492b40028267280195bc00027bc738826730017bc730826788007bc760826790007bc758826798007bc7508267a0007bc7483a073800023a084000023a094800023a0a5000027bc780007bc8787bc9707bca6864bc3308409569a02b956a802b956b602b826738017bc728028267b8015020d404b679ff9567402b3308405020d604e475ff956a382995ac000282c72082c81882c91082cb085022d804fd295107062885e864ba956938298267b001959800017b87e800826798017b87f0008267a0017b87f8009568202b8267a8017b97000264b77b6ab8015020da04c376ff956c000182c728956b38297bb7b80182c7307bb7b00182c7387bb7a8013a075800023a086000023a096800023a0a7000027bb7e00195b700017b78d8007b79d0007b7ac8003308209569002b956ae02a492bc00182c7b8005020dc044278ff9567c02a8268185020de044877ff330700305022e004c72e82b7880082b8900082b9a00082ba9800847700ff867701956b384195bc00047bc9207bca187bc8107bc708956840458267185020e2048877ff33078268f80033090a0c3308a0010228ce033308a00102838833070128d1033308a00102838833070128c4033308a00102838833070128b7033308a00102838833070128aa033308a001028388330701289d033308a0010283883307012890033308a0010283883307012883033308a0010283883307012876033308a0010283883307012869033308a001028388330701285c037b6c78017b6b80017b6a88017b69b0018267a0013300e4040a043302e60428cd285022e604ca284929a801959b00017bb8a0007bb798009568ff079588c1027bba900033075020e8043375ff9568ff07958831014928880149288001492870010564893307209568ff079588a102492978015020ea040675ff82679001817756173f12826890014808403302ec0428532d5022ec04502d8267a8013300ee040a07826a90013302f004286127826a90015022f0045a277bba80007bb9787bb8707bb768492ba000492b9800492b9000492b88009567a0399568c0395020f2041276ff8267a0010a048268b8018187107b67a00182877b6790018287087b6770010a098268b801826970017b8908826990017b898269a0017a8910648a82687801956938397b98c000826880017b98b800826888017b98b0008268b0017b98a8008e77fc089a787b9800017b98f8007b98f0007b98e8004829c80097a820988820977723d487079568e0399788209888209569203a979920d4890a826b980197bb2098bb209568003a978820d4b80c3308ff3309ff0a8877017b67b8019567ff07957781025020f40419179568ff079588310149284801492840018267b8017b8730019567ff0795776102492838013300f6043302f20528cc2733078268a80133090a0c3308a001022861013308a0010283883307012864013308a0010283883307012857013307018268700133090a0c3308a001022834013308a0010283883307012837013308a001028388330701282a013308a001028388330701281d013308a0010283883307012810013308a0010283883307012803013308a00102838833070128f600491918491910491908140700000000717b484e956840217b972033075020f804f672ff9568382149084918f84918e8216489330704956820214919f05020fa04d672ff82672801817756173f0c8268280148084001330701330924826830010a0c013308a0010283883307012887003308a001028388330701287a3308a001028388330701286e3308a00102838833070128625247905b7a1144492a4005492a3805492a3005492a280595670030837760063300fc040a0f01956a383195ab00055022fe041029510735063308a001028388330701281e3308a0010283883307012812838833070133090a0c3308a0010228f233090a0c3308a0010228e73308a0010228e03308a0010228d93308a0010228d2956738114927580449275004492748046479140700000000717b484e956880157b976004330750200005d971ff330202059568381101492840044928380449282804216489330704956860154929300433002e0528ab71ff3308a001022873ff3308a00102286bff3308a001022863ff3308a00102285bff3308a001022853ff3308a00102284bff3308a001022843ff3308a00102283bff3308a001022833ff3308a00102282bff3308a001022823ff3308a00102281bff3308a001022813ff956738314927a007492798074927900749278807956760079568c0387b6980017b6a78017b6b70017b6c6801502004050572ff826760077b67b801826770077b67b001826768077b67a8010a098268a8016f888269b0016f99989920978a20d4a909988820826ab8016faa97ab20d4b80898aa20826b60017aba107bb8087bb99568383182696801958a00077ba9c000826970017ba9b800826978017ba9b000826980017ba9a8004828c8078e77fc089a78956938397b98959a00ff7ba8f8007ba8f0007ba8e80097b820988820977723d487079568e038978820988820330ba001027b6bb80195692039979920d4890a97bb2098bb2095680039978820d4b80c3308ff3309ff0a8877017b67b0019567400750200605711349263807492630078267b0017b6720079567200749262807330008053302f2052830248168b801330728defd9567ff079577310149278002492778024927700250220a05e6279588a1037b978802330750200c05d66fff9568ff07958831014928680249286002492850021164893307049568ff07958881034929580250200e05a96fff390894010256183f112003940102403308a00102287d3308a0010228769567ff07957731014927c0024927b8024927b0025022100571279588e1037b97c802330750201205616fff9568ff07958831014928a8024928a002492890021164893307049568ff079588c1034929980250201405346fff390894010256183f112003940102403308a0010228083308a001020183883307013309240a0c01491938491930491928140700000000717b484e956860117b9740330750201605ea6eff3302180595683811014918204918184918082164893307049568401149191050201a05c46eff82679001817756173f0c8268900148084001330701330924826888010a0c01492958034929500349294803140700000000717b484e9568801c7b976003330750201c057e6eff33021e0595683819014928400349283803492828032164893307049568601c4929300333002e0528506eff956738214927f8064927f0064927e8066479140700000000717b484e956820287b970007330750202005266eff956838214928e0064928d8064928c806216489330704956800284929d0063300360528fd6dff9567ff0795773101492700034927f8024927f00250222205e525958821047b970803330750202405d56dff9568ff07958831014928e8024928e0024928d0022164893307049568ff07958801044929d80250202605a86dff8267f800817756173f0c8268f800480840013307013309248268f0000a0c01956738194927f8004927f0004927e8006479140700000000717b484e9568201a7b9700013307502028055c6dff956838194928e0004928d8004928c8002164893307049568001a4929d00033002e0528336dff956738114927580549275005492748056479140700000000717b484e956880167b976005330750202a05096dff33022c059568381101492840054928380549282805416489330704956860164929300550202e05df6cff82679001817756173f0c8268900148084001330701330924826898010a0c7b68b80133003005282170ff7b68b801502030051970ff83788169b80133070a0c28d0b7956738294927d8034927d0034927c8036479140700000000717b484e9568002d7b97e003330750203205706cff3302340595683829014928c0034928b8034928a8031164893307049568e02c4929b00350203605466cff82670001817756173f0c82680001480840013307013309248268f800330038050a0c33023a05284c2450223a054924ac780b3308a0010228d9f995670030837780063308040a02956a383195ab000582b74882b85082b95882ba607b6a78047b6970047b686804956860047b676004330750203c05ce6bff49265804492650044926400402330720956840044926480450203e05af6bff9517e08477e07b679001647133079401027b679801390794010233083fac7811826898014808403302400528d42150224005d1213307a001027b67880183778399330840330042050a073302440528b41d50224405b11d95672004502046053f6cff826720047b678001826728047b677801826730047b677001826738047b6768018267a8019577018878018269b001c8980895693831959a00057ba870d478087ba7688887018268a001c887077ba778d887078268b801c887077ba78000956700049568a03650204805d36bff9568000482877b6760018287087b6758018287107b6750018287187b6748018268a80195870250224a05961b7bc8a0007bca98007bc990007bc788009567e0039568c03650204c05886bff8267e0037b6740018267e8037b6738018267f0037b6730018267f8037b6728018268a80195870350224e054a1b7bc8c0007bcab8007bc9b0007bc7a8009567c0039568e036502050053c6bff8267c0037b6720018267c8037b6718018267d0037b6710018267d8037b6708018268a80195870450225205fe1a7bc8e0007bcad8007bc9d0007bc7c8009567a0039568003750205405f06aff8267a0037b6700018267a8037b67f8008267b0037b67f0008267b8037b67e8008268a801958705d88708826ab001c88a09d8a90ada880a8268a001c88a0ad88a08826bb801c8b808956b38317bb8000695b800057b8af8007b89f0007b87e800956780039568203750205605816aff826780037b67e000826788037b67d000826790037b67c000826798037b67b0008268a80195870650225805601d7bc8207bca187bc9107bc708956760039568403750205a05396aff826760037b67b800826768037b67a800826770037b6790018268a80195870750225c05201d7bc8407bca387bc9307bc728956740039568603750205e05f969ff826740037b67d800826748037b67c8008268a801958708d88708826ab00150226005f420826850037b68b00150226205c120826b58037b6bb801956b383195bc00067bc8607bca587bc9507bc7489567200395688037502064059c69ff7c6720037b67a80182676801956a00037ba718826770017ba710826778017ba7083307800095680003826980017ba9502066057468ff826748017b67f802826750017b67f002826758017b67e8023307a0009568e002826960017b69e002502068054568ff826728017b67d802826730017b67d002826738017b67c8023307c0009568c002826940017b69c00250206a051668ff826708017b67b802826710017b67b002826718017b67a8023307e0009568a002826920017b69a00250206c05e767ff8267e8007b6798028267f0007b6790028267f8007b6788023307000195688002826900017b69800250206e05b867ff8267b0007b6778028267c0007b6770028267d0007b67680233072001956860028269e0007b696002502070058967ff82679001977720987720492658027b6750028267a8007b67480233074001956840028269b8007b694002502072055867ff8267900197771898773849261802492610024926080249260002600149263802492630027b6720029567200295680002492628025020740581008267b8017b67f8018267b0017b67f0018267c8007b67e801330780019568e0018269d8007b69e00150207605ef66ff8267a8018e774926d8014926d0017b67c0013307a0019568c0014926c80150207805ca66ff8267980181775627bf010e826898014808c0010182678801837880003309400133070a0c28d6b19511907b10687b15609515708411f08279188273108272827c088e978e3bdb970b8ec7882a0485aa01dbc70ad49307db7b0a520a4b828418828b108287828808d4b70ad44808d48a0a98aa20d4b808978820d4a8085208277b12407b1c487b13509518407b195850207a053566ff95519082106882156095117032000050227c05601950207e051966ff4911184911104901213307046418491108502080050166ff390894010256183f0b200394010240013308a001028388330701330924330082050a0c019511c07b10387b15307b16289515408411e0647683173308240a020182171082181814090000000001000000d37909d48909987a2088aa01948a939a510a248219821a087b697b6a087b67107b68189551c082103882153082162895114032003308a0010283883307013309330084050a0c01951110ff7b10e8007b15e0007b16d8009515f0008411f0828610828218828c0882887b1c687b1258d42c036482d4680cd43c0c98cc207b1660d46308978820d4c8087b17505208500182b7187b171882b7107b171082b7087b170882b77b1782a7187b174882a7107b174082a7087b173882a77b1730829718829810829a0882997b19b0007b1ab8007b18c0009518b0007b17c8006426642750208605ca64ff821760821858d48709140700000000010000007b17201407e0ffffff00000000d8760782186894877b192894975107c8008367208218307b1890008218387b1898008218407b18a000951890008219487b19a800502088056f64ff8217209577c0d8760782186894878218289487510787009567607b1748d86707821868c878097b1940d88908da7708821760c878087b1838d87807821858c887077b176883674082187b18708218087b18788218107b1880009518708219187b19880050208a050564ff8217508218387b78108218407b78088218487b788218687b7818955110ff8210e8008215e0008216d8009511f0003200009511e0fe7b1018017b1510017b160801951520018411e064167b673882977b67488297087b67408297107b67508297187b6758828718828910828a0882887b67307b67f8007b69287b69f0007b6a207b6ae8007b68187b68e0009567c0009568e00050208c055d64ff8267d8008262c0008269d000826ac800826858d3870bd87808826750d8970cdbb80c826840d38a03d8a80a826848d8280850228e05871a5108cf008267187b67608267207b67688267287b67709568608267307b67783307502090050c63ff390894010256181f0b200394010220019517e08479e07b693064913307a00102837783993308200a07826a3082a782a80882a91882aa106f726f886f996faa826b40c8ab0b826348c89303d89309c89b0bd3ab07d8ab0ada790a826750c88707c87a0ad87a09826c58c8c202d88707c82707c8970782683833094918384918304918284918207b837b8b087b8a107b87189551e0fe821018018215100182160801951120013200502292055419502094055862ff492698004926900049268000323307049568800049268800502096053962ff390894010256183f0b200394010240013308a001028388330701330924330098050a0c33029a05281e1850229a051b188e72883bc0fe85bb01db720bd4a908db8c0b520b229538400150229c057c1750209e05e361ff95519082106882156095117032005022a0050f155020a205c861ff49111849111049014133070464184911085020a405b061ff390894010256183f0b200394010240013308a0010283883307013309243300a6050a0c3302a8052895175022a80592178e72883b8085bb01db720bd4a908db8c0b520b22953880005022aa05f4165020ac055b61ff95519082106882156095117032005022ae0587145020b0054061ff49111849111049014133070464184911085020b2052861ff390894010256183f0b200394010240013308a0010283883307013309243300b4050a0c01951170ff7b1088007b1580007b1678951590008411f064728289827408828c088273959a1fd89a00c80c0984aae07b1308c8a303d8a30bc8490ac8ba0ad39a06d89a07da6b07822b18d8c90c828610822210828818da000cc86c0cd86c06c82c09c89707d8c90cd89709c8b808c86808c8c808c8980c8ec88e79dbc809d4c7088ea6db8906520658821808d88308d34a09d84a06da9806d82708d3bc09d8bc0bda980bd32708d49808da860b520b317b13507b1a587b17603307409518507b1c685020b6053c60ff955170ff82108800821580008216789511900032005022b8055e185020ba051a60ff491128491120491110413307049518104911185020bc050060ff390894010256183f0b200394010240013308a0010283883307013309243300be050a0c01951100ff7b10f8007b15f0007b16e800951500018411f0827810827918827a088277d4a909d48707d49707510719955100ff8210f8008215f0008216e8009511000132009517c0003308405020c005505eff8219d8008216d0008217c8008218c0007b17107b1908d497077b1818d46808d47808988820d46707977720d487075207d8004921b0004921a8004921a000140700000000a079c3089518a0007b17b8008217185020c205305fff5022c4059d105107a6008217188377044921980049219000492180002095188000492188005020c605045fff5022c8055b1251077a821618836724491178491170491160219518604911685020ca05de5eff140700000000010000007b175022cc0585135107488216188367443a084001027b18583a084801023a095001023a0a5801027b18507b19489518407b1a405020ce05995eff821795779cd8760782181094878218089487520704008216188367644911304911281408000000000000006e7b18389518204911205020d0055d5eff3308840064675020d205bf61ff8378330701330984003300d4050a0c018289828218828a08828c10959b0188b901c8a909d49b0a88aa01c8ca0ad8ca0cc82c0cd4c902d4ab08d428085108107b7b7b79087b7a107b7c1832009511b07b10487b15409515508411f05022d6052f115020d805e85dff49111849111049011133070464184911085020da05d05dff390894010256183f0b200394010240013308a0010283883307013309243300dc050a0c019511907b10687b15607b16589515708411f0828a187b1a08829b1882847b14828a08829608829c828310829210c8a609c8c404d8c40cc8c909d36900d86906da0c06c83208821c08c8bc0cd8280bc8cb0bc8680cd88c08c88b00d3a90bd8a90a8218d88406dbba06d83c02821808d3800bd8800adab20ad33c08d4b808db8a0652061f7b747b79087b7c107b701895519082106882156082165895117032005022de0544155020e005005dff491128491120491110113307049518104911185020e205e65cff390894010256183f0b200394010240013308a0010283883307013309243300e4050a0c01951120ff7b10d8007b15d0007b16c8009515e0008411e064760a0b0151070f017b16180a0b64769517a0003308405020e605535bff8219b800821cb0007b1c388212a8007b12308213a0007b132895671f7b1620d8670864968477e0957920d87907c8780ad88a0bda770b4911787b19607b1698007b1c90007b1288007b1380007b1a68951780009518607b1b705020e80530fb821728821930d46909821a385022ea055112520884004911584911504911489518408219207b19405020ec05ff5bff0a0b01821a287b1620821838d468081409e0ffffff00000000d89a09821b3094b99489510944647698772052073c83a72083687b181064685020ee052f5fff7a16c00083778318c00033090a0a01821b288117c000821618821820821938821a30821c10aec70e00330a33093308330b60017b6b7b6a087b69107b68185022f0059813320051070b5022f4058d1332009517a0003308405020f605275aff5022f805fe0e5207555022fa0541115020fc054b5bff5022fe05b80c51073f502200069d1250200206355bff502204068c0e5107298216188367244911584911504911400f951840491148502006060f5bff50220806c20f520704008216188367443a086001023a096801027b18384911287b193095182049112050200a06df5aff330864646750200c06425eff837833070133096433000e060a0c3302100628e40e50221006e10e51070b50221206cb1232009517a000330840502014066559ff502216063c0e520755502218067f1050201a06895aff50221c06f60b51073f50221e06db1150202006735aff50222206ca0d51072982161883672449115849115049114013951840491148502024064d5aff50222606000f520704008216188367443a087001023a097801027b18387b1930140800000000007473697b182895182049112050202806135aff330864646750202a06765dff837833070133096433002c060a0c33022e0628180e50222e06150e51070b50223006ff1132009517a000330840502032069958ff50223406700d52075550223606b30f50203806bd59ff50223a062a0b51073f50223c060f1150203e06a759ff50224006fe0c51072982161883672449115849115049114012951840491148502042068159ff50224406340e520704008216188367443a088001023a098801027b18387b1930140800000000000064657b1828951820491120502046064759ff330864646750204806aa5cff837833070133096433004a060a0c01951140ff7b10b8007b15b0007b16a8009515c0008411f0828b10828a18828c0882887b1a287b1c20d4ac0cd4b80ad4ca0a98aa207b1b30d4cb0b97bb20d4ba0a7b1738520af2008297187b17108296108297087b170882977b17951780007b181850204c068a57ff821210821c088213821788008218980082198000821a9000d3c70bd87c07d89309dbb709d8a607d3280bd88208dab708d36a0ad4ba0adaa9085108950098673b972805d4780298c83b976605d4680898393b97ca05d4a909973a05821718c87a0ad87a0b821c20c8c909c8b909d3c907d8c906da7b06821c30c8c808c88606d8860bd8c808821c28c82c07c88707c8b70795a820d8a80ac8a90bd89b09daaa09c86909d8690ac8a707821a387ba87bab087ba9107ba718955140ff8210b8008215b0008216a8009511c000320000491170491168491160140700000000717b484e9518607b1778330750204e06d457ff4911584911504911403233070495184049114850205006ba57ff390894010256183f0b200394010240013308a001028388330701330924330052060a0c01951140fa951900057b90b8007b95b0007b96a8009515c0058411e064168289828a08828b108288187b67407b68707b6838047b6b587b6b30047b6a607b6a2804956820047b69687b6920043307502054064257ff492618044926100449260004023307209568000449260804502056062357ff3309940102390794010256173f0b200394010240017b69289517e08479e07b697864913307a00102837783993308407b6720330058060a0701826a7882a71882a81082a90882aa50225a067d0d956b00047bba587bb9507bb8487bb7409567e0039568400450205c06a957ff956b000382b7f00082b8f80082b9e80082bae000d49808d4a707d48707510754068267687b67c0038267607b67c8038267587b67d0039568c0038267707b67d803330750205e066d56ff4926b8034926b0034926a003023307209568a0034926a803502060064e56ff9517e08477e07b67486471826928819756173f08480940019517e08477e07b677864718379330840826720330062060a07826a7833026406282a0b826a7850226406240b7b68608269487b98187b67687b97107b6b587b9b087b6c507b9c9567800333084050206606a854ff956b000382b798007b673882b890007b683082ba88007b6a7082b980007b69787bb7787bb8707bba68956760037bb9603300680633029a0528b60b9567400382684850206a068b56ff826738826870d4870782693082687850226c06190e52077405956b000382b75882b85082b94882ba407bba207bb9287bb830956820037bb73882677850206e065655ff826750957701887801826958c89808d48709889901826a68c8a909d8a90a826b60c8ba0a956b00047bb8687bb7607bb9707bba789567000395686004502070060556ff826738826930d47909140700000000010000007b67381407e0ffffff00000000826878d8780782687094877b694894975107d30495670003827918827810827a08827b826778837720956c00027bcbe0007bcae8007bc8f0009568e0027bc9f80050207206ab54ff82685095870250227406cb057bb988007bb780007bba90007bb898009567c00295688004502076067255ff8267389577c050227806130651076404956c000282cbd80082c8d00082c9c80082cac0008267788377407bcaa0007bc9a8007bc8b0009568a0027bcbb8007b671850207a063854ff82685095870350227c0658057bb9a8007bb7a0007bbab0007bb8b800956780029568a00450207e06ff54ff140700000000010000007b67381407a0ffffff00000000502280068f055107e003956c000282cb980082c8900082c9880082ca80008267788377607bca607bc9687bc870956860027bcb787b673050208206b853ff82685095870450228406d8047bb9c8007bb7c0007bbad0007bb8d800956740029568c004502086067f54ff82673895778050228806200551077103956c000282c95882c85082ca4882cb40826778837780007bcb207bca287bc830956820027bc93850208a064f53ff82685095870550228c066f047bb9e8007bb7e0007bbaf0007bb8f800956700029568e00450208e061654ff140700000000010000007b6738140760ffffff0000000050229006a6045107f70295670002827918827810827a08827b8267788377a000956c00017bcbe0007bcae8007bc8f0009568e0017bc9f80050209206ce52ff82685095870650229406f7047bb9087bb77bba107bb8189567c00195680005502096069a53ff826738957740ff502298063a0451078b02956b000182b7d0007b673882b8c80082b9c000977720987a208267788377c0004926b8017bb9a0007bb8a8009568a0017bbab00050209a065c52ff8268389788189888385618034402140700000000010000007b6738140720ffffff00000000826978d8790782697094978269489497510717028267788377e00049269801492690017b688001956880014926880150209c060152ff82685095870750229e062a047bb7207bb9287bba307bb83895676001956820055020a006cc52ff826738957700ff5022a2066c035107bd01956c000182c97882c87082ca6882cb60826778837700017bcb407bca487bc850956840017bc9585020a4069b51ff8268509587085022a606c4037bb9487bb7407bba507bb85895672001956840055020a8066652ff1407e0feffff000000005022aa06030351075401826720018477ff008e788267788377200149261801492610017b68000195680001492608015020ac063451ff9567e0008268305020ae06ec4fff8267e0007b67788267e8007b67708267f0007b67688267f8007b6760836760053300b0060a08019568000582877882626005828970828a68826860d3870bd88708826768d8790cdbb80c826870d38a03d88a0a826878d882085022b2061a08510887009567c0008268185020b4067b4fff8267c0007b67788267c8007b67708267d0007b67688267d8007b6760836780053300b6060a080195680005828798008262800582899000828a8800826860d3870bd88708826768d8790cdbb80c826870d38a03d88a0a826878d882085022b806a6078887039577ff9a88026479281033083309280a3307330933080301826a407ba87ba7087ba9107ba718955140fa951700058270b8008275b0008276a8009511c0053200005022ba06fe065020bc060250ff4926980049269000492680002133070495688000492688005020be06e34fff826728817756173f0b826828480840013307013309248268200a0c33073300c006285f53ff33075020c0065953ff3307015020c2064f53ff956c000182c8b80082c7a80082caa000d47a0a140b00000000010000001407fcffffff00000000d8780782c9b000949794a73202140b00000000010000001407fcffffff00000000d8780782c9b000949794a7320282a782a80882a91082aa186f776f886f996faa95ab06d8ab0ac8a90cd89c09daaa09c88909d88908c88707956838393202d88708826ab001c88a09d8a90ada880a8268a001c88a0ad88a08826bb801c8b808956b383195bc00053202956b000182baa80082b9b00082b8b80082b7a0009577dcd87807949794a73202d88708826a58c88a09d8a90ada880a826868c88a0ad88a08826b60c8b808956b0004320295690001829ab8001407bcffffff00000000d87a078298b00094878298a80094873202821908d46909140600000000010000001407fcffffff00000000821818d8780782181094877b190894973202826878d87807826870948782684894873202826a880182a782a80882a91082aa186f776f886f996faa95ab05d8ab0ac8a90cd89c09daaa09c88909d88908c8870795683831958a00073202956c000182c9a00082970882988199106f77987a206f88978b20d4ba0a9777206f99989920d4970798882082c9a800d3980882c9b000d39707d4870782c8b800d3a808d487078877013202d88708826a58c88a09d8a90ada880a826868c88a0ad88a08826b60c8b808956b00053202826ab80182a71882a81082a90882aa6f7c7b6ca8016f8b7b6bb0016f997b69a0016fa77b67b801826890017b87187b89107b8b087b8c320282a71882a81082a90882aa6f776f886f996faa956b38393202826ab00182a71882a81082a90882aa6f776f886f996faa826bb8017b6a98017bba187b69a0017bb9107b68a8017bb8087b67b0017bb732029517e08477e07b67880164718379330840826798013202d49707d48b09d47909989920d48707977720d497073202956a000182a9b8001407bcffffff00000000d8790782a8b000948782a8a8009487320264718379330840826798013202491130491128491120140700000000717b484e9518207b1738330732029567dc821818d878078218109487821808948732028269b80182970881981082996f77977a206f88988820d48a0a9877206f98978920d497079888209569ff079599310132028219b8008216b0008217a8008218a0007b17107b1908d497077b1818d46808d47808988820d46707977720d487073202d88708826a9801c88a09d8a90ada880a8268a801c88a0ad88a08826ba001c8b808956b384195bc00033202d88708826ab001c88a09d8a90ada880a8268a001c88a0ad88a08826bb801c8b808956b383195bc00063202951120ff7b10d8007b15d0007b16c8009515e0008411f0827810827918827a088277d4a909d48707d49707320282a71882a81082a90882aa6f777b6788016f877b6780016f977b6778016fa77b6770019517e08477e03202d8870882ca9000c88a09d8a90ada880a82c88000c88a0ad88a0882cb8800c8b808d4a70bd49808d48b0b98bb20d4a808978820d4b80832021407bcffffff00000000d87607821810948782180894873202d88708826a8001c88a09d8a90ada880a82689001c88a0ad88a08826b8801c8b808956b38413202826ab80182a71882a81082a90882aa6f776f886f996faa956b384195bc0005320282a71882a81082a90882aa6f7c6f8b6f976fa83202d49b0bd48709d4b909989920d4b808978820d49808320282a71882a81082a90882aa6f776f8b6f996faa826880017b8a187b89107b8b087b87330700203202d88708826a30c88a09d8a90ada880a826838c88a0ad88a08826b40c8b808956b38413202d8380bc8b70cd87c07dabb07c89707d89709c8a9097b18407b1c487b1750330740c871087b19583202826ab80182a71882a81082a90882aa6f776f886f996faa956b384132029517e08477e07b67b801647183793308408267f8003202492190004921880049218000140700000000a079c308951880007b17980082171832029511907b10687b15609515708411f0827a1882791082738277088eab8e9cdbab0c3202d4a708d49808988820d4a909979920d498083202647183793308408267300132029517e08479e07b69b801649132029517e08477e07b67b80164718379330820320282b7c80082b8d00082b9d80082bae000140bffffffff00ffffffd2b909140b0000000003000000d4b909956b384132026f776f886f996faa320283773801c8760a95ab0004320282b73882b84082b93082ba28d49808d4a707d487073202d8970b826a30c8ba09d8a90adabb0a826b38c8ba0ad8ba0b826c40c8cb0b32024926b0004926a8004926a000140700000000717b484e9568a0007b67b80033073202d88708826a7801c88a09d8a90ada880a82689001c88a0ad88a08320295690001829ba800829ab0008298b8008297a0009577dcd8780794a794b73202db3a08d39707d4b707db7c083202821718837704491178491170491160209518604911683202c8760849288003492878034928680305648933072033080030320233073841c8760a95ab0005320282a71882a81082a90882aa6f776f8b6f996faa3202d8780782a99000949782a98800949732029517e08477e07b678801647183793308408267900132029517e08477e07b67b801647132028268a001c88a0ad88a08826bb801c8b80832026479140700000000717b484e9568ff073202c88a09d8a90ada880a3202955120ff8210d8008215d0008216c8009511e00032028267b80181773308233202491140491138491130140700000000717b484e9518307b1748330732029517e08479e07b69b001649132029517e08477e07b679001647183793308403202837738f9c8760a95ab0001320233073839c8760a95ab00043202d49808d47808988820d49707977720d4870732024929e0044929d8044929d0044929c80495670040320249294001492938014929300149292801956700403202849a40520a195109148d9a40cfa80ad09808d09707d4a707320032009597c0d0780733083200849a40520a195109148d9a40d0a70acf9707cf9808d4a808320032009598c0cf870833073200214225a952484992244992244992244992244992244992244992244992244992244992244992542529a524292949a84a494a922449922449922449922449922449922449922449929224294955494a922849699204494a929424294949aaaa92942425a9242922225292242949920a95524a9294524a924a8a88882222222549929424494a491249a254525252a4489122458a14294a52509224082161284d4a432244444492902424499a2449124a29a14208a5242949222212214922222291888810112122222284080c51250a551a11119122224844081122224a2302894002822420904002822448904002092402020992402222221a11119124114544448808891111111111911011111124111111111151442222221a111149125144041111111111912222222222220a8911a1448410224804a1229122114114494424129142442412291111a2c8242a91221141442291281222128944224924111121221211241111111111111111219248124924222222424424800022514944111111918888888888100922222242442412954444924824128988100922492242001189a22431a24844448448888888888888888888888888888888888888882222228288884492244911111191244922114924499224498a484444441a912449922089481149121189442252888828114208112482509448892092242244444424924824494444242222222222a21011a144842892088a92542549922449442411112291484444a4111111914412492490448218111149922489880022222282409288081111412049448488209024841091242212111111454404222292245124124444440492884044449224a2912449922812a2882202111111051111a144441042124444044254228a880824494404111111912489481011912449922411110144444404111109248928224444441048121111222208240921222280888848444444141111489224491489481111894422225144442022222222220a2222948820894204932854a24852554422912882882422924822892449924451444422918888042222222222222222222222294510111111111111912022222249922491482291249244a54892484420221211818888884024222291884422111181a224a2a8222222228244242222228a080492401291282290241149220511114a4410222122102a514420924404111111111111092222220249444444444414914034224992245124222222888888881045118188888840444421228888244922221289444441c48850228210221849142a114544042222222288481211119140444444440422a2888844a24811112182882822221011112289249144443422222292482291244912118d882421499244221289241249244922414444444444444444444444249224492222128988888288464424800012954444444422229248041191409288884422118982880002481425898828128944441444248124222222228288000248142511111111114144229044444444440411010490284a2222222242441091481425111111111141001189a22422222222220a2222128944440a222242898820894284884ca25089224945511491a488082222222292242288882022222292481249242292444444041111444444441249228944444444444404111144444444124922894444444444440411114444444412492289444492444444101141444444249124924844248988880892228148242922828888888888082222118988888888082222888888a8144924492222888888884824092049444444441011414444442491249248444444444444904491402449111144444444922222828848222212912411414444888820221289442222414424128944441411481211111111111111111111111111111111111111111144148948922429229288249124894424912449922409212222428824499288882482880411912481a488482412118922128868442009241129229148242222228288888808511411888888082222222222a22022a2440842882022108a125144202222228288888844128924898888888888442211298888502282283289405192aaa44412492291944404112392222222222282080422222222488a24924412299214410422222211111111414444444444144444281141208a4c22104504224144229148440411910824111111119148448288888828220a92288a0c200251441149aa8a12295100111111111123221189481289481249241149228924898820221291a82492449224894410894492482291442292482251945222229148948888882822229024499228129120229224904404222222111111d1884492240924112922222222220a224222824008491011110895289254159148248a04914824121141444402494452444444440491482492482422222222220a92288a8c48041041544524a92a4aa444914814891191244992489224898808222211499224111111492222222282482412492491884422492491482249249128524a4422112548021145828888244914892022222222221245828888888888288818114a4410420493285424a28844104512118944a420221289948808a2c8248228124410914824129144229224924412114444444444441249828824890822222292082282888824890822221244444424499224222222228a88082222124000894a12114522918888202222924a121189442212440490284aa2444444041141510992881411111111119148440a22224a842084082651284a4411892022222282888888441289248988888844444444444441c488502282281209a288441011111141c4888488442211298818114a4410452241149108224922828811894444444434224822414424499224494404101111110449222244440411914451928808114144440001a492848888104244441011491425898800222288084a349224a291244992281291202222099224221291888888282211044914890411912448224244442222221a1111912489221111111144241289101529a52425894412492292442488888888101911112122828888881249249144922422222222220a2222221211218822932854221a25099224492292242282888888888888888828888888484484208a4482281224492482888888888888888888888888884422111144444444444444444444444144244210452241140992242222228888888888082222222222111111d188449224892211111141c4484422110922222282242289888888884810514422888848920449441a11012449251111111151104124821009912054a24890241141442212894424884892208988442211298244506a44444414092222922441129128124444444444440411111111119120222222222249222291222282888844902412912449120922494992248988002222228288880449224244441024890811419024841011114044242909521209229194241291a4244852248824491011111141c4482412894810912489482292442412118d88442449924444444444120922122411114044041109928888888888082222114992241111112288888810111151444490441141c4489224499244044954d4484a4555524924a948924a4445225292489210455195444422490291482249241111114144440411894844101191484424918808222211491445524422462412894841c488502282281209a2519220499224224922828888888888483422228924924822411211894422521031229488208a4c2228128944113122222222a22062442811411419451451441114492a8aa248a2104591544a529288888828888888444a440451641241349208222291482412a92a22914814114424128944241a111111492491448288244992248944221289882022129228128944114490240124804444444404499144924822298908222222221149121144444444441444244a2448a2283289201a099224498a209254529244922491444492888820892222222222228a448a8848108944229124919408222222a2884412892422124924a2282289a21449129592484924220a2222110511894844041111894444524444505444114551041045109144109148228848442222299208a222912492241289442249222522924482888888282291484444041111111111111149222241442489888888089222892491448a92144144924444444410111111111111114444238920924814111111114912112445124124914852244944914824121141444444444444442411912022222292242288082212894422124424128944449288684424112491242222222282882480485412898888888888208aa452929244444444448410424444244a4444044585442422494412912449221111111111412488489224499244124922898888101111440411918824499248922812894850154924892489249118894412892449221149922411111141442422499224222222494444444410894492482211492489241291449248221111455589482489248988442291442222222222222282888811414444442491442249928888888888888888082222229224494410311289442412894841444489104491118948442289a0485251144512458c8888888882888888881211411499441045248248102322224944444444444444414444891024511499441045248248101111111111119124221244244944444444100922222288888888882882884844221242081111111189888820228944249144221209a2888824491211454400114544104422224444044124224244104442081191444422414444244992888800222222822012458488882088442422411009214492002291481023222249924444041011111104918808111141108988101104911022220124221209222222922449444404101111414444824844848888208844448808824888880022224804258d04312249922489888888880822221240a222111111414444441111111142084952222222282a242211492292882449922449928c44041111114444440491888844221289444450444a49521223229124894824924824912491244924894424124912491289441225924844124912494422494444924812491249129392244924914412912491244992888888888888888808222222499224492222222229522a892012440491249120124444440491884422228a204444221142882429111111444422918814448c08252208a2c8242a114582481091884422228248922022222222222222228888888828220a92288ac8002288aa48525591480a201291482446442422914822914822892422914492484444101149242a229244924412892092481249249248124924521289884844948824922492241289442289444424894844248888aa222202880032222222828824114924914892242222129148222209224624499224114144229188222222a22022a24408a2c8884424221114492a8aa248a288888888288888888812114114890451442288482412458288482412492211890822914410912491482422114412492289442449441049128952441111918888880822419244049144a21411111191888888880822419288082289442922461489888820914492882491248948449288442449222922119188482491481449242289241291482449922411092212918888888848900411111111444444244924492291482291241225529244221149a294522249459254222a45248914451145444492884412492492888888202222828844242288884824229248440411918824a54844221141444404111111412422229188442211114444a414198924914412492489248924124922492422918844924892248992444424912491442492242222914492481289481289c4a4884424894844922449922449924444444424128922118888888888281041240241149148105144228824452022222222222222494424884892888888884024103122222222912492241111111111118188480091a824121111111111818888442291482484102249898888084402114912244544444444441188442412218410111189880844021144444422922412282a2494849250124a4249280925a12494849288888822414444441488880825220251442241441189209244444404a24814892212458a8888888828222292249248228924998808222222222222458584925092a89050124a4249280925a1244900910251a24402514426d150124aa1144a81888888684410a1144aa542150a8542111105105120624428111121212121212121212121212121111111111111888888288a92244a12491111111111114511114912498848924892890822222222122522228288021111a144442044100a45444410512022229488088408426149930410291031891209441199442322808802112342898888882880880211114a444444440411052222428988401491493422a200220a44442811111111051051206244281181282293282222505422220a20a240c4885022025144261145828444a488248988880211211181240a1192482408518922410422222222228944244924894444208a4422110922222202111111119120222222101111111109222222021111111191449248221111111181888888884890241181888888489024118188884822880822229224221011914824220a44444444440422222222220211111111118188888888884044444444442092888888884024111144444404111111111181282222221085881151499224a55292244949922449920492a44120494a20443094449324a9340920492aa524499242291a11114952929224492249924a92a4242922222a902480049094228944221281242945922449922449491249049224298988884644444a49922449894422111188884892244912449224490a84082629544a49aa922449922449929424258988888240444844204430944491a04892441048928240929440886028892241499244104892824092944088602889464422959424499224499224499224959424499224499224094444a220904492408860288946444492942411115124101191244992444404109140104944880804499248020114240909212449a024a54c92009204a24089684992244992a4242549824092944088602889264992a4929224499224499294244992a424499282401249022182a1241a1111a9918a0422128924294992242222910449124492248126490049a524a54014359124c92a4b1294a0482048100812048224492481209310922481142889224182228120412048100892249104824c424802481248819228122428120812048204812049124920c82484248024811428894644449294244992249224150924454424499224892449922449922449922449922449492222a24902480a2491241022184aa2111111a9244924129128101112110821824952a8249a24059124118188884812894422120522422202494a91492a891249902449522410914824922412914820491244244992480249922449124912114812400248528a4852121111114882888888401244444424111191401244444404024800414444449224924012444444049220224912492281248888880804900082882425222222024990928840228888442489888808240901248024a5484444442009922422900822922491241248822489080410444489888808440291482412d148244992244982880422914824a211119124499224485255654a121111d1201011121148914c52110512888848000124aa0002485425a94a92248912492289441411114995244992441101248a4a02082049a924a5a224554992241145a4949294241249242949922489224945511491a49254154592aa221289442551899224491101248aaa444902482a494a4552294949228a88489224494a24892412512249249188222222494a52928aa228921249228924499202484a25924412892249551125a9aa24495292aa2249519224491225499224498a2455454954a288082022254992522949922a51129544a58888001240a2aa225192242949922429220288a84492488a8888a44a9292249212114a1489925455a2a8242a51121549a40288921411114529490049255149548a44912849922222a28888284992a4924a9224a9a40000"},"methodIdentifiers":{"ENDING_PERIOD()":"f13d1259","STARTING_PERIOD()":"3d757a4b","TREASURY_SHARE()":"32696174","WINNER_SHARE()":"dbe3010c","currentGameId()":"536a3ddc","emergencyEndGame(uint256)":"b256b11b","endGame(uint256)":"d0399bb8","gamePlayerList(uint256,uint256)":"ed456ee4","gamePlayers(uint256,address)":"62e2961b","games(uint256)":"117a5b90","getGamePlayerCount(uint256)":"ff8fb35c","getGamePlayers(uint256)":"15a40f49","getGameState(uint256)":"ffde0c74","getPlayerBid(uint256,address)":"a59d9ab7","owner()":"8da5cb5b","pendingWithdrawals(address)":"f3f43703","placeBid(uint256)":"9979ef45","startNewGame()":"482d51e0","withdraw()":"3ccfd60b","withdrawTreasury()":"166bab95"}},"hash":"d8ced440b76036fe5c967876090689263164f269c825b9146186c6c2a2b15db2","factoryDependencies":{}}}}