{"contracts/PvPGridEnhanced.sol":{"PvPGridEnhanced":{"abi":[{"inputs":[{"internalType":"uint256","name":"_entryFee","type":"uint256"},{"internalType":"uint256","name":"_gameFee","type":"uint256"},{"internalType":"address","name":"_teamWallet","type":"address"}],"stateMutability":"nonpayable","type":"constructor"},{"anonymous":false,"inputs":[{"indexed":true,"internalType":"uint256","name":"gameId","type":"uint256"},{"indexed":true,"internalType":"address","name":"winner","type":"address"},{"indexed":false,"internalType":"uint256","name":"prize","type":"uint256"}],"name":"GameCompleted","type":"event"},{"anonymous":false,"inputs":[{"indexed":true,"internalType":"uint256","name":"gameId","type":"uint256"},{"indexed":false,"internalType":"string","name":"reason","type":"string"}],"name":"GameRefunded","type":"event"},{"anonymous":false,"inputs":[{"indexed":true,"internalType":"uint256","name":"gameId","type":"uint256"},{"indexed":false,"internalType":"uint256","name":"entryFee","type":"uint256"}],"name":"NewGameStarted","type":"event"},{"anonymous":false,"inputs":[{"indexed":true,"internalType":"uint256","name":"gameId","type":"uint256"},{"indexed":true,"internalType":"address","name":"player","type":"address"},{"indexed":false,"internalType":"uint256","name":"tileIndex","type":"uint256"}],"name":"TileSelected","type":"event"},{"inputs":[],"name":"GRID_SIZE","outputs":[{"internalType":"uint256","name":"","type":"uint256"}],"stateMutability":"view","type":"function"},{"inputs":[],"name":"currentGameId","outputs":[{"internalType":"uint256","name":"","type":"uint256"}],"stateMutability":"view","type":"function"},{"inputs":[],"name":"determineWinner","outputs":[],"stateMutability":"nonpayable","type":"function"},{"inputs":[],"name":"emergencyDetermineWinner","outputs":[],"stateMutability":"nonpayable","type":"function"},{"inputs":[],"name":"entryFee","outputs":[{"internalType":"uint256","name":"","type":"uint256"}],"stateMutability":"view","type":"function"},{"inputs":[],"name":"gameFee","outputs":[{"internalType":"uint256","name":"","type":"uint256"}],"stateMutability":"view","type":"function"},{"inputs":[{"internalType":"uint256","name":"","type":"uint256"}],"name":"games","outputs":[{"internalType":"uint256","name":"tilesSelected","type":"uint256"},{"internalType":"uint256","name":"prizePool","type":"uint256"},{"internalType":"uint256","name":"finalSelectionBlock","type":"uint256"},{"internalType":"uint256","name":"startTime","type":"uint256"},{"internalType":"bool","name":"winnerDetermined","type":"bool"},{"internalType":"address","name":"winner","type":"address"}],"stateMutability":"view","type":"function"},{"inputs":[],"name":"getAvailableTiles","outputs":[{"internalType":"uint256[]","name":"","type":"uint256[]"}],"stateMutability":"view","type":"function"},{"inputs":[],"name":"getCurrentGrid","outputs":[{"internalType":"address[16]","name":"","type":"address[16]"}],"stateMutability":"view","type":"function"},{"inputs":[{"internalType":"uint256","name":"gameId","type":"uint256"}],"name":"getGameInfo","outputs":[{"internalType":"uint256","name":"tilesSelected","type":"uint256"},{"internalType":"uint256","name":"prizePool","type":"uint256"},{"internalType":"bool","name":"isComplete","type":"bool"},{"internalType":"bool","name":"winnerDetermined","type":"bool"},{"internalType":"address","name":"winner","type":"address"}],"stateMutability":"view","type":"function"},{"inputs":[{"internalType":"uint256","name":"gameId","type":"uint256"}],"name":"getGrid","outputs":[{"internalType":"address[16]","name":"","type":"address[16]"}],"stateMutability":"view","type":"function"},{"inputs":[{"internalType":"address","name":"player","type":"address"}],"name":"getPlayerTileCount","outputs":[{"internalType":"uint256","name":"","type":"uint256"}],"stateMutability":"view","type":"function"},{"inputs":[],"name":"minPlayers","outputs":[{"internalType":"uint256","name":"","type":"uint256"}],"stateMutability":"view","type":"function"},{"inputs":[],"name":"owner","outputs":[{"internalType":"address","name":"","type":"address"}],"stateMutability":"view","type":"function"},{"inputs":[],"name":"paused","outputs":[{"internalType":"bool","name":"","type":"bool"}],"stateMutability":"view","type":"function"},{"inputs":[{"internalType":"address","name":"","type":"address"}],"name":"playerGamesPlayed","outputs":[{"internalType":"uint256","name":"","type":"uint256"}],"stateMutability":"view","type":"function"},{"inputs":[{"internalType":"address","name":"","type":"address"}],"name":"playerWins","outputs":[{"internalType":"uint256","name":"","type":"uint256"}],"stateMutability":"view","type":"function"},{"inputs":[{"internalType":"uint256[]","name":"tileIndexes","type":"uint256[]"}],"name":"selectMultipleTiles","outputs":[],"stateMutability":"payable","type":"function"},{"inputs":[{"internalType":"uint256","name":"tileIndex","type":"uint256"}],"name":"selectTile","outputs":[],"stateMutability":"payable","type":"function"},{"inputs":[{"internalType":"bool","name":"_paused","type":"bool"}],"name":"setPaused","outputs":[],"stateMutability":"nonpayable","type":"function"},{"inputs":[],"name":"teamWallet","outputs":[{"internalType":"address","name":"","type":"address"}],"stateMutability":"view","type":"function"},{"inputs":[{"internalType":"address","name":"newOwner","type":"address"}],"name":"transferOwnership","outputs":[],"stateMutability":"nonpayable","type":"function"},{"inputs":[{"internalType":"uint256","name":"_newFee","type":"uint256"}],"name":"updateEntryFee","outputs":[],"stateMutability":"nonpayable","type":"function"},{"inputs":[{"internalType":"uint256","name":"_newFee","type":"uint256"}],"name":"updateGameFee","outputs":[],"stateMutability":"nonpayable","type":"function"},{"inputs":[{"internalType":"uint256","name":"_minPlayers","type":"uint256"}],"name":"updateMinPlayers","outputs":[],"stateMutability":"nonpayable","type":"function"},{"inputs":[{"internalType":"address","name":"_newWallet","type":"address"}],"name":"updateTeamWallet","outputs":[],"stateMutability":"nonpayable","type":"function"}],"evm":{"assembly":"// RO data = 0/0 bytes\n// RW data = 600/66192 bytes\n// Stack size = 32768 bytes\n\n// Instructions = 15747\n// Code size = 56670 bytes\n\n      : @0 (gas: 1)\n     0: jump @14 if a0 == a1\n      : @1 (gas: 9)\n     3: a3 = a1 << 0x20\n     6: a3 = a3 >> 0x20\n     9: a4 = a0 << 0x20\n    12: a4 = a4 >> 0x20\n    15: a4 = a4 + a2\n    18: a3 = a3 - a4\n    21: a4 = a2 << 0x1\n    24: a4 = -a4\n    26: jump @7 if a4 >=u a3\n      : @2 (gas: 1)\n    29: jump @11 if a0 >=u a1\n      : @3 (gas: 1)\n    32: jump @14 if a2 == 0\n      : @4 (gas: 3)\n    35: a2 = a2 + a0\n    38: a3 = a0\n    40: fallthrough\n      : @5 (gas: 6)\n    41: a4 = u8 [a1]\n    43: a1 = a1 + 0x1\n    46: a5 = a3 + 0x1\n    49: u8 [a3] = a4\n    51: a3 = a5\n    53: jump @5 if a5 != a2\n      : @6 (gas: 1)\n    56: jump @14\n      : @7 (gas: 1)\n    58: jump @14 if a2 == 0\n      : @8 (gas: 3)\n    61: a2 = a2 + a0\n    64: a3 = a0\n    66: fallthrough\n      : @9 (gas: 6)\n    67: a4 = u8 [a1]\n    69: a1 = a1 + 0x1\n    72: a5 = a3 + 0x1\n    75: u8 [a3] = a4\n    77: a3 = a5\n    79: jump @9 if a5 != a2\n      : @10 (gas: 1)\n    82: jump @14\n      : @11 (gas: 1)\n    84: jump @14 if a2 == 0\n      : @12 (gas: 2)\n    87: i32 a3 = a2 + 0xffffffffffffffff\n    90: fallthrough\n      : @13 (gas: 7)\n    91: a4 = a1 + a3\n    94: a4 = u8 [a4]\n    96: a2 = a2 + 0xffffffffffffffff\n    99: a5 = a0 + a3\n   102: u8 [a5] = a4\n   104: i32 a3 = a3 + 0xffffffffffffffff\n   107: jump @13 if a2 != 0\n      : @14 (gas: 1)\n   110: ret\n      : @15 (gas: 2)\n   112: a1 = i32 [0x20260]\n   117: jump @123 if a1 == 0\n      : @16 (gas: 4)\n   121: a0 = 0x30290\n   126: i32 a0 = a0 + 0\n   128: ecalli 15 // 'set_immutable_data'\n   130: jump @123\n      : @17 (gas: 8)\n   133: sp = sp + 0xfffffffffffffff0\n   136: u64 [sp + 0x8] = ra\n   139: u64 [sp] = s0\n   141: a2 = a1\n   143: s0 = a0\n   145: a1 = 0x20\n   148: a0 = a2\n   150: ra = 2, jump @32\n      : @18 [@dyn 1] (gas: 100)\n   155: a1 = u8 [a0 + 0x1]\n   158: a2 = u8 [a0]\n   160: a3 = u8 [a0 + 0x2]\n   163: a4 = u8 [a0 + 0x3]\n   166: a1 = a1 << 0x8\n   169: a1 = a1 | a2\n   172: a3 = a3 << 0x10\n   175: a4 = a4 << 0x18\n   178: a3 = a3 | a4\n   181: a1 = a1 | a3\n   184: a2 = u8 [a0 + 0x5]\n   187: a3 = u8 [a0 + 0x4]\n   190: a4 = u8 [a0 + 0x6]\n   193: a5 = u8 [a0 + 0x7]\n   196: a2 = a2 << 0x8\n   199: a2 = a2 | a3\n   202: a4 = a4 << 0x10\n   205: a5 = a5 << 0x18\n   208: a4 = a4 | a5\n   211: a2 = a2 | a4\n   214: a2 = a2 << 0x20\n   217: t0 = a2 | a1\n   220: a2 = u8 [a0 + 0x9]\n   223: a3 = u8 [a0 + 0x8]\n   226: a4 = u8 [a0 + 0xa]\n   229: a5 = u8 [a0 + 0xb]\n   232: a2 = a2 << 0x8\n   235: a2 = a2 | a3\n   238: a4 = a4 << 0x10\n   241: a5 = a5 << 0x18\n   244: a4 = a4 | a5\n   247: a2 = a2 | a4\n   250: a3 = u8 [a0 + 0xd]\n   253: a4 = u8 [a0 + 0xc]\n   256: a5 = u8 [a0 + 0xe]\n   259: a1 = u8 [a0 + 0xf]\n   262: a3 = a3 << 0x8\n   265: a3 = a3 | a4\n   268: a5 = a5 << 0x10\n   271: a1 = a1 << 0x18\n   274: a1 = a1 | a5\n   277: a1 = a1 | a3\n   280: a1 = a1 << 0x20\n   283: t1 = a1 | a2\n   286: a1 = u8 [a0 + 0x11]\n   289: a3 = u8 [a0 + 0x10]\n   292: a4 = u8 [a0 + 0x12]\n   295: a5 = u8 [a0 + 0x13]\n   298: a1 = a1 << 0x8\n   301: a1 = a1 | a3\n   304: a4 = a4 << 0x10\n   307: a5 = a5 << 0x18\n   310: a4 = a4 | a5\n   313: a1 = a1 | a4\n   316: a3 = u8 [a0 + 0x15]\n   319: a4 = u8 [a0 + 0x14]\n   322: a5 = u8 [a0 + 0x16]\n   325: a2 = u8 [a0 + 0x17]\n   328: a3 = a3 << 0x8\n   331: a3 = a3 | a4\n   334: a5 = a5 << 0x10\n   337: a2 = a2 << 0x18\n   340: a2 = a2 | a5\n   343: a2 = a2 | a3\n   346: a2 = a2 << 0x20\n   349: a3 = a2 | a1\n   352: a1 = u8 [a0 + 0x19]\n   355: a2 = u8 [a0 + 0x18]\n   358: a4 = u8 [a0 + 0x1a]\n   361: a5 = u8 [a0 + 0x1b]\n   364: a1 = a1 << 0x8\n   367: a1 = a1 | a2\n   370: a4 = a4 << 0x10\n   373: a5 = a5 << 0x18\n   376: a4 = a4 | a5\n   379: a1 = a1 | a4\n   382: a2 = u8 [a0 + 0x1d]\n   385: a4 = u8 [a0 + 0x1c]\n   388: a5 = u8 [a0 + 0x1e]\n   391: a0 = u8 [a0 + 0x1f]\n   394: a2 = a2 << 0x8\n   397: a2 = a2 | a4\n   400: a5 = a5 << 0x10\n   403: a0 = a0 << 0x18\n   406: a0 = a0 | a5\n   409: a0 = a0 | a2\n   412: a0 = a0 << 0x20\n   415: a0 = a0 | a1\n   418: a0 = reverse a0\n   420: a1 = reverse a3\n   422: a2 = reverse t1\n   424: a3 = reverse t0\n   426: u64 [s0 + 0x18] = a3\n   429: u64 [s0 + 0x10] = a2\n   432: u64 [s0 + 0x8] = a1\n   435: u64 [s0] = a0\n   437: ra = u64 [sp + 0x8]\n   440: s0 = u64 [sp]\n   442: sp = sp + 0x10\n   445: ret\n      : @19 (gas: 12)\n   447: sp = sp + 0xffffffffffffffd8\n   450: u64 [sp + 0x20] = ra\n   453: u64 [sp + 0x18] = s0\n   456: u64 [sp + 0x10] = s1\n   459: a2 = u64 [a1]\n   461: u64 [sp + 0x8] = a2\n   464: a2 = u64 [a1 + 0x8]\n   467: u64 [sp] = a2\n   469: s0 = u64 [a1 + 0x10]\n   472: s1 = u64 [a1 + 0x18]\n   475: a1 = 0x20\n   478: ra = 4, jump @32\n      : @20 [@dyn 2] (gas: 71)\n   483: a1 = reverse s1\n   485: a2 = reverse s0\n   487: a3 = u64 [sp]\n   489: a3 = reverse a3\n   491: a4 = u64 [sp + 0x8]\n   494: a4 = reverse a4\n   496: u8 [a0 + 0x18] = a4\n   499: u8 [a0 + 0x10] = a3\n   502: u8 [a0 + 0x8] = a2\n   505: u8 [a0] = a1\n   507: a5 = a4 >> 0x38\n   510: u8 [a0 + 0x1f] = a5\n   513: a5 = a4 >> 0x30\n   516: u8 [a0 + 0x1e] = a5\n   519: a5 = a4 >> 0x28\n   522: u8 [a0 + 0x1d] = a5\n   525: a5 = a4 >> 0x20\n   528: u8 [a0 + 0x1c] = a5\n   531: a5 = a4 >> 0x18\n   534: u8 [a0 + 0x1b] = a5\n   537: a5 = a4 >> 0x10\n   540: u8 [a0 + 0x1a] = a5\n   543: a4 = a4 >> 0x8\n   546: u8 [a0 + 0x19] = a4\n   549: a4 = a3 >> 0x38\n   552: u8 [a0 + 0x17] = a4\n   555: a4 = a3 >> 0x30\n   558: u8 [a0 + 0x16] = a4\n   561: a4 = a3 >> 0x28\n   564: u8 [a0 + 0x15] = a4\n   567: a4 = a3 >> 0x20\n   570: u8 [a0 + 0x14] = a4\n   573: a4 = a3 >> 0x18\n   576: u8 [a0 + 0x13] = a4\n   579: a4 = a3 >> 0x10\n   582: u8 [a0 + 0x12] = a4\n   585: a3 = a3 >> 0x8\n   588: u8 [a0 + 0x11] = a3\n   591: a3 = a2 >> 0x38\n   594: u8 [a0 + 0xf] = a3\n   597: a3 = a2 >> 0x30\n   600: u8 [a0 + 0xe] = a3\n   603: a3 = a2 >> 0x28\n   606: u8 [a0 + 0xd] = a3\n   609: a3 = a2 >> 0x20\n   612: u8 [a0 + 0xc] = a3\n   615: a3 = a2 >> 0x18\n   618: u8 [a0 + 0xb] = a3\n   621: a3 = a2 >> 0x10\n   624: u8 [a0 + 0xa] = a3\n   627: a2 = a2 >> 0x8\n   630: u8 [a0 + 0x9] = a2\n   633: a2 = a1 >> 0x38\n   636: u8 [a0 + 0x7] = a2\n   639: a2 = a1 >> 0x30\n   642: u8 [a0 + 0x6] = a2\n   645: a2 = a1 >> 0x28\n   648: u8 [a0 + 0x5] = a2\n   651: a2 = a1 >> 0x20\n   654: u8 [a0 + 0x4] = a2\n   657: a2 = a1 >> 0x18\n   660: u8 [a0 + 0x3] = a2\n   663: a2 = a1 >> 0x10\n   666: u8 [a0 + 0x2] = a2\n   669: a1 = a1 >> 0x8\n   672: u8 [a0 + 0x1] = a1\n   675: ra = u64 [sp + 0x20]\n   678: s0 = u64 [sp + 0x18]\n   681: s1 = u64 [sp + 0x10]\n   684: sp = sp + 0x28\n   687: ret\n      : @21 (gas: 32)\n   689: sp = sp + 0xffffffffffffffa0\n   692: u64 [sp + 0x58] = ra\n   695: u64 [sp + 0x50] = s0\n   698: u64 [sp + 0x48] = s1\n   701: s0 = sp + 0x60\n   704: sp = sp & 0xffffffffffffffe0\n   707: s1 = a0\n   709: a0 = u64 [a1 + 0x18]\n   712: a2 = u64 [a1 + 0x10]\n   715: a3 = u64 [a1 + 0x8]\n   718: a1 = u64 [a1]\n   720: a0 = reverse a0\n   722: a2 = reverse a2\n   724: a3 = reverse a3\n   726: a1 = reverse a1\n   728: u64 [sp + 0x18] = a1\n   731: u64 [sp + 0x10] = a3\n   734: u64 [sp + 0x8] = a2\n   737: u64 [sp] = a0\n   739: u64 [sp + 56] = 0\n   742: u64 [sp + 48] = 0\n   745: u64 [sp + 40] = 0\n   748: u64 [sp + 32] = 0\n   751: u32 [sp + 64] = 0x20\n   755: i32 a1 = sp + 0\n   757: i32 a3 = sp + 0x20\n   760: i32 a4 = sp + 0x40\n   763: a2 = 0xffffffffffffffff\n   766: a0 = 0\n   768: ra = 0x6\n   771: ecalli 8 // 'get_storage'\n   773: fallthrough\n      : @22 [@dyn 3] (gas: 5)\n   774: a0 = u64 [sp + 0x38]\n   777: a1 = u64 [sp + 0x30]\n   780: a2 = u64 [sp + 0x28]\n   783: a3 = u64 [sp + 0x20]\n   786: t0 = 8, jump @2012\n      : @23 [@dyn 4] (gas: 5)\n   792: u64 [s1 + 0x18] = a3\n   795: u64 [s1 + 0x10] = a2\n   798: u64 [s1 + 0x8] = a1\n   801: u64 [s1] = a0\n   803: t0 = 10, jump @2026\n      : @24 [@dyn 5] (gas: 1)\n   809: ret\n      : @25 (gas: 40)\n   811: sp = sp + 0xffffffffffffffa0\n   814: u64 [sp + 0x58] = ra\n   817: u64 [sp + 0x50] = s0\n   820: s0 = sp + 0x60\n   823: sp = sp & 0xffffffffffffffe0\n   826: t0 = u64 [a0]\n   828: a3 = u64 [a0 + 0x8]\n   831: a4 = u64 [a0 + 0x10]\n   834: a0 = u64 [a0 + 0x18]\n   837: t1 = u64 [a1]\n   839: a2 = u64 [a1 + 0x8]\n   842: a5 = u64 [a1 + 0x10]\n   845: a1 = u64 [a1 + 0x18]\n   848: t2 = reverse a0\n   850: a4 = reverse a4\n   852: a3 = reverse a3\n   854: a0 = reverse t0\n   856: t0 = reverse a1\n   858: a5 = reverse a5\n   860: a2 = reverse a2\n   862: a1 = reverse t1\n   864: u64 [sp + 0x18] = a0\n   867: u64 [sp + 0x10] = a3\n   870: u64 [sp + 0x8] = a4\n   873: u64 [sp] = t2\n   875: u64 [sp + 0x38] = a1\n   878: u64 [sp + 0x30] = a2\n   881: u64 [sp + 0x28] = a5\n   884: u64 [sp + 0x20] = t0\n   887: i32 a1 = sp + 0\n   889: i32 a3 = sp + 0x20\n   892: a2 = 0xffffffffffffffff\n   895: a4 = 0x20\n   898: a0 = 0\n   900: ecalli 16 // 'set_storage'\n   902: sp = s0 + 0xffffffffffffffa0\n   905: ra = u64 [sp + 0x58]\n   908: s0 = u64 [sp + 0x50]\n   911: sp = sp + 0x60\n   914: ret\n      : @26 (gas: 24)\n   916: sp = sp + 0xffffffffffffff60\n   920: u64 [sp + 0x98] = ra\n   924: u64 [sp + 0x90] = s0\n   928: u64 [sp + 0x88] = s1\n   932: s0 = sp + 0xa0\n   936: sp = sp & 0xffffffffffffffe0\n   939: a4 = u64 [a3]\n   941: u64 [sp + 0x38] = a4\n   944: a4 = u64 [a3 + 0x8]\n   947: u64 [sp + 0x30] = a4\n   950: a4 = u64 [a3 + 0x10]\n   953: u64 [sp + 0x28] = a4\n   956: a3 = u64 [a3 + 0x18]\n   959: u64 [sp + 0x20] = a3\n   962: a3 = u64 [a2]\n   964: u64 [sp + 0x18] = a3\n   967: a3 = u64 [a2 + 0x8]\n   970: u64 [sp + 0x10] = a3\n   973: a3 = u64 [a2 + 0x10]\n   976: u64 [sp + 0x8] = a3\n   979: a2 = u64 [a2 + 0x18]\n   982: u64 [sp] = a2\n   984: s1 = a1\n   986: ra = 12, jump @32\n      : @27 [@dyn 6] (gas: 35)\n   991: a1 = u64 [sp]\n   993: a1 = reverse a1\n   995: a2 = u64 [sp + 0x8]\n   998: a2 = reverse a2\n  1000: a3 = u64 [sp + 0x10]\n  1003: a3 = reverse a3\n  1005: a4 = u64 [sp + 0x18]\n  1008: a4 = reverse a4\n  1010: u64 [sp + 0x58] = a4\n  1013: u64 [sp + 0x50] = a3\n  1016: u64 [sp + 0x48] = a2\n  1019: u64 [sp + 0x40] = a1\n  1022: a1 = u64 [sp + 0x20]\n  1025: a1 = reverse a1\n  1027: a2 = u64 [sp + 0x28]\n  1030: a2 = reverse a2\n  1032: a3 = u64 [sp + 0x30]\n  1035: a3 = reverse a3\n  1037: a4 = u64 [sp + 0x38]\n  1040: a4 = reverse a4\n  1042: u64 [sp + 0x78] = a4\n  1045: u64 [sp + 0x70] = a3\n  1048: u64 [sp + 0x68] = a2\n  1051: u64 [sp + 0x60] = a1\n  1054: i32 a2 = a0 + 0\n  1056: i32 a3 = s1 + 0\n  1058: i32 a0 = sp + 0x40\n  1061: a1 = 0x2\n  1064: ecalli 7 // 'deposit_event'\n  1066: sp = s0 + 0xffffffffffffff60\n  1070: ra = u64 [sp + 0x98]\n  1074: s0 = u64 [sp + 0x90]\n  1078: s1 = u64 [sp + 0x88]\n  1082: sp = sp + 0xa0\n  1086: ret\n      : @28 (gas: 33)\n  1088: sp = sp + 0xffffffffffffff20\n  1092: u64 [sp + 0xd8] = ra\n  1096: u64 [sp + 0xd0] = s0\n  1100: u64 [sp + 0xc8] = s1\n  1104: s0 = sp + 0xe0\n  1108: sp = sp & 0xffffffffffffffe0\n  1111: a5 = u64 [a4]\n  1113: u64 [sp + 0x40] = a5\n  1116: a5 = u64 [a4 + 0x8]\n  1119: u64 [sp + 0x48] = a5\n  1122: a5 = u64 [a4 + 0x10]\n  1125: u64 [sp + 0x50] = a5\n  1128: a4 = u64 [a4 + 0x18]\n  1131: u64 [sp + 0x58] = a4\n  1134: t0 = 0xe\n  1137: a4 = u64 [a3]\n  1139: u64 [sp + 0x18] = a4\n  1142: a4 = u64 [a3 + 0x8]\n  1145: u64 [sp + 0x20] = a4\n  1148: a4 = u64 [a3 + 0x10]\n  1151: u64 [sp + 0x28] = a4\n  1154: a3 = u64 [a3 + 0x18]\n  1157: u64 [sp + 0x30] = a3\n  1160: s1 = u64 [a2]\n  1162: a3 = u64 [a2 + 0x8]\n  1165: u64 [sp] = a3\n  1167: a3 = u64 [a2 + 0x10]\n  1170: u64 [sp + 0x8] = a3\n  1173: a2 = u64 [a2 + 0x18]\n  1176: u64 [sp + 0x10] = a2\n  1179: u64 [sp + 56] = 0x20\n  1183: ra = 0x10\n  1186: jump @32\n      : @29 [@dyn 7] (gas: 2)\n  1189: u64 [sp + 0x38] = a1\n  1192: ra = 16, jump @32\n      : @30 [@dyn 8] (gas: 41)\n  1196: a1 = reverse s1\n  1198: u64 [sp + 0x78] = a1\n  1201: a1 = u64 [sp]\n  1203: a1 = reverse a1\n  1205: u64 [sp + 0x70] = a1\n  1208: a1 = u64 [sp + 0x8]\n  1211: a1 = reverse a1\n  1213: u64 [sp + 0x68] = a1\n  1216: a1 = u64 [sp + 0x10]\n  1219: a1 = reverse a1\n  1221: u64 [sp + 0x60] = a1\n  1224: a1 = u64 [sp + 0x18]\n  1227: a1 = reverse a1\n  1229: u64 [sp + 0x98] = a1\n  1233: a1 = u64 [sp + 0x20]\n  1236: a1 = reverse a1\n  1238: u64 [sp + 0x90] = a1\n  1242: a1 = u64 [sp + 0x28]\n  1245: a1 = reverse a1\n  1247: u64 [sp + 0x88] = a1\n  1251: a1 = u64 [sp + 0x30]\n  1254: a1 = reverse a1\n  1256: u64 [sp + 0x80] = a1\n  1260: a1 = u64 [sp + 0x40]\n  1263: a1 = reverse a1\n  1265: u64 [sp + 0xb8] = a1\n  1269: a1 = u64 [sp + 0x48]\n  1272: a1 = reverse a1\n  1274: u64 [sp + 0xb0] = a1\n  1278: a1 = u64 [sp + 0x50]\n  1281: a1 = reverse a1\n  1283: u64 [sp + 0xa8] = a1\n  1287: a1 = u64 [sp + 0x58]\n  1290: a1 = reverse a1\n  1292: u64 [sp + 0xa0] = a1\n  1296: i32 a2 = a0 + 0\n  1298: a3 = i32 [sp + 0x38]\n  1301: i32 a0 = sp + 0x60\n  1304: a1 = 0x3\n  1307: ecalli 7 // 'deposit_event'\n  1309: t0 = 18, jump @1976\n      : @31 [@dyn 9] (gas: 1)\n  1315: ret\n      : @32 (gas: 2)\n  1317: i32 a2 = a0 >> 0x10\n  1320: jump @37 if a2 != 0\n      : @33 (gas: 4)\n  1323: a1 = a1 + a0\n  1326: i32 a1 = a1 + 0x1f\n  1329: a1 = a1 & 0xffffffffffffffe0\n  1332: jump @37 if a1 >u 65536\n      : @34 (gas: 3)\n  1338: a2 = 0x2025c\n  1343: a3 = i32 [0x2025c]\n  1348: jump @36 if a3 >=u a1\n      : @35 (gas: 2)\n  1351: u32 [0x2025c] = a1\n  1356: fallthrough\n      : @36 (gas: 4)\n  1357: a1 = 0x20270\n  1362: i32 a0 = a0 + 0\n  1364: a0 = a0 + a1\n  1367: ret\n      : @37 (gas: 1)\n  1369: trap\n      : @38 (gas: 6)\n  1370: sp = sp + 0xfffffffffffffff0\n  1373: u64 [sp + 0x8] = ra\n  1376: u64 [sp] = s0\n  1378: s0 = a0 & 0x1\n  1381: ecalli 5 // 'call_data_size'\n  1383: fallthrough\n      : @39 (gas: 2)\n  1384: u32 [0x20258] = a0\n  1389: jump @41 if s0 == 0\n      : @40 (gas: 1)\n  1392: ra = 20, jump @42\n      : @41 [@dyn 10] (gas: 18)\n  1396: ra = 0x16\n  1399: sp = sp + 0xfffffffffffffe10\n  1403: u64 [sp + 0x1e8] = ra\n  1407: u64 [sp + 0x1e0] = s0\n  1411: u64 [sp + 0x1d8] = s1\n  1415: s0 = sp + 0x1f0\n  1419: sp = sp + 0xffffffffffffbe30\n  1423: sp = sp & 0xffffffffffffffe0\n  1426: s1 = sp\n  1428: a2 = s1 + 0x30b8\n  1432: u64 [a2 + 64] = 0\n  1435: u64 [a2 + 56] = 0\n  1438: u64 [a2 + 40] = 0x80\n  1443: a0 = 0x40\n  1446: a1 = s1 + 0x30e0\n  1450: u64 [a2 + 48] = 0\n  1453: ra = 0x80\n  1457: jump @19\n      : @42 [@dyn 11] (gas: 15)\n  1460: sp = sp + 0xfffffffffffff960\n  1464: a0 = sp + 0x600\n  1468: u64 [a0 + 0x98] = ra\n  1472: u64 [a0 + 0x90] = s0\n  1476: u64 [a0 + 0x88] = s1\n  1480: s0 = sp + 0x6a0\n  1484: sp = sp & 0xffffffffffffffe0\n  1487: s1 = sp\n  1489: u64 [s1 + 1048] = 0\n  1493: u64 [s1 + 1040] = 0\n  1497: u64 [s1 + 1032] = 0\n  1501: u64 [s1 + 1024] = 0\n  1505: i32 a0 = s1 + 0x400\n  1509: ecalli 17 // 'value_transferred'\n  1511: fallthrough\n      : @43 (gas: 9)\n  1512: a4 = s1 + 0x400\n  1516: a0 = u64 [a4 + 0x10]\n  1519: a1 = u64 [a4 + 0x18]\n  1522: a2 = u64 [a4 + 0x8]\n  1525: a3 = u64 [a4]\n  1527: a1 = a1 | a2\n  1530: a0 = a0 | a3\n  1533: a0 = a0 | a1\n  1536: jump @112 if a0 != 0\n      : @44 (gas: 17)\n  1540: a0 = i32 [0x20258]\n  1545: u64 [s1 + 0x78] = a0\n  1548: a0 = a0 << 0x20\n  1551: a0 = a0 >> 0x20\n  1554: a0 = a0 + 0x1f\n  1557: a0 = a0 & 0xffffffffffffffe0\n  1560: a1 = a0 + 0x80\n  1564: a0 = a1 <u a0\n  1567: a2 = s1 + 0x300\n  1571: u64 [a2 + 0xe0] = a1\n  1575: u64 [a2 + 0xe8] = a0\n  1579: a0 = 0 if a0 != 0\n  1581: u64 [a2 + 0xf0] = a0\n  1585: a0 = 0x40\n  1588: a1 = s1 + 0x3e0\n  1592: u64 [s1 + 1016] = 0\n  1596: ra = 24, jump @19\n      : @45 [@dyn 12] (gas: 3)\n  1601: a0 = 0x80\n  1605: a1 = u64 [s1 + 0x78]\n  1608: ra = 26, jump @32\n      : @46 [@dyn 13] (gas: 5)\n  1613: i32 a0 = a0 + 0\n  1615: a1 = u64 [s1 + 0x78]\n  1618: a2 = 0\n  1620: ecalli 3 // 'call_data_copy'\n  1622: fallthrough\n      : @47 (gas: 2)\n  1623: a1 = u64 [s1 + 0x78]\n  1626: jump @113 if a1 <=u 95\n      : @48 (gas: 7)\n  1631: a0 = sp + 0xffffffffffffffe0\n  1634: a0 = a0 & 0xffffffffffffffe0\n  1637: u64 [s1 + 0x78] = a0\n  1640: sp = a0\n  1642: a0 = s1 + 0x3c0\n  1646: a1 = 0x80\n  1650: ra = 28, jump @17\n      : @49 [@dyn 14] (gas: 16)\n  1655: a0 = u64 [s1 + 0x3d0]\n  1659: a1 = u64 [s1 + 0x3d8]\n  1663: a2 = u64 [s1 + 0x3c0]\n  1667: a3 = u64 [s1 + 0x3c8]\n  1671: a4 = u64 [s1 + 0x78]\n  1674: u64 [a4 + 0x10] = a0\n  1677: u64 [a4 + 0x18] = a1\n  1680: u64 [a4] = a2\n  1682: u64 [a4 + 0x8] = a3\n  1685: a0 = sp + 0xffffffffffffffe0\n  1688: a0 = a0 & 0xffffffffffffffe0\n  1691: u64 [s1 + 0x70] = a0\n  1694: sp = a0\n  1696: a0 = s1 + 0x3a0\n  1700: a1 = 0xa0\n  1704: ra = 30, jump @17\n      : @50 [@dyn 15] (gas: 16)\n  1709: a0 = u64 [s1 + 0x3b0]\n  1713: a1 = u64 [s1 + 0x3b8]\n  1717: a3 = u64 [s1 + 0x3a0]\n  1721: a2 = u64 [s1 + 0x3a8]\n  1725: u64 [s1 + 0x50] = a0\n  1728: a4 = u64 [s1 + 0x70]\n  1731: u64 [a4 + 0x10] = a0\n  1734: u64 [s1 + 0x48] = a1\n  1737: u64 [a4 + 0x18] = a1\n  1740: u64 [s1 + 0x38] = a3\n  1743: u64 [a4] = a3\n  1745: u64 [s1 + 0x40] = a2\n  1748: u64 [a4 + 0x8] = a2\n  1751: a0 = s1 + 0x380\n  1755: a1 = 0xc0\n  1759: ra = 32, jump @17\n      : @51 [@dyn 16] (gas: 12)\n  1764: a1 = u64 [s1 + 0x390]\n  1768: a2 = u64 [s1 + 0x398]\n  1772: a0 = 0x100000000\n  1782: a0 = a0 ^ a1\n  1785: a0 = a0 | a2\n  1788: u64 [s1 + 0x68] = a1\n  1791: a1 = a1 >> 0x20\n  1794: a1 = a1 <u 0x1\n  1797: u64 [s1 + 0x30] = a2\n  1800: a1 = 0 if a2 != 0\n  1802: a1 = 0 if a0 == 0\n  1804: jump @114 if a1 == 0\n      : @52 (gas: 15)\n  1808: a0 = u64 [s1 + 0x388]\n  1812: u64 [s1 + 0x60] = a0\n  1815: a0 = u64 [s1 + 0x380]\n  1819: u64 [s1 + 0x58] = a0\n  1822: u64 [s1 + 1080] = 0\n  1826: u64 [s1 + 1072] = 0\n  1830: u64 [s1 + 1064] = 0\n  1834: u64 [s1 + 1056] = 0x2\n  1839: u64 [s1 + 1112] = 0\n  1843: u64 [s1 + 1104] = 0\n  1847: u64 [s1 + 1096] = 0\n  1851: u64 [s1 + 1088] = 0x2\n  1856: a0 = s1 + 0x420\n  1860: a1 = s1 + 0x440\n  1864: ra = 34, jump @25\n      : @53 [@dyn 17] (gas: 8)\n  1869: a0 = 0x30270\n  1874: u64 [s1 + 0x28] = a0\n  1877: i32 a0 = a0 + 0\n  1879: ra = 0x24\n  1882: ecalli 6 // 'caller'\n  1884: a2 = u64 [s1 + 0x28]\n  1887: t0 = 0x26\n  1890: jump @2020\n      : @54 [@dyn 18] (gas: 2)\n  1894: a2 = u64 [s1 + 0x28]\n  1897: t0 = 38, jump @2020\n      : @55 [@dyn 19] (gas: 15)\n  1903: u64 [s1 + 0x28] = a1\n  1906: a0 = a0 >> 0x20\n  1909: a1 = reverse a2\n  1911: a2 = a1 << 0x20\n  1914: a0 = a0 | a2\n  1917: u64 [s1 + 0x20] = a0\n  1920: a1 = a1 >> 0x20\n  1923: u64 [s1 + 0x18] = a1\n  1926: u64 [s1 + 1144] = 0\n  1930: u64 [s1 + 1136] = 0\n  1934: u64 [s1 + 1128] = 0\n  1938: u64 [s1 + 1120] = 0x7\n  1943: a0 = s1 + 0x360\n  1947: a1 = s1 + 0x460\n  1951: ra = 40, jump @21\n      : @56 [@dyn 20] (gas: 18)\n  1956: a0 = u32 [s1 + 0x374]\n  1960: a0 = a0 << 0x20\n  1963: a1 = u64 [s1 + 0x378]\n  1967: a2 = u64 [s1 + 0x18]\n  1970: a0 = a0 | a2\n  1973: u64 [s1 + 1176] = 0\n  1977: u64 [s1 + 1168] = 0\n  1981: u64 [s1 + 1160] = 0\n  1985: u64 [s1 + 1152] = 0x7\n  1990: u64 [s1 + 0x4b8] = a1\n  1994: a1 = u64 [s1 + 0x20]\n  1997: u64 [s1 + 0x4a8] = a1\n  2001: a1 = u64 [s1 + 0x28]\n  2004: u64 [s1 + 0x4a0] = a1\n  2008: u64 [s1 + 0x4b0] = a0\n  2012: a0 = s1 + 0x480\n  2016: a1 = s1 + 0x4a0\n  2020: ra = 42, jump @25\n      : @57 [@dyn 21] (gas: 7)\n  2025: u64 [s1 + 1240] = 0\n  2029: u64 [s1 + 1232] = 0\n  2033: u64 [s1 + 1224] = 0\n  2037: u64 [s1 + 1216] = 0x8\n  2042: a0 = s1 + 0x340\n  2046: a1 = s1 + 0x4c0\n  2050: ra = 44, jump @21\n      : @58 [@dyn 22] (gas: 20)\n  2055: a0 = u32 [s1 + 0x354]\n  2059: a1 = u64 [s1 + 0x358]\n  2063: a0 = a0 << 0x20\n  2066: a2 = u64 [s1 + 0x68]\n  2069: a0 = a0 | a2\n  2072: a2 = u64 [s1 + 0x30]\n  2075: a1 = a1 | a2\n  2078: u64 [s1 + 1272] = 0\n  2082: u64 [s1 + 1264] = 0\n  2086: u64 [s1 + 1256] = 0\n  2090: u64 [s1 + 1248] = 0x8\n  2095: a2 = u64 [s1 + 0x60]\n  2098: u64 [s1 + 0x508] = a2\n  2102: a2 = u64 [s1 + 0x58]\n  2105: u64 [s1 + 0x500] = a2\n  2109: u64 [s1 + 0x518] = a1\n  2113: u64 [s1 + 0x510] = a0\n  2117: a0 = s1 + 0x4e0\n  2121: a1 = s1 + 0x500\n  2125: ra = 46, jump @25\n      : @59 [@dyn 23] (gas: 7)\n  2130: u64 [s1 + 1336] = 0\n  2134: u64 [s1 + 1328] = 0\n  2138: u64 [s1 + 1320] = 0\n  2142: u64 [s1 + 1312] = 0\n  2146: a0 = s1 + 0x520\n  2150: a1 = u64 [s1 + 0x78]\n  2153: ra = 48, jump @25\n      : @60 [@dyn 24] (gas: 7)\n  2158: u64 [s1 + 1368] = 0\n  2162: u64 [s1 + 1360] = 0\n  2166: u64 [s1 + 1352] = 0\n  2170: u64 [s1 + 1344] = 0x1\n  2175: a0 = s1 + 0x540\n  2179: a1 = u64 [s1 + 0x70]\n  2182: ra = 50, jump @25\n      : @61 [@dyn 25] (gas: 9)\n  2187: a0 = u64 [s1 + 0x38]\n  2190: a0 = a0 <u 0x7d1\n  2194: a1 = u64 [s1 + 0x40]\n  2197: a0 = 0 if a1 != 0\n  2199: a1 = u64 [s1 + 0x50]\n  2202: a2 = u64 [s1 + 0x48]\n  2205: a1 = a1 | a2\n  2208: a0 = 0 if a1 != 0\n  2210: jump @75 if a0 != 0\n      : @62 (gas: 3)\n  2214: a0 = s1 + 0x100\n  2218: a1 = 0x40\n  2221: ra = 52, jump @17\n      : @63 [@dyn 26] (gas: 6)\n  2226: a1 = s1 + 0x100\n  2230: a4 = u64 [a1 + 0x18]\n  2233: a5 = u64 [a1 + 0x10]\n  2236: a3 = u64 [a1 + 0x8]\n  2239: a0 = u64 [a1]\n  2241: t0 = 54, jump @1987\n      : @64 [@dyn 27] (gas: 1)\n  2247: jump @111 if a1 != 0\n      : @65 (gas: 11)\n  2251: u64 [s1 + 240] = 0\n  2255: u64 [s1 + 232] = 0\n  2259: u64 [s1 + 224] = 0\n  2263: a2 = 0x8c379a000000000\n  2273: a1 = s1 + 0xe0\n  2277: u64 [s1 + 0xf8] = a2\n  2281: u64 [s1 + 0x78] = a0\n  2284: u64 [s1 + 0x70] = a3\n  2287: u64 [s1 + 0x68] = a4\n  2290: u64 [s1 + 0x60] = a5\n  2293: ra = 56, jump @19\n      : @66 [@dyn 28] (gas: 1)\n  2298: t0 = 58, jump @1998\n      : @67 [@dyn 29] (gas: 1)\n  2304: jump @111 if a0 == 0\n      : @68 (gas: 9)\n  2308: i32 a0 = a1 + 0x4\n  2311: u64 [s1 + 216] = 0\n  2315: u64 [s1 + 208] = 0\n  2319: u64 [s1 + 192] = 0x20\n  2324: a1 = s1 + 0xc0\n  2328: u64 [s1 + 200] = 0\n  2332: u64 [s1 + 0x68] = a3\n  2335: u64 [s1 + 0x60] = a4\n  2338: ra = 60, jump @19\n      : @69 [@dyn 30] (gas: 5)\n  2343: a3 = u64 [s1 + 0x68]\n  2346: a2 = u64 [s1 + 0x70]\n  2349: a1 = u64 [s1 + 0x78]\n  2352: a0 = u64 [s1 + 0x60]\n  2355: t0 = 62, jump @1964\n      : @70 [@dyn 31] (gas: 1)\n  2361: jump @111 if a0 == 0\n      : @71 (gas: 7)\n  2365: i32 a0 = a1 + 0x24\n  2368: u64 [s1 + 184] = 0\n  2372: u64 [s1 + 176] = 0\n  2376: u64 [s1 + 160] = 0xc\n  2381: a1 = s1 + 0xa0\n  2385: u64 [s1 + 168] = 0\n  2389: ra = 64, jump @19\n      : @72 [@dyn 32] (gas: 1)\n  2394: t0 = 66, jump @2008\n      : @73 [@dyn 33] (gas: 1)\n  2400: jump @111 if a0 == 0\n      : @74 (gas: 10)\n  2404: i32 a0 = a2 + 0x44\n  2407: a1 = u64 [0x20030]\n  2412: u64 [s1 + 136] = 0\n  2416: u64 [s1 + 0x98] = a1\n  2420: a1 = 0x6869676800000000\n  2430: u64 [s1 + 0x90] = a1\n  2434: a1 = s1 + 0x80\n  2438: u64 [s1 + 128] = 0\n  2442: ra = 0x54\n  2445: jump @19\n      : @75 (gas: 8)\n  2448: a0 = u64 [s1 + 0x68]\n  2451: a0 = a0 << 0x20\n  2454: a0 = a0 >> 0x20\n  2457: a1 = u64 [s1 + 0x60]\n  2460: a2 = u64 [s1 + 0x58]\n  2463: a1 = a1 | a2\n  2466: a0 = a0 | a1\n  2469: jump @92 if a0 != 0\n      : @76 (gas: 3)\n  2473: a0 = s1 + 0x1a0\n  2477: a1 = 0x40\n  2480: ra = 68, jump @17\n      : @77 [@dyn 34] (gas: 6)\n  2485: a1 = s1 + 0x100\n  2489: a4 = u64 [a1 + 0xb8]\n  2493: a5 = u64 [a1 + 0xb0]\n  2497: a3 = u64 [a1 + 0xa8]\n  2501: a0 = u64 [a1 + 0xa0]\n  2505: t0 = 70, jump @1987\n      : @78 [@dyn 35] (gas: 1)\n  2511: jump @111 if a1 != 0\n      : @79 (gas: 11)\n  2515: u64 [s1 + 400] = 0\n  2519: u64 [s1 + 392] = 0\n  2523: u64 [s1 + 384] = 0\n  2527: a2 = 0x8c379a000000000\n  2537: a1 = s1 + 0x180\n  2541: u64 [s1 + 0x198] = a2\n  2545: u64 [s1 + 0x78] = a0\n  2548: u64 [s1 + 0x70] = a3\n  2551: u64 [s1 + 0x68] = a4\n  2554: u64 [s1 + 0x60] = a5\n  2557: ra = 72, jump @19\n      : @80 [@dyn 36] (gas: 1)\n  2562: t0 = 74, jump @1998\n      : @81 [@dyn 37] (gas: 1)\n  2568: jump @111 if a0 == 0\n      : @82 (gas: 9)\n  2572: i32 a0 = a1 + 0x4\n  2575: u64 [s1 + 376] = 0\n  2579: u64 [s1 + 368] = 0\n  2583: u64 [s1 + 352] = 0x20\n  2588: a1 = s1 + 0x160\n  2592: u64 [s1 + 360] = 0\n  2596: u64 [s1 + 0x68] = a3\n  2599: u64 [s1 + 0x60] = a4\n  2602: ra = 76, jump @19\n      : @83 [@dyn 38] (gas: 5)\n  2607: a3 = u64 [s1 + 0x68]\n  2610: a2 = u64 [s1 + 0x70]\n  2613: a1 = u64 [s1 + 0x78]\n  2616: a0 = u64 [s1 + 0x60]\n  2619: t0 = 78, jump @1964\n      : @84 [@dyn 39] (gas: 1)\n  2625: jump @111 if a0 == 0\n      : @85 (gas: 7)\n  2629: i32 a0 = a1 + 0x24\n  2632: u64 [s1 + 344] = 0\n  2636: u64 [s1 + 336] = 0\n  2640: u64 [s1 + 320] = 0x13\n  2645: a1 = s1 + 0x140\n  2649: u64 [s1 + 328] = 0\n  2653: ra = 80, jump @19\n      : @86 [@dyn 40] (gas: 1)\n  2658: t0 = 82, jump @2008\n      : @87 [@dyn 41] (gas: 1)\n  2664: jump @111 if a0 == 0\n      : @88 (gas: 11)\n  2668: i32 a0 = a2 + 0x44\n  2671: a1 = u64 [0x20020]\n  2676: a2 = u64 [0x20028]\n  2681: a3 = s1 + 0x100\n  2685: u64 [a3 + 0x38] = a1\n  2688: u64 [a3 + 0x30] = a2\n  2691: a1 = 0x6c65740000000000\n  2701: u64 [a3 + 0x28] = a1\n  2704: a1 = s1 + 0x120\n  2708: u64 [s1 + 288] = 0\n  2712: ra = 84, jump @19\n      : @89 [@dyn 42] (gas: 3)\n  2717: a1 = 0x64\n  2720: a0 = u64 [s1 + 0x78]\n  2723: ra = 86, jump @32\n      : @90 [@dyn 43] (gas: 1)\n  2728: t0 = 88, jump @1995\n      : @91 [@dyn 44] (gas: 2)\n  2734: ecalli 14 // 'seal_return'\n  2736: fallthrough\n      : @92 (gas: 11)\n  2737: u64 [s1 + 1400] = 0\n  2741: u64 [s1 + 1392] = 0\n  2745: u64 [s1 + 1384] = 0\n  2749: u64 [s1 + 1376] = 0x9\n  2754: u64 [s1 + 1432] = 0\n  2758: u64 [s1 + 1424] = 0\n  2762: u64 [s1 + 1416] = 0\n  2766: u64 [s1 + 1408] = 0x1\n  2771: a0 = s1 + 0x560\n  2775: a1 = s1 + 0x580\n  2779: ra = 90, jump @25\n      : @93 [@dyn 45] (gas: 7)\n  2784: u64 [s1 + 1464] = 0\n  2788: u64 [s1 + 1456] = 0\n  2792: u64 [s1 + 1448] = 0\n  2796: u64 [s1 + 1440] = 0x4\n  2801: a0 = s1 + 0x320\n  2805: a1 = s1 + 0x5a0\n  2809: ra = 92, jump @21\n      : @94 [@dyn 46] (gas: 17)\n  2814: a4 = s1 + 0x300\n  2818: a0 = u64 [a4 + 0x20]\n  2821: a1 = u64 [a4 + 0x38]\n  2824: a2 = u64 [a4 + 0x28]\n  2827: a3 = u64 [a4 + 0x30]\n  2830: a4 = a0 + 0x1\n  2833: a0 = a4 <u 0x1\n  2836: a2 = a2 + a0\n  2839: a0 = a4 | a2\n  2842: a0 = a0 <u 0x1\n  2845: a5 = a3 + a0\n  2848: a0 = a5 <u a3\n  2851: a3 = a1 + a0\n  2854: a0 = a2 | a3\n  2857: a1 = a4 | a5\n  2860: a0 = a0 | a1\n  2863: jump @115 if a0 == 0\n      : @95 (gas: 17)\n  2867: a1 = sp + 0xffffffffffffffe0\n  2870: a1 = a1 & 0xffffffffffffffe0\n  2873: sp = a1\n  2875: u64 [a1 + 0x18] = a3\n  2878: u64 [a1 + 0x10] = a5\n  2881: u64 [a1 + 0x8] = a2\n  2884: u64 [a1] = a4\n  2886: u64 [s1 + 1496] = 0\n  2890: u64 [s1 + 1488] = 0\n  2894: u64 [s1 + 1480] = 0\n  2898: u64 [s1 + 1472] = 0x4\n  2903: a0 = s1 + 0x5c0\n  2907: u64 [s1 + 0x78] = a4\n  2910: u64 [s1 + 0x70] = a2\n  2913: u64 [s1 + 0x68] = a5\n  2916: u64 [s1 + 0x60] = a3\n  2919: ra = 94, jump @25\n      : @96 [@dyn 47] (gas: 12)\n  2924: a0 = u64 [s1 + 0x60]\n  2927: a2 = s1 + 0x300\n  2931: u64 [a2 + 0x18] = a0\n  2934: a0 = u64 [s1 + 0x68]\n  2937: u64 [a2 + 0x10] = a0\n  2940: a0 = u64 [s1 + 0x70]\n  2943: u64 [a2 + 0x8] = a0\n  2946: a1 = s1 + 0x300\n  2950: a0 = u64 [s1 + 0x78]\n  2953: u64 [a2] = a0\n  2955: a0 = 0\n  2957: ra = 96, jump @19\n      : @97 [@dyn 48] (gas: 7)\n  2962: u64 [s1 + 760] = 0\n  2966: u64 [s1 + 752] = 0\n  2970: u64 [s1 + 736] = 0x3\n  2975: a0 = 0x20\n  2978: a1 = s1 + 0x2e0\n  2982: u64 [s1 + 744] = 0\n  2986: ra = 98, jump @19\n      : @98 [@dyn 49] (gas: 2)\n  2991: a1 = i32 [0x2025c]\n  2996: jump @100 if a1 >u 63\n      : @99 (gas: 2)\n  3000: u32 [0x2025c] = 0x40\n  3006: fallthrough\n      : @100 (gas: 51)\n  3007: a0 = sp + 0xffffffffffffffe0\n  3010: a2 = a0 & 0xffffffffffffffe0\n  3013: u64 [s1 + 0x78] = a2\n  3016: sp = a2\n  3018: a0 = 0x20270\n  3023: i32 a0 = a0 + 0\n  3025: i32 a2 = a2 + 0\n  3027: a1 = 0x40\n  3030: ecalli 9 // 'hash_keccak_256'\n  3032: a3 = u64 [s1 + 0x78]\n  3035: a0 = u64 [a3]\n  3037: a1 = u64 [a3 + 0x8]\n  3040: a2 = u64 [a3 + 0x10]\n  3043: a3 = u64 [a3 + 0x18]\n  3046: a0 = reverse a0\n  3048: u64 [s1 + 0x78] = a0\n  3051: a0 = reverse a1\n  3053: u64 [s1 + 0x70] = a0\n  3056: a0 = reverse a2\n  3058: u64 [s1 + 0x68] = a0\n  3061: a0 = reverse a3\n  3063: u64 [s1 + 0x60] = a0\n  3066: i32 a0 = s1 + 0x5e0\n  3070: ecalli 10 // 'now'\n  3072: t0 = u64 [s1 + 0x5e0]\n  3076: t1 = u64 [s1 + 0x5e8]\n  3080: t2 = u64 [s1 + 0x5f0]\n  3084: a3 = u64 [s1 + 0x5f8]\n  3088: a0 = u64 [s1 + 0x60]\n  3091: a4 = a0 + 0x14\n  3094: a5 = a4 <u a0\n  3097: a1 = u64 [s1 + 0x68]\n  3100: a0 = a1 + a5\n  3103: a1 = a0 <u a1\n  3106: a1 = a5 if a5 == 0\n  3109: a2 = u64 [s1 + 0x70]\n  3112: a1 = a1 + a2\n  3115: a5 = a1 <u a2\n  3118: a2 = u64 [s1 + 0x78]\n  3121: a5 = a5 + a2\n  3124: u64 [s1 + 0x600] = a4\n  3128: u64 [s1 + 0x608] = a0\n  3132: u64 [s1 + 0x610] = a1\n  3136: u64 [s1 + 0x618] = a5\n  3140: u64 [s1 + 0x638] = a3\n  3144: u64 [s1 + 0x630] = t2\n  3148: u64 [s1 + 0x628] = t1\n  3152: u64 [s1 + 0x620] = t0\n  3156: a0 = s1 + 0x600\n  3160: a1 = s1 + 0x620\n  3164: ra = 100, jump @25\n      : @101 [@dyn 50] (gas: 7)\n  3169: u64 [s1 + 1624] = 0\n  3173: u64 [s1 + 1616] = 0\n  3177: u64 [s1 + 1608] = 0\n  3181: u64 [s1 + 1600] = 0x4\n  3186: a0 = s1 + 0x2c0\n  3190: a1 = s1 + 0x640\n  3194: ra = 102, jump @21\n      : @102 [@dyn 51] (gas: 15)\n  3199: a0 = u64 [s1 + 0x2d8]\n  3203: u64 [s1 + 0x60] = a0\n  3206: a0 = u64 [s1 + 0x2d0]\n  3210: u64 [s1 + 0x68] = a0\n  3213: a0 = u64 [s1 + 0x2c8]\n  3217: u64 [s1 + 0x70] = a0\n  3220: a0 = u64 [s1 + 0x2c0]\n  3224: u64 [s1 + 0x78] = a0\n  3227: u64 [s1 + 1656] = 0\n  3231: u64 [s1 + 1648] = 0\n  3235: u64 [s1 + 1640] = 0\n  3239: u64 [s1 + 1632] = 0\n  3243: a0 = s1 + 0x2a0\n  3247: a1 = s1 + 0x660\n  3251: ra = 104, jump @21\n      : @103 [@dyn 52] (gas: 11)\n  3256: a0 = u64 [s1 + 0x2b8]\n  3260: u64 [s1 + 0x58] = a0\n  3263: a0 = u64 [s1 + 0x2b0]\n  3267: u64 [s1 + 0x50] = a0\n  3270: a0 = u64 [s1 + 0x2a8]\n  3274: u64 [s1 + 0x48] = a0\n  3277: a0 = u64 [s1 + 0x2a0]\n  3281: u64 [s1 + 0x40] = a0\n  3284: a0 = s1 + 0x280\n  3288: a1 = 0x40\n  3291: ra = 106, jump @17\n      : @104 [@dyn 53] (gas: 6)\n  3296: a4 = s1 + 0x200\n  3300: a3 = u64 [a4 + 0x98]\n  3304: a1 = u64 [a4 + 0x90]\n  3308: a2 = u64 [a4 + 0x88]\n  3312: a0 = u64 [a4 + 0x80]\n  3316: t0 = 108, jump @1996\n      : @105 [@dyn 54] (gas: 1)\n  3322: jump @111 if a1 != 0\n      : @106 (gas: 11)\n  3326: a1 = u64 [s1 + 0x40]\n  3329: u64 [s1 + 0x260] = a1\n  3333: a1 = u64 [s1 + 0x48]\n  3336: u64 [s1 + 0x268] = a1\n  3340: a1 = u64 [s1 + 0x50]\n  3343: u64 [s1 + 0x270] = a1\n  3347: a1 = s1 + 0x260\n  3351: a2 = u64 [s1 + 0x58]\n  3354: u64 [s1 + 0x278] = a2\n  3358: u64 [s1 + 0x58] = a0\n  3361: ra = 110, jump @19\n      : @107 [@dyn 55] (gas: 21)\n  3366: a0 = u64 [s1 + 0x60]\n  3369: u64 [s1 + 0x238] = a0\n  3373: a0 = u64 [s1 + 0x68]\n  3376: u64 [s1 + 0x230] = a0\n  3380: a0 = u64 [s1 + 0x70]\n  3383: u64 [s1 + 0x228] = a0\n  3387: a0 = u64 [0x20000]\n  3392: a1 = u64 [0x20008]\n  3397: a2 = u64 [0x20010]\n  3402: a3 = u64 [s1 + 0x78]\n  3405: u64 [s1 + 0x220] = a3\n  3409: u64 [s1 + 0x258] = a0\n  3413: u64 [s1 + 0x250] = a1\n  3417: u64 [s1 + 0x248] = a2\n  3421: a0 = u64 [0x20018]\n  3426: a1 = 0x20\n  3429: a2 = s1 + 0x240\n  3433: a3 = s1 + 0x220\n  3437: u64 [s1 + 0x240] = a0\n  3441: a0 = u64 [s1 + 0x58]\n  3444: ra = 112, jump @26\n      : @108 [@dyn 56] (gas: 3)\n  3449: a0 = s1 + 0x200\n  3453: a1 = 0x40\n  3456: ra = 114, jump @17\n      : @109 [@dyn 57] (gas: 6)\n  3461: a4 = s1 + 0x200\n  3465: a3 = u64 [a4 + 0x18]\n  3468: a1 = u64 [a4 + 0x10]\n  3471: a2 = u64 [a4 + 0x8]\n  3474: a0 = u64 [a4]\n  3476: t0 = 116, jump @1996\n      : @110 [@dyn 58] (gas: 1)\n  3482: jump @121 if a1 == 0\n      : @111 (gas: 1)\n  3486: trap\n      : @112 (gas: 6)\n  3487: a1 = 0x20270\n  3492: i32 a1 = a1 + 0\n  3494: a0 = 0x1\n  3497: a2 = 0\n  3499: ecalli 14 // 'seal_return'\n  3501: jump @115\n      : @113 (gas: 6)\n  3503: a1 = 0x20270\n  3508: i32 a1 = a1 + 0\n  3510: a0 = 0x1\n  3513: a2 = 0\n  3515: ecalli 14 // 'seal_return'\n  3517: jump @115\n      : @114 (gas: 6)\n  3519: a1 = 0x20270\n  3524: i32 a1 = a1 + 0\n  3526: a0 = 0x1\n  3529: a2 = 0\n  3531: ecalli 14 // 'seal_return'\n  3533: fallthrough\n      : @115 (gas: 6)\n  3534: u64 [s1 + 496] = 0\n  3538: u64 [s1 + 488] = 0\n  3542: u64 [s1 + 480] = 0\n  3546: t0 = 0x76\n  3549: a0 = 0x4e487b7100000000\n  3559: fallthrough\n      : @116 [@dyn 59] (gas: 4)\n  3560: a1 = s1 + 0x1e0\n  3564: u64 [s1 + 0x1f8] = a0\n  3568: a0 = 0\n  3570: ra = 120, jump @19\n      : @117 [@dyn 60] (gas: 7)\n  3575: u64 [s1 + 472] = 0\n  3579: u64 [s1 + 464] = 0\n  3583: u64 [s1 + 448] = 0x11\n  3588: a0 = 0x4\n  3591: a1 = s1 + 0x1c0\n  3595: u64 [s1 + 456] = 0\n  3599: ra = 122, jump @19\n      : @118 [@dyn 61] (gas: 2)\n  3604: a1 = i32 [0x2025c]\n  3609: jump @120 if a1 >u 63\n      : @119 (gas: 2)\n  3613: u32 [0x2025c] = 0x40\n  3619: fallthrough\n      : @120 (gas: 8)\n  3620: a1 = 0x20270\n  3625: i32 a1 = a1 + 0\n  3627: a0 = 0x1\n  3630: a2 = 0x24\n  3633: ecalli 14 // 'seal_return'\n  3635: u64 [s1 + 0x78] = a0\n  3638: ra = 0x7c\n  3641: jump @32\n      : @121 (gas: 2)\n  3644: u64 [s1 + 0x78] = a0\n  3647: ra = 124, jump @32\n      : @122 [@dyn 62] (gas: 5)\n  3652: i32 a0 = a0 + 0\n  3654: a1 = 0\n  3656: a2 = 0\n  3658: ecalli 3 // 'call_data_copy'\n  3660: jump @15\n      : @123 (gas: 3)\n  3663: a0 = u64 [s1 + 0x78]\n  3666: a1 = 0\n  3668: ra = 126, jump @32\n      : @124 [@dyn 63] (gas: 5)\n  3673: i32 a1 = a0 + 0\n  3675: a0 = 0\n  3677: a2 = 0\n  3679: ecalli 14 // 'seal_return'\n  3681: jump @115\n      : @125 [@dyn 64] (gas: 4)\n  3684: a0 = 0x20258\n  3689: u64 [s1 + 0x138] = a0\n  3693: a0 = i32 [0x20258]\n  3698: jump @127 if a0 >=u 4\n      : @126 (gas: 1)\n  3702: jump @1266\n      : @127 (gas: 8)\n  3705: a0 = s1 + 0x3000\n  3709: i32 a0 = a0 + 0x100\n  3713: a1 = 0\n  3715: ra = 0x82\n  3719: ecalli 4 // 'call_data_load'\n  3721: t0 = 0x84\n  3725: a3 = s1 + 0x30b8\n  3729: jump @129\n      : @128 [@dyn 65] (gas: 3)\n  3731: t0 = 0x84\n  3735: a3 = s1 + 0x30b8\n  3739: fallthrough\n      : @129 [@dyn 66] (gas: 2)\n  3740: a0 = i32 [a3 + 0x64]\n  3743: jump @131 if a0 != 2335308681\n      : @130 (gas: 1)\n  3750: jump @810\n      : @131 (gas: 1)\n  3753: jump @133 if a0 != 2376452955\n      : @132 (gas: 1)\n  3760: jump @651\n      : @133 (gas: 2)\n  3763: a2 = s1 + 0x38b8\n  3767: jump @135 if a0 != 2404364232\n      : @134 (gas: 1)\n  3774: jump @610\n      : @135 (gas: 1)\n  3777: jump @137 if a0 != 2543054088\n      : @136 (gas: 1)\n  3784: jump @841\n      : @137 (gas: 2)\n  3787: a4 = s1 + 0x40b8\n  3791: jump @139 if a0 != 2853709350\n      : @138 (gas: 1)\n  3798: jump @715\n      : @139 (gas: 1)\n  3801: jump @141 if a0 != 3070914028\n      : @140 (gas: 1)\n  3808: jump @582\n      : @141 (gas: 1)\n  3811: jump @203 if a0 == 3248441637\n      : @142 (gas: 1)\n  3819: jump @144 if a0 != 3368156330\n      : @143 (gas: 1)\n  3826: jump @437\n      : @144 (gas: 1)\n  3829: jump @253 if a0 == 3730383667\n      : @145 (gas: 1)\n  3837: jump @147 if a0 != 3933699820\n      : @146 (gas: 1)\n  3844: jump @663\n      : @147 (gas: 1)\n  3847: jump @149 if a0 != 4076725131\n      : @148 (gas: 1)\n  3854: jump @343\n      : @149 (gas: 1)\n  3857: jump @151 if a0 != 293231504\n      : @150 (gas: 1)\n  3864: jump @285\n      : @151 (gas: 1)\n  3867: jump @153 if a0 != 661702805\n      : @152 (gas: 1)\n  3874: jump @756\n      : @153 (gas: 1)\n  3877: jump @155 if a0 != 661997429\n      : @154 (gas: 1)\n  3884: jump @375\n      : @155 (gas: 1)\n  3887: jump @157 if a0 != 817300627\n      : @156 (gas: 1)\n  3894: jump @767\n      : @157 (gas: 1)\n  3897: jump @159 if a0 != 969432063\n      : @158 (gas: 1)\n  3904: jump @476\n      : @159 (gas: 1)\n  3907: jump @161 if a0 != 1205982544\n      : @160 (gas: 1)\n  3914: jump @677\n      : @161 (gas: 1)\n  3917: jump @163 if a0 != 1399471580\n      : @162 (gas: 1)\n  3924: jump @638\n      : @163 (gas: 1)\n  3927: jump @165 if a0 != 1502769220\n      : @164 (gas: 1)\n  3934: jump @331\n      : @165 (gas: 1)\n  3937: jump @167 if a0 != 1553423035\n      : @166 (gas: 1)\n  3944: jump @464\n      : @167 (gas: 1)\n  3947: jump @169 if a0 != 1763039112\n      : @168 (gas: 1)\n  3954: jump @404\n      : @169 (gas: 1)\n  3957: jump @171 if a0 == 2092118715\n      : @170 (gas: 1)\n  3964: jump @570\n      : @171 (gas: 9)\n  3967: u64 [a2 + 832] = 0\n  3971: u64 [a2 + 824] = 0\n  3975: u64 [a2 + 816] = 0\n  3979: u64 [a2 + 808] = 0\n  3983: a0 = s1 + 0x4000\n  3987: i32 a0 = a0 + 0xfffffffffffffbe0\n  3991: ra = 0x86\n  3995: ecalli 17 // 'value_transferred'\n  3997: fallthrough\n      : @172 [@dyn 67] (gas: 10)\n  3998: a3 = s1 + 0x38b8\n  4002: a4 = a3 + 0x300\n  4006: a0 = u64 [a4 + 0x38]\n  4009: a1 = u64 [a4 + 0x40]\n  4012: a2 = u64 [a4 + 0x30]\n  4015: a3 = u64 [a4 + 0x28]\n  4018: a1 = a1 | a2\n  4021: a0 = a0 | a3\n  4024: a0 = a0 | a1\n  4027: jump @174 if a0 == 0\n      : @173 (gas: 1)\n  4030: jump @1174\n      : @174 (gas: 1)\n  4033: t0 = 136, jump @1994\n      : @175 [@dyn 68] (gas: 1)\n  4040: jump @177 if a1 <u a0\n      : @176 (gas: 1)\n  4043: jump @1175\n      : @177 (gas: 6)\n  4046: a0 = s1 + 0x4000\n  4050: i32 a0 = a0 + 0xfffffffffffffc00\n  4054: a1 = 0x4\n  4057: ra = 0x8a\n  4061: ecalli 4 // 'call_data_load'\n  4063: fallthrough\n      : @178 [@dyn 69] (gas: 4)\n  4064: a2 = s1 + 0x38b8\n  4068: a1 = u64 [a2 + 0x358]\n  4072: a3 = u64 [a2 + 0x360]\n  4076: t0 = 140, jump @1979\n      : @179 [@dyn 70] (gas: 1)\n  4083: jump @181 if a1 != 0\n      : @180 (gas: 1)\n  4086: jump @1176\n      : @181 (gas: 12)\n  4089: a1 = a2 + 0x300\n  4093: a0 = u64 [a1 + 0x50]\n  4096: u64 [s1 + 0x120] = a0\n  4100: a0 = u64 [a1 + 0x48]\n  4103: u64 [s1 + 0x128] = a0\n  4107: u64 [a2 + 896] = 0\n  4111: u64 [a2 + 888] = 0\n  4115: u64 [a2 + 880] = 0\n  4119: u64 [a1 + 104] = 0x7\n  4123: a0 = s1 + 0x1cc0\n  4127: a1 = s1 + 0x3c20\n  4131: ra = 142, jump @21\n      : @182 [@dyn 71] (gas: 15)\n  4137: a0 = s1 + 0x18b8\n  4141: a1 = u64 [a0 + 0x410]\n  4145: u64 [s1 + 0x118] = a1\n  4149: a1 = u64 [a0 + 0x408]\n  4153: u64 [s1 + 0x110] = a1\n  4157: a0 = u32 [a0 + 0x418]\n  4161: u64 [s1 + 0x108] = a0\n  4165: a0 = 0x30270\n  4170: u64 [s1 + 0x100] = a0\n  4174: i32 a0 = a0 + 0\n  4176: ra = 0x90\n  4180: ecalli 6 // 'caller'\n  4182: a2 = u64 [s1 + 0x100]\n  4186: t0 = 0x92\n  4190: jump @1961\n      : @183 [@dyn 72] (gas: 2)\n  4194: a2 = u64 [s1 + 0x100]\n  4198: t0 = 146, jump @1961\n      : @184 [@dyn 73] (gas: 18)\n  4205: a2 = u64 [s1 + 0x108]\n  4209: a1 = a1 ^ a2\n  4212: a2 = u64 [s1 + 0x110]\n  4216: a0 = a0 ^ a2\n  4219: a0 = a0 | a1\n  4222: a1 = u64 [s1 + 0x118]\n  4226: a1 = a1 ^ a3\n  4229: a0 = a0 | a1\n  4232: a0 = a0 <u 0x1\n  4235: a1 = s1 + 0x18b8\n  4239: u64 [a1 + 1024] = 0\n  4243: u64 [a1 + 1016] = 0\n  4247: u64 [a1 + 0x3e8] = a0\n  4251: a0 = s1 + 0x1ca0\n  4255: u64 [a1 + 1008] = 0\n  4259: ra = 0x94\n  4263: t0 = 0x562\n  4267: jump @1953\n      : @185 [@dyn 74] (gas: 9)\n  4271: a3 = s1 + 0x100\n  4275: a0 = u64 [a3 + 0x38]\n  4278: a1 = u64 [a3 + 0x28]\n  4281: a0 = a0 | a1\n  4284: a1 = u64 [a3 + 0x30]\n  4287: a2 = u64 [a3 + 0x20]\n  4290: a1 = a1 | a2\n  4293: a0 = a0 | a1\n  4296: jump @187 if a0 == 0\n      : @186 (gas: 1)\n  4299: jump @1177\n      : @187 (gas: 3)\n  4302: a0 = s1 + 0x1c60\n  4306: a1 = 0x40\n  4309: ra = 150, jump @17\n      : @188 [@dyn 75] (gas: 14)\n  4315: a4 = s1 + 0x18b8\n  4319: t0 = u64 [a4 + 0x3c0]\n  4323: a1 = a4 + 0x300\n  4327: a5 = u64 [a1 + 0xb8]\n  4331: a3 = u64 [a1 + 0xb0]\n  4335: a0 = u64 [a1 + 0xa8]\n  4339: a2 = a3 | t0\n  4342: a1 = a0 | a5\n  4345: a1 = a1 | a2\n  4348: a1 = a1 >> 0x20\n  4351: a2 = a2 | a5\n  4354: a2 = a2 << 0x20\n  4357: a1 = a1 | a2\n  4360: jump @190 if a1 == 0\n      : @189 (gas: 1)\n  4363: jump @1123\n      : @190 (gas: 11)\n  4366: u64 [a4 + 920] = 0\n  4370: u64 [a4 + 912] = 0\n  4374: u64 [a4 + 904] = 0\n  4378: u64 [s1 + 0x130] = a3\n  4382: a3 = 0x8c379a000000000\n  4392: a1 = s1 + 0x1c40\n  4396: u64 [a4 + 0x3a0] = a3\n  4400: u64 [s1 + 0x138] = a0\n  4404: u64 [s1 + 0x128] = t0\n  4408: u64 [s1 + 0x120] = a5\n  4412: ra = 152, jump @19\n      : @191 [@dyn 76] (gas: 6)\n  4418: a5 = s1 + 0x100\n  4422: a1 = u64 [a5 + 0x38]\n  4425: a0 = u64 [a5 + 0x28]\n  4428: a3 = u64 [a5 + 0x20]\n  4431: a3 = a3 | a0\n  4434: t0 = 154, jump @1957\n      : @192 [@dyn 77] (gas: 1)\n  4441: jump @194 if a0 != 0\n      : @193 (gas: 1)\n  4444: jump @1123\n      : @194 (gas: 10)\n  4447: i32 a0 = a1 + 0x4\n  4450: a2 = s1 + 0x18b8\n  4454: u64 [a2 + 896] = 0\n  4458: u64 [a2 + 888] = 0\n  4462: u64 [a2 + 872] = 0x20\n  4467: a1 = s1 + 0x1c20\n  4471: u64 [a2 + 880] = 0\n  4475: u64 [s1 + 0x128] = a3\n  4479: u64 [s1 + 0x120] = a4\n  4483: ra = 156, jump @19\n      : @195 [@dyn 78] (gas: 1)\n  4489: t0 = 158, jump @1955\n      : @196 [@dyn 79] (gas: 1)\n  4496: jump @198 if a0 != 0\n      : @197 (gas: 1)\n  4499: jump @1123\n      : @198 (gas: 8)\n  4502: i32 a0 = a1 + 0x24\n  4505: a3 = s1 + 0x18b8\n  4509: u64 [a3 + 864] = 0\n  4513: u64 [a3 + 856] = 0\n  4517: u64 [a3 + 840] = 0xe\n  4522: a1 = s1 + 0x1c00\n  4526: u64 [a3 + 848] = 0\n  4530: ra = 160, jump @19\n      : @199 [@dyn 80] (gas: 1)\n  4536: t0 = 162, jump @1956\n      : @200 [@dyn 81] (gas: 1)\n  4543: jump @202 if a0 != 0\n      : @201 (gas: 1)\n  4546: jump @1123\n      : @202 (gas: 11)\n  4549: i32 a0 = a3 + 0x44\n  4552: a1 = u64 [0x20038]\n  4557: a2 = u64 [0x200a8]\n  4562: a4 = s1 + 0x18b8\n  4566: u64 [a4 + 0x340] = a1\n  4570: u64 [a4 + 816] = 0\n  4574: u64 [a4 + 0x338] = a2\n  4578: a1 = s1 + 0x1be0\n  4582: u64 [a4 + 808] = 0\n  4586: ra = 0x404\n  4590: jump @19\n      : @203 (gas: 9)\n  4593: u64 [a4 + 288] = 0\n  4597: u64 [a4 + 280] = 0\n  4601: u64 [a4 + 272] = 0\n  4605: u64 [a4 + 264] = 0\n  4609: a0 = s1 + 0x4000\n  4613: i32 a0 = a0 + 0x1c0\n  4617: ra = 0xa4\n  4621: ecalli 17 // 'value_transferred'\n  4623: fallthrough\n      : @204 [@dyn 82] (gas: 3)\n  4624: a4 = s1 + 0x40b8\n  4628: a5 = a4 + 0x100\n  4632: t0 = 166, jump @2029\n      : @205 [@dyn 83] (gas: 1)\n  4639: jump @207 if a0 == 0\n      : @206 (gas: 1)\n  4642: jump @1180\n      : @207 (gas: 3)\n  4645: a0 = u64 [s1 + 0x138]\n  4649: a0 = i32 [a0]\n  4651: jump @209 if a0 >u 3\n      : @208 (gas: 1)\n  4655: jump @1181\n      : @209 (gas: 7)\n  4658: u64 [a4 + 320] = 0\n  4662: u64 [a4 + 312] = 0\n  4666: u64 [a4 + 304] = 0\n  4670: u64 [a4 + 296] = 0x4\n  4675: a0 = s1 + 0x2d00\n  4679: a1 = s1 + 0x41e0\n  4683: ra = 168, jump @21\n      : @210 [@dyn 84] (gas: 13)\n  4689: a4 = s1 + 0x28b8\n  4693: a5 = a4 + 0x400\n  4697: a0 = u64 [a5 + 0x48]\n  4700: a1 = u64 [a5 + 0x50]\n  4703: a2 = u64 [a5 + 0x58]\n  4706: a3 = u64 [a5 + 0x60]\n  4709: u64 [a5 + 0x40] = a3\n  4712: u64 [a5 + 0x38] = a2\n  4715: u64 [a5 + 0x30] = a1\n  4718: a1 = s1 + 0x2ce0\n  4722: u64 [a5 + 0x28] = a0\n  4725: a0 = 0\n  4727: ra = 170, jump @19\n      : @211 [@dyn 85] (gas: 3)\n  4733: t0 = 0xac\n  4737: a1 = s1 + 0x28b8\n  4741: fallthrough\n      : @212 [@dyn 86] (gas: 8)\n  4742: u64 [a1 + 1056] = 0\n  4746: u64 [a1 + 1048] = 0\n  4750: u64 [a1 + 1032] = 0x3\n  4755: a2 = a1\n  4757: a0 = 0x20\n  4760: a1 = s1 + 0x2cc0\n  4764: u64 [a2 + 1040] = 0\n  4768: ra = 174, jump @19\n      : @213 [@dyn 87] (gas: 3)\n  4774: a2 = 0x2025c\n  4779: a0 = i32 [0x2025c]\n  4784: jump @215 if a0 >u 63\n      : @214 (gas: 2)\n  4788: u32 [0x2025c] = 0x40\n  4794: fallthrough\n      : @215 (gas: 41)\n  4795: u64 [s1 + 0x128] = a2\n  4799: a0 = sp + 0xffffffffffffffe0\n  4802: a2 = a0 & 0xffffffffffffffe0\n  4805: u64 [s1 + 0x130] = a2\n  4809: sp = a2\n  4811: a0 = 0x20270\n  4816: i32 a0 = a0 + 0\n  4818: i32 a2 = a2 + 0\n  4820: a1 = 0x40\n  4823: u64 [s1 + 0x120] = a0\n  4827: ecalli 9 // 'hash_keccak_256'\n  4829: a3 = u64 [s1 + 0x130]\n  4833: a0 = u64 [a3]\n  4835: a1 = u64 [a3 + 0x8]\n  4838: a2 = u64 [a3 + 0x10]\n  4841: a3 = u64 [a3 + 0x18]\n  4844: a4 = reverse a0\n  4846: a5 = reverse a1\n  4848: a2 = reverse a2\n  4850: a0 = reverse a3\n  4852: t0 = a0 + 0x11\n  4855: u64 [s1 + 0x70] = a0\n  4858: a1 = t0 <u a0\n  4861: a0 = a2 + a1\n  4864: u64 [s1 + 0x78] = a2\n  4867: a3 = a0 <u a2\n  4870: a3 = a1 if a1 == 0\n  4873: a3 = a3 + a5\n  4876: u64 [s1 + 0x80] = a5\n  4880: a1 = a3 <u a5\n  4883: u64 [s1 + 0x88] = a4\n  4887: a1 = a1 + a4\n  4890: a4 = s1 + 0x40b8\n  4894: u64 [a4 + 0x148] = t0\n  4898: a2 = a4 + 0x100\n  4902: u64 [a2 + 0x50] = a0\n  4905: u64 [a2 + 0x58] = a3\n  4908: u64 [a2 + 0x60] = a1\n  4911: a0 = s1 + 0x2ca0\n  4915: a1 = s1 + 0x4200\n  4919: ra = 176, jump @21\n      : @216 [@dyn 88] (gas: 15)\n  4925: ra = s1 + 0x28b8\n  4929: t0 = u64 [ra + 0x3e8]\n  4933: a1 = u64 [ra + 0x400]\n  4937: t2 = u64 [ra + 0x3f0]\n  4941: a4 = u64 [ra + 0x3f8]\n  4945: a0 = t0 <u 0x11\n  4948: t1 = a0 ^ 0x1\n  4951: a5 = t2 >u 0\n  4953: a5 = t1 if t2 == 0\n  4956: a0 = a4 >u 0\n  4958: a2 = a1 >u 0\n  4960: a2 = a0 if a1 == 0\n  4963: a3 = a4 | a1\n  4966: a2 = a5 if a3 == 0\n  4969: jump @218 if a2 == 0\n      : @217 (gas: 1)\n  4972: jump @1182\n      : @218 (gas: 21)\n  4975: a2 = -a4\n  4977: a3 = a2 - a5\n  4980: a2 = a2 <u a5\n  4983: a0 = a0 + a1\n  4986: a0 = -a0\n  4988: a2 = a0 - a2\n  4991: a0 = 0x10 - t0\n  4994: t1 = t1 + t2\n  4997: a1 = -t1\n  4999: u64 [s1 + 0x130] = a0\n  5003: a4 = ra + 0x300\n  5007: u64 [a4 + 0xa8] = a0\n  5011: u64 [s1 + 0x118] = a1\n  5015: u64 [a4 + 0xb0] = a1\n  5019: u64 [s1 + 0x128] = a3\n  5023: u64 [a4 + 0xb8] = a3\n  5027: a0 = s1 + 0x2c80\n  5031: a1 = s1 + 0x2c60\n  5035: u64 [s1 + 0x120] = a2\n  5039: u64 [a4 + 0xc0] = a2\n  5043: ra = 178, jump @1913\n      : @219 [@dyn 89] (gas: 3)\n  5050: t0 = 0xb4\n  5054: a1 = s1 + 0x28b8\n  5058: fallthrough\n      : @220 [@dyn 90] (gas: 12)\n  5059: a2 = a1 + 0x300\n  5063: a0 = u64 [a2 + 0xc8]\n  5067: u64 [s1 + 0x110] = a0\n  5071: a0 = u64 [a2 + 0xd0]\n  5075: u64 [s1 + 0x108] = a0\n  5079: a0 = u64 [a2 + 0xd8]\n  5083: u64 [s1 + 0x100] = a0\n  5087: a0 = u64 [a2 + 0xe0]\n  5091: u64 [s1 + 0xf8] = a0\n  5095: a0 = s1 + 0x2c40\n  5099: a1 = 0x40\n  5102: ra = 182, jump @17\n      : @221 [@dyn 91] (gas: 26)\n  5108: a0 = s1 + 0x28b8\n  5112: a1 = u64 [a0 + 0x3a0]\n  5116: u64 [s1 + 0x60] = a1\n  5119: a4 = u64 [a0 + 0x398]\n  5123: u64 [s1 + 0x58] = a4\n  5126: a3 = u64 [a0 + 0x390]\n  5130: u64 [s1 + 0x50] = a3\n  5133: a5 = u64 [a0 + 0x388]\n  5137: u64 [s1 + 0x68] = a5\n  5140: a2 = u64 [s1 + 0xf8]\n  5144: u64 [a0 + 0x360] = a2\n  5148: a2 = u64 [s1 + 0x100]\n  5152: u64 [a0 + 0x358] = a2\n  5156: a2 = u64 [s1 + 0x108]\n  5160: u64 [a0 + 0x350] = a2\n  5164: a2 = u64 [s1 + 0x110]\n  5168: u64 [a0 + 0x348] = a2\n  5172: a2 = a0 + 0x300\n  5176: u64 [a2 + 0x80] = a1\n  5180: u64 [a2 + 0x78] = a4\n  5183: u64 [a2 + 0x70] = a3\n  5186: a2 = a0\n  5188: a0 = s1 + 0x2c20\n  5192: a1 = s1 + 0x2c00\n  5196: u64 [a2 + 0x368] = a5\n  5200: ra = 184, jump @1336\n      : @222 [@dyn 92] (gas: 6)\n  5206: a3 = u64 [s1 + 0x58]\n  5209: a0 = u64 [s1 + 0x68]\n  5212: a1 = u64 [s1 + 0x60]\n  5215: a2 = u64 [s1 + 0x50]\n  5218: a2 = a2 | a1\n  5221: t0 = 186, jump @2024\n      : @223 [@dyn 93] (gas: 1)\n  5228: jump @225 if a1 == 0\n      : @224 (gas: 1)\n  5231: jump @1123\n      : @225 (gas: 12)\n  5234: a2 = s1 + 0x28b8\n  5238: a1 = u64 [s1 + 0x130]\n  5242: a4 = a2 + 0x300\n  5246: u64 [a4 + 0x28] = a1\n  5249: a1 = u64 [s1 + 0x118]\n  5253: u64 [a4 + 0x30] = a1\n  5256: a1 = u64 [s1 + 0x128]\n  5260: u64 [a4 + 0x38] = a1\n  5263: a1 = s1 + 0x2be0\n  5267: a3 = u64 [s1 + 0x120]\n  5271: u64 [a4 + 0x40] = a3\n  5274: ra = 188, jump @19\n      : @226 [@dyn 94] (gas: 14)\n  5280: a3 = s1 + 0x28b8\n  5284: a4 = s1 + 0x100\n  5288: a0 = u64 [a4 + 0x20]\n  5291: u64 [a3 + 0x300] = a0\n  5295: a0 = u64 [a4 + 0x28]\n  5298: a5 = a3 + 0x200\n  5302: u64 [a5 + 0xf8] = a0\n  5306: a0 = u64 [a4 + 0x18]\n  5309: u64 [a5 + 0xf0] = a0\n  5313: a0 = s1 + 0x2bc0\n  5317: a1 = s1 + 0x2ba0\n  5321: a2 = u64 [a4 + 0x30]\n  5324: u64 [a5 + 0xe8] = a2\n  5328: ra = 190, jump @1913\n      : @227 [@dyn 95] (gas: 2)\n  5335: a3 = s1 + 0x28b8\n  5339: fallthrough\n      : @228 (gas: 26)\n  5340: a4 = a3 + 0x300\n  5344: a0 = u64 [a4 + 0x8]\n  5347: a1 = u64 [a4 + 0x20]\n  5350: a2 = u64 [a4 + 0x10]\n  5353: a3 = u64 [a4 + 0x18]\n  5356: t0 = a0 + 0xffffffffffffffe0\n  5359: a0 = t0 <u a0\n  5362: a4 = a2 + a0\n  5365: a4 = a4 + 0xffffffffffffffff\n  5368: a5 = a4 ^ a2\n  5371: a2 = a4 <u a2\n  5374: a2 = a0 if a5 == 0\n  5377: a0 = a3 + 0xffffffffffffffff\n  5380: a2 = a2 + a0\n  5383: a0 = a2 <u a0\n  5386: a3 = a3 <u 0x1\n  5389: a1 = a1 - a3\n  5392: a0 = a0 + a1\n  5395: a1 = t0 | a2\n  5398: a0 = a0 | a4\n  5401: a1 = a1 | a0\n  5404: a1 = a1 >> 0x20\n  5407: a0 = a0 | a2\n  5410: a0 = a0 << 0x20\n  5413: a0 = a0 | a1\n  5416: jump @230 if a0 == 0\n      : @229 (gas: 1)\n  5419: jump @1123\n      : @230 (gas: 10)\n  5422: a2 = u64 [s1 + 0x60]\n  5425: a4 = u64 [s1 + 0x58]\n  5428: a0 = a4 | a2\n  5431: a1 = 0xffffffe0\n  5441: a5 = u64 [s1 + 0x68]\n  5444: a1 = a5 <u a1\n  5447: a3 = u64 [s1 + 0x50]\n  5450: a1 = 0 if a3 != 0\n  5452: a1 = 0 if a0 != 0\n  5454: jump @232 if a1 != 0\n      : @231 (gas: 1)\n  5457: jump @1123\n      : @232 (gas: 24)\n  5460: a0 = a5\n  5462: a5 = a3\n  5464: a3 = a2\n  5466: a2 = a0 + 0x20\n  5469: a0 = a2 <u a0\n  5472: a1 = a5 + a0\n  5475: u64 [s1 + 0x40] = a1\n  5478: a1 = a1 <u a5\n  5481: a1 = a0 if a0 == 0\n  5484: a1 = a1 + a4\n  5487: u64 [s1 + 0x30] = a1\n  5490: a0 = a1 <u a4\n  5493: a1 = u64 [s1 + 0x138]\n  5497: a1 = i32 [a1]\n  5499: u64 [s1 + 0x138] = a1\n  5503: a0 = a0 + a3\n  5506: u64 [s1 + 0x48] = a0\n  5509: a0 = 0xffffffff\n  5519: u64 [s1 + 0xf8] = a0\n  5523: u64 [s1 + 0x38] = a2\n  5526: a0 = a2\n  5528: a1 = t0\n  5530: u64 [s1 + 0x130] = t0\n  5534: ra = 192, jump @32\n      : @233 [@dyn 96] (gas: 14)\n  5540: i32 a0 = a0 + 0\n  5542: a1 = i32 [s1 + 0x130]\n  5546: a2 = u64 [s1 + 0x138]\n  5550: ecalli 3 // 'call_data_copy'\n  5552: a3 = s1 + 0x28b8\n  5556: t1 = 0\n  5558: ra = 0\n  5560: u64 [s1 + 152] = 0\n  5564: u64 [s1 + 144] = 0\n  5568: t2 = 0\n  5570: a5 = 0\n  5572: t0 = 0\n  5574: a4 = 0\n  5576: fallthrough\n      : @234 (gas: 10)\n  5577: a0 = a5 >u 0\n  5579: a1 = t2 <u 0x10\n  5582: a1 = a1 ^ 0x1\n  5585: a1 = a0 if a5 != 0\n  5588: a0 = t0 >u 0\n  5590: a2 = a4 >u 0\n  5592: a2 = a0 if a4 == 0\n  5595: a0 = t0 | a4\n  5598: a2 = a1 if a0 == 0\n  5601: jump @236 if a2 == 0\n      : @235 (gas: 1)\n  5604: jump @1084\n      : @236 (gas: 27)\n  5607: u64 [s1 + 0x120] = ra\n  5611: u64 [s1 + 0x128] = t1\n  5615: a0 = sp + 0xffffffffffffffe0\n  5618: a0 = a0 & 0xffffffffffffffe0\n  5621: u64 [s1 + 0xf0] = a0\n  5625: sp = a0\n  5627: u64 [s1 + 0x108] = a4\n  5631: u64 [a3 + 0x1c0] = a4\n  5635: u64 [s1 + 0x100] = t0\n  5639: u64 [a3 + 0x1b8] = t0\n  5643: u64 [s1 + 0x110] = a5\n  5647: u64 [a3 + 0x1b0] = a5\n  5651: u64 [s1 + 0x118] = t2\n  5655: u64 [a3 + 0x1a8] = t2\n  5659: a0 = u64 [s1 + 0x88]\n  5663: a5 = a3 + 0x100\n  5667: u64 [a5 + 0xe0] = a0\n  5671: a0 = u64 [s1 + 0x80]\n  5675: u64 [a5 + 0xd8] = a0\n  5679: a0 = u64 [s1 + 0x78]\n  5682: u64 [a5 + 0xd0] = a0\n  5686: a0 = s1 + 0x2aa0\n  5690: a1 = s1 + 0x2a80\n  5694: a2 = s1 + 0x2a60\n  5698: a4 = u64 [s1 + 0x70]\n  5701: u64 [a5 + 0xc8] = a4\n  5705: ra = 194, jump @1467\n      : @237 [@dyn 97] (gas: 23)\n  5712: a3 = s1 + 0x28b8\n  5716: a2 = a3 + 0x200\n  5720: a0 = u64 [a2 + 0x20]\n  5723: u64 [s1 + 0x130] = a0\n  5727: a0 = u64 [a2 + 0x18]\n  5730: u64 [s1 + 0xe8] = a0\n  5734: a0 = u64 [a2 + 0x10]\n  5737: u64 [s1 + 0xe0] = a0\n  5741: a0 = u64 [a2 + 0x8]\n  5744: u64 [s1 + 0x138] = a0\n  5748: a4 = a3 + 0x100\n  5752: a0 = u64 [a4 + 0xf8]\n  5756: a1 = u64 [a2]\n  5758: a2 = u64 [a4 + 0xe8]\n  5762: a3 = u64 [a4 + 0xf0]\n  5766: a4 = u64 [s1 + 0xf0]\n  5770: u64 [a4 + 0x10] = a0\n  5773: u64 [a4 + 0x18] = a1\n  5776: u64 [a4] = a2\n  5778: u64 [a4 + 0x8] = a3\n  5781: a1 = a4\n  5783: a0 = s1 + 0x2a40\n  5787: ra = 196, jump @21\n      : @238 [@dyn 98] (gas: 26)\n  5793: a1 = s1 + 0x28b8\n  5797: a2 = a1 + 0x100\n  5801: a0 = u64 [a2 + 0x88]\n  5805: u64 [s1 + 0xd8] = a0\n  5809: a0 = u64 [a2 + 0x90]\n  5813: u64 [s1 + 0xd0] = a0\n  5817: a0 = u64 [a2 + 0x98]\n  5821: u64 [s1 + 0xc8] = a0\n  5825: a0 = u64 [a2 + 0xa0]\n  5829: u64 [s1 + 0xc0] = a0\n  5833: a5 = u64 [s1 + 0x138]\n  5837: a0 = a5 >> 0x3d\n  5840: a2 = u64 [s1 + 0xe0]\n  5844: a1 = a2 << 0x3\n  5847: a0 = a0 | a1\n  5850: a1 = a2 >> 0x3d\n  5853: a3 = u64 [s1 + 0xe8]\n  5857: a2 = a3 << 0x3\n  5860: a1 = a1 | a2\n  5863: a2 = a3 >> 0x3d\n  5866: a3 = u64 [s1 + 0x130]\n  5870: a3 = a3 << 0x3\n  5873: a2 = a2 | a3\n  5876: a5 = a5 << 0x3\n  5879: u64 [s1 + 0x130] = a5\n  5883: t0 = 198, jump @1966\n      : @239 [@dyn 99] (gas: 5)\n  5890: u64 [s1 + 0xf0] = a4\n  5894: i32 a2 = a5 + 0xffffffffffffff80\n  5897: a0 = 0xffffffffffffffff\n  5900: a1 = 0xffffffffffffffff\n  5903: ra = 200, jump @2043\n      : @240 [@dyn 100] (gas: 8)\n  5910: u64 [s1 + 0xe0] = a0\n  5914: u64 [s1 + 0xe8] = a1\n  5918: a0 = u64 [s1 + 0x138]\n  5922: i32 a2 = a0 << 0x3\n  5925: u64 [s1 + 0x138] = a2\n  5929: a0 = u64 [s1 + 0xf8]\n  5933: a1 = 0\n  5935: ra = 202, jump @2043\n      : @241 [@dyn 101] (gas: 7)\n  5942: u64 [s1 + 0xb0] = a0\n  5946: u64 [s1 + 0xb8] = a1\n  5950: a1 = u64 [s1 + 0x130]\n  5954: i32 a2 = 0x80 - a1\n  5958: a0 = 0xffffffffffffffff\n  5961: a1 = 0xffffffffffffffff\n  5964: ra = 204, jump @2038\n      : @242 [@dyn 102] (gas: 6)\n  5971: u64 [s1 + 0xa0] = a0\n  5975: u64 [s1 + 0xa8] = a1\n  5979: a0 = 0xffffffffffffffff\n  5982: a1 = 0xffffffffffffffff\n  5985: a2 = u64 [s1 + 0x138]\n  5989: ra = 206, jump @2043\n      : @243 [@dyn 103] (gas: 3)\n  5996: t0 = u64 [s1 + 0xf8]\n  6000: a2 = u64 [s1 + 0xf0]\n  6004: jump @246 if a2 != 0\n      : @244 (gas: 28)\n  6007: a2 = u64 [s1 + 0xb0]\n  6011: a3 = u64 [s1 + 0xa0]\n  6015: a2 = a2 | a3\n  6018: t1 = u64 [s1 + 0x130]\n  6022: a3 = t1 <u 0x80\n  6026: a4 = u64 [s1 + 0xe0]\n  6030: a2 = a4 if a3 == 0\n  6033: a4 = u64 [s1 + 0xb8]\n  6037: a5 = u64 [s1 + 0xa8]\n  6041: a4 = a4 | a5\n  6044: a5 = u64 [s1 + 0xe8]\n  6048: a4 = a5 if a3 == 0\n  6051: a2 = t0 if t1 == 0\n  6054: a4 = 0 if t1 == 0\n  6056: a0 = 0 if a3 == 0\n  6058: a1 = 0 if a3 == 0\n  6060: a3 = u64 [s1 + 0xc0]\n  6064: a3 = a3 & a4\n  6067: a4 = u64 [s1 + 0xc8]\n  6071: a2 = a2 & a4\n  6074: a4 = u64 [s1 + 0xd0]\n  6078: a1 = a1 & a4\n  6081: a4 = u64 [s1 + 0xd8]\n  6085: a0 = a0 & a4\n  6088: a0 = a0 | a2\n  6091: a1 = a1 | a3\n  6094: a0 = a0 | a1\n  6097: jump @246 if a0 == 0\n      : @245 (gas: 9)\n  6100: a3 = s1 + 0x28b8\n  6104: t2 = u64 [s1 + 0x118]\n  6108: a0 = s1 + 0x100\n  6112: a5 = u64 [a0 + 0x10]\n  6115: t1 = u64 [s1 + 0x128]\n  6119: a4 = u64 [a0 + 0x8]\n  6122: ra = u64 [s1 + 0x120]\n  6126: a1 = u64 [a0]\n  6128: jump @252\n      : @246 (gas: 22)\n  6131: a4 = s1 + 0x28b8\n  6135: a0 = u64 [s1 + 0x128]\n  6139: a5 = a4 + 0x100\n  6143: u64 [a5 + 0x28] = a0\n  6146: a0 = u64 [s1 + 0x68]\n  6149: u64 [a5 + 0x48] = a0\n  6152: a0 = u64 [s1 + 0x120]\n  6156: u64 [a5 + 0x30] = a0\n  6159: a0 = u64 [s1 + 0x50]\n  6162: u64 [a5 + 0x50] = a0\n  6165: a0 = u64 [s1 + 0x98]\n  6169: u64 [a5 + 0x38] = a0\n  6172: a0 = u64 [s1 + 0x58]\n  6175: u64 [a5 + 0x58] = a0\n  6178: a0 = u64 [s1 + 0x90]\n  6182: u64 [a5 + 0x40] = a0\n  6185: a0 = s1 + 0x2a20\n  6189: a1 = s1 + 0x2a00\n  6193: a2 = s1 + 0x29e0\n  6197: a3 = u64 [s1 + 0x60]\n  6200: u64 [a5 + 0x60] = a3\n  6203: ra = 208, jump @1921\n      : @247 [@dyn 104] (gas: 14)\n  6210: a4 = s1 + 0x28b8\n  6214: a5 = a4 + 0x100\n  6218: a1 = u64 [a5 + 0x80]\n  6222: a2 = u64 [a5 + 0x78]\n  6225: a3 = u64 [a5 + 0x70]\n  6228: a0 = u64 [a5 + 0x68]\n  6231: a1 = a1 | a3\n  6234: a3 = a0 | a2\n  6237: a3 = a3 | a1\n  6240: a3 = a3 >> 0x20\n  6243: a1 = a1 | a2\n  6246: a1 = a1 << 0x20\n  6249: a1 = a1 | a3\n  6252: jump @249 if a1 == 0\n      : @248 (gas: 1)\n  6255: jump @1123\n      : @249 (gas: 11)\n  6258: a1 = u64 [s1 + 0x118]\n  6262: a3 = a4 + 0x100\n  6266: u64 [a3 + 0x8] = a1\n  6269: a1 = u64 [s1 + 0x110]\n  6273: u64 [a3 + 0x10] = a1\n  6276: a1 = u64 [s1 + 0x100]\n  6280: u64 [a3 + 0x18] = a1\n  6283: a1 = s1 + 0x29c0\n  6287: a2 = u64 [s1 + 0x108]\n  6291: u64 [a3 + 0x20] = a2\n  6294: ra = 210, jump @19\n      : @250 [@dyn 105] (gas: 15)\n  6300: a0 = s1 + 0x28b8\n  6304: a1 = u64 [s1 + 0x90]\n  6308: u64 [a0 + 0xe0] = a1\n  6312: a0 = s1 + 0x28b8\n  6316: a1 = u64 [s1 + 0x98]\n  6320: u64 [a0 + 0xd8] = a1\n  6324: a0 = s1 + 0x28b8\n  6328: a1 = u64 [s1 + 0x120]\n  6332: u64 [a0 + 0xd0] = a1\n  6336: a0 = s1 + 0x29a0\n  6340: a1 = s1 + 0x2980\n  6344: a2 = s1 + 0x28b8\n  6348: a3 = u64 [s1 + 0x128]\n  6352: u64 [a2 + 0xc8] = a3\n  6356: ra = 212, jump @1511\n      : @251 [@dyn 106] (gas: 13)\n  6363: a0 = s1 + 0x100\n  6367: a1 = u64 [a0]\n  6369: a4 = u64 [a0 + 0x8]\n  6372: a5 = u64 [a0 + 0x10]\n  6375: t2 = u64 [s1 + 0x118]\n  6379: a3 = s1 + 0x28b8\n  6383: a0 = u64 [a3 + 0x100]\n  6387: u64 [s1 + 0x90] = a0\n  6391: a0 = u64 [a3 + 0xf8]\n  6395: u64 [s1 + 0x98] = a0\n  6399: ra = u64 [a3 + 0xf0]\n  6403: t1 = u64 [a3 + 0xe8]\n  6407: fallthrough\n      : @252 (gas: 9)\n  6408: t2 = t2 + 0x1\n  6411: a0 = t2 <u 0x1\n  6414: a5 = a5 + a0\n  6417: a0 = t2 | a5\n  6420: a0 = a0 <u 0x1\n  6423: t0 = a1 + a0\n  6426: a1 = t0 <u a1\n  6429: a4 = a4 + a1\n  6432: jump @234\n      : @253 (gas: 11)\n  6435: u64 [a4 + 480] = 0\n  6439: u64 [a4 + 472] = 0\n  6443: u64 [a4 + 464] = 0\n  6447: u64 [a4 + 456] = 0\n  6451: a0 = s1 + 0x4000\n  6455: i32 a0 = a0 + 0x280\n  6459: ra = 0xd6\n  6463: ecalli 17 // 'value_transferred'\n  6465: a0 = 0x4000\n  6469: t0 = 0xd8\n  6473: jump @2014\n      : @254 [@dyn 107] (gas: 2)\n  6477: a0 = 0x4000\n  6481: t0 = 216, jump @2014\n      : @255 [@dyn 108] (gas: 1)\n  6488: t0 = 218, jump @2034\n      : @256 [@dyn 109] (gas: 1)\n  6495: jump @258 if a0 == 0\n      : @257 (gas: 1)\n  6498: jump @1189\n      : @258 (gas: 3)\n  6501: a0 = u64 [s1 + 0x138]\n  6505: a0 = i32 [a0]\n  6507: jump @260 if a0 >u 3\n      : @259 (gas: 1)\n  6511: jump @1190\n      : @260 (gas: 3)\n  6514: a0 = s1 + 0x2f80\n  6518: a1 = 0x40\n  6521: ra = 220, jump @17\n      : @261 [@dyn 110] (gas: 20)\n  6527: a2 = s1 + 0x28b8\n  6531: a1 = u64 [a2 + 0x6e0]\n  6535: u64 [s1 + 0x130] = a1\n  6539: a3 = u64 [a2 + 0x6d8]\n  6543: u64 [s1 + 0x128] = a3\n  6547: a4 = u64 [a2 + 0x6d0]\n  6551: u64 [s1 + 0x120] = a4\n  6555: a5 = u64 [a2 + 0x6c8]\n  6559: u64 [s1 + 0x118] = a5\n  6563: u64 [a2 + 1696] = 0\n  6567: u64 [a2 + 1688] = 0\n  6571: u64 [a2 + 1680] = 0\n  6575: u64 [a2 + 1672] = 0x200\n  6581: u64 [a2 + 0x6c0] = a1\n  6585: u64 [a2 + 0x6b8] = a3\n  6589: u64 [a2 + 0x6b0] = a4\n  6593: a0 = s1 + 0x2f60\n  6597: a1 = s1 + 0x2f40\n  6601: u64 [a2 + 0x6a8] = a5\n  6605: ra = 222, jump @1336\n      : @262 [@dyn 111] (gas: 1)\n  6611: t0 = 224, jump @2006\n      : @263 [@dyn 112] (gas: 1)\n  6618: jump @265 if a0 == 0\n      : @264 (gas: 1)\n  6621: jump @1123\n      : @265 (gas: 6)\n  6624: a0 = u64 [s1 + 0x138]\n  6628: a0 = i32 [a0]\n  6630: u64 [s1 + 0x138] = a0\n  6634: a1 = 0x200\n  6638: a0 = a2\n  6640: ra = 226, jump @32\n      : @266 [@dyn 113] (gas: 12)\n  6646: i32 a0 = a0 + 0\n  6648: a1 = 0x200\n  6652: a2 = u64 [s1 + 0x138]\n  6656: ecalli 3 // 'call_data_copy'\n  6658: a1 = s1 + 0x40b8\n  6662: u64 [a1 + 512] = 0\n  6666: u64 [a1 + 504] = 0\n  6670: u64 [a1 + 496] = 0\n  6674: u64 [a1 + 488] = 0x4\n  6679: a0 = s1 + 0x2f20\n  6683: a1 = s1 + 0x42a0\n  6687: ra = 228, jump @21\n      : @267 [@dyn 114] (gas: 13)\n  6693: a4 = s1 + 0x28b8\n  6697: a5 = a4 + 0x600\n  6701: a0 = u64 [a5 + 0x68]\n  6704: a1 = u64 [a5 + 0x70]\n  6707: a2 = u64 [a5 + 0x78]\n  6710: a3 = u64 [a5 + 0x80]\n  6714: u64 [a5 + 0x60] = a3\n  6717: u64 [a5 + 0x58] = a2\n  6720: u64 [a5 + 0x50] = a1\n  6723: a1 = s1 + 0x2f00\n  6727: u64 [a5 + 0x48] = a0\n  6730: a0 = 0\n  6732: ra = 230, jump @19\n      : @268 [@dyn 115] (gas: 3)\n  6738: t0 = 0xe8\n  6742: a1 = s1 + 0x28b8\n  6746: fallthrough\n      : @269 [@dyn 116] (gas: 8)\n  6747: u64 [a1 + 1600] = 0\n  6751: u64 [a1 + 1592] = 0\n  6755: u64 [a1 + 1576] = 0x3\n  6760: a2 = a1\n  6762: a0 = 0x20\n  6765: a1 = s1 + 0x2ee0\n  6769: u64 [a2 + 1584] = 0\n  6773: ra = 234, jump @19\n      : @270 [@dyn 117] (gas: 2)\n  6779: a1 = i32 [0x2025c]\n  6784: jump @272 if a1 >u 63\n      : @271 (gas: 3)\n  6788: a1 = 0x40\n  6791: u32 [0x2025c] = a1\n  6796: fallthrough\n      : @272 (gas: 3)\n  6797: a0 = 0xffffffff\n  6807: u64 [s1 + 0xc0] = a0\n  6811: t0 = 236, jump @1975\n      : @273 [@dyn 118] (gas: 8)\n  6818: a0 = 0x20270\n  6823: i32 a0 = a0 + 0\n  6825: i32 a2 = a2 + 0\n  6827: a1 = 0x40\n  6830: ra = 0xee\n  6834: ecalli 9 // 'hash_keccak_256'\n  6836: t0 = 0xf0\n  6840: jump @1981\n      : @274 [@dyn 119] (gas: 1)\n  6844: t0 = 240, jump @1981\n      : @275 [@dyn 120] (gas: 3)\n  6851: a0 = s1 + 0x2ec0\n  6855: a1 = 0x40\n  6858: ra = 242, jump @17\n      : @276 [@dyn 121] (gas: 34)\n  6864: a3 = u64 [s1 + 0x108]\n  6868: t1 = u64 [s1 + 0x110]\n  6872: a5 = u64 [s1 + 0x118]\n  6876: a0 = s1 + 0x28b8\n  6880: a2 = a0 + 0x600\n  6884: a1 = u64 [a2 + 0x20]\n  6887: u64 [s1 + 0xa0] = a1\n  6891: a1 = u64 [a2 + 0x18]\n  6894: u64 [s1 + 0xa8] = a1\n  6898: a1 = u64 [a2 + 0x10]\n  6901: u64 [s1 + 0xb0] = a1\n  6905: t2 = u64 [a0 + 0x608]\n  6909: a0 = sp + 0xffffffffffffffe0\n  6912: a1 = a0 & 0xffffffffffffffe0\n  6915: sp = a1\n  6917: ra = 0\n  6919: t0 = 0\n  6921: a2 = 0\n  6923: a4 = 0\n  6925: u64 [a1 + 0x18] = a3\n  6928: a0 = u64 [s1 + 0x100]\n  6932: u64 [a1 + 0x10] = a0\n  6935: u64 [a1 + 0x8] = t1\n  6938: u64 [a1] = a5\n  6940: u64 [s1 + 0x98] = t2\n  6944: u64 [s1 + 0x130] = t2\n  6948: a0 = u64 [s1 + 0xb0]\n  6952: u64 [s1 + 0x128] = a0\n  6956: a0 = u64 [s1 + 0xa8]\n  6960: u64 [s1 + 0x138] = a0\n  6964: a0 = u64 [s1 + 0xa0]\n  6968: u64 [s1 + 0x120] = a0\n  6972: u64 [s1 + 0xb8] = a1\n  6976: fallthrough\n      : @277 (gas: 6)\n  6977: a0 = ra <u 0x10\n  6980: a0 = 0 if t0 != 0\n  6982: u64 [s1 + 0xf8] = a2\n  6986: a2 = a2 | a4\n  6989: a0 = 0 if a2 != 0\n  6991: jump @279 if a0 != 0\n      : @278 (gas: 1)\n  6994: jump @998\n      : @279 (gas: 8)\n  6997: u64 [s1 + 0xe0] = a4\n  7001: u64 [s1 + 0xe8] = t0\n  7005: u64 [s1 + 0xf0] = ra\n  7009: a0 = s1 + 0x2de0\n  7013: u64 [s1 + 0x118] = a5\n  7017: u64 [s1 + 0x110] = t1\n  7021: u64 [s1 + 0x108] = a3\n  7025: ra = 244, jump @21\n      : @280 [@dyn 122] (gas: 13)\n  7031: a4 = s1 + 0x100\n  7035: a2 = u64 [a4 + 0x38]\n  7038: a5 = u64 [a4 + 0x30]\n  7041: a0 = a5 | a2\n  7044: a1 = u64 [a4 + 0x20]\n  7047: a3 = u64 [a4 + 0x28]\n  7050: a1 = a1 | a3\n  7053: a0 = a0 | a1\n  7056: a0 = a0 >> 0x20\n  7059: a1 = a1 | a2\n  7062: a1 = a1 << 0x20\n  7065: a0 = a0 | a1\n  7068: jump @282 if a0 == 0\n      : @281 (gas: 1)\n  7071: jump @1123\n      : @282 (gas: 20)\n  7074: a0 = s1 + 0x28b8\n  7078: u64 [s1 + 0x128] = a3\n  7082: a3 = a0\n  7084: a0 = u64 [a0 + 0x538]\n  7088: a1 = u64 [a3 + 0x530]\n  7092: u64 [s1 + 0x138] = a2\n  7096: a2 = u64 [a3 + 0x528]\n  7100: a4 = u64 [s1 + 0xc0]\n  7104: a0 = a0 & a4\n  7107: a1 = a1 & 0xffffffffffffffff\n  7110: a2 = a2 & 0xffffffffffffffff\n  7113: u64 [a3 + 1312] = 0\n  7117: a4 = a3 + 0x500\n  7121: u64 [a4 + 0x8] = a2\n  7124: u64 [a4 + 0x10] = a1\n  7127: a1 = s1 + 0x2dc0\n  7131: u64 [a4 + 0x18] = a0\n  7134: a0 = a5\n  7136: u64 [s1 + 0x130] = a5\n  7140: ra = 246, jump @19\n      : @283 [@dyn 123] (gas: 1)\n  7146: t0 = 248, jump @1962\n      : @284 [@dyn 124] (gas: 24)\n  7153: t0 = u64 [s1 + 0xe8]\n  7157: t0 = t0 + a4\n  7160: a4 = ra | t0\n  7163: a4 = a4 <u 0x1\n  7166: a5 = u64 [s1 + 0xf8]\n  7170: a2 = a5 + a4\n  7173: a5 = a2 <u a5\n  7176: a4 = u64 [s1 + 0xe0]\n  7180: a4 = a4 + a5\n  7183: a1 = u64 [s1 + 0xb8]\n  7187: u64 [a1 + 0x8] = t1\n  7190: u64 [a1] = t2\n  7192: u64 [a1 + 0x10] = a0\n  7195: u64 [a1 + 0x18] = a3\n  7198: a5 = s1 + 0x100\n  7202: u64 [a5] = a0\n  7204: a0 = u64 [s1 + 0xd8]\n  7208: u64 [a5 + 0x30] = a0\n  7211: a0 = u64 [s1 + 0xd0]\n  7215: u64 [a5 + 0x28] = a0\n  7218: a0 = u64 [s1 + 0xc8]\n  7222: u64 [a5 + 0x38] = a0\n  7225: a5 = t2\n  7227: jump @277\n      : @285 (gas: 10)\n  7230: u64 [a3 + 192] = 0\n  7234: u64 [a3 + 184] = 0\n  7238: u64 [a3 + 176] = 0\n  7242: u64 [a3 + 168] = 0\n  7246: a0 = s1 + 0x3000\n  7250: i32 a0 = a0 + 0x160\n  7254: ra = 0xfa\n  7258: ecalli 17 // 'value_transferred'\n  7260: a3 = s1 + 0x30b8\n  7264: jump @287\n      : @286 [@dyn 125] (gas: 2)\n  7266: a3 = s1 + 0x30b8\n  7270: fallthrough\n      : @287 (gas: 8)\n  7271: a0 = u64 [a3 + 0xb8]\n  7275: a1 = u64 [a3 + 0xc0]\n  7279: a2 = u64 [a3 + 0xb0]\n  7283: a3 = u64 [a3 + 0xa8]\n  7287: a1 = a1 | a2\n  7290: a0 = a0 | a3\n  7293: a0 = a0 | a1\n  7296: jump @289 if a0 == 0\n      : @288 (gas: 1)\n  7299: jump @1191\n      : @289 (gas: 1)\n  7302: t0 = 252, jump @1994\n      : @290 [@dyn 126] (gas: 1)\n  7309: jump @292 if a1 <u a0\n      : @291 (gas: 1)\n  7312: jump @1192\n      : @292 (gas: 7)\n  7315: a0 = s1 + 0x3000\n  7319: i32 a0 = a0 + 0x180\n  7323: a1 = 0x4\n  7326: ecalli 4 // 'call_data_load'\n  7328: t0 = 0xfe\n  7332: a3 = s1 + 0x30b8\n  7336: fallthrough\n      : @293 [@dyn 127] (gas: 11)\n  7337: a0 = u64 [a3 + 0xc8]\n  7341: a1 = u64 [a3 + 0xd0]\n  7345: a2 = u64 [a3 + 0xd8]\n  7349: a3 = u64 [a3 + 0xe0]\n  7353: u64 [s1 + 0x338] = a3\n  7357: u64 [s1 + 0x330] = a2\n  7361: u64 [s1 + 0x328] = a1\n  7365: a1 = s1 + 0x320\n  7369: u64 [s1 + 0x320] = a0\n  7373: a0 = 0\n  7375: ra = 256, jump @19\n      : @294 [@dyn 128] (gas: 7)\n  7381: u64 [s1 + 792] = 0\n  7385: u64 [s1 + 784] = 0\n  7389: u64 [s1 + 768] = 0x3\n  7394: a0 = 0x20\n  7397: a1 = s1 + 0x300\n  7401: u64 [s1 + 776] = 0\n  7405: ra = 258, jump @19\n      : @295 [@dyn 129] (gas: 2)\n  7411: a1 = i32 [0x2025c]\n  7416: jump @297 if a1 >u 63\n      : @296 (gas: 4)\n  7420: a1 = 0x40\n  7423: u32 [0x2025c] = a1\n  7428: t0 = 0x104\n  7432: jump @1975\n      : @297 (gas: 1)\n  7436: t0 = 260, jump @1975\n      : @298 [@dyn 130] (gas: 8)\n  7443: a0 = 0x20270\n  7448: i32 a0 = a0 + 0\n  7450: i32 a2 = a2 + 0\n  7452: a1 = 0x40\n  7455: ra = 0x106\n  7459: ecalli 9 // 'hash_keccak_256'\n  7461: t0 = 0x108\n  7465: jump @1982\n      : @299 [@dyn 131] (gas: 1)\n  7469: t0 = 264, jump @1982\n      : @300 [@dyn 132] (gas: 16)\n  7476: t0 = a0 + 0x11\n  7479: a1 = t0 <u a0\n  7482: a0 = a2 + a1\n  7485: a3 = a0 <u a2\n  7488: a3 = a1 if a1 == 0\n  7491: a3 = a3 + a5\n  7494: a1 = a3 <u a5\n  7497: a1 = a1 + a4\n  7500: a4 = s1 + 0x30b8\n  7504: u64 [a4 + 0xe8] = t0\n  7508: u64 [a4 + 0xf0] = a0\n  7512: u64 [a4 + 0xf8] = a3\n  7516: u64 [a4 + 0x100] = a1\n  7520: a0 = s1 + 0x2e0\n  7524: a1 = s1 + 0x31a0\n  7528: ra = 266, jump @21\n      : @301 [@dyn 133] (gas: 11)\n  7534: a0 = u64 [s1 + 0x2f8]\n  7538: u64 [s1 + 0x118] = a0\n  7542: a0 = u64 [s1 + 0x2f0]\n  7546: u64 [s1 + 0x110] = a0\n  7550: a0 = u64 [s1 + 0x2e8]\n  7554: u64 [s1 + 0x108] = a0\n  7558: a0 = u64 [s1 + 0x2e0]\n  7562: u64 [s1 + 0x100] = a0\n  7566: a1 = u64 [s1 + 0x128]\n  7570: a0 = a1 + 0x12\n  7573: t0 = 268, jump @1965\n      : @302 [@dyn 134] (gas: 7)\n  7580: u64 [a5 + 0x20] = a1\n  7583: u64 [a5 + 0x18] = a3\n  7586: u64 [a5 + 0x10] = a2\n  7589: u64 [a5 + 0x8] = a0\n  7592: a0 = s1 + 0x2c0\n  7596: a1 = s1 + 0x31c0\n  7600: ra = 270, jump @21\n      : @303 [@dyn 135] (gas: 11)\n  7606: a0 = u64 [s1 + 0x2d8]\n  7610: u64 [s1 + 0xf8] = a0\n  7614: a0 = u64 [s1 + 0x2d0]\n  7618: u64 [s1 + 0xf0] = a0\n  7622: a0 = u64 [s1 + 0x2c8]\n  7626: u64 [s1 + 0xe8] = a0\n  7630: a0 = u64 [s1 + 0x2c0]\n  7634: u64 [s1 + 0xe0] = a0\n  7638: a1 = u64 [s1 + 0x128]\n  7642: a0 = a1 + 0x13\n  7645: t0 = 272, jump @1965\n      : @304 [@dyn 136] (gas: 7)\n  7652: u64 [a5 + 0x40] = a1\n  7655: u64 [a5 + 0x38] = a3\n  7658: u64 [a5 + 0x30] = a2\n  7661: u64 [a5 + 0x28] = a0\n  7664: a0 = s1 + 0x2a0\n  7668: a1 = s1 + 0x31e0\n  7672: ra = 274, jump @21\n      : @305 [@dyn 137] (gas: 11)\n  7678: a0 = u64 [s1 + 0x2b8]\n  7682: u64 [s1 + 0xd8] = a0\n  7686: a0 = u64 [s1 + 0x2b0]\n  7690: u64 [s1 + 0xd0] = a0\n  7694: a0 = u64 [s1 + 0x2a8]\n  7698: u64 [s1 + 0xc8] = a0\n  7702: a0 = u64 [s1 + 0x2a0]\n  7706: u64 [s1 + 0xc0] = a0\n  7710: a1 = u64 [s1 + 0x128]\n  7714: a0 = a1 + 0x14\n  7717: t0 = 276, jump @1965\n      : @306 [@dyn 138] (gas: 7)\n  7724: u64 [a5 + 0x60] = a1\n  7727: u64 [a5 + 0x58] = a3\n  7730: u64 [a5 + 0x50] = a2\n  7733: u64 [a5 + 0x48] = a0\n  7736: a0 = s1 + 0x280\n  7740: a1 = s1 + 0x3200\n  7744: ra = 278, jump @21\n      : @307 [@dyn 139] (gas: 10)\n  7750: a0 = u64 [s1 + 0x298]\n  7754: u64 [s1 + 0xb8] = a0\n  7758: a0 = u64 [s1 + 0x290]\n  7762: u64 [s1 + 0xb0] = a0\n  7766: a5 = s1 + 0x100\n  7770: a1 = u64 [a5 + 0x28]\n  7773: a0 = a1 + 0x15\n  7776: a1 = a0 <u a1\n  7779: a3 = u64 [a5 + 0x20]\n  7782: t0 = 280, jump @1990\n      : @308 [@dyn 140] (gas: 18)\n  7789: a1 = u64 [s1 + 0x288]\n  7793: u64 [a5 + 0x28] = a1\n  7796: a1 = u64 [a5 + 0x30]\n  7799: a3 = a3 + a1\n  7802: a1 = a3 <u a1\n  7805: a4 = u64 [a5 + 0x38]\n  7808: a1 = a1 + a4\n  7811: a4 = u64 [s1 + 0x280]\n  7815: u64 [a5 + 0x20] = a4\n  7818: a4 = s1 + 0x30b8\n  7822: a5 = a4 + 0x100\n  7826: u64 [a5 + 0x80] = a1\n  7830: u64 [a5 + 0x78] = a3\n  7833: u64 [a5 + 0x70] = a2\n  7836: u64 [a5 + 0x68] = a0\n  7839: a0 = s1 + 0x260\n  7843: a1 = s1 + 0x3220\n  7847: ra = 282, jump @21\n      : @309 [@dyn 141] (gas: 9)\n  7853: a0 = u64 [s1 + 0x270]\n  7857: u64 [s1 + 0xa0] = a0\n  7861: a0 = u64 [s1 + 0x268]\n  7865: u64 [s1 + 0x98] = a0\n  7869: a0 = u64 [s1 + 0x260]\n  7873: u64 [s1 + 0xa8] = a0\n  7877: a0 = s1 + 0x240\n  7881: a1 = 0x40\n  7884: ra = 284, jump @17\n      : @310 [@dyn 142] (gas: 6)\n  7890: a1 = s1 + 0x200\n  7894: a4 = u64 [a1 + 0x58]\n  7897: a5 = u64 [a1 + 0x50]\n  7900: a3 = u64 [a1 + 0x48]\n  7903: a0 = u64 [a1 + 0x40]\n  7906: t0 = 286, jump @1987\n      : @311 [@dyn 143] (gas: 1)\n  7913: jump @313 if a1 == 0\n      : @312 (gas: 1)\n  7916: jump @1123\n      : @313 (gas: 14)\n  7919: a1 = u64 [s1 + 0x100]\n  7923: u64 [s1 + 0x220] = a1\n  7927: a1 = u64 [s1 + 0x108]\n  7931: u64 [s1 + 0x228] = a1\n  7935: a1 = u64 [s1 + 0x110]\n  7939: u64 [s1 + 0x230] = a1\n  7943: a1 = s1 + 0x220\n  7947: a2 = u64 [s1 + 0x118]\n  7951: u64 [s1 + 0x238] = a2\n  7955: u64 [s1 + 0x138] = a0\n  7959: u64 [s1 + 0x130] = a3\n  7963: u64 [s1 + 0x118] = a4\n  7967: u64 [s1 + 0x110] = a5\n  7971: ra = 288, jump @19\n      : @314 [@dyn 144] (gas: 12)\n  7977: a5 = s1 + 0x100\n  7981: a1 = u64 [a5 + 0x38]\n  7984: a0 = u64 [a5 + 0x18]\n  7987: a3 = u64 [a5 + 0x10]\n  7990: a3 = a3 | a0\n  7993: a4 = 0x100000000\n  8003: a0 = 0xffffffe0\n  8013: a0 = a1 <u a0\n  8016: a2 = u64 [a5 + 0x30]\n  8019: a0 = 0 if a2 != 0\n  8021: a0 = 0 if a3 != 0\n  8023: jump @316 if a0 != 0\n      : @315 (gas: 1)\n  8026: jump @1123\n      : @316 (gas: 14)\n  8029: i32 a0 = a1 + 0x20\n  8032: a1 = u64 [s1 + 0xe0]\n  8036: a5 = s1 + 0x200\n  8040: u64 [a5] = a1\n  8042: a1 = u64 [s1 + 0xe8]\n  8046: u64 [a5 + 0x8] = a1\n  8049: a1 = u64 [s1 + 0xf0]\n  8053: u64 [a5 + 0x10] = a1\n  8056: a1 = s1 + 0x200\n  8060: a2 = u64 [s1 + 0xf8]\n  8064: u64 [a5 + 0x18] = a2\n  8067: u64 [s1 + 0x118] = a3\n  8071: u64 [s1 + 0x110] = a4\n  8075: ra = 290, jump @19\n      : @317 [@dyn 145] (gas: 10)\n  8081: a3 = s1 + 0x100\n  8085: a1 = u64 [a3 + 0x38]\n  8088: a0 = u64 [a3 + 0x10]\n  8091: a0 = a0 + 0xffffffffffffffc0\n  8094: a0 = a1 <u a0\n  8097: a2 = u64 [a3 + 0x30]\n  8100: a0 = 0 if a2 != 0\n  8102: a2 = u64 [a3 + 0x18]\n  8105: a0 = 0 if a2 != 0\n  8107: jump @319 if a0 != 0\n      : @318 (gas: 1)\n  8110: jump @1123\n      : @319 (gas: 11)\n  8113: i32 a0 = a1 + 0x40\n  8116: a1 = u64 [s1 + 0xc0]\n  8120: u64 [s1 + 0x1e0] = a1\n  8124: a1 = u64 [s1 + 0xc8]\n  8128: u64 [s1 + 0x1e8] = a1\n  8132: a1 = u64 [s1 + 0xd0]\n  8136: u64 [s1 + 0x1f0] = a1\n  8140: a1 = s1 + 0x1e0\n  8144: a2 = u64 [s1 + 0xd8]\n  8148: u64 [s1 + 0x1f8] = a2\n  8152: ra = 292, jump @19\n      : @320 [@dyn 146] (gas: 10)\n  8158: a4 = s1 + 0x100\n  8162: a1 = u64 [a4 + 0x38]\n  8165: a3 = 0x100000000\n  8175: a0 = 0xffffffa0\n  8185: a0 = a1 <u a0\n  8188: a2 = u64 [a4 + 0x30]\n  8191: a0 = 0 if a2 != 0\n  8193: a2 = u64 [a4 + 0x18]\n  8196: a0 = 0 if a2 != 0\n  8198: jump @322 if a0 != 0\n      : @321 (gas: 1)\n  8201: jump @1123\n      : @322 (gas: 12)\n  8204: i32 a0 = a1 + 0x60\n  8207: a1 = u64 [s1 + 0x120]\n  8211: u64 [s1 + 0x1c0] = a1\n  8215: a1 = u64 [s1 + 0x128]\n  8219: u64 [s1 + 0x1c8] = a1\n  8223: a1 = u64 [s1 + 0xb0]\n  8227: u64 [s1 + 0x1d0] = a1\n  8231: a1 = s1 + 0x1c0\n  8235: a2 = u64 [s1 + 0xb8]\n  8239: u64 [s1 + 0x1d8] = a2\n  8243: u64 [s1 + 0x128] = a3\n  8247: ra = 294, jump @19\n      : @323 [@dyn 147] (gas: 10)\n  8253: a1 = s1 + 0x100\n  8257: a4 = u64 [a1 + 0x18]\n  8260: a3 = u64 [a1 + 0x30]\n  8263: a2 = u64 [a1 + 0x38]\n  8266: a0 = u64 [a1 + 0x28]\n  8269: a0 = a0 + 0xffffffffffffff80\n  8272: a0 = a2 <u a0\n  8275: a0 = 0 if a3 != 0\n  8277: a0 = 0 if a4 != 0\n  8279: jump @325 if a0 != 0\n      : @324 (gas: 1)\n  8282: jump @1123\n      : @325 (gas: 9)\n  8285: a0 = u8 [s1 + 0xa8]\n  8289: a1 = a0 >u 0\n  8291: i32 a0 = a2 + 0x80\n  8295: u64 [s1 + 440] = 0\n  8299: u64 [s1 + 432] = 0\n  8303: u64 [s1 + 0x1a0] = a1\n  8307: a1 = s1 + 0x1a0\n  8311: u64 [s1 + 424] = 0\n  8315: ra = 296, jump @19\n      : @326 [@dyn 148] (gas: 9)\n  8321: a2 = s1 + 0x100\n  8325: a4 = u64 [a2 + 0x38]\n  8328: a0 = 0xffffff60\n  8338: a0 = a4 <u a0\n  8341: a1 = u64 [a2 + 0x30]\n  8344: a0 = 0 if a1 != 0\n  8346: a1 = u64 [a2 + 0x18]\n  8349: a0 = 0 if a1 != 0\n  8351: jump @328 if a0 != 0\n      : @327 (gas: 1)\n  8354: jump @1123\n      : @328 (gas: 18)\n  8357: a5 = u64 [s1 + 0x98]\n  8361: a0 = a5 >> 0x8\n  8364: a3 = u64 [s1 + 0xa0]\n  8368: a1 = a3 << 0x38\n  8371: a2 = a0 | a1\n  8374: a0 = u64 [s1 + 0xa8]\n  8378: a0 = a0 >> 0x8\n  8381: a1 = a5 << 0x38\n  8384: a1 = a1 | a0\n  8387: a0 = a3 << 0x18\n  8390: a3 = a0 >> 0x20\n  8393: i32 a0 = a4 + 0xa0\n  8397: u64 [s1 + 408] = 0\n  8401: u64 [s1 + 0x180] = a1\n  8405: u64 [s1 + 0x190] = a3\n  8409: a1 = s1 + 0x180\n  8413: u64 [s1 + 0x188] = a2\n  8417: ra = 298, jump @19\n      : @329 [@dyn 149] (gas: 3)\n  8423: a1 = 0xc0\n  8427: a0 = u64 [s1 + 0x138]\n  8431: ra = 300, jump @32\n      : @330 [@dyn 150] (gas: 7)\n  8437: i32 a1 = a0 + 0\n  8439: a2 = 0xc0\n  8443: a0 = 0\n  8445: ra = 0x340\n  8449: ecalli 14 // 'seal_return'\n  8451: t0 = 0x342\n  8455: jump @1994\n      : @331 (gas: 10)\n  8459: u64 [a2 + 608] = 0\n  8463: u64 [a2 + 600] = 0\n  8467: u64 [a2 + 592] = 0\n  8471: u64 [a2 + 584] = 0\n  8475: a0 = s1 + 0x4000\n  8479: i32 a0 = a0 + 0xfffffffffffffb00\n  8483: ra = 0x12e\n  8487: ecalli 17 // 'value_transferred'\n  8489: t0 = 0x130\n  8493: jump @2036\n      : @332 [@dyn 151] (gas: 1)\n  8497: t0 = 304, jump @2036\n      : @333 [@dyn 152] (gas: 8)\n  8504: a0 = u64 [a5 + 0x58]\n  8507: a1 = u64 [a5 + 0x60]\n  8510: a2 = u64 [a5 + 0x50]\n  8513: a3 = u64 [a5 + 0x48]\n  8516: a1 = a1 | a2\n  8519: a0 = a0 | a3\n  8522: a0 = a0 | a1\n  8525: jump @335 if a0 == 0\n      : @334 (gas: 1)\n  8528: jump @1193\n      : @335 (gas: 3)\n  8531: a0 = u64 [s1 + 0x138]\n  8535: a0 = i32 [a0]\n  8537: jump @337 if a0 >u 3\n      : @336 (gas: 1)\n  8541: jump @1194\n      : @337 (gas: 7)\n  8544: u64 [a4 + 640] = 0\n  8548: u64 [a4 + 632] = 0\n  8552: u64 [a4 + 624] = 0\n  8556: u64 [a4 + 616] = 0x8\n  8561: a0 = s1 + 0x1a60\n  8565: a1 = s1 + 0x3b20\n  8569: ra = 306, jump @21\n      : @338 [@dyn 153] (gas: 12)\n  8575: a1 = s1 + 0x18b8\n  8579: a2 = a1 + 0x100\n  8583: a0 = u64 [a2 + 0xb8]\n  8587: a1 = s1 + 0x100\n  8591: u64 [a1 + 0x28] = a0\n  8594: a0 = u64 [a2 + 0xb0]\n  8598: u64 [a1 + 0x38] = a0\n  8601: a0 = u64 [a2 + 0xa8]\n  8605: u64 [a1 + 0x30] = a0\n  8608: a0 = s1 + 0x1a40\n  8612: a1 = 0x40\n  8615: ra = 308, jump @17\n      : @339 [@dyn 154] (gas: 7)\n  8621: a3 = s1 + 0x18b8\n  8625: a5 = a3 + 0x100\n  8629: a4 = u64 [a5 + 0xa0]\n  8633: a1 = u64 [a5 + 0x98]\n  8637: a2 = u64 [a5 + 0x90]\n  8641: a0 = u64 [a5 + 0x88]\n  8645: t0 = 310, jump @2000\n      : @340 [@dyn 155] (gas: 1)\n  8652: jump @342 if a1 == 0\n      : @341 (gas: 1)\n  8655: jump @1123\n      : @342 (gas: 15)\n  8658: a4 = s1 + 0x100\n  8662: a1 = u64 [a4 + 0x28]\n  8665: a1 = a1 << 0x20\n  8668: a2 = a1 >> 0x20\n  8671: u64 [a3 + 384] = 0\n  8675: a1 = u64 [a4 + 0x30]\n  8678: a5 = a3 + 0x100\n  8682: u64 [a5 + 0x68] = a1\n  8685: a1 = u64 [a4 + 0x38]\n  8688: u64 [a5 + 0x70] = a1\n  8691: a1 = s1 + 0x1a20\n  8695: u64 [a5 + 0x78] = a2\n  8698: u64 [s1 + 0x138] = a0\n  8702: ra = 0x33c\n  8706: jump @19\n      : @343 (gas: 9)\n  8709: u64 [a4 + 608] = 0\n  8713: u64 [a4 + 600] = 0\n  8717: u64 [a4 + 592] = 0\n  8721: u64 [a4 + 584] = 0\n  8725: a0 = s1 + 0x4000\n  8729: i32 a0 = a0 + 0x300\n  8733: ra = 0x138\n  8737: ecalli 17 // 'value_transferred'\n  8739: fallthrough\n      : @344 [@dyn 156] (gas: 10)\n  8740: a3 = s1 + 0x40b8\n  8744: a4 = a3 + 0x200\n  8748: a0 = u64 [a4 + 0x58]\n  8751: a1 = u64 [a4 + 0x60]\n  8754: a2 = u64 [a4 + 0x50]\n  8757: a3 = u64 [a4 + 0x48]\n  8760: a1 = a1 | a2\n  8763: a0 = a0 | a3\n  8766: a0 = a0 | a1\n  8769: jump @346 if a0 == 0\n      : @345 (gas: 1)\n  8772: jump @1195\n      : @346 (gas: 1)\n  8775: t0 = 314, jump @1994\n      : @347 [@dyn 157] (gas: 1)\n  8782: jump @349 if a1 <u a0\n      : @348 (gas: 1)\n  8785: jump @1196\n      : @349 (gas: 6)\n  8788: a0 = s1 + 0x4000\n  8792: i32 a0 = a0 + 0x320\n  8796: a1 = 0x4\n  8799: ra = 0x13c\n  8803: ecalli 4 // 'call_data_load'\n  8805: fallthrough\n      : @350 [@dyn 158] (gas: 4)\n  8806: a2 = s1 + 0x40b8\n  8810: a1 = u64 [a2 + 0x278]\n  8814: a3 = u64 [a2 + 0x280]\n  8818: t0 = 318, jump @1979\n      : @351 [@dyn 159] (gas: 1)\n  8825: jump @353 if a1 != 0\n      : @352 (gas: 1)\n  8828: jump @1197\n      : @353 (gas: 12)\n  8831: a1 = a2 + 0x200\n  8835: a0 = u64 [a1 + 0x70]\n  8838: u64 [s1 + 0x128] = a0\n  8842: a0 = u64 [a1 + 0x68]\n  8845: u64 [s1 + 0x120] = a0\n  8849: u64 [a2 + 672] = 0\n  8853: u64 [a2 + 664] = 0\n  8857: u64 [a2 + 656] = 0\n  8861: u64 [a1 + 136] = 0x7\n  8866: a0 = s1 + 0x30c0\n  8870: a1 = s1 + 0x4340\n  8874: ra = 320, jump @21\n      : @354 [@dyn 160] (gas: 17)\n  8880: a1 = s1 + 0x30b8\n  8884: a0 = u64 [a1 + 0x20]\n  8887: u64 [s1 + 0xf8] = a0\n  8891: a0 = u64 [a1 + 0x18]\n  8894: u64 [s1 + 0x118] = a0\n  8898: a0 = u64 [a1 + 0x10]\n  8901: u64 [s1 + 0x110] = a0\n  8905: a0 = u64 [a1 + 0x8]\n  8908: u64 [s1 + 0x108] = a0\n  8912: a0 = 0x30270\n  8917: u64 [s1 + 0x100] = a0\n  8921: i32 a0 = a0 + 0\n  8923: ra = 0x142\n  8927: ecalli 6 // 'caller'\n  8929: a2 = u64 [s1 + 0x100]\n  8933: t0 = 0x144\n  8937: jump @1961\n      : @355 [@dyn 161] (gas: 2)\n  8941: a2 = u64 [s1 + 0x100]\n  8945: t0 = 324, jump @1961\n      : @356 [@dyn 162] (gas: 20)\n  8952: a2 = u64 [s1 + 0x118]\n  8956: a2 = a2 << 0x20\n  8959: a2 = a2 >> 0x20\n  8962: a1 = a1 ^ a2\n  8965: a2 = u64 [s1 + 0x108]\n  8969: a0 = a0 ^ a2\n  8972: a0 = a0 | a1\n  8975: a1 = u64 [s1 + 0x110]\n  8979: a1 = a1 ^ a3\n  8982: a0 = a0 | a1\n  8985: a0 = a0 <u 0x1\n  8988: a1 = s1 + 0x30b8\n  8992: u64 [a1 + 0] = 0\n  8994: u64 [a1 + 4294967288] = 0\n  8997: u64 [a1 + 0xffffffffffffffe8] = a0\n  9000: a0 = s1 + 0x30a0\n  9004: u64 [a1 + 4294967280] = 0\n  9007: ra = 0x146\n  9011: t0 = 0x562\n  9015: jump @1953\n      : @357 [@dyn 163] (gas: 9)\n  9019: a1 = s1 + 0x100\n  9023: a5 = u64 [a1 + 0x20]\n  9026: a4 = u64 [a1 + 0x28]\n  9029: a2 = u64 [a1 + 0x38]\n  9032: a0 = a5 | a2\n  9035: a3 = u64 [a1 + 0x30]\n  9038: a1 = a4 | a3\n  9041: a0 = a0 | a1\n  9044: jump @359 if a0 == 0\n      : @358 (gas: 1)\n  9047: jump @1198\n      : @359 (gas: 3)\n  9050: a0 = s1 + 0x3080\n  9054: a1 = 0x40\n  9057: ra = 328, jump @17\n      : @360 [@dyn 164] (gas: 14)\n  9063: a2 = s1 + 0x28b8\n  9067: t0 = u64 [a2 + 0x7e0]\n  9071: a1 = a2 + 0x700\n  9075: a5 = u64 [a1 + 0xd8]\n  9079: a4 = u64 [a1 + 0xd0]\n  9083: a0 = u64 [a1 + 0xc8]\n  9087: a3 = a4 | t0\n  9090: a1 = a0 | a5\n  9093: a1 = a1 | a3\n  9096: a1 = a1 >> 0x20\n  9099: a3 = a3 | a5\n  9102: a3 = a3 << 0x20\n  9105: a1 = a1 | a3\n  9108: jump @362 if a1 == 0\n      : @361 (gas: 1)\n  9111: jump @1123\n      : @362 (gas: 11)\n  9114: u64 [a2 + 1976] = 0\n  9118: u64 [a2 + 1968] = 0\n  9122: u64 [a2 + 1960] = 0\n  9126: a3 = 0x8c379a000000000\n  9136: a1 = s1 + 0x3060\n  9140: u64 [a2 + 0x7c0] = a3\n  9144: u64 [s1 + 0x138] = a0\n  9148: u64 [s1 + 0x130] = a4\n  9152: u64 [s1 + 0x120] = t0\n  9156: u64 [s1 + 0x128] = a5\n  9160: ra = 330, jump @19\n      : @363 [@dyn 165] (gas: 6)\n  9166: a5 = s1 + 0x100\n  9170: a1 = u64 [a5 + 0x38]\n  9173: a0 = u64 [a5 + 0x28]\n  9176: a3 = u64 [a5 + 0x20]\n  9179: a3 = a3 | a0\n  9182: t0 = 332, jump @1957\n      : @364 [@dyn 166] (gas: 1)\n  9189: jump @366 if a0 != 0\n      : @365 (gas: 1)\n  9192: jump @1123\n      : @366 (gas: 10)\n  9195: i32 a0 = a1 + 0x4\n  9198: a2 = s1 + 0x28b8\n  9202: u64 [a2 + 1952] = 0\n  9206: u64 [a2 + 1944] = 0\n  9210: u64 [a2 + 1928] = 0x20\n  9215: a1 = s1 + 0x3040\n  9219: u64 [a2 + 1936] = 0\n  9223: u64 [s1 + 0x128] = a3\n  9227: u64 [s1 + 0x120] = a4\n  9231: ra = 334, jump @19\n      : @367 [@dyn 167] (gas: 1)\n  9237: t0 = 336, jump @1955\n      : @368 [@dyn 168] (gas: 1)\n  9244: jump @370 if a0 != 0\n      : @369 (gas: 1)\n  9247: jump @1123\n      : @370 (gas: 8)\n  9250: i32 a0 = a1 + 0x24\n  9253: a3 = s1 + 0x28b8\n  9257: u64 [a3 + 1920] = 0\n  9261: u64 [a3 + 1912] = 0\n  9265: u64 [a3 + 1896] = 0xf\n  9270: a1 = s1 + 0x3020\n  9274: u64 [a3 + 1904] = 0\n  9278: ra = 338, jump @19\n      : @371 [@dyn 169] (gas: 1)\n  9284: t0 = 340, jump @1956\n      : @372 [@dyn 170] (gas: 1)\n  9291: jump @374 if a0 != 0\n      : @373 (gas: 1)\n  9294: jump @1123\n      : @374 (gas: 11)\n  9297: i32 a0 = a3 + 0x44\n  9300: a1 = u64 [0x20038]\n  9305: a2 = u64 [0x20040]\n  9310: a4 = s1 + 0x28b8\n  9314: u64 [a4 + 0x760] = a1\n  9318: u64 [a4 + 1872] = 0\n  9322: u64 [a4 + 0x758] = a2\n  9326: a1 = s1 + 0x3000\n  9330: u64 [a4 + 1864] = 0\n  9334: ra = 0x404\n  9338: jump @19\n      : @375 (gas: 9)\n  9341: u64 [a3 + 672] = 0\n  9345: u64 [a3 + 664] = 0\n  9349: u64 [a3 + 656] = 0\n  9353: u64 [a3 + 648] = 0\n  9357: a0 = s1 + 0x3000\n  9361: i32 a0 = a0 + 0x340\n  9365: ra = 0x156\n  9369: ecalli 17 // 'value_transferred'\n  9371: fallthrough\n      : @376 [@dyn 171] (gas: 10)\n  9372: a3 = s1 + 0x30b8\n  9376: a4 = a3 + 0x200\n  9380: a0 = u64 [a4 + 0x98]\n  9384: a1 = u64 [a4 + 0xa0]\n  9388: a2 = u64 [a4 + 0x90]\n  9392: a3 = u64 [a4 + 0x88]\n  9396: a1 = a1 | a2\n  9399: a0 = a0 | a3\n  9402: a0 = a0 | a1\n  9405: jump @378 if a0 == 0\n      : @377 (gas: 1)\n  9408: jump @1200\n      : @378 (gas: 1)\n  9411: t0 = 344, jump @1994\n      : @379 [@dyn 172] (gas: 1)\n  9418: jump @381 if a1 <u a0\n      : @380 (gas: 1)\n  9421: jump @1201\n      : @381 (gas: 3)\n  9424: a0 = s1 + 0x5a0\n  9428: a1 = 0x40\n  9431: ra = 346, jump @17\n      : @382 [@dyn 173] (gas: 20)\n  9437: a5 = s1 + 0x500\n  9441: a1 = u64 [a5 + 0xb8]\n  9445: u64 [s1 + 0x130] = a1\n  9449: a2 = u64 [a5 + 0xb0]\n  9453: u64 [s1 + 0x128] = a2\n  9457: a3 = u64 [a5 + 0xa8]\n  9461: u64 [s1 + 0x120] = a3\n  9465: a4 = u64 [a5 + 0xa0]\n  9469: u64 [s1 + 0x118] = a4\n  9473: u64 [s1 + 1400] = 0\n  9477: u64 [s1 + 1392] = 0\n  9481: u64 [s1 + 1384] = 0\n  9485: u64 [a5 + 96] = 0x200\n  9490: u64 [a5 + 0x98] = a1\n  9494: u64 [a5 + 0x90] = a2\n  9498: u64 [a5 + 0x88] = a3\n  9502: a0 = s1 + 0x580\n  9506: a1 = s1 + 0x560\n  9510: u64 [a5 + 0x80] = a4\n  9514: ra = 348, jump @1336\n      : @383 [@dyn 174] (gas: 1)\n  9520: t0 = 350, jump @2006\n      : @384 [@dyn 175] (gas: 1)\n  9527: jump @386 if a0 == 0\n      : @385 (gas: 1)\n  9530: jump @1123\n      : @386 (gas: 6)\n  9533: a0 = u64 [s1 + 0x138]\n  9537: a0 = i32 [a0]\n  9539: u64 [s1 + 0x138] = a0\n  9543: a1 = 0x200\n  9547: a0 = a2\n  9549: ra = 352, jump @32\n      : @387 [@dyn 176] (gas: 21)\n  9555: i32 a0 = a0 + 0\n  9557: a1 = 0x200\n  9561: a2 = u64 [s1 + 0x138]\n  9565: ecalli 3 // 'call_data_copy'\n  9567: a0 = s1 + 0x3000\n  9571: i32 a0 = a0 + 0x360\n  9575: a1 = 0x4\n  9578: ecalli 4 // 'call_data_load'\n  9580: a3 = s1 + 0x30b8\n  9584: a4 = a3 + 0x200\n  9588: a0 = u64 [a4 + 0xa8]\n  9592: a1 = u64 [a4 + 0xb0]\n  9596: a2 = u64 [a4 + 0xb8]\n  9600: a3 = u64 [a4 + 0xc0]\n  9604: u64 [s1 + 0x558] = a3\n  9608: u64 [s1 + 0x550] = a2\n  9612: u64 [s1 + 0x548] = a1\n  9616: a1 = s1 + 0x540\n  9620: u64 [s1 + 0x540] = a0\n  9624: a0 = 0\n  9626: ra = 354, jump @19\n      : @388 [@dyn 177] (gas: 7)\n  9632: u64 [s1 + 1336] = 0\n  9636: u64 [s1 + 1328] = 0\n  9640: u64 [s1 + 1312] = 0x3\n  9645: a0 = 0x20\n  9648: a1 = s1 + 0x520\n  9652: u64 [s1 + 1320] = 0\n  9656: ra = 356, jump @19\n      : @389 [@dyn 178] (gas: 2)\n  9662: a1 = i32 [0x2025c]\n  9667: jump @391 if a1 >u 63\n      : @390 (gas: 3)\n  9671: a1 = 0x40\n  9674: u32 [0x2025c] = a1\n  9679: fallthrough\n      : @391 (gas: 3)\n  9680: a0 = 0xffffffff\n  9690: u64 [s1 + 0xc0] = a0\n  9694: t0 = 358, jump @1975\n      : @392 [@dyn 179] (gas: 8)\n  9701: a0 = 0x20270\n  9706: i32 a0 = a0 + 0\n  9708: i32 a2 = a2 + 0\n  9710: a1 = 0x40\n  9713: ra = 0x168\n  9717: ecalli 9 // 'hash_keccak_256'\n  9719: t0 = 0x16a\n  9723: jump @1981\n      : @393 [@dyn 180] (gas: 1)\n  9727: t0 = 362, jump @1981\n      : @394 [@dyn 181] (gas: 3)\n  9734: a0 = s1 + 0x500\n  9738: a1 = 0x40\n  9741: ra = 364, jump @17\n      : @395 [@dyn 182] (gas: 33)\n  9747: a3 = u64 [s1 + 0x108]\n  9751: t1 = u64 [s1 + 0x110]\n  9755: a5 = u64 [s1 + 0x118]\n  9759: a1 = s1 + 0x500\n  9763: a0 = u64 [a1 + 0x18]\n  9766: u64 [s1 + 0xa0] = a0\n  9770: a0 = u64 [a1 + 0x10]\n  9773: u64 [s1 + 0xa8] = a0\n  9777: a0 = u64 [a1 + 0x8]\n  9780: u64 [s1 + 0xb0] = a0\n  9784: t2 = u64 [s1 + 0x500]\n  9788: a0 = sp + 0xffffffffffffffe0\n  9791: a1 = a0 & 0xffffffffffffffe0\n  9794: sp = a1\n  9796: ra = 0\n  9798: t0 = 0\n  9800: a2 = 0\n  9802: a4 = 0\n  9804: u64 [a1 + 0x18] = a3\n  9807: a0 = u64 [s1 + 0x100]\n  9811: u64 [a1 + 0x10] = a0\n  9814: u64 [a1 + 0x8] = t1\n  9817: u64 [a1] = a5\n  9819: u64 [s1 + 0x98] = t2\n  9823: u64 [s1 + 0x130] = t2\n  9827: a0 = u64 [s1 + 0xb0]\n  9831: u64 [s1 + 0x128] = a0\n  9835: a0 = u64 [s1 + 0xa8]\n  9839: u64 [s1 + 0x138] = a0\n  9843: a0 = u64 [s1 + 0xa0]\n  9847: u64 [s1 + 0x120] = a0\n  9851: u64 [s1 + 0xb8] = a1\n  9855: fallthrough\n      : @396 (gas: 6)\n  9856: a0 = ra <u 0x10\n  9859: a0 = 0 if t0 != 0\n  9861: u64 [s1 + 0xf8] = a2\n  9865: a2 = a2 | a4\n  9868: a0 = 0 if a2 != 0\n  9870: jump @398 if a0 != 0\n      : @397 (gas: 1)\n  9873: jump @1005\n      : @398 (gas: 8)\n  9876: u64 [s1 + 0xe0] = a4\n  9880: u64 [s1 + 0xe8] = t0\n  9884: u64 [s1 + 0xf0] = ra\n  9888: a0 = s1 + 0x420\n  9892: u64 [s1 + 0x118] = a5\n  9896: u64 [s1 + 0x110] = t1\n  9900: u64 [s1 + 0x108] = a3\n  9904: ra = 366, jump @21\n      : @399 [@dyn 183] (gas: 13)\n  9910: a5 = s1 + 0x100\n  9914: a2 = u64 [a5 + 0x38]\n  9917: a0 = u64 [a5 + 0x30]\n  9920: a3 = a0 | a2\n  9923: a1 = u64 [a5 + 0x20]\n  9926: a4 = u64 [a5 + 0x28]\n  9929: a1 = a1 | a4\n  9932: a3 = a3 | a1\n  9935: a3 = a3 >> 0x20\n  9938: a1 = a1 | a2\n  9941: a1 = a1 << 0x20\n  9944: a1 = a1 | a3\n  9947: jump @401 if a1 == 0\n      : @400 (gas: 1)\n  9950: jump @1123\n      : @401 (gas: 17)\n  9953: u64 [s1 + 0x128] = a4\n  9957: a5 = s1 + 0x400\n  9961: a4 = u64 [a5 + 0x30]\n  9964: a1 = u64 [a5 + 0x28]\n  9967: u64 [s1 + 0x138] = a2\n  9971: a2 = u64 [a5 + 0x20]\n  9974: a3 = u64 [s1 + 0xc0]\n  9978: a4 = a4 & a3\n  9981: a1 = a1 & 0xffffffffffffffff\n  9984: a2 = a2 & 0xffffffffffffffff\n  9987: u64 [s1 + 1048] = 0\n  9991: u64 [a5] = a2\n  9993: u64 [a5 + 0x8] = a1\n  9996: a1 = s1 + 0x400\n 10000: u64 [a5 + 0x10] = a4\n 10003: u64 [s1 + 0x130] = a0\n 10007: ra = 368, jump @19\n      : @402 [@dyn 184] (gas: 1)\n 10013: t0 = 370, jump @1962\n      : @403 [@dyn 185] (gas: 24)\n 10020: t0 = u64 [s1 + 0xe8]\n 10024: t0 = t0 + a4\n 10027: a4 = ra | t0\n 10030: a4 = a4 <u 0x1\n 10033: a5 = u64 [s1 + 0xf8]\n 10037: a2 = a5 + a4\n 10040: a5 = a2 <u a5\n 10043: a4 = u64 [s1 + 0xe0]\n 10047: a4 = a4 + a5\n 10050: a1 = u64 [s1 + 0xb8]\n 10054: u64 [a1 + 0x8] = t1\n 10057: u64 [a1] = t2\n 10059: u64 [a1 + 0x10] = a0\n 10062: u64 [a1 + 0x18] = a3\n 10065: a5 = s1 + 0x100\n 10069: u64 [a5] = a0\n 10071: a0 = u64 [s1 + 0xd8]\n 10075: u64 [a5 + 0x30] = a0\n 10078: a0 = u64 [s1 + 0xd0]\n 10082: u64 [a5 + 0x28] = a0\n 10085: a0 = u64 [s1 + 0xc8]\n 10089: u64 [a5 + 0x38] = a0\n 10092: a5 = t2\n 10094: jump @396\n      : @404 (gas: 9)\n 10097: u64 [a2 + 736] = 0\n 10101: u64 [a2 + 728] = 0\n 10105: u64 [a2 + 720] = 0\n 10109: u64 [a2 + 712] = 0\n 10113: a0 = s1 + 0x4000\n 10117: i32 a0 = a0 + 0xfffffffffffffb80\n 10121: ra = 0x174\n 10125: ecalli 17 // 'value_transferred'\n 10127: fallthrough\n      : @405 [@dyn 186] (gas: 3)\n 10128: a3 = s1 + 0x38b8\n 10132: a4 = a3 + 0x200\n 10136: t0 = 374, jump @2034\n      : @406 [@dyn 187] (gas: 1)\n 10143: jump @408 if a0 == 0\n      : @407 (gas: 1)\n 10146: jump @1202\n      : @408 (gas: 1)\n 10149: t0 = 376, jump @1994\n      : @409 [@dyn 188] (gas: 1)\n 10156: jump @411 if a1 <u a0\n      : @410 (gas: 1)\n 10159: jump @1203\n      : @411 (gas: 6)\n 10162: a0 = s1 + 0x4000\n 10166: i32 a0 = a0 + 0xfffffffffffffba0\n 10170: a1 = 0x4\n 10173: ra = 0x17a\n 10177: ecalli 4 // 'call_data_load'\n 10179: fallthrough\n      : @412 [@dyn 189] (gas: 4)\n 10180: a2 = s1 + 0x38b8\n 10184: a1 = u64 [a2 + 0x2f8]\n 10188: a3 = u64 [a2 + 0x300]\n 10192: t0 = 380, jump @1979\n      : @413 [@dyn 190] (gas: 1)\n 10199: jump @415 if a1 != 0\n      : @414 (gas: 1)\n 10202: jump @1204\n      : @415 (gas: 11)\n 10205: a0 = u64 [a2 + 0x2f0]\n 10209: u64 [s1 + 0x120] = a0\n 10213: a0 = u64 [a2 + 0x2e8]\n 10217: u64 [s1 + 0x128] = a0\n 10221: u64 [a2 + 800] = 0\n 10225: u64 [a2 + 792] = 0\n 10229: u64 [a2 + 784] = 0\n 10233: u64 [a2 + 776] = 0x4\n 10238: a0 = s1 + 0x1bc0\n 10242: a1 = s1 + 0x3bc0\n 10246: ra = 382, jump @21\n      : @416 [@dyn 191] (gas: 14)\n 10252: a4 = s1 + 0x18b8\n 10256: a5 = a4 + 0x300\n 10260: a0 = u64 [a5 + 0x8]\n 10263: a1 = u64 [a5 + 0x10]\n 10266: a2 = u64 [a5 + 0x18]\n 10269: a3 = u64 [a5 + 0x20]\n 10272: u64 [a5] = a3\n 10274: a3 = a4 + 0x200\n 10278: u64 [a3 + 0xf8] = a2\n 10282: u64 [a3 + 0xf0] = a1\n 10286: a1 = s1 + 0x1ba0\n 10290: u64 [a3 + 0xe8] = a0\n 10294: a0 = 0\n 10296: ra = 384, jump @19\n      : @417 [@dyn 192] (gas: 3)\n 10302: t0 = 0x182\n 10306: a1 = s1 + 0x18b8\n 10310: fallthrough\n      : @418 [@dyn 193] (gas: 8)\n 10311: u64 [a1 + 736] = 0\n 10315: u64 [a1 + 728] = 0\n 10319: u64 [a1 + 712] = 0x3\n 10324: a2 = a1\n 10326: a0 = 0x20\n 10329: a1 = s1 + 0x1b80\n 10333: u64 [a2 + 720] = 0\n 10337: ra = 388, jump @19\n      : @419 [@dyn 194] (gas: 3)\n 10343: a1 = 0x2025c\n 10348: a0 = i32 [0x2025c]\n 10353: jump @421 if a0 >u 63\n      : @420 (gas: 2)\n 10357: u32 [0x2025c] = 0x40\n 10363: fallthrough\n      : @421 (gas: 13)\n 10364: a0 = sp + 0xffffffffffffffe0\n 10367: a2 = a0 & 0xffffffffffffffe0\n 10370: u64 [s1 + 0x108] = a2\n 10374: sp = a2\n 10376: a0 = 0x20270\n 10381: i32 a0 = a0 + 0\n 10383: i32 a2 = a2 + 0\n 10385: u64 [s1 + 0x118] = a1\n 10389: a1 = 0x40\n 10392: u64 [s1 + 0x110] = a0\n 10396: ra = 0x186\n 10400: ecalli 9 // 'hash_keccak_256'\n 10402: fallthrough\n      : @422 [@dyn 195] (gas: 6)\n 10403: a3 = u64 [s1 + 0x108]\n 10407: a0 = u64 [a3]\n 10409: a1 = u64 [a3 + 0x8]\n 10412: a2 = u64 [a3 + 0x10]\n 10415: a3 = u64 [a3 + 0x18]\n 10418: t0 = 392, jump @2012\n      : @423 [@dyn 196] (gas: 29)\n 10425: a4 = a3 + 0x10\n 10428: u64 [s1 + 0x100] = a4\n 10432: a3 = a4 <u a3\n 10435: a4 = a2 + a3\n 10438: u64 [s1 + 0xf8] = a4\n 10442: a2 = a4 <u a2\n 10445: a2 = a3 if a3 == 0\n 10448: a2 = a2 + a1\n 10451: u64 [s1 + 0xf0] = a2\n 10455: a1 = a2 <u a1\n 10458: a0 = a0 + a1\n 10461: u64 [s1 + 0xe8] = a0\n 10465: a0 = sp + 0xffffffffffffffe0\n 10468: a0 = a0 & 0xffffffffffffffe0\n 10471: u64 [s1 + 0x108] = a0\n 10475: sp = a0\n 10477: a2 = s1 + 0x18b8\n 10481: a0 = u64 [s1 + 0x130]\n 10485: a3 = a2 + 0x200\n 10489: u64 [a3 + 0xc0] = a0\n 10493: a0 = u64 [s1 + 0x138]\n 10497: u64 [a3 + 0xb8] = a0\n 10501: a0 = u64 [s1 + 0x120]\n 10505: u64 [a3 + 0xb0] = a0\n 10509: a1 = s1 + 0x1b60\n 10513: a0 = u64 [s1 + 0x128]\n 10517: u64 [a3 + 0xa8] = a0\n 10521: a0 = 0\n 10523: ra = 394, jump @19\n      : @424 [@dyn 197] (gas: 3)\n 10529: t0 = 0x18c\n 10533: a1 = s1 + 0x18b8\n 10537: fallthrough\n      : @425 [@dyn 198] (gas: 13)\n 10538: a0 = u64 [s1 + 0xe8]\n 10542: a2 = a1 + 0x200\n 10546: u64 [a2 + 0xa0] = a0\n 10550: a0 = u64 [s1 + 0xf0]\n 10554: u64 [a2 + 0x98] = a0\n 10558: a0 = u64 [s1 + 0xf8]\n 10562: u64 [a2 + 0x90] = a0\n 10566: a3 = a1\n 10568: a0 = 0x20\n 10571: a1 = s1 + 0x1b40\n 10575: a2 = u64 [s1 + 0x100]\n 10579: u64 [a3 + 0x288] = a2\n 10583: ra = 398, jump @19\n      : @426 [@dyn 199] (gas: 3)\n 10589: a1 = u64 [s1 + 0x118]\n 10593: a0 = i32 [a1]\n 10595: jump @428 if a0 >u 63\n      : @427 (gas: 2)\n 10599: u32 [a1 + 0] = 0x40\n 10602: fallthrough\n      : @428 (gas: 12)\n 10603: a0 = sp + 0xffffffffffffffe0\n 10606: a0 = a0 & 0xffffffffffffffe0\n 10609: u64 [s1 + 0x138] = a0\n 10613: sp = a0\n 10615: i32 a2 = a0 + 0\n 10617: a1 = 0x40\n 10620: a0 = u64 [s1 + 0x110]\n 10624: ra = 0x190\n 10628: ecalli 9 // 'hash_keccak_256'\n 10630: a3 = u64 [s1 + 0x138]\n 10634: t0 = 0x192\n 10638: jump @1974\n      : @429 [@dyn 200] (gas: 2)\n 10642: a3 = u64 [s1 + 0x138]\n 10646: t0 = 402, jump @1974\n      : @430 [@dyn 201] (gas: 7)\n 10653: a1 = u64 [s1 + 0x108]\n 10657: u64 [a1 + 0x18] = a3\n 10660: u64 [a1 + 0x10] = a2\n 10663: u64 [a1 + 0x8] = a4\n 10666: u64 [a1] = a0\n 10668: a0 = s1 + 0x1b20\n 10672: ra = 404, jump @21\n      : @431 [@dyn 202] (gas: 3)\n 10678: t0 = 0x196\n 10682: a1 = s1 + 0x18b8\n 10686: fallthrough\n      : @432 [@dyn 203] (gas: 13)\n 10687: a2 = a1 + 0x200\n 10691: a0 = u64 [a2 + 0x80]\n 10695: a1 = s1 + 0x100\n 10699: u64 [a1 + 0x38] = a0\n 10702: a0 = u64 [a2 + 0x78]\n 10705: u64 [a1 + 0x30] = a0\n 10708: a0 = u64 [a2 + 0x70]\n 10711: u64 [a1 + 0x28] = a0\n 10714: a0 = u64 [a2 + 0x68]\n 10717: u64 [a1 + 0x20] = a0\n 10720: a0 = s1 + 0x1b00\n 10724: a1 = 0x40\n 10727: ra = 408, jump @17\n      : @433 [@dyn 204] (gas: 7)\n 10733: a3 = s1 + 0x18b8\n 10737: a5 = a3 + 0x200\n 10741: a0 = u64 [a5 + 0x60]\n 10744: a1 = u64 [a5 + 0x58]\n 10747: a2 = u64 [a5 + 0x50]\n 10750: a4 = u64 [a5 + 0x48]\n 10753: t0 = 410, jump @1986\n      : @434 [@dyn 205] (gas: 1)\n 10760: jump @436 if a0 == 0\n      : @435 (gas: 1)\n 10763: jump @1123\n      : @436 (gas: 15)\n 10766: a2 = s1 + 0x100\n 10770: a0 = u64 [a2 + 0x20]\n 10773: a5 = a3 + 0x200\n 10777: u64 [a5 + 0x28] = a0\n 10780: a0 = u64 [a2 + 0x28]\n 10783: u64 [a5 + 0x30] = a0\n 10786: a0 = u64 [a2 + 0x30]\n 10789: u64 [a5 + 0x38] = a0\n 10792: a1 = s1 + 0x1ae0\n 10796: a0 = u64 [a2 + 0x38]\n 10799: u64 [a5 + 0x40] = a0\n 10802: a0 = a4\n 10804: u64 [s1 + 0x138] = a4\n 10808: ra = 0x33c\n 10812: jump @19\n      : @437 (gas: 11)\n 10815: u64 [a4 + 384] = 0\n 10819: u64 [a4 + 376] = 0\n 10823: u64 [a4 + 368] = 0\n 10827: u64 [a4 + 360] = 0\n 10831: a0 = s1 + 0x4000\n 10835: i32 a0 = a0 + 0x220\n 10839: ra = 0x19c\n 10843: ecalli 17 // 'value_transferred'\n 10845: a0 = 0x4000\n 10849: t0 = 0x19e\n 10853: jump @2014\n      : @438 [@dyn 206] (gas: 2)\n 10857: a0 = 0x4000\n 10861: t0 = 414, jump @2014\n      : @439 [@dyn 207] (gas: 8)\n 10868: a0 = u64 [a4 + 0x78]\n 10871: a1 = u64 [a4 + 0x80]\n 10875: a2 = u64 [a4 + 0x70]\n 10878: a3 = u64 [a4 + 0x68]\n 10881: a1 = a1 | a2\n 10884: a0 = a0 | a3\n 10887: a0 = a0 | a1\n 10890: jump @441 if a0 == 0\n      : @440 (gas: 1)\n 10893: jump @1205\n      : @441 (gas: 1)\n 10896: t0 = 416, jump @1994\n      : @442 [@dyn 208] (gas: 1)\n 10903: jump @444 if a1 <u a0\n      : @443 (gas: 1)\n 10906: jump @1206\n      : @444 (gas: 6)\n 10909: a0 = s1 + 0x4000\n 10913: i32 a0 = a0 + 0x240\n 10917: a1 = 0x4\n 10920: ra = 0x1a2\n 10924: ecalli 4 // 'call_data_load'\n 10926: fallthrough\n      : @445 [@dyn 209] (gas: 4)\n 10927: a4 = s1 + 0x40b8\n 10931: a1 = u64 [a4 + 0x198]\n 10935: a0 = u64 [a4 + 0x1a0]\n 10939: t0 = 420, jump @2016\n      : @446 [@dyn 210] (gas: 1)\n 10946: jump @448 if a3 != 0\n      : @447 (gas: 1)\n 10949: jump @1207\n      : @448 (gas: 11)\n 10952: a2 = u64 [a4 + 0x190]\n 10956: a3 = u64 [a4 + 0x188]\n 10960: a4 = s1 + 0x28b8\n 10964: a5 = a4 + 0x400\n 10968: u64 [a5 + 0xe8] = a3\n 10972: u64 [a5 + 0xf0] = a2\n 10976: u64 [a5 + 0xf8] = a1\n 10980: a1 = s1 + 0x2da0\n 10984: u64 [a4 + 0x500] = a0\n 10988: a0 = 0\n 10990: ra = 422, jump @19\n      : @449 [@dyn 211] (gas: 3)\n 10996: t0 = 0x1a8\n 11000: a1 = s1 + 0x28b8\n 11004: fallthrough\n      : @450 [@dyn 212] (gas: 8)\n 11005: u64 [a1 + 1248] = 0\n 11009: u64 [a1 + 1240] = 0\n 11013: u64 [a1 + 1224] = 0x6\n 11018: a2 = a1\n 11020: a0 = 0x20\n 11023: a1 = s1 + 0x2d80\n 11027: u64 [a2 + 1232] = 0\n 11031: ra = 426, jump @19\n      : @451 [@dyn 213] (gas: 2)\n 11037: a1 = i32 [0x2025c]\n 11042: jump @453 if a1 >u 63\n      : @452 (gas: 4)\n 11046: a1 = 0x40\n 11049: u32 [0x2025c] = a1\n 11054: t0 = 0x1ac\n 11058: jump @1975\n      : @453 (gas: 1)\n 11062: t0 = 428, jump @1975\n      : @454 [@dyn 214] (gas: 8)\n 11069: a0 = 0x20270\n 11074: i32 a0 = a0 + 0\n 11076: i32 a2 = a2 + 0\n 11078: a1 = 0x40\n 11081: ra = 0x1ae\n 11085: ecalli 9 // 'hash_keccak_256'\n 11087: t0 = 0x1b0\n 11091: jump @2002\n      : @455 [@dyn 215] (gas: 1)\n 11095: t0 = 432, jump @2002\n      : @456 [@dyn 216] (gas: 10)\n 11102: i32 a4 = a4 + 0xb8\n 11106: a4 = a4 + s1\n 11109: a5 = a4 + 0x100\n 11113: u64 [a5 + 0xc0] = a3\n 11117: u64 [a5 + 0xb8] = a2\n 11121: u64 [a5 + 0xb0] = a1\n 11125: u64 [a5 + 0xa8] = a0\n 11129: a0 = s1 + 0x2d60\n 11133: a1 = s1 + 0x4260\n 11137: ra = 434, jump @21\n      : @457 [@dyn 217] (gas: 2)\n 11143: a0 = 0x3000\n 11147: t0 = 436, jump @1997\n      : @458 [@dyn 218] (gas: 3)\n 11154: a0 = s1 + 0x2d40\n 11158: a1 = 0x40\n 11161: ra = 438, jump @17\n      : @459 [@dyn 219] (gas: 7)\n 11167: a3 = s1 + 0x28b8\n 11171: a5 = a3 + 0x400\n 11175: a0 = u64 [a5 + 0xa0]\n 11179: a1 = u64 [a5 + 0x98]\n 11183: a2 = u64 [a5 + 0x90]\n 11187: a4 = u64 [a5 + 0x88]\n 11191: t0 = 440, jump @1986\n      : @460 [@dyn 220] (gas: 1)\n 11198: jump @462 if a0 == 0\n      : @461 (gas: 1)\n 11201: jump @1123\n      : @462 (gas: 1)\n 11204: t0 = 442, jump @2030\n      : @463 [@dyn 221] (gas: 2)\n 11211: a0 = 0x3000\n 11215: jump @836\n      : @464 (gas: 10)\n 11218: u64 [a2 + 672] = 0\n 11222: u64 [a2 + 664] = 0\n 11226: u64 [a2 + 656] = 0\n 11230: u64 [a2 + 648] = 0\n 11234: a0 = s1 + 0x4000\n 11238: i32 a0 = a0 + 0xfffffffffffffb40\n 11242: ra = 0x1bc\n 11246: ecalli 17 // 'value_transferred'\n 11248: t0 = 0x1be\n 11252: jump @2036\n      : @465 [@dyn 222] (gas: 1)\n 11256: t0 = 446, jump @2036\n      : @466 [@dyn 223] (gas: 8)\n 11263: a0 = u64 [a5 + 0x98]\n 11267: a1 = u64 [a5 + 0xa0]\n 11271: a2 = u64 [a5 + 0x90]\n 11275: a3 = u64 [a5 + 0x88]\n 11279: a1 = a1 | a2\n 11282: a0 = a0 | a3\n 11285: a0 = a0 | a1\n 11288: jump @468 if a0 == 0\n      : @467 (gas: 1)\n 11291: jump @1208\n      : @468 (gas: 3)\n 11294: a0 = u64 [s1 + 0x138]\n 11298: a0 = i32 [a0]\n 11300: jump @470 if a0 >u 3\n      : @469 (gas: 1)\n 11304: jump @1209\n      : @470 (gas: 7)\n 11307: u64 [a4 + 704] = 0\n 11311: u64 [a4 + 696] = 0\n 11315: u64 [a4 + 688] = 0\n 11319: u64 [a4 + 680] = 0x8\n 11324: a0 = s1 + 0x1ac0\n 11328: a1 = s1 + 0x3b60\n 11332: ra = 448, jump @21\n      : @471 [@dyn 224] (gas: 6)\n 11338: a0 = s1 + 0x18b8\n 11342: a0 = u64 [a0 + 0x218]\n 11346: u64 [s1 + 0x138] = a0\n 11350: a0 = s1 + 0x1aa0\n 11354: a1 = 0x40\n 11357: ra = 450, jump @17\n      : @472 [@dyn 225] (gas: 7)\n 11363: a3 = s1 + 0x18b8\n 11367: a4 = u64 [a3 + 0x200]\n 11371: a5 = a3 + 0x100\n 11375: a1 = u64 [a5 + 0xf8]\n 11379: a2 = u64 [a5 + 0xf0]\n 11383: a0 = u64 [a5 + 0xe8]\n 11387: t0 = 452, jump @2000\n      : @473 [@dyn 226] (gas: 1)\n 11394: jump @475 if a1 == 0\n      : @474 (gas: 1)\n 11397: jump @1123\n      : @475 (gas: 12)\n 11400: a1 = 0xff00000000\n 11410: a2 = u64 [s1 + 0x138]\n 11414: a1 = a1 & a2\n 11417: a1 = a1 >u 0\n 11419: u64 [a3 + 480] = 0\n 11423: u64 [a3 + 472] = 0\n 11427: u64 [a3 + 0x1c8] = a1\n 11431: a1 = s1 + 0x1a80\n 11435: u64 [a3 + 464] = 0\n 11439: u64 [s1 + 0x138] = a0\n 11443: ra = 0x33c\n 11447: jump @19\n      : @476 (gas: 8)\n 11450: u64 [a3 + 1696] = 0\n 11454: u64 [a3 + 1688] = 0\n 11458: u64 [a3 + 1680] = 0\n 11462: u64 [a3 + 1672] = 0\n 11466: a0 = s1 + 0x3000\n 11470: i32 a0 = a0 + 0x740\n 11474: ecalli 17 // 'value_transferred'\n 11476: fallthrough\n      : @477 (gas: 10)\n 11477: a4 = s1 + 0x30b8\n 11481: a5 = a4 + 0x600\n 11485: a0 = u64 [a5 + 0x98]\n 11489: a1 = u64 [a5 + 0xa0]\n 11493: a2 = u64 [a5 + 0x90]\n 11497: a3 = u64 [a5 + 0x88]\n 11501: a1 = a1 | a2\n 11504: a0 = a0 | a3\n 11507: a0 = a0 | a1\n 11510: jump @479 if a0 == 0\n      : @478 (gas: 1)\n 11513: jump @1210\n      : @479 (gas: 3)\n 11516: a0 = u64 [s1 + 0x138]\n 11520: a0 = i32 [a0]\n 11522: jump @481 if a0 >u 3\n      : @480 (gas: 1)\n 11526: jump @1211\n      : @481 (gas: 7)\n 11529: u64 [a4 + 1728] = 0\n 11533: u64 [a4 + 1720] = 0\n 11537: u64 [a4 + 1712] = 0\n 11541: u64 [a4 + 1704] = 0x7\n 11546: a0 = s1 + 0x1840\n 11550: a1 = s1 + 0x3760\n 11554: ra = 454, jump @21\n      : @482 [@dyn 227] (gas: 2)\n 11560: a0 = 0x1000\n 11564: t0 = 456, jump @2003\n      : @483 [@dyn 228] (gas: 8)\n 11571: a0 = 0x30270\n 11576: u64 [s1 + 0xb8] = a0\n 11580: i32 a0 = a0 + 0\n 11582: ra = 0x1ca\n 11586: ecalli 6 // 'caller'\n 11588: a2 = u64 [s1 + 0xb8]\n 11592: t0 = 0x1cc\n 11596: jump @1961\n      : @484 [@dyn 229] (gas: 2)\n 11600: a2 = u64 [s1 + 0xb8]\n 11604: t0 = 460, jump @1961\n      : @485 [@dyn 230] (gas: 19)\n 11611: a4 = s1 + 0x100\n 11615: a2 = u64 [a4 + 0x28]\n 11618: a1 = a1 ^ a2\n 11621: a2 = u64 [a4 + 0x30]\n 11624: a0 = a0 ^ a2\n 11627: a0 = a0 | a1\n 11630: a1 = u64 [a4 + 0x38]\n 11633: a1 = a1 ^ a3\n 11636: a0 = a0 | a1\n 11639: a0 = a0 <u 0x1\n 11642: a1 = s1 + 0x10b8\n 11646: u64 [a1 + 1920] = 0\n 11650: u64 [a1 + 1912] = 0\n 11654: u64 [a1 + 0x768] = a0\n 11658: a0 = s1 + 0x1820\n 11662: u64 [a1 + 1904] = 0\n 11666: ra = 0x1ce\n 11670: t0 = 0x562\n 11674: jump @1953\n      : @486 [@dyn 231] (gas: 8)\n 11678: a0 = s1 + 0x30b8\n 11682: u64 [a0 + 1760] = 0\n 11686: u64 [a0 + 1752] = 0\n 11690: u64 [a0 + 1744] = 0\n 11694: u64 [a0 + 1736] = 0x9\n 11699: a0 = s1 + 0x1800\n 11703: a1 = s1 + 0x3780\n 11707: ra = 464, jump @21\n      : @487 [@dyn 232] (gas: 7)\n 11713: a4 = s1 + 0x10b8\n 11717: a5 = a4 + 0x700\n 11721: a0 = u64 [a5 + 0x60]\n 11724: a1 = u64 [a5 + 0x50]\n 11727: a2 = u64 [a5 + 0x48]\n 11730: a3 = u64 [a5 + 0x58]\n 11733: t0 = 466, jump @2011\n      : @488 [@dyn 233] (gas: 8)\n 11740: u64 [a4 + 1856] = 0\n 11744: u64 [a4 + 1848] = 0\n 11748: u64 [a5 + 0x28] = a0\n 11751: a0 = s1 + 0x17e0\n 11755: u64 [a4 + 1840] = 0\n 11759: ra = 0x1d4\n 11763: t0 = 0x5b0\n 11767: jump @1953\n      : @489 [@dyn 234] (gas: 12)\n 11771: a1 = s1 + 0x30b8\n 11775: u64 [a1 + 1792] = 0\n 11779: u64 [a1 + 1784] = 0\n 11783: u64 [a1 + 1776] = 0\n 11787: u64 [a1 + 1768] = 0x9\n 11792: u64 [a1 + 1824] = 0\n 11796: u64 [a1 + 1816] = 0\n 11800: u64 [a1 + 1808] = 0\n 11804: u64 [a1 + 1800] = 0x2\n 11809: a0 = s1 + 0x37a0\n 11813: a1 = s1 + 0x37c0\n 11817: ra = 470, jump @25\n      : @490 [@dyn 235] (gas: 9)\n 11823: a0 = s1 + 0x30b8\n 11827: u64 [a0 + 1856] = 0\n 11831: u64 [a0 + 1848] = 0\n 11835: u64 [a0 + 1840] = 0\n 11839: a1 = a0\n 11841: u64 [a1 + 1832] = 0x4\n 11846: a0 = s1 + 0x17c0\n 11850: a1 = s1 + 0x37e0\n 11854: ra = 472, jump @21\n      : @491 [@dyn 236] (gas: 18)\n 11860: a4 = s1 + 0x10b8\n 11864: a5 = a4 + 0x700\n 11868: a0 = u64 [a5 + 0x20]\n 11871: a1 = u64 [a5 + 0x18]\n 11874: a2 = u64 [a5 + 0x10]\n 11877: a3 = u64 [a5 + 0x8]\n 11880: u64 [s1 + 0xf0] = a0\n 11884: u64 [a5] = a0\n 11886: u64 [s1 + 0xe8] = a1\n 11890: a5 = a4 + 0x600\n 11894: u64 [a5 + 0xf8] = a1\n 11898: u64 [s1 + 0xe0] = a2\n 11902: u64 [a5 + 0xf0] = a2\n 11906: a1 = s1 + 0x17a0\n 11910: u64 [s1 + 0xd8] = a3\n 11914: u64 [a5 + 0xe8] = a3\n 11918: a0 = 0\n 11920: ra = 474, jump @19\n      : @492 [@dyn 237] (gas: 2)\n 11926: a1 = s1 + 0x10b8\n 11930: t0 = 476, jump @2027\n      : @493 [@dyn 238] (gas: 3)\n 11937: a1 = s1 + 0x1780\n 11941: u64 [a2 + 1744] = 0\n 11945: ra = 478, jump @19\n      : @494 [@dyn 239] (gas: 4)\n 11951: a2 = 0x2025c\n 11956: a0 = i32 [0x2025c]\n 11961: a1 = 0x3f\n 11964: jump @496 if a1 <u a0\n      : @495 (gas: 4)\n 11967: u32 [0x2025c] = 0x40\n 11973: u64 [s1 + 0xd0] = a2\n 11977: t0 = 0x1e0\n 11981: jump @1975\n      : @496 (gas: 2)\n 11985: u64 [s1 + 0xd0] = a2\n 11989: t0 = 480, jump @1975\n      : @497 [@dyn 240] (gas: 37)\n 11996: a0 = 0x20270\n 12001: u64 [s1 + 0xa8] = a0\n 12005: i32 a0 = a0 + 0\n 12007: i32 a2 = a2 + 0\n 12009: a1 = 0x40\n 12012: u64 [s1 + 0xa0] = a0\n 12016: ecalli 9 // 'hash_keccak_256'\n 12018: a3 = u64 [s1 + 0x138]\n 12022: a0 = u64 [a3]\n 12024: a1 = u64 [a3 + 0x8]\n 12027: a2 = u64 [a3 + 0x10]\n 12030: a3 = u64 [a3 + 0x18]\n 12033: a4 = reverse a0\n 12035: u64 [s1 + 0x138] = a4\n 12039: a5 = reverse a1\n 12041: u64 [s1 + 0x130] = a5\n 12045: a2 = reverse a2\n 12047: u64 [s1 + 0x128] = a2\n 12051: a0 = reverse a3\n 12053: u64 [s1 + 0x120] = a0\n 12057: t0 = a0 + 0x11\n 12060: a1 = t0 <u a0\n 12063: a0 = a2 + a1\n 12066: a3 = a0 <u a2\n 12069: a3 = a1 if a1 == 0\n 12072: a3 = a3 + a5\n 12075: a1 = a3 <u a5\n 12078: a1 = a1 + a4\n 12081: a4 = s1 + 0x30b8\n 12085: u64 [a4 + 0x748] = t0\n 12089: a2 = a4 + 0x700\n 12093: u64 [a2 + 0x50] = a0\n 12096: u64 [a2 + 0x58] = a3\n 12099: u64 [a2 + 0x60] = a1\n 12102: a0 = s1 + 0x1760\n 12106: a1 = s1 + 0x3800\n 12110: ra = 482, jump @21\n      : @498 [@dyn 241] (gas: 19)\n 12116: a4 = s1 + 0x10b8\n 12120: a5 = a4 + 0x600\n 12124: a0 = u64 [a5 + 0xc0]\n 12128: a1 = u64 [a5 + 0xb0]\n 12132: a2 = u64 [a5 + 0xa8]\n 12136: a3 = u64 [a5 + 0xb8]\n 12140: a0 = a0 | a1\n 12143: a1 = a2 ^ 0x10\n 12146: a1 = a1 | a3\n 12149: a0 = a0 | a1\n 12152: a0 = a0 <u 0x1\n 12155: u64 [a4 + 1696] = 0\n 12159: u64 [a4 + 1688] = 0\n 12163: u64 [a5 + 0x88] = a0\n 12167: a0 = s1 + 0x1740\n 12171: u64 [a4 + 1680] = 0\n 12175: ra = 0x1e4\n 12179: t0 = 0x676\n 12183: jump @1953\n      : @499 [@dyn 242] (gas: 26)\n 12187: a0 = sp + 0xffffffffffffffe0\n 12190: a1 = a0 & 0xffffffffffffffe0\n 12193: sp = a1\n 12195: a0 = u64 [s1 + 0x120]\n 12199: a3 = a0 + 0x15\n 12202: a0 = a3 <u a0\n 12205: a2 = u64 [s1 + 0x128]\n 12209: a4 = a2 + a0\n 12212: a2 = a4 <u a2\n 12215: a2 = a0 if a0 == 0\n 12218: a0 = u64 [s1 + 0x130]\n 12222: a2 = a2 + a0\n 12225: a0 = a2 <u a0\n 12228: a5 = u64 [s1 + 0x138]\n 12232: a0 = a0 + a5\n 12235: u64 [s1 + 0x90] = a0\n 12239: u64 [a1 + 0x18] = a0\n 12242: u64 [s1 + 0x98] = a2\n 12246: u64 [a1 + 0x10] = a2\n 12249: u64 [s1 + 0xc0] = a4\n 12253: u64 [a1 + 0x8] = a4\n 12256: u64 [s1 + 0xc8] = a3\n 12260: u64 [a1] = a3\n 12262: a0 = s1 + 0x1720\n 12266: u64 [s1 + 0xb0] = a1\n 12270: ra = 486, jump @21\n      : @500 [@dyn 243] (gas: 11)\n 12276: a1 = s1 + 0x10b8\n 12280: a0 = u8 [a1 + 0x668]\n 12284: a0 = a0 <u 0x1\n 12287: u64 [a1 + 1632] = 0\n 12291: u64 [a1 + 1624] = 0\n 12295: u64 [a1 + 0x648] = a0\n 12299: a0 = s1 + 0x1700\n 12303: u64 [a1 + 1616] = 0\n 12307: ra = 0x1e8\n 12311: t0 = 0x698\n 12315: jump @1953\n      : @501 [@dyn 244] (gas: 6)\n 12319: a5 = s1 + 0x100\n 12323: a1 = u64 [a5 + 0x20]\n 12326: a0 = a1 + 0x13\n 12329: a1 = a0 <u a1\n 12332: a3 = u64 [a5 + 0x28]\n 12335: t0 = 490, jump @1990\n      : @502 [@dyn 245] (gas: 14)\n 12342: a1 = u64 [a5 + 0x30]\n 12345: a3 = a3 + a1\n 12348: a1 = a3 <u a1\n 12351: a4 = u64 [a5 + 0x38]\n 12354: a1 = a1 + a4\n 12357: a4 = s1 + 0x30b8\n 12361: a5 = a4 + 0x700\n 12365: u64 [a5 + 0x80] = a1\n 12369: u64 [a5 + 0x78] = a3\n 12372: u64 [a5 + 0x70] = a2\n 12375: u64 [a5 + 0x68] = a0\n 12378: a0 = s1 + 0x16e0\n 12382: a1 = s1 + 0x3820\n 12386: ra = 492, jump @21\n      : @503 [@dyn 246] (gas: 2)\n 12392: a1 = s1 + 0x10b8\n 12396: fallthrough\n      : @504 (gas: 13)\n 12397: a4 = a1 + 0x600\n 12401: a2 = u64 [a4 + 0x30]\n 12404: a3 = u64 [a4 + 0x28]\n 12407: a0 = u64 [a4 + 0x40]\n 12410: a1 = u64 [a4 + 0x38]\n 12413: a4 = a2 + 0x1\n 12416: a5 = a3 <u 0xffffffffffffff01\n 12420: a5 = a5 ^ 0x1\n 12423: a5 = 0 if a4 != 0\n 12425: a4 = a1 & a0\n 12428: a4 = a4 + 0x1\n 12431: a5 = 0 if a4 != 0\n 12433: jump @506 if a5 == 0\n      : @505 (gas: 1)\n 12436: jump @1212\n      : @506 (gas: 39)\n 12439: a4 = a3 + 0xff\n 12443: u64 [s1 + 0x110] = a4\n 12447: a3 = a4 <u a3\n 12450: a4 = a2 + a3\n 12453: u64 [s1 + 0x100] = a4\n 12457: a2 = a4 <u a2\n 12460: a2 = a3 if a3 == 0\n 12463: a2 = a2 + a1\n 12466: u64 [s1 + 0x118] = a2\n 12470: a1 = a2 <u a1\n 12473: a0 = a0 + a1\n 12476: u64 [s1 + 0x108] = a0\n 12480: a0 = s1 + 0x4000\n 12484: i32 a0 = a0 + 0xfffffffffffff840\n 12488: ecalli 1 // 'block_number'\n 12490: a4 = s1 + 0x30b8\n 12494: a0 = u64 [a4 + 0x788]\n 12498: a1 = u64 [a4 + 0x790]\n 12502: a2 = u64 [a4 + 0x7a0]\n 12506: a3 = u64 [s1 + 0x110]\n 12510: a0 = a3 <u a0\n 12513: a5 = u64 [s1 + 0x100]\n 12517: a3 = a1 ^ a5\n 12520: a5 = a5 <u a1\n 12523: a1 = u64 [a4 + 0x798]\n 12527: a5 = a0 if a3 == 0\n 12530: a3 = u64 [s1 + 0x108]\n 12534: a0 = a2 ^ a3\n 12537: a2 = a3 <u a2\n 12540: a4 = u64 [s1 + 0x118]\n 12544: a3 = a4 <u a1\n 12547: a2 = a3 if a0 == 0\n 12550: a1 = a1 ^ a4\n 12553: a0 = a0 | a1\n 12556: a5 = a2 if a0 != 0\n 12559: u64 [s1 + 0x118] = a5\n 12563: a0 = s1 + 0x16c0\n 12567: a1 = 0x40\n 12570: ra = 494, jump @17\n      : @507 [@dyn 247] (gas: 8)\n 12576: t0 = s1 + 0x10b8\n 12580: a1 = t0 + 0x600\n 12584: a2 = u64 [a1 + 0x20]\n 12587: a5 = u64 [a1 + 0x18]\n 12590: a4 = u64 [a1 + 0x10]\n 12593: a0 = u64 [a1 + 0x8]\n 12596: a1 = u64 [s1 + 0x118]\n 12600: jump @509 if a1 != 0\n      : @508 (gas: 1)\n 12603: jump @948\n      : @509 (gas: 20)\n 12606: a1 = a0 + 0x20\n 12609: u64 [s1 + 0x118] = a1\n 12613: u64 [s1 + 0x110] = a0\n 12617: a0 = a1 <u a0\n 12620: a1 = a4 + a0\n 12623: u64 [s1 + 0x88] = a1\n 12627: u64 [s1 + 0x108] = a4\n 12631: a1 = a1 <u a4\n 12634: a1 = a0 if a0 == 0\n 12637: a1 = a1 + a5\n 12640: u64 [s1 + 0x78] = a1\n 12643: u64 [s1 + 0x100] = a5\n 12647: a0 = a1 <u a5\n 12650: u64 [s1 + 0xf8] = a2\n 12654: a0 = a0 + a2\n 12657: u64 [s1 + 0x80] = a0\n 12661: a0 = s1 + 0x4000\n 12665: i32 a0 = a0 + 0xfffffffffffff860\n 12669: ecalli 10 // 'now'\n 12671: fallthrough\n      : @510 (gas: 12)\n 12672: a5 = u64 [s1 + 0x118]\n 12676: a2 = u64 [s1 + 0x78]\n 12679: a0 = a5 | a2\n 12682: a1 = u64 [s1 + 0x88]\n 12686: a3 = u64 [s1 + 0x80]\n 12690: a1 = a1 | a3\n 12693: a0 = a0 | a1\n 12696: a0 = a0 >> 0x20\n 12699: a1 = a1 | a2\n 12702: a1 = a1 << 0x20\n 12705: a0 = a0 | a1\n 12708: jump @512 if a0 == 0\n      : @511 (gas: 1)\n 12711: jump @1123\n      : @512 (gas: 3)\n 12714: t0 = 0x1f0\n 12718: a3 = s1 + 0x30b8\n 12722: fallthrough\n      : @513 [@dyn 248] (gas: 14)\n 12723: a4 = a3 + 0x700\n 12727: a0 = u64 [a4 + 0xa8]\n 12731: a1 = u64 [a4 + 0xb0]\n 12735: a2 = u64 [a4 + 0xb8]\n 12739: a3 = u64 [a4 + 0xc0]\n 12743: a4 = s1 + 0x10b8\n 12747: u64 [a4 + 0x580] = a3\n 12751: a3 = a4 + 0x500\n 12755: u64 [a3 + 0x78] = a2\n 12758: u64 [a3 + 0x70] = a1\n 12761: a1 = s1 + 0x1620\n 12765: u64 [a3 + 0x68] = a0\n 12768: a0 = a5\n 12770: ra = 498, jump @19\n      : @514 [@dyn 249] (gas: 6)\n 12776: a4 = s1 + 0x100\n 12780: a1 = u64 [a4 + 0x10]\n 12783: a0 = a1 + 0x40\n 12786: a1 = a0 <u a1\n 12789: a3 = u64 [a4 + 0x8]\n 12792: t0 = 500, jump @1990\n      : @515 [@dyn 250] (gas: 4)\n 12799: a1 = u64 [a4]\n 12801: a3 = a3 + a1\n 12804: a1 = a3 <u a1\n 12807: t0 = 502, jump @2037\n      : @516 [@dyn 251] (gas: 1)\n 12814: jump @518 if a1 == 0\n      : @517 (gas: 1)\n 12817: jump @1123\n      : @518 (gas: 8)\n 12820: a2 = s1 + 0x10b8\n 12824: u64 [a2 + 1376] = 0\n 12828: u64 [a2 + 1368] = 0\n 12832: a1 = 0x8e1bc9bf04000\n 12842: u64 [a2 + 0x548] = a1\n 12846: a1 = s1 + 0x1600\n 12850: u64 [a2 + 1360] = 0\n 12854: ra = 504, jump @19\n      : @519 [@dyn 252] (gas: 7)\n 12860: a0 = s1 + 0x100\n 12864: a4 = u64 [a0]\n 12866: a3 = u64 [a0 + 0x8]\n 12869: a1 = u64 [a0 + 0x10]\n 12872: a0 = a1 + 0x60\n 12875: a1 = a0 <u a1\n 12878: t0 = 506, jump @1990\n      : @520 [@dyn 253] (gas: 3)\n 12885: a3 = a3 + a4\n 12888: a1 = a3 <u a4\n 12891: t0 = 508, jump @2037\n      : @521 [@dyn 254] (gas: 1)\n 12898: jump @523 if a1 == 0\n      : @522 (gas: 1)\n 12901: jump @1123\n      : @523 (gas: 12)\n 12904: a1 = u64 [s1 + 0xd8]\n 12908: a3 = s1 + 0x10b8\n 12912: a4 = a3 + 0x500\n 12916: u64 [a4 + 0x28] = a1\n 12919: a1 = u64 [s1 + 0xe0]\n 12923: u64 [a4 + 0x30] = a1\n 12926: a1 = u64 [s1 + 0xe8]\n 12930: u64 [a4 + 0x38] = a1\n 12933: a1 = s1 + 0x15e0\n 12937: a2 = u64 [s1 + 0xf0]\n 12941: u64 [a4 + 0x40] = a2\n 12944: ra = 510, jump @19\n      : @524 [@dyn 255] (gas: 13)\n 12950: a5 = u64 [s1 + 0xf8]\n 12954: a1 = s1 + 0x100\n 12958: a4 = u64 [a1]\n 12960: a3 = u64 [a1 + 0x8]\n 12963: a0 = u64 [a1 + 0x10]\n 12966: a2 = a0 | a4\n 12969: a1 = a3 | a5\n 12972: a2 = a2 | a1\n 12975: a2 = a2 >> 0x20\n 12978: a1 = a1 | a4\n 12981: a1 = a1 << 0x20\n 12984: a1 = a1 | a2\n 12987: jump @526 if a1 == 0\n      : @525 (gas: 1)\n 12990: jump @1123\n      : @526 (gas: 8)\n 12993: a2 = s1 + 0x10b8\n 12997: u64 [a2 + 1312] = 0\n 13001: u64 [a2 + 1304] = 0\n 13005: u64 [a2 + 1296] = 0\n 13009: t0 = 0x60\n 13012: a1 = s1 + 0x15c0\n 13016: u64 [a2 + 0x508] = t0\n 13020: ra = 512, jump @19\n      : @527 [@dyn 256] (gas: 18)\n 13026: a1 = s1 + 0x10b8\n 13030: u64 [a1 + 1248] = 0\n 13034: u64 [a1 + 1240] = 0\n 13038: u64 [a1 + 1232] = 0\n 13042: a2 = a1 + 0x400\n 13046: u64 [a2 + 200] = 0x80\n 13052: a0 = u64 [s1 + 0xf8]\n 13056: u64 [a1 + 0x500] = a0\n 13060: a0 = u64 [s1 + 0x100]\n 13064: u64 [a2 + 0xf8] = a0\n 13068: a0 = u64 [s1 + 0x108]\n 13072: u64 [a2 + 0xf0] = a0\n 13076: a3 = a1\n 13078: a0 = s1 + 0x15a0\n 13082: a1 = s1 + 0x1580\n 13086: a2 = u64 [s1 + 0x110]\n 13090: u64 [a3 + 0x4e8] = a2\n 13094: ra = 514, jump @1336\n      : @528 [@dyn 257] (gas: 7)\n 13100: a0 = sp + 0xffffffffffffffe0\n 13103: a0 = a0 & 0xffffffffffffffe0\n 13106: u64 [s1 + 0x108] = a0\n 13110: sp = a0\n 13112: a0 = s1 + 0x1560\n 13116: a1 = u64 [s1 + 0x110]\n 13120: ra = 516, jump @17\n      : @529 [@dyn 258] (gas: 3)\n 13126: t0 = 0x206\n 13130: a1 = s1 + 0x10b8\n 13134: fallthrough\n      : @530 [@dyn 259] (gas: 13)\n 13135: a3 = a1 + 0x400\n 13139: a0 = u64 [a3 + 0xc0]\n 13143: a4 = u64 [a3 + 0xb8]\n 13147: a2 = u64 [a3 + 0xb0]\n 13151: a1 = u64 [a3 + 0xa8]\n 13155: a0 = a0 | a2\n 13158: a2 = a1 | a4\n 13161: a2 = a2 | a0\n 13164: a2 = a2 >> 0x20\n 13167: a0 = a0 | a4\n 13170: a0 = a0 << 0x20\n 13173: a0 = a0 | a2\n 13176: jump @532 if a0 == 0\n      : @531 (gas: 1)\n 13179: jump @1123\n      : @532 (gas: 3)\n 13182: a0 = u64 [s1 + 0x118]\n 13186: u64 [s1 + 0x118] = a1\n 13190: ra = 520, jump @32\n      : @533 [@dyn 260] (gas: 30)\n 13196: a1 = sp + 0xffffffffffffffe0\n 13199: a2 = a1 & 0xffffffffffffffe0\n 13202: u64 [s1 + 0x110] = a2\n 13206: sp = a2\n 13208: i32 a0 = a0 + 0\n 13210: a1 = i32 [s1 + 0x118]\n 13214: i32 a2 = a2 + 0\n 13216: ecalli 9 // 'hash_keccak_256'\n 13218: a0 = u64 [s1 + 0x110]\n 13222: a0 = u8 [a0 + 0x1f]\n 13225: a0 = a0 & 0xf\n 13228: a1 = s1 + 0x10b8\n 13232: u64 [a1 + 1088] = 0\n 13236: u64 [a1 + 1080] = 0\n 13240: u64 [a1 + 1072] = 0\n 13244: a2 = a1 + 0x400\n 13248: u64 [a2 + 0x28] = a0\n 13251: a0 = u64 [s1 + 0x138]\n 13255: u64 [a2 + 0x60] = a0\n 13258: a0 = u64 [s1 + 0x130]\n 13262: u64 [a2 + 0x58] = a0\n 13265: a0 = u64 [s1 + 0x128]\n 13269: u64 [a2 + 0x50] = a0\n 13272: a4 = a1\n 13274: a0 = s1 + 0x1520\n 13278: a1 = s1 + 0x1500\n 13282: a2 = s1 + 0x14e0\n 13286: a3 = u64 [s1 + 0x120]\n 13290: u64 [a4 + 0x448] = a3\n 13294: ra = 522, jump @1467\n      : @534 [@dyn 261] (gas: 21)\n 13300: a1 = s1 + 0x10b8\n 13304: a4 = a1 + 0x400\n 13308: a0 = u64 [a4 + 0xa0]\n 13312: u64 [s1 + 0xf8] = a0\n 13316: a0 = u64 [a4 + 0x98]\n 13320: u64 [s1 + 0xe8] = a0\n 13324: a0 = u64 [a4 + 0x90]\n 13328: u64 [s1 + 0xe0] = a0\n 13332: a0 = u64 [a4 + 0x88]\n 13336: u64 [s1 + 0xf0] = a0\n 13340: a0 = u64 [a4 + 0x78]\n 13343: a5 = u64 [a4 + 0x80]\n 13347: a2 = u64 [a4 + 0x68]\n 13350: a3 = u64 [a4 + 0x70]\n 13353: a1 = u64 [s1 + 0x108]\n 13357: u64 [a1 + 0x10] = a0\n 13360: u64 [a1 + 0x18] = a5\n 13363: u64 [a1] = a2\n 13365: u64 [a1 + 0x8] = a3\n 13368: a0 = s1 + 0x14c0\n 13372: ra = 524, jump @21\n      : @535 [@dyn 262] (gas: 37)\n 13378: a2 = s1 + 0x10b8\n 13382: a3 = a2 + 0x400\n 13386: a1 = u64 [a3 + 0x8]\n 13389: u64 [s1 + 0x118] = a1\n 13393: a0 = u64 [a3 + 0x10]\n 13396: u64 [s1 + 0x110] = a0\n 13400: a0 = u64 [a3 + 0x18]\n 13403: u64 [s1 + 0x108] = a0\n 13407: a1 = u64 [a3 + 0x20]\n 13410: u64 [s1 + 0x100] = a1\n 13414: a4 = u64 [s1 + 0xf0]\n 13418: a2 = a4 >> 0x3d\n 13421: a3 = u64 [s1 + 0xe0]\n 13425: a5 = a3 << 0x3\n 13428: t1 = a5 | a2\n 13431: a3 = a3 >> 0x3d\n 13434: a5 = u64 [s1 + 0xe8]\n 13438: a2 = a5 << 0x3\n 13441: t0 = a2 | a3\n 13444: a2 = a5 >> 0x3d\n 13447: a3 = u64 [s1 + 0xf8]\n 13451: a3 = a3 << 0x3\n 13454: a2 = a2 | a3\n 13457: a5 = a4 << 0x3\n 13460: u64 [s1 + 0xf8] = a5\n 13464: a3 = t1 >u 0\n 13466: a4 = a5 <u 0x100\n 13470: a4 = a4 ^ 0x1\n 13473: a4 = a3 if t1 != 0\n 13476: t1 = a2 >u 0\n 13478: a3 = t0 >u 0\n 13480: a3 = t1 if a2 != 0\n 13483: a2 = t0 | a2\n 13486: a4 = a3 if a2 != 0\n 13489: u64 [s1 + 0xe8] = a4\n 13493: i32 a2 = a5 + 0xffffffffffffff80\n 13496: ra = 526, jump @2038\n      : @536 [@dyn 263] (gas: 8)\n 13503: u64 [s1 + 0xe0] = a0\n 13507: u64 [s1 + 0xd8] = a1\n 13511: a0 = u64 [s1 + 0xf0]\n 13515: i32 a2 = a0 << 0x3\n 13518: u64 [s1 + 0xf0] = a2\n 13522: a0 = u64 [s1 + 0x118]\n 13526: a1 = u64 [s1 + 0x110]\n 13530: ra = 528, jump @2038\n      : @537 [@dyn 264] (gas: 7)\n 13537: u64 [s1 + 0x80] = a0\n 13541: u64 [s1 + 0x88] = a1\n 13545: a1 = u64 [s1 + 0xf8]\n 13549: i32 a2 = 0x80 - a1\n 13553: a0 = u64 [s1 + 0x108]\n 13557: a1 = u64 [s1 + 0x100]\n 13561: ra = 530, jump @2043\n      : @538 [@dyn 265] (gas: 21)\n 13568: a3 = u64 [s1 + 0x88]\n 13572: a3 = a3 | a1\n 13575: a2 = u64 [s1 + 0xf8]\n 13579: a4 = a2 <u 0x80\n 13583: u64 [s1 + 0x88] = a4\n 13587: a1 = u64 [s1 + 0xd8]\n 13591: a3 = a1 if a4 == 0\n 13594: a1 = u64 [s1 + 0x110]\n 13598: a3 = a1 if a2 == 0\n 13601: u64 [s1 + 0x110] = a3\n 13605: a1 = u64 [s1 + 0x80]\n 13609: a1 = a1 | a0\n 13612: a0 = u64 [s1 + 0xe0]\n 13616: a1 = a0 if a4 == 0\n 13619: a0 = u64 [s1 + 0x118]\n 13623: a1 = a0 if a2 == 0\n 13626: u64 [s1 + 0x118] = a1\n 13630: a0 = u64 [s1 + 0x108]\n 13634: a1 = u64 [s1 + 0x100]\n 13638: a2 = u64 [s1 + 0xf0]\n 13642: ra = 532, jump @2038\n      : @539 [@dyn 266] (gas: 29)\n 13649: a1 = 0\n 13651: a2 = u64 [s1 + 0x88]\n 13655: a0 = 0 if a2 == 0\n 13657: a0 = a0 << 0x20\n 13660: a0 = a0 >> 0x20\n 13663: a2 = u64 [s1 + 0xe8]\n 13667: a4 = u64 [s1 + 0x118]\n 13671: a4 = 0 if a2 != 0\n 13673: a5 = u64 [s1 + 0x110]\n 13677: a5 = 0 if a2 != 0\n 13679: a0 = 0 if a2 != 0\n 13681: a1 = 0 if a2 == 0\n 13683: a2 = u64 [s1 + 0x90]\n 13687: a3 = s1 + 0x10b8\n 13691: u64 [a3 + 0x400] = a2\n 13695: a2 = u64 [s1 + 0x98]\n 13699: u64 [a3 + 0x3f8] = a2\n 13703: a2 = u64 [s1 + 0xc0]\n 13707: u64 [a3 + 0x3f0] = a2\n 13711: a2 = u64 [s1 + 0xc8]\n 13715: u64 [a3 + 0x3e8] = a2\n 13719: a2 = a3 + 0x300\n 13723: u64 [a2 + 0xe0] = a1\n 13727: u64 [a2 + 0xd8] = a0\n 13731: u64 [a2 + 0xd0] = a5\n 13735: a0 = s1 + 0x14a0\n 13739: a1 = s1 + 0x1480\n 13743: u64 [a2 + 0xc8] = a4\n 13747: ra = 534, jump @1567\n      : @540 [@dyn 267] (gas: 7)\n 13753: a0 = sp + 0xffffffffffffffe0\n 13756: a0 = a0 & 0xffffffffffffffe0\n 13759: u64 [s1 + 0x118] = a0\n 13763: sp = a0\n 13765: a0 = s1 + 0x1460\n 13769: a1 = u64 [s1 + 0xb0]\n 13773: ra = 536, jump @21\n      : @541 [@dyn 268] (gas: 19)\n 13779: a0 = s1 + 0x10b8\n 13783: a2 = a0 + 0x300\n 13787: a1 = u64 [a2 + 0xa8]\n 13791: u64 [s1 + 0x110] = a1\n 13795: a4 = u64 [a2 + 0xb0]\n 13799: u64 [s1 + 0x100] = a4\n 13803: a3 = u64 [a2 + 0xb8]\n 13807: u64 [s1 + 0x108] = a3\n 13811: a0 = u64 [a2 + 0xc0]\n 13815: a1 = a1 & 0xffffffffffffff00\n 13819: a1 = a1 | 0x1\n 13822: a2 = u64 [s1 + 0x118]\n 13826: u64 [a2 + 0x10] = a3\n 13829: u64 [a2 + 0x18] = a0\n 13832: u64 [a2 + 0x8] = a4\n 13835: u64 [a2] = a1\n 13837: a1 = a2\n 13839: a0 = u64 [s1 + 0xb0]\n 13843: ra = 538, jump @25\n      : @542 [@dyn 269] (gas: 20)\n 13849: a2 = u64 [s1 + 0x100]\n 13853: a0 = a2 << 0x38\n 13856: a1 = u64 [s1 + 0x110]\n 13860: a1 = a1 >> 0x8\n 13863: a0 = a0 | a1\n 13866: a3 = u64 [s1 + 0x108]\n 13870: a1 = a3 << 0x38\n 13873: a2 = a2 >> 0x8\n 13876: a1 = a1 | a2\n 13879: a2 = a3 << 0x18\n 13882: a2 = a2 >> 0x20\n 13885: a3 = s1 + 0x10b8\n 13889: u64 [a3 + 928] = 0\n 13893: a4 = a3 + 0x300\n 13897: u64 [a4 + 0x98] = a2\n 13901: u64 [a4 + 0x90] = a1\n 13905: a1 = s1 + 0x1440\n 13909: u64 [a4 + 0x88] = a0\n 13913: a0 = 0\n 13915: ra = 540, jump @19\n      : @543 [@dyn 270] (gas: 3)\n 13921: t0 = 0x21e\n 13925: a1 = s1 + 0x10b8\n 13929: fallthrough\n      : @544 [@dyn 271] (gas: 8)\n 13930: u64 [a1 + 896] = 0\n 13934: u64 [a1 + 888] = 0\n 13938: u64 [a1 + 872] = 0x5\n 13943: a2 = a1\n 13945: a0 = 0x20\n 13948: a1 = s1 + 0x1420\n 13952: u64 [a2 + 880] = 0\n 13956: ra = 544, jump @19\n      : @545 [@dyn 272] (gas: 7)\n 13962: a0 = sp + 0xffffffffffffffe0\n 13965: a0 = a0 & 0xffffffffffffffe0\n 13968: u64 [s1 + 0x118] = a0\n 13972: sp = a0\n 13974: a2 = u64 [s1 + 0xd0]\n 13978: a0 = i32 [a2]\n 13980: jump @547 if a0 >u 63\n      : @546 (gas: 2)\n 13984: u32 [a2 + 0] = 0x40\n 13987: fallthrough\n      : @547 (gas: 12)\n 13988: a0 = sp + 0xffffffffffffffe0\n 13991: a0 = a0 & 0xffffffffffffffe0\n 13994: u64 [s1 + 0x110] = a0\n 13998: sp = a0\n 14000: i32 a2 = a0 + 0\n 14002: a1 = 0x40\n 14005: a0 = u64 [s1 + 0xa0]\n 14009: ra = 0x222\n 14013: ecalli 9 // 'hash_keccak_256'\n 14015: a3 = u64 [s1 + 0x110]\n 14019: t0 = 0x224\n 14023: jump @1974\n      : @548 [@dyn 273] (gas: 2)\n 14027: a3 = u64 [s1 + 0x110]\n 14031: t0 = 548, jump @1974\n      : @549 [@dyn 274] (gas: 7)\n 14038: a1 = u64 [s1 + 0x118]\n 14042: u64 [a1 + 0x18] = a3\n 14045: u64 [a1 + 0x10] = a2\n 14048: u64 [a1 + 0x8] = a4\n 14051: u64 [a1] = a0\n 14053: a0 = s1 + 0x1400\n 14057: ra = 550, jump @21\n      : @550 [@dyn 275] (gas: 13)\n 14063: a4 = s1 + 0x10b8\n 14067: a5 = a4 + 0x300\n 14071: a2 = u64 [a5 + 0x48]\n 14074: a0 = u64 [a5 + 0x50]\n 14077: a1 = u64 [a5 + 0x58]\n 14080: a3 = u64 [a5 + 0x60]\n 14083: u64 [a5 + 0x20] = a3\n 14086: u64 [a5 + 0x18] = a1\n 14089: u64 [a5 + 0x10] = a0\n 14092: a0 = s1 + 0x13e0\n 14096: a1 = s1 + 0x13c0\n 14100: u64 [a5 + 0x8] = a2\n 14103: ra = 552, jump @1511\n      : @551 [@dyn 276] (gas: 15)\n 14109: a3 = s1 + 0x10b8\n 14113: a4 = a3 + 0x300\n 14117: a0 = u64 [a4 + 0x40]\n 14120: a1 = u64 [a4 + 0x38]\n 14123: a2 = u64 [a4 + 0x30]\n 14126: a3 = u64 [a4 + 0x28]\n 14129: a4 = s1 + 0x30b8\n 14133: a5 = a4 + 0x700\n 14137: u64 [a5 + 0xe0] = a0\n 14141: u64 [a5 + 0xd8] = a1\n 14145: u64 [a5 + 0xd0] = a2\n 14149: u64 [a5 + 0xc8] = a3\n 14153: a1 = s1 + 0x3880\n 14157: a0 = u64 [s1 + 0x118]\n 14161: ra = 554, jump @25\n      : @552 [@dyn 277] (gas: 5)\n 14167: a1 = u64 [s1 + 0x120]\n 14171: a0 = a1 + 0x12\n 14174: a1 = a0 <u a1\n 14177: a3 = u64 [s1 + 0x128]\n 14181: t0 = 556, jump @1991\n      : @553 [@dyn 278] (gas: 8)\n 14188: u64 [a4] = a1\n 14190: a1 = a4 + 0xffffffffffffff00\n 14194: u64 [a1 + 0xf8] = a3\n 14198: u64 [a1 + 0xf0] = a2\n 14202: u64 [a1 + 0xe8] = a0\n 14206: a0 = s1 + 0x13a0\n 14210: a1 = s1 + 0x38a0\n 14214: ra = 558, jump @21\n      : @554 [@dyn 279] (gas: 19)\n 14220: a0 = s1 + 0x10b8\n 14224: a1 = u64 [a0 + 0x300]\n 14228: u64 [s1 + 0x78] = a1\n 14231: a2 = a0 + 0x200\n 14235: a1 = u64 [a2 + 0xf8]\n 14239: u64 [s1 + 0x70] = a1\n 14242: a1 = u64 [a2 + 0xf0]\n 14246: u64 [s1 + 0x68] = a1\n 14249: a1 = u64 [a2 + 0xe8]\n 14253: u64 [s1 + 0x60] = a1\n 14256: a0 = s1 + 0x38b8\n 14260: u64 [a0 + 32] = 0\n 14263: u64 [a0 + 24] = 0\n 14266: u64 [a0 + 16] = 0\n 14269: a1 = a0\n 14271: u64 [a1 + 8] = 0x1\n 14275: a0 = s1 + 0x1380\n 14279: a1 = s1 + 0x38c0\n 14283: ra = 560, jump @21\n      : @555 [@dyn 280] (gas: 2)\n 14289: a0 = 0x1000\n 14293: t0 = 562, jump @2015\n      : @556 [@dyn 281] (gas: 20)\n 14300: a0 = u64 [a5 + 0xc8]\n 14304: a1 = u64 [a5 + 0xd0]\n 14308: a2 = u64 [a5 + 0xd8]\n 14312: a3 = u64 [a5 + 0xe0]\n 14316: u64 [a5 + 0x80] = a3\n 14320: u64 [a5 + 0x78] = a2\n 14323: u64 [a5 + 0x70] = a1\n 14326: u64 [a5 + 0x68] = a0\n 14329: a0 = u64 [s1 + 0x78]\n 14332: u64 [a5 + 0xa0] = a0\n 14336: a0 = u64 [s1 + 0x70]\n 14339: u64 [a5 + 0x98] = a0\n 14343: a0 = u64 [s1 + 0x68]\n 14346: u64 [a5 + 0x90] = a0\n 14350: a0 = s1 + 0x1360\n 14354: a1 = s1 + 0x1340\n 14358: a2 = s1 + 0x1320\n 14362: a3 = u64 [s1 + 0x60]\n 14365: u64 [a5 + 0x88] = a3\n 14369: ra = 564, jump @1394\n      : @557 [@dyn 282] (gas: 8)\n 14375: a0 = s1 + 0x10b8\n 14379: t1 = u64 [a0 + 0x2c0]\n 14383: t2 = u64 [a0 + 0x2b8]\n 14387: ra = u64 [a0 + 0x2b0]\n 14391: u64 [s1 + 0x90] = ra\n 14395: a2 = u64 [a0 + 0x2a8]\n 14399: u64 [s1 + 0x98] = a2\n 14403: t0 = 566, jump @1968\n      : @558 [@dyn 283] (gas: 12)\n 14410: t0 = a0 + 0xffffffffffffffff\n 14413: a0 = -a4\n 14415: a5 = -a5\n 14417: a2 = a5 - a2\n 14420: a1 = 0xf2 - a3\n 14424: u64 [s1 + 0x128] = a0\n 14428: a3 = a0 >u 0\n 14430: a0 = t0\n 14432: a5 = t0 >u 0\n 14434: a5 = a3 if t0 == 0\n 14437: u64 [s1 + 0x130] = a1\n 14441: t0 = 568, jump @2017\n      : @559 [@dyn 284] (gas: 12)\n 14448: t0 = u64 [s1 + 0x98]\n 14452: a4 = t0 | t2\n 14455: a1 = a1 | a4\n 14458: a1 = a1 <u 0x1\n 14461: a1 = a1 | a3\n 14464: u64 [s1 + 0x88] = t1\n 14468: t1 = 0 if a1 != 0\n 14470: u64 [s1 + 0x80] = t2\n 14474: t2 = 0 if a1 != 0\n 14476: ra = 0 if a1 != 0\n 14478: t0 = 0 if a1 != 0\n 14480: jump @561 if a1 == 0\n      : @560 (gas: 1)\n 14483: jump @1106\n      : @561 (gas: 7)\n 14486: a1 = u64 [s1 + 0x130]\n 14490: a1 = a1 ^ 0xff\n 14494: a4 = u64 [s1 + 0x128]\n 14498: a1 = a1 | a4\n 14501: a3 = a2 | a0\n 14504: a1 = a1 | a3\n 14507: jump @563 if a1 != 0\n      : @562 (gas: 1)\n 14510: jump @1106\n      : @563 (gas: 19)\n 14513: a5 = u64 [s1 + 0x130]\n 14517: a3 = a5 + 0x1\n 14520: u64 [s1 + 0x138] = a3\n 14524: a1 = a3 <u 0x1\n 14527: a1 = a1 + a2\n 14530: u64 [s1 + 0x118] = a1\n 14534: a1 = a1 | a3\n 14537: a1 = a1 <u 0x1\n 14540: a1 = a1 + a4\n 14543: u64 [s1 + 0x108] = a1\n 14547: a1 = a1 <u a4\n 14550: a0 = a0 + a1\n 14553: u64 [s1 + 0x110] = a0\n 14557: a1 = 0xff - a5\n 14561: u64 [s1 + 0x120] = a1\n 14565: a2 = 0x80 - a1\n 14569: a0 = u64 [s1 + 0x98]\n 14573: a1 = u64 [s1 + 0x90]\n 14577: ra = 570, jump @2038\n      : @564 [@dyn 285] (gas: 6)\n 14584: u64 [s1 + 0x128] = a0\n 14588: u64 [s1 + 0xf8] = a1\n 14592: a0 = u64 [s1 + 0x80]\n 14596: a1 = u64 [s1 + 0x88]\n 14600: a2 = u64 [s1 + 0x120]\n 14604: ra = 572, jump @2043\n      : @565 [@dyn 286] (gas: 9)\n 14611: u64 [s1 + 0x100] = a0\n 14615: a0 = u64 [s1 + 0xf8]\n 14619: a0 = a0 | a1\n 14622: u64 [s1 + 0xf8] = a0\n 14626: a1 = u64 [s1 + 0x130]\n 14630: a2 = 0x7f - a1\n 14633: a0 = u64 [s1 + 0x98]\n 14637: a1 = u64 [s1 + 0x90]\n 14641: ra = 574, jump @2043\n      : @566 [@dyn 287] (gas: 18)\n 14648: a2 = u64 [s1 + 0x120]\n 14652: a3 = a2 <u 0x80\n 14656: u64 [s1 + 0x130] = a3\n 14660: a4 = u64 [s1 + 0xf8]\n 14664: a1 = a4 if a3 != 0\n 14667: a4 = u64 [s1 + 0x88]\n 14671: a1 = a4 if a2 == 0\n 14674: u64 [s1 + 0xf0] = a1\n 14678: a1 = u64 [s1 + 0x128]\n 14682: a4 = u64 [s1 + 0x100]\n 14686: a1 = a1 | a4\n 14689: a1 = a0 if a3 == 0\n 14692: a0 = u64 [s1 + 0x80]\n 14696: a1 = a0 if a2 == 0\n 14699: u64 [s1 + 0x128] = a1\n 14703: a0 = u64 [s1 + 0x98]\n 14707: a1 = u64 [s1 + 0x90]\n 14711: ra = 576, jump @2043\n      : @567 [@dyn 288] (gas: 14)\n 14718: a4 = u64 [s1 + 0x108]\n 14722: a5 = u64 [s1 + 0x110]\n 14726: a2 = u64 [s1 + 0x118]\n 14730: a5 = a5 | a2\n 14733: a3 = u64 [s1 + 0x138]\n 14737: a3 = a3 | a4\n 14740: a3 = a3 | a5\n 14743: a4 = s1 + 0x100\n 14747: a2 = u64 [a4 + 0x30]\n 14750: a1 = 0 if a2 == 0\n 14752: u64 [a4 + 0x20] = a1\n 14755: a0 = 0 if a2 == 0\n 14757: u64 [a4 + 0x30] = a0\n 14760: jump @569 if a3 == 0\n      : @568 (gas: 1)\n 14763: jump @1099\n      : @569 (gas: 4)\n 14766: a5 = 0\n 14768: u64 [s1 + 216] = 0\n 14772: ra = u64 [s1 + 0xf0]\n 14776: jump @1105\n      : @570 (gas: 1)\n 14779: jump @572 if a0 == 2143612328\n      : @571 (gas: 1)\n 14786: jump @1219\n      : @572 (gas: 8)\n 14789: u64 [a2 + 1024] = 0\n 14793: u64 [a2 + 1016] = 0\n 14797: u64 [a2 + 1008] = 0\n 14801: u64 [a2 + 1000] = 0\n 14805: a0 = s1 + 0x4000\n 14809: i32 a0 = a0 + 0xfffffffffffffca0\n 14813: ecalli 17 // 'value_transferred'\n 14815: fallthrough\n      : @573 (gas: 10)\n 14816: a3 = s1 + 0x38b8\n 14820: a4 = a3 + 0x300\n 14824: a0 = u64 [a4 + 0xf8]\n 14828: a1 = u64 [a3 + 0x400]\n 14832: a2 = u64 [a4 + 0xf0]\n 14836: a3 = u64 [a4 + 0xe8]\n 14840: a1 = a1 | a2\n 14843: a0 = a0 | a3\n 14846: a0 = a0 | a1\n 14849: jump @575 if a0 == 0\n      : @574 (gas: 1)\n 14852: jump @1223\n      : @575 (gas: 3)\n 14855: a0 = u64 [s1 + 0x138]\n 14859: a0 = i32 [a0]\n 14861: jump @577 if a0 >u 3\n      : @576 (gas: 1)\n 14865: jump @1224\n      : @577 (gas: 3)\n 14868: a0 = s1 + 0x1d00\n 14872: a1 = 0x40\n 14875: ra = 578, jump @17\n      : @578 [@dyn 289] (gas: 7)\n 14881: a3 = s1 + 0x18b8\n 14885: a5 = a3 + 0x400\n 14889: a4 = u64 [a5 + 0x60]\n 14892: a1 = u64 [a5 + 0x58]\n 14895: a2 = u64 [a5 + 0x50]\n 14898: a0 = u64 [a5 + 0x48]\n 14901: t0 = 580, jump @2000\n      : @579 [@dyn 290] (gas: 1)\n 14908: jump @581 if a1 == 0\n      : @580 (gas: 1)\n 14911: jump @1123\n      : @581 (gas: 8)\n 14914: u64 [a3 + 1088] = 0\n 14918: u64 [a3 + 1080] = 0\n 14922: u64 [a3 + 1064] = 0x10\n 14927: a1 = s1 + 0x1ce0\n 14931: u64 [a3 + 1072] = 0\n 14935: u64 [s1 + 0x138] = a0\n 14939: ra = 0x33c\n 14943: jump @19\n      : @582 (gas: 9)\n 14946: u64 [a4 + 160] = 0\n 14950: u64 [a4 + 152] = 0\n 14954: u64 [a4 + 144] = 0\n 14958: u64 [a4 + 136] = 0\n 14962: a0 = s1 + 0x4000\n 14966: i32 a0 = a0 + 0x140\n 14970: ra = 0x246\n 14974: ecalli 17 // 'value_transferred'\n 14976: fallthrough\n      : @583 [@dyn 291] (gas: 9)\n 14977: a3 = s1 + 0x40b8\n 14981: a0 = u64 [a3 + 0x98]\n 14985: a1 = u64 [a3 + 0xa0]\n 14989: a2 = u64 [a3 + 0x90]\n 14993: a3 = u64 [a3 + 0x88]\n 14997: a1 = a1 | a2\n 15000: a0 = a0 | a3\n 15003: a0 = a0 | a1\n 15006: jump @585 if a0 == 0\n      : @584 (gas: 1)\n 15009: jump @1225\n      : @585 (gas: 1)\n 15012: t0 = 584, jump @1994\n      : @586 [@dyn 292] (gas: 1)\n 15019: jump @588 if a1 <u a0\n      : @587 (gas: 1)\n 15022: jump @1226\n      : @588 (gas: 29)\n 15025: a0 = sp + 0xffffffffffffffe0\n 15028: a0 = a0 & 0xffffffffffffffe0\n 15031: u64 [s1 + 0x138] = a0\n 15035: sp = a0\n 15037: a0 = s1 + 0x4000\n 15041: i32 a0 = a0 + 0x160\n 15045: a1 = 0x4\n 15048: ecalli 4 // 'call_data_load'\n 15050: a1 = s1 + 0x40b8\n 15054: a2 = u64 [a1 + 0xc0]\n 15058: u64 [s1 + 0x128] = a2\n 15062: a3 = u64 [a1 + 0xb8]\n 15066: u64 [s1 + 0x120] = a3\n 15070: a0 = u64 [a1 + 0xb0]\n 15074: u64 [s1 + 0x130] = a0\n 15078: a4 = u64 [a1 + 0xa8]\n 15082: u64 [s1 + 0x118] = a4\n 15086: a5 = u64 [s1 + 0x138]\n 15090: u64 [a5 + 0x18] = a2\n 15093: u64 [a5 + 0x10] = a3\n 15096: u64 [a5 + 0x8] = a0\n 15099: u64 [a5] = a4\n 15101: u64 [a1 + 224] = 0\n 15105: u64 [a1 + 216] = 0\n 15109: u64 [a1 + 208] = 0\n 15113: u64 [a1 + 200] = 0x7\n 15118: a0 = s1 + 0x2920\n 15122: a1 = s1 + 0x4180\n 15126: ra = 586, jump @21\n      : @589 [@dyn 293] (gas: 14)\n 15132: a0 = s1 + 0x28b8\n 15136: a1 = u64 [a0 + 0x70]\n 15139: u64 [s1 + 0x110] = a1\n 15143: a1 = u64 [a0 + 0x68]\n 15146: u64 [s1 + 0x108] = a1\n 15150: a0 = u32 [a0 + 0x78]\n 15153: u64 [s1 + 0x100] = a0\n 15157: a0 = 0x30270\n 15162: u64 [s1 + 0xf8] = a0\n 15166: i32 a0 = a0 + 0\n 15168: ra = 0x24c\n 15172: ecalli 6 // 'caller'\n 15174: t0 = 0x24e\n 15178: jump @1970\n      : @590 [@dyn 294] (gas: 1)\n 15182: t0 = 590, jump @1970\n      : @591 [@dyn 295] (gas: 9)\n 15189: a1 = s1 + 0x28b8\n 15193: u64 [a1 + 96] = 0\n 15196: u64 [a1 + 88] = 0\n 15199: u64 [a1 + 0x48] = a0\n 15202: a0 = s1 + 0x2900\n 15206: u64 [a1 + 80] = 0\n 15209: ra = 0x250\n 15213: t0 = 0x562\n 15217: jump @1953\n      : @592 [@dyn 296] (gas: 10)\n 15221: a3 = s1 + 0x100\n 15225: a0 = u64 [a3 + 0x28]\n 15228: a1 = u64 [a3 + 0x20]\n 15231: a0 = a0 | a1\n 15234: a1 = u64 [a3 + 0x18]\n 15237: a1 = a1 <u 0x7d1\n 15241: a2 = u64 [a3 + 0x30]\n 15244: a1 = 0 if a2 != 0\n 15246: a1 = 0 if a0 != 0\n 15248: jump @594 if a1 == 0\n      : @593 (gas: 1)\n 15251: jump @1227\n      : @594 (gas: 3)\n 15254: a0 = s1 + 0x28e0\n 15258: a1 = 0x40\n 15261: ra = 594, jump @17\n      : @595 [@dyn 297] (gas: 13)\n 15267: a4 = s1 + 0x28b8\n 15271: t0 = u64 [a4 + 0x40]\n 15274: a5 = u64 [a4 + 0x38]\n 15277: a3 = u64 [a4 + 0x30]\n 15280: a0 = u64 [a4 + 0x28]\n 15283: a2 = a3 | t0\n 15286: a1 = a0 | a5\n 15289: a1 = a1 | a2\n 15292: a1 = a1 >> 0x20\n 15295: a2 = a2 | a5\n 15298: a2 = a2 << 0x20\n 15301: a1 = a1 | a2\n 15304: jump @597 if a1 == 0\n      : @596 (gas: 1)\n 15307: jump @1123\n      : @597 (gas: 11)\n 15310: u64 [a4 + 24] = 0\n 15313: u64 [a4 + 16] = 0\n 15316: u64 [a4 + 8] = 0\n 15319: u64 [s1 + 0x130] = a3\n 15323: a3 = 0x8c379a000000000\n 15333: a1 = s1 + 0x28c0\n 15337: u64 [a4 + 0x20] = a3\n 15340: u64 [s1 + 0x138] = a0\n 15344: u64 [s1 + 0x128] = t0\n 15348: u64 [s1 + 0x120] = a5\n 15352: ra = 596, jump @19\n      : @598 [@dyn 298] (gas: 6)\n 15358: a5 = s1 + 0x100\n 15362: a1 = u64 [a5 + 0x38]\n 15365: a0 = u64 [a5 + 0x28]\n 15368: a3 = u64 [a5 + 0x20]\n 15371: a3 = a3 | a0\n 15374: t0 = 598, jump @1957\n      : @599 [@dyn 299] (gas: 1)\n 15381: jump @601 if a0 != 0\n      : @600 (gas: 1)\n 15384: jump @1123\n      : @601 (gas: 10)\n 15387: i32 a0 = a1 + 0x4\n 15390: a2 = s1 + 0x28b8\n 15394: u64 [a2 + 0] = 0\n 15396: u64 [a2 + 4294967288] = 0\n 15399: u64 [a2 + 4294967272] = 0x20\n 15403: a1 = s1 + 0x28a0\n 15407: u64 [a2 + 4294967280] = 0\n 15410: u64 [s1 + 0x128] = a3\n 15414: u64 [s1 + 0x120] = a4\n 15418: ra = 600, jump @19\n      : @602 [@dyn 300] (gas: 1)\n 15424: t0 = 602, jump @1955\n      : @603 [@dyn 301] (gas: 1)\n 15431: jump @605 if a0 != 0\n      : @604 (gas: 1)\n 15434: jump @1123\n      : @605 (gas: 8)\n 15437: i32 a0 = a1 + 0x24\n 15440: a4 = s1 + 0x20b8\n 15444: u64 [a4 + 2016] = 0\n 15448: u64 [a4 + 2008] = 0\n 15452: u64 [a4 + 1992] = 0xc\n 15457: a1 = s1 + 0x2880\n 15461: u64 [a4 + 2000] = 0\n 15465: ra = 604, jump @19\n      : @606 [@dyn 302] (gas: 1)\n 15471: t0 = 606, jump @2001\n      : @607 [@dyn 303] (gas: 1)\n 15478: jump @609 if a0 != 0\n      : @608 (gas: 1)\n 15481: jump @1123\n      : @609 (gas: 11)\n 15484: i32 a0 = a2 + 0x44\n 15487: a1 = u64 [0x20048]\n 15492: a3 = s1 + 0x20b8\n 15496: u64 [a3 + 1968] = 0\n 15500: u64 [a3 + 0x7c0] = a1\n 15504: a1 = 0x6869676800000000\n 15514: u64 [a3 + 0x7b8] = a1\n 15518: a1 = s1 + 0x2860\n 15522: u64 [a3 + 1960] = 0\n 15526: ra = 0x404\n 15530: jump @19\n      : @610 (gas: 9)\n 15533: u64 [a2 + 1216] = 0\n 15537: u64 [a2 + 1208] = 0\n 15541: u64 [a2 + 1200] = 0\n 15545: u64 [a2 + 1192] = 0\n 15549: a0 = s1 + 0x4000\n 15553: i32 a0 = a0 + 0xfffffffffffffd60\n 15557: ra = 0x260\n 15561: ecalli 17 // 'value_transferred'\n 15563: fallthrough\n      : @611 [@dyn 304] (gas: 10)\n 15564: a3 = s1 + 0x38b8\n 15568: a4 = a3 + 0x400\n 15572: a0 = u64 [a4 + 0xb8]\n 15576: a1 = u64 [a4 + 0xc0]\n 15580: a2 = u64 [a4 + 0xb0]\n 15584: a3 = u64 [a4 + 0xa8]\n 15588: a1 = a1 | a2\n 15591: a0 = a0 | a3\n 15594: a0 = a0 | a1\n 15597: jump @613 if a0 == 0\n      : @612 (gas: 1)\n 15600: jump @1229\n      : @613 (gas: 1)\n 15603: t0 = 610, jump @1994\n      : @614 [@dyn 305] (gas: 1)\n 15610: jump @616 if a1 <u a0\n      : @615 (gas: 1)\n 15613: jump @1230\n      : @616 (gas: 29)\n 15616: a0 = sp + 0xffffffffffffffe0\n 15619: a0 = a0 & 0xffffffffffffffe0\n 15622: u64 [s1 + 0x138] = a0\n 15626: sp = a0\n 15628: a0 = s1 + 0x4000\n 15632: i32 a0 = a0 + 0xfffffffffffffd80\n 15636: a1 = 0x4\n 15639: ecalli 4 // 'call_data_load'\n 15641: a1 = s1 + 0x38b8\n 15645: a0 = u64 [a1 + 0x4e0]\n 15649: u64 [s1 + 0x130] = a0\n 15653: a2 = u64 [a1 + 0x4d8]\n 15657: u64 [s1 + 0x128] = a2\n 15661: a3 = u64 [a1 + 0x4d0]\n 15665: u64 [s1 + 0x120] = a3\n 15669: a4 = u64 [a1 + 0x4c8]\n 15673: u64 [s1 + 0x118] = a4\n 15677: a5 = u64 [s1 + 0x138]\n 15681: u64 [a5 + 0x18] = a0\n 15684: u64 [a5 + 0x10] = a2\n 15687: u64 [a5 + 0x8] = a3\n 15690: u64 [a5] = a4\n 15692: u64 [a1 + 1280] = 0\n 15696: u64 [a1 + 1272] = 0\n 15700: u64 [a1 + 1264] = 0\n 15704: u64 [a1 + 1256] = 0x7\n 15709: a0 = s1 + 0x1ee0\n 15713: a1 = s1 + 0x3da0\n 15717: ra = 612, jump @21\n      : @617 [@dyn 306] (gas: 14)\n 15723: a0 = s1 + 0x18b8\n 15727: a1 = u64 [a0 + 0x630]\n 15731: u64 [s1 + 0x110] = a1\n 15735: a1 = u64 [a0 + 0x628]\n 15739: u64 [s1 + 0x108] = a1\n 15743: a0 = u32 [a0 + 0x638]\n 15747: u64 [s1 + 0x100] = a0\n 15751: a0 = 0x30270\n 15756: u64 [s1 + 0xf8] = a0\n 15760: i32 a0 = a0 + 0\n 15762: ra = 0x266\n 15766: ecalli 6 // 'caller'\n 15768: t0 = 0x268\n 15772: jump @1970\n      : @618 [@dyn 307] (gas: 1)\n 15776: t0 = 616, jump @1970\n      : @619 [@dyn 308] (gas: 9)\n 15783: a1 = s1 + 0x18b8\n 15787: u64 [a1 + 1568] = 0\n 15791: u64 [a1 + 1560] = 0\n 15795: u64 [a1 + 0x608] = a0\n 15799: a0 = s1 + 0x1ec0\n 15803: u64 [a1 + 1552] = 0\n 15807: ra = 0x26a\n 15811: t0 = 0x562\n 15815: jump @1953\n      : @620 [@dyn 309] (gas: 25)\n 15819: a1 = u64 [s1 + 0x118]\n 15823: a0 = a1 + 0xffffffffffffffef\n 15826: a1 = a0 <u a1\n 15829: a4 = u64 [s1 + 0x120]\n 15833: a2 = a4 + a1\n 15836: a2 = a2 + 0xffffffffffffffff\n 15839: a3 = a2 ^ a4\n 15842: a4 = a2 <u a4\n 15845: a4 = a1 if a3 == 0\n 15848: a3 = u64 [s1 + 0x128]\n 15852: a1 = a3 + 0xffffffffffffffff\n 15855: a4 = a4 + a1\n 15858: a1 = a4 <u a1\n 15861: a3 = a3 <u 0x1\n 15864: a5 = u64 [s1 + 0x130]\n 15868: a3 = a5 - a3\n 15871: a1 = a1 + a3\n 15874: a1 = a1 & a4\n 15877: a1 = a1 + 0x1\n 15880: a2 = a2 + 0x1\n 15883: a0 = a0 <u 0xfffffffffffffff1\n 15886: a0 = a0 ^ 0x1\n 15889: a0 = 0 if a2 != 0\n 15891: a0 = 0 if a1 != 0\n 15893: jump @622 if a0 == 0\n      : @621 (gas: 1)\n 15896: jump @1231\n      : @622 (gas: 3)\n 15899: a0 = s1 + 0x1ea0\n 15903: a1 = 0x40\n 15906: ra = 620, jump @17\n      : @623 [@dyn 310] (gas: 14)\n 15912: a3 = s1 + 0x18b8\n 15916: t0 = u64 [a3 + 0x600]\n 15920: a1 = a3 + 0x500\n 15924: a5 = u64 [a1 + 0xf8]\n 15928: a4 = u64 [a1 + 0xf0]\n 15932: a0 = u64 [a1 + 0xe8]\n 15936: a2 = a4 | t0\n 15939: a1 = a0 | a5\n 15942: a1 = a1 | a2\n 15945: a1 = a1 >> 0x20\n 15948: a2 = a2 | a5\n 15951: a2 = a2 << 0x20\n 15954: a1 = a1 | a2\n 15957: jump @625 if a1 == 0\n      : @624 (gas: 1)\n 15960: jump @1123\n      : @625 (gas: 12)\n 15963: a2 = a3\n 15965: u64 [a3 + 1496] = 0\n 15969: u64 [a3 + 1488] = 0\n 15973: u64 [a3 + 1480] = 0\n 15977: a3 = 0x8c379a000000000\n 15987: a1 = s1 + 0x1e80\n 15991: u64 [a2 + 0x5e0] = a3\n 15995: u64 [s1 + 0x138] = a0\n 15999: u64 [s1 + 0x130] = a4\n 16003: u64 [s1 + 0x120] = t0\n 16007: u64 [s1 + 0x128] = a5\n 16011: ra = 622, jump @19\n      : @626 [@dyn 311] (gas: 6)\n 16017: a5 = s1 + 0x100\n 16021: a1 = u64 [a5 + 0x38]\n 16024: a0 = u64 [a5 + 0x28]\n 16027: a3 = u64 [a5 + 0x20]\n 16030: a3 = a3 | a0\n 16033: t0 = 624, jump @1957\n      : @627 [@dyn 312] (gas: 1)\n 16040: jump @629 if a0 != 0\n      : @628 (gas: 1)\n 16043: jump @1123\n      : @629 (gas: 10)\n 16046: i32 a0 = a1 + 0x4\n 16049: a2 = s1 + 0x18b8\n 16053: u64 [a2 + 1472] = 0\n 16057: u64 [a2 + 1464] = 0\n 16061: u64 [a2 + 1448] = 0x20\n 16066: a1 = s1 + 0x1e60\n 16070: u64 [a2 + 1456] = 0\n 16074: u64 [s1 + 0x128] = a3\n 16078: u64 [s1 + 0x120] = a4\n 16082: ra = 626, jump @19\n      : @630 [@dyn 313] (gas: 1)\n 16088: t0 = 628, jump @1955\n      : @631 [@dyn 314] (gas: 1)\n 16095: jump @633 if a0 != 0\n      : @632 (gas: 1)\n 16098: jump @1123\n      : @633 (gas: 8)\n 16101: i32 a0 = a1 + 0x24\n 16104: a3 = s1 + 0x18b8\n 16108: u64 [a3 + 1440] = 0\n 16112: u64 [a3 + 1432] = 0\n 16116: u64 [a3 + 1416] = 0x13\n 16121: a1 = s1 + 0x1e40\n 16125: u64 [a3 + 1424] = 0\n 16129: ra = 630, jump @19\n      : @634 [@dyn 315] (gas: 1)\n 16135: t0 = 632, jump @1956\n      : @635 [@dyn 316] (gas: 1)\n 16142: jump @637 if a0 != 0\n      : @636 (gas: 1)\n 16145: jump @1123\n      : @637 (gas: 13)\n 16148: i32 a0 = a3 + 0x44\n 16151: a1 = u64 [0x20038]\n 16156: a2 = u64 [0x200a0]\n 16161: a4 = s1 + 0x18b8\n 16165: a3 = a4 + 0x500\n 16169: u64 [a3 + 0x80] = a1\n 16173: u64 [a3 + 0x78] = a2\n 16176: a1 = 0x6572730000000000\n 16186: u64 [a3 + 0x70] = a1\n 16189: a1 = s1 + 0x1e20\n 16193: u64 [a4 + 1384] = 0\n 16197: ra = 0x404\n 16201: jump @19\n      : @638 (gas: 10)\n 16204: u64 [a2 + 544] = 0\n 16208: u64 [a2 + 536] = 0\n 16212: u64 [a2 + 528] = 0\n 16216: u64 [a2 + 520] = 0\n 16220: a0 = s1 + 0x4000\n 16224: i32 a0 = a0 + 0xfffffffffffffac0\n 16228: ra = 0x27a\n 16232: ecalli 17 // 'value_transferred'\n 16234: t0 = 0x27c\n 16238: jump @2036\n      : @639 [@dyn 317] (gas: 1)\n 16242: t0 = 636, jump @2036\n      : @640 [@dyn 318] (gas: 1)\n 16249: t0 = 638, jump @2029\n      : @641 [@dyn 319] (gas: 1)\n 16256: jump @643 if a0 == 0\n      : @642 (gas: 1)\n 16259: jump @1233\n      : @643 (gas: 3)\n 16262: a0 = u64 [s1 + 0x138]\n 16266: a0 = i32 [a0]\n 16268: jump @645 if a0 >u 3\n      : @644 (gas: 1)\n 16272: jump @1234\n      : @645 (gas: 7)\n 16275: u64 [a4 + 576] = 0\n 16279: u64 [a4 + 568] = 0\n 16283: u64 [a4 + 560] = 0\n 16287: u64 [a4 + 552] = 0x4\n 16292: a0 = s1 + 0x1a00\n 16296: a1 = s1 + 0x3ae0\n 16300: ra = 640, jump @21\n      : @646 [@dyn 320] (gas: 14)\n 16306: a1 = s1 + 0x18b8\n 16310: a2 = a1 + 0x100\n 16314: a0 = u64 [a2 + 0x60]\n 16317: a1 = s1 + 0x100\n 16321: u64 [a1 + 0x38] = a0\n 16324: a0 = u64 [a2 + 0x58]\n 16327: u64 [a1 + 0x30] = a0\n 16330: a0 = u64 [a2 + 0x50]\n 16333: u64 [a1 + 0x28] = a0\n 16336: a0 = u64 [a2 + 0x48]\n 16339: u64 [a1 + 0x20] = a0\n 16342: a0 = s1 + 0x19e0\n 16346: a1 = 0x40\n 16349: ra = 642, jump @17\n      : @647 [@dyn 321] (gas: 7)\n 16355: a3 = s1 + 0x18b8\n 16359: a5 = a3 + 0x100\n 16363: a0 = u64 [a5 + 0x40]\n 16366: a1 = u64 [a5 + 0x38]\n 16369: a2 = u64 [a5 + 0x30]\n 16372: a4 = u64 [a5 + 0x28]\n 16375: t0 = 644, jump @1986\n      : @648 [@dyn 322] (gas: 1)\n 16382: jump @650 if a0 == 0\n      : @649 (gas: 1)\n 16385: jump @1123\n      : @650 (gas: 15)\n 16388: a2 = s1 + 0x100\n 16392: a0 = u64 [a2 + 0x20]\n 16395: a5 = a3 + 0x100\n 16399: u64 [a5 + 0x8] = a0\n 16402: a0 = u64 [a2 + 0x28]\n 16405: u64 [a5 + 0x10] = a0\n 16408: a0 = u64 [a2 + 0x30]\n 16411: u64 [a5 + 0x18] = a0\n 16414: a1 = s1 + 0x19c0\n 16418: a0 = u64 [a2 + 0x38]\n 16421: u64 [a5 + 0x20] = a0\n 16424: a0 = a4\n 16426: u64 [s1 + 0x138] = a4\n 16430: ra = 0x33c\n 16434: jump @19\n      : @651 (gas: 9)\n 16437: a0 = s1 + 0x38b8\n 16441: u64 [a0 + 1152] = 0\n 16445: u64 [a0 + 1144] = 0\n 16449: u64 [a0 + 1136] = 0\n 16453: u64 [a0 + 1128] = 0\n 16457: a0 = s1 + 0x4000\n 16461: i32 a0 = a0 + 0xfffffffffffffd20\n 16465: ecalli 17 // 'value_transferred'\n 16467: fallthrough\n      : @652 (gas: 10)\n 16468: a4 = s1 + 0x38b8\n 16472: a5 = a4 + 0x400\n 16476: a0 = u64 [a5 + 0x78]\n 16479: a1 = u64 [a5 + 0x80]\n 16483: a2 = u64 [a5 + 0x70]\n 16486: a3 = u64 [a5 + 0x68]\n 16489: a1 = a1 | a2\n 16492: a0 = a0 | a3\n 16495: a0 = a0 | a1\n 16498: jump @654 if a0 == 0\n      : @653 (gas: 1)\n 16501: jump @1235\n      : @654 (gas: 3)\n 16504: a0 = u64 [s1 + 0x138]\n 16508: a0 = i32 [a0]\n 16510: jump @656 if a0 >u 3\n      : @655 (gas: 1)\n 16514: jump @1236\n      : @656 (gas: 7)\n 16517: u64 [a4 + 1184] = 0\n 16521: u64 [a4 + 1176] = 0\n 16525: u64 [a4 + 1168] = 0\n 16529: u64 [a4 + 1160] = 0x7\n 16534: a0 = s1 + 0x1e00\n 16538: a1 = s1 + 0x3d40\n 16542: ra = 646, jump @21\n      : @657 [@dyn 323] (gas: 3)\n 16548: t0 = 0x288\n 16552: a1 = s1 + 0x18b8\n 16556: fallthrough\n      : @658 [@dyn 324] (gas: 11)\n 16557: a2 = a1 + 0x500\n 16561: a0 = u64 [a2 + 0x58]\n 16564: a1 = s1 + 0x100\n 16568: u64 [a1 + 0x28] = a0\n 16571: a0 = u64 [a2 + 0x50]\n 16574: u64 [a1 + 0x38] = a0\n 16577: a0 = u64 [a2 + 0x48]\n 16580: u64 [a1 + 0x30] = a0\n 16583: a0 = s1 + 0x1de0\n 16587: a1 = 0x40\n 16590: ra = 650, jump @17\n      : @659 [@dyn 325] (gas: 7)\n 16596: a3 = s1 + 0x18b8\n 16600: a5 = a3 + 0x500\n 16604: a4 = u64 [a5 + 0x40]\n 16607: a1 = u64 [a5 + 0x38]\n 16610: a2 = u64 [a5 + 0x30]\n 16613: a0 = u64 [a5 + 0x28]\n 16616: t0 = 652, jump @2000\n      : @660 [@dyn 326] (gas: 1)\n 16623: jump @662 if a1 == 0\n      : @661 (gas: 1)\n 16626: jump @1123\n      : @662 (gas: 15)\n 16629: a4 = s1 + 0x100\n 16633: a1 = u64 [a4 + 0x28]\n 16636: a1 = a1 << 0x20\n 16639: a2 = a1 >> 0x20\n 16642: u64 [a3 + 1312] = 0\n 16646: a1 = u64 [a4 + 0x30]\n 16649: a5 = a3 + 0x500\n 16653: u64 [a5 + 0x8] = a1\n 16656: a1 = u64 [a4 + 0x38]\n 16659: u64 [a5 + 0x10] = a1\n 16662: a1 = s1 + 0x1dc0\n 16666: u64 [a5 + 0x18] = a2\n 16669: u64 [s1 + 0x138] = a0\n 16673: ra = 0x33c\n 16677: jump @19\n      : @663 (gas: 11)\n 16680: u64 [a4 + 544] = 0\n 16684: u64 [a4 + 536] = 0\n 16688: u64 [a4 + 528] = 0\n 16692: u64 [a4 + 520] = 0\n 16696: a0 = s1 + 0x4000\n 16700: i32 a0 = a0 + 0x2c0\n 16704: ra = 0x28e\n 16708: ecalli 17 // 'value_transferred'\n 16710: a0 = 0x4000\n 16714: t0 = 0x290\n 16718: jump @2015\n      : @664 [@dyn 327] (gas: 2)\n 16722: a0 = 0x4000\n 16726: t0 = 656, jump @2015\n      : @665 [@dyn 328] (gas: 1)\n 16733: t0 = 658, jump @2029\n      : @666 [@dyn 329] (gas: 1)\n 16740: jump @668 if a0 == 0\n      : @667 (gas: 1)\n 16743: jump @1237\n      : @668 (gas: 3)\n 16746: a0 = u64 [s1 + 0x138]\n 16750: a0 = i32 [a0]\n 16752: jump @670 if a0 >u 3\n      : @669 (gas: 1)\n 16756: jump @1238\n      : @670 (gas: 7)\n 16759: u64 [a4 + 576] = 0\n 16763: u64 [a4 + 568] = 0\n 16767: u64 [a4 + 560] = 0\n 16771: u64 [a4 + 552] = 0x1\n 16776: a0 = s1 + 0x2fe0\n 16780: a1 = s1 + 0x42e0\n 16784: ra = 660, jump @21\n      : @671 [@dyn 330] (gas: 3)\n 16790: t0 = 0x296\n 16794: a1 = s1 + 0x28b8\n 16798: fallthrough\n      : @672 [@dyn 331] (gas: 13)\n 16799: a2 = a1 + 0x700\n 16803: a0 = u64 [a2 + 0x40]\n 16806: a1 = s1 + 0x100\n 16810: u64 [a1 + 0x38] = a0\n 16813: a0 = u64 [a2 + 0x38]\n 16816: u64 [a1 + 0x30] = a0\n 16819: a0 = u64 [a2 + 0x30]\n 16822: u64 [a1 + 0x28] = a0\n 16825: a0 = u64 [a2 + 0x28]\n 16828: u64 [a1 + 0x20] = a0\n 16831: a0 = s1 + 0x2fc0\n 16835: a1 = 0x40\n 16838: ra = 664, jump @17\n      : @673 [@dyn 332] (gas: 7)\n 16844: a3 = s1 + 0x28b8\n 16848: a5 = a3 + 0x700\n 16852: a0 = u64 [a5 + 0x20]\n 16855: a1 = u64 [a5 + 0x18]\n 16858: a2 = u64 [a5 + 0x10]\n 16861: a4 = u64 [a5 + 0x8]\n 16864: t0 = 666, jump @1986\n      : @674 [@dyn 333] (gas: 1)\n 16871: jump @676 if a0 == 0\n      : @675 (gas: 1)\n 16874: jump @1123\n      : @676 (gas: 15)\n 16877: a2 = s1 + 0x100\n 16881: a0 = u64 [a2 + 0x20]\n 16884: a1 = a3 + 0x600\n 16888: u64 [a1 + 0xe8] = a0\n 16892: a0 = u64 [a2 + 0x28]\n 16895: u64 [a1 + 0xf0] = a0\n 16899: a0 = u64 [a2 + 0x30]\n 16902: u64 [a1 + 0xf8] = a0\n 16906: a1 = s1 + 0x2fa0\n 16910: a0 = u64 [a2 + 0x38]\n 16913: u64 [a3 + 0x700] = a0\n 16917: a0 = a4\n 16919: u64 [s1 + 0x138] = a4\n 16923: ra = 0x33c\n 16927: jump @19\n      : @677 (gas: 9)\n 16930: u64 [a2 + 384] = 0\n 16934: u64 [a2 + 376] = 0\n 16938: u64 [a2 + 368] = 0\n 16942: u64 [a2 + 360] = 0\n 16946: a0 = s1 + 0x4000\n 16950: i32 a0 = a0 + 0xfffffffffffffa20\n 16954: ra = 0x29c\n 16958: ecalli 17 // 'value_transferred'\n 16960: fallthrough\n      : @678 [@dyn 334] (gas: 10)\n 16961: a3 = s1 + 0x38b8\n 16965: a4 = a3 + 0x100\n 16969: a0 = u64 [a4 + 0x78]\n 16972: a1 = u64 [a4 + 0x80]\n 16976: a2 = u64 [a4 + 0x70]\n 16979: a3 = u64 [a4 + 0x68]\n 16982: a1 = a1 | a2\n 16985: a0 = a0 | a3\n 16988: a0 = a0 | a1\n 16991: jump @680 if a0 == 0\n      : @679 (gas: 1)\n 16994: jump @1239\n      : @680 (gas: 1)\n 16997: t0 = 670, jump @1994\n      : @681 [@dyn 335] (gas: 1)\n 17004: jump @683 if a1 <u a0\n      : @682 (gas: 1)\n 17007: jump @1240\n      : @683 (gas: 18)\n 17010: a0 = s1 + 0x4000\n 17014: i32 a0 = a0 + 0xfffffffffffffa40\n 17018: a1 = 0x4\n 17021: ecalli 4 // 'call_data_load'\n 17023: a3 = s1 + 0x38b8\n 17027: a4 = a3 + 0x100\n 17031: a0 = u64 [a4 + 0x88]\n 17035: a1 = u64 [a4 + 0x90]\n 17039: a2 = u64 [a4 + 0x98]\n 17043: a3 = u64 [a4 + 0xa0]\n 17047: a4 = s1 + 0x18b8\n 17051: u64 [a4 + 0x100] = a3\n 17055: u64 [a4 + 0xf8] = a2\n 17059: u64 [a4 + 0xf0] = a1\n 17063: a1 = s1 + 0x19a0\n 17067: u64 [a4 + 0xe8] = a0\n 17071: a0 = 0\n 17073: ra = 672, jump @19\n      : @684 [@dyn 336] (gas: 3)\n 17079: t0 = 0x2a2\n 17083: a1 = s1 + 0x18b8\n 17087: fallthrough\n      : @685 [@dyn 337] (gas: 8)\n 17088: u64 [a1 + 224] = 0\n 17092: u64 [a1 + 216] = 0\n 17096: u64 [a1 + 200] = 0x3\n 17101: a2 = a1\n 17103: a0 = 0x20\n 17106: a1 = s1 + 0x1980\n 17110: u64 [a2 + 208] = 0\n 17114: ra = 676, jump @19\n      : @686 [@dyn 338] (gas: 2)\n 17120: a1 = i32 [0x2025c]\n 17125: jump @688 if a1 >u 63\n      : @687 (gas: 4)\n 17129: a1 = 0x40\n 17132: u32 [0x2025c] = a1\n 17137: t0 = 0x2a6\n 17141: jump @1975\n      : @688 (gas: 1)\n 17145: t0 = 678, jump @1975\n      : @689 [@dyn 339] (gas: 8)\n 17152: a0 = 0x20270\n 17157: i32 a0 = a0 + 0\n 17159: i32 a2 = a2 + 0\n 17161: a1 = 0x40\n 17164: ra = 0x2a8\n 17168: ecalli 9 // 'hash_keccak_256'\n 17170: t0 = 0x2aa\n 17174: jump @1982\n      : @690 [@dyn 340] (gas: 1)\n 17178: t0 = 682, jump @1982\n      : @691 [@dyn 341] (gas: 17)\n 17185: t0 = a0 + 0x11\n 17188: a1 = t0 <u a0\n 17191: a0 = a2 + a1\n 17194: a3 = a0 <u a2\n 17197: a3 = a1 if a1 == 0\n 17200: a3 = a3 + a5\n 17203: a1 = a3 <u a5\n 17206: a1 = a1 + a4\n 17209: a4 = s1 + 0x38b8\n 17213: u64 [a4 + 0x1a8] = t0\n 17217: a2 = a4 + 0x100\n 17221: u64 [a2 + 0xb0] = a0\n 17225: u64 [a2 + 0xb8] = a3\n 17229: u64 [a2 + 0xc0] = a1\n 17233: a0 = s1 + 0x1960\n 17237: a1 = s1 + 0x3a60\n 17241: ra = 684, jump @21\n      : @692 [@dyn 342] (gas: 14)\n 17247: a1 = s1 + 0x18b8\n 17251: a0 = u64 [a1 + 0xc0]\n 17255: u64 [s1 + 0x118] = a0\n 17259: a0 = u64 [a1 + 0xb8]\n 17263: u64 [s1 + 0x108] = a0\n 17267: a0 = u64 [a1 + 0xb0]\n 17271: u64 [s1 + 0x110] = a0\n 17275: a0 = u64 [a1 + 0xa8]\n 17279: u64 [s1 + 0x100] = a0\n 17283: a1 = u64 [s1 + 0x128]\n 17287: a0 = a1 + 0x12\n 17290: a1 = a0 <u a1\n 17293: a3 = u64 [s1 + 0x120]\n 17297: t0 = 686, jump @1991\n      : @693 [@dyn 343] (gas: 8)\n 17304: a5 = a4 + 0x100\n 17308: u64 [a5 + 0xe0] = a1\n 17312: u64 [a5 + 0xd8] = a3\n 17316: u64 [a5 + 0xd0] = a2\n 17320: u64 [a5 + 0xc8] = a0\n 17324: a0 = s1 + 0x1940\n 17328: a1 = s1 + 0x3a80\n 17332: ra = 688, jump @21\n      : @694 [@dyn 344] (gas: 10)\n 17338: a5 = s1 + 0x18b8\n 17342: a0 = u64 [a5 + 0xa0]\n 17346: u64 [s1 + 0xf8] = a0\n 17350: a0 = u64 [a5 + 0x98]\n 17354: u64 [s1 + 0xf0] = a0\n 17358: a1 = u64 [s1 + 0x128]\n 17362: a0 = a1 + 0x15\n 17365: a1 = a0 <u a1\n 17368: a3 = u64 [s1 + 0x120]\n 17372: t0 = 690, jump @1990\n      : @695 [@dyn 345] (gas: 18)\n 17379: a1 = u64 [a5 + 0x90]\n 17383: u64 [s1 + 0x128] = a1\n 17387: a1 = u64 [s1 + 0x130]\n 17391: a3 = a3 + a1\n 17394: a1 = a3 <u a1\n 17397: a4 = u64 [s1 + 0x138]\n 17401: a1 = a1 + a4\n 17404: a4 = u64 [a5 + 0x88]\n 17408: u64 [s1 + 0x120] = a4\n 17412: a4 = s1 + 0x38b8\n 17416: u64 [a4 + 0x200] = a1\n 17420: a1 = a4 + 0x100\n 17424: u64 [a1 + 0xf8] = a3\n 17428: u64 [a1 + 0xf0] = a2\n 17432: u64 [a1 + 0xe8] = a0\n 17436: a0 = s1 + 0x1920\n 17440: a1 = s1 + 0x3aa0\n 17444: ra = 692, jump @21\n      : @696 [@dyn 346] (gas: 3)\n 17450: t0 = 0x2b6\n 17454: a1 = s1 + 0x18b8\n 17458: fallthrough\n      : @697 [@dyn 347] (gas: 9)\n 17459: a0 = u64 [a1 + 0x78]\n 17462: u64 [s1 + 0xe0] = a0\n 17466: a0 = u64 [a1 + 0x70]\n 17469: u64 [s1 + 0xd8] = a0\n 17473: a0 = u64 [a1 + 0x68]\n 17476: u64 [s1 + 0xe8] = a0\n 17480: a0 = s1 + 0x1900\n 17484: a1 = 0x40\n 17487: ra = 696, jump @17\n      : @698 [@dyn 348] (gas: 13)\n 17493: a2 = s1 + 0x18b8\n 17497: t0 = u64 [a2 + 0x60]\n 17500: a5 = u64 [a2 + 0x58]\n 17503: a4 = u64 [a2 + 0x50]\n 17506: a0 = u64 [a2 + 0x48]\n 17509: a3 = a4 | t0\n 17512: a1 = a0 | a5\n 17515: a1 = a1 | a3\n 17518: a1 = a1 >> 0x20\n 17521: a3 = a3 | a5\n 17524: a3 = a3 << 0x20\n 17527: a1 = a1 | a3\n 17530: jump @700 if a1 == 0\n      : @699 (gas: 1)\n 17533: jump @1123\n      : @700 (gas: 14)\n 17536: a1 = u64 [s1 + 0x100]\n 17540: u64 [a2 + 0x28] = a1\n 17543: a1 = u64 [s1 + 0x110]\n 17547: u64 [a2 + 0x30] = a1\n 17550: a1 = u64 [s1 + 0x108]\n 17554: u64 [a2 + 0x38] = a1\n 17557: a1 = s1 + 0x18e0\n 17561: a3 = u64 [s1 + 0x118]\n 17565: u64 [a2 + 0x40] = a3\n 17568: u64 [s1 + 0x138] = a0\n 17572: u64 [s1 + 0x130] = a4\n 17576: u64 [s1 + 0xc8] = t0\n 17580: u64 [s1 + 0xd0] = a5\n 17584: ra = 698, jump @19\n      : @701 [@dyn 349] (gas: 11)\n 17590: a1 = u64 [s1 + 0x138]\n 17594: a0 = u64 [s1 + 0xd0]\n 17598: a3 = u64 [s1 + 0xc8]\n 17602: a3 = a3 | a0\n 17605: a4 = 0x100000000\n 17615: a0 = 0xffffffe0\n 17625: a0 = a1 <u a0\n 17628: a2 = u64 [s1 + 0x130]\n 17632: a0 = 0 if a2 != 0\n 17634: a0 = 0 if a3 != 0\n 17636: jump @703 if a0 != 0\n      : @702 (gas: 1)\n 17639: jump @1123\n      : @703 (gas: 15)\n 17642: i32 a0 = a1 + 0x20\n 17645: a1 = u64 [s1 + 0x120]\n 17649: a2 = s1 + 0x18b8\n 17653: u64 [s1 + 0xc8] = a4\n 17657: a4 = a2\n 17659: u64 [a2 + 0x8] = a1\n 17662: a1 = u64 [s1 + 0x128]\n 17666: u64 [a2 + 0x10] = a1\n 17669: a1 = u64 [s1 + 0xf0]\n 17673: u64 [a2 + 0x18] = a1\n 17676: a1 = s1 + 0x18c0\n 17680: a2 = u64 [s1 + 0xf8]\n 17684: u64 [a4 + 0x20] = a2\n 17687: u64 [s1 + 0xd0] = a3\n 17691: ra = 700, jump @19\n      : @704 [@dyn 350] (gas: 9)\n 17697: a2 = u64 [s1 + 0x138]\n 17701: a0 = u64 [s1 + 0xc8]\n 17705: a0 = a0 + 0xffffffffffffffc0\n 17708: a0 = a2 <u a0\n 17711: a1 = u64 [s1 + 0x130]\n 17715: a0 = 0 if a1 != 0\n 17717: a1 = u64 [s1 + 0xd0]\n 17721: a0 = 0 if a1 != 0\n 17723: jump @706 if a0 != 0\n      : @705 (gas: 1)\n 17726: jump @1123\n      : @706 (gas: 17)\n 17729: a0 = u64 [s1 + 0x100]\n 17733: a0 = a0 ^ 0x10\n 17736: a1 = u64 [s1 + 0x108]\n 17740: a0 = a0 | a1\n 17743: a1 = u64 [s1 + 0x118]\n 17747: a3 = u64 [s1 + 0x110]\n 17751: a1 = a1 | a3\n 17754: a0 = a0 | a1\n 17757: a1 = a0 <u 0x1\n 17760: i32 a0 = a2 + 0x40\n 17763: a2 = s1 + 0x18b8\n 17767: u64 [a2 + 0] = 0\n 17769: u64 [a2 + 4294967288] = 0\n 17772: u64 [a2 + 0xffffffffffffffe8] = a1\n 17775: a1 = s1 + 0x18a0\n 17779: u64 [a2 + 4294967280] = 0\n 17782: ra = 702, jump @19\n      : @707 [@dyn 351] (gas: 9)\n 17788: a4 = u64 [s1 + 0xd0]\n 17792: a3 = u64 [s1 + 0x130]\n 17796: a2 = u64 [s1 + 0x138]\n 17800: a1 = 0x100000000\n 17810: a0 = 0xffffffa0\n 17820: a0 = a2 <u a0\n 17823: a0 = 0 if a3 != 0\n 17825: a0 = 0 if a4 != 0\n 17827: jump @709 if a0 != 0\n      : @708 (gas: 1)\n 17830: jump @1123\n      : @709 (gas: 11)\n 17833: a0 = u8 [s1 + 0xe8]\n 17837: u64 [s1 + 0x128] = a1\n 17841: a1 = a0 >u 0\n 17843: i32 a0 = a2 + 0x60\n 17846: a2 = s1 + 0x10b8\n 17850: u64 [a2 + 2016] = 0\n 17854: u64 [a2 + 2008] = 0\n 17858: u64 [a2 + 0x7c8] = a1\n 17862: a1 = s1 + 0x1880\n 17866: u64 [a2 + 2000] = 0\n 17870: ra = 704, jump @19\n      : @710 [@dyn 352] (gas: 10)\n 17876: a2 = s1 + 0x100\n 17880: a4 = u64 [a2 + 0x38]\n 17883: a0 = u64 [a2 + 0x28]\n 17886: a0 = a0 + 0xffffffffffffff80\n 17889: a0 = a4 <u a0\n 17892: a1 = u64 [a2 + 0x30]\n 17895: a0 = 0 if a1 != 0\n 17897: a1 = u64 [s1 + 0xd0]\n 17901: a0 = 0 if a1 != 0\n 17903: jump @712 if a0 != 0\n      : @711 (gas: 1)\n 17906: jump @1123\n      : @712 (gas: 20)\n 17909: a5 = u64 [s1 + 0xd8]\n 17913: a0 = a5 >> 0x8\n 17916: a3 = u64 [s1 + 0xe0]\n 17920: a1 = a3 << 0x38\n 17923: a2 = a0 | a1\n 17926: a0 = u64 [s1 + 0xe8]\n 17930: a0 = a0 >> 0x8\n 17933: a1 = a5 << 0x38\n 17936: a1 = a1 | a0\n 17939: a0 = a3 << 0x18\n 17942: a3 = a0 >> 0x20\n 17945: i32 a0 = a4 + 0x80\n 17949: a5 = s1 + 0x10b8\n 17953: u64 [a5 + 1984] = 0\n 17957: a4 = a5 + 0x700\n 17961: u64 [a4 + 0xa8] = a1\n 17965: u64 [a4 + 0xb8] = a3\n 17969: a1 = s1 + 0x1860\n 17973: u64 [a4 + 0xb0] = a2\n 17977: ra = 706, jump @19\n      : @713 [@dyn 353] (gas: 3)\n 17983: a1 = 0xa0\n 17987: a0 = u64 [s1 + 0x138]\n 17991: ra = 708, jump @32\n      : @714 [@dyn 354] (gas: 7)\n 17997: i32 a1 = a0 + 0\n 17999: a2 = 0xa0\n 18003: a0 = 0\n 18005: ra = 0x340\n 18009: ecalli 14 // 'seal_return'\n 18011: t0 = 0x342\n 18015: jump @1994\n      : @715 (gas: 9)\n 18019: u64 [a2 + 1984] = 0\n 18023: u64 [a2 + 1976] = 0\n 18027: u64 [a2 + 1968] = 0\n 18031: u64 [a2 + 1960] = 0\n 18035: a0 = s1 + 0x4000\n 18039: i32 a0 = a0 + 0x60\n 18042: ra = 0x2c6\n 18046: ecalli 17 // 'value_transferred'\n 18048: fallthrough\n      : @716 [@dyn 355] (gas: 10)\n 18049: a4 = s1 + 0x38b8\n 18053: a5 = a4 + 0x700\n 18057: a0 = u64 [a5 + 0xb8]\n 18061: a1 = u64 [a5 + 0xc0]\n 18065: a2 = u64 [a5 + 0xb0]\n 18069: a3 = u64 [a5 + 0xa8]\n 18073: a1 = a1 | a2\n 18076: a0 = a0 | a3\n 18079: a0 = a0 | a1\n 18082: jump @718 if a0 == 0\n      : @717 (gas: 1)\n 18085: jump @1241\n      : @718 (gas: 1)\n 18088: t0 = 712, jump @1994\n      : @719 [@dyn 356] (gas: 1)\n 18095: jump @721 if a1 <u a0\n      : @720 (gas: 1)\n 18098: jump @1242\n      : @721 (gas: 7)\n 18101: u64 [a4 + 2016] = 0\n 18105: u64 [a4 + 2008] = 0\n 18109: u64 [a4 + 2000] = 0\n 18113: u64 [a4 + 1992] = 0x7\n 18118: a0 = s1 + 0x2840\n 18122: a1 = s1 + 0x4080\n 18126: ra = 714, jump @21\n      : @722 [@dyn 357] (gas: 2)\n 18132: a0 = 0x2000\n 18136: t0 = 716, jump @2003\n      : @723 [@dyn 358] (gas: 6)\n 18143: a0 = 0x30270\n 18148: u64 [s1 + 0x120] = a0\n 18152: i32 a0 = a0 + 0\n 18154: ra = 0x2ce\n 18158: ecalli 6 // 'caller'\n 18160: fallthrough\n      : @724 [@dyn 359] (gas: 3)\n 18161: a5 = s1 + 0x100\n 18165: a2 = u64 [a5 + 0x20]\n 18168: t0 = 720, jump @1961\n      : @725 [@dyn 360] (gas: 18)\n 18175: a2 = u64 [a5 + 0x28]\n 18178: a1 = a1 ^ a2\n 18181: a2 = u64 [a5 + 0x30]\n 18184: a0 = a0 ^ a2\n 18187: a0 = a0 | a1\n 18190: a1 = u64 [a5 + 0x38]\n 18193: a1 = a1 ^ a3\n 18196: a0 = a0 | a1\n 18199: a0 = a0 <u 0x1\n 18202: a1 = s1 + 0x20b8\n 18206: u64 [a1 + 1920] = 0\n 18210: u64 [a1 + 1912] = 0\n 18214: u64 [a1 + 0x768] = a0\n 18218: a0 = s1 + 0x2820\n 18222: u64 [a1 + 1904] = 0\n 18226: ra = 0x2d2\n 18230: t0 = 0x562\n 18234: jump @1953\n      : @726 [@dyn 361] (gas: 8)\n 18238: a1 = s1 + 0x40b8\n 18242: u64 [a1 + 0] = 0\n 18244: u64 [a1 + 4294967288] = 0\n 18247: u64 [a1 + 4294967280] = 0\n 18250: u64 [a1 + 4294967272] = 0x4\n 18254: a0 = s1 + 0x2800\n 18258: a1 = s1 + 0x40a0\n 18262: ra = 724, jump @21\n      : @727 [@dyn 362] (gas: 3)\n 18268: t0 = 0x2d6\n 18272: a4 = s1 + 0x20b8\n 18276: fallthrough\n      : @728 [@dyn 363] (gas: 12)\n 18277: a5 = a4 + 0x700\n 18281: a0 = u64 [a5 + 0x48]\n 18284: a1 = u64 [a5 + 0x50]\n 18287: a2 = u64 [a5 + 0x58]\n 18290: a3 = u64 [a5 + 0x60]\n 18293: u64 [a5 + 0x40] = a3\n 18296: u64 [a5 + 0x38] = a2\n 18299: u64 [a5 + 0x30] = a1\n 18302: a1 = s1 + 0x27e0\n 18306: u64 [a5 + 0x28] = a0\n 18309: a0 = 0\n 18311: ra = 728, jump @19\n      : @729 [@dyn 364] (gas: 9)\n 18317: a1 = s1 + 0x20b8\n 18321: u64 [a1 + 1824] = 0\n 18325: u64 [a1 + 1816] = 0\n 18329: u64 [a1 + 1800] = 0x3\n 18334: a2 = a1\n 18336: a0 = 0x20\n 18339: a1 = s1 + 0x27c0\n 18343: u64 [a2 + 1808] = 0\n 18347: ra = 730, jump @19\n      : @730 [@dyn 365] (gas: 2)\n 18353: a1 = i32 [0x2025c]\n 18358: jump @732 if a1 >u 63\n      : @731 (gas: 4)\n 18362: a1 = 0x40\n 18365: u32 [0x2025c] = a1\n 18370: t0 = 0x2dc\n 18374: jump @1975\n      : @732 (gas: 1)\n 18378: t0 = 732, jump @1975\n      : @733 [@dyn 366] (gas: 8)\n 18385: a0 = 0x20270\n 18390: i32 a0 = a0 + 0\n 18392: i32 a2 = a2 + 0\n 18394: a1 = 0x40\n 18397: u64 [s1 + 0x130] = a0\n 18401: ra = 0x2de\n 18405: ecalli 9 // 'hash_keccak_256'\n 18407: fallthrough\n      : @734 [@dyn 367] (gas: 6)\n 18408: a3 = u64 [s1 + 0x138]\n 18412: a0 = u64 [a3]\n 18414: a1 = u64 [a3 + 0x8]\n 18417: a2 = u64 [a3 + 0x10]\n 18420: a3 = u64 [a3 + 0x18]\n 18423: t0 = 736, jump @2012\n      : @735 [@dyn 368] (gas: 16)\n 18430: a4 = a3 + 0x11\n 18433: a3 = a4 <u a3\n 18436: a5 = a2 + a3\n 18439: a2 = a5 <u a2\n 18442: a2 = a3 if a3 == 0\n 18445: a2 = a2 + a1\n 18448: a1 = a2 <u a1\n 18451: a0 = a0 + a1\n 18454: a1 = s1 + 0x40b8\n 18458: u64 [a1 + 0x8] = a4\n 18461: u64 [a1 + 0x10] = a5\n 18464: u64 [a1 + 0x18] = a2\n 18467: u64 [a1 + 0x20] = a0\n 18470: a0 = s1 + 0x27a0\n 18474: a1 = s1 + 0x40c0\n 18478: ra = 738, jump @21\n      : @736 [@dyn 369] (gas: 10)\n 18484: a3 = s1 + 0x20b8\n 18488: a4 = a3 + 0x600\n 18492: a0 = u64 [a4 + 0xf8]\n 18496: a1 = u64 [a3 + 0x700]\n 18500: a2 = u64 [a4 + 0xf0]\n 18504: a3 = u64 [a4 + 0xe8]\n 18508: a1 = a1 | a2\n 18511: a0 = a0 | a3\n 18514: a0 = a0 | a1\n 18517: jump @738 if a0 != 0\n      : @737 (gas: 1)\n 18520: jump @1243\n      : @738 (gas: 3)\n 18523: a0 = s1 + 0x2780\n 18527: a1 = 0x40\n 18530: ra = 740, jump @17\n      : @739 [@dyn 370] (gas: 2)\n 18536: a4 = s1 + 0x20b8\n 18540: fallthrough\n      : @740 (gas: 13)\n 18541: t0 = u64 [a4 + 0x6e0]\n 18545: a1 = a4 + 0x600\n 18549: a5 = u64 [a1 + 0xd8]\n 18553: a3 = u64 [a1 + 0xd0]\n 18557: a0 = u64 [a1 + 0xc8]\n 18561: a2 = a3 | t0\n 18564: a1 = a0 | a5\n 18567: a1 = a1 | a2\n 18570: a1 = a1 >> 0x20\n 18573: a2 = a2 | a5\n 18576: a2 = a2 << 0x20\n 18579: a1 = a1 | a2\n 18582: jump @742 if a1 == 0\n      : @741 (gas: 1)\n 18585: jump @1123\n      : @742 (gas: 11)\n 18588: u64 [a4 + 1720] = 0\n 18592: u64 [a4 + 1712] = 0\n 18596: u64 [a4 + 1704] = 0\n 18600: u64 [s1 + 0x130] = a3\n 18604: a3 = 0x8c379a000000000\n 18614: a1 = s1 + 0x2760\n 18618: u64 [a4 + 0x6c0] = a3\n 18622: u64 [s1 + 0x138] = a0\n 18626: u64 [s1 + 0x128] = t0\n 18630: u64 [s1 + 0x120] = a5\n 18634: ra = 742, jump @19\n      : @743 [@dyn 371] (gas: 6)\n 18640: a5 = s1 + 0x100\n 18644: a1 = u64 [a5 + 0x38]\n 18647: a0 = u64 [a5 + 0x28]\n 18650: a3 = u64 [a5 + 0x20]\n 18653: a3 = a3 | a0\n 18656: t0 = 744, jump @1957\n      : @744 [@dyn 372] (gas: 1)\n 18663: jump @746 if a0 != 0\n      : @745 (gas: 1)\n 18666: jump @1123\n      : @746 (gas: 1)\n 18669: t0 = 746, jump @2028\n      : @747 [@dyn 373] (gas: 8)\n 18676: u64 [a2 + 1696] = 0\n 18680: u64 [a2 + 1688] = 0\n 18684: u64 [a2 + 1672] = 0x20\n 18689: a1 = s1 + 0x2740\n 18693: u64 [a2 + 1680] = 0\n 18697: u64 [s1 + 0x128] = a3\n 18701: u64 [s1 + 0x120] = a4\n 18705: ra = 748, jump @19\n      : @748 [@dyn 374] (gas: 1)\n 18711: t0 = 750, jump @1955\n      : @749 [@dyn 375] (gas: 1)\n 18718: jump @751 if a0 != 0\n      : @750 (gas: 1)\n 18721: jump @1123\n      : @751 (gas: 8)\n 18724: i32 a0 = a1 + 0x24\n 18727: a3 = s1 + 0x20b8\n 18731: u64 [a3 + 1664] = 0\n 18735: u64 [a3 + 1656] = 0\n 18739: u64 [a3 + 1640] = 0x10\n 18744: a1 = s1 + 0x2720\n 18748: u64 [a3 + 1648] = 0\n 18752: ra = 752, jump @19\n      : @752 [@dyn 376] (gas: 1)\n 18758: t0 = 754, jump @1956\n      : @753 [@dyn 377] (gas: 1)\n 18765: jump @755 if a0 != 0\n      : @754 (gas: 1)\n 18768: jump @1123\n      : @755 (gas: 11)\n 18771: i32 a0 = a3 + 0x44\n 18774: a1 = u64 [0x20050]\n 18779: a2 = u64 [0x20058]\n 18784: a4 = s1 + 0x20b8\n 18788: u64 [a4 + 0x660] = a1\n 18792: u64 [a4 + 1616] = 0\n 18796: u64 [a4 + 0x658] = a2\n 18800: a1 = s1 + 0x2700\n 18804: u64 [a4 + 1608] = 0\n 18808: ra = 0x404\n 18812: jump @19\n      : @756 (gas: 11)\n 18815: u64 [a3 + 608] = 0\n 18819: u64 [a3 + 600] = 0\n 18823: u64 [a3 + 592] = 0\n 18827: u64 [a3 + 584] = 0\n 18831: a0 = s1 + 0x3000\n 18835: i32 a0 = a0 + 0x300\n 18839: ra = 0x2f4\n 18843: ecalli 17 // 'value_transferred'\n 18845: a0 = 0x3000\n 18849: t0 = 0x2f6\n 18853: jump @2015\n      : @757 [@dyn 378] (gas: 2)\n 18857: a0 = 0x3000\n 18861: t0 = 758, jump @2015\n      : @758 [@dyn 379] (gas: 8)\n 18868: a0 = u64 [a5 + 0x58]\n 18871: a1 = u64 [a5 + 0x60]\n 18874: a2 = u64 [a5 + 0x50]\n 18877: a3 = u64 [a5 + 0x48]\n 18880: a1 = a1 | a2\n 18883: a0 = a0 | a3\n 18886: a0 = a0 | a1\n 18889: jump @760 if a0 == 0\n      : @759 (gas: 1)\n 18892: jump @1245\n      : @760 (gas: 3)\n 18895: a0 = u64 [s1 + 0x138]\n 18899: a0 = i32 [a0]\n 18901: jump @762 if a0 >u 3\n      : @761 (gas: 1)\n 18905: jump @1246\n      : @762 (gas: 7)\n 18908: u64 [a4 + 640] = 0\n 18912: u64 [a4 + 632] = 0\n 18916: u64 [a4 + 624] = 0\n 18920: u64 [a4 + 616] = 0x2\n 18925: a0 = s1 + 0x3e0\n 18929: a1 = s1 + 0x3320\n 18933: ra = 760, jump @21\n      : @763 [@dyn 380] (gas: 12)\n 18939: a0 = u64 [s1 + 0x3f8]\n 18943: a1 = s1 + 0x100\n 18947: u64 [a1 + 0x38] = a0\n 18950: a0 = u64 [s1 + 0x3f0]\n 18954: u64 [a1 + 0x30] = a0\n 18957: a0 = u64 [s1 + 0x3e8]\n 18961: u64 [a1 + 0x28] = a0\n 18964: a0 = u64 [s1 + 0x3e0]\n 18968: u64 [a1 + 0x20] = a0\n 18971: a0 = s1 + 0x3c0\n 18975: a1 = 0x40\n 18978: ra = 762, jump @17\n      : @764 [@dyn 381] (gas: 13)\n 18984: a4 = s1 + 0x300\n 18988: a0 = u64 [a4 + 0xd8]\n 18992: a1 = u64 [a4 + 0xd0]\n 18996: a2 = u64 [a4 + 0xc8]\n 19000: a3 = u64 [a4 + 0xc0]\n 19004: a0 = a0 | a2\n 19007: a2 = a3 | a1\n 19010: a2 = a2 | a0\n 19013: a2 = a2 >> 0x20\n 19016: a0 = a0 | a1\n 19019: a0 = a0 << 0x20\n 19022: a0 = a0 | a2\n 19025: jump @766 if a0 == 0\n      : @765 (gas: 1)\n 19028: jump @1123\n      : @766 (gas: 15)\n 19031: a2 = s1 + 0x100\n 19035: a0 = u64 [a2 + 0x20]\n 19038: a4 = s1 + 0x300\n 19042: u64 [a4 + 0xa0] = a0\n 19046: a0 = u64 [a2 + 0x28]\n 19049: u64 [a4 + 0xa8] = a0\n 19053: a0 = u64 [a2 + 0x30]\n 19056: u64 [a4 + 0xb0] = a0\n 19060: a1 = s1 + 0x3a0\n 19064: a0 = u64 [a2 + 0x38]\n 19067: u64 [a4 + 0xb8] = a0\n 19071: a0 = a3\n 19073: u64 [a2 + 0x38] = a3\n 19076: ra = 0x33c\n 19080: jump @19\n      : @767 (gas: 1)\n 19083: t0 = 764, jump @1994\n      : @768 [@dyn 382] (gas: 1)\n 19090: jump @770 if a1 <u a0\n      : @769 (gas: 1)\n 19093: jump @1247\n      : @770 (gas: 5)\n 19096: a0 = s1 + 0x3000\n 19100: i32 a0 = a0 + 0x380\n 19104: a1 = 0x4\n 19107: ecalli 4 // 'call_data_load'\n 19109: fallthrough\n      : @771 (gas: 9)\n 19110: a2 = s1 + 0x30b8\n 19114: a0 = a2 + 0x200\n 19118: a5 = u64 [a0 + 0xe0]\n 19122: a3 = u64 [a0 + 0xd8]\n 19126: a4 = u64 [a0 + 0xd0]\n 19130: a0 = a3 | a5\n 19133: a1 = a4 <u 0x1\n 19136: a1 = 0 if a0 != 0\n 19138: jump @773 if a1 != 0\n      : @772 (gas: 1)\n 19141: jump @1248\n      : @773 (gas: 19)\n 19144: a1 = u64 [a2 + 0x2c8]\n 19148: a0 = u64 [s1 + 0x138]\n 19152: t2 = u32 [a0]\n 19154: a0 = a1 + 0x23\n 19157: a2 = a0 <u a1\n 19160: t1 = a4 + a2\n 19163: u64 [s1 + 0x120] = a4\n 19167: a4 = t1 <u a4\n 19170: a4 = a2 if a2 == 0\n 19173: a4 = a4 + a3\n 19176: u64 [s1 + 0x128] = a3\n 19180: a2 = a4 <u a3\n 19183: u64 [s1 + 0x130] = a5\n 19187: a2 = a2 + a5\n 19190: a2 = a2 | a4\n 19193: a0 = a0 <u t2\n 19196: a0 = 0 if t1 != 0\n 19198: a0 = 0 if a2 != 0\n 19200: jump @775 if a0 != 0\n      : @774 (gas: 1)\n 19203: jump @1249\n      : @775 (gas: 6)\n 19206: u64 [s1 + 0xf0] = a1\n 19210: i32 a1 = a1 + 0x4\n 19213: a0 = s1 + 0x3000\n 19217: i32 a0 = a0 + 0x3a0\n 19221: ecalli 4 // 'call_data_load'\n 19223: fallthrough\n      : @776 (gas: 9)\n 19224: a2 = s1 + 0x30b8\n 19228: t2 = u64 [a2 + 0x300]\n 19232: a0 = u64 [a2 + 0x2f8]\n 19236: ra = u64 [a2 + 0x2f0]\n 19240: u64 [s1 + 0x118] = a0\n 19244: a0 = a0 | t2\n 19247: a1 = ra <u 0x1\n 19250: a1 = 0 if a0 != 0\n 19252: jump @778 if a1 != 0\n      : @777 (gas: 1)\n 19255: jump @1250\n      : @778 (gas: 57)\n 19258: a5 = u64 [a2 + 0x2e8]\n 19262: a0 = u64 [s1 + 0xf0]\n 19266: a3 = a0 + 0x24\n 19269: a2 = a3 <u a0\n 19272: t1 = u64 [s1 + 0x120]\n 19276: a0 = t1 + a2\n 19279: a4 = a5 >> 0x3b\n 19282: a1 = ra << 0x5\n 19285: a4 = a4 | a1\n 19288: u64 [s1 + 0x100] = a5\n 19292: a1 = a5 << 0x5\n 19295: t0 = a0 + a4\n 19298: a1 = a1 + a3\n 19301: u64 [s1 + 0xf8] = a3\n 19305: a4 = a1 <u a3\n 19308: t0 = t0 + a4\n 19311: a5 = t0 ^ a0\n 19314: a3 = t0 <u a0\n 19317: a3 = a4 if a5 == 0\n 19320: u64 [s1 + 0xf0] = a0\n 19324: a4 = a0 <u t1\n 19327: a4 = a2 if a2 == 0\n 19330: a2 = u64 [s1 + 0x128]\n 19334: a0 = a2 + a4\n 19337: a2 = a0 <u a2\n 19340: a4 = u64 [s1 + 0x130]\n 19344: a2 = a2 + a4\n 19347: t1 = u64 [s1 + 0x118]\n 19351: a5 = t1 >> 0x3b\n 19354: a4 = t2 << 0x5\n 19357: u64 [s1 + 0x110] = t2\n 19361: t2 = a4 | a5\n 19364: a4 = ra >> 0x3b\n 19367: a5 = t1 << 0x5\n 19370: a4 = a4 | a5\n 19373: a4 = a4 + a0\n 19376: u64 [s1 + 0xe0] = a2\n 19380: a2 = a2 + t2\n 19383: u64 [s1 + 0xe8] = a0\n 19387: a5 = a4 <u a0\n 19390: a2 = a2 + a5\n 19393: a5 = u64 [s1 + 0x138]\n 19397: a5 = u32 [a5]\n 19399: a3 = a3 + a4\n 19402: a4 = a3 <u a4\n 19405: a2 = a2 + a4\n 19408: a1 = a5 <u a1\n 19411: a4 = t0 <u 0x1\n 19414: a1 = a1 ^ 0x1\n 19417: a1 = a4 if t0 != 0\n 19420: a0 = a2 <u 0x1\n 19423: a4 = a3 <u 0x1\n 19426: a4 = a0 if a2 != 0\n 19429: a2 = a2 | a3\n 19432: a1 = a4 if a2 != 0\n 19435: u64 [s1 + 0x108] = ra\n 19439: jump @780 if a1 != 0\n      : @779 (gas: 1)\n 19442: jump @1251\n      : @780 (gas: 8)\n 19445: a1 = s1 + 0x30b8\n 19449: u64 [a1 + 800] = 0\n 19453: u64 [a1 + 792] = 0\n 19457: u64 [a1 + 784] = 0\n 19461: u64 [a1 + 776] = 0x8\n 19466: a0 = s1 + 0x1080\n 19470: a1 = s1 + 0x33c0\n 19474: ra = 766, jump @21\n      : @781 [@dyn 383] (gas: 12)\n 19480: a1 = s1 + 0x7ff\n 19484: a1 = a1 + 0xb9\n 19488: a0 = u8 [a1 + 0x7dc]\n 19492: a0 = a0 <u 0x1\n 19495: u64 [a1 + 1984] = 0\n 19499: u64 [a1 + 1976] = 0\n 19503: u64 [a1 + 0x7a8] = a0\n 19507: a0 = s1 + 0x1060\n 19511: u64 [a1 + 1968] = 0\n 19515: ra = 0x300\n 19519: t0 = 0x58e\n 19523: jump @1953\n      : @782 [@dyn 384] (gas: 11)\n 19527: a0 = s1 + 0x30b8\n 19531: u64 [a0 + 832] = 0\n 19535: a0 = s1 + 0x30b8\n 19539: u64 [a0 + 824] = 0\n 19543: a0 = s1 + 0x30b8\n 19547: u64 [a0 + 816] = 0\n 19551: a0 = s1 + 0x30b8\n 19555: u64 [a0 + 808] = 0x9\n 19560: a0 = s1 + 0x1040\n 19564: a1 = s1 + 0x33e0\n 19568: ra = 770, jump @21\n      : @783 [@dyn 385] (gas: 8)\n 19574: a4 = s1 + 0x7ff\n 19578: a4 = a4 + 0xb9\n 19582: a5 = a4 + 0x700\n 19586: a0 = u64 [a5 + 0xa0]\n 19590: a1 = u64 [a5 + 0x90]\n 19594: a2 = u64 [a5 + 0x88]\n 19598: a3 = u64 [a5 + 0x98]\n 19602: t0 = 772, jump @2011\n      : @784 [@dyn 386] (gas: 8)\n 19609: u64 [a4 + 1920] = 0\n 19613: u64 [a4 + 1912] = 0\n 19617: u64 [a5 + 0x68] = a0\n 19620: a0 = s1 + 0x1020\n 19624: u64 [a4 + 1904] = 0\n 19628: ra = 0x306\n 19632: t0 = 0x5b0\n 19636: jump @1953\n      : @785 [@dyn 387] (gas: 19)\n 19640: a0 = s1 + 0x30b8\n 19644: u64 [a0 + 864] = 0\n 19648: a0 = s1 + 0x30b8\n 19652: u64 [a0 + 856] = 0\n 19656: a0 = s1 + 0x30b8\n 19660: u64 [a0 + 848] = 0\n 19664: a0 = s1 + 0x30b8\n 19668: u64 [a0 + 840] = 0x9\n 19673: a0 = s1 + 0x30b8\n 19677: u64 [a0 + 896] = 0\n 19681: a0 = s1 + 0x30b8\n 19685: u64 [a0 + 888] = 0\n 19689: a0 = s1 + 0x30b8\n 19693: u64 [a0 + 880] = 0\n 19697: a1 = s1 + 0x30b8\n 19701: u64 [a1 + 872] = 0x2\n 19706: a0 = s1 + 0x3400\n 19710: a1 = s1 + 0x3420\n 19714: ra = 776, jump @25\n      : @786 [@dyn 388] (gas: 11)\n 19720: a0 = s1 + 0x30b8\n 19724: u64 [a0 + 928] = 0\n 19728: a0 = s1 + 0x30b8\n 19732: u64 [a0 + 920] = 0\n 19736: a0 = s1 + 0x30b8\n 19740: u64 [a0 + 912] = 0\n 19744: a0 = s1 + 0x30b8\n 19748: u64 [a0 + 904] = 0\n 19752: a0 = s1 + 0x1000\n 19756: a1 = s1 + 0x3440\n 19760: ra = 778, jump @21\n      : @787 [@dyn 389] (gas: 26)\n 19766: a5 = s1 + 0x7ff\n 19770: a5 = a5 + 0xb9\n 19774: a3 = u64 [a5 + 0x748]\n 19778: a0 = u64 [a5 + 0x750]\n 19782: a1 = u64 [a5 + 0x758]\n 19786: a2 = u64 [a5 + 0x760]\n 19790: a4 = u64 [s1 + 0x110]\n 19794: u64 [a5 + 0x700] = a4\n 19798: a4 = u64 [s1 + 0x118]\n 19802: u64 [a5 + 0x6f8] = a4\n 19806: a4 = u64 [s1 + 0x108]\n 19810: u64 [a5 + 0x6f0] = a4\n 19814: a4 = u64 [s1 + 0x100]\n 19818: u64 [a5 + 0x6e8] = a4\n 19822: a4 = a5 + 0x700\n 19826: u64 [a4 + 0x20] = a2\n 19829: u64 [a4 + 0x18] = a1\n 19832: u64 [a4 + 0x10] = a0\n 19835: a0 = s1 + 0x7ff\n 19839: a0 = a0 + 0x7e1\n 19843: a1 = s1 + 0x7ff\n 19847: a1 = a1 + 0x7c1\n 19851: a2 = s1 + 0x7ff\n 19855: a2 = a2 + 0x7a1\n 19859: u64 [a4 + 0x8] = a3\n 19862: ra = 780, jump @1394\n      : @788 [@dyn 390] (gas: 23)\n 19868: a1 = s1 + 0x7ff\n 19872: a1 = a1 + 0xb9\n 19876: a2 = a1 + 0x700\n 19880: a0 = u64 [a2 + 0x28]\n 19883: u64 [s1 + 0x138] = a0\n 19887: a0 = u64 [a2 + 0x38]\n 19890: u64 [s1 + 0x130] = a0\n 19894: a0 = u64 [a2 + 0x30]\n 19897: u64 [s1 + 0x128] = a0\n 19901: a0 = u64 [a2 + 0x40]\n 19904: u64 [s1 + 0x120] = a0\n 19908: a0 = s1 + 0x30b8\n 19912: u64 [a0 + 960] = 0\n 19916: a0 = s1 + 0x30b8\n 19920: u64 [a0 + 952] = 0\n 19924: a0 = s1 + 0x30b8\n 19928: u64 [a0 + 944] = 0\n 19932: a0 = s1 + 0x30b8\n 19936: u64 [a0 + 936] = 0\n 19940: a0 = s1 + 0x3000\n 19944: i32 a0 = a0 + 0x460\n 19948: ecalli 17 // 'value_transferred'\n 19950: fallthrough\n      : @789 (gas: 18)\n 19951: a5 = s1 + 0x30b8\n 19955: a4 = a5 + 0x300\n 19959: a0 = u64 [a4 + 0xc0]\n 19963: a1 = u64 [a4 + 0xb0]\n 19967: a2 = u64 [a4 + 0xa8]\n 19971: a3 = u64 [a4 + 0xb8]\n 19975: a4 = u64 [s1 + 0x120]\n 19979: a0 = a0 ^ a4\n 19982: a4 = u64 [s1 + 0x128]\n 19986: a1 = a1 ^ a4\n 19989: a0 = a0 | a1\n 19992: a1 = u64 [s1 + 0x130]\n 19996: a1 = a1 ^ a3\n 19999: a3 = u64 [s1 + 0x138]\n 20003: a2 = a2 ^ a3\n 20006: a1 = a1 | a2\n 20009: a0 = a0 | a1\n 20012: jump @791 if a0 == 0\n      : @790 (gas: 1)\n 20015: jump @962\n      : @791 (gas: 25)\n 20018: a1 = u64 [s1 + 0x100]\n 20022: t0 = a1 + 0xfffffffffffffffb\n 20025: a1 = t0 <u a1\n 20028: a0 = u64 [s1 + 0x108]\n 20032: a2 = a0 + a1\n 20035: a2 = a2 + 0xffffffffffffffff\n 20038: a3 = a2 ^ a0\n 20041: a4 = a2 <u a0\n 20044: a4 = a1 if a3 == 0\n 20047: a3 = u64 [s1 + 0x118]\n 20051: a1 = a3 + 0xffffffffffffffff\n 20054: a4 = a4 + a1\n 20057: a1 = a4 <u a1\n 20060: a3 = a3 <u 0x1\n 20063: a0 = u64 [s1 + 0x110]\n 20067: a3 = a0 - a3\n 20070: a1 = a1 + a3\n 20073: a1 = a1 & a4\n 20076: a1 = a1 + 0x1\n 20079: a2 = a2 + 0x1\n 20082: a0 = t0 <u 0xfffffffffffffffc\n 20085: a0 = a0 ^ 0x1\n 20088: a0 = 0 if a2 != 0\n 20090: a0 = 0 if a1 != 0\n 20092: jump @793 if a0 == 0\n      : @792 (gas: 1)\n 20095: jump @1017\n      : @793 (gas: 3)\n 20098: a0 = s1 + 0x640\n 20102: a1 = 0x40\n 20105: ra = 782, jump @17\n      : @794 [@dyn 391] (gas: 6)\n 20111: a1 = s1 + 0x600\n 20115: a4 = u64 [a1 + 0x58]\n 20118: a5 = u64 [a1 + 0x50]\n 20121: a3 = u64 [a1 + 0x48]\n 20124: a0 = u64 [a1 + 0x40]\n 20127: t0 = 784, jump @1987\n      : @795 [@dyn 392] (gas: 1)\n 20134: jump @797 if a1 == 0\n      : @796 (gas: 1)\n 20137: jump @1123\n      : @797 (gas: 11)\n 20140: u64 [s1 + 1584] = 0\n 20144: u64 [s1 + 1576] = 0\n 20148: u64 [s1 + 1568] = 0\n 20152: a2 = 0x8c379a000000000\n 20162: a1 = s1 + 0x620\n 20166: u64 [s1 + 0x638] = a2\n 20170: u64 [s1 + 0x138] = a0\n 20174: u64 [s1 + 0x130] = a3\n 20178: u64 [s1 + 0x128] = a4\n 20182: u64 [s1 + 0x120] = a5\n 20186: ra = 786, jump @19\n      : @798 [@dyn 393] (gas: 6)\n 20192: a5 = s1 + 0x100\n 20196: a1 = u64 [a5 + 0x38]\n 20199: a0 = u64 [a5 + 0x28]\n 20202: a3 = u64 [a5 + 0x20]\n 20205: a3 = a3 | a0\n 20208: t0 = 788, jump @1957\n      : @799 [@dyn 394] (gas: 1)\n 20215: jump @801 if a0 != 0\n      : @800 (gas: 1)\n 20218: jump @1123\n      : @801 (gas: 9)\n 20221: i32 a0 = a1 + 0x4\n 20224: u64 [s1 + 1560] = 0\n 20228: u64 [s1 + 1552] = 0\n 20232: u64 [s1 + 1536] = 0x20\n 20237: a1 = s1 + 0x600\n 20241: u64 [s1 + 1544] = 0\n 20245: u64 [s1 + 0x128] = a3\n 20249: u64 [s1 + 0x120] = a4\n 20253: ra = 790, jump @19\n      : @802 [@dyn 395] (gas: 1)\n 20259: t0 = 792, jump @1955\n      : @803 [@dyn 396] (gas: 1)\n 20266: jump @805 if a0 != 0\n      : @804 (gas: 1)\n 20269: jump @1123\n      : @805 (gas: 7)\n 20272: i32 a0 = a1 + 0x24\n 20275: u64 [s1 + 1528] = 0\n 20279: u64 [s1 + 1520] = 0\n 20283: u64 [s1 + 1504] = 0x17\n 20288: a1 = s1 + 0x5e0\n 20292: u64 [s1 + 1512] = 0\n 20296: ra = 794, jump @19\n      : @806 [@dyn 397] (gas: 1)\n 20302: t0 = 796, jump @2001\n      : @807 [@dyn 398] (gas: 1)\n 20309: jump @809 if a0 != 0\n      : @808 (gas: 1)\n 20312: jump @1123\n      : @809 (gas: 12)\n 20315: i32 a0 = a2 + 0x44\n 20318: a1 = u64 [0x20038]\n 20323: a2 = u64 [0x200f0]\n 20328: a3 = u64 [0x200f8]\n 20333: a4 = s1 + 0x500\n 20337: u64 [a4 + 0xd8] = a1\n 20341: u64 [a4 + 0xd0] = a2\n 20345: u64 [a4 + 0xc8] = a3\n 20349: a1 = s1 + 0x5c0\n 20353: u64 [s1 + 1472] = 0\n 20357: ra = 0x404\n 20361: jump @19\n      : @810 (gas: 10)\n 20364: a0 = s1 + 0x38b8\n 20368: u64 [a0 + 1056] = 0\n 20372: u64 [a0 + 1048] = 0\n 20376: u64 [a0 + 1040] = 0\n 20380: u64 [a0 + 1032] = 0\n 20384: a0 = s1 + 0x4000\n 20388: i32 a0 = a0 + 0xfffffffffffffcc0\n 20392: ra = 0x31e\n 20396: ecalli 17 // 'value_transferred'\n 20398: fallthrough\n      : @811 [@dyn 399] (gas: 10)\n 20399: a3 = s1 + 0x38b8\n 20403: a4 = a3 + 0x400\n 20407: a0 = u64 [a4 + 0x18]\n 20410: a1 = u64 [a4 + 0x20]\n 20413: a2 = u64 [a4 + 0x10]\n 20416: a3 = u64 [a4 + 0x8]\n 20419: a1 = a1 | a2\n 20422: a0 = a0 | a3\n 20425: a0 = a0 | a1\n 20428: jump @813 if a0 == 0\n      : @812 (gas: 1)\n 20431: jump @1252\n      : @813 (gas: 1)\n 20434: t0 = 800, jump @1994\n      : @814 [@dyn 400] (gas: 1)\n 20441: jump @816 if a1 <u a0\n      : @815 (gas: 1)\n 20444: jump @1253\n      : @816 (gas: 6)\n 20447: a0 = s1 + 0x4000\n 20451: i32 a0 = a0 + 0xfffffffffffffce0\n 20455: a1 = 0x4\n 20458: ra = 0x322\n 20462: ecalli 4 // 'call_data_load'\n 20464: fallthrough\n      : @817 [@dyn 401] (gas: 4)\n 20465: a4 = s1 + 0x38b8\n 20469: a1 = u64 [a4 + 0x438]\n 20473: a0 = u64 [a4 + 0x440]\n 20477: t0 = 804, jump @2016\n      : @818 [@dyn 402] (gas: 1)\n 20484: jump @820 if a3 != 0\n      : @819 (gas: 1)\n 20487: jump @1254\n      : @820 (gas: 11)\n 20490: a2 = u64 [a4 + 0x430]\n 20494: a3 = u64 [a4 + 0x428]\n 20498: a4 = s1 + 0x18b8\n 20502: a5 = a4 + 0x400\n 20506: u64 [a5 + 0xe8] = a3\n 20510: u64 [a5 + 0xf0] = a2\n 20514: u64 [a5 + 0xf8] = a1\n 20518: a1 = s1 + 0x1da0\n 20522: u64 [a4 + 0x500] = a0\n 20526: a0 = 0\n 20528: ra = 806, jump @19\n      : @821 [@dyn 403] (gas: 2)\n 20534: a1 = s1 + 0x18b8\n 20538: t0 = 808, jump @2031\n      : @822 [@dyn 404] (gas: 3)\n 20545: a1 = s1 + 0x1d80\n 20549: u64 [a2 + 1232] = 0\n 20553: ra = 810, jump @19\n      : @823 [@dyn 405] (gas: 2)\n 20559: a1 = i32 [0x2025c]\n 20564: jump @825 if a1 >u 63\n      : @824 (gas: 4)\n 20568: a1 = 0x40\n 20571: u32 [0x2025c] = a1\n 20576: t0 = 0x32c\n 20580: jump @1975\n      : @825 (gas: 1)\n 20584: t0 = 812, jump @1975\n      : @826 [@dyn 406] (gas: 8)\n 20591: a0 = 0x20270\n 20596: i32 a0 = a0 + 0\n 20598: i32 a2 = a2 + 0\n 20600: a1 = 0x40\n 20603: ra = 0x32e\n 20607: ecalli 9 // 'hash_keccak_256'\n 20609: t0 = 0x330\n 20613: jump @2002\n      : @827 [@dyn 407] (gas: 1)\n 20617: t0 = 816, jump @2002\n      : @828 [@dyn 408] (gas: 10)\n 20624: i32 a4 = a4 + 0xfffffffffffff8b8\n 20628: a4 = a4 + s1\n 20631: a5 = a4 + 0x400\n 20635: u64 [a5 + 0x60] = a3\n 20638: u64 [a5 + 0x58] = a2\n 20641: u64 [a5 + 0x50] = a1\n 20644: u64 [a5 + 0x48] = a0\n 20647: a0 = s1 + 0x1d60\n 20651: a1 = s1 + 0x3d00\n 20655: ra = 818, jump @21\n      : @829 [@dyn 409] (gas: 2)\n 20661: a0 = 0x2000\n 20665: t0 = 820, jump @1997\n      : @830 [@dyn 410] (gas: 3)\n 20672: a0 = s1 + 0x1d40\n 20676: a1 = 0x40\n 20679: ra = 822, jump @17\n      : @831 [@dyn 411] (gas: 7)\n 20685: a3 = s1 + 0x18b8\n 20689: a5 = a3 + 0x400\n 20693: a0 = u64 [a5 + 0xa0]\n 20697: a1 = u64 [a5 + 0x98]\n 20701: a2 = u64 [a5 + 0x90]\n 20705: a4 = u64 [a5 + 0x88]\n 20709: t0 = 824, jump @1986\n      : @832 [@dyn 412] (gas: 1)\n 20716: jump @834 if a0 == 0\n      : @833 (gas: 1)\n 20719: jump @1123\n      : @834 (gas: 1)\n 20722: t0 = 826, jump @2030\n      : @835 [@dyn 413] (gas: 2)\n 20729: a0 = 0x2000\n 20733: fallthrough\n      : @836 (gas: 7)\n 20734: i32 a0 = a0 + 0xfffffffffffffd20\n 20738: a1 = s1 + a0\n 20741: a0 = u64 [s1 + 0x138]\n 20745: u64 [a3 + 0x480] = a0\n 20749: a0 = a4\n 20751: u64 [s1 + 0x138] = a4\n 20755: ra = 828, jump @19\n      : @837 [@dyn 414] (gas: 3)\n 20761: a1 = 0x20\n 20764: a0 = u64 [s1 + 0x138]\n 20768: ra = 830, jump @32\n      : @838 [@dyn 415] (gas: 3)\n 20774: i32 a1 = a0 + 0\n 20776: a2 = 0x20\n 20779: jump @840\n      : @839 (gas: 6)\n 20781: a2 = 0x20\n 20784: a0 = 0\n 20786: ra = 0x340\n 20790: ecalli 14 // 'seal_return'\n 20792: t0 = 0x342\n 20796: jump @1994\n      : @840 (gas: 5)\n 20800: a0 = 0\n 20802: ra = 0x340\n 20806: ecalli 14 // 'seal_return'\n 20808: t0 = 0x342\n 20812: jump @1994\n      : @841 [@dyn 416] (gas: 1)\n 20816: t0 = 834, jump @1994\n      : @842 [@dyn 417] (gas: 1)\n 20823: jump @844 if a1 <u a0\n      : @843 (gas: 1)\n 20826: jump @1255\n      : @844 (gas: 21)\n 20829: a0 = s1 + 0x4000\n 20833: i32 a0 = a0 + 0xfffffffffffffde0\n 20837: a1 = 0x4\n 20840: ecalli 4 // 'call_data_load'\n 20842: a1 = s1 + 0x38b8\n 20846: a2 = a1 + 0x500\n 20850: a0 = u64 [a2 + 0x40]\n 20853: u64 [s1 + 0x138] = a0\n 20857: a0 = u64 [a2 + 0x38]\n 20860: u64 [s1 + 0x130] = a0\n 20864: a0 = u64 [a2 + 0x30]\n 20867: u64 [s1 + 0x128] = a0\n 20871: a0 = u64 [a2 + 0x28]\n 20874: u64 [s1 + 0x120] = a0\n 20878: u64 [a1 + 1376] = 0\n 20882: u64 [a1 + 1368] = 0\n 20886: u64 [a1 + 1360] = 0\n 20890: u64 [a2 + 72] = 0x8\n 20894: a0 = s1 + 0x26e0\n 20898: a1 = s1 + 0x3e00\n 20902: ra = 836, jump @21\n      : @845 [@dyn 418] (gas: 11)\n 20908: a1 = s1 + 0x20b8\n 20912: a0 = u8 [a1 + 0x63c]\n 20916: a0 = a0 <u 0x1\n 20919: u64 [a1 + 1568] = 0\n 20923: u64 [a1 + 1560] = 0\n 20927: u64 [a1 + 0x608] = a0\n 20931: a0 = s1 + 0x26c0\n 20935: u64 [a1 + 1552] = 0\n 20939: ra = 0x346\n 20943: t0 = 0x58e\n 20947: jump @1953\n      : @846 [@dyn 419] (gas: 8)\n 20951: a0 = s1 + 0x38b8\n 20955: u64 [a0 + 1408] = 0\n 20959: u64 [a0 + 1400] = 0\n 20963: u64 [a0 + 1392] = 0\n 20967: u64 [a0 + 1384] = 0x9\n 20972: a0 = s1 + 0x26a0\n 20976: a1 = s1 + 0x3e20\n 20980: ra = 840, jump @21\n      : @847 [@dyn 420] (gas: 7)\n 20986: a4 = s1 + 0x20b8\n 20990: a0 = u64 [a4 + 0x600]\n 20994: a5 = a4 + 0x500\n 20998: a1 = u64 [a5 + 0xf0]\n 21002: a2 = u64 [a5 + 0xe8]\n 21006: a3 = u64 [a5 + 0xf8]\n 21010: t0 = 842, jump @2011\n      : @848 [@dyn 421] (gas: 8)\n 21017: u64 [a4 + 1504] = 0\n 21021: u64 [a4 + 1496] = 0\n 21025: u64 [a5 + 0xc8] = a0\n 21029: a0 = s1 + 0x2680\n 21033: u64 [a4 + 1488] = 0\n 21037: ra = 0x34c\n 21041: t0 = 0x5b0\n 21045: jump @1953\n      : @849 [@dyn 422] (gas: 2)\n 21049: a0 = 0x38b8\n 21053: t0 = 846, jump @1993\n      : @850 [@dyn 423] (gas: 4)\n 21060: u64 [a1 + 1448] = 0x2\n 21065: a0 = s1 + 0x3e40\n 21069: a1 = s1 + 0x3e60\n 21073: ra = 848, jump @25\n      : @851 [@dyn 424] (gas: 8)\n 21079: a0 = s1 + 0x38b8\n 21083: u64 [a0 + 1504] = 0\n 21087: u64 [a0 + 1496] = 0\n 21091: u64 [a0 + 1488] = 0\n 21095: u64 [a0 + 1480] = 0\n 21099: a0 = s1 + 0x2660\n 21103: a1 = s1 + 0x3e80\n 21107: ra = 850, jump @21\n      : @852 [@dyn 425] (gas: 19)\n 21113: a0 = s1 + 0x20b8\n 21117: a2 = a0 + 0x500\n 21121: a1 = u64 [a2 + 0xa8]\n 21125: u64 [s1 + 0x118] = a1\n 21129: a1 = u64 [a2 + 0xb8]\n 21133: u64 [s1 + 0x110] = a1\n 21137: a1 = u64 [a2 + 0xb0]\n 21141: u64 [s1 + 0x108] = a1\n 21145: a0 = u64 [a2 + 0xc0]\n 21149: u64 [s1 + 0x100] = a0\n 21153: a0 = s1 + 0x38b8\n 21157: u64 [a0 + 1536] = 0\n 21161: u64 [a0 + 1528] = 0\n 21165: u64 [a0 + 1520] = 0\n 21169: u64 [a0 + 1512] = 0\n 21173: a0 = s1 + 0x4000\n 21177: i32 a0 = a0 + 0xfffffffffffffea0\n 21181: ecalli 17 // 'value_transferred'\n 21183: fallthrough\n      : @853 (gas: 19)\n 21184: a3 = s1 + 0x38b8\n 21188: a0 = u64 [a3 + 0x600]\n 21192: a4 = a3 + 0x500\n 21196: a1 = u64 [a4 + 0xf0]\n 21200: a2 = u64 [a4 + 0xe8]\n 21204: a3 = u64 [a4 + 0xf8]\n 21208: a4 = s1 + 0x100\n 21212: a5 = u64 [a4]\n 21214: a0 = a0 ^ a5\n 21217: a5 = u64 [a4 + 0x8]\n 21220: a1 = a1 ^ a5\n 21223: a0 = a0 | a1\n 21226: a1 = u64 [a4 + 0x10]\n 21229: a1 = a1 ^ a3\n 21232: a3 = u64 [a4 + 0x18]\n 21235: a2 = a2 ^ a3\n 21238: a1 = a1 | a2\n 21241: a0 = a0 | a1\n 21244: jump @855 if a0 == 0\n      : @854 (gas: 1)\n 21247: jump @981\n      : @855 (gas: 18)\n 21250: a3 = s1 + 0x100\n 21254: a0 = u64 [a3 + 0x20]\n 21257: a0 = a0 <u 0x10\n 21260: a1 = u64 [a3 + 0x28]\n 21263: a0 = 0 if a1 != 0\n 21265: a1 = u64 [a3 + 0x38]\n 21268: a2 = u64 [a3 + 0x30]\n 21271: a1 = a1 | a2\n 21274: a0 = 0 if a1 != 0\n 21276: a1 = s1 + 0x20b8\n 21280: u64 [a1 + 1280] = 0\n 21284: u64 [a1 + 1272] = 0\n 21288: u64 [a1 + 0x4e8] = a0\n 21292: a0 = s1 + 0x25a0\n 21296: u64 [a1 + 1264] = 0\n 21300: ra = 0x354\n 21304: t0 = 0x60c\n 21308: jump @1953\n      : @856 [@dyn 426] (gas: 8)\n 21311: a1 = s1 + 0x38b8\n 21315: u64 [a1 + 1568] = 0\n 21319: u64 [a1 + 1560] = 0\n 21323: u64 [a1 + 1552] = 0\n 21327: u64 [a1 + 1544] = 0x4\n 21332: a0 = s1 + 0x2580\n 21336: a1 = s1 + 0x3ec0\n 21340: ra = 854, jump @21\n      : @857 [@dyn 427] (gas: 3)\n 21346: t0 = 0x358\n 21350: a4 = s1 + 0x20b8\n 21354: fallthrough\n      : @858 [@dyn 428] (gas: 12)\n 21355: a5 = a4 + 0x400\n 21359: a0 = u64 [a5 + 0xc8]\n 21363: a1 = u64 [a5 + 0xd0]\n 21367: a2 = u64 [a5 + 0xd8]\n 21371: a3 = u64 [a5 + 0xe0]\n 21375: u64 [a5 + 0xc0] = a3\n 21379: u64 [a5 + 0xb8] = a2\n 21383: u64 [a5 + 0xb0] = a1\n 21387: a1 = s1 + 0x2560\n 21391: u64 [a5 + 0xa8] = a0\n 21395: a0 = 0\n 21397: ra = 858, jump @19\n      : @859 [@dyn 429] (gas: 9)\n 21403: a1 = s1 + 0x20b8\n 21407: u64 [a1 + 1184] = 0\n 21411: u64 [a1 + 1176] = 0\n 21415: u64 [a1 + 1160] = 0x3\n 21420: a2 = a1\n 21422: a0 = 0x20\n 21425: a1 = s1 + 0x2540\n 21429: u64 [a2 + 1168] = 0\n 21433: ra = 860, jump @19\n      : @860 [@dyn 430] (gas: 3)\n 21439: a2 = 0x2025c\n 21444: a0 = i32 [0x2025c]\n 21449: jump @862 if a0 >u 63\n      : @861 (gas: 2)\n 21453: u32 [0x2025c] = 0x40\n 21459: fallthrough\n      : @862 (gas: 47)\n 21460: u64 [s1 + 0xc0] = a2\n 21464: a0 = sp + 0xffffffffffffffe0\n 21467: a2 = a0 & 0xffffffffffffffe0\n 21470: u64 [s1 + 0x118] = a2\n 21474: sp = a2\n 21476: a0 = 0x20270\n 21481: i32 a0 = a0 + 0\n 21483: i32 a2 = a2 + 0\n 21485: a1 = 0x40\n 21488: u64 [s1 + 0xc8] = a0\n 21492: ecalli 9 // 'hash_keccak_256'\n 21494: a3 = u64 [s1 + 0x118]\n 21498: a0 = u64 [a3 + 0x18]\n 21501: a1 = u64 [a3 + 0x10]\n 21504: a2 = u64 [a3 + 0x8]\n 21507: a3 = u64 [a3]\n 21509: t0 = reverse a0\n 21511: u64 [s1 + 0x100] = t0\n 21515: a5 = reverse a1\n 21517: u64 [s1 + 0x108] = a5\n 21521: a4 = reverse a2\n 21523: u64 [s1 + 0x118] = a4\n 21527: a2 = reverse a3\n 21529: u64 [s1 + 0x110] = a2\n 21533: a0 = sp + 0xffffffffffffffe0\n 21536: a0 = a0 & 0xffffffffffffffe0\n 21539: u64 [s1 + 0xf8] = a0\n 21543: sp = a0\n 21545: a1 = s1 + 0x20b8\n 21549: a0 = u64 [s1 + 0x138]\n 21553: a3 = a1 + 0x400\n 21557: u64 [a3 + 0x20] = a0\n 21560: a0 = u64 [s1 + 0x130]\n 21564: u64 [a3 + 0x18] = a0\n 21567: a0 = u64 [s1 + 0x128]\n 21571: u64 [a3 + 0x10] = a0\n 21574: a0 = u64 [s1 + 0x120]\n 21578: u64 [a3 + 0x8] = a0\n 21581: u64 [a3 + 0x40] = a2\n 21584: u64 [a3 + 0x38] = a4\n 21587: u64 [a3 + 0x30] = a5\n 21590: a3 = a1\n 21592: a0 = s1 + 0x2500\n 21596: a1 = s1 + 0x24e0\n 21600: a2 = s1 + 0x24c0\n 21604: u64 [a3 + 0x428] = t0\n 21608: ra = 862, jump @1467\n      : @863 [@dyn 431] (gas: 22)\n 21614: a3 = s1 + 0x20b8\n 21618: a4 = a3 + 0x400\n 21622: a0 = u64 [a4 + 0x80]\n 21626: u64 [s1 + 0xd8] = a0\n 21630: a0 = u64 [a4 + 0x78]\n 21633: u64 [s1 + 0xb8] = a0\n 21637: a0 = u64 [a4 + 0x70]\n 21640: u64 [s1 + 0xb0] = a0\n 21644: a0 = u64 [a4 + 0x68]\n 21647: u64 [s1 + 0xd0] = a0\n 21651: a0 = u64 [a4 + 0x58]\n 21654: a1 = u64 [a4 + 0x60]\n 21657: a2 = u64 [a4 + 0x48]\n 21660: a3 = u64 [a4 + 0x50]\n 21663: a4 = u64 [s1 + 0xf8]\n 21667: u64 [a4 + 0x10] = a0\n 21670: u64 [a4 + 0x18] = a1\n 21673: u64 [a4] = a2\n 21675: u64 [a4 + 0x8] = a3\n 21678: a1 = a4\n 21680: a0 = s1 + 0x24a0\n 21684: ra = 864, jump @21\n      : @864 [@dyn 432] (gas: 37)\n 21690: a2 = s1 + 0x20b8\n 21694: a3 = a2 + 0x300\n 21698: a1 = u64 [a3 + 0xe8]\n 21702: u64 [s1 + 0xf8] = a1\n 21706: a0 = u64 [a3 + 0xf0]\n 21710: u64 [s1 + 0xf0] = a0\n 21714: a0 = u64 [a3 + 0xf8]\n 21718: u64 [s1 + 0xe8] = a0\n 21722: a1 = u64 [a2 + 0x400]\n 21726: u64 [s1 + 0xe0] = a1\n 21730: t2 = u64 [s1 + 0xd0]\n 21734: a2 = t2 >> 0x3d\n 21737: a3 = u64 [s1 + 0xb0]\n 21741: a5 = a3 << 0x3\n 21744: t1 = a5 | a2\n 21747: a3 = a3 >> 0x3d\n 21750: a5 = u64 [s1 + 0xb8]\n 21754: a2 = a5 << 0x3\n 21757: t0 = a2 | a3\n 21760: a2 = a5 >> 0x3d\n 21763: a3 = u64 [s1 + 0xd8]\n 21767: a3 = a3 << 0x3\n 21770: a2 = a2 | a3\n 21773: t2 = t2 << 0x3\n 21776: u64 [s1 + 0xd8] = t2\n 21780: a3 = t1 >u 0\n 21782: a4 = t2 <u 0x100\n 21786: a5 = a4 ^ 0x1\n 21789: a5 = a3 if t1 != 0\n 21792: a4 = a2 >u 0\n 21794: a3 = t0 >u 0\n 21796: a3 = a4 if a2 != 0\n 21799: a2 = t0 | a2\n 21802: a5 = a3 if a2 != 0\n 21805: u64 [s1 + 0xb8] = a5\n 21809: i32 a2 = t2 + 0xffffffffffffff80\n 21812: ra = 866, jump @2038\n      : @865 [@dyn 433] (gas: 8)\n 21819: u64 [s1 + 0xb0] = a0\n 21823: u64 [s1 + 0xa8] = a1\n 21827: a0 = u64 [s1 + 0xd0]\n 21831: i32 a2 = a0 << 0x3\n 21834: u64 [s1 + 0xd0] = a2\n 21838: a0 = u64 [s1 + 0xf8]\n 21842: a1 = u64 [s1 + 0xf0]\n 21846: ra = 868, jump @2038\n      : @866 [@dyn 434] (gas: 7)\n 21853: u64 [s1 + 0xa0] = a0\n 21857: u64 [s1 + 0x98] = a1\n 21861: a1 = u64 [s1 + 0xd8]\n 21865: i32 a2 = 0x80 - a1\n 21869: a0 = u64 [s1 + 0xe8]\n 21873: a1 = u64 [s1 + 0xe0]\n 21877: ra = 870, jump @2043\n      : @867 [@dyn 435] (gas: 21)\n 21884: a3 = u64 [s1 + 0x98]\n 21888: a3 = a3 | a1\n 21891: a2 = u64 [s1 + 0xd8]\n 21895: a4 = a2 <u 0x80\n 21899: u64 [s1 + 0x98] = a4\n 21903: a1 = u64 [s1 + 0xa8]\n 21907: a3 = a1 if a4 == 0\n 21910: a1 = u64 [s1 + 0xf0]\n 21914: a3 = a1 if a2 == 0\n 21917: u64 [s1 + 0xf0] = a3\n 21921: a1 = u64 [s1 + 0xa0]\n 21925: a1 = a1 | a0\n 21928: a0 = u64 [s1 + 0xb0]\n 21932: a1 = a0 if a4 == 0\n 21935: a0 = u64 [s1 + 0xf8]\n 21939: a1 = a0 if a2 == 0\n 21942: u64 [s1 + 0xf8] = a1\n 21946: a0 = u64 [s1 + 0xe8]\n 21950: a1 = u64 [s1 + 0xe0]\n 21954: a2 = u64 [s1 + 0xd0]\n 21958: ra = 872, jump @2038\n      : @868 [@dyn 436] (gas: 20)\n 21965: a1 = u64 [s1 + 0x98]\n 21969: a0 = 0 if a1 == 0\n 21971: a0 = a0 << 0x20\n 21974: a0 = a0 >> 0x20\n 21977: a1 = u64 [s1 + 0xf8]\n 21981: a0 = a0 | a1\n 21984: a1 = u64 [s1 + 0xf0]\n 21988: a0 = a0 | a1\n 21991: a0 = a0 <u 0x1\n 21994: a1 = u64 [s1 + 0xb8]\n 21998: a0 = a0 | a1\n 22001: a1 = s1 + 0x20b8\n 22005: u64 [a1 + 992] = 0\n 22009: u64 [a1 + 984] = 0\n 22013: u64 [a1 + 0x3c8] = a0\n 22017: a0 = s1 + 0x2480\n 22021: u64 [a1 + 976] = 0\n 22025: ra = 0x36a\n 22029: t0 = 0x638\n 22033: jump @1953\n      : @869 [@dyn 437] (gas: 4)\n 22036: a5 = s1 + 0x100\n 22040: a1 = u64 [a5]\n 22042: a0 = a1 + 0x15\n 22045: t0 = 876, jump @1988\n      : @870 [@dyn 438] (gas: 8)\n 22052: a5 = a4 + 0x600\n 22056: u64 [a5 + 0x40] = a1\n 22059: u64 [a5 + 0x38] = a3\n 22062: u64 [a5 + 0x30] = a2\n 22065: u64 [a5 + 0x28] = a0\n 22068: a0 = s1 + 0x2460\n 22072: a1 = s1 + 0x3ee0\n 22076: ra = 878, jump @21\n      : @871 [@dyn 439] (gas: 3)\n 22082: a0 = s1 + 0x20b8\n 22086: a0 = u8 [a0 + 0x3a8]\n 22090: jump @873 if a0 == 0\n      : @872 (gas: 1)\n 22093: jump @1072\n      : @873 (gas: 29)\n 22096: a3 = s1 + 0x100\n 22100: a0 = u64 [a3]\n 22102: a1 = a0 + 0x10\n 22105: u64 [s1 + 0xe8] = a1\n 22109: a0 = a1 <u a0\n 22112: a1 = u64 [a3 + 0x8]\n 22115: a2 = a1 + a0\n 22118: u64 [s1 + 0xe0] = a2\n 22122: a1 = a2 <u a1\n 22125: a1 = a0 if a0 == 0\n 22128: a0 = u64 [a3 + 0x18]\n 22131: a1 = a1 + a0\n 22134: u64 [s1 + 0xd8] = a1\n 22138: a0 = a1 <u a0\n 22141: a1 = u64 [a3 + 0x10]\n 22144: a0 = a0 + a1\n 22147: u64 [s1 + 0xd0] = a0\n 22151: a0 = sp + 0xffffffffffffffe0\n 22154: a0 = a0 & 0xffffffffffffffe0\n 22157: u64 [s1 + 0xb8] = a0\n 22161: sp = a0\n 22163: a0 = 0x30270\n 22168: u64 [s1 + 0xf8] = a0\n 22172: i32 a0 = a0 + 0\n 22174: u64 [s1 + 0xf0] = a0\n 22178: ra = 0x370\n 22182: ecalli 6 // 'caller'\n 22184: t0 = 0x372\n 22188: jump @1967\n      : @874 [@dyn 440] (gas: 1)\n 22191: t0 = 882, jump @1967\n      : @875 [@dyn 441] (gas: 8)\n 22197: u64 [a2 + 768] = 0\n 22201: a4 = a2 + 0x200\n 22205: u64 [a4 + 0xf8] = a1\n 22209: u64 [a4 + 0xf0] = a0\n 22213: a1 = s1 + 0x23a0\n 22217: u64 [a4 + 0xe8] = a3\n 22221: a0 = 0\n 22223: ra = 884, jump @19\n      : @876 [@dyn 442] (gas: 14)\n 22229: a0 = u64 [s1 + 0xd0]\n 22233: a1 = s1 + 0x20b8\n 22237: a2 = a1 + 0x200\n 22241: u64 [a2 + 0xe0] = a0\n 22245: a0 = u64 [s1 + 0xd8]\n 22249: u64 [a2 + 0xd8] = a0\n 22253: a0 = u64 [s1 + 0xe0]\n 22257: u64 [a2 + 0xd0] = a0\n 22261: a3 = a1\n 22263: a0 = 0x20\n 22266: a1 = s1 + 0x2380\n 22270: a2 = u64 [s1 + 0xe8]\n 22274: u64 [a3 + 0x2c8] = a2\n 22278: ra = 886, jump @19\n      : @877 [@dyn 443] (gas: 3)\n 22284: a1 = u64 [s1 + 0xc0]\n 22288: a0 = i32 [a1]\n 22290: jump @879 if a0 >u 63\n      : @878 (gas: 2)\n 22294: u32 [a1 + 0] = 0x40\n 22297: fallthrough\n      : @879 (gas: 4)\n 22298: a0 = sp + 0xffffffffffffffe0\n 22301: a0 = a0 & 0xffffffffffffffe0\n 22304: u64 [s1 + 0xb0] = a0\n 22308: t0 = 888, jump @2033\n      : @880 [@dyn 444] (gas: 5)\n 22315: ra = 0x37a\n 22319: ecalli 9 // 'hash_keccak_256'\n 22321: a3 = u64 [s1 + 0xb0]\n 22325: t0 = 0x37c\n 22329: jump @1972\n      : @881 [@dyn 445] (gas: 2)\n 22332: a3 = u64 [s1 + 0xb0]\n 22336: t0 = 892, jump @1972\n      : @882 [@dyn 446] (gas: 3)\n 22342: i32 a0 = a0 + 0x360\n 22346: a0 = a0 + s1\n 22349: ra = 894, jump @21\n      : @883 [@dyn 447] (gas: 2)\n 22355: a0 = 0x2000\n 22359: t0 = 896, jump @2015\n      : @884 [@dyn 448] (gas: 16)\n 22366: a0 = u64 [a5 + 0xc0]\n 22370: a1 = u64 [a5 + 0xb8]\n 22374: a2 = u64 [a5 + 0xa8]\n 22378: a3 = u64 [a5 + 0xb0]\n 22382: a0 = a0 | a1\n 22385: a1 = a2 <u 0x8\n 22388: a1 = 0 if a3 != 0\n 22390: a1 = 0 if a0 != 0\n 22392: u64 [a4 + 672] = 0\n 22396: u64 [a4 + 664] = 0\n 22400: u64 [a5 + 0x88] = a1\n 22404: a0 = s1 + 0x2340\n 22408: u64 [a4 + 656] = 0\n 22412: ra = 0x382\n 22416: t0 = 0x5e2\n 22420: jump @1953\n      : @885 [@dyn 449] (gas: 24)\n 22423: a5 = s1 + 0x100\n 22427: a0 = u64 [a5 + 0x38]\n 22430: a1 = s1 + 0x20b8\n 22434: a2 = a1 + 0x200\n 22438: u64 [a2 + 0x20] = a0\n 22441: a0 = u64 [a5 + 0x30]\n 22444: u64 [a2 + 0x18] = a0\n 22447: a0 = u64 [a5 + 0x28]\n 22450: u64 [a2 + 0x10] = a0\n 22453: a0 = u64 [a5 + 0x20]\n 22456: u64 [a2 + 0x8] = a0\n 22459: a0 = u64 [a5 + 0x10]\n 22462: u64 [a2 + 0x40] = a0\n 22465: a0 = u64 [a5 + 0x18]\n 22468: u64 [a2 + 0x38] = a0\n 22471: a0 = u64 [a5 + 0x8]\n 22474: u64 [a2 + 0x30] = a0\n 22477: a4 = a1\n 22479: a0 = s1 + 0x2300\n 22483: a1 = s1 + 0x22e0\n 22487: a2 = s1 + 0x22c0\n 22491: a3 = u64 [a5]\n 22493: u64 [a4 + 0x228] = a3\n 22497: ra = 900, jump @1467\n      : @886 [@dyn 450] (gas: 24)\n 22503: a0 = s1 + 0x20b8\n 22507: a2 = a0 + 0x200\n 22511: a1 = u64 [a2 + 0x48]\n 22514: u64 [s1 + 0xb8] = a1\n 22518: a1 = u64 [a2 + 0x50]\n 22521: u64 [s1 + 0xb0] = a1\n 22525: a1 = u64 [a2 + 0x58]\n 22528: u64 [s1 + 0xa8] = a1\n 22532: a1 = u64 [a2 + 0x60]\n 22535: u64 [s1 + 0xa0] = a1\n 22539: a1 = u64 [a2 + 0x68]\n 22542: u64 [s1 + 0x98] = a1\n 22546: a1 = u64 [a2 + 0x70]\n 22549: u64 [s1 + 0x90] = a1\n 22553: a1 = u64 [a2 + 0x78]\n 22556: u64 [s1 + 0x88] = a1\n 22560: a1 = u64 [a2 + 0x80]\n 22564: u64 [s1 + 0x80] = a1\n 22568: a0 = u64 [s1 + 0xf0]\n 22572: ra = 0x386\n 22576: ecalli 6 // 'caller'\n 22578: a2 = u64 [s1 + 0xf8]\n 22582: t0 = 0x388\n 22586: jump @2020\n      : @887 [@dyn 451] (gas: 2)\n 22590: a2 = u64 [s1 + 0xf8]\n 22594: t0 = 904, jump @2020\n      : @888 [@dyn 452] (gas: 31)\n 22601: a0 = a0 >> 0x20\n 22604: a2 = reverse a2\n 22606: a3 = a2 << 0x20\n 22609: a0 = a0 | a3\n 22612: a2 = a2 >> 0x20\n 22615: a3 = s1 + 0x20b8\n 22619: a4 = u64 [s1 + 0x80]\n 22623: a5 = a3 + 0x100\n 22627: u64 [a5 + 0xe0] = a4\n 22631: a4 = u64 [s1 + 0x88]\n 22635: u64 [a5 + 0xd8] = a4\n 22639: a4 = u64 [s1 + 0x90]\n 22643: u64 [a5 + 0xd0] = a4\n 22647: a4 = u64 [s1 + 0x98]\n 22651: u64 [a5 + 0xc8] = a4\n 22655: a4 = u64 [s1 + 0xa0]\n 22659: u64 [a3 + 0x200] = a4\n 22663: a4 = u64 [s1 + 0xa8]\n 22667: u64 [a5 + 0xf8] = a4\n 22671: a4 = u64 [s1 + 0xb0]\n 22675: u64 [a5 + 0xf0] = a4\n 22679: a4 = u64 [s1 + 0xb8]\n 22683: u64 [a5 + 0xe8] = a4\n 22687: u64 [a5 + 0xb8] = a2\n 22691: u64 [a5 + 0xb0] = a0\n 22695: u64 [a5 + 0xa8] = a1\n 22699: a0 = s1 + 0x22a0\n 22703: a1 = s1 + 0x2280\n 22707: a2 = s1 + 0x2260\n 22711: u64 [a3 + 448] = 0\n 22715: ra = 906, jump @1499\n      : @889 [@dyn 453] (gas: 9)\n 22721: a0 = sp + 0xffffffffffffffe0\n 22724: a0 = a0 & 0xffffffffffffffe0\n 22727: u64 [s1 + 0xb8] = a0\n 22731: sp = a0\n 22733: a0 = u64 [s1 + 0xf0]\n 22737: ra = 0x38c\n 22741: ecalli 6 // 'caller'\n 22743: t0 = 0x38e\n 22747: jump @1967\n      : @890 [@dyn 454] (gas: 1)\n 22750: t0 = 910, jump @1967\n      : @891 [@dyn 455] (gas: 8)\n 22756: u64 [a2 + 416] = 0\n 22760: a4 = a2 + 0x100\n 22764: u64 [a4 + 0x98] = a1\n 22768: u64 [a4 + 0x90] = a0\n 22772: a1 = s1 + 0x2240\n 22776: u64 [a4 + 0x88] = a3\n 22780: a0 = 0\n 22782: ra = 912, jump @19\n      : @892 [@dyn 456] (gas: 14)\n 22788: a0 = u64 [s1 + 0xd0]\n 22792: a1 = s1 + 0x20b8\n 22796: a2 = a1 + 0x100\n 22800: u64 [a2 + 0x80] = a0\n 22804: a0 = u64 [s1 + 0xd8]\n 22808: u64 [a2 + 0x78] = a0\n 22811: a0 = u64 [s1 + 0xe0]\n 22815: u64 [a2 + 0x70] = a0\n 22818: a3 = a1\n 22820: a0 = 0x20\n 22823: a1 = s1 + 0x2220\n 22827: a2 = u64 [s1 + 0xe8]\n 22831: u64 [a3 + 0x168] = a2\n 22835: ra = 914, jump @19\n      : @893 [@dyn 457] (gas: 3)\n 22841: a1 = u64 [s1 + 0xc0]\n 22845: a0 = i32 [a1]\n 22847: jump @895 if a0 >u 63\n      : @894 (gas: 2)\n 22851: u32 [a1 + 0] = 0x40\n 22854: fallthrough\n      : @895 (gas: 4)\n 22855: a0 = sp + 0xffffffffffffffe0\n 22858: a0 = a0 & 0xffffffffffffffe0\n 22861: u64 [s1 + 0xb0] = a0\n 22865: t0 = 916, jump @2033\n      : @896 [@dyn 458] (gas: 5)\n 22872: ra = 0x396\n 22876: ecalli 9 // 'hash_keccak_256'\n 22878: a3 = u64 [s1 + 0xb0]\n 22882: t0 = 0x398\n 22886: jump @1972\n      : @897 [@dyn 459] (gas: 2)\n 22889: a3 = u64 [s1 + 0xb0]\n 22893: t0 = 920, jump @1972\n      : @898 [@dyn 460] (gas: 3)\n 22899: i32 a0 = a0 + 0x200\n 22903: a0 = a0 + s1\n 22906: ra = 922, jump @21\n      : @899 [@dyn 461] (gas: 13)\n 22912: a4 = s1 + 0x20b8\n 22916: a5 = a4 + 0x100\n 22920: a2 = u64 [a5 + 0x48]\n 22923: a0 = u64 [a5 + 0x50]\n 22926: a1 = u64 [a5 + 0x58]\n 22929: a3 = u64 [a5 + 0x60]\n 22932: u64 [a5 + 0x20] = a3\n 22935: u64 [a5 + 0x18] = a1\n 22938: u64 [a5 + 0x10] = a0\n 22941: a0 = s1 + 0x21e0\n 22945: a1 = s1 + 0x21c0\n 22949: u64 [a5 + 0x8] = a2\n 22952: ra = 924, jump @1511\n      : @900 [@dyn 462] (gas: 2)\n 22958: a0 = 0x2000\n 22962: t0 = 926, jump @2014\n      : @901 [@dyn 463] (gas: 13)\n 22969: a0 = u64 [a4 + 0x40]\n 22972: a1 = u64 [a4 + 0x38]\n 22975: a2 = u64 [a4 + 0x30]\n 22978: a3 = u64 [a4 + 0x28]\n 22981: a4 = s1 + 0x38b8\n 22985: a5 = a4 + 0x600\n 22989: u64 [a5 + 0x60] = a0\n 22992: u64 [a5 + 0x58] = a1\n 22995: u64 [a5 + 0x50] = a2\n 22998: u64 [a5 + 0x48] = a3\n 23001: a1 = s1 + 0x3f00\n 23005: a0 = u64 [s1 + 0xb8]\n 23009: ra = 928, jump @25\n      : @902 [@dyn 464] (gas: 6)\n 23015: a0 = sp + 0xffffffffffffffe0\n 23018: a5 = a0 & 0xffffffffffffffe0\n 23021: sp = a5\n 23023: a1 = u64 [s1 + 0x100]\n 23027: a0 = a1 + 0x11\n 23030: t0 = 930, jump @2004\n      : @903 [@dyn 465] (gas: 10)\n 23037: a4 = u64 [s1 + 0x110]\n 23041: a4 = a4 + a1\n 23044: a1 = a5\n 23046: u64 [s1 + 0xb0] = a5\n 23050: u64 [a5 + 0x18] = a4\n 23053: u64 [a5 + 0x10] = a3\n 23056: u64 [a5 + 0x8] = a2\n 23059: u64 [a5] = a0\n 23061: a0 = s1 + 0x21a0\n 23065: ra = 932, jump @21\n      : @904 [@dyn 466] (gas: 12)\n 23071: a4 = s1 + 0x20b8\n 23075: a2 = u64 [a4 + 0xe8]\n 23079: a0 = u64 [a4 + 0xf0]\n 23083: a1 = u64 [a4 + 0xf8]\n 23087: a3 = u64 [a4 + 0x100]\n 23091: u64 [a4 + 0xc0] = a3\n 23095: u64 [a4 + 0xb8] = a1\n 23099: u64 [a4 + 0xb0] = a0\n 23103: a0 = s1 + 0x2180\n 23107: a1 = s1 + 0x2160\n 23111: u64 [a4 + 0xa8] = a2\n 23115: ra = 934, jump @1511\n      : @905 [@dyn 467] (gas: 14)\n 23121: a3 = s1 + 0x20b8\n 23125: a0 = u64 [a3 + 0xe0]\n 23129: a1 = u64 [a3 + 0xd8]\n 23133: a2 = u64 [a3 + 0xd0]\n 23137: a3 = u64 [a3 + 0xc8]\n 23141: a4 = s1 + 0x38b8\n 23145: a5 = a4 + 0x600\n 23149: u64 [a5 + 0x80] = a0\n 23153: u64 [a5 + 0x78] = a1\n 23156: u64 [a5 + 0x70] = a2\n 23159: u64 [a5 + 0x68] = a3\n 23162: a1 = s1 + 0x3f20\n 23166: a0 = u64 [s1 + 0xb0]\n 23170: ra = 936, jump @25\n      : @906 [@dyn 468] (gas: 7)\n 23176: a0 = sp + 0xffffffffffffffe0\n 23179: a4 = a0 & 0xffffffffffffffe0\n 23182: u64 [s1 + 0xb8] = a4\n 23186: sp = a4\n 23188: a1 = u64 [s1 + 0x100]\n 23192: a0 = a1 + 0x12\n 23195: t0 = 938, jump @2004\n      : @907 [@dyn 469] (gas: 27)\n 23201: a5 = u64 [s1 + 0x110]\n 23205: a1 = a1 + a5\n 23208: u64 [a4 + 0x18] = a1\n 23211: u64 [a4 + 0x10] = a3\n 23214: u64 [a4 + 0x8] = a2\n 23217: u64 [a4] = a0\n 23219: a0 = s1 + 0x38b8\n 23223: u64 [a0 + 1696] = 0\n 23227: u64 [a0 + 1688] = 0\n 23231: u64 [a0 + 1680] = 0\n 23235: u64 [a0 + 1672] = 0\n 23239: a0 = s1 + 0x4000\n 23243: i32 a0 = a0 + 0xffffffffffffff40\n 23247: ecalli 17 // 'value_transferred'\n 23249: a0 = s1 + 0x38b8\n 23253: a2 = a0 + 0x600\n 23257: a1 = u64 [a2 + 0x88]\n 23261: u64 [s1 + 0xa8] = a1\n 23265: a1 = u64 [a2 + 0x90]\n 23269: u64 [s1 + 0xa0] = a1\n 23273: a1 = u64 [a2 + 0x98]\n 23277: u64 [s1 + 0x98] = a1\n 23281: a0 = u64 [a2 + 0xa0]\n 23285: u64 [s1 + 0x90] = a0\n 23289: a0 = s1 + 0x2140\n 23293: a1 = u64 [s1 + 0xb8]\n 23297: ra = 940, jump @21\n      : @908 [@dyn 470] (gas: 21)\n 23303: a4 = s1 + 0x20b8\n 23307: a3 = u64 [a4 + 0x88]\n 23311: a0 = u64 [a4 + 0x90]\n 23315: a1 = u64 [a4 + 0x98]\n 23319: a2 = u64 [a4 + 0xa0]\n 23323: a5 = u64 [s1 + 0x90]\n 23327: u64 [a4 + 0x40] = a5\n 23330: a5 = u64 [s1 + 0x98]\n 23334: u64 [a4 + 0x38] = a5\n 23337: a5 = u64 [s1 + 0xa0]\n 23341: u64 [a4 + 0x30] = a5\n 23344: a5 = u64 [s1 + 0xa8]\n 23348: u64 [a4 + 0x28] = a5\n 23351: u64 [a4 + 0x60] = a2\n 23354: u64 [a4 + 0x58] = a1\n 23357: u64 [a4 + 0x50] = a0\n 23360: a0 = s1 + 0x2120\n 23364: a1 = s1 + 0x2100\n 23368: a2 = s1 + 0x20e0\n 23372: u64 [a4 + 0x48] = a3\n 23375: ra = 942, jump @1403\n      : @909 [@dyn 471] (gas: 14)\n 23381: a3 = s1 + 0x20b8\n 23385: a0 = u64 [a3 + 0x80]\n 23389: a1 = u64 [a3 + 0x78]\n 23392: a2 = u64 [a3 + 0x70]\n 23395: a3 = u64 [a3 + 0x68]\n 23398: a4 = s1 + 0x38b8\n 23402: a5 = a4 + 0x600\n 23406: u64 [a5 + 0xc0] = a0\n 23410: u64 [a5 + 0xb8] = a1\n 23414: u64 [a5 + 0xb0] = a2\n 23418: u64 [a5 + 0xa8] = a3\n 23422: a1 = s1 + 0x3f60\n 23426: a0 = u64 [s1 + 0xb8]\n 23430: ra = 944, jump @25\n      : @910 [@dyn 472] (gas: 9)\n 23436: a0 = sp + 0xffffffffffffffe0\n 23439: a0 = a0 & 0xffffffffffffffe0\n 23442: u64 [s1 + 0xb8] = a0\n 23446: sp = a0\n 23448: a0 = u64 [s1 + 0xf0]\n 23452: ra = 0x3b2\n 23456: ecalli 6 // 'caller'\n 23458: t0 = 0x3b4\n 23462: jump @1967\n      : @911 [@dyn 473] (gas: 1)\n 23465: t0 = 948, jump @1967\n      : @912 [@dyn 474] (gas: 7)\n 23471: u64 [a2 + 32] = 0\n 23474: u64 [a2 + 0x18] = a1\n 23477: u64 [a2 + 0x10] = a0\n 23480: a1 = s1 + 0x20c0\n 23484: u64 [a2 + 0x8] = a3\n 23487: a0 = 0\n 23489: ra = 950, jump @19\n      : @913 [@dyn 475] (gas: 13)\n 23495: a0 = u64 [s1 + 0xd0]\n 23499: a1 = s1 + 0x20b8\n 23503: u64 [a1] = a0\n 23505: a0 = u64 [s1 + 0xd8]\n 23509: u64 [a1 + 0xfffffffffffffff8] = a0\n 23512: a0 = u64 [s1 + 0xe0]\n 23516: u64 [a1 + 0xfffffffffffffff0] = a0\n 23519: a3 = a1\n 23521: a0 = 0x20\n 23524: a1 = s1 + 0x20a0\n 23528: a2 = u64 [s1 + 0xe8]\n 23532: u64 [a3 + 0xffffffffffffffe8] = a2\n 23535: ra = 952, jump @19\n      : @914 [@dyn 476] (gas: 3)\n 23541: a1 = u64 [s1 + 0xc0]\n 23545: a0 = i32 [a1]\n 23547: jump @916 if a0 >=u 64\n      : @915 (gas: 2)\n 23551: u32 [a1 + 0] = 0x40\n 23554: fallthrough\n      : @916 (gas: 4)\n 23555: a0 = sp + 0xffffffffffffffe0\n 23558: a0 = a0 & 0xffffffffffffffe0\n 23561: u64 [s1 + 0xe8] = a0\n 23565: t0 = 954, jump @2033\n      : @917 [@dyn 477] (gas: 5)\n 23572: ra = 0x3bc\n 23576: ecalli 9 // 'hash_keccak_256'\n 23578: a3 = u64 [s1 + 0xe8]\n 23582: t0 = 0x3be\n 23586: jump @1972\n      : @918 [@dyn 478] (gas: 2)\n 23589: a3 = u64 [s1 + 0xe8]\n 23593: t0 = 958, jump @1972\n      : @919 [@dyn 479] (gas: 3)\n 23599: i32 a0 = a0 + 0x80\n 23603: a0 = a0 + s1\n 23606: ra = 960, jump @21\n      : @920 [@dyn 480] (gas: 11)\n 23612: a3 = s1 + 0x18b8\n 23616: a4 = a3 + 0x700\n 23620: a0 = u64 [a4 + 0xe0]\n 23624: a1 = u64 [a4 + 0xd0]\n 23628: a2 = u64 [a4 + 0xc8]\n 23632: a3 = u64 [a4 + 0xd8]\n 23636: a0 = a0 | a1\n 23639: a1 = a2 ^ 0x1\n 23642: a1 = a1 | a3\n 23645: a0 = a0 | a1\n 23648: jump @932 if a0 != 0\n      : @921 (gas: 25)\n 23652: a0 = u64 [s1 + 0xf0]\n 23656: ecalli 6 // 'caller'\n 23658: a2 = u64 [s1 + 0xf8]\n 23662: a0 = u64 [a2 + 0x8]\n 23665: a1 = i32 [a2 + 0x10]\n 23668: a2 = u64 [a2]\n 23670: a0 = reverse a0\n 23672: a3 = a0 << 0x20\n 23675: a1 = reverse a1\n 23677: a1 = a1 >> 0x20\n 23680: a3 = a3 | a1\n 23683: a0 = a0 >> 0x20\n 23686: a1 = reverse a2\n 23688: a2 = a1 << 0x20\n 23691: a0 = a0 | a2\n 23694: a1 = a1 >> 0x20\n 23697: a2 = s1 + 0x18b8\n 23701: u64 [a2 + 1984] = 0\n 23705: a4 = a2 + 0x700\n 23709: u64 [a4 + 0xb8] = a1\n 23713: u64 [a4 + 0xb0] = a0\n 23717: a1 = s1 + 0x2060\n 23721: u64 [a4 + 0xa8] = a3\n 23725: a0 = 0\n 23727: ra = 962, jump @19\n      : @922 [@dyn 481] (gas: 3)\n 23733: t0 = 0x3c4\n 23737: a1 = s1 + 0x18b8\n 23741: fallthrough\n      : @923 [@dyn 482] (gas: 8)\n 23742: u64 [a1 + 1952] = 0\n 23746: u64 [a1 + 1944] = 0\n 23750: u64 [a1 + 1928] = 0x6\n 23755: a2 = a1\n 23757: a0 = 0x20\n 23760: a1 = s1 + 0x2040\n 23764: u64 [a2 + 1936] = 0\n 23768: ra = 966, jump @19\n      : @924 [@dyn 483] (gas: 7)\n 23774: a0 = sp + 0xffffffffffffffe0\n 23777: a0 = a0 & 0xffffffffffffffe0\n 23780: u64 [s1 + 0xe8] = a0\n 23784: sp = a0\n 23786: a2 = u64 [s1 + 0xc0]\n 23790: a0 = i32 [a2]\n 23792: jump @926 if a0 >u 63\n      : @925 (gas: 2)\n 23796: u32 [a2 + 0] = 0x40\n 23799: fallthrough\n      : @926 (gas: 4)\n 23800: a0 = sp + 0xffffffffffffffe0\n 23803: a0 = a0 & 0xffffffffffffffe0\n 23806: u64 [s1 + 0xe0] = a0\n 23810: t0 = 968, jump @2033\n      : @927 [@dyn 484] (gas: 5)\n 23816: ra = 0x3ca\n 23820: ecalli 9 // 'hash_keccak_256'\n 23822: a3 = u64 [s1 + 0xe0]\n 23826: t0 = 0x3cc\n 23830: jump @1974\n      : @928 [@dyn 485] (gas: 2)\n 23833: a3 = u64 [s1 + 0xe0]\n 23837: t0 = 972, jump @1974\n      : @929 [@dyn 486] (gas: 7)\n 23843: a1 = u64 [s1 + 0xe8]\n 23847: u64 [a1 + 0x18] = a3\n 23850: u64 [a1 + 0x10] = a2\n 23853: u64 [a1 + 0x8] = a4\n 23856: u64 [a1] = a0\n 23858: a0 = s1 + 0x2020\n 23862: ra = 974, jump @21\n      : @930 [@dyn 487] (gas: 13)\n 23868: a4 = s1 + 0x18b8\n 23872: a5 = a4 + 0x700\n 23876: a2 = u64 [a5 + 0x68]\n 23879: a0 = u64 [a5 + 0x70]\n 23882: a1 = u64 [a5 + 0x78]\n 23885: a3 = u64 [a5 + 0x80]\n 23889: u64 [a5 + 0x40] = a3\n 23892: u64 [a5 + 0x38] = a1\n 23895: u64 [a5 + 0x30] = a0\n 23898: a0 = s1 + 0x2000\n 23902: a1 = s1 + 0x1fe0\n 23906: u64 [a5 + 0x28] = a2\n 23909: ra = 976, jump @1511\n      : @931 [@dyn 488] (gas: 15)\n 23915: a3 = s1 + 0x18b8\n 23919: a4 = a3 + 0x700\n 23923: a0 = u64 [a4 + 0x60]\n 23926: a1 = u64 [a4 + 0x58]\n 23929: a2 = u64 [a4 + 0x50]\n 23932: a3 = u64 [a4 + 0x48]\n 23935: a4 = s1 + 0x38b8\n 23939: a5 = a4 + 0x600\n 23943: u64 [a5 + 0xe0] = a0\n 23947: u64 [a5 + 0xd8] = a1\n 23951: u64 [a5 + 0xd0] = a2\n 23955: u64 [a5 + 0xc8] = a3\n 23959: a1 = s1 + 0x3f80\n 23963: a0 = u64 [s1 + 0xe8]\n 23967: ra = 978, jump @25\n      : @932 [@dyn 489] (gas: 8)\n 23973: a1 = s1 + 0x38b8\n 23977: u64 [a1 + 1792] = 0\n 23981: u64 [a1 + 1784] = 0\n 23985: u64 [a1 + 1776] = 0\n 23989: u64 [a1 + 1768] = 0x4\n 23994: a0 = s1 + 0x1fc0\n 23998: a1 = s1 + 0x3fa0\n 24002: ra = 980, jump @21\n      : @933 [@dyn 490] (gas: 3)\n 24008: t0 = 0x3d6\n 24012: a1 = s1 + 0x18b8\n 24016: fallthrough\n      : @934 [@dyn 491] (gas: 12)\n 24017: a2 = a1 + 0x700\n 24021: a0 = u64 [a2 + 0x20]\n 24024: u64 [s1 + 0xd0] = a0\n 24028: a0 = u64 [a2 + 0x18]\n 24031: u64 [s1 + 0xd8] = a0\n 24035: a0 = u64 [a2 + 0x10]\n 24038: u64 [s1 + 0xe0] = a0\n 24042: a0 = u64 [a2 + 0x8]\n 24045: u64 [s1 + 0xe8] = a0\n 24049: a0 = s1 + 0x1fa0\n 24053: a1 = 0x40\n 24056: ra = 984, jump @17\n      : @935 [@dyn 492] (gas: 14)\n 24062: a4 = s1 + 0x18b8\n 24066: a0 = u64 [a4 + 0x700]\n 24070: a5 = a4 + 0x600\n 24074: a1 = u64 [a5 + 0xf8]\n 24078: a2 = u64 [a5 + 0xf0]\n 24082: a3 = u64 [a5 + 0xe8]\n 24086: a0 = a0 | a2\n 24089: a2 = a3 | a1\n 24092: a2 = a2 | a0\n 24095: a2 = a2 >> 0x20\n 24098: a0 = a0 | a1\n 24101: a0 = a0 << 0x20\n 24104: a0 = a0 | a2\n 24107: jump @937 if a0 == 0\n      : @936 (gas: 1)\n 24110: jump @1123\n      : @937 (gas: 13)\n 24113: a0 = u64 [s1 + 0x120]\n 24117: a2 = a4 + 0x600\n 24121: u64 [a2 + 0xc8] = a0\n 24125: a0 = u64 [s1 + 0x128]\n 24129: u64 [a2 + 0xd0] = a0\n 24133: a0 = u64 [s1 + 0x130]\n 24137: u64 [a2 + 0xd8] = a0\n 24141: a1 = s1 + 0x1f80\n 24145: a0 = u64 [s1 + 0x138]\n 24149: u64 [a2 + 0xe0] = a0\n 24153: a0 = a3\n 24155: u64 [s1 + 0x138] = a3\n 24159: ra = 986, jump @19\n      : @938 [@dyn 493] (gas: 6)\n 24165: a0 = u64 [s1 + 0xf0]\n 24169: ra = 0x3dc\n 24173: ecalli 6 // 'caller'\n 24175: a2 = u64 [s1 + 0xf8]\n 24179: t0 = 0x3de\n 24183: jump @2032\n      : @939 [@dyn 494] (gas: 2)\n 24186: a2 = u64 [s1 + 0xf8]\n 24190: t0 = 990, jump @2032\n      : @940 [@dyn 495] (gas: 35)\n 24196: t0 = a1 | a0\n 24199: a3 = a3 >> 0x20\n 24202: a2 = reverse a2\n 24204: a1 = a2 << 0x20\n 24207: t1 = a1 | a3\n 24210: a2 = a2 >> 0x20\n 24213: a1 = s1 + 0x18b8\n 24217: u64 [a1 + 1664] = 0\n 24221: a0 = u64 [s1 + 0xd0]\n 24225: u64 [a1 + 0x6a0] = a0\n 24229: a0 = u64 [s1 + 0xd8]\n 24233: u64 [a1 + 0x698] = a0\n 24237: a0 = u64 [s1 + 0xe0]\n 24241: u64 [a1 + 0x690] = a0\n 24245: a0 = u64 [s1 + 0xe8]\n 24249: u64 [a1 + 0x688] = a0\n 24253: a3 = u64 [0x20080]\n 24258: a4 = u64 [0x20088]\n 24263: a5 = u64 [0x20090]\n 24268: a0 = u64 [0x20098]\n 24273: u64 [a1 + 0x6c0] = a3\n 24277: a3 = a1 + 0x600\n 24281: u64 [a3 + 0xb8] = a4\n 24285: u64 [a3 + 0xb0] = a5\n 24289: u64 [a3 + 0xa8] = a0\n 24293: u64 [a3 + 0x78] = a2\n 24296: u64 [a1 + 0x670] = t1\n 24300: a0 = a1\n 24302: a1 = 0x20\n 24305: a2 = s1 + 0x1f60\n 24309: a3 = s1 + 0x1f40\n 24313: a4 = s1 + 0x1f20\n 24317: u64 [a0 + 0x668] = t0\n 24321: a0 = u64 [s1 + 0x138]\n 24325: ra = 992, jump @28\n      : @941 [@dyn 496] (gas: 3)\n 24331: a0 = s1 + 0x1f00\n 24335: a1 = u64 [s1 + 0xb0]\n 24339: ra = 994, jump @21\n      : @942 [@dyn 497] (gas: 11)\n 24345: a3 = s1 + 0x18b8\n 24349: a4 = a3 + 0x600\n 24353: a0 = u64 [a4 + 0x60]\n 24356: a1 = u64 [a4 + 0x50]\n 24359: a2 = u64 [a4 + 0x48]\n 24362: a3 = u64 [a4 + 0x58]\n 24365: a0 = a0 | a1\n 24368: a1 = a2 ^ 0x10\n 24371: a1 = a1 | a3\n 24374: a0 = a0 | a1\n 24377: jump @946 if a0 != 0\n      : @943 (gas: 5)\n 24380: a0 = s1 + 0x4000\n 24384: i32 a0 = a0 + 0xffffffffffffffc0\n 24387: ra = 0x3e4\n 24391: ecalli 1 // 'block_number'\n 24393: fallthrough\n      : @944 [@dyn 498] (gas: 4)\n 24394: a5 = s1 + 0x100\n 24398: a1 = u64 [a5]\n 24400: a0 = a1 + 0x13\n 24403: t0 = 998, jump @1988\n      : @945 [@dyn 499] (gas: 16)\n 24409: a5 = a4 + 0x700\n 24413: u64 [a5 + 0x28] = a0\n 24416: a0 = u64 [a5 + 0x10]\n 24419: u64 [a5 + 0x30] = a2\n 24422: a2 = u64 [a5 + 0x20]\n 24425: u64 [a5 + 0x38] = a3\n 24428: a3 = u64 [a5 + 0x18]\n 24431: u64 [a5 + 0x40] = a1\n 24434: a1 = u64 [a5 + 0x8]\n 24437: u64 [a5 + 0x60] = a2\n 24440: u64 [a5 + 0x58] = a3\n 24443: u64 [a5 + 0x50] = a0\n 24446: u64 [a5 + 0x48] = a1\n 24449: a0 = s1 + 0x3fe0\n 24453: a1 = s1 + 0x4000\n 24457: ra = 1000, jump @25\n      : @946 [@dyn 500] (gas: 12)\n 24463: a1 = s1 + 0x38b8\n 24467: u64 [a1 + 1920] = 0\n 24471: u64 [a1 + 1912] = 0\n 24475: u64 [a1 + 1904] = 0\n 24479: u64 [a1 + 1896] = 0x9\n 24484: u64 [a1 + 1952] = 0\n 24488: u64 [a1 + 1944] = 0\n 24492: u64 [a1 + 1936] = 0\n 24496: u64 [a1 + 1928] = 0x1\n 24501: a0 = s1 + 0x4020\n 24505: a1 = s1 + 0x4040\n 24509: ra = 1002, jump @25\n      : @947 [@dyn 501] (gas: 5)\n 24515: a0 = 0\n 24517: a1 = u64 [s1 + 0xc8]\n 24521: a2 = 0\n 24523: ecalli 14 // 'seal_return'\n 24525: jump @1174\n      : @948 (gas: 8)\n 24528: a3 = a0 | a5\n 24531: a1 = a4 | a2\n 24534: a3 = a3 | a1\n 24537: a3 = a3 >> 0x20\n 24540: a1 = a1 | a5\n 24543: a1 = a1 << 0x20\n 24546: a1 = a1 | a3\n 24549: jump @950 if a1 == 0\n      : @949 (gas: 1)\n 24552: jump @1123\n      : @950 (gas: 11)\n 24555: u64 [t0 + 1528] = 0\n 24559: u64 [t0 + 1520] = 0\n 24563: u64 [t0 + 1512] = 0\n 24567: a3 = 0x8c379a000000000\n 24577: a1 = s1 + 0x16a0\n 24581: u64 [t0 + 0x600] = a3\n 24585: u64 [s1 + 0x110] = a0\n 24589: u64 [s1 + 0x108] = a4\n 24593: u64 [s1 + 0x100] = a5\n 24597: u64 [s1 + 0xf8] = a2\n 24601: ra = 1004, jump @19\n      : @951 [@dyn 502] (gas: 12)\n 24607: a5 = s1 + 0x100\n 24611: a1 = u64 [a5 + 0x10]\n 24614: a0 = u64 [s1 + 0xf8]\n 24618: a3 = u64 [a5]\n 24620: a3 = a3 | a0\n 24623: a4 = 0x100000000\n 24633: a0 = 0xfffffffc\n 24643: a0 = a1 <u a0\n 24646: a2 = u64 [a5 + 0x8]\n 24649: a0 = 0 if a2 != 0\n 24651: a0 = 0 if a3 != 0\n 24653: jump @953 if a0 != 0\n      : @952 (gas: 1)\n 24656: jump @1123\n      : @953 (gas: 10)\n 24659: i32 a0 = a1 + 0x4\n 24662: a2 = s1 + 0x10b8\n 24666: u64 [a2 + 1504] = 0\n 24670: u64 [a2 + 1496] = 0\n 24674: u64 [a2 + 1480] = 0x20\n 24679: a1 = s1 + 0x1680\n 24683: u64 [a2 + 1488] = 0\n 24687: u64 [s1 + 0x138] = a3\n 24691: u64 [s1 + 0x130] = a4\n 24695: ra = 1006, jump @19\n      : @954 [@dyn 503] (gas: 6)\n 24701: a4 = s1 + 0x100\n 24705: a3 = u64 [a4 + 0x38]\n 24708: a2 = u64 [a4 + 0x8]\n 24711: a1 = u64 [a4 + 0x10]\n 24714: a0 = u64 [a4 + 0x30]\n 24717: t0 = 1008, jump @1964\n      : @955 [@dyn 504] (gas: 1)\n 24723: jump @957 if a0 != 0\n      : @956 (gas: 1)\n 24726: jump @1123\n      : @957 (gas: 8)\n 24729: i32 a0 = a1 + 0x24\n 24732: a3 = s1 + 0x10b8\n 24736: u64 [a3 + 1472] = 0\n 24740: u64 [a3 + 1464] = 0\n 24744: u64 [a3 + 1448] = 0x18\n 24749: a1 = s1 + 0x1660\n 24753: u64 [a3 + 1456] = 0\n 24757: ra = 1010, jump @19\n      : @958 [@dyn 505] (gas: 9)\n 24763: a2 = s1 + 0x100\n 24767: a4 = u64 [a2 + 0x10]\n 24770: a0 = 0xffffffbc\n 24780: a0 = a4 <u a0\n 24783: a1 = u64 [a2 + 0x8]\n 24786: a0 = 0 if a1 != 0\n 24788: a1 = u64 [a2 + 0x38]\n 24791: a0 = 0 if a1 != 0\n 24793: jump @960 if a0 != 0\n      : @959 (gas: 1)\n 24796: jump @1123\n      : @960 (gas: 12)\n 24799: i32 a0 = a4 + 0x44\n 24802: a1 = u64 [0x200b0]\n 24807: a2 = u64 [0x200b8]\n 24812: a3 = u64 [0x200c0]\n 24817: a5 = s1 + 0x10b8\n 24821: a4 = a5 + 0x500\n 24825: u64 [a4 + 0xa0] = a1\n 24829: u64 [a4 + 0x98] = a2\n 24833: u64 [a4 + 0x90] = a3\n 24837: a1 = s1 + 0x1640\n 24841: u64 [a5 + 1416] = 0\n 24845: ra = 1012, jump @19\n      : @961 [@dyn 506] (gas: 4)\n 24851: a1 = 0x64\n 24854: a0 = u64 [s1 + 0x110]\n 24858: ra = 0x406\n 24862: jump @32\n      : @962 (gas: 4)\n 24865: a0 = s1 + 0x7ff\n 24869: a0 = a0 + 0x781\n 24873: a1 = 0x40\n 24876: ra = 1014, jump @17\n      : @963 [@dyn 507] (gas: 15)\n 24882: a2 = s1 + 0x7ff\n 24886: a2 = a2 + 0xb9\n 24890: t0 = u64 [a2 + 0x6e0]\n 24894: a1 = a2 + 0x600\n 24898: a5 = u64 [a1 + 0xd8]\n 24902: a4 = u64 [a1 + 0xd0]\n 24906: a0 = u64 [a1 + 0xc8]\n 24910: a3 = a4 | t0\n 24913: a1 = a0 | a5\n 24916: a1 = a1 | a3\n 24919: a1 = a1 >> 0x20\n 24922: a3 = a3 | a5\n 24925: a3 = a3 << 0x20\n 24928: a1 = a1 | a3\n 24931: jump @965 if a1 == 0\n      : @964 (gas: 1)\n 24934: jump @1123\n      : @965 (gas: 12)\n 24937: u64 [a2 + 1720] = 0\n 24941: u64 [a2 + 1712] = 0\n 24945: u64 [a2 + 1704] = 0\n 24949: a3 = 0x8c379a000000000\n 24959: a1 = s1 + 0x7ff\n 24963: a1 = a1 + 0x761\n 24967: u64 [a2 + 0x6c0] = a3\n 24971: u64 [s1 + 0x138] = a0\n 24975: u64 [s1 + 0x130] = a4\n 24979: u64 [s1 + 0x120] = t0\n 24983: u64 [s1 + 0x128] = a5\n 24987: ra = 1016, jump @19\n      : @966 [@dyn 508] (gas: 6)\n 24993: a5 = s1 + 0x100\n 24997: a1 = u64 [a5 + 0x38]\n 25000: a0 = u64 [a5 + 0x28]\n 25003: a3 = u64 [a5 + 0x20]\n 25006: a3 = a3 | a0\n 25009: t0 = 1018, jump @1957\n      : @967 [@dyn 509] (gas: 1)\n 25015: jump @969 if a0 != 0\n      : @968 (gas: 1)\n 25018: jump @1123\n      : @969 (gas: 12)\n 25021: i32 a0 = a1 + 0x4\n 25024: a2 = s1 + 0x7ff\n 25028: a2 = a2 + 0xb9\n 25032: u64 [a2 + 1696] = 0\n 25036: u64 [a2 + 1688] = 0\n 25040: u64 [a2 + 1672] = 0x20\n 25045: a1 = s1 + 0x7ff\n 25049: a1 = a1 + 0x741\n 25053: u64 [a2 + 1680] = 0\n 25057: u64 [s1 + 0x128] = a3\n 25061: u64 [s1 + 0x120] = a4\n 25065: ra = 1020, jump @19\n      : @970 [@dyn 510] (gas: 1)\n 25071: t0 = 1022, jump @1955\n      : @971 [@dyn 511] (gas: 1)\n 25077: jump @973 if a0 != 0\n      : @972 (gas: 1)\n 25080: jump @1123\n      : @973 (gas: 10)\n 25083: i32 a0 = a1 + 0x24\n 25086: a3 = s1 + 0x7ff\n 25090: a3 = a3 + 0xb9\n 25094: u64 [a3 + 1664] = 0\n 25098: u64 [a3 + 1656] = 0\n 25102: u64 [a3 + 1640] = 0x13\n 25107: a1 = s1 + 0x7ff\n 25111: a1 = a1 + 0x721\n 25115: u64 [a3 + 1648] = 0\n 25119: ra = 1024, jump @19\n      : @974 [@dyn 512] (gas: 1)\n 25125: t0 = 1026, jump @1956\n      : @975 [@dyn 513] (gas: 1)\n 25131: jump @977 if a0 != 0\n      : @976 (gas: 1)\n 25134: jump @1123\n      : @977 (gas: 14)\n 25137: i32 a0 = a3 + 0x44\n 25140: a1 = u64 [0x20060]\n 25145: a2 = u64 [0x200e8]\n 25150: a4 = s1 + 0x7ff\n 25154: a4 = a4 + 0xb9\n 25158: a3 = a4 + 0x600\n 25162: u64 [a3 + 0x60] = a1\n 25165: u64 [a3 + 0x58] = a2\n 25168: a1 = 0x6665650000000000\n 25178: u64 [a3 + 0x50] = a1\n 25181: a1 = s1 + 0x7ff\n 25185: a1 = a1 + 0x701\n 25189: u64 [a4 + 1608] = 0\n 25193: ra = 1028, jump @19\n      : @978 [@dyn 514] (gas: 3)\n 25199: a1 = 0x64\n 25202: a0 = u64 [s1 + 0x138]\n 25206: ra = 1030, jump @32\n      : @979 [@dyn 515] (gas: 1)\n 25212: t0 = 1032, jump @1995\n      : @980 [@dyn 516] (gas: 2)\n 25218: ecalli 14 // 'seal_return'\n 25220: fallthrough\n      : @981 (gas: 3)\n 25221: a0 = s1 + 0x2640\n 25225: a1 = 0x40\n 25228: ra = 1034, jump @17\n      : @982 [@dyn 517] (gas: 14)\n 25234: a2 = s1 + 0x20b8\n 25238: t0 = u64 [a2 + 0x5a0]\n 25242: a1 = a2 + 0x500\n 25246: a5 = u64 [a1 + 0x98]\n 25250: a4 = u64 [a1 + 0x90]\n 25254: a0 = u64 [a1 + 0x88]\n 25258: a3 = a4 | t0\n 25261: a1 = a0 | a5\n 25264: a1 = a1 | a3\n 25267: a1 = a1 >> 0x20\n 25270: a3 = a3 | a5\n 25273: a3 = a3 << 0x20\n 25276: a1 = a1 | a3\n 25279: jump @984 if a1 == 0\n      : @983 (gas: 1)\n 25282: jump @1123\n      : @984 (gas: 11)\n 25285: u64 [a2 + 1400] = 0\n 25289: u64 [a2 + 1392] = 0\n 25293: u64 [a2 + 1384] = 0\n 25297: a3 = 0x8c379a000000000\n 25307: a1 = s1 + 0x2620\n 25311: u64 [a2 + 0x580] = a3\n 25315: u64 [s1 + 0x138] = a0\n 25319: u64 [s1 + 0x130] = a4\n 25323: u64 [s1 + 0x120] = t0\n 25327: u64 [s1 + 0x128] = a5\n 25331: ra = 1036, jump @19\n      : @985 [@dyn 518] (gas: 6)\n 25337: a5 = s1 + 0x100\n 25341: a1 = u64 [a5 + 0x38]\n 25344: a0 = u64 [a5 + 0x28]\n 25347: a3 = u64 [a5 + 0x20]\n 25350: a3 = a3 | a0\n 25353: t0 = 1038, jump @1957\n      : @986 [@dyn 519] (gas: 1)\n 25359: jump @988 if a0 != 0\n      : @987 (gas: 1)\n 25362: jump @1123\n      : @988 (gas: 1)\n 25365: t0 = 1040, jump @2028\n      : @989 [@dyn 520] (gas: 8)\n 25371: u64 [a2 + 1376] = 0\n 25375: u64 [a2 + 1368] = 0\n 25379: u64 [a2 + 1352] = 0x20\n 25384: a1 = s1 + 0x2600\n 25388: u64 [a2 + 1360] = 0\n 25392: u64 [s1 + 0x128] = a3\n 25396: u64 [s1 + 0x120] = a4\n 25400: ra = 1042, jump @19\n      : @990 [@dyn 521] (gas: 1)\n 25406: t0 = 1044, jump @1955\n      : @991 [@dyn 522] (gas: 1)\n 25412: jump @993 if a0 != 0\n      : @992 (gas: 1)\n 25415: jump @1123\n      : @993 (gas: 8)\n 25418: i32 a0 = a1 + 0x24\n 25421: a3 = s1 + 0x20b8\n 25425: u64 [a3 + 1344] = 0\n 25429: u64 [a3 + 1336] = 0\n 25433: u64 [a3 + 1320] = 0x13\n 25438: a1 = s1 + 0x25e0\n 25442: u64 [a3 + 1328] = 0\n 25446: ra = 1046, jump @19\n      : @994 [@dyn 523] (gas: 1)\n 25452: t0 = 1048, jump @1956\n      : @995 [@dyn 524] (gas: 1)\n 25458: jump @997 if a0 != 0\n      : @996 (gas: 1)\n 25461: jump @1123\n      : @997 (gas: 13)\n 25464: i32 a0 = a3 + 0x44\n 25467: a1 = u64 [0x20060]\n 25472: a2 = u64 [0x20068]\n 25477: a4 = s1 + 0x20b8\n 25481: a3 = a4 + 0x500\n 25485: u64 [a3 + 0x20] = a1\n 25488: u64 [a3 + 0x18] = a2\n 25491: a1 = 0x6665650000000000\n 25501: u64 [a3 + 0x10] = a1\n 25504: a1 = s1 + 0x25c0\n 25508: u64 [a4 + 1288] = 0\n 25512: ra = 0x404\n 25516: jump @19\n      : @998 (gas: 17)\n 25519: a2 = s1 + 0x28b8\n 25523: u64 [a2 + 1504] = 0\n 25527: u64 [a2 + 1496] = 0\n 25531: u64 [a2 + 1488] = 0\n 25535: a1 = a2 + 0x500\n 25539: u64 [a1 + 200] = 0x200\n 25545: a0 = u64 [s1 + 0x98]\n 25549: u64 [a1 + 0xe8] = a0\n 25553: a0 = u64 [s1 + 0xb0]\n 25557: u64 [a1 + 0xf0] = a0\n 25561: a0 = u64 [s1 + 0xa8]\n 25565: u64 [a1 + 0xf8] = a0\n 25569: a0 = s1 + 0x2ea0\n 25573: a1 = s1 + 0x2e80\n 25577: a3 = u64 [s1 + 0xa0]\n 25581: u64 [a2 + 0x600] = a3\n 25585: ra = 1050, jump @1336\n      : @999 [@dyn 525] (gas: 3)\n 25591: a0 = s1 + 0x2e60\n 25595: a1 = 0x40\n 25598: ra = 1052, jump @17\n      : @1000 [@dyn 526] (gas: 27)\n 25604: a0 = s1 + 0x28b8\n 25608: a3 = u64 [a0 + 0x5c0]\n 25612: u64 [s1 + 0x138] = a3\n 25616: a2 = u64 [a0 + 0x5b8]\n 25620: u64 [s1 + 0x130] = a2\n 25624: a4 = u64 [a0 + 0x5b0]\n 25628: u64 [s1 + 0x128] = a4\n 25632: a5 = u64 [a0 + 0x5a8]\n 25636: u64 [s1 + 0x120] = a5\n 25640: a1 = u64 [s1 + 0xa0]\n 25644: u64 [a0 + 0x560] = a1\n 25648: a1 = u64 [s1 + 0xa8]\n 25652: u64 [a0 + 0x558] = a1\n 25656: a1 = u64 [s1 + 0xb0]\n 25660: u64 [a0 + 0x550] = a1\n 25664: a1 = u64 [s1 + 0x98]\n 25668: u64 [a0 + 0x548] = a1\n 25672: a1 = a0 + 0x500\n 25676: u64 [a1 + 0x80] = a3\n 25680: u64 [a1 + 0x78] = a2\n 25683: u64 [a1 + 0x70] = a4\n 25686: a3 = a0\n 25688: a0 = s1 + 0x2e40\n 25692: a1 = s1 + 0x2e20\n 25696: a2 = s1 + 0x2e00\n 25700: u64 [a3 + 0x568] = a5\n 25704: ra = 1054, jump @1302\n      : @1001 [@dyn 527] (gas: 1)\n 25710: t0 = 1056, jump @2005\n      : @1002 [@dyn 528] (gas: 1)\n 25716: jump @1004 if a0 == 0\n      : @1003 (gas: 1)\n 25719: jump @1123\n      : @1004 (gas: 9)\n 25722: t0 = a3\n 25724: a1 = s1 + 0x28b8\n 25728: a5 = a1 + 0x500\n 25732: a0 = u64 [a5 + 0x90]\n 25736: a3 = u64 [a5 + 0xa0]\n 25740: u64 [s1 + 0x118] = a3\n 25744: t1 = u64 [a1 + 0x588]\n 25748: a3 = u64 [a5 + 0x98]\n 25752: jump @1012\n      : @1005 (gas: 15)\n 25755: u64 [s1 + 1240] = 0\n 25759: u64 [s1 + 1232] = 0\n 25763: u64 [s1 + 1224] = 0\n 25767: u64 [s1 + 1216] = 0x200\n 25773: a0 = u64 [s1 + 0x98]\n 25777: u64 [s1 + 0x4e0] = a0\n 25781: a0 = u64 [s1 + 0xb0]\n 25785: u64 [s1 + 0x4e8] = a0\n 25789: a0 = u64 [s1 + 0xa8]\n 25793: u64 [s1 + 0x4f0] = a0\n 25797: a0 = s1 + 0x4e0\n 25801: a1 = s1 + 0x4c0\n 25805: a2 = u64 [s1 + 0xa0]\n 25809: u64 [s1 + 0x4f8] = a2\n 25813: ra = 1058, jump @1336\n      : @1006 [@dyn 529] (gas: 3)\n 25819: a0 = s1 + 0x4a0\n 25823: a1 = 0x40\n 25826: ra = 1060, jump @17\n      : @1007 [@dyn 530] (gas: 25)\n 25832: a5 = s1 + 0x400\n 25836: a2 = u64 [a5 + 0xb8]\n 25840: u64 [s1 + 0x138] = a2\n 25844: a1 = u64 [a5 + 0xb0]\n 25848: u64 [s1 + 0x130] = a1\n 25852: a3 = u64 [a5 + 0xa8]\n 25856: u64 [s1 + 0x128] = a3\n 25860: a4 = u64 [a5 + 0xa0]\n 25864: u64 [s1 + 0x120] = a4\n 25868: a0 = u64 [s1 + 0xa0]\n 25872: u64 [a5 + 0x58] = a0\n 25875: a0 = u64 [s1 + 0xa8]\n 25879: u64 [a5 + 0x50] = a0\n 25882: a0 = u64 [s1 + 0xb0]\n 25886: u64 [a5 + 0x48] = a0\n 25889: a0 = u64 [s1 + 0x98]\n 25893: u64 [a5 + 0x40] = a0\n 25896: u64 [a5 + 0x78] = a2\n 25899: u64 [a5 + 0x70] = a1\n 25902: u64 [a5 + 0x68] = a3\n 25905: a0 = s1 + 0x480\n 25909: a1 = s1 + 0x460\n 25913: a2 = s1 + 0x440\n 25917: u64 [a5 + 0x60] = a4\n 25920: ra = 1062, jump @1302\n      : @1008 [@dyn 531] (gas: 1)\n 25926: t0 = 1064, jump @2005\n      : @1009 [@dyn 532] (gas: 1)\n 25932: jump @1011 if a0 == 0\n      : @1010 (gas: 1)\n 25935: jump @1123\n      : @1011 (gas: 8)\n 25938: t0 = a3\n 25940: a5 = s1 + 0x400\n 25944: a0 = u64 [a5 + 0x88]\n 25948: a1 = u64 [a5 + 0x98]\n 25952: u64 [s1 + 0x118] = a1\n 25956: t1 = u64 [s1 + 0x480]\n 25960: a3 = u64 [a5 + 0x90]\n 25964: fallthrough\n      : @1012 (gas: 26)\n 25965: t2 = a0 ^ a4\n 25968: a5 = a0 <u a4\n 25971: ra = t1 <u a2\n 25974: a5 = ra if t2 == 0\n 25977: a1 = a3 - t0\n 25980: t2 = a1 - a5\n 25983: a1 = a1 <u a5\n 25986: u64 [s1 + 0x110] = a1\n 25990: a3 = a3 <u t0\n 25993: a5 = u64 [s1 + 0x138]\n 25997: a1 = u64 [s1 + 0x118]\n 26001: a5 = a1 - a5\n 26004: a5 = a5 - a3\n 26007: a1 = u64 [s1 + 0x110]\n 26011: a5 = a5 - a1\n 26014: a0 = a0 - a4\n 26017: a0 = a0 - ra\n 26020: a1 = t1 - a2\n 26023: a0 = a0 | a5\n 26026: a3 = a1 | t2\n 26029: a3 = a3 | a0\n 26032: a0 = a0 | t2\n 26035: a3 = a3 >> 0x20\n 26038: a0 = a0 << 0x20\n 26041: a0 = a0 | a3\n 26044: jump @1014 if a0 == 0\n      : @1013 (gas: 1)\n 26047: jump @1123\n      : @1014 (gas: 4)\n 26050: a0 = a2\n 26052: u64 [s1 + 0x138] = a1\n 26056: ra = 0x42a\n 26060: jump @32\n      : @1015 (gas: 2)\n 26063: u64 [s1 + 0x138] = a1\n 26067: ra = 1066, jump @32\n      : @1016 [@dyn 533] (gas: 3)\n 26073: i32 a1 = a0 + 0\n 26075: a2 = i32 [s1 + 0x138]\n 26079: jump @840\n      : @1017 (gas: 8)\n 26082: u64 [a5 + 992] = 0\n 26086: u64 [a5 + 984] = 0\n 26090: u64 [a5 + 976] = 0\n 26094: u64 [a5 + 968] = 0x4\n 26099: a0 = s1 + 0x7ff\n 26103: a0 = a0 + 0x6e1\n 26107: a1 = s1 + 0x3480\n 26111: ra = 1068, jump @21\n      : @1018 [@dyn 534] (gas: 15)\n 26117: a4 = s1 + 0x7ff\n 26121: a4 = a4 + 0xb9\n 26125: a5 = a4 + 0x600\n 26129: a0 = u64 [a5 + 0x28]\n 26132: a1 = u64 [a5 + 0x30]\n 26135: a2 = u64 [a5 + 0x38]\n 26138: a3 = u64 [a5 + 0x40]\n 26141: u64 [a5 + 0x20] = a3\n 26144: u64 [a5 + 0x18] = a2\n 26147: u64 [a5 + 0x10] = a1\n 26150: a1 = s1 + 0x7ff\n 26154: a1 = a1 + 0x6c1\n 26158: u64 [a5 + 0x8] = a0\n 26161: a0 = 0\n 26163: ra = 1070, jump @19\n      : @1019 [@dyn 535] (gas: 11)\n 26169: a1 = s1 + 0x7ff\n 26173: a1 = a1 + 0xb9\n 26177: u64 [a1 + 1536] = 0\n 26181: u64 [a1 + 1528] = 0\n 26185: u64 [a1 + 1512] = 0x3\n 26190: a2 = a1\n 26192: a0 = 0x20\n 26195: a1 = s1 + 0x7ff\n 26199: a1 = a1 + 0x6a1\n 26203: u64 [a2 + 1520] = 0\n 26207: ra = 1072, jump @19\n      : @1020 [@dyn 536] (gas: 3)\n 26213: a1 = 0x2025c\n 26218: a0 = i32 [0x2025c]\n 26223: jump @1022 if a0 >u 63\n      : @1021 (gas: 3)\n 26227: u32 [0x2025c] = 0x40\n 26233: t0 = 0x432\n 26237: jump @1975\n      : @1022 (gas: 1)\n 26240: t0 = 1074, jump @1975\n      : @1023 [@dyn 537] (gas: 44)\n 26246: a0 = 0x20270\n 26251: i32 a0 = a0 + 0\n 26253: i32 a2 = a2 + 0\n 26255: u64 [s1 + 0x38] = a1\n 26258: a1 = 0x40\n 26261: u64 [s1 + 0x30] = a0\n 26264: ecalli 9 // 'hash_keccak_256'\n 26266: a3 = u64 [s1 + 0x138]\n 26270: a0 = u64 [a3]\n 26272: a1 = u64 [a3 + 0x8]\n 26275: a2 = u64 [a3 + 0x10]\n 26278: a3 = u64 [a3 + 0x18]\n 26281: a4 = reverse a0\n 26283: a5 = reverse a1\n 26285: a1 = reverse a2\n 26287: a0 = reverse a3\n 26289: a2 = a0 + 0x10\n 26292: u64 [s1 + 0x28] = a2\n 26295: u64 [s1 + 0xa0] = a0\n 26299: a0 = a2 <u a0\n 26302: a2 = a1 + a0\n 26305: u64 [s1 + 0x20] = a2\n 26308: u64 [s1 + 0xa8] = a1\n 26312: a1 = a2 <u a1\n 26315: a1 = a0 if a0 == 0\n 26318: a1 = a1 + a5\n 26321: u64 [s1 + 0x18] = a1\n 26324: u64 [s1 + 0xb0] = a5\n 26328: a0 = a1 <u a5\n 26331: u64 [s1 + 0xb8] = a4\n 26335: a0 = a0 + a4\n 26338: u64 [s1 + 0x10] = a0\n 26341: a0 = sp + 0xffffffffffffffe0\n 26344: a0 = a0 & 0xffffffffffffffe0\n 26347: u64 [s1 + 0x138] = a0\n 26351: sp = a0\n 26353: a0 = 0x30270\n 26358: u64 [s1 + 0xc8] = a0\n 26362: i32 a0 = a0 + 0\n 26364: u64 [s1 + 0x98] = a0\n 26368: ra = 0x434\n 26372: ecalli 6 // 'caller'\n 26374: t0 = 0x436\n 26378: jump @1960\n      : @1024 [@dyn 538] (gas: 1)\n 26381: t0 = 1078, jump @1960\n      : @1025 [@dyn 539] (gas: 9)\n 26387: u64 [a2 + 1504] = 0\n 26391: a4 = a2 + 0x500\n 26395: u64 [a4 + 0xd8] = a1\n 26399: u64 [a4 + 0xd0] = a0\n 26403: a1 = s1 + 0x7ff\n 26407: a1 = a1 + 0x681\n 26411: u64 [a4 + 0xc8] = a3\n 26415: a0 = 0\n 26417: ra = 1080, jump @19\n      : @1026 [@dyn 540] (gas: 16)\n 26423: a0 = u64 [s1 + 0x10]\n 26426: a1 = s1 + 0x7ff\n 26430: a1 = a1 + 0xb9\n 26434: a2 = a1 + 0x500\n 26438: u64 [a2 + 0xc0] = a0\n 26442: a0 = u64 [s1 + 0x18]\n 26445: u64 [a2 + 0xb8] = a0\n 26449: a0 = u64 [s1 + 0x20]\n 26452: u64 [a2 + 0xb0] = a0\n 26456: a3 = a1\n 26458: a0 = 0x20\n 26461: a1 = s1 + 0x7ff\n 26465: a1 = a1 + 0x661\n 26469: a2 = u64 [s1 + 0x28]\n 26472: u64 [a3 + 0x5a8] = a2\n 26476: ra = 1082, jump @19\n      : @1027 [@dyn 541] (gas: 3)\n 26482: a1 = u64 [s1 + 0x38]\n 26485: a0 = i32 [a1]\n 26487: jump @1029 if a0 >u 63\n      : @1028 (gas: 2)\n 26491: u32 [a1 + 0] = 0x40\n 26494: fallthrough\n      : @1029 (gas: 3)\n 26495: a0 = 0xffffffff\n 26505: u64 [s1 + 0xc0] = a0\n 26509: t0 = 1084, jump @2021\n      : @1030 [@dyn 542] (gas: 4)\n 26515: ra = 0x43e\n 26519: ecalli 9 // 'hash_keccak_256'\n 26521: t0 = 0x440\n 26525: jump @1980\n      : @1031 [@dyn 543] (gas: 1)\n 26528: t0 = 1088, jump @1980\n      : @1032 [@dyn 544] (gas: 2)\n 26534: a0 = a0 + 0x641\n 26538: ra = 1090, jump @21\n      : @1033 [@dyn 545] (gas: 26)\n 26544: a5 = s1 + 0x7ff\n 26548: a5 = a5 + 0xb9\n 26552: a3 = u64 [a5 + 0x588]\n 26556: a0 = u64 [a5 + 0x590]\n 26560: a1 = u64 [a5 + 0x598]\n 26564: a2 = u64 [a5 + 0x5a0]\n 26568: a4 = u64 [s1 + 0x110]\n 26572: u64 [a5 + 0x540] = a4\n 26576: a4 = u64 [s1 + 0x118]\n 26580: u64 [a5 + 0x538] = a4\n 26584: a4 = u64 [s1 + 0x108]\n 26588: u64 [a5 + 0x530] = a4\n 26592: a4 = u64 [s1 + 0x100]\n 26596: u64 [a5 + 0x528] = a4\n 26600: a4 = a5 + 0x500\n 26604: u64 [a4 + 0x60] = a2\n 26607: u64 [a4 + 0x58] = a1\n 26610: u64 [a4 + 0x50] = a0\n 26613: a0 = s1 + 0x7ff\n 26617: a0 = a0 + 0x621\n 26621: a1 = s1 + 0x7ff\n 26625: a1 = a1 + 0x601\n 26629: a2 = s1 + 0x7ff\n 26633: a2 = a2 + 0x5e1\n 26637: u64 [a4 + 0x48] = a3\n 26640: ra = 1092, jump @1403\n      : @1034 [@dyn 546] (gas: 20)\n 26646: a4 = s1 + 0x7ff\n 26650: a4 = a4 + 0xb9\n 26654: a5 = a4 + 0x500\n 26658: a0 = u64 [a5 + 0x80]\n 26662: a1 = u64 [a5 + 0x78]\n 26665: a2 = u64 [a5 + 0x68]\n 26668: a3 = u64 [a5 + 0x70]\n 26671: a0 = a0 | a1\n 26674: a1 = a2 <u 0x9\n 26677: a1 = 0 if a3 != 0\n 26679: a1 = 0 if a0 != 0\n 26681: u64 [a4 + 1312] = 0\n 26685: u64 [a4 + 1304] = 0\n 26689: u64 [a5 + 0x8] = a1\n 26692: a0 = s1 + 0x7ff\n 26696: a0 = a0 + 0x5c1\n 26700: u64 [a4 + 1296] = 0\n 26704: ra = 0x446\n 26708: t0 = 0x5e2\n 26712: jump @1953\n      : @1035 [@dyn 547] (gas: 11)\n 26715: a2 = 0\n 26717: a3 = 0\n 26719: ra = 0\n 26721: t2 = 0\n 26723: a0 = s1 + 0x3000\n 26727: i32 a0 = a0 + 0x4a0\n 26731: u64 [s1 + 0x48] = a0\n 26734: a0 = s1 + 0x3000\n 26738: i32 a0 = a0 + 0x4c0\n 26742: u64 [s1 + 0x40] = a0\n 26745: fallthrough\n      : @1036 (gas: 22)\n 26746: u64 [s1 + 0x128] = t2\n 26750: u64 [s1 + 0x120] = ra\n 26754: u64 [s1 + 0x130] = a3\n 26758: u64 [s1 + 0x138] = a2\n 26762: t1 = u64 [s1 + 0x100]\n 26766: a0 = a2 <u t1\n 26769: t0 = u64 [s1 + 0x108]\n 26773: a1 = a3 ^ t0\n 26776: a2 = a3 <u t0\n 26779: a2 = a0 if a1 == 0\n 26782: a4 = u64 [s1 + 0x118]\n 26786: a0 = ra <u a4\n 26789: a5 = u64 [s1 + 0x110]\n 26793: a1 = t2 ^ a5\n 26796: a3 = t2 <u a5\n 26799: a3 = a0 if a1 == 0\n 26802: a0 = ra ^ a4\n 26805: a0 = a0 | a1\n 26808: a3 = a2 if a0 == 0\n 26811: a2 = u64 [s1 + 0xf8]\n 26815: ra = u64 [s1 + 0xf0]\n 26819: jump @1038 if a3 != 0\n      : @1037 (gas: 1)\n 26822: jump @1124\n      : @1038 (gas: 33)\n 26825: a1 = s1 + 0x7ff\n 26829: a1 = a1 + 0xb9\n 26833: a3 = s1 + 0x100\n 26837: a0 = u64 [a3 + 0x38]\n 26840: u64 [a1 + 0x1a8] = a0\n 26844: u64 [a1 + 0x1c8] = t1\n 26848: u64 [a1 + 0x1e8] = a2\n 26852: a0 = u64 [a3 + 0x30]\n 26855: a2 = a1 + 0x100\n 26859: u64 [a2 + 0xb0] = a0\n 26863: u64 [a1 + 0x1d0] = t0\n 26867: u64 [a1 + 0x1f0] = ra\n 26871: a0 = u64 [a3 + 0x20]\n 26874: u64 [a2 + 0xb8] = a0\n 26878: u64 [a2 + 0xd8] = a4\n 26882: a0 = u64 [s1 + 0xe8]\n 26886: u64 [a2 + 0xf8] = a0\n 26890: a0 = u64 [a3 + 0x28]\n 26893: u64 [a2 + 0xc0] = a0\n 26897: u64 [a2 + 0xe0] = a5\n 26901: a0 = s1 + 0x7ff\n 26905: a0 = a0 + 0x2c1\n 26909: a1 = s1 + 0x7ff\n 26913: a1 = a1 + 0x2a1\n 26917: a2 = s1 + 0x7ff\n 26921: a2 = a2 + 0x281\n 26925: a3 = s1 + 0x7ff\n 26929: a3 = a3 + 0x261\n 26933: t1 = u64 [s1 + 0xe0]\n 26937: t2 = s1 + 0x7ff\n 26941: t2 = t2 + 0xb9\n 26945: u64 [t2 + 0x200] = t1\n 26949: ra = 1096, jump @1435\n      : @1039 [@dyn 548] (gas: 8)\n 26955: a1 = s1 + 0x7ff\n 26959: a1 = a1 + 0xb9\n 26963: a4 = a1 + 0x200\n 26967: a0 = u64 [a4 + 0x20]\n 26970: a2 = u64 [a4 + 0x18]\n 26973: a3 = u64 [a4 + 0x10]\n 26976: a1 = u64 [a4 + 0x8]\n 26979: t0 = 1098, jump @1985\n      : @1040 [@dyn 549] (gas: 1)\n 26985: jump @1042 if a0 == 0\n      : @1041 (gas: 1)\n 26988: jump @1123\n      : @1042 (gas: 24)\n 26991: i32 a1 = a1 + 0\n 26993: a0 = u64 [s1 + 0x48]\n 26996: ecalli 4 // 'call_data_load'\n 26998: a3 = s1 + 0x30b8\n 27002: a0 = u64 [a3 + 0x400]\n 27006: a4 = a3 + 0x300\n 27010: a1 = u64 [a4 + 0xf8]\n 27014: a2 = u64 [a4 + 0xe8]\n 27018: a3 = u64 [a4 + 0xf0]\n 27022: a0 = a0 | a1\n 27025: a1 = a2 <u 0x10\n 27028: a1 = 0 if a3 != 0\n 27030: a1 = 0 if a0 != 0\n 27032: a2 = s1 + 0x7ff\n 27036: a2 = a2 + 0xb9\n 27040: u64 [a2 + 416] = 0\n 27044: u64 [a2 + 408] = 0\n 27048: u64 [a2 + 0x188] = a1\n 27052: a0 = s1 + 0x7ff\n 27056: a0 = a0 + 0x241\n 27060: u64 [a2 + 400] = 0\n 27064: ra = 0x44c\n 27068: t0 = 0x60c\n 27072: jump @1953\n      : @1043 [@dyn 550] (gas: 42)\n 27075: a0 = sp + 0xffffffffffffffe0\n 27078: a0 = a0 & 0xffffffffffffffe0\n 27081: u64 [s1 + 0xd8] = a0\n 27085: sp = a0\n 27087: a2 = s1 + 0x100\n 27091: a0 = u64 [a2 + 0x28]\n 27094: a1 = s1 + 0x7ff\n 27098: a1 = a1 + 0xb9\n 27102: a3 = a1 + 0x100\n 27106: u64 [a3 + 0x20] = a0\n 27109: a0 = u64 [a2 + 0x20]\n 27112: u64 [a3 + 0x18] = a0\n 27115: a0 = u64 [a2 + 0x30]\n 27118: u64 [a3 + 0x10] = a0\n 27121: a0 = u64 [a2 + 0x38]\n 27124: u64 [a3 + 0x8] = a0\n 27127: a0 = u64 [a2 + 0x10]\n 27130: u64 [a3 + 0x40] = a0\n 27133: a0 = u64 [a2 + 0x18]\n 27136: u64 [a3 + 0x38] = a0\n 27139: a0 = u64 [a2 + 0x8]\n 27142: u64 [a3 + 0x30] = a0\n 27145: a0 = u64 [a2]\n 27147: u64 [a3 + 0x28] = a0\n 27150: a0 = u64 [s1 + 0xe0]\n 27154: u64 [a3 + 0x60] = a0\n 27157: a0 = u64 [s1 + 0xe8]\n 27161: u64 [a3 + 0x58] = a0\n 27164: a0 = u64 [s1 + 0xf0]\n 27168: u64 [a3 + 0x50] = a0\n 27171: a5 = a1\n 27173: a0 = s1 + 0x7ff\n 27177: a0 = a0 + 0x221\n 27181: a1 = s1 + 0x7ff\n 27185: a1 = a1 + 0x201\n 27189: a2 = s1 + 0x7ff\n 27193: a2 = a2 + 0x1e1\n 27197: a3 = s1 + 0x7ff\n 27201: a3 = a3 + 0x1c1\n 27205: a4 = u64 [s1 + 0xf8]\n 27209: u64 [a5 + 0x148] = a4\n 27213: ra = 1102, jump @1435\n      : @1044 [@dyn 551] (gas: 8)\n 27219: a1 = s1 + 0x7ff\n 27223: a1 = a1 + 0xb9\n 27227: a4 = a1 + 0x100\n 27231: a0 = u64 [a4 + 0x80]\n 27235: a2 = u64 [a4 + 0x78]\n 27238: a3 = u64 [a4 + 0x70]\n 27241: a1 = u64 [a4 + 0x68]\n 27244: t0 = 1104, jump @1985\n      : @1045 [@dyn 552] (gas: 1)\n 27250: jump @1047 if a0 == 0\n      : @1046 (gas: 1)\n 27253: jump @1123\n      : @1047 (gas: 30)\n 27256: i32 a1 = a1 + 0\n 27258: a0 = u64 [s1 + 0x40]\n 27261: ecalli 4 // 'call_data_load'\n 27263: a3 = s1 + 0x30b8\n 27267: a4 = a3 + 0x400\n 27271: a0 = u64 [a4 + 0x8]\n 27274: a1 = u64 [a4 + 0x10]\n 27277: a2 = u64 [a4 + 0x18]\n 27280: a3 = u64 [a4 + 0x20]\n 27283: a4 = s1 + 0x7ff\n 27287: a4 = a4 + 0xb9\n 27291: u64 [a4 + 0xa0] = a3\n 27295: u64 [a4 + 0x98] = a2\n 27299: u64 [a4 + 0x90] = a1\n 27303: u64 [a4 + 0x88] = a0\n 27307: a0 = u64 [s1 + 0xb8]\n 27311: u64 [a4 + 0xc0] = a0\n 27315: a0 = u64 [s1 + 0xb0]\n 27319: u64 [a4 + 0xb8] = a0\n 27323: a0 = u64 [s1 + 0xa8]\n 27327: u64 [a4 + 0xb0] = a0\n 27331: a0 = s1 + 0x7ff\n 27335: a0 = a0 + 0x181\n 27339: a1 = s1 + 0x7ff\n 27343: a1 = a1 + 0x161\n 27347: a2 = s1 + 0x7ff\n 27351: a2 = a2 + 0x141\n 27355: a3 = u64 [s1 + 0xa0]\n 27359: u64 [a4 + 0xa8] = a3\n 27363: ra = 1106, jump @1467\n      : @1048 [@dyn 553] (gas: 22)\n 27369: a1 = s1 + 0x7ff\n 27373: a1 = a1 + 0xb9\n 27377: a0 = u64 [a1 + 0x100]\n 27381: u64 [s1 + 0x70] = a0\n 27384: a0 = u64 [a1 + 0xf8]\n 27388: u64 [s1 + 0x68] = a0\n 27391: a0 = u64 [a1 + 0xf0]\n 27395: u64 [s1 + 0x60] = a0\n 27398: a0 = u64 [a1 + 0xe8]\n 27402: u64 [s1 + 0xd0] = a0\n 27406: a0 = u64 [a1 + 0xd8]\n 27410: a5 = u64 [a1 + 0xe0]\n 27414: a2 = u64 [a1 + 0xc8]\n 27418: a3 = u64 [a1 + 0xd0]\n 27422: a1 = u64 [s1 + 0xd8]\n 27426: u64 [a1 + 0x10] = a0\n 27429: u64 [a1 + 0x18] = a5\n 27432: u64 [a1] = a2\n 27434: u64 [a1 + 0x8] = a3\n 27437: a0 = s1 + 0x7ff\n 27441: a0 = a0 + 0x121\n 27445: ra = 1108, jump @21\n      : @1049 [@dyn 554] (gas: 26)\n 27451: a0 = s1 + 0x7ff\n 27455: a0 = a0 + 0xb9\n 27459: a1 = u64 [a0 + 0x70]\n 27462: u64 [s1 + 0x90] = a1\n 27466: a1 = u64 [a0 + 0x68]\n 27469: u64 [s1 + 0x88] = a1\n 27473: a1 = u64 [a0 + 0x80]\n 27477: u64 [s1 + 0x80] = a1\n 27481: a0 = u64 [a0 + 0x78]\n 27484: u64 [s1 + 0x78] = a0\n 27487: a5 = u64 [s1 + 0xd0]\n 27491: a0 = a5 >> 0x3d\n 27494: a2 = u64 [s1 + 0x60]\n 27497: a1 = a2 << 0x3\n 27500: a0 = a0 | a1\n 27503: a1 = a2 >> 0x3d\n 27506: a3 = u64 [s1 + 0x68]\n 27509: a2 = a3 << 0x3\n 27512: a1 = a1 | a2\n 27515: a2 = a3 >> 0x3d\n 27518: a3 = u64 [s1 + 0x70]\n 27521: a3 = a3 << 0x3\n 27524: a2 = a2 | a3\n 27527: a5 = a5 << 0x3\n 27530: u64 [s1 + 0xd8] = a5\n 27534: t0 = 1110, jump @1966\n      : @1050 [@dyn 555] (gas: 5)\n 27540: u64 [s1 + 0x70] = a4\n 27543: i32 a2 = a5 + 0xffffffffffffff80\n 27546: a0 = 0xffffffffffffffff\n 27549: a1 = 0xffffffffffffffff\n 27552: ra = 1112, jump @2043\n      : @1051 [@dyn 556] (gas: 8)\n 27558: u64 [s1 + 0x68] = a0\n 27561: u64 [s1 + 0x60] = a1\n 27564: a0 = u64 [s1 + 0xd0]\n 27568: i32 a2 = a0 << 0x3\n 27571: u64 [s1 + 0xd0] = a2\n 27575: a0 = u64 [s1 + 0xc0]\n 27579: a1 = 0\n 27581: ra = 1114, jump @2043\n      : @1052 [@dyn 557] (gas: 7)\n 27587: u64 [s1 + 0x58] = a0\n 27590: u64 [s1 + 0x50] = a1\n 27593: a1 = u64 [s1 + 0xd8]\n 27597: i32 a2 = 0x80 - a1\n 27601: a0 = 0xffffffffffffffff\n 27604: a1 = 0xffffffffffffffff\n 27607: ra = 1116, jump @2038\n      : @1053 [@dyn 558] (gas: 20)\n 27613: a2 = u64 [s1 + 0x50]\n 27616: a2 = a2 | a1\n 27619: a1 = u64 [s1 + 0xd8]\n 27623: a4 = a1 <u 0x80\n 27627: u64 [s1 + 0x50] = a4\n 27630: a3 = u64 [s1 + 0x60]\n 27633: a2 = a3 if a4 == 0\n 27636: a2 = 0 if a1 == 0\n 27638: u64 [s1 + 0x60] = a2\n 27641: a2 = u64 [s1 + 0x58]\n 27644: a2 = a2 | a0\n 27647: a0 = u64 [s1 + 0x68]\n 27650: a2 = a0 if a4 == 0\n 27653: a0 = u64 [s1 + 0xc0]\n 27657: a2 = a0 if a1 == 0\n 27660: u64 [s1 + 0xd8] = a2\n 27664: a0 = 0xffffffffffffffff\n 27667: a1 = 0xffffffffffffffff\n 27670: a2 = u64 [s1 + 0xd0]\n 27674: ra = 1118, jump @2043\n      : @1054 [@dyn 559] (gas: 30)\n 27680: a2 = u64 [s1 + 0x50]\n 27683: a1 = 0 if a2 == 0\n 27685: a0 = 0 if a2 == 0\n 27687: a2 = u64 [s1 + 0x78]\n 27690: a3 = u64 [s1 + 0xd8]\n 27694: a2 = a2 & a3\n 27697: a3 = u64 [s1 + 0x80]\n 27701: a4 = u64 [s1 + 0x60]\n 27704: a3 = a3 & a4\n 27707: a4 = u64 [s1 + 0x88]\n 27711: a0 = a0 & a4\n 27714: a4 = u64 [s1 + 0x90]\n 27718: a1 = a1 & a4\n 27721: a1 = a1 | a3\n 27724: a0 = a0 | a2\n 27727: a0 = a0 | a1\n 27730: a0 = a0 <u 0x1\n 27733: a1 = u64 [s1 + 0x70]\n 27736: a0 = a0 | a1\n 27739: a1 = s1 + 0x7ff\n 27743: a1 = a1 + 0xb9\n 27747: u64 [a1 + 96] = 0\n 27750: u64 [a1 + 88] = 0\n 27753: u64 [a1 + 0x48] = a0\n 27756: a0 = s1 + 0x7ff\n 27760: a0 = a0 + 0x101\n 27764: u64 [a1 + 80] = 0\n 27767: ra = 0x460\n 27771: t0 = 0x638\n 27775: jump @1953\n      : @1055 [@dyn 560] (gas: 43)\n 27778: a3 = s1 + 0x100\n 27782: a0 = u64 [a3 + 0x28]\n 27785: a1 = s1 + 0x1000\n 27789: u64 [a1 + 0xfffffffffffff898] = a0\n 27793: a0 = u64 [a3 + 0x20]\n 27796: a1 = s1 + 0x1000\n 27800: u64 [a1 + 0xfffffffffffff890] = a0\n 27804: a0 = u64 [a3 + 0x30]\n 27807: a1 = s1 + 0x1000\n 27811: u64 [a1 + 0xfffffffffffff888] = a0\n 27815: a0 = u64 [a3 + 0x38]\n 27818: a1 = s1 + 0x1000\n 27822: u64 [a1 + 0xfffffffffffff880] = a0\n 27826: a0 = u64 [a3 + 0x10]\n 27829: a1 = s1 + 0x7ff\n 27833: a1 = a1 + 0xb9\n 27837: u64 [a1] = a0\n 27839: a0 = u64 [a3 + 0x18]\n 27842: u64 [a1 + 0xfffffffffffffff8] = a0\n 27845: a0 = u64 [a3 + 0x8]\n 27848: a2 = s1 + 0x1000\n 27852: u64 [a2 + 0xfffffffffffff8a8] = a0\n 27856: a0 = u64 [a3]\n 27858: a2 = s1 + 0x1000\n 27862: u64 [a2 + 0xfffffffffffff8a0] = a0\n 27866: a0 = u64 [s1 + 0xe0]\n 27870: u64 [a1 + 0x20] = a0\n 27873: a0 = u64 [s1 + 0xe8]\n 27877: u64 [a1 + 0x18] = a0\n 27880: a0 = u64 [s1 + 0xf0]\n 27884: u64 [a1 + 0x10] = a0\n 27887: a5 = a1\n 27889: a0 = s1 + 0x7ff\n 27893: a0 = a0 + 0xe1\n 27897: a1 = s1 + 0x7ff\n 27901: a1 = a1 + 0xc1\n 27905: a2 = s1 + 0x7ff\n 27909: a2 = a2 + 0xa1\n 27913: a3 = s1 + 0x7ff\n 27917: a3 = a3 + 0x81\n 27921: a4 = u64 [s1 + 0xf8]\n 27925: u64 [a5 + 0x8] = a4\n 27928: ra = 1122, jump @1435\n      : @1056 [@dyn 561] (gas: 7)\n 27934: a1 = s1 + 0x7ff\n 27938: a1 = a1 + 0xb9\n 27942: a0 = u64 [a1 + 0x40]\n 27945: a2 = u64 [a1 + 0x38]\n 27948: a3 = u64 [a1 + 0x30]\n 27951: a1 = u64 [a1 + 0x28]\n 27954: t0 = 1124, jump @1985\n      : @1057 [@dyn 562] (gas: 1)\n 27960: jump @1123 if a0 != 0\n      : @1058 (gas: 37)\n 27964: i32 a1 = a1 + 0\n 27966: a0 = s1 + 0x3000\n 27970: i32 a0 = a0 + 0x4e0\n 27974: ecalli 4 // 'call_data_load'\n 27976: a3 = s1 + 0x30b8\n 27980: a4 = a3 + 0x400\n 27984: a0 = u64 [a4 + 0x28]\n 27987: a1 = u64 [a4 + 0x30]\n 27990: a2 = u64 [a4 + 0x38]\n 27993: a3 = u64 [a4 + 0x40]\n 27996: a4 = s1 + 0x1000\n 28000: u64 [a4 + 0xfffffffffffff818] = a3\n 28004: a3 = s1 + 0x1000\n 28008: u64 [a3 + 0xfffffffffffff810] = a2\n 28012: a2 = s1 + 0x1000\n 28016: u64 [a2 + 0xfffffffffffff808] = a1\n 28020: a1 = s1 + 0x1000\n 28024: u64 [a1 + 0xfffffffffffff800] = a0\n 28028: a0 = u64 [s1 + 0xb8]\n 28032: a1 = s1 + 0x1000\n 28036: u64 [a1 + 0xfffffffffffff838] = a0\n 28040: a0 = u64 [s1 + 0xb0]\n 28044: a1 = s1 + 0x1000\n 28048: u64 [a1 + 0xfffffffffffff830] = a0\n 28052: a0 = u64 [s1 + 0xa8]\n 28056: a1 = s1 + 0x1000\n 28060: u64 [a1 + 0xfffffffffffff828] = a0\n 28064: a0 = s1 + 0x7ff\n 28068: a0 = a0 + 0x41\n 28071: a1 = s1 + 0x7ff\n 28075: a1 = a1 + 0x21\n 28078: a2 = s1 + 0x7ff\n 28082: a2 = a2 + 0x1\n 28085: a3 = u64 [s1 + 0xa0]\n 28089: a4 = s1 + 0x1000\n 28093: u64 [a4 + 0xfffffffffffff820] = a3\n 28097: ra = 1126, jump @1467\n      : @1059 [@dyn 563] (gas: 64)\n 28103: a0 = s1 + 0x1000\n 28107: a0 = u64 [a0 + 0xfffffffffffff840]\n 28111: u64 [s1 + 0xd8] = a0\n 28115: a0 = s1 + 0x1000\n 28119: a0 = u64 [a0 + 0xfffffffffffff848]\n 28123: u64 [s1 + 0xd0] = a0\n 28127: a0 = s1 + 0x1000\n 28131: a0 = u64 [a0 + 0xfffffffffffff850]\n 28135: u64 [s1 + 0x90] = a0\n 28139: a0 = s1 + 0x1000\n 28143: a0 = u64 [a0 + 0xfffffffffffff858]\n 28147: u64 [s1 + 0x88] = a0\n 28151: a0 = s1 + 0x1000\n 28155: a0 = u64 [a0 + 0xfffffffffffff860]\n 28159: u64 [s1 + 0x80] = a0\n 28163: a0 = s1 + 0x1000\n 28167: a0 = u64 [a0 + 0xfffffffffffff868]\n 28171: u64 [s1 + 0x78] = a0\n 28174: a0 = s1 + 0x1000\n 28178: a0 = u64 [a0 + 0xfffffffffffff870]\n 28182: u64 [s1 + 0x70] = a0\n 28185: a0 = s1 + 0x1000\n 28189: a0 = u64 [a0 + 0xfffffffffffff878]\n 28193: u64 [s1 + 0x68] = a0\n 28196: a0 = u64 [s1 + 0x98]\n 28200: ecalli 6 // 'caller'\n 28202: a2 = u64 [s1 + 0xc8]\n 28206: a0 = u64 [a2 + 0x8]\n 28209: a1 = i32 [a2 + 0x10]\n 28212: a2 = u64 [a2]\n 28214: a0 = reverse a0\n 28216: a3 = a0 << 0x20\n 28219: a1 = reverse a1\n 28221: a1 = a1 >> 0x20\n 28224: a3 = a3 | a1\n 28227: a0 = a0 >> 0x20\n 28230: a1 = reverse a2\n 28232: a2 = a1 << 0x20\n 28235: a0 = a0 | a2\n 28238: a1 = a1 >> 0x20\n 28241: u64 [s1 + 1976] = 0\n 28245: a2 = u64 [s1 + 0x68]\n 28248: u64 [s1 + 0x7d8] = a2\n 28252: a2 = u64 [s1 + 0x70]\n 28255: u64 [s1 + 0x7d0] = a2\n 28259: a2 = u64 [s1 + 0x78]\n 28262: u64 [s1 + 0x7c8] = a2\n 28266: a2 = u64 [s1 + 0x80]\n 28270: u64 [s1 + 0x7c0] = a2\n 28274: a2 = u64 [s1 + 0x88]\n 28278: u64 [s1 + 0x7f8] = a2\n 28282: a2 = u64 [s1 + 0x90]\n 28286: u64 [s1 + 0x7f0] = a2\n 28290: a2 = u64 [s1 + 0xd0]\n 28294: u64 [s1 + 0x7e8] = a2\n 28298: a2 = u64 [s1 + 0xd8]\n 28302: u64 [s1 + 0x7e0] = a2\n 28306: u64 [s1 + 0x7b0] = a1\n 28310: u64 [s1 + 0x7a8] = a0\n 28314: a0 = s1 + 0x7e0\n 28318: a1 = s1 + 0x7c0\n 28322: a2 = s1 + 0x7a0\n 28326: u64 [s1 + 0x7a0] = a3\n 28330: ra = 1128, jump @1499\n      : @1060 [@dyn 564] (gas: 8)\n 28336: a1 = s1 + 0x30b8\n 28340: u64 [a1 + 1120] = 0\n 28344: u64 [a1 + 1112] = 0\n 28348: u64 [a1 + 1104] = 0\n 28352: u64 [a1 + 1096] = 0x4\n 28357: a0 = s1 + 0x780\n 28361: a1 = s1 + 0x3500\n 28365: ra = 1130, jump @21\n      : @1061 [@dyn 565] (gas: 38)\n 28371: a0 = u64 [s1 + 0x798]\n 28375: u64 [s1 + 0x88] = a0\n 28379: a0 = u64 [s1 + 0x790]\n 28383: u64 [s1 + 0x90] = a0\n 28387: a0 = u64 [s1 + 0x788]\n 28391: u64 [s1 + 0xd0] = a0\n 28395: a0 = u64 [s1 + 0x780]\n 28399: u64 [s1 + 0xd8] = a0\n 28403: a1 = s1 + 0x100\n 28407: a0 = u64 [a1 + 0x28]\n 28410: u64 [s1 + 0x718] = a0\n 28414: a0 = u64 [a1 + 0x20]\n 28417: u64 [s1 + 0x710] = a0\n 28421: a0 = u64 [a1 + 0x30]\n 28424: u64 [s1 + 0x708] = a0\n 28428: a0 = u64 [a1 + 0x38]\n 28431: u64 [s1 + 0x700] = a0\n 28435: a0 = u64 [a1 + 0x10]\n 28438: u64 [s1 + 0x738] = a0\n 28442: a0 = u64 [a1 + 0x18]\n 28445: u64 [s1 + 0x730] = a0\n 28449: a0 = u64 [a1 + 0x8]\n 28452: u64 [s1 + 0x728] = a0\n 28456: a0 = u64 [a1]\n 28458: u64 [s1 + 0x720] = a0\n 28462: a0 = u64 [s1 + 0xe0]\n 28466: u64 [s1 + 0x758] = a0\n 28470: a0 = u64 [s1 + 0xe8]\n 28474: u64 [s1 + 0x750] = a0\n 28478: a0 = u64 [s1 + 0xf0]\n 28482: u64 [s1 + 0x748] = a0\n 28486: a0 = s1 + 0x760\n 28490: a1 = s1 + 0x740\n 28494: a2 = s1 + 0x720\n 28498: a3 = s1 + 0x700\n 28502: a4 = u64 [s1 + 0xf8]\n 28506: u64 [s1 + 0x740] = a4\n 28510: ra = 1132, jump @1435\n      : @1062 [@dyn 566] (gas: 6)\n 28516: a4 = s1 + 0x700\n 28520: a0 = u64 [a4 + 0x78]\n 28523: a2 = u64 [a4 + 0x70]\n 28526: a3 = u64 [a4 + 0x68]\n 28529: a1 = u64 [a4 + 0x60]\n 28532: t0 = 1134, jump @1985\n      : @1063 [@dyn 567] (gas: 1)\n 28538: jump @1123 if a0 != 0\n      : @1064 (gas: 17)\n 28542: i32 a1 = a1 + 0\n 28544: a0 = s1 + 0x3000\n 28548: i32 a0 = a0 + 0x520\n 28552: ecalli 4 // 'call_data_load'\n 28554: a0 = s1 + 0x30b8\n 28558: a2 = a0 + 0x400\n 28562: a1 = u64 [a2 + 0x80]\n 28566: u64 [s1 + 0x80] = a1\n 28570: a1 = u64 [a2 + 0x78]\n 28573: u64 [s1 + 0x78] = a1\n 28576: a1 = u64 [a2 + 0x70]\n 28579: u64 [s1 + 0x70] = a1\n 28582: a0 = u64 [a2 + 0x68]\n 28585: u64 [s1 + 0x68] = a0\n 28588: a0 = s1 + 0x6e0\n 28592: a1 = 0x40\n 28595: ra = 1136, jump @17\n      : @1065 [@dyn 568] (gas: 6)\n 28601: a4 = s1 + 0x600\n 28605: a3 = u64 [a4 + 0xf8]\n 28609: a1 = u64 [a4 + 0xf0]\n 28613: a2 = u64 [a4 + 0xe8]\n 28617: a0 = u64 [a4 + 0xe0]\n 28621: t0 = 1138, jump @1996\n      : @1066 [@dyn 569] (gas: 1)\n 28627: jump @1123 if a1 != 0\n      : @1067 (gas: 11)\n 28631: a1 = u64 [s1 + 0x68]\n 28634: u64 [s1 + 0x6c0] = a1\n 28638: a1 = u64 [s1 + 0x70]\n 28641: u64 [s1 + 0x6c8] = a1\n 28645: a1 = u64 [s1 + 0x78]\n 28648: u64 [s1 + 0x6d0] = a1\n 28652: a1 = s1 + 0x6c0\n 28656: a2 = u64 [s1 + 0x80]\n 28660: u64 [s1 + 0x6d8] = a2\n 28664: u64 [s1 + 0x80] = a0\n 28668: ra = 1140, jump @19\n      : @1068 [@dyn 570] (gas: 6)\n 28674: a0 = u64 [s1 + 0x98]\n 28678: ra = 0x476\n 28682: ecalli 6 // 'caller'\n 28684: a2 = u64 [s1 + 0xc8]\n 28688: t0 = 0x478\n 28692: jump @2032\n      : @1069 [@dyn 571] (gas: 2)\n 28695: a2 = u64 [s1 + 0xc8]\n 28699: t0 = 1144, jump @2032\n      : @1070 [@dyn 572] (gas: 33)\n 28705: t0 = a1 | a0\n 28708: a3 = a3 >> 0x20\n 28711: a2 = reverse a2\n 28713: a1 = a2 << 0x20\n 28716: a1 = a1 | a3\n 28719: a2 = a2 >> 0x20\n 28722: u64 [s1 + 1656] = 0\n 28726: a0 = u64 [s1 + 0x88]\n 28730: u64 [s1 + 0x698] = a0\n 28734: a0 = u64 [s1 + 0x90]\n 28738: u64 [s1 + 0x690] = a0\n 28742: a0 = u64 [s1 + 0xd0]\n 28746: u64 [s1 + 0x688] = a0\n 28750: a0 = u64 [s1 + 0xd8]\n 28754: u64 [s1 + 0x680] = a0\n 28758: a3 = u64 [0x20080]\n 28763: a4 = u64 [0x20088]\n 28768: a5 = u64 [0x20090]\n 28773: a0 = u64 [0x20098]\n 28778: u64 [s1 + 0x6b8] = a3\n 28782: a3 = s1 + 0x600\n 28786: u64 [a3 + 0xb0] = a4\n 28790: u64 [a3 + 0xa8] = a5\n 28794: u64 [a3 + 0xa0] = a0\n 28798: u64 [a3 + 0x70] = a2\n 28801: u64 [a3 + 0x68] = a1\n 28804: a1 = 0x20\n 28807: a2 = s1 + 0x6a0\n 28811: a3 = s1 + 0x680\n 28815: a4 = s1 + 0x660\n 28819: u64 [s1 + 0x660] = t0\n 28823: a0 = u64 [s1 + 0x80]\n 28827: ra = 1146, jump @28\n      : @1071 [@dyn 573] (gas: 15)\n 28833: a4 = s1 + 0x100\n 28837: a2 = u64 [a4 + 0x38]\n 28840: a2 = a2 + 0x1\n 28843: a0 = a2 <u 0x1\n 28846: a3 = u64 [a4 + 0x30]\n 28849: a3 = a3 + a0\n 28852: a0 = a2 | a3\n 28855: a0 = a0 <u 0x1\n 28858: a1 = u64 [a4 + 0x20]\n 28861: a0 = a0 + a1\n 28864: a1 = a0 <u a1\n 28867: t2 = u64 [s1 + 0x128]\n 28871: t2 = t2 + a1\n 28874: ra = a0\n 28876: jump @1036\n      : @1072 (gas: 3)\n 28879: a0 = s1 + 0x2440\n 28883: a1 = 0x40\n 28886: ra = 1148, jump @17\n      : @1073 [@dyn 574] (gas: 14)\n 28892: a2 = s1 + 0x20b8\n 28896: t0 = u64 [a2 + 0x3a0]\n 28900: a1 = a2 + 0x300\n 28904: a5 = u64 [a1 + 0x98]\n 28908: a4 = u64 [a1 + 0x90]\n 28912: a0 = u64 [a1 + 0x88]\n 28916: a3 = a4 | t0\n 28919: a1 = a0 | a5\n 28922: a1 = a1 | a3\n 28925: a1 = a1 >> 0x20\n 28928: a3 = a3 | a5\n 28931: a3 = a3 << 0x20\n 28934: a1 = a1 | a3\n 28937: jump @1123 if a1 != 0\n      : @1074 (gas: 11)\n 28941: u64 [a2 + 888] = 0\n 28945: u64 [a2 + 880] = 0\n 28949: u64 [a2 + 872] = 0\n 28953: a3 = 0x8c379a000000000\n 28963: a1 = s1 + 0x2420\n 28967: u64 [a2 + 0x380] = a3\n 28971: u64 [s1 + 0x138] = a0\n 28975: u64 [s1 + 0x130] = a4\n 28979: u64 [s1 + 0x120] = t0\n 28983: u64 [s1 + 0x128] = a5\n 28987: ra = 1150, jump @19\n      : @1075 [@dyn 575] (gas: 6)\n 28993: a5 = s1 + 0x100\n 28997: a1 = u64 [a5 + 0x38]\n 29000: a0 = u64 [a5 + 0x28]\n 29003: a3 = u64 [a5 + 0x20]\n 29006: a3 = a3 | a0\n 29009: t0 = 1152, jump @1957\n      : @1076 [@dyn 576] (gas: 1)\n 29015: jump @1123 if a0 == 0\n      : @1077 (gas: 1)\n 29019: t0 = 1154, jump @2028\n      : @1078 [@dyn 577] (gas: 8)\n 29025: u64 [a2 + 864] = 0\n 29029: u64 [a2 + 856] = 0\n 29033: u64 [a2 + 840] = 0x20\n 29038: a1 = s1 + 0x2400\n 29042: u64 [a2 + 848] = 0\n 29046: u64 [s1 + 0x128] = a3\n 29050: u64 [s1 + 0x120] = a4\n 29054: ra = 1156, jump @19\n      : @1079 [@dyn 578] (gas: 10)\n 29060: a2 = s1 + 0x100\n 29064: a4 = u64 [a2 + 0x28]\n 29067: a3 = u64 [a2 + 0x30]\n 29070: a1 = u64 [a2 + 0x38]\n 29073: a0 = u64 [a2 + 0x20]\n 29076: a0 = a0 + 0xffffffffffffffdc\n 29079: a0 = a1 <u a0\n 29082: a0 = 0 if a3 != 0\n 29084: a0 = 0 if a4 != 0\n 29086: jump @1123 if a0 == 0\n      : @1080 (gas: 8)\n 29090: i32 a0 = a1 + 0x24\n 29093: a2 = s1 + 0x20b8\n 29097: u64 [a2 + 832] = 0\n 29101: u64 [a2 + 824] = 0\n 29105: u64 [a2 + 808] = 0x15\n 29110: a1 = s1 + 0x23e0\n 29114: u64 [a2 + 816] = 0\n 29118: ra = 1158, jump @19\n      : @1081 [@dyn 579] (gas: 1)\n 29124: t0 = 1160, jump @1956\n      : @1082 [@dyn 580] (gas: 1)\n 29130: jump @1123 if a0 == 0\n      : @1083 (gas: 13)\n 29134: i32 a0 = a3 + 0x44\n 29137: a1 = u64 [0x20070]\n 29142: a2 = u64 [0x20078]\n 29147: a4 = s1 + 0x20b8\n 29151: a3 = a4 + 0x300\n 29155: u64 [a3 + 0x20] = a1\n 29158: u64 [a3 + 0x18] = a2\n 29161: a1 = 0x6973686564000000\n 29171: u64 [a3 + 0x10] = a1\n 29174: a1 = s1 + 0x23c0\n 29178: u64 [a4 + 776] = 0\n 29182: ra = 0x404\n 29186: jump @19\n      : @1084 (gas: 3)\n 29189: a0 = s1 + 0x2b80\n 29193: a1 = 0x40\n 29196: ra = 1162, jump @17\n      : @1085 [@dyn 581] (gas: 14)\n 29202: a2 = s1 + 0x28b8\n 29206: t0 = u64 [a2 + 0x2e0]\n 29210: a1 = a2 + 0x200\n 29214: a5 = u64 [a1 + 0xd8]\n 29218: a4 = u64 [a1 + 0xd0]\n 29222: a0 = u64 [a1 + 0xc8]\n 29226: a3 = a4 | t0\n 29229: a1 = a0 | a5\n 29232: a1 = a1 | a3\n 29235: a1 = a1 >> 0x20\n 29238: a3 = a3 | a5\n 29241: a3 = a3 << 0x20\n 29244: a1 = a1 | a3\n 29247: jump @1123 if a1 != 0\n      : @1086 (gas: 22)\n 29251: a1 = a0 + 0x20\n 29254: u64 [s1 + 0x130] = a1\n 29258: t1 = a1 <u a0\n 29261: a1 = a4 + t1\n 29264: u64 [s1 + 0x138] = a1\n 29268: a1 = a1 <u a4\n 29271: a1 = t1 if t1 == 0\n 29274: a1 = a1 + a5\n 29277: u64 [s1 + 0x120] = a1\n 29281: a1 = a1 <u a5\n 29284: a1 = a1 + t0\n 29287: u64 [s1 + 0x128] = a1\n 29291: u64 [a2 + 704] = 0\n 29295: u64 [a2 + 696] = 0\n 29299: u64 [a2 + 688] = 0\n 29303: a1 = s1 + 0x2b60\n 29307: u64 [a2 + 680] = 0x20\n 29312: u64 [s1 + 0xd0] = a0\n 29316: u64 [s1 + 0xc8] = a4\n 29320: u64 [s1 + 0xc0] = t0\n 29324: u64 [s1 + 0xb8] = a5\n 29328: ra = 1164, jump @19\n      : @1087 [@dyn 582] (gas: 3)\n 29334: a0 = s1 + 0x2b40\n 29338: a1 = u64 [s1 + 0x68]\n 29341: ra = 1166, jump @17\n      : @1088 [@dyn 583] (gas: 13)\n 29347: a5 = s1 + 0x100\n 29351: a0 = u64 [a5 + 0x30]\n 29354: a3 = u64 [a5 + 0x20]\n 29357: a2 = a0 | a3\n 29360: a1 = u64 [a5 + 0x38]\n 29363: a4 = u64 [a5 + 0x28]\n 29366: a1 = a1 | a4\n 29369: a2 = a2 | a1\n 29372: a2 = a2 >> 0x20\n 29375: a1 = a1 | a3\n 29378: a1 = a1 << 0x20\n 29381: a1 = a1 | a2\n 29384: jump @1123 if a1 != 0\n      : @1089 (gas: 16)\n 29388: a5 = s1 + 0x28b8\n 29392: a4 = u64 [a5 + 0x2a0]\n 29396: a1 = u64 [a5 + 0x298]\n 29400: a2 = u64 [a5 + 0x290]\n 29404: a3 = u64 [a5 + 0x288]\n 29408: u64 [s1 + 0xd8] = a3\n 29412: u64 [a5 + 0x268] = a3\n 29416: u64 [s1 + 0xe0] = a2\n 29420: a3 = a5 + 0x200\n 29424: u64 [a3 + 0x70] = a2\n 29427: u64 [s1 + 0xe8] = a1\n 29431: u64 [a3 + 0x78] = a1\n 29434: a1 = s1 + 0x2b20\n 29438: u64 [s1 + 0xf0] = a4\n 29442: u64 [a3 + 0x80] = a4\n 29446: ra = 1168, jump @19\n      : @1090 [@dyn 584] (gas: 24)\n 29452: t0 = 0\n 29454: a4 = 0\n 29456: ra = 0\n 29458: t2 = 0\n 29460: a1 = u64 [s1 + 0xd0]\n 29464: a0 = a1 + 0x40\n 29467: a3 = s1 + 0x100\n 29471: u64 [a3 + 0x30] = a0\n 29474: a0 = a0 <u a1\n 29477: a2 = u64 [s1 + 0xc8]\n 29481: a1 = a2 + a0\n 29484: u64 [a3 + 0x28] = a1\n 29487: a1 = a1 <u a2\n 29490: a1 = a0 if a0 == 0\n 29493: a0 = u64 [s1 + 0xb8]\n 29497: a1 = a1 + a0\n 29500: u64 [a3 + 0x20] = a1\n 29503: a0 = a1 <u a0\n 29506: a1 = u64 [s1 + 0xc0]\n 29510: a0 = a0 + a1\n 29513: u64 [a3 + 0x38] = a0\n 29516: a1 = u64 [s1 + 0x38]\n 29519: t1 = u64 [s1 + 0x30]\n 29522: fallthrough\n      : @1091 (gas: 17)\n 29523: a0 = u64 [s1 + 0xd8]\n 29527: a0 = t0 <u a0\n 29530: a2 = u64 [s1 + 0xe0]\n 29534: a3 = a4 ^ a2\n 29537: u64 [s1 + 0x118] = a4\n 29541: a2 = a4 <u a2\n 29544: a2 = a0 if a3 == 0\n 29547: a5 = u64 [s1 + 0xe8]\n 29551: a0 = ra <u a5\n 29554: a3 = u64 [s1 + 0xf0]\n 29558: a4 = t2 ^ a3\n 29561: a3 = t2 <u a3\n 29564: a3 = a0 if a4 == 0\n 29567: a0 = ra ^ a5\n 29570: a0 = a0 | a4\n 29573: a3 = a2 if a0 == 0\n 29576: jump @1097 if a3 == 0\n      : @1092 (gas: 10)\n 29580: a0 = a1 | t1\n 29583: a2 = u64 [s1 + 0x48]\n 29586: a3 = u64 [s1 + 0x40]\n 29589: a2 = a2 | a3\n 29592: a0 = a0 | a2\n 29595: a0 = a0 >> 0x20\n 29598: a2 = a2 | t1\n 29601: a2 = a2 << 0x20\n 29604: a0 = a0 | a2\n 29607: jump @1123 if a0 != 0\n      : @1093 (gas: 7)\n 29611: u64 [s1 + 0x100] = ra\n 29615: u64 [s1 + 0x108] = t2\n 29619: u64 [s1 + 0x110] = t0\n 29623: u64 [s1 + 0x30] = t1\n 29626: a0 = s1 + 0x2b00\n 29630: u64 [s1 + 0x38] = a1\n 29633: ra = 1170, jump @17\n      : @1094 [@dyn 585] (gas: 13)\n 29639: a1 = s1 + 0x100\n 29643: a5 = u64 [a1 + 0x30]\n 29646: a4 = u64 [a1 + 0x20]\n 29649: a0 = a5 | a4\n 29652: a3 = u64 [a1 + 0x38]\n 29655: a2 = u64 [a1 + 0x28]\n 29658: a1 = a2 | a3\n 29661: a0 = a0 | a1\n 29664: a0 = a0 >> 0x20\n 29667: a1 = a1 | a4\n 29670: a1 = a1 << 0x20\n 29673: a0 = a0 | a1\n 29676: jump @1123 if a0 != 0\n      : @1095 (gas: 17)\n 29680: a0 = s1 + 0x28b8\n 29684: u64 [s1 + 0x120] = a4\n 29688: a4 = a0\n 29690: t0 = u64 [a0 + 0x260]\n 29694: a1 = u64 [a0 + 0x258]\n 29698: a0 = u64 [a0 + 0x250]\n 29702: u64 [s1 + 0x138] = a3\n 29706: a3 = u64 [a4 + 0x248]\n 29710: u64 [a4 + 0x228] = a3\n 29714: u64 [a4 + 0x230] = a0\n 29718: u64 [a4 + 0x238] = a1\n 29722: a1 = s1 + 0x2ae0\n 29726: u64 [a4 + 0x240] = t0\n 29730: a0 = a5\n 29732: u64 [s1 + 0x130] = a5\n 29736: u64 [s1 + 0x128] = a2\n 29740: ra = 1172, jump @19\n      : @1096 [@dyn 586] (gas: 51)\n 29746: a1 = u64 [s1 + 0x130]\n 29750: a0 = a1 + 0x20\n 29753: u64 [s1 + 0xf8] = a0\n 29757: a2 = a0 <u a1\n 29760: a0 = u64 [s1 + 0x128]\n 29764: t1 = a0 + a2\n 29767: a3 = t1 <u a0\n 29770: a3 = a2 if a2 == 0\n 29773: a0 = u64 [s1 + 0x120]\n 29777: a2 = a0 + a3\n 29780: a3 = a2 <u a0\n 29783: a0 = u64 [s1 + 0x138]\n 29787: a0 = a0 + a3\n 29790: u64 [s1 + 0x138] = a0\n 29794: a0 = u64 [s1 + 0x38]\n 29797: a3 = a0 + 0x20\n 29800: a4 = a3 <u a0\n 29803: a0 = u64 [s1 + 0x40]\n 29806: a5 = a0 + a4\n 29809: a0 = a5 <u a0\n 29812: a0 = a4 if a4 == 0\n 29815: a1 = u64 [s1 + 0x30]\n 29818: a0 = a0 + a1\n 29821: a4 = a0 <u a1\n 29824: a1 = u64 [s1 + 0x48]\n 29827: a1 = a1 + a4\n 29830: u64 [s1 + 0x48] = a1\n 29833: t0 = u64 [s1 + 0x110]\n 29837: t0 = t0 + 0x1\n 29840: a4 = t0 <u 0x1\n 29843: t2 = u64 [s1 + 0x118]\n 29847: t2 = t2 + a4\n 29850: a4 = t0 | t2\n 29853: a4 = a4 <u 0x1\n 29856: a1 = u64 [s1 + 0x100]\n 29860: a4 = a4 + a1\n 29863: a1 = a4 <u a1\n 29866: ra = u64 [s1 + 0x108]\n 29870: ra = ra + a1\n 29873: a1 = u64 [s1 + 0xf8]\n 29877: u64 [s1 + 0x130] = a1\n 29881: u64 [s1 + 0x128] = t1\n 29885: u64 [s1 + 0x120] = a2\n 29889: a1 = a3\n 29891: u64 [s1 + 0x40] = a5\n 29894: t1 = a0\n 29896: a0 = a4\n 29898: a4 = t2\n 29900: t2 = ra\n 29902: ra = a0\n 29904: jump @1091\n      : @1097 (gas: 30)\n 29907: a0 = u64 [s1 + 0xd0]\n 29911: t2 = u64 [s1 + 0x130]\n 29915: t0 = t2 <u a0\n 29918: a5 = u64 [s1 + 0xc8]\n 29922: a1 = u64 [s1 + 0x128]\n 29926: a3 = a1 ^ a5\n 29929: a2 = a1 <u a5\n 29932: a2 = t0 if a3 == 0\n 29935: a3 = u64 [s1 + 0xb8]\n 29939: a4 = u64 [s1 + 0x120]\n 29943: ra = a4 - a3\n 29946: t1 = a4 <u a3\n 29949: a4 = u64 [s1 + 0xc0]\n 29953: a3 = u64 [s1 + 0x138]\n 29957: a4 = a3 - a4\n 29960: a4 = a4 - t1\n 29963: a3 = ra <u a2\n 29966: a3 = a4 - a3\n 29969: a4 = ra - a2\n 29972: a2 = a1 - a5\n 29975: a2 = a2 - t0\n 29978: a1 = t2 - a0\n 29981: a2 = a2 | a3\n 29984: a3 = a1 | a4\n 29987: a3 = a3 | a2\n 29990: a2 = a2 | a4\n 29993: a3 = a3 >> 0x20\n 29996: a2 = a2 << 0x20\n 29999: a2 = a2 | a3\n 30002: jump @1123 if a2 != 0\n      : @1098 (gas: 1)\n 30006: jump @1015\n      : @1099 (gas: 6)\n 30009: u64 [s1 + 208] = 0x2710\n 30015: a0 = u64 [s1 + 0x138]\n 30019: a2 = a0 + 0xffffffffffffff80\n 30022: a0 = u64 [s1 + 0x80]\n 30026: a1 = u64 [s1 + 0x88]\n 30030: ra = 1174, jump @2038\n      : @1100 [@dyn 587] (gas: 6)\n 30036: u64 [s1 + 0xf8] = a0\n 30040: u64 [s1 + 0x100] = a1\n 30044: a0 = u64 [s1 + 0x98]\n 30048: a1 = u64 [s1 + 0x90]\n 30052: a2 = u64 [s1 + 0x138]\n 30056: ra = 1176, jump @2038\n      : @1101 [@dyn 588] (gas: 7)\n 30062: u64 [s1 + 0xe0] = a0\n 30066: u64 [s1 + 0xe8] = a1\n 30070: a1 = u64 [s1 + 0x138]\n 30074: a2 = 0x80 - a1\n 30078: a0 = u64 [s1 + 0x80]\n 30082: a1 = u64 [s1 + 0x88]\n 30086: ra = 1178, jump @2043\n      : @1102 [@dyn 589] (gas: 21)\n 30092: a2 = u64 [s1 + 0xe8]\n 30096: a1 = a1 | a2\n 30099: a5 = s1 + 0x100\n 30103: a2 = u64 [a5 + 0x38]\n 30106: a3 = a2 <u 0x80\n 30110: u64 [s1 + 0xe8] = a3\n 30114: a4 = u64 [a5]\n 30116: a1 = a4 if a3 == 0\n 30119: a4 = u64 [s1 + 0x90]\n 30123: a1 = a4 if a2 == 0\n 30126: u64 [a5] = a1\n 30128: a1 = u64 [s1 + 0xe0]\n 30132: a0 = a0 | a1\n 30135: a1 = u64 [s1 + 0xf8]\n 30139: a0 = a1 if a3 == 0\n 30142: a1 = u64 [s1 + 0x98]\n 30146: a0 = a1 if a2 == 0\n 30149: u64 [s1 + 0xf8] = a0\n 30153: a0 = u64 [s1 + 0x80]\n 30157: a1 = u64 [s1 + 0x88]\n 30161: ra = 1180, jump @2038\n      : @1103 [@dyn 590] (gas: 12)\n 30167: a5 = 0\n 30169: a2 = u64 [s1 + 0xe8]\n 30173: a1 = 0 if a2 == 0\n 30175: a0 = 0 if a2 == 0\n 30177: a4 = u64 [s1 + 0xd0]\n 30181: a2 = a4 + 0xffffffffffffffff\n 30184: u64 [s1 + 0xc8] = a2\n 30188: a2 = a4 >u 0\n 30190: a2 = a2 + 0xffffffffffffffff\n 30193: u64 [s1 + 0xc0] = a2\n 30197: ra = u64 [s1 + 0xf0]\n 30201: fallthrough\n      : @1104 (gas: 92)\n 30202: u64 [s1 + 0xe0] = a1\n 30206: u64 [s1 + 0xe8] = a5\n 30210: u64 [s1 + 216] = 0\n 30214: a1 = u64 [s1 + 0xf8]\n 30218: a2 = a1 >> 0x3f\n 30221: a5 = u64 [s1 + 0x100]\n 30225: a3 = a5 << 0x1\n 30228: t1 = a3 | a2\n 30231: a2 = a1 << 0x1\n 30234: a4 = ra >> 0x3f\n 30237: a4 = a4 | a2\n 30240: u64 [s1 + 0xf0] = a4\n 30244: a3 = u64 [s1 + 0xc0]\n 30248: a1 = a3 ^ t1\n 30251: u64 [s1 + 0xf8] = a1\n 30255: a1 = a3 <u t1\n 30258: a2 = u64 [s1 + 0xc8]\n 30262: t0 = a2 <u a4\n 30265: a2 = u64 [s1 + 0xf8]\n 30269: t0 = a1 if a2 != 0\n 30272: a1 = u64 [s1 + 0xe0]\n 30276: a1 = a1 << 0x1\n 30279: a4 = a0 >> 0x3f\n 30282: a1 = a1 | a4\n 30285: u64 [s1 + 0xe0] = a1\n 30289: a4 = a5 >> 0x3f\n 30292: a0 = a0 << 0x1\n 30295: a4 = a4 | a0\n 30298: a0 = ra << 0x1\n 30301: a1 = u64 [s1 + 0x128]\n 30305: a5 = a1 >> 0x3f\n 30308: a0 = a0 | a5\n 30311: u64 [s1 + 0x100] = a0\n 30315: a5 = a1 << 0x1\n 30318: a0 = u64 [s1 + 0x120]\n 30322: a1 = a0 >> 0x3f\n 30325: a1 = a1 | a5\n 30328: a5 = a0 << 0x1\n 30331: a0 = u64 [s1 + 0x130]\n 30335: ra = a0 >> 0x3f\n 30338: a5 = a5 | ra\n 30341: a0 = a0 << 0x1\n 30344: a2 = u64 [s1 + 0xe8]\n 30348: a0 = a0 | a2\n 30351: u64 [s1 + 0x130] = a0\n 30355: a0 = a5 | 0\n 30357: u64 [s1 + 0x120] = a0\n 30361: a0 = a1 | 0\n 30363: u64 [s1 + 0x128] = a0\n 30367: a0 = u64 [s1 + 0x100]\n 30371: ra = a0 | 0\n 30373: a0 = a3 - a4\n 30376: a0 = a0 <u t0\n 30379: a1 = a3 <u a4\n 30382: t2 = u64 [s1 + 0xe0]\n 30386: a5 = a3 - t2\n 30389: a5 = a5 - a1\n 30392: a5 = a5 - a0\n 30395: t0 = a5 >>a 0x3f\n 30398: a0 = u64 [s1 + 0xd0]\n 30402: a0 = t0 & a0\n 30405: a2 = u64 [s1 + 0xf0]\n 30409: a1 = a2 - a0\n 30412: u64 [s1 + 0xf8] = a1\n 30416: a1 = a2 <u a0\n 30419: a0 = t1 - a1\n 30422: u64 [s1 + 0x100] = a0\n 30426: a1 = 0 if t1 != 0\n 30428: a0 = a4 - a1\n 30431: a1 = a4 <u a1\n 30434: a1 = t2 - a1\n 30437: a3 = u64 [s1 + 0x138]\n 30441: a5 = u64 [s1 + 0x118]\n 30445: a2 = a3 | a5\n 30448: a2 = a2 <u 0x1\n 30451: a4 = u64 [s1 + 0x108]\n 30455: t1 = a4 <u a2\n 30458: a4 = a4 - a2\n 30461: a2 = a3 <u 0x1\n 30464: a5 = a5 - a2\n 30467: a2 = u64 [s1 + 0x110]\n 30471: a2 = a2 - t1\n 30474: a3 = a3 + 0xffffffffffffffff\n 30477: u64 [s1 + 0x118] = a5\n 30481: u64 [s1 + 0x110] = a2\n 30485: a2 = a2 | a5\n 30488: u64 [s1 + 0x138] = a3\n 30492: a3 = a3 | a4\n 30495: a2 = a2 | a3\n 30498: a5 = t0 & 0x1\n 30501: u64 [s1 + 0x108] = a4\n 30505: jump @1104 if a2 != 0\n      : @1105 (gas: 19)\n 30509: a2 = u64 [s1 + 0x128]\n 30513: a0 = a2 >> 0x3f\n 30516: a1 = ra << 0x1\n 30519: a0 = a0 | a1\n 30522: a3 = u64 [s1 + 0x120]\n 30526: a1 = a3 >> 0x3f\n 30529: a2 = a2 << 0x1\n 30532: a1 = a1 | a2\n 30535: a4 = u64 [s1 + 0x130]\n 30539: a2 = a4 >> 0x3f\n 30542: a3 = a3 << 0x1\n 30545: a4 = a4 << 0x1\n 30548: t0 = a5 | a4\n 30551: a4 = u64 [s1 + 0xd8]\n 30555: a2 = a2 | a4\n 30558: ra = a2 | a3\n 30561: t2 = a4 | a1\n 30564: t1 = a4 | a0\n 30567: fallthrough\n      : @1106 (gas: 23)\n 30568: u64 [s1 + 0x100] = t1\n 30572: u64 [s1 + 0x108] = t2\n 30576: u64 [s1 + 0x110] = ra\n 30580: u64 [s1 + 0x118] = t0\n 30584: a1 = s1 + 0x10b8\n 30588: u64 [a1 + 0x208] = t0\n 30592: a0 = u64 [s1 + 0x60]\n 30595: a2 = a1 + 0x200\n 30599: u64 [a2 + 0x28] = a0\n 30602: u64 [a1 + 0x210] = ra\n 30606: a0 = u64 [s1 + 0x68]\n 30609: u64 [a2 + 0x30] = a0\n 30612: u64 [a1 + 0x218] = t2\n 30616: a0 = u64 [s1 + 0x70]\n 30619: u64 [a2 + 0x38] = a0\n 30622: u64 [a1 + 0x220] = t1\n 30626: a4 = a1\n 30628: a0 = s1 + 0x1300\n 30632: a1 = s1 + 0x12e0\n 30636: a2 = s1 + 0x12c0\n 30640: a3 = u64 [s1 + 0x78]\n 30643: u64 [a4 + 0x240] = a3\n 30647: ra = 1182, jump @1570\n      : @1107 [@dyn 591] (gas: 2)\n 30653: a0 = 0x1000\n 30657: t0 = 1184, jump @2015\n      : @1108 [@dyn 592] (gas: 14)\n 30663: a0 = u64 [a5 + 0x60]\n 30666: u64 [s1 + 0x138] = a0\n 30670: a0 = u64 [a5 + 0x58]\n 30673: u64 [s1 + 0x130] = a0\n 30677: a2 = u64 [s1 + 0x90]\n 30681: a0 = a2 >> 0x4\n 30684: a3 = u64 [s1 + 0x80]\n 30688: a1 = a3 << 0x3c\n 30691: a0 = a0 | a1\n 30694: a1 = u64 [a5 + 0x50]\n 30697: a5 = a4\n 30699: u64 [s1 + 0x128] = a1\n 30703: a1 = u64 [s1 + 0x98]\n 30707: t0 = 1186, jump @2010\n      : @1109 [@dyn 593] (gas: 2)\n 30713: a3 = u64 [s1 + 0x88]\n 30717: t0 = 1188, jump @2035\n      : @1110 [@dyn 594] (gas: 5)\n 30723: a2 = u64 [a5 + 0x248]\n 30727: u64 [s1 + 0x120] = a2\n 30731: a0 = a0 | a3\n 30734: a4 = a1 if a0 == 0\n 30737: jump @1112 if a4 != 0\n      : @1111 (gas: 9)\n 30740: a0 = u64 [s1 + 0xb8]\n 30744: a0 = a0 << 0x20\n 30747: a0 = a0 >> 0x20\n 30750: u64 [s1 + 0x110] = a0\n 30754: a0 = u64 [s1 + 0xa8]\n 30758: a0 = a0 << 0x20\n 30761: a0 = a0 >> 0x20\n 30764: u64 [s1 + 0x118] = a0\n 30768: jump @1115\n      : @1112 (gas: 8)\n 30771: a1 = s1 + 0x38b8\n 30775: u64 [a1 + 64] = 0\n 30778: u64 [a1 + 56] = 0\n 30781: u64 [a1 + 48] = 0\n 30784: u64 [a1 + 40] = 0x7\n 30788: a0 = s1 + 0x12a0\n 30792: a1 = s1 + 0x38e0\n 30796: ra = 1190, jump @21\n      : @1113 [@dyn 595] (gas: 67)\n 30802: a0 = s1 + 0x10b8\n 30806: a2 = a0 + 0x100\n 30810: a1 = u64 [a2 + 0xe8]\n 30814: u64 [s1 + 0xf8] = a1\n 30818: a1 = u64 [a2 + 0xf8]\n 30822: u64 [s1 + 0xf0] = a1\n 30826: a0 = u64 [a2 + 0xf0]\n 30830: u64 [s1 + 0xe8] = a0\n 30834: ecalli 11 // 'ref_time_left'\n 30836: a1 = u64 [s1 + 0xe8]\n 30840: a1 = reverse a1\n 30842: a2 = a1 << 0x20\n 30845: a3 = u64 [s1 + 0xf0]\n 30849: a3 = reverse a3\n 30851: a3 = a3 >> 0x20\n 30854: a2 = a2 | a3\n 30857: a1 = a1 >> 0x20\n 30860: a3 = u64 [s1 + 0xf8]\n 30864: a3 = reverse a3\n 30866: a4 = a3 << 0x20\n 30869: a1 = a1 | a4\n 30872: a3 = a3 >> 0x20\n 30875: a4 = u64 [s1 + 0xb8]\n 30879: u32 [a4 + 0x10] = a3\n 30882: u64 [a4 + 0x8] = a1\n 30885: u64 [a4] = a2\n 30887: a1 = u64 [s1 + 0x100]\n 30891: a2 = s1 + 0x38b8\n 30895: u64 [a2 + 0x60] = a1\n 30898: a1 = u64 [s1 + 0x108]\n 30902: u64 [a2 + 0x58] = a1\n 30905: a1 = u64 [s1 + 0x110]\n 30909: u64 [a2 + 0x50] = a1\n 30912: a1 = u64 [s1 + 0x118]\n 30916: u64 [a2 + 0x48] = a1\n 30919: u32 [a2 + 104] = 0\n 30922: a0 = a0 >u 0x8fc\n 30926: a1 = -a0\n 30928: u64 [a2 + 0xa0] = a1\n 30932: u64 [a2 + 0x98] = a1\n 30936: u64 [a2 + 0x90] = a1\n 30940: u64 [a2 + 0x88] = a1\n 30944: a1 = a4 << 0x20\n 30947: a1 = a1 >> 0x20\n 30950: a0 = a0 << 0x23\n 30953: u64 [s1 + 0x110] = a1\n 30957: a0 = a0 | a1\n 30960: a1 = s1 + 0x3900\n 30964: a1 = a1 << 0x20\n 30967: a1 = a1 >> 0x20\n 30970: a2 = s1 + 0x3940\n 30974: a2 = a2 << 0x20\n 30977: a3 = a2 | a1\n 30980: a1 = u64 [s1 + 0xa8]\n 30984: a1 = a1 << 0x20\n 30987: a4 = a1 >> 0x20\n 30990: a1 = s1 + 0x3920\n 30994: a1 = a1 << 0x20\n 30997: a5 = a1 | a4\n 31000: a1 = 0xffffffffffffffff\n 31003: a2 = 0xffffffffffffffff\n 31006: u64 [s1 + 0x118] = a4\n 31010: ecalli 2 // 'call'\n 31012: a0 = a0 <u 0x1\n 31015: u64 [s1 + 0x108] = a0\n 31019: a0 = s1 + 0x1280\n 31023: ra = 1192, jump @1578\n      : @1114 [@dyn 596] (gas: 11)\n 31029: a0 = s1 + 0x10b8\n 31033: u64 [a0 + 448] = 0\n 31037: u64 [a0 + 440] = 0\n 31041: a1 = u64 [s1 + 0x108]\n 31045: u64 [a0 + 0x1a8] = a1\n 31049: a1 = a0\n 31051: a0 = s1 + 0x1260\n 31055: u64 [a1 + 432] = 0\n 31059: ra = 0x4aa\n 31063: t0 = 0x6d0\n 31067: jump @1953\n      : @1115 [@dyn 597] (gas: 3)\n 31070: a0 = s1 + 0x1240\n 31074: a1 = u64 [s1 + 0xb0]\n 31078: ra = 1196, jump @21\n      : @1116 [@dyn 598] (gas: 69)\n 31084: a2 = s1 + 0x10b8\n 31088: a4 = a2 + 0x100\n 31092: a0 = u64 [a4 + 0x90]\n 31096: a1 = u64 [a4 + 0x88]\n 31100: a3 = u64 [a4 + 0x98]\n 31104: u64 [s1 + 0x108] = a3\n 31108: a2 = a0 << 0x38\n 31111: a1 = a1 >> 0x8\n 31114: a1 = a1 | a2\n 31117: u64 [s1 + 0x100] = a1\n 31121: a1 = a3 << 0x38\n 31124: a0 = a0 >> 0x8\n 31127: a0 = a0 | a1\n 31130: u64 [s1 + 0xf8] = a0\n 31134: ecalli 11 // 'ref_time_left'\n 31136: a1 = u64 [s1 + 0xf8]\n 31140: a1 = reverse a1\n 31142: a2 = a1 >> 0x20\n 31145: a3 = u64 [s1 + 0x100]\n 31149: a3 = reverse a3\n 31151: a4 = a3 << 0x20\n 31154: a2 = a2 | a4\n 31157: a1 = a1 << 0x20\n 31160: a4 = u64 [s1 + 0x108]\n 31164: a4 = reverse a4\n 31166: a4 = a4 << 0x8\n 31169: a4 = a4 >> 0x20\n 31172: a1 = a1 | a4\n 31175: a3 = a3 >> 0x20\n 31178: a4 = u64 [s1 + 0xb8]\n 31182: u32 [a4 + 0x10] = a3\n 31185: u64 [a4 + 0x8] = a2\n 31188: u64 [a4] = a1\n 31190: a2 = s1 + 0x38b8\n 31194: a1 = u64 [s1 + 0x138]\n 31198: u64 [a2 + 0xc0] = a1\n 31202: a1 = u64 [s1 + 0x130]\n 31206: u64 [a2 + 0xb8] = a1\n 31210: a1 = u64 [s1 + 0x128]\n 31214: u64 [a2 + 0xb0] = a1\n 31218: a1 = u64 [s1 + 0x120]\n 31222: u64 [a2 + 0xa8] = a1\n 31226: u32 [a2 + 200] = 0\n 31230: a0 = a0 >u 0x8fc\n 31234: a1 = -a0\n 31236: u64 [a2 + 0x100] = a1\n 31240: u64 [a2 + 0xf8] = a1\n 31244: u64 [a2 + 0xf0] = a1\n 31248: u64 [a2 + 0xe8] = a1\n 31252: a0 = a0 << 0x23\n 31255: a1 = u64 [s1 + 0x110]\n 31259: a0 = a0 | a1\n 31262: a1 = s1 + 0x3960\n 31266: a1 = a1 << 0x20\n 31269: a1 = a1 >> 0x20\n 31272: a2 = s1 + 0x39a0\n 31276: a2 = a2 << 0x20\n 31279: a3 = a2 | a1\n 31282: a1 = s1 + 0x3980\n 31286: a1 = a1 << 0x20\n 31289: a4 = u64 [s1 + 0x118]\n 31293: a5 = a1 | a4\n 31296: a1 = 0xffffffffffffffff\n 31299: a2 = 0xffffffffffffffff\n 31302: ecalli 2 // 'call'\n 31304: a0 = a0 <u 0x1\n 31307: u64 [s1 + 0x118] = a0\n 31311: a0 = s1 + 0x1220\n 31315: ra = 1198, jump @1578\n      : @1117 [@dyn 599] (gas: 10)\n 31321: a1 = s1 + 0x10b8\n 31325: u64 [a1 + 352] = 0\n 31329: u64 [a1 + 344] = 0\n 31333: a0 = u64 [s1 + 0x118]\n 31337: u64 [a1 + 0x148] = a0\n 31341: a0 = s1 + 0x1200\n 31345: u64 [a1 + 336] = 0\n 31349: ra = 0x4b0\n 31353: t0 = 0x6f2\n 31357: jump @1953\n      : @1118 [@dyn 600] (gas: 9)\n 31360: a0 = s1 + 0x38b8\n 31364: u64 [a0 + 288] = 0\n 31368: u64 [a0 + 280] = 0\n 31372: u64 [a0 + 272] = 0\n 31376: a1 = a0\n 31378: u64 [a1 + 264] = 0x4\n 31383: a0 = s1 + 0x11e0\n 31387: a1 = s1 + 0x39c0\n 31391: ra = 1202, jump @21\n      : @1119 [@dyn 601] (gas: 14)\n 31397: a0 = s1 + 0x10b8\n 31401: a2 = a0 + 0x100\n 31405: a1 = u64 [a2 + 0x40]\n 31408: a0 = s1 + 0x100\n 31412: u64 [a0] = a1\n 31414: a1 = u64 [a2 + 0x38]\n 31417: u64 [a0 + 0x8] = a1\n 31420: a1 = u64 [a2 + 0x30]\n 31423: u64 [a0 + 0x10] = a1\n 31426: a1 = u64 [a2 + 0x28]\n 31429: u64 [a0 + 0x18] = a1\n 31432: a0 = s1 + 0x11c0\n 31436: a1 = u64 [s1 + 0xb0]\n 31440: ra = 1204, jump @21\n      : @1120 [@dyn 602] (gas: 3)\n 31446: t0 = 0x4b6\n 31450: a1 = s1 + 0x10b8\n 31454: fallthrough\n      : @1121 [@dyn 603] (gas: 10)\n 31455: a2 = a1 + 0x100\n 31459: a0 = u64 [a2 + 0x18]\n 31462: u64 [s1 + 0xf8] = a0\n 31466: a0 = u64 [a2 + 0x10]\n 31469: u64 [s1 + 0xf0] = a0\n 31473: a0 = u64 [a2 + 0x8]\n 31476: u64 [s1 + 0xe8] = a0\n 31480: a0 = s1 + 0x11a0\n 31484: a1 = 0x40\n 31487: ra = 1208, jump @17\n      : @1122 [@dyn 604] (gas: 13)\n 31493: a4 = s1 + 0x10b8\n 31497: a0 = u64 [a4 + 0x100]\n 31501: a1 = u64 [a4 + 0xf8]\n 31505: a2 = u64 [a4 + 0xf0]\n 31509: a5 = u64 [a4 + 0xe8]\n 31513: a0 = a0 | a2\n 31516: a2 = a5 | a1\n 31519: a2 = a2 | a0\n 31522: a2 = a2 >> 0x20\n 31525: a0 = a0 | a1\n 31528: a0 = a0 << 0x20\n 31531: a0 = a0 | a2\n 31534: jump @1277 if a0 == 0\n      : @1123 (gas: 1)\n 31538: trap\n      : @1124 (gas: 9)\n 31539: a0 = sp + 0xffffffffffffffe0\n 31542: a0 = a0 & 0xffffffffffffffe0\n 31545: u64 [s1 + 0x138] = a0\n 31549: sp = a0\n 31551: a0 = u64 [s1 + 0x98]\n 31555: ra = 0x4ba\n 31559: ecalli 6 // 'caller'\n 31561: t0 = 0x4bc\n 31565: jump @1960\n      : @1125 [@dyn 605] (gas: 1)\n 31568: t0 = 1212, jump @1960\n      : @1126 [@dyn 606] (gas: 9)\n 31574: u64 [a2 + 1280] = 0\n 31578: a4 = a2 + 0x400\n 31582: u64 [a4 + 0xf8] = a1\n 31586: u64 [a4 + 0xf0] = a0\n 31590: a1 = s1 + 0x7ff\n 31594: a1 = a1 + 0x5a1\n 31598: u64 [a4 + 0xe8] = a3\n 31602: a0 = 0\n 31604: ra = 1214, jump @19\n      : @1127 [@dyn 607] (gas: 16)\n 31610: a0 = u64 [s1 + 0x10]\n 31613: a1 = s1 + 0x7ff\n 31617: a1 = a1 + 0xb9\n 31621: a2 = a1 + 0x400\n 31625: u64 [a2 + 0xe0] = a0\n 31629: a0 = u64 [s1 + 0x18]\n 31632: u64 [a2 + 0xd8] = a0\n 31636: a0 = u64 [s1 + 0x20]\n 31639: u64 [a2 + 0xd0] = a0\n 31643: a3 = a1\n 31645: a0 = 0x20\n 31648: a1 = s1 + 0x7ff\n 31652: a1 = a1 + 0x581\n 31656: a2 = u64 [s1 + 0x28]\n 31659: u64 [a3 + 0x4c8] = a2\n 31663: ra = 1216, jump @19\n      : @1128 [@dyn 608] (gas: 3)\n 31669: a0 = u64 [s1 + 0x38]\n 31672: a0 = i32 [a0]\n 31674: jump @1130 if a0 >u 63\n      : @1129 (gas: 4)\n 31678: a1 = u64 [s1 + 0x38]\n 31681: u32 [a1 + 0] = 0x40\n 31684: t0 = 0x4c2\n 31688: jump @2021\n      : @1130 (gas: 1)\n 31691: t0 = 1218, jump @2021\n      : @1131 [@dyn 609] (gas: 4)\n 31697: ra = 0x4c4\n 31701: ecalli 9 // 'hash_keccak_256'\n 31703: t0 = 0x4c6\n 31707: jump @1980\n      : @1132 [@dyn 610] (gas: 1)\n 31710: t0 = 1222, jump @1980\n      : @1133 [@dyn 611] (gas: 2)\n 31716: a0 = a0 + 0x561\n 31720: ra = 1224, jump @21\n      : @1134 [@dyn 612] (gas: 26)\n 31726: a5 = s1 + 0x7ff\n 31730: a5 = a5 + 0xb9\n 31734: a3 = u64 [a5 + 0x4a8]\n 31738: a0 = u64 [a5 + 0x4b0]\n 31742: a1 = u64 [a5 + 0x4b8]\n 31746: a2 = u64 [a5 + 0x4c0]\n 31750: a4 = u64 [s1 + 0x110]\n 31754: u64 [a5 + 0x460] = a4\n 31758: a4 = u64 [s1 + 0x118]\n 31762: u64 [a5 + 0x458] = a4\n 31766: a4 = u64 [s1 + 0x108]\n 31770: u64 [a5 + 0x450] = a4\n 31774: a4 = u64 [s1 + 0x100]\n 31778: u64 [a5 + 0x448] = a4\n 31782: a4 = a5 + 0x400\n 31786: u64 [a4 + 0x80] = a2\n 31790: u64 [a4 + 0x78] = a1\n 31793: u64 [a4 + 0x70] = a0\n 31796: a0 = s1 + 0x7ff\n 31800: a0 = a0 + 0x541\n 31804: a1 = s1 + 0x7ff\n 31808: a1 = a1 + 0x521\n 31812: a2 = s1 + 0x7ff\n 31816: a2 = a2 + 0x501\n 31820: u64 [a4 + 0x68] = a3\n 31823: ra = 1226, jump @1403\n      : @1135 [@dyn 613] (gas: 16)\n 31829: a3 = s1 + 0x7ff\n 31833: a3 = a3 + 0xb9\n 31837: a4 = a3 + 0x400\n 31841: a0 = u64 [a4 + 0xa0]\n 31845: a1 = u64 [a4 + 0x98]\n 31849: a2 = u64 [a4 + 0x90]\n 31853: a3 = u64 [a4 + 0x88]\n 31857: a4 = s1 + 0x30b8\n 31861: a5 = a4 + 0x400\n 31865: u64 [a5 + 0xa0] = a0\n 31869: u64 [a5 + 0x98] = a1\n 31873: u64 [a5 + 0x90] = a2\n 31877: u64 [a5 + 0x88] = a3\n 31881: a1 = s1 + 0x3540\n 31885: a0 = u64 [s1 + 0x138]\n 31889: ra = 1228, jump @25\n      : @1136 [@dyn 614] (gas: 6)\n 31895: a0 = sp + 0xffffffffffffffe0\n 31898: a5 = a0 & 0xffffffffffffffe0\n 31901: sp = a5\n 31903: a1 = u64 [s1 + 0xa0]\n 31907: a0 = a1 + 0x11\n 31910: t0 = 1230, jump @2007\n      : @1137 [@dyn 615] (gas: 10)\n 31916: a4 = a4 + a1\n 31919: a1 = a5\n 31921: u64 [s1 + 0x138] = a5\n 31925: u64 [a5 + 0x18] = a4\n 31928: u64 [a5 + 0x10] = a3\n 31931: u64 [a5 + 0x8] = a2\n 31934: u64 [a5] = a0\n 31936: a0 = s1 + 0x7ff\n 31940: a0 = a0 + 0x4e1\n 31944: ra = 1232, jump @21\n      : @1138 [@dyn 616] (gas: 26)\n 31950: a4 = s1 + 0x7ff\n 31954: a4 = a4 + 0xb9\n 31958: a3 = u64 [a4 + 0x428]\n 31962: a0 = u64 [a4 + 0x430]\n 31966: a1 = u64 [a4 + 0x438]\n 31970: a2 = u64 [a4 + 0x440]\n 31974: a5 = u64 [s1 + 0x110]\n 31978: u64 [a4 + 0x3e0] = a5\n 31982: a5 = u64 [s1 + 0x118]\n 31986: u64 [a4 + 0x3d8] = a5\n 31990: a5 = u64 [s1 + 0x108]\n 31994: u64 [a4 + 0x3d0] = a5\n 31998: a5 = u64 [s1 + 0x100]\n 32002: u64 [a4 + 0x3c8] = a5\n 32006: u64 [a4 + 0x400] = a2\n 32010: a5 = a4 + 0x300\n 32014: u64 [a5 + 0xf8] = a1\n 32018: u64 [a5 + 0xf0] = a0\n 32022: a0 = s1 + 0x7ff\n 32026: a0 = a0 + 0x4c1\n 32030: a1 = s1 + 0x7ff\n 32034: a1 = a1 + 0x4a1\n 32038: a2 = s1 + 0x7ff\n 32042: a2 = a2 + 0x481\n 32046: u64 [a5 + 0xe8] = a3\n 32050: ra = 1234, jump @1403\n      : @1139 [@dyn 617] (gas: 16)\n 32056: a3 = s1 + 0x7ff\n 32060: a3 = a3 + 0xb9\n 32064: a4 = a3 + 0x400\n 32068: a0 = u64 [a4 + 0x20]\n 32071: a1 = u64 [a4 + 0x18]\n 32074: a2 = u64 [a4 + 0x10]\n 32077: a3 = u64 [a4 + 0x8]\n 32080: a4 = s1 + 0x30b8\n 32084: a5 = a4 + 0x400\n 32088: u64 [a5 + 0xc0] = a0\n 32092: u64 [a5 + 0xb8] = a1\n 32096: u64 [a5 + 0xb0] = a2\n 32100: u64 [a5 + 0xa8] = a3\n 32104: a1 = s1 + 0x3560\n 32108: a0 = u64 [s1 + 0x138]\n 32112: ra = 1236, jump @25\n      : @1140 [@dyn 618] (gas: 42)\n 32118: a0 = sp + 0xffffffffffffffe0\n 32121: a4 = a0 & 0xffffffffffffffe0\n 32124: u64 [s1 + 0x130] = a4\n 32128: sp = a4\n 32130: a1 = u64 [s1 + 0xa0]\n 32134: a0 = a1 + 0x12\n 32137: a1 = a0 <u a1\n 32140: a3 = u64 [s1 + 0xa8]\n 32144: a2 = a3 + a1\n 32147: a3 = a2 <u a3\n 32150: a3 = a1 if a1 == 0\n 32153: a1 = u64 [s1 + 0xb0]\n 32157: a3 = a3 + a1\n 32160: a1 = a3 <u a1\n 32163: a5 = u64 [s1 + 0xb8]\n 32167: a1 = a1 + a5\n 32170: u64 [a4 + 0x18] = a1\n 32173: u64 [a4 + 0x10] = a3\n 32176: u64 [a4 + 0x8] = a2\n 32179: u64 [a4] = a0\n 32181: a0 = s1 + 0x30b8\n 32185: u64 [a0 + 1248] = 0\n 32189: u64 [a0 + 1240] = 0\n 32193: u64 [a0 + 1232] = 0\n 32197: u64 [a0 + 1224] = 0\n 32201: a0 = s1 + 0x3000\n 32205: i32 a0 = a0 + 0x580\n 32209: ecalli 17 // 'value_transferred'\n 32211: a0 = s1 + 0x30b8\n 32215: a2 = a0 + 0x400\n 32219: a1 = u64 [a2 + 0xc8]\n 32223: u64 [s1 + 0x128] = a1\n 32227: a1 = u64 [a2 + 0xd0]\n 32231: u64 [s1 + 0x120] = a1\n 32235: a1 = u64 [a2 + 0xd8]\n 32239: u64 [s1 + 0xf8] = a1\n 32243: a0 = u64 [a2 + 0xe0]\n 32247: u64 [s1 + 0xf0] = a0\n 32251: a0 = s1 + 0x7ff\n 32255: a0 = a0 + 0x461\n 32259: a1 = u64 [s1 + 0x130]\n 32263: ra = 1238, jump @21\n      : @1141 [@dyn 619] (gas: 26)\n 32269: a4 = s1 + 0x7ff\n 32273: a4 = a4 + 0xb9\n 32277: a3 = u64 [a4 + 0x3a8]\n 32281: a0 = u64 [a4 + 0x3b0]\n 32285: a1 = u64 [a4 + 0x3b8]\n 32289: a2 = u64 [a4 + 0x3c0]\n 32293: a5 = u64 [s1 + 0xf0]\n 32297: u64 [a4 + 0x360] = a5\n 32301: a5 = u64 [s1 + 0xf8]\n 32305: u64 [a4 + 0x358] = a5\n 32309: a5 = u64 [s1 + 0x120]\n 32313: u64 [a4 + 0x350] = a5\n 32317: a5 = u64 [s1 + 0x128]\n 32321: u64 [a4 + 0x348] = a5\n 32325: a5 = a4 + 0x300\n 32329: u64 [a5 + 0x80] = a2\n 32333: u64 [a5 + 0x78] = a1\n 32336: u64 [a5 + 0x70] = a0\n 32339: a0 = s1 + 0x7ff\n 32343: a0 = a0 + 0x441\n 32347: a1 = s1 + 0x7ff\n 32351: a1 = a1 + 0x421\n 32355: a2 = s1 + 0x7ff\n 32359: a2 = a2 + 0x401\n 32363: u64 [a5 + 0x68] = a3\n 32366: ra = 1240, jump @1403\n      : @1142 [@dyn 620] (gas: 16)\n 32372: a3 = s1 + 0x7ff\n 32376: a3 = a3 + 0xb9\n 32380: a4 = a3 + 0x300\n 32384: a0 = u64 [a4 + 0xa0]\n 32388: a1 = u64 [a4 + 0x98]\n 32392: a2 = u64 [a4 + 0x90]\n 32396: a3 = u64 [a4 + 0x88]\n 32400: a4 = s1 + 0x30b8\n 32404: u64 [a4 + 0x500] = a0\n 32408: a0 = a4 + 0x400\n 32412: u64 [a0 + 0xf8] = a1\n 32416: u64 [a0 + 0xf0] = a2\n 32420: u64 [a0 + 0xe8] = a3\n 32424: a1 = s1 + 0x35a0\n 32428: a0 = u64 [s1 + 0x130]\n 32432: ra = 1242, jump @25\n      : @1143 [@dyn 621] (gas: 9)\n 32438: a0 = sp + 0xffffffffffffffe0\n 32441: a0 = a0 & 0xffffffffffffffe0\n 32444: u64 [s1 + 0x130] = a0\n 32448: sp = a0\n 32450: a0 = u64 [s1 + 0x98]\n 32454: ra = 0x4dc\n 32458: ecalli 6 // 'caller'\n 32460: t0 = 0x4de\n 32464: jump @1960\n      : @1144 [@dyn 622] (gas: 1)\n 32467: t0 = 1246, jump @1960\n      : @1145 [@dyn 623] (gas: 9)\n 32473: u64 [a2 + 832] = 0\n 32477: a4 = a2 + 0x300\n 32481: u64 [a4 + 0x38] = a1\n 32484: u64 [a4 + 0x30] = a0\n 32487: a1 = s1 + 0x7ff\n 32491: a1 = a1 + 0x3e1\n 32495: u64 [a4 + 0x28] = a3\n 32498: a0 = 0\n 32500: ra = 1248, jump @19\n      : @1146 [@dyn 624] (gas: 16)\n 32506: a0 = u64 [s1 + 0x10]\n 32509: a1 = s1 + 0x7ff\n 32513: a1 = a1 + 0xb9\n 32517: a2 = a1 + 0x300\n 32521: u64 [a2 + 0x20] = a0\n 32524: a0 = u64 [s1 + 0x18]\n 32527: u64 [a2 + 0x18] = a0\n 32530: a0 = u64 [s1 + 0x20]\n 32533: u64 [a2 + 0x10] = a0\n 32536: a3 = a1\n 32538: a0 = 0x20\n 32541: a1 = s1 + 0x7ff\n 32545: a1 = a1 + 0x3c1\n 32549: a2 = u64 [s1 + 0x28]\n 32552: u64 [a3 + 0x308] = a2\n 32556: ra = 1250, jump @19\n      : @1147 [@dyn 625] (gas: 3)\n 32562: a0 = u64 [s1 + 0x38]\n 32565: a0 = i32 [a0]\n 32567: jump @1149 if a0 >u 63\n      : @1148 (gas: 4)\n 32571: a0 = u64 [s1 + 0x38]\n 32574: u32 [a0 + 0] = 0x40\n 32577: t0 = 0x4e4\n 32581: jump @2022\n      : @1149 (gas: 1)\n 32584: t0 = 1252, jump @2022\n      : @1150 [@dyn 626] (gas: 4)\n 32590: ra = 0x4e6\n 32594: ecalli 9 // 'hash_keccak_256'\n 32596: t0 = 0x4e8\n 32600: jump @1983\n      : @1151 [@dyn 627] (gas: 1)\n 32603: t0 = 1256, jump @1983\n      : @1152 [@dyn 628] (gas: 2)\n 32609: a0 = a0 + 0x3a1\n 32613: ra = 1258, jump @21\n      : @1153 [@dyn 629] (gas: 20)\n 32619: a3 = s1 + 0x7ff\n 32623: a3 = a3 + 0xb9\n 32627: a0 = u64 [a3 + 0x300]\n 32631: a4 = a3 + 0x200\n 32635: a1 = u64 [a4 + 0xf0]\n 32639: a2 = u64 [a4 + 0xe8]\n 32643: a3 = u64 [a4 + 0xf8]\n 32647: a5 = s1 + 0x100\n 32651: a4 = u64 [a5 + 0x10]\n 32654: a0 = a0 ^ a4\n 32657: a4 = u64 [a5 + 0x8]\n 32660: a1 = a1 ^ a4\n 32663: a0 = a0 | a1\n 32666: a1 = u64 [a5 + 0x18]\n 32669: a1 = a1 ^ a3\n 32672: a3 = u64 [a5]\n 32674: a2 = a2 ^ a3\n 32677: a1 = a1 | a2\n 32680: a0 = a0 | a1\n 32683: jump @1166 if a0 != 0\n      : @1154 (gas: 5)\n 32687: a0 = u64 [s1 + 0x98]\n 32691: ra = 0x4ec\n 32695: ecalli 6 // 'caller'\n 32697: t0 = 0x4ee\n 32701: jump @1960\n      : @1155 [@dyn 630] (gas: 1)\n 32704: t0 = 1262, jump @1960\n      : @1156 [@dyn 631] (gas: 9)\n 32710: u64 [a2 + 736] = 0\n 32714: a4 = a2 + 0x200\n 32718: u64 [a4 + 0xd8] = a1\n 32722: u64 [a4 + 0xd0] = a0\n 32726: a1 = s1 + 0x7ff\n 32730: a1 = a1 + 0x381\n 32734: u64 [a4 + 0xc8] = a3\n 32738: a0 = 0\n 32740: ra = 1264, jump @19\n      : @1157 [@dyn 632] (gas: 11)\n 32746: a1 = s1 + 0x7ff\n 32750: a1 = a1 + 0xb9\n 32754: u64 [a1 + 704] = 0\n 32758: u64 [a1 + 696] = 0\n 32762: u64 [a1 + 680] = 0x6\n 32767: a2 = a1\n 32769: a0 = 0x20\n 32772: a1 = s1 + 0x7ff\n 32776: a1 = a1 + 0x361\n 32780: u64 [a2 + 688] = 0\n 32784: ra = 1266, jump @19\n      : @1158 [@dyn 633] (gas: 7)\n 32790: a0 = sp + 0xffffffffffffffe0\n 32793: a0 = a0 & 0xffffffffffffffe0\n 32796: u64 [s1 + 0x130] = a0\n 32800: sp = a0\n 32802: a0 = u64 [s1 + 0x38]\n 32805: a0 = i32 [a0]\n 32807: jump @1160 if a0 >u 63\n      : @1159 (gas: 4)\n 32811: a1 = u64 [s1 + 0x38]\n 32814: u32 [a1 + 0] = 0x40\n 32817: t0 = 0x4f4\n 32821: jump @2022\n      : @1160 (gas: 1)\n 32824: t0 = 1268, jump @2022\n      : @1161 [@dyn 634] (gas: 4)\n 32830: ra = 0x4f6\n 32834: ecalli 9 // 'hash_keccak_256'\n 32836: t0 = 0x4f8\n 32840: jump @1983\n      : @1162 [@dyn 635] (gas: 1)\n 32843: t0 = 1272, jump @1983\n      : @1163 [@dyn 636] (gas: 2)\n 32849: a0 = a0 + 0x341\n 32853: ra = 1274, jump @21\n      : @1164 [@dyn 637] (gas: 16)\n 32859: a4 = s1 + 0x7ff\n 32863: a4 = a4 + 0xb9\n 32867: a5 = a4 + 0x200\n 32871: a2 = u64 [a5 + 0x88]\n 32875: a0 = u64 [a5 + 0x90]\n 32879: a1 = u64 [a5 + 0x98]\n 32883: a3 = u64 [a5 + 0xa0]\n 32887: u64 [a5 + 0x60] = a3\n 32890: u64 [a5 + 0x58] = a1\n 32893: u64 [a5 + 0x50] = a0\n 32896: a0 = s1 + 0x7ff\n 32900: a0 = a0 + 0x321\n 32904: a1 = s1 + 0x7ff\n 32908: a1 = a1 + 0x301\n 32912: u64 [a5 + 0x48] = a2\n 32915: ra = 1276, jump @1511\n      : @1165 [@dyn 638] (gas: 16)\n 32921: a3 = s1 + 0x7ff\n 32925: a3 = a3 + 0xb9\n 32929: a4 = a3 + 0x200\n 32933: a0 = u64 [a4 + 0x80]\n 32937: a1 = u64 [a4 + 0x78]\n 32940: a2 = u64 [a4 + 0x70]\n 32943: a3 = u64 [a4 + 0x68]\n 32946: a4 = s1 + 0x30b8\n 32950: a5 = a4 + 0x500\n 32954: u64 [a5 + 0x20] = a0\n 32957: u64 [a5 + 0x18] = a1\n 32960: u64 [a5 + 0x10] = a2\n 32963: u64 [a5 + 0x8] = a3\n 32966: a1 = s1 + 0x35c0\n 32970: a0 = u64 [s1 + 0x130]\n 32974: ra = 1278, jump @25\n      : @1166 [@dyn 639] (gas: 4)\n 32980: a0 = s1 + 0x7ff\n 32984: a0 = a0 + 0x2e1\n 32988: a1 = u64 [s1 + 0x138]\n 32992: ra = 1280, jump @21\n      : @1167 [@dyn 640] (gas: 12)\n 32998: a3 = s1 + 0x7ff\n 33002: a3 = a3 + 0xb9\n 33006: a4 = a3 + 0x200\n 33010: a0 = u64 [a4 + 0x40]\n 33013: a1 = u64 [a4 + 0x30]\n 33016: a2 = u64 [a4 + 0x28]\n 33019: a3 = u64 [a4 + 0x38]\n 33022: a0 = a0 | a1\n 33025: a1 = a2 ^ 0x10\n 33028: a1 = a1 | a3\n 33031: a0 = a0 | a1\n 33034: jump @1171 if a0 != 0\n      : @1168 (gas: 5)\n 33037: a0 = s1 + 0x3000\n 33041: i32 a0 = a0 + 0x5e0\n 33045: ra = 0x502\n 33049: ecalli 1 // 'block_number'\n 33051: fallthrough\n      : @1169 [@dyn 641] (gas: 3)\n 33052: a1 = u64 [s1 + 0xa0]\n 33056: a0 = a1 + 0x13\n 33059: t0 = 1284, jump @2007\n      : @1170 [@dyn 642] (gas: 18)\n 33065: a1 = a1 + a4\n 33068: a4 = s1 + 0x30b8\n 33072: a5 = a4 + 0x500\n 33076: u64 [a5 + 0x48] = a0\n 33079: a0 = u64 [a5 + 0x30]\n 33082: u64 [a5 + 0x50] = a2\n 33085: a2 = u64 [a5 + 0x40]\n 33088: u64 [a5 + 0x58] = a3\n 33091: a3 = u64 [a5 + 0x38]\n 33094: u64 [a5 + 0x60] = a1\n 33097: a1 = u64 [a5 + 0x28]\n 33100: u64 [a5 + 0x80] = a2\n 33104: u64 [a5 + 0x78] = a3\n 33107: u64 [a5 + 0x70] = a0\n 33110: u64 [a5 + 0x68] = a1\n 33113: a0 = s1 + 0x3600\n 33117: a1 = s1 + 0x3620\n 33121: ra = 1286, jump @25\n      : @1171 [@dyn 643] (gas: 2)\n 33127: a0 = 0x30b8\n 33131: t0 = 1288, jump @1993\n      : @1172 [@dyn 644] (gas: 4)\n 33137: u64 [a1 + 1448] = 0x1\n 33142: a0 = s1 + 0x3640\n 33146: a1 = s1 + 0x3660\n 33150: ra = 1290, jump @25\n      : @1173 [@dyn 645] (gas: 5)\n 33156: a0 = 0\n 33158: a1 = u64 [s1 + 0x30]\n 33161: a2 = 0\n 33163: ecalli 14 // 'seal_return'\n 33165: fallthrough\n      : @1174 (gas: 6)\n 33166: a1 = 0x20270\n 33171: i32 a1 = a1 + 0\n 33173: a0 = 0x1\n 33176: a2 = 0\n 33178: ecalli 14 // 'seal_return'\n 33180: jump @1174\n      : @1175 (gas: 6)\n 33182: a1 = 0x20270\n 33187: i32 a1 = a1 + 0\n 33189: a0 = 0x1\n 33192: a2 = 0\n 33194: ecalli 14 // 'seal_return'\n 33196: jump @1174\n      : @1176 (gas: 6)\n 33198: a1 = 0x20270\n 33203: i32 a1 = a1 + 0\n 33205: a0 = 0x1\n 33208: a2 = 0\n 33210: ecalli 14 // 'seal_return'\n 33212: jump @1174\n      : @1177 (gas: 8)\n 33214: a1 = s1 + 0x38b8\n 33218: u64 [a1 + 928] = 0\n 33222: u64 [a1 + 920] = 0\n 33226: u64 [a1 + 912] = 0\n 33230: u64 [a1 + 904] = 0x8\n 33235: a0 = s1 + 0x1c80\n 33239: a1 = s1 + 0x3c40\n 33243: ra = 1292, jump @21\n      : @1178 [@dyn 646] (gas: 24)\n 33249: a1 = s1 + 0x18b8\n 33253: a0 = u32 [a1 + 0x3dc]\n 33257: a1 = u64 [a1 + 0x3e0]\n 33261: a0 = a0 << 0x20\n 33264: a4 = s1 + 0x100\n 33268: a2 = u64 [a4 + 0x38]\n 33271: a0 = a0 | a2\n 33274: a2 = u64 [a4 + 0x30]\n 33277: a1 = a1 | a2\n 33280: a3 = s1 + 0x38b8\n 33284: u64 [a3 + 960] = 0\n 33288: u64 [a3 + 952] = 0\n 33292: u64 [a3 + 944] = 0\n 33296: a5 = a3 + 0x300\n 33300: u64 [a5 + 168] = 0x8\n 33305: a2 = u64 [a4 + 0x20]\n 33308: u64 [a5 + 0xd0] = a2\n 33312: a2 = u64 [a4 + 0x28]\n 33315: u64 [a5 + 0xc8] = a2\n 33319: u64 [a5 + 0xe0] = a1\n 33323: u64 [a5 + 0xd8] = a0\n 33327: a0 = s1 + 0x3c60\n 33331: a1 = s1 + 0x3c80\n 33335: ra = 1294, jump @25\n      : @1179 [@dyn 647] (gas: 6)\n 33341: a1 = 0x20270\n 33346: i32 a1 = a1 + 0\n 33348: a0 = 0\n 33350: a2 = 0\n 33352: ecalli 14 // 'seal_return'\n 33354: jump @1174\n      : @1180 (gas: 6)\n 33357: a1 = 0x20270\n 33362: i32 a1 = a1 + 0\n 33364: a0 = 0x1\n 33367: a2 = 0\n 33369: ecalli 14 // 'seal_return'\n 33371: jump @1174\n      : @1181 (gas: 6)\n 33374: a1 = 0x20270\n 33379: i32 a1 = a1 + 0\n 33381: a0 = 0x1\n 33384: a2 = 0\n 33386: ecalli 14 // 'seal_return'\n 33388: jump @1174\n      : @1182 (gas: 6)\n 33391: u64 [ra + 184] = 0\n 33395: u64 [ra + 176] = 0\n 33399: u64 [ra + 168] = 0\n 33403: t0 = 0x510\n 33407: a0 = 0x4e487b7100000000\n 33417: fallthrough\n      : @1183 [@dyn 648] (gas: 4)\n 33418: a1 = s1 + 0x2960\n 33422: u64 [ra + 0xc0] = a0\n 33426: a0 = 0\n 33428: ra = 1298, jump @19\n      : @1184 [@dyn 649] (gas: 3)\n 33435: t0 = 0x514\n 33439: a1 = s1 + 0x28b8\n 33443: fallthrough\n      : @1185 [@dyn 650] (gas: 8)\n 33444: u64 [a1 + 160] = 0\n 33448: u64 [a1 + 152] = 0\n 33452: u64 [a1 + 136] = 0x11\n 33457: a2 = a1\n 33459: a0 = 0x4\n 33462: a1 = s1 + 0x2940\n 33466: u64 [a2 + 144] = 0\n 33470: ra = 1302, jump @19\n      : @1186 [@dyn 651] (gas: 3)\n 33477: a0 = u64 [s1 + 0x128]\n 33481: a0 = i32 [a0]\n 33483: jump @1188 if a0 >u 63\n      : @1187 (gas: 3)\n 33487: a1 = u64 [s1 + 0x128]\n 33491: u32 [a1 + 0] = 0x40\n 33494: fallthrough\n      : @1188 (gas: 5)\n 33495: a0 = 0x1\n 33498: a2 = 0x24\n 33501: a1 = u64 [s1 + 0x120]\n 33505: ecalli 14 // 'seal_return'\n 33507: fallthrough\n      : @1189 (gas: 6)\n 33508: a1 = 0x20270\n 33513: i32 a1 = a1 + 0\n 33515: a0 = 0x1\n 33518: a2 = 0\n 33520: ecalli 14 // 'seal_return'\n 33522: jump @1174\n      : @1190 (gas: 6)\n 33525: a1 = 0x20270\n 33530: i32 a1 = a1 + 0\n 33532: a0 = 0x1\n 33535: a2 = 0\n 33537: ecalli 14 // 'seal_return'\n 33539: jump @1174\n      : @1191 (gas: 6)\n 33542: a1 = 0x20270\n 33547: i32 a1 = a1 + 0\n 33549: a0 = 0x1\n 33552: a2 = 0\n 33554: ecalli 14 // 'seal_return'\n 33556: jump @1174\n      : @1192 (gas: 6)\n 33559: a1 = 0x20270\n 33564: i32 a1 = a1 + 0\n 33566: a0 = 0x1\n 33569: a2 = 0\n 33571: ecalli 14 // 'seal_return'\n 33573: jump @1174\n      : @1193 (gas: 6)\n 33576: a1 = 0x20270\n 33581: i32 a1 = a1 + 0\n 33583: a0 = 0x1\n 33586: a2 = 0\n 33588: ecalli 14 // 'seal_return'\n 33590: jump @1174\n      : @1194 (gas: 6)\n 33593: a1 = 0x20270\n 33598: i32 a1 = a1 + 0\n 33600: a0 = 0x1\n 33603: a2 = 0\n 33605: ecalli 14 // 'seal_return'\n 33607: jump @1174\n      : @1195 (gas: 6)\n 33610: a1 = 0x20270\n 33615: i32 a1 = a1 + 0\n 33617: a0 = 0x1\n 33620: a2 = 0\n 33622: ecalli 14 // 'seal_return'\n 33624: jump @1174\n      : @1196 (gas: 6)\n 33627: a1 = 0x20270\n 33632: i32 a1 = a1 + 0\n 33634: a0 = 0x1\n 33637: a2 = 0\n 33639: ecalli 14 // 'seal_return'\n 33641: jump @1174\n      : @1197 (gas: 6)\n 33644: a1 = 0x20270\n 33649: i32 a1 = a1 + 0\n 33651: a0 = 0x1\n 33654: a2 = 0\n 33656: ecalli 14 // 'seal_return'\n 33658: jump @1174\n      : @1198 (gas: 19)\n 33661: a0 = u64 [s1 + 0x118]\n 33665: a0 = a0 >> 0x20\n 33668: a0 = a0 << 0x20\n 33671: a0 = a0 | a2\n 33674: a1 = u64 [s1 + 0xf8]\n 33678: a1 = a1 | a3\n 33681: a3 = s1 + 0x40b8\n 33685: u64 [a3 + 704] = 0\n 33689: u64 [a3 + 696] = 0\n 33693: u64 [a3 + 688] = 0\n 33697: u64 [a3 + 680] = 0x7\n 33702: a2 = a3 + 0x200\n 33706: u64 [a2 + 0xc8] = a5\n 33710: u64 [a2 + 0xd0] = a4\n 33714: u64 [a2 + 0xe0] = a1\n 33718: u64 [a2 + 0xd8] = a0\n 33722: a0 = s1 + 0x4360\n 33726: a1 = s1 + 0x4380\n 33730: ra = 1304, jump @25\n      : @1199 [@dyn 652] (gas: 6)\n 33737: a1 = 0x20270\n 33742: i32 a1 = a1 + 0\n 33744: a0 = 0\n 33746: a2 = 0\n 33748: ecalli 14 // 'seal_return'\n 33750: jump @1174\n      : @1200 (gas: 6)\n 33753: a1 = 0x20270\n 33758: i32 a1 = a1 + 0\n 33760: a0 = 0x1\n 33763: a2 = 0\n 33765: ecalli 14 // 'seal_return'\n 33767: jump @1174\n      : @1201 (gas: 6)\n 33770: a1 = 0x20270\n 33775: i32 a1 = a1 + 0\n 33777: a0 = 0x1\n 33780: a2 = 0\n 33782: ecalli 14 // 'seal_return'\n 33784: jump @1174\n      : @1202 (gas: 6)\n 33787: a1 = 0x20270\n 33792: i32 a1 = a1 + 0\n 33794: a0 = 0x1\n 33797: a2 = 0\n 33799: ecalli 14 // 'seal_return'\n 33801: jump @1174\n      : @1203 (gas: 6)\n 33804: a1 = 0x20270\n 33809: i32 a1 = a1 + 0\n 33811: a0 = 0x1\n 33814: a2 = 0\n 33816: ecalli 14 // 'seal_return'\n 33818: jump @1174\n      : @1204 (gas: 6)\n 33821: a1 = 0x20270\n 33826: i32 a1 = a1 + 0\n 33828: a0 = 0x1\n 33831: a2 = 0\n 33833: ecalli 14 // 'seal_return'\n 33835: jump @1174\n      : @1205 (gas: 6)\n 33838: a1 = 0x20270\n 33843: i32 a1 = a1 + 0\n 33845: a0 = 0x1\n 33848: a2 = 0\n 33850: ecalli 14 // 'seal_return'\n 33852: jump @1174\n      : @1206 (gas: 6)\n 33855: a1 = 0x20270\n 33860: i32 a1 = a1 + 0\n 33862: a0 = 0x1\n 33865: a2 = 0\n 33867: ecalli 14 // 'seal_return'\n 33869: jump @1174\n      : @1207 (gas: 6)\n 33872: a1 = 0x20270\n 33877: i32 a1 = a1 + 0\n 33879: a0 = 0x1\n 33882: a2 = 0\n 33884: ecalli 14 // 'seal_return'\n 33886: jump @1174\n      : @1208 (gas: 6)\n 33889: a1 = 0x20270\n 33894: i32 a1 = a1 + 0\n 33896: a0 = 0x1\n 33899: a2 = 0\n 33901: ecalli 14 // 'seal_return'\n 33903: jump @1174\n      : @1209 (gas: 6)\n 33906: a1 = 0x20270\n 33911: i32 a1 = a1 + 0\n 33913: a0 = 0x1\n 33916: a2 = 0\n 33918: ecalli 14 // 'seal_return'\n 33920: jump @1174\n      : @1210 (gas: 6)\n 33923: a1 = 0x20270\n 33928: i32 a1 = a1 + 0\n 33930: a0 = 0x1\n 33933: a2 = 0\n 33935: ecalli 14 // 'seal_return'\n 33937: jump @1174\n      : @1211 (gas: 6)\n 33940: a1 = 0x20270\n 33945: i32 a1 = a1 + 0\n 33947: a0 = 0x1\n 33950: a2 = 0\n 33952: ecalli 14 // 'seal_return'\n 33954: jump @1174\n      : @1212 (gas: 8)\n 33957: a0 = s1 + 0x10b8\n 33961: u64 [a0 + 88] = 0\n 33964: u64 [a0 + 80] = 0\n 33967: u64 [a0 + 72] = 0\n 33970: a2 = a0\n 33972: t0 = 0x51a\n 33976: a0 = 0x4e487b7100000000\n 33986: fallthrough\n      : @1213 [@dyn 653] (gas: 4)\n 33987: a1 = s1 + 0x1100\n 33991: u64 [a2 + 0x60] = a0\n 33994: a0 = 0\n 33996: ra = 1308, jump @19\n      : @1214 [@dyn 654] (gas: 3)\n 34003: t0 = 0x51e\n 34007: a1 = s1 + 0x10b8\n 34011: fallthrough\n      : @1215 [@dyn 655] (gas: 8)\n 34012: u64 [a1 + 64] = 0\n 34015: u64 [a1 + 56] = 0\n 34018: u64 [a1 + 40] = 0x11\n 34022: a2 = a1\n 34024: a0 = 0x4\n 34027: a1 = s1 + 0x10e0\n 34031: u64 [a2 + 48] = 0\n 34034: ra = 1312, jump @19\n      : @1216 [@dyn 656] (gas: 3)\n 34041: a0 = u64 [s1 + 0xd0]\n 34045: a0 = i32 [a0]\n 34047: jump @1218 if a0 >u 63\n      : @1217 (gas: 3)\n 34051: a1 = u64 [s1 + 0xd0]\n 34055: u32 [a1 + 0] = 0x40\n 34058: fallthrough\n      : @1218 (gas: 5)\n 34059: a0 = 0x1\n 34062: a2 = 0x24\n 34065: a1 = u64 [s1 + 0xa0]\n 34069: ecalli 14 // 'seal_return'\n 34071: fallthrough\n      : @1219 (gas: 1)\n 34072: jump @1256 if a0 != 120497692\n      : @1220 (gas: 10)\n 34080: a0 = s1 + 0x30b8\n 34084: u64 [a0 + 128] = 0\n 34088: u64 [a0 + 120] = 0\n 34091: u64 [a0 + 112] = 0\n 34094: u64 [a0 + 104] = 0\n 34097: a0 = s1 + 0x3000\n 34101: i32 a0 = a0 + 0x120\n 34105: ecalli 17 // 'value_transferred'\n 34107: a3 = s1 + 0x30b8\n 34111: fallthrough\n      : @1221 (gas: 8)\n 34112: a0 = u64 [a3 + 0x78]\n 34115: a1 = u64 [a3 + 0x80]\n 34119: a2 = u64 [a3 + 0x70]\n 34122: a3 = u64 [a3 + 0x68]\n 34125: a1 = a1 | a2\n 34128: a0 = a0 | a3\n 34131: a0 = a0 | a1\n 34134: jump @1267 if a0 == 0\n      : @1222 (gas: 6)\n 34138: a1 = 0x20270\n 34143: i32 a1 = a1 + 0\n 34145: a0 = 0x1\n 34148: a2 = 0\n 34150: ecalli 14 // 'seal_return'\n 34152: jump @1174\n      : @1223 (gas: 6)\n 34155: a1 = 0x20270\n 34160: i32 a1 = a1 + 0\n 34162: a0 = 0x1\n 34165: a2 = 0\n 34167: ecalli 14 // 'seal_return'\n 34169: jump @1174\n      : @1224 (gas: 6)\n 34172: a1 = 0x20270\n 34177: i32 a1 = a1 + 0\n 34179: a0 = 0x1\n 34182: a2 = 0\n 34184: ecalli 14 // 'seal_return'\n 34186: jump @1174\n      : @1225 (gas: 6)\n 34189: a1 = 0x20270\n 34194: i32 a1 = a1 + 0\n 34196: a0 = 0x1\n 34199: a2 = 0\n 34201: ecalli 14 // 'seal_return'\n 34203: jump @1174\n      : @1226 (gas: 6)\n 34206: a1 = 0x20270\n 34211: i32 a1 = a1 + 0\n 34213: a0 = 0x1\n 34216: a2 = 0\n 34218: ecalli 14 // 'seal_return'\n 34220: jump @1174\n      : @1227 (gas: 8)\n 34223: a1 = s1 + 0x40b8\n 34227: u64 [a1 + 256] = 0\n 34231: u64 [a1 + 248] = 0\n 34235: u64 [a1 + 240] = 0\n 34239: u64 [a1 + 232] = 0x1\n 34244: a0 = s1 + 0x41a0\n 34248: a1 = u64 [s1 + 0x138]\n 34252: ra = 1314, jump @25\n      : @1228 [@dyn 657] (gas: 6)\n 34259: a1 = 0x20270\n 34264: i32 a1 = a1 + 0\n 34266: a0 = 0\n 34268: a2 = 0\n 34270: ecalli 14 // 'seal_return'\n 34272: jump @1174\n      : @1229 (gas: 6)\n 34275: a1 = 0x20270\n 34280: i32 a1 = a1 + 0\n 34282: a0 = 0x1\n 34285: a2 = 0\n 34287: ecalli 14 // 'seal_return'\n 34289: jump @1174\n      : @1230 (gas: 6)\n 34292: a1 = 0x20270\n 34297: i32 a1 = a1 + 0\n 34299: a0 = 0x1\n 34302: a2 = 0\n 34304: ecalli 14 // 'seal_return'\n 34306: jump @1174\n      : @1231 (gas: 8)\n 34309: a1 = s1 + 0x38b8\n 34313: u64 [a1 + 1312] = 0\n 34317: u64 [a1 + 1304] = 0\n 34321: u64 [a1 + 1296] = 0\n 34325: u64 [a1 + 1288] = 0x2\n 34330: a0 = s1 + 0x3dc0\n 34334: a1 = u64 [s1 + 0x138]\n 34338: ra = 1316, jump @25\n      : @1232 [@dyn 658] (gas: 6)\n 34345: a1 = 0x20270\n 34350: i32 a1 = a1 + 0\n 34352: a0 = 0\n 34354: a2 = 0\n 34356: ecalli 14 // 'seal_return'\n 34358: jump @1174\n      : @1233 (gas: 6)\n 34361: a1 = 0x20270\n 34366: i32 a1 = a1 + 0\n 34368: a0 = 0x1\n 34371: a2 = 0\n 34373: ecalli 14 // 'seal_return'\n 34375: jump @1174\n      : @1234 (gas: 6)\n 34378: a1 = 0x20270\n 34383: i32 a1 = a1 + 0\n 34385: a0 = 0x1\n 34388: a2 = 0\n 34390: ecalli 14 // 'seal_return'\n 34392: jump @1174\n      : @1235 (gas: 6)\n 34395: a1 = 0x20270\n 34400: i32 a1 = a1 + 0\n 34402: a0 = 0x1\n 34405: a2 = 0\n 34407: ecalli 14 // 'seal_return'\n 34409: jump @1174\n      : @1236 (gas: 6)\n 34412: a1 = 0x20270\n 34417: i32 a1 = a1 + 0\n 34419: a0 = 0x1\n 34422: a2 = 0\n 34424: ecalli 14 // 'seal_return'\n 34426: jump @1174\n      : @1237 (gas: 6)\n 34429: a1 = 0x20270\n 34434: i32 a1 = a1 + 0\n 34436: a0 = 0x1\n 34439: a2 = 0\n 34441: ecalli 14 // 'seal_return'\n 34443: jump @1174\n      : @1238 (gas: 6)\n 34446: a1 = 0x20270\n 34451: i32 a1 = a1 + 0\n 34453: a0 = 0x1\n 34456: a2 = 0\n 34458: ecalli 14 // 'seal_return'\n 34460: jump @1174\n      : @1239 (gas: 6)\n 34463: a1 = 0x20270\n 34468: i32 a1 = a1 + 0\n 34470: a0 = 0x1\n 34473: a2 = 0\n 34475: ecalli 14 // 'seal_return'\n 34477: jump @1174\n      : @1240 (gas: 6)\n 34480: a1 = 0x20270\n 34485: i32 a1 = a1 + 0\n 34487: a0 = 0x1\n 34490: a2 = 0\n 34492: ecalli 14 // 'seal_return'\n 34494: jump @1174\n      : @1241 (gas: 6)\n 34497: a1 = 0x20270\n 34502: i32 a1 = a1 + 0\n 34504: a0 = 0x1\n 34507: a2 = 0\n 34509: ecalli 14 // 'seal_return'\n 34511: jump @1174\n      : @1242 (gas: 6)\n 34514: a1 = 0x20270\n 34519: i32 a1 = a1 + 0\n 34521: a0 = 0x1\n 34524: a2 = 0\n 34526: ecalli 14 // 'seal_return'\n 34528: jump @1174\n      : @1243 (gas: 20)\n 34531: a0 = s1 + 0x4000\n 34535: i32 a0 = a0 + 0xe0\n 34539: a1 = 0x4\n 34542: ecalli 4 // 'call_data_load'\n 34544: a4 = s1 + 0x40b8\n 34548: a0 = u64 [a4 + 0x28]\n 34551: a1 = u64 [a4 + 0x30]\n 34554: a2 = u64 [a4 + 0x38]\n 34557: a3 = u64 [a4 + 0x40]\n 34560: u64 [a4 + 96] = 0\n 34563: u64 [a4 + 88] = 0\n 34566: u64 [a4 + 80] = 0\n 34569: u64 [a4 + 72] = 0\n 34572: u64 [a4 + 0x80] = a3\n 34576: u64 [a4 + 0x78] = a2\n 34579: u64 [a4 + 0x70] = a1\n 34582: u64 [a4 + 0x68] = a0\n 34585: a0 = s1 + 0x4100\n 34589: a1 = s1 + 0x4120\n 34593: ra = 1318, jump @25\n      : @1244 [@dyn 659] (gas: 5)\n 34600: a0 = 0\n 34602: a1 = u64 [s1 + 0x130]\n 34606: a2 = 0\n 34608: ecalli 14 // 'seal_return'\n 34610: jump @1174\n      : @1245 (gas: 6)\n 34613: a1 = 0x20270\n 34618: i32 a1 = a1 + 0\n 34620: a0 = 0x1\n 34623: a2 = 0\n 34625: ecalli 14 // 'seal_return'\n 34627: jump @1174\n      : @1246 (gas: 6)\n 34630: a1 = 0x20270\n 34635: i32 a1 = a1 + 0\n 34637: a0 = 0x1\n 34640: a2 = 0\n 34642: ecalli 14 // 'seal_return'\n 34644: jump @1174\n      : @1247 (gas: 6)\n 34647: a1 = 0x20270\n 34652: i32 a1 = a1 + 0\n 34654: a0 = 0x1\n 34657: a2 = 0\n 34659: ecalli 14 // 'seal_return'\n 34661: jump @1174\n      : @1248 (gas: 6)\n 34664: a1 = 0x20270\n 34669: i32 a1 = a1 + 0\n 34671: a0 = 0x1\n 34674: a2 = 0\n 34676: ecalli 14 // 'seal_return'\n 34678: jump @1174\n      : @1249 (gas: 6)\n 34681: a1 = 0x20270\n 34686: i32 a1 = a1 + 0\n 34688: a0 = 0x1\n 34691: a2 = 0\n 34693: ecalli 14 // 'seal_return'\n 34695: jump @1174\n      : @1250 (gas: 6)\n 34698: a1 = 0x20270\n 34703: i32 a1 = a1 + 0\n 34705: a0 = 0x1\n 34708: a2 = 0\n 34710: ecalli 14 // 'seal_return'\n 34712: jump @1174\n      : @1251 (gas: 6)\n 34715: a1 = 0x20270\n 34720: i32 a1 = a1 + 0\n 34722: a0 = 0x1\n 34725: a2 = 0\n 34727: ecalli 14 // 'seal_return'\n 34729: jump @1174\n      : @1252 (gas: 6)\n 34732: a1 = 0x20270\n 34737: i32 a1 = a1 + 0\n 34739: a0 = 0x1\n 34742: a2 = 0\n 34744: ecalli 14 // 'seal_return'\n 34746: jump @1174\n      : @1253 (gas: 6)\n 34749: a1 = 0x20270\n 34754: i32 a1 = a1 + 0\n 34756: a0 = 0x1\n 34759: a2 = 0\n 34761: ecalli 14 // 'seal_return'\n 34763: jump @1174\n      : @1254 (gas: 6)\n 34766: a1 = 0x20270\n 34771: i32 a1 = a1 + 0\n 34773: a0 = 0x1\n 34776: a2 = 0\n 34778: ecalli 14 // 'seal_return'\n 34780: jump @1174\n      : @1255 (gas: 6)\n 34783: a1 = 0x20270\n 34788: i32 a1 = a1 + 0\n 34790: a0 = 0x1\n 34793: a2 = 0\n 34795: ecalli 14 // 'seal_return'\n 34797: jump @1174\n      : @1256 (gas: 1)\n 34800: jump @1261 if a0 != 381913916\n      : @1257 (gas: 12)\n 34807: a0 = s1 + 0x30b8\n 34811: u64 [a0 + 416] = 0\n 34815: u64 [a0 + 408] = 0\n 34819: u64 [a0 + 400] = 0\n 34823: u64 [a0 + 392] = 0\n 34827: a0 = s1 + 0x3000\n 34831: i32 a0 = a0 + 0x240\n 34835: ra = 0x528\n 34839: ecalli 17 // 'value_transferred'\n 34841: a0 = 0x3000\n 34845: t0 = 0x52a\n 34849: jump @2014\n      : @1258 [@dyn 660] (gas: 2)\n 34852: a0 = 0x3000\n 34856: t0 = 1322, jump @2014\n      : @1259 [@dyn 661] (gas: 8)\n 34862: a0 = u64 [a4 + 0x98]\n 34866: a1 = u64 [a4 + 0xa0]\n 34870: a2 = u64 [a4 + 0x90]\n 34874: a3 = u64 [a4 + 0x88]\n 34878: a1 = a1 | a2\n 34881: a0 = a0 | a3\n 34884: a0 = a0 | a1\n 34887: jump @1269 if a0 == 0\n      : @1260 (gas: 6)\n 34891: a1 = 0x20270\n 34896: i32 a1 = a1 + 0\n 34898: a0 = 0x1\n 34901: a2 = 0\n 34903: ecalli 14 // 'seal_return'\n 34905: jump @1174\n      : @1261 (gas: 2)\n 34908: a2 = s1 + 0x30b8\n 34912: jump @1266 if a0 != 867265939\n      : @1262 (gas: 12)\n 34919: u64 [a2 + 1504] = 0\n 34923: u64 [a2 + 1496] = 0\n 34927: u64 [a2 + 1488] = 0\n 34931: u64 [a2 + 1480] = 0\n 34935: a0 = s1 + 0x3000\n 34939: i32 a0 = a0 + 0x680\n 34943: ra = 0x52c\n 34947: ecalli 17 // 'value_transferred'\n 34949: a3 = s1 + 0x30b8\n 34953: a4 = a3 + 0x500\n 34957: t0 = 0x52e\n 34961: jump @2034\n      : @1263 [@dyn 662] (gas: 3)\n 34964: a3 = s1 + 0x30b8\n 34968: a4 = a3 + 0x500\n 34972: t0 = 1326, jump @2034\n      : @1264 [@dyn 663] (gas: 1)\n 34978: jump @1282 if a0 == 0\n      : @1265 (gas: 6)\n 34982: a1 = 0x20270\n 34987: i32 a1 = a1 + 0\n 34989: a0 = 0x1\n 34992: a2 = 0\n 34994: ecalli 14 // 'seal_return'\n 34996: jump @1174\n      : @1266 (gas: 6)\n 34999: a1 = 0x20270\n 35004: i32 a1 = a1 + 0\n 35006: a0 = 0x1\n 35009: a2 = 0\n 35011: ecalli 14 // 'seal_return'\n 35013: jump @1174\n      : @1267 (gas: 3)\n 35016: a0 = u64 [s1 + 0x138]\n 35020: a0 = i32 [a0]\n 35022: jump @1272 if a0 >u 3\n      : @1268 (gas: 6)\n 35026: a1 = 0x20270\n 35031: i32 a1 = a1 + 0\n 35033: a0 = 0x1\n 35036: a2 = 0\n 35038: ecalli 14 // 'seal_return'\n 35040: jump @1174\n      : @1269 (gas: 1)\n 35043: t0 = 1328, jump @1994\n      : @1270 [@dyn 664] (gas: 1)\n 35049: jump @1284 if a1 <u a0\n      : @1271 (gas: 6)\n 35053: a1 = 0x20270\n 35058: i32 a1 = a1 + 0\n 35060: a0 = 0x1\n 35063: a2 = 0\n 35065: ecalli 14 // 'seal_return'\n 35067: jump @1174\n      : @1272 (gas: 8)\n 35070: a0 = s1 + 0x30b8\n 35074: u64 [a0 + 160] = 0\n 35078: u64 [a0 + 152] = 0\n 35082: u64 [a0 + 144] = 0\n 35086: u64 [a0 + 136] = 0\n 35090: a0 = s1 + 0x160\n 35094: a1 = s1 + 0x3140\n 35098: ra = 1330, jump @21\n      : @1273 [@dyn 665] (gas: 12)\n 35105: a4 = s1 + 0x100\n 35109: a2 = u64 [a4 + 0x60]\n 35112: a0 = u64 [a4 + 0x68]\n 35115: a1 = u64 [a4 + 0x70]\n 35118: a3 = u64 [a4 + 0x78]\n 35121: u64 [a4 + 0x58] = a3\n 35124: u64 [a4 + 0x50] = a1\n 35127: u64 [a4 + 0x48] = a0\n 35130: a0 = 0x80\n 35134: a1 = s1 + 0x140\n 35138: u64 [a4 + 0x40] = a2\n 35141: ra = 1332, jump @19\n      : @1274 [@dyn 666] (gas: 2)\n 35148: a1 = i32 [0x2025c]\n 35153: jump @1276 if a1 >u 159\n      : @1275 (gas: 4)\n 35158: u32 [0x2025c] = 0xa0\n 35165: a0 = 0x20270\n 35170: i32 a1 = a0 + 0x80\n 35174: jump @839\n      : @1276 (gas: 3)\n 35177: a0 = 0x20270\n 35182: i32 a1 = a0 + 0x80\n 35186: jump @839\n      : @1277 (gas: 32)\n 35189: t0 = 0xffffffffffffffff\n 35192: t1 = 0xffffffff\n 35202: a2 = u64 [s1 + 0xf0]\n 35206: a1 = a2 >> 0x8\n 35209: a0 = u64 [s1 + 0xf8]\n 35213: a3 = a0 << 0x38\n 35216: a1 = a1 | a3\n 35219: a3 = u64 [s1 + 0xe8]\n 35223: a3 = a3 >> 0x8\n 35226: t2 = a4\n 35228: a4 = a2 << 0x38\n 35231: a3 = a3 | a4\n 35234: a4 = a0 >> 0x8\n 35237: a0 = a3 & t0\n 35240: u64 [s1 + 0xf8] = a0\n 35244: a0 = a1 & t0\n 35247: u64 [s1 + 0xf0] = a0\n 35251: a0 = a4 & t1\n 35254: u64 [s1 + 0xe8] = a0\n 35258: a0 = u64 [s1 + 0x120]\n 35262: a2 = t2\n 35264: u64 [a2 + 0xc8] = a0\n 35268: a0 = u64 [s1 + 0x128]\n 35272: u64 [a2 + 0xd0] = a0\n 35276: a0 = u64 [s1 + 0x130]\n 35280: u64 [a2 + 0xd8] = a0\n 35284: a1 = s1 + 0x1180\n 35288: a0 = u64 [s1 + 0x138]\n 35292: u64 [a2 + 0xe0] = a0\n 35296: a0 = a5\n 35298: u64 [s1 + 0x138] = a5\n 35302: ra = 1334, jump @19\n      : @1278 [@dyn 667] (gas: 31)\n 35309: a4 = s1 + 0x10b8\n 35313: u64 [a4 + 128] = 0\n 35317: a0 = u64 [s1 + 0xe8]\n 35321: u64 [a4 + 0x78] = a0\n 35324: a0 = u64 [s1 + 0xf0]\n 35328: u64 [a4 + 0x70] = a0\n 35331: a0 = u64 [s1 + 0xf8]\n 35335: u64 [a4 + 0x68] = a0\n 35338: a0 = u64 [s1 + 0x100]\n 35342: u64 [a4 + 0xa0] = a0\n 35346: a0 = u64 [s1 + 0x108]\n 35350: u64 [a4 + 0x98] = a0\n 35354: a0 = u64 [s1 + 0x110]\n 35358: u64 [a4 + 0x90] = a0\n 35362: a0 = u64 [0x200c8]\n 35367: a1 = u64 [0x200d0]\n 35372: a2 = u64 [0x200d8]\n 35377: a3 = u64 [s1 + 0x118]\n 35381: u64 [a4 + 0x88] = a3\n 35385: u64 [a4 + 0xc0] = a0\n 35389: u64 [a4 + 0xb8] = a1\n 35393: u64 [a4 + 0xb0] = a2\n 35397: a5 = a4\n 35399: a0 = u64 [0x200e0]\n 35404: a1 = 0x20\n 35407: a2 = s1 + 0x1160\n 35411: a3 = s1 + 0x1140\n 35415: a4 = s1 + 0x1120\n 35419: u64 [a5 + 0xa8] = a0\n 35423: a0 = u64 [s1 + 0x138]\n 35427: ra = 1336, jump @28\n      : @1279 [@dyn 668] (gas: 1)\n 35434: ra = 1338, jump @1932\n      : @1280 [@dyn 669] (gas: 12)\n 35440: a1 = s1 + 0x38b8\n 35444: u64 [a1 + 320] = 0\n 35448: u64 [a1 + 312] = 0\n 35452: u64 [a1 + 304] = 0\n 35456: u64 [a1 + 296] = 0x9\n 35461: u64 [a1 + 352] = 0\n 35465: u64 [a1 + 344] = 0\n 35469: u64 [a1 + 336] = 0\n 35473: u64 [a1 + 328] = 0x1\n 35478: a0 = s1 + 0x39e0\n 35482: a1 = s1 + 0x3a00\n 35486: ra = 1340, jump @25\n      : @1281 [@dyn 670] (gas: 5)\n 35493: a0 = 0\n 35495: a1 = u64 [s1 + 0xa0]\n 35499: a2 = 0\n 35501: ecalli 14 // 'seal_return'\n 35503: jump @1174\n      : @1282 (gas: 3)\n 35506: a0 = u64 [s1 + 0x138]\n 35510: a0 = i32 [a0]\n 35512: jump @1288 if a0 >u 3\n      : @1283 (gas: 6)\n 35516: a1 = 0x20270\n 35521: i32 a1 = a1 + 0\n 35523: a0 = 0x1\n 35526: a2 = 0\n 35528: ecalli 14 // 'seal_return'\n 35530: jump @1174\n      : @1284 (gas: 8)\n 35533: a0 = s1 + 0x3000\n 35537: i32 a0 = a0 + 0x260\n 35541: a1 = 0x4\n 35544: ra = 0x53e\n 35548: ecalli 4 // 'call_data_load'\n 35550: a0 = 0x3000\n 35554: t0 = 0x540\n 35558: jump @2014\n      : @1285 [@dyn 671] (gas: 2)\n 35561: a0 = 0x3000\n 35565: t0 = 1344, jump @2014\n      : @1286 [@dyn 672] (gas: 9)\n 35571: a0 = u64 [a4 + 0xc0]\n 35575: a1 = u64 [a4 + 0xb8]\n 35579: a2 = u64 [a4 + 0xa8]\n 35583: a3 = u64 [a4 + 0xb0]\n 35587: a4 = a1 | a0\n 35590: a5 = a2 <u 0x2\n 35593: a5 = 0 if a3 != 0\n 35595: a5 = 0 if a4 != 0\n 35597: jump @1295 if a5 != 0\n      : @1287 (gas: 6)\n 35601: a1 = 0x20270\n 35606: i32 a1 = a1 + 0\n 35608: a0 = 0x1\n 35611: a2 = 0\n 35613: ecalli 14 // 'seal_return'\n 35615: jump @1174\n      : @1288 (gas: 8)\n 35618: a1 = s1 + 0x30b8\n 35622: u64 [a1 + 1536] = 0\n 35626: u64 [a1 + 1528] = 0\n 35630: u64 [a1 + 1520] = 0\n 35634: u64 [a1 + 1512] = 0x9\n 35639: a0 = s1 + 0x10c0\n 35643: a1 = s1 + 0x36a0\n 35647: ra = 1346, jump @21\n      : @1289 [@dyn 673] (gas: 6)\n 35654: a4 = s1 + 0x10b8\n 35658: a0 = u64 [a4 + 0x20]\n 35661: a1 = u64 [a4 + 0x10]\n 35664: a2 = u64 [a4 + 0x8]\n 35667: a3 = u64 [a4 + 0x18]\n 35670: t0 = 1348, jump @2011\n      : @1290 [@dyn 674] (gas: 8)\n 35676: u64 [a4 + 0] = 0\n 35678: u64 [a4 + 4294967288] = 0\n 35681: u64 [a4 + 0xffffffffffffffe8] = a0\n 35684: a0 = s1 + 0x10a0\n 35688: u64 [a4 + 4294967280] = 0\n 35691: ra = 0x546\n 35695: t0 = 0x5b0\n 35699: jump @1953\n      : @1291 [@dyn 675] (gas: 12)\n 35702: a1 = s1 + 0x30b8\n 35706: u64 [a1 + 1568] = 0\n 35710: u64 [a1 + 1560] = 0\n 35714: u64 [a1 + 1552] = 0\n 35718: u64 [a1 + 1544] = 0x9\n 35723: u64 [a1 + 1600] = 0\n 35727: u64 [a1 + 1592] = 0\n 35731: u64 [a1 + 1584] = 0\n 35735: u64 [a1 + 1576] = 0x2\n 35740: a0 = s1 + 0x36c0\n 35744: a1 = s1 + 0x36e0\n 35748: ra = 1352, jump @25\n      : @1292 [@dyn 676] (gas: 1)\n 35755: ra = 1354, jump @1640\n      : @1293 [@dyn 677] (gas: 12)\n 35761: a1 = s1 + 0x30b8\n 35765: u64 [a1 + 1632] = 0\n 35769: u64 [a1 + 1624] = 0\n 35773: u64 [a1 + 1616] = 0\n 35777: u64 [a1 + 1608] = 0x9\n 35782: u64 [a1 + 1664] = 0\n 35786: u64 [a1 + 1656] = 0\n 35790: u64 [a1 + 1648] = 0\n 35794: u64 [a1 + 1640] = 0x1\n 35799: a0 = s1 + 0x3700\n 35803: a1 = s1 + 0x3720\n 35807: ra = 1356, jump @25\n      : @1294 [@dyn 678] (gas: 6)\n 35814: a1 = 0x20270\n 35819: i32 a1 = a1 + 0\n 35821: a0 = 0\n 35823: a2 = 0\n 35825: ecalli 14 // 'seal_return'\n 35827: jump @1174\n      : @1295 (gas: 13)\n 35830: a1 = a1 | a2\n 35833: a0 = a0 | a3\n 35836: a0 = a0 | a1\n 35839: a0 = a0 >u 0\n 35841: u64 [s1 + 0x138] = a0\n 35845: a1 = s1 + 0x30b8\n 35849: u64 [a1 + 480] = 0\n 35853: u64 [a1 + 472] = 0\n 35857: u64 [a1 + 464] = 0\n 35861: u64 [a1 + 456] = 0x7\n 35866: a0 = s1 + 0x380\n 35870: a1 = s1 + 0x3280\n 35874: ra = 1358, jump @21\n      : @1296 [@dyn 679] (gas: 14)\n 35881: a0 = u64 [s1 + 0x388]\n 35885: u64 [s1 + 0x130] = a0\n 35889: a0 = u64 [s1 + 0x380]\n 35893: u64 [s1 + 0x128] = a0\n 35897: a0 = u32 [s1 + 0x390]\n 35901: u64 [s1 + 0x120] = a0\n 35905: a0 = 0x30270\n 35910: u64 [s1 + 0x118] = a0\n 35914: i32 a0 = a0 + 0\n 35916: ra = 0x550\n 35920: ecalli 6 // 'caller'\n 35922: a2 = u64 [s1 + 0x118]\n 35926: t0 = 0x552\n 35930: jump @1961\n      : @1297 [@dyn 680] (gas: 2)\n 35933: a2 = u64 [s1 + 0x118]\n 35937: t0 = 1362, jump @1961\n      : @1298 [@dyn 681] (gas: 17)\n 35943: a2 = u64 [s1 + 0x120]\n 35947: a1 = a1 ^ a2\n 35950: a2 = u64 [s1 + 0x128]\n 35954: a0 = a0 ^ a2\n 35957: a0 = a0 | a1\n 35960: a1 = u64 [s1 + 0x130]\n 35964: a1 = a1 ^ a3\n 35967: a0 = a0 | a1\n 35970: a0 = a0 <u 0x1\n 35973: u64 [s1 + 888] = 0\n 35977: u64 [s1 + 880] = 0\n 35981: u64 [s1 + 0x360] = a0\n 35985: a0 = s1 + 0x360\n 35989: u64 [s1 + 872] = 0\n 35993: ra = 0x554\n 35997: t0 = 0x562\n 36001: jump @1953\n      : @1299 [@dyn 682] (gas: 8)\n 36004: a0 = s1 + 0x30b8\n 36008: u64 [a0 + 512] = 0\n 36012: u64 [a0 + 504] = 0\n 36016: u64 [a0 + 496] = 0\n 36020: u64 [a0 + 488] = 0x8\n 36025: a0 = s1 + 0x340\n 36029: a1 = s1 + 0x32a0\n 36033: ra = 1366, jump @21\n      : @1300 [@dyn 683] (gas: 23)\n 36040: a4 = s1 + 0x300\n 36044: a0 = u64 [a4 + 0x40]\n 36047: a1 = u64 [a4 + 0x48]\n 36050: a2 = u64 [a4 + 0x58]\n 36053: a3 = u64 [a4 + 0x50]\n 36056: a4 = u64 [s1 + 0x138]\n 36060: a4 = a4 << 0x20\n 36063: a5 = 0xffffff00ffffffff\n 36073: a3 = a3 & a5\n 36076: a3 = a3 | a4\n 36079: a4 = s1 + 0x30b8\n 36083: u64 [a4 + 544] = 0\n 36087: u64 [a4 + 536] = 0\n 36091: u64 [a4 + 528] = 0\n 36095: u64 [a4 + 520] = 0x8\n 36100: a5 = a4 + 0x200\n 36104: u64 [a5 + 0x40] = a2\n 36107: u64 [a5 + 0x30] = a1\n 36110: u64 [a5 + 0x28] = a0\n 36113: u64 [a5 + 0x38] = a3\n 36116: a0 = s1 + 0x32c0\n 36120: a1 = s1 + 0x32e0\n 36124: ra = 1368, jump @25\n      : @1301 [@dyn 684] (gas: 6)\n 36131: a1 = 0x20270\n 36136: i32 a1 = a1 + 0\n 36138: a0 = 0\n 36140: a2 = 0\n 36142: ecalli 14 // 'seal_return'\n 36144: jump @1174\n      : @1302 (gas: 30)\n 36147: sp = sp + 0xffffffffffffff20\n 36151: u64 [sp + 0xd8] = ra\n 36155: u64 [sp + 0xd0] = s0\n 36159: u64 [sp + 0xc8] = s1\n 36163: s0 = sp + 0xe0\n 36167: sp = sp & 0xfffffffffffffff0\n 36170: a3 = u64 [a2 + 0x18]\n 36173: u64 [sp + 0x70] = a3\n 36176: a4 = u64 [a2 + 0x10]\n 36179: t0 = u64 [a2 + 0x8]\n 36182: a5 = u64 [a1 + 0x18]\n 36185: t2 = u64 [a1 + 0x10]\n 36188: t1 = u64 [a1 + 0x8]\n 36191: s1 = u64 [a1]\n 36193: a1 = u64 [a2]\n 36195: u64 [sp + 0x18] = a0\n 36198: a3 = 0\n 36200: a2 = 0\n 36202: ra = 0\n 36204: u64 [sp] = s1\n 36206: u64 [sp + 0x78] = s1\n 36209: u64 [sp + 0x8] = t1\n 36212: s1 = t1\n 36214: u64 [sp + 0x10] = t2\n 36217: t1 = t2\n 36219: t2 = s1\n 36221: u64 [sp + 0x20] = a5\n 36224: u64 [sp + 0x68] = a5\n 36227: a5 = 0\n 36229: fallthrough\n      : @1303 (gas: 5)\n 36230: a0 = a3 <u 0x10\n 36233: a0 = 0 if a2 != 0\n 36235: s1 = a5 | ra\n 36238: a0 = 0 if s1 != 0\n 36240: jump @1309 if a0 == 0\n      : @1304 (gas: 16)\n 36244: u64 [sp + 0x60] = t2\n 36247: u64 [sp + 0x30] = a5\n 36250: u64 [sp + 0x40] = ra\n 36253: u64 [sp + 0x48] = a2\n 36256: u64 [sp + 0x50] = a3\n 36259: a0 = a1 | a4\n 36262: u64 [sp + 0x38] = t0\n 36265: a2 = u64 [sp + 0x70]\n 36268: a2 = t0 | a2\n 36271: a0 = a0 | a2\n 36274: a0 = a0 >> 0x20\n 36277: u64 [sp + 0x58] = a4\n 36280: a2 = a2 | a4\n 36283: a2 = a2 << 0x20\n 36286: a0 = a0 | a2\n 36289: jump @1312 if a0 != 0\n      : @1305 (gas: 4)\n 36293: s1 = t1\n 36295: a0 = sp + 0xa0\n 36299: u64 [sp + 0x28] = a1\n 36302: ra = 1370, jump @17\n      : @1306 [@dyn 685] (gas: 11)\n 36309: a0 = u64 [sp + 0x78]\n 36312: a2 = a0 | s1\n 36315: a1 = u64 [sp + 0x68]\n 36318: a3 = u64 [sp + 0x60]\n 36321: a1 = a1 | a3\n 36324: a2 = a2 | a1\n 36327: a2 = a2 >> 0x20\n 36330: a1 = a1 | s1\n 36333: a1 = a1 << 0x20\n 36336: a1 = a1 | a2\n 36339: jump @1312 if a1 != 0\n      : @1307 (gas: 12)\n 36343: a3 = u64 [sp + 0xb0]\n 36347: a1 = u64 [sp + 0xa8]\n 36351: a2 = u64 [sp + 0xa0]\n 36355: a3 = a3 << 0x20\n 36358: a3 = a3 >> 0x20\n 36361: u64 [sp + 152] = 0\n 36365: u64 [sp + 0x80] = a2\n 36369: u64 [sp + 0x88] = a1\n 36373: a1 = sp + 0x80\n 36377: u64 [sp + 0x90] = a3\n 36381: u64 [sp + 0x78] = a0\n 36384: ra = 1372, jump @19\n      : @1308 [@dyn 686] (gas: 41)\n 36391: a0 = u64 [sp + 0x78]\n 36394: t0 = a0 + 0x20\n 36397: a2 = t0 <u a0\n 36400: a0 = u64 [sp + 0x60]\n 36403: t2 = a0 + a2\n 36406: a3 = t2 <u a0\n 36409: a3 = a2 if a2 == 0\n 36412: t1 = s1 + a3\n 36415: a2 = t1 <u s1\n 36418: a0 = u64 [sp + 0x68]\n 36421: a0 = a0 + a2\n 36424: u64 [sp + 0x68] = a0\n 36427: a0 = u64 [sp + 0x28]\n 36430: a1 = a0 + 0x20\n 36433: a4 = a1 <u a0\n 36436: s1 = u64 [sp + 0x38]\n 36439: a5 = s1 + a4\n 36442: s1 = a5 <u s1\n 36445: s1 = a4 if a4 == 0\n 36448: a0 = u64 [sp + 0x58]\n 36451: a4 = a0 + s1\n 36454: s1 = a4 <u a0\n 36457: a0 = u64 [sp + 0x70]\n 36460: a0 = a0 + s1\n 36463: u64 [sp + 0x70] = a0\n 36466: a3 = u64 [sp + 0x50]\n 36469: a3 = a3 + 0x1\n 36472: s1 = a3 <u 0x1\n 36475: a2 = u64 [sp + 0x48]\n 36478: a2 = a2 + s1\n 36481: s1 = a3 | a2\n 36484: s1 = s1 <u 0x1\n 36487: a0 = u64 [sp + 0x30]\n 36490: s1 = s1 + a0\n 36493: a0 = s1 <u a0\n 36496: ra = u64 [sp + 0x40]\n 36499: ra = ra + a0\n 36502: u64 [sp + 0x78] = t0\n 36505: t0 = a5\n 36507: a5 = s1\n 36509: jump @1303\n      : @1309 (gas: 5)\n 36512: a1 = u64 [sp]\n 36514: a0 = a1 + 0x200\n 36518: a1 = a0 <u a1\n 36521: a3 = u64 [sp + 0x8]\n 36524: t0 = 1374, jump @1990\n      : @1310 [@dyn 687] (gas: 11)\n 36530: a1 = u64 [sp + 0x10]\n 36533: a3 = a3 + a1\n 36536: a1 = a3 <u a1\n 36539: a4 = u64 [sp + 0x20]\n 36542: a1 = a1 + a4\n 36545: a4 = u64 [sp + 0x18]\n 36548: u64 [a4] = a0\n 36550: u64 [a4 + 0x8] = a2\n 36553: u64 [a4 + 0x10] = a3\n 36556: u64 [a4 + 0x18] = a1\n 36559: t0 = 1376, jump @1976\n      : @1311 [@dyn 688] (gas: 1)\n 36565: ret\n      : @1312 (gas: 1)\n 36567: trap\n      : @1313 [@dyn 689] (gas: 1)\n 36568: jump @1316 if a0 == 0\n      : @1314 (gas: 1)\n 36571: t0 = 1380, jump @1976\n      : @1315 [@dyn 690] (gas: 1)\n 36577: ret\n      : @1316 (gas: 3)\n 36579: a0 = sp + 0xa0\n 36583: a1 = 0x40\n 36586: ra = 1382, jump @17\n      : @1317 [@dyn 691] (gas: 1)\n 36593: t0 = 1384, jump @1952\n      : @1318 [@dyn 692] (gas: 1)\n 36599: jump @1331 if a0 != 0\n      : @1319 (gas: 1)\n 36602: t0 = 1386, jump @1959\n      : @1320 [@dyn 693] (gas: 1)\n 36608: ra = 1388, jump @19\n      : @1321 [@dyn 694] (gas: 1)\n 36615: t0 = 1390, jump @1951\n      : @1322 [@dyn 695] (gas: 1)\n 36621: jump @1331 if a0 == 0\n      : @1323 (gas: 1)\n 36624: t0 = 1392, jump @1963\n      : @1324 [@dyn 696] (gas: 1)\n 36630: ra = 1394, jump @19\n      : @1325 [@dyn 697] (gas: 1)\n 36637: t0 = 1396, jump @1958\n      : @1326 [@dyn 698] (gas: 1)\n 36643: jump @1331 if a0 == 0\n      : @1327 (gas: 1)\n 36646: t0 = 1398, jump @2023\n      : @1328 [@dyn 699] (gas: 4)\n 36652: u64 [sp + 64] = 0x9\n 36656: a1 = sp + 0x40\n 36659: u64 [sp + 72] = 0\n 36662: ra = 1400, jump @19\n      : @1329 [@dyn 700] (gas: 1)\n 36669: t0 = 1402, jump @1954\n      : @1330 [@dyn 701] (gas: 1)\n 36675: jump @1332 if a0 != 0\n      : @1331 (gas: 1)\n 36678: trap\n      : @1332 (gas: 10)\n 36679: s1 = u64 [sp + 0x18]\n 36682: i32 a0 = s1 + 0x44\n 36685: a1 = u64 [0x20100]\n 36690: u64 [sp + 40] = 0\n 36693: u64 [sp + 0x38] = a1\n 36696: a1 = 0x7200000000000000\n 36706: u64 [sp + 0x30] = a1\n 36709: a1 = sp + 0x20\n 36712: u64 [sp + 32] = 0\n 36715: ra = 1404, jump @19\n      : @1333 [@dyn 702] (gas: 3)\n 36722: a1 = 0x64\n 36725: a0 = s1\n 36727: ra = 1406, jump @32\n      : @1334 [@dyn 703] (gas: 1)\n 36734: t0 = 1408, jump @1995\n      : @1335 [@dyn 704] (gas: 3)\n 36740: ra = 0x582\n 36744: ecalli 14 // 'seal_return'\n 36746: fallthrough\n      : @1336 [@dyn 705] (gas: 46)\n 36747: sp = sp + 0xffffffffffffff70\n 36751: u64 [sp + 0x88] = ra\n 36755: u64 [sp + 0x80] = s0\n 36759: u64 [sp + 0x78] = s1\n 36762: s0 = sp + 0x90\n 36766: sp = sp & 0xfffffffffffffff0\n 36769: t0 = a0\n 36771: a2 = u64 [a1]\n 36773: t2 = u64 [a0 + 0x8]\n 36776: a5 = u64 [a1 + 0x8]\n 36779: t1 = u64 [a0]\n 36781: a3 = a2 + 0x1f\n 36784: ra = a3 <u a2\n 36787: a2 = a5 + ra\n 36790: a3 = a3 & 0xffffffffffffffe0\n 36793: u64 [sp + 0x8] = t1\n 36796: t1 = t1 + a3\n 36799: a4 = t1 <u a3\n 36802: a3 = a2 + t2\n 36805: a3 = a3 + a4\n 36808: s1 = a3 ^ a2\n 36811: a0 = a3 <u a2\n 36814: a0 = a4 if s1 == 0\n 36817: a4 = u64 [t0 + 0x18]\n 36820: a5 = a2 <u a5\n 36823: s1 = u64 [a1 + 0x10]\n 36826: t0 = u64 [t0 + 0x10]\n 36829: a1 = u64 [a1 + 0x18]\n 36832: a5 = ra if ra == 0\n 36835: a5 = a5 + s1\n 36838: s1 = a5 <u s1\n 36841: a2 = a5 + t0\n 36844: a0 = a0 + a2\n 36847: a5 = a2 <u a5\n 36850: a2 = a0 <u a2\n 36853: a1 = a1 + a4\n 36856: a1 = a1 + s1\n 36859: a1 = a1 + a5\n 36862: a5 = a1 + a2\n 36865: a1 = a5 >u 0\n 36867: a2 = a0 >u 0\n 36869: a2 = a1 if a5 != 0\n 36872: a1 = a0 | a5\n 36875: s1 = a3 >u 0\n 36877: s1 = a2 if a1 != 0\n 36880: jump @1340 if s1 != 0\n      : @1337 (gas: 13)\n 36883: a1 = u64 [sp + 0x8]\n 36886: a1 = t1 <u a1\n 36889: a2 = a3 ^ t2\n 36892: s1 = a3 <u t2\n 36895: s1 = a1 if a2 == 0\n 36898: a1 = a0 <u t0\n 36901: a2 = a5 ^ a4\n 36904: a4 = a5 <u a4\n 36907: a4 = a1 if a2 == 0\n 36910: a1 = a0 ^ t0\n 36913: a1 = a1 | a2\n 36916: a4 = s1 if a1 == 0\n 36919: jump @1340 if a4 != 0\n      : @1338 (gas: 7)\n 36922: u64 [sp + 0x50] = t1\n 36925: u64 [sp + 0x58] = a3\n 36928: u64 [sp + 0x60] = a0\n 36931: a0 = 0x40\n 36934: a1 = sp + 0x50\n 36937: u64 [sp + 0x68] = a5\n 36940: ra = 1412, jump @19\n      : @1339 [@dyn 706] (gas: 6)\n 36947: sp = s0 + 0xffffffffffffff70\n 36951: ra = u64 [sp + 0x88]\n 36955: s0 = u64 [sp + 0x80]\n 36959: s1 = u64 [sp + 0x78]\n 36962: sp = sp + 0x90\n 36966: ret\n      : @1340 (gas: 1)\n 36968: t0 = 1414, jump @1992\n      : @1341 [@dyn 707] (gas: 1)\n 36974: ra = 1416, jump @19\n      : @1342 [@dyn 708] (gas: 7)\n 36981: u64 [sp + 40] = 0\n 36984: u64 [sp + 32] = 0\n 36987: u64 [sp + 16] = 0x41\n 36991: a0 = 0x4\n 36994: a1 = sp + 0x10\n 36997: u64 [sp + 24] = 0\n 37000: ra = 1418, jump @19\n      : @1343 [@dyn 709] (gas: 2)\n 37007: a1 = i32 [0x2025c]\n 37012: jump @1345 if a1 >u 63\n      : @1344 (gas: 2)\n 37016: u32 [0x2025c] = 0x40\n 37022: fallthrough\n      : @1345 (gas: 8)\n 37023: a1 = 0x20270\n 37028: i32 a1 = a1 + 0\n 37030: a0 = 0x1\n 37033: a2 = 0x24\n 37036: ra = 0x58c\n 37040: ecalli 14 // 'seal_return'\n 37042: t0 = 0x58e\n 37046: jump @1953\n      : @1346 [@dyn 710] (gas: 1)\n 37049: t0 = 1422, jump @1953\n      : @1347 [@dyn 711] (gas: 1)\n 37055: jump @1350 if a0 == 0\n      : @1348 (gas: 1)\n 37058: t0 = 1424, jump @1976\n      : @1349 [@dyn 712] (gas: 1)\n 37064: ret\n      : @1350 (gas: 3)\n 37066: a0 = sp + 0xa0\n 37070: a1 = 0x40\n 37073: ra = 1426, jump @17\n      : @1351 [@dyn 713] (gas: 1)\n 37080: t0 = 1428, jump @1952\n      : @1352 [@dyn 714] (gas: 1)\n 37086: jump @1365 if a0 != 0\n      : @1353 (gas: 1)\n 37089: t0 = 1430, jump @1959\n      : @1354 [@dyn 715] (gas: 1)\n 37095: ra = 1432, jump @19\n      : @1355 [@dyn 716] (gas: 1)\n 37102: t0 = 1434, jump @1951\n      : @1356 [@dyn 717] (gas: 1)\n 37108: jump @1365 if a0 == 0\n      : @1357 (gas: 1)\n 37111: t0 = 1436, jump @1963\n      : @1358 [@dyn 718] (gas: 1)\n 37117: ra = 1438, jump @19\n      : @1359 [@dyn 719] (gas: 1)\n 37124: t0 = 1440, jump @1958\n      : @1360 [@dyn 720] (gas: 1)\n 37130: jump @1365 if a0 == 0\n      : @1361 (gas: 1)\n 37133: t0 = 1442, jump @2023\n      : @1362 [@dyn 721] (gas: 4)\n 37139: u64 [sp + 64] = 0xf\n 37143: a1 = sp + 0x40\n 37146: u64 [sp + 72] = 0\n 37149: ra = 1444, jump @19\n      : @1363 [@dyn 722] (gas: 1)\n 37156: t0 = 1446, jump @1954\n      : @1364 [@dyn 723] (gas: 1)\n 37162: jump @1366 if a0 != 0\n      : @1365 (gas: 1)\n 37165: trap\n      : @1366 (gas: 10)\n 37166: s1 = u64 [sp + 0x18]\n 37169: i32 a0 = s1 + 0x44\n 37172: a1 = u64 [0x20108]\n 37177: a2 = u64 [0x20110]\n 37182: u64 [sp + 0x38] = a1\n 37185: u64 [sp + 40] = 0\n 37188: u64 [sp + 0x30] = a2\n 37191: a1 = sp + 0x20\n 37194: u64 [sp + 32] = 0\n 37197: ra = 1448, jump @19\n      : @1367 [@dyn 724] (gas: 3)\n 37204: a1 = 0x64\n 37207: a0 = s1\n 37209: ra = 1450, jump @32\n      : @1368 [@dyn 725] (gas: 1)\n 37216: t0 = 1452, jump @1995\n      : @1369 [@dyn 726] (gas: 4)\n 37222: ra = 0x5ae\n 37226: ecalli 14 // 'seal_return'\n 37228: t0 = 0x5b0\n 37232: jump @1953\n      : @1370 [@dyn 727] (gas: 1)\n 37235: t0 = 1456, jump @1953\n      : @1371 [@dyn 728] (gas: 1)\n 37241: jump @1374 if a0 == 0\n      : @1372 (gas: 1)\n 37244: t0 = 1458, jump @1976\n      : @1373 [@dyn 729] (gas: 1)\n 37250: ret\n      : @1374 (gas: 3)\n 37252: a0 = sp + 0xa0\n 37256: a1 = 0x40\n 37259: ra = 1460, jump @17\n      : @1375 [@dyn 730] (gas: 1)\n 37266: t0 = 1462, jump @1952\n      : @1376 [@dyn 731] (gas: 1)\n 37272: jump @1389 if a0 != 0\n      : @1377 (gas: 1)\n 37275: t0 = 1464, jump @1959\n      : @1378 [@dyn 732] (gas: 1)\n 37281: ra = 1466, jump @19\n      : @1379 [@dyn 733] (gas: 1)\n 37288: t0 = 1468, jump @1951\n      : @1380 [@dyn 734] (gas: 1)\n 37294: jump @1389 if a0 == 0\n      : @1381 (gas: 1)\n 37297: t0 = 1470, jump @1963\n      : @1382 [@dyn 735] (gas: 1)\n 37303: ra = 1472, jump @19\n      : @1383 [@dyn 736] (gas: 1)\n 37310: t0 = 1474, jump @1958\n      : @1384 [@dyn 737] (gas: 1)\n 37316: jump @1389 if a0 == 0\n      : @1385 (gas: 1)\n 37319: t0 = 1476, jump @2023\n      : @1386 [@dyn 738] (gas: 4)\n 37325: u64 [sp + 64] = 0x1f\n 37329: a1 = sp + 0x40\n 37332: u64 [sp + 72] = 0\n 37335: ra = 1478, jump @19\n      : @1387 [@dyn 739] (gas: 1)\n 37342: t0 = 1480, jump @1954\n      : @1388 [@dyn 740] (gas: 1)\n 37348: jump @1390 if a0 != 0\n      : @1389 (gas: 1)\n 37351: trap\n      : @1390 (gas: 12)\n 37352: s1 = u64 [sp + 0x18]\n 37355: i32 a0 = s1 + 0x44\n 37358: a1 = u64 [0x20118]\n 37363: u64 [sp + 0x38] = a1\n 37366: a1 = u64 [0x20120]\n 37371: a2 = u64 [0x20128]\n 37376: a3 = u64 [0x20130]\n 37381: u64 [sp + 0x30] = a1\n 37384: u64 [sp + 0x28] = a2\n 37387: a1 = sp + 0x20\n 37390: u64 [sp + 0x20] = a3\n 37393: ra = 1482, jump @19\n      : @1391 [@dyn 741] (gas: 3)\n 37400: a1 = 0x64\n 37403: a0 = s1\n 37405: ra = 1484, jump @32\n      : @1392 [@dyn 742] (gas: 1)\n 37412: t0 = 1486, jump @1995\n      : @1393 [@dyn 743] (gas: 3)\n 37418: ra = 0x5d0\n 37422: ecalli 14 // 'seal_return'\n 37424: fallthrough\n      : @1394 [@dyn 744] (gas: 70)\n 37425: sp = sp + 0xffffffffffffff40\n 37429: u64 [sp + 0xb8] = ra\n 37433: u64 [sp + 0xb0] = s0\n 37437: u64 [sp + 0xa8] = s1\n 37441: s0 = sp + 0xc0\n 37445: sp = sp & 0xfffffffffffffff0\n 37448: ra = u64 [a2]\n 37450: t0 = u64 [a1]\n 37452: a3 = u64 [a1 + 0x8]\n 37455: u64 [sp + 0x58] = a0\n 37458: a4 = u64 [a2 + 0x8]\n 37461: a0 = t0 mulhu ra\n 37464: s1 = a3 * ra\n 37467: a0 = a0 + s1\n 37470: s1 = a0 <u s1\n 37473: a5 = a3 mulhu ra\n 37476: a5 = a5 + s1\n 37479: s1 = t0 * a4\n 37482: a0 = a0 + s1\n 37485: u64 [sp + 0x50] = a0\n 37488: a0 = a0 <u s1\n 37491: s1 = t0 mulhu a4\n 37494: a0 = a0 + s1\n 37497: a0 = a0 + a5\n 37500: a5 = a0 <u a5\n 37503: s1 = a3 mulhu a4\n 37506: a5 = a5 + s1\n 37509: s1 = a3 * a4\n 37512: a0 = a0 + s1\n 37515: u64 [sp + 0x48] = a0\n 37518: s1 = a0 <u s1\n 37521: a5 = a5 + s1\n 37524: u64 [sp + 0x40] = a5\n 37527: t1 = u64 [a2 + 0x10]\n 37530: a2 = u64 [a2 + 0x18]\n 37533: t2 = u64 [a1 + 0x18]\n 37536: a0 = u64 [a1 + 0x10]\n 37539: a5 = a3 * t1\n 37542: u64 [sp + 0x20] = a2\n 37545: s1 = a2 * t0\n 37548: a1 = s1 + a5\n 37551: u64 [sp + 0x28] = a4\n 37554: s1 = a4 * a0\n 37557: a2 = t2 * ra\n 37560: a2 = a2 + s1\n 37563: s1 = t1 * t0\n 37566: a5 = a0 * ra\n 37569: s1 = s1 + a5\n 37572: u64 [sp + 0x30] = t1\n 37575: a4 = t1 mulhu t0\n 37578: u64 [sp + 0x10] = a4\n 37581: a4 = a4 + a1\n 37584: t1 = a0 mulhu ra\n 37587: a1 = t1 + a2\n 37590: a2 = s1 <u a5\n 37593: u64 [sp + 0x18] = a1\n 37596: u64 [sp + 0x8] = a4\n 37599: a5 = a1 + a4\n 37602: a2 = a2 + a5\n 37605: u64 [sp + 0x38] = t2\n 37608: a5 = a3 | t2\n 37611: a1 = t0 | a0\n 37614: a1 = a1 | a5\n 37617: a4 = u64 [sp + 0x40]\n 37620: a5 = u64 [sp + 0x48]\n 37623: s1 = s1 + a5\n 37626: t2 = s1 <u a5\n 37629: a2 = a2 + a4\n 37632: a2 = a2 + t2\n 37635: jump @1396 if a1 == 0\n      : @1395 (gas: 50)\n 37639: a1 = a2 ^ a4\n 37642: u64 [sp + 0x48] = a2\n 37645: a2 = u64 [sp + 0x48]\n 37648: a2 = a2 <u a4\n 37651: t2 = a2 if a1 != 0\n 37654: u64 [sp + 0x40] = s1\n 37657: a1 = u64 [sp + 0x10]\n 37660: a2 = u64 [sp + 0x8]\n 37663: s1 = a2 <u a1\n 37666: a2 = a3 >u 0\n 37668: a1 = u64 [sp + 0x20]\n 37671: a5 = a1 >u 0\n 37673: a2 = a2 & a5\n 37676: a5 = a1 mulhu t0\n 37679: a5 = a5 >u 0\n 37681: a2 = a2 | a5\n 37684: a4 = t1\n 37686: t1 = u64 [sp + 0x30]\n 37689: a3 = a3 mulhu t1\n 37692: a3 = a3 >u 0\n 37694: a2 = a2 | a3\n 37697: a2 = a2 | s1\n 37700: u64 [sp + 0x10] = a2\n 37703: a2 = u64 [sp + 0x18]\n 37706: a2 = a2 <u a4\n 37709: a4 = u64 [sp + 0x28]\n 37712: a3 = a4 >u 0\n 37714: s1 = u64 [sp + 0x38]\n 37717: a5 = s1 >u 0\n 37719: a3 = a3 & a5\n 37722: a5 = s1 mulhu ra\n 37725: a5 = a5 >u 0\n 37727: a3 = a3 | a5\n 37730: a5 = a4 mulhu a0\n 37733: a5 = a5 >u 0\n 37735: a3 = a3 | a5\n 37738: a2 = a2 | a3\n 37741: a3 = t1 | a1\n 37744: a5 = a0 | s1\n 37747: s1 = u64 [sp + 0x40]\n 37750: a3 = a3 >u 0\n 37752: a5 = a5 >u 0\n 37754: a3 = a3 & a5\n 37757: a2 = a2 | a3\n 37760: a1 = u64 [sp + 0x10]\n 37763: a1 = a1 | a2\n 37766: a2 = u64 [sp + 0x48]\n 37769: a0 = a1 | t2\n 37772: a0 = a0 & 0x1\n 37775: jump @1397 if a0 != 0\n      : @1396 (gas: 13)\n 37778: a0 = t0 * ra\n 37781: a1 = u64 [sp + 0x58]\n 37784: u64 [a1] = a0\n 37786: a0 = u64 [sp + 0x50]\n 37789: u64 [a1 + 0x8] = a0\n 37792: u64 [a1 + 0x10] = s1\n 37795: u64 [a1 + 0x18] = a2\n 37798: sp = s0 + 0xffffffffffffff40\n 37802: ra = u64 [sp + 0xb8]\n 37806: s0 = u64 [sp + 0xb0]\n 37810: s1 = u64 [sp + 0xa8]\n 37814: sp = sp + 0xc0\n 37818: ret\n      : @1397 (gas: 6)\n 37820: u64 [sp + 144] = 0\n 37824: u64 [sp + 136] = 0\n 37828: u64 [sp + 128] = 0\n 37832: t0 = 0x5d2\n 37836: a0 = 0x4e487b7100000000\n 37846: fallthrough\n      : @1398 [@dyn 745] (gas: 4)\n 37847: a1 = sp + 0x80\n 37851: u64 [sp + 0x98] = a0\n 37855: a0 = 0\n 37857: ra = 1492, jump @19\n      : @1399 [@dyn 746] (gas: 7)\n 37864: u64 [sp + 120] = 0\n 37867: u64 [sp + 112] = 0\n 37870: u64 [sp + 96] = 0x11\n 37874: a0 = 0x4\n 37877: a1 = sp + 0x60\n 37880: u64 [sp + 104] = 0\n 37883: ra = 1494, jump @19\n      : @1400 [@dyn 747] (gas: 2)\n 37890: a1 = i32 [0x2025c]\n 37895: jump @1402 if a1 >u 63\n      : @1401 (gas: 2)\n 37899: u32 [0x2025c] = 0x40\n 37905: fallthrough\n      : @1402 (gas: 7)\n 37906: a1 = 0x20270\n 37911: i32 a1 = a1 + 0\n 37913: a0 = 0x1\n 37916: a2 = 0x24\n 37919: ra = 0x5d8\n 37923: ecalli 14 // 'seal_return'\n 37925: fallthrough\n      : @1403 [@dyn 748] (gas: 45)\n 37926: sp = sp + 0xffffffffffffff90\n 37929: u64 [sp + 0x68] = ra\n 37932: u64 [sp + 0x60] = s0\n 37935: u64 [sp + 0x58] = s1\n 37938: s0 = sp + 0x70\n 37941: sp = sp & 0xfffffffffffffff0\n 37944: a3 = u64 [a1 + 0x18]\n 37947: u64 [sp + 0x8] = a3\n 37950: a4 = u64 [a2 + 0x18]\n 37953: t2 = u64 [a1]\n 37955: u64 [sp] = t2\n 37957: a3 = u64 [a1 + 0x8]\n 37960: s1 = u64 [a2 + 0x8]\n 37963: a5 = u64 [a2]\n 37965: t1 = u64 [a1 + 0x10]\n 37968: t0 = u64 [a2 + 0x10]\n 37971: a2 = s1 + a3\n 37974: t2 = t2 + a5\n 37977: a5 = t2 <u a5\n 37980: a2 = a2 + a5\n 37983: ra = a2 ^ s1\n 37986: s1 = a2 <u s1\n 37989: s1 = a5 if ra == 0\n 37992: a1 = t0 + t1\n 37995: a5 = u64 [sp + 0x8]\n 37998: a5 = a5 + a4\n 38001: a4 = a1 <u t0\n 38004: a4 = a4 + a5\n 38007: a5 = a1 + s1\n 38010: a1 = a5 <u a1\n 38013: ra = a4 + a1\n 38016: a4 = a2 ^ a3\n 38019: a3 = a2 <u a3\n 38022: a1 = u64 [sp]\n 38024: s1 = t2 <u a1\n 38027: s1 = a3 if a4 != 0\n 38030: t0 = a5 <u t1\n 38033: a1 = u64 [sp + 0x8]\n 38036: a4 = ra ^ a1\n 38039: a3 = ra <u a1\n 38042: a3 = t0 if a4 == 0\n 38045: a1 = a5 ^ t1\n 38048: a1 = a1 | a4\n 38051: s1 = a3 if a1 != 0\n 38054: jump @1405 if s1 != 0\n      : @1404 (gas: 10)\n 38057: u64 [a0] = t2\n 38059: u64 [a0 + 0x8] = a2\n 38062: u64 [a0 + 0x10] = a5\n 38065: u64 [a0 + 0x18] = ra\n 38068: sp = s0 + 0xffffffffffffff90\n 38071: ra = u64 [sp + 0x68]\n 38074: s0 = u64 [sp + 0x60]\n 38077: s1 = u64 [sp + 0x58]\n 38080: sp = sp + 0x70\n 38083: ret\n      : @1405 (gas: 1)\n 38085: t0 = 1498, jump @1992\n      : @1406 [@dyn 749] (gas: 1)\n 38091: ra = 1500, jump @19\n      : @1407 [@dyn 750] (gas: 7)\n 38098: u64 [sp + 40] = 0\n 38101: u64 [sp + 32] = 0\n 38104: u64 [sp + 16] = 0x11\n 38108: a0 = 0x4\n 38111: a1 = sp + 0x10\n 38114: u64 [sp + 24] = 0\n 38117: ra = 1502, jump @19\n      : @1408 [@dyn 751] (gas: 2)\n 38124: a1 = i32 [0x2025c]\n 38129: jump @1410 if a1 >u 63\n      : @1409 (gas: 2)\n 38133: u32 [0x2025c] = 0x40\n 38139: fallthrough\n      : @1410 (gas: 8)\n 38140: a1 = 0x20270\n 38145: i32 a1 = a1 + 0\n 38147: a0 = 0x1\n 38150: a2 = 0x24\n 38153: ra = 0x5e0\n 38157: ecalli 14 // 'seal_return'\n 38159: t0 = 0x5e2\n 38163: jump @1953\n      : @1411 [@dyn 752] (gas: 1)\n 38166: t0 = 1506, jump @1953\n      : @1412 [@dyn 753] (gas: 1)\n 38172: jump @1415 if a0 == 0\n      : @1413 (gas: 1)\n 38175: t0 = 1508, jump @1976\n      : @1414 [@dyn 754] (gas: 1)\n 38181: ret\n      : @1415 (gas: 3)\n 38183: a0 = sp + 0xa0\n 38187: a1 = 0x40\n 38190: ra = 1510, jump @17\n      : @1416 [@dyn 755] (gas: 1)\n 38197: t0 = 1512, jump @1952\n      : @1417 [@dyn 756] (gas: 1)\n 38203: jump @1430 if a0 != 0\n      : @1418 (gas: 1)\n 38206: t0 = 1514, jump @1959\n      : @1419 [@dyn 757] (gas: 1)\n 38212: ra = 1516, jump @19\n      : @1420 [@dyn 758] (gas: 1)\n 38219: t0 = 1518, jump @1951\n      : @1421 [@dyn 759] (gas: 1)\n 38225: jump @1430 if a0 == 0\n      : @1422 (gas: 1)\n 38228: t0 = 1520, jump @1963\n      : @1423 [@dyn 760] (gas: 1)\n 38234: ra = 1522, jump @19\n      : @1424 [@dyn 761] (gas: 1)\n 38241: t0 = 1524, jump @1958\n      : @1425 [@dyn 762] (gas: 1)\n 38247: jump @1430 if a0 == 0\n      : @1426 (gas: 1)\n 38250: t0 = 1526, jump @2023\n      : @1427 [@dyn 763] (gas: 4)\n 38256: u64 [sp + 64] = 0x19\n 38260: a1 = sp + 0x40\n 38263: u64 [sp + 72] = 0\n 38266: ra = 1528, jump @19\n      : @1428 [@dyn 764] (gas: 1)\n 38273: t0 = 1530, jump @1954\n      : @1429 [@dyn 765] (gas: 1)\n 38279: jump @1431 if a0 != 0\n      : @1430 (gas: 1)\n 38282: trap\n      : @1431 (gas: 12)\n 38283: s1 = u64 [sp + 0x18]\n 38286: i32 a0 = s1 + 0x44\n 38289: a1 = u64 [0x20138]\n 38294: a2 = u64 [0x20140]\n 38299: a3 = u64 [0x20148]\n 38304: u64 [sp + 0x38] = a1\n 38307: u64 [sp + 0x30] = a2\n 38310: u64 [sp + 0x28] = a3\n 38313: a2 = 0x7200000000000000\n 38323: a1 = sp + 0x20\n 38326: u64 [sp + 0x20] = a2\n 38329: ra = 1532, jump @19\n      : @1432 [@dyn 766] (gas: 3)\n 38336: a1 = 0x64\n 38339: a0 = s1\n 38341: ra = 1534, jump @32\n      : @1433 [@dyn 767] (gas: 1)\n 38348: t0 = 1536, jump @1995\n      : @1434 [@dyn 768] (gas: 3)\n 38354: ra = 0x602\n 38358: ecalli 14 // 'seal_return'\n 38360: fallthrough\n      : @1435 [@dyn 769] (gas: 29)\n 38361: sp = sp + 0xffffffffffffff90\n 38364: u64 [sp + 0x68] = ra\n 38367: u64 [sp + 0x60] = s0\n 38370: u64 [sp + 0x58] = s1\n 38373: s0 = sp + 0x70\n 38376: sp = sp & 0xfffffffffffffff0\n 38379: s1 = u64 [a3]\n 38381: a4 = u64 [a2]\n 38383: u64 [sp] = a4\n 38385: t2 = u64 [a3 + 0x8]\n 38388: a5 = u64 [a2 + 0x8]\n 38391: a4 = u64 [a3 + 0x10]\n 38394: t0 = u64 [a2 + 0x10]\n 38397: t1 = u64 [a3 + 0x18]\n 38400: a2 = u64 [a2 + 0x18]\n 38403: ra = t2 ^ a5\n 38406: a5 = t2 <u a5\n 38409: u64 [sp + 0x8] = s1\n 38412: a3 = u64 [sp]\n 38414: a3 = s1 <u a3\n 38417: a3 = a5 if ra != 0\n 38420: a5 = t1 ^ a2\n 38423: a2 = t1 <u a2\n 38426: s1 = a4 <u t0\n 38429: s1 = a2 if a5 != 0\n 38432: a2 = a4 ^ t0\n 38435: a2 = a2 | a5\n 38438: a3 = s1 if a2 != 0\n 38441: jump @1437 if a3 == 0\n      : @1436 (gas: 39)\n 38444: t0 = u64 [a1 + 0x18]\n 38447: ra = u64 [a1 + 0x10]\n 38450: a5 = u64 [a1 + 0x8]\n 38453: a1 = u64 [a1]\n 38455: s1 = a4 >> 0x3b\n 38458: t1 = t1 << 0x5\n 38461: t1 = t1 | s1\n 38464: a2 = t2 >> 0x3b\n 38467: a4 = a4 << 0x5\n 38470: a2 = a2 | a4\n 38473: a3 = u64 [sp + 0x8]\n 38476: a4 = a3 >> 0x3b\n 38479: t2 = t2 << 0x5\n 38482: a4 = t2 | a4\n 38485: a3 = a3 << 0x5\n 38488: a1 = a1 + a3\n 38491: a3 = a1 <u a3\n 38494: a5 = a5 + a4\n 38497: a5 = a5 + a3\n 38500: s1 = a5 ^ a4\n 38503: a4 = a5 <u a4\n 38506: a4 = a3 if s1 == 0\n 38509: ra = ra + a2\n 38512: a4 = a4 + ra\n 38515: a3 = a4 <u ra\n 38518: a2 = ra <u a2\n 38521: t0 = t0 + t1\n 38524: a2 = a2 + t0\n 38527: a2 = a2 + a3\n 38530: u64 [a0] = a1\n 38532: u64 [a0 + 0x8] = a5\n 38535: u64 [a0 + 0x10] = a4\n 38538: u64 [a0 + 0x18] = a2\n 38541: sp = s0 + 0xffffffffffffff90\n 38544: ra = u64 [sp + 0x68]\n 38547: s0 = u64 [sp + 0x60]\n 38550: s1 = u64 [sp + 0x58]\n 38553: sp = sp + 0x70\n 38556: ret\n      : @1437 (gas: 1)\n 38558: t0 = 1540, jump @1992\n      : @1438 [@dyn 770] (gas: 1)\n 38564: ra = 1542, jump @19\n      : @1439 [@dyn 771] (gas: 7)\n 38571: u64 [sp + 40] = 0\n 38574: u64 [sp + 32] = 0\n 38577: u64 [sp + 16] = 0x32\n 38581: a0 = 0x4\n 38584: a1 = sp + 0x10\n 38587: u64 [sp + 24] = 0\n 38590: ra = 1544, jump @19\n      : @1440 [@dyn 772] (gas: 2)\n 38597: a1 = i32 [0x2025c]\n 38602: jump @1442 if a1 >u 63\n      : @1441 (gas: 2)\n 38606: u32 [0x2025c] = 0x40\n 38612: fallthrough\n      : @1442 (gas: 8)\n 38613: a1 = 0x20270\n 38618: i32 a1 = a1 + 0\n 38620: a0 = 0x1\n 38623: a2 = 0x24\n 38626: ra = 0x60a\n 38630: ecalli 14 // 'seal_return'\n 38632: t0 = 0x60c\n 38636: jump @1953\n      : @1443 [@dyn 773] (gas: 1)\n 38639: t0 = 1548, jump @1953\n      : @1444 [@dyn 774] (gas: 1)\n 38645: jump @1447 if a0 == 0\n      : @1445 (gas: 1)\n 38648: t0 = 1550, jump @1976\n      : @1446 [@dyn 775] (gas: 1)\n 38654: ret\n      : @1447 (gas: 3)\n 38656: a0 = sp + 0xa0\n 38660: a1 = 0x40\n 38663: ra = 1552, jump @17\n      : @1448 [@dyn 776] (gas: 1)\n 38670: t0 = 1554, jump @1952\n      : @1449 [@dyn 777] (gas: 1)\n 38676: jump @1462 if a0 != 0\n      : @1450 (gas: 1)\n 38679: t0 = 1556, jump @1959\n      : @1451 [@dyn 778] (gas: 1)\n 38685: ra = 1558, jump @19\n      : @1452 [@dyn 779] (gas: 1)\n 38692: t0 = 1560, jump @1951\n      : @1453 [@dyn 780] (gas: 1)\n 38698: jump @1462 if a0 == 0\n      : @1454 (gas: 1)\n 38701: t0 = 1562, jump @1963\n      : @1455 [@dyn 781] (gas: 1)\n 38707: ra = 1564, jump @19\n      : @1456 [@dyn 782] (gas: 1)\n 38714: t0 = 1566, jump @1958\n      : @1457 [@dyn 783] (gas: 1)\n 38720: jump @1462 if a0 == 0\n      : @1458 (gas: 1)\n 38723: t0 = 1568, jump @2023\n      : @1459 [@dyn 784] (gas: 4)\n 38729: u64 [sp + 64] = 0x12\n 38733: a1 = sp + 0x40\n 38736: u64 [sp + 72] = 0\n 38739: ra = 1570, jump @19\n      : @1460 [@dyn 785] (gas: 1)\n 38746: t0 = 1572, jump @1954\n      : @1461 [@dyn 786] (gas: 1)\n 38752: jump @1463 if a0 != 0\n      : @1462 (gas: 1)\n 38755: trap\n      : @1463 (gas: 11)\n 38756: s1 = u64 [sp + 0x18]\n 38759: i32 a0 = s1 + 0x44\n 38762: a1 = u64 [0x20150]\n 38767: a2 = u64 [0x20158]\n 38772: u64 [sp + 0x38] = a1\n 38775: u64 [sp + 0x30] = a2\n 38778: a1 = 0x6578000000000000\n 38788: u64 [sp + 0x28] = a1\n 38791: a1 = sp + 0x20\n 38794: u64 [sp + 32] = 0\n 38797: ra = 1574, jump @19\n      : @1464 [@dyn 787] (gas: 3)\n 38804: a1 = 0x64\n 38807: a0 = s1\n 38809: ra = 1576, jump @32\n      : @1465 [@dyn 788] (gas: 1)\n 38816: t0 = 1578, jump @1995\n      : @1466 [@dyn 789] (gas: 3)\n 38822: ra = 0x62c\n 38826: ecalli 14 // 'seal_return'\n 38828: fallthrough\n      : @1467 [@dyn 790] (gas: 20)\n 38829: sp = sp + 0xffffffffffffffa0\n 38832: u64 [sp + 0x58] = ra\n 38835: u64 [sp + 0x50] = s0\n 38838: u64 [sp + 0x48] = s1\n 38841: s0 = sp + 0x60\n 38844: sp = sp & 0xfffffffffffffff0\n 38847: t2 = u64 [a2 + 0x18]\n 38850: s1 = u64 [a2 + 0x10]\n 38853: t1 = u64 [a2]\n 38855: a2 = u64 [a2 + 0x8]\n 38858: t0 = t2 >u 0\n 38860: a5 = s1 >u 0\n 38862: a5 = t0 if t2 != 0\n 38865: t0 = a2 >u 0\n 38867: a3 = t1 <u 0x10\n 38870: a3 = a3 ^ 0x1\n 38873: a3 = t0 if a2 != 0\n 38876: a4 = s1 | t2\n 38879: a3 = a5 if a4 != 0\n 38882: jump @1470 if a3 != 0\n      : @1468 (gas: 28)\n 38885: a3 = u64 [a1]\n 38887: t0 = u64 [a1 + 0x18]\n 38890: a5 = u64 [a1 + 0x8]\n 38893: ra = u64 [a1 + 0x10]\n 38896: a3 = a3 + t1\n 38899: a4 = a3 <u t1\n 38902: a5 = a5 + a2\n 38905: a5 = a5 + a4\n 38908: a1 = a5 ^ a2\n 38911: a2 = a5 <u a2\n 38914: a2 = a4 if a1 == 0\n 38917: ra = ra + s1\n 38920: a2 = a2 + ra\n 38923: a1 = a2 <u ra\n 38926: a4 = ra <u s1\n 38929: t0 = t0 + t2\n 38932: a4 = a4 + t0\n 38935: a1 = a1 + a4\n 38938: a4 = 0\n 38940: u64 [a0 + 56] = 0\n 38943: u64 [a0 + 48] = 0\n 38946: u64 [a0 + 40] = 0\n 38949: u64 [a0 + 32] = 0\n 38952: u64 [a0] = a3\n 38954: u64 [a0 + 0x8] = a5\n 38957: u64 [a0 + 0x10] = a2\n 38960: u64 [a0 + 0x18] = a1\n 38963: t0 = 1582, jump @2026\n      : @1469 [@dyn 791] (gas: 1)\n 38969: ret\n      : @1470 (gas: 1)\n 38971: t0 = 1584, jump @1989\n      : @1471 [@dyn 792] (gas: 1)\n 38977: ra = 1586, jump @19\n      : @1472 [@dyn 793] (gas: 7)\n 38984: u64 [sp + 24] = 0\n 38987: u64 [sp + 16] = 0\n 38990: u64 [sp + 0] = 0x32\n 38993: a0 = 0x4\n 38996: a1 = sp\n 38998: u64 [sp + 8] = 0\n 39001: ra = 1588, jump @19\n      : @1473 [@dyn 794] (gas: 2)\n 39008: a1 = i32 [0x2025c]\n 39013: jump @1475 if a1 >u 63\n      : @1474 (gas: 2)\n 39017: u32 [0x2025c] = 0x40\n 39023: fallthrough\n      : @1475 (gas: 8)\n 39024: a1 = 0x20270\n 39029: i32 a1 = a1 + 0\n 39031: a0 = 0x1\n 39034: a2 = 0x24\n 39037: ra = 0x636\n 39041: ecalli 14 // 'seal_return'\n 39043: t0 = 0x638\n 39047: jump @1953\n      : @1476 [@dyn 795] (gas: 1)\n 39050: t0 = 1592, jump @1953\n      : @1477 [@dyn 796] (gas: 1)\n 39056: jump @1480 if a0 == 0\n      : @1478 (gas: 1)\n 39059: t0 = 1594, jump @1976\n      : @1479 [@dyn 797] (gas: 1)\n 39065: ret\n      : @1480 (gas: 3)\n 39067: a0 = sp + 0xa0\n 39071: a1 = 0x40\n 39074: ra = 1596, jump @17\n      : @1481 [@dyn 798] (gas: 1)\n 39081: t0 = 1598, jump @1952\n      : @1482 [@dyn 799] (gas: 1)\n 39087: jump @1494 if a0 != 0\n      : @1483 (gas: 1)\n 39090: t0 = 1600, jump @1959\n      : @1484 [@dyn 800] (gas: 1)\n 39096: ra = 1602, jump @19\n      : @1485 [@dyn 801] (gas: 1)\n 39103: t0 = 1604, jump @1951\n      : @1486 [@dyn 802] (gas: 1)\n 39109: jump @1494 if a0 == 0\n      : @1487 (gas: 1)\n 39112: t0 = 1606, jump @1963\n      : @1488 [@dyn 803] (gas: 1)\n 39118: ra = 1608, jump @19\n      : @1489 [@dyn 804] (gas: 1)\n 39125: t0 = 1610, jump @1958\n      : @1490 [@dyn 805] (gas: 1)\n 39131: jump @1494 if a0 == 0\n      : @1491 (gas: 8)\n 39134: s1 = u64 [sp + 0x18]\n 39137: i32 a0 = s1 + 0x24\n 39140: u64 [sp + 88] = 0\n 39143: u64 [sp + 80] = 0\n 39146: u64 [sp + 64] = 0x15\n 39150: a1 = sp + 0x40\n 39153: u64 [sp + 72] = 0\n 39156: ra = 1612, jump @19\n      : @1492 [@dyn 806] (gas: 1)\n 39163: t0 = 1614, jump @1954\n      : @1493 [@dyn 807] (gas: 1)\n 39169: jump @1495 if a0 != 0\n      : @1494 (gas: 1)\n 39172: trap\n      : @1495 (gas: 11)\n 39173: s1 = u64 [sp + 0x18]\n 39176: i32 a0 = s1 + 0x44\n 39179: a1 = u64 [0x20160]\n 39184: a2 = u64 [0x20168]\n 39189: u64 [sp + 0x38] = a1\n 39192: u64 [sp + 0x30] = a2\n 39195: a1 = 0x6563746564000000\n 39205: u64 [sp + 0x28] = a1\n 39208: a1 = sp + 0x20\n 39211: u64 [sp + 32] = 0\n 39214: ra = 1616, jump @19\n      : @1496 [@dyn 808] (gas: 3)\n 39221: a1 = 0x64\n 39224: a0 = s1\n 39226: ra = 1618, jump @32\n      : @1497 [@dyn 809] (gas: 1)\n 39233: t0 = 1620, jump @1995\n      : @1498 [@dyn 810] (gas: 3)\n 39239: ra = 0x656\n 39243: ecalli 14 // 'seal_return'\n 39245: fallthrough\n      : @1499 [@dyn 811] (gas: 30)\n 39246: sp = sp + 0xffffffffffffff00\n 39250: u64 [sp + 0xf8] = ra\n 39254: u64 [sp + 0xf0] = s0\n 39258: u64 [sp + 0xe8] = s1\n 39262: s0 = sp + 0x100\n 39266: sp = sp & 0xffffffffffffffe0\n 39269: a3 = u32 [a2 + 0x10]\n 39272: u64 [sp + 0x70] = a3\n 39275: a3 = u64 [a2]\n 39277: u64 [sp + 0x50] = a3\n 39280: a2 = u64 [a2 + 0x8]\n 39283: u64 [sp + 0x78] = a2\n 39286: a2 = u64 [a1 + 0x18]\n 39289: u64 [sp + 0x60] = a2\n 39292: a2 = u64 [a1 + 0x10]\n 39295: u64 [sp + 0x58] = a2\n 39298: s1 = u64 [a1 + 0x8]\n 39301: a1 = u64 [a1]\n 39303: u64 [sp + 0x68] = a1\n 39306: a1 = u64 [a0 + 0x18]\n 39309: a2 = u64 [a0 + 0x10]\n 39312: a3 = u64 [a0 + 0x8]\n 39315: a0 = u64 [a0]\n 39317: u64 [sp + 0xb8] = a1\n 39321: u64 [sp + 0xb0] = a2\n 39325: u64 [sp + 0xa8] = a3\n 39329: u64 [sp + 0xa0] = a0\n 39333: a0 = sp + 0x80\n 39337: a1 = sp + 0xa0\n 39341: ra = 1624, jump @21\n      : @1500 [@dyn 812] (gas: 23)\n 39348: a0 = u64 [sp + 0x90]\n 39352: u64 [sp + 0x38] = a0\n 39355: a0 = u64 [sp + 0x98]\n 39359: u64 [sp + 0x30] = a0\n 39362: a0 = u64 [sp + 0x80]\n 39366: u64 [sp + 0x28] = a0\n 39369: a0 = u64 [sp + 0x88]\n 39373: u64 [sp + 0x20] = a0\n 39376: a5 = u64 [sp + 0x68]\n 39379: a0 = a5 >> 0x3d\n 39382: a1 = s1 << 0x3\n 39385: a0 = a0 | a1\n 39388: s1 = s1 >> 0x3d\n 39391: a2 = u64 [sp + 0x58]\n 39394: a1 = a2 << 0x3\n 39397: a1 = a1 | s1\n 39400: a2 = a2 >> 0x3d\n 39403: a3 = u64 [sp + 0x60]\n 39406: a3 = a3 << 0x3\n 39409: a2 = a2 | a3\n 39412: a5 = a5 << 0x3\n 39415: u64 [sp + 0x58] = a5\n 39418: t0 = 1626, jump @1966\n      : @1501 [@dyn 813] (gas: 7)\n 39424: u64 [sp + 0x48] = a4\n 39427: i32 a2 = a5 + 0xffffffffffffff80\n 39430: u64 [sp + 0x18] = a2\n 39433: s1 = u64 [sp + 0x50]\n 39436: a0 = s1\n 39438: a1 = u64 [sp + 0x78]\n 39441: ra = 1628, jump @2043\n      : @1502 [@dyn 814] (gas: 8)\n 39447: u64 [sp] = a0\n 39449: u64 [sp + 0x8] = a1\n 39452: a0 = u64 [sp + 0x68]\n 39455: i32 a2 = a0 << 0x3\n 39458: u64 [sp + 0x60] = a2\n 39461: a0 = u64 [sp + 0x70]\n 39464: a1 = 0\n 39466: ra = 1630, jump @2043\n      : @1503 [@dyn 815] (gas: 8)\n 39472: u64 [sp + 0x40] = a0\n 39475: u64 [sp + 0x68] = a1\n 39478: a1 = u64 [sp + 0x58]\n 39481: i32 a2 = 0x80 - a1\n 39485: u64 [sp + 0x10] = a2\n 39488: a0 = s1\n 39490: a1 = u64 [sp + 0x78]\n 39493: ra = 1632, jump @2038\n      : @1504 [@dyn 816] (gas: 19)\n 39499: a2 = u64 [sp + 0x40]\n 39502: a0 = a0 | a2\n 39505: a3 = u64 [sp + 0x58]\n 39508: s1 = a3 <u 0x80\n 39512: a2 = u64 [sp]\n 39514: a0 = a2 if s1 == 0\n 39517: a2 = u64 [sp + 0x70]\n 39520: a0 = a2 if a3 == 0\n 39523: u64 [sp + 0x70] = a0\n 39526: a0 = u64 [sp + 0x68]\n 39529: a0 = a0 | a1\n 39532: a1 = u64 [sp + 0x8]\n 39535: a0 = a1 if s1 == 0\n 39538: a0 = 0 if a3 == 0\n 39540: u64 [sp + 0x68] = a0\n 39543: a0 = u64 [sp + 0x50]\n 39546: a1 = u64 [sp + 0x78]\n 39549: a2 = u64 [sp + 0x60]\n 39552: ra = 1634, jump @2043\n      : @1505 [@dyn 817] (gas: 20)\n 39558: a2 = a0\n 39560: u64 [sp + 0x40] = s1\n 39563: a2 = 0 if s1 == 0\n 39565: a1 = 0 if s1 == 0\n 39567: a3 = u64 [sp + 0x48]\n 39570: a0 = u64 [sp + 0x68]\n 39573: a0 = 0 if a3 != 0\n 39575: u64 [sp + 0x68] = a0\n 39578: a0 = u64 [sp + 0x70]\n 39581: a0 = 0 if a3 != 0\n 39583: u64 [sp + 0x70] = a0\n 39586: a1 = 0 if a3 != 0\n 39588: u64 [sp + 0x78] = a1\n 39591: a2 = 0 if a3 != 0\n 39593: u64 [sp + 0x50] = a2\n 39596: a0 = 0xffffffff\n 39606: u64 [sp + 0x8] = a0\n 39609: a1 = 0\n 39611: a2 = u64 [sp + 0x60]\n 39614: ra = 1636, jump @2043\n      : @1506 [@dyn 818] (gas: 6)\n 39620: s1 = a0\n 39622: u64 [sp] = a1\n 39624: a0 = 0xffffffffffffffff\n 39627: a1 = 0xffffffffffffffff\n 39630: a2 = u64 [sp + 0x10]\n 39633: ra = 1638, jump @2038\n      : @1507 [@dyn 819] (gas: 6)\n 39639: u64 [sp + 0x10] = a1\n 39642: s1 = s1 | a0\n 39645: a0 = 0xffffffffffffffff\n 39648: a1 = 0xffffffffffffffff\n 39651: a2 = u64 [sp + 0x18]\n 39654: ra = 1640, jump @2043\n      : @1508 [@dyn 820] (gas: 15)\n 39660: a2 = u64 [sp + 0x40]\n 39663: a0 = s1 if a2 != 0\n 39666: a4 = u64 [sp + 0x58]\n 39669: a3 = u64 [sp + 0x8]\n 39672: a0 = a3 if a4 == 0\n 39675: u64 [sp + 0x18] = a0\n 39678: a0 = u64 [sp]\n 39680: s1 = u64 [sp + 0x10]\n 39683: s1 = s1 | a0\n 39686: s1 = a1 if a2 == 0\n 39689: s1 = 0 if a4 == 0\n 39691: a0 = 0xffffffffffffffff\n 39694: a1 = 0xffffffffffffffff\n 39697: a2 = u64 [sp + 0x60]\n 39700: ra = 1642, jump @2043\n      : @1509 [@dyn 821] (gas: 36)\n 39706: a2 = u64 [sp + 0x40]\n 39709: a0 = 0 if a2 == 0\n 39711: a1 = 0 if a2 == 0\n 39713: a2 = s1 ^ 0xffffffffffffffff\n 39716: a3 = u64 [sp + 0x18]\n 39719: a3 = a3 ^ 0xffffffffffffffff\n 39722: a1 = a1 ^ 0xffffffffffffffff\n 39725: a0 = a0 ^ 0xffffffffffffffff\n 39728: a4 = u64 [sp + 0x48]\n 39731: a3 = 0xffffffffffffffff if a4 != 0\n 39734: a2 = 0xffffffffffffffff if a4 != 0\n 39737: a0 = 0xffffffffffffffff if a4 != 0\n 39740: a1 = 0xffffffffffffffff if a4 != 0\n 39743: a4 = u64 [sp + 0x20]\n 39746: a1 = a1 & a4\n 39749: a4 = u64 [sp + 0x28]\n 39752: a0 = a0 & a4\n 39755: a4 = u64 [sp + 0x30]\n 39758: a2 = a2 & a4\n 39761: a4 = u64 [sp + 0x38]\n 39764: a3 = a3 & a4\n 39767: a4 = u64 [sp + 0x70]\n 39770: a3 = a3 | a4\n 39773: a4 = u64 [sp + 0x68]\n 39776: a2 = a2 | a4\n 39779: a4 = u64 [sp + 0x50]\n 39782: a0 = a0 | a4\n 39785: a4 = u64 [sp + 0x78]\n 39788: a1 = a1 | a4\n 39791: u64 [sp + 0xc8] = a1\n 39795: u64 [sp + 0xc0] = a0\n 39799: u64 [sp + 0xd8] = a2\n 39803: u64 [sp + 0xd0] = a3\n 39807: a0 = sp + 0xa0\n 39811: a1 = sp + 0xc0\n 39815: ra = 1644, jump @25\n      : @1510 [@dyn 822] (gas: 6)\n 39822: sp = s0 + 0xffffffffffffff00\n 39826: ra = u64 [sp + 0xf8]\n 39830: s0 = u64 [sp + 0xf0]\n 39834: s1 = u64 [sp + 0xe8]\n 39838: sp = sp + 0x100\n 39842: ret\n      : @1511 (gas: 16)\n 39844: a2 = u64 [a1]\n 39846: t0 = u64 [a1 + 0x18]\n 39849: a3 = u64 [a1 + 0x8]\n 39852: a5 = u64 [a1 + 0x10]\n 39855: a4 = a2 + 0x1\n 39858: a2 = a4 <u 0x1\n 39861: a2 = a2 + a3\n 39864: a3 = a4 | a2\n 39867: a3 = a3 <u 0x1\n 39870: a3 = a3 + a5\n 39873: a5 = a3 <u a5\n 39876: a5 = a5 + t0\n 39879: t0 = a2 | a5\n 39882: a1 = a4 | a3\n 39885: a1 = a1 | t0\n 39888: jump @1513 if a1 == 0\n      : @1512 (gas: 5)\n 39891: u64 [a0] = a4\n 39893: u64 [a0 + 0x8] = a2\n 39896: u64 [a0 + 0x10] = a3\n 39899: u64 [a0 + 0x18] = a5\n 39902: ret\n      : @1513 (gas: 6)\n 39904: sp = sp + 0xffffffffffffffb0\n 39907: u64 [sp + 0x48] = ra\n 39910: u64 [sp + 0x40] = s0\n 39913: s0 = sp + 0x50\n 39916: sp = sp & 0xfffffffffffffff0\n 39919: t0 = 1646, jump @1989\n      : @1514 [@dyn 823] (gas: 1)\n 39925: ra = 1648, jump @19\n      : @1515 [@dyn 824] (gas: 7)\n 39932: u64 [sp + 24] = 0\n 39935: u64 [sp + 16] = 0\n 39938: u64 [sp + 0] = 0x11\n 39941: a0 = 0x4\n 39944: a1 = sp\n 39946: u64 [sp + 8] = 0\n 39949: ra = 1650, jump @19\n      : @1516 [@dyn 825] (gas: 2)\n 39956: a1 = i32 [0x2025c]\n 39961: jump @1518 if a1 >u 63\n      : @1517 (gas: 2)\n 39965: u32 [0x2025c] = 0x40\n 39971: fallthrough\n      : @1518 (gas: 8)\n 39972: a1 = 0x20270\n 39977: i32 a1 = a1 + 0\n 39979: a0 = 0x1\n 39982: a2 = 0x24\n 39985: ra = 0x674\n 39989: ecalli 14 // 'seal_return'\n 39991: t0 = 0x676\n 39995: jump @1953\n      : @1519 [@dyn 826] (gas: 1)\n 39998: t0 = 1654, jump @1953\n      : @1520 [@dyn 827] (gas: 1)\n 40004: jump @1523 if a0 == 0\n      : @1521 (gas: 1)\n 40007: t0 = 1656, jump @1976\n      : @1522 [@dyn 828] (gas: 1)\n 40013: ret\n      : @1523 (gas: 3)\n 40015: a0 = sp + 0xa0\n 40019: a1 = 0x40\n 40022: ra = 1658, jump @17\n      : @1524 [@dyn 829] (gas: 1)\n 40029: t0 = 1660, jump @1952\n      : @1525 [@dyn 830] (gas: 1)\n 40035: jump @1538 if a0 != 0\n      : @1526 (gas: 1)\n 40038: t0 = 1662, jump @1959\n      : @1527 [@dyn 831] (gas: 1)\n 40044: ra = 1664, jump @19\n      : @1528 [@dyn 832] (gas: 1)\n 40051: t0 = 1666, jump @1951\n      : @1529 [@dyn 833] (gas: 1)\n 40057: jump @1538 if a0 == 0\n      : @1530 (gas: 1)\n 40060: t0 = 1668, jump @1963\n      : @1531 [@dyn 834] (gas: 1)\n 40066: ra = 1670, jump @19\n      : @1532 [@dyn 835] (gas: 1)\n 40073: t0 = 1672, jump @1958\n      : @1533 [@dyn 836] (gas: 1)\n 40079: jump @1538 if a0 == 0\n      : @1534 (gas: 1)\n 40082: t0 = 1674, jump @2023\n      : @1535 [@dyn 837] (gas: 4)\n 40088: u64 [sp + 64] = 0x11\n 40092: a1 = sp + 0x40\n 40095: u64 [sp + 72] = 0\n 40098: ra = 1676, jump @19\n      : @1536 [@dyn 838] (gas: 1)\n 40105: t0 = 1678, jump @1954\n      : @1537 [@dyn 839] (gas: 1)\n 40111: jump @1539 if a0 != 0\n      : @1538 (gas: 1)\n 40114: trap\n      : @1539 (gas: 11)\n 40115: s1 = u64 [sp + 0x18]\n 40118: i32 a0 = s1 + 0x44\n 40121: a1 = u64 [0x20170]\n 40126: a2 = u64 [0x20178]\n 40131: u64 [sp + 0x38] = a1\n 40134: u64 [sp + 0x30] = a2\n 40137: a1 = 0x6500000000000000\n 40147: u64 [sp + 0x28] = a1\n 40150: a1 = sp + 0x20\n 40153: u64 [sp + 32] = 0\n 40156: ra = 1680, jump @19\n      : @1540 [@dyn 840] (gas: 3)\n 40163: a1 = 0x64\n 40166: a0 = s1\n 40168: ra = 1682, jump @32\n      : @1541 [@dyn 841] (gas: 1)\n 40175: t0 = 1684, jump @1995\n      : @1542 [@dyn 842] (gas: 4)\n 40181: ra = 0x696\n 40185: ecalli 14 // 'seal_return'\n 40187: t0 = 0x698\n 40191: jump @1953\n      : @1543 [@dyn 843] (gas: 1)\n 40194: t0 = 1688, jump @1953\n      : @1544 [@dyn 844] (gas: 1)\n 40200: jump @1547 if a0 == 0\n      : @1545 (gas: 1)\n 40203: t0 = 1690, jump @1976\n      : @1546 [@dyn 845] (gas: 1)\n 40209: ret\n      : @1547 (gas: 3)\n 40211: a0 = sp + 0xa0\n 40215: a1 = 0x40\n 40218: ra = 1692, jump @17\n      : @1548 [@dyn 846] (gas: 1)\n 40225: t0 = 1694, jump @1952\n      : @1549 [@dyn 847] (gas: 1)\n 40231: jump @1562 if a0 != 0\n      : @1550 (gas: 1)\n 40234: t0 = 1696, jump @1959\n      : @1551 [@dyn 848] (gas: 1)\n 40240: ra = 1698, jump @19\n      : @1552 [@dyn 849] (gas: 1)\n 40247: t0 = 1700, jump @1951\n      : @1553 [@dyn 850] (gas: 1)\n 40253: jump @1562 if a0 == 0\n      : @1554 (gas: 1)\n 40256: t0 = 1702, jump @1963\n      : @1555 [@dyn 851] (gas: 1)\n 40262: ra = 1704, jump @19\n      : @1556 [@dyn 852] (gas: 1)\n 40269: t0 = 1706, jump @1958\n      : @1557 [@dyn 853] (gas: 1)\n 40275: jump @1562 if a0 == 0\n      : @1558 (gas: 1)\n 40278: t0 = 1708, jump @2023\n      : @1559 [@dyn 854] (gas: 4)\n 40284: u64 [sp + 72] = 0\n 40287: a1 = sp + 0x40\n 40290: u64 [sp + 64] = 0x19\n 40294: ra = 1710, jump @19\n      : @1560 [@dyn 855] (gas: 1)\n 40301: t0 = 1712, jump @1954\n      : @1561 [@dyn 856] (gas: 1)\n 40307: jump @1563 if a0 != 0\n      : @1562 (gas: 1)\n 40310: trap\n      : @1563 (gas: 12)\n 40311: s1 = u64 [sp + 0x18]\n 40314: i32 a0 = s1 + 0x44\n 40317: a1 = u64 [0x20180]\n 40322: a2 = u64 [0x20188]\n 40327: a3 = u64 [0x20190]\n 40332: u64 [sp + 0x38] = a1\n 40335: u64 [sp + 0x30] = a2\n 40338: u64 [sp + 0x28] = a3\n 40341: a2 = 0x6400000000000000\n 40351: a1 = sp + 0x20\n 40354: u64 [sp + 0x20] = a2\n 40357: ra = 1714, jump @19\n      : @1564 [@dyn 857] (gas: 3)\n 40364: a1 = 0x64\n 40367: a0 = s1\n 40369: ra = 1716, jump @32\n      : @1565 [@dyn 858] (gas: 1)\n 40376: t0 = 1718, jump @1995\n      : @1566 [@dyn 859] (gas: 3)\n 40382: ra = 0x6b8\n 40386: ecalli 14 // 'seal_return'\n 40388: fallthrough\n      : @1567 [@dyn 860] (gas: 22)\n 40389: sp = sp + 0xffffffffffffff60\n 40393: u64 [sp + 0x98] = ra\n 40397: u64 [sp + 0x90] = s0\n 40401: u64 [sp + 0x88] = s1\n 40405: s0 = sp + 0xa0\n 40409: sp = sp & 0xffffffffffffffe0\n 40412: a2 = u64 [a1 + 0x10]\n 40415: u64 [sp + 0x18] = a2\n 40418: s1 = u64 [a1 + 0x8]\n 40421: a1 = u64 [a1]\n 40423: u64 [sp + 0x10] = a1\n 40426: a1 = u64 [a0 + 0x18]\n 40429: a2 = u64 [a0 + 0x10]\n 40432: a3 = u64 [a0 + 0x8]\n 40435: a0 = u64 [a0]\n 40437: u64 [sp + 0x58] = a1\n 40440: u64 [sp + 0x50] = a2\n 40443: u64 [sp + 0x48] = a3\n 40446: u64 [sp + 0x40] = a0\n 40449: a0 = sp + 0x20\n 40452: a1 = sp + 0x40\n 40455: ra = 1722, jump @21\n      : @1568 [@dyn 861] (gas: 25)\n 40462: a0 = u64 [sp + 0x38]\n 40465: a1 = u8 [sp + 0x20]\n 40468: a2 = u64 [sp + 0x30]\n 40471: a5 = u64 [sp + 0x10]\n 40474: a3 = a5 >> 0x38\n 40477: a4 = s1 << 0x8\n 40480: a3 = a3 | a4\n 40483: s1 = s1 >> 0x38\n 40486: a4 = u64 [sp + 0x18]\n 40489: a4 = a4 << 0x8\n 40492: a4 = a4 | s1\n 40495: a5 = a5 << 0x8\n 40498: a4 = a4 << 0x18\n 40501: a4 = a4 >> 0x18\n 40504: a2 = a2 >> 0x28\n 40507: a2 = a2 << 0x28\n 40510: a2 = a2 | a4\n 40513: a1 = a1 | a5\n 40516: u64 [sp + 0x68] = a3\n 40519: u64 [sp + 0x78] = a0\n 40522: u64 [sp + 0x60] = a1\n 40525: u64 [sp + 0x70] = a2\n 40528: a0 = sp + 0x40\n 40531: a1 = sp + 0x60\n 40534: ra = 1724, jump @25\n      : @1569 [@dyn 862] (gas: 6)\n 40541: sp = s0 + 0xffffffffffffff60\n 40545: ra = u64 [sp + 0x98]\n 40549: s0 = u64 [sp + 0x90]\n 40553: s1 = u64 [sp + 0x88]\n 40557: sp = sp + 0xa0\n 40561: ret\n      : @1570 (gas: 30)\n 40563: sp = sp + 0xffffffffffffff80\n 40566: u64 [sp + 0x78] = ra\n 40569: u64 [sp + 0x70] = s0\n 40572: u64 [sp + 0x68] = s1\n 40575: s0 = sp + 0x80\n 40579: sp = sp & 0xfffffffffffffff0\n 40582: a4 = u64 [a2]\n 40584: a3 = u64 [a1]\n 40586: s1 = u64 [a2 + 0x8]\n 40589: t1 = u64 [a1 + 0x8]\n 40592: t2 = u64 [a2 + 0x10]\n 40595: a5 = u64 [a1 + 0x10]\n 40598: a2 = u64 [a2 + 0x18]\n 40601: a1 = u64 [a1 + 0x18]\n 40604: t0 = t1 ^ s1\n 40607: u64 [sp + 0x8] = s1\n 40610: s1 = t1 <u s1\n 40613: u64 [sp + 0x18] = a4\n 40616: u64 [sp + 0x10] = a3\n 40619: a3 = a3 <u a4\n 40622: u64 [sp] = a3\n 40624: s1 = a3 if t0 == 0\n 40627: a3 = a1 ^ a2\n 40630: ra = a1 <u a2\n 40633: t0 = a5 <u t2\n 40636: ra = t0 if a3 == 0\n 40639: a4 = a5 ^ t2\n 40642: a3 = a3 | a4\n 40645: ra = s1 if a3 == 0\n 40648: jump @1572 if ra != 0\n      : @1571 (gas: 23)\n 40651: a3 = a5 - t2\n 40654: a1 = a1 - a2\n 40657: a1 = a1 - t0\n 40660: a2 = a3 <u s1\n 40663: a1 = a1 - a2\n 40666: a3 = a3 - s1\n 40669: a2 = u64 [sp + 0x8]\n 40672: a2 = t1 - a2\n 40675: a4 = u64 [sp]\n 40677: a2 = a2 - a4\n 40680: a4 = u64 [sp + 0x18]\n 40683: a5 = u64 [sp + 0x10]\n 40686: a4 = a5 - a4\n 40689: u64 [a0] = a4\n 40691: u64 [a0 + 0x8] = a2\n 40694: u64 [a0 + 0x10] = a3\n 40697: u64 [a0 + 0x18] = a1\n 40700: sp = s0 + 0xffffffffffffff80\n 40703: ra = u64 [sp + 0x78]\n 40706: s0 = u64 [sp + 0x70]\n 40709: s1 = u64 [sp + 0x68]\n 40712: sp = sp + 0x80\n 40716: ret\n      : @1572 (gas: 6)\n 40718: u64 [sp + 80] = 0\n 40721: u64 [sp + 72] = 0\n 40724: u64 [sp + 64] = 0\n 40727: t0 = 0x6be\n 40731: a0 = 0x4e487b7100000000\n 40741: fallthrough\n      : @1573 [@dyn 863] (gas: 4)\n 40742: a1 = sp + 0x40\n 40745: u64 [sp + 0x58] = a0\n 40748: a0 = 0\n 40750: ra = 1728, jump @19\n      : @1574 [@dyn 864] (gas: 7)\n 40757: u64 [sp + 56] = 0\n 40760: u64 [sp + 48] = 0\n 40763: u64 [sp + 32] = 0x11\n 40767: a0 = 0x4\n 40770: a1 = sp + 0x20\n 40773: u64 [sp + 40] = 0\n 40776: ra = 1730, jump @19\n      : @1575 [@dyn 865] (gas: 2)\n 40783: a1 = i32 [0x2025c]\n 40788: jump @1577 if a1 >u 63\n      : @1576 (gas: 2)\n 40792: u32 [0x2025c] = 0x40\n 40798: fallthrough\n      : @1577 (gas: 7)\n 40799: a1 = 0x20270\n 40804: i32 a1 = a1 + 0\n 40806: a0 = 0x1\n 40809: a2 = 0x24\n 40812: ra = 0x6c4\n 40816: ecalli 14 // 'seal_return'\n 40818: fallthrough\n      : @1578 [@dyn 866] (gas: 9)\n 40819: sp = sp + 0xffffffffffffff20\n 40823: u64 [sp + 0xd8] = ra\n 40827: u64 [sp + 0xd0] = s0\n 40831: u64 [sp + 0xc8] = s1\n 40835: s0 = sp + 0xe0\n 40839: sp = sp & 0xffffffffffffffe0\n 40842: s1 = a0\n 40844: ecalli 13 // 'return_data_size'\n 40846: fallthrough\n      : @1579 (gas: 1)\n 40847: jump @1591 if a0 == 0\n      : @1580 (gas: 16)\n 40851: u64 [sp + 0x8] = s1\n 40854: ecalli 13 // 'return_data_size'\n 40856: a2 = a0 + 0x1f\n 40859: u64 [sp + 0x10] = a0\n 40862: a1 = a2 <u a0\n 40865: a0 = a2 & 0xffffffffffffffe0\n 40868: a2 = a0 + 0x20\n 40871: u64 [sp + 0x18] = a2\n 40874: a0 = a2 <u a0\n 40877: a2 = a1 + a0\n 40880: u64 [sp + 0x20] = a2\n 40883: s1 = a2 <u a1\n 40886: s1 = a0 if a0 == 0\n 40889: a0 = sp + 0xa0\n 40893: a1 = 0x40\n 40896: ra = 1734, jump @17\n      : @1581 [@dyn 867] (gas: 21)\n 40903: a0 = u64 [sp + 0xb8]\n 40907: u64 [sp + 0x38] = a0\n 40910: a2 = u64 [sp + 0xb0]\n 40914: a3 = u64 [sp + 0xa8]\n 40918: u64 [sp + 0x30] = a3\n 40921: a4 = u64 [sp + 0xa0]\n 40925: u64 [sp + 0x28] = a4\n 40928: u64 [sp + 120] = 0\n 40931: a1 = u64 [sp + 0x18]\n 40934: u64 [sp + 0x60] = a1\n 40937: u64 [sp + 0x98] = a0\n 40941: u64 [sp + 0x90] = a2\n 40945: u64 [sp + 0x88] = a3\n 40949: u64 [sp + 0x80] = a4\n 40953: a0 = u64 [sp + 0x20]\n 40956: u64 [sp + 0x68] = a0\n 40959: a0 = sp + 0x80\n 40963: a1 = sp + 0x60\n 40966: u64 [sp + 0x70] = s1\n 40969: s1 = a2\n 40971: ra = 1736, jump @1336\n      : @1582 [@dyn 868] (gas: 12)\n 40977: a0 = u64 [sp + 0x28]\n 40980: a2 = u64 [sp + 0x38]\n 40983: a1 = u64 [sp + 0x30]\n 40986: a2 = a2 | a1\n 40989: a1 = a0 | s1\n 40992: a1 = a1 | a2\n 40995: a1 = a1 >> 0x20\n 40998: u64 [sp + 0x20] = s1\n 41001: a2 = a2 | s1\n 41004: a2 = a2 << 0x20\n 41007: a1 = a1 | a2\n 41010: jump @1590 if a1 != 0\n      : @1583 (gas: 7)\n 41014: u64 [sp + 88] = 0\n 41017: u64 [sp + 80] = 0\n 41020: u64 [sp + 72] = 0\n 41023: a1 = sp + 0x40\n 41026: a2 = u64 [sp + 0x10]\n 41029: u64 [sp + 0x40] = a2\n 41032: ra = 1738, jump @19\n      : @1584 [@dyn 869] (gas: 2)\n 41039: ecalli 13 // 'return_data_size'\n 41041: fallthrough\n      : @1585 (gas: 10)\n 41042: a3 = u64 [sp + 0x28]\n 41045: a2 = u64 [sp + 0x38]\n 41048: a1 = u64 [sp + 0x20]\n 41051: a1 = a1 | a2\n 41054: a2 = 0xffffffe0\n 41064: a2 = a3 <u a2\n 41067: a4 = u64 [sp + 0x30]\n 41070: a2 = 0 if a4 != 0\n 41072: a2 = 0 if a1 != 0\n 41074: jump @1590 if a2 == 0\n      : @1586 (gas: 3)\n 41077: s1 = a0\n 41079: a0 = a0 >> 0x20\n 41082: jump @1590 if a0 != 0\n      : @1587 (gas: 5)\n 41085: i32 a0 = a3 + 0x20\n 41088: i32 a1 = s1 + 0\n 41090: u64 [sp + 0x18] = a1\n 41093: a1 = s1\n 41095: ra = 1740, jump @32\n      : @1588 [@dyn 870] (gas: 6)\n 41102: u32 [sp + 0xc0] = s1\n 41106: i32 a0 = a0 + 0\n 41108: i32 a1 = sp + 0xc0\n 41112: a2 = 0\n 41114: ecalli 12 // 'return_data_copy'\n 41116: fallthrough\n      : @1589 (gas: 8)\n 41117: a4 = u64 [sp + 0x28]\n 41120: a0 = i32 [sp + 0xc0]\n 41124: s1 = u64 [sp + 0x8]\n 41127: a1 = u64 [sp + 0x38]\n 41130: a2 = u64 [sp + 0x20]\n 41133: a3 = u64 [sp + 0x30]\n 41136: a5 = u64 [sp + 0x18]\n 41139: jump @1592 if a0 >=u a5\n      : @1590 (gas: 1)\n 41142: trap\n      : @1591 (gas: 5)\n 41143: a3 = 0\n 41145: a2 = 0\n 41147: a1 = 0\n 41149: a4 = 0x60\n 41152: fallthrough\n      : @1592 (gas: 5)\n 41153: u64 [s1] = a4\n 41155: u64 [s1 + 0x8] = a3\n 41158: u64 [s1 + 0x10] = a2\n 41161: u64 [s1 + 0x18] = a1\n 41164: t0 = 1742, jump @1976\n      : @1593 [@dyn 871] (gas: 1)\n 41170: ret\n      : @1594 [@dyn 872] (gas: 1)\n 41172: jump @1597 if a0 == 0\n      : @1595 (gas: 1)\n 41175: t0 = 1746, jump @1976\n      : @1596 [@dyn 873] (gas: 1)\n 41181: ret\n      : @1597 (gas: 3)\n 41183: a0 = sp + 0xa0\n 41187: a1 = 0x40\n 41190: ra = 1748, jump @17\n      : @1598 [@dyn 874] (gas: 1)\n 41197: t0 = 1750, jump @1952\n      : @1599 [@dyn 875] (gas: 1)\n 41203: jump @1612 if a0 != 0\n      : @1600 (gas: 1)\n 41206: t0 = 1752, jump @1959\n      : @1601 [@dyn 876] (gas: 1)\n 41212: ra = 1754, jump @19\n      : @1602 [@dyn 877] (gas: 1)\n 41219: t0 = 1756, jump @1951\n      : @1603 [@dyn 878] (gas: 1)\n 41225: jump @1612 if a0 == 0\n      : @1604 (gas: 1)\n 41228: t0 = 1758, jump @1963\n      : @1605 [@dyn 879] (gas: 1)\n 41234: ra = 1760, jump @19\n      : @1606 [@dyn 880] (gas: 1)\n 41241: t0 = 1762, jump @1958\n      : @1607 [@dyn 881] (gas: 1)\n 41247: jump @1612 if a0 == 0\n      : @1608 (gas: 1)\n 41250: t0 = 1764, jump @2023\n      : @1609 [@dyn 882] (gas: 4)\n 41256: u64 [sp + 64] = 0x13\n 41260: a1 = sp + 0x40\n 41263: u64 [sp + 72] = 0\n 41266: ra = 1766, jump @19\n      : @1610 [@dyn 883] (gas: 1)\n 41273: t0 = 1768, jump @1954\n      : @1611 [@dyn 884] (gas: 1)\n 41279: jump @1613 if a0 != 0\n      : @1612 (gas: 1)\n 41282: trap\n      : @1613 (gas: 11)\n 41283: s1 = u64 [sp + 0x18]\n 41286: i32 a0 = s1 + 0x44\n 41289: a1 = u64 [0x20198]\n 41294: a2 = u64 [0x201a0]\n 41299: u64 [sp + 0x38] = a1\n 41302: u64 [sp + 0x30] = a2\n 41305: a1 = 0x6c65640000000000\n 41315: u64 [sp + 0x28] = a1\n 41318: a1 = sp + 0x20\n 41321: u64 [sp + 32] = 0\n 41324: ra = 1770, jump @19\n      : @1614 [@dyn 885] (gas: 3)\n 41331: a1 = 0x64\n 41334: a0 = s1\n 41336: ra = 1772, jump @32\n      : @1615 [@dyn 886] (gas: 1)\n 41343: t0 = 1774, jump @1995\n      : @1616 [@dyn 887] (gas: 4)\n 41349: ra = 0x6f0\n 41353: ecalli 14 // 'seal_return'\n 41355: t0 = 0x6f2\n 41359: jump @1953\n      : @1617 [@dyn 888] (gas: 1)\n 41362: t0 = 1778, jump @1953\n      : @1618 [@dyn 889] (gas: 1)\n 41368: jump @1621 if a0 == 0\n      : @1619 (gas: 1)\n 41371: t0 = 1780, jump @1976\n      : @1620 [@dyn 890] (gas: 1)\n 41377: ret\n      : @1621 (gas: 3)\n 41379: a0 = sp + 0xa0\n 41383: a1 = 0x40\n 41386: ra = 1782, jump @17\n      : @1622 [@dyn 891] (gas: 1)\n 41393: t0 = 1784, jump @1952\n      : @1623 [@dyn 892] (gas: 1)\n 41399: jump @1635 if a0 != 0\n      : @1624 (gas: 1)\n 41402: t0 = 1786, jump @1959\n      : @1625 [@dyn 893] (gas: 1)\n 41408: ra = 1788, jump @19\n      : @1626 [@dyn 894] (gas: 1)\n 41415: t0 = 1790, jump @1951\n      : @1627 [@dyn 895] (gas: 1)\n 41421: jump @1635 if a0 == 0\n      : @1628 (gas: 1)\n 41424: t0 = 1792, jump @1963\n      : @1629 [@dyn 896] (gas: 1)\n 41430: ra = 1794, jump @19\n      : @1630 [@dyn 897] (gas: 1)\n 41437: t0 = 1796, jump @1958\n      : @1631 [@dyn 898] (gas: 1)\n 41443: jump @1635 if a0 == 0\n      : @1632 (gas: 8)\n 41446: s1 = u64 [sp + 0x18]\n 41449: i32 a0 = s1 + 0x24\n 41452: u64 [sp + 88] = 0\n 41455: u64 [sp + 80] = 0\n 41458: u64 [sp + 64] = 0x15\n 41462: a1 = sp + 0x40\n 41465: u64 [sp + 72] = 0\n 41468: ra = 1798, jump @19\n      : @1633 [@dyn 899] (gas: 1)\n 41475: t0 = 1800, jump @1954\n      : @1634 [@dyn 900] (gas: 1)\n 41481: jump @1636 if a0 != 0\n      : @1635 (gas: 1)\n 41484: trap\n      : @1636 (gas: 11)\n 41485: s1 = u64 [sp + 0x18]\n 41488: i32 a0 = s1 + 0x44\n 41491: a1 = u64 [0x201a8]\n 41496: a2 = u64 [0x201b0]\n 41501: u64 [sp + 0x38] = a1\n 41504: u64 [sp + 0x30] = a2\n 41507: a1 = 0x61696c6564000000\n 41517: u64 [sp + 0x28] = a1\n 41520: a1 = sp + 0x20\n 41523: u64 [sp + 32] = 0\n 41526: ra = 1802, jump @19\n      : @1637 [@dyn 901] (gas: 3)\n 41533: a1 = 0x64\n 41536: a0 = s1\n 41538: ra = 1804, jump @32\n      : @1638 [@dyn 902] (gas: 1)\n 41545: t0 = 1806, jump @1995\n      : @1639 [@dyn 903] (gas: 3)\n 41551: ra = 0x710\n 41555: ecalli 14 // 'seal_return'\n 41557: fallthrough\n      : @1640 [@dyn 904] (gas: 18)\n 41558: sp = sp + 0xfffffffffffff808\n 41562: a0 = sp + 0x700\n 41566: u64 [a0 + 0xf0] = ra\n 41570: u64 [a0 + 0xe8] = s0\n 41574: u64 [a0 + 0xe0] = s1\n 41578: s0 = sp + 0x7f8\n 41582: sp = sp + 0xfffffffffffff800\n 41586: sp = sp + 0xfffffffffffffb38\n 41590: sp = sp & 0xffffffffffffffe0\n 41593: s1 = sp\n 41595: a1 = s1 + 0x1118\n 41599: u64 [a1 + 160] = 0\n 41603: u64 [a1 + 152] = 0\n 41607: u64 [a1 + 144] = 0\n 41611: u64 [a1 + 136] = 0x4\n 41616: a0 = s1 + 0x1180\n 41620: a1 = s1 + 0x11a0\n 41624: ra = 1810, jump @21\n      : @1641 [@dyn 905] (gas: 16)\n 41631: a4 = s1 + 0x1118\n 41635: a0 = u64 [a4 + 0x80]\n 41639: a1 = u64 [a4 + 0x78]\n 41642: a2 = u64 [a4 + 0x70]\n 41645: a3 = u64 [a4 + 0x68]\n 41648: u64 [s1 + 0x68] = a0\n 41651: u64 [a4 + 0x60] = a0\n 41654: u64 [s1 + 0x60] = a1\n 41657: u64 [a4 + 0x58] = a1\n 41660: u64 [s1 + 0x58] = a2\n 41663: u64 [a4 + 0x50] = a2\n 41666: a1 = s1 + 0x1160\n 41670: u64 [s1 + 0x50] = a3\n 41673: u64 [a4 + 0x48] = a3\n 41676: a0 = 0\n 41678: ra = 1812, jump @19\n      : @1642 [@dyn 906] (gas: 9)\n 41685: a1 = s1 + 0x1118\n 41689: u64 [a1 + 64] = 0\n 41692: u64 [a1 + 56] = 0\n 41695: u64 [a1 + 40] = 0x3\n 41699: a2 = a1\n 41701: a0 = 0x20\n 41704: a1 = s1 + 0x1140\n 41708: u64 [a2 + 48] = 0\n 41711: ra = 1814, jump @19\n      : @1643 [@dyn 907] (gas: 3)\n 41718: a2 = 0x2025c\n 41723: a0 = i32 [0x2025c]\n 41728: jump @1645 if a0 >u 63\n      : @1644 (gas: 2)\n 41732: u32 [0x2025c] = 0x40\n 41738: fallthrough\n      : @1645 (gas: 41)\n 41739: u64 [s1 + 0x38] = a2\n 41742: a0 = sp + 0xffffffffffffffe0\n 41745: a2 = a0 & 0xffffffffffffffe0\n 41748: u64 [s1 + 0x178] = a2\n 41752: sp = a2\n 41754: a0 = 0x20270\n 41759: u64 [s1 + 0x30] = a0\n 41762: i32 a0 = a0 + 0\n 41764: i32 a2 = a2 + 0\n 41766: a1 = 0x40\n 41769: u64 [s1 + 0x40] = a0\n 41772: ecalli 9 // 'hash_keccak_256'\n 41774: a3 = u64 [s1 + 0x178]\n 41778: a0 = u64 [a3]\n 41780: a1 = u64 [a3 + 0x8]\n 41783: a2 = u64 [a3 + 0x10]\n 41786: a3 = u64 [a3 + 0x18]\n 41789: a4 = reverse a0\n 41791: u64 [s1 + 0x88] = a4\n 41795: a5 = reverse a1\n 41797: u64 [s1 + 0x80] = a5\n 41801: a2 = reverse a2\n 41803: u64 [s1 + 0x78] = a2\n 41806: a0 = reverse a3\n 41808: u64 [s1 + 0x70] = a0\n 41811: t0 = a0 + 0x11\n 41814: a1 = t0 <u a0\n 41817: a0 = a2 + a1\n 41820: a3 = a0 <u a2\n 41823: a3 = a1 if a1 == 0\n 41826: a3 = a3 + a5\n 41829: a1 = a3 <u a5\n 41832: a1 = a1 + a4\n 41835: a4 = s1 + 0x1118\n 41839: u64 [a4 + 0xa8] = t0\n 41843: u64 [a4 + 0xb0] = a0\n 41847: u64 [a4 + 0xb8] = a3\n 41851: u64 [a4 + 0xc0] = a1\n 41855: a0 = s1 + 0x1120\n 41859: a1 = s1 + 0x11c0\n 41863: ra = 1816, jump @21\n      : @1646 [@dyn 908] (gas: 18)\n 41870: a4 = s1 + 0x1118\n 41874: a0 = u64 [a4 + 0x20]\n 41877: a1 = u64 [a4 + 0x10]\n 41880: a2 = u64 [a4 + 0x8]\n 41883: a3 = u64 [a4 + 0x18]\n 41886: a0 = a0 | a1\n 41889: a1 = a2 ^ 0x10\n 41892: a1 = a1 | a3\n 41895: a0 = a0 | a1\n 41898: a0 = a0 <u 0x1\n 41901: u64 [a4 + 0] = 0\n 41903: u64 [a4 + 4294967288] = 0\n 41906: u64 [a4 + 0xffffffffffffffe8] = a0\n 41909: a0 = s1 + 0x1100\n 41913: u64 [a4 + 4294967280] = 0\n 41916: ra = 0x71a\n 41920: t0 = 0x676\n 41924: jump @1953\n      : @1647 [@dyn 909] (gas: 26)\n 41927: a0 = sp + 0xffffffffffffffe0\n 41930: a1 = a0 & 0xffffffffffffffe0\n 41933: sp = a1\n 41935: a0 = u64 [s1 + 0x70]\n 41938: a3 = a0 + 0x15\n 41941: a0 = a3 <u a0\n 41944: a2 = u64 [s1 + 0x78]\n 41947: a4 = a2 + a0\n 41950: a2 = a4 <u a2\n 41953: a2 = a0 if a0 == 0\n 41956: a0 = u64 [s1 + 0x80]\n 41960: a2 = a2 + a0\n 41963: a0 = a2 <u a0\n 41966: a5 = u64 [s1 + 0x88]\n 41970: a0 = a0 + a5\n 41973: u64 [s1 + 0x10] = a0\n 41976: u64 [a1 + 0x18] = a0\n 41979: u64 [s1 + 0x18] = a2\n 41982: u64 [a1 + 0x10] = a2\n 41985: u64 [s1 + 0x20] = a4\n 41988: u64 [a1 + 0x8] = a4\n 41991: u64 [s1 + 0x28] = a3\n 41994: u64 [a1] = a3\n 41996: a0 = s1 + 0x10e0\n 42000: u64 [s1 + 0x48] = a1\n 42003: ra = 1820, jump @21\n      : @1648 [@dyn 910] (gas: 12)\n 42010: a1 = s1 + 0x7ff\n 42014: a1 = a1 + 0xf9\n 42018: a0 = u8 [a1 + 0x7e8]\n 42022: a0 = a0 <u 0x1\n 42025: u64 [a1 + 2016] = 0\n 42029: u64 [a1 + 2008] = 0\n 42033: u64 [a1 + 0x7c8] = a0\n 42037: a0 = s1 + 0x10c0\n 42041: u64 [a1 + 2000] = 0\n 42045: ra = 0x71e\n 42049: t0 = 0x698\n 42053: jump @1953\n      : @1649 [@dyn 911] (gas: 22)\n 42056: a0 = sp + 0xffffffffffffffe0\n 42059: a1 = a0 & 0xffffffffffffffe0\n 42062: sp = a1\n 42064: a2 = u64 [s1 + 0x70]\n 42067: a0 = a2 + 0x13\n 42070: a4 = a0 <u a2\n 42073: a3 = u64 [s1 + 0x78]\n 42076: a2 = a3 + a4\n 42079: a3 = a2 <u a3\n 42082: a3 = a4 if a4 == 0\n 42085: a4 = u64 [s1 + 0x80]\n 42089: a3 = a3 + a4\n 42092: a4 = a3 <u a4\n 42095: a5 = u64 [s1 + 0x88]\n 42099: a4 = a4 + a5\n 42102: u64 [a1 + 0x18] = a4\n 42105: u64 [a1 + 0x10] = a3\n 42108: u64 [a1 + 0x8] = a2\n 42111: u64 [a1] = a0\n 42113: a0 = s1 + 0x10a0\n 42117: u64 [s1 + 0x8] = a1\n 42120: ra = 1824, jump @21\n      : @1650 [@dyn 912] (gas: 15)\n 42127: a0 = s1 + 0x7ff\n 42131: a0 = a0 + 0xf9\n 42135: a2 = a0 + 0x700\n 42139: a1 = u64 [a2 + 0xc0]\n 42143: u64 [s1 + 0x170] = a1\n 42147: a1 = u64 [a2 + 0xb8]\n 42151: u64 [s1 + 0x178] = a1\n 42155: a1 = u64 [a2 + 0xb0]\n 42159: u64 [s1 + 0x168] = a1\n 42163: a0 = u64 [a2 + 0xa8]\n 42167: u64 [s1 + 0x160] = a0\n 42171: a0 = s1 + 0x1000\n 42175: i32 a0 = a0 + 0x1e0\n 42179: ecalli 1 // 'block_number'\n 42181: fallthrough\n      : @1651 (gas: 21)\n 42182: t1 = u64 [s1 + 0x160]\n 42186: a5 = u64 [s1 + 0x168]\n 42190: t0 = u64 [s1 + 0x170]\n 42194: a3 = s1 + 0x1118\n 42198: a0 = u64 [a3 + 0xd0]\n 42202: a1 = u64 [a3 + 0xc8]\n 42206: t2 = u64 [a3 + 0xd8]\n 42210: a3 = u64 [a3 + 0xe0]\n 42214: a4 = a0 ^ a5\n 42217: a0 = a5 <u a0\n 42220: a1 = t1 <u a1\n 42223: a1 = a0 if a4 != 0\n 42226: a0 = a3 ^ t0\n 42229: a2 = t0 <u a3\n 42232: a3 = u64 [s1 + 0x178]\n 42236: a4 = a3 <u t2\n 42239: a4 = a2 if a0 != 0\n 42242: a2 = t2 ^ a3\n 42245: a0 = a0 | a2\n 42248: a1 = a4 if a0 != 0\n 42251: jump @1653 if a1 != 0\n      : @1652 (gas: 1)\n 42254: jump @1875\n      : @1653 (gas: 8)\n 42257: a0 = a5 + 0x1\n 42260: a1 = t1 <u 0xffffffffffffff01\n 42264: a1 = a1 ^ 0x1\n 42267: a1 = 0 if a0 != 0\n 42269: a0 = a3 & t0\n 42272: a0 = a0 + 0x1\n 42275: a1 = 0 if a0 != 0\n 42277: jump @1655 if a1 == 0\n      : @1654 (gas: 1)\n 42280: jump @1900\n      : @1655 (gas: 16)\n 42283: a0 = t1 + 0xff\n 42287: u64 [s1 + 0x158] = a0\n 42291: a0 = a0 <u t1\n 42294: a1 = a5 + a0\n 42297: u64 [s1 + 0x160] = a1\n 42301: a1 = a1 <u a5\n 42304: a1 = a0 if a0 == 0\n 42307: a1 = a1 + a3\n 42310: u64 [s1 + 0x168] = a1\n 42314: a0 = a1 <u a3\n 42317: a0 = a0 + t0\n 42320: u64 [s1 + 0x178] = a0\n 42324: a0 = s1 + 0x1000\n 42328: i32 a0 = a0 + 0x200\n 42332: ecalli 1 // 'block_number'\n 42334: fallthrough\n      : @1656 (gas: 21)\n 42335: a4 = s1 + 0x1118\n 42339: a0 = u64 [a4 + 0xe8]\n 42343: a1 = u64 [a4 + 0xf0]\n 42347: a2 = u64 [a4 + 0x100]\n 42351: a3 = u64 [s1 + 0x158]\n 42355: a0 = a3 <u a0\n 42358: a5 = u64 [s1 + 0x160]\n 42362: a3 = a1 ^ a5\n 42365: a1 = a5 <u a1\n 42368: a4 = u64 [a4 + 0xf8]\n 42372: a1 = a0 if a3 == 0\n 42375: a3 = u64 [s1 + 0x178]\n 42379: a0 = a2 ^ a3\n 42382: a2 = a3 <u a2\n 42385: a5 = u64 [s1 + 0x168]\n 42389: a3 = a5 <u a4\n 42392: a2 = a3 if a0 == 0\n 42395: a3 = a4 ^ a5\n 42398: a0 = a0 | a3\n 42401: a1 = a2 if a0 != 0\n 42404: jump @1658 if a1 == 0\n      : @1657 (gas: 1)\n 42407: jump @1887\n      : @1658 (gas: 15)\n 42410: a2 = s1 + 0x7ff\n 42414: a2 = a2 + 0xf9\n 42418: a0 = u64 [s1 + 0x50]\n 42421: a1 = a2 + 0x600\n 42425: u64 [a1 + 0xe8] = a0\n 42429: a0 = u64 [s1 + 0x58]\n 42432: u64 [a1 + 0xf0] = a0\n 42436: a0 = u64 [s1 + 0x60]\n 42439: u64 [a1 + 0xf8] = a0\n 42443: a1 = s1 + 0x7ff\n 42447: a1 = a1 + 0x7e1\n 42451: a0 = u64 [s1 + 0x68]\n 42454: u64 [a2 + 0x700] = a0\n 42458: a0 = 0\n 42460: ra = 1826, jump @19\n      : @1659 [@dyn 913] (gas: 3)\n 42467: a1 = s1 + 0x7ff\n 42471: a1 = a1 + 0xf9\n 42475: t0 = 1828, jump @2027\n      : @1660 [@dyn 914] (gas: 4)\n 42481: a1 = s1 + 0x7ff\n 42485: a1 = a1 + 0x7c1\n 42489: u64 [a2 + 1744] = 0\n 42493: ra = 1830, jump @19\n      : @1661 [@dyn 915] (gas: 3)\n 42500: a2 = u64 [s1 + 0x38]\n 42503: a0 = i32 [a2]\n 42505: jump @1663 if a0 >u 63\n      : @1662 (gas: 2)\n 42509: u32 [a2 + 0] = 0x40\n 42512: fallthrough\n      : @1663 (gas: 21)\n 42513: a0 = sp + 0xffffffffffffffe0\n 42516: a0 = a0 & 0xffffffffffffffe0\n 42519: u64 [s1 + 0x178] = a0\n 42523: sp = a0\n 42525: i32 a2 = a0 + 0\n 42527: a1 = 0x40\n 42530: a0 = u64 [s1 + 0x40]\n 42533: ecalli 9 // 'hash_keccak_256'\n 42535: a1 = u64 [s1 + 0x178]\n 42539: a0 = u64 [a1 + 0x18]\n 42542: u64 [s1 + 0x170] = a0\n 42546: a0 = u64 [a1 + 0x10]\n 42549: u64 [s1 + 0x168] = a0\n 42553: a0 = u64 [a1 + 0x8]\n 42556: u64 [s1 + 0x160] = a0\n 42560: a0 = u64 [a1]\n 42562: u64 [s1 + 0x178] = a0\n 42566: a0 = s1 + 0x7ff\n 42570: a0 = a0 + 0x7a1\n 42574: a1 = 0x40\n 42577: ra = 1832, jump @17\n      : @1664 [@dyn 916] (gas: 23)\n 42584: a2 = s1 + 0x7ff\n 42588: a2 = a2 + 0xf9\n 42592: a1 = u64 [a2 + 0x6c0]\n 42596: u64 [s1 + 0x110] = a1\n 42600: a3 = u64 [a2 + 0x6b8]\n 42604: u64 [s1 + 0x108] = a3\n 42608: a4 = u64 [a2 + 0x6b0]\n 42612: u64 [s1 + 0x118] = a4\n 42616: a5 = u64 [a2 + 0x6a8]\n 42620: u64 [s1 + 0x100] = a5\n 42624: u64 [a2 + 1664] = 0\n 42628: u64 [a2 + 1656] = 0\n 42632: u64 [a2 + 1648] = 0\n 42636: u64 [a2 + 1640] = 0x220\n 42642: u64 [a2 + 0x6a0] = a1\n 42646: u64 [a2 + 0x698] = a3\n 42650: u64 [a2 + 0x690] = a4\n 42654: a0 = s1 + 0x7ff\n 42658: a0 = a0 + 0x781\n 42662: a1 = s1 + 0x7ff\n 42666: a1 = a1 + 0x761\n 42670: u64 [a2 + 0x688] = a5\n 42674: ra = 1834, jump @1336\n      : @1665 [@dyn 917] (gas: 7)\n 42680: a4 = s1 + 0x100\n 42684: a0 = u64 [a4]\n 42686: a1 = u64 [a4 + 0x10]\n 42689: a2 = u64 [a4 + 0x18]\n 42692: a2 = a2 | a1\n 42695: a3 = u64 [a4 + 0x8]\n 42698: t0 = 1836, jump @2024\n      : @1666 [@dyn 918] (gas: 1)\n 42704: jump @1668 if a1 == 0\n      : @1667 (gas: 1)\n 42707: jump @1899\n      : @1668 (gas: 9)\n 42710: a3 = s1 + 0x7ff\n 42714: a3 = a3 + 0xf9\n 42718: u64 [a3 + 1632] = 0\n 42722: u64 [a3 + 1624] = 0\n 42726: u64 [a3 + 1616] = 0\n 42730: a1 = s1 + 0x7ff\n 42734: a1 = a1 + 0x741\n 42738: u64 [a3 + 1608] = 0x10\n 42743: ra = 1838, jump @19\n      : @1669 [@dyn 919] (gas: 11)\n 42750: a4 = s1 + 0x100\n 42754: a2 = u64 [a4]\n 42756: a0 = u64 [a4 + 0x10]\n 42759: a1 = u64 [a4 + 0x8]\n 42762: a0 = a0 | a1\n 42765: a1 = 0xffffffe0\n 42775: a1 = a2 <u a1\n 42778: a3 = u64 [a4 + 0x18]\n 42781: a1 = 0 if a3 != 0\n 42783: a1 = 0 if a0 != 0\n 42785: jump @1671 if a1 != 0\n      : @1670 (gas: 1)\n 42788: jump @1899\n      : @1671 (gas: 19)\n 42791: a0 = u64 [s1 + 0x178]\n 42795: a0 = reverse a0\n 42797: u64 [s1 + 0xa8] = a0\n 42801: a1 = u64 [s1 + 0x160]\n 42805: a1 = reverse a1\n 42807: u64 [s1 + 0xa0] = a1\n 42811: a1 = u64 [s1 + 0x168]\n 42815: a1 = reverse a1\n 42817: u64 [s1 + 0x98] = a1\n 42821: a1 = u64 [s1 + 0x170]\n 42825: a1 = reverse a1\n 42827: u64 [s1 + 0x90] = a1\n 42831: a0 = i32 [0x20258]\n 42836: u64 [s1 + 0x178] = a0\n 42840: a0 = 0xffffffff\n 42850: u64 [s1 + 0x158] = a0\n 42854: i32 a0 = a2 + 0x20\n 42857: a1 = 0x200\n 42861: ra = 1840, jump @32\n      : @1672 [@dyn 920] (gas: 13)\n 42868: i32 a0 = a0 + 0\n 42870: a1 = 0x200\n 42874: a2 = u64 [s1 + 0x178]\n 42878: ecalli 3 // 'call_data_copy'\n 42880: u64 [s1 + 328] = 0\n 42884: u64 [s1 + 312] = 0\n 42888: u64 [s1 + 320] = 0\n 42892: u64 [s1 + 336] = 0\n 42896: t1 = 0\n 42898: a5 = 0\n 42900: t2 = 0\n 42902: a4 = 0\n 42904: fallthrough\n      : @1673 (gas: 11)\n 42905: a3 = s1 + 0x1118\n 42909: a0 = a5 >u 0\n 42911: a1 = t1 <u 0x10\n 42914: a1 = a1 ^ 0x1\n 42917: a1 = a0 if a5 != 0\n 42920: a0 = t2 >u 0\n 42922: a2 = a4 >u 0\n 42924: a2 = a0 if a4 == 0\n 42927: a0 = t2 | a4\n 42930: a2 = a1 if a0 == 0\n 42933: jump @1698 if a2 != 0\n      : @1674 (gas: 24)\n 42937: a0 = sp + 0xffffffffffffffe0\n 42940: a0 = a0 & 0xffffffffffffffe0\n 42943: u64 [s1 + 0x170] = a0\n 42947: sp = a0\n 42949: u64 [s1 + 0xe0] = a4\n 42953: u64 [s1 + 0x3d8] = a4\n 42957: u64 [s1 + 0xd8] = t2\n 42961: u64 [s1 + 0x3d0] = t2\n 42965: u64 [s1 + 0xe8] = a5\n 42969: u64 [s1 + 0x3c8] = a5\n 42973: u64 [s1 + 0xf0] = t1\n 42977: u64 [s1 + 0x3c0] = t1\n 42981: a0 = u64 [s1 + 0xa8]\n 42985: u64 [s1 + 0x3f8] = a0\n 42989: a0 = u64 [s1 + 0xa0]\n 42993: u64 [s1 + 0x3f0] = a0\n 42997: a0 = u64 [s1 + 0x98]\n 43001: u64 [s1 + 0x3e8] = a0\n 43005: a0 = s1 + 0x400\n 43009: a1 = s1 + 0x3e0\n 43013: a2 = s1 + 0x3c0\n 43017: a3 = u64 [s1 + 0x90]\n 43021: u64 [s1 + 0x3e0] = a3\n 43025: ra = 1842, jump @1467\n      : @1675 [@dyn 921] (gas: 21)\n 43031: a4 = s1 + 0x400\n 43035: a0 = u64 [a4 + 0x38]\n 43038: u64 [s1 + 0x128] = a0\n 43042: a0 = u64 [a4 + 0x30]\n 43045: u64 [s1 + 0x120] = a0\n 43049: a0 = u64 [a4 + 0x28]\n 43052: u64 [s1 + 0xf8] = a0\n 43056: a0 = u64 [a4 + 0x20]\n 43059: u64 [s1 + 0x178] = a0\n 43063: a0 = u64 [a4 + 0x10]\n 43066: a1 = u64 [a4 + 0x18]\n 43069: a2 = u64 [a4]\n 43071: a3 = u64 [a4 + 0x8]\n 43074: a4 = u64 [s1 + 0x170]\n 43078: u64 [a4 + 0x10] = a0\n 43081: u64 [a4 + 0x18] = a1\n 43084: u64 [a4] = a2\n 43086: u64 [a4 + 0x8] = a3\n 43089: a1 = a4\n 43091: a0 = s1 + 0x3a0\n 43095: ra = 1844, jump @21\n      : @1676 [@dyn 922] (gas: 36)\n 43102: a2 = s1 + 0x300\n 43106: a0 = u64 [a2 + 0xa0]\n 43110: u64 [s1 + 0x160] = a0\n 43114: a0 = u64 [a2 + 0xa8]\n 43118: u64 [s1 + 0x130] = a0\n 43122: a0 = u64 [a2 + 0xb0]\n 43126: u64 [s1 + 0x170] = a0\n 43130: a1 = u64 [a2 + 0xb8]\n 43134: u64 [s1 + 0x168] = a1\n 43138: t2 = u64 [s1 + 0x178]\n 43142: a2 = t2 >> 0x3d\n 43145: a3 = u64 [s1 + 0xf8]\n 43149: a5 = a3 << 0x3\n 43152: t1 = a5 | a2\n 43155: a3 = a3 >> 0x3d\n 43158: a5 = u64 [s1 + 0x120]\n 43162: a2 = a5 << 0x3\n 43165: t0 = a2 | a3\n 43168: a2 = a5 >> 0x3d\n 43171: a3 = u64 [s1 + 0x128]\n 43175: a3 = a3 << 0x3\n 43178: a2 = a2 | a3\n 43181: t2 = t2 << 0x3\n 43184: u64 [s1 + 0x128] = t2\n 43188: a3 = t1 >u 0\n 43190: a4 = t2 <u 0x100\n 43194: a5 = a4 ^ 0x1\n 43197: a5 = a3 if t1 != 0\n 43200: a4 = a2 >u 0\n 43202: a3 = t0 >u 0\n 43204: a3 = a4 if a2 != 0\n 43207: a2 = t0 | a2\n 43210: a5 = a3 if a2 != 0\n 43213: u64 [s1 + 0x120] = a5\n 43217: i32 a2 = t2 + 0xffffffffffffff80\n 43220: ra = 1846, jump @2038\n      : @1677 [@dyn 923] (gas: 8)\n 43226: u64 [s1 + 0xd0] = a0\n 43230: u64 [s1 + 0xf8] = a1\n 43234: a0 = u64 [s1 + 0x178]\n 43238: i32 a2 = a0 << 0x3\n 43241: u64 [s1 + 0x178] = a2\n 43245: a0 = u64 [s1 + 0x160]\n 43249: a1 = u64 [s1 + 0x130]\n 43253: ra = 1848, jump @2038\n      : @1678 [@dyn 924] (gas: 7)\n 43259: u64 [s1 + 0xc0] = a0\n 43263: u64 [s1 + 0xc8] = a1\n 43267: a1 = u64 [s1 + 0x128]\n 43271: i32 a2 = 0x80 - a1\n 43275: a0 = u64 [s1 + 0x170]\n 43279: a1 = u64 [s1 + 0x168]\n 43283: ra = 1850, jump @2043\n      : @1679 [@dyn 925] (gas: 6)\n 43289: u64 [s1 + 0xb0] = a0\n 43293: u64 [s1 + 0xb8] = a1\n 43297: a0 = u64 [s1 + 0x170]\n 43301: a1 = u64 [s1 + 0x168]\n 43305: a2 = u64 [s1 + 0x178]\n 43309: ra = 1852, jump @2038\n      : @1680 [@dyn 926] (gas: 2)\n 43315: a1 = u64 [s1 + 0x120]\n 43319: jump @1697 if a1 != 0\n      : @1681 (gas: 30)\n 43323: a1 = u64 [s1 + 0xc0]\n 43327: a2 = u64 [s1 + 0xb0]\n 43331: a1 = a1 | a2\n 43334: a5 = u64 [s1 + 0x128]\n 43338: a2 = a5 <u 0x80\n 43342: a3 = u64 [s1 + 0xd0]\n 43346: a1 = a3 if a2 == 0\n 43349: a3 = u64 [s1 + 0x160]\n 43353: a3 = a1 if a5 != 0\n 43356: a1 = u64 [s1 + 0xc8]\n 43360: a4 = u64 [s1 + 0xb8]\n 43364: a1 = a1 | a4\n 43367: a4 = u64 [s1 + 0xf8]\n 43371: a1 = a4 if a2 == 0\n 43374: a4 = u64 [s1 + 0x130]\n 43378: a4 = a1 if a5 != 0\n 43381: a0 = 0 if a2 == 0\n 43383: a2 = a4 & 0xffffffffffffffff\n 43386: a1 = a3 & 0xffffffffffffffff\n 43389: t0 = u64 [s1 + 0x158]\n 43393: a0 = a0 & t0\n 43396: a4 = s1 + 0x100\n 43400: u64 [a4 + 0x30] = a0\n 43403: u64 [a4 + 0x20] = a1\n 43406: a0 = a0 | a1\n 43409: u64 [a4 + 0x28] = a2\n 43412: a0 = a0 | a2\n 43415: t2 = u64 [s1 + 0x118]\n 43419: a3 = u64 [a4 + 0x50]\n 43422: jump @1697 if a0 == 0\n      : @1682 (gas: 5)\n 43426: a4 = 0\n 43428: a5 = 0\n 43430: u64 [s1 + 368] = 0\n 43434: u64 [s1 + 376] = 0\n 43438: fallthrough\n      : @1683 (gas: 19)\n 43439: t0 = u64 [s1 + 0x148]\n 43443: u64 [s1 + 0x168] = a4\n 43447: a0 = a4 <u t0\n 43450: a4 = u64 [s1 + 0x138]\n 43454: a1 = a5 ^ a4\n 43457: u64 [s1 + 0x160] = a5\n 43461: a2 = a5 <u a4\n 43464: a2 = a0 if a1 == 0\n 43467: a5 = u64 [s1 + 0x140]\n 43471: a0 = u64 [s1 + 0x170]\n 43475: ra = a0 <u a5\n 43478: a1 = u64 [s1 + 0x178]\n 43482: t1 = a1 ^ a3\n 43485: a3 = a1 <u a3\n 43488: a3 = ra if t1 == 0\n 43491: a0 = a0 ^ a5\n 43494: a0 = a0 | t1\n 43497: a3 = a2 if a0 == 0\n 43500: jump @1691 if a3 == 0\n      : @1684 (gas: 20)\n 43504: a4 = s1 + 0x100\n 43508: a0 = u64 [a4 + 0x68]\n 43511: u64 [s1 + 0x280] = a0\n 43515: a0 = u64 [a4]\n 43517: u64 [s1 + 0x2a0] = a0\n 43521: a0 = u64 [a4 + 0x60]\n 43524: u64 [s1 + 0x288] = a0\n 43528: u64 [s1 + 0x2a8] = t2\n 43532: a0 = u64 [a4 + 0x70]\n 43535: u64 [s1 + 0x290] = a0\n 43539: a0 = u64 [a4 + 0x8]\n 43542: u64 [s1 + 0x2b0] = a0\n 43546: a0 = u64 [a4 + 0x78]\n 43549: u64 [s1 + 0x298] = a0\n 43553: a0 = s1 + 0x2c0\n 43557: a1 = s1 + 0x2a0\n 43561: a2 = s1 + 0x280\n 43565: a3 = u64 [a4 + 0x10]\n 43568: u64 [s1 + 0x2b8] = a3\n 43572: ra = 1854, jump @1921\n      : @1685 [@dyn 927] (gas: 6)\n 43578: a4 = s1 + 0x200\n 43582: a0 = u64 [a4 + 0xd8]\n 43586: a2 = u64 [a4 + 0xd0]\n 43590: a3 = u64 [a4 + 0xc8]\n 43594: a1 = u64 [a4 + 0xc0]\n 43598: t0 = 1856, jump @1985\n      : @1686 [@dyn 928] (gas: 1)\n 43604: jump @1688 if a0 == 0\n      : @1687 (gas: 1)\n 43607: jump @1899\n      : @1688 (gas: 2)\n 43610: a0 = s1 + 0x260\n 43614: ra = 1858, jump @17\n      : @1689 [@dyn 929] (gas: 34)\n 43621: a3 = s1 + 0x200\n 43625: a0 = u64 [a3 + 0x60]\n 43628: a1 = u64 [a3 + 0x70]\n 43631: a2 = u64 [a3 + 0x68]\n 43634: a0 = a0 & 0xffffffffffffffff\n 43637: t0 = u64 [s1 + 0x158]\n 43641: a1 = a1 & t0\n 43644: a4 = u64 [s1 + 0x130]\n 43648: a1 = a1 ^ a4\n 43651: a4 = u64 [s1 + 0x120]\n 43655: a0 = a0 ^ a4\n 43658: a0 = a0 | a1\n 43661: a1 = a2 & 0xffffffffffffffff\n 43664: a2 = u64 [s1 + 0x128]\n 43668: a1 = a1 ^ a2\n 43671: a0 = a0 | a1\n 43674: a4 = u64 [s1 + 0x168]\n 43678: a4 = a4 + 0x1\n 43681: a1 = a4 <u 0x1\n 43684: a5 = u64 [s1 + 0x160]\n 43688: a5 = a5 + a1\n 43691: a1 = a4 | a5\n 43694: a1 = a1 <u 0x1\n 43697: a2 = u64 [s1 + 0x170]\n 43701: a1 = a1 + a2\n 43704: a2 = a1 <u a2\n 43707: a3 = u64 [s1 + 0x178]\n 43711: a3 = a3 + a2\n 43714: a2 = s1 + 0x100\n 43718: u64 [a2 + 0x78] = a3\n 43721: u64 [a2 + 0x70] = a1\n 43724: t2 = u64 [s1 + 0x118]\n 43728: a3 = u64 [a2 + 0x50]\n 43731: jump @1683 if a0 != 0\n      : @1690 (gas: 1)\n 43735: jump @1697\n      : @1691 (gas: 19)\n 43738: u64 [s1 + 0x340] = t0\n 43742: a0 = u64 [s1 + 0x100]\n 43746: u64 [s1 + 0x360] = a0\n 43750: u64 [s1 + 0x348] = a4\n 43754: u64 [s1 + 0x368] = t2\n 43758: u64 [s1 + 0x350] = a5\n 43762: a0 = u64 [s1 + 0x108]\n 43766: u64 [s1 + 0x370] = a0\n 43770: a0 = u64 [s1 + 0x150]\n 43774: u64 [s1 + 0x358] = a0\n 43778: a0 = s1 + 0x380\n 43782: a1 = s1 + 0x360\n 43786: a2 = s1 + 0x340\n 43790: a3 = u64 [s1 + 0x110]\n 43794: u64 [s1 + 0x378] = a3\n 43798: u64 [s1 + 0x148] = t0\n 43802: u64 [s1 + 0x140] = a5\n 43806: u64 [s1 + 0x138] = a4\n 43810: ra = 1860, jump @1921\n      : @1692 [@dyn 930] (gas: 13)\n 43816: a4 = s1 + 0x300\n 43820: a1 = u64 [a4 + 0x98]\n 43824: a2 = u64 [a4 + 0x90]\n 43828: a3 = u64 [a4 + 0x88]\n 43832: a0 = u64 [a4 + 0x80]\n 43836: a1 = a1 | a3\n 43839: a3 = a0 | a2\n 43842: a3 = a3 | a1\n 43845: a3 = a3 >> 0x20\n 43848: a1 = a1 | a2\n 43851: a1 = a1 << 0x20\n 43854: a1 = a1 | a3\n 43857: jump @1694 if a1 == 0\n      : @1693 (gas: 1)\n 43860: jump @1899\n      : @1694 (gas: 9)\n 43863: u64 [s1 + 824] = 0\n 43867: a1 = u64 [s1 + 0x120]\n 43871: u64 [s1 + 0x320] = a1\n 43875: a1 = u64 [s1 + 0x128]\n 43879: u64 [s1 + 0x328] = a1\n 43883: a1 = s1 + 0x320\n 43887: a2 = u64 [s1 + 0x130]\n 43891: u64 [s1 + 0x330] = a2\n 43895: ra = 1862, jump @19\n      : @1695 [@dyn 931] (gas: 12)\n 43902: a0 = u64 [s1 + 0x150]\n 43906: a3 = s1 + 0x200\n 43910: u64 [a3 + 0xf8] = a0\n 43914: a0 = u64 [s1 + 0x140]\n 43918: u64 [a3 + 0xf0] = a0\n 43922: a0 = u64 [s1 + 0x138]\n 43926: u64 [a3 + 0xe8] = a0\n 43930: a0 = s1 + 0x300\n 43934: a1 = s1 + 0x2e0\n 43938: a2 = u64 [s1 + 0x148]\n 43942: u64 [a3 + 0xe0] = a2\n 43946: ra = 1864, jump @1511\n      : @1696 [@dyn 932] (gas: 11)\n 43952: a1 = s1 + 0x300\n 43956: a0 = u64 [a1 + 0x18]\n 43959: a2 = s1 + 0x100\n 43963: u64 [a2 + 0x50] = a0\n 43966: a0 = u64 [a1 + 0x10]\n 43969: u64 [a2 + 0x40] = a0\n 43972: a0 = u64 [a1 + 0x8]\n 43975: u64 [a2 + 0x38] = a0\n 43978: a0 = u64 [a1]\n 43980: u64 [a2 + 0x48] = a0\n 43983: fallthrough\n      : @1697 (gas: 14)\n 43984: t1 = u64 [s1 + 0xf0]\n 43988: t1 = t1 + 0x1\n 43991: a0 = t1 <u 0x1\n 43994: a5 = u64 [s1 + 0xe8]\n 43998: a5 = a5 + a0\n 44001: a0 = t1 | a5\n 44004: a0 = a0 <u 0x1\n 44007: a1 = u64 [s1 + 0xd8]\n 44011: a0 = a0 + a1\n 44014: a1 = a0 <u a1\n 44017: a4 = u64 [s1 + 0xe0]\n 44021: a4 = a4 + a1\n 44024: t2 = a0\n 44026: jump @1673\n      : @1698 (gas: 8)\n 44029: u64 [a3 + 288] = 0\n 44033: u64 [a3 + 280] = 0\n 44037: u64 [a3 + 272] = 0\n 44041: u64 [a3 + 264] = 0x2\n 44046: a0 = s1 + 0x7ff\n 44050: a0 = a0 + 0x721\n 44054: a1 = s1 + 0x1220\n 44058: ra = 1866, jump @21\n      : @1699 [@dyn 933] (gas: 23)\n 44065: a3 = s1 + 0x7ff\n 44069: a3 = a3 + 0xf9\n 44073: a1 = a3 + 0x600\n 44077: a0 = u64 [a1 + 0x40]\n 44080: t0 = u64 [a3 + 0x628]\n 44084: a2 = u64 [a1 + 0x38]\n 44087: a3 = u64 [a1 + 0x30]\n 44090: a1 = u64 [s1 + 0x150]\n 44094: a4 = a1 ^ a0\n 44097: a1 = a1 <u a0\n 44100: a0 = u64 [s1 + 0x140]\n 44104: a5 = a0 <u a2\n 44107: a5 = a1 if a4 != 0\n 44110: a1 = u64 [s1 + 0x138]\n 44114: t1 = a1 ^ a3\n 44117: a3 = a1 <u a3\n 44120: a1 = u64 [s1 + 0x148]\n 44124: a1 = a1 <u t0\n 44127: a1 = a3 if t1 != 0\n 44130: a0 = a0 ^ a2\n 44133: a0 = a0 | a4\n 44136: a1 = a5 if a0 != 0\n 44139: jump @1780 if a1 == 0\n      : @1700 (gas: 4)\n 44143: a0 = s1 + 0x7ff\n 44147: a0 = a0 + 0x261\n 44151: a1 = 0x40\n 44154: ra = 1868, jump @17\n      : @1701 [@dyn 934] (gas: 24)\n 44161: a2 = s1 + 0x7ff\n 44165: a2 = a2 + 0xf9\n 44169: a0 = u64 [a2 + 0x180]\n 44173: u64 [s1 + 0x170] = a0\n 44177: a1 = u64 [a2 + 0x178]\n 44181: u64 [s1 + 0x168] = a1\n 44185: a3 = u64 [a2 + 0x170]\n 44189: u64 [s1 + 0x178] = a3\n 44193: a4 = u64 [a2 + 0x168]\n 44197: u64 [s1 + 0x48] = a4\n 44200: u64 [a2 + 320] = 0\n 44204: u64 [a2 + 312] = 0\n 44208: u64 [a2 + 304] = 0\n 44212: u64 [a2 + 296] = 0x40\n 44217: a5 = a2 + 0x100\n 44221: u64 [a5 + 0x60] = a0\n 44224: u64 [a5 + 0x58] = a1\n 44227: u64 [a5 + 0x50] = a3\n 44230: a0 = s1 + 0x7ff\n 44234: a0 = a0 + 0x241\n 44238: a1 = s1 + 0x7ff\n 44242: a1 = a1 + 0x221\n 44246: u64 [a5 + 0x48] = a4\n 44249: ra = 1870, jump @1336\n      : @1702 [@dyn 935] (gas: 7)\n 44255: a0 = u64 [s1 + 0x48]\n 44258: a4 = s1 + 0x100\n 44262: a1 = u64 [a4 + 0x70]\n 44265: a2 = u64 [a4 + 0x78]\n 44268: a2 = a2 | a1\n 44271: a3 = u64 [a4 + 0x68]\n 44274: t0 = 1872, jump @2024\n      : @1703 [@dyn 936] (gas: 1)\n 44280: jump @1705 if a1 == 0\n      : @1704 (gas: 1)\n 44283: jump @1899\n      : @1705 (gas: 9)\n 44286: a3 = s1 + 0x7ff\n 44290: a3 = a3 + 0xf9\n 44294: u64 [a3 + 288] = 0\n 44298: u64 [a3 + 280] = 0\n 44302: u64 [a3 + 272] = 0\n 44306: a1 = s1 + 0x7ff\n 44310: a1 = a1 + 0x201\n 44314: u64 [a3 + 264] = 0x12\n 44319: ra = 1874, jump @19\n      : @1706 [@dyn 937] (gas: 11)\n 44326: a2 = u64 [s1 + 0x48]\n 44329: a4 = s1 + 0x100\n 44333: a0 = u64 [a4 + 0x70]\n 44336: a1 = u64 [a4 + 0x68]\n 44339: a0 = a0 | a1\n 44342: a1 = 0xffffffe0\n 44352: a1 = a2 <u a1\n 44355: a3 = u64 [a4 + 0x78]\n 44358: a1 = 0 if a3 != 0\n 44360: a1 = 0 if a0 != 0\n 44362: jump @1708 if a1 != 0\n      : @1707 (gas: 1)\n 44365: jump @1899\n      : @1708 (gas: 14)\n 44368: i32 a0 = a2 + 0x20\n 44371: a2 = u64 [0x201e8]\n 44376: a1 = u64 [0x201f0]\n 44381: a3 = s1 + 0x7ff\n 44385: a3 = a3 + 0xf9\n 44389: u64 [a3 + 232] = 0\n 44393: u64 [a3 + 0x100] = a2\n 44397: u64 [a3 + 0xf8] = a1\n 44401: a2 = 0x7273000000000000\n 44411: a1 = s1 + 0x7ff\n 44415: a1 = a1 + 0x1e1\n 44419: u64 [a3 + 0xf0] = a2\n 44423: u64 [s1 + 0x40] = a0\n 44426: ra = 1876, jump @19\n      : @1709 [@dyn 938] (gas: 14)\n 44433: a0 = u64 [s1 + 0x68]\n 44436: a2 = s1 + 0x7ff\n 44440: a2 = a2 + 0xf9\n 44444: u64 [a2 + 0xe0] = a0\n 44448: a0 = u64 [s1 + 0x60]\n 44451: u64 [a2 + 0xd8] = a0\n 44455: a0 = u64 [s1 + 0x58]\n 44458: u64 [a2 + 0xd0] = a0\n 44462: a1 = s1 + 0x7ff\n 44466: a1 = a1 + 0x1c1\n 44470: a0 = u64 [s1 + 0x50]\n 44473: u64 [a2 + 0xc8] = a0\n 44477: a0 = 0\n 44479: ra = 1878, jump @19\n      : @1710 [@dyn 939] (gas: 11)\n 44486: a1 = s1 + 0x7ff\n 44490: a1 = a1 + 0xf9\n 44494: u64 [a1 + 192] = 0\n 44498: u64 [a1 + 184] = 0\n 44502: u64 [a1 + 168] = 0x3\n 44507: a2 = a1\n 44509: a0 = 0x20\n 44512: a1 = s1 + 0x7ff\n 44516: a1 = a1 + 0x1a1\n 44520: u64 [a2 + 176] = 0\n 44524: ra = 1880, jump @19\n      : @1711 [@dyn 940] (gas: 3)\n 44531: a1 = 0x40\n 44534: a0 = 0\n 44536: ra = 1882, jump @32\n      : @1712 [@dyn 941] (gas: 60)\n 44543: a1 = sp + 0xffffffffffffffe0\n 44546: a1 = a1 & 0xffffffffffffffe0\n 44549: u64 [s1 + 0x178] = a1\n 44553: sp = a1\n 44555: i32 a0 = a0 + 0\n 44557: i32 a2 = a1 + 0\n 44559: a1 = 0x40\n 44562: ecalli 9 // 'hash_keccak_256'\n 44564: a5 = s1 + 0x100\n 44568: a3 = u64 [a5 + 0x78]\n 44571: a1 = u64 [a3 + 0x10]\n 44574: a0 = u64 [a3 + 0x18]\n 44577: t0 = 0\n 44579: t1 = 0\n 44581: t2 = 0\n 44583: ra = 0\n 44585: a1 = reverse a1\n 44587: a0 = reverse a0\n 44589: a2 = a0 + 0x10\n 44592: u64 [a5 + 0x38] = a0\n 44595: u64 [s1 + 0xc8] = a2\n 44599: a0 = a2 <u a0\n 44602: a2 = a1 + a0\n 44605: u64 [a5 + 0x40] = a1\n 44608: u64 [s1 + 0xc0] = a2\n 44612: a1 = a2 <u a1\n 44615: a1 = a0 if a0 == 0\n 44618: a0 = u64 [a3 + 0x8]\n 44621: a2 = u64 [a3]\n 44623: a3 = s1 + 0x1280\n 44627: a3 = a3 << 0x20\n 44630: a3 = a3 >> 0x20\n 44633: a4 = s1 + 0x12c0\n 44637: a4 = a4 << 0x20\n 44640: a3 = a3 | a4\n 44643: u64 [s1 + 0x98] = a3\n 44647: a2 = reverse a2\n 44649: a3 = reverse a0\n 44651: a4 = 0x30270\n 44656: a1 = a1 + a3\n 44659: u64 [a5 + 0x28] = a3\n 44662: u64 [s1 + 0xb8] = a1\n 44666: a0 = a1 <u a3\n 44669: u64 [a5 + 0x30] = a2\n 44672: a0 = a0 + a2\n 44675: u64 [s1 + 0xb0] = a0\n 44679: u64 [s1 + 0x90] = a4\n 44683: a0 = a4 << 0x20\n 44686: a0 = a0 >> 0x20\n 44689: u64 [s1 + 0x88] = a0\n 44693: a0 = u64 [s1 + 0x30]\n 44696: a0 = a0 << 0x20\n 44699: a1 = a0 >> 0x20\n 44702: a0 = s1 + 0x12a0\n 44706: a0 = a0 << 0x20\n 44709: u64 [s1 + 0x80] = a1\n 44713: a0 = a0 | a1\n 44716: u64 [s1 + 0x78] = a0\n 44719: u64 [s1 + 112] = 0x8fc\n 44724: fallthrough\n      : @1713 (gas: 14)\n 44725: a0 = t1 >u 0\n 44727: a1 = t0 <u 0x10\n 44730: a1 = a1 ^ 0x1\n 44733: a1 = a0 if t1 != 0\n 44736: a0 = t2 >u 0\n 44738: a2 = ra >u 0\n 44740: a2 = a0 if ra == 0\n 44743: a0 = t2 | ra\n 44746: a2 = a1 if a0 == 0\n 44749: a0 = sp + 0xffffffffffffffe0\n 44752: a5 = a0 & 0xffffffffffffffe0\n 44755: sp = a5\n 44757: u64 [s1 + 0x148] = a5\n 44761: jump @1715 if a2 == 0\n      : @1714 (gas: 1)\n 44764: jump @1822\n      : @1715 (gas: 31)\n 44767: u64 [s1 + 0x178] = t0\n 44771: a0 = s1 + 0x1000\n 44775: u64 [a0 + 0xfffffffffffff820] = t0\n 44779: a0 = u64 [s1 + 0x138]\n 44783: a1 = s1 + 0x1000\n 44787: u64 [a1 + 0xfffffffffffff840] = a0\n 44791: u64 [s1 + 0x170] = t1\n 44795: a0 = s1 + 0x1000\n 44799: u64 [a0 + 0xfffffffffffff828] = t1\n 44803: a0 = u64 [s1 + 0x140]\n 44807: a1 = s1 + 0x1000\n 44811: u64 [a1 + 0xfffffffffffff848] = a0\n 44815: u64 [s1 + 0x160] = t2\n 44819: a0 = s1 + 0x1000\n 44823: u64 [a0 + 0xfffffffffffff830] = t2\n 44827: a0 = u64 [s1 + 0x128]\n 44831: a1 = s1 + 0x1000\n 44835: u64 [a1 + 0xfffffffffffff850] = a0\n 44839: u64 [s1 + 0x168] = ra\n 44843: a0 = s1 + 0x1000\n 44847: u64 [a0 + 0xfffffffffffff838] = ra\n 44851: a0 = s1 + 0x7ff\n 44855: a0 = a0 + 0x61\n 44858: a1 = s1 + 0x7ff\n 44862: a1 = a1 + 0x41\n 44865: a2 = s1 + 0x7ff\n 44869: a2 = a2 + 0x21\n 44872: a3 = u64 [s1 + 0x130]\n 44876: a4 = s1 + 0x1000\n 44880: u64 [a4 + 0xfffffffffffff858] = a3\n 44884: ra = 1884, jump @1467\n      : @1716 [@dyn 942] (gas: 29)\n 44890: a0 = s1 + 0x1000\n 44894: a0 = u64 [a0 + 0xfffffffffffff898]\n 44898: u64 [s1 + 0x120] = a0\n 44902: a0 = s1 + 0x1000\n 44906: a0 = u64 [a0 + 0xfffffffffffff890]\n 44910: u64 [s1 + 0x118] = a0\n 44914: a0 = s1 + 0x1000\n 44918: a0 = u64 [a0 + 0xfffffffffffff888]\n 44922: u64 [s1 + 0x110] = a0\n 44926: a0 = s1 + 0x1000\n 44930: a0 = u64 [a0 + 0xfffffffffffff880]\n 44934: u64 [s1 + 0x150] = a0\n 44938: a0 = s1 + 0x1000\n 44942: a0 = u64 [a0 + 0xfffffffffffff870]\n 44946: a1 = s1 + 0x1000\n 44950: a1 = u64 [a1 + 0xfffffffffffff878]\n 44954: a2 = s1 + 0x1000\n 44958: a2 = u64 [a2 + 0xfffffffffffff860]\n 44962: a3 = s1 + 0x1000\n 44966: a3 = u64 [a3 + 0xfffffffffffff868]\n 44970: a4 = u64 [s1 + 0x148]\n 44974: u64 [a4 + 0x10] = a0\n 44977: u64 [a4 + 0x18] = a1\n 44980: u64 [a4] = a2\n 44982: u64 [a4 + 0x8] = a3\n 44985: a1 = a4\n 44987: a0 = s1 + 0x7ff\n 44991: a0 = a0 + 0x1\n 44994: ra = 1886, jump @21\n      : @1717 [@dyn 943] (gas: 28)\n 45001: a0 = s1 + 0x1000\n 45005: a0 = u64 [a0 + 0xfffffffffffff800]\n 45009: u64 [s1 + 0x108] = a0\n 45013: a0 = s1 + 0x1000\n 45017: a0 = u64 [a0 + 0xfffffffffffff808]\n 45021: u64 [s1 + 0x100] = a0\n 45025: a0 = s1 + 0x1000\n 45029: a0 = u64 [a0 + 0xfffffffffffff810]\n 45033: u64 [s1 + 0xf8] = a0\n 45037: a0 = s1 + 0x1000\n 45041: a0 = u64 [a0 + 0xfffffffffffff818]\n 45045: u64 [s1 + 0xf0] = a0\n 45049: a5 = u64 [s1 + 0x150]\n 45053: a0 = a5 >> 0x3d\n 45056: a2 = u64 [s1 + 0x110]\n 45060: a1 = a2 << 0x3\n 45063: a0 = a0 | a1\n 45066: a1 = a2 >> 0x3d\n 45069: a3 = u64 [s1 + 0x118]\n 45073: a2 = a3 << 0x3\n 45076: a1 = a1 | a2\n 45079: a2 = a3 >> 0x3d\n 45082: a3 = u64 [s1 + 0x120]\n 45086: a3 = a3 << 0x3\n 45089: a2 = a2 | a3\n 45092: a5 = a5 << 0x3\n 45095: u64 [s1 + 0x148] = a5\n 45099: t0 = 1888, jump @1966\n      : @1718 [@dyn 944] (gas: 5)\n 45105: u64 [s1 + 0x120] = a4\n 45109: i32 a2 = a5 + 0xffffffffffffff80\n 45112: a0 = 0xffffffffffffffff\n 45115: a1 = 0xffffffffffffffff\n 45118: ra = 1890, jump @2043\n      : @1719 [@dyn 945] (gas: 8)\n 45124: u64 [s1 + 0x110] = a0\n 45128: u64 [s1 + 0x118] = a1\n 45132: a0 = u64 [s1 + 0x150]\n 45136: i32 a2 = a0 << 0x3\n 45139: u64 [s1 + 0x150] = a2\n 45143: a0 = u64 [s1 + 0x158]\n 45147: a1 = 0\n 45149: ra = 1892, jump @2043\n      : @1720 [@dyn 946] (gas: 7)\n 45155: u64 [s1 + 0xe0] = a0\n 45159: u64 [s1 + 0xe8] = a1\n 45163: a1 = u64 [s1 + 0x148]\n 45167: i32 a2 = 0x80 - a1\n 45171: a0 = 0xffffffffffffffff\n 45174: a1 = 0xffffffffffffffff\n 45177: ra = 1894, jump @2038\n      : @1721 [@dyn 947] (gas: 6)\n 45183: u64 [s1 + 0xd0] = a0\n 45187: u64 [s1 + 0xd8] = a1\n 45191: a0 = 0xffffffffffffffff\n 45194: a1 = 0xffffffffffffffff\n 45197: a2 = u64 [s1 + 0x150]\n 45201: ra = 1896, jump @2043\n      : @1722 [@dyn 948] (gas: 2)\n 45207: a2 = u64 [s1 + 0x120]\n 45211: jump @1779 if a2 != 0\n      : @1723 (gas: 29)\n 45215: a2 = u64 [s1 + 0xe0]\n 45219: a3 = u64 [s1 + 0xd0]\n 45223: a2 = a2 | a3\n 45226: t0 = u64 [s1 + 0x148]\n 45230: a3 = t0 <u 0x80\n 45234: a4 = u64 [s1 + 0x110]\n 45238: a2 = a4 if a3 == 0\n 45241: a4 = u64 [s1 + 0xe8]\n 45245: a5 = u64 [s1 + 0xd8]\n 45249: a4 = a4 | a5\n 45252: a5 = u64 [s1 + 0x118]\n 45256: a4 = a5 if a3 == 0\n 45259: a5 = u64 [s1 + 0x158]\n 45263: a2 = a5 if t0 == 0\n 45266: a4 = 0 if t0 == 0\n 45268: a0 = 0 if a3 == 0\n 45270: a1 = 0 if a3 == 0\n 45272: a3 = u64 [s1 + 0xf0]\n 45276: a3 = a3 & a4\n 45279: a4 = u64 [s1 + 0xf8]\n 45283: a2 = a2 & a4\n 45286: a4 = u64 [s1 + 0x100]\n 45290: a1 = a1 & a4\n 45293: a4 = u64 [s1 + 0x108]\n 45297: a0 = a0 & a4\n 45300: a0 = a0 | a2\n 45303: a1 = a1 | a3\n 45306: a0 = a0 | a1\n 45309: jump @1779 if a0 == 0\n      : @1724 (gas: 8)\n 45313: a0 = s1 + 0x1118\n 45317: u64 [a0 + 320] = 0\n 45321: u64 [a0 + 312] = 0\n 45325: u64 [a0 + 304] = 0\n 45329: u64 [a0 + 296] = 0\n 45333: a0 = s1 + 0x7e0\n 45337: a1 = s1 + 0x1240\n 45341: ra = 1898, jump @21\n      : @1725 [@dyn 949] (gas: 9)\n 45348: a0 = u64 [s1 + 0x7e0]\n 45352: u64 [s1 + 0x100] = a0\n 45356: a0 = u64 [s1 + 0x7e8]\n 45360: u64 [s1 + 0xf8] = a0\n 45364: a0 = u64 [s1 + 0x7f0]\n 45368: u64 [s1 + 0xf0] = a0\n 45372: a0 = u64 [s1 + 0x7f8]\n 45376: u64 [s1 + 0xe8] = a0\n 45380: t0 = 1900, jump @2013\n      : @1726 [@dyn 950] (gas: 19)\n 45386: u64 [s1 + 0x778] = a0\n 45390: a0 = u64 [s1 + 0x160]\n 45394: u64 [s1 + 0x770] = a0\n 45398: a0 = u64 [s1 + 0x170]\n 45402: u64 [s1 + 0x768] = a0\n 45406: a0 = u64 [s1 + 0x178]\n 45410: u64 [s1 + 0x760] = a0\n 45414: a0 = u64 [s1 + 0x130]\n 45418: u64 [s1 + 0x798] = a0\n 45422: a0 = u64 [s1 + 0x128]\n 45426: u64 [s1 + 0x790] = a0\n 45430: a0 = u64 [s1 + 0x140]\n 45434: u64 [s1 + 0x788] = a0\n 45438: a0 = s1 + 0x7a0\n 45442: a1 = s1 + 0x780\n 45446: a2 = s1 + 0x760\n 45450: a3 = u64 [s1 + 0x138]\n 45454: u64 [s1 + 0x780] = a3\n 45458: ra = 1902, jump @1467\n      : @1727 [@dyn 951] (gas: 13)\n 45464: a0 = u64 [s1 + 0x7d8]\n 45468: u64 [s1 + 0x110] = a0\n 45472: a0 = u64 [s1 + 0x7d0]\n 45476: u64 [s1 + 0xe0] = a0\n 45480: a0 = u64 [s1 + 0x7c8]\n 45484: u64 [s1 + 0xd8] = a0\n 45488: a0 = u64 [s1 + 0x7c0]\n 45492: u64 [s1 + 0x108] = a0\n 45496: a0 = u64 [s1 + 0x7b0]\n 45500: a1 = u64 [s1 + 0x7b8]\n 45504: a2 = u64 [s1 + 0x7a0]\n 45508: a3 = u64 [s1 + 0x7a8]\n 45512: t0 = 1904, jump @2025\n      : @1728 [@dyn 952] (gas: 2)\n 45518: a0 = s1 + 0x740\n 45522: ra = 1906, jump @21\n      : @1729 [@dyn 953] (gas: 8)\n 45529: a0 = u64 [s1 + 0x740]\n 45533: u64 [s1 + 0x148] = a0\n 45537: a0 = u64 [s1 + 0x748]\n 45541: u64 [s1 + 0x150] = a0\n 45545: a0 = u64 [s1 + 0x750]\n 45549: u64 [s1 + 0x120] = a0\n 45553: a1 = u64 [s1 + 0x758]\n 45557: t0 = 1908, jump @1978\n      : @1730 [@dyn 954] (gas: 19)\n 45563: t0 = a2 | a3\n 45566: a2 = a5 >> 0x3d\n 45569: a3 = u64 [s1 + 0x110]\n 45573: a3 = a3 << 0x3\n 45576: a2 = a2 | a3\n 45579: t2 = t2 << 0x3\n 45582: u64 [s1 + 0x110] = t2\n 45586: a3 = t1 >u 0\n 45588: a4 = t2 <u 0x100\n 45592: a5 = a4 ^ 0x1\n 45595: a5 = a3 if t1 != 0\n 45598: a4 = a2 >u 0\n 45600: a3 = t0 >u 0\n 45602: a3 = a4 if a2 != 0\n 45605: a2 = t0 | a2\n 45608: a5 = a3 if a2 != 0\n 45611: u64 [s1 + 0xe0] = a5\n 45615: i32 a2 = t2 + 0xffffffffffffff80\n 45618: ra = 1910, jump @2038\n      : @1731 [@dyn 955] (gas: 1)\n 45624: t0 = 1912, jump @2018\n      : @1732 [@dyn 956] (gas: 1)\n 45630: ra = 1914, jump @2038\n      : @1733 [@dyn 957] (gas: 3)\n 45636: u64 [s1 + 0xa0] = a0\n 45640: u64 [s1 + 0xa8] = a1\n 45644: t0 = 1916, jump @1999\n      : @1734 [@dyn 958] (gas: 1)\n 45650: ra = 1918, jump @2043\n      : @1735 [@dyn 959] (gas: 1)\n 45656: t0 = 1920, jump @1969\n      : @1736 [@dyn 960] (gas: 1)\n 45662: ra = 1922, jump @2038\n      : @1737 [@dyn 961] (gas: 1)\n 45668: t0 = 1924, jump @1977\n      : @1738 [@dyn 962] (gas: 7)\n 45674: u64 [s1 + 1848] = 0\n 45678: u64 [s1 + 0x730] = a0\n 45682: u64 [s1 + 0x728] = a1\n 45686: a1 = s1 + 0x720\n 45690: u64 [s1 + 0x720] = a2\n 45694: a0 = 0\n 45696: ra = 1926, jump @19\n      : @1739 [@dyn 963] (gas: 12)\n 45703: a0 = u64 [s1 + 0xb0]\n 45707: a3 = s1 + 0x700\n 45711: u64 [a3 + 0x18] = a0\n 45714: a0 = u64 [s1 + 0xb8]\n 45718: u64 [a3 + 0x10] = a0\n 45721: a0 = u64 [s1 + 0xc0]\n 45725: u64 [a3 + 0x8] = a0\n 45728: a0 = 0x20\n 45731: a1 = s1 + 0x700\n 45735: a2 = u64 [s1 + 0xc8]\n 45739: u64 [a3] = a2\n 45741: ra = 1928, jump @19\n      : @1740 [@dyn 964] (gas: 3)\n 45748: a1 = 0x40\n 45751: a0 = 0\n 45753: ra = 1930, jump @32\n      : @1741 [@dyn 965] (gas: 1)\n 45760: t0 = 1932, jump @2019\n      : @1742 [@dyn 966] (gas: 4)\n 45766: ra = 0x78e\n 45770: ecalli 9 // 'hash_keccak_256'\n 45772: t0 = 0x790\n 45776: jump @1984\n      : @1743 [@dyn 967] (gas: 1)\n 45779: t0 = 1936, jump @1984\n      : @1744 [@dyn 968] (gas: 3)\n 45785: a1 = a4\n 45787: a0 = s1 + 0x6e0\n 45791: ra = 1938, jump @21\n      : @1745 [@dyn 969] (gas: 20)\n 45798: a0 = u64 [s1 + 0x6e0]\n 45802: a1 = u64 [s1 + 0x6e8]\n 45806: a2 = u64 [s1 + 0x6f0]\n 45810: a3 = u64 [s1 + 0x6f8]\n 45814: u64 [s1 + 0x698] = a3\n 45818: u64 [s1 + 0x690] = a2\n 45822: u64 [s1 + 0x688] = a1\n 45826: u64 [s1 + 0x680] = a0\n 45830: a0 = u64 [s1 + 0xe8]\n 45834: u64 [s1 + 0x6b8] = a0\n 45838: a0 = u64 [s1 + 0xf0]\n 45842: u64 [s1 + 0x6b0] = a0\n 45846: a0 = u64 [s1 + 0xf8]\n 45850: u64 [s1 + 0x6a8] = a0\n 45854: a0 = s1 + 0x6c0\n 45858: a1 = s1 + 0x6a0\n 45862: a2 = s1 + 0x680\n 45866: a3 = u64 [s1 + 0x100]\n 45870: u64 [s1 + 0x6a0] = a3\n 45874: ra = 1940, jump @1394\n      : @1746 [@dyn 970] (gas: 9)\n 45880: a0 = u64 [s1 + 0x6c0]\n 45884: u64 [s1 + 0x100] = a0\n 45888: a0 = u64 [s1 + 0x6c8]\n 45892: u64 [s1 + 0xf8] = a0\n 45896: a0 = u64 [s1 + 0x6d0]\n 45900: u64 [s1 + 0xf0] = a0\n 45904: a0 = u64 [s1 + 0x6d8]\n 45908: u64 [s1 + 0xe8] = a0\n 45912: t0 = 1942, jump @2013\n      : @1747 [@dyn 971] (gas: 19)\n 45918: u64 [s1 + 0x618] = a0\n 45922: a0 = u64 [s1 + 0x160]\n 45926: u64 [s1 + 0x610] = a0\n 45930: a0 = u64 [s1 + 0x170]\n 45934: u64 [s1 + 0x608] = a0\n 45938: a0 = u64 [s1 + 0x178]\n 45942: u64 [s1 + 0x600] = a0\n 45946: a0 = u64 [s1 + 0x130]\n 45950: u64 [s1 + 0x638] = a0\n 45954: a0 = u64 [s1 + 0x128]\n 45958: u64 [s1 + 0x630] = a0\n 45962: a0 = u64 [s1 + 0x140]\n 45966: u64 [s1 + 0x628] = a0\n 45970: a0 = s1 + 0x640\n 45974: a1 = s1 + 0x620\n 45978: a2 = s1 + 0x600\n 45982: a3 = u64 [s1 + 0x138]\n 45986: u64 [s1 + 0x620] = a3\n 45990: ra = 1944, jump @1467\n      : @1748 [@dyn 972] (gas: 14)\n 45996: a4 = s1 + 0x600\n 46000: a0 = u64 [a4 + 0x78]\n 46003: u64 [s1 + 0x110] = a0\n 46007: a0 = u64 [a4 + 0x70]\n 46010: u64 [s1 + 0xe0] = a0\n 46014: a0 = u64 [a4 + 0x68]\n 46017: u64 [s1 + 0xd8] = a0\n 46021: a0 = u64 [a4 + 0x60]\n 46024: u64 [s1 + 0x108] = a0\n 46028: a0 = u64 [a4 + 0x50]\n 46031: a1 = u64 [a4 + 0x58]\n 46034: a2 = u64 [a4 + 0x40]\n 46037: a3 = u64 [a4 + 0x48]\n 46040: t0 = 1946, jump @2025\n      : @1749 [@dyn 973] (gas: 2)\n 46046: a0 = s1 + 0x5e0\n 46050: ra = 1948, jump @21\n      : @1750 [@dyn 974] (gas: 8)\n 46057: a0 = u64 [s1 + 0x5e0]\n 46061: u64 [s1 + 0x148] = a0\n 46065: a0 = u64 [s1 + 0x5e8]\n 46069: u64 [s1 + 0x150] = a0\n 46073: a0 = u64 [s1 + 0x5f0]\n 46077: u64 [s1 + 0x120] = a0\n 46081: a1 = u64 [s1 + 0x5f8]\n 46085: t0 = 1950, jump @1978\n      : @1751 [@dyn 975] (gas: 19)\n 46091: t0 = a2 | a3\n 46094: a2 = a5 >> 0x3d\n 46097: a3 = u64 [s1 + 0x110]\n 46101: a3 = a3 << 0x3\n 46104: a2 = a2 | a3\n 46107: t2 = t2 << 0x3\n 46110: u64 [s1 + 0x110] = t2\n 46114: a3 = t1 >u 0\n 46116: a4 = t2 <u 0x100\n 46120: a5 = a4 ^ 0x1\n 46123: a5 = a3 if t1 != 0\n 46126: a4 = a2 >u 0\n 46128: a3 = t0 >u 0\n 46130: a3 = a4 if a2 != 0\n 46133: a2 = t0 | a2\n 46136: a5 = a3 if a2 != 0\n 46139: u64 [s1 + 0xe0] = a5\n 46143: i32 a2 = t2 + 0xffffffffffffff80\n 46146: ra = 1952, jump @2038\n      : @1752 [@dyn 976] (gas: 1)\n 46152: t0 = 1954, jump @2018\n      : @1753 [@dyn 977] (gas: 1)\n 46158: ra = 1956, jump @2038\n      : @1754 [@dyn 978] (gas: 3)\n 46164: u64 [s1 + 0xa0] = a0\n 46168: u64 [s1 + 0xa8] = a1\n 46172: t0 = 1958, jump @1999\n      : @1755 [@dyn 979] (gas: 1)\n 46178: ra = 1960, jump @2043\n      : @1756 [@dyn 980] (gas: 1)\n 46184: t0 = 1962, jump @1969\n      : @1757 [@dyn 981] (gas: 1)\n 46190: ra = 1964, jump @2038\n      : @1758 [@dyn 982] (gas: 1)\n 46196: t0 = 1966, jump @1977\n      : @1759 [@dyn 983] (gas: 7)\n 46202: u64 [s1 + 1496] = 0\n 46206: u64 [s1 + 0x5d0] = a0\n 46210: u64 [s1 + 0x5c8] = a1\n 46214: a1 = s1 + 0x5c0\n 46218: u64 [s1 + 0x5c0] = a2\n 46222: a0 = 0\n 46224: ra = 1968, jump @19\n      : @1760 [@dyn 984] (gas: 11)\n 46231: a0 = u64 [s1 + 0xb0]\n 46235: u64 [s1 + 0x5b8] = a0\n 46239: a0 = u64 [s1 + 0xb8]\n 46243: u64 [s1 + 0x5b0] = a0\n 46247: a0 = u64 [s1 + 0xc0]\n 46251: u64 [s1 + 0x5a8] = a0\n 46255: a0 = 0x20\n 46258: a1 = s1 + 0x5a0\n 46262: a2 = u64 [s1 + 0xc8]\n 46266: u64 [s1 + 0x5a0] = a2\n 46270: ra = 1970, jump @19\n      : @1761 [@dyn 985] (gas: 3)\n 46277: a1 = 0x40\n 46280: a0 = 0\n 46282: ra = 1972, jump @32\n      : @1762 [@dyn 986] (gas: 1)\n 46289: t0 = 1974, jump @2019\n      : @1763 [@dyn 987] (gas: 4)\n 46295: ra = 0x7b8\n 46299: ecalli 9 // 'hash_keccak_256'\n 46301: t0 = 0x7ba\n 46305: jump @1984\n      : @1764 [@dyn 988] (gas: 1)\n 46308: t0 = 1978, jump @1984\n      : @1765 [@dyn 989] (gas: 8)\n 46314: a0 = s1 + 0x1118\n 46318: u64 [a0 + 352] = 0\n 46322: u64 [a0 + 344] = 0\n 46326: u64 [a0 + 336] = 0\n 46330: u64 [a0 + 328] = 0\n 46334: a1 = s1 + 0x1260\n 46338: a0 = a4\n 46340: ra = 1980, jump @25\n      : @1766 [@dyn 990] (gas: 1)\n 46347: t0 = 1982, jump @2013\n      : @1767 [@dyn 991] (gas: 19)\n 46353: u64 [s1 + 0x538] = a0\n 46357: a0 = u64 [s1 + 0x160]\n 46361: u64 [s1 + 0x530] = a0\n 46365: a0 = u64 [s1 + 0x170]\n 46369: u64 [s1 + 0x528] = a0\n 46373: a0 = u64 [s1 + 0x178]\n 46377: u64 [s1 + 0x520] = a0\n 46381: a0 = u64 [s1 + 0x130]\n 46385: u64 [s1 + 0x558] = a0\n 46389: a0 = u64 [s1 + 0x128]\n 46393: u64 [s1 + 0x550] = a0\n 46397: a0 = u64 [s1 + 0x140]\n 46401: u64 [s1 + 0x548] = a0\n 46405: a0 = s1 + 0x560\n 46409: a1 = s1 + 0x540\n 46413: a2 = s1 + 0x520\n 46417: a3 = u64 [s1 + 0x138]\n 46421: u64 [s1 + 0x540] = a3\n 46425: ra = 1984, jump @1467\n      : @1768 [@dyn 992] (gas: 13)\n 46431: a0 = u64 [s1 + 0x598]\n 46435: u64 [s1 + 0x110] = a0\n 46439: a0 = u64 [s1 + 0x590]\n 46443: u64 [s1 + 0xe0] = a0\n 46447: a0 = u64 [s1 + 0x588]\n 46451: u64 [s1 + 0xd8] = a0\n 46455: a0 = u64 [s1 + 0x580]\n 46459: u64 [s1 + 0x108] = a0\n 46463: a0 = u64 [s1 + 0x570]\n 46467: a1 = u64 [s1 + 0x578]\n 46471: a2 = u64 [s1 + 0x560]\n 46475: a3 = u64 [s1 + 0x568]\n 46479: t0 = 1986, jump @2025\n      : @1769 [@dyn 993] (gas: 2)\n 46485: a0 = s1 + 0x500\n 46489: ra = 1988, jump @21\n      : @1770 [@dyn 994] (gas: 9)\n 46496: a2 = s1 + 0x500\n 46500: a0 = u64 [a2]\n 46502: u64 [s1 + 0x150] = a0\n 46506: a0 = u64 [a2 + 0x8]\n 46509: u64 [s1 + 0x148] = a0\n 46513: a0 = u64 [a2 + 0x10]\n 46516: u64 [s1 + 0x120] = a0\n 46520: a1 = u64 [a2 + 0x18]\n 46523: t0 = 1990, jump @1978\n      : @1771 [@dyn 995] (gas: 19)\n 46529: t0 = a2 | a3\n 46532: a2 = a5 >> 0x3d\n 46535: a3 = u64 [s1 + 0x110]\n 46539: a3 = a3 << 0x3\n 46542: a2 = a2 | a3\n 46545: t2 = t2 << 0x3\n 46548: u64 [s1 + 0x110] = t2\n 46552: a3 = t1 >u 0\n 46554: a4 = t2 <u 0x100\n 46558: a5 = a4 ^ 0x1\n 46561: a5 = a3 if t1 != 0\n 46564: a4 = a2 >u 0\n 46566: a3 = t0 >u 0\n 46568: a3 = a4 if a2 != 0\n 46571: a2 = t0 | a2\n 46574: a5 = a3 if a2 != 0\n 46577: u64 [s1 + 0xe0] = a5\n 46581: i32 a2 = t2 + 0xffffffffffffff80\n 46584: ra = 1992, jump @2038\n      : @1772 [@dyn 996] (gas: 8)\n 46590: u64 [s1 + 0xd8] = a0\n 46594: u64 [s1 + 0xd0] = a1\n 46598: a0 = u64 [s1 + 0x108]\n 46602: i32 a2 = a0 << 0x3\n 46605: u64 [s1 + 0x108] = a2\n 46609: a0 = u64 [s1 + 0x150]\n 46613: a1 = u64 [s1 + 0x148]\n 46617: ra = 1994, jump @2038\n      : @1773 [@dyn 997] (gas: 3)\n 46623: u64 [s1 + 0xa8] = a0\n 46627: u64 [s1 + 0xa0] = a1\n 46631: t0 = 1996, jump @1999\n      : @1774 [@dyn 998] (gas: 1)\n 46637: ra = 1998, jump @2043\n      : @1775 [@dyn 999] (gas: 21)\n 46643: a3 = u64 [s1 + 0xa0]\n 46647: a3 = a3 | a1\n 46650: a2 = u64 [s1 + 0x110]\n 46654: a4 = a2 <u 0x80\n 46658: u64 [s1 + 0xa0] = a4\n 46662: a1 = u64 [s1 + 0xd0]\n 46666: a3 = a1 if a4 == 0\n 46669: a1 = u64 [s1 + 0x148]\n 46673: a3 = a1 if a2 == 0\n 46676: u64 [s1 + 0x148] = a3\n 46680: a1 = u64 [s1 + 0xa8]\n 46684: a1 = a1 | a0\n 46687: a0 = u64 [s1 + 0xd8]\n 46691: a1 = a0 if a4 == 0\n 46694: a0 = u64 [s1 + 0x150]\n 46698: a1 = a0 if a2 == 0\n 46701: u64 [s1 + 0x150] = a1\n 46705: a0 = u64 [s1 + 0x120]\n 46709: a1 = u64 [s1 + 0x118]\n 46713: a2 = u64 [s1 + 0x108]\n 46717: ra = 2000, jump @2038\n      : @1776 [@dyn 1000] (gas: 55)\n 46723: a1 = u64 [s1 + 0xa0]\n 46727: a0 = 0 if a1 == 0\n 46729: u64 [s1 + 0x120] = a0\n 46733: ecalli 11 // 'ref_time_left'\n 46735: a1 = u64 [s1 + 0xe0]\n 46739: a3 = u64 [s1 + 0x150]\n 46743: a3 = 0 if a1 != 0\n 46745: a2 = u64 [s1 + 0x148]\n 46749: a2 = 0 if a1 != 0\n 46751: a5 = u64 [s1 + 0x120]\n 46755: a5 = 0 if a1 != 0\n 46757: a1 = reverse a2\n 46759: a2 = a1 >> 0x20\n 46762: a3 = reverse a3\n 46764: a4 = a3 << 0x20\n 46767: a2 = a2 | a4\n 46770: a1 = a1 << 0x20\n 46773: a4 = reverse a5\n 46775: a4 = a4 >> 0x20\n 46778: a1 = a1 | a4\n 46781: a3 = a3 >> 0x20\n 46784: a4 = u64 [s1 + 0x90]\n 46788: u32 [a4 + 0x10] = a3\n 46791: u64 [a4 + 0x8] = a2\n 46794: u64 [a4] = a1\n 46796: a2 = s1 + 0x1118\n 46800: a1 = u64 [s1 + 0xe8]\n 46804: a3 = a2 + 0x100\n 46808: u64 [a3 + 0x80] = a1\n 46812: a1 = u64 [s1 + 0xf0]\n 46816: u64 [a3 + 0x78] = a1\n 46819: a1 = u64 [s1 + 0xf8]\n 46823: u64 [a3 + 0x70] = a1\n 46826: a1 = u64 [s1 + 0x100]\n 46830: u64 [a3 + 0x68] = a1\n 46833: a1 = u64 [s1 + 0x70]\n 46836: a0 = a1 <u a0\n 46839: a1 = -a0\n 46841: u64 [a3 + 0xc0] = a1\n 46845: u64 [a3 + 0xb8] = a1\n 46849: u64 [a3 + 0xb0] = a1\n 46853: u64 [a3 + 0xa8] = a1\n 46857: u32 [a2 + 392] = 0\n 46861: a0 = a0 << 0x23\n 46864: a1 = u64 [s1 + 0x88]\n 46868: a0 = a0 | a1\n 46871: a1 = 0xffffffffffffffff\n 46874: a2 = 0xffffffffffffffff\n 46877: a3 = u64 [s1 + 0x98]\n 46881: a4 = u64 [s1 + 0x80]\n 46885: a5 = u64 [s1 + 0x78]\n 46888: ecalli 2 // 'call'\n 46890: u64 [s1 + 0x150] = a0\n 46894: a0 = s1 + 0x4e0\n 46898: ra = 2002, jump @1578\n      : @1777 [@dyn 1001] (gas: 2)\n 46904: a0 = u64 [s1 + 0x150]\n 46908: jump @1779 if a0 == 0\n      : @1778 (gas: 1)\n 46911: jump @1862\n      : @1779 (gas: 14)\n 46914: t0 = u64 [s1 + 0x178]\n 46918: t0 = t0 + 0x1\n 46921: a0 = t0 <u 0x1\n 46924: t1 = u64 [s1 + 0x170]\n 46928: t1 = t1 + a0\n 46931: a0 = t0 | t1\n 46934: a0 = a0 <u 0x1\n 46937: a1 = u64 [s1 + 0x160]\n 46941: a0 = a0 + a1\n 46944: a1 = a0 <u a1\n 46947: ra = u64 [s1 + 0x168]\n 46951: ra = ra + a1\n 46954: t2 = a0\n 46956: jump @1713\n      : @1780 (gas: 4)\n 46959: a0 = s1 + 0x7ff\n 46963: a0 = a0 + 0x701\n 46967: a1 = u64 [s1 + 0x8]\n 46970: ra = 2004, jump @21\n      : @1781 [@dyn 1002] (gas: 19)\n 46977: a2 = s1 + 0x7ff\n 46981: a2 = a2 + 0xf9\n 46985: a5 = a2 + 0x600\n 46989: a0 = u64 [a5 + 0x8]\n 46992: a3 = u64 [a5 + 0x20]\n 46995: a1 = u64 [a5 + 0x10]\n 46998: a4 = u64 [a5 + 0x18]\n 47001: a0 = a0 + 0x1\n 47004: a2 = a0 <u 0x1\n 47007: a1 = a1 + a2\n 47010: a2 = a0 | a1\n 47013: a2 = a2 <u 0x1\n 47016: a2 = a2 + a4\n 47019: a4 = a2 <u a4\n 47022: a3 = a3 + a4\n 47025: a4 = a1 | a3\n 47028: a5 = a0 | a2\n 47031: a4 = a4 | a5\n 47034: jump @1783 if a4 != 0\n      : @1782 (gas: 1)\n 47037: jump @1903\n      : @1783 (gas: 41)\n 47040: a4 = sp + 0xffffffffffffffe0\n 47043: a4 = a4 & 0xffffffffffffffe0\n 47046: u64 [s1 + 0x178] = a4\n 47050: sp = a4\n 47052: a4 = s1 + 0x1118\n 47056: a5 = a4 + 0x200\n 47060: u64 [a5 + 0x20] = a3\n 47063: u64 [a5 + 0x18] = a2\n 47066: u64 [a5 + 0x10] = a1\n 47069: u64 [a5 + 0x8] = a0\n 47072: a0 = s1 + 0x1000\n 47076: i32 a0 = a0 + 0x320\n 47080: a1 = s1 + 0x1000\n 47084: i32 a1 = a1 + 0x300\n 47088: ecalli 0 // 'block_hash'\n 47089: a0 = s1 + 0x1118\n 47093: a0 = u8 [a0 + 0x207]\n 47097: a0 = a0 & 0xf\n 47100: a1 = s1 + 0x7ff\n 47104: a1 = a1 + 0xf9\n 47108: u64 [a1 + 1440] = 0\n 47112: u64 [a1 + 1432] = 0\n 47116: u64 [a1 + 1424] = 0\n 47120: a2 = a1 + 0x500\n 47124: u64 [a2 + 0x88] = a0\n 47128: a0 = u64 [s1 + 0x88]\n 47132: u64 [a2 + 0xc0] = a0\n 47136: a0 = u64 [s1 + 0x80]\n 47140: u64 [a2 + 0xb8] = a0\n 47144: a0 = u64 [s1 + 0x78]\n 47147: u64 [a2 + 0xb0] = a0\n 47151: a4 = a1\n 47153: a0 = s1 + 0x7ff\n 47157: a0 = a0 + 0x6c1\n 47161: a1 = s1 + 0x7ff\n 47165: a1 = a1 + 0x6a1\n 47169: a2 = s1 + 0x7ff\n 47173: a2 = a2 + 0x681\n 47177: a3 = u64 [s1 + 0x70]\n 47180: u64 [a4 + 0x5a8] = a3\n 47184: ra = 2006, jump @1467\n      : @1784 [@dyn 1003] (gas: 24)\n 47190: a3 = s1 + 0x7ff\n 47194: a3 = a3 + 0xf9\n 47198: a0 = u64 [a3 + 0x600]\n 47202: u64 [s1 + 0x150] = a0\n 47206: a4 = a3 + 0x500\n 47210: a0 = u64 [a4 + 0xf8]\n 47214: u64 [s1 + 0x140] = a0\n 47218: a0 = u64 [a4 + 0xf0]\n 47222: u64 [s1 + 0x138] = a0\n 47226: a0 = u64 [a4 + 0xe8]\n 47230: u64 [s1 + 0x148] = a0\n 47234: a0 = u64 [a4 + 0xd8]\n 47238: a1 = u64 [a4 + 0xe0]\n 47242: a2 = u64 [a4 + 0xc8]\n 47246: a3 = u64 [a4 + 0xd0]\n 47250: a4 = u64 [s1 + 0x178]\n 47254: u64 [a4 + 0x10] = a0\n 47257: u64 [a4 + 0x18] = a1\n 47260: u64 [a4] = a2\n 47262: u64 [a4 + 0x8] = a3\n 47265: a1 = a4\n 47267: a0 = s1 + 0x7ff\n 47271: a0 = a0 + 0x661\n 47275: ra = 2008, jump @21\n      : @1785 [@dyn 1004] (gas: 38)\n 47282: a1 = s1 + 0x7ff\n 47286: a1 = a1 + 0xf9\n 47290: a2 = a1 + 0x500\n 47294: a0 = u64 [a2 + 0x68]\n 47297: u64 [s1 + 0x170] = a0\n 47301: a0 = u64 [a2 + 0x70]\n 47304: u64 [s1 + 0x178] = a0\n 47308: a0 = u64 [a2 + 0x78]\n 47311: u64 [s1 + 0x168] = a0\n 47315: a1 = u64 [a2 + 0x80]\n 47319: u64 [s1 + 0x160] = a1\n 47323: t2 = u64 [s1 + 0x148]\n 47327: a2 = t2 >> 0x3d\n 47330: a3 = u64 [s1 + 0x138]\n 47334: a5 = a3 << 0x3\n 47337: t1 = a5 | a2\n 47340: a3 = a3 >> 0x3d\n 47343: a5 = u64 [s1 + 0x140]\n 47347: a2 = a5 << 0x3\n 47350: t0 = a2 | a3\n 47353: a2 = a5 >> 0x3d\n 47356: a3 = u64 [s1 + 0x150]\n 47360: a3 = a3 << 0x3\n 47363: a2 = a2 | a3\n 47366: t2 = t2 << 0x3\n 47369: u64 [s1 + 0x150] = t2\n 47373: a3 = t1 >u 0\n 47375: a4 = t2 <u 0x100\n 47379: a5 = a4 ^ 0x1\n 47382: a5 = a3 if t1 != 0\n 47385: a4 = a2 >u 0\n 47387: a3 = t0 >u 0\n 47389: a3 = a4 if a2 != 0\n 47392: a2 = t0 | a2\n 47395: a5 = a3 if a2 != 0\n 47398: u64 [s1 + 0x140] = a5\n 47402: i32 a2 = t2 + 0xffffffffffffff80\n 47405: ra = 2010, jump @2038\n      : @1786 [@dyn 1005] (gas: 8)\n 47411: u64 [s1 + 0x130] = a0\n 47415: u64 [s1 + 0x138] = a1\n 47419: a0 = u64 [s1 + 0x148]\n 47423: i32 a2 = a0 << 0x3\n 47426: u64 [s1 + 0x148] = a2\n 47430: a0 = u64 [s1 + 0x170]\n 47434: a1 = u64 [s1 + 0x178]\n 47438: ra = 2012, jump @2038\n      : @1787 [@dyn 1006] (gas: 7)\n 47444: u64 [s1 + 0x120] = a0\n 47448: u64 [s1 + 0x128] = a1\n 47452: a1 = u64 [s1 + 0x150]\n 47456: i32 a2 = 0x80 - a1\n 47460: a0 = u64 [s1 + 0x168]\n 47464: a1 = u64 [s1 + 0x160]\n 47468: ra = 2014, jump @2043\n      : @1788 [@dyn 1007] (gas: 21)\n 47474: a3 = u64 [s1 + 0x120]\n 47478: a3 = a3 | a0\n 47481: a2 = u64 [s1 + 0x150]\n 47485: a4 = a2 <u 0x80\n 47489: u64 [s1 + 0x120] = a4\n 47493: a0 = u64 [s1 + 0x130]\n 47497: a3 = a0 if a4 == 0\n 47500: a0 = u64 [s1 + 0x170]\n 47504: a3 = a0 if a2 == 0\n 47507: u64 [s1 + 0x170] = a3\n 47511: a0 = u64 [s1 + 0x128]\n 47515: a1 = a1 | a0\n 47518: a0 = u64 [s1 + 0x138]\n 47522: a1 = a0 if a4 == 0\n 47525: a0 = u64 [s1 + 0x178]\n 47529: a1 = a0 if a2 == 0\n 47532: u64 [s1 + 0x178] = a1\n 47536: a0 = u64 [s1 + 0x168]\n 47540: a1 = u64 [s1 + 0x160]\n 47544: a2 = u64 [s1 + 0x148]\n 47548: ra = 2016, jump @2038\n      : @1789 [@dyn 1008] (gas: 32)\n 47554: a1 = u64 [s1 + 0x120]\n 47558: a0 = 0 if a1 == 0\n 47560: a1 = u64 [s1 + 0x178]\n 47564: a1 = a1 & 0xffffffffffffffff\n 47567: a3 = u64 [s1 + 0x170]\n 47571: a2 = a3 & 0xffffffffffffffff\n 47574: a3 = u64 [s1 + 0x158]\n 47578: a0 = a0 & a3\n 47581: a3 = u64 [s1 + 0x140]\n 47585: a2 = 0 if a3 != 0\n 47587: a1 = 0 if a3 != 0\n 47589: a0 = 0 if a3 != 0\n 47591: a4 = s1 + 0x7ff\n 47595: a4 = a4 + 0xf9\n 47599: u64 [a4 + 1344] = 0\n 47603: a3 = u64 [s1 + 0x10]\n 47606: a5 = a4 + 0x500\n 47610: u64 [a5 + 0x60] = a3\n 47613: a3 = u64 [s1 + 0x18]\n 47616: u64 [a5 + 0x58] = a3\n 47619: a3 = u64 [s1 + 0x20]\n 47622: u64 [a5 + 0x50] = a3\n 47625: a3 = u64 [s1 + 0x28]\n 47628: u64 [a5 + 0x48] = a3\n 47631: u64 [a5 + 0x38] = a0\n 47634: u64 [a5 + 0x30] = a1\n 47637: a0 = s1 + 0x7ff\n 47641: a0 = a0 + 0x641\n 47645: a1 = s1 + 0x7ff\n 47649: a1 = a1 + 0x621\n 47653: u64 [a5 + 0x28] = a2\n 47656: ra = 2018, jump @1567\n      : @1790 [@dyn 1009] (gas: 8)\n 47662: a0 = sp + 0xffffffffffffffe0\n 47665: a0 = a0 & 0xffffffffffffffe0\n 47668: u64 [s1 + 0x178] = a0\n 47672: sp = a0\n 47674: a0 = s1 + 0x7ff\n 47678: a0 = a0 + 0x601\n 47682: a1 = u64 [s1 + 0x48]\n 47685: ra = 2020, jump @21\n      : @1791 [@dyn 1010] (gas: 20)\n 47692: a0 = s1 + 0x7ff\n 47696: a0 = a0 + 0xf9\n 47700: a2 = a0 + 0x500\n 47704: a1 = u64 [a2 + 0x8]\n 47707: u64 [s1 + 0x170] = a1\n 47711: a4 = u64 [a2 + 0x10]\n 47714: u64 [s1 + 0x160] = a4\n 47718: a3 = u64 [a2 + 0x18]\n 47721: u64 [s1 + 0x168] = a3\n 47725: a0 = u64 [a2 + 0x20]\n 47728: a1 = a1 & 0xffffffffffffff00\n 47732: a1 = a1 | 0x1\n 47735: a2 = u64 [s1 + 0x178]\n 47739: u64 [a2 + 0x10] = a3\n 47742: u64 [a2 + 0x18] = a0\n 47745: u64 [a2 + 0x8] = a4\n 47748: u64 [a2] = a1\n 47750: a1 = a2\n 47752: a0 = u64 [s1 + 0x48]\n 47755: ra = 2022, jump @25\n      : @1792 [@dyn 1011] (gas: 25)\n 47762: a3 = u64 [s1 + 0x168]\n 47766: a0 = a3 << 0x38\n 47769: a2 = u64 [s1 + 0x160]\n 47773: a1 = a2 >> 0x8\n 47776: a0 = a0 | a1\n 47779: a1 = a2 << 0x38\n 47782: a2 = u64 [s1 + 0x170]\n 47786: a2 = a2 >> 0x8\n 47789: a1 = a1 | a2\n 47792: a2 = a3 >> 0x8\n 47795: a3 = a1 & 0xffffffffffffffff\n 47798: a0 = a0 & 0xffffffffffffffff\n 47801: a1 = u64 [s1 + 0x158]\n 47805: a1 = a1 & a2\n 47808: a2 = s1 + 0x7ff\n 47812: a2 = a2 + 0xf9\n 47816: u64 [a2 + 1280] = 0\n 47820: a4 = a2 + 0x400\n 47824: u64 [a4 + 0xf8] = a1\n 47828: u64 [a4 + 0xf0] = a0\n 47832: a1 = s1 + 0x7ff\n 47836: a1 = a1 + 0x5e1\n 47840: u64 [a4 + 0xe8] = a3\n 47844: a0 = 0\n 47846: ra = 2024, jump @19\n      : @1793 [@dyn 1012] (gas: 3)\n 47853: a1 = s1 + 0x7ff\n 47857: a1 = a1 + 0xf9\n 47861: t0 = 2026, jump @2031\n      : @1794 [@dyn 1013] (gas: 4)\n 47867: a1 = s1 + 0x7ff\n 47871: a1 = a1 + 0x5c1\n 47875: u64 [a2 + 1232] = 0\n 47879: ra = 2028, jump @19\n      : @1795 [@dyn 1014] (gas: 7)\n 47886: a0 = sp + 0xffffffffffffffe0\n 47889: a0 = a0 & 0xffffffffffffffe0\n 47892: u64 [s1 + 0x178] = a0\n 47896: sp = a0\n 47898: a2 = u64 [s1 + 0x38]\n 47901: a0 = i32 [a2]\n 47903: jump @1797 if a0 >u 63\n      : @1796 (gas: 2)\n 47907: u32 [a2 + 0] = 0x40\n 47910: fallthrough\n      : @1797 (gas: 12)\n 47911: a0 = sp + 0xffffffffffffffe0\n 47914: a0 = a0 & 0xffffffffffffffe0\n 47917: u64 [s1 + 0x170] = a0\n 47921: sp = a0\n 47923: i32 a2 = a0 + 0\n 47925: a1 = 0x40\n 47928: a0 = u64 [s1 + 0x40]\n 47931: ra = 0x7ee\n 47935: ecalli 9 // 'hash_keccak_256'\n 47937: a3 = u64 [s1 + 0x170]\n 47941: t0 = 0x7f0\n 47945: jump @1974\n      : @1798 [@dyn 1015] (gas: 2)\n 47948: a3 = u64 [s1 + 0x170]\n 47952: t0 = 2032, jump @1974\n      : @1799 [@dyn 1016] (gas: 8)\n 47958: a1 = u64 [s1 + 0x178]\n 47962: u64 [a1 + 0x18] = a3\n 47965: u64 [a1 + 0x10] = a2\n 47968: u64 [a1 + 0x8] = a4\n 47971: u64 [a1] = a0\n 47973: a0 = s1 + 0x7ff\n 47977: a0 = a0 + 0x5a1\n 47981: ra = 2034, jump @21\n      : @1800 [@dyn 1017] (gas: 16)\n 47988: a4 = s1 + 0x7ff\n 47992: a4 = a4 + 0xf9\n 47996: a5 = a4 + 0x400\n 48000: a2 = u64 [a5 + 0xa8]\n 48004: a0 = u64 [a5 + 0xb0]\n 48008: a1 = u64 [a5 + 0xb8]\n 48012: a3 = u64 [a5 + 0xc0]\n 48016: u64 [a5 + 0x80] = a3\n 48020: u64 [a5 + 0x78] = a1\n 48023: u64 [a5 + 0x70] = a0\n 48026: a0 = s1 + 0x7ff\n 48030: a0 = a0 + 0x581\n 48034: a1 = s1 + 0x7ff\n 48038: a1 = a1 + 0x561\n 48042: u64 [a5 + 0x68] = a2\n 48045: ra = 2036, jump @1511\n      : @1801 [@dyn 1018] (gas: 16)\n 48051: a3 = s1 + 0x7ff\n 48055: a3 = a3 + 0xf9\n 48059: a4 = a3 + 0x400\n 48063: a0 = u64 [a4 + 0xa0]\n 48067: a1 = u64 [a4 + 0x98]\n 48071: a2 = u64 [a4 + 0x90]\n 48075: a3 = u64 [a4 + 0x88]\n 48079: a4 = s1 + 0x1118\n 48083: a5 = a4 + 0x200\n 48087: u64 [a5 + 0x40] = a0\n 48090: u64 [a5 + 0x38] = a1\n 48093: u64 [a5 + 0x30] = a2\n 48096: u64 [a5 + 0x28] = a3\n 48099: a1 = s1 + 0x1340\n 48103: a0 = u64 [s1 + 0x178]\n 48107: ra = 2038, jump @25\n      : @1802 [@dyn 1019] (gas: 5)\n 48114: a1 = u64 [s1 + 0x70]\n 48117: a0 = a1 + 0x12\n 48120: a1 = a0 <u a1\n 48123: a3 = u64 [s1 + 0x78]\n 48126: t0 = 2040, jump @1990\n      : @1803 [@dyn 1020] (gas: 15)\n 48132: a1 = u64 [s1 + 0x80]\n 48136: a3 = a3 + a1\n 48139: a1 = a3 <u a1\n 48142: a4 = u64 [s1 + 0x88]\n 48146: a1 = a1 + a4\n 48149: a4 = s1 + 0x1118\n 48153: a5 = a4 + 0x200\n 48157: u64 [a5 + 0x60] = a1\n 48160: u64 [a5 + 0x58] = a3\n 48163: u64 [a5 + 0x50] = a2\n 48166: u64 [a5 + 0x48] = a0\n 48169: a0 = s1 + 0x7ff\n 48173: a0 = a0 + 0x541\n 48177: a1 = s1 + 0x1360\n 48181: ra = 2042, jump @21\n      : @1804 [@dyn 1021] (gas: 21)\n 48188: a0 = s1 + 0x7ff\n 48192: a0 = a0 + 0xf9\n 48196: a2 = a0 + 0x400\n 48200: a1 = u64 [a2 + 0x60]\n 48203: u64 [s1 + 0xd0] = a1\n 48207: a1 = u64 [a2 + 0x58]\n 48210: u64 [s1 + 0xc8] = a1\n 48214: a1 = u64 [a2 + 0x50]\n 48217: u64 [s1 + 0xc0] = a1\n 48221: a1 = u64 [a2 + 0x48]\n 48224: u64 [s1 + 0xb8] = a1\n 48228: a0 = s1 + 0x1118\n 48232: u64 [a0 + 640] = 0\n 48236: u64 [a0 + 632] = 0\n 48240: u64 [a0 + 624] = 0\n 48244: a1 = a0\n 48246: u64 [a1 + 616] = 0x1\n 48251: a0 = s1 + 0x7ff\n 48255: a0 = a0 + 0x521\n 48259: a1 = s1 + 0x1380\n 48263: ra = 2044, jump @21\n      : @1805 [@dyn 1022] (gas: 27)\n 48270: a4 = s1 + 0x7ff\n 48274: a4 = a4 + 0xf9\n 48278: a5 = a4 + 0x400\n 48282: a0 = u64 [a5 + 0x28]\n 48285: a1 = u64 [a5 + 0x30]\n 48288: a2 = u64 [a5 + 0x38]\n 48291: a3 = u64 [a5 + 0x40]\n 48294: u64 [a4 + 0x3e0] = a3\n 48298: u64 [a4 + 0x3d8] = a2\n 48302: u64 [a4 + 0x3d0] = a1\n 48306: u64 [a4 + 0x3c8] = a0\n 48310: a0 = u64 [s1 + 0xd0]\n 48314: u64 [a5] = a0\n 48316: a0 = u64 [s1 + 0xc8]\n 48320: a5 = a4 + 0x300\n 48324: u64 [a5 + 0xf8] = a0\n 48328: a0 = u64 [s1 + 0xc0]\n 48332: u64 [a5 + 0xf0] = a0\n 48336: a0 = s1 + 0x7ff\n 48340: a0 = a0 + 0x501\n 48344: a1 = s1 + 0x7ff\n 48348: a1 = a1 + 0x4e1\n 48352: a2 = s1 + 0x7ff\n 48356: a2 = a2 + 0x4c1\n 48360: a3 = u64 [s1 + 0xb8]\n 48364: u64 [a5 + 0xe8] = a3\n 48368: ra = 2046, jump @1394\n      : @1806 [@dyn 1023] (gas: 9)\n 48374: a0 = s1 + 0x7ff\n 48378: a0 = a0 + 0xf9\n 48382: t1 = u64 [a0 + 0x420]\n 48386: t2 = u64 [a0 + 0x418]\n 48390: ra = u64 [a0 + 0x410]\n 48394: u64 [s1 + 0xe8] = ra\n 48398: a2 = u64 [a0 + 0x408]\n 48402: u64 [s1 + 0xf0] = a2\n 48406: t0 = 2048, jump @1968\n      : @1807 [@dyn 1024] (gas: 12)\n 48412: t0 = a0 + 0xffffffffffffffff\n 48415: a0 = -a4\n 48417: a5 = -a5\n 48419: a2 = a5 - a2\n 48422: a1 = 0xf2 - a3\n 48426: u64 [s1 + 0x168] = a0\n 48430: a3 = a0 >u 0\n 48432: a0 = t0\n 48434: a5 = t0 >u 0\n 48436: a5 = a3 if t0 == 0\n 48439: u64 [s1 + 0x170] = a1\n 48443: t0 = 2050, jump @2017\n      : @1808 [@dyn 1025] (gas: 12)\n 48449: t0 = u64 [s1 + 0xf0]\n 48453: a4 = t0 | t2\n 48456: a1 = a1 | a4\n 48459: a1 = a1 <u 0x1\n 48462: a1 = a1 | a3\n 48465: u64 [s1 + 0xe0] = t1\n 48469: t1 = 0 if a1 != 0\n 48471: u64 [s1 + 0xd8] = t2\n 48475: t2 = 0 if a1 != 0\n 48477: ra = 0 if a1 != 0\n 48479: t0 = 0 if a1 != 0\n 48481: jump @1843 if a1 != 0\n      : @1809 (gas: 7)\n 48485: a1 = u64 [s1 + 0x170]\n 48489: a1 = a1 ^ 0xff\n 48493: a4 = u64 [s1 + 0x168]\n 48497: a1 = a1 | a4\n 48500: a3 = a2 | a0\n 48503: a1 = a1 | a3\n 48506: jump @1843 if a1 == 0\n      : @1810 (gas: 19)\n 48510: a5 = u64 [s1 + 0x170]\n 48514: a3 = a5 + 0x1\n 48517: u64 [s1 + 0x178] = a3\n 48521: a1 = a3 <u 0x1\n 48524: a1 = a1 + a2\n 48527: u64 [s1 + 0x150] = a1\n 48531: a1 = a1 | a3\n 48534: a1 = a1 <u 0x1\n 48537: a1 = a1 + a4\n 48540: u64 [s1 + 0x140] = a1\n 48544: a1 = a1 <u a4\n 48547: a0 = a0 + a1\n 48550: u64 [s1 + 0x148] = a0\n 48554: a1 = 0xff - a5\n 48558: u64 [s1 + 0x160] = a1\n 48562: a2 = 0x80 - a1\n 48566: a0 = u64 [s1 + 0xf0]\n 48570: a1 = u64 [s1 + 0xe8]\n 48574: ra = 2052, jump @2038\n      : @1811 [@dyn 1026] (gas: 6)\n 48580: u64 [s1 + 0x168] = a0\n 48584: u64 [s1 + 0x130] = a1\n 48588: a0 = u64 [s1 + 0xd8]\n 48592: a1 = u64 [s1 + 0xe0]\n 48596: a2 = u64 [s1 + 0x160]\n 48600: ra = 2054, jump @2043\n      : @1812 [@dyn 1027] (gas: 9)\n 48606: u64 [s1 + 0x138] = a0\n 48610: a0 = u64 [s1 + 0x130]\n 48614: a0 = a0 | a1\n 48617: u64 [s1 + 0x130] = a0\n 48621: a1 = u64 [s1 + 0x170]\n 48625: a2 = 0x7f - a1\n 48628: a0 = u64 [s1 + 0xf0]\n 48632: a1 = u64 [s1 + 0xe8]\n 48636: ra = 2056, jump @2043\n      : @1813 [@dyn 1028] (gas: 18)\n 48642: a2 = u64 [s1 + 0x160]\n 48646: a3 = a2 <u 0x80\n 48650: u64 [s1 + 0x170] = a3\n 48654: a4 = u64 [s1 + 0x130]\n 48658: a1 = a4 if a3 != 0\n 48661: a4 = u64 [s1 + 0xe0]\n 48665: a1 = a4 if a2 == 0\n 48668: u64 [s1 + 0x128] = a1\n 48672: a1 = u64 [s1 + 0x168]\n 48676: a4 = u64 [s1 + 0x138]\n 48680: a1 = a1 | a4\n 48683: a1 = a0 if a3 == 0\n 48686: a0 = u64 [s1 + 0xd8]\n 48690: a1 = a0 if a2 == 0\n 48693: u64 [s1 + 0x168] = a1\n 48697: a0 = u64 [s1 + 0xf0]\n 48701: a1 = u64 [s1 + 0xe8]\n 48705: ra = 2058, jump @2043\n      : @1814 [@dyn 1029] (gas: 14)\n 48711: a4 = u64 [s1 + 0x140]\n 48715: a5 = u64 [s1 + 0x148]\n 48719: a2 = u64 [s1 + 0x150]\n 48723: a5 = a5 | a2\n 48726: a3 = u64 [s1 + 0x178]\n 48730: a3 = a3 | a4\n 48733: a3 = a3 | a5\n 48736: a4 = s1 + 0x100\n 48740: a2 = u64 [a4 + 0x70]\n 48743: a1 = 0 if a2 == 0\n 48745: u64 [a4 + 0x60] = a1\n 48748: a0 = 0 if a2 == 0\n 48750: u64 [a4 + 0x70] = a0\n 48753: jump @1841 if a3 == 0\n      : @1815 (gas: 6)\n 48757: u64 [s1 + 264] = 0x2710\n 48763: a0 = u64 [s1 + 0x178]\n 48767: a2 = a0 + 0xffffffffffffff80\n 48770: a0 = u64 [s1 + 0xd8]\n 48774: a1 = u64 [s1 + 0xe0]\n 48778: ra = 2060, jump @2038\n      : @1816 [@dyn 1030] (gas: 6)\n 48784: u64 [s1 + 0x130] = a0\n 48788: u64 [s1 + 0x138] = a1\n 48792: a0 = u64 [s1 + 0xf0]\n 48796: a1 = u64 [s1 + 0xe8]\n 48800: a2 = u64 [s1 + 0x178]\n 48804: ra = 2062, jump @2038\n      : @1817 [@dyn 1031] (gas: 7)\n 48810: u64 [s1 + 0x118] = a0\n 48814: u64 [s1 + 0x120] = a1\n 48818: a1 = u64 [s1 + 0x178]\n 48822: a2 = 0x80 - a1\n 48826: a0 = u64 [s1 + 0xd8]\n 48830: a1 = u64 [s1 + 0xe0]\n 48834: ra = 2064, jump @2043\n      : @1818 [@dyn 1032] (gas: 20)\n 48840: a2 = u64 [s1 + 0x120]\n 48844: a1 = a1 | a2\n 48847: a2 = u64 [s1 + 0x178]\n 48851: a3 = a2 <u 0x80\n 48855: u64 [s1 + 0x120] = a3\n 48859: a4 = u64 [s1 + 0x138]\n 48863: a1 = a4 if a3 == 0\n 48866: a4 = u64 [s1 + 0xe8]\n 48870: a1 = a4 if a2 == 0\n 48873: u64 [s1 + 0x138] = a1\n 48877: a1 = u64 [s1 + 0x118]\n 48881: a0 = a0 | a1\n 48884: a1 = u64 [s1 + 0x130]\n 48888: a0 = a1 if a3 == 0\n 48891: a1 = u64 [s1 + 0xf0]\n 48895: a0 = a1 if a2 == 0\n 48898: u64 [s1 + 0x130] = a0\n 48902: a0 = u64 [s1 + 0xd8]\n 48906: a1 = u64 [s1 + 0xe0]\n 48910: ra = 2066, jump @2038\n      : @1819 [@dyn 1033] (gas: 13)\n 48916: a5 = 0\n 48918: a3 = s1 + 0x100\n 48922: a2 = u64 [a3 + 0x20]\n 48925: a1 = 0 if a2 == 0\n 48927: a0 = 0 if a2 == 0\n 48929: a4 = u64 [a3 + 0x8]\n 48932: a2 = a4 + 0xffffffffffffffff\n 48935: u64 [a3] = a2\n 48937: a2 = a4 >u 0\n 48939: a2 = a2 + 0xffffffffffffffff\n 48942: u64 [s1 + 0xf8] = a2\n 48946: ra = u64 [s1 + 0x128]\n 48950: fallthrough\n      : @1820 (gas: 92)\n 48951: u64 [s1 + 0x118] = a1\n 48955: u64 [s1 + 0x120] = a5\n 48959: u64 [s1 + 272] = 0\n 48963: a1 = u64 [s1 + 0x130]\n 48967: a2 = a1 >> 0x3f\n 48970: a5 = u64 [s1 + 0x138]\n 48974: a3 = a5 << 0x1\n 48977: t1 = a3 | a2\n 48980: a2 = a1 << 0x1\n 48983: a4 = ra >> 0x3f\n 48986: a4 = a4 | a2\n 48989: u64 [s1 + 0x128] = a4\n 48993: a3 = u64 [s1 + 0xf8]\n 48997: a1 = a3 ^ t1\n 49000: u64 [s1 + 0x130] = a1\n 49004: a1 = a3 <u t1\n 49007: a2 = u64 [s1 + 0x100]\n 49011: t0 = a2 <u a4\n 49014: a2 = u64 [s1 + 0x130]\n 49018: t0 = a1 if a2 != 0\n 49021: a1 = u64 [s1 + 0x118]\n 49025: a1 = a1 << 0x1\n 49028: a4 = a0 >> 0x3f\n 49031: a1 = a1 | a4\n 49034: u64 [s1 + 0x118] = a1\n 49038: a4 = a5 >> 0x3f\n 49041: a0 = a0 << 0x1\n 49044: a4 = a4 | a0\n 49047: a0 = ra << 0x1\n 49050: a1 = u64 [s1 + 0x168]\n 49054: a5 = a1 >> 0x3f\n 49057: a0 = a0 | a5\n 49060: u64 [s1 + 0x138] = a0\n 49064: a5 = a1 << 0x1\n 49067: a0 = u64 [s1 + 0x160]\n 49071: a1 = a0 >> 0x3f\n 49074: a1 = a1 | a5\n 49077: a5 = a0 << 0x1\n 49080: a0 = u64 [s1 + 0x170]\n 49084: ra = a0 >> 0x3f\n 49087: a5 = a5 | ra\n 49090: a0 = a0 << 0x1\n 49093: a2 = u64 [s1 + 0x120]\n 49097: a0 = a0 | a2\n 49100: u64 [s1 + 0x170] = a0\n 49104: a0 = a5 | 0\n 49106: u64 [s1 + 0x160] = a0\n 49110: a0 = a1 | 0\n 49112: u64 [s1 + 0x168] = a0\n 49116: a0 = u64 [s1 + 0x138]\n 49120: ra = a0 | 0\n 49122: a0 = a3 - a4\n 49125: a0 = a0 <u t0\n 49128: a1 = a3 <u a4\n 49131: t2 = u64 [s1 + 0x118]\n 49135: a5 = a3 - t2\n 49138: a5 = a5 - a1\n 49141: a5 = a5 - a0\n 49144: t0 = a5 >>a 0x3f\n 49147: a0 = u64 [s1 + 0x108]\n 49151: a0 = t0 & a0\n 49154: a2 = u64 [s1 + 0x128]\n 49158: a1 = a2 - a0\n 49161: u64 [s1 + 0x130] = a1\n 49165: a1 = a2 <u a0\n 49168: a0 = t1 - a1\n 49171: u64 [s1 + 0x138] = a0\n 49175: a1 = 0 if t1 != 0\n 49177: a0 = a4 - a1\n 49180: a1 = a4 <u a1\n 49183: a1 = t2 - a1\n 49186: a3 = u64 [s1 + 0x178]\n 49190: a5 = u64 [s1 + 0x150]\n 49194: a2 = a3 | a5\n 49197: a2 = a2 <u 0x1\n 49200: a4 = u64 [s1 + 0x140]\n 49204: t1 = a4 <u a2\n 49207: a4 = a4 - a2\n 49210: a2 = a3 <u 0x1\n 49213: a5 = a5 - a2\n 49216: a2 = u64 [s1 + 0x148]\n 49220: a2 = a2 - t1\n 49223: a3 = a3 + 0xffffffffffffffff\n 49226: u64 [s1 + 0x150] = a5\n 49230: u64 [s1 + 0x148] = a2\n 49234: a2 = a2 | a5\n 49237: u64 [s1 + 0x178] = a3\n 49241: a3 = a3 | a4\n 49244: a2 = a2 | a3\n 49247: a5 = t0 & 0x1\n 49250: u64 [s1 + 0x140] = a4\n 49254: jump @1820 if a2 != 0\n      : @1821 (gas: 1)\n 49258: jump @1842\n      : @1822 (gas: 5)\n 49261: a1 = u64 [s1 + 0x138]\n 49265: a0 = a1 + 0x15\n 49268: a1 = a0 <u a1\n 49271: a3 = u64 [s1 + 0x140]\n 49275: t0 = 2068, jump @1990\n      : @1823 [@dyn 1034] (gas: 13)\n 49281: a1 = u64 [s1 + 0x128]\n 49285: a3 = a3 + a1\n 49288: a1 = a3 <u a1\n 49291: a4 = u64 [s1 + 0x130]\n 49295: a1 = a1 + a4\n 49298: u64 [a5] = a0\n 49300: u64 [a5 + 0x8] = a2\n 49303: u64 [a5 + 0x10] = a3\n 49306: u64 [a5 + 0x18] = a1\n 49309: a0 = s1 + 0x7ff\n 49313: a0 = a0 + 0x181\n 49317: a1 = a5\n 49319: ra = 2070, jump @21\n      : @1824 [@dyn 1035] (gas: 17)\n 49326: a3 = s1 + 0x7ff\n 49330: a3 = a3 + 0xf9\n 49334: a0 = u64 [a3 + 0x88]\n 49338: a1 = u64 [a3 + 0x90]\n 49342: a2 = u64 [a3 + 0xa0]\n 49346: a3 = u64 [a3 + 0x98]\n 49350: a0 = a0 & 0xffffffffffffff00\n 49354: a0 = a0 | 0x1\n 49357: a4 = s1 + 0x1118\n 49361: a5 = a4 + 0x100\n 49365: u64 [a5 + 0xe0] = a2\n 49369: u64 [a5 + 0xd8] = a3\n 49373: u64 [a5 + 0xd0] = a1\n 49377: u64 [a5 + 0xc8] = a0\n 49381: a1 = s1 + 0x12e0\n 49385: a0 = u64 [s1 + 0x148]\n 49389: ra = 2072, jump @25\n      : @1825 [@dyn 1036] (gas: 4)\n 49396: a0 = s1 + 0x7ff\n 49400: a0 = a0 + 0x161\n 49404: a1 = 0x40\n 49407: ra = 2074, jump @17\n      : @1826 [@dyn 1037] (gas: 18)\n 49414: a2 = s1 + 0x7ff\n 49418: a2 = a2 + 0xf9\n 49422: a3 = u64 [a2 + 0x80]\n 49426: a4 = u64 [a2 + 0x78]\n 49429: a1 = u64 [a2 + 0x70]\n 49432: a0 = u64 [a2 + 0x68]\n 49435: a5 = s1 + 0x100\n 49439: u64 [a5 + 0x68] = a1\n 49442: u64 [a5 + 0x58] = a3\n 49445: a3 = a3 | a1\n 49448: a1 = a0 | a4\n 49451: a1 = a1 | a3\n 49454: a1 = a1 >> 0x20\n 49457: u64 [a5 + 0x60] = a4\n 49460: a3 = a3 | a4\n 49463: a3 = a3 << 0x20\n 49466: a1 = a1 | a3\n 49469: jump @1899 if a1 != 0\n      : @1827 (gas: 8)\n 49473: u64 [a2 + 96] = 0\n 49476: u64 [a2 + 88] = 0\n 49479: u64 [a2 + 80] = 0\n 49482: a1 = s1 + 0x7ff\n 49486: a1 = a1 + 0x141\n 49490: u64 [a2 + 72] = 0x20\n 49494: u64 [s1 + 0x170] = a0\n 49498: ra = 2076, jump @19\n      : @1828 [@dyn 1038] (gas: 4)\n 49505: a0 = s1 + 0x7ff\n 49509: a0 = a0 + 0x121\n 49513: a1 = u64 [s1 + 0x48]\n 49516: ra = 2078, jump @17\n      : @1829 [@dyn 1039] (gas: 14)\n 49523: a4 = s1 + 0x100\n 49527: a1 = u64 [a4 + 0x70]\n 49530: a0 = u64 [a4 + 0x58]\n 49533: a3 = u64 [a4 + 0x60]\n 49536: a3 = a3 | a0\n 49539: a0 = 0x100000000\n 49549: u64 [a4 + 0x30] = a0\n 49552: a0 = 0xffffffe0\n 49562: a0 = a1 <u a0\n 49565: a2 = u64 [a4 + 0x68]\n 49568: a0 = 0 if a2 != 0\n 49570: u64 [a4 + 0x38] = a3\n 49573: a0 = 0 if a3 != 0\n 49575: jump @1899 if a0 == 0\n      : @1830 (gas: 18)\n 49579: a4 = s1 + 0x7ff\n 49583: a4 = a4 + 0xf9\n 49587: t0 = u64 [a4 + 0x40]\n 49590: a3 = u64 [a4 + 0x38]\n 49593: a5 = u64 [a4 + 0x30]\n 49596: a2 = u64 [a4 + 0x28]\n 49599: i32 a0 = a1 + 0x20\n 49602: u64 [s1 + 0x178] = a2\n 49606: u64 [a4 + 0x8] = a2\n 49609: u64 [s1 + 0x140] = a5\n 49613: u64 [a4 + 0x10] = a5\n 49616: u64 [s1 + 0x150] = a3\n 49620: u64 [a4 + 0x18] = a3\n 49623: a1 = s1 + 0x7ff\n 49627: a1 = a1 + 0x101\n 49631: u64 [s1 + 0x148] = t0\n 49635: u64 [a4 + 0x20] = t0\n 49638: ra = 2080, jump @19\n      : @1831 [@dyn 1040] (gas: 10)\n 49645: a3 = s1 + 0x100\n 49649: a2 = u64 [a3 + 0x70]\n 49652: a0 = u64 [a3 + 0x30]\n 49655: a0 = a0 + 0xffffffffffffffc0\n 49658: a0 = a2 <u a0\n 49661: a1 = u64 [a3 + 0x68]\n 49664: a0 = 0 if a1 != 0\n 49666: a1 = u64 [a3 + 0x38]\n 49669: a0 = 0 if a1 != 0\n 49671: jump @1899 if a0 == 0\n      : @1832 (gas: 13)\n 49675: a5 = s1 + 0x100\n 49679: a0 = u64 [a5 + 0x78]\n 49682: a3 = u64 [a5 + 0x50]\n 49685: a0 = a0 | a3\n 49688: a1 = u64 [a5 + 0x48]\n 49691: a4 = u64 [a5 + 0x40]\n 49694: a1 = a1 | a4\n 49697: a0 = a0 | a1\n 49700: a0 = a0 >> 0x20\n 49703: a1 = a1 | a3\n 49706: a1 = a1 << 0x20\n 49709: a0 = a0 | a1\n 49712: jump @1899 if a0 != 0\n      : @1833 (gas: 3)\n 49716: i32 a0 = a2 + 0x40\n 49719: a1 = u64 [s1 + 0x178]\n 49723: ra = 2082, jump @32\n      : @1834 [@dyn 1041] (gas: 4)\n 49730: u64 [s1 + 0x138] = a0\n 49734: a0 = u64 [s1 + 0x40]\n 49737: a1 = u64 [s1 + 0x178]\n 49741: ra = 2084, jump @32\n      : @1835 [@dyn 1042] (gas: 4)\n 49748: a1 = a0\n 49750: a0 = u64 [s1 + 0x138]\n 49754: a2 = u64 [s1 + 0x178]\n 49758: ra = 2086, jump @0\n      : @1836 [@dyn 1043] (gas: 29)\n 49765: a1 = u64 [s1 + 0x178]\n 49769: a0 = u64 [s1 + 0x170]\n 49773: a0 = a0 + a1\n 49776: a2 = a0 <u a1\n 49779: a1 = u64 [s1 + 0x168]\n 49783: a4 = u64 [s1 + 0x140]\n 49787: a1 = a1 + a4\n 49790: a1 = a1 + a2\n 49793: a3 = a1 ^ a4\n 49796: a4 = a1 <u a4\n 49799: a4 = a2 if a3 == 0\n 49802: a2 = u64 [s1 + 0x158]\n 49806: a3 = u64 [s1 + 0x148]\n 49810: a2 = a2 + a3\n 49813: a3 = u64 [s1 + 0x160]\n 49817: a5 = u64 [s1 + 0x150]\n 49821: a3 = a3 + a5\n 49824: a4 = a4 + a3\n 49827: a5 = a3 <u a5\n 49830: a3 = a4 <u a3\n 49833: a2 = a2 + a5\n 49836: a2 = a2 + a3\n 49839: a2 = a2 | a4\n 49842: a3 = 0xffffffc0\n 49852: u64 [s1 + 0x168] = a3\n 49856: a3 = a0 <u a3\n 49859: a3 = 0 if a1 != 0\n 49861: a3 = 0 if a2 != 0\n 49863: jump @1899 if a3 == 0\n      : @1837 (gas: 12)\n 49867: i32 a0 = a0 + 0x40\n 49870: a1 = s1 + 0x7ff\n 49874: a1 = a1 + 0xf9\n 49878: u64 [a1 + 0] = 0\n 49880: u64 [a1 + 4294967288] = 0\n 49883: a1 = s1 + 0x1000\n 49887: u64 [a1 + 4294965480] = 0\n 49891: a1 = s1 + 0x7ff\n 49895: a1 = a1 + 0xe1\n 49899: a2 = s1 + 0x1000\n 49903: u64 [a2 + 4294965472] = 0\n 49907: ra = 2088, jump @19\n      : @1838 [@dyn 1044] (gas: 6)\n 49914: a0 = u64 [s1 + 0x178]\n 49918: a0 = a0 + 0x1f\n 49921: a1 = 0x1ffffffe0\n 49931: a0 = a0 & a1\n 49934: a1 = u64 [s1 + 0x168]\n 49938: jump @1899 if a0 >=u a1\n      : @1839 (gas: 31)\n 49942: i32 a1 = a0 + 0x40\n 49945: a0 = u64 [s1 + 0x50]\n 49948: a2 = s1 + 0x1000\n 49952: u64 [a2 + 0xfffffffffffff8a0] = a0\n 49956: a0 = u64 [s1 + 0x58]\n 49959: a2 = s1 + 0x1000\n 49963: u64 [a2 + 0xfffffffffffff8a8] = a0\n 49967: a0 = u64 [0x201f8]\n 49972: a2 = u64 [0x20200]\n 49977: a3 = u64 [0x20208]\n 49982: a4 = u64 [0x20210]\n 49987: a5 = s1 + 0x1000\n 49991: u64 [a5 + 0xfffffffffffff8d8] = a0\n 49995: a0 = s1 + 0x1000\n 49999: u64 [a0 + 0xfffffffffffff8d0] = a2\n 50003: a0 = s1 + 0x1000\n 50007: u64 [a0 + 0xfffffffffffff8c8] = a3\n 50011: a0 = s1 + 0x1000\n 50015: u64 [a0 + 0xfffffffffffff8c0] = a4\n 50019: a0 = u64 [s1 + 0x60]\n 50022: a2 = s1 + 0x1000\n 50026: u64 [a2 + 0xfffffffffffff8b0] = a0\n 50030: a2 = s1 + 0x7ff\n 50034: a2 = a2 + 0xc1\n 50038: a3 = s1 + 0x7ff\n 50042: a3 = a3 + 0xa1\n 50046: a0 = u64 [s1 + 0x68]\n 50049: a4 = s1 + 0x1000\n 50053: u64 [a4 + 0xfffffffffffff8b8] = a0\n 50057: a0 = u64 [s1 + 0x170]\n 50061: ra = 2090, jump @26\n      : @1840 [@dyn 1045] (gas: 1)\n 50068: jump @1860\n      : @1841 (gas: 4)\n 50071: a5 = 0\n 50073: u64 [s1 + 272] = 0\n 50077: ra = u64 [s1 + 0x128]\n 50081: fallthrough\n      : @1842 (gas: 19)\n 50082: a2 = u64 [s1 + 0x168]\n 50086: a0 = a2 >> 0x3f\n 50089: a1 = ra << 0x1\n 50092: a0 = a0 | a1\n 50095: a3 = u64 [s1 + 0x160]\n 50099: a1 = a3 >> 0x3f\n 50102: a2 = a2 << 0x1\n 50105: a1 = a1 | a2\n 50108: a4 = u64 [s1 + 0x170]\n 50112: a2 = a4 >> 0x3f\n 50115: a3 = a3 << 0x1\n 50118: a4 = a4 << 0x1\n 50121: t0 = a5 | a4\n 50124: a4 = u64 [s1 + 0x110]\n 50128: a2 = a2 | a4\n 50131: ra = a2 | a3\n 50134: t2 = a4 | a1\n 50137: t1 = a4 | a0\n 50140: fallthrough\n      : @1843 (gas: 27)\n 50141: u64 [s1 + 0x138] = t1\n 50145: u64 [s1 + 0x140] = t2\n 50149: u64 [s1 + 0x148] = ra\n 50153: u64 [s1 + 0x150] = t0\n 50157: a1 = s1 + 0x7ff\n 50161: a1 = a1 + 0xf9\n 50165: u64 [a1 + 0x368] = t0\n 50169: a0 = u64 [s1 + 0xb8]\n 50173: a2 = a1 + 0x300\n 50177: u64 [a2 + 0x88] = a0\n 50181: u64 [a1 + 0x370] = ra\n 50185: a0 = u64 [s1 + 0xc0]\n 50189: u64 [a2 + 0x90] = a0\n 50193: u64 [a1 + 0x378] = t2\n 50197: a0 = u64 [s1 + 0xc8]\n 50201: u64 [a2 + 0x98] = a0\n 50205: u64 [a1 + 0x380] = t1\n 50209: a4 = a1\n 50211: a0 = s1 + 0x7ff\n 50215: a0 = a0 + 0x4a1\n 50219: a1 = s1 + 0x7ff\n 50223: a1 = a1 + 0x481\n 50227: a2 = s1 + 0x7ff\n 50231: a2 = a2 + 0x461\n 50235: a3 = u64 [s1 + 0xd0]\n 50239: u64 [a4 + 0x3a0] = a3\n 50243: ra = 2092, jump @1570\n      : @1844 [@dyn 1046] (gas: 17)\n 50249: a4 = s1 + 0x7ff\n 50253: a4 = a4 + 0xf9\n 50257: a5 = a4 + 0x300\n 50261: a0 = u64 [a5 + 0xc0]\n 50265: u64 [s1 + 0x178] = a0\n 50269: a0 = u64 [a5 + 0xb8]\n 50273: u64 [s1 + 0x170] = a0\n 50277: a2 = u64 [s1 + 0xe8]\n 50281: a0 = a2 >> 0x4\n 50284: a3 = u64 [s1 + 0xd8]\n 50288: a1 = a3 << 0x3c\n 50291: a0 = a0 | a1\n 50294: a1 = u64 [a5 + 0xb0]\n 50298: a5 = a4\n 50300: u64 [s1 + 0x168] = a1\n 50304: a1 = u64 [s1 + 0xf0]\n 50308: t0 = 2094, jump @2010\n      : @1845 [@dyn 1047] (gas: 2)\n 50314: a3 = u64 [s1 + 0xe0]\n 50318: t0 = 2096, jump @2035\n      : @1846 [@dyn 1048] (gas: 5)\n 50324: a2 = u64 [a5 + 0x3a8]\n 50328: u64 [s1 + 0x160] = a2\n 50332: a0 = a0 | a3\n 50335: a4 = a1 if a0 == 0\n 50338: jump @1848 if a4 != 0\n      : @1847 (gas: 9)\n 50341: a0 = 0x30270\n 50346: a0 = a0 << 0x20\n 50349: a0 = a0 >> 0x20\n 50352: u64 [s1 + 0x148] = a0\n 50356: a0 = u64 [s1 + 0x30]\n 50359: a0 = a0 << 0x20\n 50362: a0 = a0 >> 0x20\n 50365: u64 [s1 + 0x150] = a0\n 50369: jump @1851\n      : @1848 (gas: 9)\n 50372: a1 = s1 + 0x1118\n 50376: u64 [a1 + 672] = 0\n 50380: u64 [a1 + 664] = 0\n 50384: u64 [a1 + 656] = 0\n 50388: u64 [a1 + 648] = 0x8\n 50393: a0 = s1 + 0x7ff\n 50397: a0 = a0 + 0x441\n 50401: a1 = s1 + 0x13a0\n 50405: ra = 2098, jump @21\n      : @1849 [@dyn 1049] (gas: 70)\n 50412: a0 = s1 + 0x7ff\n 50416: a0 = a0 + 0xf9\n 50420: a2 = a0 + 0x300\n 50424: a1 = u64 [a2 + 0x48]\n 50427: u64 [s1 + 0x130] = a1\n 50431: a1 = u64 [a2 + 0x58]\n 50434: u64 [s1 + 0x128] = a1\n 50438: a0 = u64 [a2 + 0x50]\n 50441: u64 [s1 + 0x120] = a0\n 50445: ecalli 11 // 'ref_time_left'\n 50447: a1 = u64 [s1 + 0x120]\n 50451: a1 = reverse a1\n 50453: a2 = a1 << 0x20\n 50456: a3 = u64 [s1 + 0x128]\n 50460: a3 = reverse a3\n 50462: a3 = a3 >> 0x20\n 50465: a2 = a2 | a3\n 50468: a1 = a1 >> 0x20\n 50471: a3 = u64 [s1 + 0x130]\n 50475: a3 = reverse a3\n 50477: a4 = 0x30270\n 50482: a5 = a3 << 0x20\n 50485: a1 = a1 | a5\n 50488: a3 = a3 >> 0x20\n 50491: u32 [0x30280] = a3\n 50496: u64 [0x30278] = a1\n 50501: u64 [0x30270] = a2\n 50506: a1 = u64 [s1 + 0x138]\n 50510: a2 = s1 + 0x1118\n 50514: a3 = a2 + 0x200\n 50518: u64 [a3 + 0xc0] = a1\n 50522: a1 = u64 [s1 + 0x140]\n 50526: u64 [a3 + 0xb8] = a1\n 50530: a1 = u64 [s1 + 0x148]\n 50534: u64 [a3 + 0xb0] = a1\n 50538: a1 = u64 [s1 + 0x150]\n 50542: u64 [a3 + 0xa8] = a1\n 50546: u32 [a2 + 712] = 0\n 50550: a0 = a0 >u 0x8fc\n 50554: a1 = -a0\n 50556: u64 [a2 + 0x300] = a1\n 50560: u64 [a3 + 0xf8] = a1\n 50564: u64 [a3 + 0xf0] = a1\n 50568: u64 [a3 + 0xe8] = a1\n 50572: a4 = a4 << 0x20\n 50575: a4 = a4 >> 0x20\n 50578: a0 = a0 << 0x23\n 50581: u64 [s1 + 0x148] = a4\n 50585: a0 = a0 | a4\n 50588: a1 = s1 + 0x13c0\n 50592: a1 = a1 << 0x20\n 50595: a1 = a1 >> 0x20\n 50598: a2 = s1 + 0x1400\n 50602: a2 = a2 << 0x20\n 50605: a3 = a2 | a1\n 50608: a1 = u64 [s1 + 0x30]\n 50611: a1 = a1 << 0x20\n 50614: a4 = a1 >> 0x20\n 50617: a1 = s1 + 0x13e0\n 50621: a1 = a1 << 0x20\n 50624: a5 = a1 | a4\n 50627: a1 = 0xffffffffffffffff\n 50630: a2 = 0xffffffffffffffff\n 50633: u64 [s1 + 0x150] = a4\n 50637: ecalli 2 // 'call'\n 50639: a0 = a0 <u 0x1\n 50642: u64 [s1 + 0x140] = a0\n 50646: a0 = s1 + 0x7ff\n 50650: a0 = a0 + 0x421\n 50654: ra = 2100, jump @1578\n      : @1850 [@dyn 1050] (gas: 13)\n 50660: a0 = s1 + 0x7ff\n 50664: a0 = a0 + 0xf9\n 50668: u64 [a0 + 800] = 0\n 50672: u64 [a0 + 792] = 0\n 50676: a1 = u64 [s1 + 0x140]\n 50680: u64 [a0 + 0x308] = a1\n 50684: a1 = a0\n 50686: a0 = s1 + 0x7ff\n 50690: a0 = a0 + 0x401\n 50694: u64 [a1 + 784] = 0\n 50698: ra = 0x836\n 50702: t0 = 0x6d0\n 50706: jump @1953\n      : @1851 [@dyn 1051] (gas: 4)\n 50709: a0 = s1 + 0x7ff\n 50713: a0 = a0 + 0x3e1\n 50717: a1 = u64 [s1 + 0x48]\n 50720: ra = 2104, jump @21\n      : @1852 [@dyn 1052] (gas: 71)\n 50727: a2 = s1 + 0x7ff\n 50731: a2 = a2 + 0xf9\n 50735: a4 = a2 + 0x200\n 50739: a0 = u64 [a4 + 0xf0]\n 50743: a1 = u64 [a4 + 0xe8]\n 50747: a3 = u64 [a4 + 0xf8]\n 50751: u64 [s1 + 0x140] = a3\n 50755: a2 = a0 << 0x38\n 50758: a1 = a1 >> 0x8\n 50761: a1 = a1 | a2\n 50764: u64 [s1 + 0x138] = a1\n 50768: a1 = a3 << 0x38\n 50771: a0 = a0 >> 0x8\n 50774: a0 = a0 | a1\n 50777: u64 [s1 + 0x130] = a0\n 50781: ecalli 11 // 'ref_time_left'\n 50783: a1 = u64 [s1 + 0x130]\n 50787: a1 = reverse a1\n 50789: a2 = a1 >> 0x20\n 50792: a3 = u64 [s1 + 0x138]\n 50796: a3 = reverse a3\n 50798: a4 = a3 << 0x20\n 50801: a2 = a2 | a4\n 50804: a1 = a1 << 0x20\n 50807: a4 = u64 [s1 + 0x140]\n 50811: a4 = reverse a4\n 50813: a4 = a4 << 0x8\n 50816: a4 = a4 >> 0x20\n 50819: a1 = a1 | a4\n 50822: a3 = a3 >> 0x20\n 50825: u32 [0x30280] = a3\n 50830: u64 [0x30278] = a2\n 50835: u64 [0x30270] = a1\n 50840: a2 = s1 + 0x1118\n 50844: a1 = u64 [s1 + 0x178]\n 50848: a3 = a2 + 0x300\n 50852: u64 [a3 + 0x20] = a1\n 50855: a1 = u64 [s1 + 0x170]\n 50859: u64 [a3 + 0x18] = a1\n 50862: a1 = u64 [s1 + 0x168]\n 50866: u64 [a3 + 0x10] = a1\n 50869: a1 = u64 [s1 + 0x160]\n 50873: u64 [a3 + 0x8] = a1\n 50876: u32 [a2 + 808] = 0\n 50880: a0 = a0 >u 0x8fc\n 50884: a1 = -a0\n 50886: u64 [a3 + 0x60] = a1\n 50889: u64 [a3 + 0x58] = a1\n 50892: u64 [a3 + 0x50] = a1\n 50895: u64 [a3 + 0x48] = a1\n 50898: a0 = a0 << 0x23\n 50901: a1 = u64 [s1 + 0x148]\n 50905: a0 = a0 | a1\n 50908: a1 = s1 + 0x1420\n 50912: a1 = a1 << 0x20\n 50915: a1 = a1 >> 0x20\n 50918: a2 = s1 + 0x1460\n 50922: a2 = a2 << 0x20\n 50925: a3 = a2 | a1\n 50928: a1 = s1 + 0x1440\n 50932: a1 = a1 << 0x20\n 50935: a4 = u64 [s1 + 0x150]\n 50939: a5 = a1 | a4\n 50942: a1 = 0xffffffffffffffff\n 50945: a2 = 0xffffffffffffffff\n 50948: ecalli 2 // 'call'\n 50950: a0 = a0 <u 0x1\n 50953: u64 [s1 + 0x150] = a0\n 50957: a0 = s1 + 0x7ff\n 50961: a0 = a0 + 0x3c1\n 50965: ra = 2106, jump @1578\n      : @1853 [@dyn 1053] (gas: 12)\n 50971: a1 = s1 + 0x7ff\n 50975: a1 = a1 + 0xf9\n 50979: u64 [a1 + 704] = 0\n 50983: u64 [a1 + 696] = 0\n 50987: a0 = u64 [s1 + 0x150]\n 50991: u64 [a1 + 0x2a8] = a0\n 50995: a0 = s1 + 0x7ff\n 50999: a0 = a0 + 0x3a1\n 51003: u64 [a1 + 688] = 0\n 51007: ra = 0x83c\n 51011: t0 = 0x6f2\n 51015: jump @1953\n      : @1854 [@dyn 1054] (gas: 10)\n 51018: a0 = s1 + 0x1118\n 51022: u64 [a0 + 896] = 0\n 51026: u64 [a0 + 888] = 0\n 51030: u64 [a0 + 880] = 0\n 51034: a1 = a0\n 51036: u64 [a1 + 872] = 0x4\n 51041: a0 = s1 + 0x7ff\n 51045: a0 = a0 + 0x381\n 51049: a1 = s1 + 0x1480\n 51053: ra = 2110, jump @21\n      : @1855 [@dyn 1055] (gas: 15)\n 51060: a0 = s1 + 0x7ff\n 51064: a0 = a0 + 0xf9\n 51068: a2 = a0 + 0x200\n 51072: a1 = u64 [a2 + 0xa0]\n 51076: u64 [s1 + 0x138] = a1\n 51080: a1 = u64 [a2 + 0x98]\n 51084: u64 [s1 + 0x140] = a1\n 51088: a1 = u64 [a2 + 0x90]\n 51092: u64 [s1 + 0x148] = a1\n 51096: a1 = u64 [a2 + 0x88]\n 51100: u64 [s1 + 0x150] = a1\n 51104: a0 = s1 + 0x7ff\n 51108: a0 = a0 + 0x361\n 51112: a1 = u64 [s1 + 0x48]\n 51115: ra = 2112, jump @21\n      : @1856 [@dyn 1056] (gas: 14)\n 51122: a1 = s1 + 0x7ff\n 51126: a1 = a1 + 0xf9\n 51130: a2 = a1 + 0x200\n 51134: a0 = u64 [a2 + 0x78]\n 51137: a1 = s1 + 0x100\n 51141: u64 [a1 + 0x30] = a0\n 51144: a0 = u64 [a2 + 0x70]\n 51147: u64 [a1 + 0x28] = a0\n 51150: a0 = u64 [a2 + 0x68]\n 51153: u64 [a1 + 0x20] = a0\n 51156: a0 = s1 + 0x7ff\n 51160: a0 = a0 + 0x341\n 51164: a1 = 0x40\n 51167: ra = 2114, jump @17\n      : @1857 [@dyn 1057] (gas: 15)\n 51174: a3 = s1 + 0x7ff\n 51178: a3 = a3 + 0xf9\n 51182: a4 = a3 + 0x200\n 51186: a0 = u64 [a4 + 0x60]\n 51189: a1 = u64 [a4 + 0x58]\n 51192: a2 = u64 [a4 + 0x50]\n 51195: a5 = u64 [a4 + 0x48]\n 51198: a0 = a0 | a2\n 51201: a2 = a5 | a1\n 51204: a2 = a2 | a0\n 51207: a2 = a2 >> 0x20\n 51210: a0 = a0 | a1\n 51213: a0 = a0 << 0x20\n 51216: a0 = a0 | a2\n 51219: jump @1899 if a0 != 0\n      : @1858 (gas: 32)\n 51223: a2 = u64 [s1 + 0x128]\n 51227: a0 = a2 >> 0x8\n 51230: a4 = u64 [s1 + 0x130]\n 51234: a1 = a4 << 0x38\n 51237: a0 = a0 | a1\n 51240: a1 = u64 [s1 + 0x120]\n 51244: a1 = a1 >> 0x8\n 51247: a2 = a2 << 0x38\n 51250: a1 = a1 | a2\n 51253: a2 = a4 >> 0x8\n 51256: a4 = 0xffffffffffffffff\n 51259: a1 = a1 & a4\n 51262: u64 [s1 + 0x130] = a1\n 51266: a0 = a0 & a4\n 51269: u64 [s1 + 0x128] = a0\n 51273: a0 = u64 [s1 + 0x158]\n 51277: a0 = a0 & a2\n 51280: u64 [s1 + 0x158] = a0\n 51284: a0 = u64 [s1 + 0x160]\n 51288: a2 = a3 + 0x200\n 51292: u64 [a2 + 0x28] = a0\n 51295: a0 = u64 [s1 + 0x168]\n 51299: u64 [a2 + 0x30] = a0\n 51302: a0 = u64 [s1 + 0x170]\n 51306: u64 [a2 + 0x38] = a0\n 51309: a1 = s1 + 0x7ff\n 51313: a1 = a1 + 0x321\n 51317: a0 = u64 [s1 + 0x178]\n 51321: u64 [a2 + 0x40] = a0\n 51324: a0 = a5\n 51326: u64 [s1 + 0x178] = a5\n 51330: ra = 2116, jump @19\n      : @1859 [@dyn 1058] (gas: 37)\n 51337: a4 = s1 + 0x7ff\n 51341: a4 = a4 + 0xf9\n 51345: u64 [a4 + 480] = 0\n 51349: a0 = u64 [s1 + 0x158]\n 51353: a5 = a4 + 0x100\n 51357: u64 [a5 + 0xd8] = a0\n 51361: a0 = u64 [s1 + 0x128]\n 51365: u64 [a5 + 0xd0] = a0\n 51369: a0 = u64 [s1 + 0x130]\n 51373: u64 [a5 + 0xc8] = a0\n 51377: a0 = u64 [s1 + 0x138]\n 51381: u64 [a4 + 0x200] = a0\n 51385: a0 = u64 [s1 + 0x140]\n 51389: u64 [a5 + 0xf8] = a0\n 51393: a0 = u64 [s1 + 0x148]\n 51397: u64 [a5 + 0xf0] = a0\n 51401: a0 = u64 [0x201c8]\n 51406: a1 = u64 [0x201d0]\n 51411: a2 = u64 [0x201d8]\n 51416: a3 = u64 [s1 + 0x150]\n 51420: u64 [a5 + 0xe8] = a3\n 51424: a3 = a4 + 0x200\n 51428: u64 [a3 + 0x20] = a0\n 51431: u64 [a3 + 0x18] = a1\n 51434: u64 [a3 + 0x10] = a2\n 51437: a5 = a4\n 51439: a0 = u64 [0x201e0]\n 51444: a1 = 0x20\n 51447: a2 = s1 + 0x7ff\n 51451: a2 = a2 + 0x301\n 51455: a3 = s1 + 0x7ff\n 51459: a3 = a3 + 0x2e1\n 51463: a4 = s1 + 0x7ff\n 51467: a4 = a4 + 0x2c1\n 51471: u64 [a5 + 0x208] = a0\n 51475: a0 = u64 [s1 + 0x178]\n 51479: ra = 2118, jump @28\n      : @1860 [@dyn 1059] (gas: 1)\n 51486: ra = 2120, jump @1932\n      : @1861 [@dyn 1060] (gas: 9)\n 51492: sp = s0 + 0xffffffffffffeb40\n 51496: sp = sp + 0x7f8\n 51500: sp = sp + 0x4d0\n 51504: a0 = sp + 0x700\n 51508: ra = u64 [a0 + 0xf0]\n 51512: s0 = u64 [a0 + 0xe8]\n 51516: s1 = u64 [a0 + 0xe0]\n 51520: sp = sp + 0x7f8\n 51524: ret\n      : @1862 (gas: 3)\n 51526: a0 = s1 + 0x4c0\n 51530: a1 = 0x40\n 51533: ra = 2122, jump @17\n      : @1863 [@dyn 1061] (gas: 6)\n 51540: a4 = s1 + 0x400\n 51544: a2 = u64 [a4 + 0xd8]\n 51548: a3 = u64 [a4 + 0xd0]\n 51552: a0 = u64 [a4 + 0xc8]\n 51556: a1 = u64 [a4 + 0xc0]\n 51560: t0 = 2124, jump @2009\n      : @1864 [@dyn 1062] (gas: 1)\n 51566: jump @1899 if a0 != 0\n      : @1865 (gas: 8)\n 51570: u64 [s1 + 1200] = 0\n 51574: u64 [s1 + 1192] = 0\n 51578: u64 [s1 + 1184] = 0\n 51582: a0 = 0x8c379a000000000\n 51592: a1 = s1 + 0x4a0\n 51596: u64 [s1 + 0x4b8] = a0\n 51600: a0 = u64 [s1 + 0x178]\n 51604: ra = 2126, jump @19\n      : @1866 [@dyn 1063] (gas: 1)\n 51611: t0 = 2128, jump @1971\n      : @1867 [@dyn 1064] (gas: 1)\n 51617: jump @1899 if a0 == 0\n      : @1868 (gas: 8)\n 51621: a0 = u64 [s1 + 0x178]\n 51625: i32 a0 = a0 + 0x4\n 51628: u64 [s1 + 1176] = 0\n 51632: u64 [s1 + 1168] = 0\n 51636: u64 [s1 + 1152] = 0x20\n 51641: a1 = s1 + 0x480\n 51645: u64 [s1 + 1160] = 0\n 51649: ra = 2130, jump @19\n      : @1869 [@dyn 1065] (gas: 4)\n 51656: a2 = s1 + 0x100\n 51660: a0 = u64 [a2 + 0x60]\n 51663: a0 = a0 + 0xffffffffffffffdc\n 51666: t0 = 2132, jump @1973\n      : @1870 [@dyn 1066] (gas: 1)\n 51672: jump @1899 if a0 == 0\n      : @1871 (gas: 8)\n 51676: a0 = u64 [s1 + 0x178]\n 51680: i32 a0 = a0 + 0x24\n 51683: u64 [s1 + 1144] = 0\n 51687: u64 [s1 + 1136] = 0\n 51691: u64 [s1 + 1120] = 0xd\n 51696: a1 = s1 + 0x460\n 51700: u64 [s1 + 1128] = 0\n 51704: ra = 2134, jump @19\n      : @1872 [@dyn 1067] (gas: 3)\n 51711: a0 = 0xffffffbc\n 51721: a2 = s1 + 0x100\n 51725: t0 = 2136, jump @1973\n      : @1873 [@dyn 1068] (gas: 1)\n 51731: jump @1899 if a0 == 0\n      : @1874 (gas: 11)\n 51735: a0 = u64 [s1 + 0x178]\n 51739: i32 a0 = a0 + 0x44\n 51742: a1 = u64 [0x20218]\n 51747: u64 [s1 + 1096] = 0\n 51751: u64 [s1 + 0x458] = a1\n 51755: a1 = 0x61696c6564000000\n 51765: u64 [s1 + 0x450] = a1\n 51769: a1 = s1 + 0x440\n 51773: u64 [s1 + 1088] = 0\n 51777: ra = 0x882\n 51781: jump @19\n      : @1875 (gas: 3)\n 51785: a0 = s1 + 0x1080\n 51789: a1 = 0x40\n 51792: ra = 2138, jump @17\n      : @1876 [@dyn 1069] (gas: 20)\n 51799: a0 = s1 + 0x7ff\n 51803: a0 = a0 + 0xf9\n 51807: a5 = a0 + 0x700\n 51811: a3 = u64 [a5 + 0xa0]\n 51815: a4 = u64 [a5 + 0x98]\n 51819: a2 = u64 [a5 + 0x90]\n 51823: a1 = u64 [a5 + 0x88]\n 51827: a5 = s1 + 0x100\n 51831: u64 [a5 + 0x70] = a2\n 51834: u64 [a5 + 0x68] = a3\n 51837: a0 = a2 | a3\n 51840: u64 [a5 + 0x78] = a1\n 51843: a1 = a1 | a4\n 51846: a1 = a1 | a0\n 51849: a1 = a1 >> 0x20\n 51852: u64 [a5 + 0x60] = a4\n 51855: a0 = a0 | a4\n 51858: a0 = a0 << 0x20\n 51861: a0 = a0 | a1\n 51864: jump @1899 if a0 != 0\n      : @1877 (gas: 10)\n 51868: a2 = s1 + 0x7ff\n 51872: a2 = a2 + 0xf9\n 51876: u64 [a2 + 1912] = 0\n 51880: u64 [a2 + 1904] = 0\n 51884: u64 [a2 + 1896] = 0\n 51888: a0 = 0x8c379a000000000\n 51898: a1 = s1 + 0x1060\n 51902: u64 [a2 + 0x780] = a0\n 51906: a0 = u64 [s1 + 0x178]\n 51910: ra = 2140, jump @19\n      : @1878 [@dyn 1070] (gas: 1)\n 51917: t0 = 2142, jump @1971\n      : @1879 [@dyn 1071] (gas: 1)\n 51923: jump @1899 if a0 == 0\n      : @1880 (gas: 10)\n 51927: a0 = u64 [s1 + 0x178]\n 51931: i32 a0 = a0 + 0x4\n 51934: a2 = s1 + 0x7ff\n 51938: a2 = a2 + 0xf9\n 51942: u64 [a2 + 1888] = 0\n 51946: u64 [a2 + 1880] = 0\n 51950: u64 [a2 + 1864] = 0x20\n 51955: a1 = s1 + 0x1040\n 51959: u64 [a2 + 1872] = 0\n 51963: ra = 2144, jump @19\n      : @1881 [@dyn 1072] (gas: 4)\n 51970: a2 = s1 + 0x100\n 51974: a0 = u64 [a2 + 0x60]\n 51977: a0 = a0 + 0xffffffffffffffdc\n 51980: t0 = 2146, jump @1973\n      : @1882 [@dyn 1073] (gas: 1)\n 51986: jump @1899 if a0 == 0\n      : @1883 (gas: 10)\n 51990: a0 = u64 [s1 + 0x178]\n 51994: i32 a0 = a0 + 0x24\n 51997: a2 = s1 + 0x7ff\n 52001: a2 = a2 + 0xf9\n 52005: u64 [a2 + 1856] = 0\n 52009: u64 [a2 + 1848] = 0\n 52013: u64 [a2 + 1832] = 0x13\n 52018: a1 = s1 + 0x1020\n 52022: u64 [a2 + 1840] = 0\n 52026: ra = 2148, jump @19\n      : @1884 [@dyn 1074] (gas: 3)\n 52033: a0 = 0xffffffbc\n 52043: a2 = s1 + 0x100\n 52047: t0 = 2150, jump @1973\n      : @1885 [@dyn 1075] (gas: 1)\n 52053: jump @1899 if a0 == 0\n      : @1886 (gas: 15)\n 52057: a0 = u64 [s1 + 0x178]\n 52061: i32 a0 = a0 + 0x44\n 52064: a1 = u64 [0x201b8]\n 52069: a2 = u64 [0x201c0]\n 52074: a3 = s1 + 0x7ff\n 52078: a3 = a3 + 0xf9\n 52082: a4 = a3 + 0x700\n 52086: u64 [a4 + 0x20] = a1\n 52089: u64 [a4 + 0x18] = a2\n 52092: a1 = 0x6f636b0000000000\n 52102: u64 [a4 + 0x10] = a1\n 52105: a1 = s1 + 0x1000\n 52109: u64 [a3 + 1800] = 0\n 52113: ra = 0x882\n 52117: jump @19\n      : @1887 (gas: 3)\n 52121: a0 = s1 + 0x240\n 52125: a1 = 0x40\n 52128: ra = 2152, jump @17\n      : @1888 [@dyn 1076] (gas: 6)\n 52135: a4 = s1 + 0x200\n 52139: a2 = u64 [a4 + 0x58]\n 52142: a3 = u64 [a4 + 0x50]\n 52145: a0 = u64 [a4 + 0x48]\n 52148: a1 = u64 [a4 + 0x40]\n 52151: t0 = 2154, jump @2009\n      : @1889 [@dyn 1077] (gas: 1)\n 52157: jump @1899 if a0 != 0\n      : @1890 (gas: 8)\n 52161: u64 [s1 + 560] = 0\n 52165: u64 [s1 + 552] = 0\n 52169: u64 [s1 + 544] = 0\n 52173: a0 = 0x8c379a000000000\n 52183: a1 = s1 + 0x220\n 52187: u64 [s1 + 0x238] = a0\n 52191: a0 = u64 [s1 + 0x178]\n 52195: ra = 2156, jump @19\n      : @1891 [@dyn 1078] (gas: 1)\n 52202: t0 = 2158, jump @1971\n      : @1892 [@dyn 1079] (gas: 1)\n 52208: jump @1899 if a0 == 0\n      : @1893 (gas: 8)\n 52211: a0 = u64 [s1 + 0x178]\n 52215: i32 a0 = a0 + 0x4\n 52218: u64 [s1 + 536] = 0\n 52222: u64 [s1 + 528] = 0\n 52226: u64 [s1 + 512] = 0x20\n 52231: a1 = s1 + 0x200\n 52235: u64 [s1 + 520] = 0\n 52239: ra = 2160, jump @19\n      : @1894 [@dyn 1080] (gas: 4)\n 52246: a2 = s1 + 0x100\n 52250: a0 = u64 [a2 + 0x60]\n 52253: a0 = a0 + 0xffffffffffffffdc\n 52256: t0 = 2162, jump @1973\n      : @1895 [@dyn 1081] (gas: 1)\n 52262: jump @1899 if a0 == 0\n      : @1896 (gas: 8)\n 52265: a0 = u64 [s1 + 0x178]\n 52269: i32 a0 = a0 + 0x24\n 52272: u64 [s1 + 504] = 0\n 52276: u64 [s1 + 496] = 0\n 52280: u64 [s1 + 480] = 0x1c\n 52285: a1 = s1 + 0x1e0\n 52289: u64 [s1 + 488] = 0\n 52293: ra = 2164, jump @19\n      : @1897 [@dyn 1082] (gas: 3)\n 52300: a0 = 0xffffffbc\n 52310: a2 = s1 + 0x100\n 52314: t0 = 2166, jump @1973\n      : @1898 [@dyn 1083] (gas: 1)\n 52320: jump @1909 if a0 != 0\n      : @1899 (gas: 1)\n 52324: trap\n      : @1900 (gas: 6)\n 52325: u64 [s1 + 432] = 0\n 52329: u64 [s1 + 424] = 0\n 52333: u64 [s1 + 416] = 0\n 52337: t0 = 0x878\n 52341: a0 = 0x4e487b7100000000\n 52351: fallthrough\n      : @1901 [@dyn 1084] (gas: 4)\n 52352: a1 = s1 + 0x1a0\n 52356: u64 [s1 + 0x1b8] = a0\n 52360: a0 = 0\n 52362: ra = 2170, jump @19\n      : @1902 [@dyn 1085] (gas: 8)\n 52369: u64 [s1 + 408] = 0\n 52373: u64 [s1 + 400] = 0\n 52377: u64 [s1 + 384] = 0x11\n 52382: a0 = 0x4\n 52385: a1 = s1 + 0x180\n 52389: u64 [s1 + 392] = 0\n 52393: ra = 0x880\n 52397: jump @19\n      : @1903 (gas: 9)\n 52401: a0 = s1 + 0x7ff\n 52405: a0 = a0 + 0xf9\n 52409: u64 [a0 + 440] = 0\n 52413: u64 [a0 + 432] = 0\n 52417: u64 [a0 + 424] = 0\n 52421: a2 = a0\n 52423: t0 = 0x87c\n 52427: a0 = 0x4e487b7100000000\n 52437: fallthrough\n      : @1904 [@dyn 1086] (gas: 5)\n 52438: a1 = s1 + 0x7ff\n 52442: a1 = a1 + 0x2a1\n 52446: u64 [a2 + 0x1c0] = a0\n 52450: a0 = 0\n 52452: ra = 2174, jump @19\n      : @1905 [@dyn 1087] (gas: 11)\n 52459: a1 = s1 + 0x7ff\n 52463: a1 = a1 + 0xf9\n 52467: u64 [a1 + 416] = 0\n 52471: u64 [a1 + 408] = 0\n 52475: u64 [a1 + 392] = 0x11\n 52480: a2 = a1\n 52482: a0 = 0x4\n 52485: a1 = s1 + 0x7ff\n 52489: a1 = a1 + 0x281\n 52493: u64 [a2 + 400] = 0\n 52497: ra = 2176, jump @19\n      : @1906 [@dyn 1088] (gas: 3)\n 52504: a0 = u64 [s1 + 0x38]\n 52507: a0 = i32 [a0]\n 52509: jump @1908 if a0 >u 63\n      : @1907 (gas: 3)\n 52513: a1 = u64 [s1 + 0x38]\n 52516: u32 [a1 + 0] = 0x40\n 52519: fallthrough\n      : @1908 (gas: 5)\n 52520: a0 = 0x1\n 52523: a2 = 0x24\n 52526: a1 = u64 [s1 + 0x40]\n 52529: ecalli 14 // 'seal_return'\n 52531: fallthrough\n      : @1909 (gas: 13)\n 52532: a4 = s1 + 0x100\n 52536: a0 = u64 [a4 + 0x78]\n 52539: i32 a0 = a0 + 0x44\n 52542: a1 = u64 [0x20220]\n 52547: a2 = u64 [0x20228]\n 52552: a3 = u64 [0x20230]\n 52557: u64 [a4 + 0xd8] = a1\n 52561: u64 [a4 + 0xd0] = a2\n 52565: u64 [a4 + 0xc8] = a3\n 52569: a2 = 0x6e6e657200000000\n 52579: a1 = s1 + 0x1c0\n 52583: u64 [a4 + 0xc0] = a2\n 52587: ra = 2178, jump @19\n      : @1910 [@dyn 1089] (gas: 3)\n 52594: a1 = 0x64\n 52597: a0 = u64 [s1 + 0x178]\n 52601: ra = 2180, jump @32\n      : @1911 [@dyn 1090] (gas: 1)\n 52608: t0 = 2182, jump @1995\n      : @1912 [@dyn 1091] (gas: 3)\n 52614: ra = 0x888\n 52618: ecalli 14 // 'seal_return'\n 52620: fallthrough\n      : @1913 [@dyn 1092] (gas: 10)\n 52621: a4 = u64 [a1 + 0x18]\n 52624: a3 = u64 [a1 + 0x10]\n 52627: t1 = u64 [a1 + 0x8]\n 52630: t0 = a4 >u 0\n 52632: a5 = a3 >u 0\n 52634: a5 = t0 if a4 != 0\n 52637: t0 = a3 | a4\n 52640: a2 = t1 >u 0\n 52642: a2 = a5 if t0 != 0\n 52645: jump @1915 if a2 != 0\n      : @1914 (gas: 24)\n 52648: a1 = u64 [a1]\n 52650: a2 = a3 >> 0x3b\n 52653: a4 = a4 << 0x5\n 52656: t0 = a4 | a2\n 52659: a4 = t1 >> 0x3b\n 52662: a3 = a3 << 0x5\n 52665: a3 = a3 | a4\n 52668: a4 = a1 >> 0x3b\n 52671: t1 = t1 << 0x5\n 52674: a4 = t1 | a4\n 52677: a1 = a1 << 0x5\n 52680: a5 = a1 + 0x20\n 52683: a1 = a5 <u a1\n 52686: a2 = a4 + a1\n 52689: a4 = a2 <u a4\n 52692: a4 = a1 if a1 == 0\n 52695: a4 = a4 + a3\n 52698: a1 = a4 <u a3\n 52701: a1 = a1 + t0\n 52704: u64 [a0] = a5\n 52706: u64 [a0 + 0x8] = a2\n 52709: u64 [a0 + 0x10] = a4\n 52712: u64 [a0 + 0x18] = a1\n 52715: ret\n      : @1915 (gas: 6)\n 52717: sp = sp + 0xffffffffffffffb0\n 52720: u64 [sp + 0x48] = ra\n 52723: u64 [sp + 0x40] = s0\n 52726: s0 = sp + 0x50\n 52729: sp = sp & 0xfffffffffffffff0\n 52732: t0 = 2186, jump @1989\n      : @1916 [@dyn 1093] (gas: 1)\n 52738: ra = 2188, jump @19\n      : @1917 [@dyn 1094] (gas: 7)\n 52745: u64 [sp + 24] = 0\n 52748: u64 [sp + 16] = 0\n 52751: u64 [sp + 0] = 0x41\n 52754: a0 = 0x4\n 52757: a1 = sp\n 52759: u64 [sp + 8] = 0\n 52762: ra = 2190, jump @19\n      : @1918 [@dyn 1095] (gas: 2)\n 52769: a1 = i32 [0x2025c]\n 52774: jump @1920 if a1 >u 63\n      : @1919 (gas: 2)\n 52778: u32 [0x2025c] = 0x40\n 52784: fallthrough\n      : @1920 (gas: 7)\n 52785: a1 = 0x20270\n 52790: i32 a1 = a1 + 0\n 52792: a0 = 0x1\n 52795: a2 = 0x24\n 52798: ra = 0x890\n 52802: ecalli 14 // 'seal_return'\n 52804: fallthrough\n      : @1921 [@dyn 1096] (gas: 22)\n 52805: sp = sp + 0xffffffffffffff40\n 52809: u64 [sp + 0xb8] = ra\n 52813: u64 [sp + 0xb0] = s0\n 52817: u64 [sp + 0xa8] = s1\n 52821: s0 = sp + 0xc0\n 52825: sp = sp & 0xfffffffffffffff0\n 52828: a4 = u64 [a1 + 0x10]\n 52831: a3 = u64 [a1 + 0x18]\n 52834: a5 = u64 [a1 + 0x8]\n 52837: a1 = u64 [a1]\n 52839: u64 [sp + 0x28] = a3\n 52842: u64 [sp + 0x20] = a5\n 52845: a5 = a5 | a3\n 52848: a3 = a1 | a4\n 52851: a3 = a3 | a5\n 52854: a3 = a3 >> 0x20\n 52857: u64 [sp + 0x30] = a4\n 52860: a4 = a4 | a5\n 52863: a4 = a4 << 0x20\n 52866: a3 = a3 | a4\n 52869: u64 [sp + 0x38] = a0\n 52872: jump @1925 if a3 != 0\n      : @1922 (gas: 10)\n 52876: a0 = u64 [a2 + 0x18]\n 52879: u64 [sp + 0x10] = a0\n 52882: s1 = u64 [a2 + 0x10]\n 52885: a0 = u64 [a2 + 0x8]\n 52888: u64 [sp + 0x8] = a0\n 52891: a0 = u64 [a2]\n 52893: u64 [sp] = a0\n 52895: a0 = sp + 0x80\n 52899: u64 [sp + 0x18] = a1\n 52902: ra = 2194, jump @17\n      : @1923 [@dyn 1097] (gas: 19)\n 52909: t0 = u64 [sp + 0x10]\n 52912: a5 = u64 [sp + 0x8]\n 52915: t1 = u64 [sp]\n 52917: a0 = u64 [sp + 0x88]\n 52921: a1 = u64 [sp + 0x98]\n 52925: a2 = u64 [sp + 0x80]\n 52929: a3 = u64 [sp + 0x90]\n 52933: a4 = a0 ^ a5\n 52936: a0 = a5 <u a0\n 52939: a2 = t1 <u a2\n 52942: a2 = a0 if a4 != 0\n 52945: a0 = s1 <u a3\n 52948: a4 = a1 ^ t0\n 52951: a1 = t0 <u a1\n 52954: a1 = a0 if a4 == 0\n 52957: a3 = a3 ^ s1\n 52960: a3 = a3 | a4\n 52963: a1 = a2 if a3 == 0\n 52966: jump @1926 if a1 == 0\n      : @1924 (gas: 47)\n 52970: a0 = s1 >> 0x3b\n 52973: a1 = t0 << 0x5\n 52976: t0 = a1 | a0\n 52979: a1 = a5 >> 0x3b\n 52982: s1 = s1 << 0x5\n 52985: a1 = a1 | s1\n 52988: a2 = t1 >> 0x3b\n 52991: a3 = a5 << 0x5\n 52994: a2 = a2 | a3\n 52997: a3 = t1 << 0x5\n 53000: a0 = u64 [sp + 0x18]\n 53003: a3 = a3 + a0\n 53006: a4 = a3 <u a0\n 53009: a5 = u64 [sp + 0x20]\n 53012: a2 = a2 + a5\n 53015: a2 = a2 + a4\n 53018: a0 = a2 ^ a5\n 53021: s1 = a2 <u a5\n 53024: s1 = a4 if a0 == 0\n 53027: a5 = u64 [sp + 0x30]\n 53030: a1 = a1 + a5\n 53033: s1 = s1 + a1\n 53036: a4 = s1 <u a1\n 53039: a1 = a1 <u a5\n 53042: a5 = u64 [sp + 0x28]\n 53045: a0 = a5 + t0\n 53048: a0 = a0 + a1\n 53051: a0 = a0 + a4\n 53054: a1 = a3 + 0x20\n 53057: a3 = a1 <u a3\n 53060: a4 = a2 + a3\n 53063: a2 = a4 <u a2\n 53066: a2 = a3 if a3 == 0\n 53069: a2 = a2 + s1\n 53072: a3 = a2 <u s1\n 53075: a0 = a0 + a3\n 53078: a3 = u64 [sp + 0x38]\n 53081: u64 [a3] = a1\n 53083: u64 [a3 + 0x8] = a4\n 53086: u64 [a3 + 0x10] = a2\n 53089: u64 [a3 + 0x18] = a0\n 53092: sp = s0 + 0xffffffffffffff40\n 53096: ra = u64 [sp + 0xb8]\n 53100: s0 = u64 [sp + 0xb0]\n 53104: s1 = u64 [sp + 0xa8]\n 53108: sp = sp + 0xc0\n 53112: ret\n      : @1925 (gas: 1)\n 53114: trap\n      : @1926 (gas: 6)\n 53115: u64 [sp + 112] = 0\n 53118: u64 [sp + 104] = 0\n 53121: u64 [sp + 96] = 0\n 53124: t0 = 0x894\n 53128: a0 = 0x4e487b7100000000\n 53138: fallthrough\n      : @1927 [@dyn 1098] (gas: 4)\n 53139: a1 = sp + 0x60\n 53142: u64 [sp + 0x78] = a0\n 53145: a0 = 0\n 53147: ra = 2198, jump @19\n      : @1928 [@dyn 1099] (gas: 7)\n 53154: u64 [sp + 88] = 0\n 53157: u64 [sp + 80] = 0\n 53160: u64 [sp + 64] = 0x32\n 53164: a0 = 0x4\n 53167: a1 = sp + 0x40\n 53170: u64 [sp + 72] = 0\n 53173: ra = 2200, jump @19\n      : @1929 [@dyn 1100] (gas: 2)\n 53180: a1 = i32 [0x2025c]\n 53185: jump @1931 if a1 >u 63\n      : @1930 (gas: 2)\n 53189: u32 [0x2025c] = 0x40\n 53195: fallthrough\n      : @1931 (gas: 7)\n 53196: a1 = 0x20270\n 53201: i32 a1 = a1 + 0\n 53203: a0 = 0x1\n 53206: a2 = 0x24\n 53209: ra = 0x89a\n 53213: ecalli 14 // 'seal_return'\n 53215: fallthrough\n      : @1932 [@dyn 1101] (gas: 15)\n 53216: sp = sp + 0xfffffffffffffd40\n 53220: a0 = sp + 0x200\n 53224: u64 [a0 + 0xb8] = ra\n 53228: u64 [a0 + 0xb0] = s0\n 53232: u64 [a0 + 0xa8] = s1\n 53236: s0 = sp + 0x2c0\n 53240: sp = sp & 0xffffffffffffffe0\n 53243: s1 = sp\n 53245: u64 [s1 + 472] = 0\n 53249: u64 [s1 + 464] = 0\n 53253: u64 [s1 + 456] = 0\n 53257: u64 [s1 + 448] = 0x4\n 53262: a0 = s1 + 0x180\n 53266: a1 = s1 + 0x1c0\n 53270: ra = 2204, jump @21\n      : @1933 [@dyn 1102] (gas: 11)\n 53277: a2 = u64 [s1 + 0x180]\n 53281: a0 = u64 [s1 + 0x188]\n 53285: a1 = u64 [s1 + 0x190]\n 53289: a3 = u64 [s1 + 0x198]\n 53293: u64 [s1 + 0x158] = a3\n 53297: u64 [s1 + 0x150] = a1\n 53301: u64 [s1 + 0x148] = a0\n 53305: a0 = s1 + 0x160\n 53309: a1 = s1 + 0x140\n 53313: u64 [s1 + 0x140] = a2\n 53317: ra = 2206, jump @1511\n      : @1934 [@dyn 1103] (gas: 19)\n 53323: a3 = u64 [s1 + 0x178]\n 53327: u64 [s1 + 0x20] = a3\n 53330: a2 = u64 [s1 + 0x170]\n 53334: u64 [s1 + 0x28] = a2\n 53337: a1 = u64 [s1 + 0x168]\n 53341: u64 [s1 + 0x30] = a1\n 53344: a0 = u64 [s1 + 0x160]\n 53348: u64 [s1 + 0x38] = a0\n 53351: u64 [s1 + 0x1b8] = a3\n 53355: u64 [s1 + 0x1b0] = a2\n 53359: u64 [s1 + 0x1a8] = a1\n 53363: u64 [s1 + 0x1a0] = a0\n 53367: u64 [s1 + 504] = 0\n 53371: u64 [s1 + 496] = 0\n 53375: u64 [s1 + 488] = 0\n 53379: u64 [s1 + 480] = 0x4\n 53384: a0 = s1 + 0x1e0\n 53388: a1 = s1 + 0x1a0\n 53392: ra = 2208, jump @25\n      : @1935 [@dyn 1104] (gas: 11)\n 53399: a0 = u64 [s1 + 0x20]\n 53402: u64 [s1 + 0x138] = a0\n 53406: a0 = u64 [s1 + 0x28]\n 53409: u64 [s1 + 0x130] = a0\n 53413: a0 = u64 [s1 + 0x30]\n 53416: u64 [s1 + 0x128] = a0\n 53420: a1 = s1 + 0x120\n 53424: a0 = u64 [s1 + 0x38]\n 53427: u64 [s1 + 0x120] = a0\n 53431: a0 = 0\n 53433: ra = 2210, jump @19\n      : @1936 [@dyn 1105] (gas: 7)\n 53440: u64 [s1 + 280] = 0\n 53444: u64 [s1 + 272] = 0\n 53448: u64 [s1 + 256] = 0x3\n 53453: a0 = 0x20\n 53456: a1 = s1 + 0x100\n 53460: u64 [s1 + 264] = 0\n 53464: ra = 2212, jump @19\n      : @1937 [@dyn 1106] (gas: 2)\n 53471: a1 = i32 [0x2025c]\n 53476: jump @1939 if a1 >u 63\n      : @1938 (gas: 2)\n 53480: u32 [0x2025c] = 0x40\n 53486: fallthrough\n      : @1939 (gas: 51)\n 53487: a0 = sp + 0xffffffffffffffe0\n 53490: a2 = a0 & 0xffffffffffffffe0\n 53493: u64 [s1 + 0x38] = a2\n 53496: sp = a2\n 53498: a0 = 0x20270\n 53503: i32 a0 = a0 + 0\n 53505: i32 a2 = a2 + 0\n 53507: a1 = 0x40\n 53510: ecalli 9 // 'hash_keccak_256'\n 53512: a3 = u64 [s1 + 0x38]\n 53515: a0 = u64 [a3]\n 53517: a1 = u64 [a3 + 0x8]\n 53520: a2 = u64 [a3 + 0x10]\n 53523: a3 = u64 [a3 + 0x18]\n 53526: a0 = reverse a0\n 53528: u64 [s1 + 0x38] = a0\n 53531: a0 = reverse a1\n 53533: u64 [s1 + 0x30] = a0\n 53536: a0 = reverse a2\n 53538: u64 [s1 + 0x28] = a0\n 53541: a0 = reverse a3\n 53543: u64 [s1 + 0x20] = a0\n 53546: i32 a0 = s1 + 0x200\n 53550: ecalli 10 // 'now'\n 53552: t0 = u64 [s1 + 0x200]\n 53556: t1 = u64 [s1 + 0x208]\n 53560: t2 = u64 [s1 + 0x210]\n 53564: a3 = u64 [s1 + 0x218]\n 53568: a0 = u64 [s1 + 0x20]\n 53571: a4 = a0 + 0x14\n 53574: a5 = a4 <u a0\n 53577: a1 = u64 [s1 + 0x28]\n 53580: a0 = a1 + a5\n 53583: a1 = a0 <u a1\n 53586: a1 = a5 if a5 == 0\n 53589: a2 = u64 [s1 + 0x30]\n 53592: a1 = a1 + a2\n 53595: a5 = a1 <u a2\n 53598: a2 = u64 [s1 + 0x38]\n 53601: a5 = a5 + a2\n 53604: u64 [s1 + 0x220] = a4\n 53608: u64 [s1 + 0x228] = a0\n 53612: u64 [s1 + 0x230] = a1\n 53616: u64 [s1 + 0x238] = a5\n 53620: u64 [s1 + 0x258] = a3\n 53624: u64 [s1 + 0x250] = t2\n 53628: u64 [s1 + 0x248] = t1\n 53632: u64 [s1 + 0x240] = t0\n 53636: a0 = s1 + 0x220\n 53640: a1 = s1 + 0x240\n 53644: ra = 2214, jump @25\n      : @1940 [@dyn 1107] (gas: 7)\n 53651: u64 [s1 + 632] = 0\n 53655: u64 [s1 + 624] = 0\n 53659: u64 [s1 + 616] = 0\n 53663: u64 [s1 + 608] = 0x4\n 53668: a0 = s1 + 0xe0\n 53672: a1 = s1 + 0x260\n 53676: ra = 2216, jump @21\n      : @1941 [@dyn 1108] (gas: 15)\n 53683: a0 = u64 [s1 + 0xf8]\n 53687: u64 [s1 + 0x20] = a0\n 53690: a0 = u64 [s1 + 0xf0]\n 53694: u64 [s1 + 0x28] = a0\n 53697: a0 = u64 [s1 + 0xe8]\n 53701: u64 [s1 + 0x30] = a0\n 53704: a0 = u64 [s1 + 0xe0]\n 53708: u64 [s1 + 0x38] = a0\n 53711: u64 [s1 + 664] = 0\n 53715: u64 [s1 + 656] = 0\n 53719: u64 [s1 + 648] = 0\n 53723: u64 [s1 + 640] = 0\n 53727: a0 = s1 + 0xc0\n 53731: a1 = s1 + 0x280\n 53735: ra = 2218, jump @21\n      : @1942 [@dyn 1109] (gas: 11)\n 53742: a0 = u64 [s1 + 0xd8]\n 53746: u64 [s1 + 0x18] = a0\n 53749: a0 = u64 [s1 + 0xd0]\n 53753: u64 [s1 + 0x10] = a0\n 53756: a0 = u64 [s1 + 0xc8]\n 53760: u64 [s1 + 0x8] = a0\n 53763: a0 = u64 [s1 + 0xc0]\n 53767: u64 [s1] = a0\n 53769: a0 = s1 + 0xa0\n 53773: a1 = 0x40\n 53776: ra = 2220, jump @17\n      : @1943 [@dyn 1110] (gas: 5)\n 53783: a3 = u64 [s1 + 0xb8]\n 53787: a1 = u64 [s1 + 0xb0]\n 53791: a2 = u64 [s1 + 0xa8]\n 53795: a0 = u64 [s1 + 0xa0]\n 53799: t0 = 2222, jump @1996\n      : @1944 [@dyn 1111] (gas: 1)\n 53805: jump @1948 if a1 != 0\n      : @1945 (gas: 11)\n 53809: a1 = u64 [s1]\n 53811: u64 [s1 + 0x80] = a1\n 53815: a1 = u64 [s1 + 0x8]\n 53818: u64 [s1 + 0x88] = a1\n 53822: a1 = u64 [s1 + 0x10]\n 53825: u64 [s1 + 0x90] = a1\n 53829: a1 = s1 + 0x80\n 53833: a2 = u64 [s1 + 0x18]\n 53836: u64 [s1 + 0x98] = a2\n 53840: u64 [s1 + 0x18] = a0\n 53843: ra = 2224, jump @19\n      : @1946 [@dyn 1112] (gas: 21)\n 53850: a0 = u64 [s1 + 0x20]\n 53853: u64 [s1 + 0x58] = a0\n 53856: a0 = u64 [s1 + 0x28]\n 53859: u64 [s1 + 0x50] = a0\n 53862: a0 = u64 [s1 + 0x30]\n 53865: u64 [s1 + 0x48] = a0\n 53868: a0 = u64 [0x20238]\n 53873: a1 = u64 [0x20240]\n 53878: a2 = u64 [0x20248]\n 53883: a3 = u64 [s1 + 0x38]\n 53886: u64 [s1 + 0x40] = a3\n 53889: u64 [s1 + 0x78] = a0\n 53892: u64 [s1 + 0x70] = a1\n 53895: u64 [s1 + 0x68] = a2\n 53898: a0 = u64 [0x20250]\n 53903: a1 = 0x20\n 53906: a2 = s1 + 0x60\n 53909: a3 = s1 + 0x40\n 53912: u64 [s1 + 0x60] = a0\n 53915: a0 = u64 [s1 + 0x18]\n 53918: ra = 2226, jump @26\n      : @1947 [@dyn 1113] (gas: 7)\n 53925: sp = s0 + 0xfffffffffffffd40\n 53929: a0 = sp + 0x200\n 53933: ra = u64 [a0 + 0xb8]\n 53937: s0 = u64 [a0 + 0xb0]\n 53941: s1 = u64 [a0 + 0xa8]\n 53945: sp = sp + 0x2c0\n 53949: ret\n      : @1948 (gas: 1)\n 53951: trap\n      : @1949 [export #0: 'call'] (gas: 2)\n 53952: a0 = 0\n 53954: ra = 2228, jump @38\n      : @1950 [@dyn 1114] [export #1: 'deploy'] (gas: 2)\n 53961: a0 = 0x1\n 53964: ra = 2230, jump @38\n      : @1951 [@dyn 1115] (gas: 11)\n 53971: a2 = u64 [sp + 0x8]\n 53974: a2 = a2 | s1\n 53977: s1 = 0x100000000\n 53987: a0 = 0xfffffffc\n 53997: a1 = u64 [sp + 0x18]\n 54000: a0 = a1 <u a0\n 54003: a1 = u64 [sp + 0x10]\n 54006: a0 = 0 if a1 != 0\n 54008: u64 [sp + 0x8] = a2\n 54011: a0 = 0 if a2 != 0\n 54013: jump [t0]\n      : @1952 (gas: 15)\n 54015: a2 = u64 [sp + 0xb8]\n 54019: s1 = u64 [sp + 0xb0]\n 54023: a0 = u64 [sp + 0xa8]\n 54027: a1 = u64 [sp + 0xa0]\n 54031: u64 [sp + 0x10] = a0\n 54034: u64 [sp + 0x8] = a2\n 54037: a0 = a0 | a2\n 54040: u64 [sp + 0x18] = a1\n 54043: a1 = a1 | s1\n 54046: a1 = a1 | a0\n 54049: a1 = a1 >> 0x20\n 54052: a0 = a0 | s1\n 54055: a0 = a0 << 0x20\n 54058: a0 = a0 | a1\n 54061: jump [t0]\n      : @1953 (gas: 14)\n 54063: sp = sp + 0xffffffffffffff20\n 54067: u64 [sp + 0xd8] = ra\n 54071: u64 [sp + 0xd0] = s0\n 54075: u64 [sp + 0xc8] = s1\n 54079: s0 = sp + 0xe0\n 54083: sp = sp & 0xfffffffffffffff0\n 54086: a1 = u64 [a0 + 0x10]\n 54089: a2 = u64 [a0 + 0x18]\n 54092: a3 = u64 [a0 + 0x8]\n 54095: a0 = u64 [a0]\n 54097: a2 = a2 | a3\n 54100: a0 = a0 | a1\n 54103: a0 = a0 | a2\n 54106: jump [t0]\n      : @1954 (gas: 7)\n 54108: a0 = 0xffffffbc\n 54118: a0 = s1 <u a0\n 54121: a1 = u64 [sp + 0x10]\n 54124: a0 = 0 if a1 != 0\n 54126: a1 = u64 [sp + 0x8]\n 54129: a0 = 0 if a1 != 0\n 54131: jump [t0]\n      : @1955 (gas: 10)\n 54133: a4 = s1 + 0x100\n 54137: a3 = u64 [a4 + 0x28]\n 54140: a2 = u64 [a4 + 0x30]\n 54143: a1 = u64 [a4 + 0x38]\n 54146: a0 = u64 [a4 + 0x20]\n 54149: a0 = a0 + 0xffffffffffffffdc\n 54152: a0 = a1 <u a0\n 54155: a0 = 0 if a2 != 0\n 54157: a0 = 0 if a3 != 0\n 54159: jump [t0]\n      : @1956 (gas: 9)\n 54161: a2 = s1 + 0x100\n 54165: a3 = u64 [a2 + 0x38]\n 54168: a0 = 0xffffffbc\n 54178: a0 = a3 <u a0\n 54181: a1 = u64 [a2 + 0x30]\n 54184: a0 = 0 if a1 != 0\n 54186: a1 = u64 [a2 + 0x28]\n 54189: a0 = 0 if a1 != 0\n 54191: jump [t0]\n      : @1957 (gas: 7)\n 54193: a4 = 0x100000000\n 54203: a0 = 0xfffffffc\n 54213: a0 = a1 <u a0\n 54216: a2 = u64 [a5 + 0x30]\n 54219: a0 = 0 if a2 != 0\n 54221: a0 = 0 if a3 != 0\n 54223: jump [t0]\n      : @1958 (gas: 8)\n 54225: a0 = s1 + 0xffffffffffffffdc\n 54228: a1 = u64 [sp + 0x18]\n 54231: a0 = a1 <u a0\n 54234: a1 = u64 [sp + 0x10]\n 54237: a0 = 0 if a1 != 0\n 54239: a1 = u64 [sp + 0x8]\n 54242: a0 = 0 if a1 != 0\n 54244: jump [t0]\n      : @1959 (gas: 8)\n 54246: u64 [sp + 144] = 0\n 54250: u64 [sp + 136] = 0\n 54254: u64 [sp + 128] = 0\n 54258: a0 = 0x8c379a000000000\n 54268: a1 = sp + 0x80\n 54272: u64 [sp + 0x98] = a0\n 54276: a0 = u64 [sp + 0x18]\n 54279: jump [t0]\n      : @1960 (gas: 17)\n 54281: a2 = u64 [s1 + 0xc8]\n 54285: a0 = u64 [a2 + 0x8]\n 54288: a1 = i32 [a2 + 0x10]\n 54291: a2 = u64 [a2]\n 54293: a0 = reverse a0\n 54295: a3 = a0 << 0x20\n 54298: a1 = reverse a1\n 54300: a1 = a1 >> 0x20\n 54303: a3 = a3 | a1\n 54306: a0 = a0 >> 0x20\n 54309: a1 = reverse a2\n 54311: a2 = a1 << 0x20\n 54314: a0 = a0 | a2\n 54317: a1 = a1 >> 0x20\n 54320: a2 = s1 + 0x7ff\n 54324: a2 = a2 + 0xb9\n 54328: jump [t0]\n      : @1961 (gas: 14)\n 54330: a0 = u64 [a2 + 0x8]\n 54333: a1 = u64 [a2]\n 54335: a2 = i32 [a2 + 0x10]\n 54338: a0 = reverse a0\n 54340: a3 = a0 >> 0x20\n 54343: a1 = reverse a1\n 54345: a4 = a1 << 0x20\n 54348: a3 = a3 | a4\n 54351: a0 = a0 << 0x20\n 54354: a2 = reverse a2\n 54356: a2 = a2 >> 0x20\n 54359: a0 = a0 | a2\n 54362: a1 = a1 >> 0x20\n 54365: jump [t0]\n      : @1962 (gas: 32)\n 54367: a1 = u64 [s1 + 0x130]\n 54371: a0 = a1 + 0x20\n 54374: u64 [s1 + 0xd8] = a0\n 54378: a2 = a0 <u a1\n 54381: a1 = u64 [s1 + 0x128]\n 54385: a0 = a1 + a2\n 54388: u64 [s1 + 0xd0] = a0\n 54392: a3 = a0 <u a1\n 54395: a3 = a2 if a2 == 0\n 54398: a0 = u64 [s1 + 0x138]\n 54402: a3 = a3 + a0\n 54405: u64 [s1 + 0xc8] = a3\n 54409: a3 = a3 <u a0\n 54412: a0 = u64 [s1 + 0x120]\n 54416: a0 = a0 + a3\n 54419: u64 [s1 + 0x120] = a0\n 54423: t2 = u64 [s1 + 0x118]\n 54427: t2 = t2 + 0x1\n 54430: a3 = t2 <u 0x1\n 54433: t1 = u64 [s1 + 0x110]\n 54437: t1 = t1 + a3\n 54440: a3 = t2 | t1\n 54443: a3 = a3 <u 0x1\n 54446: a4 = u64 [s1 + 0x100]\n 54450: a0 = a4 + a3\n 54453: a4 = a0 <u a4\n 54456: a3 = u64 [s1 + 0x108]\n 54460: a3 = a3 + a4\n 54463: ra = u64 [s1 + 0xf0]\n 54467: ra = ra + 0x1\n 54470: a4 = ra <u 0x1\n 54473: jump [t0]\n      : @1963 (gas: 8)\n 54475: a0 = u64 [sp + 0x18]\n 54478: i32 a0 = a0 + 0x4\n 54481: u64 [sp + 120] = 0\n 54484: u64 [sp + 112] = 0\n 54487: u64 [sp + 96] = 0x20\n 54491: a1 = sp + 0x60\n 54494: u64 [sp + 104] = 0\n 54497: jump [t0]\n      : @1964 (gas: 5)\n 54499: a0 = a0 + 0xffffffffffffffdc\n 54502: a0 = a1 <u a0\n 54505: a0 = 0 if a2 != 0\n 54507: a0 = 0 if a3 != 0\n 54509: jump [t0]\n      : @1965 (gas: 13)\n 54511: a1 = a0 <u a1\n 54514: a3 = u64 [s1 + 0x120]\n 54518: a2 = a3 + a1\n 54521: a3 = a2 <u a3\n 54524: a3 = a1 if a1 == 0\n 54527: a1 = u64 [s1 + 0x130]\n 54531: a3 = a3 + a1\n 54534: a1 = a3 <u a1\n 54537: a4 = u64 [s1 + 0x138]\n 54541: a1 = a1 + a4\n 54544: a4 = s1 + 0x30b8\n 54548: a5 = a4 + 0x100\n 54552: jump [t0]\n      : @1966 (gas: 10)\n 54554: a3 = a0 >u 0\n 54556: a4 = a5 <u 0x100\n 54560: a4 = a4 ^ 0x1\n 54563: a4 = a3 if a0 != 0\n 54566: a0 = a2 >u 0\n 54568: a3 = a1 >u 0\n 54570: a3 = a0 if a2 != 0\n 54573: a1 = a1 | a2\n 54576: a4 = a3 if a1 != 0\n 54579: jump [t0]\n      : @1967 (gas: 16)\n 54581: a2 = u64 [s1 + 0xf8]\n 54585: a0 = u64 [a2 + 0x8]\n 54588: a1 = i32 [a2 + 0x10]\n 54591: a2 = u64 [a2]\n 54593: a0 = reverse a0\n 54595: a3 = a0 << 0x20\n 54598: a1 = reverse a1\n 54600: a1 = a1 >> 0x20\n 54603: a3 = a3 | a1\n 54606: a0 = a0 >> 0x20\n 54609: a1 = reverse a2\n 54611: a2 = a1 << 0x20\n 54614: a0 = a0 | a2\n 54617: a1 = a1 >> 0x20\n 54620: a2 = s1 + 0x20b8\n 54624: jump [t0]\n      : @1968 (gas: 19)\n 54626: a0 = clz t1\n 54628: a1 = clz t2\n 54630: a3 = a1 + 0x40\n 54633: a3 = a0 if t1 != 0\n 54636: a0 = clz ra\n 54638: a1 = clz a2\n 54640: a1 = a1 + 0x40\n 54643: a1 = a0 if ra != 0\n 54646: a0 = a1 + 0x80\n 54650: a2 = t2 | t1\n 54653: a3 = a0 if a2 == 0\n 54656: a5 = a0 <u a1\n 54659: a5 = 0 if a2 != 0\n 54661: a4 = a5 >u 0\n 54663: a0 = a3 <u 0xf3\n 54667: a2 = a0 ^ 0x1\n 54670: a4 = a2 if a5 == 0\n 54673: a0 = a4 <u 0x1\n 54676: jump [t0]\n      : @1969 (gas: 21)\n 54678: a3 = u64 [s1 + 0xa0]\n 54682: a3 = a3 | a0\n 54685: a2 = u64 [s1 + 0x110]\n 54689: a4 = a2 <u 0x80\n 54693: u64 [s1 + 0xa0] = a4\n 54697: a0 = u64 [s1 + 0xd0]\n 54701: a3 = a0 if a4 == 0\n 54704: a0 = u64 [s1 + 0x148]\n 54708: a3 = a0 if a2 == 0\n 54711: u64 [s1 + 0x148] = a3\n 54715: a0 = u64 [s1 + 0xa8]\n 54719: a1 = a1 | a0\n 54722: a0 = u64 [s1 + 0xd8]\n 54726: a1 = a0 if a4 == 0\n 54729: a0 = u64 [s1 + 0x150]\n 54733: a1 = a0 if a2 == 0\n 54736: u64 [s1 + 0x150] = a1\n 54740: a0 = u64 [s1 + 0x120]\n 54744: a1 = u64 [s1 + 0x118]\n 54748: a2 = u64 [s1 + 0x108]\n 54752: jump [t0]\n      : @1970 (gas: 24)\n 54754: a2 = u64 [s1 + 0xf8]\n 54758: a0 = u64 [a2 + 0x8]\n 54761: a1 = u64 [a2]\n 54763: a2 = i32 [a2 + 0x10]\n 54766: a0 = reverse a0\n 54768: a3 = a0 >> 0x20\n 54771: a1 = reverse a1\n 54773: a4 = a1 << 0x20\n 54776: a3 = a3 | a4\n 54779: a0 = a0 << 0x20\n 54782: a2 = reverse a2\n 54784: a2 = a2 >> 0x20\n 54787: a0 = a0 | a2\n 54790: a1 = a1 >> 0x20\n 54793: a2 = u64 [s1 + 0x100]\n 54797: a1 = a1 ^ a2\n 54800: a2 = u64 [s1 + 0x108]\n 54804: a0 = a0 ^ a2\n 54807: a0 = a0 | a1\n 54810: a1 = u64 [s1 + 0x110]\n 54814: a1 = a1 ^ a3\n 54817: a0 = a0 | a1\n 54820: a0 = a0 <u 0x1\n 54823: jump [t0]\n      : @1971 (gas: 14)\n 54825: a3 = s1 + 0x100\n 54829: a0 = u64 [a3 + 0x68]\n 54832: a2 = u64 [a3 + 0x60]\n 54835: a2 = a2 | a0\n 54838: a0 = 0x100000000\n 54848: u64 [a3 + 0x60] = a0\n 54851: a0 = 0xfffffffc\n 54861: a1 = u64 [a3 + 0x78]\n 54864: a0 = a1 <u a0\n 54867: a1 = u64 [a3 + 0x70]\n 54870: a0 = 0 if a1 != 0\n 54872: u64 [a3 + 0x68] = a2\n 54875: a0 = 0 if a2 != 0\n 54877: jump [t0]\n      : @1972 (gas: 15)\n 54879: a0 = u64 [a3 + 0x18]\n 54882: a1 = u64 [a3 + 0x10]\n 54885: a2 = u64 [a3 + 0x8]\n 54888: a3 = u64 [a3]\n 54890: a0 = reverse a0\n 54892: a4 = reverse a1\n 54894: a2 = reverse a2\n 54896: a3 = reverse a3\n 54898: a1 = u64 [s1 + 0xb8]\n 54902: u64 [a1 + 0x18] = a3\n 54905: u64 [a1 + 0x10] = a2\n 54908: u64 [a1 + 0x8] = a4\n 54911: u64 [a1] = a0\n 54913: a0 = 0x2000\n 54917: jump [t0]\n      : @1973 (gas: 7)\n 54919: a1 = u64 [a2 + 0x78]\n 54922: a0 = a1 <u a0\n 54925: a1 = u64 [a2 + 0x70]\n 54928: a0 = 0 if a1 != 0\n 54930: a1 = u64 [a2 + 0x68]\n 54933: a0 = 0 if a1 != 0\n 54935: jump [t0]\n      : @1974 (gas: 9)\n 54937: a0 = u64 [a3 + 0x18]\n 54940: a1 = u64 [a3 + 0x10]\n 54943: a2 = u64 [a3 + 0x8]\n 54946: a3 = u64 [a3]\n 54948: a0 = reverse a0\n 54950: a4 = reverse a1\n 54952: a2 = reverse a2\n 54954: a3 = reverse a3\n 54956: jump [t0]\n      : @1975 (gas: 5)\n 54958: a0 = sp + 0xffffffffffffffe0\n 54961: a2 = a0 & 0xffffffffffffffe0\n 54964: u64 [s1 + 0x138] = a2\n 54968: sp = a2\n 54970: jump [t0]\n      : @1976 (gas: 6)\n 54972: sp = s0 + 0xffffffffffffff20\n 54976: ra = u64 [sp + 0xd8]\n 54980: s0 = u64 [sp + 0xd0]\n 54984: s1 = u64 [sp + 0xc8]\n 54988: sp = sp + 0xe0\n 54992: jump [t0]\n      : @1977 (gas: 17)\n 54994: a1 = u64 [s1 + 0xa0]\n 54998: a0 = 0 if a1 == 0\n 55000: a1 = u64 [s1 + 0x150]\n 55004: a1 = a1 & 0xffffffffffffffff\n 55007: a3 = u64 [s1 + 0x148]\n 55011: a2 = a3 & 0xffffffffffffffff\n 55014: a3 = u64 [s1 + 0x158]\n 55018: a0 = a0 & a3\n 55021: a3 = u64 [s1 + 0xe0]\n 55025: a2 = 0 if a3 != 0\n 55027: a1 = 0 if a3 != 0\n 55029: a0 = 0 if a3 != 0\n 55031: a3 = sp + 0xffffffffffffffe0\n 55034: a3 = a3 & 0xffffffffffffffe0\n 55037: u64 [s1 + 0x150] = a3\n 55041: sp = a3\n 55043: jump [t0]\n      : @1978 (gas: 10)\n 55045: u64 [s1 + 0x118] = a1\n 55049: t2 = u64 [s1 + 0x108]\n 55053: a2 = t2 >> 0x3d\n 55056: a3 = u64 [s1 + 0xd8]\n 55060: a5 = a3 << 0x3\n 55063: t1 = a5 | a2\n 55066: a3 = a3 >> 0x3d\n 55069: a5 = u64 [s1 + 0xe0]\n 55073: a2 = a5 << 0x3\n 55076: jump [t0]\n      : @1979 (gas: 10)\n 55078: a0 = 0x100000000\n 55088: a0 = a0 ^ a1\n 55091: a0 = a0 | a3\n 55094: u64 [s1 + 0x138] = a1\n 55098: a1 = a1 >> 0x20\n 55101: a1 = a1 <u 0x1\n 55104: u64 [s1 + 0x130] = a3\n 55108: a1 = 0 if a3 != 0\n 55110: a1 = 0 if a0 == 0\n 55112: jump [t0]\n      : @1980 (gas: 16)\n 55114: a3 = u64 [s1 + 0x130]\n 55118: a0 = u64 [a3 + 0x18]\n 55121: a1 = u64 [a3 + 0x10]\n 55124: a2 = u64 [a3 + 0x8]\n 55127: a3 = u64 [a3]\n 55129: a0 = reverse a0\n 55131: a4 = reverse a1\n 55133: a2 = reverse a2\n 55135: a3 = reverse a3\n 55137: a1 = u64 [s1 + 0x138]\n 55141: u64 [a1 + 0x18] = a3\n 55144: u64 [a1 + 0x10] = a2\n 55147: u64 [a1 + 0x8] = a4\n 55150: u64 [a1] = a0\n 55152: a0 = s1 + 0x7ff\n 55156: jump [t0]\n      : @1981 (gas: 14)\n 55158: a3 = u64 [s1 + 0x138]\n 55162: a0 = u64 [a3 + 0x18]\n 55165: a1 = u64 [a3 + 0x10]\n 55168: a2 = u64 [a3 + 0x8]\n 55171: a3 = u64 [a3]\n 55173: a0 = reverse a0\n 55175: u64 [s1 + 0x118] = a0\n 55179: a0 = reverse a1\n 55181: u64 [s1 + 0x110] = a0\n 55185: a0 = reverse a2\n 55187: u64 [s1 + 0x100] = a0\n 55191: a0 = reverse a3\n 55193: u64 [s1 + 0x108] = a0\n 55197: jump [t0]\n      : @1982 (gas: 14)\n 55199: a3 = u64 [s1 + 0x138]\n 55203: a0 = u64 [a3]\n 55205: a1 = u64 [a3 + 0x8]\n 55208: a2 = u64 [a3 + 0x10]\n 55211: a3 = u64 [a3 + 0x18]\n 55214: a4 = reverse a0\n 55216: u64 [s1 + 0x138] = a4\n 55220: a5 = reverse a1\n 55222: u64 [s1 + 0x130] = a5\n 55226: a2 = reverse a2\n 55228: u64 [s1 + 0x120] = a2\n 55232: a0 = reverse a3\n 55234: u64 [s1 + 0x128] = a0\n 55238: jump [t0]\n      : @1983 (gas: 16)\n 55240: a3 = u64 [s1 + 0x128]\n 55244: a0 = u64 [a3 + 0x18]\n 55247: a1 = u64 [a3 + 0x10]\n 55250: a2 = u64 [a3 + 0x8]\n 55253: a3 = u64 [a3]\n 55255: a0 = reverse a0\n 55257: a4 = reverse a1\n 55259: a2 = reverse a2\n 55261: a3 = reverse a3\n 55263: a1 = u64 [s1 + 0x130]\n 55267: u64 [a1 + 0x18] = a3\n 55270: u64 [a1 + 0x10] = a2\n 55273: u64 [a1 + 0x8] = a4\n 55276: u64 [a1] = a0\n 55278: a0 = s1 + 0x7ff\n 55282: jump [t0]\n      : @1984 (gas: 15)\n 55284: a3 = u64 [s1 + 0x148]\n 55288: a0 = u64 [a3 + 0x18]\n 55291: a1 = u64 [a3 + 0x10]\n 55294: a2 = u64 [a3 + 0x8]\n 55297: a3 = u64 [a3]\n 55299: a0 = reverse a0\n 55301: a1 = reverse a1\n 55303: a2 = reverse a2\n 55305: a3 = reverse a3\n 55307: a4 = u64 [s1 + 0x150]\n 55311: u64 [a4 + 0x18] = a3\n 55314: u64 [a4 + 0x10] = a2\n 55317: u64 [a4 + 0x8] = a1\n 55320: u64 [a4] = a0\n 55322: jump [t0]\n      : @1985 (gas: 8)\n 55324: a0 = a0 | a3\n 55327: a3 = a1 | a2\n 55330: a3 = a3 | a0\n 55333: a3 = a3 >> 0x20\n 55336: a0 = a0 | a2\n 55339: a0 = a0 << 0x20\n 55342: a0 = a0 | a3\n 55345: jump [t0]\n      : @1986 (gas: 8)\n 55347: a0 = a0 | a2\n 55350: a2 = a4 | a1\n 55353: a2 = a2 | a0\n 55356: a2 = a2 >> 0x20\n 55359: a0 = a0 | a1\n 55362: a0 = a0 << 0x20\n 55365: a0 = a0 | a2\n 55368: jump [t0]\n      : @1987 (gas: 8)\n 55370: a2 = a3 | a4\n 55373: a1 = a0 | a5\n 55376: a1 = a1 | a2\n 55379: a1 = a1 >> 0x20\n 55382: a2 = a2 | a5\n 55385: a2 = a2 << 0x20\n 55388: a1 = a1 | a2\n 55391: jump [t0]\n      : @1988 (gas: 12)\n 55393: a1 = a0 <u a1\n 55396: a3 = u64 [a5 + 0x8]\n 55399: a2 = a3 + a1\n 55402: a3 = a2 <u a3\n 55405: a3 = a1 if a1 == 0\n 55408: a1 = u64 [a5 + 0x18]\n 55411: a3 = a3 + a1\n 55414: a1 = a3 <u a1\n 55417: a4 = u64 [a5 + 0x10]\n 55420: a1 = a1 + a4\n 55423: a4 = s1 + 0x38b8\n 55427: jump [t0]\n      : @1989 (gas: 8)\n 55429: u64 [sp + 48] = 0\n 55432: u64 [sp + 40] = 0\n 55435: u64 [sp + 32] = 0\n 55438: a0 = 0x4e487b7100000000\n 55448: a1 = sp + 0x20\n 55451: u64 [sp + 0x38] = a0\n 55454: a0 = 0\n 55456: jump [t0]\n      : @1990 (gas: 4)\n 55458: a2 = a3 + a1\n 55461: a3 = a2 <u a3\n 55464: a3 = a1 if a1 == 0\n 55467: jump [t0]\n      : @1991 (gas: 10)\n 55469: a2 = a3 + a1\n 55472: a3 = a2 <u a3\n 55475: a3 = a1 if a1 == 0\n 55478: a1 = u64 [s1 + 0x130]\n 55482: a3 = a3 + a1\n 55485: a1 = a3 <u a1\n 55488: a4 = u64 [s1 + 0x138]\n 55492: a1 = a1 + a4\n 55495: a4 = s1 + 0x38b8\n 55499: jump [t0]\n      : @1992 (gas: 8)\n 55501: u64 [sp + 64] = 0\n 55504: u64 [sp + 56] = 0\n 55507: u64 [sp + 48] = 0\n 55510: a0 = 0x4e487b7100000000\n 55520: a1 = sp + 0x30\n 55523: u64 [sp + 0x48] = a0\n 55526: a0 = 0\n 55528: jump [t0]\n      : @1993 (gas: 10)\n 55530: a1 = s1 + a0\n 55533: u64 [a1 + 1440] = 0\n 55537: u64 [a1 + 1432] = 0\n 55541: u64 [a1 + 1424] = 0\n 55545: a0 = 0x9\n 55548: u64 [a1 + 0x588] = a0\n 55552: u64 [a1 + 1472] = 0\n 55556: u64 [a1 + 1464] = 0\n 55560: u64 [a1 + 1456] = 0\n 55564: jump [t0]\n      : @1994 (gas: 4)\n 55566: a0 = u64 [s1 + 0x138]\n 55570: a0 = i32 [a0]\n 55572: a1 = 0x23\n 55575: jump [t0]\n      : @1995 (gas: 4)\n 55577: i32 a1 = a0 + 0\n 55579: a0 = 0x1\n 55582: a2 = 0x64\n 55585: jump [t0]\n      : @1996 (gas: 8)\n 55587: a3 = a3 | a2\n 55590: a2 = a0 | a1\n 55593: a2 = a2 | a3\n 55596: a2 = a2 >> 0x20\n 55599: a1 = a1 | a3\n 55602: a1 = a1 << 0x20\n 55605: a1 = a1 | a2\n 55608: jump [t0]\n      : @1997 (gas: 13)\n 55610: i32 a0 = a0 + 0xfffffffffffff8b8\n 55614: a1 = s1 + a0\n 55617: a2 = a1 + 0x400\n 55621: a0 = u64 [a2 + 0xc0]\n 55625: a1 = s1 + 0x100\n 55629: u64 [a1 + 0x38] = a0\n 55632: a0 = u64 [a2 + 0xb8]\n 55636: u64 [a1 + 0x30] = a0\n 55639: a0 = u64 [a2 + 0xb0]\n 55643: u64 [a1 + 0x28] = a0\n 55646: a0 = u64 [a2 + 0xa8]\n 55650: u64 [a1 + 0x20] = a0\n 55653: jump [t0]\n      : @1998 (gas: 11)\n 55655: a1 = u64 [s1 + 0x78]\n 55658: a0 = u64 [s1 + 0x68]\n 55661: a3 = u64 [s1 + 0x60]\n 55664: a3 = a3 | a0\n 55667: a4 = 0x100000000\n 55677: a0 = 0xfffffffc\n 55687: a0 = a1 <u a0\n 55690: a2 = u64 [s1 + 0x70]\n 55693: a0 = 0 if a2 != 0\n 55695: a0 = 0 if a3 != 0\n 55697: jump [t0]\n      : @1999 (gas: 5)\n 55699: a1 = u64 [s1 + 0x110]\n 55703: i32 a2 = 0x80 - a1\n 55707: a0 = u64 [s1 + 0x120]\n 55711: a1 = u64 [s1 + 0x118]\n 55715: jump [t0]\n      : @2000 (gas: 8)\n 55717: a4 = a4 | a2\n 55720: a2 = a0 | a1\n 55723: a2 = a2 | a4\n 55726: a2 = a2 >> 0x20\n 55729: a1 = a1 | a4\n 55732: a1 = a1 << 0x20\n 55735: a1 = a1 | a2\n 55738: jump [t0]\n      : @2001 (gas: 9)\n 55740: a3 = s1 + 0x100\n 55744: a2 = u64 [a3 + 0x38]\n 55747: a0 = 0xffffffbc\n 55757: a0 = a2 <u a0\n 55760: a1 = u64 [a3 + 0x30]\n 55763: a0 = 0 if a1 != 0\n 55765: a1 = u64 [a3 + 0x28]\n 55768: a0 = 0 if a1 != 0\n 55770: jump [t0]\n      : @2002 (gas: 11)\n 55772: a3 = u64 [s1 + 0x138]\n 55776: a0 = u64 [a3 + 0x18]\n 55779: a1 = u64 [a3 + 0x10]\n 55782: a2 = u64 [a3 + 0x8]\n 55785: a3 = u64 [a3]\n 55787: a0 = reverse a0\n 55789: a1 = reverse a1\n 55791: a2 = reverse a2\n 55793: a3 = reverse a3\n 55795: a4 = 0x4000\n 55799: jump [t0]\n      : @2003 (gas: 9)\n 55801: i32 a0 = a0 + 0xb8\n 55805: a0 = a0 + s1\n 55808: a1 = u64 [a0 + 0x790]\n 55812: u64 [s1 + 0x138] = a1\n 55816: a1 = u64 [a0 + 0x788]\n 55820: u64 [s1 + 0x130] = a1\n 55824: a0 = u32 [a0 + 0x798]\n 55828: u64 [s1 + 0x128] = a0\n 55832: jump [t0]\n      : @2004 (gas: 9)\n 55834: a1 = a0 <u a1\n 55837: a3 = u64 [s1 + 0x108]\n 55841: a2 = a3 + a1\n 55844: a3 = a2 <u a3\n 55847: a3 = a1 if a1 == 0\n 55850: a1 = u64 [s1 + 0x118]\n 55854: a3 = a3 + a1\n 55857: a1 = a3 <u a1\n 55860: jump [t0]\n      : @2005 (gas: 13)\n 55862: a1 = s1 + 0x100\n 55866: a4 = u64 [a1 + 0x28]\n 55869: a2 = u64 [a1 + 0x20]\n 55872: a0 = u64 [a1 + 0x38]\n 55875: a0 = a0 | a4\n 55878: a3 = u64 [a1 + 0x30]\n 55881: a1 = a2 | a3\n 55884: a1 = a1 | a0\n 55887: a1 = a1 >> 0x20\n 55890: a0 = a0 | a3\n 55893: a0 = a0 << 0x20\n 55896: a0 = a0 | a1\n 55899: jump [t0]\n      : @2006 (gas: 13)\n 55901: a4 = s1 + 0x100\n 55905: a2 = u64 [a4 + 0x18]\n 55908: a0 = u64 [a4 + 0x30]\n 55911: a1 = u64 [a4 + 0x20]\n 55914: a0 = a0 | a1\n 55917: a3 = u64 [a4 + 0x28]\n 55920: a1 = a2 | a3\n 55923: a1 = a1 | a0\n 55926: a1 = a1 >> 0x20\n 55929: a0 = a0 | a3\n 55932: a0 = a0 << 0x20\n 55935: a0 = a0 | a1\n 55938: jump [t0]\n      : @2007 (gas: 10)\n 55940: a1 = a0 <u a1\n 55943: a3 = u64 [s1 + 0xa8]\n 55947: a2 = a3 + a1\n 55950: a3 = a2 <u a3\n 55953: a3 = a1 if a1 == 0\n 55956: a1 = u64 [s1 + 0xb0]\n 55960: a3 = a3 + a1\n 55963: a1 = a3 <u a1\n 55966: a4 = u64 [s1 + 0xb8]\n 55970: jump [t0]\n      : @2008 (gas: 8)\n 55972: a2 = u64 [s1 + 0x78]\n 55975: a0 = 0xffffffbc\n 55985: a0 = a2 <u a0\n 55988: a1 = u64 [s1 + 0x70]\n 55991: a0 = 0 if a1 != 0\n 55993: a1 = u64 [s1 + 0x68]\n 55996: a0 = 0 if a1 != 0\n 55998: jump [t0]\n      : @2009 (gas: 13)\n 56000: a4 = s1 + 0x100\n 56004: u64 [a4 + 0x70] = a0\n 56007: u64 [a4 + 0x68] = a2\n 56010: a0 = a0 | a2\n 56013: u64 [a4 + 0x78] = a1\n 56016: a1 = a1 | a3\n 56019: a1 = a1 | a0\n 56022: a1 = a1 >> 0x20\n 56025: u64 [a4 + 0x60] = a3\n 56028: a0 = a0 | a3\n 56031: a0 = a0 << 0x20\n 56034: a0 = a0 | a1\n 56037: jump [t0]\n      : @2010 (gas: 9)\n 56039: a1 = a1 >> 0x4\n 56042: a2 = a2 << 0x3c\n 56045: a1 = a1 | a2\n 56048: a2 = a0 >u 0\n 56050: a1 = a1 <u 0x271\n 56054: a1 = a1 ^ 0x1\n 56057: a1 = a2 if a0 != 0\n 56060: a0 = a3 >> 0x4\n 56063: jump [t0]\n      : @2011 (gas: 6)\n 56065: a0 = a0 | a1\n 56068: a1 = a2 ^ 0x2\n 56071: a1 = a1 | a3\n 56074: a0 = a0 | a1\n 56077: a0 = a0 >u 0\n 56079: jump [t0]\n      : @2012 (gas: 5)\n 56081: a0 = reverse a0\n 56083: a1 = reverse a1\n 56085: a2 = reverse a2\n 56087: a3 = reverse a3\n 56089: jump [t0]\n      : @2013 (gas: 6)\n 56091: a0 = sp + 0xffffffffffffffe0\n 56094: a0 = a0 & 0xffffffffffffffe0\n 56097: u64 [s1 + 0x150] = a0\n 56101: sp = a0\n 56103: a0 = u64 [s1 + 0x168]\n 56107: jump [t0]\n      : @2014 (gas: 4)\n 56109: i32 a0 = a0 + 0xb8\n 56113: a3 = s1 + a0\n 56116: a4 = a3 + 0x100\n 56120: jump [t0]\n      : @2015 (gas: 4)\n 56122: i32 a0 = a0 + 0xb8\n 56126: a4 = s1 + a0\n 56129: a5 = a4 + 0x200\n 56133: jump [t0]\n      : @2016 (gas: 8)\n 56135: a2 = 0x100000000\n 56145: a2 = a2 ^ a1\n 56148: a2 = a2 | a0\n 56151: a3 = a1 >> 0x20\n 56154: a3 = a3 <u 0x1\n 56157: a3 = 0 if a0 != 0\n 56159: a3 = 0 if a2 == 0\n 56161: jump [t0]\n      : @2017 (gas: 7)\n 56163: a3 = a1 <u 0x100\n 56167: a3 = a3 ^ 0x1\n 56170: a1 = a2 >u 0\n 56172: a3 = a1 if a2 != 0\n 56175: a3 = a5 if a4 != 0\n 56178: a1 = ra | t1\n 56181: jump [t0]\n      : @2018 (gas: 8)\n 56183: u64 [s1 + 0xd0] = a0\n 56187: u64 [s1 + 0xd8] = a1\n 56191: a0 = u64 [s1 + 0x108]\n 56195: i32 a2 = a0 << 0x3\n 56198: u64 [s1 + 0x108] = a2\n 56202: a0 = u64 [s1 + 0x148]\n 56206: a1 = u64 [s1 + 0x150]\n 56210: jump [t0]\n      : @2019 (gas: 8)\n 56212: a1 = sp + 0xffffffffffffffe0\n 56215: a1 = a1 & 0xffffffffffffffe0\n 56218: u64 [s1 + 0x148] = a1\n 56222: sp = a1\n 56224: i32 a0 = a0 + 0\n 56226: i32 a2 = a1 + 0\n 56228: a1 = 0x40\n 56231: jump [t0]\n      : @2020 (gas: 9)\n 56233: a0 = u64 [a2 + 0x8]\n 56236: a1 = i32 [a2 + 0x10]\n 56239: a2 = u64 [a2]\n 56241: a0 = reverse a0\n 56243: a3 = a0 << 0x20\n 56246: a1 = reverse a1\n 56248: a1 = a1 >> 0x20\n 56251: a1 = a1 | a3\n 56254: jump [t0]\n      : @2021 (gas: 8)\n 56256: a0 = sp + 0xffffffffffffffe0\n 56259: a0 = a0 & 0xffffffffffffffe0\n 56262: u64 [s1 + 0x130] = a0\n 56266: sp = a0\n 56268: i32 a2 = a0 + 0\n 56270: a1 = 0x40\n 56273: a0 = u64 [s1 + 0x30]\n 56276: jump [t0]\n      : @2022 (gas: 8)\n 56278: a0 = sp + 0xffffffffffffffe0\n 56281: a0 = a0 & 0xffffffffffffffe0\n 56284: u64 [s1 + 0x128] = a0\n 56288: sp = a0\n 56290: i32 a2 = a0 + 0\n 56292: a1 = 0x40\n 56295: a0 = u64 [s1 + 0x30]\n 56298: jump [t0]\n      : @2023 (gas: 5)\n 56300: s1 = u64 [sp + 0x18]\n 56303: i32 a0 = s1 + 0x24\n 56306: u64 [sp + 88] = 0\n 56309: u64 [sp + 80] = 0\n 56312: jump [t0]\n      : @2024 (gas: 7)\n 56314: a1 = a0 | a3\n 56317: a1 = a1 | a2\n 56320: a1 = a1 >> 0x20\n 56323: a2 = a2 | a3\n 56326: a2 = a2 << 0x20\n 56329: a1 = a1 | a2\n 56332: jump [t0]\n      : @2025 (gas: 7)\n 56334: a4 = u64 [s1 + 0x150]\n 56338: u64 [a4 + 0x10] = a0\n 56341: u64 [a4 + 0x18] = a1\n 56344: u64 [a4] = a2\n 56346: u64 [a4 + 0x8] = a3\n 56349: a1 = a4\n 56351: jump [t0]\n      : @2026 (gas: 6)\n 56353: sp = s0 + 0xffffffffffffffa0\n 56356: ra = u64 [sp + 0x58]\n 56359: s0 = u64 [sp + 0x50]\n 56362: s1 = u64 [sp + 0x48]\n 56365: sp = sp + 0x60\n 56368: jump [t0]\n      : @2027 (gas: 6)\n 56370: u64 [a1 + 1760] = 0\n 56374: u64 [a1 + 1752] = 0\n 56378: u64 [a1 + 1736] = 0x3\n 56383: a2 = a1\n 56385: a0 = 0x20\n 56388: jump [t0]\n      : @2028 (gas: 4)\n 56390: i32 a0 = a1 + 0x4\n 56393: a1 = 0x20b8\n 56397: a2 = s1 + a1\n 56400: jump [t0]\n      : @2029 (gas: 8)\n 56402: a0 = u64 [a5 + 0x18]\n 56405: a1 = u64 [a5 + 0x20]\n 56408: a2 = u64 [a5 + 0x10]\n 56411: a3 = u64 [a5 + 0x8]\n 56414: a1 = a1 | a2\n 56417: a0 = a0 | a3\n 56420: a0 = a0 | a1\n 56423: jump [t0]\n      : @2030 (gas: 9)\n 56425: a1 = s1 + 0x100\n 56429: a0 = u64 [a1 + 0x20]\n 56432: a2 = a3 + 0x400\n 56436: u64 [a2 + 0x68] = a0\n 56439: a0 = u64 [a1 + 0x28]\n 56442: u64 [a2 + 0x70] = a0\n 56445: a0 = u64 [a1 + 0x30]\n 56448: u64 [a2 + 0x78] = a0\n 56451: jump [t0]\n      : @2031 (gas: 6)\n 56453: u64 [a1 + 1248] = 0\n 56457: u64 [a1 + 1240] = 0\n 56461: u64 [a1 + 1224] = 0x5\n 56466: a2 = a1\n 56468: a0 = 0x20\n 56471: jump [t0]\n      : @2032 (gas: 8)\n 56473: a0 = u64 [a2 + 0x8]\n 56476: a1 = i32 [a2 + 0x10]\n 56479: a2 = u64 [a2]\n 56481: a3 = reverse a0\n 56483: a0 = a3 << 0x20\n 56486: a1 = reverse a1\n 56488: a1 = a1 >> 0x20\n 56491: jump [t0]\n      : @2033 (gas: 5)\n 56493: sp = a0\n 56495: i32 a2 = a0 + 0\n 56497: a1 = 0x40\n 56500: a0 = u64 [s1 + 0xc8]\n 56504: jump [t0]\n      : @2034 (gas: 8)\n 56506: a0 = u64 [a4 + 0xd8]\n 56510: a1 = u64 [a4 + 0xe0]\n 56514: a2 = u64 [a4 + 0xd0]\n 56518: a3 = u64 [a4 + 0xc8]\n 56522: a1 = a1 | a2\n 56525: a0 = a0 | a3\n 56528: a0 = a0 | a1\n 56531: jump [t0]\n      : @2035 (gas: 7)\n 56533: a2 = a3 << 0x3c\n 56536: a0 = a0 | a2\n 56539: a2 = a0 >u 0\n 56541: a3 = a3 >> 0x4\n 56544: a4 = a3 >u 0\n 56546: a4 = a2 if a3 == 0\n 56549: jump [t0]\n      : @2036 (gas: 4)\n 56551: a0 = 0x38b8\n 56555: a4 = s1 + a0\n 56558: a5 = a4 + 0x200\n 56562: jump [t0]\n      : @2037 (gas: 10)\n 56564: a4 = u64 [s1 + 0xf8]\n 56568: a1 = a1 + a4\n 56571: a4 = a0 | a3\n 56574: a1 = a1 | a2\n 56577: a4 = a4 | a1\n 56580: a4 = a4 >> 0x20\n 56583: a1 = a1 | a3\n 56586: a1 = a1 << 0x20\n 56589: a1 = a1 | a4\n 56592: jump [t0]\n      : @2038 (gas: 2)\n 56594: a3 = a2 & 0x40\n 56597: jump @2042 if a3 != 0\n      : @2039 (gas: 1)\n 56600: jump @2041 if a2 == 0\n      : @2040 (gas: 6)\n 56603: i32 a3 = 0x40 - a2\n 56606: a3 = a1 << a3\n 56609: a1 = a1 >> a2\n 56612: a0 = a0 >> a2\n 56615: a0 = a0 | a3\n 56618: ret\n      : @2041 (gas: 1)\n 56620: ret\n      : @2042 (gas: 4)\n 56622: a0 = a2 + 0xffffffffffffffc0\n 56625: a0 = a1 >> a0\n 56628: a1 = 0\n 56630: ret\n      : @2043 (gas: 2)\n 56632: a3 = a2 & 0x40\n 56635: jump @2047 if a3 != 0\n      : @2044 (gas: 1)\n 56638: jump @2046 if a2 == 0\n      : @2045 (gas: 6)\n 56641: i32 a3 = 0x40 - a2\n 56644: a3 = a0 >> a3\n 56647: a0 = a0 << a2\n 56650: a1 = a1 << a2\n 56653: a1 = a1 | a3\n 56656: ret\n      : @2046 (gas: 1)\n 56658: ret\n      : @2047 (gas: 4)\n 56660: a1 = a2 + 0xffffffffffffffc0\n 56663: a1 = a0 << a1\n 56666: a0 = 0\n 56668: ret\n","bytecode":{"object":"50564d00007705010000000000010700c19002c000800382580395bb0f26f8921a043e75b7e04ddad4cdaf6da5b9815a74736cc128b8a7519e2064696c61766e496c6177206d616574206f6f74206565462064696c61766e490073736572646461206f6f7420656546206e6920656d614773736572676f7270636572726f636e49207972746e652074726c6120656d61476e69662079646165f2257ff5ba6b091974fb8427b138c85f501c9dcae32f2497103805fe130f99f679616c70206e696d000074656c6c61776d726f6e206573557265746564206c616e6f6974616e696df56e33c68c18aef681a5cd813c0d97adc624095402494c4beb13ce4ee9eb4d92206c61746f7420746f207265626d756e0073656c69742066656e776f20746f4e74636172746e6f4300646573756170206e6172746e6565523a647261754779636172746e65657220006c6c616320746e796e616d206f6f54702073656c6974206579616c702072652064696c61766e49646e6920656c6974726c6120656c69546c65732079646165746f6e20656d614774656c706d6f6320612072656e6e6957642079646165726c656e696d726574656e617274206565466961662072656673727420657a6972506620726566736e61726f6620746961576c62207478656e20f56e33c68c18aef681a5cd813c0d97adc624095402494c4beb13ce4ee9eb4d92756f6e6520746f4e6579616c70206867165eaf9aade1ded4e6a5943936288c66b72be879b169ba0d42b67181afa4a8b96620646e756665526574616c206f6f5465746564206f7420697720656e696d720395bb0f26f8921a043e75b7e04ddad4cdaf6da5b9815a74736cc128b8a7519e04812312000000000a000000160000001a0000002800000036000000440000004a000000570000006200000071000000740000008100000091000000a1000000ac000000be000000c9000000626c6f636b5f68617368626c6f636b5f6e756d62657263616c6c63616c6c5f646174615f636f707963616c6c5f646174615f6c6f616463616c6c5f646174615f73697a6563616c6c65726465706f7369745f6576656e746765745f73746f72616765686173685f6b656363616b5f3235366e6f777265665f74696d655f6c65667472657475726e5f646174615f636f707972657475726e5f646174615f73697a657365616c5f72657475726e7365745f696d6d757461626c655f646174617365745f73746f7261676576616c75655f7472616e73666572726564051302c0c0d20463616c6cc0c9d2066465706c6f7906c1c601845b02c05edd9b00e301060318032903df03a504ac0423057405b40541064d067706ad06e4064d0766076f07a407e907070852086e088b08b208c708fa080009270939095a096009b509cf09020a080a2f0a410a620a680a9d0aa80aae0ae00afe0a6c0b920baf0b610c7f0cb80ce00cfa0c260d790d850d9a0de80df70d140e440e590e640e930e9c0e9e0fc80fe00ff30f291062106d10af10db104211591189119011b811bf1110121f1251127d128612a6123d13ba13c313f41356146c14a014d714a4155016a11602171617361753176c1742189c18db184d1958195f197f19d319da19f619251a521a5b1a7b1aa21abc1ac31ad01a771bea1bf11b621c8d1ca91cd51cf31c131d2d1d341d6e1d9c1db61de41dfe1d2c1e461e6d1ead1ed21ee91e291f911fde1f3d208120e720f520312138217f21ad21cc2124224e2266227922b022ed22f8223b236723ce23e52315241c2444244b249c24ca24dd24302537255325a025be25e525ff2506261326b6261d27242790279f27ac27c427d7270c283e2847286728a328b92821292a295d2992299d29b629bf29ed29082a692a742a972aaf2ac22af42afd2a1d2b3d2b572b5e2b872b922b9f2bbe2bcb2bf82bff2b4a2c632c822c282d332d502d5b2d9e2dc12ddc2dfb2d2f2e542e962ea12eaf2edc2e542f9b2ff42f1f30363068302031b331e831ff310e323c32553262329632e2322c3346334f338c33f4334234bf34e13400355135b935d335193661366a368a36cb36d636ef361d3757376c378c37d137dc3727384a387038f838133938397e39213a3c3a813aab3a1c3b4e3b553b753ba33bfe3b153c403c473c6f3c763ccc3cfa3c6b3da03da73dcb3d283e913ea83ed83edf3e073f0e3f723f793f803fb23fe33ffe3fa440ad40d440ef4052415d41644196419f41cc41e74141426c42b742c042e04200431a4321435f439843ba43e3432a4433445544b64421457c45d4453f464d468146af46d446df46f146ff463e475c4765478d47b147d147e847fe4734486848d048e748f44817491e4946494d49a949b449fb49284a924a184c474c764c994cb84c084d364d9c4d8f4ea64ee04ef74e234f2a4f4e4f554faf4fd94ff14f0450365041504f506f5089509050b550c050cd50ec50f9501951265150515751ac51d751fa51195239524452575279523f5362536b539b53bf536e54ba543b555d557c55cd55145624564256af56b556d5560c572b573c57465753575e579757e7573e584958c158de58e458045939595859695973598059ae59b959e759fd591f5a515a885aa15a075b555b8c5ba95baf5bc75bf55b145c255c2f5c3c5cb55cbe5cde5c085d195d235d3c5d6b5da55dc85dd15dfe5d655e7a5e845e0b5f195f4a5f595f8f5fc35f1f607d609360bb6013613261a161b761ef61f56125622b626f627c6282629262f9620f631b633e6344636c637263f76304646e647464db64e86446654c65d96505663966656686660d671367376772679367a067a667b06716685b684b696969c369536a726ae96a3b6b946ba66bc36bdd6b206c826c1e6d386dc76db06ed36e646f7a6fb96fd36f027017702170a170dc704171577161718471c471ca7112729672a3720c73c773327454756e758c75d775bd77c777f9770378527835795e796c79597a807aa57ad67adf7a057b507b567b7a7bb57bd17bde7be47bee7b557c977cac7cce7c387d767d0d7e747eb67ed37ed97efa7e327f4e7f5b7f617f6b7fc07fc67fea7f16803e804b8051805b809980d480e6801c812981678171818481e1813d828a829b82a482c582c983c384d384dc84f984d3852986288724882e889488a288e98821894c89ed896a8a708aa58ae98af38a468b5c8b768bab8bb18be68b298c5d8c678ca48cc88c238dd58d278eb28ed58ed88ee18ef18ef78e008f078f0d8f168f1d8f238f2c8f3d8f438f728f7e8f848f8b8f53906e9075908f90b990bf90c890d890de90e790ee90f490fd9004910a91139124912a9154916091669173917991829192919891a191a891ae91b791be91c491cd91de91e491189224922a923192d793e89302942694cb94d294ec9416951c95259535953b9544954b9551955a9561956795709581958795c095cc95d295d995a496ab96c596ef96f596fe960e9714971d9724972a9733973a97409749975a9760979497a097a697ad9739984198489860988a9890989998a998af98b898bf98c598ce98d598db98fb9801993599419947994e99b499009a179a309a4b9a869ac49ad79aec9a1a9b8e9bf59bfc9b149c3e9c449c4d9c5d9c639c6c9c739c799c829c899c8f9c989ca99caf9ce39cef9cf59c029d089d119d219d279d309d379d3d9d469d4d9d539d5c9d6d9d739dac9db89dbe9dc59d0e9e5d9e269f359f4f9f739fc79f11a04fa08ea0d2a0d4a0dda0eda0f3a0fca003a109a112a119a11fa128a139a13fa173a17fa185a192a198a1a1a1b1a1b7a1c0a1c7a1cda1d6a1dda1e3a103a209a23da249a24fa256a29fa2d5a2f6a28ea3c7a31aa448a48fa4e3a5f1a504a658a6b8a6d0a6fea674a717a85ea8daa8fba819a933a93aaa54aa65aa28ab7eabb0ab21ac81acdfacf8ac26ad91adc6adf3adffad5aafc9af31b044b063b07fb097b024b14ab198b1ceb1d9b1fbb138b23eb244b252b258b25eb264b26ab287b2b4b2c0b2c6b2d3b2d9b2e6b238b35eb3acb3deb3e9b30bb448b44eb454b462b468b46eb474b47ab497b4c5b4d1b4d7b4e4b4eab40bb511b55fb595b5a0b5c1b5feb51fb62db633b683b638b781b756b8b2b833b954b972b9c2b92eba4cba92baedbafbba0ebb4cbb56bb74bbb3bbf2bb04bc3cbc8ebcf6bc1cbd41bdc4bddebd02be47be90beaabec8be14bf81c0aec0f4c006c161c173c1edc142c254c265c2fac294c349c48ac494c4ecc4e4c515c627c61bc74ac774c7b2c7e6c789c81ec924c954c96ec99bc9a1c9c8c9d8c9ffc913ca57cacdcad3ca02cb12cb41cb55cba7cbbdcbeacbf0cb16cc26cc4ccc60cc80cc91ccd6ccebcc18cd72cd80cd86cd8dcd02ce09ce21ce45ceadce93cfa2cfbccfe0cf1dd04bd097d0c0d0dfd093d1b3d1eed117d22dd25ad2a5d2c9d2d3d2aa876e978a2098aa20977b2098bb20c89b0bc9ba0a979b019abbaeab20ae873751094ec87909647a017c8b95880195ac0178ab64caab9cf42836510934c87909647a017c8b95880195ac0178ab64caab9cf4281c51091a839aff01c8a80b7cbb9599ffc8a70c78cb83aaff5209f0320039086002025108da0d330790020383770a0f28cd0d9511f07b10087b156489647533082064975010028f047c78017c797c7a027c7b03978808d4980897aa1097bb18d4ba0ad4a8087c79057c7a047c7b067c7c07979908d4a90997bb1097cc18d4cb0bd4b909979920d489027c79097c7a087c7b0a7c7c0b979908d4a90997bb1097cc18d4cb0bd4b9097c7a0d7c7b0c7c7c0e7c780f97aa08d4ba0a97cc10978818d4c808d4a808978820d498037c78117c7a107c7b127c7c13978808d4a80897bb1097cc18d4cb0bd4b8087c7a157c7b147c7c167c791797aa08d4ba0a97cc10979918d4c909d4a909979920d4890a7c78197c79187c7b1a7c7c1b978808d4980897bb1097cc18d4cb0bd4b8087c791d7c7b1c7c7c1e7c771f979908d4b90997cc10977718d4c707d49707977720d487076f776fa86f396f2a7b5a187b59107b58087b57821008821595111032009511d87b10207b15187b161082897b19088289087b1982851082861833082050100447036f686f59821a6faa821b086fbb787b18787a10787908787898bc38787c1f98bc30787c1e98bc28787c1d98bc20787c1c98bc18787c1b98bc10787c1a98bb08787b1998ab38787b1798ab30787b1698ab28787b1598ab20787b1498ab18787b1398ab10787b1298aa08787a11989a38787a0f989a30787a0e989a28787a0d989a20787a0c989a18787a0b989a10787a0a98990878790998893878790798893078790698892878790598892078790498891878790398891078790298880878780182102082151882161095112832009511a07b10587b15507b16489515608411e06476828718828910828a0882886f776f996faa6f887b18187b1a107b19087b17491138491130491128491120481140208318831a20831b403309ff33073300060a0801821738821830821928821a20501208ffd7007b6a187b69107b68087b6750120afed80032009511a07b10587b15509515608411e08272827a08827b108277188283828908828c108288186f746fbb6faa6f276f826fcc6f996f387b17187b1a107b1b087b147b18387b19307b1c287b12208318831a203309ff330b2033070a109551a08210588215509511603200951160ff7b1098007b1590007b1688009515a0008411e082ab7b1b3882ab087b1b3082ab107b1b2882aa187b1a20829a7b1a18829a087b1a10829a107b1a088299187b19648650100c4b0182186f888219086f99821a106faa821b186fbb7b1b587b1a507b19487b18408218206f888219286f99821a306faa821b386fbb7b1b787b1a707b19687b18608379836a8317403308020a07955160ff8210980082159000821688009511a0003200951120ff7b10d8007b15d0007b16c8009515e0008411e082bc7b1c4082bc087b1c4882bc107b1c5082bb187b1b5833020e82ab7b1b1882ab087b1b2082ab107b1b2882aa187b1a308296829a087b1a829a107b1a088299187b1910491138203300102883007b18385010107d6f687b187882186f887b18708218086f887b18688218106f887b18608218186f887b1898008218206f887b1890008218286f887b1888008218306f887b1880008218406f887b18b8008218486f887b18b0008218506f887b18a8008218586f887b18a0008379811a388317603308030a075012129fd10032008b7910520931c8780883881f8488e056380000012533095c0202390a5c0202ae8a093d085c02020133087002028377c887073200009511f07b10087b158475010a05013d0758020251050750101444330016951110fe7b10e8017b15e0017b16d8019515f001951130be8411e064169569b83049194049193849192880003307409568e03049193033008000280efc951160f9951700067b7098007b7590007b7688009515a0068411e0641649261804492610044926080449260004836700040a1101956b000482b71082b81882b90882bad49808d4a707d4870752079f0739075802027b677897772098772095771f8477e095788000d87807956900037b98e0007b97e80094777b97f0003307409568e0034926f80350101883fb3307800082687850101addfe837782687833090a030182687854185f55079517e08477e07b677864719567c0033308800050101c13fa8267d0038268d8038269c003826ac803826b787bb7107bb8187bb97bba089517e08477e07b677064719567a0033308a00050101eddf98267b0038268b803826aa0038269a8037b6750826b707bb7107b68487bb8187b6a387bba7b69407bb908956780033308c000501020a6f9826890038269980314070000000001000000d38707d497077b68689888208888017b6930949893785108b306826788037b6760826780037b6758492638044926300449262804492620040249265804492650044926480449264004029567200495684004501022e3fb33077002037b672883773300240a068269283302262847d40082692850122640d4007b68289877206f98978920d497077b67209888207b68184926780449267004492668044926600407956760039568600450102812fb8067740397772082687803826918d4970749269804492690044926880449268004077b68b8048268207b68a8048268287b68a0047b67b004956780049568a00450102a47fb4926d8044926d0044926c8044926c00408956740039568c00450102caffa8067540382685803977720826968d49707826930d498084926f8044926f0044926e8044926e004088269607b6908058269587b6900057b6818057b6710059567e0049568000550102edefa4926380549263005492628054926200595672005826878501030c2fa492658054926500549264805492640050195674005826870501032a5fa8267388877d1078268409487826850826948d4980894875207ee0095670001330840501034d8f795680001828b18828c10828a08828750123689cf005208d7044926f0004926e8004926e000140900000000a079c3089568e0007b69f8007b67787b6a707b6b687b6c60501038caf850123a6dd00051079e048387044926d8004926d0004926c000209568c0004926c8007b6a687b6b6050103c9df8826a6882697082687882676050123eb0cb00510765048387244926b8004926b0004926a0000c9568a0004926a8005010406af85012424ad10051073e048397443a08300002492688007b689800140800000000686769687b68900095688000492680003300542832f8826768977720987720826860826958d49808d4870752070c019567a001330840501044d5f695680001828bb800828cb000828aa8008287a00050124681ce005208cf03492690014926880149268001140900000000a079c308956880017b6998017b67787b6a707b6b687b6c60501048c2f750124a65cf00510796038387044926780149267001492660012095686001492668017b6a687b6b6050104c95f7826a6882697082687882676050124ea8ca0051075d0383872449265801492650014926400113956840014926480150105062f750125242d000510736038397443a082000023a09280002956a00017ba8387ba9301408000000000074656c7ba828956820014926200150105427f733086482677850105682fa50125871ce000a0e0149267805492670054926680549266005094926980549269005492688054926800501956760059568800550105a50f84926b8054926b0054926a8054926a00504956720039568a00550105cb8f7956b000382b72082b83882b92882ba30957b0188b701c87909d49b07887701c87a0cd8ac07c8780ad4a907d4cb08d4870751079f029518e08488e064817b8a187b8c107b89087b8b4926d8054926d0054926c8054926c005049567c0057b6b787b69707b6c687b6a6050105ec4f7826760956900037b97188267687b97108267707b9708956800038267787b97330750106032f64926f8024926f0024926e002033307209568e0024926e80250106215f639085c020256183f0b20035c020240019517e08479e07b697864913307700202837783993308400a09826a7882a782a80882a91082aa186f777b67786f877b67706f977b67686fa77b67608367e0050a0a8262e0058263e8058264f005826af805826760957b14d87b0c826868c8c807d88708dacc08826970c89808d8980c826978c89c0c7b6b00067b6708067b6810067b6c18067b6a38067b6430067b6328067b6220069567000695682006501064cff649265806492650064926480649264006049567c0029568400650106637f68267d8027b67608267d0027b67688267c8027b67708267c0027b6778492678064926700649266806492660069567a00295686006501068fef58267b8027b67588267b0027b67508267a8027b67488267a0027b67409567800233084050106aaaf3956b000282ba980082b8900082b9880082b7800050126c2fcc005208a4008268407b6860028268487b6868028268507b687002956860028269587b6978027b675850106e9ef48267607b6738028267687b6730028267707b6728023a070000023a080800023a09100002826a787b6a20027b6758027b6850027b6948023a0718000233082095694002956a20027b67400282675850107020f69567000233084050107205f3956b000282ba1882b81082b90882b75012748fcb005108a200003308700202838833070133090a0e28213308700202838833070133090a0e28113308700202838833070133090a0e014926f0014926e8014926e001330276140700000000717b484e019568e0017b67f8013307501078cdf34926d8014926d0014926c001113307049568c0014926c80150107ab0f339085c020256183f0b20035c02024001330870020283883307013309240a0e7b677833007c28ecf67b677850107ce6f68377330833090a032824f2826778330850107ed1f68378330733090a0e286dff33075802027b67380139075802025517040728417a95670030837700013308330082000a0433028400956ab830280b33028400956ab8300181a764524789fb318b0a28e64052475bcba58d0a2885319569b8385247c8af4f8f0a28ef2d524708ed93970a288842956bb8405247262618aa0a288d375247ec6d0ab70a28822b514725499fc10e035247aafcc1c80a284d1b5147332359de2e0a5247ec7e77ea0a28243252478be3fdf20a28f7125247905b7a110a28260d524795c870270a285d3a5247754775270a28511552479304b7300a28553b5247ff5bc8390a287a1d524750d5e1470a28d8325247dc3d6a530a28f82f5247447092590a28ad115247bb5a975c0a286a1c524788d715690a28ff175147bb32b37c0a283f2a49294003492938034929300349292803956700408377e0fb330086000a1101956ab83895ab000382b73882b84082b93082ba28d49808d4a707d4870751070628d071502288004dc900ac780628d37195670040837700fc33080433008a000a04019569b83882985803829a600350228c003ac70052080628b871959800038287507b6720018287487b672801492980034929780349297003491868079567c01c9568203c50208e008ef29567b818827810047b681801827808047b681001807718047b67080133077002037b6700018377330090000a06826900013302920028dcc3008269000150229200d4c30082690801d3980882691001d39707d4870782681801d3a808d487078877019568b818492800044928f8037b87e8039567a01c4928f00333009400330262052884c200956a000182a73882a828d4870782a83082a920d49808d4870751070628f3709567601c33084050209600b0ef956bb81882b2c00395b80003828cb800828ab0008287a800d42a09d4c708d49808988820d4c909979920d4980851080628276a492b9803492b9003492b88037b6a3001140a00000000a079c3089568401c7bbaa0037b6738017b6228017b6c20015020980083f0956c000182c83882c72882ca20d47a0a50229a005fc20052070628d6698387049569b818492980034929780349296803209568201c492970037b6a28017b6b200150209c003cf050229e00ecc100520706289f69838724956ab818492a6003492a5803492a48030e9568001c492a50035020a0000df05022a200d9c10052070628706983a7443a083800023a09a80002956bb8187bb84003492b30037bb938039568e01b492b28033300040428d1ef492b2001492b1801492b1001492b0801956700408377c0013300a4000a1101956bb84095bc00015022a6003aca00510706282b7082673801817756170307282f70492b4001492b3801492b3001492b2801049567002d9568e0415020a80066f0956bb82895bc000482c74882c85082c95882ca607bca407bc9387bc8309568e02c7bc72833075020aa0048ef3302ac009568b828014928200449281804492808040364893307209568c02c492910045020ae001fef33095c020239075c020256173f0b20035c020240017b6928019517e08479e07b69300164913307700202837783993308407b6720010a09826a300182a782a80882a91082aa186f7b6f8c6f996fa79572117b6770d87208c889077b6978d8970ada880ac8ca0a7b6c8000d8ca087b6b8800c8b808956bb8407bb2480195b900017b97507b9a587b98609567a02c956800425020b0007aef9560b8288202e803820800048204f003820bf8038827118573018e4cda430c8eb78e89da8709d48b0adaac0951090628036f9ab9c9c90ad8c909c887079a77c997099a2710c843039a387b673001950b00037bb7a8007b6818017bb8b0007b6a28017bbab8009567802c9568602c7b6920017bb9c0005020b200dab9003302b4009568b82801958900038297c8007b6710018297d0007b6708018297d8007b6700018297e0007b67f8009567402c3308405020b60097ec9567b8288278a0037b6860827b98037b6b58827a90037b6a50827c88037b6c688269f8007b796003826900017b795803826908017b795003826910017b794803957900037b9880007b9b787b9a7064799567202c9568002c7b9c68035020b8003b7b826a58826768826860826950d489095022ba0095c70051080628c3669569b82882683001959b00037bb828826818017bb830826828017bb8389568e02b826a20017bba405020bc0025ed956ab828956b000182b7207ba7000382b72895ac00027bc7f80082b7187bc7f0009567c02b9568a02b82b9307bc9e8005020be00bdb800956ab8280195ab000382b70882b82082b91082ba189572e0d87207c8790b95bbffd39b0cd89b09dac70995a7ffc87909d8790788aa01c9a808c88707d49208d4b707d47808988820d49707977720d48707510706280766826960826b58d49b071408e0ffffff00000000826c68d88c08826a5094a8947852080628e16564c764ac649a957920d87907c87c087b6840d8c808da7708c8b8087b6830d8b8078268380181887b683801c8a7077b67481407ffffffff000000007b67f8007b6938649764287b6230015020c00087ef837781683001826938010a03956ab8283303330049269800492690003304330c3302330b018ec7884810858801dbc7088e278eb9dab709d4b207da780951090628215c7b6020017b6328019517e08477e07b67f00064717b6b08017babc0017b6200017ba2b8017b6c10017bacb0017b6418017ba4a8018267880095ac00017bc7e000826780007bc7d8008267787bc7d0009567a02a9568802a9569602a826b707bcbc8005020c200648100956ab82895a900028297207b6730018297187b67e8008297107b67e0008297087b67380195ab000182b7f800829882b9e80082baf000826bf0007bb7107bb8187bb97bba0864b89567402a5020c40016ec9568b82895890001829788007b67d800829790007b67d000829798007b67c8008297a0007b67c000826c380198c73d8269e000979803d4870798983d826ae80097a903d4980898a93d826a300197aa03d4a90997cc037b6c30015022c6001fbe007b6bf00083c9803307ff3308ff5020c80029c6007b67e0007b68e800826738018a79037b6938018267f80033085020ca0009c6007b67b0007b68b800826830018d8980003307ff3308ff5020cc00c6c5007b67a0007b68a8003307ff3308ff826938015020ce00d3c5008262f8008269f00052097f8269b000826aa000d4a90982633001883a8000826be000daab09826bb800826ca800d4cb0b826ce800daac0bda3209933b93a793a8826ac000d2ba0a826bc800d2b909826bd000d2b808826bd800d2b707d49707d4a808d48707510722956ab8288264180195670001827c1082632801827b08826020018278281801956bb8288267280195bc00017bc7288267687bc748826720017bc7308267507bc750826798007bc7388267587bc758826790007bc7409567202a9568002a9569e029826a607bca605020d0000ab600956bb82895bc000182c8800082c97882ca7082c768d4a808d4970ad48a0a98aa20d49808978820d4a80851080628c3628268180195ba00017ba808826810017ba810826800017ba8189568c029826908017ba9205020d20029e99567b828826890007b78e0009567b828826898007b78d8009567b828826820017b78d0009567a029956880299569b828826a28017b9ac8005020d400d08200956700018278827b08827c1082641801956ab82882a700017b67900082a7f8007b67980082a0f00082a3e80001954401884701c87c0cd4c407887701c87802d88208c88b0b28a9fc492be001492bd801492bd001492bc80195670040837780023300d6000a11330700403302d80028e4c100330700405022d800dcc1005022da0062c300510706288269826738018177561703072886699567802f3308405020dc000ce79569b8288298e0067b683001829ad8067b6a2801829bd0067b6b2001829cc8067b6c18014929a00649299806492990064929880600027b98c0067b9ab8067b9bb0069567602f9568402f7b9ca8065020de00be755022e0008ac0005107062855618267380181777b6738013308000264975020e20035eb837733080002826938010a039568b840492800024928f8014928f0014928e801049567202f9568a0425020e40092e8956bb82895bc000682c76882c87082c97882ca80007bca607bc9587bc8509568002f7bc74833075020e60073e73302e8009568b828014928400649283806492828060364893307209568e02e492930065020ea004ae739085c020256183f0d3308403d085c0202011407ffffffff000000007b67c0005022ec0013bc003307700202837783993308403300ee000a093302f00028bebc005022f000babc009567c02e3308405020f200bbe5826a080182631001826c18019567b828957900068298207b68a0008298187b68a8008298107b68b000827408069517e08478e06481330033023309330b7b8a18826700017b87107b83087b8c7b6498007b6430018267b0007b6728018267a8007b6738018267a0007b6720017b68b8000188071094277b69f800d4b9099497520706285d487b6be0007b62e8007b60f0009567e02d7b6c18017b6310017b6a08015020f40040e7956b000182b93882bc30d49c0782b82082ba28d4a808d48707987720d49808978820d4870751070628935f9567b8287b6a2801647a8277380582a830057b69380182a92805826bc000d2b7078488ff8499ff492a200595ab00057bb9087bb8109568c02d7bb71864c77b6c30015020f600dbe55022f80075b8008262e800c8b202d4200b88bb01826cf800c8bc09d8c90c826be000c8cb0b8268b8007b83087b847b87107b8a18956c00017bc78267d8007bc7308267d0007bc7288267c8007bc738644c2806ff492ac000492ab800492ab000492aa80095670030837760013300fa000a11956ab8302807956ab8300182a7b80082a8c00082a9b00082aaa800d49808d4a707d487075107062883665022fc0088bc00ac780628876695670030837780013308040a043302fe00956ab8300182a7c80082a8d00082a9d80082aae0007b6a38037b6930037b682803956820037b672003330750200001f0e449261803492610034926000303330720956800034926080350200201d2e439085c020256183f143308403d085c02023302040128a6b90050220401a2b900330770020283778399330840330006010a09330208012876ba005022080172ba00957211d87208c88907d8970ada880ac8ca0ad8ca08c8b808956bb8307bb2e8007bb7f0007bbaf8007bb800019567e0029568a03150200a0149e58267f8027b6718018267f0027b6710018267e8027b6708018267e0027b6700018268280195871250220c015ab7007bc8207bca187bc9107bc7089567c0029568c03150200e0101e58267d8027b67f8008267d0027b67f0008267c8027b67e8008267c0027b67e000826828019587135022100112b7007bc8407bca387bc9307bc7289567a0029568e03150201201b9e48267b8027b67d8008267b0027b67d0008267a8027b67c8008267a0027b67c0008268280195871450221401cab6007bc8607bca587bc9507bc74895678002956800325020160171e4826798027b67b800826790027b67b000956c000182c828958715d8870882ca20502218013cba00826888027bc82882c830c88a0ad88a0882cb38c8b808826b80027bcb20956bb83095bc00017bc880007bca787bc9707bc768956760029568203250201a010ae4826770027b67a000826768027b679800826760027b67a8009567400233084050201c01b9e195680002828b58828c50828a4882874050221e0168b90051080628465c826800017b682002826808017b682802826810017b68300295682002826918017b6938027b6738017b6a30017b6b18017b6c1001502020019ce2956c000182c83882c71882ca10d47a0a140b00000000010000001407e0ffffff00000000d8780782c930949794a752070628d85b8387208268e000956c00027bc88268e8007bc8088268f0007bc810956800028269f8007bc9187b6a18017b6b10015020220134e2956a000182a83882a7109577c0d8780782a930949782a918949752070628845b8387408268c0007b68e0018268c8007b68e8018268d0007b68f0019568e0018269d8007b69f80150202401e7e1956b000182b838140a00000000010000001407a0ffffff00000000d8780782b930949782b918949752070628295b838760826820017b68c001826828017b68c8018268b0007b68d0019568c0018269b8007b69d8017b6a28015020260188e195680001828b18828a30828938828728957780d8790794a794b752070628d85a7c67a8008e78839780004926b8014926b0017b68a0019568a0014926a8015020280144e195690001829b38140760ffffff00000000d87b078298309487829818948752070628905a826c980098c708826aa00097a838d487098267a80098770897c838d4780897a718987a2083b7a000492698017b6880017b6a9001956880017b69880150202a01dee03308c0008267380150202c0136e483783309c0003307330040030a0e330242032807b8004929600249295802492950024929480295670040837700fb33002e010a113302300128babb0050223001b6bb0082c75882c86082c95082ca48d49808d4a707d4870751070628d8618267380181775617030728dc61492b8002492b7802492b7002492b6802089567601a9568203b5020320138e19568b818958900018297b800956800017b87288297b0007b87388297a8007b87309567401a33084050203401dede956ab81895ac000182cba00082c8980082c9900082c7880050223601e0b700510806286359956b000182b828978820988920492a800182b83095ac00017bc86882b8387bc8709568201a7bc9787b67380133003c0328bddf492b6002492b5802492b5002492b48029567004083770003330038010a1101956ab84095ab000282b75882b86082b95082ba48d49808d4a707d4870751070628066150223a01c7b600ac7806280a61956700408377200333080433003c010a04019569b84082987802829a800250223e01b4b40052080628f060959800028287707b6728018287687b6720014929a002492998024929900249288800079567c030956840435020400107e09568b8308287207b67f8008287187b6718018287107b6710018287087b67080133077002037b6700018377330042010a0682690001330244012851b100826900015022440149b10082691801979920989920d3980882690801d39707d4870782681001d3a808d487078877019568b83049084918f87b87e89567a0304918f0330046013302620528f8af0095680001828c20828b28828938d49c07828a30d4ab08d48707510706282660956780303308405020480124dd9569b8288292e00795980007828cd800828bd0008287c800d42b0ad4c708d4a808988820d4ca0a97aa20d4a808510806289b574929b8074929b0074929a807140a00000000a079c308956860307b9ac0077b6738017b6b30017b6220017b6c280150204a01f7dd956c000182c83882c72882ca20d47a0a50224c01d3af00520706284a578387049569b8284929a00749299807492988072095684030492990077b6a28017b6b200150204e01b0dd5022500160af00520706281357838724956ab828492a8007492a7807492a68070f95682030492a70075020520181dd502254014daf0052070628e45683a7443a083800023a09400002956bb8287bb86007492b50077bb9580795680030492b4807330004042845dd492aa002492a9802492a9002492a88029567003083774003330056010a1101956ab83095ab000282b7980082b8a00082b9900082ba8800d49808d4a707d4870751070628195f502258014bb400ac7806281d5f9567a00533084050205a01aedb956c000582c8b8007b68300182c9b0007b69280182caa8007b6a200182cba0007b6b1801492678054926700549266805491c6000027bc898007bc990007bca880095678005956860057bcb800050205c01616a50225e012db50051070628f8558267380181777b67380133080002649750206001d8df837733080002826938010a0395670030837760033308040a04956ab83095ab000282b7a80082b8b00082b9b80082bac0007b6a58057b6950057b684805956840057b67400533075020620125dc4926380549263005492620050333072095682005492628055020640107dc39085c020256183f0d3308403d085c0202011407ffffffff000000007b67c00050226601d0b000330770020283778399330840330068010a0933026a01287bb10050226a0177b1009567000533084050206c0178da826a080182631001826c1801956800058287187b67a0008287107b67a8008287087b67b000826400059517e08478e06481330033023309330b7b8a18826700017b87107b83087b8c7b6498007b6430018267b0007b6728018267a8007b6738018267a0007b6720017b68b8000188071094277b69f800d4b9099497520706280a3e7b6be0007b62e8007b60f000956720047b6c18017b6310017b6a080150206e0101dc956c000182c93882c730d4970a82c82082cb28d4b808d48a0a98aa20d49808978820d4a8085108062854547b6b2801956c000482cb3082c8287b69380182c920826ac000d2ab0b8488ff8499ff492618047bc97bc808956800047bcb107b67300150207001a8da5022720142ad008262e800c8b202d4200b88bb01826cf800c8bc09d8c90c826be000c8cb0b8268b8007b83087b847b87107b8a18956c00017bc78267d8007bc7308267d0007bc7288267c8007bc738644c2812ff4929e0024929d8024929d0024929c80295670040837780fb330074010a1101956ab83895ab00025022760122b50051070628595c5022780169b100ac7806285d5c956700408377a0fb33080433007a010a04019569b8388298f802829a000350227c0156af0052080628435c8297f0027b6720018297e8027b67280149292003492918034929100349290803049567c01b9568c03b50207e01abda956bb81895bc000382c70882c81082c91882ca207bca95ba00027ba9f8007ba8f0009568a01b7ba7e80033075020800187d9330282019568b818014928e0024928d8024928c8020364893307209568801b4929d002502084015ed933085c020239075c020256173f0b20035c020240019517e08479e07b69080164913307700202837783997b6818013308407b671001330086010a0901826a080182a782a80882a91082aa18502288015fb20095ab107b6b0001d8ab0ac8a90b7b6bf800d89b09daaa09c889097b69f000d88908c887077b67e8009517e08477e07b67080164719569b81882673001959a00027ba7c000826738017ba7b800826720017ba7b0009568601b826728017ba7a800330750208a01a4d833028c019568b818018267e800958900027b97a0008267f0007b9798008267f8007b979000648a3307209568401b826900017ba9880250208e0168d882681801818756173f08480840019517e08477e07b6738016471837933084082671001330090010a09826a380133029201280bad00826a38015022920103ad00826808017b8a187b89107b8b087b879567201b5020940101d9330296019568b818019589000282978000956800017b87388297787b87308297707b87288297687b87209567001b330840502098019ed6956ab81895ac000282c76082c85882c95082cb4850229a0132ae005107062827519569000182972095ac00027bc7288297287bc7308297307bc7389568e01a8297387bc74064b77b6b380133003c032883d7492b8001492b7801492b7001492b6801956700408377200233009c010a113307004033029e0128c8b0003307004050229e01c0b00082b77882b8800082b97082ba68d49808d4a707d4870751070628a1595022a0017eae00ac780628a55995670040837740023308043300a2010a0401956bb84082b8980182b7a0015022a4018cb000520a06288b5982b9900182ba8801956bb82895bc00047bcae8007bc9f0007bc8f8009568a02d7bb7000533075020a601d1d63302a8019568b828014928e0044928d8044928c8040664893307209568802d4929d0045020aa01a8d639085c020256183f143308403d085c02023302ac01287cab005022ac0178ab003307700202837783993308403300ae010a093302b0012889ae005022b00185ae0083bbb800c86b0b95bc00017bcac0007bc9b8007bc8b0007bc7a8009567602d956860425020b20130d7330700305022b401afad009567402d3308405020b601ecd4956ab82895ac000482c7a00082c8980082c9900082cb88005022b8017cac0051070628714f5022ba01a5b00033070030282f254929a00249299802492990024929880295670040837740fb3300bc010a113302be0128f3b0005022be01efb00082c7980082c8a00082c9900082ca8800d49808d4a707d4870751070628465882673801817756170307284a58492bc002492bb802492bb002492ba802089567c01a9568603b5020c0016dd69567b818827718027b6738019567a01a3308405020c20128d4956ab81882ab000295ac000182c8f80082c9f00082c7e8005022c4012aad0051080628ad4e140800000000ff00000082693801d298088e88492ae001492ad8017ba8c8019568801a492ad0017b67380133003c032808d5492aa006492a9806492a9006492a880695670030837740070a1101956bb83095bc000682c7980082c8a00082c9900082ca8800d49808d4a707d48707510706288a5782673801817756170307288e57492bc006492bb806492bb006492ba8060795674018956860375020c6018fd5330700105022c801cdac0033077002037b67b80083773300ca010a068269b8003302cc0128eea6008269b8005022cc01e6a600956b000182b928d3980882b930d39707d4870782b838d3a808d487078877019568b81049288007492878077b87680795672018492870073300ce01330262052895a5009567b8304927e0064927d8064927d0064927c8060995670018956880375020d001f6d4956bb81095bc000782c76082c85082c94882ca585022d2012cad00492b4007492b38077bc7289567e017492b30073300d4013302b0052838a5009568b830492800074928f8064928f0064928e8060949282007492818074928100749280807029567a0379568c0375020d60102d59567b830492740074927380749273007647849282807049567c0179568e0375020d80163d4956bb81095bc000782c72082c81882c91082ca087b67f0007bc77b68e80095bc00067bc8f8007b69e0007bc9f0009568a0177b6ad8007bcae80033075020da012fd39568b8105022dc0198ad00956880174929d0065020de0116d333095c020239075c020233083fac781520035c0202407b69d0003302e00128e1a7007b69d0005022e001d9a70033077002027b67a800837783993308407b67a0000a09826a380182a782a80882a91082aa186f7b7b6b38016f8c7b6c30016f997b6928016fa77b672001957211d87208c88907d8970ada880ac8ca0ad8ca08c8b808956bb8307bb2480795b900077b97507b9a587b986095676017956800385020e20163d3956bb81095bc000682c7c00082c8b00082c9a80082cab800d48707859810d4a808d48707887701492ba006492b98067bc7880095674017492b90063300e401330276062898a3009517e08478e0648182672001957a15d87a0782692801c8790bd89b09da770982673001c87909d87907826c3801c8c7077b6790007b87187b6998007b89107b6bc0007b8b087b6ac8007b8a956720177b68b0005020e601c3d29568b8107c87680688770149286006492858067b87480695670017492850063300e801330298062814a300956c000182c820958713d8870882ca285022ea0173a80082c830c88a0ad88a0882cb38c8b808956bb83095bc00077bc880007bca787bc9707bc7689567e016956820385020ec014fd29568b81001958b000682b93082ba2882b74082b838959b0188ac01ff85cc0194bcd2780b95bb0194bc510c0628115495abff007b6b1001d8ab0ac8a90b7b6b0001d89b09daaa09c889097b691801d88908c887077b67080195670040837740f80a01956bb83082b7880782b8900782b9a007826a1001d87a07826c0001d3c80ad88c0c82b89807daa70c826a0801d3a907d89a09826b1801d88b0ada7a09d3b808d48707db790c7b6c18019567c0163308405020ee016bcf9562b81095280006828920828c18828b108287088268180152080628952e9578207b6818017b671001d87807c87b087b6888007b6b0801d8b808da7708c8c8087b68787b6c0001d8c8077b69f800c897077b67800095670040837760f80a0a01826c1801826978d49c0782688800826a8000d4a808d48707987720d49808978820d48707510706288b493302f001956ab8300195ab000782b7a80082b8b00082b9b80082bac000956bb8107bba800595ba00057ba9787ba870956820167ba76864c75020f201ddcf956b000182b810958740d8870882ba085022f401aaa60082b8c88a0ad88a085022f601edaa005108062821499569b810492960054929580514080040f09bbce108007b98480595680016492950055020f80189cf95670001827b827a08827810958760d887085022fa0154a600c8ba0ad8ba085022fc0199aa0051080628cd488268d800956ab81095ab00057bb8288268e0007bb8308268e8007bb8389568e0158269f0007bb9405020fe012fcf826cf80095680001828b828a08828710d4b709d4ca08d48909989920d4b808978820d498085108062874489569b8104929200549291805492910053302609568c0157b92080550200002e3ce9568b8104928e0044928d8044928d004958900044929c80080008267f8007b870005826700017b97f800826708017b97f000648a9567a01595688015826910017ba9e80450200202655c9517e08477e07b670801647195676015826810015020040245cd330206029568b81001958a000482a7c00082abb80082a9b00082a8a800d49707d4b809d47909989920d4b707977720d4970751070628b747826718017b681801502008029fd19518e08489e07b691001649183778168180183990a09826710017c771f84770f9568b810492840044928380449283004958900047b9728826738017b9760826730017b9758826728017b9750648b95672015956800159569e014826a20017bba480450200a02bf639568b810958b000482b7a0007b67f80082b798007b67e80082b790007b67e00082b788007b67f00082b77882bc800082b96882ba70826808017b87107b8c187b897b8a089567c01450200c0275ce9569b810959a000482a8087b68180182a7107b67100182a7187b67080182a8207b680001826bf00098b93d826ae00097ac03d49c0398aa3d826ce80097c903d4a90298c93d826af80097aa03d4a90997bc037b6cf8008e3a88cb000185bb01db3a0b8e938e2adb930ad49209db9a0b7b6be80083c98050200e025aa8007b67e0007b68d8008267f0008a79037b69f00082671801826810015020100238a8007b6780007b6888008268f8008d8980008267080182680001502012023fa800826a8800d48a0a8269f800889b80007b6b88008268d800dab80a82681001da980a7b6a100182688000d478088267e000dab70882671801da97087b68180182670801826800018269f00050201402c8a70033088269880093979777209877208269e800826b1801949b826c1001949c9497939882699000956ab8107ba90004826998007ba9f8038269c0007ba9f0038269c8007ba9e80395a900037b98e0007b97d8007b9cd0009567a014956880147b9bc8005020160212689517e08477e07b6718016471956760148268b00050201802e4cc9567b810957900038298a8007b681001829bb0007b6b0001829ab8007b6a08018297c000848800ff868801826918017b9a107b97187b9b087b9864988267b00050201a0218cd8269000197973882681001988808d48707826a080197a838989908d4980897a918989920956ab810492aa00395ab00037bb998007bb89000956840147bb78800330750201c0264cb33021e029568b810014928800349287803492868030564893307209568201449297003502020023bcb9517e08477e07b67180164718269d000819756173f08480940019517e08477e07b671001647183793308408267a000330022020a09826a10013302240228d29f00826a100150222402ca9f00826818017b8a187b89107b8b087b879567001450202602c8cb956bb81095bc000382c94882c75082c85882ca607bca207bc8187bc7109567e0139568c0137bc908502028028d64956ab81095ab000382b74082b83882b93082ba28956bb83095bc00077bc7e0007bc8d8007bc9d0007bcac800956880388267180150202a02dacb82682001958712d88708826a280150222c0248a1007bb895b800ff7b8af8007b89f0007b87e8009567a0139568a03850202e022bcb9567b810827800037b6878957900028298f8007b68708298f0007b68688298e8007b68609567b838491720491718491710647849180801956780139568c03850203002e6ca330700105022320265a30082c7c80082c8d00082c9d80082cae0007bca80007bc9787bc8707bc7688267787bc7a0008267707bc798008267687bc79000956760139568401395692013826a607bca880050203402105a9567b8108273c0028274b8028270b0027b6090008279a8027b699800502236021f9d009572ff9ab79accc99c099aa8f2007b6728018e7a64278e2cda2a0c7b68300150223802faa20082629800d4420bd4b808888801d4a8087b63880094837b64800094849480948251080628d53e826830018588ff00826b2801d4b808d4790ad4a80852080628ba3e826c300195ca017b6a380188a801c898087b681801d4a808888801c8b8087b680801d8b808c887077b6710019ac8ff007b6820019a898000826798008268900050203a0221a4007b6728017b68f80082678000826888008269200150203c022ca4007b6700018267f800d487077b67f800826830019a897f826798008268900050203e0207a40082692001889a80007b6a3001826bf800dbab08826b8800da9b087b68f00082682801826b0001d4b808daa70882678000da97087b682801826798008268900050204002c1a300826b0801826c100182691801d49c0c826a3801d4ba0ad4ca0a956b000182b93093987bb82093977bb730510a06288e3b330c4926d8008260f00028753d5147a8edc47f0a28564b492900044929f8034929f0034929e803956700408377a0fc0a1101956ab83895ab000382b7f80082a8000482b9f00082bae800d49808d4a707d4870751070628674b82673801817756170307286b4b9567001d330840502042026ac6956ab81895ac000482cb6082c85882c95082c74850224402709f0051080628f340492a4004492a3804492a2804109568e01c492a30047b67380133003c032860c7492ba000492b9800492b9000492b88009567004083774001330046020a1101956ab84082a7980082a8a00082a9900082aa8800d49808d4a707d4870751070628ec4a502248026a9e00ac780628f04a9517e08477e07b673801647195670040837760013308040a049568b8408289c0007b692801828ab8007b6a20018287b0007b673001828ba8007b6b1801826c38017bc9187bca107bc7087bcb4928e0004928d8004928d0004928c80007956720299568804150204a029bc79567b8288278707b6810018278687b6808018077787b67000133077002037b67f800837733004c020a0633024e0228989a0050224e02949a009568b8284918604918587b874895670029491850330050023302620528be9700956a000182a72882a820d4870782a8188888d10782a93094989478510806281c4a9567e02833084050205202e8c4956bb82882b24082bc3882ba3082b728d42a09d4c708d49808988820d4c909979920d4980851080628673f491b18491b10491b087b6a3001140a00000000a079c3089568c0287bba207b6738017b6228017b6c200150205402c7c5956c000182c83882c72882ca20d47a0a50225602a39700520706281a3f8387049569b82849094919f84919e8209568a0284919f07b6a28017b6b20015020580285c550225a0235970052070628e83e838724956bb820492be007492bd807492bc8070c95688028492bd00750205c0256c550225e024d9d0052070628b93e8397443a08480002956ab820492ab0077ba8c007140800000000686769687ba8b80795686028492aa807330004042815c54929c0044929b8044929b0044929a80495670040837760fd330060020a1101956ab83895ab000482b7b80082b8c00082b9b00082baa800d49808d4a707d4870751070628f348502262021b9c00ac780628f7489517e08477e07b673801647195670040837780fd3308040a049568b8388287e0047b6730018289d8047b692801828ad0047b6a2001828bc8047b6b1801826c38017bc7187bc9107bca087bcb492800054928f8044928f0044928e804079567e01e9568a03d502064024cc59567b818827830067b681001827828067b680801807738067b67000133077002037b67f8008377330066020a063302680228469800502268024298009568b81849282006492818067b8708069567c01e4928100633006a023302620528689500826818019587efd88708826b2001c88b099599ffd3b90ad8b90bdaa80b826a280195a8ffc88b0bd88b0888aa01826c3001c9ac0ac8a808d2b8089588019599018877f18577019497948751070628ed479567a01e33084050206c0263c2956ab81882a2000695a80005828cf800828bf0008287e800d42b09d4c708d49808988820d4c909979920d4980851080628da3c64a9492ad805492ad005492ac805140a00000000a079c3089568801e7b9ae0057b6738017b6b30017b6220017b6c280150206e0234c3956c000182c83882c72882ca20d47a0a5022700210950052070628873c8387049569b8184929c0054929b8054929a805209568601e4929b0057b6a28017b6b200150207202edc2502274029d940052070628503c838724956ab818492aa005492a9805492a8805139568401e492a900550207602bec2502278028a940052070628213c83a7443a083800023a09a00002956bb81895ba00057ba880007ba978140800000000007372657ba8709568201e492b6805330004042876c249292002492918024929100249290802956700408377c0fa33007a020a1133027c0228799d0050227c02759d0050227e02d99c0051070628b6468267380181775617030728ba46492b4002492b3802492b3002492b2802049567001a9568e03a5020800205c39568b81895890001829760956800017b87388297587b87308297507b87288297487b87209567e01933084050208202a8c0956ab81895ac000182c74082c83882c93082cb28502284023c980051070628313b9569000182972095ac00017bc7088297287bc7108297307bc7189568c0198297387bc72064b77b6b380133003c03288dc19567b8384927800449277804492770044927680495670040837720fd0a1101956bb83895bc000482c77882c8800082c97082ca68d49808d4a707d4870751070628e6458267380181775617030728ea45492ba004492b9804492b9004492b8804079567001e9568403d5020860213c2330288029568b8180195890005829758956800017b87288297507b87388297487b87309567e01d33084050208a02b7bf956ab81895ac000582cb4082c83882c93082c72850228c02bd980051080628403a956b000182b828978820988920492a200582b83095ac00057bc80882b8387bc8109568c01d7bc9187b67380133003c03289ac0492b2002492b1802492b1002492b0802956700408377c00233008e020a11330700403302900228ec99003307004050229002e4990050229202f59a0051070628164582673801817756170307281a45492b4002492b3802492b3002492b2802019567e02f9568e0425020940221c1330296029568b8280195890007829740956800017b87388297387b87308297307b87288297287b87209567c02f33084050209802bfbe956ab82895ac000782c72082c81882c91082cb0850229a025396005107062848399569000182972095a800067b87e8008297287b87f0008297307b87f8009568a02f8297387ba7000764b77b6b380133003c0328a0bf4929800149297801492970014929680195670040837720fa33009c020a1101956ab83895ab000182b77882b8800082b97082ba68d49808d4a707d48707510706283d4450229e02a99600ac780628414495670040837740fa3308040a04956ab83895ab000182b7880082b8900082b9980082baa000956bb8187bba00017bb9f8007bb8f0009568a0197bb7e80033075020a0020ebf3302a2029568b818014928e0004928d8004928c800036489330720956880194929d0005020a402e5be39085c020256183f143308403d085c02023302a60228b993005022a602b593003307700202837783993308403300a8020a093302aa02288994005022aa02859400957211d87208c88907d8970ada880ac8ca0ad8ca08c8b808956bb8387bb2a80195b900017b97b0007b9ab8007b98c000956760199568603a5020ac0258bf9568b8188287c0007b6718018287b8007b6708018287b0007b6710018287a8007b67000182682801958712d88708826a20015022ae021c950095bc00017bc8e0007bcad8007bc9d0007bc7c800956740199568803a5020b002fdbe956cb81882c7a0007b67f80082c798007b67f00082682801958715d88708826a20015022b202c6940082c890007b68280182683001c88a0ad88a08826b3801c8b80882cb88007b6b2001956bb8387bb8000295b800017b8af8007b89f0007b87e800956720199568a03a5020b4028dbe3302b6029568b818018287787b67e0008287707b67d8008287687b67e800956700193308405020b80236bc9569b818829260829c58829b50829748d42b0ad4c708d4a808988820d4ca0a97aa20d4a80851080628b536826800017b9828826810017b9830826808017b98389568e018826a18017b9a407b6738017b6b30017b62c8007b6cd0005020ba020fbd826838018267d000826ac800d47a0a140b00000000010000001407e0ffffff00000000d8780782693001949794a7520706284b36838720826820019569b8187b6bc800649b7b9808826828017b98108268f0007b98189568c0188269f8007bb9207b6ad0005020bc02a4bc826938018267c8009577c0d879078268300194878268d000948752070628f4358267000185771082680801d4870782681801826a1001d4a808d487078878018397409569b81849094919f87b98e89568a0184919f05020be0249bc826bd000826a300182693801140800000000010000001407a0ffffff00000000d8790794a794b7520706288c357c67e8007b6828018e788397609569b8104929e0074929d8077b98c807956880184929d0075020c002f1bb95690001829b38829728957780d87b0782983094878268d0009487520706284035826cd80098c708826ae00097a838d487098267e80098770897c838d4780897a718987a2083b78000956cb810492cc00795cb00077bb8a8007bbab800956860187bb9b0005020c20286bb3308a000826738015020c402debe83783309a0003307330040030a0e3302420328af92004929c0074929b8074929b0074929a807956700408377603300c6020a1101956bb83895bc000782c7b80082c8c00082c9b00082caa800d49808d4a707d48707510706281c405022c802669200ac7806282040492be007492bd807492bd007492bc8070795674028956880405020ca02e3bb330700205022cc0221930033077002037b67200183773300ce020a0601956c000182c9205022d002428d0082c928d3980882c930d39707d4870782c838d3a808d487078877019568b82049288007492878077b87680795672028492870073300d2023302620528f58b009568b84049084918f84918f04918e804956700289568a0405020d4025bbb3302d602956bb8200195bc000782c74882c85082c95882ca607bca407bc9387bc8309568e0277bc72833075020d80238ba9568b8204928200749281807492808070364893307209568c027492910075020da0214ba39085c020256183f143308403d085c02023302dc0228e88e005022dc02e48e003307700202837783993308407b6730013300de020a0901826a380182a782a80882a91082aa185022e0021a930095ab11d8ab0ac8a90cd89c09daaa09c88909d88908c887079568b8407b8b087b8c107b89187b87209567a0279568c0405020e20283ba956ab82095ab000682b7f80082a8000782b9f00082bae800d49808d4a707d48707520706288b3e956780273308405020e40223b8956bb8200182b2e00695b80006828cd800828ad0008287c800d42a09d4c708d49808988820d4c909979920d49808510806289932492bb806492bb006492ba8067b6a3001140a00000000a079c308956860277bbac0067b6738017b6228017b6c20015020e602f5b8956c000182c83882c72882ca20d47a0a5022e802d18a005207062848325022ea025993004929a00649299806492988062095684027492990067b6a28017b6b20015020ec02aeb85022ee025e8a00520706281132838724956ab820492a8006492a7806492a68061095682027492a70065020f0027fb85022f2024b8a0052070628e23183a7443a085000023a09580002956bb8207bb86006492b50067bb9580695680027492b4806330004042843b8492a6002492a5802492a5002492a480295670030837700033300f4020a11330700303302f60228959100330700305022f6028d910082c75882c86082c95082ca48d49808d4a707d4870751070628693d82673801817756170307286d3d492b8002492b7802492b7002492b6802029567e003956820335020f802bcb88267f803956800017b87388267f0037b87308267e8037b87288267e0037b87209567c0033308405020fa0263b6956b000382b7d80082b8d00082b9c80082bac000d49707d48a09d47909989920d48707977720d4970751070628de3095690001829720956b00037bb7a0008297287bb7a8008297307bb7b0009568a0038297387bb7b80064a77b9a3833003c032837b75022fc02838e00ac780628c23c95670030837780033308040a04019569b83095970002827ce000827ad800827bd000d4ca0788b801947852080628a33c8298c802826738018074958723d88709c89b037b6b2001d8b30bda990bc8ab0b7b6a2801d8ab097b6c3001c8c909d4b909d847079437949752070628763c7b68f000838804956700308377a0030a04019569b830829400038297f8028290f0027b671801d44707880801947852080628533c829ce8028267f000957a24d87a0982632001c8930798cb3b970805d48b0b7b6c000197c805c8b702c8a8087b6af800d8a80bc8b202d3720cd8720adacb0a7b67f000d8370bda990b82692801c8b907d89709826b3001c8b90982631801983c3b974b057b641001d4cb04980b3b973c05d4cb0bc87b0b7b69e000c849097b67e800d87b0cc8c909826c380180ccc8ba0ad8ba0bc8b909d88c08882b01858801db2b0888970188ab01db970bd4a909db9b087b60080152080628a93b9568b8304928200349281803492810034928080308956780109568c0335020fe029fb69568ff079588b9007c87dc078877014928c0074928b8077b87a807956760104928b0073300000333028e0528ec86009567b830492740039567b830492738039567b830492730039567b8304927280309956740109568e0335020020341b6956bff0795bbb90095bc000782c7a00082c8900082c9880082ca9800502204036f8e00492b8007492b78077bc76895672010492b7007330006033302b005287b86009567b830492760039567b830492758039567b830492750039567b83049274803099567b830492780039567b830492778039567b830492770039568b830492868030295670034956820345020080329b69567b8304927a0039567b830492798039567b830492790039567b83049278803956700109568403450200a0381b5956cff0795ccb90082ca480782c7500782c8580782c96007826b10017bcb0007826b18017bcbf806826b08017bcbf006826b00017bcbe80695cb00077bb9207bb8187bb7109567ff079577e1079568ff079588c1079569ff079599a1077bba0850200c039b449568ff079588b900958900078297287b6738018297387b6730018297307b6728018297407b6720019567b8304927c0039567b8304927b8039567b8304927b0039567b8304927a80395670030837760040a1101956cb83095cb000382b7c00082b8b00082b9a80082bab800826b2001d3b707826b2801d3b808d4870782683001d3a808826a3801d3a909d49808d4870751070628f212826800019582fbd8820882670801c887099599ffd3790ad8790bdaa80b826a180195a8ffc88b0bd88b0888aa0182671001c9a70ac8a808d2b8089588019599018827fc857701949794875107062863179567400633084050200e03fcb195680006828b58828c50828a4882874050221003ab890051080628892c492630064926280649262006140900000000a079c308956820067b6938067b6738017b6a30017b6b28017b6c200150201203e5b2956c000182c83882c72882ca20d47a0a50221403c1840052070628382c8387044926180649261006492600062095680006492608067b6a28017b6b200150201603a2b25022180352840052070628052c8387244926f8054926f0054926e005179568e0054926e80550201a0377b250221c036e8a0052070628da2b8397443a083800023a09f000023a0af80002956b00057bb8d8007bb9d0007bbac8009568c0054926c005330004042836b29567b83849272004492718044927100449270804956700408377c0fc33001e030a1101956ab83895ab000482b71882b82082b91082ba08d49808d4a707d4870751070628dd37502220033c8900ac780628e137956700408377e0fc330804330022030a0401956bb83882b8380482b74004502224034a8b00520a0628c73782b9300482ba2804956bb81895bc00047bcae8007bc9f0007bc8f8009568a01d7bb700053307502026038fb19568b818502228034b8c009568801d4929d00450202a0376b139085c020256183f143308403d085c020233022c03284a860050222c0346860033077002028377839933084033002e030a0933023003285789005022300353890083bbb8f8c86b0b95bc00047bca607bc9587bc8507bc7489567601d9568003d5020320302b233070020502234038188009567401d33084050203603beaf956ab81895ac000482c7a00082c8980082c9900082cb8800502238034e870051070628432a50223a03778b003307002001837720fdc87608826738017ba7800464b77b6b380150203c03acb03308208267380150203e0305b4837833092028153309203307330040030a0e3302420328d287003307330040030a0e3302420328c2870050224203be8700ac7806288536956700408377e0fd3308040a049568b838958900058297407b6738018297387b6730018297307b6728018297287b672001492860054928580549285005491948089567e0269568003e502044030bb19568b8207c873c0688770149282006492818067b8708069567c026492810063300460333028e05285c81009567b83849278005492778054927700549276805099567a0269568203e50204803bdb0956bb82082b7000695bc000582c8f00082c9e80082caf80050224a03ef8800492be005492bd8057bc7c80095678026492bd00533004c033302b00528fa80003307b83850224e03ad86004928a805029567403e9568603e50205003dab09567b8384927e0054927d8054927d0054927c805956760269568803e502052033eb09567b820957900058298a8007b6818018298b8007b6810018298b0007b6808018297c0007b6700019567b838492700064927f8054927f0054927e805956700408377a0fe0a1101956ab83882a7000695ab000582b8f00082b9e80082baf800956b000182bcd3c70782bc08d3c808d4870782b810d3a80882ba18d3a909d49808d4870751070628860f956a000182a72088771082a828948782a83882a930d4980894879568b820492800054928f8047b87e8049567a0254928f0043300540333020c0628f37f9568b8384928200649281806492810064928080604956780259568c03e5020560355af33025803956bb8200195bc000482c7c80082c8d00082c9d80082cae0007bcac0007bc9b8007bc8b000956860257bc7a800330750205a032aae9568b8204928a0044928980449288804036489330720956840254929900450205c0306ae33095c020239075c020256173f0b20035c020240017b69c0009517e08479e07b69180164913307700202837783993308407b67c8000a09826a180182a71882a81082a90882aa6f727b6200016f8c7b6c08016f9b7b6b18016fa97b6910019517e08477e07b67f80064719568b82082673801958a00047ba720826730017ba718826728017ba710826720017ba7087ba9407bab387bac30648a956700259568e0249569c0247ba2280450205e034543956ab82095ab000482b780007b67d80082b7787b67b80082b7707b67b00082b7687b67d00082b75882b86082b94882ba50826bf8007bb7107bb8187bb97bba0864b89567a02450206003fdad9569b820959a000382a8e8007b68f80082a7f0007b67f00082a7f8007b67e800829800047b68e0008264d00098493d826ab00097ac03d49c0398aa3d826cb80097c903d4a90298c93d826ad80097aa03d4a9099744037b64d8008e3a884b000185bc01db3a0c8e9b8e2adb9b0ad49209db9a0c7b6cb80083498050206203de87007b67b0007b68a8008267d0008a79037b69d0008267f8008268f00050206403bc87007b67a0007b6898008268d8008d8980008267e8008268e00050206603c38700826a9800d48a0a8269d800889b80007b6b98008268a800dab80a8268f000da980a7b6af0008268a000d478088267b000dab7088267f800da97087b68f8008267e8008268e0008269d000502068034c87008268980093879777209877208268f800d487078268f000d487078877018268b800d487079568b8204928e0034928d8037b87c803956780244928d00333006a0333023806281e7d956c000182c895871550226c0344820095bc00067bc8407bca387bc9307bc728956760249568e03e50206e0375ac9567b8207c77a80351070628821a956a000182a79578107b68e800d8780782a808c878097b69e000d88908da770882a718c878087b68d800d8780782a810c887077b67d0009517e08477e07b67b800647133077002037b67f80083777b67f000330070030a063302720328897e50227203867e49290003959b00027bb8f8007bb7f0009568a0237bbae800330750207403f0aa8267d0009568b820958900027b97e0008267d8007b97d8008267e0007b97d000648a330720956880238269e8007ba9c80250207603b9aa8268c000818756173f08480840019517e08477e07b67b0005022780389850033007a030a09826ab00033027c0328267f826ab00050227c031f7f83776003c8670750207e0364ab3307002050228003e3830082c7c00082c8b80082c9a80082cab000d4870788980894a89478492ba002492b98027bc8880095674023492b9002330082033302e205289b7b956c000182c7389568b820958900027b972082c7307b971882c7287b971082c7207b970882c7107b974082c7187b973882c7087b9730648b956700239568e0229569c02282ca7bba280250208403cc3f9567b820957900028298487b68b8008298507b68b0008298587b68a8008298607b68a0008298687b6898008298707b6890008298787b688800829880007b6880008267f000330086030a068269f80033028803286f83008269f800502288036783009877206f99979a20d4a707989920956ab820826b800095ac00017bcbe000826b88007bcbd800826b90007bcbd000826b98007bcbc800826ba0007bab0002826ba8007bcbf800826bb0007bcbf000826bb8007bcbe8007bc9b8007bc7b0007bc8a8009567a0229568802295696022492ac00150208a0393409517e08477e07b67b80064718267f00033008c030a0633028e03285a7c50228e03577c4929a001959b00017bb898007bb79000956840227bba8800330750209003c1a88267d0009568b820958900017b9780008267d8007b97788267e0007b9770648a330720956820228269e8007ba96801502092038ca88268c000818756173f08480840019517e08477e07b67b000502294035c8300330096030a09826ab0003302980328f97c826ab00050229803f27c83770002c8670750209a0337a9956bb82095bc000182c94882c75082c85882ca607bca207bc8187bc7109567e0219568c0217bc90850209c03fc413307002050229e037b810082b74082b83882b93082ba28956bb83895bc00067bc7607bc8587bc9507bca489568003f8267b8005020a0034aa99517e0847ce064c1826800019587115022a203248000826b1001c88b0b64c87b6cb0007bcb187bca107bc9087bc79567a0215020a40398a8956bb82082b9e80082b7f00082b8f80082ba00017bbac0007bb8b8007bb7b00095678021956860217bb9a8005020a6035941956ab82082a7e00082a8d80082a9d00082aac800956bb83895bc00067bc780007bc8787bc9707bca689568203f8267b0005020a803a9a89517e0847be07b6bb80064b1826800019587125022aa037f7f826c1001c8c8087bb8187bba107bb9087bb79567b8384927a00649279806492790064927880695670040837740ff0a119567b83895790006829888007b68a800829890007b68a000829898007b6898008297a0007b679000956740218268b8005020ac03b0a7956bb82082ba880082b7900082b8980082b9a000826c90007bbc40826c98007bbc38826ca0007bbc30826ca8007bbc287bb9607bb8587bb75095672021956800219569e0207bba485020ae03d738956ab82082a7800082a87882a97082aa68956bb83895bc00067bc7c0007bc8b8007bc9b0007bcaa8009568603f8267b8005020b003a5a79517e08477e07b67b80064718267f0003300b2030a063302b403288f795022b4038c794919207b98187b97109568c0207b9a0833075020b603fea58267d0009568b8207b878267d8007b87f88267e0007b87f0648a3307209568a0208269e8007ba9e85020b803d0a58268c000818755174008480840019517e08477e07b67e8005022ba03a080003300bc030a09826ae8003302be03283d7a826ae8005022be03367a83778000c867075020c0037ba6956ab81895ab000782b7e00082b8d00082b9c80082bad800d48707859801d4a808d48707520745018267f0000a068269f80082970881981082996f77977a206f88988820d48a0a9877206f98978920d497079888209569b8184929c007959b00077bb8b8007bb7b000956860207bbaa80033075020c20310a53302c4039568b818014928a007492898074928880706648933072095684020492990075020c603e7a49517e08477e07b67e80064718269c000819756173f08480940019517e08477e07b67e0005022c803ab7f3300ca030a09826ae0003302cc03288379826ae0005022cc037c798268e8007b8a187b89107b8b087b87956720205020ce037ba5956bb81895bc000782c96882c77082c87882ca80007bca407bc8387bc730956700209568e01f7bc9285020d0033f3e956ab81895ab000782b76082b85882b95082ba48956bb83895bc00067bc7e0007bc8d8007bc9d0007bcac8009568803f8267e8005020d2038ca59568b838492800074928f8064928f0064928e806049567c01f9568a03f5020d403efa43302d6039568b81801958900078297207b67d0008297187b67d8008297107b67e0008297087b67e8009567a01f3308405020d8038da2956bb81882b7000795bc000682c8f80082c9f00082cae800d49707d48a09d47909989920d48707977720d4970751070628041d8267200195b900067b97c800826728017b97d000826730017b97d8009568801f826738017b97e00064a77b6a38015020da0360a38267f0003300dc030a068269f8003302de0328227e8269f8005022de031b7ed4780298aa206f99979820d4a8039899209568b818492880068267d0007b87a0068267d8007b8798068267e0007b8790068267e8007b8788063a0a8000023a0b8800023a0c9000023a079800027b8ac006958a00067babb8007bacb0007ba7a8007ba9787b83700664873308209569601f956a401f956b201f7b726806826738015020e0033ba59567001f8268b0005020e2039ea3956ab81895ab000682b76082b85082b94882ba58d48707859810d4a808d48707520756956700408377c03300e4030a0101956c000182c89587135022e6030e7995bc00077bc72882c7107bc93082c9207bca3882ca187bc84082c8087bc9607bca587bc7507bc8489567e03f956800405020e803a2a39568b83849288007492878074928700749286807094928a0074928980749289007492888070195672040956840405020ea036ea333078268c80033090a0e28c121d4c70ad49b08d48a0a98aa20d4c808978820d4a808510806284a1b4922f8054922f0054922e805140a00000000a079c3089568a0167b2a00067b6710017b6b08017b6c00017b69f8005020ec03a6a1956c000182c8108267f80082cad47a0a140b00000000010000001407fcffffff00000000d8780782c908949794a752070628e21a8387049569b8104929e0054929d8054929c80520956880164929d0057b6a38017b6b30015020ee0348a1956b000182ba3882b90882b81082b7305022f0035674520706289c1a838724956ab810492ac005492ab805492aa8051895686016492ab0055020f2030aa195690001829b101407bcffffff00000000d87b078298089487829838948752070628561a83b7443a08b000023a09b800023a0ac00002956cb81095cb00057bb8a0007bb998007bba900095684016492c88055020f403b2a033086482671001330006042807a49567ff07957781073308405020f603599f9569ff079599b9008292e00695980006828cd800828bd0008287c800d42b0ad4c708d4a808988820d4ca0a97aa20d4a80851080628cc194929b8064929b0064929a806140a00000000a079c3089568ff07958861077b9ac0067b6738017b6b30017b6220017b6c28015020f80324a0956c000182c83882c72882ca20d47a0a5022fa0300725207062878198387049569ff079599b9004929a0064929980649298806209568ff0795884107492990067b6a28017b6b20015020fc03d69f5022fe038671520706283a19838724956aff0795aab900492a8006492a7806492a6806139568ff0795882107492a700650200004a09f502202046c7152070628041983a7443a086000023a09e80002956bff0795bbb90095ba00067ba8607ba958140800000000006565667ba8509568ff0795880107492b480650200404569f3308648267380150200604afa2502208049d760a0e019567402633084050200a04f99d9569b8208292a00595980005828c9800828b900082878800d42b0ad4c708d4a808988820d4ca0a97aa20d4a808510806287018492978054929700549296805140a00000000a079c308956820267b9a80057b6738017b6b30017b6220017b6c280150200c04cc9e956c000182c83882c72882ca20d47a0a50220e04a8705207062820185022100431794929600549295805492948052095680026492950057b6a28017b6b200150201204879e50221404377052070628eb17838724956ab820492a4005492a3805492a2805139568e025492a300550201604599e50221804257052070628bd1783a7443a086000023a09680002956bb82095ba00057ba8207ba918140800000000006565667ba8109568c025492b08053300040428139e9569b8284929e0054929d8054929d005959800054928c8000002826798007b87e8008267b0007b87f0008267a8007b87f8009567a02e9568802e826aa0007b9a000650201a049a2b9567602e33084050201c04879c9567b828827ac0057b6a38018279b8057b693001827bb0057b6b2801827ca8057b6c20018268a0007b7860058268a8007b7858058268b0007b785005826898007b784805957800057b8a80007b89787b8b70647a9567402e9568202e9569002e7bac680550201e04cb2850222004c87551070628bb1664a29568b828958c000582c7900082caa0007b6a18018283880582ca980028d5004926d8044926d0044926c8044926c0040002826798007b67e0048267b0007b67e8048267a8007b67f0049567e0049568c0048269a0007b69f80450202204b62a9567a00433084050202404a39b956c000482c9b8007b69380182c8b0007b68300182caa8007b6a280182cba0007b6b20018267a0007bc7588267a8007bc7508267b0007bc748826798007bc7407bc9787bc8707bca689567800495686004956940047bcb6050202604f32750222804f07451070628e31564a2956c000482c7880082c898007b6818018263800482ca900001d3b704d8b70cd89300da400cc92a08c9c804d8c8087b681001d82a0a826c380182681801c9c80cc9ac0c82681001c98c0cc9b707c90707c99308d4c707d4480ad47a0ad4470798aa20977720d4a70751070628731564977b68380133002a0428599f7b68380150202a04529f8378816938012861eb492ce003492cd803492cd003492cc803049567ff079577e1069568803450202c04b29c956bff0795bbb90095bc000682c72882c83082c93882ca407bca207bc9187bc8109568ff079588c1067bc708330750202e048c9b9568ff079588b900492800064928f8054928e8050364893307209568ff079588a1064929f00550203004609b33085c020239075c020256173f1120035c02024033023204283170502232042e703307700202837783997b68383308407b67300a09826a380182a782a80882a91082aa186f7b6f8c6f986fa79579107b69287b67a000d87907c878097b69207b68a800d88908da7708c8c8087b68187b6cb000d8c8077b6bb800c8b7077b67109517e08477e07b673801647133077002037b67c80083777b679800330034040a063302360428ff6c50223604fc6c4929e005959b00057bb8d8007bb7d0009568ff07958881067bbac8003307502038048e9a8267109568ff079588b900958900057b97c0008267187b97b8008267207b97b000648a3307209568ff07958861068269287ba9a80550203a04539a826838818756173f08480840011407ffffffff000000007b67c00050223c04337433003e040a093302400428ad6f50224004aa6f9577410650204204079b956cff0795ccb90082ca880582c7900582c8980582c9a005826b10017bcb4005826b18017bcb3805826b08017bcb3005826b00017bcb280595cb00057bb9607bb8587bb7509567ff07957721069568ff07958801069569ff079599e1057bba4850204404162c956bff0795bbb90095bc000582c7800082c87882c96882ca70d4870788980994a89478492b2005492b18057bc8089567ff079577c105492b1005330046043302e20528d76a3309330a33003304956700308377a0047b6748956700308377c0047b6740017b6428017b6020017b6a30017b69380182630001d8390782620801d32a08d82a09da8709826b1801d8b007826c1001d3c408d8c40ada870ad3b007d48707da790a8269f8008260f000520a06286d129568ff079588b900956a000182a7387b87a8017b83c8017b89e80182a730958900017b97b0007b82d0017b80f00182a7207b97b8007b9bd8008267e8007b97f80082a7287b97c0007b9ce0009567ff079577c1029568ff079588a1029569ff0795998102956aff0795aa61028263e0009564ff079544b9007b43000250204804942c9568ff079588b900958b000282b72082b91882ba1082b80850224a04b96e51070628c61183888267480a04956ab83082a7000495ab000382b8f80082b9e80082baf000d4870788981094a894789569ff079599b9004929a001492998017b9888019567ff07957741024929900133004c0433020c06286f699517e08477e07b67d8006471956900018297289568ff079588b900958a00017ba7208297207ba7188297307ba7108297387ba7088297107ba7408297187ba7388297087ba73082977ba7288267e0007ba7608267e8007ba7588267f0007ba750648c9567ff07957721029568ff07958801029569ff079599e101956aff0795aac101826bf8007bcb480150204e048c2b9568ff079588b900958b000182b7800082b97882ba7082b86850225004b06d51070628bd1083888267400a04956ab83095ab000482b70882b81082b91882ba20956bff0795bbb9007bbaa0007bb998007bb890007bb788008267b8007bb7c0008267b0007bb7b8008267a8007bb7b0009567ff07957781019568ff07958861019569ff0795994101826aa0007bbaa80050205204ca2c9568ff079588b900828700017b67708287f8007b67688287f0007b67608287e8007b67d0008287d800828ce0008289c800828ad0008268d8007b87107b8c187b897b8a089567ff0795772101502054047c979567ff079577b9008278707b6890008278687b688800827880007b6880008277787b6778826cd00098c73d826960979803d4870798983d826a6897a903d4980898a93d826a7097aa03d4a90997cc037b6cd800502256048c697b6b7083c9803307ff3308ff5020580498717b67687b68608267d0008a79037b69d0008267c000330850205a047b717b67587b68508268d8008d8980003307ff3308ff50205c043b71826950d489098268d800888b80007b6b50826a60daba0993897b6960826958d47909826768dab7098267c000da87097b69d8003307ff3308ff8269d00050205e041e7182695093989397826978826ad800d2a909826a8000826b60d2ba0a826b8800d2b707826b9000d2b808d4a808d49707d48707887701826870d487079568ff079588b9004918604918587b87489567ff0795770101491850330060043302380628b066956a000182a728956800107b8798f882a720956800107b8790f882a730956800107b8788f882a738956800107b8780f882a7109568ff079588b9007b8782a7187b87f882a708956900107b97a8f882a7956900107b97a0f88267e0007b87208267e8007b87188267f0007b8710648c9567ff079577e1009568ff079588c1009569ff079599a100956aff0795aa8100826bf8007bcb0850206204c1289568ff079588b900828740828938828a3082882850226404ea6a5207fa0d8388956700308377e0040a04956ab83095ab000482b72882b83082b93882ba40956b00107bba18f8956a00107ba910f8956900107b9808f8956800107b8700f88267b800956800107b8738f88267b000956800107b8730f88267a800956800107b8728f89567ff079577419568ff079588219569ff07959901826aa000956b00107bba20f850206604ec2995670010827740f87b67d80095670010827748f87b67d00095670010827750f87b67900095670010827758f87b67880095670010827760f87b67800095670010827768f87b677895670010827770f87b677095670010827778f87b6768826798000a068269c80082970881981082996f77977a206f88988820d48a0a9877206f98978920d497079888204926b8078269687b69d8078269707b69d0078269787b69c807826980007b69c007826988007b69f807826990007b69f0078269d0007b69e8078269d8007b69e0077b68b0077b67a8079567e0079568c0079569a0077b6aa00750206804a42a9568b8304928600449285804492850044928480404956780079568003550206a04e493826798077b678800826790077b679000826788077b67d000826780077b67d800956800018287287b6718078287207b6710078287307b6708078287387b6700078287107b6738078287187b6730078287087b67280782877b6720078267e0007b6758078267e8007b6750078267f0007b674807956760079568400795692007956a0007826bf8007b6b400750206c047b26956b000782b77882b97082ba6882b86050226e04a8685207b80b838895670030837720050a049567b83095790004829880007b6880008298787b68788298707b68708297687b67689567e00633084050207004d290956b000682baf80082b8f00082b9e80082b7e00050227204566952085f0b8268687b68c0068268707b68c8068268787b68d0069568c006826980007b69d8067b67800050207404c39182679800330076040a068269c8003302780428856c8269c800502278047e6cd4780298aa206f99979820d4a80898992049267806826788007b679806826790007b6790068267d0007b6788068267d8007b6780063a0a8000023a0b8800023a0c9000023a079800027b6ab806956a00067babb0007baca8007ba7a0007ba9707ba8683308209569a006956a8006956b60067b6260068267800050207a04a593956b000182b93895990188970182ba30c87a0ad4a90788770182b820c88707d8870882642801c88404647028aef79567402433084050207c04af8f9569b8208292a00395980003828c9800828b900082878800d42b0ad4c708d4a808988820d4ca0a97aa20d4a8085208290a492978034929700349296803140a00000000a079c308956820247b9a80037b6738017b6b30017b6220017b6c280150207e048490956c000182c83882c72882ca20d47a0a5022800460625107db0950228204eb6a4929600349295803492948032095680024492950037b6a28017b6b200150208404419095690001829b28829a308298388297209577dcd8780794a794b7510794098387249569b820492940034929380349292803159568e0234929300350208604019050228804cd615107680983a7443a087000023a09780002956bb82095ba00037ba8207ba918140800000064656873697ba8109568c023492b08033300040428bd8f9567802b33084050208a04798e9569b8288292e00295980002828cd800828bd0008287c800d42b0ad4c708d4a808988820d4ca0a97aa20d4a8085208f3089578207b683001d87803c83b087b683801d8b808da3308c8c8087b682001d8c808c828087b6828014929c0024929b8024929b0029568602b4929a802207b67d0007b6bc8007b62c0007b6cb80050208c042f8f9567402b82686850208e04e88d956c000182c73082ca20d4a70982c83882cb28d4b808d48909989920d4a808978820d4980852086a08956cb82882cba00282c8980282c9900282ca88027b6ad8007bca68027b69e00095ca00027ba9707b68e8007ba8789568202b7b6bf0007bab800050209004b98e3302330b330033048268d000958740956a00017ba730d887078269c800c879087ba828d89808da77088267b800c878087ba820d878078268c000c887077ba738826838826330018267d800d872078269e000d39b0a7b6b1801d89b09daa709826ce800d8c007826af000d3a40bd8a40adab70ad3c007d4b707da790a510a4b01d43807826948826a40d4a909d49707987720d43909979920d4970752078b077b6000017b6408017b6210017b63309567002b7b683850209204c48c95680001828c30828b20d4bc07828a38828928d4a908d48707987720d4b808978820d48707520746079567b8287b6b2001647b8272600282785802827750027b6a380182ba48027bba28027bb730027bb838029568e02a7bb2400264c77b6c30017b69280150209404938d826830019587207b67f800d8870982672801c89703d8730ada990a82672001c8a709d8790a82673801c8a7077b673801826738957a20d87a0b826740c8b70cd87c07dabb07826830c88707d8870b826848c8b8087b684882621001952201882b0182641801c8b404d4420b88bb0182680001c88b0bd88b0882600801c880008268f8007b6830017b6328017b69200164a87b6c40647364b7644b640464702883fe8267d00082643001d87402826cc80082682801d3c80ad8c809daa209826ab800826b2001c9ab00d8ab03826bc000826a3801c9ba0bc93b0bd8900ac9ab0ac9900bc9c809c92909c97408d4a909d4b80ad49a0ad4b90998aa20979920d4a909520900062899f04926d000102782673801957980826780008268880050209604c4677b67f8007b68000182679800826890008269380150209804aa677b67e0007b68e800826838019a898000826780008268880050209a04b2678269e800d49808956c000182c938889a80007b6ae80082cbdaab08826b9000da9b087bc88268e000d487078268f800daa80782689800da98077b67f800826780008268880050209c044167330c8269e80093989397826bd00095b9ff7b69c8008eb99599ff7b69c0008260f000017b68e0007b6ce8004926d8008268f80098893f826c000197ca01d49a03978901980b3fd49b0b7b6bf000826ac000d33a087b68f800d83a088269c800d8b9028269f800db98028268e000978801987b3fd4b8087b68e00098cb3f977701d47b0b97070182682801988c3fd4c7077b670001978c018267200198783fd4c808977c018267300198703fd40c0c9777018269e800d497077b67300186c77b67200186877b672801826700018670c9ba07d82707d8ba088264e000c94a0cc98c0cc97c0c99c23f8267d000d272078269f000c979087b68f800d87908c983077b6700019438c98b07d88b08c98408826a3801826c1801d4ca09889901826b0801d89b03c99b0b88a901c99c0c82691001c9390995aaff7b6c18017b691001d4c9097b6a3801d4ba0ad4a909842c017b6b08015209d1fe8269280198973f970801d48707826a200198a83f979901d49808826b300198b93f97aa0197bb01d4bc02826bd800d4b909d4a900d48b04d47b03017b6300017b6408017b6010017b6218019568b8107b820802826760958900027b97287b8010028267687b97307b8418028267707b97387b832002648b956700139568e0129569c012826a787bba400250209e04bc26330700105022a004796382c7607b67380182c7587b67300182699000989704826a800097a83cd4870782c85064bc7b682801826898005022a204f462826a88005022a404d86482c948027b692001d4a707da780b520b228267b8009777209877207b6710018267a8009777209877207b671801282e019568b838491840491838491830491828079567a0129568e0385020a604658a9567b810957900018298e8007b68f8008298f8007b68f0008297f0007b67e8000a0b8268e8006f88978920826af0006faa98aa20d4a909988820826af8006faa97ab20d4b80898aa20826bb8007aba107bb8087bb9826800019569b8387b9860826808017b9858826810017b9850826818017b98484819688e77fc089a787b98a0007b9898007b9890007b98880097b8209888209777237b681001d487079568003997882098882095694039979920d4890a8268a800978820988b2095682039978820d4b80c3308ff3309ff7b6b18010a028877017b670801956780125020a80444269567b8104927c0014927b801826808017b78a8016478956760124928b0013300aa043302d00628d459956740128268b0005020ac044b899569b810959b000182b7900082b8880082ba98007b6a0801977938988808d498087b68000197a838987708d487077b67f8000a0b8268f8006f88988920826a00016faa97ab20d4b909978820826b08016fbb97bb0898bb20d4b80898aa20826bb8007aba107bb9087bb89569b838826838017b98c000826830017b98b800826828017b98b000826820017b98a8004829c8008e77fc089a787b9800017b98f8007b98f0007b98e80097772382681001d48707956860399788209888209569a039979920d4890a95688039978820826b1801d4b80c3308ff3309ff0a028877017b671801956720125020ae0420259568b8104928600149285801826718017b87480195670012492850013300b0043302f20628b2589567b838492720014927180149271001647849280801049567e0119568c0395020b20412889567b81095790001829840956700017b788298387b78088298307b78108298287b78189567c0118268b0005020b404e1873302b6049568b81001958900018297187b67f8008297107b67f0008297087b67e8009567a0113308405020b8048685956bb81082b7000182b8f80082b9f00082bce800d49707d48c09d47909989920d48707977720d497075107470e009517e08477e07b6738016471826798003300ba040a063302bc0428bc585022bc04b95849290005959b00047bb8f8007bb7f0009568ff079588a1057bbae80033075020be044b868267109568ff079588b900958900047b97e0008267187b97d8008267207b97d000648a3307209568ff07958881058269287ba9c8045020c0041086826738817756173f118268384808403302c20428f85f5022c204f55f3300c4040a093302c604286f5b5022c6046c5b957761055020c804c986956cff0795ccb90082caa80482c7b00482c8b80482c9c004826b10017bcb6004826b18017bcb5804826b08017bcb5004826b00017bcb480495cb00047bb980007bb8787bb7709567ff07957741059568ff07958821059569ff07959901057bba685020ca04d717956aff0795aab90095ab000482b7a00082b8980082b9900082ba8800956bb83095bc00047bc7a0007bc898007bc990007bca880095684035826738015020cc049a869517e0847ce064c18268a0009587115022ce04de5dc88b0b64c87b6c38017bcb187bca107bc9087bc79567ff079577e1045020d004e985956bff0795bbb90082ba280482b7300482b8380482b94004826c10017bbce003826c18017bbcd803826c08017bbcd003826c00017bbcc8037bb9000495bc00037bc8f8007bc7f0009567ff079577c1049568ff079588a1049569ff07959981047bcae8005020d204f416956aff0795aab90095ab000482b72082b81882b91082ba08956bb83095bc00047bc7c0007bc8b8007bc9b0007bcaa80095686035826738015020d404bb859517e0847be07b6b300164b18268a000958712d88708826aa800c88a09d8a90ada880a8268b000c88a0ad88a08826cb800c8c8087bb8187bba107bb9087bb79567b8304927e0044927d8044927d0044927c80495670030837780050a119567b830957900048298c8007b6828018298d0007b6820018298d8007b68f8008297e0007b67f0009567ff0795776104826830015020d604aa84956bff0795bbb90082baa80382b7b00382b8b80382b9c003826cf0007bbc6003826cf8007bbc5803826c20017bbc5003826c28017bbc480395bc00037bc980007bc8787bc7709567ff07957741049568ff07958821049569ff07959901047bca685020d804b815956aff0795aab90095ab000382b7a00082b8980082b9900082ba8800956bb8307bb7000595b700047b78f8007b79f0007b7ae8009568a035826730015020da047b849517e08477e07b6730016471826798003300dc040a063302de042839555022de04365549294003959b00037bb8387bb7309568ff079588e1037bba2833075020e004cb828267109568ff079588b900958900037b97208267187b97188267207b9710648a3307209568ff079588c1038269287ba908035020e2049382826738817756173f118267384807403302e40428915c5022e4048e5c3300e6040a093302e8042870585022e8046d589577a1035020ea044c83956aff0795aab90082a7000395ab000282b8f00082b9e80082baf800956c000182cb10d3b70782cb08d3b808d4870782c818d3a80882cad3a909d49808d4870752072901826798003300ec040a063302ee04284c545022ee0449544929e002959b00027bb8d8007bb7d0009568ff07958881037bbac80033075020f004db819568ff079588b9004928c0024928b8024928a8020664893307209568ff07958861034929b0025020f204af819517e08477e07b6730016471826738817756173f118268384808403302f40428a15b5022f4049e5b3300f6040a093302f8042880575022f8047d57957741035020fa045c82956bff0795bbb90095bc000282c9880082c7900082c8980082caa0007bca607bc8587bc7509567ff07957721039568ff07958801037bc9485020fc04111b956aff0795aab90095ab000282b7800082b87882b97082ba68956bb83095bc00057bc7207bc8187bc9107bca089568c035826730015020fe045d829567ff079577e1028268380150200005d181956aff0795aab90095ab000282b74082b83082b92882ba38d48707859810d4a808d4870752075d956700308377e005330002050a01018268a000958713502204056159c8b808956bb83095bc00057bc74882c7307bc95082c9407bca5882ca387bc86082c8287bc980007bca787bc7707bc868956700369568203650200605ca813307b830502208057f574928a80501956740369568603650200a05ad81330782683033090a0e013308700202838833070133090a0e28f23308700202838833070133090a0e28e23308700202838833070133090a0e28d29568b8384928a003492898034928900349288803089567801c9568403c50200c05d6809568b8188087dc038288e003977720956b000182b938d4970782b930d49808956ab838492ac003492ab803492ab00395ac0003492ca8000882b9207bc9d00082b9287bc9c8007bc8e0007bc7d8009567603c9568803c50200e05f48033087002028388330733090a0e2844ff3308700202838833070133090a0e2833ff3308700202838833070133090a0e2822ff4920b8004920b0004920a80033021005140700000000717b484e01956860297b07c0003307502012052b7fff330214059568b828014928a0004928980049288800116489330704956840294929900050201605017fff82672801817756173f0c8268280148084001330701330924826820010a0e013308700202838833070133090a0e289cfe3308700202838833070133090a0e288bfe3308700202838833070133090a0e287afe3308700202838833070133090a0e2869fe3308700202838833070133090a0e2858fe3308700202838833070133090a0e2847fe3308700202838833070133090a0e2836fe3308700202838833070133090a0e2825fe3308700202838833070133090a0e2814fe82671801987720977720d497078268f800d4a808956ab840492ac002492ab802492ab002492aa8020795a900027b9cc8007b9bd0007b98e0007b97d800956760439568804350201805697fff33087002028388330733090a0e28b8fd3308700202838833070133090a0e28a7fd3308700202838833070133090a0e2896fd3308700202838833070133090a0e2885fd3308700202838833070133090a0e2874fd3308700202838833070133090a0e2863fd3308700202838833070133090a0e2852fd3308700202838833070133090a0e2841fd3308700202838833070133090a0e2830fd3308700202838833070133090a0e281ffd3308700202838833070133090a0e280efd3308700202838833070133090a0e28fdfc3308700202838833070133090a0e28ecfc9567b810491758491750491748647933021a05140700000000717b484e01956800117b9760330750201c05f37cff33021e059568b810014918404918384918281164893307049568e01049193050202005cd7cff8267d000817756173f0c8268d000480840013307013309248268a0000a0e0152471ca62e07d8029567b8304927800049177849177049176895670030837720010a11956ab8300182a77882a8800082a97082aa68d49808d4a707d48707510772033308700202838833070133090a0e2826fc3308700202838833070133090a0e2815fc3308700202838833070133090a0e2804fc3308700202838833070133090a0e28f3fb3308700202838833070133090a0e28e2fb9568b840492800014928f8004928f0004928e800019567a04182683801502022055f7dff33087002028388330733090a0e28aefb3308700202838833070133090a0e289dfb3308700202838833070133090a0e288cfb9568b83849282005492818054928100549280805029567c03d8268380150202405097dff33087002028388330733090a0e2858fb3308700202838833070133090a0e2847fb3308700202838833070133090a0e2836fb3308700202838833070133090a0e2825fb3308700202838833070133090a0e2814fb3308700202838833070133090a0e2803fb3308700202838833070133090a0e28f2fa3308700202838833070133090a0e28e1fa3308700202838833070133090a0e28d0fa3308700202838833070133090a0e28bffa3308700202838833070133090a0e28aefa956700408377e0003308040a04956bb84082b72882b83082b93882ba40491b60491b58491b50491b487bba80007bb9787bb8707bb7689567004195682041502026050a7cff33078268300133090a0e285cfa3308700202838833070133090a0e284bfa3308700202838833070133090a0e283afa3308700202838833070133090a0e2829fa3308700202838833070133090a0e2818fa3308700202838833070133090a0e2807fa3308700202838833070133090a0e28f6f93308700202838833070133090a0e28e5f93308700202838833070133090a0e28d4f93308700202838833070133090a0e28c3f93308700202838833070133090a0e28b2f93308700202838833070133090a0e28a1f952473c8bc3166c9567b8304927a0014927980149279001492788019567003083774002330028050a113307003033022a05280c533307003050222a05055382b7980082b8a00082b9900082ba8800d49808d4a707d4870751079c003308700202838833070133090a0e2835f99569b8305247936db133574929e0054929d8054929d0054929c805956700308377800633002c050a11956ab83095ab000533022e05282954956ab83095ab000550222e051e54510710023308700202838833070133090a0e28daf83308700202838833070133090a0e28c9f8826738018177561703303308700202838833070133090a0e28aef8502230052b50ac78e4013308700202838833070133090a0e2893f89567b8304927a0004927980049279000492788009567600195684031502032059779ff956b000182b96082b76882b87082ba787bba587bb8507bb74833078000956840017bb940502034057a78ff39085c020256289f001820035c0202a00033077002028378800028c7c733077002028378800028bbc73302ff1403ffffffff000000008269f0009898088267f800977a38d4a808826ae80098aa0864b4979b38d4ba0a987b08d22a077b67f800d228077b67f000d23b077b67e8008267200164497b97c800826728017b97d000826730017b97d80095688011826738017b97e00064c77b6c380150203605d977ff956bb810492b80008267e8007bb7788267f0007bb7708267f8007bb768826700017bb7a000826708017bb79800826710017bb790003a07c800023a08d000023a09d80002826a18017bba88007bb7c0007bb8b8007bb9b00064bc3a07e0000233082095696011956a4011956b20117bc7a8008267380150203805dd79ff50203a0576459568b838492840014928380149283001492828010949286001492858014928500149284801019567e0399568003a50203c058d78ff33078268a00033090a0e28dff68267380181775617036a3308700202838833070133090a0e28c4f6956700308377600233080433003e050a0433070030330240052847503307003050224005405082b7c00082b8b80082b9a80082bab000d4780b889c0294ac94bc520ce9003308700202838833070133090a0e286ff69568b830492800064928f8054928f0054928e805099567c0109568a036502042057277ff956bb81082b72082b81082b90882ba1850224405ab4f490b491bf87bb7e89567a010491bf0330046053302b00528bc479568b830492820064928180649281006492808060949284006492838064928300649282806029567c0369568e036502048058777ff50204a05ab169568b83049286006492858064928500649284806094928800649287806492870064928680601956700379568203750204c054c77ff33087002028388330733090a0e289bf5d49808d4a707d487078e777b6738019568b8304928e0014928d8014928d0014928c80107956780039568803250204e058f76ff826788037b673001826780037b672801806790037b67200133077002037b6718018377330050050a06826918013302520528e0478269180150225205d94782692001d3980882692801d39707d4870782683001d3a808d4870788770149267803492670037b67600395676003492668033300540533026205288e469567b830492700024927f8014927f0014927e80108956740039568a03250205605f075ff956b000382b74082b84882b95882ba50826b380197bb20140cffffffff00ffffffd2ca0ad4ba0a956bb830492b2002492b1802492b1002492b08020895bc00027bc9407bc8307bc7287bca389567c0329568e032502058050f76ff33087002028388330733090a0e285ef4951120ff7b10d8007b15d0007b16c8009515e0008411f0829a187b1a70829b10829208828c18828410828308828682987b1718330a330933007b167b16787b130864367b1410644364647b1c207b1c68330c0188a7109497d40c069467510710017b14607b1c307b10407b19487b1a50d4b8077b1238821970d49209d497079877207b1b58d4b909979920d497075207160164369517a0007b182850205a05b772ff821778d46709821868821a60d4a808d48909989920d46808978820d498085208e400821ab0008218a8008219a00097aa2098aa20492198007b1980007b188800951880007b1a90007b177850205c059f73ff821778957220d87209821760c89704d8740ada990ac8a603d86309821768c897077b1768821728957820d8780b821638c8b60cd86c06dabb06821758c8670bd87b06821770c867077b1770821a5095aa0188a601821948c86909d49a06886601821730c87606d87607821040c870007b127864c2646c28e9fe821895870002d88708821a0850225e05f649821810c88a0ad88a08821b20c8b808821b187bb77bb9087bba107bb81850226005ed4732000051070b50226405e14732009517a000330840502066059b71ff502268050e4452074f50226a05ec4450206c05bf72ff50226e05cc4351073950227005bb4550207205a972ff50227405b44451072350227605c64c49114009951840491148502078058972ff50227a051f44520704008216188367443a080001024911287b1838140800000000000000727b183095182049112050207c055472ff330864646750207e05ae75ff502280059b49330082050a0e01951170ff7b1088007b1580007b1678951590008411f064728289827408828c088273959a1fd89a00c80c0984aae07b1308c8a303d8a30bc8490ac8ba0ad39a06d89a07da6b07822b18d8c90c828610822210828818da000cc86c0cd86c06c82c09c89707d8c90cd89709c8b808c86808c8c808c8980c8ec88e79dbc809d4c7088ea6db8906520658821808d88308d34a09d84a06da9806d82708d3bc09d8bc0bda980bd32708d49808da860b520b317b13507b1a587b17603307409518507b1c68502084057371ff955170ff8210880082158000821678951190003200502286056548502088055171ff4911284911204911104133070495181049111850208a053771ff39085c020256183f0b20035c020240013308700202838833070133092433008c050a0e33028e0528794250228e05764251070b50229005fa4532009517a00033084050209205b46fff50229405274252074f50229605054350209805d870ff50229a05e54151073950229c05d44350209e05c270ff5022a005cd425107235022a205df4a4911400f9518404911485020a405a270ff5022a6053842520704008216188367443a080801023a091001027b18384911287b19309518204911205020a8057270ff33086464675020aa05cc73ff5022ac05b9473300ae050a0e3302b00528bf415022b005bc4151070b5022b205404532009517a0003308405020b405fa6eff5022b6056d4152074f5022b8054b425020ba051e70ff5022bc052b415107395022be051a435020c0050870ff5022c20513425107235022c405254a4911401f9518404911485020c605e86fff5022c8057e41520704008216188367443a081801027b18383a082001023a092801023a0a3001027b18307b19289518207b1a205020ca05ae6fff33086464675020cc050873ff5022ce05f5463300d0050a0e01951140ff7b10b8007b15b0007b16a8009515c0008411f082908282828a087b1758829b08d60207ca0a06c86707d86706d60a0cc86c0ccab206c867077b1750d86707d6b206c86707c8c707d8c70cd6ba06c86c0ccaba06c867077b1748d86706c86c0c7b1c40829310829918828418828710ca3a0c7b1920ca2906c8c6087b1b28ca7b06ca0409c86909ca2306ca070cc8c6067b1330d6230b7b1b10c88b0bd60703c89308d8c6097b18187b1b08c8b80cc8c9097b1438d44a0cd47208d4c808821b40821c48c8c606d8c604c8b909c8490951088f00d3b9087b1948821948d8b909db89047b1640821810821908d889068ea98218208e8cd2c909d6280c8eccd4c909643b821330d63a0a8eaad4a909d469097b1910821918d8b909821b288eba8216388e6cd2ca0ad6060c8eccd4ca0ad67b0c8eccd4ca0ad4a909d4830ad4670c8216408eaa8eccd2ca0ad4a909821810d49808821948d4480784770152072dca02078218587b878217507b87087b86107b8918955140ff8210b8008215b0008216a8009511c00032004921900049218800492180003302d205140700000000717b484e01951880007b17980033075020d405de6dff491178491170491160113307049518604911685020d605c46dff39085c020256183f0b20035c02024001330870020283883307013309243300d8050a0e019511907b10687b15607b16589515708411f0828a187b1a08829b1882847b14828a08829608829c828310829210c8a609c8c404d8c40cc8c909d36900d86906da0c06c83208821c08c8bc0cd8280bc8cb0bc8680cd88c08c88b00d3a90bd8a90a8218d88406dbba06d83c02821808d3800bd8800adab20ad33c08d4b808db8a0652061f7b747b79087b7c107b701895519082106882156082165895117032005022da0508445020dc05f46cff491128491120491110113307049518104911185020de05da6cff39085c020256183f0b20035c02024001330870020283883307013309243300e0050a0e3302e205281c3e5022e205193e51070b5022e4059d4132009517a0003308405020e605576bff5022e805ca3d52074f5022ea05a83e5020ec057b6cff5022ee05883d5107395022f005773f5020f205656cff5022f405703e5107235022f6058246491140199518404911485020f805456cff5022fa05db3d520704008216188367443a083801023a094001023a0a4801027b18387b19307b1a28140900000000000000729518207b19205020fc05066cff33086464675020fe05606fff502200064d43330002060a0e019511907b10687b15607b16589515708411f082a6829b7b1b82a408829c0882ab1082921082a318829918d3c400d8c40c7b1608821ad8a60adb0c0ad3930cd89309d82b06dbc906d32b09d4c909db960a510a75828218828010828c08828898b63b973305d4630398493b97bb05d4b909821a0898ab3b974405d4b40b97aa05c8a808d8a80ac8bc0cc8ac0cd3bc06d8bc0bda6a0bc89000c80b0bd80b0ad89009c83202c82909c8a9097b787b7c087b7b107b79189551908210688215608216589511703200502204062f42502006061b6bff4911284911204911103233070495181049111850200806016bff39085c020256183f0b20035c020240013308700202838833070133092433000a060a0e33020c0628433c50220c06403c51070b50220e06c43f32009517a000330840502010067e69ff50221206f13b52074f50221406cf3c50201606a26aff50221806af3b51073950221a069e3d50201c068c6aff50221e06973c51072350222006a94449114012951840491148502022066c6aff50222406023c520704008216188367443a085001023a095801027b18387b1930140800000000000078657b182895182049112050202606326aff3308646467502028068c6dff50222a06794133002c060a0e019511a07b10587b15507b16489515608411f082941882961082938299088e428e6cdb420c8e92883a1085aa01db920ad4460bdbbc0a520a59828a828218828c08828010c83a0ad83a0bc89c0cc8bc0cd39c08d89c09da8b09c86000c80909d80908d8600bc84202c82b0bc8b808330b4917384917304917284917207b7a7b7c087b79107b781850222e06ee433200502230064a40502032067e69ff4911184911104901323307046418491108502034066669ff39085c020256183f0b20035c0202400133087002028388330701330924330036060a0e3302380628a83a50223806a53a51070b50223a06293e32009517a00033084050203c06e367ff50223e06563a52075550224006343b502042060769ff50224406143a51073f50224606033c50204806f168ff50224a06fc3a5107298216188367244911584911504911401595184049114850204c06cb68ff50224e06613a520704008216188367443a086001023a096801027b18387b1930140800000064657463657b1828951820491120502050069168ff330864646750205206eb6bff50225406d83f330056060a0e01951100ff7b10f8007b15f0007b16e800951500018411e0809a107b1a70829a7b1a508299087b19788289187b19608289107b195882860882887b1868827818827910827a0882777b18b8007b19b0007b1aa8007b17a000951780009518a000502058060469ff821790007b1738821798007b1730821780007b1728821788007b1720821c6898c73d976803d4870798663d821958979803d4680898993d821a6097aa03d4a90997cc037b1c5850225a06203b7b1b4883c9807b1918821650646782187850205c0627437b177b18088217688a79037b1960821770330850205e060e437b17407b18688218588d8980007b1910646782187850206006cd42821940d49707821a5888a680008219da6907821970daa9077b1770821768d48707821808da680793a77b176882175082187882196050206206b84264797b164093699368821a4882176894a77b176882177094a77b177094a87b187894a97b19501407ffffffff000000007b17083308821960502064067a4264767b183307ff3308ff8219105020660641427b1810d476063307ff3308ff821918502068065242821940db9607821b58821a08daba077b17188217821610d47606da980693b63307ff3308ff82196050206a062442821940939793988569ff821a1885aaff8588ff8577ff821b4894baff94b9ff94b7ff94b8ff821b20d2b808821b28d2b707821b30d2b909821b38d2ba0a821b70d4ba0a821b68d4b909821b50d4b707821b78d4b8087b18c8007b17c0007b19d8007b1ad0009517a0009518c00050206c06a467ff955100ff8210f8008215f0008216e8009511000132008289828218828a08828c10959b0188b901c8a909d49b0a88aa01c8ca0ad8ca0cc82c0cd4c902d4ab08d428085108107b7b7b79087b7a107b7c1832009511b07b10487b15409515508411f050226e06963c50207006ca65ff491118491110490111330704641849110850207206b265ff39085c020256183f0b20035c0202400133087002028388330701330924330074060a0e3302760628f43650227606f13651070b50227806753a32009517a00033084050207a062f64ff50227c06a23652074f50227e068037502080065365ff502282066036510739502284064f38502086063d65ff50228806483751072350228a065a3f4911401195184049114850208c061d65ff50228e06b336520704008216188367443a087001023a097801027b18387b1930140800000000000000657b182895182049112050209006e364ff3308646467502092063d68ff502294062a3c330096060a0e33029806283036502298062d3651070b50229a06b13932009517a00033084050209c066b63ff50229e06de3552074f5022a006bc365020a2068f64ff5022a4069c355107395022a6068b375020a8067964ff5022aa0684365107235022ac06963e491148951840491140195020ae065964ff5022b006ef35520704008216188367443a088001023a098801023a0a9001027b18387b19307b1a28140900000000000000649518207b19205020b2061a64ff33086464675020b4067467ff5022b606613b3300b8060a0e01951160ff7b1098007b1590007b1688009515a0008411e08289107b191882860882887b1810827818827910827a0882777b18587b19507b1a487b17409517209518405020ba06aa64ff8217387c1820821930821c1098ca38976b08d4ba0a986638821b1897bb08d46b0b97cc0897bb1898bb18989928979928d4b909d4c8087b1a687b17787b18607b19709517409518605020bc06d564ff955160ff8210980082159000821688009511a00032009511807b10787b15707b1668951580008411f0829b828a829608828308829410828c10829918828818d363027b1608d863067b1b187b1a10d8ba0a7b1ada2a06d3980ad89800d84c02daa200d34c0bd4ba0adaa600520046c94c0ac99808c92808d86a09c99808c96a0a821908c99309821bc9b909821b18821c10c9bc0b7b7b7b79087b7a107b78189551808210788215708216689511800032004911504911484911403302be06140700000000717b484e019518407b175833075020c0069162ff491138491130491120113307049518204911285020c2067762ff39085c020256183f0b20035c02024001330870020283883307013309243300c4060a0e01951120ff7b10d8007b15d0007b16c8009515e0008411e064760a0d01510728017b16080a0d95791f7b1710d879088497e09579207b1918d87907c878097b1920d88906da77069517a0003308405020c606c560ff8217b8007b17388219b000821aa8007b1a30821ba0007b1b284911788218187b18607b1798007b1990007b1a88007b1b80008217207b1768951780009518607b167064965020c80680ef821728821938821830d48909d46708d498089888207b1620d46909979920d49808520884004911584911504911489518408219107b19405020ca067761ff0a0d01821a28821938821820d498081409e0ffffff00000000d89a09821b3094b99489510944647698772052073c83a72083687b181864685020cc069e64ff7a16c00083778318c00033090a0c01821b288117c000821608821838821920821a30821c18aec70e00330a33093308330b60017b6b7b6a087b69107b68185022ce06f035320051070b5022d206e53532009517a0003308405020d4069f5fff5022d606123252074f5022d806f0325020da06c360ff5022dc06d0315107395022de06bf335020e006ad60ff5022e206b8325107235022e406ca3a491140139518404911485020e6068d60ff5022e8062332520704008216188367443a089801023a09a001027b18387b19301408000000000064656c7b18289518204911205020ea065360ff33086464675020ec06ad63ff5022ee069a373300f0060a0e3302f20628a0315022f2069d3151070b5022f406213532009517a0003308405020f606db5eff5022f8064e315207555022fa062c325020fc06ff5fff5022fe060c3151073f50220007fb3250200207e95fff50220407f4315107298216188367244911584911504911401595184049114850200607c35fff502208075931520704008216188367443a08a801023a09b001027b18387b1930140800000064656c69617b182895182049112050200a07895fff330864646750200c07e362ff50220e07d036330010070a0e01951108f8951700077b70f0007b75e8007b76e0009515f807951100f8951138fb8411e06416956818114928a00049289800492890004928880004956780119568a011502012071960ff956b181182b7800082b87882b97082ba687b67687bb7607b68607bb8587b69587bb950956860117b6a507bba48330750201407f15eff956818114918404918384918280364893307209568401149193050201607d05eff33095c020239075c020256173f0b20035c020240017b69389517e08479e07b697801649133077002027b6730837783993308407b67400a09826a780182a782a80882a91082aa186f7b7b6b88006f8c7b6c80006f997b69786fa77b6770957211d87208c88907d8970ada880ac8ca0ad8ca08c8b808956b18117bb2a8007bb7b0007bbab8007bb8c000956720119568c011502018072a5fff956b181182b72082b81082b90882ba18d48707859810d4a808d48707887701490b491bf87bb7e895670011491bf033001a0733027606286b2f9517e08478e06481826770957a15d87a07826978c8790bd89b09da770982678000c87909d87907826c8800c8c7077b67107b87187b69187b89107b6b207b8b087b6a287b8a9567e0107b684850201c079e5eff9568ff079588f9007c87e8078877014928e0074928d8077b87c8079567c0104928d00733001e073302980628ea2e9517e08478e06481826970959713d8970b826a78c8ba09d8a90adabb0a826b8000c8ba0ad8ba0b826c8800c8cb0b7b8b187b8a107b89087b879567a0107b680850202007295eff9567ff079577f900957900078298c0007b6870018298b8007b6878018298b0007b6868018297a8007b676001956700108377e0010a010182636001826c680182627001956a181182a7d00082a8c80082a4d80082aae000d3c70bd87c07d88308dbb708d32a07d8a209826a7801d84a0bdb790bd3a409d49707db7b08520806283b2595c701883801ff8588019478d22a079577019478510806283d279537ff007b675801d83707c87c087b686001d8c808da7708c8a8087b686801d8a807c827077b67780195670010837700020a0101956b181182b7e80082b8f00082b90001826a5801d87a07826c6001d3c80ad88c0882bbf800daa708826a7801d3a907d89a09826c6801d8bc0ada7a09d3cb0ad4a707db790851080628f2259569ff079599f900826750959800067b87e8008267587b87f0008267607b87f8009568ff079588e1078267687b970007330750202207e35bff9568ff079588f9005022240747369568ff079588c1074929d00650202607c25bff826938819756173f08480940019517e08477e07b677801647183793308408267400a09826878018287187b6770018287107b6768018287087b67600182877b6778019567ff079577a10733084050202807345aff9569ff079599f9008298c0067b681001829ab8067b6a0801829bb0067b6b1801829ca8067b6c00014929800649297806492970064929680620027b98a0067b9a98067b9b90069567ff07957781079568ff07958861077b9c880650202a07d9e8956b000182b782b81082b918d4890982ba0850222c073035510806289125956aff0795aaf900492a6006492a5806492a50069568ff0795884107492a48061050202e07c85aff956b000182b982b71082b808d487071408e0ffffff00000000d8890882ba1894a89478520806284025826778016f777b67a800826860016f887b68a000826868016f887b689800826870016f887b68900039075802027b6778011407ffffffff000000007b6758018397203308000250203007b85dff837733080002826978010a03492648014926380149264001492650013303330c3304330b01956a18118ec7883810858801dbc7088e478eb9dab709d4b407da7809520948049517e08477e07b67700164717b6be0007b6bd8037b64d8007b64d0037b6ce8007b6cc8037b63f0007b63c0038267a8007b67f8038267a0007b67f003826798007b67e803956700049568e0039569c003826a90007b6ae003502032079cef956b000482b7387b67280182b7307b67200182b7287b67f80082b7207b67780182b71082b81882b982ba08826b70017bb7107bb8187bb97bba0864b89567a003502034075a5aff956900038297a0007b6760018297a8007b6730018297b0007b6770018298b8007b6868018264780198493d826af80097ac03d49c0398aa3d826c200197c903d4a90298c93d826a280197aa03d4a9099744037b6428018e3a884b000185bc01db3a0c8e9b8e2adb9b0ad49209db9a0c7b6c2001834980502036073e347b67d0007b68f800826778018a79037b6978018267600182683001502038071d347b67c0007b68c800826828018d898000826770018268680150203a0725347b67b0007b68b80082677001826868018269780150203c07e53382682001520899028268c0008269b000d49808826c280188c98000826ad000da9a08826a6001dbc80a8268c800826bb800d4b808826bf800da9b08826b3001dbc80b939784b9ff84a8ff82625801d22707956b00017bb7307bb820d487077bb928d497078264180182ba5051073202330b330c492670014926780101826248017b6b6801d82b07826b3801d3bc087b6c6001d8bc09da8709826c400182677001d8c70082687801d3a803d8a80ada300ad3c707d43707da790a510aee00956b000182b7687b67800282b77b67a00282b7607b6788027b64a80282b7707b67900282b7087b67b00282b7787b6798029567c0029568a0029569800282ba107b6ab80250203e071124956b000282b7d80082b9d00082bac80082b8c00050224007ce2d510706280d2295676002502042072756ff956a000282a76082a87082a9688477ff82625801d22808826b3001d3b808826b2001d3b707d487078498ff82692801d39808d48707826b680195bb0188b801826c6001c88c0cd4cb0888880182697001c89808d89809826a7801c89a0a956900017b9a787b987082641801829a505207dcfe28f9007b624003826700017b6760037b6b48037b6468037b6c5003826708017b677003826750017b675803956780039568600395694003826a10017b6a78037b6248017b6c40017b6b3801502044072323956b000382b8980082b9900082ba880082b78000d4a808d4970ad48a0a98aa20d49808978820d4a80851080628102149263803826820017b682003826828017b68280395682003826930017b693003502046074856ff82675001956a00027ba7f800826740017ba7f000826738017ba7e800956700039568e002826948017ba9e00050204807faef95680003828718956900017b97508287107b97408287087b973882877b9748018263f000953301883701826ce800c87c0cd4c3078877018268d800c88707d88708826be000c88b0b6474289ffb492a2001492a1801492a1001492a0801029567ff07957721079568201250204a079756ff956aff0795aaf90095a8000682874082a22806828938828a3082685001d3780bd8780882674001d8970cdbb80c82683801d3a803d8a80a82684801d82808db3a08d39707d4b707db7c085108040b9567ff079577610233084050204c070b54ff9569ff079599f900829780017b677001829878017b686801829a70017b6a7801829b68017b6b484929400149293801492930014929280140959c00017bc7607bc8587bca509567ff07957741029568ff07958821027bcb4850204e07b2e2826748956b000182b87082b978d4890982ba6850225007082f51080628691f956aff0795aaf900492a2001492a1801492a10019568ff0795880102492a08011250205207a054ff826948956b000182b77082b868d487071408e0ffffff00000000d8890882ba7894a8947852080628171f8397203a09e801023a08f00102956aff0795aaf900492ae8007ba900017ba8f800140900000000000073729568ff079588e1017ba9f0007b6740502054073554ff8267689569ff079599f9007b97e0008267607b97d8008267587b97d0009568ff079588c1018267507b97c8003307502056070054ff9568ff079588f9004928c0004928b8004928a8000364893307209568ff079588a1014929b00050205807d353ff330840330750205a072d57ff9518e08488e07b6878016481837783893308400a09956c000182ca7882a81082a71833023303330433006f886f779579107bc7387b69c800d87907c878097bc8407b69c000d88908da770882a70882a9956a801297aa2098aa20956bc01297bb20d4ba0a7b6a98006f996f7a330b700203c8a8087bca287b68b800d8a8077bc930c897077b67b0007b6b900097b7209877207b6788008267309777209878209567a0129777207b688000d487077b6778491670fc08018e37882810858801db37088e478e09da0709d40407da78099517e0847ce064c17b6c48015109062891117b627801956700107b7220f882673801956800107b8740f87b637001956700107b7328f882674001956800107b8748f87b646001956700107b7430f882672801956800107b8750f87b606801956700107b7038f89567ff079577619568ff079588419569ff07959921826a3001956b00107bba58f850205c0759e895670010827798f87b67200195670010827790f87b67180195670010827788f87b67100195670010827780f87b67500195670010827770f895680010828878f895690010829960f8956a001082aa68f8826b48017bb7107bb8187bb97bba0864b89567ff0795770150205e07ef52ff95670010827700f87b67080195670010827708f87b67000195670010827710f87b67f80095670010827718f87b67f000826c500198c73d82691001979803d4870798983d826a180197a903d4980898a93d826a200197aa03d4a90997cc037b6c480150226007ef247b6b200183c9803307ff3308ff50206207fa2c7b6710017b681801826750018a79037b69500182675801330850206407db2c7b67e0007b68e800826848018d8980003307ff3308ff50206607992c7b67d0007b68d8003307ff3308ff8269500150206807a72c826920015209a7068269e000826ad000d4a90982624801882a8000826b1001daab09826be800826cd800d4cb0b826c1801daac0b826c5801da2c09932b93a793a8826af000d2ba0a826bf800d2b909826b0001d2b808826b0801d2b707d49707d4a808d487075107450695671811492740014927380149273001492728019567e0079568401250206a079451ff8267e0077b6700018267e8077b67f8008267f0077b67f0008267f8077b67e80050226c07d7297b677807826760017b677007826770017b676807826778017b676007826730017b679807826728017b679007826740017b6788079567a0079568800795696007826a38017b6a800750206e071be68267d8077b6710018267d0077b67e0008267c8077b67d8008267c0077b6708018267b0078268b8078269a007826aa80750227007462a9567400750207207df50ff826740077b674801826748077b675001826750077b67200182685807502274071025d4a90298c93d826a100197aa03d4a9099744037b6410018e3a884b000185bc01db3a0c8e9b8e2adb9b0ad49209db9a0c7b6ce00083498050207607e02a502278073f2950207a07d42a7b67a0007b68a80050227c07472750207e07e62a502280073e2350208207b42a502284076e24492638077b6730077b682807956820077b6920073307502086073f4fff8267b000956a00077ba7188267b8007ba7108267c0007ba708330720956800078269c8007ba950208807124fff330840330750208a076c52ff50228c07d42833008e070a093302900728242550229007212564b89567e00650209207d24fff8267e0068268e8068269f006826af8067b6a98067b6990067b6888067b6780068267e8007b67b8068267f0007b67b0068267f8007b67a8069567c0069568a00695698006826a00017b6aa00650209407ffde8267c0067b6700018267c8067b67f8008267d0067b67f0008267d8067b67e80050229607c3277b671806826760017b671006826770017b670806826778017b670006826730017b673806826728017b673006826740017b672806956740069568200695690006826a38017b6a20065020980707e4956b000682b7787b67100182b7707b67e00082b7687b67d80082b7607b67080182b75082b85882b94082ba4850229a0736289567e00550209c07cf4eff8267e0057b6748018267e8057b6750018267f0057b6720018268f80550229e070023d4a90298c93d826a100197aa03d4a9099744037b6410018e3a884b000185bc01db3a0c8e9b8e2adb9b0ad49209db9a0c7b6ce0008349805020a007d0285022a2072f275020a407c4287b67a0007b68a8005022a60737255020a807d6285022aa072e215020ac07a4285022ae075e224926d8057b67d0057b68c8059568c0057b69c00533075020b0072f4dff8267b0007b67b8058267b8007b67b0058267c0007b67a8053307209568a0058269c8007b69a0055020b207014dff33084033075020b4075b50ff5022b607c3263300b8070a093302ba072813235022ba07102395671811492760014927580149275001492748019568601264b75020bc07274eff5022be0710267b673805826760017b673005826770017b672805826778017b672005826730017b675805826728017b675005826740017b674805956760059568400595692005826a38017b6a40055020c00754e2826798057b671001826790057b67e000826788057b67d800826780057b670801826770058268780582696005826a68055022c2077f26956700055020c407184dff9569000582977b6750018297087b6748018297107b6720018298185022c6074a21d4a90298c93d826a100197aa03d4a9099744037b6410018e3a884b000185bc01db3a0c8e9b8e2adb9b0ad49209db9a0c7b6ce0008349805020c8071a277b67d8007b68d000826708018a79037b69080182675001826848015020ca07f9267b67a8007b68a0005022cc076c235020ce070b27826aa000d48a0a82691001889b80007b6ba0008268d000dab80a82684801da980a7b6a48018268a800d478088267d800dab70882675001da97087b6850018267200182681801826908015020d00795268268a00093877b6720010a0b8268e000826a5001948a826948019489826c2001948c6f989889206faa97ab20d4b9099788206fcb98bb20d4b80898aa20826b90007aba107bb9087bb8956918118268e800959a00017ba880008268f0007ba8788268f8007ba870826800017ba868826870d878079a787ba8c0007ba8b8007ba8b0007ba8a8004829880197772382688800d487073308ff3309ff826a9800826b8000826c780a027b6750019567e0045020d20741e8826750015107062807128262780195220188270182637001c87303d4320788770182686001c88707d8870882606801c8800064742849f79567ff07957701078268085020d407374bff9569ff079599f900959c000682c70882ca2082c81082cb18957701887901c89808d48709889901c8b909d8b90bc8ba0ad4a80bd4970cd4cb0b520b0628f414951be084bbe07b6b780164b1956b181195bc00027bca207bc9187bc8107bc708956700108377200395680010838800030a956718117c77070284770f9568ff079588f9004928a0054928980549289005958900057b978800826788007b97c000826780007b97b8008267787b97b000648b9567ff079577c1069568ff079588a1069569ff0795998106826a707bbaa8055020d6075ddf956aff0795aaf90082a700067b67500195ab000582b7f8007b67400182b7f0007b67380182b7e8007b67480182b7d80082b8e00082b9c80082bad000826b78017bb7107bb8187bb97bba0864b89567ff07957761065020d807064aff9568ff079588f900958900058297687b6770018297707b6778018297787b676801829880007b6860018264480198493d826a380197ac03d49c0398aa3d826c400197c903d4a90298c93d826a500197aa03d4a9099744037b6450018e3a884b000185bc01db3a0c8e9b8e2adb9b0ad49209db9a0c7b6c40018349805020da07e5237b6730017b683801826748018a79037b69480182677001826878015020dc07c4237b6720017b682801826850018d89800082676801826860015020de07cc23826a2001d47a0a82695001889b80007b6b200182673001dab70a82677001da970a7b6a700182672801d4780882673801dab70882677801da97087b6878018267680182686001826948015020e0075623826820019387826878018488ff826a700184a9ff826a5801d2a707826a400194a994a894a7956bff0795bbf900492b4005826a1095bc00057bca60826a187bca58826a207bca50826a287bca487bc7387bc8309567ff07957741069568ff07958821067bc9285020e2079de39517e08477e07b67780164719567ff07957701068268485020e4076c48ff9567ff079577f900957900058298087b687001829b107b6b6001829a187b6a6801829720848800ff868801826978017b9a107b97187b9b087b9864988267485020e607a048ff826a680197a73882696001989808d4870797983882697001989908d4980898a908848aff8477ff82685801d298089569ff079599f90049290005959b00047bb8f8007bb7f0009568ff079588e1057bbae80033075020e807d946ff9568ff079588f9005022ea0790219568ff079588c1054929d0045020ec07b846ff9517e08477e07b6778016471826938819756173f08480940019517e08477e07b677001647183793308408267403300ee070a09826a70013302f00728501b826a70015022f007491b826878017b8a187b89107b8b087b879567ff079577a1055020f2074447ff956bff0795bbf90095bc000482c9a80082c7b00082c8b80082cac0007bca80007bc8787bc7709567ff07957781059568ff07958861057bc9685020f407f7df956aff0795aaf90095ab000482b7a00082b8980082b9900082ba8800956b181195bc00027bc7407bc8387bc9307bca2895684013826778015020f6074047ff826870958712d88708826a785022f807a41c82688000c88a0ad88a08826b8800c8b808956b181195bc00027bc8607bca587bc9507bc7489567ff0795774105956860135020fa077c46ff9567ff079577f900957900048298607b68d0008298587b68c8008298507b68c0008298487b68b80095671811492780024927780249277002647849286802019567ff0795772105956880135020fc072a46ff956bff0795bbf90095bc000482c72882c83082c93882ca407bbae0037bb9d8037bb8d0037bb7c8038267d0007bc78267c80095bc00037bc7f8008267c0007bc7f0009567ff07957701059568ff079588e1049569ff079599c104826ab8007bcae8005020fe0741d59567ff079577f9008273200482741804827010047b60e800827908047b69f000502200084c189572ff9ab79accc99c099aa8f2007b6768018e7a64278e2cda2a0c7b68700150220208281e8262f000d4420bd4b808888801d4a8087b63e00094837b64d80094849480948252087c06826870018588ff00826b6801d4b808d4790ad4a80851086306826c700195ca017b6a780188a801c898087b685001d4a808888801c8b8087b684001d8b808c887077b6748019ac8ff007b6860019a8980008267f0008268e80050200408541f7b6768017b6830018267d8008268e0008269600150200608601f7b67380182673001d487077b673001826870019a897f8267f0008268e800502008083c1f82696001889a80007b6a7001826b3001dbab08826be000da9b087b68280182686801826b3801d4b808daa7088267d800da97087b6868018267f0008268e80050200a08f71e826b4001826c480182695001d49c0c826a7801d4ba0ad4ca0a956b000182b97093987bb86093977bb770510a2605492608011027826778019579808267d8008268e00050200c08881e7b6730017b6838018267f0008268e8008269780150200e086e1e7b6718017b682001826878019a8980008267d8008268e00050201008761e82692001d4980882697801889a80007b6a2001826b3801daab08826be800da9b087b68380182681801d4870782683001daa8078268f000da98077b6730018267d8008268e00050201208041e330c956a000182a9209398939782ab0895b9ff7ba98eb99599ff7b69f80082602801017b6818017b6c2001492610018268300198893f826c380197ca01d49a03978901980b3fd49b0b7b6b2801826af800d33a087b683001d83a0882690001d8b90282693001db980282681801978801987b3fd4b8087b68180198cb3f977701d47b0b97070182686801988c3fd4c7077b673801978c018267600198783fd4c808977c018267700198703fd40c0c97770182692001d497077b67700186c77b67600186877b676801826738018670c9ba07d82707d8ba0882641801c94a0cc98c0cc97c0c99c23f82670801d2720782692801c979087b683001d87908c983077b6738019438c98b07d88b08c98408826a7801826c5001d4ca09889901826b4001d89b03c99b0b88a901c99c0c82694801c9390995aaff7b6c50017b694801d4c9097b6a7801d4ba0ad4a909842c017b6b40015209d1fe28380382683801958715d88708826a400150221408271882682801c88a0ad88a08826b3001c8b8087bc77bc9087bca107bc8189567ff079577810164c8502016080a42ff956aff0795aaf90082a7880082a8900082a9a00082aa9800847700ff867701956b181195bc00017bc9e0007bcad8007bc8d0007bc7c8009568e01282674801502018083e42ff9567ff079577610133084050201a08863fff9569ff079599f900829a8000829b78829870829768956c00017bc8687bca58d48a0ad4b708d4a8089888207bcb60d4ba0a97aa20d4a8085208270b4919604919584919509568ff0795884101491948207b67700150201c086540ff9567ff079577210182684850201e08193fff956b000182b87082b75882ba60d47a0a140700000000010000007bb7301407e0ffffff00000000d8780782b96894977bba3894a75107bd0a956bff0795bbf90082b24082ba3882bc3082b9288387207b6978017bb9087b6c40017bbc107b6a50017bba189568ff07958801017b6248017bb22050202008d93fff956a000182a97082a7309577c0d8790782a868948782a838948751075d0a956c000182c77882ca50d4a70782c84882cb40d4b808d48707987720d4a808978820d487075207340a8397408268780150202208ea42ff7b6738018267408268780150202408d842ff6478826738018269780150202608a23dff8268780182677001c88707d8870982686801826b4001c8b808c89808d3b80ad8b80bdaa90b82695801826a4801c8a909826a6001826c5001c8ca0ac8ab0bd8ca0cd8ab0ac8c909c8a909d4b909140ac0ffffff000000007b6a6801d8a70a948a949a510a9d098377409568ff079588f90049084918f8956800104928e8f89568ff079588e100956900104929e0f850202808cc3eff8267780195771f1408e0ffffff01000000d2870782686801ae875209837840826750956900107b97a0f8826758956900107b97a8f83a07f801023a090002023a0a0802023a0b100202956c00107bc7d8f8956700107b79d0f8956700107b7ac8f8956700107b7bc0f8826760956900107b97b0f89569ff079599c100956aff0795aaa100826768956b00107bb7b8f88267700150202a080740ff288a05330c4926100182602801018269680198973f970801d48707826a600198a83f979901d49808826b700198b93f97aa0197bb01d4bc02826b1001d4b909d4a900d48b04d47b03017b6338017b6440017b6048017b6250019568ff079588f9007b8268038267b800958900037b9788007b8070038267c0007b9790007b8478038267c8007b9798007b838003648b9567ff079577a1049568ff07958881049569ff0795996104826ad0007bbaa00350202c0830da956bff0795bbf90095bc000382c7c0007b67780182c7b8007b6770018269e800989704826ad80097a83cd4870782c8b00064bc7b6868018268f00050222e086316826ae00050223008471882c9a8037b696001d4a707da780b520b2233077002039777209877207b6748018267309777209877207b675001285401956818114928a002492898024928900249288802089567ff07957741049568a01350203208cc3dff9567ff079577f900957900038298487b6830018298587b6828018297507b6720010a0b826820016f88978920826a28016faa98aa20d4a909988820826a30016faa330b70020397ac20d4c80898aa203d0a8002033e087802033e097002038268380195691811959a00027ba8c000826840017ba8b800826848017ba8b000826850017ba8a8004829c8028e77fc089a787b9800037ba8f8007ba8f0007ba8e80097bb2098bb209777237b6b4801d4b7079568c01397882098882095690014979920d4890a826830978820988b209568e013978820d4b80c3308ff3309ff7b6b50010a028877017b6740019567ff07957721045020340895d99567ff079577f9004927200349271803826840017b78080364789567ff079577010449281003330036083302d006281d0d9567ff079577e10382684850203808913cff9569ff079599f900959b000282b7f00082b8e80082baf8007b6a4001977938988808d498087b68380197a838987708d487077b6730010a0b826830016f88988920826a38016faa97ab20d4b909978820826b40016fbb97bb0898bb20d4b80898aa203d0a8002033e097802033e087002039569181182687801959a00037ba820826870017ba818826868017ba810826860017ba808482928038e77fc089a787ba8607ba8587ba8507ba84897772382684801d487079568201497882098882095696014979920d4890a95684014978820826b5001d4b80c3308ff3309ff0a028877017b6750019567ff079577c10350203a085ed89568ff079588f9004928c0024928b802826750017b87a8029567ff079577a1034928b00233003c083302f20628e80b95671811492780034927780349277003647849286803049567ff07957781039568801450203e08443bff9567ff079577f900957900028298a0007b683801829898007b684001829890007b684801829888007b6850019567ff079577610382684850204008063bff9568ff079588f90095890002829778956800017b87308297707b87288297687b87209567ff079577410333084050204208a638ff956aff0795aaf90095ab000282b76082b85882b95082bc48d49707d48c09d47909989920d48707977720d497075207510482692801989708826b300197b838d4870782682001988808979938d4980898b908330bffd2b8087b683001d2b7077b67280182675801d297077b6758018267600195a900027b9728826768017b9730826770017b97389568ff0795882103826778017b974064c77b6c7801502044083d39ff956bff0795bbf900492be0018267580195bc00017bc7d800826728017bc7d000826730017bc7c800826738017bb70002826740017bc7f800826748017bc7f0003a07c801023a08d001023a09d80102826a50017bcae80095ba00027ba7207ba8187ba91064bc3a07e001023308209569ff0795990103956aff0795aae102956bff0795bbc1027bc708028267780150204608293bff50204808c206955140eb9511f8079511d004951700078270f0008275e8008276e0009511f80732009567c00433084050204a083837ff956b000482b9d80082bad00082b7c80082b8c00050224c0858115207f6024926b0044926a8044926a004140700000000a079c3089568a0047b67b8048267780150204e082b38ff502250088e0c5107c3028267780183770449269804492690044926800420956880044926880450205208fe37ff956900018297609577dc50225408b50c51078c02826778018377244926780449267004492660040d956860044926680450205608c737ff1407bcffffff0000000095690001502258087a0c51075102826778018377443a08180202492648047b685804140800000064656c69617b685004956840044926400433008208287a37ff9567801033084050205a083536ff9567ff079577f900957c000782caa00082cb980082c9900082c88800956c00017bc9707bca68d4a9077bc878d4b808d478089888207bcb60d4b707977720d487075207cc019569ff079599f900492978074929700749296807140700000000a079c308956860107b9780078267780150205c08f936ff50225e085c0b51079101826778018377049569ff079599f90049296007492958074929480720956840104929500750206008c436ff956900018297609577dc502262087b0b51075201826778018377249569ff079599f900492940074929380749292807139568201049293007502064088536ff1407bcffffff000000009569000150226608380b51070f01826778018377443a08b801023a09c00102956aff0795aaf90095ab00077bb8207bb918140800000000006b636f7bb81095680010492a080733008208282a36ff9567400233084050206808e534ff956b000282b95882ba5082b74882b84050226a08090f5207a700492630024926280249262002140700000000a079c308956820027b6738028267780150206c08dc35ff50226e083f0a5107748267780183770449261802492610024926000220956800024926080250207008b035ff956900018297609577dc50227208670a51073e826778018377244926f8014926f0014926e0011c9568e0014926e801502074087a35ff1407bcffffff0000000095690001502276082d0a5207d400004926b0014926a8014926a00133027808140700000000717b484e019568a0017b67b801330750207a083535ff49269801492690014926800111330704956880014926880133008008281235ff9567ff079577f9004927b8014927b0014927a801647933027c08140700000000717b484e019568ff079588a1027b97c001330750207e08db34ff9568ff079588f9004928a00149289801492888011164893307049568ff07958881024929900150208008ae34ff826738817756173f0b826838480840013307013309248268400a0e01956b000182b7788377443a082002023a092802023a0a3002027bb8d8007bb9d0007bbac80014090000000072656e6e9568c0017bb9c000502082085434ff3308648267780150208408ac37ff50228608990b330088080a0e01828b18828a108283088eb28eacdbb20cd4ba028e39db2c09520948828898a93b97bb05d49b02983b3b97aa05d4ba0a988b3b973305d4b30b978805958c20d88c08c88b09d8b90bda880bc8ab0bd8ab08c828087b7c7b79087b7b107b781832009511b07b10487b15409515508411f050228a08890a50208c08bd33ff491118491110490141330704641849110850208e08a533ff39085c020256183f0b20035c0202400133087002028388330701330924330090080a0e01951140ff7b10b8007b15b0007b16a8009515c0008411f0828b10828a18828c0882887b1a287b1c20d4ac0cd4b80ad4ca0a98aa207b1b30d4cb0b97bb20d4ba0a7b1738520af2008297187b17108296108297087b170882977b17951780007b181850209208df31ff821210821c088213821788008218980082198000821a9000d3c70bd87c07d89309dbb709d8a607d3280bd88208dab708d36a0ad4ba0adaa9085108950098673b972805d4780298c83b976605d4680898393b97ca05d4a909973a05821718c87a0ad87a0b821c20c8c909c8b909d3c907d8c906da7b06821c30c8c808c88606d8860bd8c808821c28c82c07c88707c8b70795a820d8a80ac8a90bd89b09daaa09c86909d8690ac8a707821a387ba87bab087ba9107ba718955140ff8210b8008215b0008216a8009511c00032000049117049116849116033029408140700000000717b484e019518607b17783307502096082432ff49115849115049114032330704951840491148502098080a32ff39085c020256183f0b20035c020240013308700202838833070133092433009a080a0e01951140fd951700027b70b8007b75b0007b76a8009515c0028411e064164926d8014926d0014926c8014926c00104956780019568c00150209c089b32ff826980018267880182689001826a98017b6a58017b6850017b67480195676001956840017b69400150209e085fcb826a78017b6a20826970017b6928826868017b6830826760017b67387b6ab8017b69b0017b68a8017b67a0014926f8014926f0014926e8014926e001049567e0019568a0015020a0089b32ff8267207b6738018267287b6730018267307b672801956820018267387b67200133075020a2080631ff4926180149261001492600010333072095680001492608015020a408e730ff39085c020256183f0b20035c020240019517e08479e07b693864913307700202837783993308400a09826a3882a782a80882a91082aa186f777b67386f877b67306f977b67286fa77b6720836700020a0a826200028263080282641002826a1802826720957b14d87b0c826828c8c807d88708dacc08826930c89808d8980c826938c89c0c7b6b20027b6728027b6830027b6c38027b6a58027b6450027b6348027b62400295672002956840025020a6089f31ff49267802492670024926680249266002049567e000956860025020a8080531ff8267f8007b67208267f0007b67288267e8007b67308267e0007b6738492698024926900249268802492680029567c000956880025020aa08ca30ff8267d8007b67188267d0007b67108267c8007b67088267c0007b679567a0003308405020ac08752eff826ab8008268b0008269a8008267a0005022ae08fc065208920082687b6880008268087b6888008268107b689000956880008269187b6998007b67185020b0086c2fff8267207b67588267287b67508267307b67483a073802023a084002023a09480202826a387b6a407b67787b68707b69683a07500202330820956960956a407b67608267185020b208f630ff955140fd951700028270b8008275b0008276a8009511c00232000033075020b4089832ff3307015020b6088e32ff821908d46909140600000000010000001407fcffffff00000000821818d8780782181094877b1908949732028219b8008216b0008217a8008218a0007b17107b1908d497077b1818d46808d47808988820d46707977720d487073202951120ff7b10d8007b15d0007b16c8009515e0008411f0827810827918827a088277d4a909d48707d4970732021407bcffffff00000000d87607821810948782180894873202956b000182ba2882b93082b83882b7209577dcd87807949794a7320295690001829a381407bcffffff00000000d87a07829830948782982894873202140b00000000010000001407fcffffff00000000d8780782c930949794a732029567dc821818d87807821810948782180894873202492190004921880049218000140700000000a079c308951880007b17980082171832028269c80082970881981082996f77977a206f88988820d48a0a9877206f98978920d497079888209569ff079599b900320282970882988199106f77987a206f88978b20d4ba0a9777206f99989920d497079888203202826830019587207b67d800d8870982682801c898077b67d000d8870ada990a82673801c87a0a7b6ac800d87a0a82672001c8a7077b67200182641801954401884a0182631001c8a303d4340a88aa01826b0001c8ab07d8b70b826a0801c8ba0a8260f000950001880b0132028217188377044911784911704911602095186049116832029577dcd87807949794a73202d88708826a2001c88a09d8a90ada880a82683001c88a0ad88a08826b3801c8b808956bb83095bc000132028e7a88cb000185bb01db7a0b8e978e8adb970ad49808db8a0b32028269f80082970881981082996f77977a206f88988820d48a0a9877206f98978920d497079888209569b820320268376848958a40db370a68076898958840db070895878000d43409da970ad8870c949c8ecb88a7f300857901dac90b88b7013202826aa000d47a0a82691001889b80007b6ba0008267d000dab70a82674801da970a7b6a48018267a800d478088267d800dab70882675001da97087b68500182672001826818018269080132028269f80082970882988199106f77987a206f88978b20d4ba0a9777206f99989920d4970798882082690001d3980882690801d39707d4870782681001d3a808d487078877013202956a000182a76882a960d47909140700000000010000007ba7601407fcffffff0000000082a878d8780782a87094877ba9689497320282a71882a81082a90882aa6f776f8b6f996faa8268b8007b8a187b89107b8b087b87330700203202829878d8780782987094878298689487320282a71882a81082a90882aa6f776f8b6f996faa32029517e08479e07b69380164913202955120ff8210d8008215d0008216c8009511e00032028268a0009387826850018488ff826a480184a9ff826a5801d2a707826ae00094a994a894a7951ae084aae07b6a500164a132027b6818018264080198493d826ad80097ac03d49c0398aa3d826ce00097c903320214070000000001000000d38707d4a7077b6838019888208888017b6a300194a893783202826a300182a71882a81082a90882aa6f776f8b6f996faa826838017b8a187b89107b8b087b879567ff073202826a380182a71882a81082a90882aa6f777b6718016f877b6710016f977b6700016fa77b6708013202826a380182a782a80882a91082aa186f7b7b6b38016f8c7b6c30016f997b6920016fa77b6728013202826a280182a71882a81082a90882aa6f776f8b6f996faa826830017b8a187b89107b8b087b879567ff073202826a480182a71882a81082a90882aa6f776f886f996faa826b50017bba187bb9107bb8087bb73202d4a707d4980ad47a0a98aa20d49707977720d4a7073202d49707d48b09d47909989920d48707977720d497073202d4ba09d4c708d49808988820d4c909979920d498083202d8870882ca08c88a09d8a90ada880a82c818c88a0ad88a0882cb10c8b808956bb8383202491130491128491120140700000000717b484e9518207b173833073202c88a09d8a90ada880a3202c88a09d8a90ada880a82683001c88a0ad88a08826b3801c8b808956bb8383202491140491138491130140700000000717b484e9518307b174833073202c876084928a00549289805492890053307097b8788054928c0054928b8054928b0053202826738018177330823320283783307013309643202d49a0ad48709d4a909989920d4a808978820d4980832028377b8f8c87608958900048297c000956800017b87388297b8007b87308297b0007b87288297a8007b87203202826878826768826a60d47a0a140b00000000010000001407fcffffff00000000d87807826970949794a73202826810018d89800082672001826818013202d49b0bd48709d4b909989920d4b808978820d498083202956a000182a9381407bcffffff00000000d8790782a830948782a82894873202826a380182a71882a81082a90882aa6f776f886f996faa330b004032028377b800c86707827890077b683801827888077b683001807798077b6728013202d88708826a0801c88a09d8a90ada880a82681801c88a0ad88a08320295680001828b28828920828738d4b707828a30d4a908d47808988820d4a707977720d487073202956b000182b91882b73082b820d4870782ba28d4a908d47808988820d4a707977720d487073202d88708826aa800c88a09d8a90ada880a8268b000c88a0ad88a08826bb80032028269781407bcffffff00000000d87907826870948782686894873202956b00017bb7707bb968d497077bb878d4a808d478089888207bba60d4a707977720d48707320298880497993cd498088e7988887102858801db790898a7043202d48707859802d4a808d487078e7732026f776f886f996faa32029517e08477e07b67500164718267680132028377b800c8760a95ab000132028377b800c8760b95bc0002320214090000000001000000d38909d47909988a2088aa01947a939a3202888a000185aa018e98db980adbbc0ad4300832027b67d0007b68d800826708018a79037b690801826748018268500132029518e08488e07b684801648183778389330840320282970881981082996f77977a206f88988820d4a80832029517e08477e07b6730016471837933084082673032029517e08477e07b6728016471837933084082673032028216188367244911584911503202d4a708d49808988820d4a909979920d498083202826b50017bb7107bb8187bb97bba0864b832029551a082105882155082164895116032024928e0064928d8064928c80603648933072032028387043308b820c88609320282c71882c82082c91082ca08d49808d4a707d4870732029568000182872095a900047b97688287287b97708287307b977832024928e0044928d8044928c804056489330720320282970881981082996f7a97a7206f889888203202647183793308408267c800320282b7d80082b8e00082b9d00082bac800d49808d4a707d48707320297a93cd497078e7998aa048eabdaa90b32023307b838c8760b95bc00023202826bf800c8b808d4a70bd49808d48b0b98bb20d4a808978820d4b8083202849a40520a195109148d9a40cfa80ad09808d09707d4a707320032009597c0d0780733083200849a40520a195109148d9a40d0a70acf9707cf9808d4a808320032009598c0cf87083307320049922425494b2a252da9944c4949214225a952484992244992244992244992244992244992244992244992244992244992244992542529a524292949a84a494a922449922449922449922449922449922449922449929224294955494a922849699204490a4a9294a4245555494a92925492141111294992942449854a2925494a292549254544441111919224494a9224a5248924512a29292952a4489122458a1425292849128490309426a5219188888814494824121111912222a291a424119224918828121122a1d484244584888824254911212222499292881011409224159148448488081121a4944482a42449448488108924224224121111222244848824494484442222224444444244844848a42445244492828888002292240491881091842409221121220491101140442449922422212222828888002292240491881091842409221121220491102209201121094123224444880811112242244992244992484a5244844892904892442a4484448410c124854a294929a544111149922449121111111111222244844824128988880891482412091111114422918844422291082124222224221222219214c450aa50aa506a44248011858890881022184a4a92509514aa122244228a228a98400289400289400209082420904002092490400209249040020924908888886844922449024944a2111148229188888808222222224451444420124924898888888848922449248888884892244944440011111144920492444488880802492222440481242144444444222222a21181248a4444880822922449a420624428114108118c240a95284a52952449128944449288202222925249929294a4888888888808448c8888888848109148241211111111911411419224904444229188041189442422128118499224499224499224499200925452254992248a2480484550445111554b52499288248a888888888888444424021189442211514424a5082222222222229124924492084492404424a240444412884822109188444422124915894422491211894489882491249244222209444492244992442412894810111111111111118892888888884992248988888822220281248a44828888888888882022222208245144411145448488202249248914448c0825220891308008844a14118804111191482422a92a91141111111153a424222222824892244992441411114922924811042249249148491489444a44444414c5888824492089481123222222a22022242208911011089528229024491211111141444444442490241141444444442490241141444444442490241141444424492092248944449288202222221244920492888888888888082249020820a9241145221189082249524a1211111111412480009252928888888888209224a9248a888808220124a524124924492222228288a0288a88888888220249922489221111228288884422912022222290449248248944242222221a912449924012916844049248242222440491482412218a222202912492481225918888244992448288888824499244440011111141244920494484888820902422424410481242444444242222221a11119124092491202222222222224444440481248a2828a2881411111111110511211141888401442054a28840248888482412915495488a88888888295212111111412449922449229248248912892010492289444aa2482452222222a21181249044241a118124222222424410912445444441c48850228210229844a122118d92041249248924922822222222220a22464444448988208a4ca21251444420921441c48848922491202249024924922491149188888828222290489224812422d188082411111111511031229488204442442054a288402422222282084482888888401288444444441181888824491489881011444424888888082401448a888888444444342222224912452222440411085114111188244992444444444444448808229224109188888888081111228288884244109124514444444441042282109220222210a21245498aa22892244922224944101111912489888888488a24924412894422514410918888888848924092242292440431922491929288249244121145444422894412499288041149124922928824894422a29144244992448c8888884822059124819240121101444410254920092411914824224144499224492222121144444410111151444490441141c4888848922449449044454512111189442245444410111111119148222911442412894424924492481245524922818848440422222202918888442212894444048a9288a28a888888888888880892282288888888884824a90822914492242222220a2246841211245114994425a288884024298288244912912022492222222282482250444444109188442291a48808221011114912894444248288888808a412512502912451544944244922914492482222220211111188484422021111894444128988404424924829491109242222a21111114992281209229224904484888844444444232222491248922822454444444424292242441089442244514420924422229224524924882449922449920820121141244920499488440481241111228240921011014444242222221a111191240924491491222222222292141121228888888810451181888888888824922491249124492a89041111114992242922028888880822490249222244440481241111228240921022220124221211111145040249148988101144249224492488489240128924492445242222221a91489224512422424410311249924810912481249244224924221111115144442090449188081141c44824499248109124812412914844a2884444444423124992249044a4888888888888828811a1440421122202a1124504922449222222228288888888882402111111114444442411888824121111111111444c2412912092244992249148242211114144248000129524224a241291082292284a2291882489924810110104904a224a444444104992a22412492449222222228288a0288a888888442322229224812422424410811045238124499244444444449444441031922449a42022428908422444044225a25192409224492449441011119124890431222292244912111140444404912481241011222282409288081141204908111111918888882822229024499228121121228848241289041111912449924844221189120924116944442425112589249148524924a2111191944424912491249224914412892492249148a22449922489242222440411918888888888888808114144444404221211111111111122222222440411111111114144444444444444248988884810118944221111111111d188888848249148924412499248924892249544824892401211014444440491248124112122220824890811412049082122222212111111d188244992049288442322904444444444410422821009118150892202914892882002912022222290046224a20812412945114511812422452412894444444410918888888888881011444444042222222222102282888888082222222222222222a21111115192244992449292141111119188881011448c8888888828888850228210221849142a5124a9288a2289222291482449111141444422914892484a1144444444444422492489245124952412888844442022222210898848242291484444204a22914422222222122510491211442451224924492489240a514491202222a220222222a24444104526118822124124884044445211111191484492244992a48828828844229148241211114544045292888888888888888888888888089228a2481011115110111189948808a2c82402514422880411499224224104922422492282a44820522429828888888888082222222292440449140922498a888888222222222222828888884422912411912022494444444490441145822491828822911291208a4c2210452482481011119124114552294949222222a220624428114112459149045144228824451091249244248848928888888820222244041123914824224144444492244922222222228a20a2884490942422222222228410222222512222228808229224491289460922499224492282888810112122282a4992248988002222228248940002482a4944848888209224481211212288049094928410222222224844221244444444922449222280888888082249822411112122228220494444888820481242442401242282441034124444442449922422028888880822498224880811114190242242441024092122092011918888082222222222824810111111111111111111491111419014111111898820222222222288041111111111894422492222419014111131499244229248922449921491088a444488882022922449440a22224289882084082241a8244549aa924812491289248942145124888888888244442412252211a4c800228822410411111111111111912422222241444492a422121111a98a4844464444224924922489482222119188884444242222222222222288882409925244444452111111111149a2484424499224494a24122922222222228888481224a588248988888888888888888808222291484444442425228848242292489224499244902441128928482292208948529224124904a9442289449224894812918844221291884424a22411454422912222222222414492045144114912111111111111111191482422828888888888888888484422124552294949229148444444444444444404111121228888888888442291482412454444444444441049124411454424491209222222884422111111441491089292444444444408214444449288880822499224899448101111912449222202888888082249820822424444104992542422424410444288480248442412444444244992482491249288880811114124882449922411111111118944445015892492249244928c4422894492249124499288884482489224491211454444444414114422912492482449922449228924914422224a55894844928824224992244992448248441011114144444410894494489148242282a222512246442492241189442291249224924824892491288a28492449241249942422892489242291242292449248924892111111894412491411892082442212498a0822884812494412892411114444444414254a122589a488442291441111492291441249244994882022228a8848441011119124924451a224519244524444444444141191482491442249890822222222221111858820225192241141c4482412912022229224494ca2882241444444142422229128118920451209a2481041444444444444444412111191202222222222222282a448902249114144444444444444444444444404119124111111114112451249228924292222228a88888888888820222222222222222289888848101111111111111141124514092292881424229224252211a44822411409228888888848922425898822414444441444448412114112a54822411409228888888824111109222292442449441011414424499224221a091291244912492282084244506a285528552855444488082222912411111112898888205425944a289588880046148818114a44208ac8241a4a25944a2895502aa15442a9845209a5124a25924422224244444404425542a9845209a5124a25944a2895502aa15442a9845209a5124a259214018c148898448904a2884ca2011149228a892449845209a5124a25944a289588881011085509a5124a2522224404425542a9845209a5124a25944a2895502aa15442a984528948912449124922024525944a2895502aa15442a9845209a5124a25944a2895502a818888888822124144449208a5128188888828221211442895502a5184520922944a44444404224992442410422044422401442289942491484411111111452022128944444484102222a29088880804111121224244a0a844114a25225144228888482a42a944448488402449501289484444888810110822224244848840a84a9222222244042222224214452482482491242222221211112202912491009288881049121108558988882449924a55522a694a912449922449a248204992248988482222228124499224499224499224499224492a451224495292a0098a0482048120412048104920c82424012409a440108d88442a29499224499224499224492a294992244992244912888844412089248110c15012458204450241824090201024882410641242922490024114091214090409024182409020924090494808214902291044232222952449922449922449922449922449922449922449922489244992949252529224a5a4a424492549922425494444141111c0880249240984088692689224492a2949922449922449499224494a922429082491241022184aa24890a04820481008120482049104824c4208490248022910449324a99224495292244992a424499224499224499294244952104822492044309444912041914090201024080409220904998490049024900241344992a4544a92a4244992244992942425090a024952022182a1248a04098a04820481204120489244120832092109204920058268444424294992a42429222222108944224992244992044952829224054922254812254992942441a9a4a49412404a5049822449902449494a12a49224499224499224499288888840444454922449922429494992209024251022184aa24890a04820481008120482049104824c42480248124881208a04098a0482048120412048904420c824849024802490024134222292a424294992409224499224499224492022224a9248254992244949922449922429494a922451920860522089248110c150128d8888d44849922449228148442249222292480a922449924492248126490049a524a54014359124c92a4b1294a04820481008120482049104824c42480248124881208a04098a04820481204120489244120832092109204920058268444444448a88081181882449924452209228914008114c1285545294a4284a4992248988888840244992a4241291a424491249244992140944442222222249499224924892228188888888888868444444449224912449122929894822492411d18888482491482249924424229188481488082222902293a8a4482412454402111111111111114444444404519204494444448440942480a49228a288228a100144225044111155a324952492282222222222222222228248241289a444528a4044444444442249248924512495241244442222888888082222228888484424129148a4241249924854c4884422894824491291281291482422221144444490442092241289249144124922894412894444444444444444440411119124499288888888404444444444049148929491449248222522424404222291441249249124898804222222222211112249444482449204494444448440224900492509212222028888041211894444a2404444281111488124aa1449aa2a892491a44822890a4924894822492492b024952429928888888888888888888888442211114444444444444444444444528a0422222222222222912492449208224910118928888848828824828888444422128954914824922422222222101111111144444444444444444404111111111111410422222222482249144925890441101104411044444481884422892890024114098a404444444444444444440411111111414444444444444444441089442291244104222222224822491449258904411011044110444444818888884444200582281244444414082222222222222222228288888888888820025124120992481245524922414424228288208844442412914824222288a288a2a894a4249114111189449222222291242245049144124922899488042222499224499224491491241111231211111111118922222212414444444444444444528a084444229188884492481249a2482a492488884444101111114422221289482412111144914824aa8848244992242222411245241011894422914852094422492449221111111151202288884012a5c8242a892212412429221011111191444424888888888824890824491049242249222210118944221111518888404424494444141111111111114144444444904a4495082249a2a822229244249248124944444410111141442212114444241211492422828848249152228844041111114444440491888844221289444450a4924ac4888844922422914824924492441289249124124511258924894422899244249124914424924424920822899424a240444444242222222210914044248924499224924444042212882409200124a58848924422918848209224a58824499224910844225044202289489244242249920410a9484489888808440248441291881042888888884844444422229022469248124912493222222222222222228a88888808222222221249141144109124249124121111222210118944a22851922824092144444444444414119124124924492249a24444101111514444242281888888481249a2285192284942081191482412519224124924914852222288888888888844441422221011111111111109444422491291404424499224894824912449242211914824225204222222222222222242081191a49088888888401011111151241011114144440011110822121122029104118908118100228848880820222222818888888824499224111111014444208848444488084412442422224404028820222144441240222222814892202222808808048944848840244122112122104004312222801105224222222222a2086044148888082522022992491a490821220288082402413449252525499224499224252949120492a4044204434934222292a4244992249124a948202922224992244924499224499224499224499224494a1211114d12014c0a2491241022184aa2111111292242442022222222228844229188888808118144221189021121118110c124854a294929a54411114992244912111111111188881011884422918888884024128922818888208a44221209244912424892842449202222a205124802082049a98888244992a488884892921440522a9224a9220124a5020820a992a4544404109122a994a42411a5949294a4482412492412894822492491484a92484aaa449248221115492529924a494a1255524924a94852242222918844221111454a29494922914492224900092049a924554592a224a59254551215111145914824aa242a22912452004924514592aa22495124a9288aa2284951144591a4aa48521449aa8a249524494a922425499292244992284900492529492491284900492522121151944a4a92244522229148a424092080a48a88284992140920291549aa8a2211111125924452244992242992244992944812499400925291244992a424459292a4aa4aa2281245a20092a48a94a4884844944495924a494954521295942425495224a5922445845222254992229124292294924aa9124544242929a548144992242549925452499224951400"},"methodIdentifiers":{"GRID_SIZE()":"7fc4eda8","currentGameId()":"536a3ddc","determineWinner()":"33b16d93","emergencyDetermineWinner()":"39c85bff","entryFee()":"072ea61c","gameFee()":"ea777eec","games(uint256)":"117a5b90","getAvailableTiles()":"c19f4925","getCurrentGrid()":"de592333","getGameInfo(uint256)":"47e1d550","getGrid(uint256)":"27754775","getPlayerTileCount(address)":"6915d788","minPlayers()":"2770c895","owner()":"8da5cb5b","paused()":"5c975abb","playerGamesPlayed(address)":"c8c1fcaa","playerWins(address)":"8b31fb89","selectMultipleTiles(uint256[])":"30b70493","selectTile(uint256)":"9793ed08","setPaused(bool)":"16c38b3c","teamWallet()":"59927044","transferOwnership(address)":"f2fde38b","updateEntryFee(uint256)":"aa182626","updateGameFee(uint256)":"b70a6dec","updateMinPlayers(uint256)":"8f4fafc8","updateTeamWallet(address)":"7cb332bb"}},"hash":"cc262d3bfcb38fba757ccd46f00d225c6467417eb622b70b160f3a95cd149740","factoryDependencies":{}}}}