{"contracts/PvPGrid.sol":{"PvPGrid":{"abi":[{"inputs":[{"internalType":"uint256","name":"_entryFee","type":"uint256"},{"internalType":"uint256","name":"_gameFee","type":"uint256"},{"internalType":"address","name":"_teamWallet","type":"address"}],"stateMutability":"nonpayable","type":"constructor"},{"anonymous":false,"inputs":[{"indexed":true,"internalType":"uint256","name":"gameId","type":"uint256"},{"indexed":true,"internalType":"address","name":"winner","type":"address"},{"indexed":false,"internalType":"uint256","name":"prize","type":"uint256"}],"name":"GameCompleted","type":"event"},{"anonymous":false,"inputs":[{"indexed":true,"internalType":"uint256","name":"gameId","type":"uint256"},{"indexed":false,"internalType":"uint256","name":"entryFee","type":"uint256"}],"name":"NewGameStarted","type":"event"},{"anonymous":false,"inputs":[{"indexed":true,"internalType":"uint256","name":"gameId","type":"uint256"},{"indexed":true,"internalType":"address","name":"player","type":"address"},{"indexed":false,"internalType":"uint256","name":"tileIndex","type":"uint256"}],"name":"TileSelected","type":"event"},{"inputs":[],"name":"GRID_SIZE","outputs":[{"internalType":"uint256","name":"","type":"uint256"}],"stateMutability":"view","type":"function"},{"inputs":[],"name":"canDetermineWinner","outputs":[{"internalType":"bool","name":"","type":"bool"}],"stateMutability":"view","type":"function"},{"inputs":[],"name":"currentGameId","outputs":[{"internalType":"uint256","name":"","type":"uint256"}],"stateMutability":"view","type":"function"},{"inputs":[],"name":"determineWinner","outputs":[],"stateMutability":"nonpayable","type":"function"},{"inputs":[],"name":"entryFee","outputs":[{"internalType":"uint256","name":"","type":"uint256"}],"stateMutability":"view","type":"function"},{"inputs":[],"name":"finalSelectionBlock","outputs":[{"internalType":"uint256","name":"","type":"uint256"}],"stateMutability":"view","type":"function"},{"inputs":[],"name":"gameFee","outputs":[{"internalType":"uint256","name":"","type":"uint256"}],"stateMutability":"view","type":"function"},{"inputs":[],"name":"getGrid","outputs":[{"internalType":"address[16]","name":"","type":"address[16]"}],"stateMutability":"view","type":"function"},{"inputs":[{"internalType":"uint256","name":"tileIndex","type":"uint256"}],"name":"getTileOwner","outputs":[{"internalType":"address","name":"","type":"address"}],"stateMutability":"view","type":"function"},{"inputs":[{"internalType":"uint256","name":"","type":"uint256"}],"name":"grid","outputs":[{"internalType":"address","name":"","type":"address"}],"stateMutability":"view","type":"function"},{"inputs":[],"name":"isGameComplete","outputs":[{"internalType":"bool","name":"","type":"bool"}],"stateMutability":"view","type":"function"},{"inputs":[],"name":"owner","outputs":[{"internalType":"address","name":"","type":"address"}],"stateMutability":"view","type":"function"},{"inputs":[],"name":"prizePool","outputs":[{"internalType":"uint256","name":"","type":"uint256"}],"stateMutability":"view","type":"function"},{"inputs":[{"internalType":"uint256","name":"tileIndex","type":"uint256"}],"name":"selectTile","outputs":[],"stateMutability":"payable","type":"function"},{"inputs":[],"name":"teamWallet","outputs":[{"internalType":"address","name":"","type":"address"}],"stateMutability":"view","type":"function"},{"inputs":[],"name":"tilesSelected","outputs":[{"internalType":"uint256","name":"","type":"uint256"}],"stateMutability":"view","type":"function"},{"inputs":[{"internalType":"uint256","name":"_newFee","type":"uint256"}],"name":"updateEntryFee","outputs":[],"stateMutability":"nonpayable","type":"function"},{"inputs":[{"internalType":"uint256","name":"_newFee","type":"uint256"}],"name":"updateGameFee","outputs":[],"stateMutability":"nonpayable","type":"function"},{"inputs":[{"internalType":"address","name":"_newWallet","type":"address"}],"name":"updateTeamWallet","outputs":[],"stateMutability":"nonpayable","type":"function"},{"inputs":[],"name":"winner","outputs":[{"internalType":"address","name":"","type":"address"}],"stateMutability":"view","type":"function"},{"inputs":[],"name":"winnerDetermined","outputs":[{"internalType":"bool","name":"","type":"bool"}],"stateMutability":"view","type":"function"}],"evm":{"assembly":"// RO data = 0/0 bytes\n// RW data = 376/65968 bytes\n// Stack size = 32768 bytes\n\n// Instructions = 6556\n// Code size = 23684 bytes\n\n      : @0 (gas: 2)\n     0: a1 = i32 [0x20180]\n     5: jump @108 if a1 == 0\n      : @1 (gas: 4)\n     9: a0 = 0x301b0\n    14: i32 a0 = a0 + 0\n    16: ecalli 13 // 'set_immutable_data'\n    18: jump @108\n      : @2 (gas: 8)\n    21: sp = sp + 0xfffffffffffffff0\n    24: u64 [sp + 0x8] = ra\n    27: u64 [sp] = s0\n    29: a2 = a1\n    31: s0 = a0\n    33: a1 = 0x20\n    36: a0 = a2\n    38: ra = 2, jump @14\n      : @3 [@dyn 1] (gas: 100)\n    43: a1 = u8 [a0 + 0x1]\n    46: a2 = u8 [a0]\n    48: a3 = u8 [a0 + 0x2]\n    51: a4 = u8 [a0 + 0x3]\n    54: a1 = a1 << 0x8\n    57: a1 = a1 | a2\n    60: a3 = a3 << 0x10\n    63: a4 = a4 << 0x18\n    66: a3 = a3 | a4\n    69: a1 = a1 | a3\n    72: a2 = u8 [a0 + 0x5]\n    75: a3 = u8 [a0 + 0x4]\n    78: a4 = u8 [a0 + 0x6]\n    81: a5 = u8 [a0 + 0x7]\n    84: a2 = a2 << 0x8\n    87: a2 = a2 | a3\n    90: a4 = a4 << 0x10\n    93: a5 = a5 << 0x18\n    96: a4 = a4 | a5\n    99: a2 = a2 | a4\n   102: a2 = a2 << 0x20\n   105: t0 = a2 | a1\n   108: a2 = u8 [a0 + 0x9]\n   111: a3 = u8 [a0 + 0x8]\n   114: a4 = u8 [a0 + 0xa]\n   117: a5 = u8 [a0 + 0xb]\n   120: a2 = a2 << 0x8\n   123: a2 = a2 | a3\n   126: a4 = a4 << 0x10\n   129: a5 = a5 << 0x18\n   132: a4 = a4 | a5\n   135: a2 = a2 | a4\n   138: a3 = u8 [a0 + 0xd]\n   141: a4 = u8 [a0 + 0xc]\n   144: a5 = u8 [a0 + 0xe]\n   147: a1 = u8 [a0 + 0xf]\n   150: a3 = a3 << 0x8\n   153: a3 = a3 | a4\n   156: a5 = a5 << 0x10\n   159: a1 = a1 << 0x18\n   162: a1 = a1 | a5\n   165: a1 = a1 | a3\n   168: a1 = a1 << 0x20\n   171: t1 = a1 | a2\n   174: a1 = u8 [a0 + 0x11]\n   177: a3 = u8 [a0 + 0x10]\n   180: a4 = u8 [a0 + 0x12]\n   183: a5 = u8 [a0 + 0x13]\n   186: a1 = a1 << 0x8\n   189: a1 = a1 | a3\n   192: a4 = a4 << 0x10\n   195: a5 = a5 << 0x18\n   198: a4 = a4 | a5\n   201: a1 = a1 | a4\n   204: a3 = u8 [a0 + 0x15]\n   207: a4 = u8 [a0 + 0x14]\n   210: a5 = u8 [a0 + 0x16]\n   213: a2 = u8 [a0 + 0x17]\n   216: a3 = a3 << 0x8\n   219: a3 = a3 | a4\n   222: a5 = a5 << 0x10\n   225: a2 = a2 << 0x18\n   228: a2 = a2 | a5\n   231: a2 = a2 | a3\n   234: a2 = a2 << 0x20\n   237: a3 = a2 | a1\n   240: a1 = u8 [a0 + 0x19]\n   243: a2 = u8 [a0 + 0x18]\n   246: a4 = u8 [a0 + 0x1a]\n   249: a5 = u8 [a0 + 0x1b]\n   252: a1 = a1 << 0x8\n   255: a1 = a1 | a2\n   258: a4 = a4 << 0x10\n   261: a5 = a5 << 0x18\n   264: a4 = a4 | a5\n   267: a1 = a1 | a4\n   270: a2 = u8 [a0 + 0x1d]\n   273: a4 = u8 [a0 + 0x1c]\n   276: a5 = u8 [a0 + 0x1e]\n   279: a0 = u8 [a0 + 0x1f]\n   282: a2 = a2 << 0x8\n   285: a2 = a2 | a4\n   288: a5 = a5 << 0x10\n   291: a0 = a0 << 0x18\n   294: a0 = a0 | a5\n   297: a0 = a0 | a2\n   300: a0 = a0 << 0x20\n   303: a0 = a0 | a1\n   306: a0 = reverse a0\n   308: a1 = reverse a3\n   310: a2 = reverse t1\n   312: a3 = reverse t0\n   314: u64 [s0 + 0x18] = a3\n   317: u64 [s0 + 0x10] = a2\n   320: u64 [s0 + 0x8] = a1\n   323: u64 [s0] = a0\n   325: ra = u64 [sp + 0x8]\n   328: s0 = u64 [sp]\n   330: sp = sp + 0x10\n   333: ret\n      : @4 (gas: 12)\n   335: sp = sp + 0xffffffffffffffd8\n   338: u64 [sp + 0x20] = ra\n   341: u64 [sp + 0x18] = s0\n   344: u64 [sp + 0x10] = s1\n   347: a2 = u64 [a1]\n   349: u64 [sp + 0x8] = a2\n   352: a2 = u64 [a1 + 0x8]\n   355: u64 [sp] = a2\n   357: s0 = u64 [a1 + 0x10]\n   360: s1 = u64 [a1 + 0x18]\n   363: a1 = 0x20\n   366: ra = 4, jump @14\n      : @5 [@dyn 2] (gas: 71)\n   371: a1 = reverse s1\n   373: a2 = reverse s0\n   375: a3 = u64 [sp]\n   377: a3 = reverse a3\n   379: a4 = u64 [sp + 0x8]\n   382: a4 = reverse a4\n   384: u8 [a0 + 0x18] = a4\n   387: u8 [a0 + 0x10] = a3\n   390: u8 [a0 + 0x8] = a2\n   393: u8 [a0] = a1\n   395: a5 = a4 >> 0x38\n   398: u8 [a0 + 0x1f] = a5\n   401: a5 = a4 >> 0x30\n   404: u8 [a0 + 0x1e] = a5\n   407: a5 = a4 >> 0x28\n   410: u8 [a0 + 0x1d] = a5\n   413: a5 = a4 >> 0x20\n   416: u8 [a0 + 0x1c] = a5\n   419: a5 = a4 >> 0x18\n   422: u8 [a0 + 0x1b] = a5\n   425: a5 = a4 >> 0x10\n   428: u8 [a0 + 0x1a] = a5\n   431: a4 = a4 >> 0x8\n   434: u8 [a0 + 0x19] = a4\n   437: a4 = a3 >> 0x38\n   440: u8 [a0 + 0x17] = a4\n   443: a4 = a3 >> 0x30\n   446: u8 [a0 + 0x16] = a4\n   449: a4 = a3 >> 0x28\n   452: u8 [a0 + 0x15] = a4\n   455: a4 = a3 >> 0x20\n   458: u8 [a0 + 0x14] = a4\n   461: a4 = a3 >> 0x18\n   464: u8 [a0 + 0x13] = a4\n   467: a4 = a3 >> 0x10\n   470: u8 [a0 + 0x12] = a4\n   473: a3 = a3 >> 0x8\n   476: u8 [a0 + 0x11] = a3\n   479: a3 = a2 >> 0x38\n   482: u8 [a0 + 0xf] = a3\n   485: a3 = a2 >> 0x30\n   488: u8 [a0 + 0xe] = a3\n   491: a3 = a2 >> 0x28\n   494: u8 [a0 + 0xd] = a3\n   497: a3 = a2 >> 0x20\n   500: u8 [a0 + 0xc] = a3\n   503: a3 = a2 >> 0x18\n   506: u8 [a0 + 0xb] = a3\n   509: a3 = a2 >> 0x10\n   512: u8 [a0 + 0xa] = a3\n   515: a2 = a2 >> 0x8\n   518: u8 [a0 + 0x9] = a2\n   521: a2 = a1 >> 0x38\n   524: u8 [a0 + 0x7] = a2\n   527: a2 = a1 >> 0x30\n   530: u8 [a0 + 0x6] = a2\n   533: a2 = a1 >> 0x28\n   536: u8 [a0 + 0x5] = a2\n   539: a2 = a1 >> 0x20\n   542: u8 [a0 + 0x4] = a2\n   545: a2 = a1 >> 0x18\n   548: u8 [a0 + 0x3] = a2\n   551: a2 = a1 >> 0x10\n   554: u8 [a0 + 0x2] = a2\n   557: a1 = a1 >> 0x8\n   560: u8 [a0 + 0x1] = a1\n   563: ra = u64 [sp + 0x20]\n   566: s0 = u64 [sp + 0x18]\n   569: s1 = u64 [sp + 0x10]\n   572: sp = sp + 0x28\n   575: ret\n      : @6 (gas: 48)\n   577: sp = sp + 0xffffffffffffffa0\n   580: u64 [sp + 0x58] = ra\n   583: u64 [sp + 0x50] = s0\n   586: u64 [sp + 0x48] = s1\n   589: s0 = sp + 0x60\n   592: sp = sp & 0xffffffffffffffe0\n   595: s1 = a0\n   597: a0 = u64 [a1 + 0x18]\n   600: a2 = u64 [a1 + 0x10]\n   603: a3 = u64 [a1 + 0x8]\n   606: a1 = u64 [a1]\n   608: a0 = reverse a0\n   610: a2 = reverse a2\n   612: a3 = reverse a3\n   614: a1 = reverse a1\n   616: u64 [sp + 0x18] = a1\n   619: u64 [sp + 0x10] = a3\n   622: u64 [sp + 0x8] = a2\n   625: u64 [sp] = a0\n   627: u64 [sp + 56] = 0\n   630: u64 [sp + 48] = 0\n   633: u64 [sp + 40] = 0\n   636: u64 [sp + 32] = 0\n   639: u32 [sp + 64] = 0x20\n   643: i32 a1 = sp + 0\n   645: i32 a3 = sp + 0x20\n   648: i32 a4 = sp + 0x40\n   651: a2 = 0xffffffffffffffff\n   654: a0 = 0\n   656: ecalli 8 // 'get_storage'\n   658: a0 = u64 [sp + 0x38]\n   661: a1 = u64 [sp + 0x30]\n   664: a2 = u64 [sp + 0x28]\n   667: a3 = u64 [sp + 0x20]\n   670: a0 = reverse a0\n   672: a1 = reverse a1\n   674: a2 = reverse a2\n   676: a3 = reverse a3\n   678: u64 [s1 + 0x18] = a3\n   681: u64 [s1 + 0x10] = a2\n   684: u64 [s1 + 0x8] = a1\n   687: u64 [s1] = a0\n   689: sp = s0 + 0xffffffffffffffa0\n   692: ra = u64 [sp + 0x58]\n   695: s0 = u64 [sp + 0x50]\n   698: s1 = u64 [sp + 0x48]\n   701: sp = sp + 0x60\n   704: ret\n      : @7 (gas: 40)\n   706: sp = sp + 0xffffffffffffffa0\n   709: u64 [sp + 0x58] = ra\n   712: u64 [sp + 0x50] = s0\n   715: s0 = sp + 0x60\n   718: sp = sp & 0xffffffffffffffe0\n   721: t0 = u64 [a0]\n   723: a3 = u64 [a0 + 0x8]\n   726: a4 = u64 [a0 + 0x10]\n   729: a0 = u64 [a0 + 0x18]\n   732: t1 = u64 [a1]\n   734: a2 = u64 [a1 + 0x8]\n   737: a5 = u64 [a1 + 0x10]\n   740: a1 = u64 [a1 + 0x18]\n   743: t2 = reverse a0\n   745: a4 = reverse a4\n   747: a3 = reverse a3\n   749: a0 = reverse t0\n   751: t0 = reverse a1\n   753: a5 = reverse a5\n   755: a2 = reverse a2\n   757: a1 = reverse t1\n   759: u64 [sp + 0x18] = a0\n   762: u64 [sp + 0x10] = a3\n   765: u64 [sp + 0x8] = a4\n   768: u64 [sp] = t2\n   770: u64 [sp + 0x38] = a1\n   773: u64 [sp + 0x30] = a2\n   776: u64 [sp + 0x28] = a5\n   779: u64 [sp + 0x20] = t0\n   782: i32 a1 = sp + 0\n   784: i32 a3 = sp + 0x20\n   787: a2 = 0xffffffffffffffff\n   790: a4 = 0x20\n   793: a0 = 0\n   795: ecalli 14 // 'set_storage'\n   797: sp = s0 + 0xffffffffffffffa0\n   800: ra = u64 [sp + 0x58]\n   803: s0 = u64 [sp + 0x50]\n   806: sp = sp + 0x60\n   809: ret\n      : @8 (gas: 24)\n   811: sp = sp + 0xffffffffffffff60\n   815: u64 [sp + 0x98] = ra\n   819: u64 [sp + 0x90] = s0\n   823: u64 [sp + 0x88] = s1\n   827: s0 = sp + 0xa0\n   831: sp = sp & 0xffffffffffffffe0\n   834: a4 = u64 [a3]\n   836: u64 [sp + 0x38] = a4\n   839: a4 = u64 [a3 + 0x8]\n   842: u64 [sp + 0x30] = a4\n   845: a4 = u64 [a3 + 0x10]\n   848: u64 [sp + 0x28] = a4\n   851: a3 = u64 [a3 + 0x18]\n   854: u64 [sp + 0x20] = a3\n   857: a3 = u64 [a2]\n   859: u64 [sp + 0x18] = a3\n   862: a3 = u64 [a2 + 0x8]\n   865: u64 [sp + 0x10] = a3\n   868: a3 = u64 [a2 + 0x10]\n   871: u64 [sp + 0x8] = a3\n   874: a2 = u64 [a2 + 0x18]\n   877: u64 [sp] = a2\n   879: s1 = a1\n   881: ra = 6, jump @14\n      : @9 [@dyn 3] (gas: 35)\n   886: a1 = u64 [sp]\n   888: a1 = reverse a1\n   890: a2 = u64 [sp + 0x8]\n   893: a2 = reverse a2\n   895: a3 = u64 [sp + 0x10]\n   898: a3 = reverse a3\n   900: a4 = u64 [sp + 0x18]\n   903: a4 = reverse a4\n   905: u64 [sp + 0x58] = a4\n   908: u64 [sp + 0x50] = a3\n   911: u64 [sp + 0x48] = a2\n   914: u64 [sp + 0x40] = a1\n   917: a1 = u64 [sp + 0x20]\n   920: a1 = reverse a1\n   922: a2 = u64 [sp + 0x28]\n   925: a2 = reverse a2\n   927: a3 = u64 [sp + 0x30]\n   930: a3 = reverse a3\n   932: a4 = u64 [sp + 0x38]\n   935: a4 = reverse a4\n   937: u64 [sp + 0x78] = a4\n   940: u64 [sp + 0x70] = a3\n   943: u64 [sp + 0x68] = a2\n   946: u64 [sp + 0x60] = a1\n   949: i32 a2 = a0 + 0\n   951: i32 a3 = s1 + 0\n   953: i32 a0 = sp + 0x40\n   956: a1 = 0x2\n   959: ecalli 7 // 'deposit_event'\n   961: sp = s0 + 0xffffffffffffff60\n   965: ra = u64 [sp + 0x98]\n   969: s0 = u64 [sp + 0x90]\n   973: s1 = u64 [sp + 0x88]\n   977: sp = sp + 0xa0\n   981: ret\n      : @10 (gas: 33)\n   983: sp = sp + 0xffffffffffffff20\n   987: u64 [sp + 0xd8] = ra\n   991: u64 [sp + 0xd0] = s0\n   995: u64 [sp + 0xc8] = s1\n   999: s0 = sp + 0xe0\n  1003: sp = sp & 0xffffffffffffffe0\n  1006: a5 = u64 [a4]\n  1008: u64 [sp + 0x40] = a5\n  1011: a5 = u64 [a4 + 0x8]\n  1014: u64 [sp + 0x48] = a5\n  1017: a5 = u64 [a4 + 0x10]\n  1020: u64 [sp + 0x50] = a5\n  1023: a4 = u64 [a4 + 0x18]\n  1026: u64 [sp + 0x58] = a4\n  1029: t0 = 0x8\n  1032: a4 = u64 [a3]\n  1034: u64 [sp + 0x18] = a4\n  1037: a4 = u64 [a3 + 0x8]\n  1040: u64 [sp + 0x20] = a4\n  1043: a4 = u64 [a3 + 0x10]\n  1046: u64 [sp + 0x28] = a4\n  1049: a3 = u64 [a3 + 0x18]\n  1052: u64 [sp + 0x30] = a3\n  1055: s1 = u64 [a2]\n  1057: a3 = u64 [a2 + 0x8]\n  1060: u64 [sp] = a3\n  1062: a3 = u64 [a2 + 0x10]\n  1065: u64 [sp + 0x8] = a3\n  1068: a2 = u64 [a2 + 0x18]\n  1071: u64 [sp + 0x10] = a2\n  1074: u64 [sp + 56] = 0x20\n  1078: ra = 0xa\n  1081: jump @14\n      : @11 [@dyn 4] (gas: 2)\n  1084: u64 [sp + 0x38] = a1\n  1087: ra = 10, jump @14\n      : @12 [@dyn 5] (gas: 41)\n  1091: a1 = reverse s1\n  1093: u64 [sp + 0x78] = a1\n  1096: a1 = u64 [sp]\n  1098: a1 = reverse a1\n  1100: u64 [sp + 0x70] = a1\n  1103: a1 = u64 [sp + 0x8]\n  1106: a1 = reverse a1\n  1108: u64 [sp + 0x68] = a1\n  1111: a1 = u64 [sp + 0x10]\n  1114: a1 = reverse a1\n  1116: u64 [sp + 0x60] = a1\n  1119: a1 = u64 [sp + 0x18]\n  1122: a1 = reverse a1\n  1124: u64 [sp + 0x98] = a1\n  1128: a1 = u64 [sp + 0x20]\n  1131: a1 = reverse a1\n  1133: u64 [sp + 0x90] = a1\n  1137: a1 = u64 [sp + 0x28]\n  1140: a1 = reverse a1\n  1142: u64 [sp + 0x88] = a1\n  1146: a1 = u64 [sp + 0x30]\n  1149: a1 = reverse a1\n  1151: u64 [sp + 0x80] = a1\n  1155: a1 = u64 [sp + 0x40]\n  1158: a1 = reverse a1\n  1160: u64 [sp + 0xb8] = a1\n  1164: a1 = u64 [sp + 0x48]\n  1167: a1 = reverse a1\n  1169: u64 [sp + 0xb0] = a1\n  1173: a1 = u64 [sp + 0x50]\n  1176: a1 = reverse a1\n  1178: u64 [sp + 0xa8] = a1\n  1182: a1 = u64 [sp + 0x58]\n  1185: a1 = reverse a1\n  1187: u64 [sp + 0xa0] = a1\n  1191: i32 a2 = a0 + 0\n  1193: a3 = i32 [sp + 0x38]\n  1196: i32 a0 = sp + 0x60\n  1199: a1 = 0x3\n  1202: ecalli 7 // 'deposit_event'\n  1204: t0 = 12, jump @897\n      : @13 [@dyn 6] (gas: 1)\n  1209: ret\n      : @14 (gas: 2)\n  1211: i32 a2 = a0 >> 0x10\n  1214: jump @19 if a2 != 0\n      : @15 (gas: 4)\n  1217: a1 = a1 + a0\n  1220: i32 a1 = a1 + 0x1f\n  1223: a1 = a1 & 0xffffffffffffffe0\n  1226: jump @19 if a1 >u 65536\n      : @16 (gas: 3)\n  1232: a2 = 0x2017c\n  1237: a3 = i32 [0x2017c]\n  1242: jump @18 if a3 >=u a1\n      : @17 (gas: 2)\n  1245: u32 [0x2017c] = a1\n  1250: fallthrough\n      : @18 (gas: 4)\n  1251: a1 = 0x20190\n  1256: i32 a0 = a0 + 0\n  1258: a0 = a0 + a1\n  1261: ret\n      : @19 (gas: 1)\n  1263: trap\n      : @20 (gas: 6)\n  1264: sp = sp + 0xfffffffffffffff0\n  1267: u64 [sp + 0x8] = ra\n  1270: u64 [sp] = s0\n  1272: s0 = a0 & 0x1\n  1275: ecalli 5 // 'call_data_size'\n  1277: fallthrough\n      : @21 (gas: 2)\n  1278: u32 [0x20178] = a0\n  1283: jump @23 if s0 == 0\n      : @22 (gas: 1)\n  1286: ra = 14, jump @24\n      : @23 [@dyn 7] (gas: 12)\n  1290: ra = 0x10\n  1293: sp = sp + 0xfffffffffffffe10\n  1297: u64 [sp + 0x1e8] = ra\n  1301: u64 [sp + 0x1e0] = s0\n  1305: u64 [sp + 0x1d8] = s1\n  1309: s0 = sp + 0x1f0\n  1313: sp = sp + 0xffffffffffffdd30\n  1317: sp = sp & 0xffffffffffffffe0\n  1320: s1 = sp\n  1322: t0 = 0x7e\n  1325: a2 = s1 + 0x1058\n  1329: jump @110\n      : @24 [@dyn 8] (gas: 15)\n  1332: sp = sp + 0xfffffffffffff8e0\n  1336: a0 = sp + 0x700\n  1340: u64 [a0 + 0x18] = ra\n  1343: u64 [a0 + 0x10] = s0\n  1346: u64 [a0 + 0x8] = s1\n  1349: s0 = sp + 0x720\n  1353: sp = sp & 0xffffffffffffffe0\n  1356: s1 = sp\n  1358: u64 [s1 + 1048] = 0\n  1362: u64 [s1 + 1040] = 0\n  1366: u64 [s1 + 1032] = 0\n  1370: u64 [s1 + 1024] = 0\n  1374: i32 a0 = s1 + 0x400\n  1378: ecalli 15 // 'value_transferred'\n  1380: fallthrough\n      : @25 (gas: 9)\n  1381: a4 = s1 + 0x400\n  1385: a0 = u64 [a4 + 0x10]\n  1388: a1 = u64 [a4 + 0x18]\n  1391: a2 = u64 [a4 + 0x8]\n  1394: a3 = u64 [a4]\n  1396: a1 = a1 | a2\n  1399: a0 = a0 | a3\n  1402: a0 = a0 | a1\n  1405: jump @98 if a0 != 0\n      : @26 (gas: 17)\n  1409: a0 = i32 [0x20178]\n  1414: u64 [s1 + 0x78] = a0\n  1417: a0 = a0 << 0x20\n  1420: a0 = a0 >> 0x20\n  1423: a0 = a0 + 0x1f\n  1426: a0 = a0 & 0xffffffffffffffe0\n  1429: a1 = a0 + 0x80\n  1433: a0 = a1 <u a0\n  1436: a2 = s1 + 0x300\n  1440: u64 [a2 + 0xe0] = a1\n  1444: u64 [a2 + 0xe8] = a0\n  1448: a0 = 0 if a0 != 0\n  1450: u64 [a2 + 0xf0] = a0\n  1454: a0 = 0x40\n  1457: a1 = s1 + 0x3e0\n  1461: u64 [s1 + 1016] = 0\n  1465: ra = 18, jump @4\n      : @27 [@dyn 9] (gas: 3)\n  1470: a0 = 0x80\n  1474: a1 = u64 [s1 + 0x78]\n  1477: ra = 20, jump @14\n      : @28 [@dyn 10] (gas: 5)\n  1482: i32 a0 = a0 + 0\n  1484: a1 = u64 [s1 + 0x78]\n  1487: a2 = 0\n  1489: ecalli 3 // 'call_data_copy'\n  1491: fallthrough\n      : @29 (gas: 2)\n  1492: a1 = u64 [s1 + 0x78]\n  1495: jump @99 if a1 <=u 95\n      : @30 (gas: 7)\n  1500: a0 = sp + 0xffffffffffffffe0\n  1503: a0 = a0 & 0xffffffffffffffe0\n  1506: u64 [s1 + 0x78] = a0\n  1509: sp = a0\n  1511: a0 = s1 + 0x3c0\n  1515: a1 = 0x80\n  1519: ra = 22, jump @2\n      : @31 [@dyn 11] (gas: 16)\n  1524: a0 = u64 [s1 + 0x3d0]\n  1528: a1 = u64 [s1 + 0x3d8]\n  1532: a2 = u64 [s1 + 0x3c0]\n  1536: a3 = u64 [s1 + 0x3c8]\n  1540: a4 = u64 [s1 + 0x78]\n  1543: u64 [a4 + 0x10] = a0\n  1546: u64 [a4 + 0x18] = a1\n  1549: u64 [a4] = a2\n  1551: u64 [a4 + 0x8] = a3\n  1554: a0 = sp + 0xffffffffffffffe0\n  1557: a0 = a0 & 0xffffffffffffffe0\n  1560: u64 [s1 + 0x70] = a0\n  1563: sp = a0\n  1565: a0 = s1 + 0x3a0\n  1569: a1 = 0xa0\n  1573: ra = 24, jump @2\n      : @32 [@dyn 12] (gas: 16)\n  1578: a0 = u64 [s1 + 0x3b0]\n  1582: a1 = u64 [s1 + 0x3b8]\n  1586: a3 = u64 [s1 + 0x3a0]\n  1590: a2 = u64 [s1 + 0x3a8]\n  1594: u64 [s1 + 0x50] = a0\n  1597: a4 = u64 [s1 + 0x70]\n  1600: u64 [a4 + 0x10] = a0\n  1603: u64 [s1 + 0x48] = a1\n  1606: u64 [a4 + 0x18] = a1\n  1609: u64 [s1 + 0x38] = a3\n  1612: u64 [a4] = a3\n  1614: u64 [s1 + 0x40] = a2\n  1617: u64 [a4 + 0x8] = a2\n  1620: a0 = s1 + 0x380\n  1624: a1 = 0xc0\n  1628: ra = 26, jump @2\n      : @33 [@dyn 13] (gas: 12)\n  1633: a1 = u64 [s1 + 0x390]\n  1637: a2 = u64 [s1 + 0x398]\n  1641: a0 = 0x100000000\n  1651: a0 = a0 ^ a1\n  1654: a0 = a0 | a2\n  1657: u64 [s1 + 0x68] = a1\n  1660: a1 = a1 >> 0x20\n  1663: a1 = a1 <u 0x1\n  1666: u64 [s1 + 0x30] = a2\n  1669: a1 = 0 if a2 != 0\n  1671: a1 = 0 if a0 == 0\n  1673: jump @100 if a1 == 0\n      : @34 (gas: 12)\n  1677: a0 = u64 [s1 + 0x388]\n  1681: u64 [s1 + 0x60] = a0\n  1684: a0 = u64 [s1 + 0x380]\n  1688: u64 [s1 + 0x58] = a0\n  1691: a0 = 0x30190\n  1696: u64 [s1 + 0x28] = a0\n  1699: i32 a0 = a0 + 0\n  1701: ra = 0x1c\n  1704: ecalli 6 // 'caller'\n  1706: a2 = u64 [s1 + 0x28]\n  1709: t0 = 0x1e\n  1712: jump @893\n      : @35 [@dyn 14] (gas: 2)\n  1715: a2 = u64 [s1 + 0x28]\n  1718: t0 = 30, jump @893\n      : @36 [@dyn 15] (gas: 15)\n  1723: u64 [s1 + 0x28] = a1\n  1726: a0 = a0 >> 0x20\n  1729: a1 = reverse a2\n  1731: a2 = a1 << 0x20\n  1734: a0 = a0 | a2\n  1737: u64 [s1 + 0x20] = a0\n  1740: a1 = a1 >> 0x20\n  1743: u64 [s1 + 0x18] = a1\n  1746: u64 [s1 + 1080] = 0\n  1750: u64 [s1 + 1072] = 0\n  1754: u64 [s1 + 1064] = 0\n  1758: u64 [s1 + 1056] = 0x17\n  1763: a0 = s1 + 0x360\n  1767: a1 = s1 + 0x420\n  1771: ra = 32, jump @6\n      : @37 [@dyn 16] (gas: 18)\n  1776: a0 = u32 [s1 + 0x374]\n  1780: a0 = a0 << 0x20\n  1783: a1 = u64 [s1 + 0x378]\n  1787: a2 = u64 [s1 + 0x18]\n  1790: a0 = a0 | a2\n  1793: u64 [s1 + 1112] = 0\n  1797: u64 [s1 + 1104] = 0\n  1801: u64 [s1 + 1096] = 0\n  1805: u64 [s1 + 1088] = 0x17\n  1810: u64 [s1 + 0x478] = a1\n  1814: a1 = u64 [s1 + 0x20]\n  1817: u64 [s1 + 0x468] = a1\n  1821: a1 = u64 [s1 + 0x28]\n  1824: u64 [s1 + 0x460] = a1\n  1828: u64 [s1 + 0x470] = a0\n  1832: a0 = s1 + 0x440\n  1836: a1 = s1 + 0x460\n  1840: ra = 34, jump @7\n      : @38 [@dyn 17] (gas: 7)\n  1845: u64 [s1 + 1176] = 0\n  1849: u64 [s1 + 1168] = 0\n  1853: u64 [s1 + 1160] = 0\n  1857: u64 [s1 + 1152] = 0x18\n  1862: a0 = s1 + 0x340\n  1866: a1 = s1 + 0x480\n  1870: ra = 36, jump @6\n      : @39 [@dyn 18] (gas: 21)\n  1875: a0 = u32 [s1 + 0x354]\n  1879: a1 = u64 [s1 + 0x358]\n  1883: a0 = a0 << 0x20\n  1886: a2 = u64 [s1 + 0x68]\n  1889: a0 = a0 | a2\n  1892: a2 = u64 [s1 + 0x30]\n  1895: a1 = a1 | a2\n  1898: u64 [s1 + 1208] = 0\n  1902: u64 [s1 + 1200] = 0\n  1906: u64 [s1 + 1192] = 0\n  1910: a3 = s1 + 0x400\n  1914: u64 [a3 + 160] = 0x18\n  1919: a2 = u64 [s1 + 0x60]\n  1922: u64 [a3 + 0xc8] = a2\n  1926: a2 = u64 [s1 + 0x58]\n  1929: u64 [a3 + 0xc0] = a2\n  1933: u64 [a3 + 0xd8] = a1\n  1937: u64 [a3 + 0xd0] = a0\n  1941: a0 = s1 + 0x4a0\n  1945: a1 = s1 + 0x4c0\n  1949: ra = 38, jump @7\n      : @40 [@dyn 19] (gas: 7)\n  1954: u64 [s1 + 1272] = 0\n  1958: u64 [s1 + 1264] = 0\n  1962: u64 [s1 + 1256] = 0\n  1966: u64 [s1 + 1248] = 0\n  1970: a0 = s1 + 0x4e0\n  1974: a1 = u64 [s1 + 0x78]\n  1977: ra = 40, jump @7\n      : @41 [@dyn 20] (gas: 7)\n  1982: u64 [s1 + 1304] = 0\n  1986: u64 [s1 + 1296] = 0\n  1990: u64 [s1 + 1288] = 0\n  1994: u64 [s1 + 1280] = 0x1\n  1999: a0 = s1 + 0x500\n  2003: a1 = u64 [s1 + 0x70]\n  2006: ra = 42, jump @7\n      : @42 [@dyn 21] (gas: 9)\n  2011: a0 = u64 [s1 + 0x38]\n  2014: a0 = a0 <u 0x7d1\n  2018: a1 = u64 [s1 + 0x40]\n  2021: a0 = 0 if a1 != 0\n  2023: a1 = u64 [s1 + 0x50]\n  2026: a2 = u64 [s1 + 0x48]\n  2029: a1 = a1 | a2\n  2032: a0 = 0 if a1 != 0\n  2034: jump @57 if a0 != 0\n      : @43 (gas: 3)\n  2038: a0 = s1 + 0x100\n  2042: a1 = 0x40\n  2045: ra = 44, jump @2\n      : @44 [@dyn 22] (gas: 6)\n  2050: a1 = s1 + 0x100\n  2054: a4 = u64 [a1 + 0x18]\n  2057: a5 = u64 [a1 + 0x10]\n  2060: a3 = u64 [a1 + 0x8]\n  2063: a0 = u64 [a1]\n  2065: t0 = 46, jump @879\n      : @45 [@dyn 23] (gas: 1)\n  2070: jump @97 if a1 != 0\n      : @46 (gas: 6)\n  2074: u64 [s1 + 240] = 0\n  2078: u64 [s1 + 232] = 0\n  2082: u64 [s1 + 224] = 0\n  2086: t0 = 0x30\n  2089: a2 = 0x8c379a000000000\n  2099: fallthrough\n      : @47 [@dyn 24] (gas: 7)\n  2100: a1 = s1 + 0xe0\n  2104: u64 [s1 + 0xf8] = a2\n  2108: u64 [s1 + 0x78] = a0\n  2111: u64 [s1 + 0x70] = a3\n  2114: u64 [s1 + 0x68] = a4\n  2117: u64 [s1 + 0x60] = a5\n  2120: ra = 50, jump @4\n      : @48 [@dyn 25] (gas: 1)\n  2125: t0 = 52, jump @881\n      : @49 [@dyn 26] (gas: 1)\n  2130: jump @97 if a0 == 0\n      : @50 (gas: 9)\n  2134: i32 a0 = a1 + 0x4\n  2137: u64 [s1 + 216] = 0\n  2141: u64 [s1 + 208] = 0\n  2145: u64 [s1 + 192] = 0x20\n  2150: a1 = s1 + 0xc0\n  2154: u64 [s1 + 200] = 0\n  2158: u64 [s1 + 0x68] = a3\n  2161: u64 [s1 + 0x60] = a4\n  2164: ra = 54, jump @4\n      : @51 [@dyn 27] (gas: 1)\n  2169: t0 = 56, jump @889\n      : @52 [@dyn 28] (gas: 1)\n  2174: jump @97 if a0 == 0\n      : @53 (gas: 7)\n  2178: i32 a0 = a1 + 0x24\n  2181: u64 [s1 + 184] = 0\n  2185: u64 [s1 + 176] = 0\n  2189: u64 [s1 + 160] = 0xc\n  2194: a1 = s1 + 0xa0\n  2198: u64 [s1 + 168] = 0\n  2202: ra = 58, jump @4\n      : @54 [@dyn 29] (gas: 1)\n  2207: t0 = 60, jump @887\n      : @55 [@dyn 30] (gas: 1)\n  2212: jump @97 if a0 == 0\n      : @56 (gas: 10)\n  2216: i32 a0 = a2 + 0x44\n  2219: a1 = u64 [0x20030]\n  2224: u64 [s1 + 136] = 0\n  2228: u64 [s1 + 0x98] = a1\n  2232: a1 = 0x6869676800000000\n  2242: u64 [s1 + 0x90] = a1\n  2246: a1 = s1 + 0x80\n  2250: u64 [s1 + 128] = 0\n  2254: ra = 0x50\n  2257: jump @4\n      : @57 (gas: 8)\n  2260: a0 = u64 [s1 + 0x68]\n  2263: a0 = a0 << 0x20\n  2266: a0 = a0 >> 0x20\n  2269: a1 = u64 [s1 + 0x60]\n  2272: a2 = u64 [s1 + 0x58]\n  2275: a1 = a1 | a2\n  2278: a0 = a0 | a1\n  2281: jump @74 if a0 != 0\n      : @58 (gas: 3)\n  2285: a0 = s1 + 0x1a0\n  2289: a1 = 0x40\n  2292: ra = 62, jump @2\n      : @59 [@dyn 31] (gas: 6)\n  2297: a1 = s1 + 0x100\n  2301: a4 = u64 [a1 + 0xb8]\n  2305: a5 = u64 [a1 + 0xb0]\n  2309: a3 = u64 [a1 + 0xa8]\n  2313: a0 = u64 [a1 + 0xa0]\n  2317: t0 = 64, jump @879\n      : @60 [@dyn 32] (gas: 1)\n  2322: jump @97 if a1 != 0\n      : @61 (gas: 6)\n  2326: u64 [s1 + 400] = 0\n  2330: u64 [s1 + 392] = 0\n  2334: u64 [s1 + 384] = 0\n  2338: t0 = 0x42\n  2341: a2 = 0x8c379a000000000\n  2351: fallthrough\n      : @62 [@dyn 33] (gas: 7)\n  2352: a1 = s1 + 0x180\n  2356: u64 [s1 + 0x198] = a2\n  2360: u64 [s1 + 0x78] = a0\n  2363: u64 [s1 + 0x70] = a3\n  2366: u64 [s1 + 0x68] = a4\n  2369: u64 [s1 + 0x60] = a5\n  2372: ra = 68, jump @4\n      : @63 [@dyn 34] (gas: 1)\n  2377: t0 = 70, jump @881\n      : @64 [@dyn 35] (gas: 1)\n  2382: jump @97 if a0 == 0\n      : @65 (gas: 9)\n  2386: i32 a0 = a1 + 0x4\n  2389: u64 [s1 + 376] = 0\n  2393: u64 [s1 + 368] = 0\n  2397: u64 [s1 + 352] = 0x20\n  2402: a1 = s1 + 0x160\n  2406: u64 [s1 + 360] = 0\n  2410: u64 [s1 + 0x68] = a3\n  2413: u64 [s1 + 0x60] = a4\n  2416: ra = 72, jump @4\n      : @66 [@dyn 36] (gas: 1)\n  2421: t0 = 74, jump @889\n      : @67 [@dyn 37] (gas: 1)\n  2426: jump @97 if a0 == 0\n      : @68 (gas: 7)\n  2430: i32 a0 = a1 + 0x24\n  2433: u64 [s1 + 344] = 0\n  2437: u64 [s1 + 336] = 0\n  2441: u64 [s1 + 320] = 0x13\n  2446: a1 = s1 + 0x140\n  2450: u64 [s1 + 328] = 0\n  2454: ra = 76, jump @4\n      : @69 [@dyn 38] (gas: 1)\n  2459: t0 = 78, jump @887\n      : @70 [@dyn 39] (gas: 1)\n  2464: jump @97 if a0 == 0\n      : @71 (gas: 11)\n  2468: i32 a0 = a2 + 0x44\n  2471: a1 = u64 [0x20020]\n  2476: a2 = u64 [0x20028]\n  2481: a3 = s1 + 0x100\n  2485: u64 [a3 + 0x38] = a1\n  2488: u64 [a3 + 0x30] = a2\n  2491: a1 = 0x6c65740000000000\n  2501: u64 [a3 + 0x28] = a1\n  2504: a1 = s1 + 0x120\n  2508: u64 [s1 + 288] = 0\n  2512: ra = 80, jump @4\n      : @72 [@dyn 40] (gas: 3)\n  2517: a1 = 0x64\n  2520: a0 = u64 [s1 + 0x78]\n  2523: ra = 82, jump @14\n      : @73 [@dyn 41] (gas: 5)\n  2528: i32 a1 = a0 + 0\n  2530: a0 = 0x1\n  2533: a2 = 0x64\n  2536: ecalli 12 // 'seal_return'\n  2538: fallthrough\n      : @74 (gas: 7)\n  2539: u64 [s1 + 1336] = 0\n  2543: u64 [s1 + 1328] = 0\n  2547: u64 [s1 + 1320] = 0\n  2551: u64 [s1 + 1312] = 0x13\n  2556: a0 = s1 + 0x320\n  2560: a1 = s1 + 0x520\n  2564: ra = 84, jump @6\n      : @75 [@dyn 42] (gas: 17)\n  2569: a2 = s1 + 0x300\n  2573: a0 = u64 [a2 + 0x20]\n  2576: a3 = u64 [a2 + 0x38]\n  2579: a1 = u64 [a2 + 0x28]\n  2582: a4 = u64 [a2 + 0x30]\n  2585: a0 = a0 + 0x1\n  2588: a2 = a0 <u 0x1\n  2591: a1 = a1 + a2\n  2594: a2 = a0 | a1\n  2597: a2 = a2 <u 0x1\n  2600: a2 = a2 + a4\n  2603: a4 = a2 <u a4\n  2606: a3 = a3 + a4\n  2609: a4 = a1 | a3\n  2612: a5 = a0 | a2\n  2615: a4 = a4 | a5\n  2618: jump @101 if a4 == 0\n      : @76 (gas: 13)\n  2622: a4 = 0xffffffff00000000\n  2632: u64 [s1 + 0x50] = a4\n  2635: u64 [s1 + 1368] = 0\n  2639: u64 [s1 + 1360] = 0\n  2643: u64 [s1 + 1352] = 0\n  2647: u64 [s1 + 1344] = 0x13\n  2652: u64 [s1 + 0x560] = a0\n  2656: u64 [s1 + 0x568] = a1\n  2660: u64 [s1 + 0x570] = a2\n  2664: u64 [s1 + 0x578] = a3\n  2668: a0 = s1 + 0x540\n  2672: a1 = s1 + 0x560\n  2676: ra = 86, jump @7\n      : @77 [@dyn 43] (gas: 11)\n  2681: u64 [s1 + 1432] = 0\n  2685: u64 [s1 + 1424] = 0\n  2689: u64 [s1 + 1416] = 0\n  2693: u64 [s1 + 1408] = 0x12\n  2698: u64 [s1 + 1464] = 0\n  2702: u64 [s1 + 1456] = 0\n  2706: u64 [s1 + 1448] = 0\n  2710: u64 [s1 + 1440] = 0\n  2714: a0 = s1 + 0x580\n  2718: a1 = s1 + 0x5a0\n  2722: ra = 88, jump @7\n      : @78 [@dyn 44] (gas: 7)\n  2727: u64 [s1 + 1496] = 0\n  2731: u64 [s1 + 1488] = 0\n  2735: u64 [s1 + 1480] = 0\n  2739: u64 [s1 + 1472] = 0x16\n  2744: a0 = s1 + 0x300\n  2748: a1 = s1 + 0x5c0\n  2752: ra = 90, jump @6\n      : @79 [@dyn 45] (gas: 15)\n  2757: a0 = u64 [s1 + 0x310]\n  2761: a1 = u64 [s1 + 0x318]\n  2765: a0 = a0 >> 0x28\n  2768: a0 = a0 << 0x28\n  2771: u64 [s1 + 1528] = 0\n  2775: u64 [s1 + 1520] = 0\n  2779: u64 [s1 + 1512] = 0\n  2783: u64 [s1 + 1504] = 0x16\n  2788: u64 [s1 + 1544] = 0\n  2792: u64 [s1 + 1536] = 0\n  2796: u64 [s1 + 0x618] = a1\n  2800: u64 [s1 + 0x610] = a0\n  2804: a0 = s1 + 0x5e0\n  2808: a1 = s1 + 0x600\n  2812: ra = 92, jump @7\n      : @80 [@dyn 46] (gas: 11)\n  2817: u64 [s1 + 1592] = 0\n  2821: u64 [s1 + 1584] = 0\n  2825: u64 [s1 + 1576] = 0\n  2829: u64 [s1 + 1568] = 0x15\n  2834: u64 [s1 + 1624] = 0\n  2838: u64 [s1 + 1616] = 0\n  2842: u64 [s1 + 1608] = 0\n  2846: u64 [s1 + 1600] = 0\n  2850: a0 = s1 + 0x620\n  2854: a1 = s1 + 0x640\n  2858: ra = 94, jump @7\n      : @81 [@dyn 47] (gas: 11)\n  2863: u64 [s1 + 1656] = 0\n  2867: u64 [s1 + 1648] = 0\n  2871: u64 [s1 + 1640] = 0\n  2875: u64 [s1 + 1632] = 0x14\n  2880: u64 [s1 + 1688] = 0\n  2884: u64 [s1 + 1680] = 0\n  2888: u64 [s1 + 1672] = 0\n  2892: u64 [s1 + 1664] = 0\n  2896: a0 = s1 + 0x660\n  2900: a1 = s1 + 0x680\n  2904: ra = 96, jump @7\n      : @82 [@dyn 48] (gas: 5)\n  2909: a2 = 0\n  2911: a3 = 0\n  2913: t0 = 0\n  2915: a4 = 0\n  2917: fallthrough\n      : @83 (gas: 5)\n  2918: a0 = a2 <u 0x10\n  2921: a0 = 0 if a3 != 0\n  2923: a1 = t0 | a4\n  2926: a0 = 0 if a1 != 0\n  2928: jump @87 if a0 == 0\n      : @84 (gas: 23)\n  2932: a0 = sp + 0xffffffffffffffe0\n  2935: a1 = a0 & 0xffffffffffffffe0\n  2938: u64 [s1 + 0x58] = a1\n  2941: sp = a1\n  2943: a0 = a2 + 0x2\n  2946: a5 = a0 <u a2\n  2949: u64 [s1 + 0x70] = a2\n  2952: a2 = a3 + a5\n  2955: u64 [s1 + 0x78] = a3\n  2958: a3 = u64 [s1 + 0x78]\n  2961: a3 = a2 <u a3\n  2964: a3 = a5 if a5 == 0\n  2967: a3 = a3 + t0\n  2970: a5 = a3 <u t0\n  2973: a5 = a5 + a4\n  2976: u64 [a1 + 0x8] = a2\n  2979: u64 [a1] = a0\n  2981: u64 [a1 + 0x10] = a3\n  2984: u64 [a1 + 0x18] = a5\n  2987: a0 = s1 + 0x2e0\n  2991: u64 [s1 + 0x68] = a4\n  2994: u64 [s1 + 0x60] = t0\n  2997: ra = 98, jump @6\n      : @85 [@dyn 49] (gas: 12)\n  3002: a0 = u64 [s1 + 0x2f0]\n  3006: a1 = u64 [s1 + 0x2f8]\n  3010: a2 = u64 [s1 + 0x50]\n  3013: a0 = a0 & a2\n  3016: a1 = a1 & 0xffffffffffffffff\n  3019: u64 [s1 + 1704] = 0\n  3023: u64 [s1 + 1696] = 0\n  3027: u64 [s1 + 0x6b8] = a1\n  3031: u64 [s1 + 0x6b0] = a0\n  3035: a1 = s1 + 0x6a0\n  3039: a0 = u64 [s1 + 0x58]\n  3042: ra = 100, jump @7\n      : @86 [@dyn 50] (gas: 14)\n  3047: a4 = u64 [s1 + 0x68]\n  3050: a3 = u64 [s1 + 0x78]\n  3053: a2 = u64 [s1 + 0x70]\n  3056: a2 = a2 + 0x1\n  3059: a0 = a2 <u 0x1\n  3062: a3 = a3 + a0\n  3065: a0 = a2 | a3\n  3068: a0 = a0 <u 0x1\n  3071: a1 = u64 [s1 + 0x60]\n  3074: a0 = a0 + a1\n  3077: a1 = a0 <u a1\n  3080: a4 = a4 + a1\n  3083: t0 = a0\n  3085: jump @83\n      : @87 (gas: 7)\n  3088: u64 [s1 + 1752] = 0\n  3092: u64 [s1 + 1744] = 0\n  3096: u64 [s1 + 1736] = 0\n  3100: u64 [s1 + 1728] = 0x13\n  3105: a0 = s1 + 0x2c0\n  3109: a1 = s1 + 0x6c0\n  3113: ra = 102, jump @6\n      : @88 [@dyn 51] (gas: 15)\n  3118: a0 = u64 [s1 + 0x2d8]\n  3122: u64 [s1 + 0x60] = a0\n  3125: a0 = u64 [s1 + 0x2d0]\n  3129: u64 [s1 + 0x68] = a0\n  3132: a0 = u64 [s1 + 0x2c8]\n  3136: u64 [s1 + 0x70] = a0\n  3139: a0 = u64 [s1 + 0x2c0]\n  3143: u64 [s1 + 0x78] = a0\n  3146: u64 [s1 + 1784] = 0\n  3150: u64 [s1 + 1776] = 0\n  3154: u64 [s1 + 1768] = 0\n  3158: u64 [s1 + 1760] = 0\n  3162: a0 = s1 + 0x2a0\n  3166: a1 = s1 + 0x6e0\n  3170: ra = 104, jump @6\n      : @89 [@dyn 52] (gas: 11)\n  3175: a0 = u64 [s1 + 0x2b8]\n  3179: u64 [s1 + 0x58] = a0\n  3182: a0 = u64 [s1 + 0x2b0]\n  3186: u64 [s1 + 0x50] = a0\n  3189: a0 = u64 [s1 + 0x2a8]\n  3193: u64 [s1 + 0x48] = a0\n  3196: a0 = u64 [s1 + 0x2a0]\n  3200: u64 [s1 + 0x40] = a0\n  3203: a0 = s1 + 0x280\n  3207: a1 = 0x40\n  3210: ra = 106, jump @2\n      : @90 [@dyn 53] (gas: 6)\n  3215: a4 = s1 + 0x200\n  3219: a3 = u64 [a4 + 0x98]\n  3223: a1 = u64 [a4 + 0x90]\n  3227: a2 = u64 [a4 + 0x88]\n  3231: a0 = u64 [a4 + 0x80]\n  3235: t0 = 108, jump @883\n      : @91 [@dyn 54] (gas: 1)\n  3240: jump @97 if a1 != 0\n      : @92 (gas: 11)\n  3244: a1 = u64 [s1 + 0x40]\n  3247: u64 [s1 + 0x260] = a1\n  3251: a1 = u64 [s1 + 0x48]\n  3254: u64 [s1 + 0x268] = a1\n  3258: a1 = u64 [s1 + 0x50]\n  3261: u64 [s1 + 0x270] = a1\n  3265: a1 = s1 + 0x260\n  3269: a2 = u64 [s1 + 0x58]\n  3272: u64 [s1 + 0x278] = a2\n  3276: u64 [s1 + 0x58] = a0\n  3279: ra = 110, jump @4\n      : @93 [@dyn 55] (gas: 21)\n  3284: a0 = u64 [s1 + 0x60]\n  3287: u64 [s1 + 0x238] = a0\n  3291: a0 = u64 [s1 + 0x68]\n  3294: u64 [s1 + 0x230] = a0\n  3298: a0 = u64 [s1 + 0x70]\n  3301: u64 [s1 + 0x228] = a0\n  3305: a0 = u64 [0x20000]\n  3310: a1 = u64 [0x20008]\n  3315: a2 = u64 [0x20010]\n  3320: a3 = u64 [s1 + 0x78]\n  3323: u64 [s1 + 0x220] = a3\n  3327: u64 [s1 + 0x258] = a0\n  3331: u64 [s1 + 0x250] = a1\n  3335: u64 [s1 + 0x248] = a2\n  3339: a0 = u64 [0x20018]\n  3344: a1 = 0x20\n  3347: a2 = s1 + 0x240\n  3351: a3 = s1 + 0x220\n  3355: u64 [s1 + 0x240] = a0\n  3359: a0 = u64 [s1 + 0x58]\n  3362: ra = 112, jump @8\n      : @94 [@dyn 56] (gas: 3)\n  3367: a0 = s1 + 0x200\n  3371: a1 = 0x40\n  3374: ra = 114, jump @2\n      : @95 [@dyn 57] (gas: 6)\n  3379: a4 = s1 + 0x200\n  3383: a3 = u64 [a4 + 0x18]\n  3386: a1 = u64 [a4 + 0x10]\n  3389: a2 = u64 [a4 + 0x8]\n  3392: a0 = u64 [a4]\n  3394: t0 = 116, jump @883\n      : @96 [@dyn 58] (gas: 1)\n  3399: jump @106 if a1 == 0\n      : @97 (gas: 1)\n  3403: trap\n      : @98 (gas: 6)\n  3404: a1 = 0x20190\n  3409: i32 a1 = a1 + 0\n  3411: a0 = 0x1\n  3414: a2 = 0\n  3416: ecalli 12 // 'seal_return'\n  3418: jump @101\n      : @99 (gas: 6)\n  3420: a1 = 0x20190\n  3425: i32 a1 = a1 + 0\n  3427: a0 = 0x1\n  3430: a2 = 0\n  3432: ecalli 12 // 'seal_return'\n  3434: jump @101\n      : @100 (gas: 6)\n  3436: a1 = 0x20190\n  3441: i32 a1 = a1 + 0\n  3443: a0 = 0x1\n  3446: a2 = 0\n  3448: ecalli 12 // 'seal_return'\n  3450: fallthrough\n      : @101 (gas: 8)\n  3451: u64 [s1 + 496] = 0\n  3455: u64 [s1 + 488] = 0\n  3459: u64 [s1 + 480] = 0\n  3463: a0 = 0x4e487b7100000000\n  3473: a1 = s1 + 0x1e0\n  3477: u64 [s1 + 0x1f8] = a0\n  3481: a0 = 0\n  3483: ra = 118, jump @4\n      : @102 [@dyn 59] (gas: 7)\n  3488: u64 [s1 + 472] = 0\n  3492: u64 [s1 + 464] = 0\n  3496: u64 [s1 + 448] = 0x11\n  3501: a0 = 0x4\n  3504: a1 = s1 + 0x1c0\n  3508: u64 [s1 + 456] = 0\n  3512: ra = 120, jump @4\n      : @103 [@dyn 60] (gas: 2)\n  3517: a1 = i32 [0x2017c]\n  3522: jump @105 if a1 >u 63\n      : @104 (gas: 2)\n  3526: u32 [0x2017c] = 0x40\n  3532: fallthrough\n      : @105 (gas: 8)\n  3533: a1 = 0x20190\n  3538: i32 a1 = a1 + 0\n  3540: a0 = 0x1\n  3543: a2 = 0x24\n  3546: ecalli 12 // 'seal_return'\n  3548: u64 [s1 + 0x78] = a0\n  3551: ra = 0x7a\n  3554: jump @14\n      : @106 (gas: 2)\n  3557: u64 [s1 + 0x78] = a0\n  3560: ra = 122, jump @14\n      : @107 [@dyn 61] (gas: 5)\n  3565: i32 a0 = a0 + 0\n  3567: a1 = 0\n  3569: a2 = 0\n  3571: ecalli 3 // 'call_data_copy'\n  3573: jump @0\n      : @108 (gas: 3)\n  3576: a0 = u64 [s1 + 0x78]\n  3579: a1 = 0\n  3581: ra = 124, jump @14\n      : @109 [@dyn 62] (gas: 5)\n  3586: i32 a1 = a0 + 0\n  3588: a0 = 0\n  3590: a2 = 0\n  3592: ecalli 12 // 'seal_return'\n  3594: jump @101\n      : @110 [@dyn 63] (gas: 7)\n  3597: u64 [a2 + 1856] = 0\n  3601: u64 [a2 + 1848] = 0\n  3605: u64 [a2 + 1832] = 0x80\n  3611: a0 = 0x40\n  3614: a1 = s1 + 0x1780\n  3618: u64 [a2 + 1840] = 0\n  3622: ra = 128, jump @4\n      : @111 [@dyn 64] (gas: 4)\n  3628: a0 = 0x20178\n  3633: u64 [s1 + 0xd8] = a0\n  3637: a0 = i32 [0x20178]\n  3642: jump @113 if a0 >=u 4\n      : @112 (gas: 1)\n  3646: jump @734\n      : @113 (gas: 8)\n  3649: a0 = s1 + 0x1000\n  3653: i32 a0 = a0 + 0x7a0\n  3657: a1 = 0\n  3659: ra = 0x82\n  3663: ecalli 4 // 'call_data_load'\n  3665: t0 = 0x84\n  3669: a3 = s1 + 0x1058\n  3673: jump @115\n      : @114 [@dyn 65] (gas: 3)\n  3675: t0 = 0x84\n  3679: a3 = s1 + 0x1058\n  3683: fallthrough\n      : @115 [@dyn 66] (gas: 2)\n  3684: a0 = i32 [a3 + 0x764]\n  3688: jump @117 if a0 != 2376452955\n      : @116 (gas: 1)\n  3695: jump @489\n      : @117 (gas: 1)\n  3698: jump @119 if a0 != 2516051933\n      : @118 (gas: 1)\n  3705: jump @436\n      : @119 (gas: 3)\n  3708: a4 = s1 + 0x2058\n  3712: a2 = s1 + 0x1858\n  3716: jump @121 if a0 != 2543054088\n      : @120 (gas: 1)\n  3723: jump @369\n      : @121 (gas: 1)\n  3726: jump @159 if a0 == 2853709350\n      : @122 (gas: 1)\n  3734: jump @124 if a0 != 3070914028\n      : @123 (gas: 1)\n  3741: jump @304\n      : @124 (gas: 1)\n  3744: jump @191 if a0 == 3275143626\n      : @125 (gas: 1)\n  3752: jump @127 if a0 != 3753857966\n      : @126 (gas: 1)\n  3759: jump @415\n      : @127 (gas: 1)\n  3762: jump @245 if a0 == 3933699820\n      : @128 (gas: 1)\n  3770: jump @212 if a0 == 322961600\n      : @129 (gas: 1)\n  3778: jump @131 if a0 != 867265939\n      : @130 (gas: 1)\n  3785: jump @448\n      : @131 (gas: 1)\n  3788: jump @258 if a0 == 1372769423\n      : @132 (gas: 1)\n  3796: jump @134 if a0 != 1399471580\n      : @133 (gas: 1)\n  3803: jump @478\n      : @134 (gas: 1)\n  3806: jump @136 if a0 != 1502769220\n      : @135 (gas: 1)\n  3813: jump @345\n      : @136 (gas: 1)\n  3816: jump @138 if a0 != 1606011276\n      : @137 (gas: 1)\n  3823: jump @426\n      : @138 (gas: 1)\n  3826: jump @140 if a0 != 1906108222\n      : @139 (gas: 1)\n  3833: jump @405\n      : @140 (gas: 1)\n  3836: jump @231 if a0 == 1908309935\n      : @141 (gas: 1)\n  3844: jump @143 if a0 != 2023497977\n      : @142 (gas: 1)\n  3851: jump @333\n      : @143 (gas: 1)\n  3854: jump @273 if a0 == 2092118715\n      : @144 (gas: 1)\n  3862: jump @146 if a0 == 2132465393\n      : @145 (gas: 1)\n  3869: jump @356\n      : @146 (gas: 10)\n  3872: u64 [a2 + 1824] = 0\n  3876: u64 [a2 + 1816] = 0\n  3880: u64 [a2 + 1808] = 0\n  3884: u64 [a2 + 1800] = 0\n  3888: a0 = s1 + 0x2000\n  3892: i32 a0 = a0 + 0xffffffffffffff60\n  3896: ra = 0x86\n  3900: ecalli 15 // 'value_transferred'\n  3902: t0 = 0x88\n  3906: jump @895\n      : @147 [@dyn 67] (gas: 1)\n  3909: t0 = 136, jump @895\n      : @148 [@dyn 68] (gas: 1)\n  3915: t0 = 138, jump @899\n      : @149 [@dyn 69] (gas: 1)\n  3921: jump @151 if a0 == 0\n      : @150 (gas: 1)\n  3924: jump @694\n      : @151 (gas: 3)\n  3927: a0 = u64 [s1 + 0xd8]\n  3931: a0 = i32 [a0]\n  3933: jump @153 if a0 >u 3\n      : @152 (gas: 1)\n  3937: jump @695\n      : @153 (gas: 8)\n  3940: u64 [a4 + 1856] = 0\n  3944: u64 [a4 + 1848] = 0\n  3948: u64 [a4 + 1840] = 0\n  3952: u64 [a4 + 1832] = 0x16\n  3957: a0 = s1 + 0x7ff\n  3961: a0 = a0 + 0x681\n  3965: a1 = s1 + 0x1f80\n  3969: ra = 140, jump @6\n      : @154 [@dyn 70] (gas: 8)\n  3975: a0 = s1 + 0x7ff\n  3979: a0 = a0 + 0x59\n  3982: a0 = u64 [a0 + 0x628]\n  3986: u64 [s1 + 0xd8] = a0\n  3990: a0 = s1 + 0x7ff\n  3994: a0 = a0 + 0x661\n  3998: a1 = 0x40\n  4001: ra = 142, jump @2\n      : @155 [@dyn 71] (gas: 8)\n  4007: a3 = s1 + 0x7ff\n  4011: a3 = a3 + 0x59\n  4014: a5 = a3 + 0x600\n  4018: a4 = u64 [a5 + 0x20]\n  4021: a1 = u64 [a5 + 0x18]\n  4024: a2 = u64 [a5 + 0x10]\n  4027: a0 = u64 [a5 + 0x8]\n  4030: t0 = 144, jump @876\n      : @156 [@dyn 72] (gas: 1)\n  4036: jump @158 if a1 == 0\n      : @157 (gas: 1)\n  4039: jump @505\n      : @158 (gas: 11)\n  4042: a1 = u8 [s1 + 0xd8]\n  4046: a1 = a1 >u 0\n  4048: u64 [a3 + 1536] = 0\n  4052: u64 [a3 + 1528] = 0\n  4056: u64 [a3 + 0x5e8] = a1\n  4060: a1 = s1 + 0x7ff\n  4064: a1 = a1 + 0x641\n  4068: u64 [a3 + 1520] = 0\n  4072: u64 [s1 + 0xd8] = a0\n  4076: ra = 0x28c\n  4080: jump @4\n      : @159 (gas: 9)\n  4083: u64 [a4 + 448] = 0\n  4087: u64 [a4 + 440] = 0\n  4091: u64 [a4 + 432] = 0\n  4095: u64 [a4 + 424] = 0\n  4099: a0 = s1 + 0x2000\n  4103: i32 a0 = a0 + 0x200\n  4107: ra = 0x92\n  4111: ecalli 15 // 'value_transferred'\n  4113: fallthrough\n      : @160 [@dyn 73] (gas: 3)\n  4114: a4 = s1 + 0x2058\n  4118: a5 = a4 + 0x100\n  4122: t0 = 148, jump @898\n      : @161 [@dyn 74] (gas: 1)\n  4128: jump @163 if a0 == 0\n      : @162 (gas: 1)\n  4131: jump @696\n      : @163 (gas: 3)\n  4134: a0 = u64 [s1 + 0xd8]\n  4138: a0 = i32 [a0]\n  4140: jump @165 if a0 >u 35\n      : @164 (gas: 1)\n  4144: jump @697\n      : @165 (gas: 7)\n  4147: u64 [a4 + 480] = 0\n  4151: u64 [a4 + 472] = 0\n  4155: u64 [a4 + 464] = 0\n  4159: u64 [a4 + 456] = 0x17\n  4164: a0 = s1 + 0x14c0\n  4168: a1 = s1 + 0x2220\n  4172: ra = 150, jump @6\n      : @166 [@dyn 75] (gas: 15)\n  4178: a0 = s1 + 0x1058\n  4182: a1 = u64 [a0 + 0x470]\n  4186: u64 [s1 + 0xd8] = a1\n  4190: a1 = u64 [a0 + 0x468]\n  4194: u64 [s1 + 0xd0] = a1\n  4198: a0 = u32 [a0 + 0x478]\n  4202: u64 [s1 + 0xc8] = a0\n  4206: a0 = 0x30190\n  4211: u64 [s1 + 0xc0] = a0\n  4215: i32 a0 = a0 + 0\n  4217: ra = 0x98\n  4221: ecalli 6 // 'caller'\n  4223: a2 = u64 [s1 + 0xc0]\n  4227: t0 = 0x9a\n  4231: jump @877\n      : @167 [@dyn 76] (gas: 2)\n  4234: a2 = u64 [s1 + 0xc0]\n  4238: t0 = 154, jump @877\n      : @168 [@dyn 77] (gas: 18)\n  4244: a2 = u64 [s1 + 0xc8]\n  4248: a1 = a1 ^ a2\n  4251: a2 = u64 [s1 + 0xd0]\n  4255: a0 = a0 ^ a2\n  4258: a0 = a0 | a1\n  4261: a1 = u64 [s1 + 0xd8]\n  4265: a1 = a1 ^ a3\n  4268: a0 = a0 | a1\n  4271: a0 = a0 <u 0x1\n  4274: a1 = s1 + 0x1058\n  4278: u64 [a1 + 1120] = 0\n  4282: u64 [a1 + 1112] = 0\n  4286: u64 [a1 + 0x448] = a0\n  4290: a0 = s1 + 0x14a0\n  4294: u64 [a1 + 1104] = 0\n  4298: ra = 0x9c\n  4302: t0 = 0x2de\n  4306: jump @886\n      : @169 [@dyn 78] (gas: 9)\n  4309: a0 = s1 + 0x2058\n  4313: u64 [a0 + 512] = 0\n  4317: u64 [a0 + 504] = 0\n  4321: u64 [a0 + 496] = 0\n  4325: a1 = a0\n  4327: u64 [a1 + 488] = 0x12\n  4332: a0 = s1 + 0x1480\n  4336: a1 = s1 + 0x2240\n  4340: ra = 158, jump @6\n      : @170 [@dyn 79] (gas: 3)\n  4346: t0 = 0xa0\n  4350: a3 = s1 + 0x1058\n  4354: fallthrough\n      : @171 [@dyn 80] (gas: 9)\n  4355: a4 = a3 + 0x400\n  4359: a0 = u64 [a4 + 0x38]\n  4362: a1 = u64 [a4 + 0x40]\n  4365: a2 = u64 [a4 + 0x30]\n  4368: a3 = u64 [a4 + 0x28]\n  4371: a1 = a1 | a2\n  4374: a0 = a0 | a3\n  4377: a0 = a0 | a1\n  4380: jump @173 if a0 != 0\n      : @172 (gas: 1)\n  4383: jump @698\n      : @173 (gas: 3)\n  4386: a0 = s1 + 0x1460\n  4390: a1 = 0x40\n  4393: ra = 162, jump @2\n      : @174 [@dyn 81] (gas: 14)\n  4399: a4 = s1 + 0x1058\n  4403: t0 = u64 [a4 + 0x420]\n  4407: a1 = a4 + 0x400\n  4411: a5 = u64 [a1 + 0x18]\n  4414: a3 = u64 [a1 + 0x10]\n  4417: a0 = u64 [a1 + 0x8]\n  4420: a2 = a3 | t0\n  4423: a1 = a0 | a5\n  4426: a1 = a1 | a2\n  4429: a1 = a1 >> 0x20\n  4432: a2 = a2 | a5\n  4435: a2 = a2 << 0x20\n  4438: a1 = a1 | a2\n  4441: jump @176 if a1 == 0\n      : @175 (gas: 1)\n  4444: jump @505\n      : @176 (gas: 11)\n  4447: u64 [a4 + 1016] = 0\n  4451: u64 [a4 + 1008] = 0\n  4455: u64 [a4 + 1000] = 0\n  4459: u64 [s1 + 0xd0] = a3\n  4463: a3 = 0x8c379a000000000\n  4473: a1 = s1 + 0x1440\n  4477: u64 [a4 + 0x400] = a3\n  4481: u64 [s1 + 0xd8] = a0\n  4485: u64 [s1 + 0xc8] = t0\n  4489: u64 [s1 + 0xc0] = a5\n  4493: ra = 164, jump @4\n      : @177 [@dyn 82] (gas: 5)\n  4499: a1 = u64 [s1 + 0xd8]\n  4503: a0 = u64 [s1 + 0xc8]\n  4507: a3 = u64 [s1 + 0xc0]\n  4511: a3 = a3 | a0\n  4514: t0 = 166, jump @873\n      : @178 [@dyn 83] (gas: 1)\n  4520: jump @180 if a0 != 0\n      : @179 (gas: 1)\n  4523: jump @505\n      : @180 (gas: 1)\n  4526: t0 = 168, jump @882\n      : @181 [@dyn 84] (gas: 8)\n  4532: u64 [a2 + 992] = 0\n  4536: u64 [a2 + 984] = 0\n  4540: u64 [a2 + 968] = 0x20\n  4545: a1 = s1 + 0x1420\n  4549: u64 [a2 + 976] = 0\n  4553: u64 [s1 + 0xc8] = a3\n  4557: u64 [s1 + 0xc0] = a4\n  4561: ra = 170, jump @4\n      : @182 [@dyn 85] (gas: 1)\n  4567: t0 = 172, jump @874\n      : @183 [@dyn 86] (gas: 1)\n  4573: jump @185 if a0 != 0\n      : @184 (gas: 1)\n  4576: jump @505\n      : @185 (gas: 1)\n  4579: t0 = 174, jump @896\n      : @186 [@dyn 87] (gas: 6)\n  4585: u64 [a3 + 960] = 0\n  4589: u64 [a3 + 952] = 0\n  4593: u64 [a3 + 936] = 0x10\n  4598: a1 = s1 + 0x1400\n  4602: u64 [a3 + 944] = 0\n  4606: ra = 176, jump @4\n      : @187 [@dyn 88] (gas: 1)\n  4612: t0 = 178, jump @875\n      : @188 [@dyn 89] (gas: 1)\n  4618: jump @190 if a0 != 0\n      : @189 (gas: 1)\n  4621: jump @505\n      : @190 (gas: 11)\n  4624: i32 a0 = a3 + 0x44\n  4627: a1 = u64 [0x20040]\n  4632: a2 = u64 [0x20048]\n  4637: a4 = s1 + 0x1058\n  4641: u64 [a4 + 0x3a0] = a1\n  4645: u64 [a4 + 912] = 0\n  4649: u64 [a4 + 0x398] = a2\n  4653: a1 = s1 + 0x13e0\n  4657: u64 [a4 + 904] = 0\n  4661: ra = 0x270\n  4665: jump @4\n      : @191 (gas: 8)\n  4668: u64 [a4 + 768] = 0\n  4672: u64 [a4 + 760] = 0\n  4676: u64 [a4 + 752] = 0\n  4680: u64 [a4 + 744] = 0\n  4684: a0 = s1 + 0x2000\n  4688: i32 a0 = a0 + 0x340\n  4692: ecalli 15 // 'value_transferred'\n  4694: fallthrough\n      : @192 (gas: 10)\n  4695: a4 = s1 + 0x2058\n  4699: a5 = a4 + 0x200\n  4703: a0 = u64 [a5 + 0xf8]\n  4707: a1 = u64 [a4 + 0x300]\n  4711: a2 = u64 [a5 + 0xf0]\n  4715: a3 = u64 [a5 + 0xe8]\n  4719: a1 = a1 | a2\n  4722: a0 = a0 | a3\n  4725: a0 = a0 | a1\n  4728: jump @194 if a0 == 0\n      : @193 (gas: 1)\n  4731: jump @700\n      : @194 (gas: 3)\n  4734: a0 = u64 [s1 + 0xd8]\n  4738: a0 = i32 [a0]\n  4740: jump @196 if a0 >u 3\n      : @195 (gas: 1)\n  4744: jump @701\n      : @196 (gas: 7)\n  4747: u64 [a4 + 800] = 0\n  4751: u64 [a4 + 792] = 0\n  4755: u64 [a4 + 784] = 0\n  4759: u64 [a4 + 776] = 0x12\n  4764: a0 = s1 + 0x16a0\n  4768: a1 = s1 + 0x2360\n  4772: ra = 180, jump @6\n      : @197 [@dyn 90] (gas: 3)\n  4778: t0 = 0xb6\n  4782: a3 = s1 + 0x1058\n  4786: fallthrough\n      : @198 [@dyn 91] (gas: 10)\n  4787: a4 = a3 + 0x600\n  4791: a0 = u64 [a4 + 0x60]\n  4794: a1 = u64 [a4 + 0x50]\n  4797: a2 = u64 [a4 + 0x48]\n  4800: a3 = u64 [a4 + 0x58]\n  4803: a0 = a0 | a1\n  4806: a1 = a2 ^ 0x10\n  4809: a1 = a1 | a3\n  4812: a0 = a0 | a1\n  4815: jump @200 if a0 == 0\n      : @199 (gas: 1)\n  4818: jump @500\n      : @200 (gas: 8)\n  4821: a1 = s1 + 0x2058\n  4825: u64 [a1 + 832] = 0\n  4829: u64 [a1 + 824] = 0\n  4833: u64 [a1 + 816] = 0\n  4837: u64 [a1 + 808] = 0x16\n  4842: a0 = s1 + 0x1680\n  4846: a1 = s1 + 0x2380\n  4850: ra = 184, jump @6\n      : @201 [@dyn 92] (gas: 3)\n  4856: a0 = s1 + 0x1058\n  4860: a0 = u8 [a0 + 0x628]\n  4864: jump @203 if a0 == 0\n      : @202 (gas: 1)\n  4867: jump @500\n      : @203 (gas: 8)\n  4870: a1 = s1 + 0x2058\n  4874: u64 [a1 + 864] = 0\n  4878: u64 [a1 + 856] = 0\n  4882: u64 [a1 + 848] = 0\n  4886: u64 [a1 + 840] = 0x15\n  4891: a0 = s1 + 0x1660\n  4895: a1 = s1 + 0x23a0\n  4899: ra = 186, jump @6\n      : @204 [@dyn 93] (gas: 14)\n  4905: a0 = s1 + 0x1058\n  4909: a2 = a0 + 0x600\n  4913: a1 = u64 [a2 + 0x8]\n  4916: u64 [s1 + 0xd0] = a1\n  4920: a1 = u64 [a2 + 0x10]\n  4923: u64 [s1 + 0xc8] = a1\n  4927: a1 = u64 [a2 + 0x18]\n  4930: u64 [s1 + 0xd8] = a1\n  4934: a0 = u64 [a2 + 0x20]\n  4937: u64 [s1 + 0xc0] = a0\n  4941: a0 = s1 + 0x2000\n  4945: i32 a0 = a0 + 0x3c0\n  4949: ecalli 1 // 'block_number'\n  4951: fallthrough\n      : @205 (gas: 37)\n  4952: t2 = s1 + 0x2058\n  4956: a2 = t2 + 0x300\n  4960: a0 = u64 [a2 + 0x80]\n  4964: a1 = u64 [a2 + 0x68]\n  4967: a5 = u64 [a2 + 0x70]\n  4970: t0 = u64 [t2 + 0x378]\n  4974: a3 = u64 [s1 + 0xc0]\n  4978: a2 = a0 ^ a3\n  4981: t1 = a3 <u a0\n  4984: a0 = u64 [s1 + 0xc8]\n  4988: a3 = a5 ^ a0\n  4991: a5 = a0 <u a5\n  4994: a4 = a5 ^ 0x1\n  4997: a0 = u64 [s1 + 0xd0]\n  5001: a1 = a0 <u a1\n  5004: a0 = a1 ^ 0x1\n  5007: a0 = a4 if a3 != 0\n  5010: ra = t1 ^ 0x1\n  5013: a1 = a5 if a3 != 0\n  5016: a4 = u64 [s1 + 0xd8]\n  5020: a3 = a4 <u t0\n  5023: a5 = a3 ^ 0x1\n  5026: a5 = ra if a2 != 0\n  5029: a4 = t0 ^ a4\n  5032: a3 = t1 if a2 != 0\n  5035: a2 = a2 | a4\n  5038: a0 = a5 if a2 != 0\n  5041: a1 = a3 if a2 != 0\n  5044: a2 = sp + 0xffffffffffffffe0\n  5047: a2 = a2 & 0xffffffffffffffe0\n  5050: sp = a2\n  5052: u64 [a2 + 24] = 0\n  5055: u64 [a2 + 16] = 0\n  5058: u64 [a2 + 8] = 0\n  5061: u64 [s1 + 0xd8] = a2\n  5065: u64 [a2] = a1\n  5067: jump @207 if a0 == 0\n      : @206 (gas: 1)\n  5070: jump @501\n      : @207 (gas: 7)\n  5073: u64 [t2 + 928] = 0\n  5077: u64 [t2 + 920] = 0\n  5081: u64 [t2 + 912] = 0\n  5085: u64 [t2 + 904] = 0x15\n  5090: a0 = s1 + 0x1640\n  5094: a1 = s1 + 0x23e0\n  5098: ra = 188, jump @6\n      : @208 [@dyn 94] (gas: 3)\n  5104: t0 = 0xbe\n  5108: a1 = s1 + 0x1058\n  5112: fallthrough\n      : @209 [@dyn 95] (gas: 13)\n  5113: a4 = a1 + 0x500\n  5117: a2 = u64 [a4 + 0xf0]\n  5121: a3 = u64 [a4 + 0xe8]\n  5125: a0 = u64 [a1 + 0x600]\n  5129: a1 = u64 [a4 + 0xf8]\n  5133: a4 = a2 + 0x1\n  5136: a5 = a3 <u 0xffffffffffffff01\n  5140: a5 = a5 ^ 0x1\n  5143: a5 = 0 if a4 != 0\n  5145: a4 = a1 & a0\n  5148: a4 = a4 + 0x1\n  5151: a5 = 0 if a4 != 0\n  5153: jump @211 if a5 == 0\n      : @210 (gas: 1)\n  5156: jump @767\n      : @211 (gas: 42)\n  5159: a4 = a3 + 0xff\n  5163: u64 [s1 + 0xc8] = a4\n  5167: a3 = a4 <u a3\n  5170: a4 = a2 + a3\n  5173: u64 [s1 + 0xb8] = a4\n  5177: a2 = a4 <u a2\n  5180: a2 = a3 if a3 == 0\n  5183: a2 = a2 + a1\n  5186: u64 [s1 + 0xd0] = a2\n  5190: a1 = a2 <u a1\n  5193: a0 = a0 + a1\n  5196: u64 [s1 + 0xc0] = a0\n  5200: a0 = s1 + 0x2000\n  5204: i32 a0 = a0 + 0x400\n  5208: ecalli 1 // 'block_number'\n  5210: a4 = s1 + 0x2058\n  5214: a0 = u64 [a4 + 0x3a8]\n  5218: a1 = u64 [a4 + 0x3b0]\n  5222: a2 = u64 [a4 + 0x3c0]\n  5226: a3 = u64 [s1 + 0xc8]\n  5230: a0 = a3 <u a0\n  5233: a5 = u64 [s1 + 0xb8]\n  5237: a3 = a1 ^ a5\n  5240: a1 = a5 <u a1\n  5243: a4 = u64 [a4 + 0x3b8]\n  5247: a1 = a0 if a3 == 0\n  5250: a3 = u64 [s1 + 0xc0]\n  5254: a0 = a2 ^ a3\n  5257: a2 = a3 <u a2\n  5260: a5 = u64 [s1 + 0xd0]\n  5264: a3 = a5 <u a4\n  5267: a2 = a3 if a0 == 0\n  5270: a3 = a4 ^ a5\n  5273: a0 = a0 | a3\n  5276: a1 = a2 if a0 != 0\n  5279: a0 = a1 ^ 0x1\n  5282: a1 = u64 [s1 + 0xd8]\n  5286: u64 [a1] = a0\n  5288: u64 [a1 + 24] = 0\n  5291: u64 [a1 + 16] = 0\n  5294: u64 [a1 + 8] = 0\n  5297: jump @501\n      : @212 (gas: 8)\n  5300: u64 [a3 + 1984] = 0\n  5304: u64 [a3 + 1976] = 0\n  5308: u64 [a3 + 1968] = 0\n  5312: u64 [a3 + 1960] = 0\n  5316: a0 = s1 + 0x2000\n  5320: i32 a0 = a0 + 0xfffffffffffff800\n  5324: ecalli 15 // 'value_transferred'\n  5326: fallthrough\n      : @213 (gas: 10)\n  5327: a3 = s1 + 0x1058\n  5331: a4 = a3 + 0x700\n  5335: a0 = u64 [a4 + 0xb8]\n  5339: a1 = u64 [a4 + 0xc0]\n  5343: a2 = u64 [a4 + 0xb0]\n  5347: a3 = u64 [a4 + 0xa8]\n  5351: a1 = a1 | a2\n  5354: a0 = a0 | a3\n  5357: a0 = a0 | a1\n  5360: jump @215 if a0 == 0\n      : @214 (gas: 1)\n  5363: jump @702\n      : @215 (gas: 3)\n  5366: a0 = u64 [s1 + 0xd8]\n  5370: a0 = i32 [a0]\n  5372: jump @217 if a0 >u 3\n      : @216 (gas: 1)\n  5376: jump @703\n      : @217 (gas: 3)\n  5379: a0 = s1 + 0x260\n  5383: a1 = 0x40\n  5386: ra = 192, jump @2\n      : @218 [@dyn 96] (gas: 20)\n  5392: a5 = s1 + 0x200\n  5396: a1 = u64 [a5 + 0x78]\n  5399: u64 [s1 + 0xd0] = a1\n  5403: a2 = u64 [a5 + 0x70]\n  5406: u64 [s1 + 0xc8] = a2\n  5410: a3 = u64 [a5 + 0x68]\n  5413: u64 [s1 + 0xc0] = a3\n  5417: a4 = u64 [a5 + 0x60]\n  5420: u64 [s1 + 0xb8] = a4\n  5424: u64 [s1 + 568] = 0\n  5428: u64 [s1 + 560] = 0\n  5432: u64 [s1 + 552] = 0\n  5436: u64 [a5 + 32] = 0x200\n  5441: u64 [a5 + 0x58] = a1\n  5444: u64 [a5 + 0x50] = a2\n  5447: u64 [a5 + 0x48] = a3\n  5450: a0 = s1 + 0x240\n  5454: a1 = s1 + 0x220\n  5458: u64 [a5 + 0x40] = a4\n  5461: ra = 194, jump @798\n      : @219 [@dyn 97] (gas: 12)\n  5467: a2 = u64 [s1 + 0xb8]\n  5471: a0 = u64 [s1 + 0xd0]\n  5475: a1 = u64 [s1 + 0xc0]\n  5479: a0 = a0 | a1\n  5482: a3 = u64 [s1 + 0xc8]\n  5486: a1 = a2 | a3\n  5489: a1 = a1 | a0\n  5492: a1 = a1 >> 0x20\n  5495: a0 = a0 | a3\n  5498: a0 = a0 << 0x20\n  5501: a0 = a0 | a1\n  5504: jump @221 if a0 == 0\n      : @220 (gas: 1)\n  5507: jump @505\n      : @221 (gas: 8)\n  5510: a0 = u64 [s1 + 0xd8]\n  5514: a0 = i32 [a0]\n  5516: u64 [s1 + 0xd8] = a0\n  5520: a0 = 0xffffffff\n  5530: u64 [s1 + 0x68] = a0\n  5533: a1 = 0x200\n  5537: a0 = a2\n  5539: ra = 196, jump @14\n      : @222 [@dyn 98] (gas: 7)\n  5545: i32 a0 = a0 + 0\n  5547: a1 = 0x200\n  5551: a2 = u64 [s1 + 0xd8]\n  5555: ecalli 3 // 'call_data_copy'\n  5557: a0 = s1 + 0x200\n  5561: a1 = 0x40\n  5564: ra = 198, jump @2\n      : @223 [@dyn 99] (gas: 33)\n  5570: a1 = s1 + 0x200\n  5574: a0 = u64 [a1 + 0x18]\n  5577: u64 [s1 + 0x60] = a0\n  5580: a0 = u64 [a1 + 0x10]\n  5583: u64 [s1 + 0x58] = a0\n  5586: ra = u64 [s1 + 0x208]\n  5590: a4 = u64 [a1]\n  5592: a0 = sp + 0xffffffffffffffe0\n  5595: a1 = a0 & 0xffffffffffffffe0\n  5598: sp = a1\n  5600: t0 = 0\n  5602: u64 [s1 + 184] = 0\n  5606: a3 = 0\n  5608: t2 = 0\n  5610: t1 = 0\n  5612: a2 = 0\n  5614: u64 [a1 + 24] = 0\n  5617: u64 [a1 + 16] = 0\n  5620: u64 [a1 + 8] = 0\n  5623: u64 [a1 + 0] = 0x2\n  5626: u64 [s1 + 0x40] = a4\n  5629: u64 [s1 + 0xd0] = a4\n  5633: a0 = ra\n  5635: u64 [s1 + 0x50] = a0\n  5638: u64 [s1 + 0xc8] = a0\n  5642: a4 = u64 [s1 + 0x58]\n  5645: u64 [s1 + 0xd8] = a4\n  5649: ra = 0x2\n  5652: a4 = u64 [s1 + 0x60]\n  5655: u64 [s1 + 0xc0] = a4\n  5659: a4 = 0\n  5661: u64 [s1 + 0x48] = a1\n  5664: fallthrough\n      : @224 (gas: 6)\n  5665: a0 = t2 <u 0x10\n  5668: a0 = 0 if t1 != 0\n  5670: u64 [s1 + 0xb0] = a2\n  5674: a2 = a2 | a4\n  5677: a0 = 0 if a2 != 0\n  5679: jump @226 if a0 != 0\n      : @225 (gas: 1)\n  5682: jump @533\n      : @226 (gas: 8)\n  5685: u64 [s1 + 0x98] = a4\n  5689: u64 [s1 + 0xa0] = t1\n  5693: u64 [s1 + 0xa8] = t2\n  5697: a0 = s1 + 0x140\n  5701: u64 [s1 + 0x90] = t0\n  5705: u64 [s1 + 0x88] = a3\n  5709: u64 [s1 + 0x80] = ra\n  5713: ra = 200, jump @6\n      : @227 [@dyn 100] (gas: 12)\n  5719: a2 = u64 [s1 + 0xd8]\n  5723: a0 = u64 [s1 + 0xd0]\n  5727: a3 = a0 | a2\n  5730: a1 = u64 [s1 + 0xc0]\n  5734: a4 = u64 [s1 + 0xc8]\n  5738: a1 = a1 | a4\n  5741: a3 = a3 | a1\n  5744: a3 = a3 >> 0x20\n  5747: a1 = a1 | a2\n  5750: a1 = a1 << 0x20\n  5753: a1 = a1 | a3\n  5756: jump @229 if a1 == 0\n      : @228 (gas: 1)\n  5759: jump @505\n      : @229 (gas: 17)\n  5762: u64 [s1 + 0xc8] = a4\n  5766: a5 = s1 + 0x100\n  5770: a4 = u64 [a5 + 0x50]\n  5773: a1 = u64 [a5 + 0x48]\n  5776: u64 [s1 + 0xd8] = a2\n  5780: a2 = u64 [a5 + 0x40]\n  5783: a3 = u64 [s1 + 0x68]\n  5786: a4 = a4 & a3\n  5789: a1 = a1 & 0xffffffffffffffff\n  5792: a2 = a2 & 0xffffffffffffffff\n  5795: u64 [s1 + 312] = 0\n  5799: u64 [a5 + 0x20] = a2\n  5802: u64 [a5 + 0x28] = a1\n  5805: a1 = s1 + 0x120\n  5809: u64 [a5 + 0x30] = a4\n  5812: u64 [s1 + 0xd0] = a0\n  5816: ra = 202, jump @4\n      : @230 [@dyn 101] (gas: 53)\n  5822: a1 = u64 [s1 + 0xd0]\n  5826: a0 = a1 + 0x20\n  5829: u64 [s1 + 0x78] = a0\n  5832: a2 = a0 <u a1\n  5835: a1 = u64 [s1 + 0xc8]\n  5839: a0 = a1 + a2\n  5842: u64 [s1 + 0x70] = a0\n  5845: a3 = a0 <u a1\n  5848: a3 = a2 if a2 == 0\n  5851: a0 = u64 [s1 + 0xd8]\n  5855: a2 = a0 + a3\n  5858: a3 = a2 <u a0\n  5861: a0 = u64 [s1 + 0xc0]\n  5865: a0 = a0 + a3\n  5868: u64 [s1 + 0xc0] = a0\n  5872: ra = u64 [s1 + 0x80]\n  5876: ra = ra + 0x1\n  5879: a3 = ra <u 0x1\n  5882: t0 = u64 [s1 + 0x90]\n  5886: t0 = t0 + a3\n  5889: a3 = ra | t0\n  5892: a3 = a3 <u 0x1\n  5895: a0 = u64 [s1 + 0xb8]\n  5899: a1 = a0 + a3\n  5902: a4 = a1 <u a0\n  5905: a3 = u64 [s1 + 0x88]\n  5909: a3 = a3 + a4\n  5912: t2 = u64 [s1 + 0xa8]\n  5916: t2 = t2 + 0x1\n  5919: a4 = t2 <u 0x1\n  5922: t1 = u64 [s1 + 0xa0]\n  5926: t1 = t1 + a4\n  5929: a4 = t2 | t1\n  5932: a4 = a4 <u 0x1\n  5935: a5 = u64 [s1 + 0xb0]\n  5939: a0 = a5 + a4\n  5942: a5 = a0 <u a5\n  5945: a4 = u64 [s1 + 0x98]\n  5949: a4 = a4 + a5\n  5952: a5 = u64 [s1 + 0x48]\n  5955: u64 [a5 + 0x8] = t0\n  5958: u64 [a5] = ra\n  5960: u64 [a5 + 0x10] = a1\n  5963: u64 [a5 + 0x18] = a3\n  5966: u64 [s1 + 0xb8] = a1\n  5970: a1 = u64 [s1 + 0x78]\n  5973: u64 [s1 + 0xd0] = a1\n  5977: a1 = u64 [s1 + 0x70]\n  5980: u64 [s1 + 0xc8] = a1\n  5984: u64 [s1 + 0xd8] = a2\n  5988: a2 = a0\n  5990: a1 = a5\n  5992: jump @224\n      : @231 (gas: 8)\n  5995: u64 [a2 + 1472] = 0\n  5999: u64 [a2 + 1464] = 0\n  6003: u64 [a2 + 1456] = 0\n  6007: u64 [a2 + 1448] = 0\n  6011: a0 = s1 + 0x2000\n  6015: i32 a0 = a0 + 0xfffffffffffffe00\n  6019: ecalli 15 // 'value_transferred'\n  6021: fallthrough\n      : @232 (gas: 10)\n  6022: a3 = s1 + 0x1858\n  6026: a4 = a3 + 0x500\n  6030: a0 = u64 [a4 + 0xb8]\n  6034: a1 = u64 [a4 + 0xc0]\n  6038: a2 = u64 [a4 + 0xb0]\n  6042: a3 = u64 [a4 + 0xa8]\n  6046: a1 = a1 | a2\n  6049: a0 = a0 | a3\n  6052: a0 = a0 | a1\n  6055: jump @234 if a0 == 0\n      : @233 (gas: 1)\n  6058: jump @704\n      : @234 (gas: 3)\n  6061: a0 = u64 [s1 + 0xd8]\n  6065: a0 = i32 [a0]\n  6067: jump @236 if a0 >u 35\n      : @235 (gas: 1)\n  6071: jump @705\n      : @236 (gas: 37)\n  6074: a0 = s1 + 0x2000\n  6078: i32 a0 = a0 + 0xfffffffffffffe20\n  6082: a1 = 0x4\n  6085: ecalli 4 // 'call_data_load'\n  6087: a0 = s1 + 0x1858\n  6091: a1 = a0 + 0x500\n  6095: a3 = u64 [a1 + 0xe0]\n  6099: a4 = u64 [a1 + 0xd8]\n  6103: a5 = u64 [a1 + 0xd0]\n  6107: a2 = u64 [a1 + 0xc8]\n  6111: a0 = a3 >u 0\n  6113: a1 = a4 >u 0\n  6115: a1 = a0 if a3 != 0\n  6118: t0 = a5 >u 0\n  6120: u64 [s1 + 0xc0] = a2\n  6124: a2 = a2 <u 0x10\n  6127: a0 = a2 ^ 0x1\n  6130: a0 = t0 if a5 != 0\n  6133: u64 [s1 + 0xd8] = a3\n  6137: u64 [s1 + 0xd0] = a4\n  6141: a3 = a3 | a4\n  6144: a0 = a1 if a3 != 0\n  6147: u64 [s1 + 0xb8] = a0\n  6151: u64 [s1 + 0xc8] = a5\n  6155: a2 = 0 if a5 != 0\n  6157: a2 = 0 if a3 != 0\n  6159: a1 = s1 + 0x7ff\n  6163: a1 = a1 + 0x59\n  6166: u64 [a1 + 1152] = 0\n  6170: u64 [a1 + 1144] = 0\n  6174: u64 [a1 + 0x468] = a2\n  6178: a0 = s1 + 0x7ff\n  6182: a0 = a0 + 0x4c1\n  6186: u64 [a1 + 1136] = 0\n  6190: ra = 0xcc\n  6194: t0 = 0x2c2\n  6198: jump @886\n      : @237 [@dyn 102] (gas: 2)\n  6201: a0 = u64 [s1 + 0xb8]\n  6205: jump @239 if a0 == 0\n      : @238 (gas: 1)\n  6208: jump @706\n      : @239 (gas: 22)\n  6211: a1 = u64 [s1 + 0xc0]\n  6215: a0 = a1 + 0x2\n  6218: a1 = a0 <u a1\n  6221: a3 = u64 [s1 + 0xc8]\n  6225: a2 = a3 + a1\n  6228: a3 = a2 <u a3\n  6231: a3 = a1 if a1 == 0\n  6234: a1 = u64 [s1 + 0xd0]\n  6238: a3 = a3 + a1\n  6241: a1 = a3 <u a1\n  6244: a4 = u64 [s1 + 0xd8]\n  6248: a1 = a1 + a4\n  6251: a4 = s1 + 0x1858\n  6255: a5 = a4 + 0x500\n  6259: u64 [a5 + 0xe8] = a0\n  6263: u64 [a5 + 0xf0] = a2\n  6267: u64 [a5 + 0xf8] = a3\n  6271: u64 [a4 + 0x600] = a1\n  6275: a0 = s1 + 0x7ff\n  6279: a0 = a0 + 0x461\n  6283: a1 = s1 + 0x1e40\n  6287: ra = 206, jump @6\n      : @240 [@dyn 103] (gas: 13)\n  6293: a1 = s1 + 0x7ff\n  6297: a1 = a1 + 0x59\n  6300: a2 = a1 + 0x400\n  6304: a0 = u64 [a2 + 0x18]\n  6307: u64 [s1 + 0xc8] = a0\n  6311: a0 = u64 [a2 + 0x10]\n  6314: u64 [s1 + 0xd8] = a0\n  6318: a0 = u64 [a2 + 0x8]\n  6321: u64 [s1 + 0xd0] = a0\n  6325: a0 = s1 + 0x7ff\n  6329: a0 = a0 + 0x441\n  6333: a1 = 0x40\n  6336: ra = 208, jump @2\n      : @241 [@dyn 104] (gas: 8)\n  6342: a4 = s1 + 0x7ff\n  6346: a4 = a4 + 0x59\n  6349: a3 = u64 [a4 + 0x400]\n  6353: a5 = a4 + 0x300\n  6357: a1 = u64 [a5 + 0xf8]\n  6361: a2 = u64 [a5 + 0xf0]\n  6365: a0 = u64 [a5 + 0xe8]\n  6369: t0 = 210, jump @883\n      : @242 [@dyn 105] (gas: 1)\n  6375: jump @244 if a1 == 0\n      : @243 (gas: 1)\n  6378: jump @505\n      : @244 (gas: 15)\n  6381: a1 = u64 [s1 + 0xc8]\n  6385: a1 = a1 << 0x20\n  6388: a3 = a1 >> 0x20\n  6391: u64 [a4 + 992] = 0\n  6395: a1 = u64 [s1 + 0xd0]\n  6399: a2 = a4 + 0x300\n  6403: u64 [a2 + 0xc8] = a1\n  6407: a1 = u64 [s1 + 0xd8]\n  6411: u64 [a2 + 0xd0] = a1\n  6415: a1 = s1 + 0x7ff\n  6419: a1 = a1 + 0x421\n  6423: u64 [a2 + 0xd8] = a3\n  6427: u64 [s1 + 0xd8] = a0\n  6431: ra = 0x28c\n  6435: jump @4\n      : @245 (gas: 9)\n  6438: u64 [a4 + 1056] = 0\n  6442: u64 [a4 + 1048] = 0\n  6446: u64 [a4 + 1040] = 0\n  6450: u64 [a4 + 1032] = 0\n  6454: a0 = s1 + 0x2000\n  6458: i32 a0 = a0 + 0x460\n  6462: ra = 0xd4\n  6466: ecalli 15 // 'value_transferred'\n  6468: fallthrough\n      : @246 [@dyn 106] (gas: 3)\n  6469: a4 = s1 + 0x2058\n  6473: a5 = a4 + 0x400\n  6477: t0 = 214, jump @899\n      : @247 [@dyn 107] (gas: 1)\n  6483: jump @249 if a0 == 0\n      : @248 (gas: 1)\n  6486: jump @711\n      : @249 (gas: 3)\n  6489: a0 = u64 [s1 + 0xd8]\n  6493: a0 = i32 [a0]\n  6495: jump @251 if a0 >u 3\n      : @250 (gas: 1)\n  6499: jump @712\n      : @251 (gas: 7)\n  6502: u64 [a4 + 1088] = 0\n  6506: u64 [a4 + 1080] = 0\n  6510: u64 [a4 + 1072] = 0\n  6514: u64 [a4 + 1064] = 0x1\n  6519: a0 = s1 + 0x1760\n  6523: a1 = s1 + 0x2480\n  6527: ra = 216, jump @6\n      : @252 [@dyn 108] (gas: 3)\n  6533: t0 = 0xda\n  6537: a1 = s1 + 0x1058\n  6541: fallthrough\n      : @253 [@dyn 109] (gas: 12)\n  6542: a2 = a1 + 0x700\n  6546: a0 = u64 [a2 + 0x20]\n  6549: u64 [s1 + 0xd8] = a0\n  6553: a0 = u64 [a2 + 0x18]\n  6556: u64 [s1 + 0xd0] = a0\n  6560: a0 = u64 [a2 + 0x10]\n  6563: u64 [s1 + 0xc8] = a0\n  6567: a0 = u64 [a2 + 0x8]\n  6570: u64 [s1 + 0xc0] = a0\n  6574: a0 = s1 + 0x1740\n  6578: a1 = 0x40\n  6581: ra = 220, jump @2\n      : @254 [@dyn 110] (gas: 7)\n  6587: a3 = s1 + 0x1058\n  6591: a0 = u64 [a3 + 0x700]\n  6595: a5 = a3 + 0x600\n  6599: a1 = u64 [a5 + 0xf8]\n  6603: a2 = u64 [a5 + 0xf0]\n  6607: a4 = u64 [a5 + 0xe8]\n  6611: t0 = 222, jump @880\n      : @255 [@dyn 111] (gas: 1)\n  6617: jump @257 if a0 == 0\n      : @256 (gas: 1)\n  6620: jump @505\n      : @257 (gas: 14)\n  6623: a0 = u64 [s1 + 0xc0]\n  6627: a2 = a3 + 0x600\n  6631: u64 [a2 + 0xc8] = a0\n  6635: a0 = u64 [s1 + 0xc8]\n  6639: u64 [a2 + 0xd0] = a0\n  6643: a0 = u64 [s1 + 0xd0]\n  6647: u64 [a2 + 0xd8] = a0\n  6651: a1 = s1 + 0x1720\n  6655: a0 = u64 [s1 + 0xd8]\n  6659: u64 [a2 + 0xe0] = a0\n  6663: a0 = a4\n  6665: u64 [s1 + 0xd8] = a4\n  6669: ra = 0x28c\n  6673: jump @4\n      : @258 (gas: 9)\n  6676: u64 [a2 + 1120] = 0\n  6680: u64 [a2 + 1112] = 0\n  6684: u64 [a2 + 1104] = 0\n  6688: u64 [a2 + 1096] = 0\n  6692: a0 = s1 + 0x2000\n  6696: i32 a0 = a0 + 0xfffffffffffffca0\n  6700: ra = 0xe0\n  6704: ecalli 15 // 'value_transferred'\n  6706: fallthrough\n      : @259 [@dyn 112] (gas: 3)\n  6707: a3 = s1 + 0x1858\n  6711: a4 = a3 + 0x400\n  6715: t0 = 226, jump @894\n      : @260 [@dyn 113] (gas: 1)\n  6721: jump @262 if a0 == 0\n      : @261 (gas: 1)\n  6724: jump @713\n      : @262 (gas: 3)\n  6727: a0 = u64 [s1 + 0xd8]\n  6731: a0 = i32 [a0]\n  6733: jump @264 if a0 >u 35\n      : @263 (gas: 1)\n  6737: jump @714\n      : @264 (gas: 5)\n  6740: a0 = s1 + 0x2000\n  6744: i32 a0 = a0 + 0xfffffffffffffcc0\n  6748: a1 = 0x4\n  6751: ecalli 4 // 'call_data_load'\n  6753: fallthrough\n      : @265 (gas: 11)\n  6754: a0 = s1 + 0x1858\n  6758: t0 = u64 [a0 + 0x480]\n  6762: a4 = a0 + 0x400\n  6766: a1 = u64 [a4 + 0x78]\n  6769: a3 = u64 [a4 + 0x68]\n  6772: a2 = u64 [a4 + 0x70]\n  6775: a4 = a1 | t0\n  6778: a5 = a3 <u 0x10\n  6781: a5 = 0 if a2 != 0\n  6783: a5 = 0 if a4 != 0\n  6785: jump @267 if a5 != 0\n      : @266 (gas: 1)\n  6788: jump @715\n      : @267 (gas: 17)\n  6791: a4 = a3 + 0x2\n  6794: a3 = a4 <u a3\n  6797: a5 = a2 + a3\n  6800: a2 = a5 <u a2\n  6803: a2 = a3 if a3 == 0\n  6806: a2 = a2 + a1\n  6809: a1 = a2 <u a1\n  6812: a1 = a1 + t0\n  6815: a3 = a0 + 0x400\n  6819: u64 [a3 + 0x88] = a4\n  6823: u64 [a3 + 0x90] = a5\n  6827: u64 [a3 + 0x98] = a2\n  6831: u64 [a3 + 0xa0] = a1\n  6835: a0 = s1 + 0x7ff\n  6839: a0 = a0 + 0x281\n  6843: a1 = s1 + 0x1ce0\n  6847: ra = 228, jump @6\n      : @268 [@dyn 114] (gas: 13)\n  6853: a1 = s1 + 0x7ff\n  6857: a1 = a1 + 0x59\n  6860: a2 = a1 + 0x200\n  6864: a0 = u64 [a2 + 0x38]\n  6867: u64 [s1 + 0xc8] = a0\n  6871: a0 = u64 [a2 + 0x30]\n  6874: u64 [s1 + 0xd8] = a0\n  6878: a0 = u64 [a2 + 0x28]\n  6881: u64 [s1 + 0xd0] = a0\n  6885: a0 = s1 + 0x7ff\n  6889: a0 = a0 + 0x261\n  6893: a1 = 0x40\n  6896: ra = 230, jump @2\n      : @269 [@dyn 115] (gas: 8)\n  6902: a3 = s1 + 0x7ff\n  6906: a3 = a3 + 0x59\n  6909: a5 = a3 + 0x200\n  6913: a4 = u64 [a5 + 0x20]\n  6916: a1 = u64 [a5 + 0x18]\n  6919: a2 = u64 [a5 + 0x10]\n  6922: a0 = u64 [a5 + 0x8]\n  6925: t0 = 232, jump @876\n      : @270 [@dyn 116] (gas: 1)\n  6931: jump @272 if a1 == 0\n      : @271 (gas: 1)\n  6934: jump @505\n      : @272 (gas: 15)\n  6937: a1 = u64 [s1 + 0xc8]\n  6941: a1 = a1 << 0x20\n  6944: a2 = a1 >> 0x20\n  6947: u64 [a3 + 512] = 0\n  6951: a1 = u64 [s1 + 0xd0]\n  6955: a4 = a3 + 0x100\n  6959: u64 [a4 + 0xe8] = a1\n  6963: a1 = u64 [s1 + 0xd8]\n  6967: u64 [a4 + 0xf0] = a1\n  6971: a1 = s1 + 0x7ff\n  6975: a1 = a1 + 0x241\n  6979: u64 [a4 + 0xf8] = a2\n  6983: u64 [s1 + 0xd8] = a0\n  6987: ra = 0x28c\n  6991: jump @4\n      : @273 (gas: 9)\n  6994: u64 [a2 + 1632] = 0\n  6998: u64 [a2 + 1624] = 0\n  7002: u64 [a2 + 1616] = 0\n  7006: u64 [a2 + 1608] = 0\n  7010: a0 = s1 + 0x2000\n  7014: i32 a0 = a0 + 0xfffffffffffffea0\n  7018: ra = 0xea\n  7022: ecalli 15 // 'value_transferred'\n  7024: fallthrough\n      : @274 [@dyn 117] (gas: 3)\n  7025: a3 = s1 + 0x1858\n  7029: a4 = a3 + 0x600\n  7033: t0 = 236, jump @894\n      : @275 [@dyn 118] (gas: 1)\n  7039: jump @277 if a0 == 0\n      : @276 (gas: 1)\n  7042: jump @716\n      : @277 (gas: 3)\n  7045: a0 = u64 [s1 + 0xd8]\n  7049: a0 = i32 [a0]\n  7051: jump @279 if a0 >u 35\n      : @278 (gas: 1)\n  7055: jump @717\n      : @279 (gas: 5)\n  7058: a0 = s1 + 0x2000\n  7062: i32 a0 = a0 + 0xfffffffffffffec0\n  7066: a1 = 0x4\n  7069: ecalli 4 // 'call_data_load'\n  7071: fallthrough\n      : @280 (gas: 13)\n  7072: a2 = s1 + 0x1858\n  7076: a1 = u64 [a2 + 0x678]\n  7080: a3 = u64 [a2 + 0x680]\n  7084: a0 = 0x100000000\n  7094: a0 = a0 ^ a1\n  7097: a0 = a0 | a3\n  7100: u64 [s1 + 0xd8] = a1\n  7104: a1 = a1 >> 0x20\n  7107: a1 = a1 <u 0x1\n  7110: u64 [s1 + 0xd0] = a3\n  7114: a1 = 0 if a3 != 0\n  7116: a1 = 0 if a0 == 0\n  7118: jump @282 if a1 != 0\n      : @281 (gas: 1)\n  7121: jump @718\n      : @282 (gas: 13)\n  7124: a1 = a2 + 0x600\n  7128: a0 = u64 [a1 + 0x70]\n  7131: u64 [s1 + 0xc0] = a0\n  7135: a0 = u64 [a1 + 0x68]\n  7138: u64 [s1 + 0xc8] = a0\n  7142: u64 [a2 + 1696] = 0\n  7146: u64 [a2 + 1688] = 0\n  7150: u64 [a2 + 1680] = 0\n  7154: u64 [a1 + 136] = 0x17\n  7159: a0 = s1 + 0x7ff\n  7163: a0 = a0 + 0x621\n  7167: a1 = s1 + 0x1ee0\n  7171: ra = 238, jump @6\n      : @283 [@dyn 119] (gas: 16)\n  7177: a0 = s1 + 0x7ff\n  7181: a0 = a0 + 0x59\n  7184: a1 = u64 [a0 + 0x5d0]\n  7188: u64 [s1 + 0xb8] = a1\n  7192: a1 = u64 [a0 + 0x5c8]\n  7196: u64 [s1 + 0xb0] = a1\n  7200: a0 = u32 [a0 + 0x5d8]\n  7204: u64 [s1 + 0xa8] = a0\n  7208: a0 = 0x30190\n  7213: u64 [s1 + 0xa0] = a0\n  7217: i32 a0 = a0 + 0\n  7219: ra = 0xf0\n  7223: ecalli 6 // 'caller'\n  7225: a2 = u64 [s1 + 0xa0]\n  7229: t0 = 0xf2\n  7233: jump @877\n      : @284 [@dyn 120] (gas: 2)\n  7236: a2 = u64 [s1 + 0xa0]\n  7240: t0 = 242, jump @877\n      : @285 [@dyn 121] (gas: 20)\n  7246: a2 = u64 [s1 + 0xa8]\n  7250: a1 = a1 ^ a2\n  7253: a2 = u64 [s1 + 0xb0]\n  7257: a0 = a0 ^ a2\n  7260: a0 = a0 | a1\n  7263: a1 = u64 [s1 + 0xb8]\n  7267: a1 = a1 ^ a3\n  7270: a0 = a0 | a1\n  7273: a0 = a0 <u 0x1\n  7276: a1 = s1 + 0x7ff\n  7280: a1 = a1 + 0x59\n  7283: u64 [a1 + 1472] = 0\n  7287: u64 [a1 + 1464] = 0\n  7291: u64 [a1 + 0x5a8] = a0\n  7295: a0 = s1 + 0x7ff\n  7299: a0 = a0 + 0x601\n  7303: u64 [a1 + 1456] = 0\n  7307: ra = 0xf4\n  7311: t0 = 0x2de\n  7315: jump @886\n      : @286 [@dyn 122] (gas: 8)\n  7318: a0 = u64 [s1 + 0xd8]\n  7322: a1 = u64 [s1 + 0xc8]\n  7326: a0 = a0 | a1\n  7329: a1 = u64 [s1 + 0xd0]\n  7333: a2 = u64 [s1 + 0xc0]\n  7337: a1 = a1 | a2\n  7340: a0 = a0 | a1\n  7343: jump @288 if a0 == 0\n      : @287 (gas: 1)\n  7346: jump @719\n      : @288 (gas: 4)\n  7349: a0 = s1 + 0x7ff\n  7353: a0 = a0 + 0x5c1\n  7357: a1 = 0x40\n  7360: ra = 246, jump @2\n      : @289 [@dyn 123] (gas: 15)\n  7366: a4 = s1 + 0x7ff\n  7370: a4 = a4 + 0x59\n  7373: t0 = u64 [a4 + 0x580]\n  7377: a1 = a4 + 0x500\n  7381: a5 = u64 [a1 + 0x78]\n  7384: a3 = u64 [a1 + 0x70]\n  7387: a0 = u64 [a1 + 0x68]\n  7390: a2 = a3 | t0\n  7393: a1 = a0 | a5\n  7396: a1 = a1 | a2\n  7399: a1 = a1 >> 0x20\n  7402: a2 = a2 | a5\n  7405: a2 = a2 << 0x20\n  7408: a1 = a1 | a2\n  7411: jump @291 if a1 == 0\n      : @290 (gas: 1)\n  7414: jump @505\n      : @291 (gas: 12)\n  7417: u64 [a4 + 1368] = 0\n  7421: u64 [a4 + 1360] = 0\n  7425: u64 [a4 + 1352] = 0\n  7429: u64 [s1 + 0xd0] = a3\n  7433: a3 = 0x8c379a000000000\n  7443: a1 = s1 + 0x7ff\n  7447: a1 = a1 + 0x5a1\n  7451: u64 [a4 + 0x560] = a3\n  7455: u64 [s1 + 0xd8] = a0\n  7459: u64 [s1 + 0xc8] = t0\n  7463: u64 [s1 + 0xc0] = a5\n  7467: ra = 248, jump @4\n      : @292 [@dyn 124] (gas: 5)\n  7473: a1 = u64 [s1 + 0xd8]\n  7477: a0 = u64 [s1 + 0xc8]\n  7481: a3 = u64 [s1 + 0xc0]\n  7485: a3 = a3 | a0\n  7488: t0 = 250, jump @873\n      : @293 [@dyn 125] (gas: 1)\n  7494: jump @295 if a0 != 0\n      : @294 (gas: 1)\n  7497: jump @505\n      : @295 (gas: 12)\n  7500: i32 a0 = a1 + 0x4\n  7503: a2 = s1 + 0x7ff\n  7507: a2 = a2 + 0x59\n  7510: u64 [a2 + 1344] = 0\n  7514: u64 [a2 + 1336] = 0\n  7518: u64 [a2 + 1320] = 0x20\n  7523: a1 = s1 + 0x7ff\n  7527: a1 = a1 + 0x581\n  7531: u64 [a2 + 1328] = 0\n  7535: u64 [s1 + 0xc8] = a3\n  7539: u64 [s1 + 0xc0] = a4\n  7543: ra = 252, jump @4\n      : @296 [@dyn 126] (gas: 1)\n  7549: t0 = 254, jump @874\n      : @297 [@dyn 127] (gas: 1)\n  7555: jump @299 if a0 != 0\n      : @298 (gas: 1)\n  7558: jump @505\n      : @299 (gas: 10)\n  7561: i32 a0 = a1 + 0x24\n  7564: a3 = s1 + 0x7ff\n  7568: a3 = a3 + 0x59\n  7571: u64 [a3 + 1312] = 0\n  7575: u64 [a3 + 1304] = 0\n  7579: u64 [a3 + 1288] = 0xe\n  7584: a1 = s1 + 0x7ff\n  7588: a1 = a1 + 0x561\n  7592: u64 [a3 + 1296] = 0\n  7596: ra = 256, jump @4\n      : @300 [@dyn 128] (gas: 1)\n  7602: t0 = 258, jump @875\n      : @301 [@dyn 129] (gas: 1)\n  7608: jump @303 if a0 != 0\n      : @302 (gas: 1)\n  7611: jump @505\n      : @303 (gas: 13)\n  7614: i32 a0 = a3 + 0x44\n  7617: a1 = u64 [0x200a0]\n  7622: a2 = u64 [0x200a8]\n  7627: a4 = s1 + 0x7ff\n  7631: a4 = a4 + 0x59\n  7634: u64 [a4 + 0x500] = a1\n  7638: u64 [a4 + 1264] = 0\n  7642: u64 [a4 + 0x4f8] = a2\n  7646: a1 = s1 + 0x7ff\n  7650: a1 = a1 + 0x541\n  7654: u64 [a4 + 1256] = 0\n  7658: ra = 0x270\n  7662: jump @4\n      : @304 (gas: 8)\n  7665: u64 [a4 + 640] = 0\n  7669: u64 [a4 + 632] = 0\n  7673: u64 [a4 + 624] = 0\n  7677: u64 [a4 + 616] = 0\n  7681: a0 = s1 + 0x2000\n  7685: i32 a0 = a0 + 0x2c0\n  7689: ecalli 15 // 'value_transferred'\n  7691: fallthrough\n      : @305 (gas: 10)\n  7692: a3 = s1 + 0x2058\n  7696: a4 = a3 + 0x200\n  7700: a0 = u64 [a4 + 0x78]\n  7703: a1 = u64 [a4 + 0x80]\n  7707: a2 = u64 [a4 + 0x70]\n  7710: a3 = u64 [a4 + 0x68]\n  7713: a1 = a1 | a2\n  7716: a0 = a0 | a3\n  7719: a0 = a0 | a1\n  7722: jump @307 if a0 == 0\n      : @306 (gas: 1)\n  7725: jump @722\n      : @307 (gas: 3)\n  7728: a0 = u64 [s1 + 0xd8]\n  7732: a0 = i32 [a0]\n  7734: jump @309 if a0 >u 35\n      : @308 (gas: 1)\n  7738: jump @723\n      : @309 (gas: 29)\n  7741: a0 = sp + 0xffffffffffffffe0\n  7744: a0 = a0 & 0xffffffffffffffe0\n  7747: u64 [s1 + 0xd8] = a0\n  7751: sp = a0\n  7753: a0 = s1 + 0x2000\n  7757: i32 a0 = a0 + 0x2e0\n  7761: a1 = 0x4\n  7764: ecalli 4 // 'call_data_load'\n  7766: a1 = s1 + 0x2058\n  7770: a2 = u64 [a1 + 0x2a0]\n  7774: u64 [s1 + 0xc8] = a2\n  7778: a3 = u64 [a1 + 0x298]\n  7782: u64 [s1 + 0xc0] = a3\n  7786: a0 = u64 [a1 + 0x290]\n  7790: u64 [s1 + 0xd0] = a0\n  7794: a4 = u64 [a1 + 0x288]\n  7798: u64 [s1 + 0xb8] = a4\n  7802: a5 = u64 [s1 + 0xd8]\n  7806: u64 [a5 + 0x18] = a2\n  7809: u64 [a5 + 0x10] = a3\n  7812: u64 [a5 + 0x8] = a0\n  7815: u64 [a5] = a4\n  7817: u64 [a1 + 704] = 0\n  7821: u64 [a1 + 696] = 0\n  7825: u64 [a1 + 688] = 0\n  7829: u64 [a1 + 680] = 0x17\n  7834: a0 = s1 + 0x15a0\n  7838: a1 = s1 + 0x2300\n  7842: ra = 260, jump @6\n      : @310 [@dyn 130] (gas: 15)\n  7848: a0 = s1 + 0x1058\n  7852: a1 = u64 [a0 + 0x550]\n  7856: u64 [s1 + 0xb0] = a1\n  7860: a1 = u64 [a0 + 0x548]\n  7864: u64 [s1 + 0xa8] = a1\n  7868: a0 = u32 [a0 + 0x558]\n  7872: u64 [s1 + 0xa0] = a0\n  7876: a0 = 0x30190\n  7881: u64 [s1 + 0x98] = a0\n  7885: i32 a0 = a0 + 0\n  7887: ra = 0x106\n  7891: ecalli 6 // 'caller'\n  7893: a2 = u64 [s1 + 0x98]\n  7897: t0 = 0x108\n  7901: jump @877\n      : @311 [@dyn 131] (gas: 2)\n  7904: a2 = u64 [s1 + 0x98]\n  7908: t0 = 264, jump @877\n      : @312 [@dyn 132] (gas: 18)\n  7914: a2 = u64 [s1 + 0xa0]\n  7918: a1 = a1 ^ a2\n  7921: a2 = u64 [s1 + 0xa8]\n  7925: a0 = a0 ^ a2\n  7928: a0 = a0 | a1\n  7931: a1 = u64 [s1 + 0xb0]\n  7935: a1 = a1 ^ a3\n  7938: a0 = a0 | a1\n  7941: a0 = a0 <u 0x1\n  7944: a1 = s1 + 0x1058\n  7948: u64 [a1 + 1344] = 0\n  7952: u64 [a1 + 1336] = 0\n  7956: u64 [a1 + 0x528] = a0\n  7960: a0 = s1 + 0x1580\n  7964: u64 [a1 + 1328] = 0\n  7968: ra = 0x10a\n  7972: t0 = 0x2de\n  7976: jump @886\n      : @313 [@dyn 133] (gas: 9)\n  7979: a0 = u64 [s1 + 0xc8]\n  7983: a1 = u64 [s1 + 0xc0]\n  7987: a0 = a0 | a1\n  7990: a1 = u64 [s1 + 0xb8]\n  7994: a1 = a1 <u 0x7d1\n  7998: a2 = u64 [s1 + 0xd0]\n  8002: a1 = 0 if a2 != 0\n  8004: a1 = 0 if a0 != 0\n  8006: jump @315 if a1 == 0\n      : @314 (gas: 1)\n  8009: jump @724\n      : @315 (gas: 3)\n  8012: a0 = s1 + 0x1560\n  8016: a1 = 0x40\n  8019: ra = 268, jump @2\n      : @316 [@dyn 134] (gas: 14)\n  8025: a4 = s1 + 0x1058\n  8029: t0 = u64 [a4 + 0x520]\n  8033: a1 = a4 + 0x500\n  8037: a5 = u64 [a1 + 0x18]\n  8040: a3 = u64 [a1 + 0x10]\n  8043: a0 = u64 [a1 + 0x8]\n  8046: a2 = a3 | t0\n  8049: a1 = a0 | a5\n  8052: a1 = a1 | a2\n  8055: a1 = a1 >> 0x20\n  8058: a2 = a2 | a5\n  8061: a2 = a2 << 0x20\n  8064: a1 = a1 | a2\n  8067: jump @318 if a1 == 0\n      : @317 (gas: 1)\n  8070: jump @505\n      : @318 (gas: 11)\n  8073: u64 [a4 + 1272] = 0\n  8077: u64 [a4 + 1264] = 0\n  8081: u64 [a4 + 1256] = 0\n  8085: u64 [s1 + 0xd0] = a3\n  8089: a3 = 0x8c379a000000000\n  8099: a1 = s1 + 0x1540\n  8103: u64 [a4 + 0x500] = a3\n  8107: u64 [s1 + 0xd8] = a0\n  8111: u64 [s1 + 0xc8] = t0\n  8115: u64 [s1 + 0xc0] = a5\n  8119: ra = 270, jump @4\n      : @319 [@dyn 135] (gas: 5)\n  8125: a1 = u64 [s1 + 0xd8]\n  8129: a0 = u64 [s1 + 0xc8]\n  8133: a3 = u64 [s1 + 0xc0]\n  8137: a3 = a3 | a0\n  8140: t0 = 272, jump @873\n      : @320 [@dyn 136] (gas: 1)\n  8146: jump @322 if a0 != 0\n      : @321 (gas: 1)\n  8149: jump @505\n      : @322 (gas: 1)\n  8152: t0 = 274, jump @882\n      : @323 [@dyn 137] (gas: 8)\n  8158: u64 [a2 + 1248] = 0\n  8162: u64 [a2 + 1240] = 0\n  8166: u64 [a2 + 1224] = 0x20\n  8171: a1 = s1 + 0x1520\n  8175: u64 [a2 + 1232] = 0\n  8179: u64 [s1 + 0xc8] = a3\n  8183: u64 [s1 + 0xc0] = a4\n  8187: ra = 276, jump @4\n      : @324 [@dyn 138] (gas: 1)\n  8193: t0 = 278, jump @874\n      : @325 [@dyn 139] (gas: 1)\n  8199: jump @327 if a0 != 0\n      : @326 (gas: 1)\n  8202: jump @505\n      : @327 (gas: 1)\n  8205: t0 = 280, jump @896\n      : @328 [@dyn 140] (gas: 6)\n  8211: u64 [a3 + 1216] = 0\n  8215: u64 [a3 + 1208] = 0\n  8219: u64 [a3 + 1192] = 0xc\n  8224: a1 = s1 + 0x1500\n  8228: u64 [a3 + 1200] = 0\n  8232: ra = 282, jump @4\n      : @329 [@dyn 141] (gas: 4)\n  8238: a2 = u64 [s1 + 0xd8]\n  8242: a0 = 0xffffffbc\n  8252: a0 = a2 <u a0\n  8255: t0 = 284, jump @878\n      : @330 [@dyn 142] (gas: 1)\n  8261: jump @332 if a0 != 0\n      : @331 (gas: 1)\n  8264: jump @505\n      : @332 (gas: 11)\n  8267: i32 a0 = a2 + 0x44\n  8270: a1 = u64 [0x20038]\n  8275: a3 = s1 + 0x1058\n  8279: u64 [a3 + 1168] = 0\n  8283: u64 [a3 + 0x4a0] = a1\n  8287: a1 = 0x6869676800000000\n  8297: u64 [a3 + 0x498] = a1\n  8301: a1 = s1 + 0x14e0\n  8305: u64 [a3 + 1160] = 0\n  8309: ra = 0x270\n  8313: jump @4\n      : @333 (gas: 9)\n  8316: u64 [a2 + 1568] = 0\n  8320: u64 [a2 + 1560] = 0\n  8324: u64 [a2 + 1552] = 0\n  8328: u64 [a2 + 1544] = 0\n  8332: a0 = s1 + 0x2000\n  8336: i32 a0 = a0 + 0xfffffffffffffe60\n  8340: ra = 0x11e\n  8344: ecalli 15 // 'value_transferred'\n  8346: fallthrough\n      : @334 [@dyn 143] (gas: 3)\n  8347: a4 = s1 + 0x1858\n  8351: a5 = a4 + 0x600\n  8355: t0 = 288, jump @899\n      : @335 [@dyn 144] (gas: 1)\n  8361: jump @337 if a0 == 0\n      : @336 (gas: 1)\n  8364: jump @726\n      : @337 (gas: 3)\n  8367: a0 = u64 [s1 + 0xd8]\n  8371: a0 = i32 [a0]\n  8373: jump @339 if a0 >u 3\n      : @338 (gas: 1)\n  8377: jump @727\n      : @339 (gas: 8)\n  8380: u64 [a4 + 1600] = 0\n  8384: u64 [a4 + 1592] = 0\n  8388: u64 [a4 + 1584] = 0\n  8392: u64 [a4 + 1576] = 0x12\n  8397: a0 = s1 + 0x7ff\n  8401: a0 = a0 + 0x521\n  8405: a1 = s1 + 0x1e80\n  8409: ra = 290, jump @6\n      : @340 [@dyn 145] (gas: 15)\n  8415: a1 = s1 + 0x7ff\n  8419: a1 = a1 + 0x59\n  8422: a2 = a1 + 0x400\n  8426: a0 = u64 [a2 + 0xe0]\n  8430: u64 [s1 + 0xd8] = a0\n  8434: a0 = u64 [a2 + 0xd8]\n  8438: u64 [s1 + 0xc8] = a0\n  8442: a0 = u64 [a2 + 0xd0]\n  8446: u64 [s1 + 0xd0] = a0\n  8450: a0 = u64 [a2 + 0xc8]\n  8454: u64 [s1 + 0xc0] = a0\n  8458: a0 = s1 + 0x7ff\n  8462: a0 = a0 + 0x501\n  8466: a1 = 0x40\n  8469: ra = 292, jump @2\n      : @341 [@dyn 146] (gas: 8)\n  8475: a3 = s1 + 0x7ff\n  8479: a3 = a3 + 0x59\n  8482: a5 = a3 + 0x400\n  8486: a4 = u64 [a5 + 0xc0]\n  8490: a1 = u64 [a5 + 0xb8]\n  8494: a2 = u64 [a5 + 0xb0]\n  8498: a0 = u64 [a5 + 0xa8]\n  8502: t0 = 294, jump @876\n      : @342 [@dyn 147] (gas: 1)\n  8508: jump @344 if a1 == 0\n      : @343 (gas: 1)\n  8511: jump @505\n      : @344 (gas: 18)\n  8514: a1 = u64 [s1 + 0xc0]\n  8518: a1 = a1 ^ 0x10\n  8521: a2 = u64 [s1 + 0xc8]\n  8525: a2 = a2 | a1\n  8528: a1 = u64 [s1 + 0xd8]\n  8532: a4 = u64 [s1 + 0xd0]\n  8536: a1 = a1 | a4\n  8539: a1 = a1 | a2\n  8542: a1 = a1 <u 0x1\n  8545: u64 [a3 + 1184] = 0\n  8549: u64 [a3 + 1176] = 0\n  8553: u64 [a3 + 0x488] = a1\n  8557: a1 = s1 + 0x7ff\n  8561: a1 = a1 + 0x4e1\n  8565: u64 [a3 + 1168] = 0\n  8569: u64 [s1 + 0xd8] = a0\n  8573: ra = 0x28c\n  8577: jump @4\n      : @345 (gas: 8)\n  8580: u64 [a2 + 1280] = 0\n  8584: u64 [a2 + 1272] = 0\n  8588: u64 [a2 + 1264] = 0\n  8592: u64 [a2 + 1256] = 0\n  8596: a0 = s1 + 0x2000\n  8600: i32 a0 = a0 + 0xfffffffffffffd40\n  8604: ecalli 15 // 'value_transferred'\n  8606: fallthrough\n      : @346 (gas: 10)\n  8607: a4 = s1 + 0x1858\n  8611: a5 = a4 + 0x400\n  8615: a0 = u64 [a5 + 0xf8]\n  8619: a1 = u64 [a4 + 0x500]\n  8623: a2 = u64 [a5 + 0xf0]\n  8627: a3 = u64 [a5 + 0xe8]\n  8631: a1 = a1 | a2\n  8634: a0 = a0 | a3\n  8637: a0 = a0 | a1\n  8640: jump @348 if a0 == 0\n      : @347 (gas: 1)\n  8643: jump @728\n      : @348 (gas: 3)\n  8646: a0 = u64 [s1 + 0xd8]\n  8650: a0 = i32 [a0]\n  8652: jump @350 if a0 >u 3\n      : @349 (gas: 1)\n  8656: jump @729\n      : @350 (gas: 8)\n  8659: u64 [a4 + 1312] = 0\n  8663: u64 [a4 + 1304] = 0\n  8667: u64 [a4 + 1296] = 0\n  8671: u64 [a4 + 1288] = 0x18\n  8676: a0 = s1 + 0x7ff\n  8680: a0 = a0 + 0x341\n  8684: a1 = s1 + 0x1d60\n  8688: ra = 296, jump @6\n      : @351 [@dyn 148] (gas: 13)\n  8694: a1 = s1 + 0x7ff\n  8698: a1 = a1 + 0x59\n  8701: a2 = a1 + 0x200\n  8705: a0 = u64 [a2 + 0xf8]\n  8709: u64 [s1 + 0xc8] = a0\n  8713: a0 = u64 [a2 + 0xf0]\n  8717: u64 [s1 + 0xd8] = a0\n  8721: a0 = u64 [a2 + 0xe8]\n  8725: u64 [s1 + 0xd0] = a0\n  8729: a0 = s1 + 0x7ff\n  8733: a0 = a0 + 0x321\n  8737: a1 = 0x40\n  8740: ra = 298, jump @2\n      : @352 [@dyn 149] (gas: 8)\n  8746: a3 = s1 + 0x7ff\n  8750: a3 = a3 + 0x59\n  8753: a5 = a3 + 0x200\n  8757: a4 = u64 [a5 + 0xe0]\n  8761: a1 = u64 [a5 + 0xd8]\n  8765: a2 = u64 [a5 + 0xd0]\n  8769: a0 = u64 [a5 + 0xc8]\n  8773: t0 = 300, jump @876\n      : @353 [@dyn 150] (gas: 1)\n  8779: jump @355 if a1 == 0\n      : @354 (gas: 1)\n  8782: jump @505\n      : @355 (gas: 15)\n  8785: a1 = u64 [s1 + 0xc8]\n  8789: a1 = a1 << 0x20\n  8792: a2 = a1 >> 0x20\n  8795: u64 [a3 + 704] = 0\n  8799: a1 = u64 [s1 + 0xd0]\n  8803: a4 = a3 + 0x200\n  8807: u64 [a4 + 0xa8] = a1\n  8811: a1 = u64 [s1 + 0xd8]\n  8815: u64 [a4 + 0xb0] = a1\n  8819: a1 = s1 + 0x7ff\n  8823: a1 = a1 + 0x301\n  8827: u64 [a4 + 0xb8] = a2\n  8831: u64 [s1 + 0xd8] = a0\n  8835: ra = 0x28c\n  8839: jump @4\n      : @356 (gas: 1)\n  8842: jump @358 if a0 == 2143612328\n      : @357 (gas: 1)\n  8849: jump @730\n      : @358 (gas: 9)\n  8852: u64 [a2 + 1888] = 0\n  8856: u64 [a2 + 1880] = 0\n  8860: u64 [a2 + 1872] = 0\n  8864: u64 [a2 + 1864] = 0\n  8868: a0 = s1 + 0x2000\n  8872: i32 a0 = a0 + 0xffffffffffffffa0\n  8875: ra = 0x12e\n  8879: ecalli 15 // 'value_transferred'\n  8881: fallthrough\n      : @359 [@dyn 151] (gas: 3)\n  8882: a3 = s1 + 0x1858\n  8886: a4 = a3 + 0x700\n  8890: t0 = 304, jump @894\n      : @360 [@dyn 152] (gas: 1)\n  8896: jump @362 if a0 == 0\n      : @361 (gas: 1)\n  8899: jump @737\n      : @362 (gas: 3)\n  8902: a0 = u64 [s1 + 0xd8]\n  8906: a0 = i32 [a0]\n  8908: jump @364 if a0 >u 3\n      : @363 (gas: 1)\n  8912: jump @738\n      : @364 (gas: 4)\n  8915: a0 = s1 + 0x7ff\n  8919: a0 = a0 + 0x6c1\n  8923: a1 = 0x40\n  8926: ra = 306, jump @2\n      : @365 [@dyn 153] (gas: 8)\n  8932: a3 = s1 + 0x7ff\n  8936: a3 = a3 + 0x59\n  8939: a5 = a3 + 0x600\n  8943: a4 = u64 [a5 + 0x80]\n  8947: a1 = u64 [a5 + 0x78]\n  8950: a2 = u64 [a5 + 0x70]\n  8953: a0 = u64 [a5 + 0x68]\n  8956: t0 = 308, jump @876\n      : @366 [@dyn 154] (gas: 1)\n  8962: jump @368 if a1 == 0\n      : @367 (gas: 1)\n  8965: jump @505\n      : @368 (gas: 9)\n  8968: u64 [a3 + 1632] = 0\n  8972: u64 [a3 + 1624] = 0\n  8976: u64 [a3 + 1608] = 0x10\n  8981: a1 = s1 + 0x7ff\n  8985: a1 = a1 + 0x6a1\n  8989: u64 [a3 + 1616] = 0\n  8993: u64 [s1 + 0xd8] = a0\n  8997: ra = 0x28c\n  9001: jump @4\n      : @369 (gas: 3)\n  9004: a0 = u64 [s1 + 0xd8]\n  9008: a0 = i32 [a0]\n  9010: jump @371 if a0 >u 35\n      : @370 (gas: 1)\n  9014: jump @739\n      : @371 (gas: 21)\n  9017: a0 = s1 + 0x2000\n  9021: i32 a0 = a0 + 0x40\n  9024: a1 = 0x4\n  9027: ecalli 4 // 'call_data_load'\n  9029: a1 = s1 + 0x2058\n  9033: a0 = u64 [a1]\n  9035: u64 [s1 + 0xd8] = a0\n  9039: a2 = a1 + 0xffffffffffffff00\n  9043: a0 = u64 [a2 + 0xf8]\n  9047: u64 [s1 + 0xd0] = a0\n  9051: a0 = u64 [a2 + 0xf0]\n  9055: u64 [s1 + 0xc8] = a0\n  9059: a0 = u64 [a2 + 0xe8]\n  9063: u64 [s1 + 0xc0] = a0\n  9067: u64 [a1 + 32] = 0\n  9070: u64 [a1 + 24] = 0\n  9073: u64 [a1 + 16] = 0\n  9076: u64 [a1 + 8] = 0\n  9079: a0 = s1 + 0x13c0\n  9083: a1 = s1 + 0x2060\n  9087: ra = 310, jump @6\n      : @372 [@dyn 155] (gas: 19)\n  9093: a0 = s1 + 0x1058\n  9097: a2 = a0 + 0x300\n  9101: a1 = u64 [a2 + 0x68]\n  9104: u64 [s1 + 0xb8] = a1\n  9108: a1 = u64 [a2 + 0x78]\n  9111: u64 [s1 + 0xb0] = a1\n  9115: a1 = u64 [a2 + 0x70]\n  9118: u64 [s1 + 0xa8] = a1\n  9122: a0 = u64 [a2 + 0x80]\n  9126: u64 [s1 + 0xa0] = a0\n  9130: a0 = s1 + 0x2058\n  9134: u64 [a0 + 64] = 0\n  9137: u64 [a0 + 56] = 0\n  9140: u64 [a0 + 48] = 0\n  9143: u64 [a0 + 40] = 0\n  9146: a0 = s1 + 0x2000\n  9150: i32 a0 = a0 + 0x80\n  9154: ecalli 15 // 'value_transferred'\n  9156: fallthrough\n      : @373 (gas: 17)\n  9157: a3 = s1 + 0x2058\n  9161: a0 = u64 [a3 + 0x40]\n  9164: a1 = u64 [a3 + 0x30]\n  9167: a2 = u64 [a3 + 0x28]\n  9170: a3 = u64 [a3 + 0x38]\n  9173: a4 = u64 [s1 + 0xa0]\n  9177: a0 = a0 ^ a4\n  9180: a4 = u64 [s1 + 0xa8]\n  9184: a1 = a1 ^ a4\n  9187: a0 = a0 | a1\n  9190: a1 = u64 [s1 + 0xb0]\n  9194: a1 = a1 ^ a3\n  9197: a3 = u64 [s1 + 0xb8]\n  9201: a2 = a2 ^ a3\n  9204: a1 = a1 | a2\n  9207: a0 = a0 | a1\n  9210: jump @506 if a0 != 0\n      : @374 (gas: 25)\n  9214: a5 = u64 [s1 + 0xc8]\n  9218: a0 = a5 >u 0\n  9220: a1 = u64 [s1 + 0xc0]\n  9224: a1 = a1 <u 0x10\n  9227: a2 = a1 ^ 0x1\n  9230: a2 = a0 if a5 != 0\n  9233: a4 = u64 [s1 + 0xd0]\n  9237: t0 = a4 >u 0\n  9239: a3 = u64 [s1 + 0xd8]\n  9243: a0 = a3 >u 0\n  9245: a0 = t0 if a3 == 0\n  9248: a3 = a3 | a4\n  9251: a0 = a2 if a3 == 0\n  9254: u64 [s1 + 0xb8] = a0\n  9258: a1 = 0 if a5 != 0\n  9260: a1 = 0 if a3 != 0\n  9262: a2 = s1 + 0x1058\n  9266: u64 [a2 + 704] = 0\n  9270: u64 [a2 + 696] = 0\n  9274: u64 [a2 + 0x2a8] = a1\n  9278: a0 = s1 + 0x1300\n  9282: u64 [a2 + 688] = 0\n  9286: ra = 0x138\n  9290: t0 = 0x2c2\n  9294: jump @886\n      : @375 [@dyn 156] (gas: 2)\n  9297: a0 = u64 [s1 + 0xb8]\n  9301: jump @377 if a0 == 0\n      : @376 (gas: 1)\n  9304: jump @758\n      : @377 (gas: 22)\n  9307: a0 = sp + 0xffffffffffffffe0\n  9310: a1 = a0 & 0xffffffffffffffe0\n  9313: sp = a1\n  9315: a2 = u64 [s1 + 0xc0]\n  9319: a0 = a2 + 0x2\n  9322: a4 = a0 <u a2\n  9325: a3 = u64 [s1 + 0xc8]\n  9329: a2 = a3 + a4\n  9332: a3 = a2 <u a3\n  9335: a3 = a4 if a4 == 0\n  9338: a4 = u64 [s1 + 0xd0]\n  9342: a3 = a3 + a4\n  9345: a5 = a3 <u a4\n  9348: a4 = u64 [s1 + 0xd8]\n  9352: a4 = a4 + a5\n  9355: u64 [a1 + 0x8] = a2\n  9358: u64 [a1] = a0\n  9360: u64 [a1 + 0x10] = a3\n  9363: u64 [a1 + 0x18] = a4\n  9366: a0 = s1 + 0x12a0\n  9370: u64 [s1 + 0xb8] = a1\n  9374: ra = 314, jump @6\n      : @378 [@dyn 157] (gas: 3)\n  9380: t0 = 0x13c\n  9384: a2 = s1 + 0x1058\n  9388: fallthrough\n      : @379 [@dyn 158] (gas: 6)\n  9389: a0 = u32 [a2 + 0x258]\n  9393: a1 = u64 [a2 + 0x248]\n  9397: a2 = u64 [a2 + 0x250]\n  9401: a0 = a0 | a1\n  9404: a0 = a0 | a2\n  9407: jump @381 if a0 == 0\n      : @380 (gas: 1)\n  9410: jump @542\n      : @381 (gas: 8)\n  9413: a1 = s1 + 0x2058\n  9417: u64 [a1 + 96] = 0\n  9420: u64 [a1 + 88] = 0\n  9423: u64 [a1 + 80] = 0\n  9426: u64 [a1 + 72] = 0x16\n  9430: a0 = s1 + 0x11e0\n  9434: a1 = s1 + 0x20a0\n  9438: ra = 318, jump @6\n      : @382 [@dyn 159] (gas: 3)\n  9444: a0 = s1 + 0x1058\n  9448: a0 = u8 [a0 + 0x188]\n  9452: jump @384 if a0 == 0\n      : @383 (gas: 1)\n  9455: jump @568\n      : @384 (gas: 9)\n  9458: a0 = 0x30190\n  9463: u64 [s1 + 0xa8] = a0\n  9467: i32 a0 = a0 + 0\n  9469: u64 [s1 + 0x88] = a0\n  9473: ra = 0x140\n  9477: ecalli 6 // 'caller'\n  9479: a2 = u64 [s1 + 0xa8]\n  9483: t0 = 0x142\n  9487: jump @893\n      : @385 [@dyn 160] (gas: 2)\n  9490: a2 = u64 [s1 + 0xa8]\n  9494: t0 = 322, jump @893\n      : @386 [@dyn 161] (gas: 11)\n  9500: u64 [s1 + 0xb0] = a1\n  9504: a0 = a0 >> 0x20\n  9507: a1 = reverse a2\n  9509: a2 = a1 << 0x20\n  9512: a0 = a0 | a2\n  9515: u64 [s1 + 0xa0] = a0\n  9519: a1 = a1 >> 0x20\n  9522: u64 [s1 + 0x98] = a1\n  9526: a0 = s1 + 0x1120\n  9530: a1 = u64 [s1 + 0xb8]\n  9534: ra = 324, jump @6\n      : @387 [@dyn 162] (gas: 16)\n  9540: a1 = s1 + 0x1058\n  9544: a0 = u32 [a1 + 0xdc]\n  9548: a1 = u64 [a1 + 0xe0]\n  9552: a0 = a0 << 0x20\n  9555: a2 = u64 [s1 + 0x98]\n  9559: a0 = a0 | a2\n  9562: a2 = s1 + 0x2058\n  9566: u64 [a2 + 0x80] = a1\n  9570: a1 = u64 [s1 + 0xa0]\n  9574: u64 [a2 + 0x70] = a1\n  9577: a1 = u64 [s1 + 0xb0]\n  9581: u64 [a2 + 0x68] = a1\n  9584: u64 [a2 + 0x78] = a0\n  9587: a1 = s1 + 0x20c0\n  9591: a0 = u64 [s1 + 0xb8]\n  9595: ra = 326, jump @7\n      : @388 [@dyn 163] (gas: 12)\n  9601: a0 = sp + 0xffffffffffffffe0\n  9604: a0 = a0 & 0xffffffffffffffe0\n  9607: u64 [s1 + 0xb8] = a0\n  9611: sp = a0\n  9613: a0 = s1 + 0x2058\n  9617: u64 [a0 + 160] = 0\n  9621: u64 [a0 + 152] = 0\n  9625: u64 [a0 + 144] = 0\n  9629: u64 [a0 + 136] = 0x12\n  9634: a0 = s1 + 0x1100\n  9638: a1 = s1 + 0x20e0\n  9642: ra = 328, jump @6\n      : @389 [@dyn 164] (gas: 12)\n  9648: a4 = s1 + 0x1058\n  9652: a2 = u64 [a4 + 0xa8]\n  9656: a0 = u64 [a4 + 0xb0]\n  9660: a1 = u64 [a4 + 0xb8]\n  9664: a3 = u64 [a4 + 0xc0]\n  9668: u64 [a4 + 0x80] = a3\n  9672: u64 [a4 + 0x78] = a1\n  9675: u64 [a4 + 0x70] = a0\n  9678: a0 = s1 + 0x10e0\n  9682: a1 = s1 + 0x10c0\n  9686: u64 [a4 + 0x68] = a2\n  9689: ra = 330, jump @864\n      : @390 [@dyn 165] (gas: 22)\n  9695: a2 = s1 + 0x1058\n  9699: a0 = u64 [a2 + 0x98]\n  9703: a1 = u64 [a2 + 0xa0]\n  9707: a3 = u64 [a2 + 0x88]\n  9711: a2 = u64 [a2 + 0x90]\n  9715: u64 [s1 + 0x80] = a0\n  9719: a4 = u64 [s1 + 0xb8]\n  9723: u64 [a4 + 0x10] = a0\n  9726: u64 [s1 + 0x78] = a1\n  9729: u64 [a4 + 0x18] = a1\n  9732: u64 [s1 + 0x68] = a3\n  9735: u64 [a4] = a3\n  9737: u64 [s1 + 0x70] = a2\n  9740: u64 [a4 + 0x8] = a2\n  9743: a1 = a4\n  9745: a0 = s1 + 0x2058\n  9749: u64 [a0 + 192] = 0\n  9753: u64 [a0 + 184] = 0\n  9757: u64 [a0 + 176] = 0\n  9761: u64 [a0 + 168] = 0x12\n  9766: a0 = s1 + 0x2100\n  9770: ra = 332, jump @7\n      : @391 [@dyn 166] (gas: 8)\n  9776: a1 = s1 + 0x2058\n  9780: u64 [a1 + 224] = 0\n  9784: u64 [a1 + 216] = 0\n  9788: u64 [a1 + 208] = 0\n  9792: u64 [a1 + 200] = 0x14\n  9797: a0 = s1 + 0x10a0\n  9801: a1 = s1 + 0x2120\n  9805: ra = 334, jump @6\n      : @392 [@dyn 167] (gas: 22)\n  9811: a1 = s1 + 0x1058\n  9815: a0 = u64 [a1 + 0x60]\n  9818: u64 [s1 + 0x98] = a0\n  9822: a0 = u64 [a1 + 0x58]\n  9825: u64 [s1 + 0xb8] = a0\n  9829: a0 = u64 [a1 + 0x48]\n  9832: u64 [s1 + 0x90] = a0\n  9836: a0 = u64 [a1 + 0x50]\n  9839: u64 [s1 + 0xb0] = a0\n  9843: a0 = sp + 0xffffffffffffffe0\n  9846: a0 = a0 & 0xffffffffffffffe0\n  9849: u64 [s1 + 0xa0] = a0\n  9853: sp = a0\n  9855: a0 = s1 + 0x2058\n  9859: u64 [a0 + 256] = 0\n  9863: u64 [a0 + 248] = 0\n  9867: u64 [a0 + 240] = 0\n  9871: u64 [a0 + 232] = 0\n  9875: a0 = s1 + 0x2000\n  9879: i32 a0 = a0 + 0x140\n  9883: ecalli 15 // 'value_transferred'\n  9885: fallthrough\n      : @393 (gas: 43)\n  9886: a0 = s1 + 0x2058\n  9890: a2 = u64 [a0 + 0xf0]\n  9894: a1 = u64 [a0 + 0xe8]\n  9898: t0 = u64 [a0 + 0x100]\n  9902: a4 = u64 [a0 + 0xf8]\n  9906: a5 = u64 [s1 + 0xb0]\n  9910: a5 = a5 + a2\n  9913: a0 = u64 [s1 + 0x90]\n  9917: ra = a1 + a0\n  9920: a1 = ra <u a1\n  9923: a5 = a5 + a1\n  9926: a3 = a5 ^ a2\n  9929: a2 = a5 <u a2\n  9932: a2 = a1 if a3 == 0\n  9935: a1 = u64 [s1 + 0xb8]\n  9939: a1 = a1 + a4\n  9942: t1 = u64 [s1 + 0x98]\n  9946: t0 = t0 + t1\n  9949: a3 = a1 <u a4\n  9952: a3 = a3 + t0\n  9955: a2 = a2 + a1\n  9958: a1 = a2 <u a1\n  9961: t2 = a3 + a1\n  9964: a3 = u64 [s1 + 0xb0]\n  9968: a1 = a3 ^ a5\n  9971: a4 = a5 <u a3\n  9974: a0 = ra <u a0\n  9977: a0 = a4 if a1 != 0\n  9980: a3 = u64 [s1 + 0xb8]\n  9984: t0 = a2 <u a3\n  9987: a4 = t1 ^ t2\n  9990: a1 = t2 <u t1\n  9993: a1 = t0 if a4 == 0\n  9996: a3 = a3 ^ a2\n  9999: a3 = a3 | a4\n 10002: a0 = a1 if a3 != 0\n 10005: a1 = u64 [s1 + 0xa0]\n 10009: u64 [a1] = ra\n 10011: u64 [a1 + 0x8] = a5\n 10014: u64 [a1 + 0x10] = a2\n 10017: u64 [a1 + 0x18] = t2\n 10020: a2 = s1 + 0x2058\n 10024: jump @395 if a0 == 0\n      : @394 (gas: 1)\n 10027: jump @773\n      : @395 (gas: 6)\n 10030: u64 [a2 + 288] = 0\n 10034: u64 [a2 + 280] = 0\n 10038: u64 [a2 + 272] = 0\n 10042: u64 [a2 + 264] = 0x14\n 10047: a0 = s1 + 0x2160\n 10051: ra = 336, jump @7\n      : @396 [@dyn 168] (gas: 9)\n 10057: a0 = s1 + 0x2058\n 10061: u64 [a0 + 320] = 0\n 10065: u64 [a0 + 312] = 0\n 10069: u64 [a0 + 304] = 0\n 10073: a1 = a0\n 10075: u64 [a1 + 296] = 0x13\n 10080: a0 = s1 + 0x1080\n 10084: a1 = s1 + 0x2180\n 10088: ra = 338, jump @6\n      : @397 [@dyn 169] (gas: 3)\n 10094: t0 = 0x154\n 10098: a1 = s1 + 0x1058\n 10102: fallthrough\n      : @398 [@dyn 170] (gas: 11)\n 10103: a0 = u64 [a1 + 0x40]\n 10106: u64 [s1 + 0x98] = a0\n 10110: a0 = u64 [a1 + 0x38]\n 10113: u64 [s1 + 0xa0] = a0\n 10117: a0 = u64 [a1 + 0x30]\n 10120: u64 [s1 + 0xb0] = a0\n 10124: a0 = u64 [a1 + 0x28]\n 10127: u64 [s1 + 0xb8] = a0\n 10131: a0 = s1 + 0x1060\n 10135: a1 = 0x40\n 10138: ra = 342, jump @2\n      : @399 [@dyn 171] (gas: 13)\n 10144: a4 = s1 + 0x1058\n 10148: a0 = u64 [a4 + 0x20]\n 10151: a1 = u64 [a4 + 0x18]\n 10154: a2 = u64 [a4 + 0x10]\n 10157: a3 = u64 [a4 + 0x8]\n 10160: a0 = a0 | a2\n 10163: a2 = a3 | a1\n 10166: a2 = a2 | a0\n 10169: a2 = a2 >> 0x20\n 10172: a0 = a0 | a1\n 10175: a0 = a0 << 0x20\n 10178: a0 = a0 | a2\n 10181: jump @505 if a0 != 0\n      : @400 (gas: 15)\n 10185: a1 = s1 + 0x7ff\n 10189: a1 = a1 + 0x59\n 10192: a0 = u64 [s1 + 0xc0]\n 10196: a2 = a1 + 0x700\n 10200: u64 [a2 + 0xe8] = a0\n 10204: a0 = u64 [s1 + 0xc8]\n 10208: u64 [a2 + 0xf0] = a0\n 10212: a0 = u64 [s1 + 0xd0]\n 10216: u64 [a2 + 0xf8] = a0\n 10220: a1 = s1 + 0x1040\n 10224: a0 = u64 [s1 + 0xd8]\n 10228: u64 [a4] = a0\n 10230: a0 = a3\n 10232: u64 [s1 + 0xd8] = a3\n 10236: ra = 344, jump @4\n      : @401 [@dyn 172] (gas: 47)\n 10242: a0 = u64 [s1 + 0x88]\n 10246: ecalli 6 // 'caller'\n 10248: a2 = u64 [s1 + 0xa8]\n 10252: a0 = u64 [a2 + 0x8]\n 10255: a1 = i32 [a2 + 0x10]\n 10258: a2 = u64 [a2]\n 10260: a3 = reverse a0\n 10262: a0 = a3 << 0x20\n 10265: a1 = reverse a1\n 10267: a1 = a1 >> 0x20\n 10270: t0 = a1 | a0\n 10273: a3 = a3 >> 0x20\n 10276: a2 = reverse a2\n 10278: a1 = a2 << 0x20\n 10281: t1 = a1 | a3\n 10284: a2 = a2 >> 0x20\n 10287: a1 = s1 + 0x7ff\n 10291: a1 = a1 + 0x59\n 10294: u64 [a1 + 1952] = 0\n 10298: a0 = u64 [s1 + 0x98]\n 10302: u64 [a1 + 0x7c0] = a0\n 10306: a0 = u64 [s1 + 0xa0]\n 10310: u64 [a1 + 0x7b8] = a0\n 10314: a0 = u64 [s1 + 0xb0]\n 10318: u64 [a1 + 0x7b0] = a0\n 10322: a0 = u64 [s1 + 0xb8]\n 10326: u64 [a1 + 0x7a8] = a0\n 10330: a3 = u64 [0x20080]\n 10335: a4 = u64 [0x20088]\n 10340: a5 = u64 [0x20090]\n 10345: a0 = u64 [0x20098]\n 10350: u64 [a1 + 0x7e0] = a3\n 10354: a3 = a1 + 0x700\n 10358: u64 [a3 + 0xd8] = a4\n 10362: u64 [a3 + 0xd0] = a5\n 10366: u64 [a3 + 0xc8] = a0\n 10370: u64 [a3 + 0x98] = a2\n 10374: u64 [a1 + 0x790] = t1\n 10378: a0 = a1\n 10380: a1 = 0x20\n 10383: a2 = s1 + 0x1020\n 10387: a3 = s1 + 0x1000\n 10391: a4 = s1 + 0x7ff\n 10395: a4 = a4 + 0x7e1\n 10399: u64 [a0 + 0x788] = t0\n 10403: a0 = u64 [s1 + 0xd8]\n 10407: ra = 346, jump @10\n      : @402 [@dyn 173] (gas: 9)\n 10413: a0 = u64 [s1 + 0x68]\n 10416: a0 = a0 ^ 0x10\n 10419: a1 = u64 [s1 + 0x80]\n 10423: a0 = a0 | a1\n 10426: a1 = u64 [s1 + 0x78]\n 10429: a2 = u64 [s1 + 0x70]\n 10432: a1 = a1 | a2\n 10435: a0 = a0 | a1\n 10438: jump @404 if a0 != 0\n      : @403 (gas: 20)\n 10441: a0 = s1 + 0x2000\n 10445: i32 a0 = a0 + 0x1a0\n 10449: ecalli 1 // 'block_number'\n 10451: a5 = s1 + 0x2058\n 10455: a0 = u64 [a5 + 0x148]\n 10459: a1 = u64 [a5 + 0x150]\n 10463: a2 = u64 [a5 + 0x158]\n 10467: a3 = u64 [a5 + 0x160]\n 10471: u64 [a5 + 384] = 0\n 10475: u64 [a5 + 376] = 0\n 10479: u64 [a5 + 368] = 0\n 10483: u64 [a5 + 360] = 0x15\n 10488: a4 = a5 + 0x100\n 10492: u64 [a4 + 0xa0] = a3\n 10496: u64 [a4 + 0x98] = a2\n 10500: u64 [a4 + 0x90] = a1\n 10504: u64 [a4 + 0x88] = a0\n 10508: a0 = s1 + 0x21c0\n 10512: a1 = s1 + 0x21e0\n 10516: ra = 348, jump @7\n      : @404 [@dyn 174] (gas: 4)\n 10522: a1 = 0x20190\n 10527: i32 a1 = a1 + 0\n 10529: a0 = 0\n 10531: jump @736\n      : @405 (gas: 8)\n 10534: u64 [a2 + 1408] = 0\n 10538: u64 [a2 + 1400] = 0\n 10542: u64 [a2 + 1392] = 0\n 10546: u64 [a2 + 1384] = 0\n 10550: a0 = s1 + 0x2000\n 10554: i32 a0 = a0 + 0xfffffffffffffdc0\n 10558: ecalli 15 // 'value_transferred'\n 10560: fallthrough\n      : @406 (gas: 10)\n 10561: a4 = s1 + 0x1858\n 10565: a5 = a4 + 0x500\n 10569: a0 = u64 [a5 + 0x78]\n 10572: a1 = u64 [a5 + 0x80]\n 10576: a2 = u64 [a5 + 0x70]\n 10579: a3 = u64 [a5 + 0x68]\n 10582: a1 = a1 | a2\n 10585: a0 = a0 | a3\n 10588: a0 = a0 | a1\n 10591: jump @408 if a0 == 0\n      : @407 (gas: 1)\n 10594: jump @740\n      : @408 (gas: 3)\n 10597: a0 = u64 [s1 + 0xd8]\n 10601: a0 = i32 [a0]\n 10603: jump @410 if a0 >u 3\n      : @409 (gas: 1)\n 10607: jump @741\n      : @410 (gas: 8)\n 10610: u64 [a4 + 1440] = 0\n 10614: u64 [a4 + 1432] = 0\n 10618: u64 [a4 + 1424] = 0\n 10622: u64 [a4 + 1416] = 0x14\n 10627: a0 = s1 + 0x7ff\n 10631: a0 = a0 + 0x401\n 10635: a1 = s1 + 0x1de0\n 10639: ra = 350, jump @6\n      : @411 [@dyn 175] (gas: 15)\n 10645: a1 = s1 + 0x7ff\n 10649: a1 = a1 + 0x59\n 10652: a2 = a1 + 0x300\n 10656: a0 = u64 [a2 + 0xc0]\n 10660: u64 [s1 + 0xd8] = a0\n 10664: a0 = u64 [a2 + 0xb8]\n 10668: u64 [s1 + 0xd0] = a0\n 10672: a0 = u64 [a2 + 0xb0]\n 10676: u64 [s1 + 0xc8] = a0\n 10680: a0 = u64 [a2 + 0xa8]\n 10684: u64 [s1 + 0xc0] = a0\n 10688: a0 = s1 + 0x7ff\n 10692: a0 = a0 + 0x3e1\n 10696: a1 = 0x40\n 10699: ra = 352, jump @2\n      : @412 [@dyn 176] (gas: 8)\n 10705: a3 = s1 + 0x7ff\n 10709: a3 = a3 + 0x59\n 10712: a5 = a3 + 0x300\n 10716: a0 = u64 [a5 + 0xa0]\n 10720: a1 = u64 [a5 + 0x98]\n 10724: a2 = u64 [a5 + 0x90]\n 10728: a4 = u64 [a5 + 0x88]\n 10732: t0 = 354, jump @880\n      : @413 [@dyn 177] (gas: 1)\n 10738: jump @505 if a0 != 0\n      : @414 (gas: 15)\n 10742: a0 = u64 [s1 + 0xc0]\n 10746: a2 = a3 + 0x300\n 10750: u64 [a2 + 0x68] = a0\n 10753: a0 = u64 [s1 + 0xc8]\n 10757: u64 [a2 + 0x70] = a0\n 10760: a0 = u64 [s1 + 0xd0]\n 10764: u64 [a2 + 0x78] = a0\n 10767: a1 = s1 + 0x7ff\n 10771: a1 = a1 + 0x3c1\n 10775: a0 = u64 [s1 + 0xd8]\n 10779: u64 [a2 + 0x80] = a0\n 10783: a0 = a4\n 10785: u64 [s1 + 0xd8] = a4\n 10789: ra = 0x28c\n 10793: jump @4\n      : @415 (gas: 8)\n 10796: u64 [a4 + 992] = 0\n 10800: u64 [a4 + 984] = 0\n 10804: u64 [a4 + 976] = 0\n 10808: u64 [a4 + 968] = 0\n 10812: a0 = s1 + 0x2000\n 10816: i32 a0 = a0 + 0x420\n 10820: ecalli 15 // 'value_transferred'\n 10822: fallthrough\n      : @416 (gas: 10)\n 10823: a4 = s1 + 0x2058\n 10827: a5 = a4 + 0x300\n 10831: a0 = u64 [a5 + 0xd8]\n 10835: a1 = u64 [a5 + 0xe0]\n 10839: a2 = u64 [a5 + 0xd0]\n 10843: a3 = u64 [a5 + 0xc8]\n 10847: a1 = a1 | a2\n 10850: a0 = a0 | a3\n 10853: a0 = a0 | a1\n 10856: jump @418 if a0 == 0\n      : @417 (gas: 1)\n 10859: jump @742\n      : @418 (gas: 3)\n 10862: a0 = u64 [s1 + 0xd8]\n 10866: a0 = i32 [a0]\n 10868: jump @420 if a0 >u 3\n      : @419 (gas: 1)\n 10872: jump @743\n      : @420 (gas: 7)\n 10875: u64 [a4 + 1024] = 0\n 10879: u64 [a4 + 1016] = 0\n 10883: u64 [a4 + 1008] = 0\n 10887: u64 [a4 + 1000] = 0x16\n 10892: a0 = s1 + 0x1700\n 10896: a1 = s1 + 0x2440\n 10900: ra = 356, jump @6\n      : @421 [@dyn 178] (gas: 3)\n 10906: t0 = 0x166\n 10910: a1 = s1 + 0x1058\n 10914: fallthrough\n      : @422 [@dyn 179] (gas: 10)\n 10915: a2 = a1 + 0x600\n 10919: a0 = u64 [a2 + 0xb8]\n 10923: u64 [s1 + 0xd8] = a0\n 10927: a0 = u64 [a2 + 0xb0]\n 10931: u64 [s1 + 0xd0] = a0\n 10935: a0 = u64 [a2 + 0xa8]\n 10939: u64 [s1 + 0xc8] = a0\n 10943: a0 = s1 + 0x16e0\n 10947: a1 = 0x40\n 10950: ra = 360, jump @2\n      : @423 [@dyn 180] (gas: 7)\n 10956: a3 = s1 + 0x1058\n 10960: a5 = a3 + 0x600\n 10964: a4 = u64 [a5 + 0xa0]\n 10968: a1 = u64 [a5 + 0x98]\n 10972: a2 = u64 [a5 + 0x90]\n 10976: a0 = u64 [a5 + 0x88]\n 10980: t0 = 362, jump @876\n      : @424 [@dyn 181] (gas: 1)\n 10986: jump @505 if a1 != 0\n      : @425 (gas: 20)\n 10990: a2 = u64 [s1 + 0xd0]\n 10994: a4 = a2 >> 0x8\n 10997: a5 = u64 [s1 + 0xd8]\n 11001: a1 = a5 << 0x38\n 11004: a4 = a4 | a1\n 11007: a1 = u64 [s1 + 0xc8]\n 11011: a1 = a1 >> 0x8\n 11014: a2 = a2 << 0x38\n 11017: a1 = a1 | a2\n 11020: a2 = a5 << 0x18\n 11023: a2 = a2 >> 0x20\n 11026: u64 [a3 + 1664] = 0\n 11030: a5 = a3 + 0x600\n 11034: u64 [a5 + 0x68] = a1\n 11037: u64 [a5 + 0x78] = a2\n 11040: a1 = s1 + 0x16c0\n 11044: u64 [a5 + 0x70] = a4\n 11047: u64 [s1 + 0xd8] = a0\n 11051: ra = 0x28c\n 11055: jump @4\n      : @426 (gas: 8)\n 11058: u64 [a2 + 1344] = 0\n 11062: u64 [a2 + 1336] = 0\n 11066: u64 [a2 + 1328] = 0\n 11070: u64 [a2 + 1320] = 0\n 11074: a0 = s1 + 0x2000\n 11078: i32 a0 = a0 + 0xfffffffffffffd80\n 11082: ecalli 15 // 'value_transferred'\n 11084: fallthrough\n      : @427 (gas: 10)\n 11085: a4 = s1 + 0x1858\n 11089: a5 = a4 + 0x500\n 11093: a0 = u64 [a5 + 0x38]\n 11096: a1 = u64 [a5 + 0x40]\n 11099: a2 = u64 [a5 + 0x30]\n 11102: a3 = u64 [a5 + 0x28]\n 11105: a1 = a1 | a2\n 11108: a0 = a0 | a3\n 11111: a0 = a0 | a1\n 11114: jump @429 if a0 == 0\n      : @428 (gas: 1)\n 11117: jump @744\n      : @429 (gas: 3)\n 11120: a0 = u64 [s1 + 0xd8]\n 11124: a0 = i32 [a0]\n 11126: jump @431 if a0 >u 3\n      : @430 (gas: 1)\n 11130: jump @745\n      : @431 (gas: 8)\n 11133: u64 [a4 + 1376] = 0\n 11137: u64 [a4 + 1368] = 0\n 11141: u64 [a4 + 1360] = 0\n 11145: u64 [a4 + 1352] = 0x12\n 11150: a0 = s1 + 0x7ff\n 11154: a0 = a0 + 0x3a1\n 11158: a1 = s1 + 0x1da0\n 11162: ra = 364, jump @6\n      : @432 [@dyn 182] (gas: 15)\n 11168: a1 = s1 + 0x7ff\n 11172: a1 = a1 + 0x59\n 11175: a2 = a1 + 0x300\n 11179: a0 = u64 [a2 + 0x60]\n 11182: u64 [s1 + 0xd8] = a0\n 11186: a0 = u64 [a2 + 0x58]\n 11189: u64 [s1 + 0xd0] = a0\n 11193: a0 = u64 [a2 + 0x50]\n 11196: u64 [s1 + 0xc8] = a0\n 11200: a0 = u64 [a2 + 0x48]\n 11203: u64 [s1 + 0xc0] = a0\n 11207: a0 = s1 + 0x7ff\n 11211: a0 = a0 + 0x381\n 11215: a1 = 0x40\n 11218: ra = 366, jump @2\n      : @433 [@dyn 183] (gas: 8)\n 11224: a3 = s1 + 0x7ff\n 11228: a3 = a3 + 0x59\n 11231: a5 = a3 + 0x300\n 11235: a0 = u64 [a5 + 0x40]\n 11238: a1 = u64 [a5 + 0x38]\n 11241: a2 = u64 [a5 + 0x30]\n 11244: a4 = u64 [a5 + 0x28]\n 11247: t0 = 368, jump @880\n      : @434 [@dyn 184] (gas: 1)\n 11253: jump @505 if a0 != 0\n      : @435 (gas: 15)\n 11257: a0 = u64 [s1 + 0xc0]\n 11261: a2 = a3 + 0x300\n 11265: u64 [a2 + 0x8] = a0\n 11268: a0 = u64 [s1 + 0xc8]\n 11272: u64 [a2 + 0x10] = a0\n 11275: a0 = u64 [s1 + 0xd0]\n 11279: u64 [a2 + 0x18] = a0\n 11282: a1 = s1 + 0x7ff\n 11286: a1 = a1 + 0x361\n 11290: a0 = u64 [s1 + 0xd8]\n 11294: u64 [a2 + 0x20] = a0\n 11297: a0 = a4\n 11299: u64 [s1 + 0xd8] = a4\n 11303: ra = 0x28c\n 11307: jump @4\n      : @436 (gas: 11)\n 11310: a0 = s1 + 0x1858\n 11314: u64 [a0 + 1984] = 0\n 11318: u64 [a0 + 1976] = 0\n 11322: u64 [a0 + 1968] = 0\n 11326: u64 [a0 + 1960] = 0\n 11330: a0 = s1 + 0x2000\n 11334: i32 a0 = a0 + 0\n 11336: ra = 0x172\n 11340: ecalli 15 // 'value_transferred'\n 11342: t0 = 0x174\n 11346: jump @895\n      : @437 [@dyn 185] (gas: 1)\n 11349: t0 = 372, jump @895\n      : @438 [@dyn 186] (gas: 1)\n 11355: t0 = 374, jump @898\n      : @439 [@dyn 187] (gas: 1)\n 11361: jump @441 if a0 == 0\n      : @440 (gas: 1)\n 11364: jump @746\n      : @441 (gas: 3)\n 11367: a0 = u64 [s1 + 0xd8]\n 11371: a0 = i32 [a0]\n 11373: jump @443 if a0 >u 3\n      : @442 (gas: 1)\n 11377: jump @747\n      : @443 (gas: 8)\n 11380: u64 [a4 + 2016] = 0\n 11384: u64 [a4 + 2008] = 0\n 11388: u64 [a4 + 2000] = 0\n 11392: u64 [a4 + 1992] = 0x15\n 11397: a0 = s1 + 0x7ff\n 11401: a0 = a0 + 0x781\n 11405: a1 = s1 + 0x2020\n 11409: ra = 376, jump @6\n      : @444 [@dyn 188] (gas: 15)\n 11415: a1 = s1 + 0x7ff\n 11419: a1 = a1 + 0x59\n 11422: a2 = a1 + 0x700\n 11426: a0 = u64 [a2 + 0x40]\n 11429: u64 [s1 + 0xd8] = a0\n 11433: a0 = u64 [a2 + 0x38]\n 11436: u64 [s1 + 0xd0] = a0\n 11440: a0 = u64 [a2 + 0x30]\n 11443: u64 [s1 + 0xc8] = a0\n 11447: a0 = u64 [a2 + 0x28]\n 11450: u64 [s1 + 0xc0] = a0\n 11454: a0 = s1 + 0x7ff\n 11458: a0 = a0 + 0x761\n 11462: a1 = 0x40\n 11465: ra = 378, jump @2\n      : @445 [@dyn 189] (gas: 8)\n 11471: a3 = s1 + 0x7ff\n 11475: a3 = a3 + 0x59\n 11478: a5 = a3 + 0x700\n 11482: a0 = u64 [a5 + 0x20]\n 11485: a1 = u64 [a5 + 0x18]\n 11488: a2 = u64 [a5 + 0x10]\n 11491: a4 = u64 [a5 + 0x8]\n 11494: t0 = 380, jump @880\n      : @446 [@dyn 190] (gas: 1)\n 11500: jump @505 if a0 != 0\n      : @447 (gas: 15)\n 11504: a0 = u64 [s1 + 0xc0]\n 11508: a1 = a3 + 0x600\n 11512: u64 [a1 + 0xe8] = a0\n 11516: a0 = u64 [s1 + 0xc8]\n 11520: u64 [a1 + 0xf0] = a0\n 11524: a0 = u64 [s1 + 0xd0]\n 11528: u64 [a1 + 0xf8] = a0\n 11532: a1 = s1 + 0x7ff\n 11536: a1 = a1 + 0x741\n 11540: a0 = u64 [s1 + 0xd8]\n 11544: u64 [a3 + 0x700] = a0\n 11548: a0 = a4\n 11550: u64 [s1 + 0xd8] = a4\n 11554: ra = 0x28c\n 11558: jump @4\n      : @448 (gas: 8)\n 11561: u64 [a3 + 2016] = 0\n 11565: u64 [a3 + 2008] = 0\n 11569: u64 [a3 + 2000] = 0\n 11573: u64 [a3 + 1992] = 0\n 11577: a0 = s1 + 0x2000\n 11581: i32 a0 = a0 + 0xfffffffffffff820\n 11585: ecalli 15 // 'value_transferred'\n 11587: fallthrough\n      : @449 (gas: 10)\n 11588: a3 = s1 + 0x1058\n 11592: a4 = a3 + 0x700\n 11596: a0 = u64 [a4 + 0xd8]\n 11600: a1 = u64 [a4 + 0xe0]\n 11604: a2 = u64 [a4 + 0xd0]\n 11608: a3 = u64 [a4 + 0xc8]\n 11612: a1 = a1 | a2\n 11615: a0 = a0 | a3\n 11618: a0 = a0 | a1\n 11621: jump @451 if a0 == 0\n      : @450 (gas: 1)\n 11624: jump @748\n      : @451 (gas: 4)\n 11627: a0 = u64 [s1 + 0xd8]\n 11631: a0 = i32 [a0]\n 11633: a2 = s1 + 0x1858\n 11637: jump @453 if a0 >u 3\n      : @452 (gas: 1)\n 11641: jump @749\n      : @453 (gas: 8)\n 11644: u64 [a2 + 0] = 0\n 11646: u64 [a2 + 4294967288] = 0\n 11649: u64 [a2 + 4294967280] = 0\n 11652: u64 [a2 + 4294967272] = 0x12\n 11656: a0 = s1 + 0x7ff\n 11660: a0 = a0 + 0x221\n 11664: a1 = s1 + 0x1840\n 11668: ra = 382, jump @6\n      : @454 [@dyn 191] (gas: 12)\n 11674: a3 = s1 + 0x7ff\n 11678: a3 = a3 + 0x59\n 11681: a4 = a3 + 0x100\n 11685: a0 = u64 [a4 + 0xe0]\n 11689: a1 = u64 [a4 + 0xd0]\n 11693: a2 = u64 [a4 + 0xc8]\n 11697: a3 = u64 [a4 + 0xd8]\n 11701: a0 = a0 | a1\n 11704: a1 = a2 ^ 0x10\n 11707: a1 = a1 | a3\n 11710: a0 = a0 | a1\n 11713: jump @521 if a0 != 0\n      : @455 (gas: 9)\n 11717: a1 = s1 + 0x1858\n 11721: u64 [a1 + 32] = 0\n 11724: u64 [a1 + 24] = 0\n 11727: u64 [a1 + 16] = 0\n 11730: u64 [a1 + 8] = 0x16\n 11734: a0 = s1 + 0x7ff\n 11738: a0 = a0 + 0x161\n 11742: a1 = s1 + 0x1860\n 11746: ra = 384, jump @6\n      : @456 [@dyn 192] (gas: 5)\n 11752: a2 = s1 + 0x7ff\n 11756: a2 = a2 + 0x59\n 11759: a0 = u64 [a2 + 0x108]\n 11763: a0 = a0 & 0xff\n 11767: jump @556 if a0 != 0\n      : @457 (gas: 13)\n 11771: a0 = u64 [a2 + 0x120]\n 11775: u64 [s1 + 0xb8] = a0\n 11779: a0 = u64 [a2 + 0x118]\n 11783: u64 [s1 + 0xb0] = a0\n 11787: a1 = s1 + 0x1858\n 11791: u64 [a1 + 64] = 0\n 11794: u64 [a1 + 56] = 0\n 11797: u64 [a1 + 48] = 0\n 11800: u64 [a1 + 40] = 0x15\n 11804: a0 = s1 + 0x7ff\n 11808: a0 = a0 + 0xa1\n 11812: a1 = s1 + 0x1880\n 11816: ra = 386, jump @6\n      : @458 [@dyn 193] (gas: 14)\n 11822: a1 = s1 + 0x7ff\n 11826: a1 = a1 + 0x59\n 11829: a0 = u64 [a1 + 0x60]\n 11832: u64 [s1 + 0xd8] = a0\n 11836: a0 = u64 [a1 + 0x58]\n 11839: u64 [s1 + 0xd0] = a0\n 11843: a0 = u64 [a1 + 0x50]\n 11846: u64 [s1 + 0xc8] = a0\n 11850: a0 = u64 [a1 + 0x48]\n 11853: u64 [s1 + 0xc0] = a0\n 11857: a0 = s1 + 0x2000\n 11861: i32 a0 = a0 + 0xfffffffffffff8a0\n 11865: ecalli 1 // 'block_number'\n 11867: fallthrough\n      : @459 (gas: 21)\n 11868: t1 = u64 [s1 + 0xc0]\n 11872: a5 = u64 [s1 + 0xc8]\n 11876: t0 = u64 [s1 + 0xd8]\n 11880: a2 = s1 + 0x1858\n 11884: a0 = u64 [a2 + 0x50]\n 11887: a1 = u64 [a2 + 0x48]\n 11890: t2 = u64 [a2 + 0x58]\n 11893: a3 = u64 [a2 + 0x60]\n 11896: a4 = a0 ^ a5\n 11899: a0 = a5 <u a0\n 11902: a1 = t1 <u a1\n 11905: a1 = a0 if a4 != 0\n 11908: a0 = a3 ^ t0\n 11911: a2 = t0 <u a3\n 11914: a3 = u64 [s1 + 0xd0]\n 11918: a4 = a3 <u t2\n 11921: a4 = a2 if a0 != 0\n 11924: a2 = t2 ^ a3\n 11927: a0 = a0 | a2\n 11930: a1 = a4 if a0 != 0\n 11933: jump @582 if a1 == 0\n      : @460 (gas: 8)\n 11937: a0 = a5 + 0x1\n 11940: a1 = t1 <u 0xffffffffffffff01\n 11944: a1 = a1 ^ 0x1\n 11947: a1 = 0 if a0 != 0\n 11949: a0 = a3 & t0\n 11952: a0 = a0 + 0x1\n 11955: a1 = 0 if a0 != 0\n 11957: jump @462 if a1 == 0\n      : @461 (gas: 1)\n 11960: jump @778\n      : @462 (gas: 16)\n 11963: a0 = t1 + 0xff\n 11967: u64 [s1 + 0xa0] = a0\n 11971: a0 = a0 <u t1\n 11974: a1 = a5 + a0\n 11977: u64 [s1 + 0x90] = a1\n 11981: a1 = a1 <u a5\n 11984: a1 = a0 if a0 == 0\n 11987: a1 = a1 + a3\n 11990: u64 [s1 + 0xa8] = a1\n 11994: a0 = a1 <u a3\n 11997: a0 = a0 + t0\n 12000: u64 [s1 + 0x98] = a0\n 12004: a0 = s1 + 0x2000\n 12008: i32 a0 = a0 + 0xfffffffffffff8c0\n 12012: ecalli 1 // 'block_number'\n 12014: fallthrough\n      : @463 (gas: 22)\n 12015: t0 = s1 + 0x1858\n 12019: a5 = t0\n 12021: a0 = u64 [a5 + 0x68]\n 12024: a1 = u64 [a5 + 0x70]\n 12027: a2 = u64 [a5 + 0x80]\n 12031: a3 = u64 [s1 + 0xa0]\n 12035: a0 = a3 <u a0\n 12038: a4 = u64 [s1 + 0x90]\n 12042: a3 = a1 ^ a4\n 12045: a1 = a4 <u a1\n 12048: a4 = u64 [a5 + 0x78]\n 12051: a1 = a0 if a3 == 0\n 12054: a3 = u64 [s1 + 0x98]\n 12058: a0 = a2 ^ a3\n 12061: a2 = a3 <u a2\n 12064: a5 = u64 [s1 + 0xa8]\n 12068: a3 = a5 <u a4\n 12071: a2 = a3 if a0 == 0\n 12074: a3 = a4 ^ a5\n 12077: a0 = a0 | a3\n 12080: a1 = a2 if a0 != 0\n 12083: jump @597 if a1 == 0\n      : @464 (gas: 3)\n 12087: a0 = s1 + 0x340\n 12091: a1 = 0x40\n 12094: ra = 388, jump @2\n      : @465 [@dyn 194] (gas: 6)\n 12100: a1 = s1 + 0x300\n 12104: a4 = u64 [a1 + 0x58]\n 12107: a5 = u64 [a1 + 0x50]\n 12110: a3 = u64 [a1 + 0x48]\n 12113: a0 = u64 [a1 + 0x40]\n 12116: t0 = 390, jump @879\n      : @466 [@dyn 195] (gas: 1)\n 12122: jump @505 if a1 != 0\n      : @467 (gas: 6)\n 12126: u64 [s1 + 816] = 0\n 12130: u64 [s1 + 808] = 0\n 12134: u64 [s1 + 800] = 0\n 12138: t0 = 0x188\n 12142: a2 = 0x8c379a000000000\n 12152: fallthrough\n      : @468 [@dyn 196] (gas: 7)\n 12153: a1 = s1 + 0x320\n 12157: u64 [s1 + 0x338] = a2\n 12161: u64 [s1 + 0xd8] = a0\n 12165: u64 [s1 + 0xd0] = a3\n 12169: u64 [s1 + 0xc8] = a4\n 12173: u64 [s1 + 0xc0] = a5\n 12177: ra = 394, jump @4\n      : @469 [@dyn 197] (gas: 5)\n 12183: a1 = u64 [s1 + 0xd8]\n 12187: a0 = u64 [s1 + 0xc8]\n 12191: a3 = u64 [s1 + 0xc0]\n 12195: a3 = a3 | a0\n 12198: t0 = 396, jump @873\n      : @470 [@dyn 198] (gas: 1)\n 12204: jump @505 if a0 == 0\n      : @471 (gas: 9)\n 12208: i32 a0 = a1 + 0x4\n 12211: u64 [s1 + 792] = 0\n 12215: u64 [s1 + 784] = 0\n 12219: u64 [s1 + 768] = 0x20\n 12224: a1 = s1 + 0x300\n 12228: u64 [s1 + 776] = 0\n 12232: u64 [s1 + 0xc8] = a3\n 12236: u64 [s1 + 0xc0] = a4\n 12240: ra = 398, jump @4\n      : @472 [@dyn 199] (gas: 1)\n 12246: t0 = 400, jump @874\n      : @473 [@dyn 200] (gas: 1)\n 12252: jump @505 if a0 == 0\n      : @474 (gas: 7)\n 12256: i32 a0 = a1 + 0x24\n 12259: u64 [s1 + 760] = 0\n 12263: u64 [s1 + 752] = 0\n 12267: u64 [s1 + 736] = 0x1c\n 12272: a1 = s1 + 0x2e0\n 12276: u64 [s1 + 744] = 0\n 12280: ra = 402, jump @4\n      : @475 [@dyn 201] (gas: 4)\n 12286: a2 = u64 [s1 + 0xd8]\n 12290: a0 = 0xffffffbc\n 12300: a0 = a2 <u a0\n 12303: t0 = 404, jump @878\n      : @476 [@dyn 202] (gas: 1)\n 12309: jump @505 if a0 == 0\n      : @477 (gas: 13)\n 12313: i32 a0 = a2 + 0x44\n 12316: a1 = u64 [0x20148]\n 12321: a2 = u64 [0x20150]\n 12326: a3 = u64 [0x20158]\n 12331: a4 = s1 + 0x200\n 12335: u64 [a4 + 0xd8] = a1\n 12339: u64 [a4 + 0xd0] = a2\n 12343: u64 [a4 + 0xc8] = a3\n 12347: a2 = 0x6e6e657200000000\n 12357: a1 = s1 + 0x2c0\n 12361: u64 [a4 + 0xc0] = a2\n 12365: ra = 0x270\n 12369: jump @4\n      : @478 (gas: 9)\n 12372: u64 [a2 + 1216] = 0\n 12376: u64 [a2 + 1208] = 0\n 12380: u64 [a2 + 1200] = 0\n 12384: u64 [a2 + 1192] = 0\n 12388: a0 = s1 + 0x2000\n 12392: i32 a0 = a0 + 0xfffffffffffffd00\n 12396: ra = 0x196\n 12400: ecalli 15 // 'value_transferred'\n 12402: fallthrough\n      : @479 [@dyn 203] (gas: 3)\n 12403: a4 = s1 + 0x1858\n 12407: a5 = a4 + 0x400\n 12411: t0 = 408, jump @898\n      : @480 [@dyn 204] (gas: 1)\n 12417: jump @482 if a0 == 0\n      : @481 (gas: 1)\n 12420: jump @750\n      : @482 (gas: 3)\n 12423: a0 = u64 [s1 + 0xd8]\n 12427: a0 = i32 [a0]\n 12429: jump @484 if a0 >u 3\n      : @483 (gas: 1)\n 12433: jump @751\n      : @484 (gas: 8)\n 12436: u64 [a4 + 1248] = 0\n 12440: u64 [a4 + 1240] = 0\n 12444: u64 [a4 + 1232] = 0\n 12448: u64 [a4 + 1224] = 0x13\n 12453: a0 = s1 + 0x7ff\n 12457: a0 = a0 + 0x2e1\n 12461: a1 = s1 + 0x1d20\n 12465: ra = 410, jump @6\n      : @485 [@dyn 205] (gas: 15)\n 12471: a1 = s1 + 0x7ff\n 12475: a1 = a1 + 0x59\n 12478: a2 = a1 + 0x200\n 12482: a0 = u64 [a2 + 0xa0]\n 12486: u64 [s1 + 0xd8] = a0\n 12490: a0 = u64 [a2 + 0x98]\n 12494: u64 [s1 + 0xd0] = a0\n 12498: a0 = u64 [a2 + 0x90]\n 12502: u64 [s1 + 0xc8] = a0\n 12506: a0 = u64 [a2 + 0x88]\n 12510: u64 [s1 + 0xc0] = a0\n 12514: a0 = s1 + 0x7ff\n 12518: a0 = a0 + 0x2c1\n 12522: a1 = 0x40\n 12525: ra = 412, jump @2\n      : @486 [@dyn 206] (gas: 8)\n 12531: a3 = s1 + 0x7ff\n 12535: a3 = a3 + 0x59\n 12538: a5 = a3 + 0x200\n 12542: a0 = u64 [a5 + 0x80]\n 12546: a1 = u64 [a5 + 0x78]\n 12549: a2 = u64 [a5 + 0x70]\n 12552: a4 = u64 [a5 + 0x68]\n 12555: t0 = 414, jump @880\n      : @487 [@dyn 207] (gas: 1)\n 12561: jump @505 if a0 != 0\n      : @488 (gas: 15)\n 12565: a0 = u64 [s1 + 0xc0]\n 12569: a2 = a3 + 0x200\n 12573: u64 [a2 + 0x48] = a0\n 12576: a0 = u64 [s1 + 0xc8]\n 12580: u64 [a2 + 0x50] = a0\n 12583: a0 = u64 [s1 + 0xd0]\n 12587: u64 [a2 + 0x58] = a0\n 12590: a1 = s1 + 0x7ff\n 12594: a1 = a1 + 0x2a1\n 12598: a0 = u64 [s1 + 0xd8]\n 12602: u64 [a2 + 0x60] = a0\n 12605: a0 = a4\n 12607: u64 [s1 + 0xd8] = a4\n 12611: ra = 0x28c\n 12615: jump @4\n      : @489 (gas: 11)\n 12618: a0 = s1 + 0x1858\n 12622: u64 [a0 + 1920] = 0\n 12626: u64 [a0 + 1912] = 0\n 12630: u64 [a0 + 1904] = 0\n 12634: u64 [a0 + 1896] = 0\n 12638: a0 = s1 + 0x2000\n 12642: i32 a0 = a0 + 0xffffffffffffffc0\n 12645: ra = 0x1a0\n 12649: ecalli 15 // 'value_transferred'\n 12651: t0 = 0x1a2\n 12655: jump @895\n      : @490 [@dyn 208] (gas: 1)\n 12658: t0 = 418, jump @895\n      : @491 [@dyn 209] (gas: 8)\n 12664: a0 = u64 [a5 + 0x78]\n 12667: a1 = u64 [a5 + 0x80]\n 12671: a2 = u64 [a5 + 0x70]\n 12674: a3 = u64 [a5 + 0x68]\n 12677: a1 = a1 | a2\n 12680: a0 = a0 | a3\n 12683: a0 = a0 | a1\n 12686: jump @493 if a0 == 0\n      : @492 (gas: 1)\n 12689: jump @752\n      : @493 (gas: 3)\n 12692: a0 = u64 [s1 + 0xd8]\n 12696: a0 = i32 [a0]\n 12698: jump @495 if a0 >u 3\n      : @494 (gas: 1)\n 12702: jump @753\n      : @495 (gas: 8)\n 12705: u64 [a4 + 1952] = 0\n 12709: u64 [a4 + 1944] = 0\n 12713: u64 [a4 + 1936] = 0\n 12717: u64 [a4 + 1928] = 0x17\n 12722: a0 = s1 + 0x7ff\n 12726: a0 = a0 + 0x721\n 12730: a1 = s1 + 0x1fe0\n 12734: ra = 420, jump @6\n      : @496 [@dyn 210] (gas: 13)\n 12740: a1 = s1 + 0x7ff\n 12744: a1 = a1 + 0x59\n 12747: a2 = a1 + 0x600\n 12751: a0 = u64 [a2 + 0xd8]\n 12755: u64 [s1 + 0xc8] = a0\n 12759: a0 = u64 [a2 + 0xd0]\n 12763: u64 [s1 + 0xd8] = a0\n 12767: a0 = u64 [a2 + 0xc8]\n 12771: u64 [s1 + 0xd0] = a0\n 12775: a0 = s1 + 0x7ff\n 12779: a0 = a0 + 0x701\n 12783: a1 = 0x40\n 12786: ra = 422, jump @2\n      : @497 [@dyn 211] (gas: 8)\n 12792: a3 = s1 + 0x7ff\n 12796: a3 = a3 + 0x59\n 12799: a5 = a3 + 0x600\n 12803: a4 = u64 [a5 + 0xc0]\n 12807: a1 = u64 [a5 + 0xb8]\n 12811: a2 = u64 [a5 + 0xb0]\n 12815: a0 = u64 [a5 + 0xa8]\n 12819: t0 = 424, jump @876\n      : @498 [@dyn 212] (gas: 1)\n 12825: jump @505 if a1 != 0\n      : @499 (gas: 15)\n 12829: a1 = u64 [s1 + 0xc8]\n 12833: a1 = a1 << 0x20\n 12836: a2 = a1 >> 0x20\n 12839: u64 [a3 + 1696] = 0\n 12843: a1 = u64 [s1 + 0xd0]\n 12847: a4 = a3 + 0x600\n 12851: u64 [a4 + 0x88] = a1\n 12855: a1 = u64 [s1 + 0xd8]\n 12859: u64 [a4 + 0x90] = a1\n 12863: a1 = s1 + 0x7ff\n 12867: a1 = a1 + 0x6e1\n 12871: u64 [a4 + 0x98] = a2\n 12875: u64 [s1 + 0xd8] = a0\n 12879: ra = 0x28c\n 12883: jump @4\n      : @500 (gas: 9)\n 12886: a0 = sp + 0xffffffffffffffe0\n 12889: a0 = a0 & 0xffffffffffffffe0\n 12892: sp = a0\n 12894: u64 [a0 + 24] = 0\n 12897: u64 [a0 + 16] = 0\n 12900: u64 [a0 + 8] = 0\n 12903: u64 [s1 + 0xd8] = a0\n 12907: u64 [a0 + 0] = 0\n 12909: fallthrough\n      : @501 (gas: 3)\n 12910: a0 = s1 + 0x1620\n 12914: a1 = 0x40\n 12917: ra = 426, jump @2\n      : @502 [@dyn 213] (gas: 7)\n 12923: a3 = s1 + 0x1058\n 12927: a5 = a3 + 0x500\n 12931: a4 = u64 [a5 + 0xe0]\n 12935: a1 = u64 [a5 + 0xd8]\n 12939: a2 = u64 [a5 + 0xd0]\n 12943: a0 = u64 [a5 + 0xc8]\n 12947: t0 = 428, jump @876\n      : @503 [@dyn 214] (gas: 1)\n 12953: jump @505 if a1 != 0\n      : @504 (gas: 1)\n 12956: jump @754\n      : @505 (gas: 1)\n 12959: trap\n      : @506 (gas: 3)\n 12960: a0 = s1 + 0x13a0\n 12964: a1 = 0x40\n 12967: ra = 430, jump @2\n      : @507 [@dyn 215] (gas: 2)\n 12973: a2 = s1 + 0x1058\n 12977: fallthrough\n      : @508 (gas: 13)\n 12978: t0 = u64 [a2 + 0x360]\n 12982: a1 = a2 + 0x300\n 12986: a5 = u64 [a1 + 0x58]\n 12989: a4 = u64 [a1 + 0x50]\n 12992: a0 = u64 [a1 + 0x48]\n 12995: a3 = a4 | t0\n 12998: a1 = a0 | a5\n 13001: a1 = a1 | a3\n 13004: a1 = a1 >> 0x20\n 13007: a3 = a3 | a5\n 13010: a3 = a3 << 0x20\n 13013: a1 = a1 | a3\n 13016: jump @505 if a1 != 0\n      : @509 (gas: 11)\n 13019: u64 [a2 + 824] = 0\n 13023: u64 [a2 + 816] = 0\n 13027: u64 [a2 + 808] = 0\n 13031: a3 = 0x8c379a000000000\n 13041: a1 = s1 + 0x1380\n 13045: u64 [a2 + 0x340] = a3\n 13049: u64 [s1 + 0xd8] = a0\n 13053: u64 [s1 + 0xd0] = a4\n 13057: u64 [s1 + 0xc0] = t0\n 13061: u64 [s1 + 0xc8] = a5\n 13065: ra = 432, jump @4\n      : @510 [@dyn 216] (gas: 5)\n 13071: a1 = u64 [s1 + 0xd8]\n 13075: a0 = u64 [s1 + 0xc8]\n 13079: a3 = u64 [s1 + 0xc0]\n 13083: a3 = a3 | a0\n 13086: t0 = 434, jump @873\n      : @511 [@dyn 217] (gas: 1)\n 13092: jump @505 if a0 == 0\n      : @512 (gas: 1)\n 13096: t0 = 436, jump @882\n      : @513 [@dyn 218] (gas: 8)\n 13102: u64 [a2 + 800] = 0\n 13106: u64 [a2 + 792] = 0\n 13110: u64 [a2 + 776] = 0x20\n 13115: a1 = s1 + 0x1360\n 13119: u64 [a2 + 784] = 0\n 13123: u64 [s1 + 0xc8] = a3\n 13127: u64 [s1 + 0xc0] = a4\n 13131: ra = 438, jump @4\n      : @514 [@dyn 219] (gas: 1)\n 13137: t0 = 440, jump @874\n      : @515 [@dyn 220] (gas: 1)\n 13143: jump @505 if a0 == 0\n      : @516 (gas: 1)\n 13147: t0 = 442, jump @896\n      : @517 [@dyn 221] (gas: 6)\n 13153: u64 [a3 + 768] = 0\n 13157: u64 [a3 + 760] = 0\n 13161: u64 [a3 + 744] = 0x13\n 13166: a1 = s1 + 0x1340\n 13170: u64 [a3 + 752] = 0\n 13174: ra = 444, jump @4\n      : @518 [@dyn 222] (gas: 1)\n 13180: t0 = 446, jump @875\n      : @519 [@dyn 223] (gas: 1)\n 13186: jump @505 if a0 == 0\n      : @520 (gas: 13)\n 13190: i32 a0 = a3 + 0x44\n 13193: a1 = u64 [0x20050]\n 13198: a2 = u64 [0x20058]\n 13203: a4 = s1 + 0x1058\n 13207: a3 = a4 + 0x200\n 13211: u64 [a3 + 0xe0] = a1\n 13215: u64 [a3 + 0xd8] = a2\n 13219: a1 = 0x6665650000000000\n 13229: u64 [a3 + 0xd0] = a1\n 13233: a1 = s1 + 0x1320\n 13237: u64 [a4 + 712] = 0\n 13241: ra = 0x270\n 13245: jump @4\n      : @521 (gas: 4)\n 13248: a0 = s1 + 0x7ff\n 13252: a0 = a0 + 0x201\n 13256: a1 = 0x40\n 13259: ra = 448, jump @2\n      : @522 [@dyn 224] (gas: 15)\n 13265: a4 = s1 + 0x7ff\n 13269: a4 = a4 + 0x59\n 13272: t0 = u64 [a4 + 0x1c0]\n 13276: a1 = a4 + 0x100\n 13280: a5 = u64 [a1 + 0xb8]\n 13284: a3 = u64 [a1 + 0xb0]\n 13288: a0 = u64 [a1 + 0xa8]\n 13292: a2 = a3 | t0\n 13295: a1 = a0 | a5\n 13298: a1 = a1 | a2\n 13301: a1 = a1 >> 0x20\n 13304: a2 = a2 | a5\n 13307: a2 = a2 << 0x20\n 13310: a1 = a1 | a2\n 13313: jump @505 if a1 != 0\n      : @523 (gas: 12)\n 13317: u64 [a4 + 408] = 0\n 13321: u64 [a4 + 400] = 0\n 13325: u64 [a4 + 392] = 0\n 13329: u64 [s1 + 0xd0] = a3\n 13333: a3 = 0x8c379a000000000\n 13343: a1 = s1 + 0x7ff\n 13347: a1 = a1 + 0x1e1\n 13351: u64 [a4 + 0x1a0] = a3\n 13355: u64 [s1 + 0xd8] = a0\n 13359: u64 [s1 + 0xc8] = t0\n 13363: u64 [s1 + 0xc0] = a5\n 13367: ra = 450, jump @4\n      : @524 [@dyn 225] (gas: 5)\n 13373: a1 = u64 [s1 + 0xd8]\n 13377: a0 = u64 [s1 + 0xc8]\n 13381: a3 = u64 [s1 + 0xc0]\n 13385: a3 = a3 | a0\n 13388: t0 = 452, jump @873\n      : @525 [@dyn 226] (gas: 1)\n 13394: jump @505 if a0 == 0\n      : @526 (gas: 12)\n 13398: i32 a0 = a1 + 0x4\n 13401: a2 = s1 + 0x7ff\n 13405: a2 = a2 + 0x59\n 13408: u64 [a2 + 384] = 0\n 13412: u64 [a2 + 376] = 0\n 13416: u64 [a2 + 360] = 0x20\n 13421: a1 = s1 + 0x7ff\n 13425: a1 = a1 + 0x1c1\n 13429: u64 [a2 + 368] = 0\n 13433: u64 [s1 + 0xc8] = a3\n 13437: u64 [s1 + 0xc0] = a4\n 13441: ra = 454, jump @4\n      : @527 [@dyn 227] (gas: 1)\n 13447: t0 = 456, jump @874\n      : @528 [@dyn 228] (gas: 1)\n 13453: jump @505 if a0 == 0\n      : @529 (gas: 10)\n 13457: i32 a0 = a1 + 0x24\n 13460: a3 = s1 + 0x7ff\n 13464: a3 = a3 + 0x59\n 13467: u64 [a3 + 352] = 0\n 13471: u64 [a3 + 344] = 0\n 13475: u64 [a3 + 328] = 0x11\n 13480: a1 = s1 + 0x7ff\n 13484: a1 = a1 + 0x1a1\n 13488: u64 [a3 + 336] = 0\n 13492: ra = 458, jump @4\n      : @530 [@dyn 229] (gas: 1)\n 13498: t0 = 460, jump @875\n      : @531 [@dyn 230] (gas: 1)\n 13504: jump @505 if a0 == 0\n      : @532 (gas: 15)\n 13508: i32 a0 = a3 + 0x44\n 13511: a1 = u64 [0x200b0]\n 13516: a2 = u64 [0x200b8]\n 13521: a4 = s1 + 0x7ff\n 13525: a4 = a4 + 0x59\n 13528: a3 = a4 + 0x100\n 13532: u64 [a3 + 0x40] = a1\n 13535: u64 [a3 + 0x38] = a2\n 13538: a1 = 0x6500000000000000\n 13548: u64 [a3 + 0x30] = a1\n 13551: a1 = s1 + 0x7ff\n 13555: a1 = a1 + 0x181\n 13559: u64 [a4 + 296] = 0\n 13563: ra = 0x270\n 13567: jump @4\n      : @533 (gas: 15)\n 13570: u64 [s1 + 472] = 0\n 13574: u64 [s1 + 464] = 0\n 13578: u64 [s1 + 456] = 0\n 13582: u64 [s1 + 448] = 0x200\n 13588: a0 = u64 [s1 + 0x40]\n 13591: u64 [s1 + 0x1e0] = a0\n 13595: a0 = u64 [s1 + 0x50]\n 13598: u64 [s1 + 0x1e8] = a0\n 13602: a0 = u64 [s1 + 0x58]\n 13605: u64 [s1 + 0x1f0] = a0\n 13609: a0 = s1 + 0x1e0\n 13613: a1 = s1 + 0x1c0\n 13617: a2 = u64 [s1 + 0x60]\n 13620: u64 [s1 + 0x1f8] = a2\n 13624: ra = 462, jump @798\n      : @534 [@dyn 231] (gas: 3)\n 13630: a0 = s1 + 0x1a0\n 13634: a1 = 0x40\n 13637: ra = 464, jump @2\n      : @535 [@dyn 232] (gas: 19)\n 13643: a3 = u64 [s1 + 0x40]\n 13646: a1 = s1 + 0x100\n 13650: a4 = u64 [a1 + 0xb8]\n 13654: t0 = u64 [s1 + 0x1b0]\n 13658: a2 = u64 [a1 + 0xa8]\n 13662: a0 = u64 [a1 + 0xa0]\n 13666: a5 = 0\n 13668: ra = 0\n 13670: t1 = 0\n 13672: u64 [s1 + 0x90] = a0\n 13676: u64 [s1 + 0xd0] = a0\n 13680: u64 [s1 + 0x78] = a2\n 13683: u64 [s1 + 0xc8] = a2\n 13687: u64 [s1 + 0x88] = t0\n 13691: t2 = t0\n 13693: t0 = 0\n 13695: u64 [s1 + 0x80] = a4\n 13699: u64 [s1 + 0xd8] = a4\n 13703: fallthrough\n      : @536 (gas: 6)\n 13704: a0 = a5 <u 0x10\n 13707: a0 = 0 if ra != 0\n 13709: u64 [s1 + 0xb8] = t0\n 13713: a1 = t1 | t0\n 13716: a0 = 0 if a1 != 0\n 13718: jump @594 if a0 == 0\n      : @537 (gas: 12)\n 13722: a2 = u64 [s1 + 0x58]\n 13725: a0 = a3 | a2\n 13728: a1 = u64 [s1 + 0x60]\n 13731: a4 = a3\n 13733: a3 = u64 [s1 + 0x50]\n 13736: a1 = a1 | a3\n 13739: a0 = a0 | a1\n 13742: a0 = a0 >> 0x20\n 13745: a1 = a1 | a2\n 13748: a1 = a1 << 0x20\n 13751: a0 = a0 | a1\n 13754: jump @505 if a0 != 0\n      : @538 (gas: 8)\n 13758: u64 [s1 + 0xa0] = t1\n 13762: u64 [s1 + 0xa8] = ra\n 13766: u64 [s1 + 0xb0] = a5\n 13770: a0 = s1 + 0x180\n 13774: u64 [s1 + 0x40] = a4\n 13777: a1 = a4\n 13779: u64 [s1 + 0xc0] = t2\n 13783: ra = 466, jump @2\n      : @539 [@dyn 233] (gas: 12)\n 13789: a4 = u64 [s1 + 0xc0]\n 13793: a0 = u64 [s1 + 0xd0]\n 13797: a2 = a0 | a4\n 13800: a3 = u64 [s1 + 0xd8]\n 13804: a5 = u64 [s1 + 0xc8]\n 13808: a1 = a5 | a3\n 13811: a2 = a2 | a1\n 13814: a2 = a2 >> 0x20\n 13817: a1 = a1 | a4\n 13820: a1 = a1 << 0x20\n 13823: a1 = a1 | a2\n 13826: jump @505 if a1 != 0\n      : @540 (gas: 17)\n 13830: u64 [s1 + 0xc8] = a5\n 13834: a4 = s1 + 0x100\n 13838: a5 = u64 [a4 + 0x90]\n 13842: a1 = u64 [a4 + 0x88]\n 13846: a2 = u64 [a4 + 0x80]\n 13850: u64 [s1 + 0xd8] = a3\n 13854: a3 = u64 [s1 + 0x68]\n 13857: a5 = a5 & a3\n 13860: a1 = a1 & 0xffffffffffffffff\n 13863: a2 = a2 & 0xffffffffffffffff\n 13866: u64 [s1 + 376] = 0\n 13870: u64 [a4 + 0x60] = a2\n 13873: u64 [a4 + 0x68] = a1\n 13876: a1 = s1 + 0x160\n 13880: u64 [a4 + 0x70] = a5\n 13883: u64 [s1 + 0xd0] = a0\n 13887: ra = 468, jump @4\n      : @541 [@dyn 234] (gas: 46)\n 13893: a1 = u64 [s1 + 0xd0]\n 13897: a0 = a1 + 0x20\n 13900: u64 [s1 + 0x98] = a0\n 13904: a2 = a0 <u a1\n 13907: a0 = u64 [s1 + 0xc8]\n 13911: t1 = a0 + a2\n 13914: a3 = t1 <u a0\n 13917: a3 = a2 if a2 == 0\n 13920: a0 = u64 [s1 + 0xc0]\n 13924: t2 = a0 + a3\n 13927: a3 = t2 <u a0\n 13930: a0 = u64 [s1 + 0xd8]\n 13934: a0 = a0 + a3\n 13937: u64 [s1 + 0xd8] = a0\n 13941: a0 = u64 [s1 + 0x40]\n 13944: a3 = a0 + 0x20\n 13947: a4 = a3 <u a0\n 13950: a0 = u64 [s1 + 0x50]\n 13953: a2 = a0 + a4\n 13956: a0 = a2 <u a0\n 13959: a0 = a4 if a4 == 0\n 13962: a1 = u64 [s1 + 0x58]\n 13965: a0 = a0 + a1\n 13968: a4 = a0 <u a1\n 13971: a1 = u64 [s1 + 0x60]\n 13974: a1 = a1 + a4\n 13977: u64 [s1 + 0x60] = a1\n 13980: a5 = u64 [s1 + 0xb0]\n 13984: a5 = a5 + 0x1\n 13987: a4 = a5 <u 0x1\n 13990: ra = u64 [s1 + 0xa8]\n 13994: ra = ra + a4\n 13997: a4 = a5 | ra\n 14000: a4 = a4 <u 0x1\n 14003: a1 = u64 [s1 + 0xa0]\n 14007: a4 = a4 + a1\n 14010: a1 = a4 <u a1\n 14013: t0 = u64 [s1 + 0xb8]\n 14017: t0 = t0 + a1\n 14020: a1 = u64 [s1 + 0x98]\n 14024: u64 [s1 + 0xd0] = a1\n 14028: u64 [s1 + 0xc8] = t1\n 14032: u64 [s1 + 0x50] = a2\n 14035: u64 [s1 + 0x58] = a0\n 14038: t1 = a4\n 14040: jump @536\n      : @542 (gas: 3)\n 14043: a0 = s1 + 0x1280\n 14047: a1 = 0x40\n 14050: ra = 470, jump @2\n      : @543 [@dyn 235] (gas: 2)\n 14056: a2 = s1 + 0x1058\n 14060: fallthrough\n      : @544 (gas: 13)\n 14061: t0 = u64 [a2 + 0x240]\n 14065: a1 = a2 + 0x200\n 14069: a5 = u64 [a1 + 0x38]\n 14072: a4 = u64 [a1 + 0x30]\n 14075: a0 = u64 [a1 + 0x28]\n 14078: a3 = a4 | t0\n 14081: a1 = a0 | a5\n 14084: a1 = a1 | a3\n 14087: a1 = a1 >> 0x20\n 14090: a3 = a3 | a5\n 14093: a3 = a3 << 0x20\n 14096: a1 = a1 | a3\n 14099: jump @505 if a1 != 0\n      : @545 (gas: 11)\n 14103: u64 [a2 + 536] = 0\n 14107: u64 [a2 + 528] = 0\n 14111: u64 [a2 + 520] = 0\n 14115: a3 = 0x8c379a000000000\n 14125: a1 = s1 + 0x1260\n 14129: u64 [a2 + 0x220] = a3\n 14133: u64 [s1 + 0xd8] = a0\n 14137: u64 [s1 + 0xd0] = a4\n 14141: u64 [s1 + 0xc0] = t0\n 14145: u64 [s1 + 0xc8] = a5\n 14149: ra = 472, jump @4\n      : @546 [@dyn 236] (gas: 5)\n 14155: a1 = u64 [s1 + 0xd8]\n 14159: a0 = u64 [s1 + 0xc8]\n 14163: a3 = u64 [s1 + 0xc0]\n 14167: a3 = a3 | a0\n 14170: t0 = 474, jump @873\n      : @547 [@dyn 237] (gas: 1)\n 14176: jump @505 if a0 == 0\n      : @548 (gas: 1)\n 14180: t0 = 476, jump @882\n      : @549 [@dyn 238] (gas: 8)\n 14186: u64 [a2 + 512] = 0\n 14190: u64 [a2 + 504] = 0\n 14194: u64 [a2 + 488] = 0x20\n 14199: a1 = s1 + 0x1240\n 14203: u64 [a2 + 496] = 0\n 14207: u64 [s1 + 0xc8] = a3\n 14211: u64 [s1 + 0xc0] = a4\n 14215: ra = 478, jump @4\n      : @550 [@dyn 239] (gas: 1)\n 14221: t0 = 480, jump @890\n      : @551 [@dyn 240] (gas: 1)\n 14227: jump @505 if a0 == 0\n      : @552 (gas: 8)\n 14231: i32 a0 = a1 + 0x24\n 14234: a2 = s1 + 0x1058\n 14238: u64 [a2 + 480] = 0\n 14242: u64 [a2 + 472] = 0\n 14246: u64 [a2 + 456] = 0x15\n 14251: a1 = s1 + 0x1220\n 14255: u64 [a2 + 464] = 0\n 14259: ra = 482, jump @4\n      : @553 [@dyn 241] (gas: 1)\n 14265: t0 = 484, jump @875\n      : @554 [@dyn 242] (gas: 1)\n 14271: jump @505 if a0 == 0\n      : @555 (gas: 13)\n 14275: i32 a0 = a3 + 0x44\n 14278: a1 = u64 [0x20060]\n 14283: a2 = u64 [0x20068]\n 14288: a4 = s1 + 0x1058\n 14292: a3 = a4 + 0x100\n 14296: u64 [a3 + 0xc0] = a1\n 14300: u64 [a3 + 0xb8] = a2\n 14304: a1 = 0x6563746564000000\n 14314: u64 [a3 + 0xb0] = a1\n 14318: a1 = s1 + 0x1200\n 14322: u64 [a4 + 424] = 0\n 14326: ra = 0x270\n 14330: jump @4\n      : @556 (gas: 4)\n 14333: a0 = s1 + 0x7ff\n 14337: a0 = a0 + 0x141\n 14341: a1 = 0x40\n 14344: ra = 486, jump @2\n      : @557 [@dyn 243] (gas: 14)\n 14350: a2 = s1 + 0x7ff\n 14354: a2 = a2 + 0x59\n 14357: t0 = u64 [a2 + 0x100]\n 14361: a5 = u64 [a2 + 0xf8]\n 14365: a4 = u64 [a2 + 0xf0]\n 14369: a0 = u64 [a2 + 0xe8]\n 14373: a3 = a4 | t0\n 14376: a1 = a0 | a5\n 14379: a1 = a1 | a3\n 14382: a1 = a1 >> 0x20\n 14385: a3 = a3 | a5\n 14388: a3 = a3 << 0x20\n 14391: a1 = a1 | a3\n 14394: jump @505 if a1 != 0\n      : @558 (gas: 12)\n 14398: u64 [a2 + 216] = 0\n 14402: u64 [a2 + 208] = 0\n 14406: u64 [a2 + 200] = 0\n 14410: a3 = 0x8c379a000000000\n 14420: a1 = s1 + 0x7ff\n 14424: a1 = a1 + 0x121\n 14428: u64 [a2 + 0xe0] = a3\n 14432: u64 [s1 + 0xd8] = a0\n 14436: u64 [s1 + 0xd0] = a4\n 14440: u64 [s1 + 0xc0] = t0\n 14444: u64 [s1 + 0xc8] = a5\n 14448: ra = 488, jump @4\n      : @559 [@dyn 244] (gas: 5)\n 14454: a1 = u64 [s1 + 0xd8]\n 14458: a0 = u64 [s1 + 0xc8]\n 14462: a3 = u64 [s1 + 0xc0]\n 14466: a3 = a3 | a0\n 14469: t0 = 490, jump @873\n      : @560 [@dyn 245] (gas: 1)\n 14475: jump @505 if a0 == 0\n      : @561 (gas: 13)\n 14479: i32 a0 = a1 + 0x4\n 14482: a2 = s1 + 0x7ff\n 14486: a2 = a2 + 0x59\n 14489: a5 = 0\n 14491: u64 [a2 + 192] = 0\n 14495: u64 [a2 + 184] = 0\n 14499: u64 [a2 + 168] = 0x20\n 14504: a1 = s1 + 0x7ff\n 14508: a1 = a1 + 0x101\n 14512: u64 [a2 + 176] = 0\n 14516: u64 [s1 + 0xc8] = a3\n 14520: u64 [s1 + 0xc0] = a4\n 14524: ra = 492, jump @4\n      : @562 [@dyn 246] (gas: 1)\n 14530: t0 = 494, jump @874\n      : @563 [@dyn 247] (gas: 1)\n 14536: jump @505 if a0 == 0\n      : @564 (gas: 11)\n 14540: i32 a0 = a1 + 0x24\n 14543: a3 = s1 + 0x7ff\n 14547: a3 = a3 + 0x59\n 14550: u64 [a3 + 160] = 0\n 14554: u64 [a3 + 152] = 0\n 14558: u64 [a3 + 144] = 0\n 14562: a4 = 0x19\n 14565: a1 = s1 + 0x7ff\n 14569: a1 = a1 + 0xe1\n 14573: u64 [a3 + 0x88] = a4\n 14577: ra = 496, jump @4\n      : @565 [@dyn 248] (gas: 1)\n 14583: t0 = 498, jump @875\n      : @566 [@dyn 249] (gas: 1)\n 14589: jump @505 if a0 == 0\n      : @567 (gas: 15)\n 14593: i32 a0 = a3 + 0x44\n 14596: a1 = u64 [0x200c0]\n 14601: a2 = u64 [0x200c8]\n 14606: a3 = u64 [0x200d0]\n 14611: a4 = s1 + 0x7ff\n 14615: a4 = a4 + 0x59\n 14618: u64 [a4 + 0x80] = a1\n 14622: u64 [a4 + 0x78] = a2\n 14625: u64 [a4 + 0x70] = a3\n 14628: a2 = 0x6400000000000000\n 14638: a1 = s1 + 0x7ff\n 14642: a1 = a1 + 0xc1\n 14646: u64 [a4 + 0x68] = a2\n 14649: ra = 0x270\n 14653: jump @4\n      : @568 (gas: 3)\n 14656: a0 = s1 + 0x11c0\n 14660: a1 = 0x40\n 14663: ra = 500, jump @2\n      : @569 [@dyn 250] (gas: 2)\n 14669: a2 = s1 + 0x1058\n 14673: fallthrough\n      : @570 (gas: 13)\n 14674: t0 = u64 [a2 + 0x180]\n 14678: a1 = a2 + 0x100\n 14682: a5 = u64 [a1 + 0x78]\n 14685: a4 = u64 [a1 + 0x70]\n 14688: a0 = u64 [a1 + 0x68]\n 14691: a3 = a4 | t0\n 14694: a1 = a0 | a5\n 14697: a1 = a1 | a3\n 14700: a1 = a1 >> 0x20\n 14703: a3 = a3 | a5\n 14706: a3 = a3 << 0x20\n 14709: a1 = a1 | a3\n 14712: jump @505 if a1 != 0\n      : @571 (gas: 11)\n 14716: u64 [a2 + 344] = 0\n 14720: u64 [a2 + 336] = 0\n 14724: u64 [a2 + 328] = 0\n 14728: a3 = 0x8c379a000000000\n 14738: a1 = s1 + 0x11a0\n 14742: u64 [a2 + 0x160] = a3\n 14746: u64 [s1 + 0xd8] = a0\n 14750: u64 [s1 + 0xd0] = a4\n 14754: u64 [s1 + 0xc0] = t0\n 14758: u64 [s1 + 0xc8] = a5\n 14762: ra = 502, jump @4\n      : @572 [@dyn 251] (gas: 5)\n 14768: a1 = u64 [s1 + 0xd8]\n 14772: a0 = u64 [s1 + 0xc8]\n 14776: a3 = u64 [s1 + 0xc0]\n 14780: a3 = a3 | a0\n 14783: t0 = 504, jump @873\n      : @573 [@dyn 252] (gas: 1)\n 14789: jump @505 if a0 == 0\n      : @574 (gas: 1)\n 14793: t0 = 506, jump @882\n      : @575 [@dyn 253] (gas: 8)\n 14799: u64 [a2 + 320] = 0\n 14803: u64 [a2 + 312] = 0\n 14807: u64 [a2 + 296] = 0x20\n 14812: a1 = s1 + 0x1180\n 14816: u64 [a2 + 304] = 0\n 14820: u64 [s1 + 0xc8] = a3\n 14824: u64 [s1 + 0xc0] = a4\n 14828: ra = 508, jump @4\n      : @576 [@dyn 254] (gas: 1)\n 14834: t0 = 510, jump @890\n      : @577 [@dyn 255] (gas: 1)\n 14840: jump @505 if a0 == 0\n      : @578 (gas: 8)\n 14844: i32 a0 = a1 + 0x24\n 14847: a2 = s1 + 0x1058\n 14851: u64 [a2 + 288] = 0\n 14855: u64 [a2 + 280] = 0\n 14859: u64 [a2 + 264] = 0x15\n 14864: a1 = s1 + 0x1160\n 14868: u64 [a2 + 272] = 0\n 14872: ra = 512, jump @4\n      : @579 [@dyn 256] (gas: 1)\n 14878: t0 = 514, jump @875\n      : @580 [@dyn 257] (gas: 1)\n 14884: jump @505 if a0 == 0\n      : @581 (gas: 12)\n 14888: i32 a0 = a3 + 0x44\n 14891: a1 = u64 [0x20070]\n 14896: a2 = u64 [0x20078]\n 14901: a4 = s1 + 0x1058\n 14905: u64 [a4 + 0x100] = a1\n 14909: u64 [a4 + 0xf8] = a2\n 14913: a1 = 0x6973686564000000\n 14923: u64 [a4 + 0xf0] = a1\n 14927: a1 = s1 + 0x1140\n 14931: u64 [a4 + 232] = 0\n 14935: ra = 0x270\n 14939: jump @4\n      : @582 (gas: 4)\n 14942: a0 = s1 + 0x7ff\n 14946: a0 = a0 + 0x81\n 14950: a1 = 0x40\n 14953: ra = 516, jump @2\n      : @583 [@dyn 258] (gas: 14)\n 14959: a4 = s1 + 0x7ff\n 14963: a4 = a4 + 0x59\n 14966: t0 = u64 [a4 + 0x40]\n 14969: a5 = u64 [a4 + 0x38]\n 14972: a3 = u64 [a4 + 0x30]\n 14975: a0 = u64 [a4 + 0x28]\n 14978: a2 = a3 | t0\n 14981: a1 = a0 | a5\n 14984: a1 = a1 | a2\n 14987: a1 = a1 >> 0x20\n 14990: a2 = a2 | a5\n 14993: a2 = a2 << 0x20\n 14996: a1 = a1 | a2\n 14999: jump @505 if a1 != 0\n      : @584 (gas: 12)\n 15003: u64 [a4 + 24] = 0\n 15006: u64 [a4 + 16] = 0\n 15009: u64 [a4 + 8] = 0\n 15012: u64 [s1 + 0xd0] = a3\n 15016: a3 = 0x8c379a000000000\n 15026: a1 = s1 + 0x7ff\n 15030: a1 = a1 + 0x61\n 15033: u64 [a4 + 0x20] = a3\n 15036: u64 [s1 + 0xd8] = a0\n 15040: u64 [s1 + 0xc8] = t0\n 15044: u64 [s1 + 0xc0] = a5\n 15048: ra = 518, jump @4\n      : @585 [@dyn 259] (gas: 5)\n 15054: a1 = u64 [s1 + 0xd8]\n 15058: a0 = u64 [s1 + 0xc8]\n 15062: a3 = u64 [s1 + 0xc0]\n 15066: a3 = a3 | a0\n 15069: t0 = 520, jump @873\n      : @586 [@dyn 260] (gas: 1)\n 15075: jump @505 if a0 == 0\n      : @587 (gas: 14)\n 15079: i32 a0 = a1 + 0x4\n 15082: a1 = s1 + 0x7ff\n 15086: a1 = a1 + 0x59\n 15089: u64 [a1 + 0] = 0\n 15091: u64 [a1 + 4294967288] = 0\n 15094: a2 = s1 + 0x1000\n 15098: u64 [a2 + 4294965312] = 0x20\n 15103: a1 = s1 + 0x7ff\n 15107: a1 = a1 + 0x41\n 15110: a2 = s1 + 0x1000\n 15114: u64 [a2 + 4294965320] = 0\n 15118: u64 [s1 + 0xc8] = a3\n 15122: u64 [s1 + 0xc0] = a4\n 15126: ra = 522, jump @4\n      : @588 [@dyn 261] (gas: 1)\n 15132: t0 = 524, jump @874\n      : @589 [@dyn 262] (gas: 1)\n 15138: jump @505 if a0 == 0\n      : @590 (gas: 12)\n 15142: i32 a0 = a1 + 0x24\n 15145: a1 = s1 + 0x1000\n 15149: u64 [a1 + 4294965304] = 0\n 15153: a1 = s1 + 0x1000\n 15157: u64 [a1 + 4294965296] = 0\n 15161: a2 = s1 + 0x1000\n 15165: u64 [a2 + 4294965280] = 0x13\n 15170: a1 = s1 + 0x7ff\n 15174: a1 = a1 + 0x21\n 15177: a2 = s1 + 0x1000\n 15181: u64 [a2 + 4294965288] = 0\n 15185: ra = 526, jump @4\n      : @591 [@dyn 263] (gas: 1)\n 15191: t0 = 528, jump @875\n      : @592 [@dyn 264] (gas: 1)\n 15197: jump @505 if a0 == 0\n      : @593 (gas: 16)\n 15201: i32 a0 = a3 + 0x44\n 15204: a1 = u64 [0x200d8]\n 15209: a2 = u64 [0x200e0]\n 15214: a3 = s1 + 0x1000\n 15218: u64 [a3 + 0xfffffffffffff818] = a1\n 15222: a1 = s1 + 0x1000\n 15226: u64 [a1 + 0xfffffffffffff810] = a2\n 15230: a1 = 0x6f636b0000000000\n 15240: a2 = s1 + 0x1000\n 15244: u64 [a2 + 0xfffffffffffff808] = a1\n 15248: a1 = s1 + 0x7ff\n 15252: a1 = a1 + 0x1\n 15255: a2 = s1 + 0x1000\n 15259: u64 [a2 + 4294965248] = 0\n 15263: ra = 0x270\n 15267: jump @4\n      : @594 (gas: 12)\n 15270: a0 = u64 [s1 + 0x90]\n 15274: a3 = u64 [s1 + 0x88]\n 15278: a2 = a0 | a3\n 15281: a1 = u64 [s1 + 0x80]\n 15285: a4 = u64 [s1 + 0x78]\n 15288: a1 = a1 | a4\n 15291: a2 = a2 | a1\n 15294: a2 = a2 >> 0x20\n 15297: a1 = a1 | a3\n 15300: a1 = a1 << 0x20\n 15303: a1 = a1 | a2\n 15306: jump @505 if a1 != 0\n      : @595 (gas: 2)\n 15310: a1 = 0x200\n 15314: ra = 530, jump @14\n      : @596 [@dyn 265] (gas: 5)\n 15320: i32 a1 = a0 + 0\n 15322: a2 = 0x200\n 15326: a0 = 0\n 15328: ecalli 12 // 'seal_return'\n 15330: jump @758\n      : @597 (gas: 35)\n 15333: a0 = u64 [s1 + 0xc0]\n 15337: a0 = a0 + 0x1\n 15340: a1 = a0 <u 0x1\n 15343: a2 = u64 [s1 + 0xc8]\n 15347: a1 = a1 + a2\n 15350: a2 = a0 | a1\n 15353: a2 = a2 <u 0x1\n 15356: a3 = u64 [s1 + 0xd0]\n 15360: a2 = a2 + a3\n 15363: a3 = a2 <u a3\n 15366: a4 = u64 [s1 + 0xd8]\n 15370: a3 = a3 + a4\n 15373: a4 = t0\n 15375: u64 [a4 + 0xa8] = a0\n 15379: u64 [a4 + 0xb0] = a1\n 15383: u64 [a4 + 0xb8] = a2\n 15387: u64 [a4 + 0xc0] = a3\n 15391: a0 = s1 + 0x2000\n 15395: i32 a0 = a0 + 0xfffffffffffff900\n 15399: a1 = s1 + 0x2000\n 15403: i32 a1 = a1 + 0xfffffffffffff8e0\n 15407: ecalli 0 // 'block_hash'\n 15408: a2 = s1 + 0x1858\n 15412: a0 = u8 [a2 + 0xa7]\n 15416: a0 = a0 & 0xf\n 15419: a1 = a0 + 0x2\n 15422: a0 = a1 <u a0\n 15425: u64 [a2 + 224] = 0\n 15429: u64 [a2 + 0xc8] = a1\n 15433: u64 [a2 + 0xd0] = a0\n 15437: a0 = 0 if a0 != 0\n 15439: u64 [a2 + 0xd8] = a0\n 15443: a0 = s1 + 0x7e0\n 15447: a1 = s1 + 0x1920\n 15451: ra = 532, jump @6\n      : @598 [@dyn 266] (gas: 31)\n 15457: a0 = u64 [s1 + 0x7e0]\n 15461: a1 = u64 [s1 + 0x7e8]\n 15465: a2 = u64 [s1 + 0x7f0]\n 15469: a3 = a0 >> 0x38\n 15472: a4 = a1 << 0x8\n 15475: a3 = a3 | a4\n 15478: a1 = a1 >> 0x38\n 15481: a2 = a2 << 0x8\n 15484: a1 = a1 | a2\n 15487: a0 = a0 << 0x8\n 15490: a1 = a1 << 0x18\n 15493: a1 = a1 >> 0x18\n 15496: a2 = u64 [s1 + 0xb0]\n 15500: a2 = a2 >> 0x28\n 15503: a2 = a2 << 0x28\n 15506: a1 = a1 | a2\n 15509: a0 = a0 + 0x1\n 15512: a4 = s1 + 0x1858\n 15516: u64 [a4 + 256] = 0\n 15520: u64 [a4 + 248] = 0\n 15524: u64 [a4 + 240] = 0\n 15528: u64 [a4 + 232] = 0x16\n 15533: a2 = u64 [s1 + 0xb8]\n 15537: a5 = a4 + 0x100\n 15541: u64 [a5 + 0x20] = a2\n 15544: u64 [a5 + 0x10] = a3\n 15547: u64 [a5 + 0x8] = a0\n 15550: u64 [a5 + 0x18] = a1\n 15553: a0 = s1 + 0x1940\n 15557: a1 = s1 + 0x1960\n 15561: ra = 534, jump @7\n      : @599 [@dyn 267] (gas: 8)\n 15567: a1 = s1 + 0x1858\n 15571: u64 [a1 + 320] = 0\n 15575: u64 [a1 + 312] = 0\n 15579: u64 [a1 + 304] = 0\n 15583: u64 [a1 + 296] = 0x14\n 15588: a0 = s1 + 0x7c0\n 15592: a1 = s1 + 0x1980\n 15596: ra = 536, jump @6\n      : @600 [@dyn 268] (gas: 17)\n 15602: a0 = u64 [s1 + 0x7d8]\n 15606: u64 [s1 + 0x30] = a0\n 15609: a0 = u64 [s1 + 0x7d0]\n 15613: u64 [s1 + 0x28] = a0\n 15616: a0 = u64 [s1 + 0x7c8]\n 15620: u64 [s1 + 0x38] = a0\n 15623: a0 = u64 [s1 + 0x7c0]\n 15627: u64 [s1 + 0x58] = a0\n 15630: a0 = s1 + 0x1858\n 15634: u64 [a0 + 352] = 0\n 15638: u64 [a0 + 344] = 0\n 15642: u64 [a0 + 336] = 0\n 15646: a1 = a0\n 15648: u64 [a1 + 328] = 0x1\n 15653: a0 = s1 + 0x7a0\n 15657: a1 = s1 + 0x19a0\n 15661: ra = 538, jump @6\n      : @601 [@dyn 269] (gas: 68)\n 15667: t2 = u64 [s1 + 0x7a0]\n 15671: a1 = s1 + 0x700\n 15675: a0 = u64 [a1 + 0xb8]\n 15679: u64 [s1 + 0xd8] = a0\n 15683: a3 = u64 [a1 + 0xb0]\n 15687: a5 = u64 [a1 + 0xa8]\n 15691: ra = u64 [s1 + 0x58]\n 15694: a1 = ra mulhu t2\n 15697: a0 = u64 [s1 + 0x38]\n 15700: a2 = a0 * t2\n 15703: a1 = a1 + a2\n 15706: a2 = a1 <u a2\n 15709: a4 = a0 mulhu t2\n 15712: t1 = a4 + a2\n 15715: a4 = ra * a5\n 15718: a1 = a1 + a4\n 15721: u64 [s1 + 0x20] = a1\n 15724: a1 = a1 <u a4\n 15727: a4 = ra mulhu a5\n 15730: a1 = a1 + a4\n 15733: t0 = t1 + a1\n 15736: a2 = a0 * a5\n 15739: a1 = a2 + t0\n 15742: u64 [s1 + 0xd0] = a1\n 15746: a4 = a1 <u a2\n 15749: a1 = t0 <u t1\n 15752: a2 = a0 mulhu a5\n 15755: a1 = a1 + a2\n 15758: a1 = a1 + a4\n 15761: u64 [s1 + 0xc8] = a1\n 15765: a1 = a0 * a3\n 15768: a2 = u64 [s1 + 0xd8]\n 15772: a2 = a2 * ra\n 15775: a1 = a1 + a2\n 15778: u64 [s1 + 0xc0] = a1\n 15782: t0 = u64 [s1 + 0x28]\n 15785: u64 [s1 + 0xb0] = a5\n 15789: a2 = a5 * t0\n 15792: a4 = u64 [s1 + 0x30]\n 15795: a5 = a4 * t2\n 15798: a5 = a5 + a2\n 15801: a2 = a3 * ra\n 15804: t1 = t0 * t2\n 15807: a2 = a2 + t1\n 15810: u64 [s1 + 0xb8] = a3\n 15814: a3 = a3 mulhu ra\n 15817: u64 [s1 + 0xa0] = a3\n 15821: a1 = u64 [s1 + 0xc0]\n 15825: a3 = a3 + a1\n 15828: a1 = t0 mulhu t2\n 15831: u64 [s1 + 0xc0] = a1\n 15835: a1 = a1 + a5\n 15838: a5 = a2 <u t1\n 15841: u64 [s1 + 0xa8] = a1\n 15845: a1 = a1 + a3\n 15848: t1 = a1 + a5\n 15851: a5 = a0 | a4\n 15854: a1 = ra | t0\n 15857: a1 = a1 | a5\n 15860: a0 = u64 [s1 + 0xd0]\n 15864: t0 = a0 + a2\n 15867: a4 = t0 <u a0\n 15870: a0 = u64 [s1 + 0xc8]\n 15874: t1 = t1 + a0\n 15877: t1 = t1 + a4\n 15880: u64 [s1 + 0x48] = t1\n 15883: u64 [s1 + 0x40] = t0\n 15886: jump @604 if a1 == 0\n      : @602 (gas: 48)\n 15890: a1 = t1 ^ a0\n 15893: a2 = u64 [s1 + 0x48]\n 15896: a2 = a2 <u a0\n 15899: a4 = a2 if a1 != 0\n 15902: a0 = u64 [s1 + 0xa0]\n 15906: a3 = a3 <u a0\n 15909: a1 = u64 [s1 + 0x38]\n 15912: a2 = a1 >u 0\n 15914: t0 = u64 [s1 + 0xd8]\n 15918: a5 = t0 >u 0\n 15920: a2 = a2 & a5\n 15923: a5 = u64 [s1 + 0x58]\n 15926: a5 = t0 mulhu a5\n 15929: a5 = a5 >u 0\n 15931: a2 = a2 | a5\n 15934: t1 = u64 [s1 + 0xb8]\n 15938: a5 = a1 mulhu t1\n 15941: a5 = a5 >u 0\n 15943: a2 = a2 | a5\n 15946: ra = a2 | a3\n 15949: a0 = u64 [s1 + 0xc0]\n 15953: a1 = u64 [s1 + 0xa8]\n 15957: a0 = a1 <u a0\n 15960: a2 = u64 [s1 + 0x30]\n 15963: a5 = a2 >u 0\n 15965: a3 = u64 [s1 + 0xb0]\n 15969: a1 = a3 >u 0\n 15971: a1 = a1 & a5\n 15974: a5 = a2 mulhu t2\n 15977: a5 = a5 >u 0\n 15979: a1 = a1 | a5\n 15982: a5 = u64 [s1 + 0x28]\n 15985: a3 = a3 mulhu a5\n 15988: a3 = a3 >u 0\n 15990: a1 = a1 | a3\n 15993: a0 = a0 | a1\n 15996: a1 = t1 | t0\n 15999: a3 = a5 | a2\n 16002: t0 = u64 [s1 + 0x40]\n 16005: a3 = a3 >u 0\n 16007: a2 = a1 >u 0\n 16009: a2 = a2 & a3\n 16012: a1 = a2 | a0\n 16015: t1 = u64 [s1 + 0x48]\n 16018: a1 = a1 | ra\n 16021: a1 = a1 | a4\n 16024: a1 = a1 & 0x1\n 16027: jump @604 if a1 == 0\n      : @603 (gas: 1)\n 16030: jump @788\n      : @604 (gas: 54)\n 16033: a0 = u64 [s1 + 0x58]\n 16036: a2 = a0 * t2\n 16039: u64 [s1 + 0x50] = a2\n 16042: a0 = a2 | t0\n 16045: t2 = u64 [s1 + 0x20]\n 16048: a1 = t2 | t1\n 16051: a0 = a0 | a1\n 16054: a0 = a0 <u 0x1\n 16057: u64 [s1 + 0xd8] = a0\n 16061: a0 = clz t0\n 16063: a0 = a0 + 0x40\n 16066: a4 = clz t1\n 16068: a4 = a0 if t1 == 0\n 16071: a0 = clz a2\n 16073: a0 = a0 + 0x40\n 16076: a1 = clz t2\n 16078: a1 = a0 if t2 == 0\n 16081: a0 = a1 + 0x80\n 16085: ra = t1\n 16087: a2 = t0 | t1\n 16090: a4 = a0 if a2 == 0\n 16093: a3 = a0 <u a1\n 16096: a3 = 0 if a2 != 0\n 16098: a5 = a3 >u 0\n 16100: a0 = a4 <u 0xf3\n 16104: a2 = a0 ^ 0x1\n 16107: a5 = a2 if a3 == 0\n 16110: a0 = a5 <u 0x1\n 16113: t1 = a0 + 0xffffffffffffffff\n 16116: a1 = -a5\n 16118: a3 = -a3\n 16120: a2 = a3 - a2\n 16123: a0 = 0xf2 - a4\n 16127: u64 [s1 + 0xc8] = a1\n 16131: a3 = a1 >u 0\n 16133: a4 = t1 >u 0\n 16135: a4 = a3 if t1 == 0\n 16138: a3 = a2 >u 0\n 16140: u64 [s1 + 0xd0] = a0\n 16144: a1 = a0 <u 0x100\n 16148: a1 = a1 ^ 0x1\n 16151: a1 = a3 if a2 != 0\n 16154: a1 = a4 if a5 != 0\n 16157: a0 = u64 [s1 + 0xd8]\n 16161: a1 = a1 | a0\n 16164: ra = 0 if a1 != 0\n 16166: t0 = 0 if a1 != 0\n 16168: u64 [s1 + 0xd8] = t0\n 16172: a5 = t2\n 16174: a5 = 0 if a1 != 0\n 16176: a0 = u64 [s1 + 0x50]\n 16179: a0 = 0 if a1 != 0\n 16181: a4 = u64 [s1 + 0x58]\n 16184: jump @619 if a1 != 0\n      : @605 (gas: 7)\n 16188: a1 = u64 [s1 + 0xd0]\n 16192: a1 = a1 ^ 0xff\n 16196: t0 = u64 [s1 + 0xc8]\n 16200: a1 = a1 | t0\n 16203: a3 = a2 | t1\n 16206: a1 = a1 | a3\n 16209: jump @619 if a1 == 0\n      : @606 (gas: 19)\n 16213: a3 = u64 [s1 + 0xd0]\n 16217: a0 = a3 + 0x1\n 16220: u64 [s1 + 0xd8] = a0\n 16224: a1 = a0 <u 0x1\n 16227: a1 = a1 + a2\n 16230: u64 [s1 + 0xb8] = a1\n 16234: a1 = a1 | a0\n 16237: a1 = a1 <u 0x1\n 16240: a1 = a1 + t0\n 16243: u64 [s1 + 0xa8] = a1\n 16247: a1 = a1 <u t0\n 16250: a1 = a1 + t1\n 16253: u64 [s1 + 0xb0] = a1\n 16257: a1 = 0xff - a3\n 16261: u64 [s1 + 0xc0] = a1\n 16265: a2 = 0x80 - a1\n 16269: a0 = u64 [s1 + 0x50]\n 16272: a1 = t2\n 16274: ra = 540, jump @900\n      : @607 [@dyn 270] (gas: 6)\n 16280: u64 [s1 + 0xc8] = a0\n 16284: u64 [s1 + 0x98] = a1\n 16288: a0 = u64 [s1 + 0x40]\n 16291: a1 = u64 [s1 + 0x48]\n 16294: a2 = u64 [s1 + 0xc0]\n 16298: ra = 542, jump @905\n      : @608 [@dyn 271] (gas: 9)\n 16304: u64 [s1 + 0xa0] = a0\n 16308: a0 = u64 [s1 + 0x98]\n 16312: a0 = a0 | a1\n 16315: u64 [s1 + 0x98] = a0\n 16319: a1 = u64 [s1 + 0xd0]\n 16323: a2 = 0x7f - a1\n 16326: a0 = u64 [s1 + 0x50]\n 16329: a1 = u64 [s1 + 0x20]\n 16332: ra = 544, jump @905\n      : @609 [@dyn 272] (gas: 18)\n 16338: a2 = u64 [s1 + 0xc0]\n 16342: a3 = a2 <u 0x80\n 16346: u64 [s1 + 0xd0] = a3\n 16350: a4 = u64 [s1 + 0x98]\n 16354: a1 = a4 if a3 != 0\n 16357: a4 = u64 [s1 + 0x48]\n 16360: a1 = a4 if a2 == 0\n 16363: u64 [s1 + 0x90] = a1\n 16367: a1 = u64 [s1 + 0xc8]\n 16371: a4 = u64 [s1 + 0xa0]\n 16375: a1 = a1 | a4\n 16378: a1 = a0 if a3 == 0\n 16381: a0 = u64 [s1 + 0x40]\n 16384: a1 = a0 if a2 == 0\n 16387: u64 [s1 + 0xc8] = a1\n 16391: a0 = u64 [s1 + 0x50]\n 16394: a1 = u64 [s1 + 0x20]\n 16397: ra = 546, jump @905\n      : @610 [@dyn 273] (gas: 13)\n 16403: a4 = u64 [s1 + 0xa8]\n 16407: a5 = u64 [s1 + 0xb0]\n 16411: a2 = u64 [s1 + 0xb8]\n 16415: a5 = a5 | a2\n 16418: a3 = u64 [s1 + 0xd8]\n 16422: a3 = a3 | a4\n 16425: a3 = a3 | a5\n 16428: a2 = u64 [s1 + 0xd0]\n 16432: a1 = 0 if a2 == 0\n 16434: u64 [s1 + 0xc0] = a1\n 16438: a0 = 0 if a2 == 0\n 16440: u64 [s1 + 0xd0] = a0\n 16444: jump @612 if a3 != 0\n      : @611 (gas: 4)\n 16447: a5 = 0\n 16449: u64 [s1 + 120] = 0\n 16452: ra = u64 [s1 + 0x90]\n 16456: jump @618\n      : @612 (gas: 6)\n 16459: u64 [s1 + 112] = 0x2710\n 16464: a0 = u64 [s1 + 0xd8]\n 16468: a2 = a0 + 0xffffffffffffff80\n 16471: a0 = u64 [s1 + 0x40]\n 16474: a1 = u64 [s1 + 0x48]\n 16477: ra = 548, jump @900\n      : @613 [@dyn 274] (gas: 6)\n 16483: u64 [s1 + 0x98] = a0\n 16487: u64 [s1 + 0xa0] = a1\n 16491: a0 = u64 [s1 + 0x50]\n 16494: a1 = u64 [s1 + 0x20]\n 16497: a2 = u64 [s1 + 0xd8]\n 16501: ra = 550, jump @900\n      : @614 [@dyn 275] (gas: 7)\n 16507: u64 [s1 + 0x80] = a0\n 16511: u64 [s1 + 0x88] = a1\n 16515: a1 = u64 [s1 + 0xd8]\n 16519: a2 = 0x80 - a1\n 16523: a0 = u64 [s1 + 0x40]\n 16526: a1 = u64 [s1 + 0x48]\n 16529: ra = 552, jump @905\n      : @615 [@dyn 276] (gas: 20)\n 16535: a2 = u64 [s1 + 0x88]\n 16539: a1 = a1 | a2\n 16542: a2 = u64 [s1 + 0xd8]\n 16546: a3 = a2 <u 0x80\n 16550: u64 [s1 + 0x88] = a3\n 16554: a4 = u64 [s1 + 0xa0]\n 16558: a1 = a4 if a3 == 0\n 16561: a4 = u64 [s1 + 0x20]\n 16564: a1 = a4 if a2 == 0\n 16567: u64 [s1 + 0xa0] = a1\n 16571: a1 = u64 [s1 + 0x80]\n 16575: a0 = a0 | a1\n 16578: a1 = u64 [s1 + 0x98]\n 16582: a0 = a1 if a3 == 0\n 16585: a1 = u64 [s1 + 0x50]\n 16588: a0 = a1 if a2 == 0\n 16591: u64 [s1 + 0x98] = a0\n 16595: a0 = u64 [s1 + 0x40]\n 16598: a1 = u64 [s1 + 0x48]\n 16601: ra = 554, jump @900\n      : @616 [@dyn 277] (gas: 12)\n 16607: a5 = 0\n 16609: a2 = u64 [s1 + 0x88]\n 16613: a1 = 0 if a2 == 0\n 16615: a0 = 0 if a2 == 0\n 16617: a4 = u64 [s1 + 0x70]\n 16620: a2 = a4 + 0xffffffffffffffff\n 16623: u64 [s1 + 0x68] = a2\n 16626: a2 = a4 >u 0\n 16628: a2 = a2 + 0xffffffffffffffff\n 16631: u64 [s1 + 0x60] = a2\n 16634: ra = u64 [s1 + 0x90]\n 16638: fallthrough\n      : @617 (gas: 92)\n 16639: u64 [s1 + 0x80] = a1\n 16643: u64 [s1 + 0x88] = a5\n 16647: u64 [s1 + 120] = 0\n 16650: a1 = u64 [s1 + 0x98]\n 16654: a2 = a1 >> 0x3f\n 16657: a5 = u64 [s1 + 0xa0]\n 16661: a3 = a5 << 0x1\n 16664: t1 = a3 | a2\n 16667: a2 = a1 << 0x1\n 16670: a4 = ra >> 0x3f\n 16673: a4 = a4 | a2\n 16676: u64 [s1 + 0x90] = a4\n 16680: a3 = u64 [s1 + 0x60]\n 16683: a1 = a3 ^ t1\n 16686: u64 [s1 + 0x98] = a1\n 16690: a1 = a3 <u t1\n 16693: a2 = u64 [s1 + 0x68]\n 16696: t0 = a2 <u a4\n 16699: a2 = u64 [s1 + 0x98]\n 16703: t0 = a1 if a2 != 0\n 16706: a1 = u64 [s1 + 0x80]\n 16710: a1 = a1 << 0x1\n 16713: a4 = a0 >> 0x3f\n 16716: a1 = a1 | a4\n 16719: u64 [s1 + 0x80] = a1\n 16723: a4 = a5 >> 0x3f\n 16726: a0 = a0 << 0x1\n 16729: a4 = a4 | a0\n 16732: a0 = ra << 0x1\n 16735: a1 = u64 [s1 + 0xc8]\n 16739: a5 = a1 >> 0x3f\n 16742: a0 = a0 | a5\n 16745: u64 [s1 + 0xa0] = a0\n 16749: a5 = a1 << 0x1\n 16752: a0 = u64 [s1 + 0xc0]\n 16756: a1 = a0 >> 0x3f\n 16759: a1 = a1 | a5\n 16762: a5 = a0 << 0x1\n 16765: a0 = u64 [s1 + 0xd0]\n 16769: ra = a0 >> 0x3f\n 16772: a5 = a5 | ra\n 16775: a0 = a0 << 0x1\n 16778: a2 = u64 [s1 + 0x88]\n 16782: a0 = a0 | a2\n 16785: u64 [s1 + 0xd0] = a0\n 16789: a0 = a5 | 0\n 16791: u64 [s1 + 0xc0] = a0\n 16795: a0 = a1 | 0\n 16797: u64 [s1 + 0xc8] = a0\n 16801: a0 = u64 [s1 + 0xa0]\n 16805: ra = a0 | 0\n 16807: a0 = a3 - a4\n 16810: a0 = a0 <u t0\n 16813: a1 = a3 <u a4\n 16816: t2 = u64 [s1 + 0x80]\n 16820: a5 = a3 - t2\n 16823: a5 = a5 - a1\n 16826: a5 = a5 - a0\n 16829: t0 = a5 >>a 0x3f\n 16832: a0 = u64 [s1 + 0x70]\n 16835: a0 = t0 & a0\n 16838: a2 = u64 [s1 + 0x90]\n 16842: a1 = a2 - a0\n 16845: u64 [s1 + 0x98] = a1\n 16849: a1 = a2 <u a0\n 16852: a0 = t1 - a1\n 16855: u64 [s1 + 0xa0] = a0\n 16859: a1 = 0 if t1 != 0\n 16861: a0 = a4 - a1\n 16864: a1 = a4 <u a1\n 16867: a1 = t2 - a1\n 16870: a3 = u64 [s1 + 0xd8]\n 16874: a5 = u64 [s1 + 0xb8]\n 16878: a2 = a3 | a5\n 16881: a2 = a2 <u 0x1\n 16884: a4 = u64 [s1 + 0xa8]\n 16888: t1 = a4 <u a2\n 16891: a4 = a4 - a2\n 16894: a2 = a3 <u 0x1\n 16897: a5 = a5 - a2\n 16900: a2 = u64 [s1 + 0xb0]\n 16904: a2 = a2 - t1\n 16907: a3 = a3 + 0xffffffffffffffff\n 16910: u64 [s1 + 0xb8] = a5\n 16914: u64 [s1 + 0xb0] = a2\n 16918: a2 = a2 | a5\n 16921: u64 [s1 + 0xd8] = a3\n 16925: a3 = a3 | a4\n 16928: a2 = a2 | a3\n 16931: a5 = t0 & 0x1\n 16934: u64 [s1 + 0xa8] = a4\n 16938: jump @617 if a2 != 0\n      : @618 (gas: 22)\n 16942: a2 = u64 [s1 + 0xc8]\n 16946: a0 = a2 >> 0x3f\n 16949: a1 = ra << 0x1\n 16952: t0 = a1 | a0\n 16955: a3 = u64 [s1 + 0xc0]\n 16959: a1 = a3 >> 0x3f\n 16962: a2 = a2 << 0x1\n 16965: a1 = a1 | a2\n 16968: a4 = u64 [s1 + 0xd0]\n 16972: a2 = a4 >> 0x3f\n 16975: a3 = a3 << 0x1\n 16978: a4 = a4 << 0x1\n 16981: a0 = a5 | a4\n 16984: a4 = u64 [s1 + 0x78]\n 16987: a2 = a2 | a4\n 16990: a5 = a2 | a3\n 16993: a1 = a1 | a4\n 16996: u64 [s1 + 0xd8] = a1\n 17000: ra = a4 | t0\n 17003: a4 = u64 [s1 + 0x58]\n 17006: t2 = u64 [s1 + 0x20]\n 17009: fallthrough\n      : @619 (gas: 19)\n 17010: a3 = a4 <u a0\n 17013: a1 = u64 [s1 + 0x38]\n 17016: a2 = a1 ^ a5\n 17019: t1 = a1 <u a5\n 17022: u64 [s1 + 0xb8] = a3\n 17026: t1 = a3 if a2 == 0\n 17029: a4 = u64 [s1 + 0x28]\n 17032: a2 = u64 [s1 + 0xd8]\n 17036: t0 = a4 <u a2\n 17039: a1 = u64 [s1 + 0x30]\n 17042: a3 = a1 ^ ra\n 17045: a1 = a1 <u ra\n 17048: u64 [s1 + 0xa8] = t0\n 17052: a1 = t0 if a3 == 0\n 17055: a2 = a2 ^ a4\n 17058: a2 = a2 | a3\n 17061: u64 [s1 + 0xb0] = t1\n 17065: a1 = t1 if a2 == 0\n 17068: jump @621 if a1 == 0\n      : @620 (gas: 1)\n 17071: jump @793\n      : @621 (gas: 27)\n 17074: u64 [s1 + 0xc0] = ra\n 17078: u64 [s1 + 0xc8] = a5\n 17082: u64 [s1 + 0xd0] = a0\n 17086: a2 = t2 >> 0x4\n 17089: a4 = u64 [s1 + 0x40]\n 17092: a1 = a4 << 0x3c\n 17095: a1 = a1 | a2\n 17098: a5 = a1 >u 0\n 17100: a2 = u64 [s1 + 0x50]\n 17103: a2 = a2 >> 0x4\n 17106: a3 = t2 << 0x3c\n 17109: a2 = a2 | a3\n 17112: a2 = a2 <u 0x271\n 17116: a2 = a2 ^ 0x1\n 17119: a2 = a5 if a1 != 0\n 17122: a0 = a4 >> 0x4\n 17125: a3 = u64 [s1 + 0x48]\n 17128: a1 = a3 << 0x3c\n 17131: a0 = a0 | a1\n 17134: a1 = a0 >u 0\n 17136: a3 = a3 >> 0x4\n 17139: a4 = a3 >u 0\n 17141: a4 = a1 if a3 == 0\n 17144: a0 = a0 | a3\n 17147: a4 = a2 if a0 == 0\n 17150: a2 = s1 + 0x1858\n 17154: jump @623 if a4 != 0\n      : @622 (gas: 14)\n 17157: a0 = 0x30190\n 17162: a1 = 0x20190\n 17167: a0 = a0 << 0x20\n 17170: a0 = a0 >> 0x20\n 17173: u64 [s1 + 0x98] = a0\n 17177: a1 = a1 << 0x20\n 17180: a1 = a1 >> 0x20\n 17183: u64 [s1 + 0xa0] = a1\n 17187: t0 = u64 [s1 + 0xd0]\n 17191: a5 = u64 [s1 + 0xc8]\n 17195: a3 = u64 [s1 + 0xc0]\n 17199: a1 = u64 [s1 + 0xd8]\n 17203: t1 = u64 [s1 + 0x58]\n 17206: jump @626\n      : @623 (gas: 7)\n 17209: u64 [a2 + 384] = 0\n 17213: u64 [a2 + 376] = 0\n 17217: u64 [a2 + 368] = 0\n 17221: u64 [a2 + 360] = 0x18\n 17226: a0 = s1 + 0x740\n 17230: a1 = s1 + 0x19c0\n 17234: ra = 556, jump @6\n      : @624 [@dyn 278] (gas: 73)\n 17240: a1 = s1 + 0x700\n 17244: a0 = u64 [a1 + 0x40]\n 17247: u64 [s1 + 0xa0] = a0\n 17251: a0 = u64 [a1 + 0x50]\n 17254: u64 [s1 + 0x98] = a0\n 17258: a0 = u64 [a1 + 0x48]\n 17261: u64 [s1 + 0x90] = a0\n 17265: ecalli 9 // 'ref_time_left'\n 17267: a1 = u64 [s1 + 0x90]\n 17271: a1 = reverse a1\n 17273: a2 = a1 << 0x20\n 17276: a3 = u64 [s1 + 0x98]\n 17280: a3 = reverse a3\n 17282: a3 = a3 >> 0x20\n 17285: a2 = a2 | a3\n 17288: a1 = a1 >> 0x20\n 17291: a3 = u64 [s1 + 0xa0]\n 17295: a3 = reverse a3\n 17297: a4 = 0x30190\n 17302: a5 = a3 << 0x20\n 17305: a1 = a1 | a5\n 17308: a3 = a3 >> 0x20\n 17311: u32 [0x301a0] = a3\n 17316: u64 [0x30198] = a1\n 17321: u64 [0x30190] = a2\n 17326: a1 = s1 + 0x1858\n 17330: a2 = u64 [s1 + 0xc0]\n 17334: u64 [a1 + 0x1a0] = a2\n 17338: a1 = s1 + 0x1858\n 17342: a2 = u64 [s1 + 0xd8]\n 17346: u64 [a1 + 0x198] = a2\n 17350: a1 = s1 + 0x1858\n 17354: a2 = u64 [s1 + 0xc8]\n 17358: u64 [a1 + 0x190] = a2\n 17362: a1 = s1 + 0x1858\n 17366: a2 = u64 [s1 + 0xd0]\n 17370: u64 [a1 + 0x188] = a2\n 17374: a1 = s1 + 0x1858\n 17378: u32 [a1 + 424] = 0\n 17382: a0 = a0 >u 0x8fc\n 17386: a1 = -a0\n 17388: a2 = s1 + 0x1858\n 17392: u64 [a2 + 0x1e0] = a1\n 17396: a2 = s1 + 0x1858\n 17400: u64 [a2 + 0x1d8] = a1\n 17404: a2 = s1 + 0x1858\n 17408: u64 [a2 + 0x1d0] = a1\n 17412: a2 = s1 + 0x1858\n 17416: u64 [a2 + 0x1c8] = a1\n 17420: a4 = a4 << 0x20\n 17423: a4 = a4 >> 0x20\n 17426: a0 = a0 << 0x23\n 17429: u64 [s1 + 0x98] = a4\n 17433: a0 = a0 | a4\n 17436: a1 = s1 + 0x19e0\n 17440: a1 = a1 << 0x20\n 17443: a1 = a1 >> 0x20\n 17446: a2 = 0x20190\n 17451: a3 = s1 + 0x1a20\n 17455: a3 = a3 << 0x20\n 17458: a3 = a3 | a1\n 17461: a2 = a2 << 0x20\n 17464: a4 = a2 >> 0x20\n 17467: a1 = s1 + 0x1a00\n 17471: a1 = a1 << 0x20\n 17474: a5 = a1 | a4\n 17477: a1 = 0xffffffffffffffff\n 17480: a2 = 0xffffffffffffffff\n 17483: u64 [s1 + 0xa0] = a4\n 17487: ecalli 2 // 'call'\n 17489: u64 [s1 + 0x90] = a0\n 17493: a0 = s1 + 0x720\n 17497: ra = 558, jump @807\n      : @625 [@dyn 279] (gas: 8)\n 17503: a1 = u64 [s1 + 0xd8]\n 17507: a3 = u64 [s1 + 0xc0]\n 17511: a5 = u64 [s1 + 0xc8]\n 17515: t0 = u64 [s1 + 0xd0]\n 17519: t1 = u64 [s1 + 0x58]\n 17522: a2 = s1 + 0x1858\n 17526: a0 = u64 [s1 + 0x90]\n 17530: jump @665 if a0 != 0\n      : @626 (gas: 26)\n 17534: a0 = u64 [s1 + 0x28]\n 17537: a4 = a0 - a1\n 17540: a1 = u64 [s1 + 0xb0]\n 17544: a0 = a4 - a1\n 17547: u64 [s1 + 0xd0] = a0\n 17551: a0 = a4 <u a1\n 17554: a1 = u64 [s1 + 0x30]\n 17557: a1 = a1 - a3\n 17560: a3 = u64 [s1 + 0xa8]\n 17564: a1 = a1 - a3\n 17567: a1 = a1 - a0\n 17570: u64 [s1 + 0xd8] = a1\n 17574: a0 = u64 [s1 + 0x38]\n 17577: a0 = a0 - a5\n 17580: a1 = u64 [s1 + 0xb8]\n 17584: a0 = a0 - a1\n 17587: u64 [s1 + 0xc8] = a0\n 17591: a0 = t1 - t0\n 17594: u64 [s1 + 0xc0] = a0\n 17598: u64 [a2 + 512] = 0\n 17602: u64 [a2 + 504] = 0\n 17606: u64 [a2 + 496] = 0\n 17610: u64 [a2 + 488] = 0x16\n 17615: a0 = s1 + 0x660\n 17619: a1 = s1 + 0x1a40\n 17623: ra = 560, jump @6\n      : @627 [@dyn 280] (gas: 67)\n 17629: a2 = s1 + 0x600\n 17633: a0 = u64 [a2 + 0x68]\n 17636: a1 = u64 [a2 + 0x60]\n 17639: a3 = u64 [a2 + 0x70]\n 17642: u64 [s1 + 0xb8] = a3\n 17646: a2 = a0 << 0x38\n 17649: a1 = a1 >> 0x8\n 17652: a1 = a1 | a2\n 17655: u64 [s1 + 0xb0] = a1\n 17659: a1 = a3 << 0x38\n 17662: a0 = a0 >> 0x8\n 17665: a0 = a0 | a1\n 17668: u64 [s1 + 0xa8] = a0\n 17672: ecalli 9 // 'ref_time_left'\n 17674: a1 = u64 [s1 + 0xa8]\n 17678: a1 = reverse a1\n 17680: a2 = a1 >> 0x20\n 17683: a3 = u64 [s1 + 0xb0]\n 17687: a3 = reverse a3\n 17689: a4 = a3 << 0x20\n 17692: a2 = a2 | a4\n 17695: a1 = a1 << 0x20\n 17698: a4 = u64 [s1 + 0xb8]\n 17702: a4 = reverse a4\n 17704: a4 = a4 << 0x8\n 17707: a4 = a4 >> 0x20\n 17710: a1 = a1 | a4\n 17713: a3 = a3 >> 0x20\n 17716: u32 [0x301a0] = a3\n 17721: u64 [0x30198] = a2\n 17726: u64 [0x30190] = a1\n 17731: a1 = u64 [s1 + 0xd8]\n 17735: a2 = s1 + 0x1858\n 17739: a3 = a2 + 0x200\n 17743: u64 [a3 + 0x20] = a1\n 17746: a1 = u64 [s1 + 0xd0]\n 17750: u64 [a3 + 0x18] = a1\n 17753: a1 = u64 [s1 + 0xc8]\n 17757: u64 [a3 + 0x10] = a1\n 17760: a1 = u64 [s1 + 0xc0]\n 17764: u64 [a3 + 0x8] = a1\n 17767: u32 [a2 + 552] = 0\n 17771: a0 = a0 >u 0x8fc\n 17775: a1 = -a0\n 17777: u64 [a3 + 0x60] = a1\n 17780: u64 [a3 + 0x58] = a1\n 17783: u64 [a3 + 0x50] = a1\n 17786: u64 [a3 + 0x48] = a1\n 17789: a0 = a0 << 0x23\n 17792: a1 = u64 [s1 + 0x98]\n 17796: a0 = a0 | a1\n 17799: a1 = s1 + 0x1a60\n 17803: a1 = a1 << 0x20\n 17806: a1 = a1 >> 0x20\n 17809: a2 = s1 + 0x1aa0\n 17813: a2 = a2 << 0x20\n 17816: a3 = a2 | a1\n 17819: a1 = s1 + 0x1a80\n 17823: a1 = a1 << 0x20\n 17826: a4 = u64 [s1 + 0xa0]\n 17830: a5 = a1 | a4\n 17833: a1 = 0xffffffffffffffff\n 17836: a2 = 0xffffffffffffffff\n 17839: ecalli 2 // 'call'\n 17841: u64 [s1 + 0xb8] = a0\n 17845: a0 = s1 + 0x640\n 17849: ra = 562, jump @807\n      : @628 [@dyn 281] (gas: 2)\n 17855: a0 = u64 [s1 + 0xb8]\n 17859: jump @647 if a0 != 0\n      : @629 (gas: 8)\n 17863: a1 = s1 + 0x1858\n 17867: u64 [a1 + 640] = 0\n 17871: u64 [a1 + 632] = 0\n 17875: u64 [a1 + 624] = 0\n 17879: u64 [a1 + 616] = 0x13\n 17884: a0 = s1 + 0x580\n 17888: a1 = s1 + 0x1ac0\n 17892: ra = 564, jump @6\n      : @630 [@dyn 282] (gas: 16)\n 17898: a0 = u64 [s1 + 0x598]\n 17902: u64 [s1 + 0x90] = a0\n 17906: a0 = u64 [s1 + 0x590]\n 17910: u64 [s1 + 0x98] = a0\n 17914: a0 = u64 [s1 + 0x588]\n 17918: u64 [s1 + 0xa0] = a0\n 17922: a0 = u64 [s1 + 0x580]\n 17926: u64 [s1 + 0xa8] = a0\n 17930: a1 = s1 + 0x1858\n 17934: u64 [a1 + 672] = 0\n 17938: u64 [a1 + 664] = 0\n 17942: u64 [a1 + 656] = 0\n 17946: u64 [a1 + 648] = 0x16\n 17951: a0 = s1 + 0x560\n 17955: a1 = s1 + 0x1ae0\n 17959: ra = 566, jump @6\n      : @631 [@dyn 283] (gas: 11)\n 17965: a0 = u64 [s1 + 0x578]\n 17969: u64 [s1 + 0x88] = a0\n 17973: a0 = u64 [s1 + 0x570]\n 17977: u64 [s1 + 0xb8] = a0\n 17981: a0 = u64 [s1 + 0x568]\n 17985: u64 [s1 + 0x80] = a0\n 17989: a0 = u64 [s1 + 0x560]\n 17993: u64 [s1 + 0x78] = a0\n 17996: a0 = s1 + 0x540\n 18000: a1 = 0x40\n 18003: ra = 568, jump @2\n      : @632 [@dyn 284] (gas: 13)\n 18009: a4 = s1 + 0x500\n 18013: a0 = u64 [a4 + 0x58]\n 18016: a1 = u64 [a4 + 0x50]\n 18019: a2 = u64 [a4 + 0x48]\n 18022: a3 = u64 [a4 + 0x40]\n 18025: a0 = a0 | a2\n 18028: a2 = a3 | a1\n 18031: a2 = a2 | a0\n 18034: a2 = a2 >> 0x20\n 18037: a0 = a0 | a1\n 18040: a0 = a0 << 0x20\n 18043: a0 = a0 | a2\n 18046: jump @634 if a0 == 0\n      : @633 (gas: 1)\n 18049: jump @505\n      : @634 (gas: 16)\n 18052: a0 = 0xffffff0000000000\n 18062: u64 [s1 + 0x70] = a0\n 18065: a0 = 0xffffffff00000000\n 18075: u64 [s1 + 0xb0] = a0\n 18079: a0 = u64 [s1 + 0xc0]\n 18083: u64 [s1 + 0x520] = a0\n 18087: a0 = u64 [s1 + 0xc8]\n 18091: u64 [s1 + 0x528] = a0\n 18095: a0 = u64 [s1 + 0xd0]\n 18099: u64 [s1 + 0x530] = a0\n 18103: a1 = s1 + 0x520\n 18107: a0 = u64 [s1 + 0xd8]\n 18111: u64 [s1 + 0x538] = a0\n 18115: a0 = a3\n 18117: u64 [s1 + 0xd8] = a3\n 18121: ra = 570, jump @4\n      : @635 [@dyn 285] (gas: 38)\n 18127: a0 = u64 [s1 + 0x78]\n 18130: a0 = a0 >> 0x8\n 18133: a2 = u64 [s1 + 0x80]\n 18137: a1 = a2 << 0x38\n 18140: a0 = a0 | a1\n 18143: a1 = a2 >> 0x8\n 18146: a3 = u64 [s1 + 0xb8]\n 18150: a2 = a3 << 0x38\n 18153: a1 = a1 | a2\n 18156: a2 = a3 << 0x18\n 18159: a2 = a2 >> 0x20\n 18162: u64 [s1 + 1240] = 0\n 18166: u64 [s1 + 0x4d0] = a2\n 18170: u64 [s1 + 0x4c8] = a1\n 18174: u64 [s1 + 0x4c0] = a0\n 18178: a0 = u64 [s1 + 0x90]\n 18182: u64 [s1 + 0x4f8] = a0\n 18186: a0 = u64 [s1 + 0x98]\n 18190: u64 [s1 + 0x4f0] = a0\n 18194: a0 = u64 [s1 + 0xa0]\n 18198: u64 [s1 + 0x4e8] = a0\n 18202: a0 = u64 [0x20108]\n 18207: a1 = u64 [0x20110]\n 18212: a2 = u64 [0x20118]\n 18217: a3 = u64 [s1 + 0xa8]\n 18221: u64 [s1 + 0x4e0] = a3\n 18225: a5 = s1 + 0x500\n 18229: u64 [a5 + 0x18] = a0\n 18232: u64 [a5 + 0x10] = a1\n 18235: u64 [a5 + 0x8] = a2\n 18238: a0 = u64 [0x20120]\n 18243: a1 = 0x20\n 18246: a2 = s1 + 0x500\n 18250: a3 = s1 + 0x4e0\n 18254: a4 = s1 + 0x4c0\n 18258: u64 [a5] = a0\n 18260: a0 = u64 [s1 + 0xd8]\n 18264: ra = 572, jump @10\n      : @636 [@dyn 286] (gas: 11)\n 18270: a0 = u64 [s1 + 0x90]\n 18274: u64 [s1 + 0x498] = a0\n 18278: a0 = u64 [s1 + 0x98]\n 18282: u64 [s1 + 0x490] = a0\n 18286: a0 = u64 [s1 + 0xa0]\n 18290: u64 [s1 + 0x488] = a0\n 18294: a0 = s1 + 0x4a0\n 18298: a1 = s1 + 0x480\n 18302: a2 = u64 [s1 + 0xa8]\n 18306: u64 [s1 + 0x480] = a2\n 18310: ra = 574, jump @864\n      : @637 [@dyn 287] (gas: 18)\n 18316: a4 = s1 + 0x400\n 18320: a0 = u64 [a4 + 0xa0]\n 18324: a1 = u64 [a4 + 0xa8]\n 18328: a2 = u64 [a4 + 0xb0]\n 18332: a3 = u64 [a4 + 0xb8]\n 18336: a5 = s1 + 0x1858\n 18340: u64 [a5 + 704] = 0\n 18344: u64 [a5 + 696] = 0\n 18348: u64 [a5 + 688] = 0\n 18352: u64 [a5 + 680] = 0x13\n 18357: a4 = a5 + 0x200\n 18361: u64 [a4 + 0xe0] = a3\n 18365: u64 [a4 + 0xd8] = a2\n 18369: u64 [a4 + 0xd0] = a1\n 18373: u64 [a4 + 0xc8] = a0\n 18377: a0 = s1 + 0x1b00\n 18381: a1 = s1 + 0x1b20\n 18385: ra = 576, jump @7\n      : @638 [@dyn 288] (gas: 12)\n 18391: a1 = s1 + 0x1858\n 18395: u64 [a1 + 768] = 0\n 18399: u64 [a1 + 760] = 0\n 18403: u64 [a1 + 752] = 0\n 18407: u64 [a1 + 744] = 0x12\n 18412: u64 [a1 + 800] = 0\n 18416: u64 [a1 + 792] = 0\n 18420: u64 [a1 + 784] = 0\n 18424: u64 [a1 + 776] = 0\n 18428: a0 = s1 + 0x1b40\n 18432: a1 = s1 + 0x1b60\n 18436: ra = 578, jump @7\n      : @639 [@dyn 289] (gas: 18)\n 18442: a0 = u64 [s1 + 0x70]\n 18445: a1 = u64 [s1 + 0xb8]\n 18449: a0 = a0 & a1\n 18452: a1 = u64 [s1 + 0x88]\n 18456: a1 = a1 & 0xffffffffffffffff\n 18459: a3 = s1 + 0x1858\n 18463: u64 [a3 + 832] = 0\n 18467: u64 [a3 + 824] = 0\n 18471: u64 [a3 + 816] = 0\n 18475: a4 = a3 + 0x300\n 18479: u64 [a4 + 40] = 0x16\n 18483: u64 [a4 + 0x60] = a1\n 18486: u64 [a4 + 0x58] = a0\n 18489: u64 [a3 + 848] = 0\n 18493: u64 [a3 + 840] = 0\n 18497: a0 = s1 + 0x1b80\n 18501: a1 = s1 + 0x1ba0\n 18505: ra = 580, jump @7\n      : @640 [@dyn 290] (gas: 12)\n 18511: a1 = s1 + 0x1858\n 18515: u64 [a1 + 896] = 0\n 18519: u64 [a1 + 888] = 0\n 18523: u64 [a1 + 880] = 0\n 18527: u64 [a1 + 872] = 0x15\n 18532: u64 [a1 + 928] = 0\n 18536: u64 [a1 + 920] = 0\n 18540: u64 [a1 + 912] = 0\n 18544: u64 [a1 + 904] = 0\n 18548: a0 = s1 + 0x1bc0\n 18552: a1 = s1 + 0x1be0\n 18556: ra = 582, jump @7\n      : @641 [@dyn 291] (gas: 12)\n 18562: a1 = s1 + 0x1858\n 18566: u64 [a1 + 960] = 0\n 18570: u64 [a1 + 952] = 0\n 18574: u64 [a1 + 944] = 0\n 18578: u64 [a1 + 936] = 0x14\n 18583: u64 [a1 + 992] = 0\n 18587: u64 [a1 + 984] = 0\n 18591: u64 [a1 + 976] = 0\n 18595: u64 [a1 + 968] = 0\n 18599: a0 = s1 + 0x1c00\n 18603: a1 = s1 + 0x1c20\n 18607: ra = 584, jump @7\n      : @642 [@dyn 292] (gas: 5)\n 18613: a2 = 0\n 18615: a3 = 0\n 18617: t0 = 0\n 18619: a4 = 0\n 18621: fallthrough\n      : @643 (gas: 5)\n 18622: a0 = a2 <u 0x10\n 18625: a0 = 0 if a3 != 0\n 18627: a1 = t0 | a4\n 18630: a0 = 0 if a1 != 0\n 18632: jump @684 if a0 == 0\n      : @644 (gas: 23)\n 18636: a0 = sp + 0xffffffffffffffe0\n 18639: a1 = a0 & 0xffffffffffffffe0\n 18642: u64 [s1 + 0xb8] = a1\n 18646: sp = a1\n 18648: a0 = a2 + 0x2\n 18651: a5 = a0 <u a2\n 18654: u64 [s1 + 0xd0] = a2\n 18658: a2 = a3 + a5\n 18661: u64 [s1 + 0xd8] = a3\n 18665: a3 = u64 [s1 + 0xd8]\n 18669: a3 = a2 <u a3\n 18672: a3 = a5 if a5 == 0\n 18675: a3 = a3 + t0\n 18678: a5 = a3 <u t0\n 18681: a5 = a5 + a4\n 18684: u64 [a1 + 0x8] = a2\n 18687: u64 [a1] = a0\n 18689: u64 [a1 + 0x10] = a3\n 18692: u64 [a1 + 0x18] = a5\n 18695: a0 = s1 + 0x460\n 18699: u64 [s1 + 0xc8] = a4\n 18703: u64 [s1 + 0xc0] = t0\n 18707: ra = 586, jump @6\n      : @645 [@dyn 293] (gas: 13)\n 18713: a0 = u64 [s1 + 0x470]\n 18717: a1 = u64 [s1 + 0x478]\n 18721: a2 = u64 [s1 + 0xb0]\n 18725: a0 = a0 & a2\n 18728: a1 = a1 & 0xffffffffffffffff\n 18731: a2 = s1 + 0x1858\n 18735: u64 [a2 + 1008] = 0\n 18739: u64 [a2 + 1000] = 0\n 18743: u64 [a2 + 0x400] = a1\n 18747: u64 [a2 + 0x3f8] = a0\n 18751: a1 = s1 + 0x1c40\n 18755: a0 = u64 [s1 + 0xb8]\n 18759: ra = 588, jump @7\n      : @646 [@dyn 294] (gas: 14)\n 18765: a4 = u64 [s1 + 0xc8]\n 18769: a3 = u64 [s1 + 0xd8]\n 18773: a2 = u64 [s1 + 0xd0]\n 18777: a2 = a2 + 0x1\n 18780: a0 = a2 <u 0x1\n 18783: a3 = a3 + a0\n 18786: a0 = a2 | a3\n 18789: a0 = a0 <u 0x1\n 18792: a1 = u64 [s1 + 0xc0]\n 18796: a0 = a0 + a1\n 18799: a1 = a0 <u a1\n 18802: a4 = a4 + a1\n 18805: t0 = a0\n 18807: jump @643\n      : @647 (gas: 3)\n 18810: a0 = s1 + 0x620\n 18814: a1 = 0x40\n 18817: ra = 590, jump @2\n      : @648 [@dyn 295] (gas: 6)\n 18823: a1 = s1 + 0x600\n 18827: a4 = u64 [a1 + 0x38]\n 18830: a5 = u64 [a1 + 0x30]\n 18833: a3 = u64 [a1 + 0x28]\n 18836: a0 = u64 [a1 + 0x20]\n 18839: t0 = 592, jump @879\n      : @649 [@dyn 296] (gas: 1)\n 18845: jump @651 if a1 == 0\n      : @650 (gas: 1)\n 18848: jump @505\n      : @651 (gas: 6)\n 18851: u64 [s1 + 1552] = 0\n 18855: u64 [s1 + 1544] = 0\n 18859: u64 [s1 + 1536] = 0\n 18863: t0 = 0x252\n 18867: a2 = 0x8c379a000000000\n 18877: fallthrough\n      : @652 [@dyn 297] (gas: 7)\n 18878: a1 = s1 + 0x600\n 18882: u64 [s1 + 0x618] = a2\n 18886: u64 [s1 + 0xd8] = a0\n 18890: u64 [s1 + 0xd0] = a3\n 18894: u64 [s1 + 0xc8] = a4\n 18898: u64 [s1 + 0xc0] = a5\n 18902: ra = 596, jump @4\n      : @653 [@dyn 298] (gas: 5)\n 18908: a1 = u64 [s1 + 0xd8]\n 18912: a0 = u64 [s1 + 0xc8]\n 18916: a3 = u64 [s1 + 0xc0]\n 18920: a3 = a3 | a0\n 18923: t0 = 598, jump @873\n      : @654 [@dyn 299] (gas: 1)\n 18929: jump @656 if a0 != 0\n      : @655 (gas: 1)\n 18932: jump @505\n      : @656 (gas: 9)\n 18935: i32 a0 = a1 + 0x4\n 18938: u64 [s1 + 1528] = 0\n 18942: u64 [s1 + 1520] = 0\n 18946: u64 [s1 + 1504] = 0x20\n 18951: a1 = s1 + 0x5e0\n 18955: u64 [s1 + 1512] = 0\n 18959: u64 [s1 + 0xc8] = a3\n 18963: u64 [s1 + 0xc0] = a4\n 18967: ra = 600, jump @4\n      : @657 [@dyn 300] (gas: 1)\n 18973: t0 = 602, jump @874\n      : @658 [@dyn 301] (gas: 1)\n 18979: jump @660 if a0 != 0\n      : @659 (gas: 1)\n 18982: jump @505\n      : @660 (gas: 7)\n 18985: i32 a0 = a1 + 0x24\n 18988: u64 [s1 + 1496] = 0\n 18992: u64 [s1 + 1488] = 0\n 18996: u64 [s1 + 1472] = 0x15\n 19001: a1 = s1 + 0x5c0\n 19005: u64 [s1 + 1480] = 0\n 19009: ra = 604, jump @4\n      : @661 [@dyn 302] (gas: 4)\n 19015: a2 = u64 [s1 + 0xd8]\n 19019: a0 = 0xffffffbc\n 19029: a0 = a2 <u a0\n 19032: t0 = 606, jump @878\n      : @662 [@dyn 303] (gas: 1)\n 19038: jump @664 if a0 != 0\n      : @663 (gas: 1)\n 19041: jump @505\n      : @664 (gas: 12)\n 19044: i32 a0 = a2 + 0x44\n 19047: a1 = u64 [0x200f8]\n 19052: a2 = u64 [0x20100]\n 19057: a3 = s1 + 0x500\n 19061: u64 [a3 + 0xb8] = a1\n 19065: u64 [a3 + 0xb0] = a2\n 19069: a1 = 0x61696c6564000000\n 19079: u64 [a3 + 0xa8] = a1\n 19083: a1 = s1 + 0x5a0\n 19087: u64 [s1 + 1440] = 0\n 19091: ra = 0x270\n 19095: jump @4\n      : @665 (gas: 3)\n 19098: a0 = s1 + 0x700\n 19102: a1 = 0x40\n 19105: ra = 608, jump @2\n      : @666 [@dyn 304] (gas: 6)\n 19111: a1 = s1 + 0x700\n 19115: a4 = u64 [a1 + 0x18]\n 19118: a5 = u64 [a1 + 0x10]\n 19121: a3 = u64 [a1 + 0x8]\n 19124: a0 = u64 [a1]\n 19126: t0 = 610, jump @879\n      : @667 [@dyn 305] (gas: 1)\n 19132: jump @669 if a1 == 0\n      : @668 (gas: 1)\n 19135: jump @505\n      : @669 (gas: 6)\n 19138: u64 [s1 + 1776] = 0\n 19142: u64 [s1 + 1768] = 0\n 19146: u64 [s1 + 1760] = 0\n 19150: t0 = 0x264\n 19154: a2 = 0x8c379a000000000\n 19164: fallthrough\n      : @670 [@dyn 306] (gas: 7)\n 19165: a1 = s1 + 0x6e0\n 19169: u64 [s1 + 0x6f8] = a2\n 19173: u64 [s1 + 0xd8] = a0\n 19177: u64 [s1 + 0xd0] = a3\n 19181: u64 [s1 + 0xc8] = a4\n 19185: u64 [s1 + 0xc0] = a5\n 19189: ra = 614, jump @4\n      : @671 [@dyn 307] (gas: 11)\n 19195: a2 = u64 [s1 + 0xd0]\n 19199: a1 = u64 [s1 + 0xd8]\n 19203: a0 = u64 [s1 + 0xc8]\n 19207: a3 = u64 [s1 + 0xc0]\n 19211: a3 = a3 | a0\n 19214: a4 = 0x100000000\n 19224: a0 = 0xfffffffc\n 19234: a0 = a1 <u a0\n 19237: a0 = 0 if a2 != 0\n 19239: a0 = 0 if a3 != 0\n 19241: jump @673 if a0 != 0\n      : @672 (gas: 1)\n 19244: jump @505\n      : @673 (gas: 9)\n 19247: i32 a0 = a1 + 0x4\n 19250: u64 [s1 + 1752] = 0\n 19254: u64 [s1 + 1744] = 0\n 19258: u64 [s1 + 1728] = 0x20\n 19263: a1 = s1 + 0x6c0\n 19267: u64 [s1 + 1736] = 0\n 19271: u64 [s1 + 0xc8] = a3\n 19275: u64 [s1 + 0xc0] = a4\n 19279: ra = 616, jump @4\n      : @674 [@dyn 308] (gas: 5)\n 19285: a2 = u64 [s1 + 0xd8]\n 19289: a0 = u64 [s1 + 0xc0]\n 19293: a0 = a0 + 0xffffffffffffffdc\n 19296: a0 = a2 <u a0\n 19299: t0 = 618, jump @878\n      : @675 [@dyn 309] (gas: 1)\n 19305: jump @677 if a0 != 0\n      : @676 (gas: 1)\n 19308: jump @505\n      : @677 (gas: 7)\n 19311: i32 a0 = a2 + 0x24\n 19314: u64 [s1 + 1720] = 0\n 19318: u64 [s1 + 1712] = 0\n 19322: u64 [s1 + 1696] = 0x13\n 19327: a1 = s1 + 0x6a0\n 19331: u64 [s1 + 1704] = 0\n 19335: ra = 620, jump @4\n      : @678 [@dyn 310] (gas: 4)\n 19341: a0 = 0xffffffbc\n 19351: a1 = u64 [s1 + 0xd8]\n 19355: a0 = a1 <u a0\n 19358: t0 = 622, jump @878\n      : @679 [@dyn 311] (gas: 1)\n 19364: jump @681 if a0 != 0\n      : @680 (gas: 1)\n 19367: jump @505\n      : @681 (gas: 12)\n 19370: a0 = u64 [s1 + 0xd8]\n 19374: i32 a0 = a0 + 0x44\n 19377: a1 = u64 [0x200e8]\n 19382: a2 = u64 [0x200f0]\n 19387: a3 = s1 + 0x600\n 19391: u64 [a3 + 0x98] = a1\n 19395: u64 [a3 + 0x90] = a2\n 19399: a1 = 0x6c65640000000000\n 19409: u64 [a3 + 0x88] = a1\n 19413: a1 = s1 + 0x680\n 19417: u64 [s1 + 1664] = 0\n 19421: ra = 624, jump @4\n      : @682 [@dyn 312] (gas: 3)\n 19427: a1 = 0x64\n 19430: a0 = u64 [s1 + 0xd8]\n 19434: ra = 626, jump @14\n      : @683 [@dyn 313] (gas: 6)\n 19440: i32 a1 = a0 + 0\n 19442: a0 = 0x1\n 19445: a2 = 0x64\n 19448: ecalli 12 // 'seal_return'\n 19450: a1 = s1 + 0x1858\n 19454: jump @685\n      : @684 (gas: 2)\n 19456: a1 = s1 + 0x1858\n 19460: fallthrough\n      : @685 (gas: 7)\n 19461: u64 [a1 + 1056] = 0\n 19465: u64 [a1 + 1048] = 0\n 19469: u64 [a1 + 1040] = 0\n 19473: u64 [a1 + 1032] = 0x13\n 19478: a0 = s1 + 0x440\n 19482: a1 = s1 + 0x1c60\n 19486: ra = 628, jump @6\n      : @686 [@dyn 314] (gas: 16)\n 19492: a0 = u64 [s1 + 0x458]\n 19496: u64 [s1 + 0xc0] = a0\n 19500: a0 = u64 [s1 + 0x450]\n 19504: u64 [s1 + 0xc8] = a0\n 19508: a0 = u64 [s1 + 0x448]\n 19512: u64 [s1 + 0xd0] = a0\n 19516: a0 = u64 [s1 + 0x440]\n 19520: u64 [s1 + 0xd8] = a0\n 19524: a0 = s1 + 0x1858\n 19528: u64 [a0 + 1088] = 0\n 19532: u64 [a0 + 1080] = 0\n 19536: u64 [a0 + 1072] = 0\n 19540: u64 [a0 + 1064] = 0\n 19544: a0 = s1 + 0x420\n 19548: a1 = s1 + 0x1c80\n 19552: ra = 630, jump @6\n      : @687 [@dyn 315] (gas: 11)\n 19558: a0 = u64 [s1 + 0x438]\n 19562: u64 [s1 + 0xb8] = a0\n 19566: a0 = u64 [s1 + 0x430]\n 19570: u64 [s1 + 0xb0] = a0\n 19574: a0 = u64 [s1 + 0x428]\n 19578: u64 [s1 + 0xa8] = a0\n 19582: a0 = u64 [s1 + 0x420]\n 19586: u64 [s1 + 0xa0] = a0\n 19590: a0 = s1 + 0x400\n 19594: a1 = 0x40\n 19597: ra = 632, jump @2\n      : @688 [@dyn 316] (gas: 6)\n 19603: a4 = s1 + 0x400\n 19607: a3 = u64 [a4 + 0x18]\n 19610: a1 = u64 [a4 + 0x10]\n 19613: a2 = u64 [a4 + 0x8]\n 19616: a0 = u64 [a4]\n 19618: t0 = 634, jump @883\n      : @689 [@dyn 317] (gas: 1)\n 19624: jump @691 if a1 == 0\n      : @690 (gas: 1)\n 19627: jump @505\n      : @691 (gas: 11)\n 19630: a1 = u64 [s1 + 0xa0]\n 19634: u64 [s1 + 0x3e0] = a1\n 19638: a1 = u64 [s1 + 0xa8]\n 19642: u64 [s1 + 0x3e8] = a1\n 19646: a1 = u64 [s1 + 0xb0]\n 19650: u64 [s1 + 0x3f0] = a1\n 19654: a1 = s1 + 0x3e0\n 19658: a2 = u64 [s1 + 0xb8]\n 19662: u64 [s1 + 0x3f8] = a2\n 19666: u64 [s1 + 0xb8] = a0\n 19670: ra = 636, jump @4\n      : @692 [@dyn 318] (gas: 22)\n 19676: a0 = u64 [s1 + 0xc0]\n 19680: a4 = s1 + 0x300\n 19684: u64 [a4 + 0xb8] = a0\n 19688: a0 = u64 [s1 + 0xc8]\n 19692: u64 [a4 + 0xb0] = a0\n 19696: a0 = u64 [s1 + 0xd0]\n 19700: u64 [a4 + 0xa8] = a0\n 19704: a0 = u64 [0x20128]\n 19709: a1 = u64 [0x20130]\n 19714: a2 = u64 [0x20138]\n 19719: a3 = u64 [s1 + 0xd8]\n 19723: u64 [a4 + 0xa0] = a3\n 19727: u64 [a4 + 0xd8] = a0\n 19731: u64 [a4 + 0xd0] = a1\n 19735: u64 [a4 + 0xc8] = a2\n 19739: a0 = u64 [0x20140]\n 19744: a1 = 0x20\n 19747: a2 = s1 + 0x3c0\n 19751: a3 = s1 + 0x3a0\n 19755: u64 [a4 + 0xc0] = a0\n 19759: a0 = u64 [s1 + 0xb8]\n 19763: ra = 638, jump @8\n      : @693 [@dyn 319] (gas: 4)\n 19769: a1 = 0x20190\n 19774: i32 a1 = a1 + 0\n 19776: a0 = 0\n 19778: jump @736\n      : @694 (gas: 4)\n 19781: a1 = 0x20190\n 19786: i32 a1 = a1 + 0\n 19788: a0 = 0x1\n 19791: jump @736\n      : @695 (gas: 4)\n 19794: a1 = 0x20190\n 19799: i32 a1 = a1 + 0\n 19801: a0 = 0x1\n 19804: jump @736\n      : @696 (gas: 4)\n 19807: a1 = 0x20190\n 19812: i32 a1 = a1 + 0\n 19814: a0 = 0x1\n 19817: jump @736\n      : @697 (gas: 4)\n 19820: a1 = 0x20190\n 19825: i32 a1 = a1 + 0\n 19827: a0 = 0x1\n 19830: jump @736\n      : @698 (gas: 21)\n 19833: a0 = s1 + 0x2000\n 19837: i32 a0 = a0 + 0x260\n 19841: a1 = 0x4\n 19844: ecalli 4 // 'call_data_load'\n 19846: a4 = s1 + 0x2058\n 19850: a5 = a4 + 0x200\n 19854: a0 = u64 [a5 + 0x8]\n 19857: a1 = u64 [a5 + 0x10]\n 19860: a2 = u64 [a5 + 0x18]\n 19863: a3 = u64 [a5 + 0x20]\n 19866: u64 [a4 + 576] = 0\n 19870: u64 [a4 + 568] = 0\n 19874: u64 [a4 + 560] = 0\n 19878: u64 [a4 + 552] = 0\n 19882: u64 [a5 + 0x60] = a3\n 19885: u64 [a5 + 0x58] = a2\n 19888: u64 [a5 + 0x50] = a1\n 19891: u64 [a5 + 0x48] = a0\n 19894: a0 = s1 + 0x2280\n 19898: a1 = s1 + 0x22a0\n 19902: ra = 640, jump @7\n      : @699 [@dyn 320] (gas: 4)\n 19908: a1 = 0x20190\n 19913: i32 a1 = a1 + 0\n 19915: a0 = 0\n 19917: jump @736\n      : @700 (gas: 4)\n 19920: a1 = 0x20190\n 19925: i32 a1 = a1 + 0\n 19927: a0 = 0x1\n 19930: jump @736\n      : @701 (gas: 4)\n 19933: a1 = 0x20190\n 19938: i32 a1 = a1 + 0\n 19940: a0 = 0x1\n 19943: jump @736\n      : @702 (gas: 4)\n 19946: a1 = 0x20190\n 19951: i32 a1 = a1 + 0\n 19953: a0 = 0x1\n 19956: jump @736\n      : @703 (gas: 4)\n 19959: a1 = 0x20190\n 19964: i32 a1 = a1 + 0\n 19966: a0 = 0x1\n 19969: jump @736\n      : @704 (gas: 4)\n 19972: a1 = 0x20190\n 19977: i32 a1 = a1 + 0\n 19979: a0 = 0x1\n 19982: jump @736\n      : @705 (gas: 4)\n 19985: a1 = 0x20190\n 19990: i32 a1 = a1 + 0\n 19992: a0 = 0x1\n 19995: jump @736\n      : @706 (gas: 12)\n 19998: a0 = s1 + 0x7ff\n 20002: a0 = a0 + 0x59\n 20005: u64 [a0 + 1112] = 0\n 20009: u64 [a0 + 1104] = 0\n 20013: u64 [a0 + 1096] = 0\n 20017: a2 = a0\n 20019: a0 = 0x4e487b7100000000\n 20029: a1 = s1 + 0x7ff\n 20033: a1 = a1 + 0x4a1\n 20037: u64 [a2 + 0x460] = a0\n 20041: a0 = 0\n 20043: ra = 642, jump @4\n      : @707 [@dyn 321] (gas: 11)\n 20049: a1 = s1 + 0x7ff\n 20053: a1 = a1 + 0x59\n 20056: u64 [a1 + 1088] = 0\n 20060: u64 [a1 + 1080] = 0\n 20064: u64 [a1 + 1064] = 0x32\n 20069: a2 = a1\n 20071: a0 = 0x4\n 20074: a1 = s1 + 0x7ff\n 20078: a1 = a1 + 0x481\n 20082: u64 [a2 + 1072] = 0\n 20086: ra = 644, jump @4\n      : @708 [@dyn 322] (gas: 2)\n 20092: a1 = i32 [0x2017c]\n 20097: jump @710 if a1 >u 63\n      : @709 (gas: 3)\n 20101: u32 [0x2017c] = 0x40\n 20107: a1 = 0x20190\n 20112: jump @764\n      : @710 (gas: 2)\n 20115: a1 = 0x20190\n 20120: jump @764\n      : @711 (gas: 4)\n 20123: a1 = 0x20190\n 20128: i32 a1 = a1 + 0\n 20130: a0 = 0x1\n 20133: jump @736\n      : @712 (gas: 4)\n 20136: a1 = 0x20190\n 20141: i32 a1 = a1 + 0\n 20143: a0 = 0x1\n 20146: jump @736\n      : @713 (gas: 4)\n 20149: a1 = 0x20190\n 20154: i32 a1 = a1 + 0\n 20156: a0 = 0x1\n 20159: jump @736\n      : @714 (gas: 4)\n 20162: a1 = 0x20190\n 20167: i32 a1 = a1 + 0\n 20169: a0 = 0x1\n 20172: jump @736\n      : @715 (gas: 4)\n 20175: a1 = 0x20190\n 20180: i32 a1 = a1 + 0\n 20182: a0 = 0x1\n 20185: jump @736\n      : @716 (gas: 4)\n 20188: a1 = 0x20190\n 20193: i32 a1 = a1 + 0\n 20195: a0 = 0x1\n 20198: jump @736\n      : @717 (gas: 4)\n 20201: a1 = 0x20190\n 20206: i32 a1 = a1 + 0\n 20208: a0 = 0x1\n 20211: jump @736\n      : @718 (gas: 4)\n 20214: a1 = 0x20190\n 20219: i32 a1 = a1 + 0\n 20221: a0 = 0x1\n 20224: jump @736\n      : @719 (gas: 9)\n 20227: a1 = s1 + 0x1858\n 20231: u64 [a1 + 1728] = 0\n 20235: u64 [a1 + 1720] = 0\n 20239: u64 [a1 + 1712] = 0\n 20243: u64 [a1 + 1704] = 0x18\n 20248: a0 = s1 + 0x7ff\n 20252: a0 = a0 + 0x5e1\n 20256: a1 = s1 + 0x1f00\n 20260: ra = 646, jump @6\n      : @720 [@dyn 323] (gas: 24)\n 20266: a1 = s1 + 0x7ff\n 20270: a1 = a1 + 0x59\n 20273: a0 = u32 [a1 + 0x59c]\n 20277: a1 = u64 [a1 + 0x5a0]\n 20281: a0 = a0 << 0x20\n 20284: a2 = u64 [s1 + 0xd8]\n 20288: a0 = a0 | a2\n 20291: a2 = u64 [s1 + 0xd0]\n 20295: a1 = a1 | a2\n 20298: a3 = s1 + 0x1858\n 20302: u64 [a3 + 1760] = 0\n 20306: u64 [a3 + 1752] = 0\n 20310: u64 [a3 + 1744] = 0\n 20314: a4 = a3 + 0x600\n 20318: u64 [a4 + 200] = 0x18\n 20323: a2 = u64 [s1 + 0xc0]\n 20327: u64 [a4 + 0xf0] = a2\n 20331: a2 = u64 [s1 + 0xc8]\n 20335: u64 [a4 + 0xe8] = a2\n 20339: u64 [a3 + 0x700] = a1\n 20343: u64 [a4 + 0xf8] = a0\n 20347: a0 = s1 + 0x1f20\n 20351: a1 = s1 + 0x1f40\n 20355: ra = 648, jump @7\n      : @721 [@dyn 324] (gas: 4)\n 20361: a1 = 0x20190\n 20366: i32 a1 = a1 + 0\n 20368: a0 = 0\n 20370: jump @736\n      : @722 (gas: 4)\n 20373: a1 = 0x20190\n 20378: i32 a1 = a1 + 0\n 20380: a0 = 0x1\n 20383: jump @736\n      : @723 (gas: 4)\n 20386: a1 = 0x20190\n 20391: i32 a1 = a1 + 0\n 20393: a0 = 0x1\n 20396: jump @736\n      : @724 (gas: 8)\n 20399: a1 = s1 + 0x2058\n 20403: u64 [a1 + 736] = 0\n 20407: u64 [a1 + 728] = 0\n 20411: u64 [a1 + 720] = 0\n 20415: u64 [a1 + 712] = 0x1\n 20420: a0 = s1 + 0x2320\n 20424: a1 = u64 [s1 + 0xd8]\n 20428: ra = 650, jump @7\n      : @725 [@dyn 325] (gas: 4)\n 20434: a1 = 0x20190\n 20439: i32 a1 = a1 + 0\n 20441: a0 = 0\n 20443: jump @736\n      : @726 (gas: 4)\n 20446: a1 = 0x20190\n 20451: i32 a1 = a1 + 0\n 20453: a0 = 0x1\n 20456: jump @736\n      : @727 (gas: 4)\n 20459: a1 = 0x20190\n 20464: i32 a1 = a1 + 0\n 20466: a0 = 0x1\n 20469: jump @736\n      : @728 (gas: 4)\n 20472: a1 = 0x20190\n 20477: i32 a1 = a1 + 0\n 20479: a0 = 0x1\n 20482: jump @736\n      : @729 (gas: 4)\n 20484: a1 = 0x20190\n 20489: i32 a1 = a1 + 0\n 20491: a0 = 0x1\n 20494: jump @736\n      : @730 (gas: 1)\n 20496: jump @734 if a0 != 120497692\n      : @731 (gas: 9)\n 20503: u64 [a3 + 1920] = 0\n 20507: u64 [a3 + 1912] = 0\n 20511: u64 [a3 + 1904] = 0\n 20515: u64 [a3 + 1896] = 0\n 20519: a0 = s1 + 0x1000\n 20523: i32 a0 = a0 + 0x7c0\n 20527: ecalli 15 // 'value_transferred'\n 20529: a3 = s1 + 0x1058\n 20533: fallthrough\n      : @732 (gas: 10)\n 20534: a5 = a3 + 0x700\n 20538: a0 = u64 [a5 + 0x78]\n 20541: a1 = u64 [a5 + 0x80]\n 20545: a2 = u64 [a5 + 0x70]\n 20548: a4 = a3\n 20550: a3 = u64 [a5 + 0x68]\n 20553: a1 = a1 | a2\n 20556: a0 = a0 | a3\n 20559: a0 = a0 | a1\n 20562: jump @765 if a0 == 0\n      : @733 (gas: 4)\n 20566: a1 = 0x20190\n 20571: i32 a1 = a1 + 0\n 20573: a0 = 0x1\n 20576: jump @736\n      : @734 (gas: 4)\n 20578: a1 = 0x20190\n 20583: i32 a1 = a1 + 0\n 20585: a0 = 0x1\n 20588: jump @736\n      : @735 (gas: 6)\n 20590: i32 a1 = a1 + 0\n 20592: a0 = 0x1\n 20595: a2 = 0\n 20597: ecalli 12 // 'seal_return'\n 20599: a1 = 0x20190\n 20604: jump @735\n      : @736 (gas: 4)\n 20606: a2 = 0\n 20608: ecalli 12 // 'seal_return'\n 20610: a1 = 0x20190\n 20615: jump @735\n      : @737 (gas: 2)\n 20617: a1 = 0x20190\n 20622: jump @735\n      : @738 (gas: 2)\n 20624: a1 = 0x20190\n 20629: jump @735\n      : @739 (gas: 2)\n 20631: a1 = 0x20190\n 20636: jump @735\n      : @740 (gas: 2)\n 20638: a1 = 0x20190\n 20643: jump @735\n      : @741 (gas: 2)\n 20645: a1 = 0x20190\n 20650: jump @735\n      : @742 (gas: 2)\n 20652: a1 = 0x20190\n 20657: jump @735\n      : @743 (gas: 2)\n 20659: a1 = 0x20190\n 20664: jump @735\n      : @744 (gas: 2)\n 20666: a1 = 0x20190\n 20671: jump @735\n      : @745 (gas: 2)\n 20673: a1 = 0x20190\n 20678: jump @735\n      : @746 (gas: 2)\n 20680: a1 = 0x20190\n 20685: jump @735\n      : @747 (gas: 2)\n 20687: a1 = 0x20190\n 20692: jump @735\n      : @748 (gas: 2)\n 20694: a1 = 0x20190\n 20699: jump @735\n      : @749 (gas: 2)\n 20701: a1 = 0x20190\n 20706: jump @735\n      : @750 (gas: 2)\n 20708: a1 = 0x20190\n 20713: jump @735\n      : @751 (gas: 2)\n 20715: a1 = 0x20190\n 20720: jump @735\n      : @752 (gas: 2)\n 20723: a1 = 0x20190\n 20728: jump @735\n      : @753 (gas: 2)\n 20731: a1 = 0x20190\n 20736: jump @735\n      : @754 (gas: 17)\n 20739: a5 = u64 [s1 + 0xd8]\n 20743: a4 = u64 [a5 + 0x10]\n 20746: a1 = u64 [a5 + 0x18]\n 20749: a2 = u64 [a5 + 0x8]\n 20752: t0 = a3\n 20754: a3 = u64 [a5]\n 20756: a1 = a1 | a2\n 20759: a3 = a3 | a4\n 20762: a1 = a1 | a3\n 20765: a1 = a1 >u 0\n 20767: u64 [t0 + 1472] = 0\n 20771: u64 [t0 + 1464] = 0\n 20775: u64 [t0 + 0x5a8] = a1\n 20779: a1 = s1 + 0x1600\n 20783: u64 [t0 + 1456] = 0\n 20787: u64 [s1 + 0xd8] = a0\n 20791: ra = 652, jump @4\n      : @755 [@dyn 326] (gas: 3)\n 20797: a1 = 0x20\n 20800: a0 = u64 [s1 + 0xd8]\n 20804: ra = 654, jump @14\n      : @756 [@dyn 327] (gas: 5)\n 20810: i32 a1 = a0 + 0\n 20812: a2 = 0x20\n 20815: a0 = 0\n 20817: ecalli 12 // 'seal_return'\n 20819: jump @758\n      : @757 (gas: 4)\n 20821: a2 = 0x20\n 20824: a0 = 0\n 20826: ecalli 12 // 'seal_return'\n 20828: fallthrough\n      : @758 (gas: 10)\n 20829: a0 = s1 + 0x1058\n 20833: u64 [a0 + 664] = 0\n 20837: u64 [a0 + 656] = 0\n 20841: u64 [a0 + 648] = 0\n 20845: a2 = a0\n 20847: a0 = 0x4e487b7100000000\n 20857: a1 = s1 + 0x12e0\n 20861: u64 [a2 + 0x2a0] = a0\n 20865: a0 = 0\n 20867: ra = 656, jump @4\n      : @759 [@dyn 328] (gas: 3)\n 20873: t0 = 0x292\n 20877: a1 = s1 + 0x1058\n 20881: fallthrough\n      : @760 [@dyn 329] (gas: 8)\n 20882: u64 [a1 + 640] = 0\n 20886: u64 [a1 + 632] = 0\n 20890: u64 [a1 + 616] = 0x32\n 20895: a2 = a1\n 20897: a0 = 0x4\n 20900: a1 = s1 + 0x12c0\n 20904: u64 [a2 + 624] = 0\n 20908: ra = 660, jump @4\n      : @761 [@dyn 330] (gas: 2)\n 20914: a1 = i32 [0x2017c]\n 20919: jump @763 if a1 >u 63\n      : @762 (gas: 3)\n 20923: u32 [0x2017c] = 0x40\n 20929: a1 = 0x20190\n 20934: jump @764\n      : @763 (gas: 2)\n 20936: a1 = 0x20190\n 20941: fallthrough\n      : @764 (gas: 5)\n 20942: i32 a1 = a1 + 0\n 20944: a0 = 0x1\n 20947: a2 = 0x24\n 20950: ecalli 12 // 'seal_return'\n 20952: fallthrough\n      : @765 (gas: 3)\n 20953: a0 = u64 [s1 + 0xd8]\n 20957: a0 = i32 [a0]\n 20959: jump @783 if a0 >u 3\n      : @766 (gas: 2)\n 20964: a1 = 0x20190\n 20969: jump @735\n      : @767 (gas: 10)\n 20972: a0 = s1 + 0x1058\n 20976: u64 [a0 + 1432] = 0\n 20980: u64 [a0 + 1424] = 0\n 20984: u64 [a0 + 1416] = 0\n 20988: a2 = a0\n 20990: a0 = 0x4e487b7100000000\n 21000: a1 = s1 + 0x15e0\n 21004: u64 [a2 + 0x5a0] = a0\n 21008: a0 = 0\n 21010: ra = 662, jump @4\n      : @768 [@dyn 331] (gas: 3)\n 21016: t0 = 0x298\n 21020: a1 = s1 + 0x1058\n 21024: fallthrough\n      : @769 [@dyn 332] (gas: 8)\n 21025: u64 [a1 + 1408] = 0\n 21029: u64 [a1 + 1400] = 0\n 21033: u64 [a1 + 1384] = 0x11\n 21038: a2 = a1\n 21040: a0 = 0x4\n 21043: a1 = s1 + 0x15c0\n 21047: u64 [a2 + 1392] = 0\n 21051: ra = 666, jump @4\n      : @770 [@dyn 333] (gas: 2)\n 21057: a1 = i32 [0x2017c]\n 21062: jump @772 if a1 >u 63\n      : @771 (gas: 3)\n 21066: u32 [0x2017c] = 0x40\n 21072: a1 = 0x20190\n 21077: jump @764\n      : @772 (gas: 2)\n 21080: a1 = 0x20190\n 21085: jump @764\n      : @773 (gas: 12)\n 21088: a0 = s1 + 0x7ff\n 21092: a0 = a0 + 0x59\n 21095: u64 [a0 + 1912] = 0\n 21099: u64 [a0 + 1904] = 0\n 21103: u64 [a0 + 1896] = 0\n 21107: a2 = a0\n 21109: a0 = 0x4e487b7100000000\n 21119: a1 = s1 + 0x7ff\n 21123: a1 = a1 + 0x7c1\n 21127: u64 [a2 + 0x780] = a0\n 21131: a0 = 0\n 21133: ra = 668, jump @4\n      : @774 [@dyn 334] (gas: 11)\n 21139: a1 = s1 + 0x7ff\n 21143: a1 = a1 + 0x59\n 21146: u64 [a1 + 1888] = 0\n 21150: u64 [a1 + 1880] = 0\n 21154: u64 [a1 + 1864] = 0x11\n 21159: a2 = a1\n 21161: a0 = 0x4\n 21164: a1 = s1 + 0x7ff\n 21168: a1 = a1 + 0x7a1\n 21172: u64 [a2 + 1872] = 0\n 21176: ra = 670, jump @4\n      : @775 [@dyn 335] (gas: 2)\n 21182: a1 = i32 [0x2017c]\n 21187: jump @777 if a1 >u 63\n      : @776 (gas: 3)\n 21191: u32 [0x2017c] = 0x40\n 21197: a1 = 0x20190\n 21202: jump @764\n      : @777 (gas: 2)\n 21205: a1 = 0x20190\n 21210: jump @764\n      : @778 (gas: 8)\n 21213: u64 [s1 + 688] = 0\n 21217: u64 [s1 + 680] = 0\n 21221: u64 [s1 + 672] = 0\n 21225: a0 = 0x4e487b7100000000\n 21235: a1 = s1 + 0x2a0\n 21239: u64 [s1 + 0x2b8] = a0\n 21243: a0 = 0\n 21245: ra = 672, jump @4\n      : @779 [@dyn 336] (gas: 7)\n 21251: u64 [s1 + 664] = 0\n 21255: u64 [s1 + 656] = 0\n 21259: u64 [s1 + 640] = 0x11\n 21264: a0 = 0x4\n 21267: a1 = s1 + 0x280\n 21271: u64 [s1 + 648] = 0\n 21275: ra = 674, jump @4\n      : @780 [@dyn 337] (gas: 2)\n 21281: a1 = i32 [0x2017c]\n 21286: jump @782 if a1 >u 63\n      : @781 (gas: 3)\n 21290: u32 [0x2017c] = 0x40\n 21296: a1 = 0x20190\n 21301: jump @764\n      : @782 (gas: 2)\n 21304: a1 = 0x20190\n 21309: jump @764\n      : @783 (gas: 7)\n 21312: u64 [a4 + 1952] = 0\n 21316: u64 [a4 + 1944] = 0\n 21320: u64 [a4 + 1936] = 0\n 21324: u64 [a4 + 1928] = 0\n 21328: a0 = s1 + 0x100\n 21332: a1 = s1 + 0x17e0\n 21336: ra = 676, jump @6\n      : @784 [@dyn 338] (gas: 12)\n 21342: a4 = s1 + 0x100\n 21346: a2 = u64 [a4]\n 21348: a0 = u64 [a4 + 0x8]\n 21351: a1 = u64 [a4 + 0x10]\n 21354: a3 = u64 [a4 + 0x18]\n 21357: u64 [s1 + 0xf8] = a3\n 21361: u64 [s1 + 0xf0] = a1\n 21365: u64 [s1 + 0xe8] = a0\n 21369: a0 = 0x80\n 21373: a1 = s1 + 0xe0\n 21377: u64 [s1 + 0xe0] = a2\n 21381: ra = 678, jump @4\n      : @785 [@dyn 339] (gas: 2)\n 21387: a1 = i32 [0x2017c]\n 21392: jump @787 if a1 >u 159\n      : @786 (gas: 4)\n 21397: u32 [0x2017c] = 0xa0\n 21404: a0 = 0x20190\n 21409: i32 a1 = a0 + 0x80\n 21413: jump @757\n      : @787 (gas: 3)\n 21416: a0 = 0x20190\n 21421: i32 a1 = a0 + 0x80\n 21425: jump @757\n      : @788 (gas: 8)\n 21428: u64 [s1 + 1936] = 0\n 21432: u64 [s1 + 1928] = 0\n 21436: u64 [s1 + 1920] = 0\n 21440: a0 = 0x4e487b7100000000\n 21450: a1 = s1 + 0x780\n 21454: u64 [s1 + 0x798] = a0\n 21458: a0 = 0\n 21460: ra = 680, jump @4\n      : @789 [@dyn 340] (gas: 7)\n 21466: u64 [s1 + 1912] = 0\n 21470: u64 [s1 + 1904] = 0\n 21474: u64 [s1 + 1888] = 0x11\n 21479: a0 = 0x4\n 21482: a1 = s1 + 0x760\n 21486: u64 [s1 + 1896] = 0\n 21490: ra = 682, jump @4\n      : @790 [@dyn 341] (gas: 2)\n 21496: a1 = i32 [0x2017c]\n 21501: jump @792 if a1 >u 63\n      : @791 (gas: 3)\n 21505: u32 [0x2017c] = 0x40\n 21511: a1 = 0x20190\n 21516: jump @764\n      : @792 (gas: 2)\n 21519: a1 = 0x20190\n 21524: jump @764\n      : @793 (gas: 8)\n 21527: u64 [s1 + 912] = 0\n 21531: u64 [s1 + 904] = 0\n 21535: u64 [s1 + 896] = 0\n 21539: a0 = 0x4e487b7100000000\n 21549: a1 = s1 + 0x380\n 21553: u64 [s1 + 0x398] = a0\n 21557: a0 = 0\n 21559: ra = 684, jump @4\n      : @794 [@dyn 342] (gas: 7)\n 21565: u64 [s1 + 888] = 0\n 21569: u64 [s1 + 880] = 0\n 21573: u64 [s1 + 864] = 0x11\n 21578: a0 = 0x4\n 21581: a1 = s1 + 0x360\n 21585: u64 [s1 + 872] = 0\n 21589: ra = 686, jump @4\n      : @795 [@dyn 343] (gas: 2)\n 21595: a1 = i32 [0x2017c]\n 21600: jump @797 if a1 >u 63\n      : @796 (gas: 3)\n 21604: u32 [0x2017c] = 0x40\n 21610: a1 = 0x20190\n 21615: jump @764\n      : @797 (gas: 2)\n 21618: a1 = 0x20190\n 21623: jump @764\n      : @798 (gas: 46)\n 21626: sp = sp + 0xffffffffffffff70\n 21630: u64 [sp + 0x88] = ra\n 21634: u64 [sp + 0x80] = s0\n 21638: u64 [sp + 0x78] = s1\n 21641: s0 = sp + 0x90\n 21645: sp = sp & 0xfffffffffffffff0\n 21648: t0 = a0\n 21650: a2 = u64 [a1]\n 21652: t2 = u64 [a0 + 0x8]\n 21655: a5 = u64 [a1 + 0x8]\n 21658: t1 = u64 [a0]\n 21660: a3 = a2 + 0x1f\n 21663: ra = a3 <u a2\n 21666: a2 = a5 + ra\n 21669: a3 = a3 & 0xffffffffffffffe0\n 21672: u64 [sp + 0x8] = t1\n 21675: t1 = t1 + a3\n 21678: a4 = t1 <u a3\n 21681: a3 = a2 + t2\n 21684: a3 = a3 + a4\n 21687: s1 = a3 ^ a2\n 21690: a0 = a3 <u a2\n 21693: a0 = a4 if s1 == 0\n 21696: a4 = u64 [t0 + 0x18]\n 21699: a5 = a2 <u a5\n 21702: s1 = u64 [a1 + 0x10]\n 21705: t0 = u64 [t0 + 0x10]\n 21708: a1 = u64 [a1 + 0x18]\n 21711: a5 = ra if ra == 0\n 21714: a5 = a5 + s1\n 21717: s1 = a5 <u s1\n 21720: a2 = a5 + t0\n 21723: a0 = a0 + a2\n 21726: a5 = a2 <u a5\n 21729: a2 = a0 <u a2\n 21732: a1 = a1 + a4\n 21735: a1 = a1 + s1\n 21738: a1 = a1 + a5\n 21741: a5 = a1 + a2\n 21744: a1 = a5 >u 0\n 21746: a2 = a0 >u 0\n 21748: a2 = a1 if a5 != 0\n 21751: a1 = a0 | a5\n 21754: s1 = a3 >u 0\n 21756: s1 = a2 if a1 != 0\n 21759: jump @802 if s1 != 0\n      : @799 (gas: 13)\n 21762: a1 = u64 [sp + 0x8]\n 21765: a1 = t1 <u a1\n 21768: a2 = a3 ^ t2\n 21771: s1 = a3 <u t2\n 21774: s1 = a1 if a2 == 0\n 21777: a1 = a0 <u t0\n 21780: a2 = a5 ^ a4\n 21783: a4 = a5 <u a4\n 21786: a4 = a1 if a2 == 0\n 21789: a1 = a0 ^ t0\n 21792: a1 = a1 | a2\n 21795: a4 = s1 if a1 == 0\n 21798: jump @802 if a4 != 0\n      : @800 (gas: 7)\n 21801: u64 [sp + 0x50] = t1\n 21804: u64 [sp + 0x58] = a3\n 21807: u64 [sp + 0x60] = a0\n 21810: a0 = 0x40\n 21813: a1 = sp + 0x50\n 21816: u64 [sp + 0x68] = a5\n 21819: ra = 688, jump @4\n      : @801 [@dyn 344] (gas: 6)\n 21825: sp = s0 + 0xffffffffffffff70\n 21829: ra = u64 [sp + 0x88]\n 21833: s0 = u64 [sp + 0x80]\n 21837: s1 = u64 [sp + 0x78]\n 21840: sp = sp + 0x90\n 21844: ret\n      : @802 (gas: 8)\n 21846: u64 [sp + 64] = 0\n 21849: u64 [sp + 56] = 0\n 21852: u64 [sp + 48] = 0\n 21855: a0 = 0x4e487b7100000000\n 21865: a1 = sp + 0x30\n 21868: u64 [sp + 0x48] = a0\n 21871: a0 = 0\n 21873: ra = 690, jump @4\n      : @803 [@dyn 345] (gas: 7)\n 21879: u64 [sp + 40] = 0\n 21882: u64 [sp + 32] = 0\n 21885: u64 [sp + 16] = 0x41\n 21889: a0 = 0x4\n 21892: a1 = sp + 0x10\n 21895: u64 [sp + 24] = 0\n 21898: ra = 692, jump @4\n      : @804 [@dyn 346] (gas: 2)\n 21904: a1 = i32 [0x2017c]\n 21909: jump @806 if a1 >u 63\n      : @805 (gas: 2)\n 21913: u32 [0x2017c] = 0x40\n 21919: fallthrough\n      : @806 (gas: 7)\n 21920: a1 = 0x20190\n 21925: i32 a1 = a1 + 0\n 21927: a0 = 0x1\n 21930: a2 = 0x24\n 21933: ra = 0x2b6\n 21937: ecalli 12 // 'seal_return'\n 21939: fallthrough\n      : @807 [@dyn 347] (gas: 9)\n 21940: sp = sp + 0xffffffffffffff20\n 21944: u64 [sp + 0xd8] = ra\n 21948: u64 [sp + 0xd0] = s0\n 21952: u64 [sp + 0xc8] = s1\n 21956: s0 = sp + 0xe0\n 21960: sp = sp & 0xffffffffffffffe0\n 21963: s1 = a0\n 21965: ecalli 11 // 'return_data_size'\n 21967: fallthrough\n      : @808 (gas: 1)\n 21968: jump @820 if a0 == 0\n      : @809 (gas: 6)\n 21972: u64 [sp + 0x18] = s1\n 21975: ecalli 11 // 'return_data_size'\n 21977: s1 = a0\n 21979: a0 = sp + 0xa0\n 21983: a1 = 0x40\n 21986: ra = 696, jump @2\n      : @810 [@dyn 348] (gas: 28)\n 21992: a2 = u64 [sp + 0xb8]\n 21996: a5 = u64 [sp + 0xb0]\n 22000: u64 [sp + 0x38] = a5\n 22003: t0 = u64 [sp + 0xa8]\n 22007: u64 [sp + 0x30] = t0\n 22010: t1 = u64 [sp + 0xa0]\n 22014: u64 [sp + 0x28] = t1\n 22017: a0 = s1 + 0x1f\n 22020: u64 [sp + 0x20] = s1\n 22023: a1 = a0 <u s1\n 22026: s1 = a2\n 22028: a0 = a0 & 0xffffffffffffffe0\n 22031: a2 = a0 + 0x20\n 22034: a0 = a2 <u a0\n 22037: a3 = a1 + a0\n 22040: a4 = a3 <u a1\n 22043: a4 = a0 if a0 == 0\n 22046: u64 [sp + 120] = 0\n 22049: u64 [sp + 0x60] = a2\n 22052: u64 [sp + 0x98] = s1\n 22056: u64 [sp + 0x90] = a5\n 22060: u64 [sp + 0x88] = t0\n 22064: u64 [sp + 0x80] = t1\n 22068: u64 [sp + 0x68] = a3\n 22071: a0 = sp + 0x80\n 22075: a1 = sp + 0x60\n 22078: u64 [sp + 0x70] = a4\n 22081: ra = 698, jump @798\n      : @811 [@dyn 349] (gas: 11)\n 22087: a0 = u64 [sp + 0x28]\n 22090: a2 = u64 [sp + 0x30]\n 22093: a2 = a2 | s1\n 22096: a3 = u64 [sp + 0x38]\n 22099: a1 = a0 | a3\n 22102: a1 = a1 | a2\n 22105: a1 = a1 >> 0x20\n 22108: a2 = a2 | a3\n 22111: a2 = a2 << 0x20\n 22114: a1 = a1 | a2\n 22117: jump @819 if a1 != 0\n      : @812 (gas: 7)\n 22121: u64 [sp + 88] = 0\n 22124: u64 [sp + 80] = 0\n 22127: u64 [sp + 72] = 0\n 22130: a1 = sp + 0x40\n 22133: a2 = u64 [sp + 0x20]\n 22136: u64 [sp + 0x40] = a2\n 22139: ra = 700, jump @4\n      : @813 [@dyn 350] (gas: 2)\n 22145: ecalli 11 // 'return_data_size'\n 22147: fallthrough\n      : @814 (gas: 10)\n 22148: a3 = u64 [sp + 0x28]\n 22151: u64 [sp + 0x20] = s1\n 22154: a1 = u64 [sp + 0x38]\n 22157: a1 = a1 | s1\n 22160: a2 = 0xffffffe0\n 22170: a2 = a3 <u a2\n 22173: a4 = u64 [sp + 0x30]\n 22176: a2 = 0 if a4 != 0\n 22178: a2 = 0 if a1 != 0\n 22180: jump @819 if a2 == 0\n      : @815 (gas: 3)\n 22183: s1 = a0\n 22185: a0 = a0 >> 0x20\n 22188: jump @819 if a0 != 0\n      : @816 (gas: 5)\n 22191: i32 a0 = a3 + 0x20\n 22194: i32 a1 = s1 + 0\n 22196: u64 [sp + 0x10] = a1\n 22199: a1 = s1\n 22201: ra = 702, jump @14\n      : @817 [@dyn 351] (gas: 6)\n 22207: u32 [sp + 0xc0] = s1\n 22211: i32 a0 = a0 + 0\n 22213: i32 a1 = sp + 0xc0\n 22217: a2 = 0\n 22219: ecalli 10 // 'return_data_copy'\n 22221: fallthrough\n      : @818 (gas: 8)\n 22222: a4 = u64 [sp + 0x28]\n 22225: a0 = i32 [sp + 0xc0]\n 22229: s1 = u64 [sp + 0x18]\n 22232: a1 = u64 [sp + 0x20]\n 22235: a2 = u64 [sp + 0x38]\n 22238: a3 = u64 [sp + 0x30]\n 22241: a5 = u64 [sp + 0x10]\n 22244: jump @821 if a0 >=u a5\n      : @819 (gas: 1)\n 22247: trap\n      : @820 (gas: 5)\n 22248: a3 = 0\n 22250: a2 = 0\n 22252: a1 = 0\n 22254: a4 = 0x60\n 22257: fallthrough\n      : @821 (gas: 5)\n 22258: u64 [s1] = a4\n 22260: u64 [s1 + 0x8] = a3\n 22263: u64 [s1 + 0x10] = a2\n 22266: u64 [s1 + 0x18] = a1\n 22269: t0 = 704, jump @897\n      : @822 [@dyn 352] (gas: 1)\n 22275: ret\n      : @823 [@dyn 353] (gas: 1)\n 22277: jump @826 if a0 == 0\n      : @824 (gas: 1)\n 22280: t0 = 708, jump @897\n      : @825 [@dyn 354] (gas: 1)\n 22286: ret\n      : @826 (gas: 3)\n 22288: a0 = sp + 0xa0\n 22292: a1 = 0x40\n 22295: ra = 710, jump @2\n      : @827 [@dyn 355] (gas: 1)\n 22301: t0 = 712, jump @885\n      : @828 [@dyn 356] (gas: 1)\n 22307: jump @839 if a0 != 0\n      : @829 (gas: 1)\n 22310: t0 = 714, jump @892\n      : @830 [@dyn 357] (gas: 1)\n 22316: ra = 716, jump @4\n      : @831 [@dyn 358] (gas: 1)\n 22322: t0 = 718, jump @884\n      : @832 [@dyn 359] (gas: 1)\n 22328: jump @839 if a0 == 0\n      : @833 (gas: 8)\n 22331: a0 = u64 [sp + 0x18]\n 22334: i32 a0 = a0 + 0x4\n 22337: u64 [sp + 120] = 0\n 22340: u64 [sp + 112] = 0\n 22343: u64 [sp + 96] = 0x20\n 22347: a1 = sp + 0x60\n 22350: u64 [sp + 104] = 0\n 22353: ra = 720, jump @4\n      : @834 [@dyn 360] (gas: 1)\n 22359: t0 = 722, jump @891\n      : @835 [@dyn 361] (gas: 1)\n 22365: jump @839 if a0 == 0\n      : @836 (gas: 8)\n 22368: s1 = u64 [sp + 0x18]\n 22371: i32 a0 = s1 + 0x24\n 22374: u64 [sp + 88] = 0\n 22377: u64 [sp + 80] = 0\n 22380: u64 [sp + 64] = 0x12\n 22384: a1 = sp + 0x40\n 22387: u64 [sp + 72] = 0\n 22390: ra = 724, jump @4\n      : @837 [@dyn 362] (gas: 1)\n 22396: t0 = 726, jump @888\n      : @838 [@dyn 363] (gas: 1)\n 22402: jump @840 if a0 != 0\n      : @839 (gas: 1)\n 22405: trap\n      : @840 (gas: 11)\n 22406: s1 = u64 [sp + 0x18]\n 22409: i32 a0 = s1 + 0x44\n 22412: a1 = u64 [0x20160]\n 22417: a2 = u64 [0x20168]\n 22422: u64 [sp + 0x38] = a1\n 22425: u64 [sp + 0x30] = a2\n 22428: a1 = 0x6578000000000000\n 22438: u64 [sp + 0x28] = a1\n 22441: a1 = sp + 0x20\n 22444: u64 [sp + 32] = 0\n 22447: ra = 728, jump @4\n      : @841 [@dyn 364] (gas: 3)\n 22453: a1 = 0x64\n 22456: a0 = s1\n 22458: ra = 730, jump @14\n      : @842 [@dyn 365] (gas: 7)\n 22464: i32 a1 = a0 + 0\n 22466: a0 = 0x1\n 22469: a2 = 0x64\n 22472: ra = 0x2dc\n 22476: ecalli 12 // 'seal_return'\n 22478: t0 = 0x2de\n 22482: jump @886\n      : @843 [@dyn 366] (gas: 1)\n 22485: t0 = 734, jump @886\n      : @844 [@dyn 367] (gas: 1)\n 22491: jump @847 if a0 == 0\n      : @845 (gas: 1)\n 22494: t0 = 736, jump @897\n      : @846 [@dyn 368] (gas: 1)\n 22500: ret\n      : @847 (gas: 3)\n 22502: a0 = sp + 0xa0\n 22506: a1 = 0x40\n 22509: ra = 738, jump @2\n      : @848 [@dyn 369] (gas: 1)\n 22515: t0 = 740, jump @885\n      : @849 [@dyn 370] (gas: 1)\n 22521: jump @860 if a0 != 0\n      : @850 (gas: 1)\n 22524: t0 = 742, jump @892\n      : @851 [@dyn 371] (gas: 1)\n 22530: ra = 744, jump @4\n      : @852 [@dyn 372] (gas: 1)\n 22536: t0 = 746, jump @884\n      : @853 [@dyn 373] (gas: 1)\n 22542: jump @860 if a0 == 0\n      : @854 (gas: 8)\n 22545: a0 = u64 [sp + 0x18]\n 22548: i32 a0 = a0 + 0x4\n 22551: u64 [sp + 120] = 0\n 22554: u64 [sp + 112] = 0\n 22557: u64 [sp + 96] = 0x20\n 22561: a1 = sp + 0x60\n 22564: u64 [sp + 104] = 0\n 22567: ra = 748, jump @4\n      : @855 [@dyn 374] (gas: 1)\n 22573: t0 = 750, jump @891\n      : @856 [@dyn 375] (gas: 1)\n 22579: jump @860 if a0 == 0\n      : @857 (gas: 8)\n 22582: s1 = u64 [sp + 0x18]\n 22585: i32 a0 = s1 + 0x24\n 22588: u64 [sp + 88] = 0\n 22591: u64 [sp + 80] = 0\n 22594: u64 [sp + 64] = 0x9\n 22598: a1 = sp + 0x40\n 22601: u64 [sp + 72] = 0\n 22604: ra = 752, jump @4\n      : @858 [@dyn 376] (gas: 1)\n 22610: t0 = 754, jump @888\n      : @859 [@dyn 377] (gas: 1)\n 22616: jump @861 if a0 != 0\n      : @860 (gas: 1)\n 22619: trap\n      : @861 (gas: 10)\n 22620: s1 = u64 [sp + 0x18]\n 22623: i32 a0 = s1 + 0x44\n 22626: a1 = u64 [0x20170]\n 22631: u64 [sp + 40] = 0\n 22634: u64 [sp + 0x38] = a1\n 22637: a1 = 0x7200000000000000\n 22647: u64 [sp + 0x30] = a1\n 22650: a1 = sp + 0x20\n 22653: u64 [sp + 32] = 0\n 22656: ra = 756, jump @4\n      : @862 [@dyn 378] (gas: 3)\n 22662: a1 = 0x64\n 22665: a0 = s1\n 22667: ra = 758, jump @14\n      : @863 [@dyn 379] (gas: 6)\n 22673: i32 a1 = a0 + 0\n 22675: a0 = 0x1\n 22678: a2 = 0x64\n 22681: ra = 0x2f8\n 22685: ecalli 12 // 'seal_return'\n 22687: fallthrough\n      : @864 [@dyn 380] (gas: 16)\n 22688: a2 = u64 [a1]\n 22690: t0 = u64 [a1 + 0x18]\n 22693: a3 = u64 [a1 + 0x8]\n 22696: a5 = u64 [a1 + 0x10]\n 22699: a4 = a2 + 0x1\n 22702: a2 = a4 <u 0x1\n 22705: a2 = a2 + a3\n 22708: a3 = a4 | a2\n 22711: a3 = a3 <u 0x1\n 22714: a3 = a3 + a5\n 22717: a5 = a3 <u a5\n 22720: a5 = a5 + t0\n 22723: t0 = a2 | a5\n 22726: a1 = a4 | a3\n 22729: a1 = a1 | t0\n 22732: jump @866 if a1 == 0\n      : @865 (gas: 5)\n 22735: u64 [a0] = a4\n 22737: u64 [a0 + 0x8] = a2\n 22740: u64 [a0 + 0x10] = a3\n 22743: u64 [a0 + 0x18] = a5\n 22746: ret\n      : @866 (gas: 13)\n 22748: sp = sp + 0xffffffffffffffb0\n 22751: u64 [sp + 0x48] = ra\n 22754: u64 [sp + 0x40] = s0\n 22757: s0 = sp + 0x50\n 22760: sp = sp & 0xfffffffffffffff0\n 22763: u64 [sp + 48] = 0\n 22766: u64 [sp + 40] = 0\n 22769: u64 [sp + 32] = 0\n 22772: a0 = 0x4e487b7100000000\n 22782: a1 = sp + 0x20\n 22785: u64 [sp + 0x38] = a0\n 22788: a0 = 0\n 22790: ra = 762, jump @4\n      : @867 [@dyn 381] (gas: 7)\n 22796: u64 [sp + 24] = 0\n 22799: u64 [sp + 16] = 0\n 22802: u64 [sp + 0] = 0x11\n 22805: a0 = 0x4\n 22808: a1 = sp\n 22810: u64 [sp + 8] = 0\n 22813: ra = 764, jump @4\n      : @868 [@dyn 382] (gas: 2)\n 22819: a1 = i32 [0x2017c]\n 22824: jump @870 if a1 >u 63\n      : @869 (gas: 2)\n 22828: u32 [0x2017c] = 0x40\n 22834: fallthrough\n      : @870 (gas: 8)\n 22835: a1 = 0x20190\n 22840: i32 a1 = a1 + 0\n 22842: a0 = 0x1\n 22845: a2 = 0x24\n 22848: ecalli 12 // 'seal_return'\n 22850: a0 = 0\n 22852: ra = 0x2fe\n 22856: jump @20\n      : @871 [export #0: 'call'] (gas: 2)\n 22859: a0 = 0\n 22861: ra = 766, jump @20\n      : @872 [@dyn 383] [export #1: 'deploy'] (gas: 2)\n 22867: a0 = 0x1\n 22870: ra = 768, jump @20\n      : @873 [@dyn 384] (gas: 7)\n 22876: a4 = 0x100000000\n 22886: a0 = 0xfffffffc\n 22896: a0 = a1 <u a0\n 22899: a2 = u64 [s1 + 0xd0]\n 22903: a0 = 0 if a2 != 0\n 22905: a0 = 0 if a3 != 0\n 22907: jump [t0]\n      : @874 (gas: 9)\n 22909: a3 = u64 [s1 + 0xc8]\n 22913: a2 = u64 [s1 + 0xd0]\n 22917: a1 = u64 [s1 + 0xd8]\n 22921: a0 = u64 [s1 + 0xc0]\n 22925: a0 = a0 + 0xffffffffffffffdc\n 22928: a0 = a1 <u a0\n 22931: a0 = 0 if a2 != 0\n 22933: a0 = 0 if a3 != 0\n 22935: jump [t0]\n      : @875 (gas: 8)\n 22937: a3 = u64 [s1 + 0xd8]\n 22941: a0 = 0xffffffbc\n 22951: a0 = a3 <u a0\n 22954: a1 = u64 [s1 + 0xd0]\n 22958: a0 = 0 if a1 != 0\n 22960: a1 = u64 [s1 + 0xc8]\n 22964: a0 = 0 if a1 != 0\n 22966: jump [t0]\n      : @876 (gas: 8)\n 22968: a4 = a4 | a2\n 22971: a2 = a0 | a1\n 22974: a2 = a2 | a4\n 22977: a2 = a2 >> 0x20\n 22980: a1 = a1 | a4\n 22983: a1 = a1 << 0x20\n 22986: a1 = a1 | a2\n 22989: jump [t0]\n      : @877 (gas: 14)\n 22991: a0 = u64 [a2 + 0x8]\n 22994: a1 = u64 [a2]\n 22996: a2 = i32 [a2 + 0x10]\n 22999: a0 = reverse a0\n 23001: a3 = a0 >> 0x20\n 23004: a1 = reverse a1\n 23006: a4 = a1 << 0x20\n 23009: a3 = a3 | a4\n 23012: a0 = a0 << 0x20\n 23015: a2 = reverse a2\n 23017: a2 = a2 >> 0x20\n 23020: a0 = a0 | a2\n 23023: a1 = a1 >> 0x20\n 23026: jump [t0]\n      : @878 (gas: 5)\n 23028: a1 = u64 [s1 + 0xd0]\n 23032: a0 = 0 if a1 != 0\n 23034: a1 = u64 [s1 + 0xc8]\n 23038: a0 = 0 if a1 != 0\n 23040: jump [t0]\n      : @879 (gas: 8)\n 23042: a2 = a3 | a4\n 23045: a1 = a0 | a5\n 23048: a1 = a1 | a2\n 23051: a1 = a1 >> 0x20\n 23054: a2 = a2 | a5\n 23057: a2 = a2 << 0x20\n 23060: a1 = a1 | a2\n 23063: jump [t0]\n      : @880 (gas: 8)\n 23065: a0 = a0 | a2\n 23068: a2 = a4 | a1\n 23071: a2 = a2 | a0\n 23074: a2 = a2 >> 0x20\n 23077: a0 = a0 | a1\n 23080: a0 = a0 << 0x20\n 23083: a0 = a0 | a2\n 23086: jump [t0]\n      : @881 (gas: 11)\n 23088: a1 = u64 [s1 + 0x78]\n 23091: a0 = u64 [s1 + 0x68]\n 23094: a3 = u64 [s1 + 0x60]\n 23097: a3 = a3 | a0\n 23100: a4 = 0x100000000\n 23110: a0 = 0xfffffffc\n 23120: a0 = a1 <u a0\n 23123: a2 = u64 [s1 + 0x70]\n 23126: a0 = 0 if a2 != 0\n 23128: a0 = 0 if a3 != 0\n 23130: jump [t0]\n      : @882 (gas: 4)\n 23132: i32 a0 = a1 + 0x4\n 23135: a1 = 0x1058\n 23139: a2 = s1 + a1\n 23142: jump [t0]\n      : @883 (gas: 8)\n 23144: a3 = a3 | a2\n 23147: a2 = a0 | a1\n 23150: a2 = a2 | a3\n 23153: a2 = a2 >> 0x20\n 23156: a1 = a1 | a3\n 23159: a1 = a1 << 0x20\n 23162: a1 = a1 | a2\n 23165: jump [t0]\n      : @884 (gas: 11)\n 23167: a2 = u64 [sp + 0x8]\n 23170: a2 = a2 | s1\n 23173: s1 = 0x100000000\n 23183: a0 = 0xfffffffc\n 23193: a1 = u64 [sp + 0x18]\n 23196: a0 = a1 <u a0\n 23199: a1 = u64 [sp + 0x10]\n 23202: a0 = 0 if a1 != 0\n 23204: u64 [sp + 0x8] = a2\n 23207: a0 = 0 if a2 != 0\n 23209: jump [t0]\n      : @885 (gas: 15)\n 23211: a2 = u64 [sp + 0xb8]\n 23215: s1 = u64 [sp + 0xb0]\n 23219: a0 = u64 [sp + 0xa8]\n 23223: a1 = u64 [sp + 0xa0]\n 23227: u64 [sp + 0x10] = a0\n 23230: u64 [sp + 0x8] = a2\n 23233: a0 = a0 | a2\n 23236: u64 [sp + 0x18] = a1\n 23239: a1 = a1 | s1\n 23242: a1 = a1 | a0\n 23245: a1 = a1 >> 0x20\n 23248: a0 = a0 | s1\n 23251: a0 = a0 << 0x20\n 23254: a0 = a0 | a1\n 23257: jump [t0]\n      : @886 (gas: 14)\n 23259: sp = sp + 0xffffffffffffff20\n 23263: u64 [sp + 0xd8] = ra\n 23267: u64 [sp + 0xd0] = s0\n 23271: u64 [sp + 0xc8] = s1\n 23275: s0 = sp + 0xe0\n 23279: sp = sp & 0xfffffffffffffff0\n 23282: a1 = u64 [a0 + 0x10]\n 23285: a2 = u64 [a0 + 0x18]\n 23288: a3 = u64 [a0 + 0x8]\n 23291: a0 = u64 [a0]\n 23293: a2 = a2 | a3\n 23296: a0 = a0 | a1\n 23299: a0 = a0 | a2\n 23302: jump [t0]\n      : @887 (gas: 8)\n 23304: a2 = u64 [s1 + 0x78]\n 23307: a0 = 0xffffffbc\n 23317: a0 = a2 <u a0\n 23320: a1 = u64 [s1 + 0x70]\n 23323: a0 = 0 if a1 != 0\n 23325: a1 = u64 [s1 + 0x68]\n 23328: a0 = 0 if a1 != 0\n 23330: jump [t0]\n      : @888 (gas: 7)\n 23332: a0 = 0xffffffbc\n 23342: a0 = s1 <u a0\n 23345: a1 = u64 [sp + 0x10]\n 23348: a0 = 0 if a1 != 0\n 23350: a1 = u64 [sp + 0x8]\n 23353: a0 = 0 if a1 != 0\n 23355: jump [t0]\n      : @889 (gas: 9)\n 23357: a3 = u64 [s1 + 0x68]\n 23360: a2 = u64 [s1 + 0x70]\n 23363: a1 = u64 [s1 + 0x78]\n 23366: a0 = u64 [s1 + 0x60]\n 23369: a0 = a0 + 0xffffffffffffffdc\n 23372: a0 = a1 <u a0\n 23375: a0 = 0 if a2 != 0\n 23377: a0 = 0 if a3 != 0\n 23379: jump [t0]\n      : @890 (gas: 9)\n 23381: a4 = u64 [s1 + 0xc8]\n 23385: a3 = u64 [s1 + 0xd0]\n 23389: a1 = u64 [s1 + 0xd8]\n 23393: a0 = u64 [s1 + 0xc0]\n 23397: a0 = a0 + 0xffffffffffffffdc\n 23400: a0 = a1 <u a0\n 23403: a0 = 0 if a3 != 0\n 23405: a0 = 0 if a4 != 0\n 23407: jump [t0]\n      : @891 (gas: 8)\n 23409: a0 = s1 + 0xffffffffffffffdc\n 23412: a1 = u64 [sp + 0x18]\n 23415: a0 = a1 <u a0\n 23418: a1 = u64 [sp + 0x10]\n 23421: a0 = 0 if a1 != 0\n 23423: a1 = u64 [sp + 0x8]\n 23426: a0 = 0 if a1 != 0\n 23428: jump [t0]\n      : @892 (gas: 8)\n 23430: u64 [sp + 144] = 0\n 23434: u64 [sp + 136] = 0\n 23438: u64 [sp + 128] = 0\n 23442: a0 = 0x8c379a000000000\n 23452: a1 = sp + 0x80\n 23456: u64 [sp + 0x98] = a0\n 23460: a0 = u64 [sp + 0x18]\n 23463: jump [t0]\n      : @893 (gas: 9)\n 23465: a0 = u64 [a2 + 0x8]\n 23468: a1 = i32 [a2 + 0x10]\n 23471: a2 = u64 [a2]\n 23473: a0 = reverse a0\n 23475: a3 = a0 << 0x20\n 23478: a1 = reverse a1\n 23480: a1 = a1 >> 0x20\n 23483: a1 = a1 | a3\n 23486: jump [t0]\n      : @894 (gas: 8)\n 23488: a0 = u64 [a4 + 0x58]\n 23491: a1 = u64 [a4 + 0x60]\n 23494: a2 = u64 [a4 + 0x50]\n 23497: a3 = u64 [a4 + 0x48]\n 23500: a1 = a1 | a2\n 23503: a0 = a0 | a3\n 23506: a0 = a0 | a1\n 23509: jump [t0]\n      : @895 (gas: 4)\n 23511: a0 = 0x1858\n 23515: a4 = s1 + a0\n 23518: a5 = a4 + 0x700\n 23522: jump [t0]\n      : @896 (gas: 4)\n 23524: i32 a0 = a1 + 0x24\n 23527: a1 = 0x1058\n 23531: a3 = s1 + a1\n 23534: jump [t0]\n      : @897 (gas: 6)\n 23536: sp = s0 + 0xffffffffffffff20\n 23540: ra = u64 [sp + 0xd8]\n 23544: s0 = u64 [sp + 0xd0]\n 23548: s1 = u64 [sp + 0xc8]\n 23552: sp = sp + 0xe0\n 23556: jump [t0]\n      : @898 (gas: 8)\n 23558: a0 = u64 [a5 + 0xb8]\n 23562: a1 = u64 [a5 + 0xc0]\n 23566: a2 = u64 [a5 + 0xb0]\n 23570: a3 = u64 [a5 + 0xa8]\n 23574: a1 = a1 | a2\n 23577: a0 = a0 | a3\n 23580: a0 = a0 | a1\n 23583: jump [t0]\n      : @899 (gas: 8)\n 23585: a0 = u64 [a5 + 0x18]\n 23588: a1 = u64 [a5 + 0x20]\n 23591: a2 = u64 [a5 + 0x10]\n 23594: a3 = u64 [a5 + 0x8]\n 23597: a1 = a1 | a2\n 23600: a0 = a0 | a3\n 23603: a0 = a0 | a1\n 23606: jump [t0]\n      : @900 (gas: 2)\n 23608: a3 = a2 & 0x40\n 23611: jump @904 if a3 != 0\n      : @901 (gas: 1)\n 23614: jump @903 if a2 == 0\n      : @902 (gas: 6)\n 23617: i32 a3 = 0x40 - a2\n 23620: a3 = a1 << a3\n 23623: a1 = a1 >> a2\n 23626: a0 = a0 >> a2\n 23629: a0 = a0 | a3\n 23632: ret\n      : @903 (gas: 1)\n 23634: ret\n      : @904 (gas: 4)\n 23636: a0 = a2 + 0xffffffffffffffc0\n 23639: a0 = a1 >> a0\n 23642: a1 = 0\n 23644: ret\n      : @905 (gas: 2)\n 23646: a3 = a2 & 0x40\n 23649: jump @909 if a3 != 0\n      : @906 (gas: 1)\n 23652: jump @908 if a2 == 0\n      : @907 (gas: 6)\n 23655: i32 a3 = 0x40 - a2\n 23658: a3 = a0 >> a3\n 23661: a0 = a0 << a2\n 23664: a1 = a1 << a2\n 23667: a1 = a1 | a3\n 23670: ret\n      : @908 (gas: 1)\n 23672: ret\n      : @909 (gas: 4)\n 23674: a1 = a2 + 0xffffffffffffffc0\n 23677: a1 = a0 << a1\n 23680: a0 = 0\n 23682: ret\n","bytecode":{"object":"50564d0000d26d000000000000010700c1b001c000800381780395bb0f26f8921a043e75b7e04ddad4cdaf6da5b9815a74736cc128b8a7519e2064696c61766e496c6177206d616574206f6f7420656546206f6f7420656546206e6920656d614773736572676f7270636572726f636e49207972746e652074726c6120656c69546c65732079646165726c6120656d61476e69662079646165f2257ff5ba6b091974fb8427b138c85f501c9dcae32f2497103805fe130f99f62064696c61766e49000074656c6c6177746f6e20656d614774656c706d6f6320612072656e6e6957642079646165726c656e696d72657465726f6620746961576c62207478656e206e617274206565466961662072656673727420657a6972506620726566736e61f56e33c68c18aef681a5cd813c0d97adc624095402494c4beb13ce4ee9eb4d920395bb0f26f8921a043e75b7e04ddad4cdaf6da5b9815a74736cc128b8a7519e6574616c206f6f5465746564206f7420697720656e696d722064696c61766e49646e6920656c6974656e776f20746f4e04810910000000000a000000160000001a0000002800000036000000440000004a00000057000000620000006f0000007f0000008f0000009a000000ac000000b7000000626c6f636b5f68617368626c6f636b5f6e756d62657263616c6c63616c6c5f646174615f636f707963616c6c5f646174615f6c6f616463616c6c5f646174615f73697a6563616c6c65726465706f7369745f6576656e746765745f73746f726167657265665f74696d655f6c65667472657475726e5f646174615f636f707972657475726e5f646174615f73697a657365616c5f72657475726e7365745f696d6d757461626c655f646174617365745f73746f7261676576616c75655f7472616e73666572726564051302c04b590463616c6cc05359066465706c6f7906c01b6b818002c0845c2b00730176033c044304b9040a053405be05ca05f4052a066106b306bb06f00635075307a207be07db070208160834084d08520879087e089f08a408f9081209300949094e0975097a099b09a009d509e009090a790aa70ac50a010b2f0b5d0bba0be70b2e0c670c8f0ca80cd40c270d330d470da00dbd0ded0d020e0d0e2c0e5b0e640e450f4b0f510f870fa70fc40f1210201052108a109410d510fa1003112f119311a811b411d711dd11e91104120a12aa12b312f8122913f013f91310155b15a915c2155716be1639189518c618e7184519531985198e19bb19d919331a411ac51af61a131b711b7f1b091c441c4e1c961cc61c311d461d7d1d831db21db81da81ee01eea1e2b1f591fbd1fd21fde1f0120072013202e2045209b20a920df201b213c21f6212a224b22b222c022e422022385235124a424ad24e42412251c2544258125b025df253026532649276e277727a0270228ad281a299529d129f2299a2aa32acc2aea2aa02bd82bf52b552c5b2c612c972ccf2cec2c9a2de82d2e2e442f5a2f792f972fac2fd62fdc2ffe2f153073308130b730f330113172317831c431f83119327b329932ad320f3324332e335133573361337c338233d1333d34523487348d34ba34c0343e354b35dd354536e8364b3760376a378d379337b937bf370e3876388b38c238c838f738fd384d39b039c539cf39f239f8391e3a243a6f3ace3ae33a1c3b223b573b5d3bd83b613ccf3cf23c333d983fb03fd23f134063407b409740df4058435f44dd44bf45ea452d465946cf465e478c47d7470a484f488248b54819494d4987499d49be49dc49f1491d4a234a474a5e4aa74abc4add4afb4a554b694b8d4ba44be34bf04b244c664c934ca84cdc4c394dc44d514e7c4e2a4f894fd24f3d514a5189519251b2511852215241529352be52035321535e538b53da53f8533d545b54415577559055b455e85547568156bf56035705570e571d5723572c573257385757575d577c578257b557c057d557db57e457f357f957025808580e582d5833585258585886589158a0580c59235953595c5939088001025108f30d3307b0010383770a0d28e60d9511f07b10087b1564896475330820649750100295047c78017c797c7a027c7b03978808d4980897aa1097bb18d4ba0ad4a8087c79057c7a047c7b067c7c07979908d4a90997bb1097cc18d4cb0bd4b909979920d489027c79097c7a087c7b0a7c7c0b979908d4a90997bb1097cc18d4cb0bd4b9097c7a0d7c7b0c7c7c0e7c780f97aa08d4ba0a97cc10978818d4c808d4a808978820d498037c78117c7a107c7b127c7c13978808d4a80897bb1097cc18d4cb0bd4b8087c7a157c7b147c7c167c791797aa08d4ba0a97cc10979918d4c909d4a909979920d4890a7c78197c79187c7b1a7c7c1b978808d4980897bb1097cc18d4cb0bd4b8087c791d7c7b1c7c7c1e7c771f979908d4b90997cc10977718d4c707d49707977720d487076f776fa86f396f2a7b5a187b59107b58087b57821008821595111032009511d87b10207b15187b161082897b19088289087b198285108286183308205010044d036f686f59821a6faa821b086fbb787b18787a10787908787898bc38787c1f98bc30787c1e98bc28787c1d98bc20787c1c98bc18787c1b98bc10787c1a98bb08787b1998ab38787b1798ab30787b1698ab28787b1598ab20787b1498ab18787b1398ab10787b1298aa08787a11989a38787a0f989a30787a0e989a28787a0d989a20787a0c989a18787a0b989a10787a0a98990878790998893878790798893078790698892878790598892078790498891878790398891078790298880878780182102082151882161095112832009511a07b10587b15507b16489515608411e06476828718828910828a0882886f776f996faa6f887b18187b1a107b19087b17491138491130491128491120481140208318831a20831b403309ff33070a08821738821830821928821a206f776f886f996faa7b6a187b69107b68087b679551a082105882155082164895116032009511a07b10587b15509515608411e08272827a08827b108277188283828908828c108288186f746fbb6faa6f276f826fcc6f996f387b17187b1a107b1b087b147b18387b19307b1c287b12208318831a203309ff330b2033070a0e9551a08210588215509511603200951160ff7b1098007b1590007b1688009515a0008411e082ab7b1b3882ab087b1b3082ab107b1b2882aa187b1a20829a7b1a18829a087b1a10829a107b1a088299187b1964865010064a0182186f888219086f99821a106faa821b186fbb7b1b587b1a507b19487b18408218206f888219286f99821a306faa821b386fbb7b1b787b1a707b19687b18608379836a8317403308020a07955160ff8210980082159000821688009511a0003200951120ff7b10d8007b15d0007b16c8009515e0008411e082bc7b1c4082bc087b1c4882bc107b1c5082bb187b1b5833020882ab7b1b1882ab087b1b2082ab107b1b2882aa187b1a308296829a087b1a829a107b1a088299187b19104911382033000a2882007b183850100a7c6f687b187882186f887b18708218086f887b18688218106f887b18608218186f887b1898008218206f887b1890008218286f887b1888008218306f887b1880008218406f887b18b8008218486f887b18b0008218506f887b18a8008218586f887b18a0008379811a388317603308030a0750120c3c5732008b7910520931c8780883881f8488e056380000012533097c0102390a7c0102ae8a093d087c01020133089001028377c887073200009511f07b10087b158475010a05013d0778010251050750100e2e330010951110fe7b10e8017b15e0017b16d8019515f001951130dd8411e0641633027e9569581028dc089511e0f8951700077b70187b75107b7608951520078411e0641649261804492610044926080449260004836700040a0f01956b000482b71082b81882b90882bad49808d4a707d487075207cf0739077801027b677897772098772095771f8477e095788000d87807956900037b98e0007b97e80094777b97f0003307409568e0034926f80350101296fb33078000826878501014f6fe837782687833090a030182687854185f85079517e08477e07b677864719567c0033308800050101626fa8267d0038268d8038269c003826ac803826b787bb7107bb8187bb97bba089517e08477e07b677064719567a0033308a000501018f0f98267b0038268b803826aa0038269a8037b6750826b707bb7107b68487bb8187b6a387bba7b69407bb908956780033308c00050101ab9f9826890038269980314070000000001000000d38707d497077b68689888208888017b6930949893785108e306826788037b6760826780037b675833079001037b6728837733001c0a0682692833021e28f95482692850121ef3547b68289877206f98978920d497077b67209888207b68184926380449263004492628044926200417956760039568200450102056fb8067740397772082687803826918d4970749265804492650044926480449264004177b6878048268207b6868048268287b6860047b677004956740049568600450102292fb49269804492690044926880449268004189567400395688004501024f3fa8067540382685803977720826968d49707826930d498084926b8044926b0044926a804956a0004492aa000188269607ba9c8008269587ba9c0007ba8d8007ba7d0009567a0049568c00450102625fb4926f8044926f0044926e8044926e0049567e00482687850102809fb49261805492610054926080549260005019567000582687050102aecfa8267388877d1078268409487826850826948d4980894875207e2009567000133084050102c18f895680001828b18828c10828a08828750122ef151520835054926f0004926e8004926e000330230140900000000a079c308019568e0007b69f8007b67787b6a707b6b687b6c6050103207f9501234e3515107f9048387044926d8004926d0004926c000209568c0004926c8007b6a687b6b60501036dbf8501238c4525107cd048387244926b8004926b0004926a0000c9568a0004926a80050103ab5f850123c69525107a7048397443a08300002492688007b689800140800000000686769687b6890009568800049268000330050287ef8826768977720987720826860826958d49808d48707520702019567a00133084050103e21f795680001828bb800828cb000828aa8008287a000501240f55052083904492690014926880149268001330242140900000000a079c30801956880017b6998017b67787b6a707b6b687b6c605010440bf8501246e7505107fd038387044926780149267001492660012095686001492668017b6a687b6b60501048dff750124ac8515107d10383872449265801492650014926400113956840014926480150104cb9f750124e6d515107ab038397443a082000023a09280002956a00017ba8387ba9301408000000000074656c7ba82895682001492620015010507ff7330864826778501052e0fa83783307013309640a0c01492638054926300549262805492620051395672003956820055010543df895690003829720829a38829828829b30957701887901c89808d48709889901c8b909d8b90bc8ba0ad4a80bd4970cd4cb0b510b4103140b00000000ffffffff7b6b5049265805492650054926480549264005137b6760057b6868057b6970057b6a780595674005956860055010564ef849269805492690054926880549268005124926b8054926b0054926a8054926a005956780059568a00550105820f84926d8054926d0054926c8054926c00516956700039568c00550105a81f782671003826818039877289777284926f8054926f0054926e8054926e0051649260806492600067b6818067b6710069567e0059568000650105cc6f7492638064926300649262806492620061549265806492650064926480649264006956720069568400650105e98f749267806492670064926680649266006144926980649269006492688064926800695676006956880065010606af73309330a3302330b0188971094a7d4b20894875107a0009517e08478e07b68586481959702d8970c7b6970c8ca097b6a78826a78d8a90adacc0ac82a0ad82a0cc8bc0c7b89087b877b8a107b8c189567e0027b6b687b62605010628cf68267f0028268f802826950d297078488ff4926a8064926a0067b68b8067b67b0069568a006826758501064e0f6826b68826a78826970959901889701c87a0ad4a907887701826860c88707d88708c88b0b64722859ff4926d8064926d0064926c8064926c006139567c0029568c00650106618f68267d8027b67608267d0027b67688267c8027b67708267c0027b67784926f8064926f0064926e8064926e0069567a0029568e006501068dff58267b8027b67588267b0027b67508267a8027b67488267a0027b67409567800233084050106a8bf3956b000282ba980082b8900082b9880082b7800050126cc54d5208a3008268407b6860028268487b6868028268507b687002956860028269587b6978027b675850106e80f48267607b6738028267687b6730028267707b6728023a070000023a080800023a09100002826a787b6a20027b6758027b6850027b6948023a0718000233082095694002956a20027b67400282675850107009f695670002330840501072e7f2956b000282ba1882b81082b90882b7501274264d51089e00003308900102838833070133090a0c28213308900102838833070133090a0c28113308900102838833070133090a0c014926f0014926e8014926e001140700000000717b484e9568e0017b67f8013307501076b4f34926d8014926d0014926c001113307049568c0014926c80150107897f339087c010256183f0b20037c01024001330890010283883307013309240a0c7b677833007a28d9f67b677850107ad3f68377330833090a03280bf2826778330850107cbef68378330733090a0c2871ff492940074929380749292807800033074095688017492930075020800029f333077801027b67d800390778010255170407282442956700108377a0073308330082000a0433028400956a5810280b33028400956a58100181a7640752475bcba58d0a28db225247dde7f7950a28b51d956b582095695818524708ed93970a28a1145147262618aa65015247ec6d0ab70a28540f5147cab936c39c035247ae53bfdf0a287d1b5147ec7e77ea740a5147c0004013fa055247936db1330a28601e51478fccd251480b5247dc3d6a530a2879215247447092590a289f1252478cc9b95f0a28431c52473ee79c710a282d1a5147af7fbe716f085247f9209c780a2871115147bb32b37c440c5147f1d61a7f0a286d134929200749291807492910074929080795670020837760ff330086000a0f3302880028954c50228800924c50228a00d64c51070628f13d8267d80081775617030728f13d492b4007492b3807492b3007492b2807169567ff07957781069568801f50208c00c0f29567ff07957759827728067b67d8009567ff079577610633084050208e0074f0956aff0795aa5995ac000682cb2082c81882c91082c70850229000fa4951080628d8227c68d8008e88492a0006492af8057ba8e8059568ff0795884106492af0057b67d80033008c02285ff1492bc001492bb801492bb001492ba8019567002083770002330092000a0f01956b582095bc000150229400ec4b510706283c3d8267d800817756172307283c3d492be001492bd801492bd001492bc801179567c0149568202250209600f5f195675810827870047b68d800827868047b68d000807778047b67c80033079001037b67c0008377330098000a068269c00033029a002848498269c00050229a0041498269c800d398088269d000d39707d487078268d800d3a808d487078877019568581049286004492858047b8748049567a0144928500433009c003302de0228094a95675820492700024927f8014927f00164784928e80112956780149568402250209e004df13302a000956a58100195ab000482b73882b84082b93082ba28d49808d4a707d48707520706285a3c956760143308405020a200ecee956b581082b2200495b80004828c18828a10828708d42a09d4c708d49808988820d4c909979920d49808510806284321492bf803492bf003492be8037b6ad000140a00000000a079c308956840147bba00047b67d8007b62c8007b6cc0005020a400c2ef8268d8008267c800826ac000d47a0a5022a600ba4752070628f4205022a800ae484929e0034929d8034929c80320956820144929d0037b6ac8007b6bc0005020aa007eef5022ac00a64752070628bf205022ae00014a492ac003492ab803492aa8031095680014492ab0035020b00051ef5022b200954752070628922083a7443a084000023a09480002956b58107bb8a003492b90037bb998039568e013492b8803330070022816ef492b0003492bf802492bf002492be80295670020837740030a0f01956b582095bc000282c7f80082b8000382c9f00082cae800d49808d4a707d4870751070628553b8267d80081775617030728553b492b2003492b1803492b1003492b0803129567a016956860235020b4009def3302b600956a58100195ab000682b76082b85082b94882ba58d48707859810d4a808d4870751070628841f95685820492840034928380349283003492828031695678016956880235020b8004fef956758107c77280651070628531f956858204928600349285803492850034928480315956760169568a0235020ba001eef95675810957900068298087b68d0008298107b68c8008298187b68d8008297207b67c000956700208377c0030a0101956458209549000382978000829868829c7082427803826ac000d3a709d87a038267c800d37c0ad8c70c85cb018267d000d88708858701dbab07853001dbac08826bd800d82b0a85ac01db900cd3b20bdb930ad4b909db9c07db9a089519e08499e064914919184919104919087b69d8007b9851070628a01e4924a00349249803492490034924880315956740169568e0235020bc0057ee3302be009568581001958b000582b9f00082bae8008287000682b8f800959b0188ac01ff85cc0194bcd2780b95bb0194bc510c0628c83d95abff007b6bc800d8ab0ac8a90b7b6bb800d89b09daaa09c889097b69d000d88908c887077b67c00095670020837700040a01956b582082b7a80382b8b00382b9c003826ac800d87a07826cb800d3c80ad88c0882bbb803daa708826ac000d3a907d89a09826cd000d8bc0ada7a09d3cb0ad4a707db79088587018268d8007b8749181849181049180828bd1d492ac007492ab807492ab007492aa80795670020837700f80a0f01956a581095ab000782b7b80082b8c00082b9b00082baa800d49808d4a707d4870751070628f7388267d80081775617030728f738956760023308405020c0000beb956c000282c8787b68d00082c9707b69c80082ca687b6ac00082cb607b6bb800492638024926300249262802491c2000027bc8587bc9507bca4895674002956820027bcb405020c200253f8269b8008267d0008268c000d48707826ac800d4a908d47808988820d4a707977720d48707510706281c1d8267d80081777b67d8001407ffffffff000000007b67683308000264975020c40018ef8377330800028269d8000a03956700023308405020c60059ea956800028287187b67608287107b675882600802828b9517e08478e0648133024926b800330a3304330333094918184918104918084908027b6b407b6bd00064077b67507b67c800826b587b6bd800330002826b607b6bc000330b7b68480188471094377b69b000d4b909949752070628d01e7b6b98007b63a0007b64a800956740017b6290007b6a88007b6080005020c800f0eb8269d8008267d000d4970a8268c000826bc800d4b808d48a0a98aa20d49808978820d4a80851080628201c7b6bc800956c000182cb5082c8487b69d80082c940826a68d2ab0b8488ff8499ff492638017bc9207bc828956820017bcb307b67d0005020ca0097ea8268d0009587207b6778d887098268c800c898077b6770d8870ada990a8267d800c8a709d8790a8267c000c8a7077b67c00082608000950001880a0182629000c8a202d4200a88aa018267b800c8a708d8780b826a8800c8ba0a8264a800954401884b018263a000c8b303d4340b88bb01826cb000c8bc07d8c70c826b9800c8cb0b826c487bc2087bc07bc8107bca187b68b8008268787b68d0008268707b68c8007b69d800647964c828b9fe4929c0054929b8054929b0054929a80595670020837700fe0a0f01956a581895ab000582b7b80082b8c00082b9b00082baa800d49808d4a707d48707510706285a368267d800817756172307285a3695670020837720fe3308040a049567581895780005828ae000828bd800828cd0008289c8008ea78eb8dba7088ec27b69c000889910859701dbc2077b6ad8007b6bd000d4ba0adba8077b67b8007b6cc80094c994a99568ff0795885949288004492878047b8968049567ff079577c104492870043300cc003302c20228a5428267b80051070628de358268c000958702d88708826ac800c88a09d8a90ada880a8268d000c88a0ad88a08826bd800c8b808956b581895bc00057bc7e8007bc9f0007bcaf8007bb800069567ff07957761049568401e5020ce00b2e99568ff07958859958900048297187b67c8008297107b67d8008297087b67d0009567ff07957741043308405020d00055e7956bff0795bb5982ba000495bc000382c8f80082c9f00082c7e8005022d200874151080628b5198268c800978820988a20492be0038268d00095b900037b98c8008268d8007b98d0009568ff07958821047b9ad8007b67d80033008c02282ce8492b2004492b1804492b1004492b080495670020837760043300d4000a0f01956b582095bc00045022d600d4425107062845358267d800817756170307284535492b4004492b3804492b3004492b28040195676017956880245020d800c2e83302da009568581001958900078297207b67d8008297187b67d0008297107b67c8008297087b67c000956740173308405020dc0060e6956a581082a7000795ac000682c8f80082c9f00082cbe8005022de00464051070628c3188267c00095a900067b97c8008267c8007b97d0008267d0007b97d800956820178267d8007b97e00064b77b6bd80033008c02283ee749296004492958044929500449294804956700208377a0fc3300e0000a0f01956a581895ab00045022e20085415107062871348267d800817756172307287134956700208377c0fc3308040a04019567581882728004957b000482b87882ba6882b970d4280b88ac10949c94bc520c06284b3495ab02d8ab0ac8a90cd89c09daaa09c88909d88908c82808957a00047bab88007bac90007ba998007ba8a0009567ff07957781029568e01c5020e40082e79568ff07958859958900028297387b67c8008297307b67d8008297287b67d0009567ff07957761023308405020e60025e5956aff0795aa5995ac000282cb2082c81882c91082c7085022e800ab3e5108062889178268c800978820988920492a00028268d00095ab00017bb8e8008268d8007bb8f0009568ff07958841027bb9f8007b67d80033008c022800e649296006492958064929500649294806956700208377a0fe3300ea000a0f01956a581895ab00065022ec004740510706285a338267d800817756172307285a33956700208377c0fe3308040a04019569581882987806829a800614070000000001000000d38707d4a7077b68d8009888208888017b6ad00094a89378520806282533959800068287707b67c0008287687b67c8004929a006492998064929900649288800179567ff07957721069568e01e5020ee003ee69567ff079577598278d0057b68b8008278c8057b68b0008077d8057b67a80033079001037b67a00083773300f0000a068269a0003302f200288e3d8269a0005022f200873d8269a800d398088269b000d39707d487078268b800d3a808d487078877019568ff079588594928c0054928b8057b87a8059567ff07957701064928b0053300f4003302de0228483e8267d8008268c800d487078268d0008269c000d49808d487075107062851329567ff079577c1053308405020f60055e3956bff0795bb5982b2800595b80005828c78828a70828768d42a09d4c708d49808988820d4c909979920d4980851080628a915492b5805492b5005492b48057b6ad000140a00000000a079c3089568ff079588a1057bba60057b67d8007b62c8007b6cc0005020f80024e48268d8008267c800826ac000d47a0a5022fa001c3c5207062856158387049569ff07959959492940054929380549292805209568ff0795888105492930057b6ac8007b6bc0005020fc00d8e35022fe00003c520706281915838724956aff0795aa59492a2005492a1805492a08050e9568ff0795886105492a100550200001a3e350220201e73b52070628e41483a7443a08a000023a09a80002956bff0795bb597bb80005492bf0047bb9f8049568ff0795884105492be804330070022861e3492b8002492b7802492b7002492b6802956700208377c0020a0f01956a582095ab000282b77882b8800082b97082ba68d49808d4a707d487075107062868318267d8008177561723072868319517e08477e07b67d8006471956700208377e0023308040a04956858208289a0027b69c800828a98027b6ac000828790027b67d000828b88027b6bb800826cd8007bc9187bca107bc7087bcb4928c0024928b8024928b0024928a802179567a01595680023502004019fe395675810827850057b68b000827848057b68a800807758057b67a00033079001037b6798008377330006010a06826998003302080128f23a8269980050220801eb3a8269a000d398088269a800d39707d487078268b000d3a808d487078877019568581049284005492838057b872805956780154928300533000a013302de0228b33b8267c8008268c000d487078268b8008888d1078269d000949894785108062866309567601533084050200c01c2e0956b581082b2200595b80005828c18828a10828708d42a09d4c708d49808988820d4c909979920d49808510806281913492bf804492bf004492be8047b6ad000140a00000000a079c308956840157bba00057b67d8007b62c8007b6cc00050200e0198e18268d8008267c800826ac000d47a0a50221001903952070628ca1250221201843a4929e0044929d8044929c80420956820154929d0047b6ac8007b6bc0005020140154e1502216017c3952070628951250221801d73b492ac004492ab804492aa8040c95680015492ab00450201a0127e18269d8001407bcffffff00000000d8790750221c01b5395207062857128397443a08380002956a5810492a90047ba8a004140800000000686769687ba898049568e014492a88043300700228d6e04929200649291806492910064929080695670020837760fe33001e010a0f01956b581895bc0006502220017e3b51070628322f8267d80081775617030728322f492b4006492b3806492b3006492b2806129567ff07957721059568801e5020220168e19568ff07958859958900048297e0007b67d8008297d8007b67c8008297d0007b67d0008297c8007b67c0009567ff07957701053308405020240100df956aff0795aa5995ac000482cbc00082c8b80082c9b00082c7a8005022260182385108062860118268c0008588108269c800d489098268d800826bd000d4b808d49808888801492aa004492a98047ba888049568ff079588e104492a90047b67d80033008c0228cedf492900054929f8044929f0044929e80495670020837740fd0a0f01956b581895bc000482c7f80082b8000582c9f00082cae800d49808d4a707d4870751070628352e8267d80081775617030728342e492b2005492b1805492b1005492b0805189567ff07957741039568601d5020280151e09568ff07958859958900028297f8007b67c8008297f0007b67d8008297e8007b67d0009567ff079577210333084050202a01f1dd956aff0795aa5995ac000282cbe00082c8d80082c9d00082c7c80050222c0173375108062851108268c800978820988920492ac0028268d00095ab00027bb8a8008268d8007bb8b0009568ff07958801037bb9b8007b67d80033008c0228c8de5147a8edc47f0a287f2d49296007492958074929500749294807956700208377a033002e010a0f01956a581895ab000750223001063951070628c62d8267d80081775617030728c02d9567ff079577c1063308405020320137dd956aff0795aa5995ac000682cb800082c87882c97082c76850223401bc36510806289a0f492a6006492a5806492a4806109568ff079588a106492a50067b67d80033008c022826de8267d80081775617230728612d956700208377403308040a049568582082877b67d800958900ff8297f8007b67d0008297f0007b67c8008297e8007b67c0004918204918184918104918089567c0139568602050203601c2de95675810957900038298687b68b8008298787b68b0008298707b68a800829780007b67a0009567582049174049173849173049172895670020837780000a0f01956a582082a74082a83082a92882aa38826ba000d3b707826ba800d3b808d487078268b000d3a808826ab800d3a909d49808d487075207a60e826cc8008ec78268c000888810858901dbc709826bd0008eb2826ad8008ea7daa207d4ba0adaa9077b67b80094c894a8956958104929c0024929b8027b98a802956700134929b002330038013302c202288d368267b80051070628052d9517e08478e064818269c000959702d8970b826ac800c8ba09d8a90adabb0a826bd000c8ba0ad8ba0c826bd800c8cb0b7b89087b877b8a107b8b189567a0127b68b80050203a01a3dd33023c019569581001809758028298480282995002d48707d4970751070628191295685820491860491858491850491848169567e0119568a02050203e0163dd956758107c77880151070628511433079001037b67a80083777b678800330040010a068269a80033024201289a368269a8005022420193367b68b0009877206f98978920d497077b67a0009888207b689800956720118268b8005020440103dd956858108087dc008288e00097772082699800d49707956958207b9880008268a0007b98708268b0007b98687b97789568c0208267b8005020460147dd9517e08477e07b67b8006471956758204927a00049279800492790004927880012956700119568e0205020480197dc956b581082b9a80082b7b00082b8b80082bac0007bba80007bb8787bb7709567e0109568c0107bb96850204a01c73295695810829798008298a000829a8800829990007b678000826bb8007bb7107b68787bb8187b6a687bba7b69707bb90864b8956758204927c0004927b8004927b0004927a800129567002150204c0198dc956858204928e0004928d8004928d0004928c800149567a0109568202150204e01f4db956858108287607b6798008287587b67b8008287487b6790008287507b67b0009517e08477e07b67a000647195675820492700014927f8004927f0004927e80095670020837740010a0f01956758208279f0008278e80082720001827bf800826cb000c89c0c82679000c87800d88008c88c0cd39c0ad89c09daa8098268b800c8b80882639800c83202d8b80ac82a0ac88909d88908c88a04826ab000d3ca08d8ac0bd87007db8b07826ab800d8a902d3430bd83408dab208d39a0ad4ba0adba8078268a0007b807b8c087b89107b84189569582051070628352b492920014929180149291001492908011495676021502050017fdb9567582049274001492738014927300164784928280113956780109568802150205201d9da3302540195685810018287407b6798008287387b67a0008287307b67b0008287287b67b80095676010330840502056017bd8956b581082b72082b81882b91082ba08d49707d48a09d47909989920d48707977720d497075207da0a9568ff079588598267c000958900077b97e8008267c8007b97f0008267d0007b97f800956840108267d8007bb764a77b6ad8005020580153d9826788000a068269a80082970881981082996f7a97a7206f88988820d4780298aa206f99979820d4a8039899209568ff079588594928a007826798007b87c0078267a0007b87b8078267b0007b87b0078267b8007b87a8073a0a8000023a0b8800023a0c9000023a079800027b8ae007958a00077babd8007bacd0007ba7c8007ba998007b839007648733082095692010956a0010956bff0795bbe1077b7288078267d80050205a0130db82676885771082688000d48707826878826970d49808d48707520754956700208377a0010a01956c582082c7480182c8500182c9580182ca6001492c8001492c7801492c7001492c68011595cb00017bbaa0007bb998007bb890007bb788009567c0219568e02150205c01aed9330890010283883307285b2749298005492978054929700549296805956700208377c0fd0a0f01956b581895bc000582c77882c8800082c97082ca68d49808d4a707d48707510706283c278267d800817756170307283627492ba005492b9805492b9005492b8805149567ff07957701049568e01d50205e01b2d89568ff07958859958900038297c0007b67d8008297b8007b67d0008297b0007b67c8008297a8007b67c0009567ff079577e103330840502060014ad6956aff0795aa5995ac000382c7a00082c8980082c9900082cb8800502262012d305207ad088267c00095a900037b97688267c8007b97708267d0007b97789568ff079588c1038267d8007b97800064b77b6bd80033008c022826d7492be003492bd803492bd003492bc80395670020837720040a0f01956b582095bc000382c7d80082c8e00082c9d00082cac800d49808d4a707d487075107062841268267d800817756170307283b26492b0004492bf803492bf003492be80316956700179568402450206401add7330266019568581001958900068297b8007b67d8008297b0007b67d0008297a8007b67c8009567e016330840502068014fd5956a581095ac000682cba00082c8980082c9900082c7880050226a01d42e5208b5078269d000989b08826cd80097c838d48b0b8268c800988808979938d4980897c918989920492a800695ac00067bc8687bc9789568c0167bcb707b67d80033008c022820d64929400549293805492930054929280595670020837780fd0a0f01956b581895bc000582c73882c84082c93082ca28d49808d4a707d48707510706284d258267d800817756170307284725492b6005492b5805492b5005492b4805129567ff079577a1039568a01d50206c01a7d69568ff07958859958900038297607b67d8008297587b67d0008297507b67c8008297487b67c0009567ff079577810333084050206e0143d4956aff0795aa5995ac000382c74082c83882c93082cb28502270012a2e5207aa068267c00095a900037b97088267c8007b97108267d0007b97189568ff07958861038267d8007b972064b77b6bd80033008c022824d5956758184927c0074927b8074927b0074927a807956700208377330072010a0f3302740128852f50227401822f50227601ab2f5107062864248267d800817756170307285e24492be007492bd807492bd007492bc807159567ff07957781079568202050207801b0d59568ff07958859958900078297407b67d8008297387b67d0008297307b67c8008297287b67c0009567ff079577610733084050207a014cd3956aff0795aa5995ac000782c72082c81882c91082cb0850227c01332d5207b3058267c00095a800067b87e8008267c8007b87f0008267d0007b87f8009568ff07958841078267d8007ba7000764b77b6bd80033008c022829d4492ae007492ad807492ad007492ac80795670020837720f80a0f01956a581095ab000782b7d80082b8e00082b9d00082bac800d49808d4a707d48707510706286e238267d8008177956958185617030728642349094919f84919f04919e8129567ff07957721029568401850207e01add4956aff0795aa5995ab000182b7e00082b8d00082b9c80082bad800d48707859810d4a808d487075207ff0595685818491820491818491810491808169567ff079577610195686018502080015fd49569ff07959959829708018477ff005207060a829720017b67b800829718017b67b00095685818491840491838491830491828159567ff079577a100956880185020820119d49568ff079588598287607b67d8008287587b67d0008287507b67c8008287487b67c000956700208377a0f80a01018263c000826cc8008262d80095695818829750829848829458829a60d3c70bd87c07d88308dbb708d32a07d8a209826ad000d84a0bdb790bd3a409d49707db7b085108c10b95c701883801ff8588019478d22a0795770194785108062825249537ff007b67a000d83707c87c087b689000d8c808da7708c8a8087b68a800d8a807c827077b679800956700208377c0f80a010195625818642c82c76882c87082c98000826aa000d87a07826b9000d3b80ad88b0882cb78daa708826a9800d3a907d89a09826ca800d8bc0ada7a09d3cb0ad4a707db79085108b20c9567400333084050208401d7d095680003828b58828c50828a4882874050228601ae2a5208450349263003492628034926200333028801140900000000a079c30801956820037b6938037b67d8007b6ad0007b6bc8007b6cc00050208a01bed18268d8008267c800826ac000d47a0a50228c01b6295107f3028387044926180349261003492600032095680003492608037b6ac8007b6bc00050208e017fd150229001a7295107c3028387244926f8024926f0024926e0021c9568e0024926e8025020920157d18269d8001407bcffffff00000000d8790750229401e52951078a028397443a084801023a095001023a0a580102956b00027bb8d8007bb9d0007bbac80014090000000072656e6e9568c0027bb9c0003300700228fed04929c0044929b8044929b0044929a80495670020837700fd330096010a0f01956b581895bc0004502298018b2b5107062860208267d800817756170307285a20492be004492bd804492bd004492bc804139567ff079577e1029568201d50209a0190d19568ff07958859958900028297a0007b67d800829798007b67d000829790007b67c800829788007b67c0009567ff079577c10233084050209c0128cf956aff0795aa5995ac000282c7800082c87882c97082cb6850229e010e2952078e018267c00095a900027b97488267c8007b97508267d0007b97589568ff079588a1028267d8007b976064b77b6bd80033008c022808d09567581849278007492778074927700749276807956700208377c03300a0010a0f3302a20128682a5022a201652a82c77882c8800082c97082ca68d49808d4a707d4870751070628621f8267d800817756170307285d1f492ba007492b9807492b9007492b8807179567ff07957721079568e01f5020a40183d09568ff07958859958900068297d8007b67c8008297d0007b67d8008297c8007b67d0009567ff07957701073308405020a60123ce956aff0795aa5995ac000682cbc00082c8b80082c9b00082c7a8005022a801a527520886008268c800978820988920492aa0068268d00095ab00067bb888008268d8007bb890009568ff079588e1067bb998007b67d80033008c0228fcce9517e08477e064714917184917104917087b67d800490701956720163308405020aa01a0cd956a581095ac000582cbe00082c8d80082c9d00082c7c8005022ac01252752080628671e009567a0133308405020ae016ecd95695810018292600395980003828c58828b50828748d42b0ad4c708d4a808988820d4ca0a97aa20d4a8085208c7492938034929300349292803140a00000000a079c308956880137b9a40037b67d8007b6bd0007b62c0007b6cc8005020b00146ce8268d8008267c800826ac000d47a0a5022b2013e2651077bff5022b40134274929200349291803492908032095686013492910037b6ac8007b6bc0005020b60104ce5022b8012c26510748ff5022ba018928492a0003492af802492ae8021395684013492af0025020bc01d9cd5022be011d2651071dff83a7443a085000023a09580002956b581095ba00027ba8e0007ba9d800140800000000006565667ba8d00095682013492bc802330070022892cd9567ff07957701023308405020c0014acc956bff0795bb5982b2c00195b80001828cb800828ab0008287a800d42a09d4c708d49808988820d4c909979920d4980852089efe492b9801492b9001492b88017b6ad000140a00000000a079c3089568ff079588e1017bbaa0017b67d8007b62c8007b6cc0005020c20118cd8268d8008267c800826ac000d47a0a5022c401102551074dfe8387049569ff07959959492980014929780149296801209568ff079588c101492970017b6ac8007b6bc0005020c601cecc5022c801f624510712fe838724956aff0795aa59492a6001492a5801492a4801119568ff079588a101492a50015020ca019bcc5022cc01df245107dffd83a7443a08b000023a09b80002956bff0795bb5995ba00017ba8407ba938140800000000000000657ba8309568ff0795888101492b2801330070022850cc4926d8014926d0014926c8014926c00100028267407b67e0018267507b67e8018267587b67f0019567e0019568c0018269607b69f8015020ce01421f9567a0013308405020d001d0ca826a4095680001828bb8008262b0018289a8008287a000330c330033037b6790007b67d0007b69787b69c8007b628800642433027b6b80007b6bd8000188c71094077b62b800d42308948751071006826958d49a0782686064ab826a50d4a808d48707987720d49808978820d487075207e5fc7b63a0007b60a8007b6cb000956780017b6b4064b87b64c0005020d2013eca826bc0008267d000d4b709826ad800826cc800d4ac08d48909989920d4b808978820d4980852089dfc7b6cc800956b000182bc900082b8880082b980007b6ad800826a68d2ac0c8488ff8499ff492678017bb9607bb868956860017bbc707b67d0005020d40110cb8268d0009587207b679800d887098267c800c89703d8730ada990a8267c000c8a704d8740a8267d800c8a7077b67d800826740957a20d87a0b826750c8b709d87907dabb07826858c88707d8870b826860c8b8087b6860826cb00095cc0188cb018260a800c8b000d40c0b88bb018268a000c88b0bd88b088262b800c88202826898007b68d0007b63c8007b69507b675864b328b0fe956780123308405020d60133c995695810018292400295980002828c38828b30828728d42b0ad4c708d4a808988820d4ca0a97aa20d4a80852088cfb492918024929100249290802140a00000000a079c308956860127b9a20027b67d8007b6bd0007b62c0007b6cc8005020d8010aca8268d8008267c800826ac000d47a0a5022da01022251073ffb5022dc01f822492900024929f8014929e80120956840124929f0017b6ac8007b6bc0005020de01c8c95022e001c82351070cfb838724956958104929e0014929d8014929c80115956820124929d0015020e2019cc95022e401e0215107e0fa83a7443a086000023a09680002956b581095ba00017ba8c0007ba9b800140800000064657463657ba8b00095680012492ba801330070022855c99567ff07957741013308405020e6010dc89569ff0795995982920001829cf800829bf0008297e800d42b0ad4c708d4a808988820d4ca0a97aa20d4a808520865fa4929d8004929d0004929c800140a00000000a079c3089568ff07958821017b9ae0007b67d8007b6bd0007b62c0007b6cc8005020e801dfc88268d8008267c800826ac000d47a0a5022ea01d720510714fa8387049569ff07959959330c4929c0004929b8004929a800209568ff07958801014929b0007b6ac8007b6bc0005020ec0193c85022ee01bb205107d7f9838724956aff0795aa59492aa000492a9800492a9000330b199568ff079588e1007bab88005020f0015ec85022f201a2205107a2f983a7443a08c000023a09c800023a0ad00002956bff0795bb597bb880007bb9787bba70140900000000000000649568ff079588c1007bb968330070022812c89567c0113308405020f401cec695695810018292800195980001828c78828b70828768d42b0ad4c708d4a808988820d4ca0a97aa20d4a808520827f9492958014929500149294801140a00000000a079c3089568a0117b9a60017b67d8007b6bd0007b62c0007b6cc8005020f601a5c78268d8008267c800826ac000d47a0a5022f8019d1f5107daf85022fa0193204929400149293801492928012095688011492930017b6ac8007b6bc0005020fc0163c75022fe0163215107a7f8838724956958104929200149291801492908011595686011492910015020000237c7502202027b1f51077bf883a7443a087000023a09780002956b58107bb800017bb9f800140800000064656873697bb8f00095684011492be8003300700228f4c69567ff079577810033084050200402acc5956bff0795bb5982b24082bc3882ba3082b728d42a09d4c708d49808988820d4c909979920d49808520808f8491b18491b10491b087b6ad000140a00000000a079c3089568ff079588617bba207b67d8007b62c8007b6cc0005020060287c68268d8008267c800826ac000d47a0a502208027f1e5107bcf78387049568ff0795885949084918f895690010492940f8209568ff0795884195690010492948f87b6ac8007b6bc00050200a0239c650220c02611e51077df783872495680010492838f895680010492830f895690010492920f8139568ff0795882195690010492928f850200e02fec550221002421e510742f783a7443a08d800023a09e00002956a00107ba818f8956800107b8910f8140800000000006b636f956900107b9808f89568ff0795880195690010492900f83300700228acc582679000826a8800d4a70982688000826b78d4b808d48909989920d4a808978820d498085208d5f63308000250201202e9c883783309000233070a0c287b158267c0009577018878018269c800c89808d48709889901826ad000c8a909d8a90a826bd800c8ba0a642b7bb7a8007bb8b0007bb9b8007bbac00095670020837700f9956800208388e0f80a956958187c97a70084770f957802d878074929e0007b98c8007b97d00094777b97d8009567e0079568201950201402e6c58267e0078268e8078269f007987a38978b08d4ba0a988838979908d498089777089788189888188269b000989928979928d49808957701956b5818492b0001492bf800492bf000492be800168269b80095bc00017bc9207bca107bc7087bc818956740199568601950201602f9c59568581849284001492838014928300149282801149567c007956880195020180255c58267d8077b67308267d0077b67288267c8077b67388267c0077b675895675818492760014927580149275001647849284801019567a0079568a01950201a0214c58264a007956800078287b8007b67d800828ab000828ca800826058d64008826738ca4709c89808d89809d6470bc89b03cac00bc8b8087b6820d8b808d6c00bc8b808c88302cac709c829087b68d000d8980bd83208d6c709c89808c8b8087b68c800caa7088269d800ca0909c898087b68c0008262287b6cb000ca2c09826b30ca4b0cc89c0cca0a09ca4203c839097b6ab800d60a0a7b6aa0008268c000c88a0ad642087b68c000c8c808d8390c7b68a800c8a808c8c803d4b70cd42008d4c8088267d000c89702d8720b8267c800c87303c8b3037b63487b624051089300d37308826948d87909db890b8267a000d87a0a8268388e898262d8008e2cd2c909826c58d6c20c8eccd4c9098263b800d6380c8eccd4c909d4a9008267c0008268a800d878078269308e9c826ab0008ea8d2c808d6490c8eccd4c808826c28d6ca0a8eaad4a808d48707d42308d49c0a8262408eaa8e89d2a909d47908826348d40808d4b808848801510806281615826758ca47097b6950d42907826420d43408d487078877017b67d8006827957740683bda370b68979577406848da4708958780006430d43209da970bd8870a949a8eac88b7f300857901daa90c88c7019573ff9ac89aaac99a099ab7f2007b68c8008e8a8e3bda3a0b8e9a7b67d00088780001858801db9a08dbcb088267d800d47808948094827b62d800644c948c8267509487826b5852083a038268d0008588ff008262c800d42808d4390ad4a80851082103826ad00095a7017b67d800887801c898087b68b800d47808888801c828087b68a800d82808c838087b68b0009aa8ff007b68c0009a898000826750644850201c02a61c7b67c8007b6898008267408268488269c00050201e02b41c7b67a00082679800d487077b6798008268d0009a897f82675082682050202002921c8269c000889a80007b6ad000826b9800dbab08826b48da9b087b6890008268c800826ba000d4b808daa708826740da97087b68c80082675082682050202202511c826ba800826cb0008269b800d49c0c826ad800d4ba0ad4ca0a8269d00093987b68c00093977b67d000520a0f330c4916788260900028e60149167010278267d80095798082674082684850202402db1b7b6798007b68a0008267508268208269d80050202602c31b7b6780007b6888008268d8009a89800082674082684850202802cd1b82698800d498088269d800889a80007b6a8800826ba000daab08826b20da9b087b68a00082688000d4870782689800daa807826850da98077b67980082674082684850202a025f1b330c8269880093989397826b7095b9ff7b69688eb99599ff7b696082609000017b6880007b6c88004916788268980098893f826ca00097ca01d49a03978901980b3fd49b0b7b6b9000826a60d33a087b689800d83a08826968d8b90282699800db980282688000978801987b3fd4b8087b68800098cb3f977701d47b0b9707018268c800988c3fd4c7077b67a000978c018267c00098783fd4c808977c018267d00098703fd40c0c97770182698800d497077b67d00086c77b67c00086877b67c8008267a0008670c9ba07d82707d8ba0882648000c94a0cc98c0cc97c0c99c23f826770d2720782699000c979087b689800d87908c983077b67a0009438c98b07d88b08c98408826ad800826cb800d4ca09889901826ba800d89b03c99b0b88a901c99c0c8269b000c9390995aaff7b6cb8007b69b000d4c9097b6ad800d4ba0ad4a909842c017b6ba8005209d5fe8269c80098973f970801d47802826ac00098a83f979901d49808826bd00098b93f97aa0197bb01d4bc07826b78d4b909d4a90cd4b8087b68d800d42b00826b5882642001d87b0a826838d3c809d8c8037b6ab800da9a03826b288269d800d89b02826830d3080ad808087b62a800daa208d3b909d4a9097b63b000da93085108062868117b60c0007b6cc8007b67d000984904826b4097b83cd498088e8c826950989904974a3cd4a90988997102859901db8c0998b704826a4897a83cd487078e7898aa048eabdaa80bd4a707da790b95695818520b37330790010333089001029777209877207b6798009788209888207b68a0008262d000826cc800826ac0008268d8008263582848014929800149297801492970014929680118956740079568c01950202c02efbe956800078287407b67a0008287507b6798008287487b6790000a09826890006f88978920826a98006faa98aa20d4a909988820826aa0006faa330b90010397ac20d4c80898aa203d0aa001033e089801033e09900103956858188269c0007b89a001956858188269d8007b899801956858188269c8007b899001956858188269d0007b898801956858184828a8018e77fc089a78956958187b98e001956958187b98d801956958187b98d001956958187b98c80197bb2098bb209777237b6b9800d4b7079568e0199788209888203309900102956a201a97aa20d48a0a979920989b209568001a978820d4b80c3308ff3309ff7b6ba0000a027b6790009567200750202e025b118268d800826ac000826cc8008262d000826358956958188267900052072006826728c9870b8268b000c98b077b67d000d88b07826830c9a808826aa800c9a808c978087b68d800826738c9c7078268b800c987077b67c800c923077b67c000492900024929f8014929f0014929e80116956760069568401a502030026abd95690006829768829860829a707b6ab800977938988808d498087b68b00097a838987708d487077b67a8000a098268a8006f88988920826ab0006faa97ab20d4b909978820826bb8006fbb97bb0898bb20d4b80898aa203d0aa001033e099801033e089001038268d80095695818959a00027ba8208268d0007ba8188268c8007ba8108268c0007ba808482928028e77fc089a787ba8607ba8587ba8507ba84897772382689800d487079568601a9788209888209569a01a979920d4890a9568801a978820826ba000d4b80c3308ff3309ff0a027b67b8009567400650203202fb0f8267b8005207b703956858184928800249287802492870024928680213956780059568c01a502034025dbc826798057b679000826790057b679800826788057b67a000826780057b67a800956858184928a00249289802492890024928880216956760059568e01a502036021abc826778057b678800826770057b67b800826768057b678000826760057b67789567400533084050203802c2b9956b000582b75882b85082b94882ba40d49707d48a09d47909989920d48707977720d49707510706281eec14070000000000ffffff7b6770140700000000ffffffff7b67b0008267c0007b6720058267c8007b6728058267d0007b673005956820058267d8007b67380564a77b6ad80050203a0286ba82677898770882698000979838d48707989808826ab80097a938d4980897a9189899204926d8047b69d0047b68c8047b67c004826790007b67f804826798007b67f0048267a0007b67e8043a070801023a081001023a09180102826aa8007b6ae004956c00057bc7187bc8107bc9083a0720010233082095690005956ae004956bc0047bc78267d80050203c027fbc826790007b679804826798007b6790048267a0007b6788049567a004956880048269a8007b69800450203e021a11956b000482b7a00082b8a80082b9b00082bab800956c5818492cc002492cb802492cb002492ca8021395cb00027bbae0007bb9d8007bb8d0007bb7c8009567001b9568201b50204002f1ba95685818492800034928f8024928f0024928e80212492820034928180349281003492808039567401b9568601b50204202beba8267708268b800d28707826888008488ff956a5818492a4003492a3803492a300395ab0003491b28167bb8607bb758492a5003492a48039567801b9568a01b5020440279ba9568581849288003492878034928700349286803154928a0034928980349289003492888039567c01b9568e01b5020460246ba956858184928c0034928b8034928b0034928a803144928e0034928d8034928d0034928c8039567001c9568201c5020480213ba3309330a3302330b0188971094a7d4b2089487510738039517e08478e07b68b8006481959702d8970c7b69d000c8ca097b6ad800826ad800d8a90adacc0ac82a0ad82a0cc8bc0c7b89087b877b8a107b8c18956760047b6bc8007b62c00050204a022eb982677004826878048269b000d297078488ff956958184929f0034929e8037b9800047b97f8039568401c8267b80050204c027bb9826bc800826ad8008269d000959901889701c87a0ad4a9078877018268c000c88707d88708c88b0b64722847ff9567200633084050204e0294b695680006828b38828c30828a28828720502250026b1051080628ffe849261006492608064926000633025202140900000000a079c30801956800067b6918067b67d8007b6ad0007b6bc8007b6cc0005020540279b78268d8008267c800826ac000d47a0a50225602710f52070628abe88387044926f8054926f0054926e005209568e0054926e8057b6ac8007b6bc0005020580238b750225a02600f5207062879e88387244926d8054926d0054926c005159568c0054926c80550205c020eb78269d8001407bcffffff00000000d8790750225e029c0f520706283ee88397443a08f800023a09000102956a00057ba8b8007ba9b000140800000064656c69617ba8a8009568a0054926a0053300700228b8b6956700073308405020600274b595680007828b18828c10828a088287502262024c0f51080628e0e74926f0064926e8064926e00633026402140900000000a079c308019568e0067b69f8067b67d8007b6ad0007b6bc8007b6cc000502066025ab68269d0008268d8008267c800826ac000d47a0a140b00000000010000001407fcffffff00000000d87807949794a75207062873e78387044926d8064926d0064926c006209568c0064926c8067b6ac8007b6bc0005020680200b68269d8008267c0009577dcd8790750226a02910e5207062833e78397244926b8064926b0064926a006139568a0064926a80650206c02c8b51407bcffffff000000008268d800d8780750226e02560e52070628f8e68267d8008377443a08e800023a09f00002956a00067ba898007ba990001408000000000064656c7ba8880095688006492680065020700272b53308648267d80050207202d1b883783307013309640a0c95685818280795685818014928200449281804492810044928080413956740049568601c5020740223b6826758047b67c000826750047b67c800826748047b67d000826740047b67d8009567581849274004492738044927300449272804956720049568801c50207602e1b5826738047b67b800826730047b67b000826728047b67a800826720047b67a000956700043308405020780288b3956b000482ba1882b81082b90882b750227a02c60d51080628f4e58268a0007b68e0038268a8007b68e8038268b0007b68f0039568e0038269b8007b69f8037b67b80050207c0279b48267c000956b00037bb7b8008267c8007bb7b0008267d0007bb7a8003a072801023a083001023a09380102826ad8007bbaa0007bb7d8007bb8d0007bb9c8003a074001023308209569c003956aa0037bb7c0008267b80050207e02f8b5330890010283883307283c0333089001028388330701282f0333089001028388330701282203330890010283883307012815033308900102838833070128080395670020837760023308040a04956b582095bc000282c70882c81082c91882ca20492b4002492b3802492b3002492b28027bca607bc9587bc8507bc748956780229568a0225020800204b533089001028388330728b1023308900102838833070128a4023308900102838833070128970233089001028388330701288a0233089001028388330701287d0233089001028388330701287002330890010283883307012863029567ff079577594927580449275004492748046479140700000000717b484e9568ff079588a1047b97600433075020820204b39568ff079588594928400449283804492828043264893307049568ff07958881044929300450208402d9b239087c010256183f1220037c0102403308900102283e0333089001022836033308900102838833070128d9013308900102838833070128cc013308900102838833070128bf013308900102838833070128b2013308900102838833070128a5013308900102838833070128980133089001028388330701288b0133089001028388330701287e01956858184928c0064928b8064928b0064928a806189567ff079577e1059568001f502086021db39568ff0795885980879c058288a0059777208269d800d497078269d000d49808956a5818492ae006492ad806492ad00695ab0006492bc800188269c0007bb9f0008269c8007bb9e8007ba800077bb7f8009567201f9568401f502088023fb333089001028388330728ec003308900102838833070128df003308900102838833070128d200956858204928e0024928d8024928d0024928c80201956720238268d80050208a02f6b233089001028388330728a300330890010283883307012896003308900102838833070128890033089001028388330701287c33089001028388330701287052471ca62e0752492a8007492a7807492a7007492a6807956700108377c0070a0f956a58100195ac000782c77882c8800082c97064ab82ca68d49808d4a707d487075107870133089001028388330701281e330890010283883307012812838833070133090a0c330890010228f233090a0c330890010228e7330890010228e0330890010228d9330890010228d2330890010228cb330890010228c4330890010228bd330890010228b6330890010228af330890010228a8330890010228a13308900102289a330890010228933308900102288c330890010228853308900102287eff33089001022876ff3308900102286eff826cd80082cb1082c81882c90864a282cad49808d4ba0ad4a8088e884922c0054922b8057b28a805956800164922b0057b67d80050208c0218b03308208267d80050208e0277b3837833092033070a0c280a33092033070a0c01956758104927980249279002492788026479140700000000717b484e9568e0127b97a002330750209002ccaf3302920295685810014928800249287802492868023264893307049568c0124929700250209402a3af39087c010256183f1120037c0102403308900102280833089001020183883307013309240a0c018267d8008177561703610133089001022885fe956758104927980549279005492788056479140700000000717b484e9568e0157b97a0053307502096023daf3302980295685810014928800549287805492868051164893307049568c0154929700550209a0214af39087c010256183f1220037c01024033089001022879ff33089001022871ff9567ff079577594927780749277007492768076479140700000000717b484e9568ff079588c1077b978007330750209c02c2ae9568ff079588594928600749285807492848071164893307049568ff079588a1074929500750209e0297ae39087c010256183f1220037c010240330890010228fcfe330890010228f4fe4926b0024926a8024926a002140700000000717b484e9568a0027b67b80233075020a00252ae4926980249269002492680021133070495688002492688025020a20234ae39087c010256183f1220037c01024033089001022899fe33089001022891fe492ba007492b9807492b9007492b8807956700019568e0175020a402e9ae956b000182b982b70882b81082ba187b6af8007b68f0007b67e800330780009568e0007b69e0005020a602caad39087c010256289f001820037c0102a00033079001028378800028b0fd33079001028378800028a4fd492690074926880749268007140700000000717b484e956880077b67980733075020a8027bad4926780749267007492660071133070495686007492668075020aa025dad39087c010256183f1220037c010240330890010228c2fd330890010228bafd492690034926880349268003140700000000717b484e956880037b67980333075020ac0218ad4926780349267003492660031133070495686003492668035020ae02faac39087c010256183f1220037c0102403308900102285ffd33089001022857fd951170ff7b1088007b1580007b1678951590008411f064728289827408828c088273959a1fd89a00c80c0984aae07b1308c8a303d8a30bc8490ac8ba0ad39a06d89a07da6b07822b18d8c90c828610822210828818da000cc86c0cd86c06c82c09c89707d8c90cd89709c8b808c86808c8c808c8980c8ec88e79dbc809d4c7088ea6db8906520657821808d88308d34a09d84a06da9806d82708d3bc09d8bc0bda980bd32708d49808da860b520b307b13507b1a587b17603307409518507b1c685020b00214ac955170ff8210880082158000821678951190003200491140491138491130140700000000717b484e9518307b174833075020b202deab491128491120491110413307049518104911185020b402c5ab39087c010256183f0b20037c01024001330890010283883307013309243300b6020a0c01951120ff7b10d8007b15d0007b16c8009515e0008411e064760a0b01510718017b16180a0b64769517a0003308405020b80233aa8219b800821cb0007b1c388212a8007b12308213a0007b132895671f7b1620d8670864968477e0957920d87907c8780ad88a0bda770b4911787b19607b1698007b1c90007b1288007b1380007b1a68951780009518607b1b705020ba0239fe821728821930d46909821a38d4a708d49808988820d4a909979920d49808520882004911584911504911489518408219207b19405020bc02d4aa0a0b01821a287b1620821838d468081409e0ffffff00000000d89a09821b3094b99489510943647698772052073b83a72083687b181064685020be0202ae7a16c00083778318c00033090a0a01821b288117c000821618821820821938821a30821c10aec70e00330a33093308330b60017b6b7b6a087b69107b68185022c002f304320051070b5022c402e80432009517a0003308405020c602fea85022c8028e035207625022ca0260045020cc0223aa5022ce024d0351074d821718837704491178491170491160209518604911685020d002fea95022d2021a04510728821618836724491158491150491140129518404911485020d402d9a95022d602a803520704008216188367443a086001023a096801027b18387b1930140800000000000078657b18289518204911205020d802a0a933086464675020da0201ad83783307013309643300dc020a0c3302de022809035022de02060351070b5022e002120432009517a0003308405020e20228a85022e402b8025207625022e6028a035020e8024da95022ea02770251074d821718837704491178491170491160209518604911685020ec0228a95022ee024403510728821618836724491158491150491140099518404911485020f00203a95022f202d202520704008216188367443a087001024911287b1838140800000000000000727b18309518204911205020f402cfa833086464675020f60230ac83783307013309643300f8020a0c018289828218828a08828c10959b0188b901c8a909d49b0a88aa01c8ca0ad8ca0cc82c0cd4c902d4ab08d428085108107b7b7b79087b7a107b7c1832009511b07b10487b15409515508411f0491130491128491120140700000000717b484e9518207b173833075020fa0249a849111849111049011133070464184911085020fc0232a839087c010256183f0b20037c01024001330890010283883307013309240a0c33073300fe0228a8ab33075020fe02a3ab330701502000039aab140b00000000010000001407fcffffff00000000d878078269d000949794a73202826ac8008269d0008268d8008267c0009577dcd87807949794a73202826ad8001407bcffffff00000000d87a078268d00094878268c80094873202d49b0bd48709d4b909989920d4b808978820d49808320282970882988199106f77987a206f88978b20d4ba0a9777206f99989920d4970798882032028268d00094878268c80094873202d4ba09d4c708d49808988820d4c909979920d498083202d49707d48b09d47909989920d48707977720d497073202826878826768826a60d47a0a140b00000000010000001407fcffffff00000000d87807826970949794a7320283870433085810c886093202d49a0ad48709d4a909989920d4a808978820d498083202821908d46909140600000000010000001407fcffffff00000000821818d8780782181094877b1908949732028219b8008216b0008217a8008218a0007b17107b1908d497077b1818d46808d47808988820d46707977720d487073202951120ff7b10d8007b15d0007b16c8009515e0008411f0827810827918827a088277d4a909d48707d4970732028269781407bcffffff00000000d879078268709487826868948732021407bcffffff00000000d87607821810948782180894873202826a688269708268788267609577dcd87807949794a73202826bc800826ad0008268d8008267c0009577dcd8780794a794b732029567dc821818d87807821810948782180894873202492190004921880049218000140700000000a079c308951880007b179800821718320282970881981082996f77977a206f88988820d4a808320282b75882b86082b95082ba48d49808d4a707d48707320233075818c8760b95bc0007320283872433085810c8860a3202955120ff8210d8008215d0008216c8009511e000320282c7b80082c8c00082c9b00082caa800d49808d4a707d48707320282c71882c82082c91082ca08d49808d4a707d487073202849a40520a195109148d9a40cfa80ad09808d09707d4a707320032009597c0d0780733083200849a40520a195109148d9a40d0a70acf9707cf9808d4a808320032009598c0cf870833073200214225a952484992244992244992244992244992244992244992244992244992244992244992542529a524292949a84a494a922449922449922449922449922449922449922449929224294955494a92284925495592922425494a5292aaaa242549492a498a88889424494a92a442a5949224a59492a4922222a28888484992242549925292449228959494142952a4489122458a92144a920421240ca5496948242222222512912452444434929424429224121145224224949a90a488101191a42429224444244952121122024892a4221209292549484a9244448808914822224422111121224244884892444484442222224444444244844848a4244524449242444402189124214422424412422422448410091101444492244922122222224444248011491242242244242144224244089110220920112109258d881011224992244992440089881011111122224444448488081121228988101111112222444444848808111111a16a4a91a4244992242989244424898888842449922429111122422412894444448448241289848888089148242291904824420889880889888448882485184a154a154a8d8800220a112111214430949424a12a295425224844102244228a228a18810412114840200181040404121048208104121048402011111151240892281211212282484444824824499044111111118988888846044914898810114444444488a2884410892492444444442422a21011448c2449924482884892244992888800222222888804491011222282200922424410240921222222121111d188888824491489881011448c24499224222244041149444488082212894422a211914424912492249124499294244a22224404112322229192928824924412114544442289441249924449121111d188888824491489049148241211119244248888449224491401240a8a281244924449455592244a24922853a42422222282884424499244249124892412412489248924129144924822914492482249492412518988886844444492248a44a48888884a91242289a84844444444228924924412898888888820128944222241242222822492888888888848444444342248a248448488206224128944248888880892888888888822121111118d0892281291464492a49224499288888888201289442222412492244822898888888888444444442382248a44a41111401249541289444484880822111111218a221241249248128988888848442292242241242249922449222202888888082222419248448888882048128908111104494288444444442222221a9148922451248922524444444444922222440411111111a22822114422892411111111894844541209222249922449222202888888202212244144888808822488081141049020498888002222121111118d08922812112122824844444444442488444444904422114922222222121111d188888824491489881011412422222222124422222248228988888888880412111189460449148948108948122411212222124522298a888888489288202291484444924434922412492492441449a22849544444444422498a24924412494944103122922492444410918428a288441029894444101189444422890892282222440411111149448288888848929222224204111121228844229148a2888888684444442249924824491249124992244a124944840822220a1141c444229188049124499224221111111151114491544a529248444444448410424444449488888820892449228a8888880811111111844a44444423124992248a4444888820121111111111092211111144442291888822121111d188888824491489881011448c88888848101111114424924892442491884444443422499224512422424404914824128988049148922022128944448a48444444512408922812112122824824128944448248244910111111111151442222221a111191248922521211114422222249229244440491888888882411114124914824221a1191244992449224122929894822492411d12889482449249124894810491244444400232222828848108908111141108908114104902012428888082022121111118d089228121121228248444444444424884424092222914844a488444444248a048924491245222244441089888888880491888808229288888888884852926824888888089291204624499224898800222222828848104144888808820822424410444288880820222211092211119124492222228088888820221244221121222282201289081111049110229104908888444490482422124124484444541189a8882952242949924444448a202211499244444444924412892012892491442249922449124924892412114989043122499224898808202222228888041144848888208844448808824808111101444424224124222249924444041011111141442488448a08111111049148442422822012428844124044229120462449922411110144444404119120828810111104918808114110092122028888484482489224499248120144121141442488444a84484444104422222244228220124244440011918848442249924404452592481249a488888888114922a2880822224992249124111121224922828888101144229148444421228888884892244992244924492291442249924422924822491249244924492445494aa42422294a4a5292a4922449922449a29452a22415495289a81491245251291111492212492489242222051149041189481244442489882489248888441245911209912488482288884882484444928844924882a29294c4884422491249248944924892482291249244a228a22491244924922849441249124944224944248924912449124926492491249124924444929424912449294924842492888848222244049148248a1225894292104244444444444444141111119124124988248924892282888844441289249144128944448488209244924812458992444912428888442291889224914822894492228288888810114444444444448488202222221209224992244912400288888888882882249244924444444444841022224948441441444444444410111111112122222282888810111111241289888848222282888810111111444484888888a06a4a914449242249929288082222898888882022922491a44482489220898808604444441011099244848888204812112282082041921022228088884482485290444404302222228888480001a4924484888820220992448488208048904442888800222248042545312242441011111111111111414444444424882405494444444444101111112184888808898808422594849250124a225244924444244944102aa12494849250124a424924220a20220a2211a14444102208090925a12494849250124a4249288988081111442212894444448888888808422594849288881011844a280925a1144a818888886224529244288552a9508542a15028140a8542a15028140a0909892495a48888882011942a3522a200220a22468412118408426149a31012115100110511234289084204212191882880882888448412114188202424220288288808890842042121111111419424222222082110222112110144144484440421829090880820a2202224220811848444442295942449922449922449922495942449922449922409222251920092822492042182a1241a1111a9918a04118944929424491211914882244992249224099a24012495929482286a224992559624284191204810044992488220491249106412421240922005255124485024081204419224922048924412049984248024410a4aa22549922449929294244912405290242508110c25152948104000892a2222a9228044514992a4945292921445254992922449491240004995484992a424800092948a88489224498a88882429490920291540522a49922a2222a992a45444041091924a494992a44894481111514444929224494992249554922449250500"},"methodIdentifiers":{"GRID_SIZE()":"7fc4eda8","canDetermineWinner()":"c336b9ca","currentGameId()":"536a3ddc","determineWinner()":"33b16d93","entryFee()":"072ea61c","finalSelectionBlock()":"95f7e7dd","gameFee()":"ea777eec","getGrid()":"134000c0","getTileOwner(uint256)":"71be7faf","grid(uint256)":"51d2cc8f","isGameComplete()":"789c20f9","owner()":"8da5cb5b","prizePool()":"719ce73e","selectTile(uint256)":"9793ed08","teamWallet()":"59927044","tilesSelected()":"5fb9c98c","updateEntryFee(uint256)":"aa182626","updateGameFee(uint256)":"b70a6dec","updateTeamWallet(address)":"7cb332bb","winner()":"dfbf53ae","winnerDetermined()":"7f1ad6f1"}},"hash":"f5fab7f37fd850d65ebc967ba37ab3a58819c54abc08fc4f989ee746f81fcb20","factoryDependencies":{}}}}